
hw_sim/perf_test/build/perf_test.elf:     file format elf32-littlearm


Disassembly of section .interrupts:

87800000 <__VECTOR_TABLE>:
87800000:	e59ff018 	ldr	pc, [pc, #24]	; 87800020 <__VECTOR_TABLE+0x20>
87800004:	e59ff018 	ldr	pc, [pc, #24]	; 87800024 <__VECTOR_TABLE+0x24>
87800008:	e59ff018 	ldr	pc, [pc, #24]	; 87800028 <__VECTOR_TABLE+0x28>
8780000c:	e59ff018 	ldr	pc, [pc, #24]	; 8780002c <__VECTOR_TABLE+0x2c>
87800010:	e59ff018 	ldr	pc, [pc, #24]	; 87800030 <__VECTOR_TABLE+0x30>
87800014:	00000000 	andeq	r0, r0, r0
87800018:	e59ff014 	ldr	pc, [pc, #20]	; 87800034 <__VECTOR_TABLE+0x34>
8780001c:	e59ff014 	ldr	pc, [pc, #20]	; 87800038 <__VECTOR_TABLE+0x38>
87800020:	87801490 			; <UNDEFINED> instruction: 0x87801490
87800024:	87801548 	strhi	r1, [r0, r8, asr #10]
87800028:	87801000 	strhi	r1, [r0, r0]
8780002c:	87801554 			; <UNDEFINED> instruction: 0x87801554
87800030:	8780155c 			; <UNDEFINED> instruction: 0x8780155c
87800034:	87801110 	usada8hi	r0, r0, r1, r1
87800038:	878015b8 			; <UNDEFINED> instruction: 0x878015b8

Disassembly of section .text:

87801000 <FreeRTOS_SWI_Handler>:
87801000:	f96d051f 	srsdb	sp!, #31
87801004:	f102001f 	cps	#31
87801008:	e92d5fff 	push	{r0, r1, r2, r3, r4, r5, r6, r7, r8, r9, sl, fp, ip, lr}
8780100c:	e59f22ac 	ldr	r2, [pc, #684]	; 878012c0 <ulCriticalNestingConst>
87801010:	e5921000 	ldr	r1, [r2]
87801014:	e52d1004 	push	{r1}		; (str r1, [sp, #-4]!)
87801018:	e59f22a4 	ldr	r2, [pc, #676]	; 878012c4 <ulPortTaskHasFPUContextConst>
8780101c:	e5923000 	ldr	r3, [r2]
87801020:	e3530000 	cmp	r3, #0
87801024:	1ef11a10 	vmrsne	r1, fpscr
87801028:	1d2d0b20 	vpushne	{d0-d15}
8780102c:	1d6d0b20 	vpushne	{d16-d31}
87801030:	152d1004 	pushne	{r1}		; (strne r1, [sp, #-4]!)
87801034:	e52d3004 	push	{r3}		; (str r3, [sp, #-4]!)
87801038:	e59f027c 	ldr	r0, [pc, #636]	; 878012bc <pxCurrentTCBConst>
8780103c:	e5901000 	ldr	r1, [r0]
87801040:	e581d000 	str	sp, [r1]
87801044:	e59f0280 	ldr	r0, [pc, #640]	; 878012cc <vTaskSwitchContextConst>
87801048:	e12fff30 	blx	r0
8780104c:	e59f0268 	ldr	r0, [pc, #616]	; 878012bc <pxCurrentTCBConst>
87801050:	e5901000 	ldr	r1, [r0]
87801054:	e591d000 	ldr	sp, [r1]
87801058:	e59f0264 	ldr	r0, [pc, #612]	; 878012c4 <ulPortTaskHasFPUContextConst>
8780105c:	e49d1004 	pop	{r1}		; (ldr r1, [sp], #4)
87801060:	e5801000 	str	r1, [r0]
87801064:	e3510000 	cmp	r1, #0
87801068:	149d0004 	popne	{r0}		; (ldrne r0, [sp], #4)
8780106c:	1cfd0b20 	vpopne	{d16-d31}
87801070:	1cbd0b20 	vpopne	{d0-d15}
87801074:	1ee10a10 	vmsrne	fpscr, r0
87801078:	e59f0240 	ldr	r0, [pc, #576]	; 878012c0 <ulCriticalNestingConst>
8780107c:	e49d1004 	pop	{r1}		; (ldr r1, [sp], #4)
87801080:	e5801000 	str	r1, [r0]
87801084:	e59f222c 	ldr	r2, [pc, #556]	; 878012b8 <ulICCPMRConst>
87801088:	e5922000 	ldr	r2, [r2]
8780108c:	e3510000 	cmp	r1, #0
87801090:	03a040ff 	moveq	r4, #255	; 0xff
87801094:	159f422c 	ldrne	r4, [pc, #556]	; 878012c8 <ulMaxAPIPriorityMaskConst>
87801098:	15944000 	ldrne	r4, [r4]
8780109c:	e5824000 	str	r4, [r2]
878010a0:	e8bd5fff 	pop	{r0, r1, r2, r3, r4, r5, r6, r7, r8, r9, sl, fp, ip, lr}
878010a4:	f8bd0a00 	rfeia	sp!

878010a8 <vPortRestoreTaskContext>:
878010a8:	f102001f 	cps	#31
878010ac:	e59f0208 	ldr	r0, [pc, #520]	; 878012bc <pxCurrentTCBConst>
878010b0:	e5901000 	ldr	r1, [r0]
878010b4:	e591d000 	ldr	sp, [r1]
878010b8:	e59f0204 	ldr	r0, [pc, #516]	; 878012c4 <ulPortTaskHasFPUContextConst>
878010bc:	e49d1004 	pop	{r1}		; (ldr r1, [sp], #4)
878010c0:	e5801000 	str	r1, [r0]
878010c4:	e3510000 	cmp	r1, #0
878010c8:	149d0004 	popne	{r0}		; (ldrne r0, [sp], #4)
878010cc:	1cfd0b20 	vpopne	{d16-d31}
878010d0:	1cbd0b20 	vpopne	{d0-d15}
878010d4:	1ee10a10 	vmsrne	fpscr, r0
878010d8:	e59f01e0 	ldr	r0, [pc, #480]	; 878012c0 <ulCriticalNestingConst>
878010dc:	e49d1004 	pop	{r1}		; (ldr r1, [sp], #4)
878010e0:	e5801000 	str	r1, [r0]
878010e4:	e59f21cc 	ldr	r2, [pc, #460]	; 878012b8 <ulICCPMRConst>
878010e8:	e5922000 	ldr	r2, [r2]
878010ec:	e3510000 	cmp	r1, #0
878010f0:	03a040ff 	moveq	r4, #255	; 0xff
878010f4:	159f41cc 	ldrne	r4, [pc, #460]	; 878012c8 <ulMaxAPIPriorityMaskConst>
878010f8:	15944000 	ldrne	r4, [r4]
878010fc:	e5824000 	str	r4, [r2]
87801100:	e8bd5fff 	pop	{r0, r1, r2, r3, r4, r5, r6, r7, r8, r9, sl, fp, ip, lr}
87801104:	f8bd0a00 	rfeia	sp!
87801108:	e320f000 	nop	{0}
8780110c:	e320f000 	nop	{0}

87801110 <FreeRTOS_IRQ_Handler>:
87801110:	e24ee004 	sub	lr, lr, #4
87801114:	e52de004 	push	{lr}		; (str lr, [sp, #-4]!)
87801118:	e14fe000 	mrs	lr, SPSR
8780111c:	e52de004 	push	{lr}		; (str lr, [sp, #-4]!)
87801120:	f1020013 	cps	#19
87801124:	e92d101f 	push	{r0, r1, r2, r3, r4, ip}
87801128:	e59f31a4 	ldr	r3, [pc, #420]	; 878012d4 <ulPortInterruptNestingConst>
8780112c:	e5931000 	ldr	r1, [r3]
87801130:	e2814001 	add	r4, r1, #1
87801134:	e5834000 	str	r4, [r3]
87801138:	e59f2170 	ldr	r2, [pc, #368]	; 878012b0 <ulICCIARConst>
8780113c:	e5922000 	ldr	r2, [r2]
87801140:	e5920000 	ldr	r0, [r2]
87801144:	e1a0200d 	mov	r2, sp
87801148:	e2022004 	and	r2, r2, #4
8780114c:	e04dd002 	sub	sp, sp, r2
87801150:	e92d400f 	push	{r0, r1, r2, r3, lr}
87801154:	e59f1180 	ldr	r1, [pc, #384]	; 878012dc <vApplicationFPUSafeIRQHandlerConst+0x4>
87801158:	e12fff31 	blx	r1
8780115c:	e8bd400f 	pop	{r0, r1, r2, r3, lr}
87801160:	e08dd002 	add	sp, sp, r2
87801164:	f10c0080 	cpsid	i
87801168:	f57ff04f 	dsb	sy
8780116c:	f57ff06f 	isb	sy
87801170:	e59f413c 	ldr	r4, [pc, #316]	; 878012b4 <ulICCEOIRConst>
87801174:	e5944000 	ldr	r4, [r4]
87801178:	e5840000 	str	r0, [r4]
8780117c:	e5831000 	str	r1, [r3]
87801180:	e3510000 	cmp	r1, #0
87801184:	1a000003 	bne	87801198 <exit_without_switch>
87801188:	e59f1150 	ldr	r1, [pc, #336]	; 878012e0 <vApplicationFPUSafeIRQHandlerConst+0x8>
8780118c:	e5910000 	ldr	r0, [r1]
87801190:	e3500000 	cmp	r0, #0
87801194:	1a000005 	bne	878011b0 <switch_before_exit>

87801198 <exit_without_switch>:
87801198:	e8bd101f 	pop	{r0, r1, r2, r3, r4, ip}
8780119c:	f1020012 	cps	#18
878011a0:	e49de004 	pop	{lr}		; (ldr lr, [sp], #4)
878011a4:	e16ff00e 	msr	SPSR_fsxc, lr
878011a8:	e49de004 	pop	{lr}		; (ldr lr, [sp], #4)
878011ac:	e1b0f00e 	movs	pc, lr

878011b0 <switch_before_exit>:
878011b0:	e3a00000 	mov	r0, #0
878011b4:	e5810000 	str	r0, [r1]
878011b8:	e8bd101f 	pop	{r0, r1, r2, r3, r4, ip}
878011bc:	f1020012 	cps	#18
878011c0:	e49de004 	pop	{lr}		; (ldr lr, [sp], #4)
878011c4:	e16ff00e 	msr	SPSR_fsxc, lr
878011c8:	e49de004 	pop	{lr}		; (ldr lr, [sp], #4)
878011cc:	f96d051f 	srsdb	sp!, #31
878011d0:	f102001f 	cps	#31
878011d4:	e92d5fff 	push	{r0, r1, r2, r3, r4, r5, r6, r7, r8, r9, sl, fp, ip, lr}
878011d8:	e59f20e0 	ldr	r2, [pc, #224]	; 878012c0 <ulCriticalNestingConst>
878011dc:	e5921000 	ldr	r1, [r2]
878011e0:	e52d1004 	push	{r1}		; (str r1, [sp, #-4]!)
878011e4:	e59f20d8 	ldr	r2, [pc, #216]	; 878012c4 <ulPortTaskHasFPUContextConst>
878011e8:	e5923000 	ldr	r3, [r2]
878011ec:	e3530000 	cmp	r3, #0
878011f0:	1ef11a10 	vmrsne	r1, fpscr
878011f4:	1d2d0b20 	vpushne	{d0-d15}
878011f8:	1d6d0b20 	vpushne	{d16-d31}
878011fc:	152d1004 	pushne	{r1}		; (strne r1, [sp, #-4]!)
87801200:	e52d3004 	push	{r3}		; (str r3, [sp, #-4]!)
87801204:	e59f00b0 	ldr	r0, [pc, #176]	; 878012bc <pxCurrentTCBConst>
87801208:	e5901000 	ldr	r1, [r0]
8780120c:	e581d000 	str	sp, [r1]
87801210:	e59f00b4 	ldr	r0, [pc, #180]	; 878012cc <vTaskSwitchContextConst>
87801214:	e12fff30 	blx	r0
87801218:	e59f009c 	ldr	r0, [pc, #156]	; 878012bc <pxCurrentTCBConst>
8780121c:	e5901000 	ldr	r1, [r0]
87801220:	e591d000 	ldr	sp, [r1]
87801224:	e59f0098 	ldr	r0, [pc, #152]	; 878012c4 <ulPortTaskHasFPUContextConst>
87801228:	e49d1004 	pop	{r1}		; (ldr r1, [sp], #4)
8780122c:	e5801000 	str	r1, [r0]
87801230:	e3510000 	cmp	r1, #0
87801234:	149d0004 	popne	{r0}		; (ldrne r0, [sp], #4)
87801238:	1cfd0b20 	vpopne	{d16-d31}
8780123c:	1cbd0b20 	vpopne	{d0-d15}
87801240:	1ee10a10 	vmsrne	fpscr, r0
87801244:	e59f0074 	ldr	r0, [pc, #116]	; 878012c0 <ulCriticalNestingConst>
87801248:	e49d1004 	pop	{r1}		; (ldr r1, [sp], #4)
8780124c:	e5801000 	str	r1, [r0]
87801250:	e59f2060 	ldr	r2, [pc, #96]	; 878012b8 <ulICCPMRConst>
87801254:	e5922000 	ldr	r2, [r2]
87801258:	e3510000 	cmp	r1, #0
8780125c:	03a040ff 	moveq	r4, #255	; 0xff
87801260:	159f4060 	ldrne	r4, [pc, #96]	; 878012c8 <ulMaxAPIPriorityMaskConst>
87801264:	15944000 	ldrne	r4, [r4]
87801268:	e5824000 	str	r4, [r2]
8780126c:	e8bd5fff 	pop	{r0, r1, r2, r3, r4, r5, r6, r7, r8, r9, sl, fp, ip, lr}
87801270:	f8bd0a00 	rfeia	sp!
87801274:	e320f000 	nop	{0}
87801278:	e320f000 	nop	{0}
8780127c:	e320f000 	nop	{0}

87801280 <vApplicationIRQHandler>:
87801280:	e52de004 	push	{lr}		; (str lr, [sp, #-4]!)
87801284:	eef11a10 	vmrs	r1, fpscr
87801288:	ed2d0b20 	vpush	{d0-d15}
8780128c:	ed6d0b20 	vpush	{d16-d31}
87801290:	e52d1004 	push	{r1}		; (str r1, [sp, #-4]!)
87801294:	e59f103c 	ldr	r1, [pc, #60]	; 878012d8 <vApplicationFPUSafeIRQHandlerConst>
87801298:	e12fff31 	blx	r1
8780129c:	e49d0004 	pop	{r0}		; (ldr r0, [sp], #4)
878012a0:	ecfd0b20 	vpop	{d16-d31}
878012a4:	ecbd0b20 	vpop	{d0-d15}
878012a8:	eee10a10 	vmsr	fpscr, r0
878012ac:	e49df004 	pop	{pc}		; (ldr pc, [sp], #4)

878012b0 <ulICCIARConst>:
878012b0:	87807938 			; <UNDEFINED> instruction: 0x87807938

878012b4 <ulICCEOIRConst>:
878012b4:	87807934 			; <UNDEFINED> instruction: 0x87807934

878012b8 <ulICCPMRConst>:
878012b8:	87807930 			; <UNDEFINED> instruction: 0x87807930

878012bc <pxCurrentTCBConst>:
878012bc:	88001e8c 	stmdahi	r0, {r2, r3, r7, r9, sl, fp, ip}

878012c0 <ulCriticalNestingConst>:
878012c0:	88000000 	stmdahi	r0, {}	; <UNPREDICTABLE>

878012c4 <ulPortTaskHasFPUContextConst>:
878012c4:	8800200c 	stmdahi	r0, {r2, r3, sp}

878012c8 <ulMaxAPIPriorityMaskConst>:
878012c8:	8780792c 	strhi	r7, [r0, ip, lsr #18]

878012cc <vTaskSwitchContextConst>:
878012cc:	87803a19 	usada8hi	r0, r9, sl, r3

878012d0 <vApplicationIRQHandlerConst>:
878012d0:	87801280 	strhi	r1, [r0, r0, lsl #5]

878012d4 <ulPortInterruptNestingConst>:
878012d4:	88002004 	stmdahi	r0, {r2, sp}

878012d8 <vApplicationFPUSafeIRQHandlerConst>:
878012d8:	87804d99 			; <UNDEFINED> instruction: 0x87804d99
878012dc:	87806bfd 			; <UNDEFINED> instruction: 0x87806bfd
878012e0:	88002008 	stmdahi	r0, {r3, sp}
	...

878012f0 <__umodsi3>:
878012f0:	e2512001 	subs	r2, r1, #1
878012f4:	3a000062 	bcc	87801484 <Ldiv0>
878012f8:	11500001 	cmpne	r0, r1
878012fc:	03a00000 	moveq	r0, #0
87801300:	81110002 	tsthi	r1, r2
87801304:	00000002 	andeq	r0, r0, r2
87801308:	91a0f00e 	movls	pc, lr
8780130c:	e3a02000 	mov	r2, #0
87801310:	e3510201 	cmp	r1, #268435456	; 0x10000000
87801314:	31510000 	cmpcc	r1, r0
87801318:	31a01201 	lslcc	r1, r1, #4
8780131c:	32822004 	addcc	r2, r2, #4
87801320:	3afffffa 	bcc	87801310 <__umodsi3+0x20>
87801324:	e3510102 	cmp	r1, #-2147483648	; 0x80000000
87801328:	31510000 	cmpcc	r1, r0
8780132c:	31a01081 	lslcc	r1, r1, #1
87801330:	32822001 	addcc	r2, r2, #1
87801334:	3afffffa 	bcc	87801324 <__umodsi3+0x34>
87801338:	e2522003 	subs	r2, r2, #3
8780133c:	ba00000e 	blt	8780137c <__umodsi3+0x8c>
87801340:	e1500001 	cmp	r0, r1
87801344:	20400001 	subcs	r0, r0, r1
87801348:	e15000a1 	cmp	r0, r1, lsr #1
8780134c:	204000a1 	subcs	r0, r0, r1, lsr #1
87801350:	e1500121 	cmp	r0, r1, lsr #2
87801354:	20400121 	subcs	r0, r0, r1, lsr #2
87801358:	e15001a1 	cmp	r0, r1, lsr #3
8780135c:	204001a1 	subcs	r0, r0, r1, lsr #3
87801360:	e3500001 	cmp	r0, #1
87801364:	e1a01221 	lsr	r1, r1, #4
87801368:	a2522004 	subsge	r2, r2, #4
8780136c:	aafffff3 	bge	87801340 <__umodsi3+0x50>
87801370:	e3120003 	tst	r2, #3
87801374:	13300000 	teqne	r0, #0
87801378:	0a00000a 	beq	878013a8 <__umodsi3+0xb8>
8780137c:	e3720002 	cmn	r2, #2
87801380:	ba000006 	blt	878013a0 <__umodsi3+0xb0>
87801384:	0a000002 	beq	87801394 <__umodsi3+0xa4>
87801388:	e1500001 	cmp	r0, r1
8780138c:	20400001 	subcs	r0, r0, r1
87801390:	e1a010a1 	lsr	r1, r1, #1
87801394:	e1500001 	cmp	r0, r1
87801398:	20400001 	subcs	r0, r0, r1
8780139c:	e1a010a1 	lsr	r1, r1, #1
878013a0:	e1500001 	cmp	r0, r1
878013a4:	20400001 	subcs	r0, r0, r1
878013a8:	e1a0f00e 	mov	pc, lr
878013ac:	90909090 	umullsls	r9, r0, r0, r0

878013b0 <__modsi3>:
878013b0:	e3510000 	cmp	r1, #0
878013b4:	0a000032 	beq	87801484 <Ldiv0>
878013b8:	42611000 	rsbmi	r1, r1, #0
878013bc:	e1b0c000 	movs	ip, r0
878013c0:	42600000 	rsbmi	r0, r0, #0
878013c4:	e2512001 	subs	r2, r1, #1
878013c8:	11500001 	cmpne	r0, r1
878013cc:	03a00000 	moveq	r0, #0
878013d0:	81110002 	tsthi	r1, r2
878013d4:	00000002 	andeq	r0, r0, r2
878013d8:	9a000026 	bls	87801478 <__modsi3+0xc8>
878013dc:	e3a02000 	mov	r2, #0
878013e0:	e3510201 	cmp	r1, #268435456	; 0x10000000
878013e4:	31510000 	cmpcc	r1, r0
878013e8:	31a01201 	lslcc	r1, r1, #4
878013ec:	32822004 	addcc	r2, r2, #4
878013f0:	3afffffa 	bcc	878013e0 <__modsi3+0x30>
878013f4:	e3510102 	cmp	r1, #-2147483648	; 0x80000000
878013f8:	31510000 	cmpcc	r1, r0
878013fc:	31a01081 	lslcc	r1, r1, #1
87801400:	32822001 	addcc	r2, r2, #1
87801404:	3afffffa 	bcc	878013f4 <__modsi3+0x44>
87801408:	e2522003 	subs	r2, r2, #3
8780140c:	ba00000e 	blt	8780144c <__modsi3+0x9c>
87801410:	e1500001 	cmp	r0, r1
87801414:	20400001 	subcs	r0, r0, r1
87801418:	e15000a1 	cmp	r0, r1, lsr #1
8780141c:	204000a1 	subcs	r0, r0, r1, lsr #1
87801420:	e1500121 	cmp	r0, r1, lsr #2
87801424:	20400121 	subcs	r0, r0, r1, lsr #2
87801428:	e15001a1 	cmp	r0, r1, lsr #3
8780142c:	204001a1 	subcs	r0, r0, r1, lsr #3
87801430:	e3500001 	cmp	r0, #1
87801434:	e1a01221 	lsr	r1, r1, #4
87801438:	a2522004 	subsge	r2, r2, #4
8780143c:	aafffff3 	bge	87801410 <__modsi3+0x60>
87801440:	e3120003 	tst	r2, #3
87801444:	13300000 	teqne	r0, #0
87801448:	0a00000a 	beq	87801478 <__modsi3+0xc8>
8780144c:	e3720002 	cmn	r2, #2
87801450:	ba000006 	blt	87801470 <__modsi3+0xc0>
87801454:	0a000002 	beq	87801464 <__modsi3+0xb4>
87801458:	e1500001 	cmp	r0, r1
8780145c:	20400001 	subcs	r0, r0, r1
87801460:	e1a010a1 	lsr	r1, r1, #1
87801464:	e1500001 	cmp	r0, r1
87801468:	20400001 	subcs	r0, r0, r1
8780146c:	e1a010a1 	lsr	r1, r1, #1
87801470:	e1500001 	cmp	r0, r1
87801474:	20400001 	subcs	r0, r0, r1
87801478:	e35c0000 	cmp	ip, #0
8780147c:	42600000 	rsbmi	r0, r0, #0
87801480:	e1a0f00e 	mov	pc, lr

87801484 <Ldiv0>:
87801484:	e52de004 	push	{lr}		; (str lr, [sp, #-4]!)
87801488:	e3a00000 	mov	r0, #0
8780148c:	e49df004 	pop	{pc}		; (ldr pc, [sp], #4)

87801490 <Reset_Handler>:
87801490:	f10c0080 	cpsid	i
87801494:	ee110f10 	mrc	15, 0, r0, cr1, cr0, {0}
87801498:	e3c00a01 	bic	r0, r0, #4096	; 0x1000
8780149c:	e3c00004 	bic	r0, r0, #4
878014a0:	e3c00002 	bic	r0, r0, #2
878014a4:	e3c00b02 	bic	r0, r0, #2048	; 0x800
878014a8:	e3c00001 	bic	r0, r0, #1
878014ac:	ee010f10 	mcr	15, 0, r0, cr1, cr0, {0}
878014b0:	f1020012 	cps	#18
878014b4:	e59fd064 	ldr	sp, [pc, #100]	; 87801520 <Reset_Handler+0x90>
878014b8:	f102001f 	cps	#31
878014bc:	e59fd060 	ldr	sp, [pc, #96]	; 87801524 <Reset_Handler+0x94>
878014c0:	f1020013 	cps	#19
878014c4:	e59fd058 	ldr	sp, [pc, #88]	; 87801524 <Reset_Handler+0x94>
878014c8:	f1080080 	cpsie	i
878014cc:	e59f1054 	ldr	r1, [pc, #84]	; 87801528 <Reset_Handler+0x98>
878014d0:	e59f2054 	ldr	r2, [pc, #84]	; 8780152c <Reset_Handler+0x9c>
878014d4:	e59f3054 	ldr	r3, [pc, #84]	; 87801530 <Reset_Handler+0xa0>
878014d8:	e1520003 	cmp	r2, r3
878014dc:	b4910004 	ldrlt	r0, [r1], #4
878014e0:	b4820004 	strlt	r0, [r2], #4
878014e4:	bafffffb 	blt	878014d8 <Reset_Handler+0x48>
878014e8:	e59f2044 	ldr	r2, [pc, #68]	; 87801534 <Reset_Handler+0xa4>
878014ec:	e59f3044 	ldr	r3, [pc, #68]	; 87801538 <Reset_Handler+0xa8>
878014f0:	e1520003 	cmp	r2, r3
878014f4:	b4910004 	ldrlt	r0, [r1], #4
878014f8:	b4820004 	strlt	r0, [r2], #4
878014fc:	bafffffb 	blt	878014f0 <Reset_Handler+0x60>
87801500:	e59f1034 	ldr	r1, [pc, #52]	; 8780153c <Reset_Handler+0xac>
87801504:	e59f2034 	ldr	r2, [pc, #52]	; 87801540 <Reset_Handler+0xb0>
87801508:	e3b00000 	movs	r0, #0
8780150c:	e1510002 	cmp	r1, r2
87801510:	b4810004 	strlt	r0, [r1], #4
87801514:	bafffffc 	blt	8780150c <Reset_Handler+0x7c>
87801518:	e59f0024 	ldr	r0, [pc, #36]	; 87801544 <Reset_Handler+0xb4>
8780151c:	e12fff10 	bx	r0
87801520:	88400000 	stmdahi	r0, {}^	; <UNPREDICTABLE>
87801524:	883fe000 	ldmdahi	pc!, {sp, lr, pc}	; <UNPREDICTABLE>
87801528:	87808034 			; <UNDEFINED> instruction: 0x87808034
8780152c:	88000000 	stmdahi	r0, {}	; <UNPREDICTABLE>
87801530:	88000104 	stmdahi	r0, {r2, r8}
87801534:	00900000 	addseq	r0, r0, r0
87801538:	00900000 	addseq	r0, r0, r0
8780153c:	88000104 	stmdahi	r0, {r2, r8}
87801540:	8801bd84 	stmdahi	r1, {r2, r7, r8, sl, fp, ip, sp, pc}
87801544:	878078b5 			; <UNDEFINED> instruction: 0x878078b5

87801548 <Undefined_Handler>:
87801548:	eafffffe 	b	87801548 <Undefined_Handler>

8780154c <SVC_Handler>:
8780154c:	e59f006c 	ldr	r0, [pc, #108]	; 878015c0 <FIQ_Handler+0x8>
87801550:	e12fff10 	bx	r0

87801554 <PrefAbort_Handler>:
87801554:	e59f0068 	ldr	r0, [pc, #104]	; 878015c4 <FIQ_Handler+0xc>
87801558:	e12fff10 	bx	r0

8780155c <DataAbort_Handler>:
8780155c:	e59f0064 	ldr	r0, [pc, #100]	; 878015c8 <FIQ_Handler+0x10>
87801560:	e12fff10 	bx	r0

87801564 <IRQ_Handler>:
87801564:	e52de004 	push	{lr}		; (str lr, [sp, #-4]!)
87801568:	e92d100f 	push	{r0, r1, r2, r3, ip}
8780156c:	e14f0000 	mrs	r0, SPSR
87801570:	e52d0004 	push	{r0}		; (str r0, [sp, #-4]!)
87801574:	ee9f1f10 	mrc	15, 4, r1, cr15, cr0, {0}
87801578:	e2811a02 	add	r1, r1, #8192	; 0x2000
8780157c:	e591000c 	ldr	r0, [r1, #12]
87801580:	e92d0003 	push	{r0, r1}
87801584:	f1020013 	cps	#19
87801588:	e52de004 	push	{lr}		; (str lr, [sp, #-4]!)
8780158c:	e59f2038 	ldr	r2, [pc, #56]	; 878015cc <FIQ_Handler+0x14>
87801590:	e12fff32 	blx	r2
87801594:	e49de004 	pop	{lr}		; (ldr lr, [sp], #4)
87801598:	f1020012 	cps	#18
8780159c:	e8bd0003 	pop	{r0, r1}
878015a0:	e5810010 	str	r0, [r1, #16]
878015a4:	e49d0004 	pop	{r0}		; (ldr r0, [sp], #4)
878015a8:	e16ff000 	msr	SPSR_fsxc, r0
878015ac:	e8bd100f 	pop	{r0, r1, r2, r3, ip}
878015b0:	e49de004 	pop	{lr}		; (ldr lr, [sp], #4)
878015b4:	e25ef004 	subs	pc, lr, #4

878015b8 <FIQ_Handler>:
878015b8:	e59f0010 	ldr	r0, [pc, #16]	; 878015d0 <FIQ_Handler+0x18>
878015bc:	e12fff10 	bx	r0
878015c0:	8780154c 	strhi	r1, [r0, ip, asr #10]
878015c4:	87801554 			; <UNDEFINED> instruction: 0x87801554
878015c8:	8780155c 			; <UNDEFINED> instruction: 0x8780155c
878015cc:	87806bfd 			; <UNDEFINED> instruction: 0x87806bfd
878015d0:	878015b8 			; <UNDEFINED> instruction: 0x878015b8

878015d4 <sem_get>:
878015d4:	b570      	push	{r4, r5, r6, lr}
878015d6:	f240 1404 	movw	r4, #260	; 0x104
878015da:	f44f 75fa 	mov.w	r5, #500	; 0x1f4
878015de:	f6c8 0400 	movt	r4, #34816	; 0x8800
878015e2:	4606      	mov	r6, r0
878015e4:	2300      	movs	r3, #0
878015e6:	6003      	str	r3, [r0, #0]
878015e8:	2300      	movs	r3, #0
878015ea:	f04f 32ff 	mov.w	r2, #4294967295	; 0xffffffff
878015ee:	4619      	mov	r1, r3
878015f0:	6820      	ldr	r0, [r4, #0]
878015f2:	f001 f9b1 	bl	87802958 <xQueueGenericReceive>
878015f6:	f002 f885 	bl	87803704 <xTaskGetTickCount>
878015fa:	6863      	ldr	r3, [r4, #4]
878015fc:	b14b      	cbz	r3, 87801612 <sem_get+0x3e>
878015fe:	6861      	ldr	r1, [r4, #4]
87801600:	68e3      	ldr	r3, [r4, #12]
87801602:	68a2      	ldr	r2, [r4, #8]
87801604:	1a40      	subs	r0, r0, r1
87801606:	4298      	cmp	r0, r3
87801608:	4402      	add	r2, r0
8780160a:	bf38      	it	cc
8780160c:	4618      	movcc	r0, r3
8780160e:	60a2      	str	r2, [r4, #8]
87801610:	60e0      	str	r0, [r4, #12]
87801612:	3d01      	subs	r5, #1
87801614:	d1e8      	bne.n	878015e8 <sem_get+0x14>
87801616:	2301      	movs	r3, #1
87801618:	4628      	mov	r0, r5
8780161a:	6033      	str	r3, [r6, #0]
8780161c:	e8bd 4070 	ldmia.w	sp!, {r4, r5, r6, lr}
87801620:	f001 be8c 	b.w	8780333c <vTaskDelete>

87801624 <msg_get>:
87801624:	b570      	push	{r4, r5, r6, lr}
87801626:	f240 1504 	movw	r5, #260	; 0x104
8780162a:	b084      	sub	sp, #16
8780162c:	f44f 74fa 	mov.w	r4, #500	; 0x1f4
87801630:	f6c8 0500 	movt	r5, #34816	; 0x8800
87801634:	4606      	mov	r6, r0
87801636:	2300      	movs	r3, #0
87801638:	6003      	str	r3, [r0, #0]
8780163a:	2300      	movs	r3, #0
8780163c:	f04f 32ff 	mov.w	r2, #4294967295	; 0xffffffff
87801640:	4669      	mov	r1, sp
87801642:	6928      	ldr	r0, [r5, #16]
87801644:	f001 f988 	bl	87802958 <xQueueGenericReceive>
87801648:	3c01      	subs	r4, #1
8780164a:	d1f6      	bne.n	8780163a <msg_get+0x16>
8780164c:	2301      	movs	r3, #1
8780164e:	4620      	mov	r0, r4
87801650:	6033      	str	r3, [r6, #0]
87801652:	f001 fe73 	bl	8780333c <vTaskDelete>
87801656:	b004      	add	sp, #16
87801658:	bd70      	pop	{r4, r5, r6, pc}
8780165a:	bf00      	nop

8780165c <msg_get2>:
8780165c:	b570      	push	{r4, r5, r6, lr}
8780165e:	f240 1404 	movw	r4, #260	; 0x104
87801662:	b084      	sub	sp, #16
87801664:	f44f 75fa 	mov.w	r5, #500	; 0x1f4
87801668:	f6c8 0400 	movt	r4, #34816	; 0x8800
8780166c:	4606      	mov	r6, r0
8780166e:	2300      	movs	r3, #0
87801670:	6003      	str	r3, [r0, #0]
87801672:	2300      	movs	r3, #0
87801674:	f04f 32ff 	mov.w	r2, #4294967295	; 0xffffffff
87801678:	4619      	mov	r1, r3
8780167a:	6820      	ldr	r0, [r4, #0]
8780167c:	f001 f96c 	bl	87802958 <xQueueGenericReceive>
87801680:	2300      	movs	r3, #0
87801682:	f04f 32ff 	mov.w	r2, #4294967295	; 0xffffffff
87801686:	4669      	mov	r1, sp
87801688:	6920      	ldr	r0, [r4, #16]
8780168a:	f001 f965 	bl	87802958 <xQueueGenericReceive>
8780168e:	f002 f839 	bl	87803704 <xTaskGetTickCount>
87801692:	6863      	ldr	r3, [r4, #4]
87801694:	68e2      	ldr	r2, [r4, #12]
87801696:	68a1      	ldr	r1, [r4, #8]
87801698:	1ac0      	subs	r0, r0, r3
8780169a:	4290      	cmp	r0, r2
8780169c:	4401      	add	r1, r0
8780169e:	bf38      	it	cc
878016a0:	4610      	movcc	r0, r2
878016a2:	3d01      	subs	r5, #1
878016a4:	60a1      	str	r1, [r4, #8]
878016a6:	60e0      	str	r0, [r4, #12]
878016a8:	d1e3      	bne.n	87801672 <msg_get2+0x16>
878016aa:	2301      	movs	r3, #1
878016ac:	4628      	mov	r0, r5
878016ae:	6033      	str	r3, [r6, #0]
878016b0:	f001 fe44 	bl	8780333c <vTaskDelete>
878016b4:	b004      	add	sp, #16
878016b6:	bd70      	pop	{r4, r5, r6, pc}

878016b8 <unsolicited_background>:
878016b8:	b510      	push	{r4, lr}
878016ba:	f240 1404 	movw	r4, #260	; 0x104
878016be:	f6c8 0400 	movt	r4, #34816	; 0x8800
878016c2:	6963      	ldr	r3, [r4, #20]
878016c4:	b92b      	cbnz	r3, 878016d2 <unsolicited_background+0x1a>
878016c6:	f002 f81d 	bl	87803704 <xTaskGetTickCount>
878016ca:	61a0      	str	r0, [r4, #24]
878016cc:	6963      	ldr	r3, [r4, #20]
878016ce:	2b00      	cmp	r3, #0
878016d0:	d0f9      	beq.n	878016c6 <unsolicited_background+0xe>
878016d2:	2000      	movs	r0, #0
878016d4:	e8bd 4010 	ldmia.w	sp!, {r4, lr}
878016d8:	f001 be30 	b.w	8780333c <vTaskDelete>

878016dc <mutex_get>:
878016dc:	b570      	push	{r4, r5, r6, lr}
878016de:	f240 1504 	movw	r5, #260	; 0x104
878016e2:	f44f 74fa 	mov.w	r4, #500	; 0x1f4
878016e6:	f6c8 0500 	movt	r5, #34816	; 0x8800
878016ea:	4606      	mov	r6, r0
878016ec:	2300      	movs	r3, #0
878016ee:	6003      	str	r3, [r0, #0]
878016f0:	2300      	movs	r3, #0
878016f2:	f04f 32ff 	mov.w	r2, #4294967295	; 0xffffffff
878016f6:	4619      	mov	r1, r3
878016f8:	69e8      	ldr	r0, [r5, #28]
878016fa:	f001 f92d 	bl	87802958 <xQueueGenericReceive>
878016fe:	2300      	movs	r3, #0
87801700:	69e8      	ldr	r0, [r5, #28]
87801702:	461a      	mov	r2, r3
87801704:	4619      	mov	r1, r3
87801706:	f000 ffbb 	bl	87802680 <xQueueGenericSend>
8780170a:	3c01      	subs	r4, #1
8780170c:	d1f0      	bne.n	878016f0 <mutex_get+0x14>
8780170e:	2301      	movs	r3, #1
87801710:	4620      	mov	r0, r4
87801712:	6033      	str	r3, [r6, #0]
87801714:	e8bd 4070 	ldmia.w	sp!, {r4, r5, r6, lr}
87801718:	f001 be10 	b.w	8780333c <vTaskDelete>

8780171c <mutex_get2>:
8780171c:	e92d 43f8 	stmdb	sp!, {r3, r4, r5, r6, r7, r8, r9, lr}
87801720:	f240 1404 	movw	r4, #260	; 0x104
87801724:	f44f 78fa 	mov.w	r8, #500	; 0x1f4
87801728:	f6c8 0400 	movt	r4, #34816	; 0x8800
8780172c:	4681      	mov	r9, r0
8780172e:	2300      	movs	r3, #0
87801730:	6003      	str	r3, [r0, #0]
87801732:	2300      	movs	r3, #0
87801734:	f04f 32ff 	mov.w	r2, #4294967295	; 0xffffffff
87801738:	4619      	mov	r1, r3
8780173a:	6820      	ldr	r0, [r4, #0]
8780173c:	f001 f90c 	bl	87802958 <xQueueGenericReceive>
87801740:	2300      	movs	r3, #0
87801742:	f04f 32ff 	mov.w	r2, #4294967295	; 0xffffffff
87801746:	4619      	mov	r1, r3
87801748:	69e0      	ldr	r0, [r4, #28]
8780174a:	f001 f905 	bl	87802958 <xQueueGenericReceive>
8780174e:	f001 ffd9 	bl	87803704 <xTaskGetTickCount>
87801752:	6865      	ldr	r5, [r4, #4]
87801754:	2300      	movs	r3, #0
87801756:	68e6      	ldr	r6, [r4, #12]
87801758:	461a      	mov	r2, r3
8780175a:	68a7      	ldr	r7, [r4, #8]
8780175c:	4619      	mov	r1, r3
8780175e:	1b45      	subs	r5, r0, r5
87801760:	69e0      	ldr	r0, [r4, #28]
87801762:	42b5      	cmp	r5, r6
87801764:	442f      	add	r7, r5
87801766:	bf38      	it	cc
87801768:	4635      	movcc	r5, r6
8780176a:	60a7      	str	r7, [r4, #8]
8780176c:	60e5      	str	r5, [r4, #12]
8780176e:	f000 ff87 	bl	87802680 <xQueueGenericSend>
87801772:	f1b8 0801 	subs.w	r8, r8, #1
87801776:	d1dc      	bne.n	87801732 <mutex_get2+0x16>
87801778:	2301      	movs	r3, #1
8780177a:	4640      	mov	r0, r8
8780177c:	f8c9 3000 	str.w	r3, [r9]
87801780:	e8bd 43f8 	ldmia.w	sp!, {r3, r4, r5, r6, r7, r8, r9, lr}
87801784:	f001 bdda 	b.w	8780333c <vTaskDelete>

87801788 <unsolicited_hipriority>:
87801788:	b5f8      	push	{r3, r4, r5, r6, r7, lr}
8780178a:	f240 1604 	movw	r6, #260	; 0x104
8780178e:	f64b 5434 	movw	r4, #48436	; 0xbd34
87801792:	f6c8 0600 	movt	r6, #34816	; 0x8800
87801796:	f6c8 0401 	movt	r4, #34817	; 0x8801
8780179a:	2710      	movs	r7, #16
8780179c:	200a      	movs	r0, #10
8780179e:	f002 f8ed 	bl	8780397c <vTaskDelay>
878017a2:	f001 ffaf 	bl	87803704 <xTaskGetTickCount>
878017a6:	69b3      	ldr	r3, [r6, #24]
878017a8:	68a5      	ldr	r5, [r4, #8]
878017aa:	6861      	ldr	r1, [r4, #4]
878017ac:	1ac0      	subs	r0, r0, r3
878017ae:	6822      	ldr	r2, [r4, #0]
878017b0:	42a8      	cmp	r0, r5
878017b2:	bfc8      	it	gt
878017b4:	60a0      	strgt	r0, [r4, #8]
878017b6:	3f01      	subs	r7, #1
878017b8:	4401      	add	r1, r0
878017ba:	f102 0201 	add.w	r2, r2, #1
878017be:	6061      	str	r1, [r4, #4]
878017c0:	6022      	str	r2, [r4, #0]
878017c2:	d1eb      	bne.n	8780179c <unsolicited_hipriority+0x14>
878017c4:	2301      	movs	r3, #1
878017c6:	4638      	mov	r0, r7
878017c8:	6173      	str	r3, [r6, #20]
878017ca:	e8bd 40f8 	ldmia.w	sp!, {r3, r4, r5, r6, r7, lr}
878017ce:	f001 bdb5 	b.w	8780333c <vTaskDelete>
878017d2:	bf00      	nop

878017d4 <sem_test>:
878017d4:	e92d 4ff0 	stmdb	sp!, {r4, r5, r6, r7, r8, r9, sl, fp, lr}
878017d8:	2500      	movs	r5, #0
878017da:	4606      	mov	r6, r0
878017dc:	f647 1064 	movw	r0, #31076	; 0x7964
878017e0:	b083      	sub	sp, #12
878017e2:	f2c8 7080 	movt	r0, #34688	; 0x8780
878017e6:	6035      	str	r5, [r6, #0]
878017e8:	f240 1404 	movw	r4, #260	; 0x104
878017ec:	f44f 77fa 	mov.w	r7, #500	; 0x1f4
878017f0:	46a8      	mov	r8, r5
878017f2:	46aa      	mov	sl, r5
878017f4:	f6c8 0400 	movt	r4, #34816	; 0x8800
878017f8:	f003 fc02 	bl	87805000 <printf>
878017fc:	4629      	mov	r1, r5
878017fe:	4638      	mov	r0, r7
87801800:	f000 ff2c 	bl	8780265c <xQueueCreateCountingSemaphore>
87801804:	6020      	str	r0, [r4, #0]
87801806:	f001 ff7d 	bl	87803704 <xTaskGetTickCount>
8780180a:	2300      	movs	r3, #0
8780180c:	4605      	mov	r5, r0
8780180e:	461a      	mov	r2, r3
87801810:	4619      	mov	r1, r3
87801812:	6820      	ldr	r0, [r4, #0]
87801814:	f000 ff34 	bl	87802680 <xQueueGenericSend>
87801818:	f001 ff74 	bl	87803704 <xTaskGetTickCount>
8780181c:	1b40      	subs	r0, r0, r5
8780181e:	4580      	cmp	r8, r0
87801820:	4482      	add	sl, r0
87801822:	bf38      	it	cc
87801824:	4680      	movcc	r8, r0
87801826:	3f01      	subs	r7, #1
87801828:	d1ed      	bne.n	87801806 <sem_test+0x32>
8780182a:	f644 53d3 	movw	r3, #19923	; 0x4dd3
8780182e:	f647 1098 	movw	r0, #31128	; 0x7998
87801832:	f2c1 0362 	movt	r3, #4194	; 0x1062
87801836:	4642      	mov	r2, r8
87801838:	fbaa ab03 	umull	sl, fp, sl, r3
8780183c:	f2c8 7080 	movt	r0, #34688	; 0x8780
87801840:	46ba      	mov	sl, r7
87801842:	f44f 78fa 	mov.w	r8, #500	; 0x1f4
87801846:	ea4f 115b 	mov.w	r1, fp, lsr #5
8780184a:	f003 fbd9 	bl	87805000 <printf>
8780184e:	f001 ff59 	bl	87803704 <xTaskGetTickCount>
87801852:	2300      	movs	r3, #0
87801854:	4605      	mov	r5, r0
87801856:	f04f 32ff 	mov.w	r2, #4294967295	; 0xffffffff
8780185a:	4619      	mov	r1, r3
8780185c:	6820      	ldr	r0, [r4, #0]
8780185e:	f001 f87b 	bl	87802958 <xQueueGenericReceive>
87801862:	f001 ff4f 	bl	87803704 <xTaskGetTickCount>
87801866:	1b40      	subs	r0, r0, r5
87801868:	4287      	cmp	r7, r0
8780186a:	4482      	add	sl, r0
8780186c:	bf38      	it	cc
8780186e:	4607      	movcc	r7, r0
87801870:	f1b8 0801 	subs.w	r8, r8, #1
87801874:	d1eb      	bne.n	8780184e <sem_test+0x7a>
87801876:	f644 53d3 	movw	r3, #19923	; 0x4dd3
8780187a:	f647 10d8 	movw	r0, #31192	; 0x79d8
8780187e:	f2c1 0362 	movt	r3, #4194	; 0x1062
87801882:	463a      	mov	r2, r7
87801884:	fbaa ab03 	umull	sl, fp, sl, r3
87801888:	f2c8 7080 	movt	r0, #34688	; 0x8780
8780188c:	46c1      	mov	r9, r8
8780188e:	f44f 77fa 	mov.w	r7, #500	; 0x1f4
87801892:	46c2      	mov	sl, r8
87801894:	ea4f 115b 	mov.w	r1, fp, lsr #5
87801898:	f003 fbb2 	bl	87805000 <printf>
8780189c:	2304      	movs	r3, #4
8780189e:	f647 2118 	movw	r1, #31256	; 0x7a18
878018a2:	f241 50d5 	movw	r0, #5589	; 0x15d5
878018a6:	e88d 0108 	stmia.w	sp, {r3, r8}
878018aa:	f2c8 7180 	movt	r1, #34688	; 0x8780
878018ae:	f2c8 7080 	movt	r0, #34688	; 0x8780
878018b2:	4b3a      	ldr	r3, [pc, #232]	; (8780199c <sem_test+0x1c8>)
878018b4:	225a      	movs	r2, #90	; 0x5a
878018b6:	f8c4 8020 	str.w	r8, [r4, #32]
878018ba:	f001 fc6f 	bl	8780319c <xTaskCreate>
878018be:	2001      	movs	r0, #1
878018c0:	f002 f85c 	bl	8780397c <vTaskDelay>
878018c4:	f001 ff1e 	bl	87803704 <xTaskGetTickCount>
878018c8:	2300      	movs	r3, #0
878018ca:	4605      	mov	r5, r0
878018cc:	461a      	mov	r2, r3
878018ce:	4619      	mov	r1, r3
878018d0:	6820      	ldr	r0, [r4, #0]
878018d2:	f000 fed5 	bl	87802680 <xQueueGenericSend>
878018d6:	f001 ff15 	bl	87803704 <xTaskGetTickCount>
878018da:	1b40      	subs	r0, r0, r5
878018dc:	4581      	cmp	r9, r0
878018de:	4482      	add	sl, r0
878018e0:	bf38      	it	cc
878018e2:	4681      	movcc	r9, r0
878018e4:	3f01      	subs	r7, #1
878018e6:	d1ea      	bne.n	878018be <sem_test+0xea>
878018e8:	6a23      	ldr	r3, [r4, #32]
878018ea:	b92b      	cbnz	r3, 878018f8 <sem_test+0x124>
878018ec:	200a      	movs	r0, #10
878018ee:	f002 f845 	bl	8780397c <vTaskDelay>
878018f2:	6a23      	ldr	r3, [r4, #32]
878018f4:	2b00      	cmp	r3, #0
878018f6:	d0f9      	beq.n	878018ec <sem_test+0x118>
878018f8:	f644 53d3 	movw	r3, #19923	; 0x4dd3
878018fc:	f647 2020 	movw	r0, #31264	; 0x7a20
87801900:	f2c1 0362 	movt	r3, #4194	; 0x1062
87801904:	464a      	mov	r2, r9
87801906:	fbaa ab03 	umull	sl, fp, sl, r3
8780190a:	f2c8 7080 	movt	r0, #34688	; 0x8780
8780190e:	2700      	movs	r7, #0
87801910:	f44f 75fa 	mov.w	r5, #500	; 0x1f4
87801914:	ea4f 115b 	mov.w	r1, fp, lsr #5
87801918:	f003 fb72 	bl	87805000 <printf>
8780191c:	2306      	movs	r3, #6
8780191e:	f647 2118 	movw	r1, #31256	; 0x7a18
87801922:	f241 50d5 	movw	r0, #5589	; 0x15d5
87801926:	e88d 0088 	stmia.w	sp, {r3, r7}
8780192a:	f2c8 7180 	movt	r1, #34688	; 0x8780
8780192e:	f2c8 7080 	movt	r0, #34688	; 0x8780
87801932:	4b1a      	ldr	r3, [pc, #104]	; (8780199c <sem_test+0x1c8>)
87801934:	225a      	movs	r2, #90	; 0x5a
87801936:	f001 fc31 	bl	8780319c <xTaskCreate>
8780193a:	60a7      	str	r7, [r4, #8]
8780193c:	60e7      	str	r7, [r4, #12]
8780193e:	f001 fee1 	bl	87803704 <xTaskGetTickCount>
87801942:	2300      	movs	r3, #0
87801944:	4602      	mov	r2, r0
87801946:	6062      	str	r2, [r4, #4]
87801948:	4619      	mov	r1, r3
8780194a:	6820      	ldr	r0, [r4, #0]
8780194c:	461a      	mov	r2, r3
8780194e:	f000 fe97 	bl	87802680 <xQueueGenericSend>
87801952:	3d01      	subs	r5, #1
87801954:	d1f3      	bne.n	8780193e <sem_test+0x16a>
87801956:	6a23      	ldr	r3, [r4, #32]
87801958:	b92b      	cbnz	r3, 87801966 <sem_test+0x192>
8780195a:	200a      	movs	r0, #10
8780195c:	f002 f80e 	bl	8780397c <vTaskDelay>
87801960:	6a23      	ldr	r3, [r4, #32]
87801962:	2b00      	cmp	r3, #0
87801964:	d0f9      	beq.n	8780195a <sem_test+0x186>
87801966:	68a3      	ldr	r3, [r4, #8]
87801968:	f644 58d3 	movw	r8, #19923	; 0x4dd3
8780196c:	f2c1 0862 	movt	r8, #4194	; 0x1062
87801970:	f647 2060 	movw	r0, #31328	; 0x7a60
87801974:	68e2      	ldr	r2, [r4, #12]
87801976:	f2c8 7080 	movt	r0, #34688	; 0x8780
8780197a:	fba3 8908 	umull	r8, r9, r3, r8
8780197e:	ea4f 1159 	mov.w	r1, r9, lsr #5
87801982:	f003 fb3d 	bl	87805000 <printf>
87801986:	2301      	movs	r3, #1
87801988:	6820      	ldr	r0, [r4, #0]
8780198a:	6033      	str	r3, [r6, #0]
8780198c:	f001 f948 	bl	87802c20 <vQueueDelete>
87801990:	2000      	movs	r0, #0
87801992:	b003      	add	sp, #12
87801994:	e8bd 4ff0 	ldmia.w	sp!, {r4, r5, r6, r7, r8, r9, sl, fp, lr}
87801998:	f001 bcd0 	b.w	8780333c <vTaskDelete>
8780199c:	88000124 	stmdahi	r0, {r2, r5, r8}

878019a0 <mutex_test>:
878019a0:	e92d 4ff0 	stmdb	sp!, {r4, r5, r6, r7, r8, r9, sl, fp, lr}
878019a4:	4607      	mov	r7, r0
878019a6:	2500      	movs	r5, #0
878019a8:	f647 20a0 	movw	r0, #31392	; 0x7aa0
878019ac:	b083      	sub	sp, #12
878019ae:	f2c8 7080 	movt	r0, #34688	; 0x8780
878019b2:	603d      	str	r5, [r7, #0]
878019b4:	f240 1404 	movw	r4, #260	; 0x104
878019b8:	f003 fb22 	bl	87805000 <printf>
878019bc:	f6c8 0400 	movt	r4, #34816	; 0x8800
878019c0:	2001      	movs	r0, #1
878019c2:	f000 fefd 	bl	878027c0 <xQueueCreateMutex>
878019c6:	4629      	mov	r1, r5
878019c8:	61e0      	str	r0, [r4, #28]
878019ca:	2203      	movs	r2, #3
878019cc:	2001      	movs	r0, #1
878019ce:	f000 fe25 	bl	8780261c <xQueueGenericCreate>
878019d2:	6020      	str	r0, [r4, #0]
878019d4:	b120      	cbz	r0, 878019e0 <mutex_test+0x40>
878019d6:	462b      	mov	r3, r5
878019d8:	462a      	mov	r2, r5
878019da:	4629      	mov	r1, r5
878019dc:	f000 fe50 	bl	87802680 <xQueueGenericSend>
878019e0:	2300      	movs	r3, #0
878019e2:	f44f 76fa 	mov.w	r6, #500	; 0x1f4
878019e6:	469a      	mov	sl, r3
878019e8:	4699      	mov	r9, r3
878019ea:	60a3      	str	r3, [r4, #8]
878019ec:	60e3      	str	r3, [r4, #12]
878019ee:	f001 fe89 	bl	87803704 <xTaskGetTickCount>
878019f2:	2300      	movs	r3, #0
878019f4:	4605      	mov	r5, r0
878019f6:	4619      	mov	r1, r3
878019f8:	f04f 32ff 	mov.w	r2, #4294967295	; 0xffffffff
878019fc:	69e0      	ldr	r0, [r4, #28]
878019fe:	f000 ffab 	bl	87802958 <xQueueGenericReceive>
87801a02:	f001 fe7f 	bl	87803704 <xTaskGetTickCount>
87801a06:	68e3      	ldr	r3, [r4, #12]
87801a08:	1b40      	subs	r0, r0, r5
87801a0a:	68a2      	ldr	r2, [r4, #8]
87801a0c:	4298      	cmp	r0, r3
87801a0e:	4402      	add	r2, r0
87801a10:	bf38      	it	cc
87801a12:	4618      	movcc	r0, r3
87801a14:	60a2      	str	r2, [r4, #8]
87801a16:	60e0      	str	r0, [r4, #12]
87801a18:	f001 fe74 	bl	87803704 <xTaskGetTickCount>
87801a1c:	2300      	movs	r3, #0
87801a1e:	4605      	mov	r5, r0
87801a20:	461a      	mov	r2, r3
87801a22:	4619      	mov	r1, r3
87801a24:	69e0      	ldr	r0, [r4, #28]
87801a26:	f000 fe2b 	bl	87802680 <xQueueGenericSend>
87801a2a:	f001 fe6b 	bl	87803704 <xTaskGetTickCount>
87801a2e:	1b40      	subs	r0, r0, r5
87801a30:	4582      	cmp	sl, r0
87801a32:	4481      	add	r9, r0
87801a34:	bf38      	it	cc
87801a36:	4682      	movcc	sl, r0
87801a38:	3e01      	subs	r6, #1
87801a3a:	d1d8      	bne.n	878019ee <mutex_test+0x4e>
87801a3c:	68a3      	ldr	r3, [r4, #8]
87801a3e:	f644 55d3 	movw	r5, #19923	; 0x4dd3
87801a42:	f2c1 0562 	movt	r5, #4194	; 0x1062
87801a46:	f647 20cc 	movw	r0, #31436	; 0x7acc
87801a4a:	68e2      	ldr	r2, [r4, #12]
87801a4c:	f2c8 7080 	movt	r0, #34688	; 0x8780
87801a50:	f44f 78fa 	mov.w	r8, #500	; 0x1f4
87801a54:	fba3 bc05 	umull	fp, ip, r3, r5
87801a58:	ea4f 115c 	mov.w	r1, ip, lsr #5
87801a5c:	f003 fad0 	bl	87805000 <printf>
87801a60:	fba9 bc05 	umull	fp, ip, r9, r5
87801a64:	f647 300c 	movw	r0, #31500	; 0x7b0c
87801a68:	4652      	mov	r2, sl
87801a6a:	f2c8 7080 	movt	r0, #34688	; 0x8780
87801a6e:	ea4f 115c 	mov.w	r1, ip, lsr #5
87801a72:	f003 fac5 	bl	87805000 <printf>
87801a76:	4623      	mov	r3, r4
87801a78:	2204      	movs	r2, #4
87801a7a:	f647 314c 	movw	r1, #31564	; 0x7b4c
87801a7e:	f241 60dd 	movw	r0, #5853	; 0x16dd
87801a82:	9601      	str	r6, [sp, #4]
87801a84:	f2c8 7180 	movt	r1, #34688	; 0x8780
87801a88:	f843 6f24 	str.w	r6, [r3, #36]!
87801a8c:	f2c8 7080 	movt	r0, #34688	; 0x8780
87801a90:	9200      	str	r2, [sp, #0]
87801a92:	225a      	movs	r2, #90	; 0x5a
87801a94:	f001 fb82 	bl	8780319c <xTaskCreate>
87801a98:	60a6      	str	r6, [r4, #8]
87801a9a:	60e6      	str	r6, [r4, #12]
87801a9c:	2300      	movs	r3, #0
87801a9e:	f04f 32ff 	mov.w	r2, #4294967295	; 0xffffffff
87801aa2:	4619      	mov	r1, r3
87801aa4:	69e0      	ldr	r0, [r4, #28]
87801aa6:	f000 ff57 	bl	87802958 <xQueueGenericReceive>
87801aaa:	2001      	movs	r0, #1
87801aac:	f001 ff66 	bl	8780397c <vTaskDelay>
87801ab0:	f001 fe28 	bl	87803704 <xTaskGetTickCount>
87801ab4:	2300      	movs	r3, #0
87801ab6:	4605      	mov	r5, r0
87801ab8:	461a      	mov	r2, r3
87801aba:	4619      	mov	r1, r3
87801abc:	69e0      	ldr	r0, [r4, #28]
87801abe:	f000 fddf 	bl	87802680 <xQueueGenericSend>
87801ac2:	f001 fe1f 	bl	87803704 <xTaskGetTickCount>
87801ac6:	1b42      	subs	r2, r0, r5
87801ac8:	68e0      	ldr	r0, [r4, #12]
87801aca:	68a3      	ldr	r3, [r4, #8]
87801acc:	4282      	cmp	r2, r0
87801ace:	4413      	add	r3, r2
87801ad0:	bf38      	it	cc
87801ad2:	4602      	movcc	r2, r0
87801ad4:	f1b8 0801 	subs.w	r8, r8, #1
87801ad8:	60a3      	str	r3, [r4, #8]
87801ada:	60e2      	str	r2, [r4, #12]
87801adc:	d1de      	bne.n	87801a9c <mutex_test+0xfc>
87801ade:	6a61      	ldr	r1, [r4, #36]	; 0x24
87801ae0:	b939      	cbnz	r1, 87801af2 <mutex_test+0x152>
87801ae2:	200a      	movs	r0, #10
87801ae4:	f001 ff4a 	bl	8780397c <vTaskDelay>
87801ae8:	6a63      	ldr	r3, [r4, #36]	; 0x24
87801aea:	2b00      	cmp	r3, #0
87801aec:	d0f9      	beq.n	87801ae2 <mutex_test+0x142>
87801aee:	68a3      	ldr	r3, [r4, #8]
87801af0:	68e2      	ldr	r2, [r4, #12]
87801af2:	f644 58d3 	movw	r8, #19923	; 0x4dd3
87801af6:	f647 3058 	movw	r0, #31576	; 0x7b58
87801afa:	f2c1 0862 	movt	r8, #4194	; 0x1062
87801afe:	f2c8 7080 	movt	r0, #34688	; 0x8780
87801b02:	fba3 8908 	umull	r8, r9, r3, r8
87801b06:	2600      	movs	r6, #0
87801b08:	f44f 75fa 	mov.w	r5, #500	; 0x1f4
87801b0c:	ea4f 1159 	mov.w	r1, r9, lsr #5
87801b10:	f003 fa76 	bl	87805000 <printf>
87801b14:	2306      	movs	r3, #6
87801b16:	f647 3198 	movw	r1, #31640	; 0x7b98
87801b1a:	f241 701d 	movw	r0, #5917	; 0x171d
87801b1e:	e88d 0048 	stmia.w	sp, {r3, r6}
87801b22:	f2c8 7180 	movt	r1, #34688	; 0x8780
87801b26:	f2c8 7080 	movt	r0, #34688	; 0x8780
87801b2a:	4b22      	ldr	r3, [pc, #136]	; (87801bb4 <mutex_test+0x214>)
87801b2c:	225a      	movs	r2, #90	; 0x5a
87801b2e:	f001 fb35 	bl	8780319c <xTaskCreate>
87801b32:	60a6      	str	r6, [r4, #8]
87801b34:	60e6      	str	r6, [r4, #12]
87801b36:	2300      	movs	r3, #0
87801b38:	f04f 32ff 	mov.w	r2, #4294967295	; 0xffffffff
87801b3c:	4619      	mov	r1, r3
87801b3e:	69e0      	ldr	r0, [r4, #28]
87801b40:	f000 ff0a 	bl	87802958 <xQueueGenericReceive>
87801b44:	2300      	movs	r3, #0
87801b46:	6820      	ldr	r0, [r4, #0]
87801b48:	461a      	mov	r2, r3
87801b4a:	4619      	mov	r1, r3
87801b4c:	f000 fd98 	bl	87802680 <xQueueGenericSend>
87801b50:	f001 fdd8 	bl	87803704 <xTaskGetTickCount>
87801b54:	2300      	movs	r3, #0
87801b56:	4602      	mov	r2, r0
87801b58:	6062      	str	r2, [r4, #4]
87801b5a:	4619      	mov	r1, r3
87801b5c:	69e0      	ldr	r0, [r4, #28]
87801b5e:	461a      	mov	r2, r3
87801b60:	f000 fd8e 	bl	87802680 <xQueueGenericSend>
87801b64:	3d01      	subs	r5, #1
87801b66:	d1e6      	bne.n	87801b36 <mutex_test+0x196>
87801b68:	6a63      	ldr	r3, [r4, #36]	; 0x24
87801b6a:	b92b      	cbnz	r3, 87801b78 <mutex_test+0x1d8>
87801b6c:	200a      	movs	r0, #10
87801b6e:	f001 ff05 	bl	8780397c <vTaskDelay>
87801b72:	6a63      	ldr	r3, [r4, #36]	; 0x24
87801b74:	2b00      	cmp	r3, #0
87801b76:	d0f9      	beq.n	87801b6c <mutex_test+0x1cc>
87801b78:	68a3      	ldr	r3, [r4, #8]
87801b7a:	f644 58d3 	movw	r8, #19923	; 0x4dd3
87801b7e:	f2c1 0862 	movt	r8, #4194	; 0x1062
87801b82:	f647 30a4 	movw	r0, #31652	; 0x7ba4
87801b86:	68e2      	ldr	r2, [r4, #12]
87801b88:	f2c8 7080 	movt	r0, #34688	; 0x8780
87801b8c:	fba3 8908 	umull	r8, r9, r3, r8
87801b90:	ea4f 1159 	mov.w	r1, r9, lsr #5
87801b94:	f003 fa34 	bl	87805000 <printf>
87801b98:	6820      	ldr	r0, [r4, #0]
87801b9a:	f001 f841 	bl	87802c20 <vQueueDelete>
87801b9e:	69e0      	ldr	r0, [r4, #28]
87801ba0:	f001 f83e 	bl	87802c20 <vQueueDelete>
87801ba4:	2301      	movs	r3, #1
87801ba6:	2000      	movs	r0, #0
87801ba8:	603b      	str	r3, [r7, #0]
87801baa:	b003      	add	sp, #12
87801bac:	e8bd 4ff0 	ldmia.w	sp!, {r4, r5, r6, r7, r8, r9, sl, fp, lr}
87801bb0:	f001 bbc4 	b.w	8780333c <vTaskDelete>
87801bb4:	88000128 	stmdahi	r0, {r3, r5, r8}

87801bb8 <msgq_test>:
87801bb8:	e92d 4ff0 	stmdb	sp!, {r4, r5, r6, r7, r8, r9, sl, fp, lr}
87801bbc:	4680      	mov	r8, r0
87801bbe:	2500      	movs	r5, #0
87801bc0:	f647 30e4 	movw	r0, #31716	; 0x7be4
87801bc4:	b087      	sub	sp, #28
87801bc6:	f2c8 7080 	movt	r0, #34688	; 0x8780
87801bca:	f8c8 5000 	str.w	r5, [r8]
87801bce:	f240 1404 	movw	r4, #260	; 0x104
87801bd2:	f003 fa15 	bl	87805000 <printf>
87801bd6:	f6c8 0400 	movt	r4, #34816	; 0x8800
87801bda:	4629      	mov	r1, r5
87801bdc:	2203      	movs	r2, #3
87801bde:	2001      	movs	r0, #1
87801be0:	f000 fd1c 	bl	8780261c <xQueueGenericCreate>
87801be4:	6020      	str	r0, [r4, #0]
87801be6:	b120      	cbz	r0, 87801bf2 <msgq_test+0x3a>
87801be8:	462b      	mov	r3, r5
87801bea:	462a      	mov	r2, r5
87801bec:	4629      	mov	r1, r5
87801bee:	f000 fd47 	bl	87802680 <xQueueGenericSend>
87801bf2:	f04f 0900 	mov.w	r9, #0
87801bf6:	2110      	movs	r1, #16
87801bf8:	464f      	mov	r7, r9
87801bfa:	4608      	mov	r0, r1
87801bfc:	464a      	mov	r2, r9
87801bfe:	460d      	mov	r5, r1
87801c00:	f000 fd0c 	bl	8780261c <xQueueGenericCreate>
87801c04:	6120      	str	r0, [r4, #16]
87801c06:	f001 fd7d 	bl	87803704 <xTaskGetTickCount>
87801c0a:	2300      	movs	r3, #0
87801c0c:	4606      	mov	r6, r0
87801c0e:	f04f 32ff 	mov.w	r2, #4294967295	; 0xffffffff
87801c12:	a902      	add	r1, sp, #8
87801c14:	6920      	ldr	r0, [r4, #16]
87801c16:	f000 fd33 	bl	87802680 <xQueueGenericSend>
87801c1a:	f001 fd73 	bl	87803704 <xTaskGetTickCount>
87801c1e:	1b80      	subs	r0, r0, r6
87801c20:	4581      	cmp	r9, r0
87801c22:	4407      	add	r7, r0
87801c24:	bf38      	it	cc
87801c26:	4681      	movcc	r9, r0
87801c28:	3d01      	subs	r5, #1
87801c2a:	d1ec      	bne.n	87801c06 <msgq_test+0x4e>
87801c2c:	093f      	lsrs	r7, r7, #4
87801c2e:	46aa      	mov	sl, r5
87801c30:	2610      	movs	r6, #16
87801c32:	f001 fd67 	bl	87803704 <xTaskGetTickCount>
87801c36:	2300      	movs	r3, #0
87801c38:	4683      	mov	fp, r0
87801c3a:	f04f 32ff 	mov.w	r2, #4294967295	; 0xffffffff
87801c3e:	a902      	add	r1, sp, #8
87801c40:	6920      	ldr	r0, [r4, #16]
87801c42:	f000 fe89 	bl	87802958 <xQueueGenericReceive>
87801c46:	f001 fd5d 	bl	87803704 <xTaskGetTickCount>
87801c4a:	eba0 000b 	sub.w	r0, r0, fp
87801c4e:	4285      	cmp	r5, r0
87801c50:	4482      	add	sl, r0
87801c52:	bf38      	it	cc
87801c54:	4605      	movcc	r5, r0
87801c56:	3e01      	subs	r6, #1
87801c58:	d1eb      	bne.n	87801c32 <msgq_test+0x7a>
87801c5a:	f647 4020 	movw	r0, #31776	; 0x7c20
87801c5e:	4639      	mov	r1, r7
87801c60:	464a      	mov	r2, r9
87801c62:	f2c8 7080 	movt	r0, #34688	; 0x8780
87801c66:	f003 f9cb 	bl	87805000 <printf>
87801c6a:	f647 4060 	movw	r0, #31840	; 0x7c60
87801c6e:	462a      	mov	r2, r5
87801c70:	ea4f 111a 	mov.w	r1, sl, lsr #4
87801c74:	f2c8 7080 	movt	r0, #34688	; 0x8780
87801c78:	f44f 77fa 	mov.w	r7, #500	; 0x1f4
87801c7c:	f003 f9c0 	bl	87805000 <printf>
87801c80:	4623      	mov	r3, r4
87801c82:	2204      	movs	r2, #4
87801c84:	f647 41a0 	movw	r1, #31904	; 0x7ca0
87801c88:	f241 6025 	movw	r0, #5669	; 0x1625
87801c8c:	9601      	str	r6, [sp, #4]
87801c8e:	f2c8 7180 	movt	r1, #34688	; 0x8780
87801c92:	f843 6f24 	str.w	r6, [r3, #36]!
87801c96:	f2c8 7080 	movt	r0, #34688	; 0x8780
87801c9a:	9200      	str	r2, [sp, #0]
87801c9c:	225a      	movs	r2, #90	; 0x5a
87801c9e:	f001 fa7d 	bl	8780319c <xTaskCreate>
87801ca2:	60a6      	str	r6, [r4, #8]
87801ca4:	60e6      	str	r6, [r4, #12]
87801ca6:	2001      	movs	r0, #1
87801ca8:	f001 fe68 	bl	8780397c <vTaskDelay>
87801cac:	f001 fd2a 	bl	87803704 <xTaskGetTickCount>
87801cb0:	f04f 32ff 	mov.w	r2, #4294967295	; 0xffffffff
87801cb4:	4605      	mov	r5, r0
87801cb6:	2300      	movs	r3, #0
87801cb8:	a902      	add	r1, sp, #8
87801cba:	6920      	ldr	r0, [r4, #16]
87801cbc:	f000 fce0 	bl	87802680 <xQueueGenericSend>
87801cc0:	f001 fd20 	bl	87803704 <xTaskGetTickCount>
87801cc4:	1b42      	subs	r2, r0, r5
87801cc6:	68e0      	ldr	r0, [r4, #12]
87801cc8:	68a6      	ldr	r6, [r4, #8]
87801cca:	4282      	cmp	r2, r0
87801ccc:	4416      	add	r6, r2
87801cce:	bf38      	it	cc
87801cd0:	4602      	movcc	r2, r0
87801cd2:	3f01      	subs	r7, #1
87801cd4:	60a6      	str	r6, [r4, #8]
87801cd6:	60e2      	str	r2, [r4, #12]
87801cd8:	d1e5      	bne.n	87801ca6 <msgq_test+0xee>
87801cda:	6a63      	ldr	r3, [r4, #36]	; 0x24
87801cdc:	b93b      	cbnz	r3, 87801cee <msgq_test+0x136>
87801cde:	2064      	movs	r0, #100	; 0x64
87801ce0:	f001 fe4c 	bl	8780397c <vTaskDelay>
87801ce4:	6a63      	ldr	r3, [r4, #36]	; 0x24
87801ce6:	2b00      	cmp	r3, #0
87801ce8:	d0f9      	beq.n	87801cde <msgq_test+0x126>
87801cea:	68a6      	ldr	r6, [r4, #8]
87801cec:	68e2      	ldr	r2, [r4, #12]
87801cee:	f644 53d3 	movw	r3, #19923	; 0x4dd3
87801cf2:	f647 40a8 	movw	r0, #31912	; 0x7ca8
87801cf6:	f2c1 0362 	movt	r3, #4194	; 0x1062
87801cfa:	f2c8 7080 	movt	r0, #34688	; 0x8780
87801cfe:	fba6 6703 	umull	r6, r7, r6, r3
87801d02:	f44f 75fa 	mov.w	r5, #500	; 0x1f4
87801d06:	2600      	movs	r6, #0
87801d08:	0979      	lsrs	r1, r7, #5
87801d0a:	f003 f979 	bl	87805000 <printf>
87801d0e:	2306      	movs	r3, #6
87801d10:	f647 41e8 	movw	r1, #31976	; 0x7ce8
87801d14:	f241 605d 	movw	r0, #5725	; 0x165d
87801d18:	e88d 0048 	stmia.w	sp, {r3, r6}
87801d1c:	f2c8 7180 	movt	r1, #34688	; 0x8780
87801d20:	f2c8 7080 	movt	r0, #34688	; 0x8780
87801d24:	4b1c      	ldr	r3, [pc, #112]	; (87801d98 <msgq_test+0x1e0>)
87801d26:	225a      	movs	r2, #90	; 0x5a
87801d28:	6266      	str	r6, [r4, #36]	; 0x24
87801d2a:	f001 fa37 	bl	8780319c <xTaskCreate>
87801d2e:	60a6      	str	r6, [r4, #8]
87801d30:	60e6      	str	r6, [r4, #12]
87801d32:	2300      	movs	r3, #0
87801d34:	6820      	ldr	r0, [r4, #0]
87801d36:	461a      	mov	r2, r3
87801d38:	4619      	mov	r1, r3
87801d3a:	f000 fca1 	bl	87802680 <xQueueGenericSend>
87801d3e:	f001 fce1 	bl	87803704 <xTaskGetTickCount>
87801d42:	2300      	movs	r3, #0
87801d44:	4606      	mov	r6, r0
87801d46:	f04f 32ff 	mov.w	r2, #4294967295	; 0xffffffff
87801d4a:	6920      	ldr	r0, [r4, #16]
87801d4c:	a902      	add	r1, sp, #8
87801d4e:	6066      	str	r6, [r4, #4]
87801d50:	f000 fc96 	bl	87802680 <xQueueGenericSend>
87801d54:	3d01      	subs	r5, #1
87801d56:	d1ec      	bne.n	87801d32 <msgq_test+0x17a>
87801d58:	6a63      	ldr	r3, [r4, #36]	; 0x24
87801d5a:	b92b      	cbnz	r3, 87801d68 <msgq_test+0x1b0>
87801d5c:	2064      	movs	r0, #100	; 0x64
87801d5e:	f001 fe0d 	bl	8780397c <vTaskDelay>
87801d62:	6a63      	ldr	r3, [r4, #36]	; 0x24
87801d64:	2b00      	cmp	r3, #0
87801d66:	d0f9      	beq.n	87801d5c <msgq_test+0x1a4>
87801d68:	68a3      	ldr	r3, [r4, #8]
87801d6a:	f644 51d3 	movw	r1, #19923	; 0x4dd3
87801d6e:	f2c1 0162 	movt	r1, #4194	; 0x1062
87801d72:	68e2      	ldr	r2, [r4, #12]
87801d74:	f647 40f4 	movw	r0, #31988	; 0x7cf4
87801d78:	f2c8 7080 	movt	r0, #34688	; 0x8780
87801d7c:	fba3 4501 	umull	r4, r5, r3, r1
87801d80:	0969      	lsrs	r1, r5, #5
87801d82:	f003 f93d 	bl	87805000 <printf>
87801d86:	2301      	movs	r3, #1
87801d88:	2000      	movs	r0, #0
87801d8a:	f8c8 3000 	str.w	r3, [r8]
87801d8e:	f001 fad5 	bl	8780333c <vTaskDelete>
87801d92:	b007      	add	sp, #28
87801d94:	e8bd 8ff0 	ldmia.w	sp!, {r4, r5, r6, r7, r8, r9, sl, fp, pc}
87801d98:	88000128 	stmdahi	r0, {r3, r5, r8}

87801d9c <event_get>:
87801d9c:	b5f0      	push	{r4, r5, r6, r7, lr}
87801d9e:	f240 1504 	movw	r5, #260	; 0x104
87801da2:	b083      	sub	sp, #12
87801da4:	f44f 74fa 	mov.w	r4, #500	; 0x1f4
87801da8:	f6c8 0500 	movt	r5, #34816	; 0x8800
87801dac:	f04f 36ff 	mov.w	r6, #4294967295	; 0xffffffff
87801db0:	4607      	mov	r7, r0
87801db2:	2300      	movs	r3, #0
87801db4:	6003      	str	r3, [r0, #0]
87801db6:	2301      	movs	r3, #1
87801db8:	2200      	movs	r2, #0
87801dba:	f64f 71ff 	movw	r1, #65535	; 0xffff
87801dbe:	6b28      	ldr	r0, [r5, #48]	; 0x30
87801dc0:	9600      	str	r6, [sp, #0]
87801dc2:	f001 f833 	bl	87802e2c <xEventGroupWaitBits>
87801dc6:	f64f 71ff 	movw	r1, #65535	; 0xffff
87801dca:	6b28      	ldr	r0, [r5, #48]	; 0x30
87801dcc:	f001 f89a 	bl	87802f04 <xEventGroupClearBits>
87801dd0:	3c01      	subs	r4, #1
87801dd2:	d1f0      	bne.n	87801db6 <event_get+0x1a>
87801dd4:	2301      	movs	r3, #1
87801dd6:	4620      	mov	r0, r4
87801dd8:	603b      	str	r3, [r7, #0]
87801dda:	b003      	add	sp, #12
87801ddc:	e8bd 40f0 	ldmia.w	sp!, {r4, r5, r6, r7, lr}
87801de0:	f001 baac 	b.w	8780333c <vTaskDelete>

87801de4 <event_get2>:
87801de4:	e92d 42f0 	stmdb	sp!, {r4, r5, r6, r7, r9, lr}
87801de8:	f240 1404 	movw	r4, #260	; 0x104
87801dec:	b082      	sub	sp, #8
87801dee:	f44f 77fa 	mov.w	r7, #500	; 0x1f4
87801df2:	f6c8 0400 	movt	r4, #34816	; 0x8800
87801df6:	f04f 35ff 	mov.w	r5, #4294967295	; 0xffffffff
87801dfa:	4681      	mov	r9, r0
87801dfc:	2300      	movs	r3, #0
87801dfe:	6003      	str	r3, [r0, #0]
87801e00:	2300      	movs	r3, #0
87801e02:	f04f 32ff 	mov.w	r2, #4294967295	; 0xffffffff
87801e06:	4619      	mov	r1, r3
87801e08:	6820      	ldr	r0, [r4, #0]
87801e0a:	f000 fda5 	bl	87802958 <xQueueGenericReceive>
87801e0e:	2301      	movs	r3, #1
87801e10:	2200      	movs	r2, #0
87801e12:	f64f 71ff 	movw	r1, #65535	; 0xffff
87801e16:	6b20      	ldr	r0, [r4, #48]	; 0x30
87801e18:	9500      	str	r5, [sp, #0]
87801e1a:	f001 f807 	bl	87802e2c <xEventGroupWaitBits>
87801e1e:	f001 fc71 	bl	87803704 <xTaskGetTickCount>
87801e22:	6863      	ldr	r3, [r4, #4]
87801e24:	f64f 71ff 	movw	r1, #65535	; 0xffff
87801e28:	68e2      	ldr	r2, [r4, #12]
87801e2a:	68a6      	ldr	r6, [r4, #8]
87801e2c:	1ac3      	subs	r3, r0, r3
87801e2e:	6b20      	ldr	r0, [r4, #48]	; 0x30
87801e30:	4293      	cmp	r3, r2
87801e32:	441e      	add	r6, r3
87801e34:	bf38      	it	cc
87801e36:	4613      	movcc	r3, r2
87801e38:	60a6      	str	r6, [r4, #8]
87801e3a:	60e3      	str	r3, [r4, #12]
87801e3c:	f001 f862 	bl	87802f04 <xEventGroupClearBits>
87801e40:	3f01      	subs	r7, #1
87801e42:	d1dd      	bne.n	87801e00 <event_get2+0x1c>
87801e44:	2301      	movs	r3, #1
87801e46:	4638      	mov	r0, r7
87801e48:	f8c9 3000 	str.w	r3, [r9]
87801e4c:	b002      	add	sp, #8
87801e4e:	e8bd 42f0 	ldmia.w	sp!, {r4, r5, r6, r7, r9, lr}
87801e52:	f001 ba73 	b.w	8780333c <vTaskDelete>
87801e56:	bf00      	nop

87801e58 <event_test>:
87801e58:	e92d 4ff0 	stmdb	sp!, {r4, r5, r6, r7, r8, r9, sl, fp, lr}
87801e5c:	b085      	sub	sp, #20
87801e5e:	4603      	mov	r3, r0
87801e60:	9003      	str	r0, [sp, #12]
87801e62:	2500      	movs	r5, #0
87801e64:	f647 5034 	movw	r0, #32052	; 0x7d34
87801e68:	f240 1404 	movw	r4, #260	; 0x104
87801e6c:	601d      	str	r5, [r3, #0]
87801e6e:	f6c8 0400 	movt	r4, #34816	; 0x8800
87801e72:	f2c8 7080 	movt	r0, #34688	; 0x8780
87801e76:	f003 f8c3 	bl	87805000 <printf>
87801e7a:	f000 ffc9 	bl	87802e10 <xEventGroupCreate>
87801e7e:	4629      	mov	r1, r5
87801e80:	6320      	str	r0, [r4, #48]	; 0x30
87801e82:	2203      	movs	r2, #3
87801e84:	2001      	movs	r0, #1
87801e86:	f000 fbc9 	bl	8780261c <xQueueGenericCreate>
87801e8a:	6020      	str	r0, [r4, #0]
87801e8c:	b120      	cbz	r0, 87801e98 <event_test+0x40>
87801e8e:	462b      	mov	r3, r5
87801e90:	462a      	mov	r2, r5
87801e92:	4629      	mov	r1, r5
87801e94:	f000 fbf4 	bl	87802680 <xQueueGenericSend>
87801e98:	2300      	movs	r3, #0
87801e9a:	f44f 77fa 	mov.w	r7, #500	; 0x1f4
87801e9e:	469a      	mov	sl, r3
87801ea0:	4699      	mov	r9, r3
87801ea2:	60a3      	str	r3, [r4, #8]
87801ea4:	60e3      	str	r3, [r4, #12]
87801ea6:	f001 fc2d 	bl	87803704 <xTaskGetTickCount>
87801eaa:	f64f 71ff 	movw	r1, #65535	; 0xffff
87801eae:	4605      	mov	r5, r0
87801eb0:	6b20      	ldr	r0, [r4, #48]	; 0x30
87801eb2:	f001 f855 	bl	87802f60 <xEventGroupSetBits>
87801eb6:	f001 fc25 	bl	87803704 <xTaskGetTickCount>
87801eba:	68e2      	ldr	r2, [r4, #12]
87801ebc:	1b40      	subs	r0, r0, r5
87801ebe:	68a3      	ldr	r3, [r4, #8]
87801ec0:	4290      	cmp	r0, r2
87801ec2:	4403      	add	r3, r0
87801ec4:	bf38      	it	cc
87801ec6:	4610      	movcc	r0, r2
87801ec8:	60a3      	str	r3, [r4, #8]
87801eca:	60e0      	str	r0, [r4, #12]
87801ecc:	f001 fc1a 	bl	87803704 <xTaskGetTickCount>
87801ed0:	f64f 71ff 	movw	r1, #65535	; 0xffff
87801ed4:	4605      	mov	r5, r0
87801ed6:	6b20      	ldr	r0, [r4, #48]	; 0x30
87801ed8:	f001 f814 	bl	87802f04 <xEventGroupClearBits>
87801edc:	f001 fc12 	bl	87803704 <xTaskGetTickCount>
87801ee0:	1b40      	subs	r0, r0, r5
87801ee2:	4582      	cmp	sl, r0
87801ee4:	4481      	add	r9, r0
87801ee6:	bf38      	it	cc
87801ee8:	4682      	movcc	sl, r0
87801eea:	3f01      	subs	r7, #1
87801eec:	d1db      	bne.n	87801ea6 <event_test+0x4e>
87801eee:	68a3      	ldr	r3, [r4, #8]
87801ef0:	f644 5bd3 	movw	fp, #19923	; 0x4dd3
87801ef4:	f2c1 0b62 	movt	fp, #4194	; 0x1062
87801ef8:	f647 5060 	movw	r0, #32096	; 0x7d60
87801efc:	68e2      	ldr	r2, [r4, #12]
87801efe:	f2c8 7080 	movt	r0, #34688	; 0x8780
87801f02:	f44f 78fa 	mov.w	r8, #500	; 0x1f4
87801f06:	fba3 560b 	umull	r5, r6, r3, fp
87801f0a:	0971      	lsrs	r1, r6, #5
87801f0c:	f003 f878 	bl	87805000 <printf>
87801f10:	fba9 bc0b 	umull	fp, ip, r9, fp
87801f14:	f647 50a0 	movw	r0, #32160	; 0x7da0
87801f18:	4652      	mov	r2, sl
87801f1a:	f2c8 7080 	movt	r0, #34688	; 0x8780
87801f1e:	ea4f 115c 	mov.w	r1, ip, lsr #5
87801f22:	f003 f86d 	bl	87805000 <printf>
87801f26:	4623      	mov	r3, r4
87801f28:	2204      	movs	r2, #4
87801f2a:	f647 51e0 	movw	r1, #32224	; 0x7de0
87801f2e:	f641 509d 	movw	r0, #7581	; 0x1d9d
87801f32:	9701      	str	r7, [sp, #4]
87801f34:	f2c8 7180 	movt	r1, #34688	; 0x8780
87801f38:	f843 7f24 	str.w	r7, [r3, #36]!
87801f3c:	f2c8 7080 	movt	r0, #34688	; 0x8780
87801f40:	9200      	str	r2, [sp, #0]
87801f42:	225a      	movs	r2, #90	; 0x5a
87801f44:	f001 f92a 	bl	8780319c <xTaskCreate>
87801f48:	60a7      	str	r7, [r4, #8]
87801f4a:	60e7      	str	r7, [r4, #12]
87801f4c:	f64f 71ff 	movw	r1, #65535	; 0xffff
87801f50:	6b20      	ldr	r0, [r4, #48]	; 0x30
87801f52:	f000 ffd7 	bl	87802f04 <xEventGroupClearBits>
87801f56:	2001      	movs	r0, #1
87801f58:	f001 fd10 	bl	8780397c <vTaskDelay>
87801f5c:	f001 fbd2 	bl	87803704 <xTaskGetTickCount>
87801f60:	f64f 71ff 	movw	r1, #65535	; 0xffff
87801f64:	4605      	mov	r5, r0
87801f66:	6b20      	ldr	r0, [r4, #48]	; 0x30
87801f68:	f000 fffa 	bl	87802f60 <xEventGroupSetBits>
87801f6c:	f001 fbca 	bl	87803704 <xTaskGetTickCount>
87801f70:	1b42      	subs	r2, r0, r5
87801f72:	68e0      	ldr	r0, [r4, #12]
87801f74:	68a3      	ldr	r3, [r4, #8]
87801f76:	4282      	cmp	r2, r0
87801f78:	4413      	add	r3, r2
87801f7a:	bf38      	it	cc
87801f7c:	4602      	movcc	r2, r0
87801f7e:	f1b8 0801 	subs.w	r8, r8, #1
87801f82:	60a3      	str	r3, [r4, #8]
87801f84:	60e2      	str	r2, [r4, #12]
87801f86:	d1e1      	bne.n	87801f4c <event_test+0xf4>
87801f88:	6a61      	ldr	r1, [r4, #36]	; 0x24
87801f8a:	b939      	cbnz	r1, 87801f9c <event_test+0x144>
87801f8c:	2064      	movs	r0, #100	; 0x64
87801f8e:	f001 fcf5 	bl	8780397c <vTaskDelay>
87801f92:	6a63      	ldr	r3, [r4, #36]	; 0x24
87801f94:	2b00      	cmp	r3, #0
87801f96:	d0f9      	beq.n	87801f8c <event_test+0x134>
87801f98:	68a3      	ldr	r3, [r4, #8]
87801f9a:	68e2      	ldr	r2, [r4, #12]
87801f9c:	f644 58d3 	movw	r8, #19923	; 0x4dd3
87801fa0:	f647 50ec 	movw	r0, #32236	; 0x7dec
87801fa4:	f2c1 0862 	movt	r8, #4194	; 0x1062
87801fa8:	f2c8 7080 	movt	r0, #34688	; 0x8780
87801fac:	fba3 8908 	umull	r8, r9, r3, r8
87801fb0:	2700      	movs	r7, #0
87801fb2:	f44f 75fa 	mov.w	r5, #500	; 0x1f4
87801fb6:	ea4f 1159 	mov.w	r1, r9, lsr #5
87801fba:	f003 f821 	bl	87805000 <printf>
87801fbe:	2306      	movs	r3, #6
87801fc0:	f647 612c 	movw	r1, #32300	; 0x7e2c
87801fc4:	f641 50e5 	movw	r0, #7653	; 0x1de5
87801fc8:	e88d 0088 	stmia.w	sp, {r3, r7}
87801fcc:	f2c8 7180 	movt	r1, #34688	; 0x8780
87801fd0:	f2c8 7080 	movt	r0, #34688	; 0x8780
87801fd4:	4b21      	ldr	r3, [pc, #132]	; (8780205c <event_test+0x204>)
87801fd6:	225a      	movs	r2, #90	; 0x5a
87801fd8:	6267      	str	r7, [r4, #36]	; 0x24
87801fda:	f001 f8df 	bl	8780319c <xTaskCreate>
87801fde:	60a7      	str	r7, [r4, #8]
87801fe0:	60e7      	str	r7, [r4, #12]
87801fe2:	f64f 71ff 	movw	r1, #65535	; 0xffff
87801fe6:	6b20      	ldr	r0, [r4, #48]	; 0x30
87801fe8:	f000 ff8c 	bl	87802f04 <xEventGroupClearBits>
87801fec:	2300      	movs	r3, #0
87801fee:	6820      	ldr	r0, [r4, #0]
87801ff0:	461a      	mov	r2, r3
87801ff2:	4619      	mov	r1, r3
87801ff4:	f000 fb44 	bl	87802680 <xQueueGenericSend>
87801ff8:	f001 fb84 	bl	87803704 <xTaskGetTickCount>
87801ffc:	f64f 71ff 	movw	r1, #65535	; 0xffff
87802000:	4603      	mov	r3, r0
87802002:	6b20      	ldr	r0, [r4, #48]	; 0x30
87802004:	6063      	str	r3, [r4, #4]
87802006:	f000 ffab 	bl	87802f60 <xEventGroupSetBits>
8780200a:	3d01      	subs	r5, #1
8780200c:	d1e9      	bne.n	87801fe2 <event_test+0x18a>
8780200e:	6a63      	ldr	r3, [r4, #36]	; 0x24
87802010:	b92b      	cbnz	r3, 8780201e <event_test+0x1c6>
87802012:	2064      	movs	r0, #100	; 0x64
87802014:	f001 fcb2 	bl	8780397c <vTaskDelay>
87802018:	6a63      	ldr	r3, [r4, #36]	; 0x24
8780201a:	2b00      	cmp	r3, #0
8780201c:	d0f9      	beq.n	87802012 <event_test+0x1ba>
8780201e:	68a3      	ldr	r3, [r4, #8]
87802020:	f644 58d3 	movw	r8, #19923	; 0x4dd3
87802024:	f2c1 0862 	movt	r8, #4194	; 0x1062
87802028:	f647 6038 	movw	r0, #32312	; 0x7e38
8780202c:	68e2      	ldr	r2, [r4, #12]
8780202e:	f2c8 7080 	movt	r0, #34688	; 0x8780
87802032:	fba3 8908 	umull	r8, r9, r3, r8
87802036:	ea4f 1159 	mov.w	r1, r9, lsr #5
8780203a:	f002 ffe1 	bl	87805000 <printf>
8780203e:	6820      	ldr	r0, [r4, #0]
87802040:	f000 fdee 	bl	87802c20 <vQueueDelete>
87802044:	6b20      	ldr	r0, [r4, #48]	; 0x30
87802046:	f001 f81d 	bl	87803084 <vEventGroupDelete>
8780204a:	9a03      	ldr	r2, [sp, #12]
8780204c:	2301      	movs	r3, #1
8780204e:	2000      	movs	r0, #0
87802050:	6013      	str	r3, [r2, #0]
87802052:	b005      	add	sp, #20
87802054:	e8bd 4ff0 	ldmia.w	sp!, {r4, r5, r6, r7, r8, r9, sl, fp, lr}
87802058:	f001 b970 	b.w	8780333c <vTaskDelete>
8780205c:	88000128 	stmdahi	r0, {r3, r5, r8}

87802060 <yield_func>:
87802060:	b5f8      	push	{r3, r4, r5, r6, r7, lr}
87802062:	f240 1504 	movw	r5, #260	; 0x104
87802066:	f44f 76fa 	mov.w	r6, #500	; 0x1f4
8780206a:	f6c8 0500 	movt	r5, #34816	; 0x8800
8780206e:	4607      	mov	r7, r0
87802070:	2300      	movs	r3, #0
87802072:	6003      	str	r3, [r0, #0]
87802074:	f002 fdb0 	bl	87804bd8 <vPortEnterCritical>
87802078:	6b6c      	ldr	r4, [r5, #52]	; 0x34
8780207a:	1c63      	adds	r3, r4, #1
8780207c:	eb05 0484 	add.w	r4, r5, r4, lsl #2
87802080:	636b      	str	r3, [r5, #52]	; 0x34
87802082:	f001 fb3f 	bl	87803704 <xTaskGetTickCount>
87802086:	63a0      	str	r0, [r4, #56]	; 0x38
87802088:	f002 fde8 	bl	87804c5c <vPortExitCritical>
8780208c:	df00      	svc	0
8780208e:	3e01      	subs	r6, #1
87802090:	d1f0      	bne.n	87802074 <yield_func+0x14>
87802092:	2301      	movs	r3, #1
87802094:	4630      	mov	r0, r6
87802096:	603b      	str	r3, [r7, #0]
87802098:	e8bd 40f8 	ldmia.w	sp!, {r3, r4, r5, r6, r7, lr}
8780209c:	f001 b94e 	b.w	8780333c <vTaskDelete>

878020a0 <vPerfTestTickHook>:
878020a0:	f240 1204 	movw	r2, #260	; 0x104
878020a4:	f241 13fc 	movw	r3, #4604	; 0x11fc
878020a8:	f6c8 0200 	movt	r2, #34816	; 0x8800
878020ac:	f6c8 0300 	movt	r3, #34816	; 0x8800
878020b0:	6b51      	ldr	r1, [r2, #52]	; 0x34
878020b2:	2201      	movs	r2, #1
878020b4:	440b      	add	r3, r1
878020b6:	f883 26b0 	strb.w	r2, [r3, #1712]	; 0x6b0
878020ba:	4770      	bx	lr

878020bc <yieldTest>:
878020bc:	f647 6078 	movw	r0, #32376	; 0x7e78
878020c0:	b5f0      	push	{r4, r5, r6, r7, lr}
878020c2:	f2c8 7080 	movt	r0, #34688	; 0x8780
878020c6:	b083      	sub	sp, #12
878020c8:	f240 1404 	movw	r4, #260	; 0x104
878020cc:	260a      	movs	r6, #10
878020ce:	f6c8 0400 	movt	r4, #34816	; 0x8800
878020d2:	f002 ff95 	bl	87805000 <printf>
878020d6:	f002 fd7f 	bl	87804bd8 <vPortEnterCritical>
878020da:	f002 fd7d 	bl	87804bd8 <vPortEnterCritical>
878020de:	6b65      	ldr	r5, [r4, #52]	; 0x34
878020e0:	1c6b      	adds	r3, r5, #1
878020e2:	eb04 0585 	add.w	r5, r4, r5, lsl #2
878020e6:	6363      	str	r3, [r4, #52]	; 0x34
878020e8:	f001 fb0c 	bl	87803704 <xTaskGetTickCount>
878020ec:	63a8      	str	r0, [r5, #56]	; 0x38
878020ee:	f002 fdb5 	bl	87804c5c <vPortExitCritical>
878020f2:	3e01      	subs	r6, #1
878020f4:	d1f1      	bne.n	878020da <yieldTest+0x1e>
878020f6:	f002 fdb1 	bl	87804c5c <vPortExitCritical>
878020fa:	6b62      	ldr	r2, [r4, #52]	; 0x34
878020fc:	2107      	movs	r1, #7
878020fe:	6b63      	ldr	r3, [r4, #52]	; 0x34
87802100:	4630      	mov	r0, r6
87802102:	2706      	movs	r7, #6
87802104:	62a6      	str	r6, [r4, #40]	; 0x28
87802106:	6266      	str	r6, [r4, #36]	; 0x24
87802108:	eb04 0282 	add.w	r2, r4, r2, lsl #2
8780210c:	6226      	str	r6, [r4, #32]
8780210e:	eb04 0383 	add.w	r3, r4, r3, lsl #2
87802112:	6366      	str	r6, [r4, #52]	; 0x34
87802114:	6b55      	ldr	r5, [r2, #52]	; 0x34
87802116:	6b1b      	ldr	r3, [r3, #48]	; 0x30
87802118:	1aed      	subs	r5, r5, r3
8780211a:	f001 f9c7 	bl	878034ac <vTaskPrioritySet>
8780211e:	f647 61a4 	movw	r1, #32420	; 0x7ea4
87802122:	f242 0061 	movw	r0, #8289	; 0x2061
87802126:	f2c8 7180 	movt	r1, #34688	; 0x8780
8780212a:	4b3d      	ldr	r3, [pc, #244]	; (87802220 <yieldTest+0x164>)
8780212c:	225a      	movs	r2, #90	; 0x5a
8780212e:	9601      	str	r6, [sp, #4]
87802130:	9700      	str	r7, [sp, #0]
87802132:	f2c8 7080 	movt	r0, #34688	; 0x8780
87802136:	f001 f831 	bl	8780319c <xTaskCreate>
8780213a:	f647 61ac 	movw	r1, #32428	; 0x7eac
8780213e:	f242 0061 	movw	r0, #8289	; 0x2061
87802142:	f2c8 7180 	movt	r1, #34688	; 0x8780
87802146:	f104 0324 	add.w	r3, r4, #36	; 0x24
8780214a:	225a      	movs	r2, #90	; 0x5a
8780214c:	9700      	str	r7, [sp, #0]
8780214e:	9601      	str	r6, [sp, #4]
87802150:	f2c8 7080 	movt	r0, #34688	; 0x8780
87802154:	f001 f822 	bl	8780319c <xTaskCreate>
87802158:	f647 61b4 	movw	r1, #32436	; 0x7eb4
8780215c:	f242 0061 	movw	r0, #8289	; 0x2061
87802160:	f104 0328 	add.w	r3, r4, #40	; 0x28
87802164:	f2c8 7180 	movt	r1, #34688	; 0x8780
87802168:	225a      	movs	r2, #90	; 0x5a
8780216a:	9700      	str	r7, [sp, #0]
8780216c:	9601      	str	r6, [sp, #4]
8780216e:	f2c8 7080 	movt	r0, #34688	; 0x8780
87802172:	f001 f813 	bl	8780319c <xTaskCreate>
87802176:	2105      	movs	r1, #5
87802178:	4630      	mov	r0, r6
8780217a:	f001 f997 	bl	878034ac <vTaskPrioritySet>
8780217e:	6a63      	ldr	r3, [r4, #36]	; 0x24
87802180:	6a21      	ldr	r1, [r4, #32]
87802182:	e004      	b.n	8780218e <yieldTest+0xd2>
87802184:	2032      	movs	r0, #50	; 0x32
87802186:	f001 fbf9 	bl	8780397c <vTaskDelay>
8780218a:	6a23      	ldr	r3, [r4, #32]
8780218c:	6a61      	ldr	r1, [r4, #36]	; 0x24
8780218e:	6aa2      	ldr	r2, [r4, #40]	; 0x28
87802190:	440b      	add	r3, r1
87802192:	4413      	add	r3, r2
87802194:	2b02      	cmp	r3, #2
87802196:	d9f5      	bls.n	87802184 <yieldTest+0xc8>
87802198:	6b63      	ldr	r3, [r4, #52]	; 0x34
8780219a:	2201      	movs	r2, #1
8780219c:	3b03      	subs	r3, #3
8780219e:	2b05      	cmp	r3, #5
878021a0:	bf9e      	ittt	ls
878021a2:	f04f 30ff 	movls.w	r0, #4294967295	; 0xffffffff
878021a6:	f2c8 0200 	movtls	r2, #32768	; 0x8000
878021aa:	2100      	movls	r1, #0
878021ac:	d928      	bls.n	87802200 <yieldTest+0x144>
878021ae:	2600      	movs	r6, #0
878021b0:	f241 1efc 	movw	lr, #4604	; 0x11fc
878021b4:	f2c8 0200 	movt	r2, #32768	; 0x8000
878021b8:	4631      	mov	r1, r6
878021ba:	f6c8 0e00 	movt	lr, #34816	; 0x8800
878021be:	2305      	movs	r3, #5
878021c0:	e005      	b.n	878021ce <yieldTest+0x112>
878021c2:	6b60      	ldr	r0, [r4, #52]	; 0x34
878021c4:	3302      	adds	r3, #2
878021c6:	3301      	adds	r3, #1
878021c8:	3803      	subs	r0, #3
878021ca:	4298      	cmp	r0, r3
878021cc:	d916      	bls.n	878021fc <yieldTest+0x140>
878021ce:	eb0e 0003 	add.w	r0, lr, r3
878021d2:	eb04 0c83 	add.w	ip, r4, r3, lsl #2
878021d6:	f890 06b0 	ldrb.w	r0, [r0, #1712]	; 0x6b0
878021da:	2800      	cmp	r0, #0
878021dc:	d1f1      	bne.n	878021c2 <yieldTest+0x106>
878021de:	f8dc 0038 	ldr.w	r0, [ip, #56]	; 0x38
878021e2:	3301      	adds	r3, #1
878021e4:	f8dc 7034 	ldr.w	r7, [ip, #52]	; 0x34
878021e8:	3101      	adds	r1, #1
878021ea:	1bc0      	subs	r0, r0, r7
878021ec:	4282      	cmp	r2, r0
878021ee:	4406      	add	r6, r0
878021f0:	bfb8      	it	lt
878021f2:	4602      	movlt	r2, r0
878021f4:	6b60      	ldr	r0, [r4, #52]	; 0x34
878021f6:	3803      	subs	r0, #3
878021f8:	4298      	cmp	r0, r3
878021fa:	d8e8      	bhi.n	878021ce <yieldTest+0x112>
878021fc:	1988      	adds	r0, r1, r6
878021fe:	3801      	subs	r0, #1
87802200:	1b54      	subs	r4, r2, r5
87802202:	f005 f955 	bl	878074b0 <__aeabi_idiv>
87802206:	1b41      	subs	r1, r0, r5
87802208:	f647 60bc 	movw	r0, #32444	; 0x7ebc
8780220c:	462b      	mov	r3, r5
8780220e:	4622      	mov	r2, r4
87802210:	f2c8 7080 	movt	r0, #34688	; 0x8780
87802214:	b003      	add	sp, #12
87802216:	e8bd 40f0 	ldmia.w	sp!, {r4, r5, r6, r7, lr}
8780221a:	f002 bef1 	b.w	87805000 <printf>
8780221e:	bf00      	nop
87802220:	88000124 	stmdahi	r0, {r2, r5, r8}

87802224 <unsolicitedTest>:
87802224:	f647 700c 	movw	r0, #32524	; 0x7f0c
87802228:	b570      	push	{r4, r5, r6, lr}
8780222a:	f2c8 7080 	movt	r0, #34688	; 0x8780
8780222e:	b082      	sub	sp, #8
87802230:	2600      	movs	r6, #0
87802232:	f64b 5534 	movw	r5, #48436	; 0xbd34
87802236:	f002 fee3 	bl	87805000 <printf>
8780223a:	2301      	movs	r3, #1
8780223c:	f6c8 0501 	movt	r5, #34817	; 0x8801
87802240:	f2c8 0300 	movt	r3, #32768	; 0x8000
87802244:	4630      	mov	r0, r6
87802246:	2107      	movs	r1, #7
87802248:	60ab      	str	r3, [r5, #8]
8780224a:	606e      	str	r6, [r5, #4]
8780224c:	f240 1404 	movw	r4, #260	; 0x104
87802250:	602e      	str	r6, [r5, #0]
87802252:	f6c8 0400 	movt	r4, #34816	; 0x8800
87802256:	f001 f929 	bl	878034ac <vTaskPrioritySet>
8780225a:	2206      	movs	r2, #6
8780225c:	f647 7160 	movw	r1, #32608	; 0x7f60
87802260:	f241 60b9 	movw	r0, #5817	; 0x16b9
87802264:	4633      	mov	r3, r6
87802266:	9200      	str	r2, [sp, #0]
87802268:	f2c8 7180 	movt	r1, #34688	; 0x8780
8780226c:	225a      	movs	r2, #90	; 0x5a
8780226e:	9601      	str	r6, [sp, #4]
87802270:	f2c8 7080 	movt	r0, #34688	; 0x8780
87802274:	f000 ff92 	bl	8780319c <xTaskCreate>
87802278:	2207      	movs	r2, #7
8780227a:	f647 7168 	movw	r1, #32616	; 0x7f68
8780227e:	f241 7089 	movw	r0, #6025	; 0x1789
87802282:	4633      	mov	r3, r6
87802284:	9200      	str	r2, [sp, #0]
87802286:	f2c8 7180 	movt	r1, #34688	; 0x8780
8780228a:	225a      	movs	r2, #90	; 0x5a
8780228c:	9601      	str	r6, [sp, #4]
8780228e:	f2c8 7080 	movt	r0, #34688	; 0x8780
87802292:	f000 ff83 	bl	8780319c <xTaskCreate>
87802296:	4630      	mov	r0, r6
87802298:	2105      	movs	r1, #5
8780229a:	f001 f907 	bl	878034ac <vTaskPrioritySet>
8780229e:	6963      	ldr	r3, [r4, #20]
878022a0:	b92b      	cbnz	r3, 878022ae <unsolicitedTest+0x8a>
878022a2:	2032      	movs	r0, #50	; 0x32
878022a4:	f001 fb6a 	bl	8780397c <vTaskDelay>
878022a8:	6963      	ldr	r3, [r4, #20]
878022aa:	2b00      	cmp	r3, #0
878022ac:	d0f9      	beq.n	878022a2 <unsolicitedTest+0x7e>
878022ae:	f001 fa29 	bl	87803704 <xTaskGetTickCount>
878022b2:	4604      	mov	r4, r0
878022b4:	f001 fa26 	bl	87803704 <xTaskGetTickCount>
878022b8:	682b      	ldr	r3, [r5, #0]
878022ba:	1b04      	subs	r4, r0, r4
878022bc:	6868      	ldr	r0, [r5, #4]
878022be:	68ad      	ldr	r5, [r5, #8]
878022c0:	4619      	mov	r1, r3
878022c2:	4418      	add	r0, r3
878022c4:	3801      	subs	r0, #1
878022c6:	1b2d      	subs	r5, r5, r4
878022c8:	f005 f8f2 	bl	878074b0 <__aeabi_idiv>
878022cc:	1b01      	subs	r1, r0, r4
878022ce:	f647 7070 	movw	r0, #32624	; 0x7f70
878022d2:	4623      	mov	r3, r4
878022d4:	462a      	mov	r2, r5
878022d6:	f2c8 7080 	movt	r0, #34688	; 0x8780
878022da:	b002      	add	sp, #8
878022dc:	e8bd 4070 	ldmia.w	sp!, {r4, r5, r6, lr}
878022e0:	f002 be8e 	b.w	87805000 <printf>

878022e4 <semaphoreTest>:
878022e4:	b530      	push	{r4, r5, lr}
878022e6:	2500      	movs	r5, #0
878022e8:	f240 1404 	movw	r4, #260	; 0x104
878022ec:	b083      	sub	sp, #12
878022ee:	f6c8 0400 	movt	r4, #34816	; 0x8800
878022f2:	4628      	mov	r0, r5
878022f4:	2106      	movs	r1, #6
878022f6:	6265      	str	r5, [r4, #36]	; 0x24
878022f8:	f001 f8d8 	bl	878034ac <vTaskPrioritySet>
878022fc:	2205      	movs	r2, #5
878022fe:	f647 71c0 	movw	r1, #32704	; 0x7fc0
87802302:	f241 70d5 	movw	r0, #6101	; 0x17d5
87802306:	f104 0324 	add.w	r3, r4, #36	; 0x24
8780230a:	9200      	str	r2, [sp, #0]
8780230c:	f2c8 7180 	movt	r1, #34688	; 0x8780
87802310:	225a      	movs	r2, #90	; 0x5a
87802312:	9501      	str	r5, [sp, #4]
87802314:	f2c8 7080 	movt	r0, #34688	; 0x8780
87802318:	f000 ff40 	bl	8780319c <xTaskCreate>
8780231c:	4628      	mov	r0, r5
8780231e:	2102      	movs	r1, #2
87802320:	f001 f8c4 	bl	878034ac <vTaskPrioritySet>
87802324:	6a63      	ldr	r3, [r4, #36]	; 0x24
87802326:	b92b      	cbnz	r3, 87802334 <semaphoreTest+0x50>
87802328:	200a      	movs	r0, #10
8780232a:	f001 fb27 	bl	8780397c <vTaskDelay>
8780232e:	6a63      	ldr	r3, [r4, #36]	; 0x24
87802330:	2b00      	cmp	r3, #0
87802332:	d0f9      	beq.n	87802328 <semaphoreTest+0x44>
87802334:	2105      	movs	r1, #5
87802336:	2000      	movs	r0, #0
87802338:	b003      	add	sp, #12
8780233a:	e8bd 4030 	ldmia.w	sp!, {r4, r5, lr}
8780233e:	f001 b8b5 	b.w	878034ac <vTaskPrioritySet>
87802342:	bf00      	nop

87802344 <mutexTest>:
87802344:	b530      	push	{r4, r5, lr}
87802346:	2500      	movs	r5, #0
87802348:	f240 1404 	movw	r4, #260	; 0x104
8780234c:	b083      	sub	sp, #12
8780234e:	f6c8 0400 	movt	r4, #34816	; 0x8800
87802352:	4628      	mov	r0, r5
87802354:	2106      	movs	r1, #6
87802356:	6225      	str	r5, [r4, #32]
87802358:	f001 f8a8 	bl	878034ac <vTaskPrioritySet>
8780235c:	2205      	movs	r2, #5
8780235e:	f647 71cc 	movw	r1, #32716	; 0x7fcc
87802362:	f641 10a1 	movw	r0, #6561	; 0x19a1
87802366:	f104 0320 	add.w	r3, r4, #32
8780236a:	9200      	str	r2, [sp, #0]
8780236c:	f2c8 7180 	movt	r1, #34688	; 0x8780
87802370:	225a      	movs	r2, #90	; 0x5a
87802372:	9501      	str	r5, [sp, #4]
87802374:	f2c8 7080 	movt	r0, #34688	; 0x8780
87802378:	f000 ff10 	bl	8780319c <xTaskCreate>
8780237c:	4628      	mov	r0, r5
8780237e:	2103      	movs	r1, #3
87802380:	f001 f894 	bl	878034ac <vTaskPrioritySet>
87802384:	6a23      	ldr	r3, [r4, #32]
87802386:	b92b      	cbnz	r3, 87802394 <mutexTest+0x50>
87802388:	200a      	movs	r0, #10
8780238a:	f001 faf7 	bl	8780397c <vTaskDelay>
8780238e:	6a23      	ldr	r3, [r4, #32]
87802390:	2b00      	cmp	r3, #0
87802392:	d0f9      	beq.n	87802388 <mutexTest+0x44>
87802394:	2105      	movs	r1, #5
87802396:	2000      	movs	r0, #0
87802398:	b003      	add	sp, #12
8780239a:	e8bd 4030 	ldmia.w	sp!, {r4, r5, lr}
8780239e:	f001 b885 	b.w	878034ac <vTaskPrioritySet>
878023a2:	bf00      	nop

878023a4 <eventTest>:
878023a4:	b530      	push	{r4, r5, lr}
878023a6:	2500      	movs	r5, #0
878023a8:	f240 1404 	movw	r4, #260	; 0x104
878023ac:	b083      	sub	sp, #12
878023ae:	f6c8 0400 	movt	r4, #34816	; 0x8800
878023b2:	4628      	mov	r0, r5
878023b4:	2106      	movs	r1, #6
878023b6:	6225      	str	r5, [r4, #32]
878023b8:	f001 f878 	bl	878034ac <vTaskPrioritySet>
878023bc:	2205      	movs	r2, #5
878023be:	f647 71d8 	movw	r1, #32728	; 0x7fd8
878023c2:	f641 6059 	movw	r0, #7769	; 0x1e59
878023c6:	f104 0320 	add.w	r3, r4, #32
878023ca:	9200      	str	r2, [sp, #0]
878023cc:	f2c8 7180 	movt	r1, #34688	; 0x8780
878023d0:	225a      	movs	r2, #90	; 0x5a
878023d2:	9501      	str	r5, [sp, #4]
878023d4:	f2c8 7080 	movt	r0, #34688	; 0x8780
878023d8:	f000 fee0 	bl	8780319c <xTaskCreate>
878023dc:	4628      	mov	r0, r5
878023de:	2103      	movs	r1, #3
878023e0:	f001 f864 	bl	878034ac <vTaskPrioritySet>
878023e4:	6a23      	ldr	r3, [r4, #32]
878023e6:	b92b      	cbnz	r3, 878023f4 <eventTest+0x50>
878023e8:	200a      	movs	r0, #10
878023ea:	f001 fac7 	bl	8780397c <vTaskDelay>
878023ee:	6a23      	ldr	r3, [r4, #32]
878023f0:	2b00      	cmp	r3, #0
878023f2:	d0f9      	beq.n	878023e8 <eventTest+0x44>
878023f4:	2105      	movs	r1, #5
878023f6:	2000      	movs	r0, #0
878023f8:	b003      	add	sp, #12
878023fa:	e8bd 4030 	ldmia.w	sp!, {r4, r5, lr}
878023fe:	f001 b855 	b.w	878034ac <vTaskPrioritySet>
87802402:	bf00      	nop

87802404 <queueTest>:
87802404:	b530      	push	{r4, r5, lr}
87802406:	2500      	movs	r5, #0
87802408:	f240 1404 	movw	r4, #260	; 0x104
8780240c:	b083      	sub	sp, #12
8780240e:	f6c8 0400 	movt	r4, #34816	; 0x8800
87802412:	4628      	mov	r0, r5
87802414:	2106      	movs	r1, #6
87802416:	6225      	str	r5, [r4, #32]
87802418:	f001 f848 	bl	878034ac <vTaskPrioritySet>
8780241c:	2205      	movs	r2, #5
8780241e:	f647 71e4 	movw	r1, #32740	; 0x7fe4
87802422:	f641 30b9 	movw	r0, #7097	; 0x1bb9
87802426:	f104 0320 	add.w	r3, r4, #32
8780242a:	9200      	str	r2, [sp, #0]
8780242c:	f2c8 7180 	movt	r1, #34688	; 0x8780
87802430:	225a      	movs	r2, #90	; 0x5a
87802432:	9501      	str	r5, [sp, #4]
87802434:	f2c8 7080 	movt	r0, #34688	; 0x8780
87802438:	f000 feb0 	bl	8780319c <xTaskCreate>
8780243c:	4628      	mov	r0, r5
8780243e:	2103      	movs	r1, #3
87802440:	f001 f834 	bl	878034ac <vTaskPrioritySet>
87802444:	6a23      	ldr	r3, [r4, #32]
87802446:	b92b      	cbnz	r3, 87802454 <queueTest+0x50>
87802448:	200a      	movs	r0, #10
8780244a:	f001 fa97 	bl	8780397c <vTaskDelay>
8780244e:	6a23      	ldr	r3, [r4, #32]
87802450:	2b00      	cmp	r3, #0
87802452:	d0f9      	beq.n	87802448 <queueTest+0x44>
87802454:	2105      	movs	r1, #5
87802456:	2000      	movs	r0, #0
87802458:	b003      	add	sp, #12
8780245a:	e8bd 4030 	ldmia.w	sp!, {r4, r5, lr}
8780245e:	f001 b825 	b.w	878034ac <vTaskPrioritySet>
87802462:	bf00      	nop

87802464 <test>:
87802464:	b508      	push	{r3, lr}
87802466:	f7ff fe29 	bl	878020bc <yieldTest>
8780246a:	f7ff fedb 	bl	87802224 <unsolicitedTest>
8780246e:	f7ff ff39 	bl	878022e4 <semaphoreTest>
87802472:	f7ff ff67 	bl	87802344 <mutexTest>
87802476:	f7ff ff95 	bl	878023a4 <eventTest>
8780247a:	f7ff ffc3 	bl	87802404 <queueTest>
8780247e:	2000      	movs	r0, #0
87802480:	e8bd 4008 	ldmia.w	sp!, {r3, lr}
87802484:	f000 bf5a 	b.w	8780333c <vTaskDelete>

87802488 <vApplicationStackOverflowHook>:
87802488:	f647 70f0 	movw	r0, #32752	; 0x7ff0
8780248c:	f2c8 7080 	movt	r0, #34688	; 0x8780
87802490:	f004 beb6 	b.w	87807200 <puts>

87802494 <prvCopyDataToQueue>:
87802494:	b570      	push	{r4, r5, r6, lr}
87802496:	4616      	mov	r6, r2
87802498:	6c02      	ldr	r2, [r0, #64]	; 0x40
8780249a:	4604      	mov	r4, r0
8780249c:	6b85      	ldr	r5, [r0, #56]	; 0x38
8780249e:	b932      	cbnz	r2, 878024ae <prvCopyDataToQueue+0x1a>
878024a0:	6806      	ldr	r6, [r0, #0]
878024a2:	2e00      	cmp	r6, #0
878024a4:	d02f      	beq.n	87802506 <prvCopyDataToQueue+0x72>
878024a6:	3501      	adds	r5, #1
878024a8:	4610      	mov	r0, r2
878024aa:	63a5      	str	r5, [r4, #56]	; 0x38
878024ac:	bd70      	pop	{r4, r5, r6, pc}
878024ae:	b99e      	cbnz	r6, 878024d8 <prvCopyDataToQueue+0x44>
878024b0:	6880      	ldr	r0, [r0, #8]
878024b2:	f002 ffeb 	bl	8780548c <memcpy>
878024b6:	68a3      	ldr	r3, [r4, #8]
878024b8:	6c21      	ldr	r1, [r4, #64]	; 0x40
878024ba:	6862      	ldr	r2, [r4, #4]
878024bc:	440b      	add	r3, r1
878024be:	4293      	cmp	r3, r2
878024c0:	60a3      	str	r3, [r4, #8]
878024c2:	bf2b      	itete	cs
878024c4:	6823      	ldrcs	r3, [r4, #0]
878024c6:	3501      	addcc	r5, #1
878024c8:	3501      	addcs	r5, #1
878024ca:	4630      	movcc	r0, r6
878024cc:	bf28      	it	cs
878024ce:	4630      	movcs	r0, r6
878024d0:	63a5      	str	r5, [r4, #56]	; 0x38
878024d2:	bf28      	it	cs
878024d4:	60a3      	strcs	r3, [r4, #8]
878024d6:	bd70      	pop	{r4, r5, r6, pc}
878024d8:	68c0      	ldr	r0, [r0, #12]
878024da:	f002 ffd7 	bl	8780548c <memcpy>
878024de:	6c22      	ldr	r2, [r4, #64]	; 0x40
878024e0:	68e3      	ldr	r3, [r4, #12]
878024e2:	6821      	ldr	r1, [r4, #0]
878024e4:	4252      	negs	r2, r2
878024e6:	4413      	add	r3, r2
878024e8:	428b      	cmp	r3, r1
878024ea:	60e3      	str	r3, [r4, #12]
878024ec:	bf3e      	ittt	cc
878024ee:	6863      	ldrcc	r3, [r4, #4]
878024f0:	18d2      	addcc	r2, r2, r3
878024f2:	60e2      	strcc	r2, [r4, #12]
878024f4:	2e02      	cmp	r6, #2
878024f6:	bf1c      	itt	ne
878024f8:	3501      	addne	r5, #1
878024fa:	2000      	movne	r0, #0
878024fc:	d1d5      	bne.n	878024aa <prvCopyDataToQueue+0x16>
878024fe:	b905      	cbnz	r5, 87802502 <prvCopyDataToQueue+0x6e>
87802500:	2501      	movs	r5, #1
87802502:	2000      	movs	r0, #0
87802504:	e7d1      	b.n	878024aa <prvCopyDataToQueue+0x16>
87802506:	6840      	ldr	r0, [r0, #4]
87802508:	3501      	adds	r5, #1
8780250a:	f001 fd89 	bl	87804020 <xTaskPriorityDisinherit>
8780250e:	6066      	str	r6, [r4, #4]
87802510:	e7cb      	b.n	878024aa <prvCopyDataToQueue+0x16>
87802512:	bf00      	nop

87802514 <prvUnlockQueue>:
87802514:	b570      	push	{r4, r5, r6, lr}
87802516:	4605      	mov	r5, r0
87802518:	f002 fb5e 	bl	87804bd8 <vPortEnterCritical>
8780251c:	f895 4045 	ldrb.w	r4, [r5, #69]	; 0x45
87802520:	b264      	sxtb	r4, r4
87802522:	2c00      	cmp	r4, #0
87802524:	dd16      	ble.n	87802554 <prvUnlockQueue+0x40>
87802526:	6a6b      	ldr	r3, [r5, #36]	; 0x24
87802528:	b1a3      	cbz	r3, 87802554 <prvUnlockQueue+0x40>
8780252a:	f105 0624 	add.w	r6, r5, #36	; 0x24
8780252e:	e005      	b.n	8780253c <prvUnlockQueue+0x28>
87802530:	3c01      	subs	r4, #1
87802532:	b2e3      	uxtb	r3, r4
87802534:	b25c      	sxtb	r4, r3
87802536:	b16b      	cbz	r3, 87802554 <prvUnlockQueue+0x40>
87802538:	6a6b      	ldr	r3, [r5, #36]	; 0x24
8780253a:	b15b      	cbz	r3, 87802554 <prvUnlockQueue+0x40>
8780253c:	4630      	mov	r0, r6
8780253e:	f001 fb3d 	bl	87803bbc <xTaskRemoveFromEventList>
87802542:	2800      	cmp	r0, #0
87802544:	d0f4      	beq.n	87802530 <prvUnlockQueue+0x1c>
87802546:	3c01      	subs	r4, #1
87802548:	f001 fbe6 	bl	87803d18 <vTaskMissedYield>
8780254c:	b2e3      	uxtb	r3, r4
8780254e:	b25c      	sxtb	r4, r3
87802550:	2b00      	cmp	r3, #0
87802552:	d1f1      	bne.n	87802538 <prvUnlockQueue+0x24>
87802554:	23ff      	movs	r3, #255	; 0xff
87802556:	f885 3045 	strb.w	r3, [r5, #69]	; 0x45
8780255a:	f002 fb7f 	bl	87804c5c <vPortExitCritical>
8780255e:	f002 fb3b 	bl	87804bd8 <vPortEnterCritical>
87802562:	f895 4044 	ldrb.w	r4, [r5, #68]	; 0x44
87802566:	b264      	sxtb	r4, r4
87802568:	2c00      	cmp	r4, #0
8780256a:	dd16      	ble.n	8780259a <prvUnlockQueue+0x86>
8780256c:	692b      	ldr	r3, [r5, #16]
8780256e:	b1a3      	cbz	r3, 8780259a <prvUnlockQueue+0x86>
87802570:	f105 0610 	add.w	r6, r5, #16
87802574:	e005      	b.n	87802582 <prvUnlockQueue+0x6e>
87802576:	3c01      	subs	r4, #1
87802578:	b2e3      	uxtb	r3, r4
8780257a:	b25c      	sxtb	r4, r3
8780257c:	b16b      	cbz	r3, 8780259a <prvUnlockQueue+0x86>
8780257e:	692b      	ldr	r3, [r5, #16]
87802580:	b15b      	cbz	r3, 8780259a <prvUnlockQueue+0x86>
87802582:	4630      	mov	r0, r6
87802584:	f001 fb1a 	bl	87803bbc <xTaskRemoveFromEventList>
87802588:	2800      	cmp	r0, #0
8780258a:	d0f4      	beq.n	87802576 <prvUnlockQueue+0x62>
8780258c:	3c01      	subs	r4, #1
8780258e:	f001 fbc3 	bl	87803d18 <vTaskMissedYield>
87802592:	b2e3      	uxtb	r3, r4
87802594:	b25c      	sxtb	r4, r3
87802596:	2b00      	cmp	r3, #0
87802598:	d1f1      	bne.n	8780257e <prvUnlockQueue+0x6a>
8780259a:	23ff      	movs	r3, #255	; 0xff
8780259c:	f885 3044 	strb.w	r3, [r5, #68]	; 0x44
878025a0:	e8bd 4070 	ldmia.w	sp!, {r4, r5, r6, lr}
878025a4:	f002 bb5a 	b.w	87804c5c <vPortExitCritical>

878025a8 <xQueueGenericReset>:
878025a8:	b570      	push	{r4, r5, r6, lr}
878025aa:	b398      	cbz	r0, 87802614 <xQueueGenericReset+0x6c>
878025ac:	4604      	mov	r4, r0
878025ae:	460e      	mov	r6, r1
878025b0:	25ff      	movs	r5, #255	; 0xff
878025b2:	f002 fb11 	bl	87804bd8 <vPortEnterCritical>
878025b6:	6c20      	ldr	r0, [r4, #64]	; 0x40
878025b8:	2100      	movs	r1, #0
878025ba:	6be3      	ldr	r3, [r4, #60]	; 0x3c
878025bc:	6822      	ldr	r2, [r4, #0]
878025be:	63a1      	str	r1, [r4, #56]	; 0x38
878025c0:	f884 5044 	strb.w	r5, [r4, #68]	; 0x44
878025c4:	fb03 f300 	mul.w	r3, r3, r0
878025c8:	60a2      	str	r2, [r4, #8]
878025ca:	f884 5045 	strb.w	r5, [r4, #69]	; 0x45
878025ce:	1a18      	subs	r0, r3, r0
878025d0:	4413      	add	r3, r2
878025d2:	4402      	add	r2, r0
878025d4:	6063      	str	r3, [r4, #4]
878025d6:	60e2      	str	r2, [r4, #12]
878025d8:	b986      	cbnz	r6, 878025fc <xQueueGenericReset+0x54>
878025da:	6923      	ldr	r3, [r4, #16]
878025dc:	b91b      	cbnz	r3, 878025e6 <xQueueGenericReset+0x3e>
878025de:	f002 fb3d 	bl	87804c5c <vPortExitCritical>
878025e2:	2001      	movs	r0, #1
878025e4:	bd70      	pop	{r4, r5, r6, pc}
878025e6:	f104 0010 	add.w	r0, r4, #16
878025ea:	f001 fae7 	bl	87803bbc <xTaskRemoveFromEventList>
878025ee:	2800      	cmp	r0, #0
878025f0:	d0f5      	beq.n	878025de <xQueueGenericReset+0x36>
878025f2:	df00      	svc	0
878025f4:	f002 fb32 	bl	87804c5c <vPortExitCritical>
878025f8:	2001      	movs	r0, #1
878025fa:	bd70      	pop	{r4, r5, r6, pc}
878025fc:	f104 0010 	add.w	r0, r4, #16
87802600:	f000 fbb8 	bl	87802d74 <vListInitialise>
87802604:	f104 0024 	add.w	r0, r4, #36	; 0x24
87802608:	f000 fbb4 	bl	87802d74 <vListInitialise>
8780260c:	f002 fb26 	bl	87804c5c <vPortExitCritical>
87802610:	2001      	movs	r0, #1
87802612:	bd70      	pop	{r4, r5, r6, pc}
87802614:	f002 fb62 	bl	87804cdc <ulPortSetInterruptMask>
87802618:	e7fe      	b.n	87802618 <xQueueGenericReset+0x70>
8780261a:	bf00      	nop

8780261c <xQueueGenericCreate>:
8780261c:	b5f8      	push	{r3, r4, r5, r6, r7, lr}
8780261e:	b1a8      	cbz	r0, 8780264c <xQueueGenericCreate+0x30>
87802620:	4606      	mov	r6, r0
87802622:	fb01 f000 	mul.w	r0, r1, r0
87802626:	460d      	mov	r5, r1
87802628:	4617      	mov	r7, r2
8780262a:	3050      	adds	r0, #80	; 0x50
8780262c:	f002 fbf8 	bl	87804e20 <pvPortMalloc>
87802630:	4604      	mov	r4, r0
87802632:	b148      	cbz	r0, 87802648 <xQueueGenericCreate+0x2c>
87802634:	b96d      	cbnz	r5, 87802652 <xQueueGenericCreate+0x36>
87802636:	6020      	str	r0, [r4, #0]
87802638:	63e6      	str	r6, [r4, #60]	; 0x3c
8780263a:	2101      	movs	r1, #1
8780263c:	6425      	str	r5, [r4, #64]	; 0x40
8780263e:	4620      	mov	r0, r4
87802640:	f7ff ffb2 	bl	878025a8 <xQueueGenericReset>
87802644:	f884 704c 	strb.w	r7, [r4, #76]	; 0x4c
87802648:	4620      	mov	r0, r4
8780264a:	bdf8      	pop	{r3, r4, r5, r6, r7, pc}
8780264c:	f002 fb46 	bl	87804cdc <ulPortSetInterruptMask>
87802650:	e7fe      	b.n	87802650 <xQueueGenericCreate+0x34>
87802652:	f100 0350 	add.w	r3, r0, #80	; 0x50
87802656:	6003      	str	r3, [r0, #0]
87802658:	e7ee      	b.n	87802638 <xQueueGenericCreate+0x1c>
8780265a:	bf00      	nop

8780265c <xQueueCreateCountingSemaphore>:
8780265c:	b510      	push	{r4, lr}
8780265e:	b160      	cbz	r0, 8780267a <xQueueCreateCountingSemaphore+0x1e>
87802660:	4288      	cmp	r0, r1
87802662:	460c      	mov	r4, r1
87802664:	d202      	bcs.n	8780266c <xQueueCreateCountingSemaphore+0x10>
87802666:	f002 fb39 	bl	87804cdc <ulPortSetInterruptMask>
8780266a:	e7fe      	b.n	8780266a <xQueueCreateCountingSemaphore+0xe>
8780266c:	2202      	movs	r2, #2
8780266e:	2100      	movs	r1, #0
87802670:	f7ff ffd4 	bl	8780261c <xQueueGenericCreate>
87802674:	b100      	cbz	r0, 87802678 <xQueueCreateCountingSemaphore+0x1c>
87802676:	6384      	str	r4, [r0, #56]	; 0x38
87802678:	bd10      	pop	{r4, pc}
8780267a:	f002 fb2f 	bl	87804cdc <ulPortSetInterruptMask>
8780267e:	e7fe      	b.n	8780267e <xQueueCreateCountingSemaphore+0x22>

87802680 <xQueueGenericSend>:
87802680:	e92d 47f0 	stmdb	sp!, {r4, r5, r6, r7, r8, r9, sl, lr}
87802684:	b084      	sub	sp, #16
87802686:	9201      	str	r2, [sp, #4]
87802688:	2800      	cmp	r0, #0
8780268a:	d067      	beq.n	8780275c <xQueueGenericSend+0xdc>
8780268c:	4688      	mov	r8, r1
8780268e:	461e      	mov	r6, r3
87802690:	4604      	mov	r4, r0
87802692:	2900      	cmp	r1, #0
87802694:	f000 808d 	beq.w	878027b2 <xQueueGenericSend+0x132>
87802698:	2e02      	cmp	r6, #2
8780269a:	d049      	beq.n	87802730 <xQueueGenericSend+0xb0>
8780269c:	f001 fc66 	bl	87803f6c <xTaskGetSchedulerState>
878026a0:	b918      	cbnz	r0, 878026aa <xQueueGenericSend+0x2a>
878026a2:	9b01      	ldr	r3, [sp, #4]
878026a4:	2b00      	cmp	r3, #0
878026a6:	f040 8081 	bne.w	878027ac <xQueueGenericSend+0x12c>
878026aa:	f1a6 0a02 	sub.w	sl, r6, #2
878026ae:	2700      	movs	r7, #0
878026b0:	faba fa8a 	clz	sl, sl
878026b4:	46b9      	mov	r9, r7
878026b6:	ea4f 1a5a 	mov.w	sl, sl, lsr #5
878026ba:	e027      	b.n	8780270c <xQueueGenericSend+0x8c>
878026bc:	f002 face 	bl	87804c5c <vPortExitCritical>
878026c0:	f001 f816 	bl	878036f0 <vTaskSuspendAll>
878026c4:	f002 fa88 	bl	87804bd8 <vPortEnterCritical>
878026c8:	f894 3044 	ldrb.w	r3, [r4, #68]	; 0x44
878026cc:	2bff      	cmp	r3, #255	; 0xff
878026ce:	bf08      	it	eq
878026d0:	f884 9044 	strbeq.w	r9, [r4, #68]	; 0x44
878026d4:	f894 3045 	ldrb.w	r3, [r4, #69]	; 0x45
878026d8:	2bff      	cmp	r3, #255	; 0xff
878026da:	bf08      	it	eq
878026dc:	f884 9045 	strbeq.w	r9, [r4, #69]	; 0x45
878026e0:	f002 fabc 	bl	87804c5c <vPortExitCritical>
878026e4:	a901      	add	r1, sp, #4
878026e6:	a802      	add	r0, sp, #8
878026e8:	f001 fae2 	bl	87803cb0 <xTaskCheckForTimeOut>
878026ec:	2800      	cmp	r0, #0
878026ee:	d138      	bne.n	87802762 <xQueueGenericSend+0xe2>
878026f0:	f002 fa72 	bl	87804bd8 <vPortEnterCritical>
878026f4:	6ba2      	ldr	r2, [r4, #56]	; 0x38
878026f6:	6be3      	ldr	r3, [r4, #60]	; 0x3c
878026f8:	429a      	cmp	r2, r3
878026fa:	d01f      	beq.n	8780273c <xQueueGenericSend+0xbc>
878026fc:	f002 faae 	bl	87804c5c <vPortExitCritical>
87802700:	4620      	mov	r0, r4
87802702:	f7ff ff07 	bl	87802514 <prvUnlockQueue>
87802706:	f001 f895 	bl	87803834 <xTaskResumeAll>
8780270a:	2701      	movs	r7, #1
8780270c:	f002 fa64 	bl	87804bd8 <vPortEnterCritical>
87802710:	6ba3      	ldr	r3, [r4, #56]	; 0x38
87802712:	6be2      	ldr	r2, [r4, #60]	; 0x3c
87802714:	4293      	cmp	r3, r2
87802716:	bf2c      	ite	cs
87802718:	4653      	movcs	r3, sl
8780271a:	f04a 0301 	orrcc.w	r3, sl, #1
8780271e:	bb7b      	cbnz	r3, 87802780 <xQueueGenericSend+0x100>
87802720:	9d01      	ldr	r5, [sp, #4]
87802722:	b33d      	cbz	r5, 87802774 <xQueueGenericSend+0xf4>
87802724:	2f00      	cmp	r7, #0
87802726:	d1c9      	bne.n	878026bc <xQueueGenericSend+0x3c>
87802728:	a802      	add	r0, sp, #8
8780272a:	f001 fab1 	bl	87803c90 <vTaskSetTimeOutState>
8780272e:	e7c5      	b.n	878026bc <xQueueGenericSend+0x3c>
87802730:	6be3      	ldr	r3, [r4, #60]	; 0x3c
87802732:	2b01      	cmp	r3, #1
87802734:	d0b2      	beq.n	8780269c <xQueueGenericSend+0x1c>
87802736:	f002 fad1 	bl	87804cdc <ulPortSetInterruptMask>
8780273a:	e7fe      	b.n	8780273a <xQueueGenericSend+0xba>
8780273c:	f002 fa8e 	bl	87804c5c <vPortExitCritical>
87802740:	9901      	ldr	r1, [sp, #4]
87802742:	f104 0010 	add.w	r0, r4, #16
87802746:	f001 f9eb 	bl	87803b20 <vTaskPlaceOnEventList>
8780274a:	4620      	mov	r0, r4
8780274c:	f7ff fee2 	bl	87802514 <prvUnlockQueue>
87802750:	f001 f870 	bl	87803834 <xTaskResumeAll>
87802754:	2800      	cmp	r0, #0
87802756:	d1d8      	bne.n	8780270a <xQueueGenericSend+0x8a>
87802758:	df00      	svc	0
8780275a:	e7d6      	b.n	8780270a <xQueueGenericSend+0x8a>
8780275c:	f002 fabe 	bl	87804cdc <ulPortSetInterruptMask>
87802760:	e7fe      	b.n	87802760 <xQueueGenericSend+0xe0>
87802762:	4620      	mov	r0, r4
87802764:	f7ff fed6 	bl	87802514 <prvUnlockQueue>
87802768:	f001 f864 	bl	87803834 <xTaskResumeAll>
8780276c:	2000      	movs	r0, #0
8780276e:	b004      	add	sp, #16
87802770:	e8bd 87f0 	ldmia.w	sp!, {r4, r5, r6, r7, r8, r9, sl, pc}
87802774:	f002 fa72 	bl	87804c5c <vPortExitCritical>
87802778:	4628      	mov	r0, r5
8780277a:	b004      	add	sp, #16
8780277c:	e8bd 87f0 	ldmia.w	sp!, {r4, r5, r6, r7, r8, r9, sl, pc}
87802780:	4632      	mov	r2, r6
87802782:	4641      	mov	r1, r8
87802784:	4620      	mov	r0, r4
87802786:	f7ff fe85 	bl	87802494 <prvCopyDataToQueue>
8780278a:	6a63      	ldr	r3, [r4, #36]	; 0x24
8780278c:	b93b      	cbnz	r3, 8780279e <xQueueGenericSend+0x11e>
8780278e:	b100      	cbz	r0, 87802792 <xQueueGenericSend+0x112>
87802790:	df00      	svc	0
87802792:	f002 fa63 	bl	87804c5c <vPortExitCritical>
87802796:	2001      	movs	r0, #1
87802798:	b004      	add	sp, #16
8780279a:	e8bd 87f0 	ldmia.w	sp!, {r4, r5, r6, r7, r8, r9, sl, pc}
8780279e:	f104 0024 	add.w	r0, r4, #36	; 0x24
878027a2:	f001 fa0b 	bl	87803bbc <xTaskRemoveFromEventList>
878027a6:	2800      	cmp	r0, #0
878027a8:	d1f2      	bne.n	87802790 <xQueueGenericSend+0x110>
878027aa:	e7f2      	b.n	87802792 <xQueueGenericSend+0x112>
878027ac:	f002 fa96 	bl	87804cdc <ulPortSetInterruptMask>
878027b0:	e7fe      	b.n	878027b0 <xQueueGenericSend+0x130>
878027b2:	6c03      	ldr	r3, [r0, #64]	; 0x40
878027b4:	2b00      	cmp	r3, #0
878027b6:	f43f af6f 	beq.w	87802698 <xQueueGenericSend+0x18>
878027ba:	f002 fa8f 	bl	87804cdc <ulPortSetInterruptMask>
878027be:	e7fe      	b.n	878027be <xQueueGenericSend+0x13e>

878027c0 <xQueueCreateMutex>:
878027c0:	b510      	push	{r4, lr}
878027c2:	4602      	mov	r2, r0
878027c4:	2100      	movs	r1, #0
878027c6:	2001      	movs	r0, #1
878027c8:	f7ff ff28 	bl	8780261c <xQueueGenericCreate>
878027cc:	4604      	mov	r4, r0
878027ce:	b138      	cbz	r0, 878027e0 <xQueueCreateMutex+0x20>
878027d0:	2300      	movs	r3, #0
878027d2:	6043      	str	r3, [r0, #4]
878027d4:	461a      	mov	r2, r3
878027d6:	6003      	str	r3, [r0, #0]
878027d8:	4619      	mov	r1, r3
878027da:	60c3      	str	r3, [r0, #12]
878027dc:	f7ff ff50 	bl	87802680 <xQueueGenericSend>
878027e0:	4620      	mov	r0, r4
878027e2:	bd10      	pop	{r4, pc}

878027e4 <xQueueGiveMutexRecursive>:
878027e4:	b538      	push	{r3, r4, r5, lr}
878027e6:	b138      	cbz	r0, 878027f8 <xQueueGiveMutexRecursive+0x14>
878027e8:	6845      	ldr	r5, [r0, #4]
878027ea:	4604      	mov	r4, r0
878027ec:	f001 fbb8 	bl	87803f60 <xTaskGetCurrentTaskHandle>
878027f0:	4285      	cmp	r5, r0
878027f2:	d004      	beq.n	878027fe <xQueueGiveMutexRecursive+0x1a>
878027f4:	2000      	movs	r0, #0
878027f6:	bd38      	pop	{r3, r4, r5, pc}
878027f8:	f002 fa70 	bl	87804cdc <ulPortSetInterruptMask>
878027fc:	e7fe      	b.n	878027fc <xQueueGiveMutexRecursive+0x18>
878027fe:	68e3      	ldr	r3, [r4, #12]
87802800:	3b01      	subs	r3, #1
87802802:	60e3      	str	r3, [r4, #12]
87802804:	b10b      	cbz	r3, 8780280a <xQueueGiveMutexRecursive+0x26>
87802806:	2001      	movs	r0, #1
87802808:	bd38      	pop	{r3, r4, r5, pc}
8780280a:	4620      	mov	r0, r4
8780280c:	461a      	mov	r2, r3
8780280e:	4619      	mov	r1, r3
87802810:	f7ff ff36 	bl	87802680 <xQueueGenericSend>
87802814:	2001      	movs	r0, #1
87802816:	bd38      	pop	{r3, r4, r5, pc}

87802818 <xQueueGenericSendFromISR>:
87802818:	e92d 43f8 	stmdb	sp!, {r3, r4, r5, r6, r7, r8, r9, lr}
8780281c:	2800      	cmp	r0, #0
8780281e:	d03a      	beq.n	87802896 <xQueueGenericSendFromISR+0x7e>
87802820:	460f      	mov	r7, r1
87802822:	4690      	mov	r8, r2
87802824:	4699      	mov	r9, r3
87802826:	4604      	mov	r4, r0
87802828:	2900      	cmp	r1, #0
8780282a:	d04d      	beq.n	878028c8 <xQueueGenericSendFromISR+0xb0>
8780282c:	f1b9 0f02 	cmp.w	r9, #2
87802830:	d010      	beq.n	87802854 <xQueueGenericSendFromISR+0x3c>
87802832:	f002 fa6f 	bl	87804d14 <vPortValidateInterruptPriority>
87802836:	f002 fa51 	bl	87804cdc <ulPortSetInterruptMask>
8780283a:	6ba2      	ldr	r2, [r4, #56]	; 0x38
8780283c:	4606      	mov	r6, r0
8780283e:	6be3      	ldr	r3, [r4, #60]	; 0x3c
87802840:	429a      	cmp	r2, r3
87802842:	bf28      	it	cs
87802844:	2500      	movcs	r5, #0
87802846:	d311      	bcc.n	8780286c <xQueueGenericSendFromISR+0x54>
87802848:	4630      	mov	r0, r6
8780284a:	f002 fa31 	bl	87804cb0 <vPortClearInterruptMask>
8780284e:	4628      	mov	r0, r5
87802850:	e8bd 83f8 	ldmia.w	sp!, {r3, r4, r5, r6, r7, r8, r9, pc}
87802854:	6be3      	ldr	r3, [r4, #60]	; 0x3c
87802856:	2b01      	cmp	r3, #1
87802858:	d002      	beq.n	87802860 <xQueueGenericSendFromISR+0x48>
8780285a:	f002 fa3f 	bl	87804cdc <ulPortSetInterruptMask>
8780285e:	e7fe      	b.n	8780285e <xQueueGenericSendFromISR+0x46>
87802860:	f002 fa58 	bl	87804d14 <vPortValidateInterruptPriority>
87802864:	f002 fa3a 	bl	87804cdc <ulPortSetInterruptMask>
87802868:	6ba3      	ldr	r3, [r4, #56]	; 0x38
8780286a:	4606      	mov	r6, r0
8780286c:	f894 5045 	ldrb.w	r5, [r4, #69]	; 0x45
87802870:	464a      	mov	r2, r9
87802872:	4639      	mov	r1, r7
87802874:	4620      	mov	r0, r4
87802876:	f7ff fe0d 	bl	87802494 <prvCopyDataToQueue>
8780287a:	b26d      	sxtb	r5, r5
8780287c:	1c6b      	adds	r3, r5, #1
8780287e:	d00d      	beq.n	8780289c <xQueueGenericSendFromISR+0x84>
87802880:	1c6b      	adds	r3, r5, #1
87802882:	4630      	mov	r0, r6
87802884:	b25b      	sxtb	r3, r3
87802886:	2501      	movs	r5, #1
87802888:	f884 3045 	strb.w	r3, [r4, #69]	; 0x45
8780288c:	f002 fa10 	bl	87804cb0 <vPortClearInterruptMask>
87802890:	4628      	mov	r0, r5
87802892:	e8bd 83f8 	ldmia.w	sp!, {r3, r4, r5, r6, r7, r8, r9, pc}
87802896:	f002 fa21 	bl	87804cdc <ulPortSetInterruptMask>
8780289a:	e7fe      	b.n	8780289a <xQueueGenericSendFromISR+0x82>
8780289c:	6a63      	ldr	r3, [r4, #36]	; 0x24
8780289e:	2501      	movs	r5, #1
878028a0:	2b00      	cmp	r3, #0
878028a2:	d0d1      	beq.n	87802848 <xQueueGenericSendFromISR+0x30>
878028a4:	f104 0024 	add.w	r0, r4, #36	; 0x24
878028a8:	2501      	movs	r5, #1
878028aa:	f001 f987 	bl	87803bbc <xTaskRemoveFromEventList>
878028ae:	2800      	cmp	r0, #0
878028b0:	bf18      	it	ne
878028b2:	f1b8 0f00 	cmpne.w	r8, #0
878028b6:	4630      	mov	r0, r6
878028b8:	bf18      	it	ne
878028ba:	f8c8 5000 	strne.w	r5, [r8]
878028be:	f002 f9f7 	bl	87804cb0 <vPortClearInterruptMask>
878028c2:	4628      	mov	r0, r5
878028c4:	e8bd 83f8 	ldmia.w	sp!, {r3, r4, r5, r6, r7, r8, r9, pc}
878028c8:	6c03      	ldr	r3, [r0, #64]	; 0x40
878028ca:	2b00      	cmp	r3, #0
878028cc:	d0ae      	beq.n	8780282c <xQueueGenericSendFromISR+0x14>
878028ce:	f002 fa05 	bl	87804cdc <ulPortSetInterruptMask>
878028d2:	e7fe      	b.n	878028d2 <xQueueGenericSendFromISR+0xba>

878028d4 <xQueueGiveFromISR>:
878028d4:	b5f8      	push	{r3, r4, r5, r6, r7, lr}
878028d6:	b320      	cbz	r0, 87802922 <xQueueGiveFromISR+0x4e>
878028d8:	6c03      	ldr	r3, [r0, #64]	; 0x40
878028da:	4604      	mov	r4, r0
878028dc:	b9f3      	cbnz	r3, 8780291c <xQueueGiveFromISR+0x48>
878028de:	6803      	ldr	r3, [r0, #0]
878028e0:	460e      	mov	r6, r1
878028e2:	b39b      	cbz	r3, 8780294c <xQueueGiveFromISR+0x78>
878028e4:	f002 fa16 	bl	87804d14 <vPortValidateInterruptPriority>
878028e8:	f002 f9f8 	bl	87804cdc <ulPortSetInterruptMask>
878028ec:	6ba2      	ldr	r2, [r4, #56]	; 0x38
878028ee:	4607      	mov	r7, r0
878028f0:	6be3      	ldr	r3, [r4, #60]	; 0x3c
878028f2:	429a      	cmp	r2, r3
878028f4:	bf28      	it	cs
878028f6:	2500      	movcs	r5, #0
878028f8:	d20b      	bcs.n	87802912 <xQueueGiveFromISR+0x3e>
878028fa:	f894 3045 	ldrb.w	r3, [r4, #69]	; 0x45
878028fe:	3201      	adds	r2, #1
87802900:	63a2      	str	r2, [r4, #56]	; 0x38
87802902:	b25b      	sxtb	r3, r3
87802904:	1c5a      	adds	r2, r3, #1
87802906:	d00f      	beq.n	87802928 <xQueueGiveFromISR+0x54>
87802908:	3301      	adds	r3, #1
8780290a:	2501      	movs	r5, #1
8780290c:	b25b      	sxtb	r3, r3
8780290e:	f884 3045 	strb.w	r3, [r4, #69]	; 0x45
87802912:	4638      	mov	r0, r7
87802914:	f002 f9cc 	bl	87804cb0 <vPortClearInterruptMask>
87802918:	4628      	mov	r0, r5
8780291a:	bdf8      	pop	{r3, r4, r5, r6, r7, pc}
8780291c:	f002 f9de 	bl	87804cdc <ulPortSetInterruptMask>
87802920:	e7fe      	b.n	87802920 <xQueueGiveFromISR+0x4c>
87802922:	f002 f9db 	bl	87804cdc <ulPortSetInterruptMask>
87802926:	e7fe      	b.n	87802926 <xQueueGiveFromISR+0x52>
87802928:	6a63      	ldr	r3, [r4, #36]	; 0x24
8780292a:	2501      	movs	r5, #1
8780292c:	2b00      	cmp	r3, #0
8780292e:	d0f0      	beq.n	87802912 <xQueueGiveFromISR+0x3e>
87802930:	f104 0024 	add.w	r0, r4, #36	; 0x24
87802934:	f001 f942 	bl	87803bbc <xTaskRemoveFromEventList>
87802938:	2800      	cmp	r0, #0
8780293a:	bf18      	it	ne
8780293c:	2e00      	cmpne	r6, #0
8780293e:	4638      	mov	r0, r7
87802940:	bf18      	it	ne
87802942:	6035      	strne	r5, [r6, #0]
87802944:	f002 f9b4 	bl	87804cb0 <vPortClearInterruptMask>
87802948:	4628      	mov	r0, r5
8780294a:	bdf8      	pop	{r3, r4, r5, r6, r7, pc}
8780294c:	6843      	ldr	r3, [r0, #4]
8780294e:	2b00      	cmp	r3, #0
87802950:	d0c8      	beq.n	878028e4 <xQueueGiveFromISR+0x10>
87802952:	f002 f9c3 	bl	87804cdc <ulPortSetInterruptMask>
87802956:	e7fe      	b.n	87802956 <xQueueGiveFromISR+0x82>

87802958 <xQueueGenericReceive>:
87802958:	e92d 43f0 	stmdb	sp!, {r4, r5, r6, r7, r8, r9, lr}
8780295c:	b085      	sub	sp, #20
8780295e:	9201      	str	r2, [sp, #4]
87802960:	2800      	cmp	r0, #0
87802962:	d061      	beq.n	87802a28 <xQueueGenericReceive+0xd0>
87802964:	4688      	mov	r8, r1
87802966:	4699      	mov	r9, r3
87802968:	4604      	mov	r4, r0
8780296a:	2900      	cmp	r1, #0
8780296c:	f000 8097 	beq.w	87802a9e <xQueueGenericReceive+0x146>
87802970:	f001 fafc 	bl	87803f6c <xTaskGetSchedulerState>
87802974:	b920      	cbnz	r0, 87802980 <xQueueGenericReceive+0x28>
87802976:	9d01      	ldr	r5, [sp, #4]
87802978:	b11d      	cbz	r5, 87802982 <xQueueGenericReceive+0x2a>
8780297a:	f002 f9af 	bl	87804cdc <ulPortSetInterruptMask>
8780297e:	e7fe      	b.n	8780297e <xQueueGenericReceive+0x26>
87802980:	2500      	movs	r5, #0
87802982:	2700      	movs	r7, #0
87802984:	e00c      	b.n	878029a0 <xQueueGenericReceive+0x48>
87802986:	f002 f927 	bl	87804bd8 <vPortEnterCritical>
8780298a:	6ba3      	ldr	r3, [r4, #56]	; 0x38
8780298c:	2b00      	cmp	r3, #0
8780298e:	d039      	beq.n	87802a04 <xQueueGenericReceive+0xac>
87802990:	f002 f964 	bl	87804c5c <vPortExitCritical>
87802994:	4620      	mov	r0, r4
87802996:	f7ff fdbd 	bl	87802514 <prvUnlockQueue>
8780299a:	f000 ff4b 	bl	87803834 <xTaskResumeAll>
8780299e:	2501      	movs	r5, #1
878029a0:	f002 f91a 	bl	87804bd8 <vPortEnterCritical>
878029a4:	6ba6      	ldr	r6, [r4, #56]	; 0x38
878029a6:	2e00      	cmp	r6, #0
878029a8:	d14f      	bne.n	87802a4a <xQueueGenericReceive+0xf2>
878029aa:	9b01      	ldr	r3, [sp, #4]
878029ac:	2b00      	cmp	r3, #0
878029ae:	d046      	beq.n	87802a3e <xQueueGenericReceive+0xe6>
878029b0:	b915      	cbnz	r5, 878029b8 <xQueueGenericReceive+0x60>
878029b2:	a802      	add	r0, sp, #8
878029b4:	f001 f96c 	bl	87803c90 <vTaskSetTimeOutState>
878029b8:	f002 f950 	bl	87804c5c <vPortExitCritical>
878029bc:	f000 fe98 	bl	878036f0 <vTaskSuspendAll>
878029c0:	f002 f90a 	bl	87804bd8 <vPortEnterCritical>
878029c4:	f894 3044 	ldrb.w	r3, [r4, #68]	; 0x44
878029c8:	2bff      	cmp	r3, #255	; 0xff
878029ca:	bf08      	it	eq
878029cc:	f884 7044 	strbeq.w	r7, [r4, #68]	; 0x44
878029d0:	f894 3045 	ldrb.w	r3, [r4, #69]	; 0x45
878029d4:	2bff      	cmp	r3, #255	; 0xff
878029d6:	bf08      	it	eq
878029d8:	f884 7045 	strbeq.w	r7, [r4, #69]	; 0x45
878029dc:	f002 f93e 	bl	87804c5c <vPortExitCritical>
878029e0:	a901      	add	r1, sp, #4
878029e2:	a802      	add	r0, sp, #8
878029e4:	f001 f964 	bl	87803cb0 <xTaskCheckForTimeOut>
878029e8:	2800      	cmp	r0, #0
878029ea:	d0cc      	beq.n	87802986 <xQueueGenericReceive+0x2e>
878029ec:	4620      	mov	r0, r4
878029ee:	f7ff fd91 	bl	87802514 <prvUnlockQueue>
878029f2:	f000 ff1f 	bl	87803834 <xTaskResumeAll>
878029f6:	f002 f8ef 	bl	87804bd8 <vPortEnterCritical>
878029fa:	6ba3      	ldr	r3, [r4, #56]	; 0x38
878029fc:	b1fb      	cbz	r3, 87802a3e <xQueueGenericReceive+0xe6>
878029fe:	f002 f92d 	bl	87804c5c <vPortExitCritical>
87802a02:	e7cc      	b.n	8780299e <xQueueGenericReceive+0x46>
87802a04:	f002 f92a 	bl	87804c5c <vPortExitCritical>
87802a08:	6823      	ldr	r3, [r4, #0]
87802a0a:	b183      	cbz	r3, 87802a2e <xQueueGenericReceive+0xd6>
87802a0c:	9901      	ldr	r1, [sp, #4]
87802a0e:	f104 0024 	add.w	r0, r4, #36	; 0x24
87802a12:	f001 f885 	bl	87803b20 <vTaskPlaceOnEventList>
87802a16:	4620      	mov	r0, r4
87802a18:	f7ff fd7c 	bl	87802514 <prvUnlockQueue>
87802a1c:	f000 ff0a 	bl	87803834 <xTaskResumeAll>
87802a20:	2800      	cmp	r0, #0
87802a22:	d1bc      	bne.n	8780299e <xQueueGenericReceive+0x46>
87802a24:	df00      	svc	0
87802a26:	e7ba      	b.n	8780299e <xQueueGenericReceive+0x46>
87802a28:	f002 f958 	bl	87804cdc <ulPortSetInterruptMask>
87802a2c:	e7fe      	b.n	87802a2c <xQueueGenericReceive+0xd4>
87802a2e:	f002 f8d3 	bl	87804bd8 <vPortEnterCritical>
87802a32:	6860      	ldr	r0, [r4, #4]
87802a34:	f001 faaa 	bl	87803f8c <vTaskPriorityInherit>
87802a38:	f002 f910 	bl	87804c5c <vPortExitCritical>
87802a3c:	e7e6      	b.n	87802a0c <xQueueGenericReceive+0xb4>
87802a3e:	f002 f90d 	bl	87804c5c <vPortExitCritical>
87802a42:	2000      	movs	r0, #0
87802a44:	b005      	add	sp, #20
87802a46:	e8bd 83f0 	ldmia.w	sp!, {r4, r5, r6, r7, r8, r9, pc}
87802a4a:	4641      	mov	r1, r8
87802a4c:	4620      	mov	r0, r4
87802a4e:	68e5      	ldr	r5, [r4, #12]
87802a50:	f004 ff50 	bl	878078f4 <prvCopyDataFromQueue>
87802a54:	f1b9 0f00 	cmp.w	r9, #0
87802a58:	d10e      	bne.n	87802a78 <xQueueGenericReceive+0x120>
87802a5a:	6823      	ldr	r3, [r4, #0]
87802a5c:	3e01      	subs	r6, #1
87802a5e:	63a6      	str	r6, [r4, #56]	; 0x38
87802a60:	b913      	cbnz	r3, 87802a68 <xQueueGenericReceive+0x110>
87802a62:	f001 fb37 	bl	878040d4 <pvTaskIncrementMutexHeldCount>
87802a66:	6060      	str	r0, [r4, #4]
87802a68:	6923      	ldr	r3, [r4, #16]
87802a6a:	b98b      	cbnz	r3, 87802a90 <xQueueGenericReceive+0x138>
87802a6c:	f002 f8f6 	bl	87804c5c <vPortExitCritical>
87802a70:	2001      	movs	r0, #1
87802a72:	b005      	add	sp, #20
87802a74:	e8bd 83f0 	ldmia.w	sp!, {r4, r5, r6, r7, r8, r9, pc}
87802a78:	6a63      	ldr	r3, [r4, #36]	; 0x24
87802a7a:	60e5      	str	r5, [r4, #12]
87802a7c:	2b00      	cmp	r3, #0
87802a7e:	d0f5      	beq.n	87802a6c <xQueueGenericReceive+0x114>
87802a80:	f104 0024 	add.w	r0, r4, #36	; 0x24
87802a84:	f001 f89a 	bl	87803bbc <xTaskRemoveFromEventList>
87802a88:	2800      	cmp	r0, #0
87802a8a:	d0ef      	beq.n	87802a6c <xQueueGenericReceive+0x114>
87802a8c:	df00      	svc	0
87802a8e:	e7ed      	b.n	87802a6c <xQueueGenericReceive+0x114>
87802a90:	f104 0010 	add.w	r0, r4, #16
87802a94:	f001 f892 	bl	87803bbc <xTaskRemoveFromEventList>
87802a98:	2800      	cmp	r0, #0
87802a9a:	d1f7      	bne.n	87802a8c <xQueueGenericReceive+0x134>
87802a9c:	e7e6      	b.n	87802a6c <xQueueGenericReceive+0x114>
87802a9e:	6c03      	ldr	r3, [r0, #64]	; 0x40
87802aa0:	2b00      	cmp	r3, #0
87802aa2:	f43f af65 	beq.w	87802970 <xQueueGenericReceive+0x18>
87802aa6:	f002 f919 	bl	87804cdc <ulPortSetInterruptMask>
87802aaa:	e7fe      	b.n	87802aaa <xQueueGenericReceive+0x152>

87802aac <xQueueTakeMutexRecursive>:
87802aac:	b570      	push	{r4, r5, r6, lr}
87802aae:	b188      	cbz	r0, 87802ad4 <xQueueTakeMutexRecursive+0x28>
87802ab0:	6846      	ldr	r6, [r0, #4]
87802ab2:	460d      	mov	r5, r1
87802ab4:	4604      	mov	r4, r0
87802ab6:	f001 fa53 	bl	87803f60 <xTaskGetCurrentTaskHandle>
87802aba:	4286      	cmp	r6, r0
87802abc:	d00d      	beq.n	87802ada <xQueueTakeMutexRecursive+0x2e>
87802abe:	2300      	movs	r3, #0
87802ac0:	462a      	mov	r2, r5
87802ac2:	4619      	mov	r1, r3
87802ac4:	4620      	mov	r0, r4
87802ac6:	f7ff ff47 	bl	87802958 <xQueueGenericReceive>
87802aca:	b110      	cbz	r0, 87802ad2 <xQueueTakeMutexRecursive+0x26>
87802acc:	68e3      	ldr	r3, [r4, #12]
87802ace:	3301      	adds	r3, #1
87802ad0:	60e3      	str	r3, [r4, #12]
87802ad2:	bd70      	pop	{r4, r5, r6, pc}
87802ad4:	f002 f902 	bl	87804cdc <ulPortSetInterruptMask>
87802ad8:	e7fe      	b.n	87802ad8 <xQueueTakeMutexRecursive+0x2c>
87802ada:	68e3      	ldr	r3, [r4, #12]
87802adc:	2001      	movs	r0, #1
87802ade:	4403      	add	r3, r0
87802ae0:	60e3      	str	r3, [r4, #12]
87802ae2:	bd70      	pop	{r4, r5, r6, pc}

87802ae4 <xQueueReceiveFromISR>:
87802ae4:	e92d 43f8 	stmdb	sp!, {r3, r4, r5, r6, r7, r8, r9, lr}
87802ae8:	b180      	cbz	r0, 87802b0c <xQueueReceiveFromISR+0x28>
87802aea:	4689      	mov	r9, r1
87802aec:	4690      	mov	r8, r2
87802aee:	4605      	mov	r5, r0
87802af0:	b329      	cbz	r1, 87802b3e <xQueueReceiveFromISR+0x5a>
87802af2:	f002 f90f 	bl	87804d14 <vPortValidateInterruptPriority>
87802af6:	f002 f8f1 	bl	87804cdc <ulPortSetInterruptMask>
87802afa:	6bac      	ldr	r4, [r5, #56]	; 0x38
87802afc:	4607      	mov	r7, r0
87802afe:	b944      	cbnz	r4, 87802b12 <xQueueReceiveFromISR+0x2e>
87802b00:	4638      	mov	r0, r7
87802b02:	f002 f8d5 	bl	87804cb0 <vPortClearInterruptMask>
87802b06:	4620      	mov	r0, r4
87802b08:	e8bd 83f8 	ldmia.w	sp!, {r3, r4, r5, r6, r7, r8, r9, pc}
87802b0c:	f002 f8e6 	bl	87804cdc <ulPortSetInterruptMask>
87802b10:	e7fe      	b.n	87802b10 <xQueueReceiveFromISR+0x2c>
87802b12:	f895 6044 	ldrb.w	r6, [r5, #68]	; 0x44
87802b16:	4649      	mov	r1, r9
87802b18:	4628      	mov	r0, r5
87802b1a:	3c01      	subs	r4, #1
87802b1c:	f004 feea 	bl	878078f4 <prvCopyDataFromQueue>
87802b20:	63ac      	str	r4, [r5, #56]	; 0x38
87802b22:	b276      	sxtb	r6, r6
87802b24:	1c73      	adds	r3, r6, #1
87802b26:	d010      	beq.n	87802b4a <xQueueReceiveFromISR+0x66>
87802b28:	1c73      	adds	r3, r6, #1
87802b2a:	4638      	mov	r0, r7
87802b2c:	b25b      	sxtb	r3, r3
87802b2e:	2401      	movs	r4, #1
87802b30:	f885 3044 	strb.w	r3, [r5, #68]	; 0x44
87802b34:	f002 f8bc 	bl	87804cb0 <vPortClearInterruptMask>
87802b38:	4620      	mov	r0, r4
87802b3a:	e8bd 83f8 	ldmia.w	sp!, {r3, r4, r5, r6, r7, r8, r9, pc}
87802b3e:	6c03      	ldr	r3, [r0, #64]	; 0x40
87802b40:	2b00      	cmp	r3, #0
87802b42:	d0d6      	beq.n	87802af2 <xQueueReceiveFromISR+0xe>
87802b44:	f002 f8ca 	bl	87804cdc <ulPortSetInterruptMask>
87802b48:	e7fe      	b.n	87802b48 <xQueueReceiveFromISR+0x64>
87802b4a:	692b      	ldr	r3, [r5, #16]
87802b4c:	2401      	movs	r4, #1
87802b4e:	2b00      	cmp	r3, #0
87802b50:	d0d6      	beq.n	87802b00 <xQueueReceiveFromISR+0x1c>
87802b52:	f105 0010 	add.w	r0, r5, #16
87802b56:	f001 f831 	bl	87803bbc <xTaskRemoveFromEventList>
87802b5a:	2800      	cmp	r0, #0
87802b5c:	bf18      	it	ne
87802b5e:	f1b8 0f00 	cmpne.w	r8, #0
87802b62:	4638      	mov	r0, r7
87802b64:	bf18      	it	ne
87802b66:	f8c8 4000 	strne.w	r4, [r8]
87802b6a:	f002 f8a1 	bl	87804cb0 <vPortClearInterruptMask>
87802b6e:	4620      	mov	r0, r4
87802b70:	e8bd 83f8 	ldmia.w	sp!, {r3, r4, r5, r6, r7, r8, r9, pc}

87802b74 <xQueuePeekFromISR>:
87802b74:	e92d 41f0 	stmdb	sp!, {r4, r5, r6, r7, r8, lr}
87802b78:	b1a0      	cbz	r0, 87802ba4 <xQueuePeekFromISR+0x30>
87802b7a:	460e      	mov	r6, r1
87802b7c:	4604      	mov	r4, r0
87802b7e:	6c03      	ldr	r3, [r0, #64]	; 0x40
87802b80:	b311      	cbz	r1, 87802bc8 <xQueuePeekFromISR+0x54>
87802b82:	b913      	cbnz	r3, 87802b8a <xQueuePeekFromISR+0x16>
87802b84:	f002 f8aa 	bl	87804cdc <ulPortSetInterruptMask>
87802b88:	e7fe      	b.n	87802b88 <xQueuePeekFromISR+0x14>
87802b8a:	f002 f8c3 	bl	87804d14 <vPortValidateInterruptPriority>
87802b8e:	f002 f8a5 	bl	87804cdc <ulPortSetInterruptMask>
87802b92:	6ba5      	ldr	r5, [r4, #56]	; 0x38
87802b94:	4607      	mov	r7, r0
87802b96:	b945      	cbnz	r5, 87802baa <xQueuePeekFromISR+0x36>
87802b98:	4638      	mov	r0, r7
87802b9a:	f002 f889 	bl	87804cb0 <vPortClearInterruptMask>
87802b9e:	4628      	mov	r0, r5
87802ba0:	e8bd 81f0 	ldmia.w	sp!, {r4, r5, r6, r7, r8, pc}
87802ba4:	f002 f89a 	bl	87804cdc <ulPortSetInterruptMask>
87802ba8:	e7fe      	b.n	87802ba8 <xQueuePeekFromISR+0x34>
87802baa:	f8d4 800c 	ldr.w	r8, [r4, #12]
87802bae:	4631      	mov	r1, r6
87802bb0:	4620      	mov	r0, r4
87802bb2:	2501      	movs	r5, #1
87802bb4:	f004 fe9e 	bl	878078f4 <prvCopyDataFromQueue>
87802bb8:	4638      	mov	r0, r7
87802bba:	f8c4 800c 	str.w	r8, [r4, #12]
87802bbe:	f002 f877 	bl	87804cb0 <vPortClearInterruptMask>
87802bc2:	4628      	mov	r0, r5
87802bc4:	e8bd 81f0 	ldmia.w	sp!, {r4, r5, r6, r7, r8, pc}
87802bc8:	2b00      	cmp	r3, #0
87802bca:	d0db      	beq.n	87802b84 <xQueuePeekFromISR+0x10>
87802bcc:	f002 f886 	bl	87804cdc <ulPortSetInterruptMask>
87802bd0:	e7fe      	b.n	87802bd0 <xQueuePeekFromISR+0x5c>
87802bd2:	bf00      	nop

87802bd4 <uxQueueMessagesWaiting>:
87802bd4:	b510      	push	{r4, lr}
87802bd6:	b138      	cbz	r0, 87802be8 <uxQueueMessagesWaiting+0x14>
87802bd8:	4604      	mov	r4, r0
87802bda:	f001 fffd 	bl	87804bd8 <vPortEnterCritical>
87802bde:	6ba4      	ldr	r4, [r4, #56]	; 0x38
87802be0:	f002 f83c 	bl	87804c5c <vPortExitCritical>
87802be4:	4620      	mov	r0, r4
87802be6:	bd10      	pop	{r4, pc}
87802be8:	f002 f878 	bl	87804cdc <ulPortSetInterruptMask>
87802bec:	e7fe      	b.n	87802bec <uxQueueMessagesWaiting+0x18>
87802bee:	bf00      	nop

87802bf0 <uxQueueSpacesAvailable>:
87802bf0:	b510      	push	{r4, lr}
87802bf2:	b148      	cbz	r0, 87802c08 <uxQueueSpacesAvailable+0x18>
87802bf4:	4604      	mov	r4, r0
87802bf6:	f001 ffef 	bl	87804bd8 <vPortEnterCritical>
87802bfa:	6ba3      	ldr	r3, [r4, #56]	; 0x38
87802bfc:	6be4      	ldr	r4, [r4, #60]	; 0x3c
87802bfe:	1ae4      	subs	r4, r4, r3
87802c00:	f002 f82c 	bl	87804c5c <vPortExitCritical>
87802c04:	4620      	mov	r0, r4
87802c06:	bd10      	pop	{r4, pc}
87802c08:	f002 f868 	bl	87804cdc <ulPortSetInterruptMask>
87802c0c:	e7fe      	b.n	87802c0c <uxQueueSpacesAvailable+0x1c>
87802c0e:	bf00      	nop

87802c10 <uxQueueMessagesWaitingFromISR>:
87802c10:	b108      	cbz	r0, 87802c16 <uxQueueMessagesWaitingFromISR+0x6>
87802c12:	6b80      	ldr	r0, [r0, #56]	; 0x38
87802c14:	4770      	bx	lr
87802c16:	b508      	push	{r3, lr}
87802c18:	f002 f860 	bl	87804cdc <ulPortSetInterruptMask>
87802c1c:	e7fe      	b.n	87802c1c <uxQueueMessagesWaitingFromISR+0xc>
87802c1e:	bf00      	nop

87802c20 <vQueueDelete>:
87802c20:	b510      	push	{r4, lr}
87802c22:	f64b 5440 	movw	r4, #48448	; 0xbd40
87802c26:	f6c8 0401 	movt	r4, #34817	; 0x8801
87802c2a:	2200      	movs	r2, #0
87802c2c:	4623      	mov	r3, r4
87802c2e:	b1a0      	cbz	r0, 87802c5a <vQueueDelete+0x3a>
87802c30:	6859      	ldr	r1, [r3, #4]
87802c32:	3308      	adds	r3, #8
87802c34:	4288      	cmp	r0, r1
87802c36:	d006      	beq.n	87802c46 <vQueueDelete+0x26>
87802c38:	3201      	adds	r2, #1
87802c3a:	2a08      	cmp	r2, #8
87802c3c:	d1f8      	bne.n	87802c30 <vQueueDelete+0x10>
87802c3e:	e8bd 4010 	ldmia.w	sp!, {r4, lr}
87802c42:	f002 b979 	b.w	87804f38 <vPortFree>
87802c46:	eb04 01c2 	add.w	r1, r4, r2, lsl #3
87802c4a:	2300      	movs	r3, #0
87802c4c:	f844 3032 	str.w	r3, [r4, r2, lsl #3]
87802c50:	604b      	str	r3, [r1, #4]
87802c52:	e8bd 4010 	ldmia.w	sp!, {r4, lr}
87802c56:	f002 b96f 	b.w	87804f38 <vPortFree>
87802c5a:	f002 f83f 	bl	87804cdc <ulPortSetInterruptMask>
87802c5e:	e7fe      	b.n	87802c5e <vQueueDelete+0x3e>

87802c60 <uxQueueGetQueueNumber>:
87802c60:	6c80      	ldr	r0, [r0, #72]	; 0x48
87802c62:	4770      	bx	lr

87802c64 <vQueueSetQueueNumber>:
87802c64:	6481      	str	r1, [r0, #72]	; 0x48
87802c66:	4770      	bx	lr

87802c68 <ucQueueGetQueueType>:
87802c68:	f890 004c 	ldrb.w	r0, [r0, #76]	; 0x4c
87802c6c:	4770      	bx	lr
87802c6e:	bf00      	nop

87802c70 <xQueueIsQueueEmptyFromISR>:
87802c70:	b120      	cbz	r0, 87802c7c <xQueueIsQueueEmptyFromISR+0xc>
87802c72:	6b80      	ldr	r0, [r0, #56]	; 0x38
87802c74:	fab0 f080 	clz	r0, r0
87802c78:	0940      	lsrs	r0, r0, #5
87802c7a:	4770      	bx	lr
87802c7c:	b508      	push	{r3, lr}
87802c7e:	f002 f82d 	bl	87804cdc <ulPortSetInterruptMask>
87802c82:	e7fe      	b.n	87802c82 <xQueueIsQueueEmptyFromISR+0x12>

87802c84 <xQueueIsQueueFullFromISR>:
87802c84:	b508      	push	{r3, lr}
87802c86:	b130      	cbz	r0, 87802c96 <xQueueIsQueueFullFromISR+0x12>
87802c88:	6b83      	ldr	r3, [r0, #56]	; 0x38
87802c8a:	6bc0      	ldr	r0, [r0, #60]	; 0x3c
87802c8c:	1ac0      	subs	r0, r0, r3
87802c8e:	fab0 f080 	clz	r0, r0
87802c92:	0940      	lsrs	r0, r0, #5
87802c94:	bd08      	pop	{r3, pc}
87802c96:	f002 f821 	bl	87804cdc <ulPortSetInterruptMask>
87802c9a:	e7fe      	b.n	87802c9a <xQueueIsQueueFullFromISR+0x16>

87802c9c <vQueueAddToRegistry>:
87802c9c:	f64b 5240 	movw	r2, #48448	; 0xbd40
87802ca0:	2300      	movs	r3, #0
87802ca2:	f6c8 0201 	movt	r2, #34817	; 0x8801
87802ca6:	b430      	push	{r4, r5}
87802ca8:	f852 4033 	ldr.w	r4, [r2, r3, lsl #3]
87802cac:	eb02 05c3 	add.w	r5, r2, r3, lsl #3
87802cb0:	b124      	cbz	r4, 87802cbc <vQueueAddToRegistry+0x20>
87802cb2:	3301      	adds	r3, #1
87802cb4:	2b08      	cmp	r3, #8
87802cb6:	d1f7      	bne.n	87802ca8 <vQueueAddToRegistry+0xc>
87802cb8:	bc30      	pop	{r4, r5}
87802cba:	4770      	bx	lr
87802cbc:	6068      	str	r0, [r5, #4]
87802cbe:	f842 1033 	str.w	r1, [r2, r3, lsl #3]
87802cc2:	bc30      	pop	{r4, r5}
87802cc4:	4770      	bx	lr
87802cc6:	bf00      	nop

87802cc8 <pcQueueGetName>:
87802cc8:	b410      	push	{r4}
87802cca:	f64b 5440 	movw	r4, #48448	; 0xbd40
87802cce:	f6c8 0401 	movt	r4, #34817	; 0x8801
87802cd2:	2200      	movs	r2, #0
87802cd4:	4623      	mov	r3, r4
87802cd6:	6859      	ldr	r1, [r3, #4]
87802cd8:	3308      	adds	r3, #8
87802cda:	4281      	cmp	r1, r0
87802cdc:	d006      	beq.n	87802cec <pcQueueGetName+0x24>
87802cde:	3201      	adds	r2, #1
87802ce0:	2a08      	cmp	r2, #8
87802ce2:	d1f8      	bne.n	87802cd6 <pcQueueGetName+0xe>
87802ce4:	2000      	movs	r0, #0
87802ce6:	f85d 4b04 	ldr.w	r4, [sp], #4
87802cea:	4770      	bx	lr
87802cec:	f854 0032 	ldr.w	r0, [r4, r2, lsl #3]
87802cf0:	f85d 4b04 	ldr.w	r4, [sp], #4
87802cf4:	4770      	bx	lr
87802cf6:	bf00      	nop

87802cf8 <vQueueUnregisterQueue>:
87802cf8:	b410      	push	{r4}
87802cfa:	f64b 5440 	movw	r4, #48448	; 0xbd40
87802cfe:	f6c8 0401 	movt	r4, #34817	; 0x8801
87802d02:	2200      	movs	r2, #0
87802d04:	4623      	mov	r3, r4
87802d06:	6859      	ldr	r1, [r3, #4]
87802d08:	3308      	adds	r3, #8
87802d0a:	4281      	cmp	r1, r0
87802d0c:	d005      	beq.n	87802d1a <vQueueUnregisterQueue+0x22>
87802d0e:	3201      	adds	r2, #1
87802d10:	2a08      	cmp	r2, #8
87802d12:	d1f8      	bne.n	87802d06 <vQueueUnregisterQueue+0xe>
87802d14:	f85d 4b04 	ldr.w	r4, [sp], #4
87802d18:	4770      	bx	lr
87802d1a:	eb04 01c2 	add.w	r1, r4, r2, lsl #3
87802d1e:	2300      	movs	r3, #0
87802d20:	f844 3032 	str.w	r3, [r4, r2, lsl #3]
87802d24:	604b      	str	r3, [r1, #4]
87802d26:	f85d 4b04 	ldr.w	r4, [sp], #4
87802d2a:	4770      	bx	lr

87802d2c <vQueueWaitForMessageRestricted>:
87802d2c:	b570      	push	{r4, r5, r6, lr}
87802d2e:	4604      	mov	r4, r0
87802d30:	460d      	mov	r5, r1
87802d32:	4616      	mov	r6, r2
87802d34:	f001 ff50 	bl	87804bd8 <vPortEnterCritical>
87802d38:	f894 3044 	ldrb.w	r3, [r4, #68]	; 0x44
87802d3c:	2bff      	cmp	r3, #255	; 0xff
87802d3e:	bf04      	itt	eq
87802d40:	2300      	moveq	r3, #0
87802d42:	f884 3044 	strbeq.w	r3, [r4, #68]	; 0x44
87802d46:	f894 3045 	ldrb.w	r3, [r4, #69]	; 0x45
87802d4a:	2bff      	cmp	r3, #255	; 0xff
87802d4c:	bf04      	itt	eq
87802d4e:	2300      	moveq	r3, #0
87802d50:	f884 3045 	strbeq.w	r3, [r4, #69]	; 0x45
87802d54:	f001 ff82 	bl	87804c5c <vPortExitCritical>
87802d58:	6ba3      	ldr	r3, [r4, #56]	; 0x38
87802d5a:	b92b      	cbnz	r3, 87802d68 <vQueueWaitForMessageRestricted+0x3c>
87802d5c:	4632      	mov	r2, r6
87802d5e:	4629      	mov	r1, r5
87802d60:	f104 0024 	add.w	r0, r4, #36	; 0x24
87802d64:	f000 ff10 	bl	87803b88 <vTaskPlaceOnEventListRestricted>
87802d68:	4620      	mov	r0, r4
87802d6a:	e8bd 4070 	ldmia.w	sp!, {r4, r5, r6, lr}
87802d6e:	f7ff bbd1 	b.w	87802514 <prvUnlockQueue>
87802d72:	bf00      	nop

87802d74 <vListInitialise>:
87802d74:	f100 0308 	add.w	r3, r0, #8
87802d78:	f04f 31ff 	mov.w	r1, #4294967295	; 0xffffffff
87802d7c:	2200      	movs	r2, #0
87802d7e:	6081      	str	r1, [r0, #8]
87802d80:	e880 000c 	stmia.w	r0, {r2, r3}
87802d84:	60c3      	str	r3, [r0, #12]
87802d86:	6103      	str	r3, [r0, #16]
87802d88:	4770      	bx	lr
87802d8a:	bf00      	nop

87802d8c <vListInitialiseItem>:
87802d8c:	2300      	movs	r3, #0
87802d8e:	6103      	str	r3, [r0, #16]
87802d90:	4770      	bx	lr
87802d92:	bf00      	nop

87802d94 <vListInsertEnd>:
87802d94:	e890 000c 	ldmia.w	r0, {r2, r3}
87802d98:	b410      	push	{r4}
87802d9a:	3201      	adds	r2, #1
87802d9c:	689c      	ldr	r4, [r3, #8]
87802d9e:	604b      	str	r3, [r1, #4]
87802da0:	608c      	str	r4, [r1, #8]
87802da2:	689c      	ldr	r4, [r3, #8]
87802da4:	6061      	str	r1, [r4, #4]
87802da6:	6099      	str	r1, [r3, #8]
87802da8:	f85d 4b04 	ldr.w	r4, [sp], #4
87802dac:	6108      	str	r0, [r1, #16]
87802dae:	6002      	str	r2, [r0, #0]
87802db0:	4770      	bx	lr
87802db2:	bf00      	nop

87802db4 <vListInsert>:
87802db4:	b430      	push	{r4, r5}
87802db6:	680d      	ldr	r5, [r1, #0]
87802db8:	1c6b      	adds	r3, r5, #1
87802dba:	bf18      	it	ne
87802dbc:	f100 0208 	addne.w	r2, r0, #8
87802dc0:	d101      	bne.n	87802dc6 <vListInsert+0x12>
87802dc2:	e00e      	b.n	87802de2 <vListInsert+0x2e>
87802dc4:	461a      	mov	r2, r3
87802dc6:	6853      	ldr	r3, [r2, #4]
87802dc8:	681c      	ldr	r4, [r3, #0]
87802dca:	42a5      	cmp	r5, r4
87802dcc:	d2fa      	bcs.n	87802dc4 <vListInsert+0x10>
87802dce:	6804      	ldr	r4, [r0, #0]
87802dd0:	604b      	str	r3, [r1, #4]
87802dd2:	6099      	str	r1, [r3, #8]
87802dd4:	3401      	adds	r4, #1
87802dd6:	608a      	str	r2, [r1, #8]
87802dd8:	6051      	str	r1, [r2, #4]
87802dda:	6108      	str	r0, [r1, #16]
87802ddc:	6004      	str	r4, [r0, #0]
87802dde:	bc30      	pop	{r4, r5}
87802de0:	4770      	bx	lr
87802de2:	6902      	ldr	r2, [r0, #16]
87802de4:	6853      	ldr	r3, [r2, #4]
87802de6:	e7f2      	b.n	87802dce <vListInsert+0x1a>

87802de8 <uxListRemove>:
87802de8:	6902      	ldr	r2, [r0, #16]
87802dea:	6843      	ldr	r3, [r0, #4]
87802dec:	6881      	ldr	r1, [r0, #8]
87802dee:	b410      	push	{r4}
87802df0:	6854      	ldr	r4, [r2, #4]
87802df2:	6099      	str	r1, [r3, #8]
87802df4:	6881      	ldr	r1, [r0, #8]
87802df6:	42a0      	cmp	r0, r4
87802df8:	f85d 4b04 	ldr.w	r4, [sp], #4
87802dfc:	604b      	str	r3, [r1, #4]
87802dfe:	6813      	ldr	r3, [r2, #0]
87802e00:	bf08      	it	eq
87802e02:	6051      	streq	r1, [r2, #4]
87802e04:	2100      	movs	r1, #0
87802e06:	6101      	str	r1, [r0, #16]
87802e08:	1e58      	subs	r0, r3, #1
87802e0a:	6010      	str	r0, [r2, #0]
87802e0c:	4770      	bx	lr
87802e0e:	bf00      	nop

87802e10 <xEventGroupCreate>:
87802e10:	b510      	push	{r4, lr}
87802e12:	201c      	movs	r0, #28
87802e14:	f002 f804 	bl	87804e20 <pvPortMalloc>
87802e18:	4604      	mov	r4, r0
87802e1a:	b120      	cbz	r0, 87802e26 <xEventGroupCreate+0x16>
87802e1c:	2300      	movs	r3, #0
87802e1e:	f840 3b04 	str.w	r3, [r0], #4
87802e22:	f7ff ffa7 	bl	87802d74 <vListInitialise>
87802e26:	4620      	mov	r0, r4
87802e28:	bd10      	pop	{r4, pc}
87802e2a:	bf00      	nop

87802e2c <xEventGroupWaitBits>:
87802e2c:	e92d 43f8 	stmdb	sp!, {r3, r4, r5, r6, r7, r8, r9, lr}
87802e30:	f8dd 8020 	ldr.w	r8, [sp, #32]
87802e34:	b340      	cbz	r0, 87802e88 <xEventGroupWaitBits+0x5c>
87802e36:	f011 4f7f 	tst.w	r1, #4278190080	; 0xff000000
87802e3a:	460d      	mov	r5, r1
87802e3c:	d121      	bne.n	87802e82 <xEventGroupWaitBits+0x56>
87802e3e:	b911      	cbnz	r1, 87802e46 <xEventGroupWaitBits+0x1a>
87802e40:	f001 ff4c 	bl	87804cdc <ulPortSetInterruptMask>
87802e44:	e7fe      	b.n	87802e44 <xEventGroupWaitBits+0x18>
87802e46:	4699      	mov	r9, r3
87802e48:	4617      	mov	r7, r2
87802e4a:	4606      	mov	r6, r0
87802e4c:	f001 f88e 	bl	87803f6c <xTaskGetSchedulerState>
87802e50:	1c03      	adds	r3, r0, #0
87802e52:	bf18      	it	ne
87802e54:	2301      	movne	r3, #1
87802e56:	f1b8 0f00 	cmp.w	r8, #0
87802e5a:	bf08      	it	eq
87802e5c:	f043 0301 	orreq.w	r3, r3, #1
87802e60:	b913      	cbnz	r3, 87802e68 <xEventGroupWaitBits+0x3c>
87802e62:	f001 ff3b 	bl	87804cdc <ulPortSetInterruptMask>
87802e66:	e7fe      	b.n	87802e66 <xEventGroupWaitBits+0x3a>
87802e68:	f000 fc42 	bl	878036f0 <vTaskSuspendAll>
87802e6c:	6834      	ldr	r4, [r6, #0]
87802e6e:	f1b9 0f00 	cmp.w	r9, #0
87802e72:	d10c      	bne.n	87802e8e <xEventGroupWaitBits+0x62>
87802e74:	4225      	tst	r5, r4
87802e76:	d00d      	beq.n	87802e94 <xEventGroupWaitBits+0x68>
87802e78:	b17f      	cbz	r7, 87802e9a <xEventGroupWaitBits+0x6e>
87802e7a:	ea24 0505 	bic.w	r5, r4, r5
87802e7e:	6035      	str	r5, [r6, #0]
87802e80:	e00b      	b.n	87802e9a <xEventGroupWaitBits+0x6e>
87802e82:	f001 ff2b 	bl	87804cdc <ulPortSetInterruptMask>
87802e86:	e7fe      	b.n	87802e86 <xEventGroupWaitBits+0x5a>
87802e88:	f001 ff28 	bl	87804cdc <ulPortSetInterruptMask>
87802e8c:	e7fe      	b.n	87802e8c <xEventGroupWaitBits+0x60>
87802e8e:	ea35 0304 	bics.w	r3, r5, r4
87802e92:	d0f1      	beq.n	87802e78 <xEventGroupWaitBits+0x4c>
87802e94:	f1b8 0f00 	cmp.w	r8, #0
87802e98:	d104      	bne.n	87802ea4 <xEventGroupWaitBits+0x78>
87802e9a:	f000 fccb 	bl	87803834 <xTaskResumeAll>
87802e9e:	4620      	mov	r0, r4
87802ea0:	e8bd 83f8 	ldmia.w	sp!, {r3, r4, r5, r6, r7, r8, r9, pc}
87802ea4:	2f00      	cmp	r7, #0
87802ea6:	bf0c      	ite	eq
87802ea8:	2100      	moveq	r1, #0
87802eaa:	f04f 7180 	movne.w	r1, #16777216	; 0x1000000
87802eae:	f1b9 0f00 	cmp.w	r9, #0
87802eb2:	d001      	beq.n	87802eb8 <xEventGroupWaitBits+0x8c>
87802eb4:	f041 6180 	orr.w	r1, r1, #67108864	; 0x4000000
87802eb8:	4642      	mov	r2, r8
87802eba:	4329      	orrs	r1, r5
87802ebc:	1d30      	adds	r0, r6, #4
87802ebe:	f000 fe43 	bl	87803b48 <vTaskPlaceOnUnorderedEventList>
87802ec2:	f000 fcb7 	bl	87803834 <xTaskResumeAll>
87802ec6:	b900      	cbnz	r0, 87802eca <xEventGroupWaitBits+0x9e>
87802ec8:	df00      	svc	0
87802eca:	f001 f8f5 	bl	878040b8 <uxTaskResetEventItemValue>
87802ece:	0183      	lsls	r3, r0, #6
87802ed0:	4604      	mov	r4, r0
87802ed2:	d503      	bpl.n	87802edc <xEventGroupWaitBits+0xb0>
87802ed4:	f024 407f 	bic.w	r0, r4, #4278190080	; 0xff000000
87802ed8:	e8bd 83f8 	ldmia.w	sp!, {r3, r4, r5, r6, r7, r8, r9, pc}
87802edc:	f001 fe7c 	bl	87804bd8 <vPortEnterCritical>
87802ee0:	6834      	ldr	r4, [r6, #0]
87802ee2:	f1b9 0f00 	cmp.w	r9, #0
87802ee6:	d108      	bne.n	87802efa <xEventGroupWaitBits+0xce>
87802ee8:	4225      	tst	r5, r4
87802eea:	d003      	beq.n	87802ef4 <xEventGroupWaitBits+0xc8>
87802eec:	b117      	cbz	r7, 87802ef4 <xEventGroupWaitBits+0xc8>
87802eee:	ea24 0505 	bic.w	r5, r4, r5
87802ef2:	6035      	str	r5, [r6, #0]
87802ef4:	f001 feb2 	bl	87804c5c <vPortExitCritical>
87802ef8:	e7ec      	b.n	87802ed4 <xEventGroupWaitBits+0xa8>
87802efa:	ea35 0304 	bics.w	r3, r5, r4
87802efe:	d1f9      	bne.n	87802ef4 <xEventGroupWaitBits+0xc8>
87802f00:	e7f4      	b.n	87802eec <xEventGroupWaitBits+0xc0>
87802f02:	bf00      	nop

87802f04 <xEventGroupClearBits>:
87802f04:	b570      	push	{r4, r5, r6, lr}
87802f06:	b188      	cbz	r0, 87802f2c <xEventGroupClearBits+0x28>
87802f08:	f011 4f7f 	tst.w	r1, #4278190080	; 0xff000000
87802f0c:	460c      	mov	r4, r1
87802f0e:	d002      	beq.n	87802f16 <xEventGroupClearBits+0x12>
87802f10:	f001 fee4 	bl	87804cdc <ulPortSetInterruptMask>
87802f14:	e7fe      	b.n	87802f14 <xEventGroupClearBits+0x10>
87802f16:	4605      	mov	r5, r0
87802f18:	f001 fe5e 	bl	87804bd8 <vPortEnterCritical>
87802f1c:	682e      	ldr	r6, [r5, #0]
87802f1e:	ea26 0404 	bic.w	r4, r6, r4
87802f22:	602c      	str	r4, [r5, #0]
87802f24:	f001 fe9a 	bl	87804c5c <vPortExitCritical>
87802f28:	4630      	mov	r0, r6
87802f2a:	bd70      	pop	{r4, r5, r6, pc}
87802f2c:	f001 fed6 	bl	87804cdc <ulPortSetInterruptMask>
87802f30:	e7fe      	b.n	87802f30 <xEventGroupClearBits+0x2c>
87802f32:	bf00      	nop

87802f34 <vEventGroupClearBitsCallback>:
87802f34:	f7ff bfe6 	b.w	87802f04 <xEventGroupClearBits>

87802f38 <xEventGroupClearBitsFromISR>:
87802f38:	460a      	mov	r2, r1
87802f3a:	4601      	mov	r1, r0
87802f3c:	f642 7035 	movw	r0, #12085	; 0x2f35
87802f40:	2300      	movs	r3, #0
87802f42:	f2c8 7080 	movt	r0, #34688	; 0x8780
87802f46:	f001 bc9b 	b.w	87804880 <xTimerPendFunctionCallFromISR>
87802f4a:	bf00      	nop

87802f4c <xEventGroupGetBitsFromISR>:
87802f4c:	b510      	push	{r4, lr}
87802f4e:	4604      	mov	r4, r0
87802f50:	f001 fec4 	bl	87804cdc <ulPortSetInterruptMask>
87802f54:	6824      	ldr	r4, [r4, #0]
87802f56:	f001 feab 	bl	87804cb0 <vPortClearInterruptMask>
87802f5a:	4620      	mov	r0, r4
87802f5c:	bd10      	pop	{r4, pc}
87802f5e:	bf00      	nop

87802f60 <xEventGroupSetBits>:
87802f60:	b5f8      	push	{r3, r4, r5, r6, r7, lr}
87802f62:	b3a8      	cbz	r0, 87802fd0 <xEventGroupSetBits+0x70>
87802f64:	f011 467f 	ands.w	r6, r1, #4278190080	; 0xff000000
87802f68:	460c      	mov	r4, r1
87802f6a:	d002      	beq.n	87802f72 <xEventGroupSetBits+0x12>
87802f6c:	f001 feb6 	bl	87804cdc <ulPortSetInterruptMask>
87802f70:	e7fe      	b.n	87802f70 <xEventGroupSetBits+0x10>
87802f72:	4605      	mov	r5, r0
87802f74:	f000 fbbc 	bl	878036f0 <vTaskSuspendAll>
87802f78:	6928      	ldr	r0, [r5, #16]
87802f7a:	f105 070c 	add.w	r7, r5, #12
87802f7e:	6829      	ldr	r1, [r5, #0]
87802f80:	4287      	cmp	r7, r0
87802f82:	ea41 0104 	orr.w	r1, r1, r4
87802f86:	6029      	str	r1, [r5, #0]
87802f88:	d025      	beq.n	87802fd6 <xEventGroupSetBits+0x76>
87802f8a:	4634      	mov	r4, r6
87802f8c:	e00c      	b.n	87802fa8 <xEventGroupSetBits+0x48>
87802f8e:	420a      	tst	r2, r1
87802f90:	d007      	beq.n	87802fa2 <xEventGroupSetBits+0x42>
87802f92:	01db      	lsls	r3, r3, #7
87802f94:	f041 7100 	orr.w	r1, r1, #33554432	; 0x2000000
87802f98:	bf48      	it	mi
87802f9a:	4314      	orrmi	r4, r2
87802f9c:	f000 fe44 	bl	87803c28 <xTaskRemoveFromUnorderedEventList>
87802fa0:	6829      	ldr	r1, [r5, #0]
87802fa2:	42b7      	cmp	r7, r6
87802fa4:	4630      	mov	r0, r6
87802fa6:	d00c      	beq.n	87802fc2 <xEventGroupSetBits+0x62>
87802fa8:	e890 0048 	ldmia.w	r0, {r3, r6}
87802fac:	f013 6f80 	tst.w	r3, #67108864	; 0x4000000
87802fb0:	f023 427f 	bic.w	r2, r3, #4278190080	; 0xff000000
87802fb4:	d0eb      	beq.n	87802f8e <xEventGroupSetBits+0x2e>
87802fb6:	ea32 0e01 	bics.w	lr, r2, r1
87802fba:	d0ea      	beq.n	87802f92 <xEventGroupSetBits+0x32>
87802fbc:	42b7      	cmp	r7, r6
87802fbe:	4630      	mov	r0, r6
87802fc0:	d1f2      	bne.n	87802fa8 <xEventGroupSetBits+0x48>
87802fc2:	43e4      	mvns	r4, r4
87802fc4:	4021      	ands	r1, r4
87802fc6:	6029      	str	r1, [r5, #0]
87802fc8:	f000 fc34 	bl	87803834 <xTaskResumeAll>
87802fcc:	6828      	ldr	r0, [r5, #0]
87802fce:	bdf8      	pop	{r3, r4, r5, r6, r7, pc}
87802fd0:	f001 fe84 	bl	87804cdc <ulPortSetInterruptMask>
87802fd4:	e7fe      	b.n	87802fd4 <xEventGroupSetBits+0x74>
87802fd6:	f04f 34ff 	mov.w	r4, #4294967295	; 0xffffffff
87802fda:	e7f3      	b.n	87802fc4 <xEventGroupSetBits+0x64>

87802fdc <xEventGroupSync>:
87802fdc:	f012 4f7f 	tst.w	r2, #4278190080	; 0xff000000
87802fe0:	e92d 41f0 	stmdb	sp!, {r4, r5, r6, r7, r8, lr}
87802fe4:	d123      	bne.n	8780302e <xEventGroupSync+0x52>
87802fe6:	4615      	mov	r5, r2
87802fe8:	b912      	cbnz	r2, 87802ff0 <xEventGroupSync+0x14>
87802fea:	f001 fe77 	bl	87804cdc <ulPortSetInterruptMask>
87802fee:	e7fe      	b.n	87802fee <xEventGroupSync+0x12>
87802ff0:	461f      	mov	r7, r3
87802ff2:	4688      	mov	r8, r1
87802ff4:	4606      	mov	r6, r0
87802ff6:	f000 ffb9 	bl	87803f6c <xTaskGetSchedulerState>
87802ffa:	fab7 f187 	clz	r1, r7
87802ffe:	0949      	lsrs	r1, r1, #5
87803000:	2800      	cmp	r0, #0
87803002:	bf18      	it	ne
87803004:	f041 0101 	orrne.w	r1, r1, #1
87803008:	b911      	cbnz	r1, 87803010 <xEventGroupSync+0x34>
8780300a:	f001 fe67 	bl	87804cdc <ulPortSetInterruptMask>
8780300e:	e7fe      	b.n	8780300e <xEventGroupSync+0x32>
87803010:	f000 fb6e 	bl	878036f0 <vTaskSuspendAll>
87803014:	6834      	ldr	r4, [r6, #0]
87803016:	4641      	mov	r1, r8
87803018:	4630      	mov	r0, r6
8780301a:	f7ff ffa1 	bl	87802f60 <xEventGroupSetBits>
8780301e:	ea44 0408 	orr.w	r4, r4, r8
87803022:	ea35 0304 	bics.w	r3, r5, r4
87803026:	d005      	beq.n	87803034 <xEventGroupSync+0x58>
87803028:	b96f      	cbnz	r7, 87803046 <xEventGroupSync+0x6a>
8780302a:	6834      	ldr	r4, [r6, #0]
8780302c:	e006      	b.n	8780303c <xEventGroupSync+0x60>
8780302e:	f001 fe55 	bl	87804cdc <ulPortSetInterruptMask>
87803032:	e7fe      	b.n	87803032 <xEventGroupSync+0x56>
87803034:	6833      	ldr	r3, [r6, #0]
87803036:	ea23 0305 	bic.w	r3, r3, r5
8780303a:	6033      	str	r3, [r6, #0]
8780303c:	f000 fbfa 	bl	87803834 <xTaskResumeAll>
87803040:	4620      	mov	r0, r4
87803042:	e8bd 81f0 	ldmia.w	sp!, {r4, r5, r6, r7, r8, pc}
87803046:	463a      	mov	r2, r7
87803048:	f045 61a0 	orr.w	r1, r5, #83886080	; 0x5000000
8780304c:	1d30      	adds	r0, r6, #4
8780304e:	f000 fd7b 	bl	87803b48 <vTaskPlaceOnUnorderedEventList>
87803052:	f000 fbef 	bl	87803834 <xTaskResumeAll>
87803056:	b900      	cbnz	r0, 8780305a <xEventGroupSync+0x7e>
87803058:	df00      	svc	0
8780305a:	f001 f82d 	bl	878040b8 <uxTaskResetEventItemValue>
8780305e:	0183      	lsls	r3, r0, #6
87803060:	4604      	mov	r4, r0
87803062:	d40a      	bmi.n	8780307a <xEventGroupSync+0x9e>
87803064:	f001 fdb8 	bl	87804bd8 <vPortEnterCritical>
87803068:	6834      	ldr	r4, [r6, #0]
8780306a:	ea35 0304 	bics.w	r3, r5, r4
8780306e:	bf04      	itt	eq
87803070:	ea24 0505 	biceq.w	r5, r4, r5
87803074:	6035      	streq	r5, [r6, #0]
87803076:	f001 fdf1 	bl	87804c5c <vPortExitCritical>
8780307a:	f024 447f 	bic.w	r4, r4, #4278190080	; 0xff000000
8780307e:	e7df      	b.n	87803040 <xEventGroupSync+0x64>

87803080 <vEventGroupSetBitsCallback>:
87803080:	f7ff bf6e 	b.w	87802f60 <xEventGroupSetBits>

87803084 <vEventGroupDelete>:
87803084:	b538      	push	{r3, r4, r5, lr}
87803086:	4604      	mov	r4, r0
87803088:	f000 fb32 	bl	878036f0 <vTaskSuspendAll>
8780308c:	6863      	ldr	r3, [r4, #4]
8780308e:	b17b      	cbz	r3, 878030b0 <vEventGroupDelete+0x2c>
87803090:	6920      	ldr	r0, [r4, #16]
87803092:	f104 050c 	add.w	r5, r4, #12
87803096:	42a8      	cmp	r0, r5
87803098:	d103      	bne.n	878030a2 <vEventGroupDelete+0x1e>
8780309a:	e010      	b.n	878030be <vEventGroupDelete+0x3a>
8780309c:	6920      	ldr	r0, [r4, #16]
8780309e:	42a8      	cmp	r0, r5
878030a0:	d00d      	beq.n	878030be <vEventGroupDelete+0x3a>
878030a2:	f04f 7100 	mov.w	r1, #33554432	; 0x2000000
878030a6:	f000 fdbf 	bl	87803c28 <xTaskRemoveFromUnorderedEventList>
878030aa:	6863      	ldr	r3, [r4, #4]
878030ac:	2b00      	cmp	r3, #0
878030ae:	d1f5      	bne.n	8780309c <vEventGroupDelete+0x18>
878030b0:	4620      	mov	r0, r4
878030b2:	f001 ff41 	bl	87804f38 <vPortFree>
878030b6:	e8bd 4038 	ldmia.w	sp!, {r3, r4, r5, lr}
878030ba:	f000 bbbb 	b.w	87803834 <xTaskResumeAll>
878030be:	f001 fe0d 	bl	87804cdc <ulPortSetInterruptMask>
878030c2:	e7fe      	b.n	878030c2 <vEventGroupDelete+0x3e>

878030c4 <xEventGroupSetBitsFromISR>:
878030c4:	4613      	mov	r3, r2
878030c6:	460a      	mov	r2, r1
878030c8:	4601      	mov	r1, r0
878030ca:	f243 0081 	movw	r0, #12417	; 0x3081
878030ce:	f2c8 7080 	movt	r0, #34688	; 0x8780
878030d2:	f001 bbd5 	b.w	87804880 <xTimerPendFunctionCallFromISR>
878030d6:	bf00      	nop

878030d8 <uxEventGroupGetNumber>:
878030d8:	b100      	cbz	r0, 878030dc <uxEventGroupGetNumber+0x4>
878030da:	6980      	ldr	r0, [r0, #24]
878030dc:	4770      	bx	lr
878030de:	bf00      	nop

878030e0 <prvAddCurrentTaskToDelayedList>:
878030e0:	b5f8      	push	{r3, r4, r5, r6, r7, lr}
878030e2:	f641 6488 	movw	r4, #7816	; 0x1e88
878030e6:	f6c8 0400 	movt	r4, #34816	; 0x8800
878030ea:	4606      	mov	r6, r0
878030ec:	460f      	mov	r7, r1
878030ee:	6825      	ldr	r5, [r4, #0]
878030f0:	6860      	ldr	r0, [r4, #4]
878030f2:	3004      	adds	r0, #4
878030f4:	f7ff fe78 	bl	87802de8 <uxListRemove>
878030f8:	b938      	cbnz	r0, 8780310a <prvAddCurrentTaskToDelayedList+0x2a>
878030fa:	6861      	ldr	r1, [r4, #4]
878030fc:	2201      	movs	r2, #1
878030fe:	68a3      	ldr	r3, [r4, #8]
87803100:	6ac9      	ldr	r1, [r1, #44]	; 0x2c
87803102:	408a      	lsls	r2, r1
87803104:	ea23 0302 	bic.w	r3, r3, r2
87803108:	60a3      	str	r3, [r4, #8]
8780310a:	f1a6 33ff 	sub.w	r3, r6, #4294967295	; 0xffffffff
8780310e:	2f00      	cmp	r7, #0
87803110:	fab3 f383 	clz	r3, r3
87803114:	ea4f 1353 	mov.w	r3, r3, lsr #5
87803118:	bf08      	it	eq
8780311a:	2300      	moveq	r3, #0
8780311c:	b9a3      	cbnz	r3, 87803148 <prvAddCurrentTaskToDelayedList+0x68>
8780311e:	6863      	ldr	r3, [r4, #4]
87803120:	19ad      	adds	r5, r5, r6
87803122:	605d      	str	r5, [r3, #4]
87803124:	d209      	bcs.n	8780313a <prvAddCurrentTaskToDelayedList+0x5a>
87803126:	6a60      	ldr	r0, [r4, #36]	; 0x24
87803128:	6861      	ldr	r1, [r4, #4]
8780312a:	3104      	adds	r1, #4
8780312c:	f7ff fe42 	bl	87802db4 <vListInsert>
87803130:	6aa3      	ldr	r3, [r4, #40]	; 0x28
87803132:	429d      	cmp	r5, r3
87803134:	bf38      	it	cc
87803136:	62a5      	strcc	r5, [r4, #40]	; 0x28
87803138:	bdf8      	pop	{r3, r4, r5, r6, r7, pc}
8780313a:	6a20      	ldr	r0, [r4, #32]
8780313c:	6861      	ldr	r1, [r4, #4]
8780313e:	e8bd 40f8 	ldmia.w	sp!, {r3, r4, r5, r6, r7, lr}
87803142:	3104      	adds	r1, #4
87803144:	f7ff be36 	b.w	87802db4 <vListInsert>
87803148:	6861      	ldr	r1, [r4, #4]
8780314a:	4803      	ldr	r0, [pc, #12]	; (87803158 <prvAddCurrentTaskToDelayedList+0x78>)
8780314c:	e8bd 40f8 	ldmia.w	sp!, {r3, r4, r5, r6, r7, lr}
87803150:	3104      	adds	r1, #4
87803152:	f7ff be1f 	b.w	87802d94 <vListInsertEnd>
87803156:	bf00      	nop
87803158:	88001e94 	stmdahi	r0, {r2, r4, r7, r9, sl, fp, ip}

8780315c <prvResetNextTaskUnblockTime.part.0>:
8780315c:	f641 6388 	movw	r3, #7816	; 0x1e88
87803160:	f6c8 0300 	movt	r3, #34816	; 0x8800
87803164:	6a5a      	ldr	r2, [r3, #36]	; 0x24
87803166:	68d2      	ldr	r2, [r2, #12]
87803168:	68d2      	ldr	r2, [r2, #12]
8780316a:	6852      	ldr	r2, [r2, #4]
8780316c:	629a      	str	r2, [r3, #40]	; 0x28
8780316e:	4770      	bx	lr

87803170 <prvTaskIsTaskSuspended>:
87803170:	b508      	push	{r3, lr}
87803172:	b170      	cbz	r0, 87803192 <prvTaskIsTaskSuspended+0x22>
87803174:	4a08      	ldr	r2, [pc, #32]	; (87803198 <prvTaskIsTaskSuspended+0x28>)
87803176:	6943      	ldr	r3, [r0, #20]
87803178:	4293      	cmp	r3, r2
8780317a:	d001      	beq.n	87803180 <prvTaskIsTaskSuspended+0x10>
8780317c:	2000      	movs	r0, #0
8780317e:	bd08      	pop	{r3, pc}
87803180:	6a82      	ldr	r2, [r0, #40]	; 0x28
87803182:	3320      	adds	r3, #32
87803184:	1ad0      	subs	r0, r2, r3
87803186:	bf18      	it	ne
87803188:	2001      	movne	r0, #1
8780318a:	2a00      	cmp	r2, #0
8780318c:	bf18      	it	ne
8780318e:	2000      	movne	r0, #0
87803190:	bd08      	pop	{r3, pc}
87803192:	f001 fda3 	bl	87804cdc <ulPortSetInterruptMask>
87803196:	e7fe      	b.n	87803196 <prvTaskIsTaskSuspended+0x26>
87803198:	88001e94 	stmdahi	r0, {r2, r4, r7, r9, sl, fp, ip}

8780319c <xTaskCreate>:
8780319c:	e92d 4ff8 	stmdb	sp!, {r3, r4, r5, r6, r7, r8, r9, sl, fp, lr}
878031a0:	ea4f 0982 	mov.w	r9, r2, lsl #2
878031a4:	4607      	mov	r7, r0
878031a6:	9e0b      	ldr	r6, [sp, #44]	; 0x2c
878031a8:	4648      	mov	r0, r9
878031aa:	460d      	mov	r5, r1
878031ac:	4698      	mov	r8, r3
878031ae:	f001 fe37 	bl	87804e20 <pvPortMalloc>
878031b2:	2800      	cmp	r0, #0
878031b4:	f000 808e 	beq.w	878032d4 <xTaskCreate+0x138>
878031b8:	4682      	mov	sl, r0
878031ba:	2078      	movs	r0, #120	; 0x78
878031bc:	f001 fe30 	bl	87804e20 <pvPortMalloc>
878031c0:	4604      	mov	r4, r0
878031c2:	2800      	cmp	r0, #0
878031c4:	f000 80b1 	beq.w	8780332a <xTaskCreate+0x18e>
878031c8:	464a      	mov	r2, r9
878031ca:	f8c0 a030 	str.w	sl, [r0, #48]	; 0x30
878031ce:	21a5      	movs	r1, #165	; 0xa5
878031d0:	4650      	mov	r0, sl
878031d2:	f002 f947 	bl	87805464 <memset>
878031d6:	6b22      	ldr	r2, [r4, #48]	; 0x30
878031d8:	f1a9 0904 	sub.w	r9, r9, #4
878031dc:	1e6b      	subs	r3, r5, #1
878031de:	f105 0113 	add.w	r1, r5, #19
878031e2:	f104 0533 	add.w	r5, r4, #51	; 0x33
878031e6:	4491      	add	r9, r2
878031e8:	f029 0907 	bic.w	r9, r9, #7
878031ec:	f8c4 9048 	str.w	r9, [r4, #72]	; 0x48
878031f0:	785a      	ldrb	r2, [r3, #1]
878031f2:	f805 2f01 	strb.w	r2, [r5, #1]!
878031f6:	f813 2f01 	ldrb.w	r2, [r3, #1]!
878031fa:	b10a      	cbz	r2, 87803200 <xTaskCreate+0x64>
878031fc:	428b      	cmp	r3, r1
878031fe:	d1f7      	bne.n	878031f0 <xTaskCreate+0x54>
87803200:	9b0a      	ldr	r3, [sp, #40]	; 0x28
87803202:	2500      	movs	r5, #0
87803204:	f104 0a04 	add.w	sl, r4, #4
87803208:	f884 5047 	strb.w	r5, [r4, #71]	; 0x47
8780320c:	4650      	mov	r0, sl
8780320e:	65a5      	str	r5, [r4, #88]	; 0x58
87803210:	2b07      	cmp	r3, #7
87803212:	bf28      	it	cs
87803214:	2307      	movcs	r3, #7
87803216:	62e3      	str	r3, [r4, #44]	; 0x2c
87803218:	469b      	mov	fp, r3
8780321a:	6563      	str	r3, [r4, #84]	; 0x54
8780321c:	f7ff fdb6 	bl	87802d8c <vListInitialiseItem>
87803220:	f104 0018 	add.w	r0, r4, #24
87803224:	f7ff fdb2 	bl	87802d8c <vListInitialiseItem>
87803228:	f1cb 0308 	rsb	r3, fp, #8
8780322c:	6725      	str	r5, [r4, #112]	; 0x70
8780322e:	61a3      	str	r3, [r4, #24]
87803230:	4642      	mov	r2, r8
87803232:	65e5      	str	r5, [r4, #92]	; 0x5c
87803234:	4639      	mov	r1, r7
87803236:	6625      	str	r5, [r4, #96]	; 0x60
87803238:	4648      	mov	r0, r9
8780323a:	6665      	str	r5, [r4, #100]	; 0x64
8780323c:	66a5      	str	r5, [r4, #104]	; 0x68
8780323e:	66e5      	str	r5, [r4, #108]	; 0x6c
87803240:	f884 5074 	strb.w	r5, [r4, #116]	; 0x74
87803244:	6124      	str	r4, [r4, #16]
87803246:	6264      	str	r4, [r4, #36]	; 0x24
87803248:	f001 fbba 	bl	878049c0 <pxPortInitialiseStack>
8780324c:	6020      	str	r0, [r4, #0]
8780324e:	b106      	cbz	r6, 87803252 <xTaskCreate+0xb6>
87803250:	6034      	str	r4, [r6, #0]
87803252:	f641 6588 	movw	r5, #7816	; 0x1e88
87803256:	f6c8 0500 	movt	r5, #34816	; 0x8800
8780325a:	f001 fcbd 	bl	87804bd8 <vPortEnterCritical>
8780325e:	6c2b      	ldr	r3, [r5, #64]	; 0x40
87803260:	3301      	adds	r3, #1
87803262:	642b      	str	r3, [r5, #64]	; 0x40
87803264:	686b      	ldr	r3, [r5, #4]
87803266:	2b00      	cmp	r3, #0
87803268:	d038      	beq.n	878032dc <xTaskCreate+0x140>
8780326a:	f8d5 3120 	ldr.w	r3, [r5, #288]	; 0x120
8780326e:	b343      	cbz	r3, 878032c2 <xTaskCreate+0x126>
87803270:	6ae3      	ldr	r3, [r4, #44]	; 0x2c
87803272:	f105 0844 	add.w	r8, r5, #68	; 0x44
87803276:	f8d5 2124 	ldr.w	r2, [r5, #292]	; 0x124
8780327a:	2601      	movs	r6, #1
8780327c:	f8d5 e008 	ldr.w	lr, [r5, #8]
87803280:	fa06 f703 	lsl.w	r7, r6, r3
87803284:	eb03 0383 	add.w	r3, r3, r3, lsl #2
87803288:	4651      	mov	r1, sl
8780328a:	4432      	add	r2, r6
8780328c:	eb08 0083 	add.w	r0, r8, r3, lsl #2
87803290:	ea47 070e 	orr.w	r7, r7, lr
87803294:	64e2      	str	r2, [r4, #76]	; 0x4c
87803296:	f8c5 2124 	str.w	r2, [r5, #292]	; 0x124
8780329a:	60af      	str	r7, [r5, #8]
8780329c:	f7ff fd7a 	bl	87802d94 <vListInsertEnd>
878032a0:	f001 fcdc 	bl	87804c5c <vPortExitCritical>
878032a4:	f8d5 3120 	ldr.w	r3, [r5, #288]	; 0x120
878032a8:	b143      	cbz	r3, 878032bc <xTaskCreate+0x120>
878032aa:	686a      	ldr	r2, [r5, #4]
878032ac:	6ae3      	ldr	r3, [r4, #44]	; 0x2c
878032ae:	6ad2      	ldr	r2, [r2, #44]	; 0x2c
878032b0:	429a      	cmp	r2, r3
878032b2:	d203      	bcs.n	878032bc <xTaskCreate+0x120>
878032b4:	df00      	svc	0
878032b6:	4630      	mov	r0, r6
878032b8:	e8bd 8ff8 	ldmia.w	sp!, {r3, r4, r5, r6, r7, r8, r9, sl, fp, pc}
878032bc:	4630      	mov	r0, r6
878032be:	e8bd 8ff8 	ldmia.w	sp!, {r3, r4, r5, r6, r7, r8, r9, sl, fp, pc}
878032c2:	686a      	ldr	r2, [r5, #4]
878032c4:	f105 0844 	add.w	r8, r5, #68	; 0x44
878032c8:	6ae3      	ldr	r3, [r4, #44]	; 0x2c
878032ca:	6ad2      	ldr	r2, [r2, #44]	; 0x2c
878032cc:	429a      	cmp	r2, r3
878032ce:	bf98      	it	ls
878032d0:	606c      	strls	r4, [r5, #4]
878032d2:	e7d0      	b.n	87803276 <xTaskCreate+0xda>
878032d4:	f04f 30ff 	mov.w	r0, #4294967295	; 0xffffffff
878032d8:	e8bd 8ff8 	ldmia.w	sp!, {r3, r4, r5, r6, r7, r8, r9, sl, fp, pc}
878032dc:	606c      	str	r4, [r5, #4]
878032de:	6c2b      	ldr	r3, [r5, #64]	; 0x40
878032e0:	2b01      	cmp	r3, #1
878032e2:	d1c5      	bne.n	87803270 <xTaskCreate+0xd4>
878032e4:	f105 0844 	add.w	r8, r5, #68	; 0x44
878032e8:	f105 07e4 	add.w	r7, r5, #228	; 0xe4
878032ec:	4646      	mov	r6, r8
878032ee:	4630      	mov	r0, r6
878032f0:	3614      	adds	r6, #20
878032f2:	f7ff fd3f 	bl	87802d74 <vListInitialise>
878032f6:	42b7      	cmp	r7, r6
878032f8:	d1f9      	bne.n	878032ee <xTaskCreate+0x152>
878032fa:	4e0f      	ldr	r6, [pc, #60]	; (87803338 <xTaskCreate+0x19c>)
878032fc:	f1a6 0014 	sub.w	r0, r6, #20
87803300:	f7ff fd38 	bl	87802d74 <vListInitialise>
87803304:	4630      	mov	r0, r6
87803306:	f7ff fd35 	bl	87802d74 <vListInitialise>
8780330a:	f1a6 00cc 	sub.w	r0, r6, #204	; 0xcc
8780330e:	f7ff fd31 	bl	87802d74 <vListInitialise>
87803312:	f106 0014 	add.w	r0, r6, #20
87803316:	f7ff fd2d 	bl	87802d74 <vListInitialise>
8780331a:	f1a6 00ec 	sub.w	r0, r6, #236	; 0xec
8780331e:	f7ff fd29 	bl	87802d74 <vListInitialise>
87803322:	626f      	str	r7, [r5, #36]	; 0x24
87803324:	6ae3      	ldr	r3, [r4, #44]	; 0x2c
87803326:	622e      	str	r6, [r5, #32]
87803328:	e7a5      	b.n	87803276 <xTaskCreate+0xda>
8780332a:	4650      	mov	r0, sl
8780332c:	f001 fe04 	bl	87804f38 <vPortFree>
87803330:	f04f 30ff 	mov.w	r0, #4294967295	; 0xffffffff
87803334:	e8bd 8ff8 	ldmia.w	sp!, {r3, r4, r5, r6, r7, r8, r9, sl, fp, pc}
87803338:	88001f80 	stmdahi	r0, {r7, r8, r9, sl, fp, ip}

8780333c <vTaskDelete>:
8780333c:	b570      	push	{r4, r5, r6, lr}
8780333e:	4605      	mov	r5, r0
87803340:	f641 6488 	movw	r4, #7816	; 0x1e88
87803344:	f6c8 0400 	movt	r4, #34816	; 0x8800
87803348:	f001 fc46 	bl	87804bd8 <vPortEnterCritical>
8780334c:	2d00      	cmp	r5, #0
8780334e:	d041      	beq.n	878033d4 <vTaskDelete+0x98>
87803350:	1d2e      	adds	r6, r5, #4
87803352:	4630      	mov	r0, r6
87803354:	f7ff fd48 	bl	87802de8 <uxListRemove>
87803358:	b930      	cbnz	r0, 87803368 <vTaskDelete+0x2c>
8780335a:	6ae9      	ldr	r1, [r5, #44]	; 0x2c
8780335c:	eb01 0381 	add.w	r3, r1, r1, lsl #2
87803360:	eb04 0383 	add.w	r3, r4, r3, lsl #2
87803364:	6c5b      	ldr	r3, [r3, #68]	; 0x44
87803366:	b34b      	cbz	r3, 878033bc <vTaskDelete+0x80>
87803368:	6aab      	ldr	r3, [r5, #40]	; 0x28
8780336a:	b11b      	cbz	r3, 87803374 <vTaskDelete+0x38>
8780336c:	f105 0018 	add.w	r0, r5, #24
87803370:	f7ff fd3a 	bl	87802de8 <uxListRemove>
87803374:	6862      	ldr	r2, [r4, #4]
87803376:	f8d4 3124 	ldr.w	r3, [r4, #292]	; 0x124
8780337a:	4295      	cmp	r5, r2
8780337c:	f103 0301 	add.w	r3, r3, #1
87803380:	f8c4 3124 	str.w	r3, [r4, #292]	; 0x124
87803384:	d028      	beq.n	878033d8 <vTaskDelete+0x9c>
87803386:	6c23      	ldr	r3, [r4, #64]	; 0x40
87803388:	6b28      	ldr	r0, [r5, #48]	; 0x30
8780338a:	3b01      	subs	r3, #1
8780338c:	6423      	str	r3, [r4, #64]	; 0x40
8780338e:	f001 fdd3 	bl	87804f38 <vPortFree>
87803392:	4628      	mov	r0, r5
87803394:	f001 fdd0 	bl	87804f38 <vPortFree>
87803398:	6a63      	ldr	r3, [r4, #36]	; 0x24
8780339a:	681b      	ldr	r3, [r3, #0]
8780339c:	b95b      	cbnz	r3, 878033b6 <vTaskDelete+0x7a>
8780339e:	f04f 33ff 	mov.w	r3, #4294967295	; 0xffffffff
878033a2:	62a3      	str	r3, [r4, #40]	; 0x28
878033a4:	f001 fc5a 	bl	87804c5c <vPortExitCritical>
878033a8:	f8d4 3120 	ldr.w	r3, [r4, #288]	; 0x120
878033ac:	b113      	cbz	r3, 878033b4 <vTaskDelete+0x78>
878033ae:	6863      	ldr	r3, [r4, #4]
878033b0:	429d      	cmp	r5, r3
878033b2:	d00a      	beq.n	878033ca <vTaskDelete+0x8e>
878033b4:	bd70      	pop	{r4, r5, r6, pc}
878033b6:	f7ff fed1 	bl	8780315c <prvResetNextTaskUnblockTime.part.0>
878033ba:	e7f3      	b.n	878033a4 <vTaskDelete+0x68>
878033bc:	68a3      	ldr	r3, [r4, #8]
878033be:	2201      	movs	r2, #1
878033c0:	408a      	lsls	r2, r1
878033c2:	ea23 0302 	bic.w	r3, r3, r2
878033c6:	60a3      	str	r3, [r4, #8]
878033c8:	e7ce      	b.n	87803368 <vTaskDelete+0x2c>
878033ca:	f8d4 312c 	ldr.w	r3, [r4, #300]	; 0x12c
878033ce:	b96b      	cbnz	r3, 878033ec <vTaskDelete+0xb0>
878033d0:	df00      	svc	0
878033d2:	bd70      	pop	{r4, r5, r6, pc}
878033d4:	6865      	ldr	r5, [r4, #4]
878033d6:	e7bb      	b.n	87803350 <vTaskDelete+0x14>
878033d8:	4631      	mov	r1, r6
878033da:	4806      	ldr	r0, [pc, #24]	; (878033f4 <vTaskDelete+0xb8>)
878033dc:	f7ff fcda 	bl	87802d94 <vListInsertEnd>
878033e0:	f8d4 3128 	ldr.w	r3, [r4, #296]	; 0x128
878033e4:	3301      	adds	r3, #1
878033e6:	f8c4 3128 	str.w	r3, [r4, #296]	; 0x128
878033ea:	e7db      	b.n	878033a4 <vTaskDelete+0x68>
878033ec:	f001 fc76 	bl	87804cdc <ulPortSetInterruptMask>
878033f0:	e7fe      	b.n	878033f0 <vTaskDelete+0xb4>
878033f2:	bf00      	nop
878033f4:	88001f94 	stmdahi	r0, {r2, r4, r7, r8, r9, sl, fp, ip}

878033f8 <eTaskGetState>:
878033f8:	b570      	push	{r4, r5, r6, lr}
878033fa:	b348      	cbz	r0, 87803450 <eTaskGetState+0x58>
878033fc:	f641 6488 	movw	r4, #7816	; 0x1e88
87803400:	4606      	mov	r6, r0
87803402:	f6c8 0400 	movt	r4, #34816	; 0x8800
87803406:	6863      	ldr	r3, [r4, #4]
87803408:	4298      	cmp	r0, r3
8780340a:	d019      	beq.n	87803440 <eTaskGetState+0x48>
8780340c:	f001 fbe4 	bl	87804bd8 <vPortEnterCritical>
87803410:	6975      	ldr	r5, [r6, #20]
87803412:	f001 fc23 	bl	87804c5c <vPortExitCritical>
87803416:	6a63      	ldr	r3, [r4, #36]	; 0x24
87803418:	429d      	cmp	r5, r3
8780341a:	d00f      	beq.n	8780343c <eTaskGetState+0x44>
8780341c:	6a23      	ldr	r3, [r4, #32]
8780341e:	429d      	cmp	r5, r3
87803420:	d00c      	beq.n	8780343c <eTaskGetState+0x44>
87803422:	f104 030c 	add.w	r3, r4, #12
87803426:	429d      	cmp	r5, r3
87803428:	d00c      	beq.n	87803444 <eTaskGetState+0x4c>
8780342a:	f504 7486 	add.w	r4, r4, #268	; 0x10c
8780342e:	42a5      	cmp	r5, r4
87803430:	bf18      	it	ne
87803432:	2d00      	cmpne	r5, #0
87803434:	bf0c      	ite	eq
87803436:	2004      	moveq	r0, #4
87803438:	2001      	movne	r0, #1
8780343a:	bd70      	pop	{r4, r5, r6, pc}
8780343c:	2002      	movs	r0, #2
8780343e:	bd70      	pop	{r4, r5, r6, pc}
87803440:	2000      	movs	r0, #0
87803442:	bd70      	pop	{r4, r5, r6, pc}
87803444:	6ab3      	ldr	r3, [r6, #40]	; 0x28
87803446:	2b00      	cmp	r3, #0
87803448:	bf14      	ite	ne
8780344a:	2002      	movne	r0, #2
8780344c:	2003      	moveq	r0, #3
8780344e:	bd70      	pop	{r4, r5, r6, pc}
87803450:	f001 fc44 	bl	87804cdc <ulPortSetInterruptMask>
87803454:	e7fe      	b.n	87803454 <eTaskGetState+0x5c>
87803456:	bf00      	nop

87803458 <uxTaskPriorityGet>:
87803458:	b510      	push	{r4, lr}
8780345a:	4604      	mov	r4, r0
8780345c:	f001 fbbc 	bl	87804bd8 <vPortEnterCritical>
87803460:	b124      	cbz	r4, 8780346c <uxTaskPriorityGet+0x14>
87803462:	6ae4      	ldr	r4, [r4, #44]	; 0x2c
87803464:	f001 fbfa 	bl	87804c5c <vPortExitCritical>
87803468:	4620      	mov	r0, r4
8780346a:	bd10      	pop	{r4, pc}
8780346c:	f641 6388 	movw	r3, #7816	; 0x1e88
87803470:	f6c8 0300 	movt	r3, #34816	; 0x8800
87803474:	685c      	ldr	r4, [r3, #4]
87803476:	6ae4      	ldr	r4, [r4, #44]	; 0x2c
87803478:	f001 fbf0 	bl	87804c5c <vPortExitCritical>
8780347c:	4620      	mov	r0, r4
8780347e:	bd10      	pop	{r4, pc}

87803480 <uxTaskPriorityGetFromISR>:
87803480:	b510      	push	{r4, lr}
87803482:	4604      	mov	r4, r0
87803484:	f001 fc46 	bl	87804d14 <vPortValidateInterruptPriority>
87803488:	f001 fc28 	bl	87804cdc <ulPortSetInterruptMask>
8780348c:	b124      	cbz	r4, 87803498 <uxTaskPriorityGetFromISR+0x18>
8780348e:	6ae4      	ldr	r4, [r4, #44]	; 0x2c
87803490:	f001 fc0e 	bl	87804cb0 <vPortClearInterruptMask>
87803494:	4620      	mov	r0, r4
87803496:	bd10      	pop	{r4, pc}
87803498:	f641 6388 	movw	r3, #7816	; 0x1e88
8780349c:	f6c8 0300 	movt	r3, #34816	; 0x8800
878034a0:	685c      	ldr	r4, [r3, #4]
878034a2:	6ae4      	ldr	r4, [r4, #44]	; 0x2c
878034a4:	f001 fc04 	bl	87804cb0 <vPortClearInterruptMask>
878034a8:	4620      	mov	r0, r4
878034aa:	bd10      	pop	{r4, pc}

878034ac <vTaskPrioritySet>:
878034ac:	2907      	cmp	r1, #7
878034ae:	e92d 43f8 	stmdb	sp!, {r3, r4, r5, r6, r7, r8, r9, lr}
878034b2:	d902      	bls.n	878034ba <vTaskPrioritySet+0xe>
878034b4:	f001 fc12 	bl	87804cdc <ulPortSetInterruptMask>
878034b8:	e7fe      	b.n	878034b8 <vTaskPrioritySet+0xc>
878034ba:	4604      	mov	r4, r0
878034bc:	460e      	mov	r6, r1
878034be:	f001 fb8b 	bl	87804bd8 <vPortEnterCritical>
878034c2:	b364      	cbz	r4, 8780351e <vTaskPrioritySet+0x72>
878034c4:	6d63      	ldr	r3, [r4, #84]	; 0x54
878034c6:	429e      	cmp	r6, r3
878034c8:	d025      	beq.n	87803516 <vTaskPrioritySet+0x6a>
878034ca:	f641 6588 	movw	r5, #7816	; 0x1e88
878034ce:	f6c8 0500 	movt	r5, #34816	; 0x8800
878034d2:	d92a      	bls.n	8780352a <vTaskPrioritySet+0x7e>
878034d4:	686a      	ldr	r2, [r5, #4]
878034d6:	4294      	cmp	r4, r2
878034d8:	bf08      	it	eq
878034da:	2700      	moveq	r7, #0
878034dc:	d005      	beq.n	878034ea <vTaskPrioritySet+0x3e>
878034de:	686a      	ldr	r2, [r5, #4]
878034e0:	6ad7      	ldr	r7, [r2, #44]	; 0x2c
878034e2:	42be      	cmp	r6, r7
878034e4:	bf34      	ite	cc
878034e6:	2700      	movcc	r7, #0
878034e8:	2701      	movcs	r7, #1
878034ea:	f8d4 802c 	ldr.w	r8, [r4, #44]	; 0x2c
878034ee:	6566      	str	r6, [r4, #84]	; 0x54
878034f0:	6962      	ldr	r2, [r4, #20]
878034f2:	4543      	cmp	r3, r8
878034f4:	69a3      	ldr	r3, [r4, #24]
878034f6:	bf08      	it	eq
878034f8:	62e6      	streq	r6, [r4, #44]	; 0x2c
878034fa:	2b00      	cmp	r3, #0
878034fc:	eb08 0388 	add.w	r3, r8, r8, lsl #2
87803500:	bfa4      	itt	ge
87803502:	f1c6 0608 	rsbge	r6, r6, #8
87803506:	61a6      	strge	r6, [r4, #24]
87803508:	4e18      	ldr	r6, [pc, #96]	; (8780356c <vTaskPrioritySet+0xc0>)
8780350a:	eb06 0383 	add.w	r3, r6, r3, lsl #2
8780350e:	429a      	cmp	r2, r3
87803510:	d011      	beq.n	87803536 <vTaskPrioritySet+0x8a>
87803512:	b107      	cbz	r7, 87803516 <vTaskPrioritySet+0x6a>
87803514:	df00      	svc	0
87803516:	e8bd 43f8 	ldmia.w	sp!, {r3, r4, r5, r6, r7, r8, r9, lr}
8780351a:	f001 bb9f 	b.w	87804c5c <vPortExitCritical>
8780351e:	f641 6388 	movw	r3, #7816	; 0x1e88
87803522:	f6c8 0300 	movt	r3, #34816	; 0x8800
87803526:	685c      	ldr	r4, [r3, #4]
87803528:	e7cc      	b.n	878034c4 <vTaskPrioritySet+0x18>
8780352a:	686f      	ldr	r7, [r5, #4]
8780352c:	1be7      	subs	r7, r4, r7
8780352e:	fab7 f787 	clz	r7, r7
87803532:	097f      	lsrs	r7, r7, #5
87803534:	e7d9      	b.n	878034ea <vTaskPrioritySet+0x3e>
87803536:	f104 0904 	add.w	r9, r4, #4
8780353a:	4648      	mov	r0, r9
8780353c:	f7ff fc54 	bl	87802de8 <uxListRemove>
87803540:	b930      	cbnz	r0, 87803550 <vTaskPrioritySet+0xa4>
87803542:	68ab      	ldr	r3, [r5, #8]
87803544:	2201      	movs	r2, #1
87803546:	fa02 f808 	lsl.w	r8, r2, r8
8780354a:	ea23 0308 	bic.w	r3, r3, r8
8780354e:	60ab      	str	r3, [r5, #8]
87803550:	6ae0      	ldr	r0, [r4, #44]	; 0x2c
87803552:	2301      	movs	r3, #1
87803554:	68aa      	ldr	r2, [r5, #8]
87803556:	4649      	mov	r1, r9
87803558:	4083      	lsls	r3, r0
8780355a:	eb00 0080 	add.w	r0, r0, r0, lsl #2
8780355e:	4313      	orrs	r3, r2
87803560:	eb06 0080 	add.w	r0, r6, r0, lsl #2
87803564:	60ab      	str	r3, [r5, #8]
87803566:	f7ff fc15 	bl	87802d94 <vListInsertEnd>
8780356a:	e7d2      	b.n	87803512 <vTaskPrioritySet+0x66>
8780356c:	88001ecc 	stmdahi	r0, {r2, r3, r6, r7, r9, sl, fp, ip}

87803570 <vTaskResume>:
87803570:	b5f8      	push	{r3, r4, r5, r6, r7, lr}
87803572:	b378      	cbz	r0, 878035d4 <vTaskResume+0x64>
87803574:	f641 6488 	movw	r4, #7816	; 0x1e88
87803578:	4605      	mov	r5, r0
8780357a:	f6c8 0400 	movt	r4, #34816	; 0x8800
8780357e:	6863      	ldr	r3, [r4, #4]
87803580:	4298      	cmp	r0, r3
87803582:	d009      	beq.n	87803598 <vTaskResume+0x28>
87803584:	f001 fb28 	bl	87804bd8 <vPortEnterCritical>
87803588:	4628      	mov	r0, r5
8780358a:	f7ff fdf1 	bl	87803170 <prvTaskIsTaskSuspended>
8780358e:	b920      	cbnz	r0, 8780359a <vTaskResume+0x2a>
87803590:	e8bd 40f8 	ldmia.w	sp!, {r3, r4, r5, r6, r7, lr}
87803594:	f001 bb62 	b.w	87804c5c <vPortExitCritical>
87803598:	bdf8      	pop	{r3, r4, r5, r6, r7, pc}
8780359a:	1d2e      	adds	r6, r5, #4
8780359c:	4630      	mov	r0, r6
8780359e:	f7ff fc23 	bl	87802de8 <uxListRemove>
878035a2:	6aea      	ldr	r2, [r5, #44]	; 0x2c
878035a4:	2301      	movs	r3, #1
878035a6:	68a7      	ldr	r7, [r4, #8]
878035a8:	f104 0044 	add.w	r0, r4, #68	; 0x44
878035ac:	4631      	mov	r1, r6
878035ae:	4093      	lsls	r3, r2
878035b0:	eb02 0282 	add.w	r2, r2, r2, lsl #2
878035b4:	433b      	orrs	r3, r7
878035b6:	eb00 0082 	add.w	r0, r0, r2, lsl #2
878035ba:	60a3      	str	r3, [r4, #8]
878035bc:	f7ff fbea 	bl	87802d94 <vListInsertEnd>
878035c0:	6863      	ldr	r3, [r4, #4]
878035c2:	6aea      	ldr	r2, [r5, #44]	; 0x2c
878035c4:	6adb      	ldr	r3, [r3, #44]	; 0x2c
878035c6:	429a      	cmp	r2, r3
878035c8:	d3e2      	bcc.n	87803590 <vTaskResume+0x20>
878035ca:	df00      	svc	0
878035cc:	e8bd 40f8 	ldmia.w	sp!, {r3, r4, r5, r6, r7, lr}
878035d0:	f001 bb44 	b.w	87804c5c <vPortExitCritical>
878035d4:	f001 fb82 	bl	87804cdc <ulPortSetInterruptMask>
878035d8:	e7fe      	b.n	878035d8 <vTaskResume+0x68>
878035da:	bf00      	nop

878035dc <xTaskResumeFromISR>:
878035dc:	e92d 41f0 	stmdb	sp!, {r4, r5, r6, r7, r8, lr}
878035e0:	2800      	cmp	r0, #0
878035e2:	d03f      	beq.n	87803664 <xTaskResumeFromISR+0x88>
878035e4:	4605      	mov	r5, r0
878035e6:	f001 fb95 	bl	87804d14 <vPortValidateInterruptPriority>
878035ea:	f001 fb77 	bl	87804cdc <ulPortSetInterruptMask>
878035ee:	4606      	mov	r6, r0
878035f0:	4628      	mov	r0, r5
878035f2:	f7ff fdbd 	bl	87803170 <prvTaskIsTaskSuspended>
878035f6:	4604      	mov	r4, r0
878035f8:	b308      	cbz	r0, 8780363e <xTaskResumeFromISR+0x62>
878035fa:	f641 6788 	movw	r7, #7816	; 0x1e88
878035fe:	f6c8 0700 	movt	r7, #34816	; 0x8800
87803602:	f8d7 312c 	ldr.w	r3, [r7, #300]	; 0x12c
87803606:	bb03      	cbnz	r3, 8780364a <xTaskResumeFromISR+0x6e>
87803608:	687b      	ldr	r3, [r7, #4]
8780360a:	f105 0804 	add.w	r8, r5, #4
8780360e:	6aec      	ldr	r4, [r5, #44]	; 0x2c
87803610:	4640      	mov	r0, r8
87803612:	6adb      	ldr	r3, [r3, #44]	; 0x2c
87803614:	429c      	cmp	r4, r3
87803616:	bf34      	ite	cc
87803618:	2400      	movcc	r4, #0
8780361a:	2401      	movcs	r4, #1
8780361c:	f7ff fbe4 	bl	87802de8 <uxListRemove>
87803620:	6aea      	ldr	r2, [r5, #44]	; 0x2c
87803622:	2301      	movs	r3, #1
87803624:	68bd      	ldr	r5, [r7, #8]
87803626:	f107 0044 	add.w	r0, r7, #68	; 0x44
8780362a:	4641      	mov	r1, r8
8780362c:	4093      	lsls	r3, r2
8780362e:	eb02 0282 	add.w	r2, r2, r2, lsl #2
87803632:	432b      	orrs	r3, r5
87803634:	eb00 0082 	add.w	r0, r0, r2, lsl #2
87803638:	60bb      	str	r3, [r7, #8]
8780363a:	f7ff fbab 	bl	87802d94 <vListInsertEnd>
8780363e:	4630      	mov	r0, r6
87803640:	f001 fb36 	bl	87804cb0 <vPortClearInterruptMask>
87803644:	4620      	mov	r0, r4
87803646:	e8bd 81f0 	ldmia.w	sp!, {r4, r5, r6, r7, r8, pc}
8780364a:	f105 0118 	add.w	r1, r5, #24
8780364e:	f107 002c 	add.w	r0, r7, #44	; 0x2c
87803652:	f7ff fb9f 	bl	87802d94 <vListInsertEnd>
87803656:	2400      	movs	r4, #0
87803658:	4630      	mov	r0, r6
8780365a:	f001 fb29 	bl	87804cb0 <vPortClearInterruptMask>
8780365e:	4620      	mov	r0, r4
87803660:	e8bd 81f0 	ldmia.w	sp!, {r4, r5, r6, r7, r8, pc}
87803664:	f001 fb3a 	bl	87804cdc <ulPortSetInterruptMask>
87803668:	e7fe      	b.n	87803668 <xTaskResumeFromISR+0x8c>
8780366a:	bf00      	nop

8780366c <vTaskStartScheduler>:
8780366c:	b570      	push	{r4, r5, r6, lr}
8780366e:	f641 6488 	movw	r4, #7816	; 0x1e88
87803672:	f6c8 0400 	movt	r4, #34816	; 0x8800
87803676:	b082      	sub	sp, #8
87803678:	2600      	movs	r6, #0
8780367a:	f504 7398 	add.w	r3, r4, #304	; 0x130
8780367e:	f248 010c 	movw	r1, #32780	; 0x800c
87803682:	f643 10b5 	movw	r0, #14773	; 0x39b5
87803686:	9301      	str	r3, [sp, #4]
87803688:	f2c8 7180 	movt	r1, #34688	; 0x8780
8780368c:	4633      	mov	r3, r6
8780368e:	9600      	str	r6, [sp, #0]
87803690:	f2c8 7080 	movt	r0, #34688	; 0x8780
87803694:	225a      	movs	r2, #90	; 0x5a
87803696:	f7ff fd81 	bl	8780319c <xTaskCreate>
8780369a:	2801      	cmp	r0, #1
8780369c:	bf18      	it	ne
8780369e:	4605      	movne	r5, r0
878036a0:	d003      	beq.n	878036aa <vTaskStartScheduler+0x3e>
878036a2:	3501      	adds	r5, #1
878036a4:	d013      	beq.n	878036ce <vTaskStartScheduler+0x62>
878036a6:	b002      	add	sp, #8
878036a8:	bd70      	pop	{r4, r5, r6, pc}
878036aa:	f000 ff27 	bl	878044fc <xTimerCreateTimerTask>
878036ae:	2801      	cmp	r0, #1
878036b0:	4605      	mov	r5, r0
878036b2:	d1f6      	bne.n	878036a2 <vTaskStartScheduler+0x36>
878036b4:	f001 fb12 	bl	87804cdc <ulPortSetInterruptMask>
878036b8:	f04f 33ff 	mov.w	r3, #4294967295	; 0xffffffff
878036bc:	62a3      	str	r3, [r4, #40]	; 0x28
878036be:	f8c4 5120 	str.w	r5, [r4, #288]	; 0x120
878036c2:	6026      	str	r6, [r4, #0]
878036c4:	b002      	add	sp, #8
878036c6:	e8bd 4070 	ldmia.w	sp!, {r4, r5, r6, lr}
878036ca:	f001 b9cb 	b.w	87804a64 <xPortStartScheduler>
878036ce:	f001 fb05 	bl	87804cdc <ulPortSetInterruptMask>
878036d2:	e7fe      	b.n	878036d2 <vTaskStartScheduler+0x66>

878036d4 <vTaskEndScheduler>:
878036d4:	b508      	push	{r3, lr}
878036d6:	f001 fb01 	bl	87804cdc <ulPortSetInterruptMask>
878036da:	f641 6388 	movw	r3, #7816	; 0x1e88
878036de:	2200      	movs	r2, #0
878036e0:	f6c8 0300 	movt	r3, #34816	; 0x8800
878036e4:	f8c3 2120 	str.w	r2, [r3, #288]	; 0x120
878036e8:	e8bd 4008 	ldmia.w	sp!, {r3, lr}
878036ec:	f001 ba52 	b.w	87804b94 <vPortEndScheduler>

878036f0 <vTaskSuspendAll>:
878036f0:	f641 6388 	movw	r3, #7816	; 0x1e88
878036f4:	f6c8 0300 	movt	r3, #34816	; 0x8800
878036f8:	f8d3 212c 	ldr.w	r2, [r3, #300]	; 0x12c
878036fc:	3201      	adds	r2, #1
878036fe:	f8c3 212c 	str.w	r2, [r3, #300]	; 0x12c
87803702:	4770      	bx	lr

87803704 <xTaskGetTickCount>:
87803704:	f641 6388 	movw	r3, #7816	; 0x1e88
87803708:	f6c8 0300 	movt	r3, #34816	; 0x8800
8780370c:	6818      	ldr	r0, [r3, #0]
8780370e:	4770      	bx	lr

87803710 <xTaskGetTickCountFromISR>:
87803710:	b508      	push	{r3, lr}
87803712:	f001 faff 	bl	87804d14 <vPortValidateInterruptPriority>
87803716:	f641 6388 	movw	r3, #7816	; 0x1e88
8780371a:	f6c8 0300 	movt	r3, #34816	; 0x8800
8780371e:	6818      	ldr	r0, [r3, #0]
87803720:	bd08      	pop	{r3, pc}
87803722:	bf00      	nop

87803724 <uxTaskGetNumberOfTasks>:
87803724:	f641 6388 	movw	r3, #7816	; 0x1e88
87803728:	f6c8 0300 	movt	r3, #34816	; 0x8800
8780372c:	6c18      	ldr	r0, [r3, #64]	; 0x40
8780372e:	4770      	bx	lr

87803730 <pcTaskGetName>:
87803730:	b108      	cbz	r0, 87803736 <pcTaskGetName+0x6>
87803732:	3034      	adds	r0, #52	; 0x34
87803734:	4770      	bx	lr
87803736:	b508      	push	{r3, lr}
87803738:	f641 6388 	movw	r3, #7816	; 0x1e88
8780373c:	f6c8 0300 	movt	r3, #34816	; 0x8800
87803740:	6858      	ldr	r0, [r3, #4]
87803742:	b910      	cbnz	r0, 8780374a <pcTaskGetName+0x1a>
87803744:	f001 faca 	bl	87804cdc <ulPortSetInterruptMask>
87803748:	e7fe      	b.n	87803748 <pcTaskGetName+0x18>
8780374a:	3034      	adds	r0, #52	; 0x34
8780374c:	bd08      	pop	{r3, pc}
8780374e:	bf00      	nop

87803750 <xTaskIncrementTick>:
87803750:	e92d 47f0 	stmdb	sp!, {r4, r5, r6, r7, r8, r9, sl, lr}
87803754:	f641 6488 	movw	r4, #7816	; 0x1e88
87803758:	f6c8 0400 	movt	r4, #34816	; 0x8800
8780375c:	f8d4 312c 	ldr.w	r3, [r4, #300]	; 0x12c
87803760:	2b00      	cmp	r3, #0
87803762:	d13b      	bne.n	878037dc <xTaskIncrementTick+0x8c>
87803764:	6827      	ldr	r7, [r4, #0]
87803766:	3701      	adds	r7, #1
87803768:	6027      	str	r7, [r4, #0]
8780376a:	2f00      	cmp	r7, #0
8780376c:	d044      	beq.n	878037f8 <xTaskIncrementTick+0xa8>
8780376e:	6aa3      	ldr	r3, [r4, #40]	; 0x28
87803770:	429f      	cmp	r7, r3
87803772:	bf38      	it	cc
87803774:	2600      	movcc	r6, #0
87803776:	d337      	bcc.n	878037e8 <xTaskIncrementTick+0x98>
87803778:	f8df 90b4 	ldr.w	r9, [pc, #180]	; 87803830 <xTaskIncrementTick+0xe0>
8780377c:	2600      	movs	r6, #0
8780377e:	f04f 0801 	mov.w	r8, #1
87803782:	e023      	b.n	878037cc <xTaskIncrementTick+0x7c>
87803784:	6a63      	ldr	r3, [r4, #36]	; 0x24
87803786:	68db      	ldr	r3, [r3, #12]
87803788:	68dd      	ldr	r5, [r3, #12]
8780378a:	686b      	ldr	r3, [r5, #4]
8780378c:	f105 0a04 	add.w	sl, r5, #4
87803790:	4650      	mov	r0, sl
87803792:	429f      	cmp	r7, r3
87803794:	d349      	bcc.n	8780382a <xTaskIncrementTick+0xda>
87803796:	f7ff fb27 	bl	87802de8 <uxListRemove>
8780379a:	6aab      	ldr	r3, [r5, #40]	; 0x28
8780379c:	f105 0018 	add.w	r0, r5, #24
878037a0:	b10b      	cbz	r3, 878037a6 <xTaskIncrementTick+0x56>
878037a2:	f7ff fb21 	bl	87802de8 <uxListRemove>
878037a6:	6ae8      	ldr	r0, [r5, #44]	; 0x2c
878037a8:	4651      	mov	r1, sl
878037aa:	68a2      	ldr	r2, [r4, #8]
878037ac:	fa08 f300 	lsl.w	r3, r8, r0
878037b0:	eb00 0080 	add.w	r0, r0, r0, lsl #2
878037b4:	4313      	orrs	r3, r2
878037b6:	eb09 0080 	add.w	r0, r9, r0, lsl #2
878037ba:	60a3      	str	r3, [r4, #8]
878037bc:	f7ff faea 	bl	87802d94 <vListInsertEnd>
878037c0:	6863      	ldr	r3, [r4, #4]
878037c2:	6aea      	ldr	r2, [r5, #44]	; 0x2c
878037c4:	6adb      	ldr	r3, [r3, #44]	; 0x2c
878037c6:	429a      	cmp	r2, r3
878037c8:	bf28      	it	cs
878037ca:	2601      	movcs	r6, #1
878037cc:	6a63      	ldr	r3, [r4, #36]	; 0x24
878037ce:	681b      	ldr	r3, [r3, #0]
878037d0:	2b00      	cmp	r3, #0
878037d2:	d1d7      	bne.n	87803784 <xTaskIncrementTick+0x34>
878037d4:	f04f 33ff 	mov.w	r3, #4294967295	; 0xffffffff
878037d8:	62a3      	str	r3, [r4, #40]	; 0x28
878037da:	e005      	b.n	878037e8 <xTaskIncrementTick+0x98>
878037dc:	f8d4 3138 	ldr.w	r3, [r4, #312]	; 0x138
878037e0:	2600      	movs	r6, #0
878037e2:	3301      	adds	r3, #1
878037e4:	f8c4 3138 	str.w	r3, [r4, #312]	; 0x138
878037e8:	f8d4 313c 	ldr.w	r3, [r4, #316]	; 0x13c
878037ec:	2b00      	cmp	r3, #0
878037ee:	bf18      	it	ne
878037f0:	2601      	movne	r6, #1
878037f2:	4630      	mov	r0, r6
878037f4:	e8bd 87f0 	ldmia.w	sp!, {r4, r5, r6, r7, r8, r9, sl, pc}
878037f8:	6a63      	ldr	r3, [r4, #36]	; 0x24
878037fa:	681b      	ldr	r3, [r3, #0]
878037fc:	b993      	cbnz	r3, 87803824 <xTaskIncrementTick+0xd4>
878037fe:	6a63      	ldr	r3, [r4, #36]	; 0x24
87803800:	6a22      	ldr	r2, [r4, #32]
87803802:	6262      	str	r2, [r4, #36]	; 0x24
87803804:	6223      	str	r3, [r4, #32]
87803806:	f8d4 3134 	ldr.w	r3, [r4, #308]	; 0x134
8780380a:	3301      	adds	r3, #1
8780380c:	f8c4 3134 	str.w	r3, [r4, #308]	; 0x134
87803810:	6a63      	ldr	r3, [r4, #36]	; 0x24
87803812:	681b      	ldr	r3, [r3, #0]
87803814:	b91b      	cbnz	r3, 8780381e <xTaskIncrementTick+0xce>
87803816:	f04f 33ff 	mov.w	r3, #4294967295	; 0xffffffff
8780381a:	62a3      	str	r3, [r4, #40]	; 0x28
8780381c:	e7a7      	b.n	8780376e <xTaskIncrementTick+0x1e>
8780381e:	f7ff fc9d 	bl	8780315c <prvResetNextTaskUnblockTime.part.0>
87803822:	e7a4      	b.n	8780376e <xTaskIncrementTick+0x1e>
87803824:	f001 fa5a 	bl	87804cdc <ulPortSetInterruptMask>
87803828:	e7fe      	b.n	87803828 <xTaskIncrementTick+0xd8>
8780382a:	62a3      	str	r3, [r4, #40]	; 0x28
8780382c:	e7dc      	b.n	878037e8 <xTaskIncrementTick+0x98>
8780382e:	bf00      	nop
87803830:	88001ecc 	stmdahi	r0, {r2, r3, r6, r7, r9, sl, fp, ip}

87803834 <xTaskResumeAll>:
87803834:	e92d 41f0 	stmdb	sp!, {r4, r5, r6, r7, r8, lr}
87803838:	f641 6488 	movw	r4, #7816	; 0x1e88
8780383c:	f6c8 0400 	movt	r4, #34816	; 0x8800
87803840:	f8d4 312c 	ldr.w	r3, [r4, #300]	; 0x12c
87803844:	b913      	cbnz	r3, 8780384c <xTaskResumeAll+0x18>
87803846:	f001 fa49 	bl	87804cdc <ulPortSetInterruptMask>
8780384a:	e7fe      	b.n	8780384a <xTaskResumeAll+0x16>
8780384c:	f001 f9c4 	bl	87804bd8 <vPortEnterCritical>
87803850:	f8d4 312c 	ldr.w	r3, [r4, #300]	; 0x12c
87803854:	3b01      	subs	r3, #1
87803856:	f8c4 312c 	str.w	r3, [r4, #300]	; 0x12c
8780385a:	f8d4 512c 	ldr.w	r5, [r4, #300]	; 0x12c
8780385e:	2d00      	cmp	r5, #0
87803860:	d145      	bne.n	878038ee <xTaskResumeAll+0xba>
87803862:	6c23      	ldr	r3, [r4, #64]	; 0x40
87803864:	2601      	movs	r6, #1
87803866:	f104 0744 	add.w	r7, r4, #68	; 0x44
8780386a:	b9fb      	cbnz	r3, 878038ac <xTaskResumeAll+0x78>
8780386c:	e03f      	b.n	878038ee <xTaskResumeAll+0xba>
8780386e:	6ba3      	ldr	r3, [r4, #56]	; 0x38
87803870:	68dd      	ldr	r5, [r3, #12]
87803872:	f105 0804 	add.w	r8, r5, #4
87803876:	f105 0018 	add.w	r0, r5, #24
8780387a:	f7ff fab5 	bl	87802de8 <uxListRemove>
8780387e:	4640      	mov	r0, r8
87803880:	f7ff fab2 	bl	87802de8 <uxListRemove>
87803884:	6ae8      	ldr	r0, [r5, #44]	; 0x2c
87803886:	4641      	mov	r1, r8
87803888:	68a2      	ldr	r2, [r4, #8]
8780388a:	fa06 f300 	lsl.w	r3, r6, r0
8780388e:	eb00 0080 	add.w	r0, r0, r0, lsl #2
87803892:	4313      	orrs	r3, r2
87803894:	eb07 0080 	add.w	r0, r7, r0, lsl #2
87803898:	60a3      	str	r3, [r4, #8]
8780389a:	f7ff fa7b 	bl	87802d94 <vListInsertEnd>
8780389e:	6863      	ldr	r3, [r4, #4]
878038a0:	6aea      	ldr	r2, [r5, #44]	; 0x2c
878038a2:	6adb      	ldr	r3, [r3, #44]	; 0x2c
878038a4:	429a      	cmp	r2, r3
878038a6:	bf28      	it	cs
878038a8:	f8c4 613c 	strcs.w	r6, [r4, #316]	; 0x13c
878038ac:	6ae3      	ldr	r3, [r4, #44]	; 0x2c
878038ae:	2b00      	cmp	r3, #0
878038b0:	d1dd      	bne.n	8780386e <xTaskResumeAll+0x3a>
878038b2:	b12d      	cbz	r5, 878038c0 <xTaskResumeAll+0x8c>
878038b4:	6a63      	ldr	r3, [r4, #36]	; 0x24
878038b6:	681b      	ldr	r3, [r3, #0]
878038b8:	b9fb      	cbnz	r3, 878038fa <xTaskResumeAll+0xc6>
878038ba:	f04f 33ff 	mov.w	r3, #4294967295	; 0xffffffff
878038be:	62a3      	str	r3, [r4, #40]	; 0x28
878038c0:	f8d4 5138 	ldr.w	r5, [r4, #312]	; 0x138
878038c4:	b14d      	cbz	r5, 878038da <xTaskResumeAll+0xa6>
878038c6:	2601      	movs	r6, #1
878038c8:	f7ff ff42 	bl	87803750 <xTaskIncrementTick>
878038cc:	b108      	cbz	r0, 878038d2 <xTaskResumeAll+0x9e>
878038ce:	f8c4 613c 	str.w	r6, [r4, #316]	; 0x13c
878038d2:	3d01      	subs	r5, #1
878038d4:	d1f8      	bne.n	878038c8 <xTaskResumeAll+0x94>
878038d6:	f8c4 5138 	str.w	r5, [r4, #312]	; 0x138
878038da:	f8d4 313c 	ldr.w	r3, [r4, #316]	; 0x13c
878038de:	b133      	cbz	r3, 878038ee <xTaskResumeAll+0xba>
878038e0:	df00      	svc	0
878038e2:	2401      	movs	r4, #1
878038e4:	f001 f9ba 	bl	87804c5c <vPortExitCritical>
878038e8:	4620      	mov	r0, r4
878038ea:	e8bd 81f0 	ldmia.w	sp!, {r4, r5, r6, r7, r8, pc}
878038ee:	2400      	movs	r4, #0
878038f0:	f001 f9b4 	bl	87804c5c <vPortExitCritical>
878038f4:	4620      	mov	r0, r4
878038f6:	e8bd 81f0 	ldmia.w	sp!, {r4, r5, r6, r7, r8, pc}
878038fa:	f7ff fc2f 	bl	8780315c <prvResetNextTaskUnblockTime.part.0>
878038fe:	e7df      	b.n	878038c0 <xTaskResumeAll+0x8c>

87803900 <vTaskDelayUntil>:
87803900:	b510      	push	{r4, lr}
87803902:	2800      	cmp	r0, #0
87803904:	d037      	beq.n	87803976 <vTaskDelayUntil+0x76>
87803906:	2900      	cmp	r1, #0
87803908:	d032      	beq.n	87803970 <vTaskDelayUntil+0x70>
8780390a:	f641 6288 	movw	r2, #7816	; 0x1e88
8780390e:	f6c8 0200 	movt	r2, #34816	; 0x8800
87803912:	f8d2 312c 	ldr.w	r3, [r2, #300]	; 0x12c
87803916:	b9db      	cbnz	r3, 87803950 <vTaskDelayUntil+0x50>
87803918:	f8d2 312c 	ldr.w	r3, [r2, #300]	; 0x12c
8780391c:	6804      	ldr	r4, [r0, #0]
8780391e:	3301      	adds	r3, #1
87803920:	f8c2 312c 	str.w	r3, [r2, #300]	; 0x12c
87803924:	190b      	adds	r3, r1, r4
87803926:	6811      	ldr	r1, [r2, #0]
87803928:	bf2c      	ite	cs
8780392a:	2201      	movcs	r2, #1
8780392c:	2200      	movcc	r2, #0
8780392e:	42a1      	cmp	r1, r4
87803930:	d311      	bcc.n	87803956 <vTaskDelayUntil+0x56>
87803932:	4299      	cmp	r1, r3
87803934:	bf38      	it	cc
87803936:	f042 0201 	orrcc.w	r2, r2, #1
8780393a:	b19a      	cbz	r2, 87803964 <vTaskDelayUntil+0x64>
8780393c:	6003      	str	r3, [r0, #0]
8780393e:	1a58      	subs	r0, r3, r1
87803940:	2100      	movs	r1, #0
87803942:	f7ff fbcd 	bl	878030e0 <prvAddCurrentTaskToDelayedList>
87803946:	f7ff ff75 	bl	87803834 <xTaskResumeAll>
8780394a:	b980      	cbnz	r0, 8780396e <vTaskDelayUntil+0x6e>
8780394c:	df00      	svc	0
8780394e:	bd10      	pop	{r4, pc}
87803950:	f001 f9c4 	bl	87804cdc <ulPortSetInterruptMask>
87803954:	e7fe      	b.n	87803954 <vTaskDelayUntil+0x54>
87803956:	4299      	cmp	r1, r3
87803958:	bf2c      	ite	cs
8780395a:	2200      	movcs	r2, #0
8780395c:	f002 0201 	andcc.w	r2, r2, #1
87803960:	2a00      	cmp	r2, #0
87803962:	d1eb      	bne.n	8780393c <vTaskDelayUntil+0x3c>
87803964:	6003      	str	r3, [r0, #0]
87803966:	f7ff ff65 	bl	87803834 <xTaskResumeAll>
8780396a:	2800      	cmp	r0, #0
8780396c:	d0ee      	beq.n	8780394c <vTaskDelayUntil+0x4c>
8780396e:	bd10      	pop	{r4, pc}
87803970:	f001 f9b4 	bl	87804cdc <ulPortSetInterruptMask>
87803974:	e7fe      	b.n	87803974 <vTaskDelayUntil+0x74>
87803976:	f001 f9b1 	bl	87804cdc <ulPortSetInterruptMask>
8780397a:	e7fe      	b.n	8780397a <vTaskDelayUntil+0x7a>

8780397c <vTaskDelay>:
8780397c:	b908      	cbnz	r0, 87803982 <vTaskDelay+0x6>
8780397e:	df00      	svc	0
87803980:	4770      	bx	lr
87803982:	b508      	push	{r3, lr}
87803984:	f641 6388 	movw	r3, #7816	; 0x1e88
87803988:	f6c8 0300 	movt	r3, #34816	; 0x8800
8780398c:	f8d3 112c 	ldr.w	r1, [r3, #300]	; 0x12c
87803990:	b951      	cbnz	r1, 878039a8 <vTaskDelay+0x2c>
87803992:	f8d3 212c 	ldr.w	r2, [r3, #300]	; 0x12c
87803996:	3201      	adds	r2, #1
87803998:	f8c3 212c 	str.w	r2, [r3, #300]	; 0x12c
8780399c:	f7ff fba0 	bl	878030e0 <prvAddCurrentTaskToDelayedList>
878039a0:	f7ff ff48 	bl	87803834 <xTaskResumeAll>
878039a4:	b118      	cbz	r0, 878039ae <vTaskDelay+0x32>
878039a6:	bd08      	pop	{r3, pc}
878039a8:	f001 f998 	bl	87804cdc <ulPortSetInterruptMask>
878039ac:	e7fe      	b.n	878039ac <vTaskDelay+0x30>
878039ae:	df00      	svc	0
878039b0:	bd08      	pop	{r3, pc}
878039b2:	bf00      	nop

878039b4 <prvIdleTask>:
878039b4:	f641 6488 	movw	r4, #7816	; 0x1e88
878039b8:	b508      	push	{r3, lr}
878039ba:	f6c8 0400 	movt	r4, #34816	; 0x8800
878039be:	e009      	b.n	878039d4 <prvIdleTask+0x20>
878039c0:	f8d4 312c 	ldr.w	r3, [r4, #300]	; 0x12c
878039c4:	f8d4 510c 	ldr.w	r5, [r4, #268]	; 0x10c
878039c8:	3301      	adds	r3, #1
878039ca:	f8c4 312c 	str.w	r3, [r4, #300]	; 0x12c
878039ce:	f7ff ff31 	bl	87803834 <xTaskResumeAll>
878039d2:	b945      	cbnz	r5, 878039e6 <prvIdleTask+0x32>
878039d4:	f8d4 3128 	ldr.w	r3, [r4, #296]	; 0x128
878039d8:	2b00      	cmp	r3, #0
878039da:	d1f1      	bne.n	878039c0 <prvIdleTask+0xc>
878039dc:	6c63      	ldr	r3, [r4, #68]	; 0x44
878039de:	2b01      	cmp	r3, #1
878039e0:	d9f8      	bls.n	878039d4 <prvIdleTask+0x20>
878039e2:	df00      	svc	0
878039e4:	e7f6      	b.n	878039d4 <prvIdleTask+0x20>
878039e6:	f001 f8f7 	bl	87804bd8 <vPortEnterCritical>
878039ea:	f8d4 3118 	ldr.w	r3, [r4, #280]	; 0x118
878039ee:	68dd      	ldr	r5, [r3, #12]
878039f0:	1d28      	adds	r0, r5, #4
878039f2:	f7ff f9f9 	bl	87802de8 <uxListRemove>
878039f6:	6c23      	ldr	r3, [r4, #64]	; 0x40
878039f8:	3b01      	subs	r3, #1
878039fa:	6423      	str	r3, [r4, #64]	; 0x40
878039fc:	f8d4 3128 	ldr.w	r3, [r4, #296]	; 0x128
87803a00:	3b01      	subs	r3, #1
87803a02:	f8c4 3128 	str.w	r3, [r4, #296]	; 0x128
87803a06:	f001 f929 	bl	87804c5c <vPortExitCritical>
87803a0a:	6b28      	ldr	r0, [r5, #48]	; 0x30
87803a0c:	f001 fa94 	bl	87804f38 <vPortFree>
87803a10:	4628      	mov	r0, r5
87803a12:	f001 fa91 	bl	87804f38 <vPortFree>
87803a16:	e7dd      	b.n	878039d4 <prvIdleTask+0x20>

87803a18 <vTaskSwitchContext>:
87803a18:	f641 6288 	movw	r2, #7816	; 0x1e88
87803a1c:	b508      	push	{r3, lr}
87803a1e:	f6c8 0200 	movt	r2, #34816	; 0x8800
87803a22:	f8d2 312c 	ldr.w	r3, [r2, #300]	; 0x12c
87803a26:	b9e3      	cbnz	r3, 87803a62 <vTaskSwitchContext+0x4a>
87803a28:	f8c2 313c 	str.w	r3, [r2, #316]	; 0x13c
87803a2c:	6893      	ldr	r3, [r2, #8]
87803a2e:	fab3 f383 	clz	r3, r3
87803a32:	f1c3 031f 	rsb	r3, r3, #31
87803a36:	eb03 0383 	add.w	r3, r3, r3, lsl #2
87803a3a:	009b      	lsls	r3, r3, #2
87803a3c:	18d0      	adds	r0, r2, r3
87803a3e:	6c41      	ldr	r1, [r0, #68]	; 0x44
87803a40:	b161      	cbz	r1, 87803a5c <vTaskSwitchContext+0x44>
87803a42:	6c81      	ldr	r1, [r0, #72]	; 0x48
87803a44:	4413      	add	r3, r2
87803a46:	334c      	adds	r3, #76	; 0x4c
87803a48:	6849      	ldr	r1, [r1, #4]
87803a4a:	4299      	cmp	r1, r3
87803a4c:	6481      	str	r1, [r0, #72]	; 0x48
87803a4e:	bf08      	it	eq
87803a50:	6849      	ldreq	r1, [r1, #4]
87803a52:	68cb      	ldr	r3, [r1, #12]
87803a54:	bf08      	it	eq
87803a56:	6481      	streq	r1, [r0, #72]	; 0x48
87803a58:	6053      	str	r3, [r2, #4]
87803a5a:	bd08      	pop	{r3, pc}
87803a5c:	f001 f93e 	bl	87804cdc <ulPortSetInterruptMask>
87803a60:	e7fe      	b.n	87803a60 <vTaskSwitchContext+0x48>
87803a62:	2301      	movs	r3, #1
87803a64:	f8c2 313c 	str.w	r3, [r2, #316]	; 0x13c
87803a68:	bd08      	pop	{r3, pc}
87803a6a:	bf00      	nop

87803a6c <vTaskSuspend>:
87803a6c:	b570      	push	{r4, r5, r6, lr}
87803a6e:	4605      	mov	r5, r0
87803a70:	f641 6488 	movw	r4, #7816	; 0x1e88
87803a74:	f6c8 0400 	movt	r4, #34816	; 0x8800
87803a78:	f001 f8ae 	bl	87804bd8 <vPortEnterCritical>
87803a7c:	2d00      	cmp	r5, #0
87803a7e:	d03d      	beq.n	87803afc <vTaskSuspend+0x90>
87803a80:	1d2e      	adds	r6, r5, #4
87803a82:	4630      	mov	r0, r6
87803a84:	f7ff f9b0 	bl	87802de8 <uxListRemove>
87803a88:	b930      	cbnz	r0, 87803a98 <vTaskSuspend+0x2c>
87803a8a:	6ae9      	ldr	r1, [r5, #44]	; 0x2c
87803a8c:	eb01 0381 	add.w	r3, r1, r1, lsl #2
87803a90:	eb04 0383 	add.w	r3, r4, r3, lsl #2
87803a94:	6c5b      	ldr	r3, [r3, #68]	; 0x44
87803a96:	b193      	cbz	r3, 87803abe <vTaskSuspend+0x52>
87803a98:	6aab      	ldr	r3, [r5, #40]	; 0x28
87803a9a:	b11b      	cbz	r3, 87803aa4 <vTaskSuspend+0x38>
87803a9c:	f105 0018 	add.w	r0, r5, #24
87803aa0:	f7ff f9a2 	bl	87802de8 <uxListRemove>
87803aa4:	4631      	mov	r1, r6
87803aa6:	481d      	ldr	r0, [pc, #116]	; (87803b1c <vTaskSuspend+0xb0>)
87803aa8:	f7ff f974 	bl	87802d94 <vListInsertEnd>
87803aac:	f001 f8d6 	bl	87804c5c <vPortExitCritical>
87803ab0:	f8d4 3120 	ldr.w	r3, [r4, #288]	; 0x120
87803ab4:	b953      	cbnz	r3, 87803acc <vTaskSuspend+0x60>
87803ab6:	6863      	ldr	r3, [r4, #4]
87803ab8:	429d      	cmp	r5, r3
87803aba:	d013      	beq.n	87803ae4 <vTaskSuspend+0x78>
87803abc:	bd70      	pop	{r4, r5, r6, pc}
87803abe:	68a3      	ldr	r3, [r4, #8]
87803ac0:	2201      	movs	r2, #1
87803ac2:	408a      	lsls	r2, r1
87803ac4:	ea23 0302 	bic.w	r3, r3, r2
87803ac8:	60a3      	str	r3, [r4, #8]
87803aca:	e7e5      	b.n	87803a98 <vTaskSuspend+0x2c>
87803acc:	f001 f884 	bl	87804bd8 <vPortEnterCritical>
87803ad0:	6a63      	ldr	r3, [r4, #36]	; 0x24
87803ad2:	681b      	ldr	r3, [r3, #0]
87803ad4:	b173      	cbz	r3, 87803af4 <vTaskSuspend+0x88>
87803ad6:	f7ff fb41 	bl	8780315c <prvResetNextTaskUnblockTime.part.0>
87803ada:	f001 f8bf 	bl	87804c5c <vPortExitCritical>
87803ade:	6863      	ldr	r3, [r4, #4]
87803ae0:	429d      	cmp	r5, r3
87803ae2:	d1eb      	bne.n	87803abc <vTaskSuspend+0x50>
87803ae4:	f8d4 3120 	ldr.w	r3, [r4, #288]	; 0x120
87803ae8:	b153      	cbz	r3, 87803b00 <vTaskSuspend+0x94>
87803aea:	f8d4 312c 	ldr.w	r3, [r4, #300]	; 0x12c
87803aee:	b98b      	cbnz	r3, 87803b14 <vTaskSuspend+0xa8>
87803af0:	df00      	svc	0
87803af2:	bd70      	pop	{r4, r5, r6, pc}
87803af4:	f04f 33ff 	mov.w	r3, #4294967295	; 0xffffffff
87803af8:	62a3      	str	r3, [r4, #40]	; 0x28
87803afa:	e7ee      	b.n	87803ada <vTaskSuspend+0x6e>
87803afc:	6865      	ldr	r5, [r4, #4]
87803afe:	e7bf      	b.n	87803a80 <vTaskSuspend+0x14>
87803b00:	6c22      	ldr	r2, [r4, #64]	; 0x40
87803b02:	68e1      	ldr	r1, [r4, #12]
87803b04:	4291      	cmp	r1, r2
87803b06:	d003      	beq.n	87803b10 <vTaskSuspend+0xa4>
87803b08:	e8bd 4070 	ldmia.w	sp!, {r4, r5, r6, lr}
87803b0c:	f7ff bf84 	b.w	87803a18 <vTaskSwitchContext>
87803b10:	6063      	str	r3, [r4, #4]
87803b12:	bd70      	pop	{r4, r5, r6, pc}
87803b14:	f001 f8e2 	bl	87804cdc <ulPortSetInterruptMask>
87803b18:	e7fe      	b.n	87803b18 <vTaskSuspend+0xac>
87803b1a:	bf00      	nop
87803b1c:	88001e94 	stmdahi	r0, {r2, r4, r7, r9, sl, fp, ip}

87803b20 <vTaskPlaceOnEventList>:
87803b20:	b510      	push	{r4, lr}
87803b22:	b170      	cbz	r0, 87803b42 <vTaskPlaceOnEventList+0x22>
87803b24:	f641 6388 	movw	r3, #7816	; 0x1e88
87803b28:	460c      	mov	r4, r1
87803b2a:	f6c8 0300 	movt	r3, #34816	; 0x8800
87803b2e:	6859      	ldr	r1, [r3, #4]
87803b30:	3118      	adds	r1, #24
87803b32:	f7ff f93f 	bl	87802db4 <vListInsert>
87803b36:	4620      	mov	r0, r4
87803b38:	2101      	movs	r1, #1
87803b3a:	e8bd 4010 	ldmia.w	sp!, {r4, lr}
87803b3e:	f7ff bacf 	b.w	878030e0 <prvAddCurrentTaskToDelayedList>
87803b42:	f001 f8cb 	bl	87804cdc <ulPortSetInterruptMask>
87803b46:	e7fe      	b.n	87803b46 <vTaskPlaceOnEventList+0x26>

87803b48 <vTaskPlaceOnUnorderedEventList>:
87803b48:	b510      	push	{r4, lr}
87803b4a:	b1c8      	cbz	r0, 87803b80 <vTaskPlaceOnUnorderedEventList+0x38>
87803b4c:	f641 6388 	movw	r3, #7816	; 0x1e88
87803b50:	4614      	mov	r4, r2
87803b52:	f6c8 0300 	movt	r3, #34816	; 0x8800
87803b56:	f8d3 212c 	ldr.w	r2, [r3, #300]	; 0x12c
87803b5a:	b912      	cbnz	r2, 87803b62 <vTaskPlaceOnUnorderedEventList+0x1a>
87803b5c:	f001 f8be 	bl	87804cdc <ulPortSetInterruptMask>
87803b60:	e7fe      	b.n	87803b60 <vTaskPlaceOnUnorderedEventList+0x18>
87803b62:	685a      	ldr	r2, [r3, #4]
87803b64:	f041 4100 	orr.w	r1, r1, #2147483648	; 0x80000000
87803b68:	685b      	ldr	r3, [r3, #4]
87803b6a:	6191      	str	r1, [r2, #24]
87803b6c:	f103 0118 	add.w	r1, r3, #24
87803b70:	f7ff f910 	bl	87802d94 <vListInsertEnd>
87803b74:	4620      	mov	r0, r4
87803b76:	2101      	movs	r1, #1
87803b78:	e8bd 4010 	ldmia.w	sp!, {r4, lr}
87803b7c:	f7ff bab0 	b.w	878030e0 <prvAddCurrentTaskToDelayedList>
87803b80:	f001 f8ac 	bl	87804cdc <ulPortSetInterruptMask>
87803b84:	e7fe      	b.n	87803b84 <vTaskPlaceOnUnorderedEventList+0x3c>
87803b86:	bf00      	nop

87803b88 <vTaskPlaceOnEventListRestricted>:
87803b88:	b538      	push	{r3, r4, r5, lr}
87803b8a:	b198      	cbz	r0, 87803bb4 <vTaskPlaceOnEventListRestricted+0x2c>
87803b8c:	f641 6388 	movw	r3, #7816	; 0x1e88
87803b90:	460d      	mov	r5, r1
87803b92:	f6c8 0300 	movt	r3, #34816	; 0x8800
87803b96:	4614      	mov	r4, r2
87803b98:	6859      	ldr	r1, [r3, #4]
87803b9a:	3118      	adds	r1, #24
87803b9c:	f7ff f8fa 	bl	87802d94 <vListInsertEnd>
87803ba0:	2c00      	cmp	r4, #0
87803ba2:	4621      	mov	r1, r4
87803ba4:	bf0c      	ite	eq
87803ba6:	4628      	moveq	r0, r5
87803ba8:	f04f 30ff 	movne.w	r0, #4294967295	; 0xffffffff
87803bac:	e8bd 4038 	ldmia.w	sp!, {r3, r4, r5, lr}
87803bb0:	f7ff ba96 	b.w	878030e0 <prvAddCurrentTaskToDelayedList>
87803bb4:	f001 f892 	bl	87804cdc <ulPortSetInterruptMask>
87803bb8:	e7fe      	b.n	87803bb8 <vTaskPlaceOnEventListRestricted+0x30>
87803bba:	bf00      	nop

87803bbc <xTaskRemoveFromEventList>:
87803bbc:	b5f8      	push	{r3, r4, r5, r6, r7, lr}
87803bbe:	68c3      	ldr	r3, [r0, #12]
87803bc0:	68dd      	ldr	r5, [r3, #12]
87803bc2:	b375      	cbz	r5, 87803c22 <xTaskRemoveFromEventList+0x66>
87803bc4:	f105 0618 	add.w	r6, r5, #24
87803bc8:	f641 6488 	movw	r4, #7816	; 0x1e88
87803bcc:	4630      	mov	r0, r6
87803bce:	f6c8 0400 	movt	r4, #34816	; 0x8800
87803bd2:	f7ff f909 	bl	87802de8 <uxListRemove>
87803bd6:	f8d4 312c 	ldr.w	r3, [r4, #300]	; 0x12c
87803bda:	b9e3      	cbnz	r3, 87803c16 <xTaskRemoveFromEventList+0x5a>
87803bdc:	1d2e      	adds	r6, r5, #4
87803bde:	4630      	mov	r0, r6
87803be0:	f7ff f902 	bl	87802de8 <uxListRemove>
87803be4:	6aea      	ldr	r2, [r5, #44]	; 0x2c
87803be6:	2301      	movs	r3, #1
87803be8:	68a7      	ldr	r7, [r4, #8]
87803bea:	f104 0044 	add.w	r0, r4, #68	; 0x44
87803bee:	4631      	mov	r1, r6
87803bf0:	4093      	lsls	r3, r2
87803bf2:	eb02 0282 	add.w	r2, r2, r2, lsl #2
87803bf6:	433b      	orrs	r3, r7
87803bf8:	eb00 0082 	add.w	r0, r0, r2, lsl #2
87803bfc:	60a3      	str	r3, [r4, #8]
87803bfe:	f7ff f8c9 	bl	87802d94 <vListInsertEnd>
87803c02:	6863      	ldr	r3, [r4, #4]
87803c04:	6aea      	ldr	r2, [r5, #44]	; 0x2c
87803c06:	6adb      	ldr	r3, [r3, #44]	; 0x2c
87803c08:	429a      	cmp	r2, r3
87803c0a:	bf8a      	itet	hi
87803c0c:	2001      	movhi	r0, #1
87803c0e:	2000      	movls	r0, #0
87803c10:	f8c4 013c 	strhi.w	r0, [r4, #316]	; 0x13c
87803c14:	bdf8      	pop	{r3, r4, r5, r6, r7, pc}
87803c16:	4631      	mov	r1, r6
87803c18:	f104 002c 	add.w	r0, r4, #44	; 0x2c
87803c1c:	f7ff f8ba 	bl	87802d94 <vListInsertEnd>
87803c20:	e7ef      	b.n	87803c02 <xTaskRemoveFromEventList+0x46>
87803c22:	f001 f85b 	bl	87804cdc <ulPortSetInterruptMask>
87803c26:	e7fe      	b.n	87803c26 <xTaskRemoveFromEventList+0x6a>

87803c28 <xTaskRemoveFromUnorderedEventList>:
87803c28:	b5f8      	push	{r3, r4, r5, r6, r7, lr}
87803c2a:	f641 6488 	movw	r4, #7816	; 0x1e88
87803c2e:	f6c8 0400 	movt	r4, #34816	; 0x8800
87803c32:	f8d4 312c 	ldr.w	r3, [r4, #300]	; 0x12c
87803c36:	b323      	cbz	r3, 87803c82 <xTaskRemoveFromUnorderedEventList+0x5a>
87803c38:	68c6      	ldr	r6, [r0, #12]
87803c3a:	f041 4100 	orr.w	r1, r1, #2147483648	; 0x80000000
87803c3e:	6001      	str	r1, [r0, #0]
87803c40:	b316      	cbz	r6, 87803c88 <xTaskRemoveFromUnorderedEventList+0x60>
87803c42:	1d37      	adds	r7, r6, #4
87803c44:	2501      	movs	r5, #1
87803c46:	f7ff f8cf 	bl	87802de8 <uxListRemove>
87803c4a:	4638      	mov	r0, r7
87803c4c:	f7ff f8cc 	bl	87802de8 <uxListRemove>
87803c50:	6af3      	ldr	r3, [r6, #44]	; 0x2c
87803c52:	4639      	mov	r1, r7
87803c54:	68a7      	ldr	r7, [r4, #8]
87803c56:	f104 0044 	add.w	r0, r4, #68	; 0x44
87803c5a:	fa05 f203 	lsl.w	r2, r5, r3
87803c5e:	eb03 0383 	add.w	r3, r3, r3, lsl #2
87803c62:	433a      	orrs	r2, r7
87803c64:	eb00 0083 	add.w	r0, r0, r3, lsl #2
87803c68:	60a2      	str	r2, [r4, #8]
87803c6a:	f7ff f893 	bl	87802d94 <vListInsertEnd>
87803c6e:	6863      	ldr	r3, [r4, #4]
87803c70:	6af2      	ldr	r2, [r6, #44]	; 0x2c
87803c72:	6adb      	ldr	r3, [r3, #44]	; 0x2c
87803c74:	429a      	cmp	r2, r3
87803c76:	bf86      	itte	hi
87803c78:	4628      	movhi	r0, r5
87803c7a:	f8c4 513c 	strhi.w	r5, [r4, #316]	; 0x13c
87803c7e:	2000      	movls	r0, #0
87803c80:	bdf8      	pop	{r3, r4, r5, r6, r7, pc}
87803c82:	f001 f82b 	bl	87804cdc <ulPortSetInterruptMask>
87803c86:	e7fe      	b.n	87803c86 <xTaskRemoveFromUnorderedEventList+0x5e>
87803c88:	f001 f828 	bl	87804cdc <ulPortSetInterruptMask>
87803c8c:	e7fe      	b.n	87803c8c <xTaskRemoveFromUnorderedEventList+0x64>
87803c8e:	bf00      	nop

87803c90 <vTaskSetTimeOutState>:
87803c90:	b508      	push	{r3, lr}
87803c92:	b148      	cbz	r0, 87803ca8 <vTaskSetTimeOutState+0x18>
87803c94:	f641 6388 	movw	r3, #7816	; 0x1e88
87803c98:	f6c8 0300 	movt	r3, #34816	; 0x8800
87803c9c:	f8d3 2134 	ldr.w	r2, [r3, #308]	; 0x134
87803ca0:	681b      	ldr	r3, [r3, #0]
87803ca2:	e880 000c 	stmia.w	r0, {r2, r3}
87803ca6:	bd08      	pop	{r3, pc}
87803ca8:	f001 f818 	bl	87804cdc <ulPortSetInterruptMask>
87803cac:	e7fe      	b.n	87803cac <vTaskSetTimeOutState+0x1c>
87803cae:	bf00      	nop

87803cb0 <xTaskCheckForTimeOut>:
87803cb0:	b570      	push	{r4, r5, r6, lr}
87803cb2:	b370      	cbz	r0, 87803d12 <xTaskCheckForTimeOut+0x62>
87803cb4:	460d      	mov	r5, r1
87803cb6:	b349      	cbz	r1, 87803d0c <xTaskCheckForTimeOut+0x5c>
87803cb8:	4604      	mov	r4, r0
87803cba:	f000 ff8d 	bl	87804bd8 <vPortEnterCritical>
87803cbe:	682b      	ldr	r3, [r5, #0]
87803cc0:	f641 6288 	movw	r2, #7816	; 0x1e88
87803cc4:	f6c8 0200 	movt	r2, #34816	; 0x8800
87803cc8:	6811      	ldr	r1, [r2, #0]
87803cca:	1c58      	adds	r0, r3, #1
87803ccc:	bf08      	it	eq
87803cce:	2500      	moveq	r5, #0
87803cd0:	d013      	beq.n	87803cfa <xTaskCheckForTimeOut+0x4a>
87803cd2:	f8d2 0134 	ldr.w	r0, [r2, #308]	; 0x134
87803cd6:	6826      	ldr	r6, [r4, #0]
87803cd8:	4286      	cmp	r6, r0
87803cda:	6860      	ldr	r0, [r4, #4]
87803cdc:	d001      	beq.n	87803ce2 <xTaskCheckForTimeOut+0x32>
87803cde:	4281      	cmp	r1, r0
87803ce0:	d20f      	bcs.n	87803d02 <xTaskCheckForTimeOut+0x52>
87803ce2:	1a0e      	subs	r6, r1, r0
87803ce4:	42b3      	cmp	r3, r6
87803ce6:	d90c      	bls.n	87803d02 <xTaskCheckForTimeOut+0x52>
87803ce8:	1a5b      	subs	r3, r3, r1
87803cea:	f8d2 6134 	ldr.w	r6, [r2, #308]	; 0x134
87803cee:	4403      	add	r3, r0
87803cf0:	6812      	ldr	r2, [r2, #0]
87803cf2:	602b      	str	r3, [r5, #0]
87803cf4:	2500      	movs	r5, #0
87803cf6:	6026      	str	r6, [r4, #0]
87803cf8:	6062      	str	r2, [r4, #4]
87803cfa:	f000 ffaf 	bl	87804c5c <vPortExitCritical>
87803cfe:	4628      	mov	r0, r5
87803d00:	bd70      	pop	{r4, r5, r6, pc}
87803d02:	2501      	movs	r5, #1
87803d04:	f000 ffaa 	bl	87804c5c <vPortExitCritical>
87803d08:	4628      	mov	r0, r5
87803d0a:	bd70      	pop	{r4, r5, r6, pc}
87803d0c:	f000 ffe6 	bl	87804cdc <ulPortSetInterruptMask>
87803d10:	e7fe      	b.n	87803d10 <xTaskCheckForTimeOut+0x60>
87803d12:	f000 ffe3 	bl	87804cdc <ulPortSetInterruptMask>
87803d16:	e7fe      	b.n	87803d16 <xTaskCheckForTimeOut+0x66>

87803d18 <vTaskMissedYield>:
87803d18:	f641 6388 	movw	r3, #7816	; 0x1e88
87803d1c:	2201      	movs	r2, #1
87803d1e:	f6c8 0300 	movt	r3, #34816	; 0x8800
87803d22:	f8c3 213c 	str.w	r2, [r3, #316]	; 0x13c
87803d26:	4770      	bx	lr

87803d28 <uxTaskGetTaskNumber>:
87803d28:	b100      	cbz	r0, 87803d2c <uxTaskGetTaskNumber+0x4>
87803d2a:	6d00      	ldr	r0, [r0, #80]	; 0x50
87803d2c:	4770      	bx	lr
87803d2e:	bf00      	nop

87803d30 <vTaskSetTaskNumber>:
87803d30:	b100      	cbz	r0, 87803d34 <vTaskSetTaskNumber+0x4>
87803d32:	6501      	str	r1, [r0, #80]	; 0x50
87803d34:	4770      	bx	lr
87803d36:	bf00      	nop

87803d38 <vTaskSetThreadLocalStoragePointer>:
87803d38:	2904      	cmp	r1, #4
87803d3a:	dc03      	bgt.n	87803d44 <vTaskSetThreadLocalStoragePointer+0xc>
87803d3c:	b118      	cbz	r0, 87803d46 <vTaskSetThreadLocalStoragePointer+0xe>
87803d3e:	eb00 0181 	add.w	r1, r0, r1, lsl #2
87803d42:	65ca      	str	r2, [r1, #92]	; 0x5c
87803d44:	4770      	bx	lr
87803d46:	f641 6388 	movw	r3, #7816	; 0x1e88
87803d4a:	f6c8 0300 	movt	r3, #34816	; 0x8800
87803d4e:	6858      	ldr	r0, [r3, #4]
87803d50:	e7f5      	b.n	87803d3e <vTaskSetThreadLocalStoragePointer+0x6>
87803d52:	bf00      	nop

87803d54 <pvTaskGetThreadLocalStoragePointer>:
87803d54:	2904      	cmp	r1, #4
87803d56:	dc0d      	bgt.n	87803d74 <pvTaskGetThreadLocalStoragePointer+0x20>
87803d58:	b118      	cbz	r0, 87803d62 <pvTaskGetThreadLocalStoragePointer+0xe>
87803d5a:	eb00 0081 	add.w	r0, r0, r1, lsl #2
87803d5e:	6dc0      	ldr	r0, [r0, #92]	; 0x5c
87803d60:	4770      	bx	lr
87803d62:	f641 6388 	movw	r3, #7816	; 0x1e88
87803d66:	f6c8 0300 	movt	r3, #34816	; 0x8800
87803d6a:	6858      	ldr	r0, [r3, #4]
87803d6c:	eb00 0081 	add.w	r0, r0, r1, lsl #2
87803d70:	6dc0      	ldr	r0, [r0, #92]	; 0x5c
87803d72:	4770      	bx	lr
87803d74:	2000      	movs	r0, #0
87803d76:	4770      	bx	lr

87803d78 <vTaskGetInfo>:
87803d78:	e92d 41f0 	stmdb	sp!, {r4, r5, r6, r7, r8, lr}
87803d7c:	460c      	mov	r4, r1
87803d7e:	4690      	mov	r8, r2
87803d80:	461f      	mov	r7, r3
87803d82:	4606      	mov	r6, r0
87803d84:	4605      	mov	r5, r0
87803d86:	2800      	cmp	r0, #0
87803d88:	d040      	beq.n	87803e0c <vTaskGetInfo+0x94>
87803d8a:	6aeb      	ldr	r3, [r5, #44]	; 0x2c
87803d8c:	f105 0034 	add.w	r0, r5, #52	; 0x34
87803d90:	6b29      	ldr	r1, [r5, #48]	; 0x30
87803d92:	6cea      	ldr	r2, [r5, #76]	; 0x4c
87803d94:	6123      	str	r3, [r4, #16]
87803d96:	68e3      	ldr	r3, [r4, #12]
87803d98:	6025      	str	r5, [r4, #0]
87803d9a:	61e1      	str	r1, [r4, #28]
87803d9c:	2b03      	cmp	r3, #3
87803d9e:	60a2      	str	r2, [r4, #8]
87803da0:	6060      	str	r0, [r4, #4]
87803da2:	d01e      	beq.n	87803de2 <vTaskGetInfo+0x6a>
87803da4:	6d6b      	ldr	r3, [r5, #84]	; 0x54
87803da6:	2f05      	cmp	r7, #5
87803da8:	f04f 0200 	mov.w	r2, #0
87803dac:	bf18      	it	ne
87803dae:	60e7      	strne	r7, [r4, #12]
87803db0:	61a2      	str	r2, [r4, #24]
87803db2:	6163      	str	r3, [r4, #20]
87803db4:	d025      	beq.n	87803e02 <vTaskGetInfo+0x8a>
87803db6:	f1b8 0f00 	cmp.w	r8, #0
87803dba:	d00e      	beq.n	87803dda <vTaskGetInfo+0x62>
87803dbc:	6b29      	ldr	r1, [r5, #48]	; 0x30
87803dbe:	780b      	ldrb	r3, [r1, #0]
87803dc0:	2ba5      	cmp	r3, #165	; 0xa5
87803dc2:	d129      	bne.n	87803e18 <vTaskGetInfo+0xa0>
87803dc4:	1c4b      	adds	r3, r1, #1
87803dc6:	1a58      	subs	r0, r3, r1
87803dc8:	f813 2b01 	ldrb.w	r2, [r3], #1
87803dcc:	2aa5      	cmp	r2, #165	; 0xa5
87803dce:	d0fa      	beq.n	87803dc6 <vTaskGetInfo+0x4e>
87803dd0:	f3c0 008f 	ubfx	r0, r0, #2, #16
87803dd4:	8420      	strh	r0, [r4, #32]
87803dd6:	e8bd 81f0 	ldmia.w	sp!, {r4, r5, r6, r7, r8, pc}
87803dda:	f8a4 8020 	strh.w	r8, [r4, #32]
87803dde:	e8bd 81f0 	ldmia.w	sp!, {r4, r5, r6, r7, r8, pc}
87803de2:	f641 6388 	movw	r3, #7816	; 0x1e88
87803de6:	6aa9      	ldr	r1, [r5, #40]	; 0x28
87803de8:	f6c8 0300 	movt	r3, #34816	; 0x8800
87803dec:	f8d3 212c 	ldr.w	r2, [r3, #300]	; 0x12c
87803df0:	3201      	adds	r2, #1
87803df2:	f8c3 212c 	str.w	r2, [r3, #300]	; 0x12c
87803df6:	b109      	cbz	r1, 87803dfc <vTaskGetInfo+0x84>
87803df8:	2302      	movs	r3, #2
87803dfa:	60e3      	str	r3, [r4, #12]
87803dfc:	f7ff fd1a 	bl	87803834 <xTaskResumeAll>
87803e00:	e7d0      	b.n	87803da4 <vTaskGetInfo+0x2c>
87803e02:	4630      	mov	r0, r6
87803e04:	f7ff faf8 	bl	878033f8 <eTaskGetState>
87803e08:	60e0      	str	r0, [r4, #12]
87803e0a:	e7d4      	b.n	87803db6 <vTaskGetInfo+0x3e>
87803e0c:	f641 6388 	movw	r3, #7816	; 0x1e88
87803e10:	f6c8 0300 	movt	r3, #34816	; 0x8800
87803e14:	685d      	ldr	r5, [r3, #4]
87803e16:	e7b8      	b.n	87803d8a <vTaskGetInfo+0x12>
87803e18:	2000      	movs	r0, #0
87803e1a:	e7db      	b.n	87803dd4 <vTaskGetInfo+0x5c>

87803e1c <prvListTasksWithinSingleList.part.3>:
87803e1c:	684b      	ldr	r3, [r1, #4]
87803e1e:	e92d 47f0 	stmdb	sp!, {r4, r5, r6, r7, r8, r9, sl, lr}
87803e22:	f101 0808 	add.w	r8, r1, #8
87803e26:	460e      	mov	r6, r1
87803e28:	4692      	mov	sl, r2
87803e2a:	4605      	mov	r5, r0
87803e2c:	2700      	movs	r7, #0
87803e2e:	685b      	ldr	r3, [r3, #4]
87803e30:	4543      	cmp	r3, r8
87803e32:	604b      	str	r3, [r1, #4]
87803e34:	bf08      	it	eq
87803e36:	68cb      	ldreq	r3, [r1, #12]
87803e38:	f8d3 900c 	ldr.w	r9, [r3, #12]
87803e3c:	e000      	b.n	87803e40 <prvListTasksWithinSingleList.part.3+0x24>
87803e3e:	6873      	ldr	r3, [r6, #4]
87803e40:	685c      	ldr	r4, [r3, #4]
87803e42:	4629      	mov	r1, r5
87803e44:	2201      	movs	r2, #1
87803e46:	4653      	mov	r3, sl
87803e48:	4417      	add	r7, r2
87803e4a:	3524      	adds	r5, #36	; 0x24
87803e4c:	45a0      	cmp	r8, r4
87803e4e:	6074      	str	r4, [r6, #4]
87803e50:	bf04      	itt	eq
87803e52:	68f4      	ldreq	r4, [r6, #12]
87803e54:	6074      	streq	r4, [r6, #4]
87803e56:	68e4      	ldr	r4, [r4, #12]
87803e58:	4620      	mov	r0, r4
87803e5a:	f7ff ff8d 	bl	87803d78 <vTaskGetInfo>
87803e5e:	45a1      	cmp	r9, r4
87803e60:	d1ed      	bne.n	87803e3e <prvListTasksWithinSingleList.part.3+0x22>
87803e62:	4638      	mov	r0, r7
87803e64:	e8bd 87f0 	ldmia.w	sp!, {r4, r5, r6, r7, r8, r9, sl, pc}

87803e68 <uxTaskGetSystemState>:
87803e68:	e92d 43f8 	stmdb	sp!, {r3, r4, r5, r6, r7, r8, r9, lr}
87803e6c:	f641 6888 	movw	r8, #7816	; 0x1e88
87803e70:	f6c8 0800 	movt	r8, #34816	; 0x8800
87803e74:	f8d8 312c 	ldr.w	r3, [r8, #300]	; 0x12c
87803e78:	3301      	adds	r3, #1
87803e7a:	f8c8 312c 	str.w	r3, [r8, #300]	; 0x12c
87803e7e:	f8d8 3040 	ldr.w	r3, [r8, #64]	; 0x40
87803e82:	428b      	cmp	r3, r1
87803e84:	bf88      	it	hi
87803e86:	2400      	movhi	r4, #0
87803e88:	d82f      	bhi.n	87803eea <uxTaskGetSystemState+0x82>
87803e8a:	4607      	mov	r7, r0
87803e8c:	4616      	mov	r6, r2
87803e8e:	f108 04d0 	add.w	r4, r8, #208	; 0xd0
87803e92:	f108 0930 	add.w	r9, r8, #48	; 0x30
87803e96:	2500      	movs	r5, #0
87803e98:	e003      	b.n	87803ea2 <uxTaskGetSystemState+0x3a>
87803e9a:	3c14      	subs	r4, #20
87803e9c:	4405      	add	r5, r0
87803e9e:	45a1      	cmp	r9, r4
87803ea0:	d00e      	beq.n	87803ec0 <uxTaskGetSystemState+0x58>
87803ea2:	6820      	ldr	r0, [r4, #0]
87803ea4:	2800      	cmp	r0, #0
87803ea6:	d0f8      	beq.n	87803e9a <uxTaskGetSystemState+0x32>
87803ea8:	eb05 00c5 	add.w	r0, r5, r5, lsl #3
87803eac:	4621      	mov	r1, r4
87803eae:	2201      	movs	r2, #1
87803eb0:	eb07 0080 	add.w	r0, r7, r0, lsl #2
87803eb4:	3c14      	subs	r4, #20
87803eb6:	f7ff ffb1 	bl	87803e1c <prvListTasksWithinSingleList.part.3>
87803eba:	45a1      	cmp	r9, r4
87803ebc:	4405      	add	r5, r0
87803ebe:	d1f0      	bne.n	87803ea2 <uxTaskGetSystemState+0x3a>
87803ec0:	f8d8 1024 	ldr.w	r1, [r8, #36]	; 0x24
87803ec4:	6808      	ldr	r0, [r1, #0]
87803ec6:	b9f0      	cbnz	r0, 87803f06 <uxTaskGetSystemState+0x9e>
87803ec8:	f8d8 1020 	ldr.w	r1, [r8, #32]
87803ecc:	182c      	adds	r4, r5, r0
87803ece:	6808      	ldr	r0, [r1, #0]
87803ed0:	bb30      	cbnz	r0, 87803f20 <uxTaskGetSystemState+0xb8>
87803ed2:	f8d8 310c 	ldr.w	r3, [r8, #268]	; 0x10c
87803ed6:	4404      	add	r4, r0
87803ed8:	bb73      	cbnz	r3, 87803f38 <uxTaskGetSystemState+0xd0>
87803eda:	f8d8 000c 	ldr.w	r0, [r8, #12]
87803ede:	441c      	add	r4, r3
87803ee0:	b940      	cbnz	r0, 87803ef4 <uxTaskGetSystemState+0x8c>
87803ee2:	4404      	add	r4, r0
87803ee4:	b10e      	cbz	r6, 87803eea <uxTaskGetSystemState+0x82>
87803ee6:	2300      	movs	r3, #0
87803ee8:	6033      	str	r3, [r6, #0]
87803eea:	f7ff fca3 	bl	87803834 <xTaskResumeAll>
87803eee:	4620      	mov	r0, r4
87803ef0:	e8bd 83f8 	ldmia.w	sp!, {r3, r4, r5, r6, r7, r8, r9, pc}
87803ef4:	eb04 00c4 	add.w	r0, r4, r4, lsl #3
87803ef8:	2203      	movs	r2, #3
87803efa:	4917      	ldr	r1, [pc, #92]	; (87803f58 <uxTaskGetSystemState+0xf0>)
87803efc:	eb07 0080 	add.w	r0, r7, r0, lsl #2
87803f00:	f7ff ff8c 	bl	87803e1c <prvListTasksWithinSingleList.part.3>
87803f04:	e7ed      	b.n	87803ee2 <uxTaskGetSystemState+0x7a>
87803f06:	eb05 00c5 	add.w	r0, r5, r5, lsl #3
87803f0a:	2202      	movs	r2, #2
87803f0c:	eb07 0080 	add.w	r0, r7, r0, lsl #2
87803f10:	f7ff ff84 	bl	87803e1c <prvListTasksWithinSingleList.part.3>
87803f14:	f8d8 1020 	ldr.w	r1, [r8, #32]
87803f18:	182c      	adds	r4, r5, r0
87803f1a:	6808      	ldr	r0, [r1, #0]
87803f1c:	2800      	cmp	r0, #0
87803f1e:	d0d8      	beq.n	87803ed2 <uxTaskGetSystemState+0x6a>
87803f20:	eb04 00c4 	add.w	r0, r4, r4, lsl #3
87803f24:	2202      	movs	r2, #2
87803f26:	eb07 0080 	add.w	r0, r7, r0, lsl #2
87803f2a:	f7ff ff77 	bl	87803e1c <prvListTasksWithinSingleList.part.3>
87803f2e:	f8d8 310c 	ldr.w	r3, [r8, #268]	; 0x10c
87803f32:	4404      	add	r4, r0
87803f34:	2b00      	cmp	r3, #0
87803f36:	d0d0      	beq.n	87803eda <uxTaskGetSystemState+0x72>
87803f38:	eb04 00c4 	add.w	r0, r4, r4, lsl #3
87803f3c:	2204      	movs	r2, #4
87803f3e:	4907      	ldr	r1, [pc, #28]	; (87803f5c <uxTaskGetSystemState+0xf4>)
87803f40:	eb07 0080 	add.w	r0, r7, r0, lsl #2
87803f44:	f7ff ff6a 	bl	87803e1c <prvListTasksWithinSingleList.part.3>
87803f48:	4603      	mov	r3, r0
87803f4a:	f8d8 000c 	ldr.w	r0, [r8, #12]
87803f4e:	441c      	add	r4, r3
87803f50:	2800      	cmp	r0, #0
87803f52:	d0c6      	beq.n	87803ee2 <uxTaskGetSystemState+0x7a>
87803f54:	e7ce      	b.n	87803ef4 <uxTaskGetSystemState+0x8c>
87803f56:	bf00      	nop
87803f58:	88001e94 	stmdahi	r0, {r2, r4, r7, r9, sl, fp, ip}
87803f5c:	88001f94 	stmdahi	r0, {r2, r4, r7, r8, r9, sl, fp, ip}

87803f60 <xTaskGetCurrentTaskHandle>:
87803f60:	f641 6388 	movw	r3, #7816	; 0x1e88
87803f64:	f6c8 0300 	movt	r3, #34816	; 0x8800
87803f68:	6858      	ldr	r0, [r3, #4]
87803f6a:	4770      	bx	lr

87803f6c <xTaskGetSchedulerState>:
87803f6c:	f641 6388 	movw	r3, #7816	; 0x1e88
87803f70:	f6c8 0300 	movt	r3, #34816	; 0x8800
87803f74:	f8d3 2120 	ldr.w	r2, [r3, #288]	; 0x120
87803f78:	b132      	cbz	r2, 87803f88 <xTaskGetSchedulerState+0x1c>
87803f7a:	f8d3 312c 	ldr.w	r3, [r3, #300]	; 0x12c
87803f7e:	2b00      	cmp	r3, #0
87803f80:	bf0c      	ite	eq
87803f82:	2002      	moveq	r0, #2
87803f84:	2000      	movne	r0, #0
87803f86:	4770      	bx	lr
87803f88:	2001      	movs	r0, #1
87803f8a:	4770      	bx	lr

87803f8c <vTaskPriorityInherit>:
87803f8c:	2800      	cmp	r0, #0
87803f8e:	d043      	beq.n	87804018 <vTaskPriorityInherit+0x8c>
87803f90:	b5f8      	push	{r3, r4, r5, r6, r7, lr}
87803f92:	f641 6488 	movw	r4, #7816	; 0x1e88
87803f96:	f6c8 0400 	movt	r4, #34816	; 0x8800
87803f9a:	6ac3      	ldr	r3, [r0, #44]	; 0x2c
87803f9c:	6862      	ldr	r2, [r4, #4]
87803f9e:	6ad2      	ldr	r2, [r2, #44]	; 0x2c
87803fa0:	4293      	cmp	r3, r2
87803fa2:	d213      	bcs.n	87803fcc <vTaskPriorityInherit+0x40>
87803fa4:	6982      	ldr	r2, [r0, #24]
87803fa6:	eb03 0383 	add.w	r3, r3, r3, lsl #2
87803faa:	4d1c      	ldr	r5, [pc, #112]	; (8780401c <vTaskPriorityInherit+0x90>)
87803fac:	2a00      	cmp	r2, #0
87803fae:	bfa8      	it	ge
87803fb0:	6862      	ldrge	r2, [r4, #4]
87803fb2:	eb05 0383 	add.w	r3, r5, r3, lsl #2
87803fb6:	bfa2      	ittt	ge
87803fb8:	6ad2      	ldrge	r2, [r2, #44]	; 0x2c
87803fba:	f1c2 0208 	rsbge	r2, r2, #8
87803fbe:	6182      	strge	r2, [r0, #24]
87803fc0:	6942      	ldr	r2, [r0, #20]
87803fc2:	429a      	cmp	r2, r3
87803fc4:	d003      	beq.n	87803fce <vTaskPriorityInherit+0x42>
87803fc6:	6863      	ldr	r3, [r4, #4]
87803fc8:	6adb      	ldr	r3, [r3, #44]	; 0x2c
87803fca:	62c3      	str	r3, [r0, #44]	; 0x2c
87803fcc:	bdf8      	pop	{r3, r4, r5, r6, r7, pc}
87803fce:	1d07      	adds	r7, r0, #4
87803fd0:	4606      	mov	r6, r0
87803fd2:	4638      	mov	r0, r7
87803fd4:	f7fe ff08 	bl	87802de8 <uxListRemove>
87803fd8:	b968      	cbnz	r0, 87803ff6 <vTaskPriorityInherit+0x6a>
87803fda:	6af2      	ldr	r2, [r6, #44]	; 0x2c
87803fdc:	eb02 0382 	add.w	r3, r2, r2, lsl #2
87803fe0:	eb04 0383 	add.w	r3, r4, r3, lsl #2
87803fe4:	6c5b      	ldr	r3, [r3, #68]	; 0x44
87803fe6:	b933      	cbnz	r3, 87803ff6 <vTaskPriorityInherit+0x6a>
87803fe8:	68a3      	ldr	r3, [r4, #8]
87803fea:	2101      	movs	r1, #1
87803fec:	fa01 f202 	lsl.w	r2, r1, r2
87803ff0:	ea23 0202 	bic.w	r2, r3, r2
87803ff4:	60a2      	str	r2, [r4, #8]
87803ff6:	6860      	ldr	r0, [r4, #4]
87803ff8:	2301      	movs	r3, #1
87803ffa:	68a2      	ldr	r2, [r4, #8]
87803ffc:	4639      	mov	r1, r7
87803ffe:	6ac0      	ldr	r0, [r0, #44]	; 0x2c
87804000:	62f0      	str	r0, [r6, #44]	; 0x2c
87804002:	4083      	lsls	r3, r0
87804004:	eb00 0080 	add.w	r0, r0, r0, lsl #2
87804008:	4313      	orrs	r3, r2
8780400a:	eb05 0080 	add.w	r0, r5, r0, lsl #2
8780400e:	60a3      	str	r3, [r4, #8]
87804010:	e8bd 40f8 	ldmia.w	sp!, {r3, r4, r5, r6, r7, lr}
87804014:	f7fe bebe 	b.w	87802d94 <vListInsertEnd>
87804018:	4770      	bx	lr
8780401a:	bf00      	nop
8780401c:	88001ecc 	stmdahi	r0, {r2, r3, r6, r7, r9, sl, fp, ip}

87804020 <xTaskPriorityDisinherit>:
87804020:	b158      	cbz	r0, 8780403a <xTaskPriorityDisinherit+0x1a>
87804022:	b5f8      	push	{r3, r4, r5, r6, r7, lr}
87804024:	f641 6588 	movw	r5, #7816	; 0x1e88
87804028:	f6c8 0500 	movt	r5, #34816	; 0x8800
8780402c:	4604      	mov	r4, r0
8780402e:	686b      	ldr	r3, [r5, #4]
87804030:	4298      	cmp	r0, r3
87804032:	d004      	beq.n	8780403e <xTaskPriorityDisinherit+0x1e>
87804034:	f000 fe52 	bl	87804cdc <ulPortSetInterruptMask>
87804038:	e7fe      	b.n	87804038 <xTaskPriorityDisinherit+0x18>
8780403a:	2000      	movs	r0, #0
8780403c:	4770      	bx	lr
8780403e:	6d83      	ldr	r3, [r0, #88]	; 0x58
87804040:	b163      	cbz	r3, 8780405c <xTaskPriorityDisinherit+0x3c>
87804042:	6ac2      	ldr	r2, [r0, #44]	; 0x2c
87804044:	3b01      	subs	r3, #1
87804046:	6d41      	ldr	r1, [r0, #84]	; 0x54
87804048:	6583      	str	r3, [r0, #88]	; 0x58
8780404a:	1a52      	subs	r2, r2, r1
8780404c:	bf18      	it	ne
8780404e:	2201      	movne	r2, #1
87804050:	2b00      	cmp	r3, #0
87804052:	bf18      	it	ne
87804054:	2200      	movne	r2, #0
87804056:	b922      	cbnz	r2, 87804062 <xTaskPriorityDisinherit+0x42>
87804058:	2000      	movs	r0, #0
8780405a:	bdf8      	pop	{r3, r4, r5, r6, r7, pc}
8780405c:	f000 fe3e 	bl	87804cdc <ulPortSetInterruptMask>
87804060:	e7fe      	b.n	87804060 <xTaskPriorityDisinherit+0x40>
87804062:	1d07      	adds	r7, r0, #4
87804064:	4638      	mov	r0, r7
87804066:	f7fe febf 	bl	87802de8 <uxListRemove>
8780406a:	b960      	cbnz	r0, 87804086 <xTaskPriorityDisinherit+0x66>
8780406c:	6ae0      	ldr	r0, [r4, #44]	; 0x2c
8780406e:	eb00 0380 	add.w	r3, r0, r0, lsl #2
87804072:	eb05 0383 	add.w	r3, r5, r3, lsl #2
87804076:	6c5b      	ldr	r3, [r3, #68]	; 0x44
87804078:	b92b      	cbnz	r3, 87804086 <xTaskPriorityDisinherit+0x66>
8780407a:	68ab      	ldr	r3, [r5, #8]
8780407c:	2201      	movs	r2, #1
8780407e:	4082      	lsls	r2, r0
87804080:	ea23 0302 	bic.w	r3, r3, r2
87804084:	60ab      	str	r3, [r5, #8]
87804086:	6d63      	ldr	r3, [r4, #84]	; 0x54
87804088:	2601      	movs	r6, #1
8780408a:	480a      	ldr	r0, [pc, #40]	; (878040b4 <xTaskPriorityDisinherit+0x94>)
8780408c:	4639      	mov	r1, r7
8780408e:	f8d5 e008 	ldr.w	lr, [r5, #8]
87804092:	62e3      	str	r3, [r4, #44]	; 0x2c
87804094:	fa06 f203 	lsl.w	r2, r6, r3
87804098:	eb03 0783 	add.w	r7, r3, r3, lsl #2
8780409c:	f1c3 0308 	rsb	r3, r3, #8
878040a0:	ea42 020e 	orr.w	r2, r2, lr
