
hw_sim/task1_test/build/task1_test.elf:     file format elf32-littlearm


Disassembly of section .interrupts:

87800000 <__VECTOR_TABLE>:
87800000:	e59ff018 	ldr	pc, [pc, #24]	; 87800020 <__VECTOR_TABLE+0x20>
87800004:	e59ff018 	ldr	pc, [pc, #24]	; 87800024 <__VECTOR_TABLE+0x24>
87800008:	e59ff018 	ldr	pc, [pc, #24]	; 87800028 <__VECTOR_TABLE+0x28>
8780000c:	e59ff018 	ldr	pc, [pc, #24]	; 8780002c <__VECTOR_TABLE+0x2c>
87800010:	e59ff018 	ldr	pc, [pc, #24]	; 87800030 <__VECTOR_TABLE+0x30>
87800014:	00000000 	andeq	r0, r0, r0
87800018:	e59ff014 	ldr	pc, [pc, #20]	; 87800034 <__VECTOR_TABLE+0x34>
8780001c:	e59ff014 	ldr	pc, [pc, #20]	; 87800038 <__VECTOR_TABLE+0x38>
87800020:	87801490 			; <UNDEFINED> instruction: 0x87801490
87800024:	87801548 	strhi	r1, [r0, r8, asr #10]
87800028:	87801000 	strhi	r1, [r0, r0]
8780002c:	87801554 			; <UNDEFINED> instruction: 0x87801554
87800030:	8780155c 			; <UNDEFINED> instruction: 0x8780155c
87800034:	87801110 	usada8hi	r0, r0, r1, r1
87800038:	878015b8 			; <UNDEFINED> instruction: 0x878015b8

Disassembly of section .text:

87801000 <FreeRTOS_SWI_Handler>:
87801000:	f96d051f 	srsdb	sp!, #31
87801004:	f102001f 	cps	#31
87801008:	e92d5fff 	push	{r0, r1, r2, r3, r4, r5, r6, r7, r8, r9, sl, fp, ip, lr}
8780100c:	e59f22ac 	ldr	r2, [pc, #684]	; 878012c0 <ulCriticalNestingConst>
87801010:	e5921000 	ldr	r1, [r2]
87801014:	e52d1004 	push	{r1}		; (str r1, [sp, #-4]!)
87801018:	e59f22a4 	ldr	r2, [pc, #676]	; 878012c4 <ulPortTaskHasFPUContextConst>
8780101c:	e5923000 	ldr	r3, [r2]
87801020:	e3530000 	cmp	r3, #0
87801024:	1ef11a10 	vmrsne	r1, fpscr
87801028:	1d2d0b20 	vpushne	{d0-d15}
8780102c:	1d6d0b20 	vpushne	{d16-d31}
87801030:	152d1004 	pushne	{r1}		; (strne r1, [sp, #-4]!)
87801034:	e52d3004 	push	{r3}		; (str r3, [sp, #-4]!)
87801038:	e59f027c 	ldr	r0, [pc, #636]	; 878012bc <pxCurrentTCBConst>
8780103c:	e5901000 	ldr	r1, [r0]
87801040:	e581d000 	str	sp, [r1]
87801044:	e59f0280 	ldr	r0, [pc, #640]	; 878012cc <vTaskSwitchContextConst>
87801048:	e12fff30 	blx	r0
8780104c:	e59f0268 	ldr	r0, [pc, #616]	; 878012bc <pxCurrentTCBConst>
87801050:	e5901000 	ldr	r1, [r0]
87801054:	e591d000 	ldr	sp, [r1]
87801058:	e59f0264 	ldr	r0, [pc, #612]	; 878012c4 <ulPortTaskHasFPUContextConst>
8780105c:	e49d1004 	pop	{r1}		; (ldr r1, [sp], #4)
87801060:	e5801000 	str	r1, [r0]
87801064:	e3510000 	cmp	r1, #0
87801068:	149d0004 	popne	{r0}		; (ldrne r0, [sp], #4)
8780106c:	1cfd0b20 	vpopne	{d16-d31}
87801070:	1cbd0b20 	vpopne	{d0-d15}
87801074:	1ee10a10 	vmsrne	fpscr, r0
87801078:	e59f0240 	ldr	r0, [pc, #576]	; 878012c0 <ulCriticalNestingConst>
8780107c:	e49d1004 	pop	{r1}		; (ldr r1, [sp], #4)
87801080:	e5801000 	str	r1, [r0]
87801084:	e59f222c 	ldr	r2, [pc, #556]	; 878012b8 <ulICCPMRConst>
87801088:	e5922000 	ldr	r2, [r2]
8780108c:	e3510000 	cmp	r1, #0
87801090:	03a040ff 	moveq	r4, #255	; 0xff
87801094:	159f422c 	ldrne	r4, [pc, #556]	; 878012c8 <ulMaxAPIPriorityMaskConst>
87801098:	15944000 	ldrne	r4, [r4]
8780109c:	e5824000 	str	r4, [r2]
878010a0:	e8bd5fff 	pop	{r0, r1, r2, r3, r4, r5, r6, r7, r8, r9, sl, fp, ip, lr}
878010a4:	f8bd0a00 	rfeia	sp!

878010a8 <vPortRestoreTaskContext>:
878010a8:	f102001f 	cps	#31
878010ac:	e59f0208 	ldr	r0, [pc, #520]	; 878012bc <pxCurrentTCBConst>
878010b0:	e5901000 	ldr	r1, [r0]
878010b4:	e591d000 	ldr	sp, [r1]
878010b8:	e59f0204 	ldr	r0, [pc, #516]	; 878012c4 <ulPortTaskHasFPUContextConst>
878010bc:	e49d1004 	pop	{r1}		; (ldr r1, [sp], #4)
878010c0:	e5801000 	str	r1, [r0]
878010c4:	e3510000 	cmp	r1, #0
878010c8:	149d0004 	popne	{r0}		; (ldrne r0, [sp], #4)
878010cc:	1cfd0b20 	vpopne	{d16-d31}
878010d0:	1cbd0b20 	vpopne	{d0-d15}
878010d4:	1ee10a10 	vmsrne	fpscr, r0
878010d8:	e59f01e0 	ldr	r0, [pc, #480]	; 878012c0 <ulCriticalNestingConst>
878010dc:	e49d1004 	pop	{r1}		; (ldr r1, [sp], #4)
878010e0:	e5801000 	str	r1, [r0]
878010e4:	e59f21cc 	ldr	r2, [pc, #460]	; 878012b8 <ulICCPMRConst>
878010e8:	e5922000 	ldr	r2, [r2]
878010ec:	e3510000 	cmp	r1, #0
878010f0:	03a040ff 	moveq	r4, #255	; 0xff
878010f4:	159f41cc 	ldrne	r4, [pc, #460]	; 878012c8 <ulMaxAPIPriorityMaskConst>
878010f8:	15944000 	ldrne	r4, [r4]
878010fc:	e5824000 	str	r4, [r2]
87801100:	e8bd5fff 	pop	{r0, r1, r2, r3, r4, r5, r6, r7, r8, r9, sl, fp, ip, lr}
87801104:	f8bd0a00 	rfeia	sp!
87801108:	e320f000 	nop	{0}
8780110c:	e320f000 	nop	{0}

87801110 <FreeRTOS_IRQ_Handler>:
87801110:	e24ee004 	sub	lr, lr, #4
87801114:	e52de004 	push	{lr}		; (str lr, [sp, #-4]!)
87801118:	e14fe000 	mrs	lr, SPSR
8780111c:	e52de004 	push	{lr}		; (str lr, [sp, #-4]!)
87801120:	f1020013 	cps	#19
87801124:	e92d101f 	push	{r0, r1, r2, r3, r4, ip}
87801128:	e59f31a4 	ldr	r3, [pc, #420]	; 878012d4 <ulPortInterruptNestingConst>
8780112c:	e5931000 	ldr	r1, [r3]
87801130:	e2814001 	add	r4, r1, #1
87801134:	e5834000 	str	r4, [r3]
87801138:	e59f2170 	ldr	r2, [pc, #368]	; 878012b0 <ulICCIARConst>
8780113c:	e5922000 	ldr	r2, [r2]
87801140:	e5920000 	ldr	r0, [r2]
87801144:	e1a0200d 	mov	r2, sp
87801148:	e2022004 	and	r2, r2, #4
8780114c:	e04dd002 	sub	sp, sp, r2
87801150:	e92d400f 	push	{r0, r1, r2, r3, lr}
87801154:	e59f1180 	ldr	r1, [pc, #384]	; 878012dc <vApplicationFPUSafeIRQHandlerConst+0x4>
87801158:	e12fff31 	blx	r1
8780115c:	e8bd400f 	pop	{r0, r1, r2, r3, lr}
87801160:	e08dd002 	add	sp, sp, r2
87801164:	f10c0080 	cpsid	i
87801168:	f57ff04f 	dsb	sy
8780116c:	f57ff06f 	isb	sy
87801170:	e59f413c 	ldr	r4, [pc, #316]	; 878012b4 <ulICCEOIRConst>
87801174:	e5944000 	ldr	r4, [r4]
87801178:	e5840000 	str	r0, [r4]
8780117c:	e5831000 	str	r1, [r3]
87801180:	e3510000 	cmp	r1, #0
87801184:	1a000003 	bne	87801198 <exit_without_switch>
87801188:	e59f1150 	ldr	r1, [pc, #336]	; 878012e0 <vApplicationFPUSafeIRQHandlerConst+0x8>
8780118c:	e5910000 	ldr	r0, [r1]
87801190:	e3500000 	cmp	r0, #0
87801194:	1a000005 	bne	878011b0 <switch_before_exit>

87801198 <exit_without_switch>:
87801198:	e8bd101f 	pop	{r0, r1, r2, r3, r4, ip}
8780119c:	f1020012 	cps	#18
878011a0:	e49de004 	pop	{lr}		; (ldr lr, [sp], #4)
878011a4:	e16ff00e 	msr	SPSR_fsxc, lr
878011a8:	e49de004 	pop	{lr}		; (ldr lr, [sp], #4)
878011ac:	e1b0f00e 	movs	pc, lr

878011b0 <switch_before_exit>:
878011b0:	e3a00000 	mov	r0, #0
878011b4:	e5810000 	str	r0, [r1]
878011b8:	e8bd101f 	pop	{r0, r1, r2, r3, r4, ip}
878011bc:	f1020012 	cps	#18
878011c0:	e49de004 	pop	{lr}		; (ldr lr, [sp], #4)
878011c4:	e16ff00e 	msr	SPSR_fsxc, lr
878011c8:	e49de004 	pop	{lr}		; (ldr lr, [sp], #4)
878011cc:	f96d051f 	srsdb	sp!, #31
878011d0:	f102001f 	cps	#31
878011d4:	e92d5fff 	push	{r0, r1, r2, r3, r4, r5, r6, r7, r8, r9, sl, fp, ip, lr}
878011d8:	e59f20e0 	ldr	r2, [pc, #224]	; 878012c0 <ulCriticalNestingConst>
878011dc:	e5921000 	ldr	r1, [r2]
878011e0:	e52d1004 	push	{r1}		; (str r1, [sp, #-4]!)
878011e4:	e59f20d8 	ldr	r2, [pc, #216]	; 878012c4 <ulPortTaskHasFPUContextConst>
878011e8:	e5923000 	ldr	r3, [r2]
878011ec:	e3530000 	cmp	r3, #0
878011f0:	1ef11a10 	vmrsne	r1, fpscr
878011f4:	1d2d0b20 	vpushne	{d0-d15}
878011f8:	1d6d0b20 	vpushne	{d16-d31}
878011fc:	152d1004 	pushne	{r1}		; (strne r1, [sp, #-4]!)
87801200:	e52d3004 	push	{r3}		; (str r3, [sp, #-4]!)
87801204:	e59f00b0 	ldr	r0, [pc, #176]	; 878012bc <pxCurrentTCBConst>
87801208:	e5901000 	ldr	r1, [r0]
8780120c:	e581d000 	str	sp, [r1]
87801210:	e59f00b4 	ldr	r0, [pc, #180]	; 878012cc <vTaskSwitchContextConst>
87801214:	e12fff30 	blx	r0
87801218:	e59f009c 	ldr	r0, [pc, #156]	; 878012bc <pxCurrentTCBConst>
8780121c:	e5901000 	ldr	r1, [r0]
87801220:	e591d000 	ldr	sp, [r1]
87801224:	e59f0098 	ldr	r0, [pc, #152]	; 878012c4 <ulPortTaskHasFPUContextConst>
87801228:	e49d1004 	pop	{r1}		; (ldr r1, [sp], #4)
8780122c:	e5801000 	str	r1, [r0]
87801230:	e3510000 	cmp	r1, #0
87801234:	149d0004 	popne	{r0}		; (ldrne r0, [sp], #4)
87801238:	1cfd0b20 	vpopne	{d16-d31}
8780123c:	1cbd0b20 	vpopne	{d0-d15}
87801240:	1ee10a10 	vmsrne	fpscr, r0
87801244:	e59f0074 	ldr	r0, [pc, #116]	; 878012c0 <ulCriticalNestingConst>
87801248:	e49d1004 	pop	{r1}		; (ldr r1, [sp], #4)
8780124c:	e5801000 	str	r1, [r0]
87801250:	e59f2060 	ldr	r2, [pc, #96]	; 878012b8 <ulICCPMRConst>
87801254:	e5922000 	ldr	r2, [r2]
87801258:	e3510000 	cmp	r1, #0
8780125c:	03a040ff 	moveq	r4, #255	; 0xff
87801260:	159f4060 	ldrne	r4, [pc, #96]	; 878012c8 <ulMaxAPIPriorityMaskConst>
87801264:	15944000 	ldrne	r4, [r4]
87801268:	e5824000 	str	r4, [r2]
8780126c:	e8bd5fff 	pop	{r0, r1, r2, r3, r4, r5, r6, r7, r8, r9, sl, fp, ip, lr}
87801270:	f8bd0a00 	rfeia	sp!
87801274:	e320f000 	nop	{0}
87801278:	e320f000 	nop	{0}
8780127c:	e320f000 	nop	{0}

87801280 <vApplicationIRQHandler>:
87801280:	e52de004 	push	{lr}		; (str lr, [sp, #-4]!)
87801284:	eef11a10 	vmrs	r1, fpscr
87801288:	ed2d0b20 	vpush	{d0-d15}
8780128c:	ed6d0b20 	vpush	{d16-d31}
87801290:	e52d1004 	push	{r1}		; (str r1, [sp, #-4]!)
87801294:	e59f103c 	ldr	r1, [pc, #60]	; 878012d8 <vApplicationFPUSafeIRQHandlerConst>
87801298:	e12fff31 	blx	r1
8780129c:	e49d0004 	pop	{r0}		; (ldr r0, [sp], #4)
878012a0:	ecfd0b20 	vpop	{d16-d31}
878012a4:	ecbd0b20 	vpop	{d0-d15}
878012a8:	eee10a10 	vmsr	fpscr, r0
878012ac:	e49df004 	pop	{pc}		; (ldr pc, [sp], #4)

878012b0 <ulICCIARConst>:
878012b0:	878068b0 			; <UNDEFINED> instruction: 0x878068b0

878012b4 <ulICCEOIRConst>:
878012b4:	878068ac 	strhi	r6, [r0, ip, lsr #17]

878012b8 <ulICCPMRConst>:
878012b8:	878068a8 	strhi	r6, [r0, r8, lsr #17]

878012bc <pxCurrentTCBConst>:
878012bc:	88000110 	stmdahi	r0, {r4, r8}

878012c0 <ulCriticalNestingConst>:
878012c0:	88000000 	stmdahi	r0, {}	; <UNPREDICTABLE>

878012c4 <ulPortTaskHasFPUContextConst>:
878012c4:	88000290 	stmdahi	r0, {r4, r7, r9}

878012c8 <ulMaxAPIPriorityMaskConst>:
878012c8:	878068a4 	strhi	r6, [r0, r4, lsr #17]

878012cc <vTaskSwitchContextConst>:
878012cc:	87802c09 	strhi	r2, [r0, r9, lsl #24]

878012d0 <vApplicationIRQHandlerConst>:
878012d0:	87801280 	strhi	r1, [r0, r0, lsl #5]

878012d4 <ulPortInterruptNestingConst>:
878012d4:	88000288 	stmdahi	r0, {r3, r7, r9}

878012d8 <vApplicationFPUSafeIRQHandlerConst>:
878012d8:	87803f89 	strhi	r3, [r0, r9, lsl #31]
878012dc:	87805ded 	strhi	r5, [r0, sp, ror #27]
878012e0:	8800028c 	stmdahi	r0, {r2, r3, r7, r9}
	...

878012f0 <__umodsi3>:
878012f0:	e2512001 	subs	r2, r1, #1
878012f4:	3a000062 	bcc	87801484 <Ldiv0>
878012f8:	11500001 	cmpne	r0, r1
878012fc:	03a00000 	moveq	r0, #0
87801300:	81110002 	tsthi	r1, r2
87801304:	00000002 	andeq	r0, r0, r2
87801308:	91a0f00e 	movls	pc, lr
8780130c:	e3a02000 	mov	r2, #0
87801310:	e3510201 	cmp	r1, #268435456	; 0x10000000
87801314:	31510000 	cmpcc	r1, r0
87801318:	31a01201 	lslcc	r1, r1, #4
8780131c:	32822004 	addcc	r2, r2, #4
87801320:	3afffffa 	bcc	87801310 <__umodsi3+0x20>
87801324:	e3510102 	cmp	r1, #-2147483648	; 0x80000000
87801328:	31510000 	cmpcc	r1, r0
8780132c:	31a01081 	lslcc	r1, r1, #1
87801330:	32822001 	addcc	r2, r2, #1
87801334:	3afffffa 	bcc	87801324 <__umodsi3+0x34>
87801338:	e2522003 	subs	r2, r2, #3
8780133c:	ba00000e 	blt	8780137c <__umodsi3+0x8c>
87801340:	e1500001 	cmp	r0, r1
87801344:	20400001 	subcs	r0, r0, r1
87801348:	e15000a1 	cmp	r0, r1, lsr #1
8780134c:	204000a1 	subcs	r0, r0, r1, lsr #1
87801350:	e1500121 	cmp	r0, r1, lsr #2
87801354:	20400121 	subcs	r0, r0, r1, lsr #2
87801358:	e15001a1 	cmp	r0, r1, lsr #3
8780135c:	204001a1 	subcs	r0, r0, r1, lsr #3
87801360:	e3500001 	cmp	r0, #1
87801364:	e1a01221 	lsr	r1, r1, #4
87801368:	a2522004 	subsge	r2, r2, #4
8780136c:	aafffff3 	bge	87801340 <__umodsi3+0x50>
87801370:	e3120003 	tst	r2, #3
87801374:	13300000 	teqne	r0, #0
87801378:	0a00000a 	beq	878013a8 <__umodsi3+0xb8>
8780137c:	e3720002 	cmn	r2, #2
87801380:	ba000006 	blt	878013a0 <__umodsi3+0xb0>
87801384:	0a000002 	beq	87801394 <__umodsi3+0xa4>
87801388:	e1500001 	cmp	r0, r1
8780138c:	20400001 	subcs	r0, r0, r1
87801390:	e1a010a1 	lsr	r1, r1, #1
87801394:	e1500001 	cmp	r0, r1
87801398:	20400001 	subcs	r0, r0, r1
8780139c:	e1a010a1 	lsr	r1, r1, #1
878013a0:	e1500001 	cmp	r0, r1
878013a4:	20400001 	subcs	r0, r0, r1
878013a8:	e1a0f00e 	mov	pc, lr
878013ac:	90909090 	umullsls	r9, r0, r0, r0

878013b0 <__modsi3>:
878013b0:	e3510000 	cmp	r1, #0
878013b4:	0a000032 	beq	87801484 <Ldiv0>
878013b8:	42611000 	rsbmi	r1, r1, #0
878013bc:	e1b0c000 	movs	ip, r0
878013c0:	42600000 	rsbmi	r0, r0, #0
878013c4:	e2512001 	subs	r2, r1, #1
878013c8:	11500001 	cmpne	r0, r1
878013cc:	03a00000 	moveq	r0, #0
878013d0:	81110002 	tsthi	r1, r2
878013d4:	00000002 	andeq	r0, r0, r2
878013d8:	9a000026 	bls	87801478 <__modsi3+0xc8>
878013dc:	e3a02000 	mov	r2, #0
878013e0:	e3510201 	cmp	r1, #268435456	; 0x10000000
878013e4:	31510000 	cmpcc	r1, r0
878013e8:	31a01201 	lslcc	r1, r1, #4
878013ec:	32822004 	addcc	r2, r2, #4
878013f0:	3afffffa 	bcc	878013e0 <__modsi3+0x30>
878013f4:	e3510102 	cmp	r1, #-2147483648	; 0x80000000
878013f8:	31510000 	cmpcc	r1, r0
878013fc:	31a01081 	lslcc	r1, r1, #1
87801400:	32822001 	addcc	r2, r2, #1
87801404:	3afffffa 	bcc	878013f4 <__modsi3+0x44>
87801408:	e2522003 	subs	r2, r2, #3
8780140c:	ba00000e 	blt	8780144c <__modsi3+0x9c>
87801410:	e1500001 	cmp	r0, r1
87801414:	20400001 	subcs	r0, r0, r1
87801418:	e15000a1 	cmp	r0, r1, lsr #1
8780141c:	204000a1 	subcs	r0, r0, r1, lsr #1
87801420:	e1500121 	cmp	r0, r1, lsr #2
87801424:	20400121 	subcs	r0, r0, r1, lsr #2
87801428:	e15001a1 	cmp	r0, r1, lsr #3
8780142c:	204001a1 	subcs	r0, r0, r1, lsr #3
87801430:	e3500001 	cmp	r0, #1
87801434:	e1a01221 	lsr	r1, r1, #4
87801438:	a2522004 	subsge	r2, r2, #4
8780143c:	aafffff3 	bge	87801410 <__modsi3+0x60>
87801440:	e3120003 	tst	r2, #3
87801444:	13300000 	teqne	r0, #0
87801448:	0a00000a 	beq	87801478 <__modsi3+0xc8>
8780144c:	e3720002 	cmn	r2, #2
87801450:	ba000006 	blt	87801470 <__modsi3+0xc0>
87801454:	0a000002 	beq	87801464 <__modsi3+0xb4>
87801458:	e1500001 	cmp	r0, r1
8780145c:	20400001 	subcs	r0, r0, r1
87801460:	e1a010a1 	lsr	r1, r1, #1
87801464:	e1500001 	cmp	r0, r1
87801468:	20400001 	subcs	r0, r0, r1
8780146c:	e1a010a1 	lsr	r1, r1, #1
87801470:	e1500001 	cmp	r0, r1
87801474:	20400001 	subcs	r0, r0, r1
87801478:	e35c0000 	cmp	ip, #0
8780147c:	42600000 	rsbmi	r0, r0, #0
87801480:	e1a0f00e 	mov	pc, lr

87801484 <Ldiv0>:
87801484:	e52de004 	push	{lr}		; (str lr, [sp, #-4]!)
87801488:	e3a00000 	mov	r0, #0
8780148c:	e49df004 	pop	{pc}		; (ldr pc, [sp], #4)

87801490 <Reset_Handler>:
87801490:	f10c0080 	cpsid	i
87801494:	ee110f10 	mrc	15, 0, r0, cr1, cr0, {0}
87801498:	e3c00a01 	bic	r0, r0, #4096	; 0x1000
8780149c:	e3c00004 	bic	r0, r0, #4
878014a0:	e3c00002 	bic	r0, r0, #2
878014a4:	e3c00b02 	bic	r0, r0, #2048	; 0x800
878014a8:	e3c00001 	bic	r0, r0, #1
878014ac:	ee010f10 	mcr	15, 0, r0, cr1, cr0, {0}
878014b0:	f1020012 	cps	#18
878014b4:	e59fd064 	ldr	sp, [pc, #100]	; 87801520 <Reset_Handler+0x90>
878014b8:	f102001f 	cps	#31
878014bc:	e59fd060 	ldr	sp, [pc, #96]	; 87801524 <Reset_Handler+0x94>
878014c0:	f1020013 	cps	#19
878014c4:	e59fd058 	ldr	sp, [pc, #88]	; 87801524 <Reset_Handler+0x94>
878014c8:	f1080080 	cpsie	i
878014cc:	e59f1054 	ldr	r1, [pc, #84]	; 87801528 <Reset_Handler+0x98>
878014d0:	e59f2054 	ldr	r2, [pc, #84]	; 8780152c <Reset_Handler+0x9c>
878014d4:	e59f3054 	ldr	r3, [pc, #84]	; 87801530 <Reset_Handler+0xa0>
878014d8:	e1520003 	cmp	r2, r3
878014dc:	b4910004 	ldrlt	r0, [r1], #4
878014e0:	b4820004 	strlt	r0, [r2], #4
878014e4:	bafffffb 	blt	878014d8 <Reset_Handler+0x48>
878014e8:	e59f2044 	ldr	r2, [pc, #68]	; 87801534 <Reset_Handler+0xa4>
878014ec:	e59f3044 	ldr	r3, [pc, #68]	; 87801538 <Reset_Handler+0xa8>
878014f0:	e1520003 	cmp	r2, r3
878014f4:	b4910004 	ldrlt	r0, [r1], #4
878014f8:	b4820004 	strlt	r0, [r2], #4
878014fc:	bafffffb 	blt	878014f0 <Reset_Handler+0x60>
87801500:	e59f1034 	ldr	r1, [pc, #52]	; 8780153c <Reset_Handler+0xac>
87801504:	e59f2034 	ldr	r2, [pc, #52]	; 87801540 <Reset_Handler+0xb0>
87801508:	e3b00000 	movs	r0, #0
8780150c:	e1510002 	cmp	r1, r2
87801510:	b4810004 	strlt	r0, [r1], #4
87801514:	bafffffc 	blt	8780150c <Reset_Handler+0x7c>
87801518:	e59f0024 	ldr	r0, [pc, #36]	; 87801544 <Reset_Handler+0xb4>
8780151c:	e12fff10 	bx	r0
87801520:	88400000 	stmdahi	r0, {}^	; <UNPREDICTABLE>
87801524:	883fe000 	ldmdahi	pc!, {sp, lr, pc}	; <UNPREDICTABLE>
87801528:	87806918 	usada8hi	r0, r8, r9, r6
8780152c:	88000000 	stmdahi	r0, {}	; <UNPREDICTABLE>
87801530:	88000104 	stmdahi	r0, {r2, r8}
87801534:	00900000 	addseq	r0, r0, r0
87801538:	00900000 	addseq	r0, r0, r0
8780153c:	88000104 	stmdahi	r0, {r2, r8}
87801540:	88019ffc 	stmdahi	r1, {r2, r3, r4, r5, r6, r7, r8, r9, sl, fp, ip, pc}
87801544:	878067f5 			; <UNDEFINED> instruction: 0x878067f5

87801548 <Undefined_Handler>:
87801548:	eafffffe 	b	87801548 <Undefined_Handler>

8780154c <SVC_Handler>:
8780154c:	e59f006c 	ldr	r0, [pc, #108]	; 878015c0 <FIQ_Handler+0x8>
87801550:	e12fff10 	bx	r0

87801554 <PrefAbort_Handler>:
87801554:	e59f0068 	ldr	r0, [pc, #104]	; 878015c4 <FIQ_Handler+0xc>
87801558:	e12fff10 	bx	r0

8780155c <DataAbort_Handler>:
8780155c:	e59f0064 	ldr	r0, [pc, #100]	; 878015c8 <FIQ_Handler+0x10>
87801560:	e12fff10 	bx	r0

87801564 <IRQ_Handler>:
87801564:	e52de004 	push	{lr}		; (str lr, [sp, #-4]!)
87801568:	e92d100f 	push	{r0, r1, r2, r3, ip}
8780156c:	e14f0000 	mrs	r0, SPSR
87801570:	e52d0004 	push	{r0}		; (str r0, [sp, #-4]!)
87801574:	ee9f1f10 	mrc	15, 4, r1, cr15, cr0, {0}
87801578:	e2811a02 	add	r1, r1, #8192	; 0x2000
8780157c:	e591000c 	ldr	r0, [r1, #12]
87801580:	e92d0003 	push	{r0, r1}
87801584:	f1020013 	cps	#19
87801588:	e52de004 	push	{lr}		; (str lr, [sp, #-4]!)
8780158c:	e59f2038 	ldr	r2, [pc, #56]	; 878015cc <FIQ_Handler+0x14>
87801590:	e12fff32 	blx	r2
87801594:	e49de004 	pop	{lr}		; (ldr lr, [sp], #4)
87801598:	f1020012 	cps	#18
8780159c:	e8bd0003 	pop	{r0, r1}
878015a0:	e5810010 	str	r0, [r1, #16]
878015a4:	e49d0004 	pop	{r0}		; (ldr r0, [sp], #4)
878015a8:	e16ff000 	msr	SPSR_fsxc, r0
878015ac:	e8bd100f 	pop	{r0, r1, r2, r3, ip}
878015b0:	e49de004 	pop	{lr}		; (ldr lr, [sp], #4)
878015b4:	e25ef004 	subs	pc, lr, #4

878015b8 <FIQ_Handler>:
878015b8:	e59f0010 	ldr	r0, [pc, #16]	; 878015d0 <FIQ_Handler+0x18>
878015bc:	e12fff10 	bx	r0
878015c0:	8780154c 	strhi	r1, [r0, ip, asr #10]
878015c4:	87801554 			; <UNDEFINED> instruction: 0x87801554
878015c8:	8780155c 			; <UNDEFINED> instruction: 0x8780155c
878015cc:	87805ded 	strhi	r5, [r0, sp, ror #27]
878015d0:	878015b8 			; <UNDEFINED> instruction: 0x878015b8

878015d4 <prvQueueSendTask>:
878015d4:	f240 1504 	movw	r5, #260	; 0x104
878015d8:	b500      	push	{lr}
878015da:	f6c8 0500 	movt	r5, #34816	; 0x8800
878015de:	b083      	sub	sp, #12
878015e0:	2364      	movs	r3, #100	; 0x64
878015e2:	ac02      	add	r4, sp, #8
878015e4:	9301      	str	r3, [sp, #4]
878015e6:	f001 f985 	bl	878028f4 <xTaskGetTickCount>
878015ea:	f844 0d08 	str.w	r0, [r4, #-8]!
878015ee:	4620      	mov	r0, r4
878015f0:	21c8      	movs	r1, #200	; 0xc8
878015f2:	f001 fa7d 	bl	87802af0 <vTaskDelayUntil>
878015f6:	2300      	movs	r3, #0
878015f8:	a901      	add	r1, sp, #4
878015fa:	461a      	mov	r2, r3
878015fc:	6828      	ldr	r0, [r5, #0]
878015fe:	f000 f937 	bl	87801870 <xQueueGenericSend>
87801602:	e7f4      	b.n	878015ee <prvQueueSendTask+0x1a>

87801604 <prvQueueReceiveTask>:
87801604:	b5f0      	push	{r4, r5, r6, r7, lr}
87801606:	f240 1404 	movw	r4, #260	; 0x104
8780160a:	f646 07dc 	movw	r7, #26844	; 0x68dc
8780160e:	f64c 45cd 	movw	r5, #52429	; 0xcccd
87801612:	b083      	sub	sp, #12
87801614:	f6c8 0400 	movt	r4, #34816	; 0x8800
87801618:	f2c8 7780 	movt	r7, #34688	; 0x8780
8780161c:	f6cc 45cc 	movt	r5, #52428	; 0xcccc
87801620:	2600      	movs	r6, #0
87801622:	2300      	movs	r3, #0
87801624:	f04f 32ff 	mov.w	r2, #4294967295	; 0xffffffff
87801628:	a901      	add	r1, sp, #4
8780162a:	6820      	ldr	r0, [r4, #0]
8780162c:	f000 fa8c 	bl	87801b48 <xQueueGenericReceive>
87801630:	9b01      	ldr	r3, [sp, #4]
87801632:	2b64      	cmp	r3, #100	; 0x64
87801634:	d1f5      	bne.n	87801622 <prvQueueReceiveTask+0x1e>
87801636:	6863      	ldr	r3, [r4, #4]
87801638:	4638      	mov	r0, r7
8780163a:	3301      	adds	r3, #1
8780163c:	6063      	str	r3, [r4, #4]
8780163e:	f002 fdd7 	bl	878041f0 <printf>
87801642:	6863      	ldr	r3, [r4, #4]
87801644:	9601      	str	r6, [sp, #4]
87801646:	fba3 0105 	umull	r0, r1, r3, r5
8780164a:	088a      	lsrs	r2, r1, #2
8780164c:	eb02 0282 	add.w	r2, r2, r2, lsl #2
87801650:	4293      	cmp	r3, r2
87801652:	d00e      	beq.n	87801672 <prvQueueReceiveTask+0x6e>
87801654:	fba3 0105 	umull	r0, r1, r3, r5
87801658:	090a      	lsrs	r2, r1, #4
8780165a:	eb02 0282 	add.w	r2, r2, r2, lsl #2
8780165e:	ebb3 0f82 	cmp.w	r3, r2, lsl #2
87801662:	d1de      	bne.n	87801622 <prvQueueReceiveTask+0x1e>
87801664:	f646 00e4 	movw	r0, #26852	; 0x68e4
87801668:	f2c8 7080 	movt	r0, #34688	; 0x8780
8780166c:	f002 fdc0 	bl	878041f0 <printf>
87801670:	e7d6      	b.n	87801620 <prvQueueReceiveTask+0x1c>
87801672:	f646 00e0 	movw	r0, #26848	; 0x68e0
87801676:	f2c8 7080 	movt	r0, #34688	; 0x8780
8780167a:	f002 fdb9 	bl	878041f0 <printf>
8780167e:	6863      	ldr	r3, [r4, #4]
87801680:	e7e8      	b.n	87801654 <prvQueueReceiveTask+0x50>
87801682:	bf00      	nop

87801684 <prvCopyDataToQueue>:
87801684:	b570      	push	{r4, r5, r6, lr}
87801686:	4616      	mov	r6, r2
87801688:	6c02      	ldr	r2, [r0, #64]	; 0x40
8780168a:	4604      	mov	r4, r0
8780168c:	6b85      	ldr	r5, [r0, #56]	; 0x38
8780168e:	b932      	cbnz	r2, 8780169e <prvCopyDataToQueue+0x1a>
87801690:	6806      	ldr	r6, [r0, #0]
87801692:	2e00      	cmp	r6, #0
87801694:	d02f      	beq.n	878016f6 <prvCopyDataToQueue+0x72>
87801696:	3501      	adds	r5, #1
87801698:	4610      	mov	r0, r2
8780169a:	63a5      	str	r5, [r4, #56]	; 0x38
8780169c:	bd70      	pop	{r4, r5, r6, pc}
8780169e:	b99e      	cbnz	r6, 878016c8 <prvCopyDataToQueue+0x44>
878016a0:	6880      	ldr	r0, [r0, #8]
878016a2:	f002 ffeb 	bl	8780467c <memcpy>
878016a6:	68a3      	ldr	r3, [r4, #8]
878016a8:	6c21      	ldr	r1, [r4, #64]	; 0x40
878016aa:	6862      	ldr	r2, [r4, #4]
878016ac:	440b      	add	r3, r1
878016ae:	4293      	cmp	r3, r2
878016b0:	60a3      	str	r3, [r4, #8]
878016b2:	bf2b      	itete	cs
878016b4:	6823      	ldrcs	r3, [r4, #0]
878016b6:	3501      	addcc	r5, #1
878016b8:	3501      	addcs	r5, #1
878016ba:	4630      	movcc	r0, r6
878016bc:	bf28      	it	cs
878016be:	4630      	movcs	r0, r6
878016c0:	63a5      	str	r5, [r4, #56]	; 0x38
878016c2:	bf28      	it	cs
878016c4:	60a3      	strcs	r3, [r4, #8]
878016c6:	bd70      	pop	{r4, r5, r6, pc}
878016c8:	68c0      	ldr	r0, [r0, #12]
878016ca:	f002 ffd7 	bl	8780467c <memcpy>
878016ce:	6c22      	ldr	r2, [r4, #64]	; 0x40
878016d0:	68e3      	ldr	r3, [r4, #12]
878016d2:	6821      	ldr	r1, [r4, #0]
878016d4:	4252      	negs	r2, r2
878016d6:	4413      	add	r3, r2
878016d8:	428b      	cmp	r3, r1
878016da:	60e3      	str	r3, [r4, #12]
878016dc:	bf3e      	ittt	cc
878016de:	6863      	ldrcc	r3, [r4, #4]
878016e0:	18d2      	addcc	r2, r2, r3
878016e2:	60e2      	strcc	r2, [r4, #12]
878016e4:	2e02      	cmp	r6, #2
878016e6:	bf1c      	itt	ne
878016e8:	3501      	addne	r5, #1
878016ea:	2000      	movne	r0, #0
878016ec:	d1d5      	bne.n	8780169a <prvCopyDataToQueue+0x16>
878016ee:	b905      	cbnz	r5, 878016f2 <prvCopyDataToQueue+0x6e>
878016f0:	2501      	movs	r5, #1
878016f2:	2000      	movs	r0, #0
878016f4:	e7d1      	b.n	8780169a <prvCopyDataToQueue+0x16>
878016f6:	6840      	ldr	r0, [r0, #4]
878016f8:	3501      	adds	r5, #1
878016fa:	f001 fd89 	bl	87803210 <xTaskPriorityDisinherit>
878016fe:	6066      	str	r6, [r4, #4]
87801700:	e7cb      	b.n	8780169a <prvCopyDataToQueue+0x16>
87801702:	bf00      	nop

87801704 <prvUnlockQueue>:
87801704:	b570      	push	{r4, r5, r6, lr}
87801706:	4605      	mov	r5, r0
87801708:	f002 fb5e 	bl	87803dc8 <vPortEnterCritical>
8780170c:	f895 4045 	ldrb.w	r4, [r5, #69]	; 0x45
87801710:	b264      	sxtb	r4, r4
87801712:	2c00      	cmp	r4, #0
87801714:	dd16      	ble.n	87801744 <prvUnlockQueue+0x40>
87801716:	6a6b      	ldr	r3, [r5, #36]	; 0x24
87801718:	b1a3      	cbz	r3, 87801744 <prvUnlockQueue+0x40>
8780171a:	f105 0624 	add.w	r6, r5, #36	; 0x24
8780171e:	e005      	b.n	8780172c <prvUnlockQueue+0x28>
87801720:	3c01      	subs	r4, #1
87801722:	b2e3      	uxtb	r3, r4
87801724:	b25c      	sxtb	r4, r3
87801726:	b16b      	cbz	r3, 87801744 <prvUnlockQueue+0x40>
87801728:	6a6b      	ldr	r3, [r5, #36]	; 0x24
8780172a:	b15b      	cbz	r3, 87801744 <prvUnlockQueue+0x40>
8780172c:	4630      	mov	r0, r6
8780172e:	f001 fb3d 	bl	87802dac <xTaskRemoveFromEventList>
87801732:	2800      	cmp	r0, #0
87801734:	d0f4      	beq.n	87801720 <prvUnlockQueue+0x1c>
87801736:	3c01      	subs	r4, #1
87801738:	f001 fbe6 	bl	87802f08 <vTaskMissedYield>
8780173c:	b2e3      	uxtb	r3, r4
8780173e:	b25c      	sxtb	r4, r3
87801740:	2b00      	cmp	r3, #0
87801742:	d1f1      	bne.n	87801728 <prvUnlockQueue+0x24>
87801744:	23ff      	movs	r3, #255	; 0xff
87801746:	f885 3045 	strb.w	r3, [r5, #69]	; 0x45
8780174a:	f002 fb7f 	bl	87803e4c <vPortExitCritical>
8780174e:	f002 fb3b 	bl	87803dc8 <vPortEnterCritical>
87801752:	f895 4044 	ldrb.w	r4, [r5, #68]	; 0x44
87801756:	b264      	sxtb	r4, r4
87801758:	2c00      	cmp	r4, #0
8780175a:	dd16      	ble.n	8780178a <prvUnlockQueue+0x86>
8780175c:	692b      	ldr	r3, [r5, #16]
8780175e:	b1a3      	cbz	r3, 8780178a <prvUnlockQueue+0x86>
87801760:	f105 0610 	add.w	r6, r5, #16
87801764:	e005      	b.n	87801772 <prvUnlockQueue+0x6e>
87801766:	3c01      	subs	r4, #1
87801768:	b2e3      	uxtb	r3, r4
8780176a:	b25c      	sxtb	r4, r3
8780176c:	b16b      	cbz	r3, 8780178a <prvUnlockQueue+0x86>
8780176e:	692b      	ldr	r3, [r5, #16]
87801770:	b15b      	cbz	r3, 8780178a <prvUnlockQueue+0x86>
87801772:	4630      	mov	r0, r6
87801774:	f001 fb1a 	bl	87802dac <xTaskRemoveFromEventList>
87801778:	2800      	cmp	r0, #0
8780177a:	d0f4      	beq.n	87801766 <prvUnlockQueue+0x62>
8780177c:	3c01      	subs	r4, #1
8780177e:	f001 fbc3 	bl	87802f08 <vTaskMissedYield>
87801782:	b2e3      	uxtb	r3, r4
87801784:	b25c      	sxtb	r4, r3
87801786:	2b00      	cmp	r3, #0
87801788:	d1f1      	bne.n	8780176e <prvUnlockQueue+0x6a>
8780178a:	23ff      	movs	r3, #255	; 0xff
8780178c:	f885 3044 	strb.w	r3, [r5, #68]	; 0x44
87801790:	e8bd 4070 	ldmia.w	sp!, {r4, r5, r6, lr}
87801794:	f002 bb5a 	b.w	87803e4c <vPortExitCritical>

87801798 <xQueueGenericReset>:
87801798:	b570      	push	{r4, r5, r6, lr}
8780179a:	b398      	cbz	r0, 87801804 <xQueueGenericReset+0x6c>
8780179c:	4604      	mov	r4, r0
8780179e:	460e      	mov	r6, r1
878017a0:	25ff      	movs	r5, #255	; 0xff
878017a2:	f002 fb11 	bl	87803dc8 <vPortEnterCritical>
878017a6:	6c20      	ldr	r0, [r4, #64]	; 0x40
878017a8:	2100      	movs	r1, #0
878017aa:	6be3      	ldr	r3, [r4, #60]	; 0x3c
878017ac:	6822      	ldr	r2, [r4, #0]
878017ae:	63a1      	str	r1, [r4, #56]	; 0x38
878017b0:	f884 5044 	strb.w	r5, [r4, #68]	; 0x44
878017b4:	fb03 f300 	mul.w	r3, r3, r0
878017b8:	60a2      	str	r2, [r4, #8]
878017ba:	f884 5045 	strb.w	r5, [r4, #69]	; 0x45
878017be:	1a18      	subs	r0, r3, r0
878017c0:	4413      	add	r3, r2
878017c2:	4402      	add	r2, r0
878017c4:	6063      	str	r3, [r4, #4]
878017c6:	60e2      	str	r2, [r4, #12]
878017c8:	b986      	cbnz	r6, 878017ec <xQueueGenericReset+0x54>
878017ca:	6923      	ldr	r3, [r4, #16]
878017cc:	b91b      	cbnz	r3, 878017d6 <xQueueGenericReset+0x3e>
878017ce:	f002 fb3d 	bl	87803e4c <vPortExitCritical>
878017d2:	2001      	movs	r0, #1
878017d4:	bd70      	pop	{r4, r5, r6, pc}
878017d6:	f104 0010 	add.w	r0, r4, #16
878017da:	f001 fae7 	bl	87802dac <xTaskRemoveFromEventList>
878017de:	2800      	cmp	r0, #0
878017e0:	d0f5      	beq.n	878017ce <xQueueGenericReset+0x36>
878017e2:	df00      	svc	0
878017e4:	f002 fb32 	bl	87803e4c <vPortExitCritical>
878017e8:	2001      	movs	r0, #1
878017ea:	bd70      	pop	{r4, r5, r6, pc}
878017ec:	f104 0010 	add.w	r0, r4, #16
878017f0:	f000 fbb8 	bl	87801f64 <vListInitialise>
878017f4:	f104 0024 	add.w	r0, r4, #36	; 0x24
878017f8:	f000 fbb4 	bl	87801f64 <vListInitialise>
878017fc:	f002 fb26 	bl	87803e4c <vPortExitCritical>
87801800:	2001      	movs	r0, #1
87801802:	bd70      	pop	{r4, r5, r6, pc}
87801804:	f002 fb62 	bl	87803ecc <ulPortSetInterruptMask>
87801808:	e7fe      	b.n	87801808 <xQueueGenericReset+0x70>
8780180a:	bf00      	nop

8780180c <xQueueGenericCreate>:
8780180c:	b5f8      	push	{r3, r4, r5, r6, r7, lr}
8780180e:	b1a8      	cbz	r0, 8780183c <xQueueGenericCreate+0x30>
87801810:	4606      	mov	r6, r0
87801812:	fb01 f000 	mul.w	r0, r1, r0
87801816:	460d      	mov	r5, r1
87801818:	4617      	mov	r7, r2
8780181a:	3050      	adds	r0, #80	; 0x50
8780181c:	f002 fbf8 	bl	87804010 <pvPortMalloc>
87801820:	4604      	mov	r4, r0
87801822:	b148      	cbz	r0, 87801838 <xQueueGenericCreate+0x2c>
87801824:	b96d      	cbnz	r5, 87801842 <xQueueGenericCreate+0x36>
87801826:	6020      	str	r0, [r4, #0]
87801828:	63e6      	str	r6, [r4, #60]	; 0x3c
8780182a:	2101      	movs	r1, #1
8780182c:	6425      	str	r5, [r4, #64]	; 0x40
8780182e:	4620      	mov	r0, r4
87801830:	f7ff ffb2 	bl	87801798 <xQueueGenericReset>
87801834:	f884 704c 	strb.w	r7, [r4, #76]	; 0x4c
87801838:	4620      	mov	r0, r4
8780183a:	bdf8      	pop	{r3, r4, r5, r6, r7, pc}
8780183c:	f002 fb46 	bl	87803ecc <ulPortSetInterruptMask>
87801840:	e7fe      	b.n	87801840 <xQueueGenericCreate+0x34>
87801842:	f100 0350 	add.w	r3, r0, #80	; 0x50
87801846:	6003      	str	r3, [r0, #0]
87801848:	e7ee      	b.n	87801828 <xQueueGenericCreate+0x1c>
8780184a:	bf00      	nop

8780184c <xQueueCreateCountingSemaphore>:
8780184c:	b510      	push	{r4, lr}
8780184e:	b160      	cbz	r0, 8780186a <xQueueCreateCountingSemaphore+0x1e>
87801850:	4288      	cmp	r0, r1
87801852:	460c      	mov	r4, r1
87801854:	d202      	bcs.n	8780185c <xQueueCreateCountingSemaphore+0x10>
87801856:	f002 fb39 	bl	87803ecc <ulPortSetInterruptMask>
8780185a:	e7fe      	b.n	8780185a <xQueueCreateCountingSemaphore+0xe>
8780185c:	2202      	movs	r2, #2
8780185e:	2100      	movs	r1, #0
87801860:	f7ff ffd4 	bl	8780180c <xQueueGenericCreate>
87801864:	b100      	cbz	r0, 87801868 <xQueueCreateCountingSemaphore+0x1c>
87801866:	6384      	str	r4, [r0, #56]	; 0x38
87801868:	bd10      	pop	{r4, pc}
8780186a:	f002 fb2f 	bl	87803ecc <ulPortSetInterruptMask>
8780186e:	e7fe      	b.n	8780186e <xQueueCreateCountingSemaphore+0x22>

87801870 <xQueueGenericSend>:
87801870:	e92d 47f0 	stmdb	sp!, {r4, r5, r6, r7, r8, r9, sl, lr}
87801874:	b084      	sub	sp, #16
87801876:	9201      	str	r2, [sp, #4]
87801878:	2800      	cmp	r0, #0
8780187a:	d067      	beq.n	8780194c <xQueueGenericSend+0xdc>
8780187c:	4688      	mov	r8, r1
8780187e:	461e      	mov	r6, r3
87801880:	4604      	mov	r4, r0
87801882:	2900      	cmp	r1, #0
87801884:	f000 808d 	beq.w	878019a2 <xQueueGenericSend+0x132>
87801888:	2e02      	cmp	r6, #2
8780188a:	d049      	beq.n	87801920 <xQueueGenericSend+0xb0>
8780188c:	f001 fc66 	bl	8780315c <xTaskGetSchedulerState>
87801890:	b918      	cbnz	r0, 8780189a <xQueueGenericSend+0x2a>
87801892:	9b01      	ldr	r3, [sp, #4]
87801894:	2b00      	cmp	r3, #0
87801896:	f040 8081 	bne.w	8780199c <xQueueGenericSend+0x12c>
8780189a:	f1a6 0a02 	sub.w	sl, r6, #2
8780189e:	2700      	movs	r7, #0
878018a0:	faba fa8a 	clz	sl, sl
878018a4:	46b9      	mov	r9, r7
878018a6:	ea4f 1a5a 	mov.w	sl, sl, lsr #5
878018aa:	e027      	b.n	878018fc <xQueueGenericSend+0x8c>
878018ac:	f002 face 	bl	87803e4c <vPortExitCritical>
878018b0:	f001 f816 	bl	878028e0 <vTaskSuspendAll>
878018b4:	f002 fa88 	bl	87803dc8 <vPortEnterCritical>
878018b8:	f894 3044 	ldrb.w	r3, [r4, #68]	; 0x44
878018bc:	2bff      	cmp	r3, #255	; 0xff
878018be:	bf08      	it	eq
878018c0:	f884 9044 	strbeq.w	r9, [r4, #68]	; 0x44
878018c4:	f894 3045 	ldrb.w	r3, [r4, #69]	; 0x45
878018c8:	2bff      	cmp	r3, #255	; 0xff
878018ca:	bf08      	it	eq
878018cc:	f884 9045 	strbeq.w	r9, [r4, #69]	; 0x45
878018d0:	f002 fabc 	bl	87803e4c <vPortExitCritical>
878018d4:	a901      	add	r1, sp, #4
878018d6:	a802      	add	r0, sp, #8
878018d8:	f001 fae2 	bl	87802ea0 <xTaskCheckForTimeOut>
878018dc:	2800      	cmp	r0, #0
878018de:	d138      	bne.n	87801952 <xQueueGenericSend+0xe2>
878018e0:	f002 fa72 	bl	87803dc8 <vPortEnterCritical>
878018e4:	6ba2      	ldr	r2, [r4, #56]	; 0x38
878018e6:	6be3      	ldr	r3, [r4, #60]	; 0x3c
878018e8:	429a      	cmp	r2, r3
878018ea:	d01f      	beq.n	8780192c <xQueueGenericSend+0xbc>
878018ec:	f002 faae 	bl	87803e4c <vPortExitCritical>
878018f0:	4620      	mov	r0, r4
878018f2:	f7ff ff07 	bl	87801704 <prvUnlockQueue>
878018f6:	f001 f895 	bl	87802a24 <xTaskResumeAll>
878018fa:	2701      	movs	r7, #1
878018fc:	f002 fa64 	bl	87803dc8 <vPortEnterCritical>
87801900:	6ba3      	ldr	r3, [r4, #56]	; 0x38
87801902:	6be2      	ldr	r2, [r4, #60]	; 0x3c
87801904:	4293      	cmp	r3, r2
87801906:	bf2c      	ite	cs
87801908:	4653      	movcs	r3, sl
8780190a:	f04a 0301 	orrcc.w	r3, sl, #1
8780190e:	bb7b      	cbnz	r3, 87801970 <xQueueGenericSend+0x100>
87801910:	9d01      	ldr	r5, [sp, #4]
87801912:	b33d      	cbz	r5, 87801964 <xQueueGenericSend+0xf4>
87801914:	2f00      	cmp	r7, #0
87801916:	d1c9      	bne.n	878018ac <xQueueGenericSend+0x3c>
87801918:	a802      	add	r0, sp, #8
8780191a:	f001 fab1 	bl	87802e80 <vTaskSetTimeOutState>
8780191e:	e7c5      	b.n	878018ac <xQueueGenericSend+0x3c>
87801920:	6be3      	ldr	r3, [r4, #60]	; 0x3c
87801922:	2b01      	cmp	r3, #1
87801924:	d0b2      	beq.n	8780188c <xQueueGenericSend+0x1c>
87801926:	f002 fad1 	bl	87803ecc <ulPortSetInterruptMask>
8780192a:	e7fe      	b.n	8780192a <xQueueGenericSend+0xba>
8780192c:	f002 fa8e 	bl	87803e4c <vPortExitCritical>
87801930:	9901      	ldr	r1, [sp, #4]
87801932:	f104 0010 	add.w	r0, r4, #16
87801936:	f001 f9eb 	bl	87802d10 <vTaskPlaceOnEventList>
8780193a:	4620      	mov	r0, r4
8780193c:	f7ff fee2 	bl	87801704 <prvUnlockQueue>
87801940:	f001 f870 	bl	87802a24 <xTaskResumeAll>
87801944:	2800      	cmp	r0, #0
87801946:	d1d8      	bne.n	878018fa <xQueueGenericSend+0x8a>
87801948:	df00      	svc	0
8780194a:	e7d6      	b.n	878018fa <xQueueGenericSend+0x8a>
8780194c:	f002 fabe 	bl	87803ecc <ulPortSetInterruptMask>
87801950:	e7fe      	b.n	87801950 <xQueueGenericSend+0xe0>
87801952:	4620      	mov	r0, r4
87801954:	f7ff fed6 	bl	87801704 <prvUnlockQueue>
87801958:	f001 f864 	bl	87802a24 <xTaskResumeAll>
8780195c:	2000      	movs	r0, #0
8780195e:	b004      	add	sp, #16
87801960:	e8bd 87f0 	ldmia.w	sp!, {r4, r5, r6, r7, r8, r9, sl, pc}
87801964:	f002 fa72 	bl	87803e4c <vPortExitCritical>
87801968:	4628      	mov	r0, r5
8780196a:	b004      	add	sp, #16
8780196c:	e8bd 87f0 	ldmia.w	sp!, {r4, r5, r6, r7, r8, r9, sl, pc}
87801970:	4632      	mov	r2, r6
87801972:	4641      	mov	r1, r8
87801974:	4620      	mov	r0, r4
87801976:	f7ff fe85 	bl	87801684 <prvCopyDataToQueue>
8780197a:	6a63      	ldr	r3, [r4, #36]	; 0x24
8780197c:	b93b      	cbnz	r3, 8780198e <xQueueGenericSend+0x11e>
8780197e:	b100      	cbz	r0, 87801982 <xQueueGenericSend+0x112>
87801980:	df00      	svc	0
87801982:	f002 fa63 	bl	87803e4c <vPortExitCritical>
87801986:	2001      	movs	r0, #1
87801988:	b004      	add	sp, #16
8780198a:	e8bd 87f0 	ldmia.w	sp!, {r4, r5, r6, r7, r8, r9, sl, pc}
8780198e:	f104 0024 	add.w	r0, r4, #36	; 0x24
87801992:	f001 fa0b 	bl	87802dac <xTaskRemoveFromEventList>
87801996:	2800      	cmp	r0, #0
87801998:	d1f2      	bne.n	87801980 <xQueueGenericSend+0x110>
8780199a:	e7f2      	b.n	87801982 <xQueueGenericSend+0x112>
8780199c:	f002 fa96 	bl	87803ecc <ulPortSetInterruptMask>
878019a0:	e7fe      	b.n	878019a0 <xQueueGenericSend+0x130>
878019a2:	6c03      	ldr	r3, [r0, #64]	; 0x40
878019a4:	2b00      	cmp	r3, #0
878019a6:	f43f af6f 	beq.w	87801888 <xQueueGenericSend+0x18>
878019aa:	f002 fa8f 	bl	87803ecc <ulPortSetInterruptMask>
878019ae:	e7fe      	b.n	878019ae <xQueueGenericSend+0x13e>

878019b0 <xQueueCreateMutex>:
878019b0:	b510      	push	{r4, lr}
878019b2:	4602      	mov	r2, r0
878019b4:	2100      	movs	r1, #0
878019b6:	2001      	movs	r0, #1
878019b8:	f7ff ff28 	bl	8780180c <xQueueGenericCreate>
878019bc:	4604      	mov	r4, r0
878019be:	b138      	cbz	r0, 878019d0 <xQueueCreateMutex+0x20>
878019c0:	2300      	movs	r3, #0
878019c2:	6043      	str	r3, [r0, #4]
878019c4:	461a      	mov	r2, r3
878019c6:	6003      	str	r3, [r0, #0]
878019c8:	4619      	mov	r1, r3
878019ca:	60c3      	str	r3, [r0, #12]
878019cc:	f7ff ff50 	bl	87801870 <xQueueGenericSend>
878019d0:	4620      	mov	r0, r4
878019d2:	bd10      	pop	{r4, pc}

878019d4 <xQueueGiveMutexRecursive>:
878019d4:	b538      	push	{r3, r4, r5, lr}
878019d6:	b138      	cbz	r0, 878019e8 <xQueueGiveMutexRecursive+0x14>
878019d8:	6845      	ldr	r5, [r0, #4]
878019da:	4604      	mov	r4, r0
878019dc:	f001 fbb8 	bl	87803150 <xTaskGetCurrentTaskHandle>
878019e0:	4285      	cmp	r5, r0
878019e2:	d004      	beq.n	878019ee <xQueueGiveMutexRecursive+0x1a>
878019e4:	2000      	movs	r0, #0
878019e6:	bd38      	pop	{r3, r4, r5, pc}
878019e8:	f002 fa70 	bl	87803ecc <ulPortSetInterruptMask>
878019ec:	e7fe      	b.n	878019ec <xQueueGiveMutexRecursive+0x18>
878019ee:	68e3      	ldr	r3, [r4, #12]
878019f0:	3b01      	subs	r3, #1
878019f2:	60e3      	str	r3, [r4, #12]
878019f4:	b10b      	cbz	r3, 878019fa <xQueueGiveMutexRecursive+0x26>
878019f6:	2001      	movs	r0, #1
878019f8:	bd38      	pop	{r3, r4, r5, pc}
878019fa:	4620      	mov	r0, r4
878019fc:	461a      	mov	r2, r3
878019fe:	4619      	mov	r1, r3
87801a00:	f7ff ff36 	bl	87801870 <xQueueGenericSend>
87801a04:	2001      	movs	r0, #1
87801a06:	bd38      	pop	{r3, r4, r5, pc}

87801a08 <xQueueGenericSendFromISR>:
87801a08:	e92d 43f8 	stmdb	sp!, {r3, r4, r5, r6, r7, r8, r9, lr}
87801a0c:	2800      	cmp	r0, #0
87801a0e:	d03a      	beq.n	87801a86 <xQueueGenericSendFromISR+0x7e>
87801a10:	460f      	mov	r7, r1
87801a12:	4690      	mov	r8, r2
87801a14:	4699      	mov	r9, r3
87801a16:	4604      	mov	r4, r0
87801a18:	2900      	cmp	r1, #0
87801a1a:	d04d      	beq.n	87801ab8 <xQueueGenericSendFromISR+0xb0>
87801a1c:	f1b9 0f02 	cmp.w	r9, #2
87801a20:	d010      	beq.n	87801a44 <xQueueGenericSendFromISR+0x3c>
87801a22:	f002 fa6f 	bl	87803f04 <vPortValidateInterruptPriority>
87801a26:	f002 fa51 	bl	87803ecc <ulPortSetInterruptMask>
87801a2a:	6ba2      	ldr	r2, [r4, #56]	; 0x38
87801a2c:	4606      	mov	r6, r0
87801a2e:	6be3      	ldr	r3, [r4, #60]	; 0x3c
87801a30:	429a      	cmp	r2, r3
87801a32:	bf28      	it	cs
87801a34:	2500      	movcs	r5, #0
87801a36:	d311      	bcc.n	87801a5c <xQueueGenericSendFromISR+0x54>
87801a38:	4630      	mov	r0, r6
87801a3a:	f002 fa31 	bl	87803ea0 <vPortClearInterruptMask>
87801a3e:	4628      	mov	r0, r5
87801a40:	e8bd 83f8 	ldmia.w	sp!, {r3, r4, r5, r6, r7, r8, r9, pc}
87801a44:	6be3      	ldr	r3, [r4, #60]	; 0x3c
87801a46:	2b01      	cmp	r3, #1
87801a48:	d002      	beq.n	87801a50 <xQueueGenericSendFromISR+0x48>
87801a4a:	f002 fa3f 	bl	87803ecc <ulPortSetInterruptMask>
87801a4e:	e7fe      	b.n	87801a4e <xQueueGenericSendFromISR+0x46>
87801a50:	f002 fa58 	bl	87803f04 <vPortValidateInterruptPriority>
87801a54:	f002 fa3a 	bl	87803ecc <ulPortSetInterruptMask>
87801a58:	6ba3      	ldr	r3, [r4, #56]	; 0x38
87801a5a:	4606      	mov	r6, r0
87801a5c:	f894 5045 	ldrb.w	r5, [r4, #69]	; 0x45
87801a60:	464a      	mov	r2, r9
87801a62:	4639      	mov	r1, r7
87801a64:	4620      	mov	r0, r4
87801a66:	f7ff fe0d 	bl	87801684 <prvCopyDataToQueue>
87801a6a:	b26d      	sxtb	r5, r5
87801a6c:	1c6b      	adds	r3, r5, #1
87801a6e:	d00d      	beq.n	87801a8c <xQueueGenericSendFromISR+0x84>
87801a70:	1c6b      	adds	r3, r5, #1
87801a72:	4630      	mov	r0, r6
87801a74:	b25b      	sxtb	r3, r3
87801a76:	2501      	movs	r5, #1
87801a78:	f884 3045 	strb.w	r3, [r4, #69]	; 0x45
87801a7c:	f002 fa10 	bl	87803ea0 <vPortClearInterruptMask>
87801a80:	4628      	mov	r0, r5
87801a82:	e8bd 83f8 	ldmia.w	sp!, {r3, r4, r5, r6, r7, r8, r9, pc}
87801a86:	f002 fa21 	bl	87803ecc <ulPortSetInterruptMask>
87801a8a:	e7fe      	b.n	87801a8a <xQueueGenericSendFromISR+0x82>
87801a8c:	6a63      	ldr	r3, [r4, #36]	; 0x24
87801a8e:	2501      	movs	r5, #1
87801a90:	2b00      	cmp	r3, #0
87801a92:	d0d1      	beq.n	87801a38 <xQueueGenericSendFromISR+0x30>
87801a94:	f104 0024 	add.w	r0, r4, #36	; 0x24
87801a98:	2501      	movs	r5, #1
87801a9a:	f001 f987 	bl	87802dac <xTaskRemoveFromEventList>
87801a9e:	2800      	cmp	r0, #0
87801aa0:	bf18      	it	ne
87801aa2:	f1b8 0f00 	cmpne.w	r8, #0
87801aa6:	4630      	mov	r0, r6
87801aa8:	bf18      	it	ne
87801aaa:	f8c8 5000 	strne.w	r5, [r8]
87801aae:	f002 f9f7 	bl	87803ea0 <vPortClearInterruptMask>
87801ab2:	4628      	mov	r0, r5
87801ab4:	e8bd 83f8 	ldmia.w	sp!, {r3, r4, r5, r6, r7, r8, r9, pc}
87801ab8:	6c03      	ldr	r3, [r0, #64]	; 0x40
87801aba:	2b00      	cmp	r3, #0
87801abc:	d0ae      	beq.n	87801a1c <xQueueGenericSendFromISR+0x14>
87801abe:	f002 fa05 	bl	87803ecc <ulPortSetInterruptMask>
87801ac2:	e7fe      	b.n	87801ac2 <xQueueGenericSendFromISR+0xba>

87801ac4 <xQueueGiveFromISR>:
87801ac4:	b5f8      	push	{r3, r4, r5, r6, r7, lr}
87801ac6:	b320      	cbz	r0, 87801b12 <xQueueGiveFromISR+0x4e>
87801ac8:	6c03      	ldr	r3, [r0, #64]	; 0x40
87801aca:	4604      	mov	r4, r0
87801acc:	b9f3      	cbnz	r3, 87801b0c <xQueueGiveFromISR+0x48>
87801ace:	6803      	ldr	r3, [r0, #0]
87801ad0:	460e      	mov	r6, r1
87801ad2:	b39b      	cbz	r3, 87801b3c <xQueueGiveFromISR+0x78>
87801ad4:	f002 fa16 	bl	87803f04 <vPortValidateInterruptPriority>
87801ad8:	f002 f9f8 	bl	87803ecc <ulPortSetInterruptMask>
87801adc:	6ba2      	ldr	r2, [r4, #56]	; 0x38
87801ade:	4607      	mov	r7, r0
87801ae0:	6be3      	ldr	r3, [r4, #60]	; 0x3c
87801ae2:	429a      	cmp	r2, r3
87801ae4:	bf28      	it	cs
87801ae6:	2500      	movcs	r5, #0
87801ae8:	d20b      	bcs.n	87801b02 <xQueueGiveFromISR+0x3e>
87801aea:	f894 3045 	ldrb.w	r3, [r4, #69]	; 0x45
87801aee:	3201      	adds	r2, #1
87801af0:	63a2      	str	r2, [r4, #56]	; 0x38
87801af2:	b25b      	sxtb	r3, r3
87801af4:	1c5a      	adds	r2, r3, #1
87801af6:	d00f      	beq.n	87801b18 <xQueueGiveFromISR+0x54>
87801af8:	3301      	adds	r3, #1
87801afa:	2501      	movs	r5, #1
87801afc:	b25b      	sxtb	r3, r3
87801afe:	f884 3045 	strb.w	r3, [r4, #69]	; 0x45
87801b02:	4638      	mov	r0, r7
87801b04:	f002 f9cc 	bl	87803ea0 <vPortClearInterruptMask>
87801b08:	4628      	mov	r0, r5
87801b0a:	bdf8      	pop	{r3, r4, r5, r6, r7, pc}
87801b0c:	f002 f9de 	bl	87803ecc <ulPortSetInterruptMask>
87801b10:	e7fe      	b.n	87801b10 <xQueueGiveFromISR+0x4c>
87801b12:	f002 f9db 	bl	87803ecc <ulPortSetInterruptMask>
87801b16:	e7fe      	b.n	87801b16 <xQueueGiveFromISR+0x52>
87801b18:	6a63      	ldr	r3, [r4, #36]	; 0x24
87801b1a:	2501      	movs	r5, #1
87801b1c:	2b00      	cmp	r3, #0
87801b1e:	d0f0      	beq.n	87801b02 <xQueueGiveFromISR+0x3e>
87801b20:	f104 0024 	add.w	r0, r4, #36	; 0x24
87801b24:	f001 f942 	bl	87802dac <xTaskRemoveFromEventList>
87801b28:	2800      	cmp	r0, #0
87801b2a:	bf18      	it	ne
87801b2c:	2e00      	cmpne	r6, #0
87801b2e:	4638      	mov	r0, r7
87801b30:	bf18      	it	ne
87801b32:	6035      	strne	r5, [r6, #0]
87801b34:	f002 f9b4 	bl	87803ea0 <vPortClearInterruptMask>
87801b38:	4628      	mov	r0, r5
87801b3a:	bdf8      	pop	{r3, r4, r5, r6, r7, pc}
87801b3c:	6843      	ldr	r3, [r0, #4]
87801b3e:	2b00      	cmp	r3, #0
87801b40:	d0c8      	beq.n	87801ad4 <xQueueGiveFromISR+0x10>
87801b42:	f002 f9c3 	bl	87803ecc <ulPortSetInterruptMask>
87801b46:	e7fe      	b.n	87801b46 <xQueueGiveFromISR+0x82>

87801b48 <xQueueGenericReceive>:
87801b48:	e92d 43f0 	stmdb	sp!, {r4, r5, r6, r7, r8, r9, lr}
87801b4c:	b085      	sub	sp, #20
87801b4e:	9201      	str	r2, [sp, #4]
87801b50:	2800      	cmp	r0, #0
87801b52:	d061      	beq.n	87801c18 <xQueueGenericReceive+0xd0>
87801b54:	4688      	mov	r8, r1
87801b56:	4699      	mov	r9, r3
87801b58:	4604      	mov	r4, r0
87801b5a:	2900      	cmp	r1, #0
87801b5c:	f000 8097 	beq.w	87801c8e <xQueueGenericReceive+0x146>
87801b60:	f001 fafc 	bl	8780315c <xTaskGetSchedulerState>
87801b64:	b920      	cbnz	r0, 87801b70 <xQueueGenericReceive+0x28>
87801b66:	9d01      	ldr	r5, [sp, #4]
87801b68:	b11d      	cbz	r5, 87801b72 <xQueueGenericReceive+0x2a>
87801b6a:	f002 f9af 	bl	87803ecc <ulPortSetInterruptMask>
87801b6e:	e7fe      	b.n	87801b6e <xQueueGenericReceive+0x26>
87801b70:	2500      	movs	r5, #0
87801b72:	2700      	movs	r7, #0
87801b74:	e00c      	b.n	87801b90 <xQueueGenericReceive+0x48>
87801b76:	f002 f927 	bl	87803dc8 <vPortEnterCritical>
87801b7a:	6ba3      	ldr	r3, [r4, #56]	; 0x38
87801b7c:	2b00      	cmp	r3, #0
87801b7e:	d039      	beq.n	87801bf4 <xQueueGenericReceive+0xac>
87801b80:	f002 f964 	bl	87803e4c <vPortExitCritical>
87801b84:	4620      	mov	r0, r4
87801b86:	f7ff fdbd 	bl	87801704 <prvUnlockQueue>
87801b8a:	f000 ff4b 	bl	87802a24 <xTaskResumeAll>
87801b8e:	2501      	movs	r5, #1
87801b90:	f002 f91a 	bl	87803dc8 <vPortEnterCritical>
87801b94:	6ba6      	ldr	r6, [r4, #56]	; 0x38
87801b96:	2e00      	cmp	r6, #0
87801b98:	d14f      	bne.n	87801c3a <xQueueGenericReceive+0xf2>
87801b9a:	9b01      	ldr	r3, [sp, #4]
87801b9c:	2b00      	cmp	r3, #0
87801b9e:	d046      	beq.n	87801c2e <xQueueGenericReceive+0xe6>
87801ba0:	b915      	cbnz	r5, 87801ba8 <xQueueGenericReceive+0x60>
87801ba2:	a802      	add	r0, sp, #8
87801ba4:	f001 f96c 	bl	87802e80 <vTaskSetTimeOutState>
87801ba8:	f002 f950 	bl	87803e4c <vPortExitCritical>
87801bac:	f000 fe98 	bl	878028e0 <vTaskSuspendAll>
87801bb0:	f002 f90a 	bl	87803dc8 <vPortEnterCritical>
87801bb4:	f894 3044 	ldrb.w	r3, [r4, #68]	; 0x44
87801bb8:	2bff      	cmp	r3, #255	; 0xff
87801bba:	bf08      	it	eq
87801bbc:	f884 7044 	strbeq.w	r7, [r4, #68]	; 0x44
87801bc0:	f894 3045 	ldrb.w	r3, [r4, #69]	; 0x45
87801bc4:	2bff      	cmp	r3, #255	; 0xff
87801bc6:	bf08      	it	eq
87801bc8:	f884 7045 	strbeq.w	r7, [r4, #69]	; 0x45
87801bcc:	f002 f93e 	bl	87803e4c <vPortExitCritical>
87801bd0:	a901      	add	r1, sp, #4
87801bd2:	a802      	add	r0, sp, #8
87801bd4:	f001 f964 	bl	87802ea0 <xTaskCheckForTimeOut>
87801bd8:	2800      	cmp	r0, #0
87801bda:	d0cc      	beq.n	87801b76 <xQueueGenericReceive+0x2e>
87801bdc:	4620      	mov	r0, r4
87801bde:	f7ff fd91 	bl	87801704 <prvUnlockQueue>
87801be2:	f000 ff1f 	bl	87802a24 <xTaskResumeAll>
87801be6:	f002 f8ef 	bl	87803dc8 <vPortEnterCritical>
87801bea:	6ba3      	ldr	r3, [r4, #56]	; 0x38
87801bec:	b1fb      	cbz	r3, 87801c2e <xQueueGenericReceive+0xe6>
87801bee:	f002 f92d 	bl	87803e4c <vPortExitCritical>
87801bf2:	e7cc      	b.n	87801b8e <xQueueGenericReceive+0x46>
87801bf4:	f002 f92a 	bl	87803e4c <vPortExitCritical>
87801bf8:	6823      	ldr	r3, [r4, #0]
87801bfa:	b183      	cbz	r3, 87801c1e <xQueueGenericReceive+0xd6>
87801bfc:	9901      	ldr	r1, [sp, #4]
87801bfe:	f104 0024 	add.w	r0, r4, #36	; 0x24
87801c02:	f001 f885 	bl	87802d10 <vTaskPlaceOnEventList>
87801c06:	4620      	mov	r0, r4
87801c08:	f7ff fd7c 	bl	87801704 <prvUnlockQueue>
87801c0c:	f000 ff0a 	bl	87802a24 <xTaskResumeAll>
87801c10:	2800      	cmp	r0, #0
87801c12:	d1bc      	bne.n	87801b8e <xQueueGenericReceive+0x46>
87801c14:	df00      	svc	0
87801c16:	e7ba      	b.n	87801b8e <xQueueGenericReceive+0x46>
87801c18:	f002 f958 	bl	87803ecc <ulPortSetInterruptMask>
87801c1c:	e7fe      	b.n	87801c1c <xQueueGenericReceive+0xd4>
87801c1e:	f002 f8d3 	bl	87803dc8 <vPortEnterCritical>
87801c22:	6860      	ldr	r0, [r4, #4]
87801c24:	f001 faaa 	bl	8780317c <vTaskPriorityInherit>
87801c28:	f002 f910 	bl	87803e4c <vPortExitCritical>
87801c2c:	e7e6      	b.n	87801bfc <xQueueGenericReceive+0xb4>
87801c2e:	f002 f90d 	bl	87803e4c <vPortExitCritical>
87801c32:	2000      	movs	r0, #0
87801c34:	b005      	add	sp, #20
87801c36:	e8bd 83f0 	ldmia.w	sp!, {r4, r5, r6, r7, r8, r9, pc}
87801c3a:	4641      	mov	r1, r8
87801c3c:	4620      	mov	r0, r4
87801c3e:	68e5      	ldr	r5, [r4, #12]
87801c40:	f004 fe14 	bl	8780686c <prvCopyDataFromQueue>
87801c44:	f1b9 0f00 	cmp.w	r9, #0
87801c48:	d10e      	bne.n	87801c68 <xQueueGenericReceive+0x120>
87801c4a:	6823      	ldr	r3, [r4, #0]
87801c4c:	3e01      	subs	r6, #1
87801c4e:	63a6      	str	r6, [r4, #56]	; 0x38
87801c50:	b913      	cbnz	r3, 87801c58 <xQueueGenericReceive+0x110>
87801c52:	f001 fb37 	bl	878032c4 <pvTaskIncrementMutexHeldCount>
87801c56:	6060      	str	r0, [r4, #4]
87801c58:	6923      	ldr	r3, [r4, #16]
87801c5a:	b98b      	cbnz	r3, 87801c80 <xQueueGenericReceive+0x138>
87801c5c:	f002 f8f6 	bl	87803e4c <vPortExitCritical>
87801c60:	2001      	movs	r0, #1
87801c62:	b005      	add	sp, #20
87801c64:	e8bd 83f0 	ldmia.w	sp!, {r4, r5, r6, r7, r8, r9, pc}
87801c68:	6a63      	ldr	r3, [r4, #36]	; 0x24
87801c6a:	60e5      	str	r5, [r4, #12]
87801c6c:	2b00      	cmp	r3, #0
87801c6e:	d0f5      	beq.n	87801c5c <xQueueGenericReceive+0x114>
87801c70:	f104 0024 	add.w	r0, r4, #36	; 0x24
87801c74:	f001 f89a 	bl	87802dac <xTaskRemoveFromEventList>
87801c78:	2800      	cmp	r0, #0
87801c7a:	d0ef      	beq.n	87801c5c <xQueueGenericReceive+0x114>
87801c7c:	df00      	svc	0
87801c7e:	e7ed      	b.n	87801c5c <xQueueGenericReceive+0x114>
87801c80:	f104 0010 	add.w	r0, r4, #16
87801c84:	f001 f892 	bl	87802dac <xTaskRemoveFromEventList>
87801c88:	2800      	cmp	r0, #0
87801c8a:	d1f7      	bne.n	87801c7c <xQueueGenericReceive+0x134>
87801c8c:	e7e6      	b.n	87801c5c <xQueueGenericReceive+0x114>
87801c8e:	6c03      	ldr	r3, [r0, #64]	; 0x40
87801c90:	2b00      	cmp	r3, #0
87801c92:	f43f af65 	beq.w	87801b60 <xQueueGenericReceive+0x18>
87801c96:	f002 f919 	bl	87803ecc <ulPortSetInterruptMask>
87801c9a:	e7fe      	b.n	87801c9a <xQueueGenericReceive+0x152>

87801c9c <xQueueTakeMutexRecursive>:
87801c9c:	b570      	push	{r4, r5, r6, lr}
87801c9e:	b188      	cbz	r0, 87801cc4 <xQueueTakeMutexRecursive+0x28>
87801ca0:	6846      	ldr	r6, [r0, #4]
87801ca2:	460d      	mov	r5, r1
87801ca4:	4604      	mov	r4, r0
87801ca6:	f001 fa53 	bl	87803150 <xTaskGetCurrentTaskHandle>
87801caa:	4286      	cmp	r6, r0
87801cac:	d00d      	beq.n	87801cca <xQueueTakeMutexRecursive+0x2e>
87801cae:	2300      	movs	r3, #0
87801cb0:	462a      	mov	r2, r5
87801cb2:	4619      	mov	r1, r3
87801cb4:	4620      	mov	r0, r4
87801cb6:	f7ff ff47 	bl	87801b48 <xQueueGenericReceive>
87801cba:	b110      	cbz	r0, 87801cc2 <xQueueTakeMutexRecursive+0x26>
87801cbc:	68e3      	ldr	r3, [r4, #12]
87801cbe:	3301      	adds	r3, #1
87801cc0:	60e3      	str	r3, [r4, #12]
87801cc2:	bd70      	pop	{r4, r5, r6, pc}
87801cc4:	f002 f902 	bl	87803ecc <ulPortSetInterruptMask>
87801cc8:	e7fe      	b.n	87801cc8 <xQueueTakeMutexRecursive+0x2c>
87801cca:	68e3      	ldr	r3, [r4, #12]
87801ccc:	2001      	movs	r0, #1
87801cce:	4403      	add	r3, r0
87801cd0:	60e3      	str	r3, [r4, #12]
87801cd2:	bd70      	pop	{r4, r5, r6, pc}

87801cd4 <xQueueReceiveFromISR>:
87801cd4:	e92d 43f8 	stmdb	sp!, {r3, r4, r5, r6, r7, r8, r9, lr}
87801cd8:	b180      	cbz	r0, 87801cfc <xQueueReceiveFromISR+0x28>
87801cda:	4689      	mov	r9, r1
87801cdc:	4690      	mov	r8, r2
87801cde:	4605      	mov	r5, r0
87801ce0:	b329      	cbz	r1, 87801d2e <xQueueReceiveFromISR+0x5a>
87801ce2:	f002 f90f 	bl	87803f04 <vPortValidateInterruptPriority>
87801ce6:	f002 f8f1 	bl	87803ecc <ulPortSetInterruptMask>
87801cea:	6bac      	ldr	r4, [r5, #56]	; 0x38
87801cec:	4607      	mov	r7, r0
87801cee:	b944      	cbnz	r4, 87801d02 <xQueueReceiveFromISR+0x2e>
87801cf0:	4638      	mov	r0, r7
87801cf2:	f002 f8d5 	bl	87803ea0 <vPortClearInterruptMask>
87801cf6:	4620      	mov	r0, r4
87801cf8:	e8bd 83f8 	ldmia.w	sp!, {r3, r4, r5, r6, r7, r8, r9, pc}
87801cfc:	f002 f8e6 	bl	87803ecc <ulPortSetInterruptMask>
87801d00:	e7fe      	b.n	87801d00 <xQueueReceiveFromISR+0x2c>
87801d02:	f895 6044 	ldrb.w	r6, [r5, #68]	; 0x44
87801d06:	4649      	mov	r1, r9
87801d08:	4628      	mov	r0, r5
87801d0a:	3c01      	subs	r4, #1
87801d0c:	f004 fdae 	bl	8780686c <prvCopyDataFromQueue>
87801d10:	63ac      	str	r4, [r5, #56]	; 0x38
87801d12:	b276      	sxtb	r6, r6
87801d14:	1c73      	adds	r3, r6, #1
87801d16:	d010      	beq.n	87801d3a <xQueueReceiveFromISR+0x66>
87801d18:	1c73      	adds	r3, r6, #1
87801d1a:	4638      	mov	r0, r7
87801d1c:	b25b      	sxtb	r3, r3
87801d1e:	2401      	movs	r4, #1
87801d20:	f885 3044 	strb.w	r3, [r5, #68]	; 0x44
87801d24:	f002 f8bc 	bl	87803ea0 <vPortClearInterruptMask>
87801d28:	4620      	mov	r0, r4
87801d2a:	e8bd 83f8 	ldmia.w	sp!, {r3, r4, r5, r6, r7, r8, r9, pc}
87801d2e:	6c03      	ldr	r3, [r0, #64]	; 0x40
87801d30:	2b00      	cmp	r3, #0
87801d32:	d0d6      	beq.n	87801ce2 <xQueueReceiveFromISR+0xe>
87801d34:	f002 f8ca 	bl	87803ecc <ulPortSetInterruptMask>
87801d38:	e7fe      	b.n	87801d38 <xQueueReceiveFromISR+0x64>
87801d3a:	692b      	ldr	r3, [r5, #16]
87801d3c:	2401      	movs	r4, #1
87801d3e:	2b00      	cmp	r3, #0
87801d40:	d0d6      	beq.n	87801cf0 <xQueueReceiveFromISR+0x1c>
87801d42:	f105 0010 	add.w	r0, r5, #16
87801d46:	f001 f831 	bl	87802dac <xTaskRemoveFromEventList>
87801d4a:	2800      	cmp	r0, #0
87801d4c:	bf18      	it	ne
87801d4e:	f1b8 0f00 	cmpne.w	r8, #0
87801d52:	4638      	mov	r0, r7
87801d54:	bf18      	it	ne
87801d56:	f8c8 4000 	strne.w	r4, [r8]
87801d5a:	f002 f8a1 	bl	87803ea0 <vPortClearInterruptMask>
87801d5e:	4620      	mov	r0, r4
87801d60:	e8bd 83f8 	ldmia.w	sp!, {r3, r4, r5, r6, r7, r8, r9, pc}

87801d64 <xQueuePeekFromISR>:
87801d64:	e92d 41f0 	stmdb	sp!, {r4, r5, r6, r7, r8, lr}
87801d68:	b1a0      	cbz	r0, 87801d94 <xQueuePeekFromISR+0x30>
87801d6a:	460e      	mov	r6, r1
87801d6c:	4604      	mov	r4, r0
87801d6e:	6c03      	ldr	r3, [r0, #64]	; 0x40
87801d70:	b311      	cbz	r1, 87801db8 <xQueuePeekFromISR+0x54>
87801d72:	b913      	cbnz	r3, 87801d7a <xQueuePeekFromISR+0x16>
87801d74:	f002 f8aa 	bl	87803ecc <ulPortSetInterruptMask>
87801d78:	e7fe      	b.n	87801d78 <xQueuePeekFromISR+0x14>
87801d7a:	f002 f8c3 	bl	87803f04 <vPortValidateInterruptPriority>
87801d7e:	f002 f8a5 	bl	87803ecc <ulPortSetInterruptMask>
87801d82:	6ba5      	ldr	r5, [r4, #56]	; 0x38
87801d84:	4607      	mov	r7, r0
87801d86:	b945      	cbnz	r5, 87801d9a <xQueuePeekFromISR+0x36>
87801d88:	4638      	mov	r0, r7
87801d8a:	f002 f889 	bl	87803ea0 <vPortClearInterruptMask>
87801d8e:	4628      	mov	r0, r5
87801d90:	e8bd 81f0 	ldmia.w	sp!, {r4, r5, r6, r7, r8, pc}
87801d94:	f002 f89a 	bl	87803ecc <ulPortSetInterruptMask>
87801d98:	e7fe      	b.n	87801d98 <xQueuePeekFromISR+0x34>
87801d9a:	f8d4 800c 	ldr.w	r8, [r4, #12]
87801d9e:	4631      	mov	r1, r6
87801da0:	4620      	mov	r0, r4
87801da2:	2501      	movs	r5, #1
87801da4:	f004 fd62 	bl	8780686c <prvCopyDataFromQueue>
87801da8:	4638      	mov	r0, r7
87801daa:	f8c4 800c 	str.w	r8, [r4, #12]
87801dae:	f002 f877 	bl	87803ea0 <vPortClearInterruptMask>
87801db2:	4628      	mov	r0, r5
87801db4:	e8bd 81f0 	ldmia.w	sp!, {r4, r5, r6, r7, r8, pc}
87801db8:	2b00      	cmp	r3, #0
87801dba:	d0db      	beq.n	87801d74 <xQueuePeekFromISR+0x10>
87801dbc:	f002 f886 	bl	87803ecc <ulPortSetInterruptMask>
87801dc0:	e7fe      	b.n	87801dc0 <xQueuePeekFromISR+0x5c>
87801dc2:	bf00      	nop

87801dc4 <uxQueueMessagesWaiting>:
87801dc4:	b510      	push	{r4, lr}
87801dc6:	b138      	cbz	r0, 87801dd8 <uxQueueMessagesWaiting+0x14>
87801dc8:	4604      	mov	r4, r0
87801dca:	f001 fffd 	bl	87803dc8 <vPortEnterCritical>
87801dce:	6ba4      	ldr	r4, [r4, #56]	; 0x38
87801dd0:	f002 f83c 	bl	87803e4c <vPortExitCritical>
87801dd4:	4620      	mov	r0, r4
87801dd6:	bd10      	pop	{r4, pc}
87801dd8:	f002 f878 	bl	87803ecc <ulPortSetInterruptMask>
87801ddc:	e7fe      	b.n	87801ddc <uxQueueMessagesWaiting+0x18>
87801dde:	bf00      	nop

87801de0 <uxQueueSpacesAvailable>:
87801de0:	b510      	push	{r4, lr}
87801de2:	b148      	cbz	r0, 87801df8 <uxQueueSpacesAvailable+0x18>
87801de4:	4604      	mov	r4, r0
87801de6:	f001 ffef 	bl	87803dc8 <vPortEnterCritical>
87801dea:	6ba3      	ldr	r3, [r4, #56]	; 0x38
87801dec:	6be4      	ldr	r4, [r4, #60]	; 0x3c
87801dee:	1ae4      	subs	r4, r4, r3
87801df0:	f002 f82c 	bl	87803e4c <vPortExitCritical>
87801df4:	4620      	mov	r0, r4
87801df6:	bd10      	pop	{r4, pc}
87801df8:	f002 f868 	bl	87803ecc <ulPortSetInterruptMask>
87801dfc:	e7fe      	b.n	87801dfc <uxQueueSpacesAvailable+0x1c>
87801dfe:	bf00      	nop

87801e00 <uxQueueMessagesWaitingFromISR>:
87801e00:	b108      	cbz	r0, 87801e06 <uxQueueMessagesWaitingFromISR+0x6>
87801e02:	6b80      	ldr	r0, [r0, #56]	; 0x38
87801e04:	4770      	bx	lr
87801e06:	b508      	push	{r3, lr}
87801e08:	f002 f860 	bl	87803ecc <ulPortSetInterruptMask>
87801e0c:	e7fe      	b.n	87801e0c <uxQueueMessagesWaitingFromISR+0xc>
87801e0e:	bf00      	nop

87801e10 <vQueueDelete>:
87801e10:	b510      	push	{r4, lr}
87801e12:	f649 74b8 	movw	r4, #40888	; 0x9fb8
87801e16:	f6c8 0401 	movt	r4, #34817	; 0x8801
87801e1a:	2200      	movs	r2, #0
87801e1c:	4623      	mov	r3, r4
87801e1e:	b1a0      	cbz	r0, 87801e4a <vQueueDelete+0x3a>
87801e20:	6859      	ldr	r1, [r3, #4]
87801e22:	3308      	adds	r3, #8
87801e24:	4288      	cmp	r0, r1
87801e26:	d006      	beq.n	87801e36 <vQueueDelete+0x26>
87801e28:	3201      	adds	r2, #1
87801e2a:	2a08      	cmp	r2, #8
87801e2c:	d1f8      	bne.n	87801e20 <vQueueDelete+0x10>
87801e2e:	e8bd 4010 	ldmia.w	sp!, {r4, lr}
87801e32:	f002 b979 	b.w	87804128 <vPortFree>
87801e36:	eb04 01c2 	add.w	r1, r4, r2, lsl #3
87801e3a:	2300      	movs	r3, #0
87801e3c:	f844 3032 	str.w	r3, [r4, r2, lsl #3]
87801e40:	604b      	str	r3, [r1, #4]
87801e42:	e8bd 4010 	ldmia.w	sp!, {r4, lr}
87801e46:	f002 b96f 	b.w	87804128 <vPortFree>
87801e4a:	f002 f83f 	bl	87803ecc <ulPortSetInterruptMask>
87801e4e:	e7fe      	b.n	87801e4e <vQueueDelete+0x3e>

87801e50 <uxQueueGetQueueNumber>:
87801e50:	6c80      	ldr	r0, [r0, #72]	; 0x48
87801e52:	4770      	bx	lr

87801e54 <vQueueSetQueueNumber>:
87801e54:	6481      	str	r1, [r0, #72]	; 0x48
87801e56:	4770      	bx	lr

87801e58 <ucQueueGetQueueType>:
87801e58:	f890 004c 	ldrb.w	r0, [r0, #76]	; 0x4c
87801e5c:	4770      	bx	lr
87801e5e:	bf00      	nop

87801e60 <xQueueIsQueueEmptyFromISR>:
87801e60:	b120      	cbz	r0, 87801e6c <xQueueIsQueueEmptyFromISR+0xc>
87801e62:	6b80      	ldr	r0, [r0, #56]	; 0x38
87801e64:	fab0 f080 	clz	r0, r0
87801e68:	0940      	lsrs	r0, r0, #5
87801e6a:	4770      	bx	lr
87801e6c:	b508      	push	{r3, lr}
87801e6e:	f002 f82d 	bl	87803ecc <ulPortSetInterruptMask>
87801e72:	e7fe      	b.n	87801e72 <xQueueIsQueueEmptyFromISR+0x12>

87801e74 <xQueueIsQueueFullFromISR>:
87801e74:	b508      	push	{r3, lr}
87801e76:	b130      	cbz	r0, 87801e86 <xQueueIsQueueFullFromISR+0x12>
87801e78:	6b83      	ldr	r3, [r0, #56]	; 0x38
87801e7a:	6bc0      	ldr	r0, [r0, #60]	; 0x3c
87801e7c:	1ac0      	subs	r0, r0, r3
87801e7e:	fab0 f080 	clz	r0, r0
87801e82:	0940      	lsrs	r0, r0, #5
87801e84:	bd08      	pop	{r3, pc}
87801e86:	f002 f821 	bl	87803ecc <ulPortSetInterruptMask>
87801e8a:	e7fe      	b.n	87801e8a <xQueueIsQueueFullFromISR+0x16>

87801e8c <vQueueAddToRegistry>:
87801e8c:	f649 72b8 	movw	r2, #40888	; 0x9fb8
87801e90:	2300      	movs	r3, #0
87801e92:	f6c8 0201 	movt	r2, #34817	; 0x8801
87801e96:	b430      	push	{r4, r5}
87801e98:	f852 4033 	ldr.w	r4, [r2, r3, lsl #3]
87801e9c:	eb02 05c3 	add.w	r5, r2, r3, lsl #3
87801ea0:	b124      	cbz	r4, 87801eac <vQueueAddToRegistry+0x20>
87801ea2:	3301      	adds	r3, #1
87801ea4:	2b08      	cmp	r3, #8
87801ea6:	d1f7      	bne.n	87801e98 <vQueueAddToRegistry+0xc>
87801ea8:	bc30      	pop	{r4, r5}
87801eaa:	4770      	bx	lr
87801eac:	6068      	str	r0, [r5, #4]
87801eae:	f842 1033 	str.w	r1, [r2, r3, lsl #3]
87801eb2:	bc30      	pop	{r4, r5}
87801eb4:	4770      	bx	lr
87801eb6:	bf00      	nop

87801eb8 <pcQueueGetName>:
87801eb8:	b410      	push	{r4}
87801eba:	f649 74b8 	movw	r4, #40888	; 0x9fb8
87801ebe:	f6c8 0401 	movt	r4, #34817	; 0x8801
87801ec2:	2200      	movs	r2, #0
87801ec4:	4623      	mov	r3, r4
87801ec6:	6859      	ldr	r1, [r3, #4]
87801ec8:	3308      	adds	r3, #8
87801eca:	4281      	cmp	r1, r0
87801ecc:	d006      	beq.n	87801edc <pcQueueGetName+0x24>
87801ece:	3201      	adds	r2, #1
87801ed0:	2a08      	cmp	r2, #8
87801ed2:	d1f8      	bne.n	87801ec6 <pcQueueGetName+0xe>
87801ed4:	2000      	movs	r0, #0
87801ed6:	f85d 4b04 	ldr.w	r4, [sp], #4
87801eda:	4770      	bx	lr
87801edc:	f854 0032 	ldr.w	r0, [r4, r2, lsl #3]
87801ee0:	f85d 4b04 	ldr.w	r4, [sp], #4
87801ee4:	4770      	bx	lr
87801ee6:	bf00      	nop

87801ee8 <vQueueUnregisterQueue>:
87801ee8:	b410      	push	{r4}
87801eea:	f649 74b8 	movw	r4, #40888	; 0x9fb8
87801eee:	f6c8 0401 	movt	r4, #34817	; 0x8801
87801ef2:	2200      	movs	r2, #0
87801ef4:	4623      	mov	r3, r4
87801ef6:	6859      	ldr	r1, [r3, #4]
87801ef8:	3308      	adds	r3, #8
87801efa:	4281      	cmp	r1, r0
87801efc:	d005      	beq.n	87801f0a <vQueueUnregisterQueue+0x22>
87801efe:	3201      	adds	r2, #1
87801f00:	2a08      	cmp	r2, #8
87801f02:	d1f8      	bne.n	87801ef6 <vQueueUnregisterQueue+0xe>
87801f04:	f85d 4b04 	ldr.w	r4, [sp], #4
87801f08:	4770      	bx	lr
87801f0a:	eb04 01c2 	add.w	r1, r4, r2, lsl #3
87801f0e:	2300      	movs	r3, #0
87801f10:	f844 3032 	str.w	r3, [r4, r2, lsl #3]
87801f14:	604b      	str	r3, [r1, #4]
87801f16:	f85d 4b04 	ldr.w	r4, [sp], #4
87801f1a:	4770      	bx	lr

87801f1c <vQueueWaitForMessageRestricted>:
87801f1c:	b570      	push	{r4, r5, r6, lr}
87801f1e:	4604      	mov	r4, r0
87801f20:	460d      	mov	r5, r1
87801f22:	4616      	mov	r6, r2
87801f24:	f001 ff50 	bl	87803dc8 <vPortEnterCritical>
87801f28:	f894 3044 	ldrb.w	r3, [r4, #68]	; 0x44
87801f2c:	2bff      	cmp	r3, #255	; 0xff
87801f2e:	bf04      	itt	eq
87801f30:	2300      	moveq	r3, #0
87801f32:	f884 3044 	strbeq.w	r3, [r4, #68]	; 0x44
87801f36:	f894 3045 	ldrb.w	r3, [r4, #69]	; 0x45
87801f3a:	2bff      	cmp	r3, #255	; 0xff
87801f3c:	bf04      	itt	eq
87801f3e:	2300      	moveq	r3, #0
87801f40:	f884 3045 	strbeq.w	r3, [r4, #69]	; 0x45
87801f44:	f001 ff82 	bl	87803e4c <vPortExitCritical>
87801f48:	6ba3      	ldr	r3, [r4, #56]	; 0x38
87801f4a:	b92b      	cbnz	r3, 87801f58 <vQueueWaitForMessageRestricted+0x3c>
87801f4c:	4632      	mov	r2, r6
87801f4e:	4629      	mov	r1, r5
87801f50:	f104 0024 	add.w	r0, r4, #36	; 0x24
87801f54:	f000 ff10 	bl	87802d78 <vTaskPlaceOnEventListRestricted>
87801f58:	4620      	mov	r0, r4
87801f5a:	e8bd 4070 	ldmia.w	sp!, {r4, r5, r6, lr}
87801f5e:	f7ff bbd1 	b.w	87801704 <prvUnlockQueue>
87801f62:	bf00      	nop

87801f64 <vListInitialise>:
87801f64:	f100 0308 	add.w	r3, r0, #8
87801f68:	f04f 31ff 	mov.w	r1, #4294967295	; 0xffffffff
87801f6c:	2200      	movs	r2, #0
87801f6e:	6081      	str	r1, [r0, #8]
87801f70:	e880 000c 	stmia.w	r0, {r2, r3}
87801f74:	60c3      	str	r3, [r0, #12]
87801f76:	6103      	str	r3, [r0, #16]
87801f78:	4770      	bx	lr
87801f7a:	bf00      	nop

87801f7c <vListInitialiseItem>:
87801f7c:	2300      	movs	r3, #0
87801f7e:	6103      	str	r3, [r0, #16]
87801f80:	4770      	bx	lr
87801f82:	bf00      	nop

87801f84 <vListInsertEnd>:
87801f84:	e890 000c 	ldmia.w	r0, {r2, r3}
87801f88:	b410      	push	{r4}
87801f8a:	3201      	adds	r2, #1
87801f8c:	689c      	ldr	r4, [r3, #8]
87801f8e:	604b      	str	r3, [r1, #4]
87801f90:	608c      	str	r4, [r1, #8]
87801f92:	689c      	ldr	r4, [r3, #8]
87801f94:	6061      	str	r1, [r4, #4]
87801f96:	6099      	str	r1, [r3, #8]
87801f98:	f85d 4b04 	ldr.w	r4, [sp], #4
87801f9c:	6108      	str	r0, [r1, #16]
87801f9e:	6002      	str	r2, [r0, #0]
87801fa0:	4770      	bx	lr
87801fa2:	bf00      	nop

87801fa4 <vListInsert>:
87801fa4:	b430      	push	{r4, r5}
87801fa6:	680d      	ldr	r5, [r1, #0]
87801fa8:	1c6b      	adds	r3, r5, #1
87801faa:	bf18      	it	ne
87801fac:	f100 0208 	addne.w	r2, r0, #8
87801fb0:	d101      	bne.n	87801fb6 <vListInsert+0x12>
87801fb2:	e00e      	b.n	87801fd2 <vListInsert+0x2e>
87801fb4:	461a      	mov	r2, r3
87801fb6:	6853      	ldr	r3, [r2, #4]
87801fb8:	681c      	ldr	r4, [r3, #0]
87801fba:	42a5      	cmp	r5, r4
87801fbc:	d2fa      	bcs.n	87801fb4 <vListInsert+0x10>
87801fbe:	6804      	ldr	r4, [r0, #0]
87801fc0:	604b      	str	r3, [r1, #4]
87801fc2:	6099      	str	r1, [r3, #8]
87801fc4:	3401      	adds	r4, #1
87801fc6:	608a      	str	r2, [r1, #8]
87801fc8:	6051      	str	r1, [r2, #4]
87801fca:	6108      	str	r0, [r1, #16]
87801fcc:	6004      	str	r4, [r0, #0]
87801fce:	bc30      	pop	{r4, r5}
87801fd0:	4770      	bx	lr
87801fd2:	6902      	ldr	r2, [r0, #16]
87801fd4:	6853      	ldr	r3, [r2, #4]
87801fd6:	e7f2      	b.n	87801fbe <vListInsert+0x1a>

87801fd8 <uxListRemove>:
87801fd8:	6902      	ldr	r2, [r0, #16]
87801fda:	6843      	ldr	r3, [r0, #4]
87801fdc:	6881      	ldr	r1, [r0, #8]
87801fde:	b410      	push	{r4}
87801fe0:	6854      	ldr	r4, [r2, #4]
87801fe2:	6099      	str	r1, [r3, #8]
87801fe4:	6881      	ldr	r1, [r0, #8]
87801fe6:	42a0      	cmp	r0, r4
87801fe8:	f85d 4b04 	ldr.w	r4, [sp], #4
87801fec:	604b      	str	r3, [r1, #4]
87801fee:	6813      	ldr	r3, [r2, #0]
87801ff0:	bf08      	it	eq
87801ff2:	6051      	streq	r1, [r2, #4]
87801ff4:	2100      	movs	r1, #0
87801ff6:	6101      	str	r1, [r0, #16]
87801ff8:	1e58      	subs	r0, r3, #1
87801ffa:	6010      	str	r0, [r2, #0]
87801ffc:	4770      	bx	lr
87801ffe:	bf00      	nop

87802000 <xEventGroupCreate>:
87802000:	b510      	push	{r4, lr}
87802002:	201c      	movs	r0, #28
87802004:	f002 f804 	bl	87804010 <pvPortMalloc>
87802008:	4604      	mov	r4, r0
8780200a:	b120      	cbz	r0, 87802016 <xEventGroupCreate+0x16>
8780200c:	2300      	movs	r3, #0
8780200e:	f840 3b04 	str.w	r3, [r0], #4
87802012:	f7ff ffa7 	bl	87801f64 <vListInitialise>
87802016:	4620      	mov	r0, r4
87802018:	bd10      	pop	{r4, pc}
8780201a:	bf00      	nop

8780201c <xEventGroupWaitBits>:
8780201c:	e92d 43f8 	stmdb	sp!, {r3, r4, r5, r6, r7, r8, r9, lr}
87802020:	f8dd 8020 	ldr.w	r8, [sp, #32]
87802024:	b340      	cbz	r0, 87802078 <xEventGroupWaitBits+0x5c>
87802026:	f011 4f7f 	tst.w	r1, #4278190080	; 0xff000000
8780202a:	460d      	mov	r5, r1
8780202c:	d121      	bne.n	87802072 <xEventGroupWaitBits+0x56>
8780202e:	b911      	cbnz	r1, 87802036 <xEventGroupWaitBits+0x1a>
87802030:	f001 ff4c 	bl	87803ecc <ulPortSetInterruptMask>
87802034:	e7fe      	b.n	87802034 <xEventGroupWaitBits+0x18>
87802036:	4699      	mov	r9, r3
87802038:	4617      	mov	r7, r2
8780203a:	4606      	mov	r6, r0
8780203c:	f001 f88e 	bl	8780315c <xTaskGetSchedulerState>
87802040:	1c03      	adds	r3, r0, #0
87802042:	bf18      	it	ne
87802044:	2301      	movne	r3, #1
87802046:	f1b8 0f00 	cmp.w	r8, #0
8780204a:	bf08      	it	eq
8780204c:	f043 0301 	orreq.w	r3, r3, #1
87802050:	b913      	cbnz	r3, 87802058 <xEventGroupWaitBits+0x3c>
87802052:	f001 ff3b 	bl	87803ecc <ulPortSetInterruptMask>
87802056:	e7fe      	b.n	87802056 <xEventGroupWaitBits+0x3a>
87802058:	f000 fc42 	bl	878028e0 <vTaskSuspendAll>
8780205c:	6834      	ldr	r4, [r6, #0]
8780205e:	f1b9 0f00 	cmp.w	r9, #0
87802062:	d10c      	bne.n	8780207e <xEventGroupWaitBits+0x62>
87802064:	4225      	tst	r5, r4
87802066:	d00d      	beq.n	87802084 <xEventGroupWaitBits+0x68>
87802068:	b17f      	cbz	r7, 8780208a <xEventGroupWaitBits+0x6e>
8780206a:	ea24 0505 	bic.w	r5, r4, r5
8780206e:	6035      	str	r5, [r6, #0]
87802070:	e00b      	b.n	8780208a <xEventGroupWaitBits+0x6e>
87802072:	f001 ff2b 	bl	87803ecc <ulPortSetInterruptMask>
87802076:	e7fe      	b.n	87802076 <xEventGroupWaitBits+0x5a>
87802078:	f001 ff28 	bl	87803ecc <ulPortSetInterruptMask>
8780207c:	e7fe      	b.n	8780207c <xEventGroupWaitBits+0x60>
8780207e:	ea35 0304 	bics.w	r3, r5, r4
87802082:	d0f1      	beq.n	87802068 <xEventGroupWaitBits+0x4c>
87802084:	f1b8 0f00 	cmp.w	r8, #0
87802088:	d104      	bne.n	87802094 <xEventGroupWaitBits+0x78>
8780208a:	f000 fccb 	bl	87802a24 <xTaskResumeAll>
8780208e:	4620      	mov	r0, r4
87802090:	e8bd 83f8 	ldmia.w	sp!, {r3, r4, r5, r6, r7, r8, r9, pc}
87802094:	2f00      	cmp	r7, #0
87802096:	bf0c      	ite	eq
87802098:	2100      	moveq	r1, #0
8780209a:	f04f 7180 	movne.w	r1, #16777216	; 0x1000000
8780209e:	f1b9 0f00 	cmp.w	r9, #0
878020a2:	d001      	beq.n	878020a8 <xEventGroupWaitBits+0x8c>
878020a4:	f041 6180 	orr.w	r1, r1, #67108864	; 0x4000000
878020a8:	4642      	mov	r2, r8
878020aa:	4329      	orrs	r1, r5
878020ac:	1d30      	adds	r0, r6, #4
878020ae:	f000 fe43 	bl	87802d38 <vTaskPlaceOnUnorderedEventList>
878020b2:	f000 fcb7 	bl	87802a24 <xTaskResumeAll>
878020b6:	b900      	cbnz	r0, 878020ba <xEventGroupWaitBits+0x9e>
878020b8:	df00      	svc	0
878020ba:	f001 f8f5 	bl	878032a8 <uxTaskResetEventItemValue>
878020be:	0183      	lsls	r3, r0, #6
878020c0:	4604      	mov	r4, r0
878020c2:	d503      	bpl.n	878020cc <xEventGroupWaitBits+0xb0>
878020c4:	f024 407f 	bic.w	r0, r4, #4278190080	; 0xff000000
878020c8:	e8bd 83f8 	ldmia.w	sp!, {r3, r4, r5, r6, r7, r8, r9, pc}
878020cc:	f001 fe7c 	bl	87803dc8 <vPortEnterCritical>
878020d0:	6834      	ldr	r4, [r6, #0]
878020d2:	f1b9 0f00 	cmp.w	r9, #0
878020d6:	d108      	bne.n	878020ea <xEventGroupWaitBits+0xce>
878020d8:	4225      	tst	r5, r4
878020da:	d003      	beq.n	878020e4 <xEventGroupWaitBits+0xc8>
878020dc:	b117      	cbz	r7, 878020e4 <xEventGroupWaitBits+0xc8>
878020de:	ea24 0505 	bic.w	r5, r4, r5
878020e2:	6035      	str	r5, [r6, #0]
878020e4:	f001 feb2 	bl	87803e4c <vPortExitCritical>
878020e8:	e7ec      	b.n	878020c4 <xEventGroupWaitBits+0xa8>
878020ea:	ea35 0304 	bics.w	r3, r5, r4
878020ee:	d1f9      	bne.n	878020e4 <xEventGroupWaitBits+0xc8>
878020f0:	e7f4      	b.n	878020dc <xEventGroupWaitBits+0xc0>
878020f2:	bf00      	nop

878020f4 <xEventGroupClearBits>:
878020f4:	b570      	push	{r4, r5, r6, lr}
878020f6:	b188      	cbz	r0, 8780211c <xEventGroupClearBits+0x28>
878020f8:	f011 4f7f 	tst.w	r1, #4278190080	; 0xff000000
878020fc:	460c      	mov	r4, r1
878020fe:	d002      	beq.n	87802106 <xEventGroupClearBits+0x12>
87802100:	f001 fee4 	bl	87803ecc <ulPortSetInterruptMask>
87802104:	e7fe      	b.n	87802104 <xEventGroupClearBits+0x10>
87802106:	4605      	mov	r5, r0
87802108:	f001 fe5e 	bl	87803dc8 <vPortEnterCritical>
8780210c:	682e      	ldr	r6, [r5, #0]
8780210e:	ea26 0404 	bic.w	r4, r6, r4
87802112:	602c      	str	r4, [r5, #0]
87802114:	f001 fe9a 	bl	87803e4c <vPortExitCritical>
87802118:	4630      	mov	r0, r6
8780211a:	bd70      	pop	{r4, r5, r6, pc}
8780211c:	f001 fed6 	bl	87803ecc <ulPortSetInterruptMask>
87802120:	e7fe      	b.n	87802120 <xEventGroupClearBits+0x2c>
87802122:	bf00      	nop

87802124 <vEventGroupClearBitsCallback>:
87802124:	f7ff bfe6 	b.w	878020f4 <xEventGroupClearBits>

87802128 <xEventGroupClearBitsFromISR>:
87802128:	460a      	mov	r2, r1
8780212a:	4601      	mov	r1, r0
8780212c:	f242 1025 	movw	r0, #8485	; 0x2125
87802130:	2300      	movs	r3, #0
87802132:	f2c8 7080 	movt	r0, #34688	; 0x8780
87802136:	f001 bc9b 	b.w	87803a70 <xTimerPendFunctionCallFromISR>
8780213a:	bf00      	nop

8780213c <xEventGroupGetBitsFromISR>:
8780213c:	b510      	push	{r4, lr}
8780213e:	4604      	mov	r4, r0
87802140:	f001 fec4 	bl	87803ecc <ulPortSetInterruptMask>
87802144:	6824      	ldr	r4, [r4, #0]
87802146:	f001 feab 	bl	87803ea0 <vPortClearInterruptMask>
8780214a:	4620      	mov	r0, r4
8780214c:	bd10      	pop	{r4, pc}
8780214e:	bf00      	nop

87802150 <xEventGroupSetBits>:
87802150:	b5f8      	push	{r3, r4, r5, r6, r7, lr}
87802152:	b3a8      	cbz	r0, 878021c0 <xEventGroupSetBits+0x70>
87802154:	f011 467f 	ands.w	r6, r1, #4278190080	; 0xff000000
87802158:	460c      	mov	r4, r1
8780215a:	d002      	beq.n	87802162 <xEventGroupSetBits+0x12>
8780215c:	f001 feb6 	bl	87803ecc <ulPortSetInterruptMask>
87802160:	e7fe      	b.n	87802160 <xEventGroupSetBits+0x10>
87802162:	4605      	mov	r5, r0
87802164:	f000 fbbc 	bl	878028e0 <vTaskSuspendAll>
87802168:	6928      	ldr	r0, [r5, #16]
8780216a:	f105 070c 	add.w	r7, r5, #12
8780216e:	6829      	ldr	r1, [r5, #0]
87802170:	4287      	cmp	r7, r0
87802172:	ea41 0104 	orr.w	r1, r1, r4
87802176:	6029      	str	r1, [r5, #0]
87802178:	d025      	beq.n	878021c6 <xEventGroupSetBits+0x76>
8780217a:	4634      	mov	r4, r6
8780217c:	e00c      	b.n	87802198 <xEventGroupSetBits+0x48>
8780217e:	420a      	tst	r2, r1
87802180:	d007      	beq.n	87802192 <xEventGroupSetBits+0x42>
87802182:	01db      	lsls	r3, r3, #7
87802184:	f041 7100 	orr.w	r1, r1, #33554432	; 0x2000000
87802188:	bf48      	it	mi
8780218a:	4314      	orrmi	r4, r2
8780218c:	f000 fe44 	bl	87802e18 <xTaskRemoveFromUnorderedEventList>
87802190:	6829      	ldr	r1, [r5, #0]
87802192:	42b7      	cmp	r7, r6
87802194:	4630      	mov	r0, r6
87802196:	d00c      	beq.n	878021b2 <xEventGroupSetBits+0x62>
87802198:	e890 0048 	ldmia.w	r0, {r3, r6}
8780219c:	f013 6f80 	tst.w	r3, #67108864	; 0x4000000
878021a0:	f023 427f 	bic.w	r2, r3, #4278190080	; 0xff000000
878021a4:	d0eb      	beq.n	8780217e <xEventGroupSetBits+0x2e>
878021a6:	ea32 0e01 	bics.w	lr, r2, r1
878021aa:	d0ea      	beq.n	87802182 <xEventGroupSetBits+0x32>
878021ac:	42b7      	cmp	r7, r6
878021ae:	4630      	mov	r0, r6
878021b0:	d1f2      	bne.n	87802198 <xEventGroupSetBits+0x48>
878021b2:	43e4      	mvns	r4, r4
878021b4:	4021      	ands	r1, r4
878021b6:	6029      	str	r1, [r5, #0]
878021b8:	f000 fc34 	bl	87802a24 <xTaskResumeAll>
878021bc:	6828      	ldr	r0, [r5, #0]
878021be:	bdf8      	pop	{r3, r4, r5, r6, r7, pc}
878021c0:	f001 fe84 	bl	87803ecc <ulPortSetInterruptMask>
878021c4:	e7fe      	b.n	878021c4 <xEventGroupSetBits+0x74>
878021c6:	f04f 34ff 	mov.w	r4, #4294967295	; 0xffffffff
878021ca:	e7f3      	b.n	878021b4 <xEventGroupSetBits+0x64>

878021cc <xEventGroupSync>:
878021cc:	f012 4f7f 	tst.w	r2, #4278190080	; 0xff000000
878021d0:	e92d 41f0 	stmdb	sp!, {r4, r5, r6, r7, r8, lr}
878021d4:	d123      	bne.n	8780221e <xEventGroupSync+0x52>
878021d6:	4615      	mov	r5, r2
878021d8:	b912      	cbnz	r2, 878021e0 <xEventGroupSync+0x14>
878021da:	f001 fe77 	bl	87803ecc <ulPortSetInterruptMask>
878021de:	e7fe      	b.n	878021de <xEventGroupSync+0x12>
878021e0:	461f      	mov	r7, r3
878021e2:	4688      	mov	r8, r1
878021e4:	4606      	mov	r6, r0
878021e6:	f000 ffb9 	bl	8780315c <xTaskGetSchedulerState>
878021ea:	fab7 f187 	clz	r1, r7
878021ee:	0949      	lsrs	r1, r1, #5
878021f0:	2800      	cmp	r0, #0
878021f2:	bf18      	it	ne
878021f4:	f041 0101 	orrne.w	r1, r1, #1
878021f8:	b911      	cbnz	r1, 87802200 <xEventGroupSync+0x34>
878021fa:	f001 fe67 	bl	87803ecc <ulPortSetInterruptMask>
878021fe:	e7fe      	b.n	878021fe <xEventGroupSync+0x32>
87802200:	f000 fb6e 	bl	878028e0 <vTaskSuspendAll>
87802204:	6834      	ldr	r4, [r6, #0]
87802206:	4641      	mov	r1, r8
87802208:	4630      	mov	r0, r6
8780220a:	f7ff ffa1 	bl	87802150 <xEventGroupSetBits>
8780220e:	ea44 0408 	orr.w	r4, r4, r8
87802212:	ea35 0304 	bics.w	r3, r5, r4
87802216:	d005      	beq.n	87802224 <xEventGroupSync+0x58>
87802218:	b96f      	cbnz	r7, 87802236 <xEventGroupSync+0x6a>
8780221a:	6834      	ldr	r4, [r6, #0]
8780221c:	e006      	b.n	8780222c <xEventGroupSync+0x60>
8780221e:	f001 fe55 	bl	87803ecc <ulPortSetInterruptMask>
87802222:	e7fe      	b.n	87802222 <xEventGroupSync+0x56>
87802224:	6833      	ldr	r3, [r6, #0]
87802226:	ea23 0305 	bic.w	r3, r3, r5
8780222a:	6033      	str	r3, [r6, #0]
8780222c:	f000 fbfa 	bl	87802a24 <xTaskResumeAll>
87802230:	4620      	mov	r0, r4
87802232:	e8bd 81f0 	ldmia.w	sp!, {r4, r5, r6, r7, r8, pc}
87802236:	463a      	mov	r2, r7
87802238:	f045 61a0 	orr.w	r1, r5, #83886080	; 0x5000000
8780223c:	1d30      	adds	r0, r6, #4
8780223e:	f000 fd7b 	bl	87802d38 <vTaskPlaceOnUnorderedEventList>
87802242:	f000 fbef 	bl	87802a24 <xTaskResumeAll>
87802246:	b900      	cbnz	r0, 8780224a <xEventGroupSync+0x7e>
87802248:	df00      	svc	0
8780224a:	f001 f82d 	bl	878032a8 <uxTaskResetEventItemValue>
8780224e:	0183      	lsls	r3, r0, #6
87802250:	4604      	mov	r4, r0
87802252:	d40a      	bmi.n	8780226a <xEventGroupSync+0x9e>
87802254:	f001 fdb8 	bl	87803dc8 <vPortEnterCritical>
87802258:	6834      	ldr	r4, [r6, #0]
8780225a:	ea35 0304 	bics.w	r3, r5, r4
8780225e:	bf04      	itt	eq
87802260:	ea24 0505 	biceq.w	r5, r4, r5
87802264:	6035      	streq	r5, [r6, #0]
87802266:	f001 fdf1 	bl	87803e4c <vPortExitCritical>
8780226a:	f024 447f 	bic.w	r4, r4, #4278190080	; 0xff000000
8780226e:	e7df      	b.n	87802230 <xEventGroupSync+0x64>

87802270 <vEventGroupSetBitsCallback>:
87802270:	f7ff bf6e 	b.w	87802150 <xEventGroupSetBits>

87802274 <vEventGroupDelete>:
87802274:	b538      	push	{r3, r4, r5, lr}
87802276:	4604      	mov	r4, r0
87802278:	f000 fb32 	bl	878028e0 <vTaskSuspendAll>
8780227c:	6863      	ldr	r3, [r4, #4]
8780227e:	b17b      	cbz	r3, 878022a0 <vEventGroupDelete+0x2c>
87802280:	6920      	ldr	r0, [r4, #16]
87802282:	f104 050c 	add.w	r5, r4, #12
87802286:	42a8      	cmp	r0, r5
87802288:	d103      	bne.n	87802292 <vEventGroupDelete+0x1e>
8780228a:	e010      	b.n	878022ae <vEventGroupDelete+0x3a>
8780228c:	6920      	ldr	r0, [r4, #16]
8780228e:	42a8      	cmp	r0, r5
87802290:	d00d      	beq.n	878022ae <vEventGroupDelete+0x3a>
87802292:	f04f 7100 	mov.w	r1, #33554432	; 0x2000000
87802296:	f000 fdbf 	bl	87802e18 <xTaskRemoveFromUnorderedEventList>
8780229a:	6863      	ldr	r3, [r4, #4]
8780229c:	2b00      	cmp	r3, #0
8780229e:	d1f5      	bne.n	8780228c <vEventGroupDelete+0x18>
878022a0:	4620      	mov	r0, r4
878022a2:	f001 ff41 	bl	87804128 <vPortFree>
878022a6:	e8bd 4038 	ldmia.w	sp!, {r3, r4, r5, lr}
878022aa:	f000 bbbb 	b.w	87802a24 <xTaskResumeAll>
878022ae:	f001 fe0d 	bl	87803ecc <ulPortSetInterruptMask>
878022b2:	e7fe      	b.n	878022b2 <vEventGroupDelete+0x3e>

878022b4 <xEventGroupSetBitsFromISR>:
878022b4:	4613      	mov	r3, r2
878022b6:	460a      	mov	r2, r1
878022b8:	4601      	mov	r1, r0
878022ba:	f242 2071 	movw	r0, #8817	; 0x2271
878022be:	f2c8 7080 	movt	r0, #34688	; 0x8780
878022c2:	f001 bbd5 	b.w	87803a70 <xTimerPendFunctionCallFromISR>
878022c6:	bf00      	nop

878022c8 <uxEventGroupGetNumber>:
878022c8:	b100      	cbz	r0, 878022cc <uxEventGroupGetNumber+0x4>
878022ca:	6980      	ldr	r0, [r0, #24]
878022cc:	4770      	bx	lr
878022ce:	bf00      	nop

878022d0 <prvAddCurrentTaskToDelayedList>:
878022d0:	b5f8      	push	{r3, r4, r5, r6, r7, lr}
878022d2:	f240 140c 	movw	r4, #268	; 0x10c
878022d6:	f6c8 0400 	movt	r4, #34816	; 0x8800
878022da:	4606      	mov	r6, r0
878022dc:	460f      	mov	r7, r1
878022de:	6825      	ldr	r5, [r4, #0]
878022e0:	6860      	ldr	r0, [r4, #4]
878022e2:	3004      	adds	r0, #4
878022e4:	f7ff fe78 	bl	87801fd8 <uxListRemove>
878022e8:	b938      	cbnz	r0, 878022fa <prvAddCurrentTaskToDelayedList+0x2a>
878022ea:	6861      	ldr	r1, [r4, #4]
878022ec:	2201      	movs	r2, #1
878022ee:	68a3      	ldr	r3, [r4, #8]
878022f0:	6ac9      	ldr	r1, [r1, #44]	; 0x2c
878022f2:	408a      	lsls	r2, r1
878022f4:	ea23 0302 	bic.w	r3, r3, r2
878022f8:	60a3      	str	r3, [r4, #8]
878022fa:	f1a6 33ff 	sub.w	r3, r6, #4294967295	; 0xffffffff
878022fe:	2f00      	cmp	r7, #0
87802300:	fab3 f383 	clz	r3, r3
87802304:	ea4f 1353 	mov.w	r3, r3, lsr #5
87802308:	bf08      	it	eq
8780230a:	2300      	moveq	r3, #0
8780230c:	b9a3      	cbnz	r3, 87802338 <prvAddCurrentTaskToDelayedList+0x68>
8780230e:	6863      	ldr	r3, [r4, #4]
87802310:	19ad      	adds	r5, r5, r6
87802312:	605d      	str	r5, [r3, #4]
87802314:	d209      	bcs.n	8780232a <prvAddCurrentTaskToDelayedList+0x5a>
87802316:	6a60      	ldr	r0, [r4, #36]	; 0x24
87802318:	6861      	ldr	r1, [r4, #4]
8780231a:	3104      	adds	r1, #4
8780231c:	f7ff fe42 	bl	87801fa4 <vListInsert>
87802320:	6aa3      	ldr	r3, [r4, #40]	; 0x28
87802322:	429d      	cmp	r5, r3
87802324:	bf38      	it	cc
87802326:	62a5      	strcc	r5, [r4, #40]	; 0x28
87802328:	bdf8      	pop	{r3, r4, r5, r6, r7, pc}
8780232a:	6a20      	ldr	r0, [r4, #32]
8780232c:	6861      	ldr	r1, [r4, #4]
8780232e:	e8bd 40f8 	ldmia.w	sp!, {r3, r4, r5, r6, r7, lr}
87802332:	3104      	adds	r1, #4
87802334:	f7ff be36 	b.w	87801fa4 <vListInsert>
87802338:	6861      	ldr	r1, [r4, #4]
8780233a:	4803      	ldr	r0, [pc, #12]	; (87802348 <prvAddCurrentTaskToDelayedList+0x78>)
8780233c:	e8bd 40f8 	ldmia.w	sp!, {r3, r4, r5, r6, r7, lr}
87802340:	3104      	adds	r1, #4
87802342:	f7ff be1f 	b.w	87801f84 <vListInsertEnd>
87802346:	bf00      	nop
87802348:	88000118 	stmdahi	r0, {r3, r4, r8}

8780234c <prvResetNextTaskUnblockTime.part.0>:
8780234c:	f240 130c 	movw	r3, #268	; 0x10c
87802350:	f6c8 0300 	movt	r3, #34816	; 0x8800
87802354:	6a5a      	ldr	r2, [r3, #36]	; 0x24
87802356:	68d2      	ldr	r2, [r2, #12]
87802358:	68d2      	ldr	r2, [r2, #12]
8780235a:	6852      	ldr	r2, [r2, #4]
8780235c:	629a      	str	r2, [r3, #40]	; 0x28
8780235e:	4770      	bx	lr

87802360 <prvTaskIsTaskSuspended>:
87802360:	b508      	push	{r3, lr}
87802362:	b170      	cbz	r0, 87802382 <prvTaskIsTaskSuspended+0x22>
87802364:	4a08      	ldr	r2, [pc, #32]	; (87802388 <prvTaskIsTaskSuspended+0x28>)
87802366:	6943      	ldr	r3, [r0, #20]
87802368:	4293      	cmp	r3, r2
8780236a:	d001      	beq.n	87802370 <prvTaskIsTaskSuspended+0x10>
8780236c:	2000      	movs	r0, #0
8780236e:	bd08      	pop	{r3, pc}
87802370:	6a82      	ldr	r2, [r0, #40]	; 0x28
87802372:	3320      	adds	r3, #32
87802374:	1ad0      	subs	r0, r2, r3
87802376:	bf18      	it	ne
87802378:	2001      	movne	r0, #1
8780237a:	2a00      	cmp	r2, #0
8780237c:	bf18      	it	ne
8780237e:	2000      	movne	r0, #0
87802380:	bd08      	pop	{r3, pc}
87802382:	f001 fda3 	bl	87803ecc <ulPortSetInterruptMask>
87802386:	e7fe      	b.n	87802386 <prvTaskIsTaskSuspended+0x26>
87802388:	88000118 	stmdahi	r0, {r3, r4, r8}

8780238c <xTaskCreate>:
8780238c:	e92d 4ff8 	stmdb	sp!, {r3, r4, r5, r6, r7, r8, r9, sl, fp, lr}
87802390:	ea4f 0982 	mov.w	r9, r2, lsl #2
87802394:	4607      	mov	r7, r0
87802396:	9e0b      	ldr	r6, [sp, #44]	; 0x2c
87802398:	4648      	mov	r0, r9
8780239a:	460d      	mov	r5, r1
8780239c:	4698      	mov	r8, r3
8780239e:	f001 fe37 	bl	87804010 <pvPortMalloc>
878023a2:	2800      	cmp	r0, #0
878023a4:	f000 808e 	beq.w	878024c4 <xTaskCreate+0x138>
878023a8:	4682      	mov	sl, r0
878023aa:	2078      	movs	r0, #120	; 0x78
878023ac:	f001 fe30 	bl	87804010 <pvPortMalloc>
878023b0:	4604      	mov	r4, r0
878023b2:	2800      	cmp	r0, #0
878023b4:	f000 80b1 	beq.w	8780251a <xTaskCreate+0x18e>
878023b8:	464a      	mov	r2, r9
878023ba:	f8c0 a030 	str.w	sl, [r0, #48]	; 0x30
878023be:	21a5      	movs	r1, #165	; 0xa5
878023c0:	4650      	mov	r0, sl
878023c2:	f002 f947 	bl	87804654 <memset>
878023c6:	6b22      	ldr	r2, [r4, #48]	; 0x30
878023c8:	f1a9 0904 	sub.w	r9, r9, #4
878023cc:	1e6b      	subs	r3, r5, #1
878023ce:	f105 0113 	add.w	r1, r5, #19
878023d2:	f104 0533 	add.w	r5, r4, #51	; 0x33
878023d6:	4491      	add	r9, r2
878023d8:	f029 0907 	bic.w	r9, r9, #7
878023dc:	f8c4 9048 	str.w	r9, [r4, #72]	; 0x48
878023e0:	785a      	ldrb	r2, [r3, #1]
878023e2:	f805 2f01 	strb.w	r2, [r5, #1]!
878023e6:	f813 2f01 	ldrb.w	r2, [r3, #1]!
878023ea:	b10a      	cbz	r2, 878023f0 <xTaskCreate+0x64>
878023ec:	428b      	cmp	r3, r1
878023ee:	d1f7      	bne.n	878023e0 <xTaskCreate+0x54>
878023f0:	9b0a      	ldr	r3, [sp, #40]	; 0x28
878023f2:	2500      	movs	r5, #0
878023f4:	f104 0a04 	add.w	sl, r4, #4
878023f8:	f884 5047 	strb.w	r5, [r4, #71]	; 0x47
878023fc:	4650      	mov	r0, sl
878023fe:	65a5      	str	r5, [r4, #88]	; 0x58
87802400:	2b07      	cmp	r3, #7
87802402:	bf28      	it	cs
87802404:	2307      	movcs	r3, #7
87802406:	62e3      	str	r3, [r4, #44]	; 0x2c
87802408:	469b      	mov	fp, r3
8780240a:	6563      	str	r3, [r4, #84]	; 0x54
8780240c:	f7ff fdb6 	bl	87801f7c <vListInitialiseItem>
87802410:	f104 0018 	add.w	r0, r4, #24
87802414:	f7ff fdb2 	bl	87801f7c <vListInitialiseItem>
87802418:	f1cb 0308 	rsb	r3, fp, #8
8780241c:	6725      	str	r5, [r4, #112]	; 0x70
8780241e:	61a3      	str	r3, [r4, #24]
87802420:	4642      	mov	r2, r8
87802422:	65e5      	str	r5, [r4, #92]	; 0x5c
87802424:	4639      	mov	r1, r7
87802426:	6625      	str	r5, [r4, #96]	; 0x60
87802428:	4648      	mov	r0, r9
8780242a:	6665      	str	r5, [r4, #100]	; 0x64
8780242c:	66a5      	str	r5, [r4, #104]	; 0x68
8780242e:	66e5      	str	r5, [r4, #108]	; 0x6c
87802430:	f884 5074 	strb.w	r5, [r4, #116]	; 0x74
87802434:	6124      	str	r4, [r4, #16]
87802436:	6264      	str	r4, [r4, #36]	; 0x24
87802438:	f001 fbba 	bl	87803bb0 <pxPortInitialiseStack>
8780243c:	6020      	str	r0, [r4, #0]
8780243e:	b106      	cbz	r6, 87802442 <xTaskCreate+0xb6>
87802440:	6034      	str	r4, [r6, #0]
87802442:	f240 150c 	movw	r5, #268	; 0x10c
87802446:	f6c8 0500 	movt	r5, #34816	; 0x8800
8780244a:	f001 fcbd 	bl	87803dc8 <vPortEnterCritical>
8780244e:	6c2b      	ldr	r3, [r5, #64]	; 0x40
87802450:	3301      	adds	r3, #1
87802452:	642b      	str	r3, [r5, #64]	; 0x40
87802454:	686b      	ldr	r3, [r5, #4]
87802456:	2b00      	cmp	r3, #0
87802458:	d038      	beq.n	878024cc <xTaskCreate+0x140>
8780245a:	f8d5 3120 	ldr.w	r3, [r5, #288]	; 0x120
8780245e:	b343      	cbz	r3, 878024b2 <xTaskCreate+0x126>
87802460:	6ae3      	ldr	r3, [r4, #44]	; 0x2c
87802462:	f105 0844 	add.w	r8, r5, #68	; 0x44
87802466:	f8d5 2124 	ldr.w	r2, [r5, #292]	; 0x124
8780246a:	2601      	movs	r6, #1
8780246c:	f8d5 e008 	ldr.w	lr, [r5, #8]
87802470:	fa06 f703 	lsl.w	r7, r6, r3
87802474:	eb03 0383 	add.w	r3, r3, r3, lsl #2
87802478:	4651      	mov	r1, sl
8780247a:	4432      	add	r2, r6
8780247c:	eb08 0083 	add.w	r0, r8, r3, lsl #2
87802480:	ea47 070e 	orr.w	r7, r7, lr
87802484:	64e2      	str	r2, [r4, #76]	; 0x4c
87802486:	f8c5 2124 	str.w	r2, [r5, #292]	; 0x124
8780248a:	60af      	str	r7, [r5, #8]
8780248c:	f7ff fd7a 	bl	87801f84 <vListInsertEnd>
87802490:	f001 fcdc 	bl	87803e4c <vPortExitCritical>
87802494:	f8d5 3120 	ldr.w	r3, [r5, #288]	; 0x120
87802498:	b143      	cbz	r3, 878024ac <xTaskCreate+0x120>
8780249a:	686a      	ldr	r2, [r5, #4]
8780249c:	6ae3      	ldr	r3, [r4, #44]	; 0x2c
8780249e:	6ad2      	ldr	r2, [r2, #44]	; 0x2c
878024a0:	429a      	cmp	r2, r3
878024a2:	d203      	bcs.n	878024ac <xTaskCreate+0x120>
878024a4:	df00      	svc	0
878024a6:	4630      	mov	r0, r6
878024a8:	e8bd 8ff8 	ldmia.w	sp!, {r3, r4, r5, r6, r7, r8, r9, sl, fp, pc}
878024ac:	4630      	mov	r0, r6
878024ae:	e8bd 8ff8 	ldmia.w	sp!, {r3, r4, r5, r6, r7, r8, r9, sl, fp, pc}
878024b2:	686a      	ldr	r2, [r5, #4]
878024b4:	f105 0844 	add.w	r8, r5, #68	; 0x44
878024b8:	6ae3      	ldr	r3, [r4, #44]	; 0x2c
878024ba:	6ad2      	ldr	r2, [r2, #44]	; 0x2c
878024bc:	429a      	cmp	r2, r3
878024be:	bf98      	it	ls
878024c0:	606c      	strls	r4, [r5, #4]
878024c2:	e7d0      	b.n	87802466 <xTaskCreate+0xda>
878024c4:	f04f 30ff 	mov.w	r0, #4294967295	; 0xffffffff
878024c8:	e8bd 8ff8 	ldmia.w	sp!, {r3, r4, r5, r6, r7, r8, r9, sl, fp, pc}
878024cc:	606c      	str	r4, [r5, #4]
878024ce:	6c2b      	ldr	r3, [r5, #64]	; 0x40
878024d0:	2b01      	cmp	r3, #1
878024d2:	d1c5      	bne.n	87802460 <xTaskCreate+0xd4>
878024d4:	f105 0844 	add.w	r8, r5, #68	; 0x44
878024d8:	f105 07e4 	add.w	r7, r5, #228	; 0xe4
878024dc:	4646      	mov	r6, r8
878024de:	4630      	mov	r0, r6
878024e0:	3614      	adds	r6, #20
878024e2:	f7ff fd3f 	bl	87801f64 <vListInitialise>
878024e6:	42b7      	cmp	r7, r6
878024e8:	d1f9      	bne.n	878024de <xTaskCreate+0x152>
878024ea:	4e0f      	ldr	r6, [pc, #60]	; (87802528 <xTaskCreate+0x19c>)
878024ec:	f1a6 0014 	sub.w	r0, r6, #20
878024f0:	f7ff fd38 	bl	87801f64 <vListInitialise>
878024f4:	4630      	mov	r0, r6
878024f6:	f7ff fd35 	bl	87801f64 <vListInitialise>
878024fa:	f1a6 00cc 	sub.w	r0, r6, #204	; 0xcc
878024fe:	f7ff fd31 	bl	87801f64 <vListInitialise>
87802502:	f106 0014 	add.w	r0, r6, #20
87802506:	f7ff fd2d 	bl	87801f64 <vListInitialise>
8780250a:	f1a6 00ec 	sub.w	r0, r6, #236	; 0xec
8780250e:	f7ff fd29 	bl	87801f64 <vListInitialise>
87802512:	626f      	str	r7, [r5, #36]	; 0x24
87802514:	6ae3      	ldr	r3, [r4, #44]	; 0x2c
87802516:	622e      	str	r6, [r5, #32]
87802518:	e7a5      	b.n	87802466 <xTaskCreate+0xda>
8780251a:	4650      	mov	r0, sl
8780251c:	f001 fe04 	bl	87804128 <vPortFree>
87802520:	f04f 30ff 	mov.w	r0, #4294967295	; 0xffffffff
87802524:	e8bd 8ff8 	ldmia.w	sp!, {r3, r4, r5, r6, r7, r8, r9, sl, fp, pc}
87802528:	88000204 	stmdahi	r0, {r2, r9}

8780252c <vTaskDelete>:
8780252c:	b570      	push	{r4, r5, r6, lr}
8780252e:	4605      	mov	r5, r0
87802530:	f240 140c 	movw	r4, #268	; 0x10c
87802534:	f6c8 0400 	movt	r4, #34816	; 0x8800
87802538:	f001 fc46 	bl	87803dc8 <vPortEnterCritical>
8780253c:	2d00      	cmp	r5, #0
8780253e:	d041      	beq.n	878025c4 <vTaskDelete+0x98>
87802540:	1d2e      	adds	r6, r5, #4
87802542:	4630      	mov	r0, r6
87802544:	f7ff fd48 	bl	87801fd8 <uxListRemove>
87802548:	b930      	cbnz	r0, 87802558 <vTaskDelete+0x2c>
8780254a:	6ae9      	ldr	r1, [r5, #44]	; 0x2c
8780254c:	eb01 0381 	add.w	r3, r1, r1, lsl #2
87802550:	eb04 0383 	add.w	r3, r4, r3, lsl #2
87802554:	6c5b      	ldr	r3, [r3, #68]	; 0x44
87802556:	b34b      	cbz	r3, 878025ac <vTaskDelete+0x80>
87802558:	6aab      	ldr	r3, [r5, #40]	; 0x28
8780255a:	b11b      	cbz	r3, 87802564 <vTaskDelete+0x38>
8780255c:	f105 0018 	add.w	r0, r5, #24
87802560:	f7ff fd3a 	bl	87801fd8 <uxListRemove>
87802564:	6862      	ldr	r2, [r4, #4]
87802566:	f8d4 3124 	ldr.w	r3, [r4, #292]	; 0x124
8780256a:	4295      	cmp	r5, r2
8780256c:	f103 0301 	add.w	r3, r3, #1
87802570:	f8c4 3124 	str.w	r3, [r4, #292]	; 0x124
87802574:	d028      	beq.n	878025c8 <vTaskDelete+0x9c>
87802576:	6c23      	ldr	r3, [r4, #64]	; 0x40
87802578:	6b28      	ldr	r0, [r5, #48]	; 0x30
8780257a:	3b01      	subs	r3, #1
8780257c:	6423      	str	r3, [r4, #64]	; 0x40
8780257e:	f001 fdd3 	bl	87804128 <vPortFree>
87802582:	4628      	mov	r0, r5
87802584:	f001 fdd0 	bl	87804128 <vPortFree>
87802588:	6a63      	ldr	r3, [r4, #36]	; 0x24
8780258a:	681b      	ldr	r3, [r3, #0]
8780258c:	b95b      	cbnz	r3, 878025a6 <vTaskDelete+0x7a>
8780258e:	f04f 33ff 	mov.w	r3, #4294967295	; 0xffffffff
87802592:	62a3      	str	r3, [r4, #40]	; 0x28
87802594:	f001 fc5a 	bl	87803e4c <vPortExitCritical>
87802598:	f8d4 3120 	ldr.w	r3, [r4, #288]	; 0x120
8780259c:	b113      	cbz	r3, 878025a4 <vTaskDelete+0x78>
8780259e:	6863      	ldr	r3, [r4, #4]
878025a0:	429d      	cmp	r5, r3
878025a2:	d00a      	beq.n	878025ba <vTaskDelete+0x8e>
878025a4:	bd70      	pop	{r4, r5, r6, pc}
878025a6:	f7ff fed1 	bl	8780234c <prvResetNextTaskUnblockTime.part.0>
878025aa:	e7f3      	b.n	87802594 <vTaskDelete+0x68>
878025ac:	68a3      	ldr	r3, [r4, #8]
878025ae:	2201      	movs	r2, #1
878025b0:	408a      	lsls	r2, r1
878025b2:	ea23 0302 	bic.w	r3, r3, r2
878025b6:	60a3      	str	r3, [r4, #8]
878025b8:	e7ce      	b.n	87802558 <vTaskDelete+0x2c>
878025ba:	f8d4 312c 	ldr.w	r3, [r4, #300]	; 0x12c
878025be:	b96b      	cbnz	r3, 878025dc <vTaskDelete+0xb0>
878025c0:	df00      	svc	0
878025c2:	bd70      	pop	{r4, r5, r6, pc}
878025c4:	6865      	ldr	r5, [r4, #4]
878025c6:	e7bb      	b.n	87802540 <vTaskDelete+0x14>
878025c8:	4631      	mov	r1, r6
878025ca:	4806      	ldr	r0, [pc, #24]	; (878025e4 <vTaskDelete+0xb8>)
878025cc:	f7ff fcda 	bl	87801f84 <vListInsertEnd>
878025d0:	f8d4 3128 	ldr.w	r3, [r4, #296]	; 0x128
878025d4:	3301      	adds	r3, #1
878025d6:	f8c4 3128 	str.w	r3, [r4, #296]	; 0x128
878025da:	e7db      	b.n	87802594 <vTaskDelete+0x68>
878025dc:	f001 fc76 	bl	87803ecc <ulPortSetInterruptMask>
878025e0:	e7fe      	b.n	878025e0 <vTaskDelete+0xb4>
878025e2:	bf00      	nop
878025e4:	88000218 	stmdahi	r0, {r3, r4, r9}

878025e8 <eTaskGetState>:
878025e8:	b570      	push	{r4, r5, r6, lr}
878025ea:	b348      	cbz	r0, 87802640 <eTaskGetState+0x58>
878025ec:	f240 140c 	movw	r4, #268	; 0x10c
878025f0:	4606      	mov	r6, r0
878025f2:	f6c8 0400 	movt	r4, #34816	; 0x8800
878025f6:	6863      	ldr	r3, [r4, #4]
878025f8:	4298      	cmp	r0, r3
878025fa:	d019      	beq.n	87802630 <eTaskGetState+0x48>
878025fc:	f001 fbe4 	bl	87803dc8 <vPortEnterCritical>
87802600:	6975      	ldr	r5, [r6, #20]
87802602:	f001 fc23 	bl	87803e4c <vPortExitCritical>
87802606:	6a63      	ldr	r3, [r4, #36]	; 0x24
87802608:	429d      	cmp	r5, r3
8780260a:	d00f      	beq.n	8780262c <eTaskGetState+0x44>
8780260c:	6a23      	ldr	r3, [r4, #32]
8780260e:	429d      	cmp	r5, r3
87802610:	d00c      	beq.n	8780262c <eTaskGetState+0x44>
87802612:	f104 030c 	add.w	r3, r4, #12
87802616:	429d      	cmp	r5, r3
87802618:	d00c      	beq.n	87802634 <eTaskGetState+0x4c>
8780261a:	f504 7486 	add.w	r4, r4, #268	; 0x10c
8780261e:	42a5      	cmp	r5, r4
87802620:	bf18      	it	ne
87802622:	2d00      	cmpne	r5, #0
87802624:	bf0c      	ite	eq
87802626:	2004      	moveq	r0, #4
87802628:	2001      	movne	r0, #1
8780262a:	bd70      	pop	{r4, r5, r6, pc}
8780262c:	2002      	movs	r0, #2
8780262e:	bd70      	pop	{r4, r5, r6, pc}
87802630:	2000      	movs	r0, #0
87802632:	bd70      	pop	{r4, r5, r6, pc}
87802634:	6ab3      	ldr	r3, [r6, #40]	; 0x28
87802636:	2b00      	cmp	r3, #0
87802638:	bf14      	ite	ne
8780263a:	2002      	movne	r0, #2
8780263c:	2003      	moveq	r0, #3
8780263e:	bd70      	pop	{r4, r5, r6, pc}
87802640:	f001 fc44 	bl	87803ecc <ulPortSetInterruptMask>
87802644:	e7fe      	b.n	87802644 <eTaskGetState+0x5c>
87802646:	bf00      	nop

87802648 <uxTaskPriorityGet>:
87802648:	b510      	push	{r4, lr}
8780264a:	4604      	mov	r4, r0
8780264c:	f001 fbbc 	bl	87803dc8 <vPortEnterCritical>
87802650:	b124      	cbz	r4, 8780265c <uxTaskPriorityGet+0x14>
87802652:	6ae4      	ldr	r4, [r4, #44]	; 0x2c
87802654:	f001 fbfa 	bl	87803e4c <vPortExitCritical>
87802658:	4620      	mov	r0, r4
8780265a:	bd10      	pop	{r4, pc}
8780265c:	f240 130c 	movw	r3, #268	; 0x10c
87802660:	f6c8 0300 	movt	r3, #34816	; 0x8800
87802664:	685c      	ldr	r4, [r3, #4]
87802666:	6ae4      	ldr	r4, [r4, #44]	; 0x2c
87802668:	f001 fbf0 	bl	87803e4c <vPortExitCritical>
8780266c:	4620      	mov	r0, r4
8780266e:	bd10      	pop	{r4, pc}

87802670 <uxTaskPriorityGetFromISR>:
87802670:	b510      	push	{r4, lr}
87802672:	4604      	mov	r4, r0
87802674:	f001 fc46 	bl	87803f04 <vPortValidateInterruptPriority>
87802678:	f001 fc28 	bl	87803ecc <ulPortSetInterruptMask>
8780267c:	b124      	cbz	r4, 87802688 <uxTaskPriorityGetFromISR+0x18>
8780267e:	6ae4      	ldr	r4, [r4, #44]	; 0x2c
87802680:	f001 fc0e 	bl	87803ea0 <vPortClearInterruptMask>
87802684:	4620      	mov	r0, r4
87802686:	bd10      	pop	{r4, pc}
87802688:	f240 130c 	movw	r3, #268	; 0x10c
8780268c:	f6c8 0300 	movt	r3, #34816	; 0x8800
87802690:	685c      	ldr	r4, [r3, #4]
87802692:	6ae4      	ldr	r4, [r4, #44]	; 0x2c
87802694:	f001 fc04 	bl	87803ea0 <vPortClearInterruptMask>
87802698:	4620      	mov	r0, r4
8780269a:	bd10      	pop	{r4, pc}

8780269c <vTaskPrioritySet>:
8780269c:	2907      	cmp	r1, #7
8780269e:	e92d 43f8 	stmdb	sp!, {r3, r4, r5, r6, r7, r8, r9, lr}
878026a2:	d902      	bls.n	878026aa <vTaskPrioritySet+0xe>
878026a4:	f001 fc12 	bl	87803ecc <ulPortSetInterruptMask>
878026a8:	e7fe      	b.n	878026a8 <vTaskPrioritySet+0xc>
878026aa:	4604      	mov	r4, r0
878026ac:	460e      	mov	r6, r1
878026ae:	f001 fb8b 	bl	87803dc8 <vPortEnterCritical>
878026b2:	b364      	cbz	r4, 8780270e <vTaskPrioritySet+0x72>
878026b4:	6d63      	ldr	r3, [r4, #84]	; 0x54
878026b6:	429e      	cmp	r6, r3
878026b8:	d025      	beq.n	87802706 <vTaskPrioritySet+0x6a>
878026ba:	f240 150c 	movw	r5, #268	; 0x10c
878026be:	f6c8 0500 	movt	r5, #34816	; 0x8800
878026c2:	d92a      	bls.n	8780271a <vTaskPrioritySet+0x7e>
878026c4:	686a      	ldr	r2, [r5, #4]
878026c6:	4294      	cmp	r4, r2
878026c8:	bf08      	it	eq
878026ca:	2700      	moveq	r7, #0
878026cc:	d005      	beq.n	878026da <vTaskPrioritySet+0x3e>
878026ce:	686a      	ldr	r2, [r5, #4]
878026d0:	6ad7      	ldr	r7, [r2, #44]	; 0x2c
878026d2:	42be      	cmp	r6, r7
878026d4:	bf34      	ite	cc
878026d6:	2700      	movcc	r7, #0
878026d8:	2701      	movcs	r7, #1
878026da:	f8d4 802c 	ldr.w	r8, [r4, #44]	; 0x2c
878026de:	6566      	str	r6, [r4, #84]	; 0x54
878026e0:	6962      	ldr	r2, [r4, #20]
878026e2:	4543      	cmp	r3, r8
878026e4:	69a3      	ldr	r3, [r4, #24]
878026e6:	bf08      	it	eq
878026e8:	62e6      	streq	r6, [r4, #44]	; 0x2c
878026ea:	2b00      	cmp	r3, #0
878026ec:	eb08 0388 	add.w	r3, r8, r8, lsl #2
878026f0:	bfa4      	itt	ge
878026f2:	f1c6 0608 	rsbge	r6, r6, #8
878026f6:	61a6      	strge	r6, [r4, #24]
878026f8:	4e18      	ldr	r6, [pc, #96]	; (8780275c <vTaskPrioritySet+0xc0>)
878026fa:	eb06 0383 	add.w	r3, r6, r3, lsl #2
878026fe:	429a      	cmp	r2, r3
87802700:	d011      	beq.n	87802726 <vTaskPrioritySet+0x8a>
87802702:	b107      	cbz	r7, 87802706 <vTaskPrioritySet+0x6a>
87802704:	df00      	svc	0
87802706:	e8bd 43f8 	ldmia.w	sp!, {r3, r4, r5, r6, r7, r8, r9, lr}
8780270a:	f001 bb9f 	b.w	87803e4c <vPortExitCritical>
8780270e:	f240 130c 	movw	r3, #268	; 0x10c
87802712:	f6c8 0300 	movt	r3, #34816	; 0x8800
87802716:	685c      	ldr	r4, [r3, #4]
87802718:	e7cc      	b.n	878026b4 <vTaskPrioritySet+0x18>
8780271a:	686f      	ldr	r7, [r5, #4]
8780271c:	1be7      	subs	r7, r4, r7
8780271e:	fab7 f787 	clz	r7, r7
87802722:	097f      	lsrs	r7, r7, #5
87802724:	e7d9      	b.n	878026da <vTaskPrioritySet+0x3e>
87802726:	f104 0904 	add.w	r9, r4, #4
8780272a:	4648      	mov	r0, r9
8780272c:	f7ff fc54 	bl	87801fd8 <uxListRemove>
87802730:	b930      	cbnz	r0, 87802740 <vTaskPrioritySet+0xa4>
87802732:	68ab      	ldr	r3, [r5, #8]
87802734:	2201      	movs	r2, #1
87802736:	fa02 f808 	lsl.w	r8, r2, r8
8780273a:	ea23 0308 	bic.w	r3, r3, r8
8780273e:	60ab      	str	r3, [r5, #8]
87802740:	6ae0      	ldr	r0, [r4, #44]	; 0x2c
87802742:	2301      	movs	r3, #1
87802744:	68aa      	ldr	r2, [r5, #8]
87802746:	4649      	mov	r1, r9
87802748:	4083      	lsls	r3, r0
8780274a:	eb00 0080 	add.w	r0, r0, r0, lsl #2
8780274e:	4313      	orrs	r3, r2
87802750:	eb06 0080 	add.w	r0, r6, r0, lsl #2
87802754:	60ab      	str	r3, [r5, #8]
87802756:	f7ff fc15 	bl	87801f84 <vListInsertEnd>
8780275a:	e7d2      	b.n	87802702 <vTaskPrioritySet+0x66>
8780275c:	88000150 	stmdahi	r0, {r4, r6, r8}

87802760 <vTaskResume>:
87802760:	b5f8      	push	{r3, r4, r5, r6, r7, lr}
87802762:	b378      	cbz	r0, 878027c4 <vTaskResume+0x64>
87802764:	f240 140c 	movw	r4, #268	; 0x10c
87802768:	4605      	mov	r5, r0
8780276a:	f6c8 0400 	movt	r4, #34816	; 0x8800
8780276e:	6863      	ldr	r3, [r4, #4]
87802770:	4298      	cmp	r0, r3
87802772:	d009      	beq.n	87802788 <vTaskResume+0x28>
87802774:	f001 fb28 	bl	87803dc8 <vPortEnterCritical>
87802778:	4628      	mov	r0, r5
8780277a:	f7ff fdf1 	bl	87802360 <prvTaskIsTaskSuspended>
8780277e:	b920      	cbnz	r0, 8780278a <vTaskResume+0x2a>
87802780:	e8bd 40f8 	ldmia.w	sp!, {r3, r4, r5, r6, r7, lr}
87802784:	f001 bb62 	b.w	87803e4c <vPortExitCritical>
87802788:	bdf8      	pop	{r3, r4, r5, r6, r7, pc}
8780278a:	1d2e      	adds	r6, r5, #4
8780278c:	4630      	mov	r0, r6
8780278e:	f7ff fc23 	bl	87801fd8 <uxListRemove>
87802792:	6aea      	ldr	r2, [r5, #44]	; 0x2c
87802794:	2301      	movs	r3, #1
87802796:	68a7      	ldr	r7, [r4, #8]
87802798:	f104 0044 	add.w	r0, r4, #68	; 0x44
8780279c:	4631      	mov	r1, r6
8780279e:	4093      	lsls	r3, r2
878027a0:	eb02 0282 	add.w	r2, r2, r2, lsl #2
878027a4:	433b      	orrs	r3, r7
878027a6:	eb00 0082 	add.w	r0, r0, r2, lsl #2
878027aa:	60a3      	str	r3, [r4, #8]
878027ac:	f7ff fbea 	bl	87801f84 <vListInsertEnd>
878027b0:	6863      	ldr	r3, [r4, #4]
878027b2:	6aea      	ldr	r2, [r5, #44]	; 0x2c
878027b4:	6adb      	ldr	r3, [r3, #44]	; 0x2c
878027b6:	429a      	cmp	r2, r3
878027b8:	d3e2      	bcc.n	87802780 <vTaskResume+0x20>
878027ba:	df00      	svc	0
878027bc:	e8bd 40f8 	ldmia.w	sp!, {r3, r4, r5, r6, r7, lr}
878027c0:	f001 bb44 	b.w	87803e4c <vPortExitCritical>
878027c4:	f001 fb82 	bl	87803ecc <ulPortSetInterruptMask>
878027c8:	e7fe      	b.n	878027c8 <vTaskResume+0x68>
878027ca:	bf00      	nop

878027cc <xTaskResumeFromISR>:
878027cc:	e92d 41f0 	stmdb	sp!, {r4, r5, r6, r7, r8, lr}
878027d0:	2800      	cmp	r0, #0
878027d2:	d03f      	beq.n	87802854 <xTaskResumeFromISR+0x88>
878027d4:	4605      	mov	r5, r0
878027d6:	f001 fb95 	bl	87803f04 <vPortValidateInterruptPriority>
878027da:	f001 fb77 	bl	87803ecc <ulPortSetInterruptMask>
878027de:	4606      	mov	r6, r0
878027e0:	4628      	mov	r0, r5
878027e2:	f7ff fdbd 	bl	87802360 <prvTaskIsTaskSuspended>
878027e6:	4604      	mov	r4, r0
878027e8:	b308      	cbz	r0, 8780282e <xTaskResumeFromISR+0x62>
878027ea:	f240 170c 	movw	r7, #268	; 0x10c
878027ee:	f6c8 0700 	movt	r7, #34816	; 0x8800
878027f2:	f8d7 312c 	ldr.w	r3, [r7, #300]	; 0x12c
878027f6:	bb03      	cbnz	r3, 8780283a <xTaskResumeFromISR+0x6e>
878027f8:	687b      	ldr	r3, [r7, #4]
878027fa:	f105 0804 	add.w	r8, r5, #4
878027fe:	6aec      	ldr	r4, [r5, #44]	; 0x2c
87802800:	4640      	mov	r0, r8
87802802:	6adb      	ldr	r3, [r3, #44]	; 0x2c
87802804:	429c      	cmp	r4, r3
87802806:	bf34      	ite	cc
87802808:	2400      	movcc	r4, #0
8780280a:	2401      	movcs	r4, #1
8780280c:	f7ff fbe4 	bl	87801fd8 <uxListRemove>
87802810:	6aea      	ldr	r2, [r5, #44]	; 0x2c
87802812:	2301      	movs	r3, #1
87802814:	68bd      	ldr	r5, [r7, #8]
87802816:	f107 0044 	add.w	r0, r7, #68	; 0x44
8780281a:	4641      	mov	r1, r8
8780281c:	4093      	lsls	r3, r2
8780281e:	eb02 0282 	add.w	r2, r2, r2, lsl #2
87802822:	432b      	orrs	r3, r5
87802824:	eb00 0082 	add.w	r0, r0, r2, lsl #2
87802828:	60bb      	str	r3, [r7, #8]
8780282a:	f7ff fbab 	bl	87801f84 <vListInsertEnd>
8780282e:	4630      	mov	r0, r6
87802830:	f001 fb36 	bl	87803ea0 <vPortClearInterruptMask>
87802834:	4620      	mov	r0, r4
87802836:	e8bd 81f0 	ldmia.w	sp!, {r4, r5, r6, r7, r8, pc}
8780283a:	f105 0118 	add.w	r1, r5, #24
8780283e:	f107 002c 	add.w	r0, r7, #44	; 0x2c
87802842:	f7ff fb9f 	bl	87801f84 <vListInsertEnd>
87802846:	2400      	movs	r4, #0
87802848:	4630      	mov	r0, r6
8780284a:	f001 fb29 	bl	87803ea0 <vPortClearInterruptMask>
8780284e:	4620      	mov	r0, r4
87802850:	e8bd 81f0 	ldmia.w	sp!, {r4, r5, r6, r7, r8, pc}
87802854:	f001 fb3a 	bl	87803ecc <ulPortSetInterruptMask>
87802858:	e7fe      	b.n	87802858 <xTaskResumeFromISR+0x8c>
8780285a:	bf00      	nop

8780285c <vTaskStartScheduler>:
8780285c:	b570      	push	{r4, r5, r6, lr}
8780285e:	f240 140c 	movw	r4, #268	; 0x10c
87802862:	f6c8 0400 	movt	r4, #34816	; 0x8800
87802866:	b082      	sub	sp, #8
87802868:	2600      	movs	r6, #0
8780286a:	f504 7398 	add.w	r3, r4, #304	; 0x130
8780286e:	f646 01f0 	movw	r1, #26864	; 0x68f0
87802872:	f642 30a5 	movw	r0, #11173	; 0x2ba5
87802876:	9301      	str	r3, [sp, #4]
87802878:	f2c8 7180 	movt	r1, #34688	; 0x8780
8780287c:	4633      	mov	r3, r6
8780287e:	9600      	str	r6, [sp, #0]
87802880:	f2c8 7080 	movt	r0, #34688	; 0x8780
87802884:	225a      	movs	r2, #90	; 0x5a
87802886:	f7ff fd81 	bl	8780238c <xTaskCreate>
8780288a:	2801      	cmp	r0, #1
8780288c:	bf18      	it	ne
8780288e:	4605      	movne	r5, r0
87802890:	d003      	beq.n	8780289a <vTaskStartScheduler+0x3e>
87802892:	3501      	adds	r5, #1
87802894:	d013      	beq.n	878028be <vTaskStartScheduler+0x62>
87802896:	b002      	add	sp, #8
87802898:	bd70      	pop	{r4, r5, r6, pc}
8780289a:	f000 ff27 	bl	878036ec <xTimerCreateTimerTask>
8780289e:	2801      	cmp	r0, #1
878028a0:	4605      	mov	r5, r0
878028a2:	d1f6      	bne.n	87802892 <vTaskStartScheduler+0x36>
878028a4:	f001 fb12 	bl	87803ecc <ulPortSetInterruptMask>
878028a8:	f04f 33ff 	mov.w	r3, #4294967295	; 0xffffffff
878028ac:	62a3      	str	r3, [r4, #40]	; 0x28
878028ae:	f8c4 5120 	str.w	r5, [r4, #288]	; 0x120
878028b2:	6026      	str	r6, [r4, #0]
878028b4:	b002      	add	sp, #8
878028b6:	e8bd 4070 	ldmia.w	sp!, {r4, r5, r6, lr}
878028ba:	f001 b9cb 	b.w	87803c54 <xPortStartScheduler>
878028be:	f001 fb05 	bl	87803ecc <ulPortSetInterruptMask>
878028c2:	e7fe      	b.n	878028c2 <vTaskStartScheduler+0x66>

878028c4 <vTaskEndScheduler>:
878028c4:	b508      	push	{r3, lr}
878028c6:	f001 fb01 	bl	87803ecc <ulPortSetInterruptMask>
878028ca:	f240 130c 	movw	r3, #268	; 0x10c
878028ce:	2200      	movs	r2, #0
878028d0:	f6c8 0300 	movt	r3, #34816	; 0x8800
878028d4:	f8c3 2120 	str.w	r2, [r3, #288]	; 0x120
878028d8:	e8bd 4008 	ldmia.w	sp!, {r3, lr}
878028dc:	f001 ba52 	b.w	87803d84 <vPortEndScheduler>

878028e0 <vTaskSuspendAll>:
878028e0:	f240 130c 	movw	r3, #268	; 0x10c
878028e4:	f6c8 0300 	movt	r3, #34816	; 0x8800
878028e8:	f8d3 212c 	ldr.w	r2, [r3, #300]	; 0x12c
878028ec:	3201      	adds	r2, #1
878028ee:	f8c3 212c 	str.w	r2, [r3, #300]	; 0x12c
878028f2:	4770      	bx	lr

878028f4 <xTaskGetTickCount>:
878028f4:	f240 130c 	movw	r3, #268	; 0x10c
878028f8:	f6c8 0300 	movt	r3, #34816	; 0x8800
878028fc:	6818      	ldr	r0, [r3, #0]
878028fe:	4770      	bx	lr

87802900 <xTaskGetTickCountFromISR>:
87802900:	b508      	push	{r3, lr}
87802902:	f001 faff 	bl	87803f04 <vPortValidateInterruptPriority>
87802906:	f240 130c 	movw	r3, #268	; 0x10c
8780290a:	f6c8 0300 	movt	r3, #34816	; 0x8800
8780290e:	6818      	ldr	r0, [r3, #0]
87802910:	bd08      	pop	{r3, pc}
87802912:	bf00      	nop

87802914 <uxTaskGetNumberOfTasks>:
87802914:	f240 130c 	movw	r3, #268	; 0x10c
87802918:	f6c8 0300 	movt	r3, #34816	; 0x8800
8780291c:	6c18      	ldr	r0, [r3, #64]	; 0x40
8780291e:	4770      	bx	lr

87802920 <pcTaskGetName>:
87802920:	b108      	cbz	r0, 87802926 <pcTaskGetName+0x6>
87802922:	3034      	adds	r0, #52	; 0x34
87802924:	4770      	bx	lr
87802926:	b508      	push	{r3, lr}
87802928:	f240 130c 	movw	r3, #268	; 0x10c
8780292c:	f6c8 0300 	movt	r3, #34816	; 0x8800
87802930:	6858      	ldr	r0, [r3, #4]
87802932:	b910      	cbnz	r0, 8780293a <pcTaskGetName+0x1a>
87802934:	f001 faca 	bl	87803ecc <ulPortSetInterruptMask>
87802938:	e7fe      	b.n	87802938 <pcTaskGetName+0x18>
8780293a:	3034      	adds	r0, #52	; 0x34
8780293c:	bd08      	pop	{r3, pc}
8780293e:	bf00      	nop

87802940 <xTaskIncrementTick>:
87802940:	e92d 47f0 	stmdb	sp!, {r4, r5, r6, r7, r8, r9, sl, lr}
87802944:	f240 140c 	movw	r4, #268	; 0x10c
87802948:	f6c8 0400 	movt	r4, #34816	; 0x8800
8780294c:	f8d4 312c 	ldr.w	r3, [r4, #300]	; 0x12c
87802950:	2b00      	cmp	r3, #0
87802952:	d13b      	bne.n	878029cc <xTaskIncrementTick+0x8c>
87802954:	6827      	ldr	r7, [r4, #0]
87802956:	3701      	adds	r7, #1
87802958:	6027      	str	r7, [r4, #0]
8780295a:	2f00      	cmp	r7, #0
8780295c:	d044      	beq.n	878029e8 <xTaskIncrementTick+0xa8>
8780295e:	6aa3      	ldr	r3, [r4, #40]	; 0x28
87802960:	429f      	cmp	r7, r3
87802962:	bf38      	it	cc
87802964:	2600      	movcc	r6, #0
87802966:	d337      	bcc.n	878029d8 <xTaskIncrementTick+0x98>
87802968:	f8df 90b4 	ldr.w	r9, [pc, #180]	; 87802a20 <xTaskIncrementTick+0xe0>
8780296c:	2600      	movs	r6, #0
8780296e:	f04f 0801 	mov.w	r8, #1
87802972:	e023      	b.n	878029bc <xTaskIncrementTick+0x7c>
87802974:	6a63      	ldr	r3, [r4, #36]	; 0x24
87802976:	68db      	ldr	r3, [r3, #12]
87802978:	68dd      	ldr	r5, [r3, #12]
8780297a:	686b      	ldr	r3, [r5, #4]
8780297c:	f105 0a04 	add.w	sl, r5, #4
87802980:	4650      	mov	r0, sl
87802982:	429f      	cmp	r7, r3
87802984:	d349      	bcc.n	87802a1a <xTaskIncrementTick+0xda>
87802986:	f7ff fb27 	bl	87801fd8 <uxListRemove>
8780298a:	6aab      	ldr	r3, [r5, #40]	; 0x28
8780298c:	f105 0018 	add.w	r0, r5, #24
87802990:	b10b      	cbz	r3, 87802996 <xTaskIncrementTick+0x56>
87802992:	f7ff fb21 	bl	87801fd8 <uxListRemove>
87802996:	6ae8      	ldr	r0, [r5, #44]	; 0x2c
87802998:	4651      	mov	r1, sl
8780299a:	68a2      	ldr	r2, [r4, #8]
8780299c:	fa08 f300 	lsl.w	r3, r8, r0
878029a0:	eb00 0080 	add.w	r0, r0, r0, lsl #2
878029a4:	4313      	orrs	r3, r2
878029a6:	eb09 0080 	add.w	r0, r9, r0, lsl #2
878029aa:	60a3      	str	r3, [r4, #8]
878029ac:	f7ff faea 	bl	87801f84 <vListInsertEnd>
878029b0:	6863      	ldr	r3, [r4, #4]
878029b2:	6aea      	ldr	r2, [r5, #44]	; 0x2c
878029b4:	6adb      	ldr	r3, [r3, #44]	; 0x2c
878029b6:	429a      	cmp	r2, r3
878029b8:	bf28      	it	cs
878029ba:	2601      	movcs	r6, #1
878029bc:	6a63      	ldr	r3, [r4, #36]	; 0x24
878029be:	681b      	ldr	r3, [r3, #0]
878029c0:	2b00      	cmp	r3, #0
878029c2:	d1d7      	bne.n	87802974 <xTaskIncrementTick+0x34>
878029c4:	f04f 33ff 	mov.w	r3, #4294967295	; 0xffffffff
878029c8:	62a3      	str	r3, [r4, #40]	; 0x28
878029ca:	e005      	b.n	878029d8 <xTaskIncrementTick+0x98>
878029cc:	f8d4 3138 	ldr.w	r3, [r4, #312]	; 0x138
878029d0:	2600      	movs	r6, #0
878029d2:	3301      	adds	r3, #1
878029d4:	f8c4 3138 	str.w	r3, [r4, #312]	; 0x138
878029d8:	f8d4 313c 	ldr.w	r3, [r4, #316]	; 0x13c
878029dc:	2b00      	cmp	r3, #0
878029de:	bf18      	it	ne
878029e0:	2601      	movne	r6, #1
878029e2:	4630      	mov	r0, r6
878029e4:	e8bd 87f0 	ldmia.w	sp!, {r4, r5, r6, r7, r8, r9, sl, pc}
878029e8:	6a63      	ldr	r3, [r4, #36]	; 0x24
878029ea:	681b      	ldr	r3, [r3, #0]
878029ec:	b993      	cbnz	r3, 87802a14 <xTaskIncrementTick+0xd4>
878029ee:	6a63      	ldr	r3, [r4, #36]	; 0x24
878029f0:	6a22      	ldr	r2, [r4, #32]
878029f2:	6262      	str	r2, [r4, #36]	; 0x24
878029f4:	6223      	str	r3, [r4, #32]
878029f6:	f8d4 3134 	ldr.w	r3, [r4, #308]	; 0x134
878029fa:	3301      	adds	r3, #1
878029fc:	f8c4 3134 	str.w	r3, [r4, #308]	; 0x134
87802a00:	6a63      	ldr	r3, [r4, #36]	; 0x24
87802a02:	681b      	ldr	r3, [r3, #0]
87802a04:	b91b      	cbnz	r3, 87802a0e <xTaskIncrementTick+0xce>
87802a06:	f04f 33ff 	mov.w	r3, #4294967295	; 0xffffffff
87802a0a:	62a3      	str	r3, [r4, #40]	; 0x28
87802a0c:	e7a7      	b.n	8780295e <xTaskIncrementTick+0x1e>
87802a0e:	f7ff fc9d 	bl	8780234c <prvResetNextTaskUnblockTime.part.0>
87802a12:	e7a4      	b.n	8780295e <xTaskIncrementTick+0x1e>
87802a14:	f001 fa5a 	bl	87803ecc <ulPortSetInterruptMask>
87802a18:	e7fe      	b.n	87802a18 <xTaskIncrementTick+0xd8>
87802a1a:	62a3      	str	r3, [r4, #40]	; 0x28
87802a1c:	e7dc      	b.n	878029d8 <xTaskIncrementTick+0x98>
87802a1e:	bf00      	nop
87802a20:	88000150 	stmdahi	r0, {r4, r6, r8}

87802a24 <xTaskResumeAll>:
87802a24:	e92d 41f0 	stmdb	sp!, {r4, r5, r6, r7, r8, lr}
87802a28:	f240 140c 	movw	r4, #268	; 0x10c
87802a2c:	f6c8 0400 	movt	r4, #34816	; 0x8800
87802a30:	f8d4 312c 	ldr.w	r3, [r4, #300]	; 0x12c
87802a34:	b913      	cbnz	r3, 87802a3c <xTaskResumeAll+0x18>
87802a36:	f001 fa49 	bl	87803ecc <ulPortSetInterruptMask>
87802a3a:	e7fe      	b.n	87802a3a <xTaskResumeAll+0x16>
87802a3c:	f001 f9c4 	bl	87803dc8 <vPortEnterCritical>
87802a40:	f8d4 312c 	ldr.w	r3, [r4, #300]	; 0x12c
87802a44:	3b01      	subs	r3, #1
87802a46:	f8c4 312c 	str.w	r3, [r4, #300]	; 0x12c
87802a4a:	f8d4 512c 	ldr.w	r5, [r4, #300]	; 0x12c
87802a4e:	2d00      	cmp	r5, #0
87802a50:	d145      	bne.n	87802ade <xTaskResumeAll+0xba>
87802a52:	6c23      	ldr	r3, [r4, #64]	; 0x40
87802a54:	2601      	movs	r6, #1
87802a56:	f104 0744 	add.w	r7, r4, #68	; 0x44
87802a5a:	b9fb      	cbnz	r3, 87802a9c <xTaskResumeAll+0x78>
87802a5c:	e03f      	b.n	87802ade <xTaskResumeAll+0xba>
87802a5e:	6ba3      	ldr	r3, [r4, #56]	; 0x38
87802a60:	68dd      	ldr	r5, [r3, #12]
87802a62:	f105 0804 	add.w	r8, r5, #4
87802a66:	f105 0018 	add.w	r0, r5, #24
87802a6a:	f7ff fab5 	bl	87801fd8 <uxListRemove>
87802a6e:	4640      	mov	r0, r8
87802a70:	f7ff fab2 	bl	87801fd8 <uxListRemove>
87802a74:	6ae8      	ldr	r0, [r5, #44]	; 0x2c
87802a76:	4641      	mov	r1, r8
87802a78:	68a2      	ldr	r2, [r4, #8]
87802a7a:	fa06 f300 	lsl.w	r3, r6, r0
87802a7e:	eb00 0080 	add.w	r0, r0, r0, lsl #2
87802a82:	4313      	orrs	r3, r2
87802a84:	eb07 0080 	add.w	r0, r7, r0, lsl #2
87802a88:	60a3      	str	r3, [r4, #8]
87802a8a:	f7ff fa7b 	bl	87801f84 <vListInsertEnd>
87802a8e:	6863      	ldr	r3, [r4, #4]
87802a90:	6aea      	ldr	r2, [r5, #44]	; 0x2c
87802a92:	6adb      	ldr	r3, [r3, #44]	; 0x2c
87802a94:	429a      	cmp	r2, r3
87802a96:	bf28      	it	cs
87802a98:	f8c4 613c 	strcs.w	r6, [r4, #316]	; 0x13c
87802a9c:	6ae3      	ldr	r3, [r4, #44]	; 0x2c
87802a9e:	2b00      	cmp	r3, #0
87802aa0:	d1dd      	bne.n	87802a5e <xTaskResumeAll+0x3a>
87802aa2:	b12d      	cbz	r5, 87802ab0 <xTaskResumeAll+0x8c>
87802aa4:	6a63      	ldr	r3, [r4, #36]	; 0x24
87802aa6:	681b      	ldr	r3, [r3, #0]
87802aa8:	b9fb      	cbnz	r3, 87802aea <xTaskResumeAll+0xc6>
87802aaa:	f04f 33ff 	mov.w	r3, #4294967295	; 0xffffffff
87802aae:	62a3      	str	r3, [r4, #40]	; 0x28
87802ab0:	f8d4 5138 	ldr.w	r5, [r4, #312]	; 0x138
87802ab4:	b14d      	cbz	r5, 87802aca <xTaskResumeAll+0xa6>
87802ab6:	2601      	movs	r6, #1
87802ab8:	f7ff ff42 	bl	87802940 <xTaskIncrementTick>
87802abc:	b108      	cbz	r0, 87802ac2 <xTaskResumeAll+0x9e>
87802abe:	f8c4 613c 	str.w	r6, [r4, #316]	; 0x13c
87802ac2:	3d01      	subs	r5, #1
87802ac4:	d1f8      	bne.n	87802ab8 <xTaskResumeAll+0x94>
87802ac6:	f8c4 5138 	str.w	r5, [r4, #312]	; 0x138
87802aca:	f8d4 313c 	ldr.w	r3, [r4, #316]	; 0x13c
87802ace:	b133      	cbz	r3, 87802ade <xTaskResumeAll+0xba>
87802ad0:	df00      	svc	0
87802ad2:	2401      	movs	r4, #1
87802ad4:	f001 f9ba 	bl	87803e4c <vPortExitCritical>
87802ad8:	4620      	mov	r0, r4
87802ada:	e8bd 81f0 	ldmia.w	sp!, {r4, r5, r6, r7, r8, pc}
87802ade:	2400      	movs	r4, #0
87802ae0:	f001 f9b4 	bl	87803e4c <vPortExitCritical>
87802ae4:	4620      	mov	r0, r4
87802ae6:	e8bd 81f0 	ldmia.w	sp!, {r4, r5, r6, r7, r8, pc}
87802aea:	f7ff fc2f 	bl	8780234c <prvResetNextTaskUnblockTime.part.0>
87802aee:	e7df      	b.n	87802ab0 <xTaskResumeAll+0x8c>

87802af0 <vTaskDelayUntil>:
87802af0:	b510      	push	{r4, lr}
87802af2:	2800      	cmp	r0, #0
87802af4:	d037      	beq.n	87802b66 <vTaskDelayUntil+0x76>
87802af6:	2900      	cmp	r1, #0
87802af8:	d032      	beq.n	87802b60 <vTaskDelayUntil+0x70>
87802afa:	f240 120c 	movw	r2, #268	; 0x10c
87802afe:	f6c8 0200 	movt	r2, #34816	; 0x8800
87802b02:	f8d2 312c 	ldr.w	r3, [r2, #300]	; 0x12c
87802b06:	b9db      	cbnz	r3, 87802b40 <vTaskDelayUntil+0x50>
87802b08:	f8d2 312c 	ldr.w	r3, [r2, #300]	; 0x12c
87802b0c:	6804      	ldr	r4, [r0, #0]
87802b0e:	3301      	adds	r3, #1
87802b10:	f8c2 312c 	str.w	r3, [r2, #300]	; 0x12c
87802b14:	190b      	adds	r3, r1, r4
87802b16:	6811      	ldr	r1, [r2, #0]
87802b18:	bf2c      	ite	cs
87802b1a:	2201      	movcs	r2, #1
87802b1c:	2200      	movcc	r2, #0
87802b1e:	42a1      	cmp	r1, r4
87802b20:	d311      	bcc.n	87802b46 <vTaskDelayUntil+0x56>
87802b22:	4299      	cmp	r1, r3
87802b24:	bf38      	it	cc
87802b26:	f042 0201 	orrcc.w	r2, r2, #1
87802b2a:	b19a      	cbz	r2, 87802b54 <vTaskDelayUntil+0x64>
87802b2c:	6003      	str	r3, [r0, #0]
87802b2e:	1a58      	subs	r0, r3, r1
87802b30:	2100      	movs	r1, #0
87802b32:	f7ff fbcd 	bl	878022d0 <prvAddCurrentTaskToDelayedList>
87802b36:	f7ff ff75 	bl	87802a24 <xTaskResumeAll>
87802b3a:	b980      	cbnz	r0, 87802b5e <vTaskDelayUntil+0x6e>
87802b3c:	df00      	svc	0
87802b3e:	bd10      	pop	{r4, pc}
87802b40:	f001 f9c4 	bl	87803ecc <ulPortSetInterruptMask>
87802b44:	e7fe      	b.n	87802b44 <vTaskDelayUntil+0x54>
87802b46:	4299      	cmp	r1, r3
87802b48:	bf2c      	ite	cs
87802b4a:	2200      	movcs	r2, #0
87802b4c:	f002 0201 	andcc.w	r2, r2, #1
87802b50:	2a00      	cmp	r2, #0
87802b52:	d1eb      	bne.n	87802b2c <vTaskDelayUntil+0x3c>
87802b54:	6003      	str	r3, [r0, #0]
87802b56:	f7ff ff65 	bl	87802a24 <xTaskResumeAll>
87802b5a:	2800      	cmp	r0, #0
87802b5c:	d0ee      	beq.n	87802b3c <vTaskDelayUntil+0x4c>
87802b5e:	bd10      	pop	{r4, pc}
87802b60:	f001 f9b4 	bl	87803ecc <ulPortSetInterruptMask>
87802b64:	e7fe      	b.n	87802b64 <vTaskDelayUntil+0x74>
87802b66:	f001 f9b1 	bl	87803ecc <ulPortSetInterruptMask>
87802b6a:	e7fe      	b.n	87802b6a <vTaskDelayUntil+0x7a>

87802b6c <vTaskDelay>:
87802b6c:	b908      	cbnz	r0, 87802b72 <vTaskDelay+0x6>
87802b6e:	df00      	svc	0
87802b70:	4770      	bx	lr
87802b72:	b508      	push	{r3, lr}
87802b74:	f240 130c 	movw	r3, #268	; 0x10c
87802b78:	f6c8 0300 	movt	r3, #34816	; 0x8800
87802b7c:	f8d3 112c 	ldr.w	r1, [r3, #300]	; 0x12c
87802b80:	b951      	cbnz	r1, 87802b98 <vTaskDelay+0x2c>
87802b82:	f8d3 212c 	ldr.w	r2, [r3, #300]	; 0x12c
87802b86:	3201      	adds	r2, #1
87802b88:	f8c3 212c 	str.w	r2, [r3, #300]	; 0x12c
87802b8c:	f7ff fba0 	bl	878022d0 <prvAddCurrentTaskToDelayedList>
87802b90:	f7ff ff48 	bl	87802a24 <xTaskResumeAll>
87802b94:	b118      	cbz	r0, 87802b9e <vTaskDelay+0x32>
87802b96:	bd08      	pop	{r3, pc}
87802b98:	f001 f998 	bl	87803ecc <ulPortSetInterruptMask>
87802b9c:	e7fe      	b.n	87802b9c <vTaskDelay+0x30>
87802b9e:	df00      	svc	0
87802ba0:	bd08      	pop	{r3, pc}
87802ba2:	bf00      	nop

87802ba4 <prvIdleTask>:
87802ba4:	f240 140c 	movw	r4, #268	; 0x10c
87802ba8:	b508      	push	{r3, lr}
87802baa:	f6c8 0400 	movt	r4, #34816	; 0x8800
87802bae:	e009      	b.n	87802bc4 <prvIdleTask+0x20>
87802bb0:	f8d4 312c 	ldr.w	r3, [r4, #300]	; 0x12c
87802bb4:	f8d4 510c 	ldr.w	r5, [r4, #268]	; 0x10c
87802bb8:	3301      	adds	r3, #1
87802bba:	f8c4 312c 	str.w	r3, [r4, #300]	; 0x12c
87802bbe:	f7ff ff31 	bl	87802a24 <xTaskResumeAll>
87802bc2:	b945      	cbnz	r5, 87802bd6 <prvIdleTask+0x32>
87802bc4:	f8d4 3128 	ldr.w	r3, [r4, #296]	; 0x128
87802bc8:	2b00      	cmp	r3, #0
87802bca:	d1f1      	bne.n	87802bb0 <prvIdleTask+0xc>
87802bcc:	6c63      	ldr	r3, [r4, #68]	; 0x44
87802bce:	2b01      	cmp	r3, #1
87802bd0:	d9f8      	bls.n	87802bc4 <prvIdleTask+0x20>
87802bd2:	df00      	svc	0
87802bd4:	e7f6      	b.n	87802bc4 <prvIdleTask+0x20>
87802bd6:	f001 f8f7 	bl	87803dc8 <vPortEnterCritical>
87802bda:	f8d4 3118 	ldr.w	r3, [r4, #280]	; 0x118
87802bde:	68dd      	ldr	r5, [r3, #12]
87802be0:	1d28      	adds	r0, r5, #4
87802be2:	f7ff f9f9 	bl	87801fd8 <uxListRemove>
87802be6:	6c23      	ldr	r3, [r4, #64]	; 0x40
87802be8:	3b01      	subs	r3, #1
87802bea:	6423      	str	r3, [r4, #64]	; 0x40
87802bec:	f8d4 3128 	ldr.w	r3, [r4, #296]	; 0x128
87802bf0:	3b01      	subs	r3, #1
87802bf2:	f8c4 3128 	str.w	r3, [r4, #296]	; 0x128
87802bf6:	f001 f929 	bl	87803e4c <vPortExitCritical>
87802bfa:	6b28      	ldr	r0, [r5, #48]	; 0x30
87802bfc:	f001 fa94 	bl	87804128 <vPortFree>
87802c00:	4628      	mov	r0, r5
87802c02:	f001 fa91 	bl	87804128 <vPortFree>
87802c06:	e7dd      	b.n	87802bc4 <prvIdleTask+0x20>

87802c08 <vTaskSwitchContext>:
87802c08:	f240 120c 	movw	r2, #268	; 0x10c
87802c0c:	b508      	push	{r3, lr}
87802c0e:	f6c8 0200 	movt	r2, #34816	; 0x8800
87802c12:	f8d2 312c 	ldr.w	r3, [r2, #300]	; 0x12c
87802c16:	b9e3      	cbnz	r3, 87802c52 <vTaskSwitchContext+0x4a>
87802c18:	f8c2 313c 	str.w	r3, [r2, #316]	; 0x13c
87802c1c:	6893      	ldr	r3, [r2, #8]
87802c1e:	fab3 f383 	clz	r3, r3
87802c22:	f1c3 031f 	rsb	r3, r3, #31
87802c26:	eb03 0383 	add.w	r3, r3, r3, lsl #2
87802c2a:	009b      	lsls	r3, r3, #2
87802c2c:	18d0      	adds	r0, r2, r3
87802c2e:	6c41      	ldr	r1, [r0, #68]	; 0x44
87802c30:	b161      	cbz	r1, 87802c4c <vTaskSwitchContext+0x44>
87802c32:	6c81      	ldr	r1, [r0, #72]	; 0x48
87802c34:	4413      	add	r3, r2
87802c36:	334c      	adds	r3, #76	; 0x4c
87802c38:	6849      	ldr	r1, [r1, #4]
87802c3a:	4299      	cmp	r1, r3
87802c3c:	6481      	str	r1, [r0, #72]	; 0x48
87802c3e:	bf08      	it	eq
87802c40:	6849      	ldreq	r1, [r1, #4]
87802c42:	68cb      	ldr	r3, [r1, #12]
87802c44:	bf08      	it	eq
87802c46:	6481      	streq	r1, [r0, #72]	; 0x48
87802c48:	6053      	str	r3, [r2, #4]
87802c4a:	bd08      	pop	{r3, pc}
87802c4c:	f001 f93e 	bl	87803ecc <ulPortSetInterruptMask>
87802c50:	e7fe      	b.n	87802c50 <vTaskSwitchContext+0x48>
87802c52:	2301      	movs	r3, #1
87802c54:	f8c2 313c 	str.w	r3, [r2, #316]	; 0x13c
87802c58:	bd08      	pop	{r3, pc}
87802c5a:	bf00      	nop

87802c5c <vTaskSuspend>:
87802c5c:	b570      	push	{r4, r5, r6, lr}
87802c5e:	4605      	mov	r5, r0
87802c60:	f240 140c 	movw	r4, #268	; 0x10c
87802c64:	f6c8 0400 	movt	r4, #34816	; 0x8800
87802c68:	f001 f8ae 	bl	87803dc8 <vPortEnterCritical>
87802c6c:	2d00      	cmp	r5, #0
87802c6e:	d03d      	beq.n	87802cec <vTaskSuspend+0x90>
87802c70:	1d2e      	adds	r6, r5, #4
87802c72:	4630      	mov	r0, r6
87802c74:	f7ff f9b0 	bl	87801fd8 <uxListRemove>
87802c78:	b930      	cbnz	r0, 87802c88 <vTaskSuspend+0x2c>
87802c7a:	6ae9      	ldr	r1, [r5, #44]	; 0x2c
87802c7c:	eb01 0381 	add.w	r3, r1, r1, lsl #2
87802c80:	eb04 0383 	add.w	r3, r4, r3, lsl #2
87802c84:	6c5b      	ldr	r3, [r3, #68]	; 0x44
87802c86:	b193      	cbz	r3, 87802cae <vTaskSuspend+0x52>
87802c88:	6aab      	ldr	r3, [r5, #40]	; 0x28
87802c8a:	b11b      	cbz	r3, 87802c94 <vTaskSuspend+0x38>
87802c8c:	f105 0018 	add.w	r0, r5, #24
87802c90:	f7ff f9a2 	bl	87801fd8 <uxListRemove>
87802c94:	4631      	mov	r1, r6
87802c96:	481d      	ldr	r0, [pc, #116]	; (87802d0c <vTaskSuspend+0xb0>)
87802c98:	f7ff f974 	bl	87801f84 <vListInsertEnd>
87802c9c:	f001 f8d6 	bl	87803e4c <vPortExitCritical>
87802ca0:	f8d4 3120 	ldr.w	r3, [r4, #288]	; 0x120
87802ca4:	b953      	cbnz	r3, 87802cbc <vTaskSuspend+0x60>
87802ca6:	6863      	ldr	r3, [r4, #4]
87802ca8:	429d      	cmp	r5, r3
87802caa:	d013      	beq.n	87802cd4 <vTaskSuspend+0x78>
87802cac:	bd70      	pop	{r4, r5, r6, pc}
87802cae:	68a3      	ldr	r3, [r4, #8]
87802cb0:	2201      	movs	r2, #1
87802cb2:	408a      	lsls	r2, r1
87802cb4:	ea23 0302 	bic.w	r3, r3, r2
87802cb8:	60a3      	str	r3, [r4, #8]
87802cba:	e7e5      	b.n	87802c88 <vTaskSuspend+0x2c>
87802cbc:	f001 f884 	bl	87803dc8 <vPortEnterCritical>
87802cc0:	6a63      	ldr	r3, [r4, #36]	; 0x24
87802cc2:	681b      	ldr	r3, [r3, #0]
87802cc4:	b173      	cbz	r3, 87802ce4 <vTaskSuspend+0x88>
87802cc6:	f7ff fb41 	bl	8780234c <prvResetNextTaskUnblockTime.part.0>
87802cca:	f001 f8bf 	bl	87803e4c <vPortExitCritical>
87802cce:	6863      	ldr	r3, [r4, #4]
87802cd0:	429d      	cmp	r5, r3
87802cd2:	d1eb      	bne.n	87802cac <vTaskSuspend+0x50>
87802cd4:	f8d4 3120 	ldr.w	r3, [r4, #288]	; 0x120
87802cd8:	b153      	cbz	r3, 87802cf0 <vTaskSuspend+0x94>
87802cda:	f8d4 312c 	ldr.w	r3, [r4, #300]	; 0x12c
87802cde:	b98b      	cbnz	r3, 87802d04 <vTaskSuspend+0xa8>
87802ce0:	df00      	svc	0
87802ce2:	bd70      	pop	{r4, r5, r6, pc}
87802ce4:	f04f 33ff 	mov.w	r3, #4294967295	; 0xffffffff
87802ce8:	62a3      	str	r3, [r4, #40]	; 0x28
87802cea:	e7ee      	b.n	87802cca <vTaskSuspend+0x6e>
87802cec:	6865      	ldr	r5, [r4, #4]
87802cee:	e7bf      	b.n	87802c70 <vTaskSuspend+0x14>
87802cf0:	6c22      	ldr	r2, [r4, #64]	; 0x40
87802cf2:	68e1      	ldr	r1, [r4, #12]
87802cf4:	4291      	cmp	r1, r2
87802cf6:	d003      	beq.n	87802d00 <vTaskSuspend+0xa4>
87802cf8:	e8bd 4070 	ldmia.w	sp!, {r4, r5, r6, lr}
87802cfc:	f7ff bf84 	b.w	87802c08 <vTaskSwitchContext>
87802d00:	6063      	str	r3, [r4, #4]
87802d02:	bd70      	pop	{r4, r5, r6, pc}
87802d04:	f001 f8e2 	bl	87803ecc <ulPortSetInterruptMask>
87802d08:	e7fe      	b.n	87802d08 <vTaskSuspend+0xac>
87802d0a:	bf00      	nop
87802d0c:	88000118 	stmdahi	r0, {r3, r4, r8}

87802d10 <vTaskPlaceOnEventList>:
87802d10:	b510      	push	{r4, lr}
87802d12:	b170      	cbz	r0, 87802d32 <vTaskPlaceOnEventList+0x22>
87802d14:	f240 130c 	movw	r3, #268	; 0x10c
87802d18:	460c      	mov	r4, r1
87802d1a:	f6c8 0300 	movt	r3, #34816	; 0x8800
87802d1e:	6859      	ldr	r1, [r3, #4]
87802d20:	3118      	adds	r1, #24
87802d22:	f7ff f93f 	bl	87801fa4 <vListInsert>
87802d26:	4620      	mov	r0, r4
87802d28:	2101      	movs	r1, #1
87802d2a:	e8bd 4010 	ldmia.w	sp!, {r4, lr}
87802d2e:	f7ff bacf 	b.w	878022d0 <prvAddCurrentTaskToDelayedList>
87802d32:	f001 f8cb 	bl	87803ecc <ulPortSetInterruptMask>
87802d36:	e7fe      	b.n	87802d36 <vTaskPlaceOnEventList+0x26>

87802d38 <vTaskPlaceOnUnorderedEventList>:
87802d38:	b510      	push	{r4, lr}
87802d3a:	b1c8      	cbz	r0, 87802d70 <vTaskPlaceOnUnorderedEventList+0x38>
87802d3c:	f240 130c 	movw	r3, #268	; 0x10c
87802d40:	4614      	mov	r4, r2
87802d42:	f6c8 0300 	movt	r3, #34816	; 0x8800
87802d46:	f8d3 212c 	ldr.w	r2, [r3, #300]	; 0x12c
87802d4a:	b912      	cbnz	r2, 87802d52 <vTaskPlaceOnUnorderedEventList+0x1a>
87802d4c:	f001 f8be 	bl	87803ecc <ulPortSetInterruptMask>
87802d50:	e7fe      	b.n	87802d50 <vTaskPlaceOnUnorderedEventList+0x18>
87802d52:	685a      	ldr	r2, [r3, #4]
87802d54:	f041 4100 	orr.w	r1, r1, #2147483648	; 0x80000000
87802d58:	685b      	ldr	r3, [r3, #4]
87802d5a:	6191      	str	r1, [r2, #24]
87802d5c:	f103 0118 	add.w	r1, r3, #24
87802d60:	f7ff f910 	bl	87801f84 <vListInsertEnd>
87802d64:	4620      	mov	r0, r4
87802d66:	2101      	movs	r1, #1
87802d68:	e8bd 4010 	ldmia.w	sp!, {r4, lr}
87802d6c:	f7ff bab0 	b.w	878022d0 <prvAddCurrentTaskToDelayedList>
87802d70:	f001 f8ac 	bl	87803ecc <ulPortSetInterruptMask>
87802d74:	e7fe      	b.n	87802d74 <vTaskPlaceOnUnorderedEventList+0x3c>
87802d76:	bf00      	nop

87802d78 <vTaskPlaceOnEventListRestricted>:
87802d78:	b538      	push	{r3, r4, r5, lr}
87802d7a:	b198      	cbz	r0, 87802da4 <vTaskPlaceOnEventListRestricted+0x2c>
87802d7c:	f240 130c 	movw	r3, #268	; 0x10c
87802d80:	460d      	mov	r5, r1
87802d82:	f6c8 0300 	movt	r3, #34816	; 0x8800
87802d86:	4614      	mov	r4, r2
87802d88:	6859      	ldr	r1, [r3, #4]
87802d8a:	3118      	adds	r1, #24
87802d8c:	f7ff f8fa 	bl	87801f84 <vListInsertEnd>
87802d90:	2c00      	cmp	r4, #0
87802d92:	4621      	mov	r1, r4
87802d94:	bf0c      	ite	eq
87802d96:	4628      	moveq	r0, r5
87802d98:	f04f 30ff 	movne.w	r0, #4294967295	; 0xffffffff
87802d9c:	e8bd 4038 	ldmia.w	sp!, {r3, r4, r5, lr}
87802da0:	f7ff ba96 	b.w	878022d0 <prvAddCurrentTaskToDelayedList>
87802da4:	f001 f892 	bl	87803ecc <ulPortSetInterruptMask>
87802da8:	e7fe      	b.n	87802da8 <vTaskPlaceOnEventListRestricted+0x30>
87802daa:	bf00      	nop

87802dac <xTaskRemoveFromEventList>:
87802dac:	b5f8      	push	{r3, r4, r5, r6, r7, lr}
87802dae:	68c3      	ldr	r3, [r0, #12]
87802db0:	68dd      	ldr	r5, [r3, #12]
87802db2:	b375      	cbz	r5, 87802e12 <xTaskRemoveFromEventList+0x66>
87802db4:	f105 0618 	add.w	r6, r5, #24
87802db8:	f240 140c 	movw	r4, #268	; 0x10c
87802dbc:	4630      	mov	r0, r6
87802dbe:	f6c8 0400 	movt	r4, #34816	; 0x8800
87802dc2:	f7ff f909 	bl	87801fd8 <uxListRemove>
87802dc6:	f8d4 312c 	ldr.w	r3, [r4, #300]	; 0x12c
87802dca:	b9e3      	cbnz	r3, 87802e06 <xTaskRemoveFromEventList+0x5a>
87802dcc:	1d2e      	adds	r6, r5, #4
87802dce:	4630      	mov	r0, r6
87802dd0:	f7ff f902 	bl	87801fd8 <uxListRemove>
87802dd4:	6aea      	ldr	r2, [r5, #44]	; 0x2c
87802dd6:	2301      	movs	r3, #1
87802dd8:	68a7      	ldr	r7, [r4, #8]
87802dda:	f104 0044 	add.w	r0, r4, #68	; 0x44
87802dde:	4631      	mov	r1, r6
87802de0:	4093      	lsls	r3, r2
87802de2:	eb02 0282 	add.w	r2, r2, r2, lsl #2
87802de6:	433b      	orrs	r3, r7
87802de8:	eb00 0082 	add.w	r0, r0, r2, lsl #2
87802dec:	60a3      	str	r3, [r4, #8]
87802dee:	f7ff f8c9 	bl	87801f84 <vListInsertEnd>
87802df2:	6863      	ldr	r3, [r4, #4]
87802df4:	6aea      	ldr	r2, [r5, #44]	; 0x2c
87802df6:	6adb      	ldr	r3, [r3, #44]	; 0x2c
87802df8:	429a      	cmp	r2, r3
87802dfa:	bf8a      	itet	hi
87802dfc:	2001      	movhi	r0, #1
87802dfe:	2000      	movls	r0, #0
87802e00:	f8c4 013c 	strhi.w	r0, [r4, #316]	; 0x13c
87802e04:	bdf8      	pop	{r3, r4, r5, r6, r7, pc}
87802e06:	4631      	mov	r1, r6
87802e08:	f104 002c 	add.w	r0, r4, #44	; 0x2c
87802e0c:	f7ff f8ba 	bl	87801f84 <vListInsertEnd>
87802e10:	e7ef      	b.n	87802df2 <xTaskRemoveFromEventList+0x46>
87802e12:	f001 f85b 	bl	87803ecc <ulPortSetInterruptMask>
87802e16:	e7fe      	b.n	87802e16 <xTaskRemoveFromEventList+0x6a>

87802e18 <xTaskRemoveFromUnorderedEventList>:
87802e18:	b5f8      	push	{r3, r4, r5, r6, r7, lr}
87802e1a:	f240 140c 	movw	r4, #268	; 0x10c
87802e1e:	f6c8 0400 	movt	r4, #34816	; 0x8800
87802e22:	f8d4 312c 	ldr.w	r3, [r4, #300]	; 0x12c
87802e26:	b323      	cbz	r3, 87802e72 <xTaskRemoveFromUnorderedEventList+0x5a>
87802e28:	68c6      	ldr	r6, [r0, #12]
87802e2a:	f041 4100 	orr.w	r1, r1, #2147483648	; 0x80000000
87802e2e:	6001      	str	r1, [r0, #0]
87802e30:	b316      	cbz	r6, 87802e78 <xTaskRemoveFromUnorderedEventList+0x60>
87802e32:	1d37      	adds	r7, r6, #4
87802e34:	2501      	movs	r5, #1
87802e36:	f7ff f8cf 	bl	87801fd8 <uxListRemove>
87802e3a:	4638      	mov	r0, r7
87802e3c:	f7ff f8cc 	bl	87801fd8 <uxListRemove>
87802e40:	6af3      	ldr	r3, [r6, #44]	; 0x2c
87802e42:	4639      	mov	r1, r7
87802e44:	68a7      	ldr	r7, [r4, #8]
87802e46:	f104 0044 	add.w	r0, r4, #68	; 0x44
87802e4a:	fa05 f203 	lsl.w	r2, r5, r3
87802e4e:	eb03 0383 	add.w	r3, r3, r3, lsl #2
87802e52:	433a      	orrs	r2, r7
87802e54:	eb00 0083 	add.w	r0, r0, r3, lsl #2
87802e58:	60a2      	str	r2, [r4, #8]
87802e5a:	f7ff f893 	bl	87801f84 <vListInsertEnd>
87802e5e:	6863      	ldr	r3, [r4, #4]
87802e60:	6af2      	ldr	r2, [r6, #44]	; 0x2c
87802e62:	6adb      	ldr	r3, [r3, #44]	; 0x2c
87802e64:	429a      	cmp	r2, r3
87802e66:	bf86      	itte	hi
87802e68:	4628      	movhi	r0, r5
87802e6a:	f8c4 513c 	strhi.w	r5, [r4, #316]	; 0x13c
87802e6e:	2000      	movls	r0, #0
87802e70:	bdf8      	pop	{r3, r4, r5, r6, r7, pc}
87802e72:	f001 f82b 	bl	87803ecc <ulPortSetInterruptMask>
87802e76:	e7fe      	b.n	87802e76 <xTaskRemoveFromUnorderedEventList+0x5e>
87802e78:	f001 f828 	bl	87803ecc <ulPortSetInterruptMask>
87802e7c:	e7fe      	b.n	87802e7c <xTaskRemoveFromUnorderedEventList+0x64>
87802e7e:	bf00      	nop

87802e80 <vTaskSetTimeOutState>:
87802e80:	b508      	push	{r3, lr}
87802e82:	b148      	cbz	r0, 87802e98 <vTaskSetTimeOutState+0x18>
87802e84:	f240 130c 	movw	r3, #268	; 0x10c
87802e88:	f6c8 0300 	movt	r3, #34816	; 0x8800
87802e8c:	f8d3 2134 	ldr.w	r2, [r3, #308]	; 0x134
87802e90:	681b      	ldr	r3, [r3, #0]
87802e92:	e880 000c 	stmia.w	r0, {r2, r3}
87802e96:	bd08      	pop	{r3, pc}
87802e98:	f001 f818 	bl	87803ecc <ulPortSetInterruptMask>
87802e9c:	e7fe      	b.n	87802e9c <vTaskSetTimeOutState+0x1c>
87802e9e:	bf00      	nop

87802ea0 <xTaskCheckForTimeOut>:
87802ea0:	b570      	push	{r4, r5, r6, lr}
87802ea2:	b370      	cbz	r0, 87802f02 <xTaskCheckForTimeOut+0x62>
87802ea4:	460d      	mov	r5, r1
87802ea6:	b349      	cbz	r1, 87802efc <xTaskCheckForTimeOut+0x5c>
87802ea8:	4604      	mov	r4, r0
87802eaa:	f000 ff8d 	bl	87803dc8 <vPortEnterCritical>
87802eae:	682b      	ldr	r3, [r5, #0]
87802eb0:	f240 120c 	movw	r2, #268	; 0x10c
87802eb4:	f6c8 0200 	movt	r2, #34816	; 0x8800
87802eb8:	6811      	ldr	r1, [r2, #0]
87802eba:	1c58      	adds	r0, r3, #1
87802ebc:	bf08      	it	eq
87802ebe:	2500      	moveq	r5, #0
87802ec0:	d013      	beq.n	87802eea <xTaskCheckForTimeOut+0x4a>
87802ec2:	f8d2 0134 	ldr.w	r0, [r2, #308]	; 0x134
87802ec6:	6826      	ldr	r6, [r4, #0]
87802ec8:	4286      	cmp	r6, r0
87802eca:	6860      	ldr	r0, [r4, #4]
87802ecc:	d001      	beq.n	87802ed2 <xTaskCheckForTimeOut+0x32>
87802ece:	4281      	cmp	r1, r0
87802ed0:	d20f      	bcs.n	87802ef2 <xTaskCheckForTimeOut+0x52>
87802ed2:	1a0e      	subs	r6, r1, r0
87802ed4:	42b3      	cmp	r3, r6
87802ed6:	d90c      	bls.n	87802ef2 <xTaskCheckForTimeOut+0x52>
87802ed8:	1a5b      	subs	r3, r3, r1
87802eda:	f8d2 6134 	ldr.w	r6, [r2, #308]	; 0x134
87802ede:	4403      	add	r3, r0
87802ee0:	6812      	ldr	r2, [r2, #0]
87802ee2:	602b      	str	r3, [r5, #0]
87802ee4:	2500      	movs	r5, #0
87802ee6:	6026      	str	r6, [r4, #0]
87802ee8:	6062      	str	r2, [r4, #4]
87802eea:	f000 ffaf 	bl	87803e4c <vPortExitCritical>
87802eee:	4628      	mov	r0, r5
87802ef0:	bd70      	pop	{r4, r5, r6, pc}
87802ef2:	2501      	movs	r5, #1
87802ef4:	f000 ffaa 	bl	87803e4c <vPortExitCritical>
87802ef8:	4628      	mov	r0, r5
87802efa:	bd70      	pop	{r4, r5, r6, pc}
87802efc:	f000 ffe6 	bl	87803ecc <ulPortSetInterruptMask>
87802f00:	e7fe      	b.n	87802f00 <xTaskCheckForTimeOut+0x60>
87802f02:	f000 ffe3 	bl	87803ecc <ulPortSetInterruptMask>
87802f06:	e7fe      	b.n	87802f06 <xTaskCheckForTimeOut+0x66>

87802f08 <vTaskMissedYield>:
87802f08:	f240 130c 	movw	r3, #268	; 0x10c
87802f0c:	2201      	movs	r2, #1
87802f0e:	f6c8 0300 	movt	r3, #34816	; 0x8800
87802f12:	f8c3 213c 	str.w	r2, [r3, #316]	; 0x13c
87802f16:	4770      	bx	lr

87802f18 <uxTaskGetTaskNumber>:
87802f18:	b100      	cbz	r0, 87802f1c <uxTaskGetTaskNumber+0x4>
87802f1a:	6d00      	ldr	r0, [r0, #80]	; 0x50
87802f1c:	4770      	bx	lr
87802f1e:	bf00      	nop

87802f20 <vTaskSetTaskNumber>:
87802f20:	b100      	cbz	r0, 87802f24 <vTaskSetTaskNumber+0x4>
87802f22:	6501      	str	r1, [r0, #80]	; 0x50
87802f24:	4770      	bx	lr
87802f26:	bf00      	nop

87802f28 <vTaskSetThreadLocalStoragePointer>:
87802f28:	2904      	cmp	r1, #4
87802f2a:	dc03      	bgt.n	87802f34 <vTaskSetThreadLocalStoragePointer+0xc>
87802f2c:	b118      	cbz	r0, 87802f36 <vTaskSetThreadLocalStoragePointer+0xe>
87802f2e:	eb00 0181 	add.w	r1, r0, r1, lsl #2
87802f32:	65ca      	str	r2, [r1, #92]	; 0x5c
87802f34:	4770      	bx	lr
87802f36:	f240 130c 	movw	r3, #268	; 0x10c
87802f3a:	f6c8 0300 	movt	r3, #34816	; 0x8800
87802f3e:	6858      	ldr	r0, [r3, #4]
87802f40:	e7f5      	b.n	87802f2e <vTaskSetThreadLocalStoragePointer+0x6>
87802f42:	bf00      	nop

87802f44 <pvTaskGetThreadLocalStoragePointer>:
87802f44:	2904      	cmp	r1, #4
87802f46:	dc0d      	bgt.n	87802f64 <pvTaskGetThreadLocalStoragePointer+0x20>
87802f48:	b118      	cbz	r0, 87802f52 <pvTaskGetThreadLocalStoragePointer+0xe>
87802f4a:	eb00 0081 	add.w	r0, r0, r1, lsl #2
87802f4e:	6dc0      	ldr	r0, [r0, #92]	; 0x5c
87802f50:	4770      	bx	lr
87802f52:	f240 130c 	movw	r3, #268	; 0x10c
87802f56:	f6c8 0300 	movt	r3, #34816	; 0x8800
87802f5a:	6858      	ldr	r0, [r3, #4]
87802f5c:	eb00 0081 	add.w	r0, r0, r1, lsl #2
87802f60:	6dc0      	ldr	r0, [r0, #92]	; 0x5c
87802f62:	4770      	bx	lr
87802f64:	2000      	movs	r0, #0
87802f66:	4770      	bx	lr

87802f68 <vTaskGetInfo>:
87802f68:	e92d 41f0 	stmdb	sp!, {r4, r5, r6, r7, r8, lr}
87802f6c:	460c      	mov	r4, r1
87802f6e:	4690      	mov	r8, r2
87802f70:	461f      	mov	r7, r3
87802f72:	4606      	mov	r6, r0
87802f74:	4605      	mov	r5, r0
87802f76:	2800      	cmp	r0, #0
87802f78:	d040      	beq.n	87802ffc <vTaskGetInfo+0x94>
87802f7a:	6aeb      	ldr	r3, [r5, #44]	; 0x2c
87802f7c:	f105 0034 	add.w	r0, r5, #52	; 0x34
87802f80:	6b29      	ldr	r1, [r5, #48]	; 0x30
87802f82:	6cea      	ldr	r2, [r5, #76]	; 0x4c
87802f84:	6123      	str	r3, [r4, #16]
87802f86:	68e3      	ldr	r3, [r4, #12]
87802f88:	6025      	str	r5, [r4, #0]
87802f8a:	61e1      	str	r1, [r4, #28]
87802f8c:	2b03      	cmp	r3, #3
87802f8e:	60a2      	str	r2, [r4, #8]
87802f90:	6060      	str	r0, [r4, #4]
87802f92:	d01e      	beq.n	87802fd2 <vTaskGetInfo+0x6a>
87802f94:	6d6b      	ldr	r3, [r5, #84]	; 0x54
87802f96:	2f05      	cmp	r7, #5
87802f98:	f04f 0200 	mov.w	r2, #0
87802f9c:	bf18      	it	ne
87802f9e:	60e7      	strne	r7, [r4, #12]
87802fa0:	61a2      	str	r2, [r4, #24]
87802fa2:	6163      	str	r3, [r4, #20]
87802fa4:	d025      	beq.n	87802ff2 <vTaskGetInfo+0x8a>
87802fa6:	f1b8 0f00 	cmp.w	r8, #0
87802faa:	d00e      	beq.n	87802fca <vTaskGetInfo+0x62>
87802fac:	6b29      	ldr	r1, [r5, #48]	; 0x30
87802fae:	780b      	ldrb	r3, [r1, #0]
87802fb0:	2ba5      	cmp	r3, #165	; 0xa5
87802fb2:	d129      	bne.n	87803008 <vTaskGetInfo+0xa0>
87802fb4:	1c4b      	adds	r3, r1, #1
87802fb6:	1a58      	subs	r0, r3, r1
87802fb8:	f813 2b01 	ldrb.w	r2, [r3], #1
87802fbc:	2aa5      	cmp	r2, #165	; 0xa5
87802fbe:	d0fa      	beq.n	87802fb6 <vTaskGetInfo+0x4e>
87802fc0:	f3c0 008f 	ubfx	r0, r0, #2, #16
87802fc4:	8420      	strh	r0, [r4, #32]
87802fc6:	e8bd 81f0 	ldmia.w	sp!, {r4, r5, r6, r7, r8, pc}
87802fca:	f8a4 8020 	strh.w	r8, [r4, #32]
87802fce:	e8bd 81f0 	ldmia.w	sp!, {r4, r5, r6, r7, r8, pc}
87802fd2:	f240 130c 	movw	r3, #268	; 0x10c
87802fd6:	6aa9      	ldr	r1, [r5, #40]	; 0x28
87802fd8:	f6c8 0300 	movt	r3, #34816	; 0x8800
87802fdc:	f8d3 212c 	ldr.w	r2, [r3, #300]	; 0x12c
87802fe0:	3201      	adds	r2, #1
87802fe2:	f8c3 212c 	str.w	r2, [r3, #300]	; 0x12c
87802fe6:	b109      	cbz	r1, 87802fec <vTaskGetInfo+0x84>
87802fe8:	2302      	movs	r3, #2
87802fea:	60e3      	str	r3, [r4, #12]
87802fec:	f7ff fd1a 	bl	87802a24 <xTaskResumeAll>
87802ff0:	e7d0      	b.n	87802f94 <vTaskGetInfo+0x2c>
87802ff2:	4630      	mov	r0, r6
87802ff4:	f7ff faf8 	bl	878025e8 <eTaskGetState>
87802ff8:	60e0      	str	r0, [r4, #12]
87802ffa:	e7d4      	b.n	87802fa6 <vTaskGetInfo+0x3e>
87802ffc:	f240 130c 	movw	r3, #268	; 0x10c
87803000:	f6c8 0300 	movt	r3, #34816	; 0x8800
87803004:	685d      	ldr	r5, [r3, #4]
87803006:	e7b8      	b.n	87802f7a <vTaskGetInfo+0x12>
87803008:	2000      	movs	r0, #0
8780300a:	e7db      	b.n	87802fc4 <vTaskGetInfo+0x5c>

8780300c <prvListTasksWithinSingleList.part.3>:
8780300c:	684b      	ldr	r3, [r1, #4]
8780300e:	e92d 47f0 	stmdb	sp!, {r4, r5, r6, r7, r8, r9, sl, lr}
87803012:	f101 0808 	add.w	r8, r1, #8
87803016:	460e      	mov	r6, r1
87803018:	4692      	mov	sl, r2
8780301a:	4605      	mov	r5, r0
8780301c:	2700      	movs	r7, #0
8780301e:	685b      	ldr	r3, [r3, #4]
87803020:	4543      	cmp	r3, r8
87803022:	604b      	str	r3, [r1, #4]
87803024:	bf08      	it	eq
87803026:	68cb      	ldreq	r3, [r1, #12]
87803028:	f8d3 900c 	ldr.w	r9, [r3, #12]
8780302c:	e000      	b.n	87803030 <prvListTasksWithinSingleList.part.3+0x24>
8780302e:	6873      	ldr	r3, [r6, #4]
87803030:	685c      	ldr	r4, [r3, #4]
87803032:	4629      	mov	r1, r5
87803034:	2201      	movs	r2, #1
87803036:	4653      	mov	r3, sl
87803038:	4417      	add	r7, r2
8780303a:	3524      	adds	r5, #36	; 0x24
8780303c:	45a0      	cmp	r8, r4
8780303e:	6074      	str	r4, [r6, #4]
87803040:	bf04      	itt	eq
87803042:	68f4      	ldreq	r4, [r6, #12]
87803044:	6074      	streq	r4, [r6, #4]
87803046:	68e4      	ldr	r4, [r4, #12]
87803048:	4620      	mov	r0, r4
8780304a:	f7ff ff8d 	bl	87802f68 <vTaskGetInfo>
8780304e:	45a1      	cmp	r9, r4
87803050:	d1ed      	bne.n	8780302e <prvListTasksWithinSingleList.part.3+0x22>
87803052:	4638      	mov	r0, r7
87803054:	e8bd 87f0 	ldmia.w	sp!, {r4, r5, r6, r7, r8, r9, sl, pc}

87803058 <uxTaskGetSystemState>:
87803058:	e92d 43f8 	stmdb	sp!, {r3, r4, r5, r6, r7, r8, r9, lr}
8780305c:	f240 180c 	movw	r8, #268	; 0x10c
87803060:	f6c8 0800 	movt	r8, #34816	; 0x8800
87803064:	f8d8 312c 	ldr.w	r3, [r8, #300]	; 0x12c
87803068:	3301      	adds	r3, #1
8780306a:	f8c8 312c 	str.w	r3, [r8, #300]	; 0x12c
8780306e:	f8d8 3040 	ldr.w	r3, [r8, #64]	; 0x40
87803072:	428b      	cmp	r3, r1
87803074:	bf88      	it	hi
87803076:	2400      	movhi	r4, #0
87803078:	d82f      	bhi.n	878030da <uxTaskGetSystemState+0x82>
8780307a:	4607      	mov	r7, r0
8780307c:	4616      	mov	r6, r2
8780307e:	f108 04d0 	add.w	r4, r8, #208	; 0xd0
87803082:	f108 0930 	add.w	r9, r8, #48	; 0x30
87803086:	2500      	movs	r5, #0
87803088:	e003      	b.n	87803092 <uxTaskGetSystemState+0x3a>
8780308a:	3c14      	subs	r4, #20
8780308c:	4405      	add	r5, r0
8780308e:	45a1      	cmp	r9, r4
87803090:	d00e      	beq.n	878030b0 <uxTaskGetSystemState+0x58>
87803092:	6820      	ldr	r0, [r4, #0]
87803094:	2800      	cmp	r0, #0
87803096:	d0f8      	beq.n	8780308a <uxTaskGetSystemState+0x32>
87803098:	eb05 00c5 	add.w	r0, r5, r5, lsl #3
8780309c:	4621      	mov	r1, r4
8780309e:	2201      	movs	r2, #1
878030a0:	eb07 0080 	add.w	r0, r7, r0, lsl #2
878030a4:	3c14      	subs	r4, #20
878030a6:	f7ff ffb1 	bl	8780300c <prvListTasksWithinSingleList.part.3>
878030aa:	45a1      	cmp	r9, r4
878030ac:	4405      	add	r5, r0
878030ae:	d1f0      	bne.n	87803092 <uxTaskGetSystemState+0x3a>
878030b0:	f8d8 1024 	ldr.w	r1, [r8, #36]	; 0x24
878030b4:	6808      	ldr	r0, [r1, #0]
878030b6:	b9f0      	cbnz	r0, 878030f6 <uxTaskGetSystemState+0x9e>
878030b8:	f8d8 1020 	ldr.w	r1, [r8, #32]
878030bc:	182c      	adds	r4, r5, r0
878030be:	6808      	ldr	r0, [r1, #0]
878030c0:	bb30      	cbnz	r0, 87803110 <uxTaskGetSystemState+0xb8>
878030c2:	f8d8 310c 	ldr.w	r3, [r8, #268]	; 0x10c
878030c6:	4404      	add	r4, r0
878030c8:	bb73      	cbnz	r3, 87803128 <uxTaskGetSystemState+0xd0>
878030ca:	f8d8 000c 	ldr.w	r0, [r8, #12]
878030ce:	441c      	add	r4, r3
878030d0:	b940      	cbnz	r0, 878030e4 <uxTaskGetSystemState+0x8c>
878030d2:	4404      	add	r4, r0
878030d4:	b10e      	cbz	r6, 878030da <uxTaskGetSystemState+0x82>
878030d6:	2300      	movs	r3, #0
878030d8:	6033      	str	r3, [r6, #0]
878030da:	f7ff fca3 	bl	87802a24 <xTaskResumeAll>
878030de:	4620      	mov	r0, r4
878030e0:	e8bd 83f8 	ldmia.w	sp!, {r3, r4, r5, r6, r7, r8, r9, pc}
878030e4:	eb04 00c4 	add.w	r0, r4, r4, lsl #3
878030e8:	2203      	movs	r2, #3
878030ea:	4917      	ldr	r1, [pc, #92]	; (87803148 <uxTaskGetSystemState+0xf0>)
878030ec:	eb07 0080 	add.w	r0, r7, r0, lsl #2
878030f0:	f7ff ff8c 	bl	8780300c <prvListTasksWithinSingleList.part.3>
878030f4:	e7ed      	b.n	878030d2 <uxTaskGetSystemState+0x7a>
878030f6:	eb05 00c5 	add.w	r0, r5, r5, lsl #3
878030fa:	2202      	movs	r2, #2
878030fc:	eb07 0080 	add.w	r0, r7, r0, lsl #2
87803100:	f7ff ff84 	bl	8780300c <prvListTasksWithinSingleList.part.3>
87803104:	f8d8 1020 	ldr.w	r1, [r8, #32]
87803108:	182c      	adds	r4, r5, r0
8780310a:	6808      	ldr	r0, [r1, #0]
8780310c:	2800      	cmp	r0, #0
8780310e:	d0d8      	beq.n	878030c2 <uxTaskGetSystemState+0x6a>
87803110:	eb04 00c4 	add.w	r0, r4, r4, lsl #3
87803114:	2202      	movs	r2, #2
87803116:	eb07 0080 	add.w	r0, r7, r0, lsl #2
8780311a:	f7ff ff77 	bl	8780300c <prvListTasksWithinSingleList.part.3>
8780311e:	f8d8 310c 	ldr.w	r3, [r8, #268]	; 0x10c
87803122:	4404      	add	r4, r0
87803124:	2b00      	cmp	r3, #0
87803126:	d0d0      	beq.n	878030ca <uxTaskGetSystemState+0x72>
87803128:	eb04 00c4 	add.w	r0, r4, r4, lsl #3
8780312c:	2204      	movs	r2, #4
8780312e:	4907      	ldr	r1, [pc, #28]	; (8780314c <uxTaskGetSystemState+0xf4>)
87803130:	eb07 0080 	add.w	r0, r7, r0, lsl #2
87803134:	f7ff ff6a 	bl	8780300c <prvListTasksWithinSingleList.part.3>
87803138:	4603      	mov	r3, r0
8780313a:	f8d8 000c 	ldr.w	r0, [r8, #12]
8780313e:	441c      	add	r4, r3
87803140:	2800      	cmp	r0, #0
87803142:	d0c6      	beq.n	878030d2 <uxTaskGetSystemState+0x7a>
87803144:	e7ce      	b.n	878030e4 <uxTaskGetSystemState+0x8c>
87803146:	bf00      	nop
87803148:	88000118 	stmdahi	r0, {r3, r4, r8}
8780314c:	88000218 	stmdahi	r0, {r3, r4, r9}

87803150 <xTaskGetCurrentTaskHandle>:
87803150:	f240 130c 	movw	r3, #268	; 0x10c
87803154:	f6c8 0300 	movt	r3, #34816	; 0x8800
87803158:	6858      	ldr	r0, [r3, #4]
8780315a:	4770      	bx	lr

8780315c <xTaskGetSchedulerState>:
8780315c:	f240 130c 	movw	r3, #268	; 0x10c
87803160:	f6c8 0300 	movt	r3, #34816	; 0x8800
87803164:	f8d3 2120 	ldr.w	r2, [r3, #288]	; 0x120
87803168:	b132      	cbz	r2, 87803178 <xTaskGetSchedulerState+0x1c>
8780316a:	f8d3 312c 	ldr.w	r3, [r3, #300]	; 0x12c
8780316e:	2b00      	cmp	r3, #0
87803170:	bf0c      	ite	eq
87803172:	2002      	moveq	r0, #2
87803174:	2000      	movne	r0, #0
87803176:	4770      	bx	lr
87803178:	2001      	movs	r0, #1
8780317a:	4770      	bx	lr

8780317c <vTaskPriorityInherit>:
8780317c:	2800      	cmp	r0, #0
8780317e:	d043      	beq.n	87803208 <vTaskPriorityInherit+0x8c>
87803180:	b5f8      	push	{r3, r4, r5, r6, r7, lr}
87803182:	f240 140c 	movw	r4, #268	; 0x10c
87803186:	f6c8 0400 	movt	r4, #34816	; 0x8800
8780318a:	6ac3      	ldr	r3, [r0, #44]	; 0x2c
8780318c:	6862      	ldr	r2, [r4, #4]
8780318e:	6ad2      	ldr	r2, [r2, #44]	; 0x2c
87803190:	4293      	cmp	r3, r2
87803192:	d213      	bcs.n	878031bc <vTaskPriorityInherit+0x40>
87803194:	6982      	ldr	r2, [r0, #24]
87803196:	eb03 0383 	add.w	r3, r3, r3, lsl #2
8780319a:	4d1c      	ldr	r5, [pc, #112]	; (8780320c <vTaskPriorityInherit+0x90>)
8780319c:	2a00      	cmp	r2, #0
8780319e:	bfa8      	it	ge
878031a0:	6862      	ldrge	r2, [r4, #4]
878031a2:	eb05 0383 	add.w	r3, r5, r3, lsl #2
878031a6:	bfa2      	ittt	ge
878031a8:	6ad2      	ldrge	r2, [r2, #44]	; 0x2c
878031aa:	f1c2 0208 	rsbge	r2, r2, #8
878031ae:	6182      	strge	r2, [r0, #24]
878031b0:	6942      	ldr	r2, [r0, #20]
878031b2:	429a      	cmp	r2, r3
878031b4:	d003      	beq.n	878031be <vTaskPriorityInherit+0x42>
878031b6:	6863      	ldr	r3, [r4, #4]
878031b8:	6adb      	ldr	r3, [r3, #44]	; 0x2c
878031ba:	62c3      	str	r3, [r0, #44]	; 0x2c
878031bc:	bdf8      	pop	{r3, r4, r5, r6, r7, pc}
878031be:	1d07      	adds	r7, r0, #4
878031c0:	4606      	mov	r6, r0
878031c2:	4638      	mov	r0, r7
878031c4:	f7fe ff08 	bl	87801fd8 <uxListRemove>
878031c8:	b968      	cbnz	r0, 878031e6 <vTaskPriorityInherit+0x6a>
878031ca:	6af2      	ldr	r2, [r6, #44]	; 0x2c
878031cc:	eb02 0382 	add.w	r3, r2, r2, lsl #2
878031d0:	eb04 0383 	add.w	r3, r4, r3, lsl #2
878031d4:	6c5b      	ldr	r3, [r3, #68]	; 0x44
878031d6:	b933      	cbnz	r3, 878031e6 <vTaskPriorityInherit+0x6a>
878031d8:	68a3      	ldr	r3, [r4, #8]
878031da:	2101      	movs	r1, #1
878031dc:	fa01 f202 	lsl.w	r2, r1, r2
878031e0:	ea23 0202 	bic.w	r2, r3, r2
878031e4:	60a2      	str	r2, [r4, #8]
878031e6:	6860      	ldr	r0, [r4, #4]
878031e8:	2301      	movs	r3, #1
878031ea:	68a2      	ldr	r2, [r4, #8]
878031ec:	4639      	mov	r1, r7
878031ee:	6ac0      	ldr	r0, [r0, #44]	; 0x2c
878031f0:	62f0      	str	r0, [r6, #44]	; 0x2c
878031f2:	4083      	lsls	r3, r0
878031f4:	eb00 0080 	add.w	r0, r0, r0, lsl #2
878031f8:	4313      	orrs	r3, r2
878031fa:	eb05 0080 	add.w	r0, r5, r0, lsl #2
878031fe:	60a3      	str	r3, [r4, #8]
87803200:	e8bd 40f8 	ldmia.w	sp!, {r3, r4, r5, r6, r7, lr}
87803204:	f7fe bebe 	b.w	87801f84 <vListInsertEnd>
87803208:	4770      	bx	lr
8780320a:	bf00      	nop
8780320c:	88000150 	stmdahi	r0, {r4, r6, r8}

87803210 <xTaskPriorityDisinherit>:
87803210:	b158      	cbz	r0, 8780322a <xTaskPriorityDisinherit+0x1a>
87803212:	b5f8      	push	{r3, r4, r5, r6, r7, lr}
87803214:	f240 150c 	movw	r5, #268	; 0x10c
87803218:	f6c8 0500 	movt	r5, #34816	; 0x8800
8780321c:	4604      	mov	r4, r0
8780321e:	686b      	ldr	r3, [r5, #4]
87803220:	4298      	cmp	r0, r3
87803222:	d004      	beq.n	8780322e <xTaskPriorityDisinherit+0x1e>
87803224:	f000 fe52 	bl	87803ecc <ulPortSetInterruptMask>
87803228:	e7fe      	b.n	87803228 <xTaskPriorityDisinherit+0x18>
8780322a:	2000      	movs	r0, #0
8780322c:	4770      	bx	lr
8780322e:	6d83      	ldr	r3, [r0, #88]	; 0x58
87803230:	b163      	cbz	r3, 8780324c <xTaskPriorityDisinherit+0x3c>
87803232:	6ac2      	ldr	r2, [r0, #44]	; 0x2c
87803234:	3b01      	subs	r3, #1
87803236:	6d41      	ldr	r1, [r0, #84]	; 0x54
87803238:	6583      	str	r3, [r0, #88]	; 0x58
8780323a:	1a52      	subs	r2, r2, r1
8780323c:	bf18      	it	ne
8780323e:	2201      	movne	r2, #1
87803240:	2b00      	cmp	r3, #0
87803242:	bf18      	it	ne
87803244:	2200      	movne	r2, #0
87803246:	b922      	cbnz	r2, 87803252 <xTaskPriorityDisinherit+0x42>
87803248:	2000      	movs	r0, #0
8780324a:	bdf8      	pop	{r3, r4, r5, r6, r7, pc}
8780324c:	f000 fe3e 	bl	87803ecc <ulPortSetInterruptMask>
87803250:	e7fe      	b.n	87803250 <xTaskPriorityDisinherit+0x40>
87803252:	1d07      	adds	r7, r0, #4
87803254:	4638      	mov	r0, r7
87803256:	f7fe febf 	bl	87801fd8 <uxListRemove>
8780325a:	b960      	cbnz	r0, 87803276 <xTaskPriorityDisinherit+0x66>
8780325c:	6ae0      	ldr	r0, [r4, #44]	; 0x2c
8780325e:	eb00 0380 	add.w	r3, r0, r0, lsl #2
87803262:	eb05 0383 	add.w	r3, r5, r3, lsl #2
87803266:	6c5b      	ldr	r3, [r3, #68]	; 0x44
87803268:	b92b      	cbnz	r3, 87803276 <xTaskPriorityDisinherit+0x66>
8780326a:	68ab      	ldr	r3, [r5, #8]
8780326c:	2201      	movs	r2, #1
8780326e:	4082      	lsls	r2, r0
87803270:	ea23 0302 	bic.w	r3, r3, r2
87803274:	60ab      	str	r3, [r5, #8]
87803276:	6d63      	ldr	r3, [r4, #84]	; 0x54
87803278:	2601      	movs	r6, #1
8780327a:	480a      	ldr	r0, [pc, #40]	; (878032a4 <xTaskPriorityDisinherit+0x94>)
8780327c:	4639      	mov	r1, r7
8780327e:	f8d5 e008 	ldr.w	lr, [r5, #8]
87803282:	62e3      	str	r3, [r4, #44]	; 0x2c
87803284:	fa06 f203 	lsl.w	r2, r6, r3
87803288:	eb03 0783 	add.w	r7, r3, r3, lsl #2
8780328c:	f1c3 0308 	rsb	r3, r3, #8
87803290:	ea42 020e 	orr.w	r2, r2, lr
87803294:	eb00 0087 	add.w	r0, r0, r7, lsl #2
87803298:	61a3      	str	r3, [r4, #24]
8780329a:	60aa      	str	r2, [r5, #8]
8780329c:	f7fe fe72 	bl	87801f84 <vListInsertEnd>
878032a0:	4630      	mov	r0, r6
878032a2:	bdf8      	pop	{r3, r4, r5, r6, r7, pc}
878032a4:	88000150 	stmdahi	r0, {r4, r6, r8}

878032a8 <uxTaskResetEventItemValue>:
878032a8:	f240 130c 	movw	r3, #268	; 0x10c
878032ac:	f6c8 0300 	movt	r3, #34816	; 0x8800
878032b0:	6859      	ldr	r1, [r3, #4]
878032b2:	685a      	ldr	r2, [r3, #4]
878032b4:	685b      	ldr	r3, [r3, #4]
878032b6:	6988      	ldr	r0, [r1, #24]
878032b8:	6adb      	ldr	r3, [r3, #44]	; 0x2c
878032ba:	f1c3 0308 	rsb	r3, r3, #8
878032be:	6193      	str	r3, [r2, #24]
878032c0:	4770      	bx	lr
878032c2:	bf00      	nop

878032c4 <pvTaskIncrementMutexHeldCount>:
878032c4:	f240 130c 	movw	r3, #268	; 0x10c
878032c8:	f6c8 0300 	movt	r3, #34816	; 0x8800
878032cc:	685a      	ldr	r2, [r3, #4]
878032ce:	b11a      	cbz	r2, 878032d8 <pvTaskIncrementMutexHeldCount+0x14>
878032d0:	6859      	ldr	r1, [r3, #4]
878032d2:	6d8a      	ldr	r2, [r1, #88]	; 0x58
878032d4:	3201      	adds	r2, #1
878032d6:	658a      	str	r2, [r1, #88]	; 0x58
878032d8:	6858      	ldr	r0, [r3, #4]
878032da:	4770      	bx	lr

878032dc <ulTaskNotifyTake>:
878032dc:	b570      	push	{r4, r5, r6, lr}
878032de:	f240 140c 	movw	r4, #268	; 0x10c
878032e2:	f6c8 0400 	movt	r4, #34816	; 0x8800
878032e6:	4606      	mov	r6, r0
878032e8:	460d      	mov	r5, r1
878032ea:	f000 fd6d 	bl	87803dc8 <vPortEnterCritical>
878032ee:	6863      	ldr	r3, [r4, #4]
878032f0:	6f1b      	ldr	r3, [r3, #112]	; 0x70
878032f2:	b923      	cbnz	r3, 878032fe <ulTaskNotifyTake+0x22>
878032f4:	6863      	ldr	r3, [r4, #4]
878032f6:	2101      	movs	r1, #1
878032f8:	f883 1074 	strb.w	r1, [r3, #116]	; 0x74
878032fc:	b9ad      	cbnz	r5, 8780332a <ulTaskNotifyTake+0x4e>
878032fe:	f000 fda5 	bl	87803e4c <vPortExitCritical>
87803302:	f000 fd61 	bl	87803dc8 <vPortEnterCritical>
87803306:	6863      	ldr	r3, [r4, #4]
87803308:	6f1d      	ldr	r5, [r3, #112]	; 0x70
8780330a:	b11d      	cbz	r5, 87803314 <ulTaskNotifyTake+0x38>
8780330c:	6863      	ldr	r3, [r4, #4]
8780330e:	b94e      	cbnz	r6, 87803324 <ulTaskNotifyTake+0x48>
87803310:	1e6a      	subs	r2, r5, #1
87803312:	671a      	str	r2, [r3, #112]	; 0x70
87803314:	6863      	ldr	r3, [r4, #4]
87803316:	2200      	movs	r2, #0
87803318:	f883 2074 	strb.w	r2, [r3, #116]	; 0x74
8780331c:	f000 fd96 	bl	87803e4c <vPortExitCritical>
87803320:	4628      	mov	r0, r5
87803322:	bd70      	pop	{r4, r5, r6, pc}
87803324:	2200      	movs	r2, #0
87803326:	671a      	str	r2, [r3, #112]	; 0x70
87803328:	e7f4      	b.n	87803314 <ulTaskNotifyTake+0x38>
8780332a:	4628      	mov	r0, r5
8780332c:	f7fe ffd0 	bl	878022d0 <prvAddCurrentTaskToDelayedList>
87803330:	df00      	svc	0
87803332:	e7e4      	b.n	878032fe <ulTaskNotifyTake+0x22>

87803334 <xTaskNotifyWait>:
87803334:	e92d 43f8 	stmdb	sp!, {r3, r4, r5, r6, r7, r8, r9, lr}
87803338:	f240 140c 	movw	r4, #268	; 0x10c
8780333c:	f6c8 0400 	movt	r4, #34816	; 0x8800
87803340:	4615      	mov	r5, r2
87803342:	4681      	mov	r9, r0
87803344:	460f      	mov	r7, r1
87803346:	4698      	mov	r8, r3
87803348:	f000 fd3e 	bl	87803dc8 <vPortEnterCritical>
8780334c:	6862      	ldr	r2, [r4, #4]
8780334e:	f892 2074 	ldrb.w	r2, [r2, #116]	; 0x74
87803352:	2a02      	cmp	r2, #2
87803354:	d00b      	beq.n	8780336e <xTaskNotifyWait+0x3a>
87803356:	6866      	ldr	r6, [r4, #4]
87803358:	2101      	movs	r1, #1
8780335a:	6f32      	ldr	r2, [r6, #112]	; 0x70
8780335c:	ea22 0209 	bic.w	r2, r2, r9
87803360:	6732      	str	r2, [r6, #112]	; 0x70
87803362:	6863      	ldr	r3, [r4, #4]
87803364:	f883 1074 	strb.w	r1, [r3, #116]	; 0x74
87803368:	f1b8 0f00 	cmp.w	r8, #0
8780336c:	d11c      	bne.n	878033a8 <xTaskNotifyWait+0x74>
8780336e:	f000 fd6d 	bl	87803e4c <vPortExitCritical>
87803372:	f000 fd29 	bl	87803dc8 <vPortEnterCritical>
87803376:	b115      	cbz	r5, 8780337e <xTaskNotifyWait+0x4a>
87803378:	6863      	ldr	r3, [r4, #4]
8780337a:	6f1b      	ldr	r3, [r3, #112]	; 0x70
8780337c:	602b      	str	r3, [r5, #0]
8780337e:	6863      	ldr	r3, [r4, #4]
87803380:	2200      	movs	r2, #0
87803382:	f893 3074 	ldrb.w	r3, [r3, #116]	; 0x74
87803386:	2b01      	cmp	r3, #1
87803388:	bf1b      	ittet	ne
8780338a:	6863      	ldrne	r3, [r4, #4]
8780338c:	2501      	movne	r5, #1
8780338e:	2500      	moveq	r5, #0
87803390:	6f19      	ldrne	r1, [r3, #112]	; 0x70
87803392:	bf1c      	itt	ne
87803394:	43b9      	bicne	r1, r7
87803396:	6719      	strne	r1, [r3, #112]	; 0x70
87803398:	6863      	ldr	r3, [r4, #4]
8780339a:	f883 2074 	strb.w	r2, [r3, #116]	; 0x74
8780339e:	f000 fd55 	bl	87803e4c <vPortExitCritical>
878033a2:	4628      	mov	r0, r5
878033a4:	e8bd 83f8 	ldmia.w	sp!, {r3, r4, r5, r6, r7, r8, r9, pc}
878033a8:	4640      	mov	r0, r8
878033aa:	f7fe ff91 	bl	878022d0 <prvAddCurrentTaskToDelayedList>
878033ae:	df00      	svc	0
878033b0:	e7dd      	b.n	8780336e <xTaskNotifyWait+0x3a>
878033b2:	bf00      	nop

878033b4 <xTaskGenericNotify>:
878033b4:	b5f8      	push	{r3, r4, r5, r6, r7, lr}
878033b6:	2800      	cmp	r0, #0
878033b8:	d04a      	beq.n	87803450 <xTaskGenericNotify+0x9c>
878033ba:	461d      	mov	r5, r3
878033bc:	460f      	mov	r7, r1
878033be:	4616      	mov	r6, r2
878033c0:	4604      	mov	r4, r0
878033c2:	f000 fd01 	bl	87803dc8 <vPortEnterCritical>
878033c6:	b10d      	cbz	r5, 878033cc <xTaskGenericNotify+0x18>
878033c8:	6f23      	ldr	r3, [r4, #112]	; 0x70
878033ca:	602b      	str	r3, [r5, #0]
878033cc:	f894 5074 	ldrb.w	r5, [r4, #116]	; 0x74
878033d0:	2202      	movs	r2, #2
878033d2:	1e73      	subs	r3, r6, #1
878033d4:	f884 2074 	strb.w	r2, [r4, #116]	; 0x74
878033d8:	b2ed      	uxtb	r5, r5
878033da:	2b03      	cmp	r3, #3
878033dc:	d804      	bhi.n	878033e8 <xTaskGenericNotify+0x34>
878033de:	e8df f003 	tbb	[pc, r3]
878033e2:	30020a2c 	andcc	r0, r2, ip, lsr #20
878033e6:	6727      	str	r7, [r4, #112]	; 0x70
878033e8:	2d01      	cmp	r5, #1
878033ea:	d00a      	beq.n	87803402 <xTaskGenericNotify+0x4e>
878033ec:	2501      	movs	r5, #1
878033ee:	f000 fd2d 	bl	87803e4c <vPortExitCritical>
878033f2:	4628      	mov	r0, r5
878033f4:	bdf8      	pop	{r3, r4, r5, r6, r7, pc}
878033f6:	6f23      	ldr	r3, [r4, #112]	; 0x70
878033f8:	2d01      	cmp	r5, #1
878033fa:	f103 0301 	add.w	r3, r3, #1
878033fe:	6723      	str	r3, [r4, #112]	; 0x70
87803400:	d1f4      	bne.n	878033ec <xTaskGenericNotify+0x38>
87803402:	1d27      	adds	r7, r4, #4
87803404:	f240 160c 	movw	r6, #268	; 0x10c
87803408:	4638      	mov	r0, r7
8780340a:	f6c8 0600 	movt	r6, #34816	; 0x8800
8780340e:	f7fe fde3 	bl	87801fd8 <uxListRemove>
87803412:	6ae3      	ldr	r3, [r4, #44]	; 0x2c
87803414:	4639      	mov	r1, r7
87803416:	68b7      	ldr	r7, [r6, #8]
87803418:	f106 0044 	add.w	r0, r6, #68	; 0x44
8780341c:	fa05 f203 	lsl.w	r2, r5, r3
87803420:	eb03 0383 	add.w	r3, r3, r3, lsl #2
87803424:	433a      	orrs	r2, r7
87803426:	eb00 0083 	add.w	r0, r0, r3, lsl #2
8780342a:	60b2      	str	r2, [r6, #8]
8780342c:	f7fe fdaa 	bl	87801f84 <vListInsertEnd>
87803430:	6aa3      	ldr	r3, [r4, #40]	; 0x28
87803432:	b183      	cbz	r3, 87803456 <xTaskGenericNotify+0xa2>
87803434:	f000 fd4a 	bl	87803ecc <ulPortSetInterruptMask>
87803438:	e7fe      	b.n	87803438 <xTaskGenericNotify+0x84>
8780343a:	6f23      	ldr	r3, [r4, #112]	; 0x70
8780343c:	431f      	orrs	r7, r3
8780343e:	6727      	str	r7, [r4, #112]	; 0x70
87803440:	e7d2      	b.n	878033e8 <xTaskGenericNotify+0x34>
87803442:	2d02      	cmp	r5, #2
87803444:	d1cf      	bne.n	878033e6 <xTaskGenericNotify+0x32>
87803446:	2500      	movs	r5, #0
87803448:	f000 fd00 	bl	87803e4c <vPortExitCritical>
8780344c:	4628      	mov	r0, r5
8780344e:	bdf8      	pop	{r3, r4, r5, r6, r7, pc}
87803450:	f000 fd3c 	bl	87803ecc <ulPortSetInterruptMask>
87803454:	e7fe      	b.n	87803454 <xTaskGenericNotify+0xa0>
87803456:	6873      	ldr	r3, [r6, #4]
87803458:	6ae2      	ldr	r2, [r4, #44]	; 0x2c
8780345a:	6adb      	ldr	r3, [r3, #44]	; 0x2c
8780345c:	429a      	cmp	r2, r3
8780345e:	d9c5      	bls.n	878033ec <xTaskGenericNotify+0x38>
87803460:	df00      	svc	0
87803462:	f000 fcf3 	bl	87803e4c <vPortExitCritical>
87803466:	4628      	mov	r0, r5
87803468:	bdf8      	pop	{r3, r4, r5, r6, r7, pc}
8780346a:	bf00      	nop

8780346c <xTaskGenericNotifyFromISR>:
8780346c:	e92d 43f8 	stmdb	sp!, {r3, r4, r5, r6, r7, r8, r9, lr}
87803470:	f8dd 8020 	ldr.w	r8, [sp, #32]
87803474:	2800      	cmp	r0, #0
87803476:	d03a      	beq.n	878034ee <xTaskGenericNotifyFromISR+0x82>
87803478:	461e      	mov	r6, r3
8780347a:	4689      	mov	r9, r1
8780347c:	4615      	mov	r5, r2
8780347e:	4604      	mov	r4, r0
87803480:	f000 fd40 	bl	87803f04 <vPortValidateInterruptPriority>
87803484:	f000 fd22 	bl	87803ecc <ulPortSetInterruptMask>
87803488:	4607      	mov	r7, r0
8780348a:	b10e      	cbz	r6, 87803490 <xTaskGenericNotifyFromISR+0x24>
8780348c:	6f23      	ldr	r3, [r4, #112]	; 0x70
8780348e:	6033      	str	r3, [r6, #0]
87803490:	f894 6074 	ldrb.w	r6, [r4, #116]	; 0x74
87803494:	2202      	movs	r2, #2
87803496:	1e6b      	subs	r3, r5, #1
87803498:	f884 2074 	strb.w	r2, [r4, #116]	; 0x74
8780349c:	b2f6      	uxtb	r6, r6
8780349e:	2b03      	cmp	r3, #3
878034a0:	d805      	bhi.n	878034ae <xTaskGenericNotifyFromISR+0x42>
878034a2:	e8df f003 	tbb	[pc, r3]
878034a6:	1b021216 	blne	87887d06 <__DATA_END+0x812ea>
878034aa:	f8c4 9070 	str.w	r9, [r4, #112]	; 0x70
878034ae:	2e01      	cmp	r6, #1
878034b0:	d104      	bne.n	878034bc <xTaskGenericNotifyFromISR+0x50>
878034b2:	6aa3      	ldr	r3, [r4, #40]	; 0x28
878034b4:	b1f3      	cbz	r3, 878034f4 <xTaskGenericNotifyFromISR+0x88>
878034b6:	f000 fd09 	bl	87803ecc <ulPortSetInterruptMask>
878034ba:	e7fe      	b.n	878034ba <xTaskGenericNotifyFromISR+0x4e>
878034bc:	4638      	mov	r0, r7
878034be:	2401      	movs	r4, #1
878034c0:	f000 fcee 	bl	87803ea0 <vPortClearInterruptMask>
878034c4:	4620      	mov	r0, r4
878034c6:	e8bd 83f8 	ldmia.w	sp!, {r3, r4, r5, r6, r7, r8, r9, pc}
878034ca:	6f23      	ldr	r3, [r4, #112]	; 0x70
878034cc:	3301      	adds	r3, #1
878034ce:	6723      	str	r3, [r4, #112]	; 0x70
878034d0:	e7ed      	b.n	878034ae <xTaskGenericNotifyFromISR+0x42>
878034d2:	6f23      	ldr	r3, [r4, #112]	; 0x70
878034d4:	ea43 0309 	orr.w	r3, r3, r9
878034d8:	6723      	str	r3, [r4, #112]	; 0x70
878034da:	e7e8      	b.n	878034ae <xTaskGenericNotifyFromISR+0x42>
878034dc:	2e02      	cmp	r6, #2
878034de:	d1e4      	bne.n	878034aa <xTaskGenericNotifyFromISR+0x3e>
878034e0:	4638      	mov	r0, r7
878034e2:	2400      	movs	r4, #0
878034e4:	f000 fcdc 	bl	87803ea0 <vPortClearInterruptMask>
878034e8:	4620      	mov	r0, r4
878034ea:	e8bd 83f8 	ldmia.w	sp!, {r3, r4, r5, r6, r7, r8, r9, pc}
878034ee:	f000 fced 	bl	87803ecc <ulPortSetInterruptMask>
878034f2:	e7fe      	b.n	878034f2 <xTaskGenericNotifyFromISR+0x86>
878034f4:	f240 150c 	movw	r5, #268	; 0x10c
878034f8:	f6c8 0500 	movt	r5, #34816	; 0x8800
878034fc:	f8d5 312c 	ldr.w	r3, [r5, #300]	; 0x12c
87803500:	bb33      	cbnz	r3, 87803550 <xTaskGenericNotifyFromISR+0xe4>
87803502:	f104 0904 	add.w	r9, r4, #4
87803506:	4648      	mov	r0, r9
87803508:	f7fe fd66 	bl	87801fd8 <uxListRemove>
8780350c:	6ae2      	ldr	r2, [r4, #44]	; 0x2c
8780350e:	f105 0044 	add.w	r0, r5, #68	; 0x44
87803512:	f8d5 e008 	ldr.w	lr, [r5, #8]
87803516:	4649      	mov	r1, r9
87803518:	fa06 f302 	lsl.w	r3, r6, r2
8780351c:	eb02 0282 	add.w	r2, r2, r2, lsl #2
87803520:	ea43 030e 	orr.w	r3, r3, lr
87803524:	eb00 0082 	add.w	r0, r0, r2, lsl #2
87803528:	60ab      	str	r3, [r5, #8]
8780352a:	f7fe fd2b 	bl	87801f84 <vListInsertEnd>
8780352e:	686b      	ldr	r3, [r5, #4]
87803530:	6ae2      	ldr	r2, [r4, #44]	; 0x2c
87803532:	6adb      	ldr	r3, [r3, #44]	; 0x2c
87803534:	429a      	cmp	r2, r3
87803536:	d9c1      	bls.n	878034bc <xTaskGenericNotifyFromISR+0x50>
87803538:	2401      	movs	r4, #1
8780353a:	f1b8 0f00 	cmp.w	r8, #0
8780353e:	d00e      	beq.n	8780355e <xTaskGenericNotifyFromISR+0xf2>
87803540:	4638      	mov	r0, r7
87803542:	f8c8 4000 	str.w	r4, [r8]
87803546:	f000 fcab 	bl	87803ea0 <vPortClearInterruptMask>
8780354a:	4620      	mov	r0, r4
8780354c:	e8bd 83f8 	ldmia.w	sp!, {r3, r4, r5, r6, r7, r8, r9, pc}
87803550:	f104 0118 	add.w	r1, r4, #24
87803554:	f105 002c 	add.w	r0, r5, #44	; 0x2c
87803558:	f7fe fd14 	bl	87801f84 <vListInsertEnd>
8780355c:	e7e7      	b.n	8780352e <xTaskGenericNotifyFromISR+0xc2>
8780355e:	4638      	mov	r0, r7
87803560:	f8c5 413c 	str.w	r4, [r5, #316]	; 0x13c
87803564:	f000 fc9c 	bl	87803ea0 <vPortClearInterruptMask>
87803568:	4620      	mov	r0, r4
8780356a:	e8bd 83f8 	ldmia.w	sp!, {r3, r4, r5, r6, r7, r8, r9, pc}
8780356e:	bf00      	nop

87803570 <vTaskNotifyGiveFromISR>:
87803570:	e92d 43f8 	stmdb	sp!, {r3, r4, r5, r6, r7, r8, r9, lr}
87803574:	2800      	cmp	r0, #0
87803576:	d040      	beq.n	878035fa <vTaskNotifyGiveFromISR+0x8a>
87803578:	4604      	mov	r4, r0
8780357a:	460f      	mov	r7, r1
8780357c:	f000 fcc2 	bl	87803f04 <vPortValidateInterruptPriority>
87803580:	f000 fca4 	bl	87803ecc <ulPortSetInterruptMask>
87803584:	f894 6074 	ldrb.w	r6, [r4, #116]	; 0x74
87803588:	2302      	movs	r3, #2
8780358a:	f884 3074 	strb.w	r3, [r4, #116]	; 0x74
8780358e:	4680      	mov	r8, r0
87803590:	6f23      	ldr	r3, [r4, #112]	; 0x70
87803592:	b2f6      	uxtb	r6, r6
87803594:	3301      	adds	r3, #1
87803596:	2e01      	cmp	r6, #1
87803598:	6723      	str	r3, [r4, #112]	; 0x70
8780359a:	d129      	bne.n	878035f0 <vTaskNotifyGiveFromISR+0x80>
8780359c:	6aa3      	ldr	r3, [r4, #40]	; 0x28
8780359e:	b113      	cbz	r3, 878035a6 <vTaskNotifyGiveFromISR+0x36>
878035a0:	f000 fc94 	bl	87803ecc <ulPortSetInterruptMask>
878035a4:	e7fe      	b.n	878035a4 <vTaskNotifyGiveFromISR+0x34>
878035a6:	f240 150c 	movw	r5, #268	; 0x10c
878035aa:	f6c8 0500 	movt	r5, #34816	; 0x8800
878035ae:	f8d5 312c 	ldr.w	r3, [r5, #300]	; 0x12c
878035b2:	bb2b      	cbnz	r3, 87803600 <vTaskNotifyGiveFromISR+0x90>
878035b4:	f104 0904 	add.w	r9, r4, #4
878035b8:	4648      	mov	r0, r9
878035ba:	f7fe fd0d 	bl	87801fd8 <uxListRemove>
878035be:	6ae2      	ldr	r2, [r4, #44]	; 0x2c
878035c0:	f105 0044 	add.w	r0, r5, #68	; 0x44
878035c4:	f8d5 e008 	ldr.w	lr, [r5, #8]
878035c8:	4649      	mov	r1, r9
878035ca:	fa06 f302 	lsl.w	r3, r6, r2
878035ce:	eb02 0282 	add.w	r2, r2, r2, lsl #2
878035d2:	ea43 030e 	orr.w	r3, r3, lr
878035d6:	eb00 0082 	add.w	r0, r0, r2, lsl #2
878035da:	60ab      	str	r3, [r5, #8]
878035dc:	f7fe fcd2 	bl	87801f84 <vListInsertEnd>
878035e0:	686b      	ldr	r3, [r5, #4]
878035e2:	6ae2      	ldr	r2, [r4, #44]	; 0x2c
878035e4:	6adb      	ldr	r3, [r3, #44]	; 0x2c
878035e6:	429a      	cmp	r2, r3
878035e8:	d902      	bls.n	878035f0 <vTaskNotifyGiveFromISR+0x80>
878035ea:	2301      	movs	r3, #1
878035ec:	b17f      	cbz	r7, 8780360e <vTaskNotifyGiveFromISR+0x9e>
878035ee:	603b      	str	r3, [r7, #0]
878035f0:	4640      	mov	r0, r8
878035f2:	e8bd 43f8 	ldmia.w	sp!, {r3, r4, r5, r6, r7, r8, r9, lr}
878035f6:	f000 bc53 	b.w	87803ea0 <vPortClearInterruptMask>
878035fa:	f000 fc67 	bl	87803ecc <ulPortSetInterruptMask>
878035fe:	e7fe      	b.n	878035fe <vTaskNotifyGiveFromISR+0x8e>
87803600:	f104 0118 	add.w	r1, r4, #24
87803604:	f105 002c 	add.w	r0, r5, #44	; 0x2c
87803608:	f7fe fcbc 	bl	87801f84 <vListInsertEnd>
8780360c:	e7e8      	b.n	878035e0 <vTaskNotifyGiveFromISR+0x70>
8780360e:	f8c5 313c 	str.w	r3, [r5, #316]	; 0x13c
87803612:	4640      	mov	r0, r8
87803614:	e8bd 43f8 	ldmia.w	sp!, {r3, r4, r5, r6, r7, r8, r9, lr}
87803618:	f000 bc42 	b.w	87803ea0 <vPortClearInterruptMask>

8780361c <xTaskNotifyStateClear>:
8780361c:	b538      	push	{r3, r4, r5, lr}
8780361e:	4604      	mov	r4, r0
87803620:	b170      	cbz	r0, 87803640 <xTaskNotifyStateClear+0x24>
87803622:	f000 fbd1 	bl	87803dc8 <vPortEnterCritical>
87803626:	f894 3074 	ldrb.w	r3, [r4, #116]	; 0x74
8780362a:	2b02      	cmp	r3, #2
8780362c:	bf05      	ittet	eq
8780362e:	2300      	moveq	r3, #0
87803630:	2501      	moveq	r5, #1
87803632:	2500      	movne	r5, #0
87803634:	f884 3074 	strbeq.w	r3, [r4, #116]	; 0x74
87803638:	f000 fc08 	bl	87803e4c <vPortExitCritical>
8780363c:	4628      	mov	r0, r5
8780363e:	bd38      	pop	{r3, r4, r5, pc}
87803640:	f240 130c 	movw	r3, #268	; 0x10c
87803644:	f6c8 0300 	movt	r3, #34816	; 0x8800
87803648:	685c      	ldr	r4, [r3, #4]
8780364a:	e7ea      	b.n	87803622 <xTaskNotifyStateClear+0x6>

8780364c <prvCheckForValidListAndQueue>:
8780364c:	b5f8      	push	{r3, r4, r5, r6, r7, lr}
8780364e:	f240 244c 	movw	r4, #588	; 0x24c
87803652:	f6c8 0400 	movt	r4, #34816	; 0x8800
87803656:	f000 fbb7 	bl	87803dc8 <vPortEnterCritical>
8780365a:	6825      	ldr	r5, [r4, #0]
8780365c:	b11d      	cbz	r5, 87803666 <prvCheckForValidListAndQueue+0x1a>
8780365e:	e8bd 40f8 	ldmia.w	sp!, {r3, r4, r5, r6, r7, lr}
87803662:	f000 bbf3 	b.w	87803e4c <vPortExitCritical>
87803666:	1d27      	adds	r7, r4, #4
87803668:	f104 0618 	add.w	r6, r4, #24
8780366c:	4638      	mov	r0, r7
8780366e:	f7fe fc79 	bl	87801f64 <vListInitialise>
87803672:	4630      	mov	r0, r6
87803674:	f7fe fc76 	bl	87801f64 <vListInitialise>
87803678:	462a      	mov	r2, r5
8780367a:	2110      	movs	r1, #16
8780367c:	200a      	movs	r0, #10
8780367e:	62e7      	str	r7, [r4, #44]	; 0x2c
87803680:	6326      	str	r6, [r4, #48]	; 0x30
87803682:	f7fe f8c3 	bl	8780180c <xQueueGenericCreate>
87803686:	6020      	str	r0, [r4, #0]
87803688:	2800      	cmp	r0, #0
8780368a:	d0e8      	beq.n	8780365e <prvCheckForValidListAndQueue+0x12>
8780368c:	f646 01f8 	movw	r1, #26872	; 0x68f8
87803690:	f2c8 7180 	movt	r1, #34688	; 0x8780
87803694:	f7fe fbfa 	bl	87801e8c <vQueueAddToRegistry>
87803698:	e7e1      	b.n	8780365e <prvCheckForValidListAndQueue+0x12>
8780369a:	bf00      	nop

8780369c <prvInsertTimerInActiveList>:
8780369c:	4291      	cmp	r1, r2
8780369e:	b510      	push	{r4, lr}
878036a0:	6100      	str	r0, [r0, #16]
878036a2:	6041      	str	r1, [r0, #4]
878036a4:	d805      	bhi.n	878036b2 <prvInsertTimerInActiveList+0x16>
878036a6:	6981      	ldr	r1, [r0, #24]
878036a8:	1ad2      	subs	r2, r2, r3
878036aa:	428a      	cmp	r2, r1
878036ac:	d314      	bcc.n	878036d8 <prvInsertTimerInActiveList+0x3c>
878036ae:	2001      	movs	r0, #1
878036b0:	bd10      	pop	{r4, pc}
878036b2:	429a      	cmp	r2, r3
878036b4:	bf34      	ite	cc
878036b6:	2401      	movcc	r4, #1
878036b8:	2400      	movcs	r4, #0
878036ba:	4299      	cmp	r1, r3
878036bc:	bf38      	it	cc
878036be:	2400      	movcc	r4, #0
878036c0:	2c00      	cmp	r4, #0
878036c2:	d1f4      	bne.n	878036ae <prvInsertTimerInActiveList+0x12>
878036c4:	f240 234c 	movw	r3, #588	; 0x24c
878036c8:	1d01      	adds	r1, r0, #4
878036ca:	f6c8 0300 	movt	r3, #34816	; 0x8800
878036ce:	6ad8      	ldr	r0, [r3, #44]	; 0x2c
878036d0:	f7fe fc68 	bl	87801fa4 <vListInsert>
878036d4:	4620      	mov	r0, r4
878036d6:	bd10      	pop	{r4, pc}
878036d8:	f240 234c 	movw	r3, #588	; 0x24c
878036dc:	1d01      	adds	r1, r0, #4
878036de:	f6c8 0300 	movt	r3, #34816	; 0x8800
878036e2:	6b18      	ldr	r0, [r3, #48]	; 0x30
878036e4:	f7fe fc5e 	bl	87801fa4 <vListInsert>
878036e8:	2000      	movs	r0, #0
878036ea:	bd10      	pop	{r4, pc}

878036ec <xTimerCreateTimerTask>:
878036ec:	b500      	push	{lr}
878036ee:	b083      	sub	sp, #12
878036f0:	f7ff ffac 	bl	8780364c <prvCheckForValidListAndQueue>
878036f4:	f240 234c 	movw	r3, #588	; 0x24c
878036f8:	f6c8 0300 	movt	r3, #34816	; 0x8800
878036fc:	681a      	ldr	r2, [r3, #0]
878036fe:	b19a      	cbz	r2, 87803728 <xTimerCreateTimerTask+0x3c>
87803700:	3334      	adds	r3, #52	; 0x34
87803702:	2207      	movs	r2, #7
87803704:	f646 1100 	movw	r1, #26880	; 0x6900
87803708:	f643 0031 	movw	r0, #14385	; 0x3831
8780370c:	9301      	str	r3, [sp, #4]
8780370e:	f2c8 7180 	movt	r1, #34688	; 0x8780
87803712:	9200      	str	r2, [sp, #0]
87803714:	f2c8 7080 	movt	r0, #34688	; 0x8780
87803718:	2300      	movs	r3, #0
8780371a:	22b4      	movs	r2, #180	; 0xb4
8780371c:	f7fe fe36 	bl	8780238c <xTaskCreate>
87803720:	b110      	cbz	r0, 87803728 <xTimerCreateTimerTask+0x3c>
87803722:	b003      	add	sp, #12
87803724:	f85d fb04 	ldr.w	pc, [sp], #4
87803728:	f000 fbd0 	bl	87803ecc <ulPortSetInterruptMask>
8780372c:	e7fe      	b.n	8780372c <xTimerCreateTimerTask+0x40>
8780372e:	bf00      	nop

87803730 <xTimerCreate>:
87803730:	e92d 42f0 	stmdb	sp!, {r4, r5, r6, r7, r9, lr}
87803734:	4681      	mov	r9, r0
87803736:	202c      	movs	r0, #44	; 0x2c
87803738:	460d      	mov	r5, r1
8780373a:	4616      	mov	r6, r2
8780373c:	461f      	mov	r7, r3
8780373e:	f000 fc67 	bl	87804010 <pvPortMalloc>
87803742:	4604      	mov	r4, r0
87803744:	b160      	cbz	r0, 87803760 <xTimerCreate+0x30>
87803746:	b175      	cbz	r5, 87803766 <xTimerCreate+0x36>
87803748:	f7ff ff80 	bl	8780364c <prvCheckForValidListAndQueue>
8780374c:	9b06      	ldr	r3, [sp, #24]
8780374e:	1d20      	adds	r0, r4, #4
87803750:	f8c4 9000 	str.w	r9, [r4]
87803754:	61a5      	str	r5, [r4, #24]
87803756:	61e6      	str	r6, [r4, #28]
87803758:	6227      	str	r7, [r4, #32]
8780375a:	6263      	str	r3, [r4, #36]	; 0x24
8780375c:	f7fe fc0e 	bl	87801f7c <vListInitialiseItem>
87803760:	4620      	mov	r0, r4
87803762:	e8bd 82f0 	ldmia.w	sp!, {r4, r5, r6, r7, r9, pc}
87803766:	f000 fbb1 	bl	87803ecc <ulPortSetInterruptMask>
8780376a:	e7fe      	b.n	8780376a <xTimerCreate+0x3a>

8780376c <xTimerGenericCommand>:
8780376c:	b530      	push	{r4, r5, lr}
8780376e:	b085      	sub	sp, #20
87803770:	b308      	cbz	r0, 878037b6 <xTimerGenericCommand+0x4a>
87803772:	f240 244c 	movw	r4, #588	; 0x24c
87803776:	4605      	mov	r5, r0
87803778:	f6c8 0400 	movt	r4, #34816	; 0x8800
8780377c:	6820      	ldr	r0, [r4, #0]
8780377e:	b188      	cbz	r0, 878037a4 <xTimerGenericCommand+0x38>
87803780:	2905      	cmp	r1, #5
87803782:	e88d 0026 	stmia.w	sp, {r1, r2, r5}
87803786:	dc0f      	bgt.n	878037a8 <xTimerGenericCommand+0x3c>
87803788:	f7ff fce8 	bl	8780315c <xTaskGetSchedulerState>
8780378c:	2802      	cmp	r0, #2
8780378e:	4669      	mov	r1, sp
87803790:	bf11      	iteee	ne
87803792:	2300      	movne	r3, #0
87803794:	6820      	ldreq	r0, [r4, #0]
87803796:	2300      	moveq	r3, #0
87803798:	9a08      	ldreq	r2, [sp, #32]
8780379a:	bf1c      	itt	ne
8780379c:	6820      	ldrne	r0, [r4, #0]
8780379e:	461a      	movne	r2, r3
878037a0:	f7fe f866 	bl	87801870 <xQueueGenericSend>
878037a4:	b005      	add	sp, #20
878037a6:	bd30      	pop	{r4, r5, pc}
878037a8:	461a      	mov	r2, r3
878037aa:	4669      	mov	r1, sp
878037ac:	2300      	movs	r3, #0
878037ae:	f7fe f92b 	bl	87801a08 <xQueueGenericSendFromISR>
878037b2:	b005      	add	sp, #20
878037b4:	bd30      	pop	{r4, r5, pc}
878037b6:	f000 fb89 	bl	87803ecc <ulPortSetInterruptMask>
878037ba:	e7fe      	b.n	878037ba <xTimerGenericCommand+0x4e>

878037bc <prvSwitchTimerLists>:
878037bc:	e92d 41f0 	stmdb	sp!, {r4, r5, r6, r7, r8, lr}
878037c0:	f240 264c 	movw	r6, #588	; 0x24c
878037c4:	b082      	sub	sp, #8
878037c6:	f04f 0800 	mov.w	r8, #0
878037ca:	f6c8 0600 	movt	r6, #34816	; 0x8800
878037ce:	e00c      	b.n	878037ea <prvSwitchTimerLists+0x2e>
878037d0:	68db      	ldr	r3, [r3, #12]
878037d2:	68dc      	ldr	r4, [r3, #12]
878037d4:	681f      	ldr	r7, [r3, #0]
878037d6:	1d25      	adds	r5, r4, #4
878037d8:	4628      	mov	r0, r5
878037da:	f7fe fbfd 	bl	87801fd8 <uxListRemove>
878037de:	6a63      	ldr	r3, [r4, #36]	; 0x24
878037e0:	4620      	mov	r0, r4
878037e2:	4798      	blx	r3
878037e4:	69e3      	ldr	r3, [r4, #28]
878037e6:	2b01      	cmp	r3, #1
878037e8:	d009      	beq.n	878037fe <prvSwitchTimerLists+0x42>
878037ea:	6af3      	ldr	r3, [r6, #44]	; 0x2c
878037ec:	681a      	ldr	r2, [r3, #0]
878037ee:	2a00      	cmp	r2, #0
878037f0:	d1ee      	bne.n	878037d0 <prvSwitchTimerLists+0x14>
878037f2:	6b32      	ldr	r2, [r6, #48]	; 0x30
878037f4:	6333      	str	r3, [r6, #48]	; 0x30
878037f6:	62f2      	str	r2, [r6, #44]	; 0x2c
878037f8:	b002      	add	sp, #8
878037fa:	e8bd 81f0 	ldmia.w	sp!, {r4, r5, r6, r7, r8, pc}
878037fe:	4629      	mov	r1, r5
87803800:	69a5      	ldr	r5, [r4, #24]
87803802:	2300      	movs	r3, #0
87803804:	463a      	mov	r2, r7
87803806:	4620      	mov	r0, r4
87803808:	197d      	adds	r5, r7, r5
8780380a:	42af      	cmp	r7, r5
8780380c:	d205      	bcs.n	8780381a <prvSwitchTimerLists+0x5e>
8780380e:	6065      	str	r5, [r4, #4]
87803810:	6124      	str	r4, [r4, #16]
87803812:	6af0      	ldr	r0, [r6, #44]	; 0x2c
87803814:	f7fe fbc6 	bl	87801fa4 <vListInsert>
87803818:	e7e7      	b.n	878037ea <prvSwitchTimerLists+0x2e>
8780381a:	f8cd 8000 	str.w	r8, [sp]
8780381e:	4619      	mov	r1, r3
87803820:	f7ff ffa4 	bl	8780376c <xTimerGenericCommand>
87803824:	2800      	cmp	r0, #0
87803826:	d1e0      	bne.n	878037ea <prvSwitchTimerLists+0x2e>
87803828:	f000 fb50 	bl	87803ecc <ulPortSetInterruptMask>
8780382c:	e7fe      	b.n	8780382c <prvSwitchTimerLists+0x70>
8780382e:	bf00      	nop

87803830 <prvTimerTask>:
87803830:	e92d 41f0 	stmdb	sp!, {r4, r5, r6, r7, r8, lr}
87803834:	f240 254c 	movw	r5, #588	; 0x24c
87803838:	b086      	sub	sp, #24
8780383a:	f6c8 0500 	movt	r5, #34816	; 0x8800
8780383e:	2600      	movs	r6, #0
87803840:	6aeb      	ldr	r3, [r5, #44]	; 0x2c
87803842:	681c      	ldr	r4, [r3, #0]
87803844:	2c00      	cmp	r4, #0
87803846:	d07f      	beq.n	87803948 <prvTimerTask+0x118>
87803848:	68db      	ldr	r3, [r3, #12]
8780384a:	681c      	ldr	r4, [r3, #0]
8780384c:	f7ff f848 	bl	878028e0 <vTaskSuspendAll>
87803850:	f7ff f850 	bl	878028f4 <xTaskGetTickCount>
87803854:	6bab      	ldr	r3, [r5, #56]	; 0x38
87803856:	4607      	mov	r7, r0
87803858:	4298      	cmp	r0, r3
8780385a:	f0c0 8084 	bcc.w	87803966 <prvTimerTask+0x136>
8780385e:	4284      	cmp	r4, r0
87803860:	63a8      	str	r0, [r5, #56]	; 0x38
87803862:	bf88      	it	hi
87803864:	2200      	movhi	r2, #0
87803866:	f240 8087 	bls.w	87803978 <prvTimerTask+0x148>
8780386a:	1be1      	subs	r1, r4, r7
8780386c:	6828      	ldr	r0, [r5, #0]
8780386e:	f7fe fb55 	bl	87801f1c <vQueueWaitForMessageRestricted>
87803872:	f7ff f8d7 	bl	87802a24 <xTaskResumeAll>
87803876:	b900      	cbnz	r0, 8780387a <prvTimerTask+0x4a>
87803878:	df00      	svc	0
8780387a:	2300      	movs	r3, #0
8780387c:	a902      	add	r1, sp, #8
8780387e:	461a      	mov	r2, r3
87803880:	6828      	ldr	r0, [r5, #0]
87803882:	f7fe f961 	bl	87801b48 <xQueueGenericReceive>
87803886:	2800      	cmp	r0, #0
87803888:	d0da      	beq.n	87803840 <prvTimerTask+0x10>
8780388a:	9b02      	ldr	r3, [sp, #8]
8780388c:	2b00      	cmp	r3, #0
8780388e:	db53      	blt.n	87803938 <prvTimerTask+0x108>
87803890:	9c04      	ldr	r4, [sp, #16]
87803892:	6963      	ldr	r3, [r4, #20]
87803894:	b113      	cbz	r3, 8780389c <prvTimerTask+0x6c>
87803896:	1d20      	adds	r0, r4, #4
87803898:	f7fe fb9e 	bl	87801fd8 <uxListRemove>
8780389c:	f7ff f82a 	bl	878028f4 <xTaskGetTickCount>
878038a0:	6bab      	ldr	r3, [r5, #56]	; 0x38
878038a2:	4607      	mov	r7, r0
878038a4:	4298      	cmp	r0, r3
878038a6:	d364      	bcc.n	87803972 <prvTimerTask+0x142>
878038a8:	9b02      	ldr	r3, [sp, #8]
878038aa:	63af      	str	r7, [r5, #56]	; 0x38
878038ac:	2b09      	cmp	r3, #9
878038ae:	d8e4      	bhi.n	8780387a <prvTimerTask+0x4a>
878038b0:	a201      	add	r2, pc, #4	; (adr r2, 878038b8 <prvTimerTask+0x88>)
878038b2:	f852 f023 	ldr.w	pc, [r2, r3, lsl #2]
878038b6:	bf00      	nop
878038b8:	878038f7 			; <UNDEFINED> instruction: 0x878038f7
878038bc:	878038f7 			; <UNDEFINED> instruction: 0x878038f7
878038c0:	878038f7 			; <UNDEFINED> instruction: 0x878038f7
878038c4:	8780387b 			; <UNDEFINED> instruction: 0x8780387b
878038c8:	878038e1 	strhi	r3, [r0, r1, ror #17]
878038cc:	87803931 			; <UNDEFINED> instruction: 0x87803931
878038d0:	878038f7 			; <UNDEFINED> instruction: 0x878038f7
878038d4:	878038f7 			; <UNDEFINED> instruction: 0x878038f7
878038d8:	8780387b 			; <UNDEFINED> instruction: 0x8780387b
878038dc:	878038e1 	strhi	r3, [r0, r1, ror #17]
878038e0:	9903      	ldr	r1, [sp, #12]
878038e2:	61a1      	str	r1, [r4, #24]
878038e4:	2900      	cmp	r1, #0
878038e6:	d070      	beq.n	878039ca <prvTimerTask+0x19a>
878038e8:	4439      	add	r1, r7
878038ea:	4620      	mov	r0, r4
878038ec:	463b      	mov	r3, r7
878038ee:	463a      	mov	r2, r7
878038f0:	f7ff fed4 	bl	8780369c <prvInsertTimerInActiveList>
878038f4:	e7c1      	b.n	8780387a <prvTimerTask+0x4a>
878038f6:	9b03      	ldr	r3, [sp, #12]
878038f8:	463a      	mov	r2, r7
878038fa:	69a1      	ldr	r1, [r4, #24]
878038fc:	4620      	mov	r0, r4
878038fe:	4419      	add	r1, r3
87803900:	f7ff fecc 	bl	8780369c <prvInsertTimerInActiveList>
87803904:	2800      	cmp	r0, #0
87803906:	d0b8      	beq.n	8780387a <prvTimerTask+0x4a>
87803908:	6a63      	ldr	r3, [r4, #36]	; 0x24
8780390a:	4620      	mov	r0, r4
8780390c:	4798      	blx	r3
8780390e:	69e3      	ldr	r3, [r4, #28]
87803910:	2b01      	cmp	r3, #1
87803912:	d1b2      	bne.n	8780387a <prvTimerTask+0x4a>
87803914:	69a2      	ldr	r2, [r4, #24]
87803916:	2300      	movs	r3, #0
87803918:	9f03      	ldr	r7, [sp, #12]
8780391a:	4620      	mov	r0, r4
8780391c:	9600      	str	r6, [sp, #0]
8780391e:	4619      	mov	r1, r3
87803920:	443a      	add	r2, r7
87803922:	f7ff ff23 	bl	8780376c <xTimerGenericCommand>
87803926:	2800      	cmp	r0, #0
87803928:	d1a7      	bne.n	8780387a <prvTimerTask+0x4a>
8780392a:	f000 facf 	bl	87803ecc <ulPortSetInterruptMask>
8780392e:	e7fe      	b.n	8780392e <prvTimerTask+0xfe>
87803930:	4620      	mov	r0, r4
87803932:	f000 fbf9 	bl	87804128 <vPortFree>
87803936:	e7a0      	b.n	8780387a <prvTimerTask+0x4a>
87803938:	9b03      	ldr	r3, [sp, #12]
8780393a:	9905      	ldr	r1, [sp, #20]
8780393c:	9804      	ldr	r0, [sp, #16]
8780393e:	4798      	blx	r3
87803940:	9b02      	ldr	r3, [sp, #8]
87803942:	2b00      	cmp	r3, #0
87803944:	db99      	blt.n	8780387a <prvTimerTask+0x4a>
87803946:	e7a3      	b.n	87803890 <prvTimerTask+0x60>
87803948:	f7fe ffca 	bl	878028e0 <vTaskSuspendAll>
8780394c:	f7fe ffd2 	bl	878028f4 <xTaskGetTickCount>
87803950:	6bab      	ldr	r3, [r5, #56]	; 0x38
87803952:	4607      	mov	r7, r0
87803954:	4283      	cmp	r3, r0
87803956:	d806      	bhi.n	87803966 <prvTimerTask+0x136>
87803958:	6b2b      	ldr	r3, [r5, #48]	; 0x30
8780395a:	63af      	str	r7, [r5, #56]	; 0x38
8780395c:	681a      	ldr	r2, [r3, #0]
8780395e:	fab2 f282 	clz	r2, r2
87803962:	0952      	lsrs	r2, r2, #5
87803964:	e781      	b.n	8780386a <prvTimerTask+0x3a>
87803966:	f7ff ff29 	bl	878037bc <prvSwitchTimerLists>
8780396a:	63af      	str	r7, [r5, #56]	; 0x38
8780396c:	f7ff f85a 	bl	87802a24 <xTaskResumeAll>
87803970:	e783      	b.n	8780387a <prvTimerTask+0x4a>
87803972:	f7ff ff23 	bl	878037bc <prvSwitchTimerLists>
87803976:	e797      	b.n	878038a8 <prvTimerTask+0x78>
87803978:	f7ff f854 	bl	87802a24 <xTaskResumeAll>
8780397c:	6aeb      	ldr	r3, [r5, #44]	; 0x2c
8780397e:	68db      	ldr	r3, [r3, #12]
87803980:	f8d3 800c 	ldr.w	r8, [r3, #12]
87803984:	f108 0004 	add.w	r0, r8, #4
87803988:	f7fe fb26 	bl	87801fd8 <uxListRemove>
8780398c:	f8d8 301c 	ldr.w	r3, [r8, #28]
87803990:	2b01      	cmp	r3, #1
87803992:	d004      	beq.n	8780399e <prvTimerTask+0x16e>
87803994:	f8d8 3024 	ldr.w	r3, [r8, #36]	; 0x24
87803998:	4640      	mov	r0, r8
8780399a:	4798      	blx	r3
8780399c:	e76d      	b.n	8780387a <prvTimerTask+0x4a>
8780399e:	f8d8 1018 	ldr.w	r1, [r8, #24]
878039a2:	463a      	mov	r2, r7
878039a4:	4623      	mov	r3, r4
878039a6:	4640      	mov	r0, r8
878039a8:	4421      	add	r1, r4
878039aa:	f7ff fe77 	bl	8780369c <prvInsertTimerInActiveList>
878039ae:	2800      	cmp	r0, #0
878039b0:	d0f0      	beq.n	87803994 <prvTimerTask+0x164>
878039b2:	2300      	movs	r3, #0
878039b4:	9600      	str	r6, [sp, #0]
878039b6:	4622      	mov	r2, r4
878039b8:	4619      	mov	r1, r3
878039ba:	4640      	mov	r0, r8
878039bc:	f7ff fed6 	bl	8780376c <xTimerGenericCommand>
878039c0:	2800      	cmp	r0, #0
878039c2:	d1e7      	bne.n	87803994 <prvTimerTask+0x164>
878039c4:	f000 fa82 	bl	87803ecc <ulPortSetInterruptMask>
878039c8:	e7fe      	b.n	878039c8 <prvTimerTask+0x198>
878039ca:	f000 fa7f 	bl	87803ecc <ulPortSetInterruptMask>
878039ce:	e7fe      	b.n	878039ce <prvTimerTask+0x19e>

878039d0 <xTimerGetTimerDaemonTaskHandle>:
878039d0:	b508      	push	{r3, lr}
878039d2:	f240 234c 	movw	r3, #588	; 0x24c
878039d6:	f6c8 0300 	movt	r3, #34816	; 0x8800
878039da:	6b58      	ldr	r0, [r3, #52]	; 0x34
878039dc:	b100      	cbz	r0, 878039e0 <xTimerGetTimerDaemonTaskHandle+0x10>
878039de:	bd08      	pop	{r3, pc}
878039e0:	f000 fa74 	bl	87803ecc <ulPortSetInterruptMask>
878039e4:	e7fe      	b.n	878039e4 <xTimerGetTimerDaemonTaskHandle+0x14>
878039e6:	bf00      	nop

878039e8 <xTimerGetPeriod>:
878039e8:	b108      	cbz	r0, 878039ee <xTimerGetPeriod+0x6>
878039ea:	6980      	ldr	r0, [r0, #24]
878039ec:	4770      	bx	lr
878039ee:	b508      	push	{r3, lr}
878039f0:	f000 fa6c 	bl	87803ecc <ulPortSetInterruptMask>
878039f4:	e7fe      	b.n	878039f4 <xTimerGetPeriod+0xc>
878039f6:	bf00      	nop

878039f8 <xTimerGetExpiryTime>:
878039f8:	b108      	cbz	r0, 878039fe <xTimerGetExpiryTime+0x6>
878039fa:	6840      	ldr	r0, [r0, #4]
878039fc:	4770      	bx	lr
878039fe:	b508      	push	{r3, lr}
87803a00:	f000 fa64 	bl	87803ecc <ulPortSetInterruptMask>
87803a04:	e7fe      	b.n	87803a04 <xTimerGetExpiryTime+0xc>
87803a06:	bf00      	nop

87803a08 <pcTimerGetName>:
87803a08:	b108      	cbz	r0, 87803a0e <pcTimerGetName+0x6>
87803a0a:	6800      	ldr	r0, [r0, #0]
87803a0c:	4770      	bx	lr
87803a0e:	b508      	push	{r3, lr}
87803a10:	f000 fa5c 	bl	87803ecc <ulPortSetInterruptMask>
87803a14:	e7fe      	b.n	87803a14 <pcTimerGetName+0xc>
87803a16:	bf00      	nop

87803a18 <xTimerIsTimerActive>:
87803a18:	b510      	push	{r4, lr}
87803a1a:	b150      	cbz	r0, 87803a32 <xTimerIsTimerActive+0x1a>
87803a1c:	4604      	mov	r4, r0
87803a1e:	f000 f9d3 	bl	87803dc8 <vPortEnterCritical>
87803a22:	6964      	ldr	r4, [r4, #20]
87803a24:	3400      	adds	r4, #0
87803a26:	bf18      	it	ne
87803a28:	2401      	movne	r4, #1
87803a2a:	f000 fa0f 	bl	87803e4c <vPortExitCritical>
87803a2e:	4620      	mov	r0, r4
87803a30:	bd10      	pop	{r4, pc}
87803a32:	f000 fa4b 	bl	87803ecc <ulPortSetInterruptMask>
87803a36:	e7fe      	b.n	87803a36 <xTimerIsTimerActive+0x1e>

87803a38 <pvTimerGetTimerID>:
87803a38:	b510      	push	{r4, lr}
87803a3a:	b138      	cbz	r0, 87803a4c <pvTimerGetTimerID+0x14>
87803a3c:	4604      	mov	r4, r0
87803a3e:	f000 f9c3 	bl	87803dc8 <vPortEnterCritical>
87803a42:	6a24      	ldr	r4, [r4, #32]
87803a44:	f000 fa02 	bl	87803e4c <vPortExitCritical>
87803a48:	4620      	mov	r0, r4
87803a4a:	bd10      	pop	{r4, pc}
87803a4c:	f000 fa3e 	bl	87803ecc <ulPortSetInterruptMask>
87803a50:	e7fe      	b.n	87803a50 <pvTimerGetTimerID+0x18>
87803a52:	bf00      	nop

87803a54 <vTimerSetTimerID>:
87803a54:	b538      	push	{r3, r4, r5, lr}
87803a56:	b140      	cbz	r0, 87803a6a <vTimerSetTimerID+0x16>
87803a58:	460d      	mov	r5, r1
87803a5a:	4604      	mov	r4, r0
87803a5c:	f000 f9b4 	bl	87803dc8 <vPortEnterCritical>
87803a60:	6225      	str	r5, [r4, #32]
87803a62:	e8bd 4038 	ldmia.w	sp!, {r3, r4, r5, lr}
87803a66:	f000 b9f1 	b.w	87803e4c <vPortExitCritical>
87803a6a:	f000 fa2f 	bl	87803ecc <ulPortSetInterruptMask>
87803a6e:	e7fe      	b.n	87803a6e <vTimerSetTimerID+0x1a>

87803a70 <xTimerPendFunctionCallFromISR>:
87803a70:	b570      	push	{r4, r5, r6, lr}
87803a72:	f240 244c 	movw	r4, #588	; 0x24c
87803a76:	b084      	sub	sp, #16
87803a78:	461e      	mov	r6, r3
87803a7a:	f6c8 0400 	movt	r4, #34816	; 0x8800
87803a7e:	f06f 0501 	mvn.w	r5, #1
87803a82:	9001      	str	r0, [sp, #4]
87803a84:	2300      	movs	r3, #0
87803a86:	9102      	str	r1, [sp, #8]
87803a88:	4669      	mov	r1, sp
87803a8a:	9203      	str	r2, [sp, #12]
87803a8c:	4632      	mov	r2, r6
87803a8e:	6820      	ldr	r0, [r4, #0]
87803a90:	9500      	str	r5, [sp, #0]
87803a92:	f7fd ffb9 	bl	87801a08 <xQueueGenericSendFromISR>
87803a96:	b004      	add	sp, #16
87803a98:	bd70      	pop	{r4, r5, r6, pc}
87803a9a:	bf00      	nop

87803a9c <xTimerPendFunctionCall>:
87803a9c:	b5f0      	push	{r4, r5, r6, r7, lr}
87803a9e:	f240 244c 	movw	r4, #588	; 0x24c
87803aa2:	f6c8 0400 	movt	r4, #34816	; 0x8800
87803aa6:	4607      	mov	r7, r0
87803aa8:	b085      	sub	sp, #20
87803aaa:	6820      	ldr	r0, [r4, #0]
87803aac:	b170      	cbz	r0, 87803acc <xTimerPendFunctionCall+0x30>
87803aae:	460e      	mov	r6, r1
87803ab0:	4615      	mov	r5, r2
87803ab2:	f04f 34ff 	mov.w	r4, #4294967295	; 0xffffffff
87803ab6:	461a      	mov	r2, r3
87803ab8:	4669      	mov	r1, sp
87803aba:	2300      	movs	r3, #0
87803abc:	9701      	str	r7, [sp, #4]
87803abe:	9602      	str	r6, [sp, #8]
87803ac0:	9503      	str	r5, [sp, #12]
87803ac2:	9400      	str	r4, [sp, #0]
87803ac4:	f7fd fed4 	bl	87801870 <xQueueGenericSend>
87803ac8:	b005      	add	sp, #20
87803aca:	bdf0      	pop	{r4, r5, r6, r7, pc}
87803acc:	f000 f9fe 	bl	87803ecc <ulPortSetInterruptMask>
87803ad0:	e7fe      	b.n	87803ad0 <xTimerPendFunctionCall+0x34>
87803ad2:	bf00      	nop

87803ad4 <prvTaskExitError>:
87803ad4:	f240 2388 	movw	r3, #648	; 0x288
87803ad8:	f6c8 0300 	movt	r3, #34816	; 0x8800
87803adc:	681b      	ldr	r3, [r3, #0]
87803ade:	3301      	adds	r3, #1
87803ae0:	d017      	beq.n	87803b12 <prvTaskExitError+0x3e>
87803ae2:	b672      	cpsid	i
87803ae4:	f3bf 8f4f 	dsb	sy
87803ae8:	f3bf 8f6f 	isb	sy
87803aec:	f242 0304 	movw	r3, #8196	; 0x2004
87803af0:	f2c0 03a0 	movt	r3, #160	; 0xa0
87803af4:	681a      	ldr	r2, [r3, #0]
87803af6:	2aa0      	cmp	r2, #160	; 0xa0
87803af8:	d005      	beq.n	87803b06 <prvTaskExitError+0x32>
87803afa:	22a0      	movs	r2, #160	; 0xa0
87803afc:	601a      	str	r2, [r3, #0]
87803afe:	f3bf 8f4f 	dsb	sy
87803b02:	f3bf 8f6f 	isb	sy
87803b06:	b662      	cpsie	i
87803b08:	f3bf 8f4f 	dsb	sy
87803b0c:	f3bf 8f6f 	isb	sy
87803b10:	e7fe      	b.n	87803b10 <prvTaskExitError+0x3c>
87803b12:	b672      	cpsid	i
87803b14:	f3bf 8f4f 	dsb	sy
87803b18:	f3bf 8f6f 	isb	sy
87803b1c:	f242 0304 	movw	r3, #8196	; 0x2004
87803b20:	f2c0 03a0 	movt	r3, #160	; 0xa0
87803b24:	681a      	ldr	r2, [r3, #0]
87803b26:	2aa0      	cmp	r2, #160	; 0xa0
87803b28:	d005      	beq.n	87803b36 <prvTaskExitError+0x62>
87803b2a:	22a0      	movs	r2, #160	; 0xa0
87803b2c:	601a      	str	r2, [r3, #0]
87803b2e:	f3bf 8f4f 	dsb	sy
87803b32:	f3bf 8f6f 	isb	sy
87803b36:	b662      	cpsie	i
87803b38:	f3bf 8f4f 	dsb	sy
87803b3c:	f3bf 8f6f 	isb	sy
87803b40:	e7fe      	b.n	87803b40 <prvTaskExitError+0x6c>
87803b42:	bf00      	nop

87803b44 <FreeRTOS_Tick_Handler>:
87803b44:	b508      	push	{r3, lr}
87803b46:	b672      	cpsid	i
87803b48:	f3bf 8f4f 	dsb	sy
87803b4c:	f3bf 8f6f 	isb	sy
87803b50:	f242 0304 	movw	r3, #8196	; 0x2004
87803b54:	22a0      	movs	r2, #160	; 0xa0
87803b56:	f2c0 03a0 	movt	r3, #160	; 0xa0
87803b5a:	601a      	str	r2, [r3, #0]
87803b5c:	f3bf 8f4f 	dsb	sy
87803b60:	f3bf 8f6f 	isb	sy
87803b64:	b662      	cpsie	i
87803b66:	f3bf 8f4f 	dsb	sy
87803b6a:	f3bf 8f6f 	isb	sy
87803b6e:	f7fe fee7 	bl	87802940 <xTaskIncrementTick>
87803b72:	b128      	cbz	r0, 87803b80 <FreeRTOS_Tick_Handler+0x3c>
87803b74:	f240 2388 	movw	r3, #648	; 0x288
87803b78:	2201      	movs	r2, #1
87803b7a:	f6c8 0300 	movt	r3, #34816	; 0x8800
87803b7e:	605a      	str	r2, [r3, #4]
87803b80:	b672      	cpsid	i
87803b82:	f3bf 8f4f 	dsb	sy
87803b86:	f3bf 8f6f 	isb	sy
87803b8a:	f242 0304 	movw	r3, #8196	; 0x2004
87803b8e:	22ff      	movs	r2, #255	; 0xff
87803b90:	f2c0 03a0 	movt	r3, #160	; 0xa0
87803b94:	601a      	str	r2, [r3, #0]
87803b96:	f3bf 8f4f 	dsb	sy
87803b9a:	f3bf 8f6f 	isb	sy
87803b9e:	b662      	cpsie	i
87803ba0:	f3bf 8f4f 	dsb	sy
87803ba4:	f3bf 8f6f 	isb	sy
87803ba8:	e8bd 4008 	ldmia.w	sp!, {r3, lr}
87803bac:	f002 ba68 	b.w	87806080 <SystemClearSystickFlag>

87803bb0 <pxPortInitialiseStack>:
87803bb0:	4603      	mov	r3, r0
87803bb2:	f011 0f01 	tst.w	r1, #1
87803bb6:	f643 20d5 	movw	r0, #15061	; 0x3ad5
87803bba:	b5f0      	push	{r4, r5, r6, r7, lr}
87803bbc:	f2c8 7080 	movt	r0, #34688	; 0x8780
87803bc0:	bf0c      	ite	eq
87803bc2:	f04f 0e1f 	moveq.w	lr, #31
87803bc6:	f04f 0e3f 	movne.w	lr, #63	; 0x3f
87803bca:	f04f 3712 	mov.w	r7, #303174162	; 0x12121212
87803bce:	f843 1c10 	str.w	r1, [r3, #-16]
87803bd2:	f04f 3611 	mov.w	r6, #286331153	; 0x11111111
87803bd6:	f843 2c48 	str.w	r2, [r3, #-72]
87803bda:	f04f 3510 	mov.w	r5, #269488144	; 0x10101010
87803bde:	f04f 3409 	mov.w	r4, #151587081	; 0x9090909
87803be2:	f04f 3108 	mov.w	r1, #134744072	; 0x8080808
87803be6:	f04f 3206 	mov.w	r2, #101058054	; 0x6060606
87803bea:	f843 ec0c 	str.w	lr, [r3, #-12]
87803bee:	f843 0c14 	str.w	r0, [r3, #-20]
87803bf2:	f04f 3e07 	mov.w	lr, #117901063	; 0x7070707
87803bf6:	f843 7c18 	str.w	r7, [r3, #-24]
87803bfa:	4618      	mov	r0, r3
87803bfc:	f843 6c1c 	str.w	r6, [r3, #-28]
87803c00:	f04f 3705 	mov.w	r7, #84215045	; 0x5050505
87803c04:	f843 5c20 	str.w	r5, [r3, #-32]
87803c08:	f04f 3604 	mov.w	r6, #67372036	; 0x4040404
87803c0c:	f843 4c24 	str.w	r4, [r3, #-36]
87803c10:	f04f 3503 	mov.w	r5, #50529027	; 0x3030303
87803c14:	f843 1c28 	str.w	r1, [r3, #-40]
87803c18:	f04f 3402 	mov.w	r4, #33686018	; 0x2020202
87803c1c:	f843 2c30 	str.w	r2, [r3, #-48]
87803c20:	f04f 3101 	mov.w	r1, #16843009	; 0x1010101
87803c24:	2200      	movs	r2, #0
87803c26:	f843 ec2c 	str.w	lr, [r3, #-44]
87803c2a:	f843 7c34 	str.w	r7, [r3, #-52]
87803c2e:	f843 6c38 	str.w	r6, [r3, #-56]
87803c32:	f843 5c3c 	str.w	r5, [r3, #-60]
87803c36:	f843 4c40 	str.w	r4, [r3, #-64]
87803c3a:	f843 1c44 	str.w	r1, [r3, #-68]
87803c3e:	601a      	str	r2, [r3, #0]
87803c40:	f843 2c04 	str.w	r2, [r3, #-4]
87803c44:	f843 2c08 	str.w	r2, [r3, #-8]
87803c48:	f843 2c4c 	str.w	r2, [r3, #-76]
87803c4c:	f840 2d50 	str.w	r2, [r0, #-80]!
87803c50:	bdf0      	pop	{r4, r5, r6, r7, pc}
87803c52:	bf00      	nop

87803c54 <xPortStartScheduler>:
87803c54:	f44f 53a0 	mov.w	r3, #5120	; 0x1400
87803c58:	b500      	push	{lr}
87803c5a:	f2c0 03a0 	movt	r3, #160	; 0xa0
87803c5e:	b083      	sub	sp, #12
87803c60:	21ff      	movs	r1, #255	; 0xff
87803c62:	781a      	ldrb	r2, [r3, #0]
87803c64:	b2d2      	uxtb	r2, r2
87803c66:	9201      	str	r2, [sp, #4]
87803c68:	7019      	strb	r1, [r3, #0]
87803c6a:	781b      	ldrb	r3, [r3, #0]
87803c6c:	b2db      	uxtb	r3, r3
87803c6e:	f88d 3003 	strb.w	r3, [sp, #3]
87803c72:	f89d 3003 	ldrb.w	r3, [sp, #3]
87803c76:	07da      	lsls	r2, r3, #31
87803c78:	d408      	bmi.n	87803c8c <xPortStartScheduler+0x38>
87803c7a:	f89d 3003 	ldrb.w	r3, [sp, #3]
87803c7e:	085b      	lsrs	r3, r3, #1
87803c80:	f88d 3003 	strb.w	r3, [sp, #3]
87803c84:	f89d 3003 	ldrb.w	r3, [sp, #3]
87803c88:	07db      	lsls	r3, r3, #31
87803c8a:	d5f6      	bpl.n	87803c7a <xPortStartScheduler+0x26>
87803c8c:	f89d 3003 	ldrb.w	r3, [sp, #3]
87803c90:	2b1f      	cmp	r3, #31
87803c92:	d017      	beq.n	87803cc4 <xPortStartScheduler+0x70>
87803c94:	b672      	cpsid	i
87803c96:	f3bf 8f4f 	dsb	sy
87803c9a:	f3bf 8f6f 	isb	sy
87803c9e:	f242 0304 	movw	r3, #8196	; 0x2004
87803ca2:	f2c0 03a0 	movt	r3, #160	; 0xa0
87803ca6:	681a      	ldr	r2, [r3, #0]
87803ca8:	2aa0      	cmp	r2, #160	; 0xa0
87803caa:	d005      	beq.n	87803cb8 <xPortStartScheduler+0x64>
87803cac:	22a0      	movs	r2, #160	; 0xa0
87803cae:	601a      	str	r2, [r3, #0]
87803cb0:	f3bf 8f4f 	dsb	sy
87803cb4:	f3bf 8f6f 	isb	sy
87803cb8:	b662      	cpsie	i
87803cba:	f3bf 8f4f 	dsb	sy
87803cbe:	f3bf 8f6f 	isb	sy
87803cc2:	e7fe      	b.n	87803cc2 <xPortStartScheduler+0x6e>
87803cc4:	9b01      	ldr	r3, [sp, #4]
87803cc6:	f44f 52a0 	mov.w	r2, #5120	; 0x1400
87803cca:	f2c0 02a0 	movt	r2, #160	; 0xa0
87803cce:	b2db      	uxtb	r3, r3
87803cd0:	7013      	strb	r3, [r2, #0]
87803cd2:	f3ef 8300 	mrs	r3, CPSR
87803cd6:	f003 031f 	and.w	r3, r3, #31
87803cda:	2b10      	cmp	r3, #16
87803cdc:	d039      	beq.n	87803d52 <xPortStartScheduler+0xfe>
87803cde:	f242 0308 	movw	r3, #8200	; 0x2008
87803ce2:	f2c0 03a0 	movt	r3, #160	; 0xa0
87803ce6:	681a      	ldr	r2, [r3, #0]
87803ce8:	f002 0203 	and.w	r2, r2, #3
87803cec:	2a03      	cmp	r2, #3
87803cee:	d117      	bne.n	87803d20 <xPortStartScheduler+0xcc>
87803cf0:	b672      	cpsid	i
87803cf2:	f3bf 8f4f 	dsb	sy
87803cf6:	f3bf 8f6f 	isb	sy
87803cfa:	f242 0304 	movw	r3, #8196	; 0x2004
87803cfe:	f2c0 03a0 	movt	r3, #160	; 0xa0
87803d02:	681a      	ldr	r2, [r3, #0]
87803d04:	2aa0      	cmp	r2, #160	; 0xa0
87803d06:	d005      	beq.n	87803d14 <xPortStartScheduler+0xc0>
87803d08:	22a0      	movs	r2, #160	; 0xa0
87803d0a:	601a      	str	r2, [r3, #0]
87803d0c:	f3bf 8f4f 	dsb	sy
87803d10:	f3bf 8f6f 	isb	sy
87803d14:	b662      	cpsie	i
87803d16:	f3bf 8f4f 	dsb	sy
87803d1a:	f3bf 8f6f 	isb	sy
87803d1e:	e7fe      	b.n	87803d1e <xPortStartScheduler+0xca>
87803d20:	681b      	ldr	r3, [r3, #0]
87803d22:	f003 0303 	and.w	r3, r3, #3
87803d26:	2b03      	cmp	r3, #3
87803d28:	d00f      	beq.n	87803d4a <xPortStartScheduler+0xf6>
87803d2a:	b672      	cpsid	i
87803d2c:	f3bf 8f4f 	dsb	sy
87803d30:	f3bf 8f6f 	isb	sy
87803d34:	f643 3145 	movw	r1, #15173	; 0x3b45
87803d38:	221e      	movs	r2, #30
87803d3a:	f2c8 7180 	movt	r1, #34688	; 0x8780
87803d3e:	f44f 707a 	mov.w	r0, #1000	; 0x3e8
87803d42:	f002 f8a7 	bl	87805e94 <SystemSetupSystick>
87803d46:	f7fd e9b0 	blx	878010a8 <vPortRestoreTaskContext>
87803d4a:	2000      	movs	r0, #0
87803d4c:	b003      	add	sp, #12
87803d4e:	f85d fb04 	ldr.w	pc, [sp], #4
87803d52:	b672      	cpsid	i
87803d54:	f3bf 8f4f 	dsb	sy
87803d58:	f3bf 8f6f 	isb	sy
87803d5c:	f242 0304 	movw	r3, #8196	; 0x2004
87803d60:	f2c0 03a0 	movt	r3, #160	; 0xa0
87803d64:	681a      	ldr	r2, [r3, #0]
87803d66:	2aa0      	cmp	r2, #160	; 0xa0
87803d68:	d005      	beq.n	87803d76 <xPortStartScheduler+0x122>
87803d6a:	22a0      	movs	r2, #160	; 0xa0
87803d6c:	601a      	str	r2, [r3, #0]
87803d6e:	f3bf 8f4f 	dsb	sy
87803d72:	f3bf 8f6f 	isb	sy
87803d76:	b662      	cpsie	i
87803d78:	f3bf 8f4f 	dsb	sy
87803d7c:	f3bf 8f6f 	isb	sy
87803d80:	e7fe      	b.n	87803d80 <xPortStartScheduler+0x12c>
87803d82:	bf00      	nop

87803d84 <vPortEndScheduler>:
87803d84:	f240 0300 	movw	r3, #0
87803d88:	f6c8 0300 	movt	r3, #34816	; 0x8800
87803d8c:	681b      	ldr	r3, [r3, #0]
87803d8e:	f5b3 7f7a 	cmp.w	r3, #1000	; 0x3e8
87803d92:	d017      	beq.n	87803dc4 <vPortEndScheduler+0x40>
87803d94:	b672      	cpsid	i
87803d96:	f3bf 8f4f 	dsb	sy
87803d9a:	f3bf 8f6f 	isb	sy
87803d9e:	f242 0304 	movw	r3, #8196	; 0x2004
87803da2:	f2c0 03a0 	movt	r3, #160	; 0xa0
87803da6:	681a      	ldr	r2, [r3, #0]
87803da8:	2aa0      	cmp	r2, #160	; 0xa0
87803daa:	d005      	beq.n	87803db8 <vPortEndScheduler+0x34>
87803dac:	22a0      	movs	r2, #160	; 0xa0
87803dae:	601a      	str	r2, [r3, #0]
87803db0:	f3bf 8f4f 	dsb	sy
87803db4:	f3bf 8f6f 	isb	sy
87803db8:	b662      	cpsie	i
87803dba:	f3bf 8f4f 	dsb	sy
87803dbe:	f3bf 8f6f 	isb	sy
87803dc2:	e7fe      	b.n	87803dc2 <vPortEndScheduler+0x3e>
87803dc4:	4770      	bx	lr
87803dc6:	bf00      	nop

87803dc8 <vPortEnterCritical>:
87803dc8:	b672      	cpsid	i
87803dca:	f3bf 8f4f 	dsb	sy
87803dce:	f3bf 8f6f 	isb	sy
87803dd2:	f242 0304 	movw	r3, #8196	; 0x2004
87803dd6:	f2c0 03a0 	movt	r3, #160	; 0xa0
87803dda:	681a      	ldr	r2, [r3, #0]
87803ddc:	2aa0      	cmp	r2, #160	; 0xa0
87803dde:	d005      	beq.n	87803dec <vPortEnterCritical+0x24>
87803de0:	22a0      	movs	r2, #160	; 0xa0
87803de2:	601a      	str	r2, [r3, #0]
87803de4:	f3bf 8f4f 	dsb	sy
87803de8:	f3bf 8f6f 	isb	sy
87803dec:	b662      	cpsie	i
87803dee:	f3bf 8f4f 	dsb	sy
87803df2:	f3bf 8f6f 	isb	sy
87803df6:	f240 0300 	movw	r3, #0
87803dfa:	f6c8 0300 	movt	r3, #34816	; 0x8800
87803dfe:	681a      	ldr	r2, [r3, #0]
87803e00:	3201      	adds	r2, #1
87803e02:	601a      	str	r2, [r3, #0]
87803e04:	681b      	ldr	r3, [r3, #0]
87803e06:	2b01      	cmp	r3, #1
87803e08:	d000      	beq.n	87803e0c <vPortEnterCritical+0x44>
87803e0a:	4770      	bx	lr
87803e0c:	f240 2388 	movw	r3, #648	; 0x288
87803e10:	f6c8 0300 	movt	r3, #34816	; 0x8800
87803e14:	681b      	ldr	r3, [r3, #0]
87803e16:	2b00      	cmp	r3, #0
87803e18:	d0f7      	beq.n	87803e0a <vPortEnterCritical+0x42>
87803e1a:	b672      	cpsid	i
87803e1c:	f3bf 8f4f 	dsb	sy
87803e20:	f3bf 8f6f 	isb	sy
87803e24:	f242 0304 	movw	r3, #8196	; 0x2004
87803e28:	f2c0 03a0 	movt	r3, #160	; 0xa0
87803e2c:	681a      	ldr	r2, [r3, #0]
87803e2e:	2aa0      	cmp	r2, #160	; 0xa0
87803e30:	d005      	beq.n	87803e3e <vPortEnterCritical+0x76>
87803e32:	22a0      	movs	r2, #160	; 0xa0
87803e34:	601a      	str	r2, [r3, #0]
87803e36:	f3bf 8f4f 	dsb	sy
87803e3a:	f3bf 8f6f 	isb	sy
87803e3e:	b662      	cpsie	i
87803e40:	f3bf 8f4f 	dsb	sy
87803e44:	f3bf 8f6f 	isb	sy
87803e48:	e7fe      	b.n	87803e48 <vPortEnterCritical+0x80>
87803e4a:	bf00      	nop

87803e4c <vPortExitCritical>:
87803e4c:	f240 0300 	movw	r3, #0
87803e50:	f6c8 0300 	movt	r3, #34816	; 0x8800
87803e54:	681a      	ldr	r2, [r3, #0]
87803e56:	b1c2      	cbz	r2, 87803e8a <vPortExitCritical+0x3e>
87803e58:	681a      	ldr	r2, [r3, #0]
87803e5a:	3a01      	subs	r2, #1
87803e5c:	601a      	str	r2, [r3, #0]
87803e5e:	681b      	ldr	r3, [r3, #0]
87803e60:	b99b      	cbnz	r3, 87803e8a <vPortExitCritical+0x3e>
87803e62:	b672      	cpsid	i
87803e64:	f3bf 8f4f 	dsb	sy
87803e68:	f3bf 8f6f 	isb	sy
87803e6c:	f242 0304 	movw	r3, #8196	; 0x2004
87803e70:	22ff      	movs	r2, #255	; 0xff
87803e72:	f2c0 03a0 	movt	r3, #160	; 0xa0
87803e76:	601a      	str	r2, [r3, #0]
87803e78:	f3bf 8f4f 	dsb	sy
87803e7c:	f3bf 8f6f 	isb	sy
87803e80:	b662      	cpsie	i
87803e82:	f3bf 8f4f 	dsb	sy
87803e86:	f3bf 8f6f 	isb	sy
87803e8a:	4770      	bx	lr

87803e8c <vPortTaskUsesFPU>:
87803e8c:	f240 2388 	movw	r3, #648	; 0x288
87803e90:	2101      	movs	r1, #1
87803e92:	f6c8 0300 	movt	r3, #34816	; 0x8800
87803e96:	2200      	movs	r2, #0
87803e98:	6099      	str	r1, [r3, #8]
87803e9a:	eee1 2a10 	vmsr	fpscr, r2
87803e9e:	4770      	bx	lr

87803ea0 <vPortClearInterruptMask>:
87803ea0:	b998      	cbnz	r0, 87803eca <vPortClearInterruptMask+0x2a>
87803ea2:	b672      	cpsid	i
87803ea4:	f3bf 8f4f 	dsb	sy
87803ea8:	f3bf 8f6f 	isb	sy
87803eac:	f242 0304 	movw	r3, #8196	; 0x2004
87803eb0:	22ff      	movs	r2, #255	; 0xff
87803eb2:	f2c0 03a0 	movt	r3, #160	; 0xa0
87803eb6:	601a      	str	r2, [r3, #0]
87803eb8:	f3bf 8f4f 	dsb	sy
87803ebc:	f3bf 8f6f 	isb	sy
87803ec0:	b662      	cpsie	i
87803ec2:	f3bf 8f4f 	dsb	sy
87803ec6:	f3bf 8f6f 	isb	sy
87803eca:	4770      	bx	lr

87803ecc <ulPortSetInterruptMask>:
87803ecc:	b672      	cpsid	i
87803ece:	f3bf 8f4f 	dsb	sy
87803ed2:	f3bf 8f6f 	isb	sy
87803ed6:	f242 0304 	movw	r3, #8196	; 0x2004
87803eda:	f2c0 03a0 	movt	r3, #160	; 0xa0
87803ede:	681a      	ldr	r2, [r3, #0]
87803ee0:	2aa0      	cmp	r2, #160	; 0xa0
87803ee2:	bf08      	it	eq
87803ee4:	2001      	moveq	r0, #1
87803ee6:	d006      	beq.n	87803ef6 <ulPortSetInterruptMask+0x2a>
87803ee8:	22a0      	movs	r2, #160	; 0xa0
87803eea:	601a      	str	r2, [r3, #0]
87803eec:	f3bf 8f4f 	dsb	sy
87803ef0:	f3bf 8f6f 	isb	sy
87803ef4:	2000      	movs	r0, #0
87803ef6:	b662      	cpsie	i
87803ef8:	f3bf 8f4f 	dsb	sy
87803efc:	f3bf 8f6f 	isb	sy
87803f00:	4770      	bx	lr
87803f02:	bf00      	nop

87803f04 <vPortValidateInterruptPriority>:
87803f04:	f242 0314 	movw	r3, #8212	; 0x2014
87803f08:	f2c0 03a0 	movt	r3, #160	; 0xa0
87803f0c:	681b      	ldr	r3, [r3, #0]
87803f0e:	2b9f      	cmp	r3, #159	; 0x9f
87803f10:	d817      	bhi.n	87803f42 <vPortValidateInterruptPriority+0x3e>
87803f12:	b672      	cpsid	i
87803f14:	f3bf 8f4f 	dsb	sy
87803f18:	f3bf 8f6f 	isb	sy
87803f1c:	f242 0304 	movw	r3, #8196	; 0x2004
87803f20:	f2c0 03a0 	movt	r3, #160	; 0xa0
87803f24:	681a      	ldr	r2, [r3, #0]
87803f26:	2aa0      	cmp	r2, #160	; 0xa0
87803f28:	d005      	beq.n	87803f36 <vPortValidateInterruptPriority+0x32>
87803f2a:	22a0      	movs	r2, #160	; 0xa0
87803f2c:	601a      	str	r2, [r3, #0]
87803f2e:	f3bf 8f4f 	dsb	sy
87803f32:	f3bf 8f6f 	isb	sy
87803f36:	b662      	cpsie	i
87803f38:	f3bf 8f4f 	dsb	sy
87803f3c:	f3bf 8f6f 	isb	sy
87803f40:	e7fe      	b.n	87803f40 <vPortValidateInterruptPriority+0x3c>
87803f42:	f242 0308 	movw	r3, #8200	; 0x2008
87803f46:	f2c0 03a0 	movt	r3, #160	; 0xa0
87803f4a:	681b      	ldr	r3, [r3, #0]
87803f4c:	f003 0303 	and.w	r3, r3, #3
87803f50:	2b03      	cmp	r3, #3
87803f52:	d117      	bne.n	87803f84 <vPortValidateInterruptPriority+0x80>
87803f54:	b672      	cpsid	i
87803f56:	f3bf 8f4f 	dsb	sy
87803f5a:	f3bf 8f6f 	isb	sy
87803f5e:	f242 0304 	movw	r3, #8196	; 0x2004
87803f62:	f2c0 03a0 	movt	r3, #160	; 0xa0
87803f66:	681a      	ldr	r2, [r3, #0]
87803f68:	2aa0      	cmp	r2, #160	; 0xa0
87803f6a:	d005      	beq.n	87803f78 <vPortValidateInterruptPriority+0x74>
87803f6c:	22a0      	movs	r2, #160	; 0xa0
87803f6e:	601a      	str	r2, [r3, #0]
87803f70:	f3bf 8f4f 	dsb	sy
87803f74:	f3bf 8f6f 	isb	sy
87803f78:	b662      	cpsie	i
87803f7a:	f3bf 8f4f 	dsb	sy
87803f7e:	f3bf 8f6f 	isb	sy
87803f82:	e7fe      	b.n	87803f82 <vPortValidateInterruptPriority+0x7e>
87803f84:	4770      	bx	lr
87803f86:	bf00      	nop

87803f88 <vApplicationFPUSafeIRQHandler>:
87803f88:	b672      	cpsid	i
87803f8a:	f3bf 8f4f 	dsb	sy
87803f8e:	f3bf 8f6f 	isb	sy
87803f92:	f242 0304 	movw	r3, #8196	; 0x2004
87803f96:	f2c0 03a0 	movt	r3, #160	; 0xa0
87803f9a:	681a      	ldr	r2, [r3, #0]
87803f9c:	2aa0      	cmp	r2, #160	; 0xa0
87803f9e:	d005      	beq.n	87803fac <vApplicationFPUSafeIRQHandler+0x24>
87803fa0:	22a0      	movs	r2, #160	; 0xa0
87803fa2:	601a      	str	r2, [r3, #0]
87803fa4:	f3bf 8f4f 	dsb	sy
87803fa8:	f3bf 8f6f 	isb	sy
87803fac:	b662      	cpsie	i
87803fae:	f3bf 8f4f 	dsb	sy
87803fb2:	f3bf 8f6f 	isb	sy
87803fb6:	e7fe      	b.n	87803fb6 <vApplicationFPUSafeIRQHandler+0x2e>

87803fb8 <prvInsertBlockIntoFreeList>:
87803fb8:	b430      	push	{r4, r5}
87803fba:	f240 2494 	movw	r4, #660	; 0x294
87803fbe:	f6c8 0400 	movt	r4, #34816	; 0x8800
87803fc2:	4622      	mov	r2, r4
87803fc4:	e000      	b.n	87803fc8 <prvInsertBlockIntoFreeList+0x10>
87803fc6:	461a      	mov	r2, r3
87803fc8:	6813      	ldr	r3, [r2, #0]
87803fca:	4283      	cmp	r3, r0
87803fcc:	d3fb      	bcc.n	87803fc6 <prvInsertBlockIntoFreeList+0xe>
87803fce:	6851      	ldr	r1, [r2, #4]
87803fd0:	1855      	adds	r5, r2, r1
87803fd2:	42a8      	cmp	r0, r5
87803fd4:	bf05      	ittet	eq
87803fd6:	6845      	ldreq	r5, [r0, #4]
87803fd8:	4610      	moveq	r0, r2
87803fda:	6841      	ldrne	r1, [r0, #4]
87803fdc:	1949      	addeq	r1, r1, r5
87803fde:	eb00 0501 	add.w	r5, r0, r1
87803fe2:	bf08      	it	eq
87803fe4:	6051      	streq	r1, [r2, #4]
87803fe6:	42ab      	cmp	r3, r5
87803fe8:	d005      	beq.n	87803ff6 <prvInsertBlockIntoFreeList+0x3e>
87803fea:	4290      	cmp	r0, r2
87803fec:	6003      	str	r3, [r0, #0]
87803fee:	bc30      	pop	{r4, r5}
87803ff0:	bf18      	it	ne
87803ff2:	6010      	strne	r0, [r2, #0]
87803ff4:	4770      	bx	lr
87803ff6:	68a4      	ldr	r4, [r4, #8]
87803ff8:	42a3      	cmp	r3, r4
87803ffa:	d0f6      	beq.n	87803fea <prvInsertBlockIntoFreeList+0x32>
87803ffc:	cb18      	ldmia	r3, {r3, r4}
87803ffe:	4290      	cmp	r0, r2
87804000:	4421      	add	r1, r4
