
hw_sim/serial_test/build/serial_test.elf:     file format elf32-littlearm


Disassembly of section .interrupts:

87800000 <__VECTOR_TABLE>:
87800000:	e59ff018 	ldr	pc, [pc, #24]	; 87800020 <__VECTOR_TABLE+0x20>
87800004:	e59ff018 	ldr	pc, [pc, #24]	; 87800024 <__VECTOR_TABLE+0x24>
87800008:	e59ff018 	ldr	pc, [pc, #24]	; 87800028 <__VECTOR_TABLE+0x28>
8780000c:	e59ff018 	ldr	pc, [pc, #24]	; 8780002c <__VECTOR_TABLE+0x2c>
87800010:	e59ff018 	ldr	pc, [pc, #24]	; 87800030 <__VECTOR_TABLE+0x30>
87800014:	00000000 	andeq	r0, r0, r0
87800018:	e59ff014 	ldr	pc, [pc, #20]	; 87800034 <__VECTOR_TABLE+0x34>
8780001c:	e59ff014 	ldr	pc, [pc, #20]	; 87800038 <__VECTOR_TABLE+0x38>
87800020:	87801490 			; <UNDEFINED> instruction: 0x87801490
87800024:	87801548 	strhi	r1, [r0, r8, asr #10]
87800028:	87801000 	strhi	r1, [r0, r0]
8780002c:	87801554 			; <UNDEFINED> instruction: 0x87801554
87800030:	8780155c 			; <UNDEFINED> instruction: 0x8780155c
87800034:	87801110 	usada8hi	r0, r0, r1, r1
87800038:	878015b8 			; <UNDEFINED> instruction: 0x878015b8

Disassembly of section .text:

87801000 <FreeRTOS_SWI_Handler>:
87801000:	f96d051f 	srsdb	sp!, #31
87801004:	f102001f 	cps	#31
87801008:	e92d5fff 	push	{r0, r1, r2, r3, r4, r5, r6, r7, r8, r9, sl, fp, ip, lr}
8780100c:	e59f22ac 	ldr	r2, [pc, #684]	; 878012c0 <ulCriticalNestingConst>
87801010:	e5921000 	ldr	r1, [r2]
87801014:	e52d1004 	push	{r1}		; (str r1, [sp, #-4]!)
87801018:	e59f22a4 	ldr	r2, [pc, #676]	; 878012c4 <ulPortTaskHasFPUContextConst>
8780101c:	e5923000 	ldr	r3, [r2]
87801020:	e3530000 	cmp	r3, #0
87801024:	1ef11a10 	vmrsne	r1, fpscr
87801028:	1d2d0b20 	vpushne	{d0-d15}
8780102c:	1d6d0b20 	vpushne	{d16-d31}
87801030:	152d1004 	pushne	{r1}		; (strne r1, [sp, #-4]!)
87801034:	e52d3004 	push	{r3}		; (str r3, [sp, #-4]!)
87801038:	e59f027c 	ldr	r0, [pc, #636]	; 878012bc <pxCurrentTCBConst>
8780103c:	e5901000 	ldr	r1, [r0]
87801040:	e581d000 	str	sp, [r1]
87801044:	e59f0280 	ldr	r0, [pc, #640]	; 878012cc <vTaskSwitchContextConst>
87801048:	e12fff30 	blx	r0
8780104c:	e59f0268 	ldr	r0, [pc, #616]	; 878012bc <pxCurrentTCBConst>
87801050:	e5901000 	ldr	r1, [r0]
87801054:	e591d000 	ldr	sp, [r1]
87801058:	e59f0264 	ldr	r0, [pc, #612]	; 878012c4 <ulPortTaskHasFPUContextConst>
8780105c:	e49d1004 	pop	{r1}		; (ldr r1, [sp], #4)
87801060:	e5801000 	str	r1, [r0]
87801064:	e3510000 	cmp	r1, #0
87801068:	149d0004 	popne	{r0}		; (ldrne r0, [sp], #4)
8780106c:	1cfd0b20 	vpopne	{d16-d31}
87801070:	1cbd0b20 	vpopne	{d0-d15}
87801074:	1ee10a10 	vmsrne	fpscr, r0
87801078:	e59f0240 	ldr	r0, [pc, #576]	; 878012c0 <ulCriticalNestingConst>
8780107c:	e49d1004 	pop	{r1}		; (ldr r1, [sp], #4)
87801080:	e5801000 	str	r1, [r0]
87801084:	e59f222c 	ldr	r2, [pc, #556]	; 878012b8 <ulICCPMRConst>
87801088:	e5922000 	ldr	r2, [r2]
8780108c:	e3510000 	cmp	r1, #0
87801090:	03a040ff 	moveq	r4, #255	; 0xff
87801094:	159f422c 	ldrne	r4, [pc, #556]	; 878012c8 <ulMaxAPIPriorityMaskConst>
87801098:	15944000 	ldrne	r4, [r4]
8780109c:	e5824000 	str	r4, [r2]
878010a0:	e8bd5fff 	pop	{r0, r1, r2, r3, r4, r5, r6, r7, r8, r9, sl, fp, ip, lr}
878010a4:	f8bd0a00 	rfeia	sp!

878010a8 <vPortRestoreTaskContext>:
878010a8:	f102001f 	cps	#31
878010ac:	e59f0208 	ldr	r0, [pc, #520]	; 878012bc <pxCurrentTCBConst>
878010b0:	e5901000 	ldr	r1, [r0]
878010b4:	e591d000 	ldr	sp, [r1]
878010b8:	e59f0204 	ldr	r0, [pc, #516]	; 878012c4 <ulPortTaskHasFPUContextConst>
878010bc:	e49d1004 	pop	{r1}		; (ldr r1, [sp], #4)
878010c0:	e5801000 	str	r1, [r0]
878010c4:	e3510000 	cmp	r1, #0
878010c8:	149d0004 	popne	{r0}		; (ldrne r0, [sp], #4)
878010cc:	1cfd0b20 	vpopne	{d16-d31}
878010d0:	1cbd0b20 	vpopne	{d0-d15}
878010d4:	1ee10a10 	vmsrne	fpscr, r0
878010d8:	e59f01e0 	ldr	r0, [pc, #480]	; 878012c0 <ulCriticalNestingConst>
878010dc:	e49d1004 	pop	{r1}		; (ldr r1, [sp], #4)
878010e0:	e5801000 	str	r1, [r0]
878010e4:	e59f21cc 	ldr	r2, [pc, #460]	; 878012b8 <ulICCPMRConst>
878010e8:	e5922000 	ldr	r2, [r2]
878010ec:	e3510000 	cmp	r1, #0
878010f0:	03a040ff 	moveq	r4, #255	; 0xff
878010f4:	159f41cc 	ldrne	r4, [pc, #460]	; 878012c8 <ulMaxAPIPriorityMaskConst>
878010f8:	15944000 	ldrne	r4, [r4]
878010fc:	e5824000 	str	r4, [r2]
87801100:	e8bd5fff 	pop	{r0, r1, r2, r3, r4, r5, r6, r7, r8, r9, sl, fp, ip, lr}
87801104:	f8bd0a00 	rfeia	sp!
87801108:	e320f000 	nop	{0}
8780110c:	e320f000 	nop	{0}

87801110 <FreeRTOS_IRQ_Handler>:
87801110:	e24ee004 	sub	lr, lr, #4
87801114:	e52de004 	push	{lr}		; (str lr, [sp, #-4]!)
87801118:	e14fe000 	mrs	lr, SPSR
8780111c:	e52de004 	push	{lr}		; (str lr, [sp, #-4]!)
87801120:	f1020013 	cps	#19
87801124:	e92d101f 	push	{r0, r1, r2, r3, r4, ip}
87801128:	e59f31a4 	ldr	r3, [pc, #420]	; 878012d4 <ulPortInterruptNestingConst>
8780112c:	e5931000 	ldr	r1, [r3]
87801130:	e2814001 	add	r4, r1, #1
87801134:	e5834000 	str	r4, [r3]
87801138:	e59f2170 	ldr	r2, [pc, #368]	; 878012b0 <ulICCIARConst>
8780113c:	e5922000 	ldr	r2, [r2]
87801140:	e5920000 	ldr	r0, [r2]
87801144:	e1a0200d 	mov	r2, sp
87801148:	e2022004 	and	r2, r2, #4
8780114c:	e04dd002 	sub	sp, sp, r2
87801150:	e92d400f 	push	{r0, r1, r2, r3, lr}
87801154:	e59f1180 	ldr	r1, [pc, #384]	; 878012dc <vApplicationFPUSafeIRQHandlerConst+0x4>
87801158:	e12fff31 	blx	r1
8780115c:	e8bd400f 	pop	{r0, r1, r2, r3, lr}
87801160:	e08dd002 	add	sp, sp, r2
87801164:	f10c0080 	cpsid	i
87801168:	f57ff04f 	dsb	sy
8780116c:	f57ff06f 	isb	sy
87801170:	e59f413c 	ldr	r4, [pc, #316]	; 878012b4 <ulICCEOIRConst>
87801174:	e5944000 	ldr	r4, [r4]
87801178:	e5840000 	str	r0, [r4]
8780117c:	e5831000 	str	r1, [r3]
87801180:	e3510000 	cmp	r1, #0
87801184:	1a000003 	bne	87801198 <exit_without_switch>
87801188:	e59f1150 	ldr	r1, [pc, #336]	; 878012e0 <vApplicationFPUSafeIRQHandlerConst+0x8>
8780118c:	e5910000 	ldr	r0, [r1]
87801190:	e3500000 	cmp	r0, #0
87801194:	1a000005 	bne	878011b0 <switch_before_exit>

87801198 <exit_without_switch>:
87801198:	e8bd101f 	pop	{r0, r1, r2, r3, r4, ip}
8780119c:	f1020012 	cps	#18
878011a0:	e49de004 	pop	{lr}		; (ldr lr, [sp], #4)
878011a4:	e16ff00e 	msr	SPSR_fsxc, lr
878011a8:	e49de004 	pop	{lr}		; (ldr lr, [sp], #4)
878011ac:	e1b0f00e 	movs	pc, lr

878011b0 <switch_before_exit>:
878011b0:	e3a00000 	mov	r0, #0
878011b4:	e5810000 	str	r0, [r1]
878011b8:	e8bd101f 	pop	{r0, r1, r2, r3, r4, ip}
878011bc:	f1020012 	cps	#18
878011c0:	e49de004 	pop	{lr}		; (ldr lr, [sp], #4)
878011c4:	e16ff00e 	msr	SPSR_fsxc, lr
878011c8:	e49de004 	pop	{lr}		; (ldr lr, [sp], #4)
878011cc:	f96d051f 	srsdb	sp!, #31
878011d0:	f102001f 	cps	#31
878011d4:	e92d5fff 	push	{r0, r1, r2, r3, r4, r5, r6, r7, r8, r9, sl, fp, ip, lr}
878011d8:	e59f20e0 	ldr	r2, [pc, #224]	; 878012c0 <ulCriticalNestingConst>
878011dc:	e5921000 	ldr	r1, [r2]
878011e0:	e52d1004 	push	{r1}		; (str r1, [sp, #-4]!)
878011e4:	e59f20d8 	ldr	r2, [pc, #216]	; 878012c4 <ulPortTaskHasFPUContextConst>
878011e8:	e5923000 	ldr	r3, [r2]
878011ec:	e3530000 	cmp	r3, #0
878011f0:	1ef11a10 	vmrsne	r1, fpscr
878011f4:	1d2d0b20 	vpushne	{d0-d15}
878011f8:	1d6d0b20 	vpushne	{d16-d31}
878011fc:	152d1004 	pushne	{r1}		; (strne r1, [sp, #-4]!)
87801200:	e52d3004 	push	{r3}		; (str r3, [sp, #-4]!)
87801204:	e59f00b0 	ldr	r0, [pc, #176]	; 878012bc <pxCurrentTCBConst>
87801208:	e5901000 	ldr	r1, [r0]
8780120c:	e581d000 	str	sp, [r1]
87801210:	e59f00b4 	ldr	r0, [pc, #180]	; 878012cc <vTaskSwitchContextConst>
87801214:	e12fff30 	blx	r0
87801218:	e59f009c 	ldr	r0, [pc, #156]	; 878012bc <pxCurrentTCBConst>
8780121c:	e5901000 	ldr	r1, [r0]
87801220:	e591d000 	ldr	sp, [r1]
87801224:	e59f0098 	ldr	r0, [pc, #152]	; 878012c4 <ulPortTaskHasFPUContextConst>
87801228:	e49d1004 	pop	{r1}		; (ldr r1, [sp], #4)
8780122c:	e5801000 	str	r1, [r0]
87801230:	e3510000 	cmp	r1, #0
87801234:	149d0004 	popne	{r0}		; (ldrne r0, [sp], #4)
87801238:	1cfd0b20 	vpopne	{d16-d31}
8780123c:	1cbd0b20 	vpopne	{d0-d15}
87801240:	1ee10a10 	vmsrne	fpscr, r0
87801244:	e59f0074 	ldr	r0, [pc, #116]	; 878012c0 <ulCriticalNestingConst>
87801248:	e49d1004 	pop	{r1}		; (ldr r1, [sp], #4)
8780124c:	e5801000 	str	r1, [r0]
87801250:	e59f2060 	ldr	r2, [pc, #96]	; 878012b8 <ulICCPMRConst>
87801254:	e5922000 	ldr	r2, [r2]
87801258:	e3510000 	cmp	r1, #0
8780125c:	03a040ff 	moveq	r4, #255	; 0xff
87801260:	159f4060 	ldrne	r4, [pc, #96]	; 878012c8 <ulMaxAPIPriorityMaskConst>
87801264:	15944000 	ldrne	r4, [r4]
87801268:	e5824000 	str	r4, [r2]
8780126c:	e8bd5fff 	pop	{r0, r1, r2, r3, r4, r5, r6, r7, r8, r9, sl, fp, ip, lr}
87801270:	f8bd0a00 	rfeia	sp!
87801274:	e320f000 	nop	{0}
87801278:	e320f000 	nop	{0}
8780127c:	e320f000 	nop	{0}

87801280 <vApplicationIRQHandler>:
87801280:	e52de004 	push	{lr}		; (str lr, [sp, #-4]!)
87801284:	eef11a10 	vmrs	r1, fpscr
87801288:	ed2d0b20 	vpush	{d0-d15}
8780128c:	ed6d0b20 	vpush	{d16-d31}
87801290:	e52d1004 	push	{r1}		; (str r1, [sp, #-4]!)
87801294:	e59f103c 	ldr	r1, [pc, #60]	; 878012d8 <vApplicationFPUSafeIRQHandlerConst>
87801298:	e12fff31 	blx	r1
8780129c:	e49d0004 	pop	{r0}		; (ldr r0, [sp], #4)
878012a0:	ecfd0b20 	vpop	{d16-d31}
878012a4:	ecbd0b20 	vpop	{d0-d15}
878012a8:	eee10a10 	vmsr	fpscr, r0
878012ac:	e49df004 	pop	{pc}		; (ldr pc, [sp], #4)

878012b0 <ulICCIARConst>:
878012b0:	8780685c 			; <UNDEFINED> instruction: 0x8780685c

878012b4 <ulICCEOIRConst>:
878012b4:	87806858 			; <UNDEFINED> instruction: 0x87806858

878012b8 <ulICCPMRConst>:
878012b8:	87806854 			; <UNDEFINED> instruction: 0x87806854

878012bc <pxCurrentTCBConst>:
878012bc:	8800010c 	stmdahi	r0, {r2, r3, r8}

878012c0 <ulCriticalNestingConst>:
878012c0:	88000000 	stmdahi	r0, {}	; <UNPREDICTABLE>

878012c4 <ulPortTaskHasFPUContextConst>:
878012c4:	8800028c 	stmdahi	r0, {r2, r3, r7, r9}

878012c8 <ulMaxAPIPriorityMaskConst>:
878012c8:	87806850 			; <UNDEFINED> instruction: 0x87806850

878012cc <vTaskSwitchContextConst>:
878012cc:	87802bd5 			; <UNDEFINED> instruction: 0x87802bd5

878012d0 <vApplicationIRQHandlerConst>:
878012d0:	87801280 	strhi	r1, [r0, r0, lsl #5]

878012d4 <ulPortInterruptNestingConst>:
878012d4:	88000284 	stmdahi	r0, {r2, r7, r9}

878012d8 <vApplicationFPUSafeIRQHandlerConst>:
878012d8:	87803f55 			; <UNDEFINED> instruction: 0x87803f55
878012dc:	87805db9 			; <UNDEFINED> instruction: 0x87805db9
878012e0:	88000288 	stmdahi	r0, {r3, r7, r9}
	...

878012f0 <__umodsi3>:
878012f0:	e2512001 	subs	r2, r1, #1
878012f4:	3a000062 	bcc	87801484 <Ldiv0>
878012f8:	11500001 	cmpne	r0, r1
878012fc:	03a00000 	moveq	r0, #0
87801300:	81110002 	tsthi	r1, r2
87801304:	00000002 	andeq	r0, r0, r2
87801308:	91a0f00e 	movls	pc, lr
8780130c:	e3a02000 	mov	r2, #0
87801310:	e3510201 	cmp	r1, #268435456	; 0x10000000
87801314:	31510000 	cmpcc	r1, r0
87801318:	31a01201 	lslcc	r1, r1, #4
8780131c:	32822004 	addcc	r2, r2, #4
87801320:	3afffffa 	bcc	87801310 <__umodsi3+0x20>
87801324:	e3510102 	cmp	r1, #-2147483648	; 0x80000000
87801328:	31510000 	cmpcc	r1, r0
8780132c:	31a01081 	lslcc	r1, r1, #1
87801330:	32822001 	addcc	r2, r2, #1
87801334:	3afffffa 	bcc	87801324 <__umodsi3+0x34>
87801338:	e2522003 	subs	r2, r2, #3
8780133c:	ba00000e 	blt	8780137c <__umodsi3+0x8c>
87801340:	e1500001 	cmp	r0, r1
87801344:	20400001 	subcs	r0, r0, r1
87801348:	e15000a1 	cmp	r0, r1, lsr #1
8780134c:	204000a1 	subcs	r0, r0, r1, lsr #1
87801350:	e1500121 	cmp	r0, r1, lsr #2
87801354:	20400121 	subcs	r0, r0, r1, lsr #2
87801358:	e15001a1 	cmp	r0, r1, lsr #3
8780135c:	204001a1 	subcs	r0, r0, r1, lsr #3
87801360:	e3500001 	cmp	r0, #1
87801364:	e1a01221 	lsr	r1, r1, #4
87801368:	a2522004 	subsge	r2, r2, #4
8780136c:	aafffff3 	bge	87801340 <__umodsi3+0x50>
87801370:	e3120003 	tst	r2, #3
87801374:	13300000 	teqne	r0, #0
87801378:	0a00000a 	beq	878013a8 <__umodsi3+0xb8>
8780137c:	e3720002 	cmn	r2, #2
87801380:	ba000006 	blt	878013a0 <__umodsi3+0xb0>
87801384:	0a000002 	beq	87801394 <__umodsi3+0xa4>
87801388:	e1500001 	cmp	r0, r1
8780138c:	20400001 	subcs	r0, r0, r1
87801390:	e1a010a1 	lsr	r1, r1, #1
87801394:	e1500001 	cmp	r0, r1
87801398:	20400001 	subcs	r0, r0, r1
8780139c:	e1a010a1 	lsr	r1, r1, #1
878013a0:	e1500001 	cmp	r0, r1
878013a4:	20400001 	subcs	r0, r0, r1
878013a8:	e1a0f00e 	mov	pc, lr
878013ac:	90909090 	umullsls	r9, r0, r0, r0

878013b0 <__modsi3>:
878013b0:	e3510000 	cmp	r1, #0
878013b4:	0a000032 	beq	87801484 <Ldiv0>
878013b8:	42611000 	rsbmi	r1, r1, #0
878013bc:	e1b0c000 	movs	ip, r0
878013c0:	42600000 	rsbmi	r0, r0, #0
878013c4:	e2512001 	subs	r2, r1, #1
878013c8:	11500001 	cmpne	r0, r1
878013cc:	03a00000 	moveq	r0, #0
878013d0:	81110002 	tsthi	r1, r2
878013d4:	00000002 	andeq	r0, r0, r2
878013d8:	9a000026 	bls	87801478 <__modsi3+0xc8>
878013dc:	e3a02000 	mov	r2, #0
878013e0:	e3510201 	cmp	r1, #268435456	; 0x10000000
878013e4:	31510000 	cmpcc	r1, r0
878013e8:	31a01201 	lslcc	r1, r1, #4
878013ec:	32822004 	addcc	r2, r2, #4
878013f0:	3afffffa 	bcc	878013e0 <__modsi3+0x30>
878013f4:	e3510102 	cmp	r1, #-2147483648	; 0x80000000
878013f8:	31510000 	cmpcc	r1, r0
878013fc:	31a01081 	lslcc	r1, r1, #1
87801400:	32822001 	addcc	r2, r2, #1
87801404:	3afffffa 	bcc	878013f4 <__modsi3+0x44>
87801408:	e2522003 	subs	r2, r2, #3
8780140c:	ba00000e 	blt	8780144c <__modsi3+0x9c>
87801410:	e1500001 	cmp	r0, r1
87801414:	20400001 	subcs	r0, r0, r1
87801418:	e15000a1 	cmp	r0, r1, lsr #1
8780141c:	204000a1 	subcs	r0, r0, r1, lsr #1
87801420:	e1500121 	cmp	r0, r1, lsr #2
87801424:	20400121 	subcs	r0, r0, r1, lsr #2
87801428:	e15001a1 	cmp	r0, r1, lsr #3
8780142c:	204001a1 	subcs	r0, r0, r1, lsr #3
87801430:	e3500001 	cmp	r0, #1
87801434:	e1a01221 	lsr	r1, r1, #4
87801438:	a2522004 	subsge	r2, r2, #4
8780143c:	aafffff3 	bge	87801410 <__modsi3+0x60>
87801440:	e3120003 	tst	r2, #3
87801444:	13300000 	teqne	r0, #0
87801448:	0a00000a 	beq	87801478 <__modsi3+0xc8>
8780144c:	e3720002 	cmn	r2, #2
87801450:	ba000006 	blt	87801470 <__modsi3+0xc0>
87801454:	0a000002 	beq	87801464 <__modsi3+0xb4>
87801458:	e1500001 	cmp	r0, r1
8780145c:	20400001 	subcs	r0, r0, r1
87801460:	e1a010a1 	lsr	r1, r1, #1
87801464:	e1500001 	cmp	r0, r1
87801468:	20400001 	subcs	r0, r0, r1
8780146c:	e1a010a1 	lsr	r1, r1, #1
87801470:	e1500001 	cmp	r0, r1
87801474:	20400001 	subcs	r0, r0, r1
87801478:	e35c0000 	cmp	ip, #0
8780147c:	42600000 	rsbmi	r0, r0, #0
87801480:	e1a0f00e 	mov	pc, lr

87801484 <Ldiv0>:
87801484:	e52de004 	push	{lr}		; (str lr, [sp, #-4]!)
87801488:	e3a00000 	mov	r0, #0
8780148c:	e49df004 	pop	{pc}		; (ldr pc, [sp], #4)

87801490 <Reset_Handler>:
87801490:	f10c0080 	cpsid	i
87801494:	ee110f10 	mrc	15, 0, r0, cr1, cr0, {0}
87801498:	e3c00a01 	bic	r0, r0, #4096	; 0x1000
8780149c:	e3c00004 	bic	r0, r0, #4
878014a0:	e3c00002 	bic	r0, r0, #2
878014a4:	e3c00b02 	bic	r0, r0, #2048	; 0x800
878014a8:	e3c00001 	bic	r0, r0, #1
878014ac:	ee010f10 	mcr	15, 0, r0, cr1, cr0, {0}
878014b0:	f1020012 	cps	#18
878014b4:	e59fd064 	ldr	sp, [pc, #100]	; 87801520 <Reset_Handler+0x90>
878014b8:	f102001f 	cps	#31
878014bc:	e59fd060 	ldr	sp, [pc, #96]	; 87801524 <Reset_Handler+0x94>
878014c0:	f1020013 	cps	#19
878014c4:	e59fd058 	ldr	sp, [pc, #88]	; 87801524 <Reset_Handler+0x94>
878014c8:	f1080080 	cpsie	i
878014cc:	e59f1054 	ldr	r1, [pc, #84]	; 87801528 <Reset_Handler+0x98>
878014d0:	e59f2054 	ldr	r2, [pc, #84]	; 8780152c <Reset_Handler+0x9c>
878014d4:	e59f3054 	ldr	r3, [pc, #84]	; 87801530 <Reset_Handler+0xa0>
878014d8:	e1520003 	cmp	r2, r3
878014dc:	b4910004 	ldrlt	r0, [r1], #4
878014e0:	b4820004 	strlt	r0, [r2], #4
878014e4:	bafffffb 	blt	878014d8 <Reset_Handler+0x48>
878014e8:	e59f2044 	ldr	r2, [pc, #68]	; 87801534 <Reset_Handler+0xa4>
878014ec:	e59f3044 	ldr	r3, [pc, #68]	; 87801538 <Reset_Handler+0xa8>
878014f0:	e1520003 	cmp	r2, r3
878014f4:	b4910004 	ldrlt	r0, [r1], #4
878014f8:	b4820004 	strlt	r0, [r2], #4
878014fc:	bafffffb 	blt	878014f0 <Reset_Handler+0x60>
87801500:	e59f1034 	ldr	r1, [pc, #52]	; 8780153c <Reset_Handler+0xac>
87801504:	e59f2034 	ldr	r2, [pc, #52]	; 87801540 <Reset_Handler+0xb0>
87801508:	e3b00000 	movs	r0, #0
8780150c:	e1510002 	cmp	r1, r2
87801510:	b4810004 	strlt	r0, [r1], #4
87801514:	bafffffc 	blt	8780150c <Reset_Handler+0x7c>
87801518:	e59f0024 	ldr	r0, [pc, #36]	; 87801544 <Reset_Handler+0xb4>
8780151c:	e12fff10 	bx	r0
87801520:	88400000 	stmdahi	r0, {}^	; <UNPREDICTABLE>
87801524:	883fe000 	ldmdahi	pc!, {sp, lr, pc}	; <UNPREDICTABLE>
87801528:	878068f8 			; <UNDEFINED> instruction: 0x878068f8
8780152c:	88000000 	stmdahi	r0, {}	; <UNPREDICTABLE>
87801530:	88000104 	stmdahi	r0, {r2, r8}
87801534:	00900000 	addseq	r0, r0, r0
87801538:	00900000 	addseq	r0, r0, r0
8780153c:	88000104 	stmdahi	r0, {r2, r8}
87801540:	88019ff8 	stmdahi	r1, {r3, r4, r5, r6, r7, r8, r9, sl, fp, ip, pc}
87801544:	878067c5 	strhi	r6, [r0, r5, asr #15]

87801548 <Undefined_Handler>:
87801548:	eafffffe 	b	87801548 <Undefined_Handler>

8780154c <SVC_Handler>:
8780154c:	e59f006c 	ldr	r0, [pc, #108]	; 878015c0 <FIQ_Handler+0x8>
87801550:	e12fff10 	bx	r0

87801554 <PrefAbort_Handler>:
87801554:	e59f0068 	ldr	r0, [pc, #104]	; 878015c4 <FIQ_Handler+0xc>
87801558:	e12fff10 	bx	r0

8780155c <DataAbort_Handler>:
8780155c:	e59f0064 	ldr	r0, [pc, #100]	; 878015c8 <FIQ_Handler+0x10>
87801560:	e12fff10 	bx	r0

87801564 <IRQ_Handler>:
87801564:	e52de004 	push	{lr}		; (str lr, [sp, #-4]!)
87801568:	e92d100f 	push	{r0, r1, r2, r3, ip}
8780156c:	e14f0000 	mrs	r0, SPSR
87801570:	e52d0004 	push	{r0}		; (str r0, [sp, #-4]!)
87801574:	ee9f1f10 	mrc	15, 4, r1, cr15, cr0, {0}
87801578:	e2811a02 	add	r1, r1, #8192	; 0x2000
8780157c:	e591000c 	ldr	r0, [r1, #12]
87801580:	e92d0003 	push	{r0, r1}
87801584:	f1020013 	cps	#19
87801588:	e52de004 	push	{lr}		; (str lr, [sp, #-4]!)
8780158c:	e59f2038 	ldr	r2, [pc, #56]	; 878015cc <FIQ_Handler+0x14>
87801590:	e12fff32 	blx	r2
87801594:	e49de004 	pop	{lr}		; (ldr lr, [sp], #4)
87801598:	f1020012 	cps	#18
8780159c:	e8bd0003 	pop	{r0, r1}
878015a0:	e5810010 	str	r0, [r1, #16]
878015a4:	e49d0004 	pop	{r0}		; (ldr r0, [sp], #4)
878015a8:	e16ff000 	msr	SPSR_fsxc, r0
878015ac:	e8bd100f 	pop	{r0, r1, r2, r3, ip}
878015b0:	e49de004 	pop	{lr}		; (ldr lr, [sp], #4)
878015b4:	e25ef004 	subs	pc, lr, #4

878015b8 <FIQ_Handler>:
878015b8:	e59f0010 	ldr	r0, [pc, #16]	; 878015d0 <FIQ_Handler+0x18>
878015bc:	e12fff10 	bx	r0
878015c0:	8780154c 	strhi	r1, [r0, ip, asr #10]
878015c4:	87801554 			; <UNDEFINED> instruction: 0x87801554
878015c8:	8780155c 			; <UNDEFINED> instruction: 0x8780155c
878015cc:	87805db9 			; <UNDEFINED> instruction: 0x87805db9
878015d0:	878015b8 			; <UNDEFINED> instruction: 0x878015b8

878015d4 <serial_task>:
878015d4:	f646 0088 	movw	r0, #26760	; 0x6888
878015d8:	b580      	push	{r7, lr}
878015da:	f240 1404 	movw	r4, #260	; 0x104
878015de:	f646 06a0 	movw	r6, #26784	; 0x68a0
878015e2:	f64c 45cd 	movw	r5, #52429	; 0xcccd
878015e6:	f646 07a4 	movw	r7, #26788	; 0x68a4
878015ea:	f2c8 7080 	movt	r0, #34688	; 0x8780
878015ee:	f6c8 0400 	movt	r4, #34816	; 0x8800
878015f2:	f2c8 7680 	movt	r6, #34688	; 0x8780
878015f6:	f6cc 45cc 	movt	r5, #52428	; 0xcccc
878015fa:	f2c8 7780 	movt	r7, #34688	; 0x8780
878015fe:	f002 fddd 	bl	878041bc <printf>
87801602:	e00a      	b.n	8780161a <serial_task+0x46>
87801604:	fba3 0105 	umull	r0, r1, r3, r5
87801608:	090a      	lsrs	r2, r1, #4
8780160a:	eb02 0282 	add.w	r2, r2, r2, lsl #2
8780160e:	ebb3 0f82 	cmp.w	r3, r2, lsl #2
87801612:	d015      	beq.n	87801640 <serial_task+0x6c>
87801614:	20c8      	movs	r0, #200	; 0xc8
87801616:	f001 fa8f 	bl	87802b38 <vTaskDelay>
8780161a:	6823      	ldr	r3, [r4, #0]
8780161c:	4630      	mov	r0, r6
8780161e:	3301      	adds	r3, #1
87801620:	6023      	str	r3, [r4, #0]
87801622:	f002 fdcb 	bl	878041bc <printf>
87801626:	6823      	ldr	r3, [r4, #0]
87801628:	fba3 0105 	umull	r0, r1, r3, r5
8780162c:	088a      	lsrs	r2, r1, #2
8780162e:	eb02 0282 	add.w	r2, r2, r2, lsl #2
87801632:	4293      	cmp	r3, r2
87801634:	d1e6      	bne.n	87801604 <serial_task+0x30>
87801636:	4638      	mov	r0, r7
87801638:	f002 fdc0 	bl	878041bc <printf>
8780163c:	6823      	ldr	r3, [r4, #0]
8780163e:	e7e1      	b.n	87801604 <serial_task+0x30>
87801640:	f646 009c 	movw	r0, #26780	; 0x689c
87801644:	f2c8 7080 	movt	r0, #34688	; 0x8780
87801648:	f002 fdb8 	bl	878041bc <printf>
8780164c:	e7e2      	b.n	87801614 <serial_task+0x40>
8780164e:	bf00      	nop

87801650 <prvCopyDataToQueue>:
87801650:	b570      	push	{r4, r5, r6, lr}
87801652:	4616      	mov	r6, r2
87801654:	6c02      	ldr	r2, [r0, #64]	; 0x40
87801656:	4604      	mov	r4, r0
87801658:	6b85      	ldr	r5, [r0, #56]	; 0x38
8780165a:	b932      	cbnz	r2, 8780166a <prvCopyDataToQueue+0x1a>
8780165c:	6806      	ldr	r6, [r0, #0]
8780165e:	2e00      	cmp	r6, #0
87801660:	d02f      	beq.n	878016c2 <prvCopyDataToQueue+0x72>
87801662:	3501      	adds	r5, #1
87801664:	4610      	mov	r0, r2
87801666:	63a5      	str	r5, [r4, #56]	; 0x38
87801668:	bd70      	pop	{r4, r5, r6, pc}
8780166a:	b99e      	cbnz	r6, 87801694 <prvCopyDataToQueue+0x44>
8780166c:	6880      	ldr	r0, [r0, #8]
8780166e:	f002 ffeb 	bl	87804648 <memcpy>
87801672:	68a3      	ldr	r3, [r4, #8]
87801674:	6c21      	ldr	r1, [r4, #64]	; 0x40
87801676:	6862      	ldr	r2, [r4, #4]
87801678:	440b      	add	r3, r1
8780167a:	4293      	cmp	r3, r2
8780167c:	60a3      	str	r3, [r4, #8]
8780167e:	bf2b      	itete	cs
87801680:	6823      	ldrcs	r3, [r4, #0]
87801682:	3501      	addcc	r5, #1
87801684:	3501      	addcs	r5, #1
87801686:	4630      	movcc	r0, r6
87801688:	bf28      	it	cs
8780168a:	4630      	movcs	r0, r6
8780168c:	63a5      	str	r5, [r4, #56]	; 0x38
8780168e:	bf28      	it	cs
87801690:	60a3      	strcs	r3, [r4, #8]
87801692:	bd70      	pop	{r4, r5, r6, pc}
87801694:	68c0      	ldr	r0, [r0, #12]
87801696:	f002 ffd7 	bl	87804648 <memcpy>
8780169a:	6c22      	ldr	r2, [r4, #64]	; 0x40
8780169c:	68e3      	ldr	r3, [r4, #12]
8780169e:	6821      	ldr	r1, [r4, #0]
878016a0:	4252      	negs	r2, r2
878016a2:	4413      	add	r3, r2
878016a4:	428b      	cmp	r3, r1
878016a6:	60e3      	str	r3, [r4, #12]
878016a8:	bf3e      	ittt	cc
878016aa:	6863      	ldrcc	r3, [r4, #4]
878016ac:	18d2      	addcc	r2, r2, r3
878016ae:	60e2      	strcc	r2, [r4, #12]
878016b0:	2e02      	cmp	r6, #2
878016b2:	bf1c      	itt	ne
878016b4:	3501      	addne	r5, #1
878016b6:	2000      	movne	r0, #0
878016b8:	d1d5      	bne.n	87801666 <prvCopyDataToQueue+0x16>
878016ba:	b905      	cbnz	r5, 878016be <prvCopyDataToQueue+0x6e>
878016bc:	2501      	movs	r5, #1
878016be:	2000      	movs	r0, #0
878016c0:	e7d1      	b.n	87801666 <prvCopyDataToQueue+0x16>
878016c2:	6840      	ldr	r0, [r0, #4]
878016c4:	3501      	adds	r5, #1
878016c6:	f001 fd89 	bl	878031dc <xTaskPriorityDisinherit>
878016ca:	6066      	str	r6, [r4, #4]
878016cc:	e7cb      	b.n	87801666 <prvCopyDataToQueue+0x16>
878016ce:	bf00      	nop

878016d0 <prvUnlockQueue>:
878016d0:	b570      	push	{r4, r5, r6, lr}
878016d2:	4605      	mov	r5, r0
878016d4:	f002 fb5e 	bl	87803d94 <vPortEnterCritical>
878016d8:	f895 4045 	ldrb.w	r4, [r5, #69]	; 0x45
878016dc:	b264      	sxtb	r4, r4
878016de:	2c00      	cmp	r4, #0
878016e0:	dd16      	ble.n	87801710 <prvUnlockQueue+0x40>
878016e2:	6a6b      	ldr	r3, [r5, #36]	; 0x24
878016e4:	b1a3      	cbz	r3, 87801710 <prvUnlockQueue+0x40>
878016e6:	f105 0624 	add.w	r6, r5, #36	; 0x24
878016ea:	e005      	b.n	878016f8 <prvUnlockQueue+0x28>
878016ec:	3c01      	subs	r4, #1
878016ee:	b2e3      	uxtb	r3, r4
878016f0:	b25c      	sxtb	r4, r3
878016f2:	b16b      	cbz	r3, 87801710 <prvUnlockQueue+0x40>
878016f4:	6a6b      	ldr	r3, [r5, #36]	; 0x24
878016f6:	b15b      	cbz	r3, 87801710 <prvUnlockQueue+0x40>
878016f8:	4630      	mov	r0, r6
878016fa:	f001 fb3d 	bl	87802d78 <xTaskRemoveFromEventList>
878016fe:	2800      	cmp	r0, #0
87801700:	d0f4      	beq.n	878016ec <prvUnlockQueue+0x1c>
87801702:	3c01      	subs	r4, #1
87801704:	f001 fbe6 	bl	87802ed4 <vTaskMissedYield>
87801708:	b2e3      	uxtb	r3, r4
8780170a:	b25c      	sxtb	r4, r3
8780170c:	2b00      	cmp	r3, #0
8780170e:	d1f1      	bne.n	878016f4 <prvUnlockQueue+0x24>
87801710:	23ff      	movs	r3, #255	; 0xff
87801712:	f885 3045 	strb.w	r3, [r5, #69]	; 0x45
87801716:	f002 fb7f 	bl	87803e18 <vPortExitCritical>
8780171a:	f002 fb3b 	bl	87803d94 <vPortEnterCritical>
8780171e:	f895 4044 	ldrb.w	r4, [r5, #68]	; 0x44
87801722:	b264      	sxtb	r4, r4
87801724:	2c00      	cmp	r4, #0
87801726:	dd16      	ble.n	87801756 <prvUnlockQueue+0x86>
87801728:	692b      	ldr	r3, [r5, #16]
8780172a:	b1a3      	cbz	r3, 87801756 <prvUnlockQueue+0x86>
8780172c:	f105 0610 	add.w	r6, r5, #16
87801730:	e005      	b.n	8780173e <prvUnlockQueue+0x6e>
87801732:	3c01      	subs	r4, #1
87801734:	b2e3      	uxtb	r3, r4
87801736:	b25c      	sxtb	r4, r3
87801738:	b16b      	cbz	r3, 87801756 <prvUnlockQueue+0x86>
8780173a:	692b      	ldr	r3, [r5, #16]
8780173c:	b15b      	cbz	r3, 87801756 <prvUnlockQueue+0x86>
8780173e:	4630      	mov	r0, r6
87801740:	f001 fb1a 	bl	87802d78 <xTaskRemoveFromEventList>
87801744:	2800      	cmp	r0, #0
87801746:	d0f4      	beq.n	87801732 <prvUnlockQueue+0x62>
87801748:	3c01      	subs	r4, #1
8780174a:	f001 fbc3 	bl	87802ed4 <vTaskMissedYield>
8780174e:	b2e3      	uxtb	r3, r4
87801750:	b25c      	sxtb	r4, r3
87801752:	2b00      	cmp	r3, #0
87801754:	d1f1      	bne.n	8780173a <prvUnlockQueue+0x6a>
87801756:	23ff      	movs	r3, #255	; 0xff
87801758:	f885 3044 	strb.w	r3, [r5, #68]	; 0x44
8780175c:	e8bd 4070 	ldmia.w	sp!, {r4, r5, r6, lr}
87801760:	f002 bb5a 	b.w	87803e18 <vPortExitCritical>

87801764 <xQueueGenericReset>:
87801764:	b570      	push	{r4, r5, r6, lr}
87801766:	b398      	cbz	r0, 878017d0 <xQueueGenericReset+0x6c>
87801768:	4604      	mov	r4, r0
8780176a:	460e      	mov	r6, r1
8780176c:	25ff      	movs	r5, #255	; 0xff
8780176e:	f002 fb11 	bl	87803d94 <vPortEnterCritical>
87801772:	6c20      	ldr	r0, [r4, #64]	; 0x40
87801774:	2100      	movs	r1, #0
87801776:	6be3      	ldr	r3, [r4, #60]	; 0x3c
87801778:	6822      	ldr	r2, [r4, #0]
8780177a:	63a1      	str	r1, [r4, #56]	; 0x38
8780177c:	f884 5044 	strb.w	r5, [r4, #68]	; 0x44
87801780:	fb03 f300 	mul.w	r3, r3, r0
87801784:	60a2      	str	r2, [r4, #8]
87801786:	f884 5045 	strb.w	r5, [r4, #69]	; 0x45
8780178a:	1a18      	subs	r0, r3, r0
8780178c:	4413      	add	r3, r2
8780178e:	4402      	add	r2, r0
87801790:	6063      	str	r3, [r4, #4]
87801792:	60e2      	str	r2, [r4, #12]
87801794:	b986      	cbnz	r6, 878017b8 <xQueueGenericReset+0x54>
87801796:	6923      	ldr	r3, [r4, #16]
87801798:	b91b      	cbnz	r3, 878017a2 <xQueueGenericReset+0x3e>
8780179a:	f002 fb3d 	bl	87803e18 <vPortExitCritical>
8780179e:	2001      	movs	r0, #1
878017a0:	bd70      	pop	{r4, r5, r6, pc}
878017a2:	f104 0010 	add.w	r0, r4, #16
878017a6:	f001 fae7 	bl	87802d78 <xTaskRemoveFromEventList>
878017aa:	2800      	cmp	r0, #0
878017ac:	d0f5      	beq.n	8780179a <xQueueGenericReset+0x36>
878017ae:	df00      	svc	0
878017b0:	f002 fb32 	bl	87803e18 <vPortExitCritical>
878017b4:	2001      	movs	r0, #1
878017b6:	bd70      	pop	{r4, r5, r6, pc}
878017b8:	f104 0010 	add.w	r0, r4, #16
878017bc:	f000 fbb8 	bl	87801f30 <vListInitialise>
878017c0:	f104 0024 	add.w	r0, r4, #36	; 0x24
878017c4:	f000 fbb4 	bl	87801f30 <vListInitialise>
878017c8:	f002 fb26 	bl	87803e18 <vPortExitCritical>
878017cc:	2001      	movs	r0, #1
878017ce:	bd70      	pop	{r4, r5, r6, pc}
878017d0:	f002 fb62 	bl	87803e98 <ulPortSetInterruptMask>
878017d4:	e7fe      	b.n	878017d4 <xQueueGenericReset+0x70>
878017d6:	bf00      	nop

878017d8 <xQueueGenericCreate>:
878017d8:	b5f8      	push	{r3, r4, r5, r6, r7, lr}
878017da:	b1a8      	cbz	r0, 87801808 <xQueueGenericCreate+0x30>
878017dc:	4606      	mov	r6, r0
878017de:	fb01 f000 	mul.w	r0, r1, r0
878017e2:	460d      	mov	r5, r1
878017e4:	4617      	mov	r7, r2
878017e6:	3050      	adds	r0, #80	; 0x50
878017e8:	f002 fbf8 	bl	87803fdc <pvPortMalloc>
878017ec:	4604      	mov	r4, r0
878017ee:	b148      	cbz	r0, 87801804 <xQueueGenericCreate+0x2c>
878017f0:	b96d      	cbnz	r5, 8780180e <xQueueGenericCreate+0x36>
878017f2:	6020      	str	r0, [r4, #0]
878017f4:	63e6      	str	r6, [r4, #60]	; 0x3c
878017f6:	2101      	movs	r1, #1
878017f8:	6425      	str	r5, [r4, #64]	; 0x40
878017fa:	4620      	mov	r0, r4
878017fc:	f7ff ffb2 	bl	87801764 <xQueueGenericReset>
87801800:	f884 704c 	strb.w	r7, [r4, #76]	; 0x4c
87801804:	4620      	mov	r0, r4
87801806:	bdf8      	pop	{r3, r4, r5, r6, r7, pc}
87801808:	f002 fb46 	bl	87803e98 <ulPortSetInterruptMask>
8780180c:	e7fe      	b.n	8780180c <xQueueGenericCreate+0x34>
8780180e:	f100 0350 	add.w	r3, r0, #80	; 0x50
87801812:	6003      	str	r3, [r0, #0]
87801814:	e7ee      	b.n	878017f4 <xQueueGenericCreate+0x1c>
87801816:	bf00      	nop

87801818 <xQueueCreateCountingSemaphore>:
87801818:	b510      	push	{r4, lr}
8780181a:	b160      	cbz	r0, 87801836 <xQueueCreateCountingSemaphore+0x1e>
8780181c:	4288      	cmp	r0, r1
8780181e:	460c      	mov	r4, r1
87801820:	d202      	bcs.n	87801828 <xQueueCreateCountingSemaphore+0x10>
87801822:	f002 fb39 	bl	87803e98 <ulPortSetInterruptMask>
87801826:	e7fe      	b.n	87801826 <xQueueCreateCountingSemaphore+0xe>
87801828:	2202      	movs	r2, #2
8780182a:	2100      	movs	r1, #0
8780182c:	f7ff ffd4 	bl	878017d8 <xQueueGenericCreate>
87801830:	b100      	cbz	r0, 87801834 <xQueueCreateCountingSemaphore+0x1c>
87801832:	6384      	str	r4, [r0, #56]	; 0x38
87801834:	bd10      	pop	{r4, pc}
87801836:	f002 fb2f 	bl	87803e98 <ulPortSetInterruptMask>
8780183a:	e7fe      	b.n	8780183a <xQueueCreateCountingSemaphore+0x22>

8780183c <xQueueGenericSend>:
8780183c:	e92d 47f0 	stmdb	sp!, {r4, r5, r6, r7, r8, r9, sl, lr}
87801840:	b084      	sub	sp, #16
87801842:	9201      	str	r2, [sp, #4]
87801844:	2800      	cmp	r0, #0
87801846:	d067      	beq.n	87801918 <xQueueGenericSend+0xdc>
87801848:	4688      	mov	r8, r1
8780184a:	461e      	mov	r6, r3
8780184c:	4604      	mov	r4, r0
8780184e:	2900      	cmp	r1, #0
87801850:	f000 808d 	beq.w	8780196e <xQueueGenericSend+0x132>
87801854:	2e02      	cmp	r6, #2
87801856:	d049      	beq.n	878018ec <xQueueGenericSend+0xb0>
87801858:	f001 fc66 	bl	87803128 <xTaskGetSchedulerState>
8780185c:	b918      	cbnz	r0, 87801866 <xQueueGenericSend+0x2a>
8780185e:	9b01      	ldr	r3, [sp, #4]
87801860:	2b00      	cmp	r3, #0
87801862:	f040 8081 	bne.w	87801968 <xQueueGenericSend+0x12c>
87801866:	f1a6 0a02 	sub.w	sl, r6, #2
8780186a:	2700      	movs	r7, #0
8780186c:	faba fa8a 	clz	sl, sl
87801870:	46b9      	mov	r9, r7
87801872:	ea4f 1a5a 	mov.w	sl, sl, lsr #5
87801876:	e027      	b.n	878018c8 <xQueueGenericSend+0x8c>
87801878:	f002 face 	bl	87803e18 <vPortExitCritical>
8780187c:	f001 f816 	bl	878028ac <vTaskSuspendAll>
87801880:	f002 fa88 	bl	87803d94 <vPortEnterCritical>
87801884:	f894 3044 	ldrb.w	r3, [r4, #68]	; 0x44
87801888:	2bff      	cmp	r3, #255	; 0xff
8780188a:	bf08      	it	eq
8780188c:	f884 9044 	strbeq.w	r9, [r4, #68]	; 0x44
87801890:	f894 3045 	ldrb.w	r3, [r4, #69]	; 0x45
87801894:	2bff      	cmp	r3, #255	; 0xff
87801896:	bf08      	it	eq
87801898:	f884 9045 	strbeq.w	r9, [r4, #69]	; 0x45
8780189c:	f002 fabc 	bl	87803e18 <vPortExitCritical>
878018a0:	a901      	add	r1, sp, #4
878018a2:	a802      	add	r0, sp, #8
878018a4:	f001 fae2 	bl	87802e6c <xTaskCheckForTimeOut>
878018a8:	2800      	cmp	r0, #0
878018aa:	d138      	bne.n	8780191e <xQueueGenericSend+0xe2>
878018ac:	f002 fa72 	bl	87803d94 <vPortEnterCritical>
878018b0:	6ba2      	ldr	r2, [r4, #56]	; 0x38
878018b2:	6be3      	ldr	r3, [r4, #60]	; 0x3c
878018b4:	429a      	cmp	r2, r3
878018b6:	d01f      	beq.n	878018f8 <xQueueGenericSend+0xbc>
878018b8:	f002 faae 	bl	87803e18 <vPortExitCritical>
878018bc:	4620      	mov	r0, r4
878018be:	f7ff ff07 	bl	878016d0 <prvUnlockQueue>
878018c2:	f001 f895 	bl	878029f0 <xTaskResumeAll>
878018c6:	2701      	movs	r7, #1
878018c8:	f002 fa64 	bl	87803d94 <vPortEnterCritical>
878018cc:	6ba3      	ldr	r3, [r4, #56]	; 0x38
878018ce:	6be2      	ldr	r2, [r4, #60]	; 0x3c
878018d0:	4293      	cmp	r3, r2
878018d2:	bf2c      	ite	cs
878018d4:	4653      	movcs	r3, sl
878018d6:	f04a 0301 	orrcc.w	r3, sl, #1
878018da:	bb7b      	cbnz	r3, 8780193c <xQueueGenericSend+0x100>
878018dc:	9d01      	ldr	r5, [sp, #4]
878018de:	b33d      	cbz	r5, 87801930 <xQueueGenericSend+0xf4>
878018e0:	2f00      	cmp	r7, #0
878018e2:	d1c9      	bne.n	87801878 <xQueueGenericSend+0x3c>
878018e4:	a802      	add	r0, sp, #8
878018e6:	f001 fab1 	bl	87802e4c <vTaskSetTimeOutState>
878018ea:	e7c5      	b.n	87801878 <xQueueGenericSend+0x3c>
878018ec:	6be3      	ldr	r3, [r4, #60]	; 0x3c
878018ee:	2b01      	cmp	r3, #1
878018f0:	d0b2      	beq.n	87801858 <xQueueGenericSend+0x1c>
878018f2:	f002 fad1 	bl	87803e98 <ulPortSetInterruptMask>
878018f6:	e7fe      	b.n	878018f6 <xQueueGenericSend+0xba>
878018f8:	f002 fa8e 	bl	87803e18 <vPortExitCritical>
878018fc:	9901      	ldr	r1, [sp, #4]
878018fe:	f104 0010 	add.w	r0, r4, #16
87801902:	f001 f9eb 	bl	87802cdc <vTaskPlaceOnEventList>
87801906:	4620      	mov	r0, r4
87801908:	f7ff fee2 	bl	878016d0 <prvUnlockQueue>
8780190c:	f001 f870 	bl	878029f0 <xTaskResumeAll>
87801910:	2800      	cmp	r0, #0
87801912:	d1d8      	bne.n	878018c6 <xQueueGenericSend+0x8a>
87801914:	df00      	svc	0
87801916:	e7d6      	b.n	878018c6 <xQueueGenericSend+0x8a>
87801918:	f002 fabe 	bl	87803e98 <ulPortSetInterruptMask>
8780191c:	e7fe      	b.n	8780191c <xQueueGenericSend+0xe0>
8780191e:	4620      	mov	r0, r4
87801920:	f7ff fed6 	bl	878016d0 <prvUnlockQueue>
87801924:	f001 f864 	bl	878029f0 <xTaskResumeAll>
87801928:	2000      	movs	r0, #0
8780192a:	b004      	add	sp, #16
8780192c:	e8bd 87f0 	ldmia.w	sp!, {r4, r5, r6, r7, r8, r9, sl, pc}
87801930:	f002 fa72 	bl	87803e18 <vPortExitCritical>
87801934:	4628      	mov	r0, r5
87801936:	b004      	add	sp, #16
87801938:	e8bd 87f0 	ldmia.w	sp!, {r4, r5, r6, r7, r8, r9, sl, pc}
8780193c:	4632      	mov	r2, r6
8780193e:	4641      	mov	r1, r8
87801940:	4620      	mov	r0, r4
87801942:	f7ff fe85 	bl	87801650 <prvCopyDataToQueue>
87801946:	6a63      	ldr	r3, [r4, #36]	; 0x24
87801948:	b93b      	cbnz	r3, 8780195a <xQueueGenericSend+0x11e>
8780194a:	b100      	cbz	r0, 8780194e <xQueueGenericSend+0x112>
8780194c:	df00      	svc	0
8780194e:	f002 fa63 	bl	87803e18 <vPortExitCritical>
87801952:	2001      	movs	r0, #1
87801954:	b004      	add	sp, #16
87801956:	e8bd 87f0 	ldmia.w	sp!, {r4, r5, r6, r7, r8, r9, sl, pc}
8780195a:	f104 0024 	add.w	r0, r4, #36	; 0x24
8780195e:	f001 fa0b 	bl	87802d78 <xTaskRemoveFromEventList>
87801962:	2800      	cmp	r0, #0
87801964:	d1f2      	bne.n	8780194c <xQueueGenericSend+0x110>
87801966:	e7f2      	b.n	8780194e <xQueueGenericSend+0x112>
87801968:	f002 fa96 	bl	87803e98 <ulPortSetInterruptMask>
8780196c:	e7fe      	b.n	8780196c <xQueueGenericSend+0x130>
8780196e:	6c03      	ldr	r3, [r0, #64]	; 0x40
87801970:	2b00      	cmp	r3, #0
87801972:	f43f af6f 	beq.w	87801854 <xQueueGenericSend+0x18>
87801976:	f002 fa8f 	bl	87803e98 <ulPortSetInterruptMask>
8780197a:	e7fe      	b.n	8780197a <xQueueGenericSend+0x13e>

8780197c <xQueueCreateMutex>:
8780197c:	b510      	push	{r4, lr}
8780197e:	4602      	mov	r2, r0
87801980:	2100      	movs	r1, #0
87801982:	2001      	movs	r0, #1
87801984:	f7ff ff28 	bl	878017d8 <xQueueGenericCreate>
87801988:	4604      	mov	r4, r0
8780198a:	b138      	cbz	r0, 8780199c <xQueueCreateMutex+0x20>
8780198c:	2300      	movs	r3, #0
8780198e:	6043      	str	r3, [r0, #4]
87801990:	461a      	mov	r2, r3
87801992:	6003      	str	r3, [r0, #0]
87801994:	4619      	mov	r1, r3
87801996:	60c3      	str	r3, [r0, #12]
87801998:	f7ff ff50 	bl	8780183c <xQueueGenericSend>
8780199c:	4620      	mov	r0, r4
8780199e:	bd10      	pop	{r4, pc}

878019a0 <xQueueGiveMutexRecursive>:
878019a0:	b538      	push	{r3, r4, r5, lr}
878019a2:	b138      	cbz	r0, 878019b4 <xQueueGiveMutexRecursive+0x14>
878019a4:	6845      	ldr	r5, [r0, #4]
878019a6:	4604      	mov	r4, r0
878019a8:	f001 fbb8 	bl	8780311c <xTaskGetCurrentTaskHandle>
878019ac:	4285      	cmp	r5, r0
878019ae:	d004      	beq.n	878019ba <xQueueGiveMutexRecursive+0x1a>
878019b0:	2000      	movs	r0, #0
878019b2:	bd38      	pop	{r3, r4, r5, pc}
878019b4:	f002 fa70 	bl	87803e98 <ulPortSetInterruptMask>
878019b8:	e7fe      	b.n	878019b8 <xQueueGiveMutexRecursive+0x18>
878019ba:	68e3      	ldr	r3, [r4, #12]
878019bc:	3b01      	subs	r3, #1
878019be:	60e3      	str	r3, [r4, #12]
878019c0:	b10b      	cbz	r3, 878019c6 <xQueueGiveMutexRecursive+0x26>
878019c2:	2001      	movs	r0, #1
878019c4:	bd38      	pop	{r3, r4, r5, pc}
878019c6:	4620      	mov	r0, r4
878019c8:	461a      	mov	r2, r3
878019ca:	4619      	mov	r1, r3
878019cc:	f7ff ff36 	bl	8780183c <xQueueGenericSend>
878019d0:	2001      	movs	r0, #1
878019d2:	bd38      	pop	{r3, r4, r5, pc}

878019d4 <xQueueGenericSendFromISR>:
878019d4:	e92d 43f8 	stmdb	sp!, {r3, r4, r5, r6, r7, r8, r9, lr}
878019d8:	2800      	cmp	r0, #0
878019da:	d03a      	beq.n	87801a52 <xQueueGenericSendFromISR+0x7e>
878019dc:	460f      	mov	r7, r1
878019de:	4690      	mov	r8, r2
878019e0:	4699      	mov	r9, r3
878019e2:	4604      	mov	r4, r0
878019e4:	2900      	cmp	r1, #0
878019e6:	d04d      	beq.n	87801a84 <xQueueGenericSendFromISR+0xb0>
878019e8:	f1b9 0f02 	cmp.w	r9, #2
878019ec:	d010      	beq.n	87801a10 <xQueueGenericSendFromISR+0x3c>
878019ee:	f002 fa6f 	bl	87803ed0 <vPortValidateInterruptPriority>
878019f2:	f002 fa51 	bl	87803e98 <ulPortSetInterruptMask>
878019f6:	6ba2      	ldr	r2, [r4, #56]	; 0x38
878019f8:	4606      	mov	r6, r0
878019fa:	6be3      	ldr	r3, [r4, #60]	; 0x3c
878019fc:	429a      	cmp	r2, r3
878019fe:	bf28      	it	cs
87801a00:	2500      	movcs	r5, #0
87801a02:	d311      	bcc.n	87801a28 <xQueueGenericSendFromISR+0x54>
87801a04:	4630      	mov	r0, r6
87801a06:	f002 fa31 	bl	87803e6c <vPortClearInterruptMask>
87801a0a:	4628      	mov	r0, r5
87801a0c:	e8bd 83f8 	ldmia.w	sp!, {r3, r4, r5, r6, r7, r8, r9, pc}
87801a10:	6be3      	ldr	r3, [r4, #60]	; 0x3c
87801a12:	2b01      	cmp	r3, #1
87801a14:	d002      	beq.n	87801a1c <xQueueGenericSendFromISR+0x48>
87801a16:	f002 fa3f 	bl	87803e98 <ulPortSetInterruptMask>
87801a1a:	e7fe      	b.n	87801a1a <xQueueGenericSendFromISR+0x46>
87801a1c:	f002 fa58 	bl	87803ed0 <vPortValidateInterruptPriority>
87801a20:	f002 fa3a 	bl	87803e98 <ulPortSetInterruptMask>
87801a24:	6ba3      	ldr	r3, [r4, #56]	; 0x38
87801a26:	4606      	mov	r6, r0
87801a28:	f894 5045 	ldrb.w	r5, [r4, #69]	; 0x45
87801a2c:	464a      	mov	r2, r9
87801a2e:	4639      	mov	r1, r7
87801a30:	4620      	mov	r0, r4
87801a32:	f7ff fe0d 	bl	87801650 <prvCopyDataToQueue>
87801a36:	b26d      	sxtb	r5, r5
87801a38:	1c6b      	adds	r3, r5, #1
87801a3a:	d00d      	beq.n	87801a58 <xQueueGenericSendFromISR+0x84>
87801a3c:	1c6b      	adds	r3, r5, #1
87801a3e:	4630      	mov	r0, r6
87801a40:	b25b      	sxtb	r3, r3
87801a42:	2501      	movs	r5, #1
87801a44:	f884 3045 	strb.w	r3, [r4, #69]	; 0x45
87801a48:	f002 fa10 	bl	87803e6c <vPortClearInterruptMask>
87801a4c:	4628      	mov	r0, r5
87801a4e:	e8bd 83f8 	ldmia.w	sp!, {r3, r4, r5, r6, r7, r8, r9, pc}
87801a52:	f002 fa21 	bl	87803e98 <ulPortSetInterruptMask>
87801a56:	e7fe      	b.n	87801a56 <xQueueGenericSendFromISR+0x82>
87801a58:	6a63      	ldr	r3, [r4, #36]	; 0x24
87801a5a:	2501      	movs	r5, #1
87801a5c:	2b00      	cmp	r3, #0
87801a5e:	d0d1      	beq.n	87801a04 <xQueueGenericSendFromISR+0x30>
87801a60:	f104 0024 	add.w	r0, r4, #36	; 0x24
87801a64:	2501      	movs	r5, #1
87801a66:	f001 f987 	bl	87802d78 <xTaskRemoveFromEventList>
87801a6a:	2800      	cmp	r0, #0
87801a6c:	bf18      	it	ne
87801a6e:	f1b8 0f00 	cmpne.w	r8, #0
87801a72:	4630      	mov	r0, r6
87801a74:	bf18      	it	ne
87801a76:	f8c8 5000 	strne.w	r5, [r8]
87801a7a:	f002 f9f7 	bl	87803e6c <vPortClearInterruptMask>
87801a7e:	4628      	mov	r0, r5
87801a80:	e8bd 83f8 	ldmia.w	sp!, {r3, r4, r5, r6, r7, r8, r9, pc}
87801a84:	6c03      	ldr	r3, [r0, #64]	; 0x40
87801a86:	2b00      	cmp	r3, #0
87801a88:	d0ae      	beq.n	878019e8 <xQueueGenericSendFromISR+0x14>
87801a8a:	f002 fa05 	bl	87803e98 <ulPortSetInterruptMask>
87801a8e:	e7fe      	b.n	87801a8e <xQueueGenericSendFromISR+0xba>

87801a90 <xQueueGiveFromISR>:
87801a90:	b5f8      	push	{r3, r4, r5, r6, r7, lr}
87801a92:	b320      	cbz	r0, 87801ade <xQueueGiveFromISR+0x4e>
87801a94:	6c03      	ldr	r3, [r0, #64]	; 0x40
87801a96:	4604      	mov	r4, r0
87801a98:	b9f3      	cbnz	r3, 87801ad8 <xQueueGiveFromISR+0x48>
87801a9a:	6803      	ldr	r3, [r0, #0]
87801a9c:	460e      	mov	r6, r1
87801a9e:	b39b      	cbz	r3, 87801b08 <xQueueGiveFromISR+0x78>
87801aa0:	f002 fa16 	bl	87803ed0 <vPortValidateInterruptPriority>
87801aa4:	f002 f9f8 	bl	87803e98 <ulPortSetInterruptMask>
87801aa8:	6ba2      	ldr	r2, [r4, #56]	; 0x38
87801aaa:	4607      	mov	r7, r0
87801aac:	6be3      	ldr	r3, [r4, #60]	; 0x3c
87801aae:	429a      	cmp	r2, r3
87801ab0:	bf28      	it	cs
87801ab2:	2500      	movcs	r5, #0
87801ab4:	d20b      	bcs.n	87801ace <xQueueGiveFromISR+0x3e>
87801ab6:	f894 3045 	ldrb.w	r3, [r4, #69]	; 0x45
87801aba:	3201      	adds	r2, #1
87801abc:	63a2      	str	r2, [r4, #56]	; 0x38
87801abe:	b25b      	sxtb	r3, r3
87801ac0:	1c5a      	adds	r2, r3, #1
87801ac2:	d00f      	beq.n	87801ae4 <xQueueGiveFromISR+0x54>
87801ac4:	3301      	adds	r3, #1
87801ac6:	2501      	movs	r5, #1
87801ac8:	b25b      	sxtb	r3, r3
87801aca:	f884 3045 	strb.w	r3, [r4, #69]	; 0x45
87801ace:	4638      	mov	r0, r7
87801ad0:	f002 f9cc 	bl	87803e6c <vPortClearInterruptMask>
87801ad4:	4628      	mov	r0, r5
87801ad6:	bdf8      	pop	{r3, r4, r5, r6, r7, pc}
87801ad8:	f002 f9de 	bl	87803e98 <ulPortSetInterruptMask>
87801adc:	e7fe      	b.n	87801adc <xQueueGiveFromISR+0x4c>
87801ade:	f002 f9db 	bl	87803e98 <ulPortSetInterruptMask>
87801ae2:	e7fe      	b.n	87801ae2 <xQueueGiveFromISR+0x52>
87801ae4:	6a63      	ldr	r3, [r4, #36]	; 0x24
87801ae6:	2501      	movs	r5, #1
87801ae8:	2b00      	cmp	r3, #0
87801aea:	d0f0      	beq.n	87801ace <xQueueGiveFromISR+0x3e>
87801aec:	f104 0024 	add.w	r0, r4, #36	; 0x24
87801af0:	f001 f942 	bl	87802d78 <xTaskRemoveFromEventList>
87801af4:	2800      	cmp	r0, #0
87801af6:	bf18      	it	ne
87801af8:	2e00      	cmpne	r6, #0
87801afa:	4638      	mov	r0, r7
87801afc:	bf18      	it	ne
87801afe:	6035      	strne	r5, [r6, #0]
87801b00:	f002 f9b4 	bl	87803e6c <vPortClearInterruptMask>
87801b04:	4628      	mov	r0, r5
87801b06:	bdf8      	pop	{r3, r4, r5, r6, r7, pc}
87801b08:	6843      	ldr	r3, [r0, #4]
87801b0a:	2b00      	cmp	r3, #0
87801b0c:	d0c8      	beq.n	87801aa0 <xQueueGiveFromISR+0x10>
87801b0e:	f002 f9c3 	bl	87803e98 <ulPortSetInterruptMask>
87801b12:	e7fe      	b.n	87801b12 <xQueueGiveFromISR+0x82>

87801b14 <xQueueGenericReceive>:
87801b14:	e92d 43f0 	stmdb	sp!, {r4, r5, r6, r7, r8, r9, lr}
87801b18:	b085      	sub	sp, #20
87801b1a:	9201      	str	r2, [sp, #4]
87801b1c:	2800      	cmp	r0, #0
87801b1e:	d061      	beq.n	87801be4 <xQueueGenericReceive+0xd0>
87801b20:	4688      	mov	r8, r1
87801b22:	4699      	mov	r9, r3
87801b24:	4604      	mov	r4, r0
87801b26:	2900      	cmp	r1, #0
87801b28:	f000 8097 	beq.w	87801c5a <xQueueGenericReceive+0x146>
87801b2c:	f001 fafc 	bl	87803128 <xTaskGetSchedulerState>
87801b30:	b920      	cbnz	r0, 87801b3c <xQueueGenericReceive+0x28>
87801b32:	9d01      	ldr	r5, [sp, #4]
87801b34:	b11d      	cbz	r5, 87801b3e <xQueueGenericReceive+0x2a>
87801b36:	f002 f9af 	bl	87803e98 <ulPortSetInterruptMask>
87801b3a:	e7fe      	b.n	87801b3a <xQueueGenericReceive+0x26>
87801b3c:	2500      	movs	r5, #0
87801b3e:	2700      	movs	r7, #0
87801b40:	e00c      	b.n	87801b5c <xQueueGenericReceive+0x48>
87801b42:	f002 f927 	bl	87803d94 <vPortEnterCritical>
87801b46:	6ba3      	ldr	r3, [r4, #56]	; 0x38
87801b48:	2b00      	cmp	r3, #0
87801b4a:	d039      	beq.n	87801bc0 <xQueueGenericReceive+0xac>
87801b4c:	f002 f964 	bl	87803e18 <vPortExitCritical>
87801b50:	4620      	mov	r0, r4
87801b52:	f7ff fdbd 	bl	878016d0 <prvUnlockQueue>
87801b56:	f000 ff4b 	bl	878029f0 <xTaskResumeAll>
87801b5a:	2501      	movs	r5, #1
87801b5c:	f002 f91a 	bl	87803d94 <vPortEnterCritical>
87801b60:	6ba6      	ldr	r6, [r4, #56]	; 0x38
87801b62:	2e00      	cmp	r6, #0
87801b64:	d14f      	bne.n	87801c06 <xQueueGenericReceive+0xf2>
87801b66:	9b01      	ldr	r3, [sp, #4]
87801b68:	2b00      	cmp	r3, #0
87801b6a:	d046      	beq.n	87801bfa <xQueueGenericReceive+0xe6>
87801b6c:	b915      	cbnz	r5, 87801b74 <xQueueGenericReceive+0x60>
87801b6e:	a802      	add	r0, sp, #8
87801b70:	f001 f96c 	bl	87802e4c <vTaskSetTimeOutState>
87801b74:	f002 f950 	bl	87803e18 <vPortExitCritical>
87801b78:	f000 fe98 	bl	878028ac <vTaskSuspendAll>
87801b7c:	f002 f90a 	bl	87803d94 <vPortEnterCritical>
87801b80:	f894 3044 	ldrb.w	r3, [r4, #68]	; 0x44
87801b84:	2bff      	cmp	r3, #255	; 0xff
87801b86:	bf08      	it	eq
87801b88:	f884 7044 	strbeq.w	r7, [r4, #68]	; 0x44
87801b8c:	f894 3045 	ldrb.w	r3, [r4, #69]	; 0x45
87801b90:	2bff      	cmp	r3, #255	; 0xff
87801b92:	bf08      	it	eq
87801b94:	f884 7045 	strbeq.w	r7, [r4, #69]	; 0x45
87801b98:	f002 f93e 	bl	87803e18 <vPortExitCritical>
87801b9c:	a901      	add	r1, sp, #4
87801b9e:	a802      	add	r0, sp, #8
87801ba0:	f001 f964 	bl	87802e6c <xTaskCheckForTimeOut>
87801ba4:	2800      	cmp	r0, #0
87801ba6:	d0cc      	beq.n	87801b42 <xQueueGenericReceive+0x2e>
87801ba8:	4620      	mov	r0, r4
87801baa:	f7ff fd91 	bl	878016d0 <prvUnlockQueue>
87801bae:	f000 ff1f 	bl	878029f0 <xTaskResumeAll>
87801bb2:	f002 f8ef 	bl	87803d94 <vPortEnterCritical>
87801bb6:	6ba3      	ldr	r3, [r4, #56]	; 0x38
87801bb8:	b1fb      	cbz	r3, 87801bfa <xQueueGenericReceive+0xe6>
87801bba:	f002 f92d 	bl	87803e18 <vPortExitCritical>
87801bbe:	e7cc      	b.n	87801b5a <xQueueGenericReceive+0x46>
87801bc0:	f002 f92a 	bl	87803e18 <vPortExitCritical>
87801bc4:	6823      	ldr	r3, [r4, #0]
87801bc6:	b183      	cbz	r3, 87801bea <xQueueGenericReceive+0xd6>
87801bc8:	9901      	ldr	r1, [sp, #4]
87801bca:	f104 0024 	add.w	r0, r4, #36	; 0x24
87801bce:	f001 f885 	bl	87802cdc <vTaskPlaceOnEventList>
87801bd2:	4620      	mov	r0, r4
87801bd4:	f7ff fd7c 	bl	878016d0 <prvUnlockQueue>
87801bd8:	f000 ff0a 	bl	878029f0 <xTaskResumeAll>
87801bdc:	2800      	cmp	r0, #0
87801bde:	d1bc      	bne.n	87801b5a <xQueueGenericReceive+0x46>
87801be0:	df00      	svc	0
87801be2:	e7ba      	b.n	87801b5a <xQueueGenericReceive+0x46>
87801be4:	f002 f958 	bl	87803e98 <ulPortSetInterruptMask>
87801be8:	e7fe      	b.n	87801be8 <xQueueGenericReceive+0xd4>
87801bea:	f002 f8d3 	bl	87803d94 <vPortEnterCritical>
87801bee:	6860      	ldr	r0, [r4, #4]
87801bf0:	f001 faaa 	bl	87803148 <vTaskPriorityInherit>
87801bf4:	f002 f910 	bl	87803e18 <vPortExitCritical>
87801bf8:	e7e6      	b.n	87801bc8 <xQueueGenericReceive+0xb4>
87801bfa:	f002 f90d 	bl	87803e18 <vPortExitCritical>
87801bfe:	2000      	movs	r0, #0
87801c00:	b005      	add	sp, #20
87801c02:	e8bd 83f0 	ldmia.w	sp!, {r4, r5, r6, r7, r8, r9, pc}
87801c06:	4641      	mov	r1, r8
87801c08:	4620      	mov	r0, r4
87801c0a:	68e5      	ldr	r5, [r4, #12]
87801c0c:	f004 fe04 	bl	87806818 <prvCopyDataFromQueue>
87801c10:	f1b9 0f00 	cmp.w	r9, #0
87801c14:	d10e      	bne.n	87801c34 <xQueueGenericReceive+0x120>
87801c16:	6823      	ldr	r3, [r4, #0]
87801c18:	3e01      	subs	r6, #1
87801c1a:	63a6      	str	r6, [r4, #56]	; 0x38
87801c1c:	b913      	cbnz	r3, 87801c24 <xQueueGenericReceive+0x110>
87801c1e:	f001 fb37 	bl	87803290 <pvTaskIncrementMutexHeldCount>
87801c22:	6060      	str	r0, [r4, #4]
87801c24:	6923      	ldr	r3, [r4, #16]
87801c26:	b98b      	cbnz	r3, 87801c4c <xQueueGenericReceive+0x138>
87801c28:	f002 f8f6 	bl	87803e18 <vPortExitCritical>
87801c2c:	2001      	movs	r0, #1
87801c2e:	b005      	add	sp, #20
87801c30:	e8bd 83f0 	ldmia.w	sp!, {r4, r5, r6, r7, r8, r9, pc}
87801c34:	6a63      	ldr	r3, [r4, #36]	; 0x24
87801c36:	60e5      	str	r5, [r4, #12]
87801c38:	2b00      	cmp	r3, #0
87801c3a:	d0f5      	beq.n	87801c28 <xQueueGenericReceive+0x114>
87801c3c:	f104 0024 	add.w	r0, r4, #36	; 0x24
87801c40:	f001 f89a 	bl	87802d78 <xTaskRemoveFromEventList>
87801c44:	2800      	cmp	r0, #0
87801c46:	d0ef      	beq.n	87801c28 <xQueueGenericReceive+0x114>
87801c48:	df00      	svc	0
87801c4a:	e7ed      	b.n	87801c28 <xQueueGenericReceive+0x114>
87801c4c:	f104 0010 	add.w	r0, r4, #16
87801c50:	f001 f892 	bl	87802d78 <xTaskRemoveFromEventList>
87801c54:	2800      	cmp	r0, #0
87801c56:	d1f7      	bne.n	87801c48 <xQueueGenericReceive+0x134>
87801c58:	e7e6      	b.n	87801c28 <xQueueGenericReceive+0x114>
87801c5a:	6c03      	ldr	r3, [r0, #64]	; 0x40
87801c5c:	2b00      	cmp	r3, #0
87801c5e:	f43f af65 	beq.w	87801b2c <xQueueGenericReceive+0x18>
87801c62:	f002 f919 	bl	87803e98 <ulPortSetInterruptMask>
87801c66:	e7fe      	b.n	87801c66 <xQueueGenericReceive+0x152>

87801c68 <xQueueTakeMutexRecursive>:
87801c68:	b570      	push	{r4, r5, r6, lr}
87801c6a:	b188      	cbz	r0, 87801c90 <xQueueTakeMutexRecursive+0x28>
87801c6c:	6846      	ldr	r6, [r0, #4]
87801c6e:	460d      	mov	r5, r1
87801c70:	4604      	mov	r4, r0
87801c72:	f001 fa53 	bl	8780311c <xTaskGetCurrentTaskHandle>
87801c76:	4286      	cmp	r6, r0
87801c78:	d00d      	beq.n	87801c96 <xQueueTakeMutexRecursive+0x2e>
87801c7a:	2300      	movs	r3, #0
87801c7c:	462a      	mov	r2, r5
87801c7e:	4619      	mov	r1, r3
87801c80:	4620      	mov	r0, r4
87801c82:	f7ff ff47 	bl	87801b14 <xQueueGenericReceive>
87801c86:	b110      	cbz	r0, 87801c8e <xQueueTakeMutexRecursive+0x26>
87801c88:	68e3      	ldr	r3, [r4, #12]
87801c8a:	3301      	adds	r3, #1
87801c8c:	60e3      	str	r3, [r4, #12]
87801c8e:	bd70      	pop	{r4, r5, r6, pc}
87801c90:	f002 f902 	bl	87803e98 <ulPortSetInterruptMask>
87801c94:	e7fe      	b.n	87801c94 <xQueueTakeMutexRecursive+0x2c>
87801c96:	68e3      	ldr	r3, [r4, #12]
87801c98:	2001      	movs	r0, #1
87801c9a:	4403      	add	r3, r0
87801c9c:	60e3      	str	r3, [r4, #12]
87801c9e:	bd70      	pop	{r4, r5, r6, pc}

87801ca0 <xQueueReceiveFromISR>:
87801ca0:	e92d 43f8 	stmdb	sp!, {r3, r4, r5, r6, r7, r8, r9, lr}
87801ca4:	b180      	cbz	r0, 87801cc8 <xQueueReceiveFromISR+0x28>
87801ca6:	4689      	mov	r9, r1
87801ca8:	4690      	mov	r8, r2
87801caa:	4605      	mov	r5, r0
87801cac:	b329      	cbz	r1, 87801cfa <xQueueReceiveFromISR+0x5a>
87801cae:	f002 f90f 	bl	87803ed0 <vPortValidateInterruptPriority>
87801cb2:	f002 f8f1 	bl	87803e98 <ulPortSetInterruptMask>
87801cb6:	6bac      	ldr	r4, [r5, #56]	; 0x38
87801cb8:	4607      	mov	r7, r0
87801cba:	b944      	cbnz	r4, 87801cce <xQueueReceiveFromISR+0x2e>
87801cbc:	4638      	mov	r0, r7
87801cbe:	f002 f8d5 	bl	87803e6c <vPortClearInterruptMask>
87801cc2:	4620      	mov	r0, r4
87801cc4:	e8bd 83f8 	ldmia.w	sp!, {r3, r4, r5, r6, r7, r8, r9, pc}
87801cc8:	f002 f8e6 	bl	87803e98 <ulPortSetInterruptMask>
87801ccc:	e7fe      	b.n	87801ccc <xQueueReceiveFromISR+0x2c>
87801cce:	f895 6044 	ldrb.w	r6, [r5, #68]	; 0x44
87801cd2:	4649      	mov	r1, r9
87801cd4:	4628      	mov	r0, r5
87801cd6:	3c01      	subs	r4, #1
87801cd8:	f004 fd9e 	bl	87806818 <prvCopyDataFromQueue>
87801cdc:	63ac      	str	r4, [r5, #56]	; 0x38
87801cde:	b276      	sxtb	r6, r6
87801ce0:	1c73      	adds	r3, r6, #1
87801ce2:	d010      	beq.n	87801d06 <xQueueReceiveFromISR+0x66>
87801ce4:	1c73      	adds	r3, r6, #1
87801ce6:	4638      	mov	r0, r7
87801ce8:	b25b      	sxtb	r3, r3
87801cea:	2401      	movs	r4, #1
87801cec:	f885 3044 	strb.w	r3, [r5, #68]	; 0x44
87801cf0:	f002 f8bc 	bl	87803e6c <vPortClearInterruptMask>
87801cf4:	4620      	mov	r0, r4
87801cf6:	e8bd 83f8 	ldmia.w	sp!, {r3, r4, r5, r6, r7, r8, r9, pc}
87801cfa:	6c03      	ldr	r3, [r0, #64]	; 0x40
87801cfc:	2b00      	cmp	r3, #0
87801cfe:	d0d6      	beq.n	87801cae <xQueueReceiveFromISR+0xe>
87801d00:	f002 f8ca 	bl	87803e98 <ulPortSetInterruptMask>
87801d04:	e7fe      	b.n	87801d04 <xQueueReceiveFromISR+0x64>
87801d06:	692b      	ldr	r3, [r5, #16]
87801d08:	2401      	movs	r4, #1
87801d0a:	2b00      	cmp	r3, #0
87801d0c:	d0d6      	beq.n	87801cbc <xQueueReceiveFromISR+0x1c>
87801d0e:	f105 0010 	add.w	r0, r5, #16
87801d12:	f001 f831 	bl	87802d78 <xTaskRemoveFromEventList>
87801d16:	2800      	cmp	r0, #0
87801d18:	bf18      	it	ne
87801d1a:	f1b8 0f00 	cmpne.w	r8, #0
87801d1e:	4638      	mov	r0, r7
87801d20:	bf18      	it	ne
87801d22:	f8c8 4000 	strne.w	r4, [r8]
87801d26:	f002 f8a1 	bl	87803e6c <vPortClearInterruptMask>
87801d2a:	4620      	mov	r0, r4
87801d2c:	e8bd 83f8 	ldmia.w	sp!, {r3, r4, r5, r6, r7, r8, r9, pc}

87801d30 <xQueuePeekFromISR>:
87801d30:	e92d 41f0 	stmdb	sp!, {r4, r5, r6, r7, r8, lr}
87801d34:	b1a0      	cbz	r0, 87801d60 <xQueuePeekFromISR+0x30>
87801d36:	460e      	mov	r6, r1
87801d38:	4604      	mov	r4, r0
87801d3a:	6c03      	ldr	r3, [r0, #64]	; 0x40
87801d3c:	b311      	cbz	r1, 87801d84 <xQueuePeekFromISR+0x54>
87801d3e:	b913      	cbnz	r3, 87801d46 <xQueuePeekFromISR+0x16>
87801d40:	f002 f8aa 	bl	87803e98 <ulPortSetInterruptMask>
87801d44:	e7fe      	b.n	87801d44 <xQueuePeekFromISR+0x14>
87801d46:	f002 f8c3 	bl	87803ed0 <vPortValidateInterruptPriority>
87801d4a:	f002 f8a5 	bl	87803e98 <ulPortSetInterruptMask>
87801d4e:	6ba5      	ldr	r5, [r4, #56]	; 0x38
87801d50:	4607      	mov	r7, r0
87801d52:	b945      	cbnz	r5, 87801d66 <xQueuePeekFromISR+0x36>
87801d54:	4638      	mov	r0, r7
87801d56:	f002 f889 	bl	87803e6c <vPortClearInterruptMask>
87801d5a:	4628      	mov	r0, r5
87801d5c:	e8bd 81f0 	ldmia.w	sp!, {r4, r5, r6, r7, r8, pc}
87801d60:	f002 f89a 	bl	87803e98 <ulPortSetInterruptMask>
87801d64:	e7fe      	b.n	87801d64 <xQueuePeekFromISR+0x34>
87801d66:	f8d4 800c 	ldr.w	r8, [r4, #12]
87801d6a:	4631      	mov	r1, r6
87801d6c:	4620      	mov	r0, r4
87801d6e:	2501      	movs	r5, #1
87801d70:	f004 fd52 	bl	87806818 <prvCopyDataFromQueue>
87801d74:	4638      	mov	r0, r7
87801d76:	f8c4 800c 	str.w	r8, [r4, #12]
87801d7a:	f002 f877 	bl	87803e6c <vPortClearInterruptMask>
87801d7e:	4628      	mov	r0, r5
87801d80:	e8bd 81f0 	ldmia.w	sp!, {r4, r5, r6, r7, r8, pc}
87801d84:	2b00      	cmp	r3, #0
87801d86:	d0db      	beq.n	87801d40 <xQueuePeekFromISR+0x10>
87801d88:	f002 f886 	bl	87803e98 <ulPortSetInterruptMask>
87801d8c:	e7fe      	b.n	87801d8c <xQueuePeekFromISR+0x5c>
87801d8e:	bf00      	nop

87801d90 <uxQueueMessagesWaiting>:
87801d90:	b510      	push	{r4, lr}
87801d92:	b138      	cbz	r0, 87801da4 <uxQueueMessagesWaiting+0x14>
87801d94:	4604      	mov	r4, r0
87801d96:	f001 fffd 	bl	87803d94 <vPortEnterCritical>
87801d9a:	6ba4      	ldr	r4, [r4, #56]	; 0x38
87801d9c:	f002 f83c 	bl	87803e18 <vPortExitCritical>
87801da0:	4620      	mov	r0, r4
87801da2:	bd10      	pop	{r4, pc}
87801da4:	f002 f878 	bl	87803e98 <ulPortSetInterruptMask>
87801da8:	e7fe      	b.n	87801da8 <uxQueueMessagesWaiting+0x18>
87801daa:	bf00      	nop

87801dac <uxQueueSpacesAvailable>:
87801dac:	b510      	push	{r4, lr}
87801dae:	b148      	cbz	r0, 87801dc4 <uxQueueSpacesAvailable+0x18>
87801db0:	4604      	mov	r4, r0
87801db2:	f001 ffef 	bl	87803d94 <vPortEnterCritical>
87801db6:	6ba3      	ldr	r3, [r4, #56]	; 0x38
87801db8:	6be4      	ldr	r4, [r4, #60]	; 0x3c
87801dba:	1ae4      	subs	r4, r4, r3
87801dbc:	f002 f82c 	bl	87803e18 <vPortExitCritical>
87801dc0:	4620      	mov	r0, r4
87801dc2:	bd10      	pop	{r4, pc}
87801dc4:	f002 f868 	bl	87803e98 <ulPortSetInterruptMask>
87801dc8:	e7fe      	b.n	87801dc8 <uxQueueSpacesAvailable+0x1c>
87801dca:	bf00      	nop

87801dcc <uxQueueMessagesWaitingFromISR>:
87801dcc:	b108      	cbz	r0, 87801dd2 <uxQueueMessagesWaitingFromISR+0x6>
87801dce:	6b80      	ldr	r0, [r0, #56]	; 0x38
87801dd0:	4770      	bx	lr
87801dd2:	b508      	push	{r3, lr}
87801dd4:	f002 f860 	bl	87803e98 <ulPortSetInterruptMask>
87801dd8:	e7fe      	b.n	87801dd8 <uxQueueMessagesWaitingFromISR+0xc>
87801dda:	bf00      	nop

87801ddc <vQueueDelete>:
87801ddc:	b510      	push	{r4, lr}
87801dde:	f649 74b4 	movw	r4, #40884	; 0x9fb4
87801de2:	f6c8 0401 	movt	r4, #34817	; 0x8801
87801de6:	2200      	movs	r2, #0
87801de8:	4623      	mov	r3, r4
87801dea:	b1a0      	cbz	r0, 87801e16 <vQueueDelete+0x3a>
87801dec:	6859      	ldr	r1, [r3, #4]
87801dee:	3308      	adds	r3, #8
87801df0:	4288      	cmp	r0, r1
87801df2:	d006      	beq.n	87801e02 <vQueueDelete+0x26>
87801df4:	3201      	adds	r2, #1
87801df6:	2a08      	cmp	r2, #8
87801df8:	d1f8      	bne.n	87801dec <vQueueDelete+0x10>
87801dfa:	e8bd 4010 	ldmia.w	sp!, {r4, lr}
87801dfe:	f002 b979 	b.w	878040f4 <vPortFree>
87801e02:	eb04 01c2 	add.w	r1, r4, r2, lsl #3
87801e06:	2300      	movs	r3, #0
87801e08:	f844 3032 	str.w	r3, [r4, r2, lsl #3]
87801e0c:	604b      	str	r3, [r1, #4]
87801e0e:	e8bd 4010 	ldmia.w	sp!, {r4, lr}
87801e12:	f002 b96f 	b.w	878040f4 <vPortFree>
87801e16:	f002 f83f 	bl	87803e98 <ulPortSetInterruptMask>
87801e1a:	e7fe      	b.n	87801e1a <vQueueDelete+0x3e>

87801e1c <uxQueueGetQueueNumber>:
87801e1c:	6c80      	ldr	r0, [r0, #72]	; 0x48
87801e1e:	4770      	bx	lr

87801e20 <vQueueSetQueueNumber>:
87801e20:	6481      	str	r1, [r0, #72]	; 0x48
87801e22:	4770      	bx	lr

87801e24 <ucQueueGetQueueType>:
87801e24:	f890 004c 	ldrb.w	r0, [r0, #76]	; 0x4c
87801e28:	4770      	bx	lr
87801e2a:	bf00      	nop

87801e2c <xQueueIsQueueEmptyFromISR>:
87801e2c:	b120      	cbz	r0, 87801e38 <xQueueIsQueueEmptyFromISR+0xc>
87801e2e:	6b80      	ldr	r0, [r0, #56]	; 0x38
87801e30:	fab0 f080 	clz	r0, r0
87801e34:	0940      	lsrs	r0, r0, #5
87801e36:	4770      	bx	lr
87801e38:	b508      	push	{r3, lr}
87801e3a:	f002 f82d 	bl	87803e98 <ulPortSetInterruptMask>
87801e3e:	e7fe      	b.n	87801e3e <xQueueIsQueueEmptyFromISR+0x12>

87801e40 <xQueueIsQueueFullFromISR>:
87801e40:	b508      	push	{r3, lr}
87801e42:	b130      	cbz	r0, 87801e52 <xQueueIsQueueFullFromISR+0x12>
87801e44:	6b83      	ldr	r3, [r0, #56]	; 0x38
87801e46:	6bc0      	ldr	r0, [r0, #60]	; 0x3c
87801e48:	1ac0      	subs	r0, r0, r3
87801e4a:	fab0 f080 	clz	r0, r0
87801e4e:	0940      	lsrs	r0, r0, #5
87801e50:	bd08      	pop	{r3, pc}
87801e52:	f002 f821 	bl	87803e98 <ulPortSetInterruptMask>
87801e56:	e7fe      	b.n	87801e56 <xQueueIsQueueFullFromISR+0x16>

87801e58 <vQueueAddToRegistry>:
87801e58:	f649 72b4 	movw	r2, #40884	; 0x9fb4
87801e5c:	2300      	movs	r3, #0
87801e5e:	f6c8 0201 	movt	r2, #34817	; 0x8801
87801e62:	b430      	push	{r4, r5}
87801e64:	f852 4033 	ldr.w	r4, [r2, r3, lsl #3]
87801e68:	eb02 05c3 	add.w	r5, r2, r3, lsl #3
87801e6c:	b124      	cbz	r4, 87801e78 <vQueueAddToRegistry+0x20>
87801e6e:	3301      	adds	r3, #1
87801e70:	2b08      	cmp	r3, #8
87801e72:	d1f7      	bne.n	87801e64 <vQueueAddToRegistry+0xc>
87801e74:	bc30      	pop	{r4, r5}
87801e76:	4770      	bx	lr
87801e78:	6068      	str	r0, [r5, #4]
87801e7a:	f842 1033 	str.w	r1, [r2, r3, lsl #3]
87801e7e:	bc30      	pop	{r4, r5}
87801e80:	4770      	bx	lr
87801e82:	bf00      	nop

87801e84 <pcQueueGetName>:
87801e84:	b410      	push	{r4}
87801e86:	f649 74b4 	movw	r4, #40884	; 0x9fb4
87801e8a:	f6c8 0401 	movt	r4, #34817	; 0x8801
87801e8e:	2200      	movs	r2, #0
87801e90:	4623      	mov	r3, r4
87801e92:	6859      	ldr	r1, [r3, #4]
87801e94:	3308      	adds	r3, #8
87801e96:	4281      	cmp	r1, r0
87801e98:	d006      	beq.n	87801ea8 <pcQueueGetName+0x24>
87801e9a:	3201      	adds	r2, #1
87801e9c:	2a08      	cmp	r2, #8
87801e9e:	d1f8      	bne.n	87801e92 <pcQueueGetName+0xe>
87801ea0:	2000      	movs	r0, #0
87801ea2:	f85d 4b04 	ldr.w	r4, [sp], #4
87801ea6:	4770      	bx	lr
87801ea8:	f854 0032 	ldr.w	r0, [r4, r2, lsl #3]
87801eac:	f85d 4b04 	ldr.w	r4, [sp], #4
87801eb0:	4770      	bx	lr
87801eb2:	bf00      	nop

87801eb4 <vQueueUnregisterQueue>:
87801eb4:	b410      	push	{r4}
87801eb6:	f649 74b4 	movw	r4, #40884	; 0x9fb4
87801eba:	f6c8 0401 	movt	r4, #34817	; 0x8801
87801ebe:	2200      	movs	r2, #0
87801ec0:	4623      	mov	r3, r4
87801ec2:	6859      	ldr	r1, [r3, #4]
87801ec4:	3308      	adds	r3, #8
87801ec6:	4281      	cmp	r1, r0
87801ec8:	d005      	beq.n	87801ed6 <vQueueUnregisterQueue+0x22>
87801eca:	3201      	adds	r2, #1
87801ecc:	2a08      	cmp	r2, #8
87801ece:	d1f8      	bne.n	87801ec2 <vQueueUnregisterQueue+0xe>
87801ed0:	f85d 4b04 	ldr.w	r4, [sp], #4
87801ed4:	4770      	bx	lr
87801ed6:	eb04 01c2 	add.w	r1, r4, r2, lsl #3
87801eda:	2300      	movs	r3, #0
87801edc:	f844 3032 	str.w	r3, [r4, r2, lsl #3]
87801ee0:	604b      	str	r3, [r1, #4]
87801ee2:	f85d 4b04 	ldr.w	r4, [sp], #4
87801ee6:	4770      	bx	lr

87801ee8 <vQueueWaitForMessageRestricted>:
87801ee8:	b570      	push	{r4, r5, r6, lr}
87801eea:	4604      	mov	r4, r0
87801eec:	460d      	mov	r5, r1
87801eee:	4616      	mov	r6, r2
87801ef0:	f001 ff50 	bl	87803d94 <vPortEnterCritical>
87801ef4:	f894 3044 	ldrb.w	r3, [r4, #68]	; 0x44
87801ef8:	2bff      	cmp	r3, #255	; 0xff
87801efa:	bf04      	itt	eq
87801efc:	2300      	moveq	r3, #0
87801efe:	f884 3044 	strbeq.w	r3, [r4, #68]	; 0x44
87801f02:	f894 3045 	ldrb.w	r3, [r4, #69]	; 0x45
87801f06:	2bff      	cmp	r3, #255	; 0xff
87801f08:	bf04      	itt	eq
87801f0a:	2300      	moveq	r3, #0
87801f0c:	f884 3045 	strbeq.w	r3, [r4, #69]	; 0x45
87801f10:	f001 ff82 	bl	87803e18 <vPortExitCritical>
87801f14:	6ba3      	ldr	r3, [r4, #56]	; 0x38
87801f16:	b92b      	cbnz	r3, 87801f24 <vQueueWaitForMessageRestricted+0x3c>
87801f18:	4632      	mov	r2, r6
87801f1a:	4629      	mov	r1, r5
87801f1c:	f104 0024 	add.w	r0, r4, #36	; 0x24
87801f20:	f000 ff10 	bl	87802d44 <vTaskPlaceOnEventListRestricted>
87801f24:	4620      	mov	r0, r4
87801f26:	e8bd 4070 	ldmia.w	sp!, {r4, r5, r6, lr}
87801f2a:	f7ff bbd1 	b.w	878016d0 <prvUnlockQueue>
87801f2e:	bf00      	nop

87801f30 <vListInitialise>:
87801f30:	f100 0308 	add.w	r3, r0, #8
87801f34:	f04f 31ff 	mov.w	r1, #4294967295	; 0xffffffff
87801f38:	2200      	movs	r2, #0
87801f3a:	6081      	str	r1, [r0, #8]
87801f3c:	e880 000c 	stmia.w	r0, {r2, r3}
87801f40:	60c3      	str	r3, [r0, #12]
87801f42:	6103      	str	r3, [r0, #16]
87801f44:	4770      	bx	lr
87801f46:	bf00      	nop

87801f48 <vListInitialiseItem>:
87801f48:	2300      	movs	r3, #0
87801f4a:	6103      	str	r3, [r0, #16]
87801f4c:	4770      	bx	lr
87801f4e:	bf00      	nop

87801f50 <vListInsertEnd>:
87801f50:	e890 000c 	ldmia.w	r0, {r2, r3}
87801f54:	b410      	push	{r4}
87801f56:	3201      	adds	r2, #1
87801f58:	689c      	ldr	r4, [r3, #8]
87801f5a:	604b      	str	r3, [r1, #4]
87801f5c:	608c      	str	r4, [r1, #8]
87801f5e:	689c      	ldr	r4, [r3, #8]
87801f60:	6061      	str	r1, [r4, #4]
87801f62:	6099      	str	r1, [r3, #8]
87801f64:	f85d 4b04 	ldr.w	r4, [sp], #4
87801f68:	6108      	str	r0, [r1, #16]
87801f6a:	6002      	str	r2, [r0, #0]
87801f6c:	4770      	bx	lr
87801f6e:	bf00      	nop

87801f70 <vListInsert>:
87801f70:	b430      	push	{r4, r5}
87801f72:	680d      	ldr	r5, [r1, #0]
87801f74:	1c6b      	adds	r3, r5, #1
87801f76:	bf18      	it	ne
87801f78:	f100 0208 	addne.w	r2, r0, #8
87801f7c:	d101      	bne.n	87801f82 <vListInsert+0x12>
87801f7e:	e00e      	b.n	87801f9e <vListInsert+0x2e>
87801f80:	461a      	mov	r2, r3
87801f82:	6853      	ldr	r3, [r2, #4]
87801f84:	681c      	ldr	r4, [r3, #0]
87801f86:	42a5      	cmp	r5, r4
87801f88:	d2fa      	bcs.n	87801f80 <vListInsert+0x10>
87801f8a:	6804      	ldr	r4, [r0, #0]
87801f8c:	604b      	str	r3, [r1, #4]
87801f8e:	6099      	str	r1, [r3, #8]
87801f90:	3401      	adds	r4, #1
87801f92:	608a      	str	r2, [r1, #8]
87801f94:	6051      	str	r1, [r2, #4]
87801f96:	6108      	str	r0, [r1, #16]
87801f98:	6004      	str	r4, [r0, #0]
87801f9a:	bc30      	pop	{r4, r5}
87801f9c:	4770      	bx	lr
87801f9e:	6902      	ldr	r2, [r0, #16]
87801fa0:	6853      	ldr	r3, [r2, #4]
87801fa2:	e7f2      	b.n	87801f8a <vListInsert+0x1a>

87801fa4 <uxListRemove>:
87801fa4:	6902      	ldr	r2, [r0, #16]
87801fa6:	6843      	ldr	r3, [r0, #4]
87801fa8:	6881      	ldr	r1, [r0, #8]
87801faa:	b410      	push	{r4}
87801fac:	6854      	ldr	r4, [r2, #4]
87801fae:	6099      	str	r1, [r3, #8]
87801fb0:	6881      	ldr	r1, [r0, #8]
87801fb2:	42a0      	cmp	r0, r4
87801fb4:	f85d 4b04 	ldr.w	r4, [sp], #4
87801fb8:	604b      	str	r3, [r1, #4]
87801fba:	6813      	ldr	r3, [r2, #0]
87801fbc:	bf08      	it	eq
87801fbe:	6051      	streq	r1, [r2, #4]
87801fc0:	2100      	movs	r1, #0
87801fc2:	6101      	str	r1, [r0, #16]
87801fc4:	1e58      	subs	r0, r3, #1
87801fc6:	6010      	str	r0, [r2, #0]
87801fc8:	4770      	bx	lr
87801fca:	bf00      	nop

87801fcc <xEventGroupCreate>:
87801fcc:	b510      	push	{r4, lr}
87801fce:	201c      	movs	r0, #28
87801fd0:	f002 f804 	bl	87803fdc <pvPortMalloc>
87801fd4:	4604      	mov	r4, r0
87801fd6:	b120      	cbz	r0, 87801fe2 <xEventGroupCreate+0x16>
87801fd8:	2300      	movs	r3, #0
87801fda:	f840 3b04 	str.w	r3, [r0], #4
87801fde:	f7ff ffa7 	bl	87801f30 <vListInitialise>
87801fe2:	4620      	mov	r0, r4
87801fe4:	bd10      	pop	{r4, pc}
87801fe6:	bf00      	nop

87801fe8 <xEventGroupWaitBits>:
87801fe8:	e92d 43f8 	stmdb	sp!, {r3, r4, r5, r6, r7, r8, r9, lr}
87801fec:	f8dd 8020 	ldr.w	r8, [sp, #32]
87801ff0:	b340      	cbz	r0, 87802044 <xEventGroupWaitBits+0x5c>
87801ff2:	f011 4f7f 	tst.w	r1, #4278190080	; 0xff000000
87801ff6:	460d      	mov	r5, r1
87801ff8:	d121      	bne.n	8780203e <xEventGroupWaitBits+0x56>
87801ffa:	b911      	cbnz	r1, 87802002 <xEventGroupWaitBits+0x1a>
87801ffc:	f001 ff4c 	bl	87803e98 <ulPortSetInterruptMask>
87802000:	e7fe      	b.n	87802000 <xEventGroupWaitBits+0x18>
87802002:	4699      	mov	r9, r3
87802004:	4617      	mov	r7, r2
87802006:	4606      	mov	r6, r0
87802008:	f001 f88e 	bl	87803128 <xTaskGetSchedulerState>
8780200c:	1c03      	adds	r3, r0, #0
8780200e:	bf18      	it	ne
87802010:	2301      	movne	r3, #1
87802012:	f1b8 0f00 	cmp.w	r8, #0
87802016:	bf08      	it	eq
87802018:	f043 0301 	orreq.w	r3, r3, #1
8780201c:	b913      	cbnz	r3, 87802024 <xEventGroupWaitBits+0x3c>
8780201e:	f001 ff3b 	bl	87803e98 <ulPortSetInterruptMask>
87802022:	e7fe      	b.n	87802022 <xEventGroupWaitBits+0x3a>
87802024:	f000 fc42 	bl	878028ac <vTaskSuspendAll>
87802028:	6834      	ldr	r4, [r6, #0]
8780202a:	f1b9 0f00 	cmp.w	r9, #0
8780202e:	d10c      	bne.n	8780204a <xEventGroupWaitBits+0x62>
87802030:	4225      	tst	r5, r4
87802032:	d00d      	beq.n	87802050 <xEventGroupWaitBits+0x68>
87802034:	b17f      	cbz	r7, 87802056 <xEventGroupWaitBits+0x6e>
87802036:	ea24 0505 	bic.w	r5, r4, r5
8780203a:	6035      	str	r5, [r6, #0]
8780203c:	e00b      	b.n	87802056 <xEventGroupWaitBits+0x6e>
8780203e:	f001 ff2b 	bl	87803e98 <ulPortSetInterruptMask>
87802042:	e7fe      	b.n	87802042 <xEventGroupWaitBits+0x5a>
87802044:	f001 ff28 	bl	87803e98 <ulPortSetInterruptMask>
87802048:	e7fe      	b.n	87802048 <xEventGroupWaitBits+0x60>
8780204a:	ea35 0304 	bics.w	r3, r5, r4
8780204e:	d0f1      	beq.n	87802034 <xEventGroupWaitBits+0x4c>
87802050:	f1b8 0f00 	cmp.w	r8, #0
87802054:	d104      	bne.n	87802060 <xEventGroupWaitBits+0x78>
87802056:	f000 fccb 	bl	878029f0 <xTaskResumeAll>
8780205a:	4620      	mov	r0, r4
8780205c:	e8bd 83f8 	ldmia.w	sp!, {r3, r4, r5, r6, r7, r8, r9, pc}
87802060:	2f00      	cmp	r7, #0
87802062:	bf0c      	ite	eq
87802064:	2100      	moveq	r1, #0
87802066:	f04f 7180 	movne.w	r1, #16777216	; 0x1000000
8780206a:	f1b9 0f00 	cmp.w	r9, #0
8780206e:	d001      	beq.n	87802074 <xEventGroupWaitBits+0x8c>
87802070:	f041 6180 	orr.w	r1, r1, #67108864	; 0x4000000
87802074:	4642      	mov	r2, r8
87802076:	4329      	orrs	r1, r5
87802078:	1d30      	adds	r0, r6, #4
8780207a:	f000 fe43 	bl	87802d04 <vTaskPlaceOnUnorderedEventList>
8780207e:	f000 fcb7 	bl	878029f0 <xTaskResumeAll>
87802082:	b900      	cbnz	r0, 87802086 <xEventGroupWaitBits+0x9e>
87802084:	df00      	svc	0
87802086:	f001 f8f5 	bl	87803274 <uxTaskResetEventItemValue>
8780208a:	0183      	lsls	r3, r0, #6
8780208c:	4604      	mov	r4, r0
8780208e:	d503      	bpl.n	87802098 <xEventGroupWaitBits+0xb0>
87802090:	f024 407f 	bic.w	r0, r4, #4278190080	; 0xff000000
87802094:	e8bd 83f8 	ldmia.w	sp!, {r3, r4, r5, r6, r7, r8, r9, pc}
87802098:	f001 fe7c 	bl	87803d94 <vPortEnterCritical>
8780209c:	6834      	ldr	r4, [r6, #0]
8780209e:	f1b9 0f00 	cmp.w	r9, #0
878020a2:	d108      	bne.n	878020b6 <xEventGroupWaitBits+0xce>
878020a4:	4225      	tst	r5, r4
878020a6:	d003      	beq.n	878020b0 <xEventGroupWaitBits+0xc8>
878020a8:	b117      	cbz	r7, 878020b0 <xEventGroupWaitBits+0xc8>
878020aa:	ea24 0505 	bic.w	r5, r4, r5
878020ae:	6035      	str	r5, [r6, #0]
878020b0:	f001 feb2 	bl	87803e18 <vPortExitCritical>
878020b4:	e7ec      	b.n	87802090 <xEventGroupWaitBits+0xa8>
878020b6:	ea35 0304 	bics.w	r3, r5, r4
878020ba:	d1f9      	bne.n	878020b0 <xEventGroupWaitBits+0xc8>
878020bc:	e7f4      	b.n	878020a8 <xEventGroupWaitBits+0xc0>
878020be:	bf00      	nop

878020c0 <xEventGroupClearBits>:
878020c0:	b570      	push	{r4, r5, r6, lr}
878020c2:	b188      	cbz	r0, 878020e8 <xEventGroupClearBits+0x28>
878020c4:	f011 4f7f 	tst.w	r1, #4278190080	; 0xff000000
878020c8:	460c      	mov	r4, r1
878020ca:	d002      	beq.n	878020d2 <xEventGroupClearBits+0x12>
878020cc:	f001 fee4 	bl	87803e98 <ulPortSetInterruptMask>
878020d0:	e7fe      	b.n	878020d0 <xEventGroupClearBits+0x10>
878020d2:	4605      	mov	r5, r0
878020d4:	f001 fe5e 	bl	87803d94 <vPortEnterCritical>
878020d8:	682e      	ldr	r6, [r5, #0]
878020da:	ea26 0404 	bic.w	r4, r6, r4
878020de:	602c      	str	r4, [r5, #0]
878020e0:	f001 fe9a 	bl	87803e18 <vPortExitCritical>
878020e4:	4630      	mov	r0, r6
878020e6:	bd70      	pop	{r4, r5, r6, pc}
878020e8:	f001 fed6 	bl	87803e98 <ulPortSetInterruptMask>
878020ec:	e7fe      	b.n	878020ec <xEventGroupClearBits+0x2c>
878020ee:	bf00      	nop

878020f0 <vEventGroupClearBitsCallback>:
878020f0:	f7ff bfe6 	b.w	878020c0 <xEventGroupClearBits>

878020f4 <xEventGroupClearBitsFromISR>:
878020f4:	460a      	mov	r2, r1
878020f6:	4601      	mov	r1, r0
878020f8:	f242 00f1 	movw	r0, #8433	; 0x20f1
878020fc:	2300      	movs	r3, #0
878020fe:	f2c8 7080 	movt	r0, #34688	; 0x8780
87802102:	f001 bc9b 	b.w	87803a3c <xTimerPendFunctionCallFromISR>
87802106:	bf00      	nop

87802108 <xEventGroupGetBitsFromISR>:
87802108:	b510      	push	{r4, lr}
8780210a:	4604      	mov	r4, r0
8780210c:	f001 fec4 	bl	87803e98 <ulPortSetInterruptMask>
87802110:	6824      	ldr	r4, [r4, #0]
87802112:	f001 feab 	bl	87803e6c <vPortClearInterruptMask>
87802116:	4620      	mov	r0, r4
87802118:	bd10      	pop	{r4, pc}
8780211a:	bf00      	nop

8780211c <xEventGroupSetBits>:
8780211c:	b5f8      	push	{r3, r4, r5, r6, r7, lr}
8780211e:	b3a8      	cbz	r0, 8780218c <xEventGroupSetBits+0x70>
87802120:	f011 467f 	ands.w	r6, r1, #4278190080	; 0xff000000
87802124:	460c      	mov	r4, r1
87802126:	d002      	beq.n	8780212e <xEventGroupSetBits+0x12>
87802128:	f001 feb6 	bl	87803e98 <ulPortSetInterruptMask>
8780212c:	e7fe      	b.n	8780212c <xEventGroupSetBits+0x10>
8780212e:	4605      	mov	r5, r0
87802130:	f000 fbbc 	bl	878028ac <vTaskSuspendAll>
87802134:	6928      	ldr	r0, [r5, #16]
87802136:	f105 070c 	add.w	r7, r5, #12
8780213a:	6829      	ldr	r1, [r5, #0]
8780213c:	4287      	cmp	r7, r0
8780213e:	ea41 0104 	orr.w	r1, r1, r4
87802142:	6029      	str	r1, [r5, #0]
87802144:	d025      	beq.n	87802192 <xEventGroupSetBits+0x76>
87802146:	4634      	mov	r4, r6
87802148:	e00c      	b.n	87802164 <xEventGroupSetBits+0x48>
8780214a:	420a      	tst	r2, r1
8780214c:	d007      	beq.n	8780215e <xEventGroupSetBits+0x42>
8780214e:	01db      	lsls	r3, r3, #7
87802150:	f041 7100 	orr.w	r1, r1, #33554432	; 0x2000000
87802154:	bf48      	it	mi
87802156:	4314      	orrmi	r4, r2
87802158:	f000 fe44 	bl	87802de4 <xTaskRemoveFromUnorderedEventList>
8780215c:	6829      	ldr	r1, [r5, #0]
8780215e:	42b7      	cmp	r7, r6
87802160:	4630      	mov	r0, r6
87802162:	d00c      	beq.n	8780217e <xEventGroupSetBits+0x62>
87802164:	e890 0048 	ldmia.w	r0, {r3, r6}
87802168:	f013 6f80 	tst.w	r3, #67108864	; 0x4000000
8780216c:	f023 427f 	bic.w	r2, r3, #4278190080	; 0xff000000
87802170:	d0eb      	beq.n	8780214a <xEventGroupSetBits+0x2e>
87802172:	ea32 0e01 	bics.w	lr, r2, r1
87802176:	d0ea      	beq.n	8780214e <xEventGroupSetBits+0x32>
87802178:	42b7      	cmp	r7, r6
8780217a:	4630      	mov	r0, r6
8780217c:	d1f2      	bne.n	87802164 <xEventGroupSetBits+0x48>
8780217e:	43e4      	mvns	r4, r4
87802180:	4021      	ands	r1, r4
87802182:	6029      	str	r1, [r5, #0]
87802184:	f000 fc34 	bl	878029f0 <xTaskResumeAll>
87802188:	6828      	ldr	r0, [r5, #0]
8780218a:	bdf8      	pop	{r3, r4, r5, r6, r7, pc}
8780218c:	f001 fe84 	bl	87803e98 <ulPortSetInterruptMask>
87802190:	e7fe      	b.n	87802190 <xEventGroupSetBits+0x74>
87802192:	f04f 34ff 	mov.w	r4, #4294967295	; 0xffffffff
87802196:	e7f3      	b.n	87802180 <xEventGroupSetBits+0x64>

87802198 <xEventGroupSync>:
87802198:	f012 4f7f 	tst.w	r2, #4278190080	; 0xff000000
8780219c:	e92d 41f0 	stmdb	sp!, {r4, r5, r6, r7, r8, lr}
878021a0:	d123      	bne.n	878021ea <xEventGroupSync+0x52>
878021a2:	4615      	mov	r5, r2
878021a4:	b912      	cbnz	r2, 878021ac <xEventGroupSync+0x14>
878021a6:	f001 fe77 	bl	87803e98 <ulPortSetInterruptMask>
878021aa:	e7fe      	b.n	878021aa <xEventGroupSync+0x12>
878021ac:	461f      	mov	r7, r3
878021ae:	4688      	mov	r8, r1
878021b0:	4606      	mov	r6, r0
878021b2:	f000 ffb9 	bl	87803128 <xTaskGetSchedulerState>
878021b6:	fab7 f187 	clz	r1, r7
878021ba:	0949      	lsrs	r1, r1, #5
878021bc:	2800      	cmp	r0, #0
878021be:	bf18      	it	ne
878021c0:	f041 0101 	orrne.w	r1, r1, #1
878021c4:	b911      	cbnz	r1, 878021cc <xEventGroupSync+0x34>
878021c6:	f001 fe67 	bl	87803e98 <ulPortSetInterruptMask>
878021ca:	e7fe      	b.n	878021ca <xEventGroupSync+0x32>
878021cc:	f000 fb6e 	bl	878028ac <vTaskSuspendAll>
878021d0:	6834      	ldr	r4, [r6, #0]
878021d2:	4641      	mov	r1, r8
878021d4:	4630      	mov	r0, r6
878021d6:	f7ff ffa1 	bl	8780211c <xEventGroupSetBits>
878021da:	ea44 0408 	orr.w	r4, r4, r8
878021de:	ea35 0304 	bics.w	r3, r5, r4
878021e2:	d005      	beq.n	878021f0 <xEventGroupSync+0x58>
878021e4:	b96f      	cbnz	r7, 87802202 <xEventGroupSync+0x6a>
878021e6:	6834      	ldr	r4, [r6, #0]
878021e8:	e006      	b.n	878021f8 <xEventGroupSync+0x60>
878021ea:	f001 fe55 	bl	87803e98 <ulPortSetInterruptMask>
878021ee:	e7fe      	b.n	878021ee <xEventGroupSync+0x56>
878021f0:	6833      	ldr	r3, [r6, #0]
878021f2:	ea23 0305 	bic.w	r3, r3, r5
878021f6:	6033      	str	r3, [r6, #0]
878021f8:	f000 fbfa 	bl	878029f0 <xTaskResumeAll>
878021fc:	4620      	mov	r0, r4
878021fe:	e8bd 81f0 	ldmia.w	sp!, {r4, r5, r6, r7, r8, pc}
87802202:	463a      	mov	r2, r7
87802204:	f045 61a0 	orr.w	r1, r5, #83886080	; 0x5000000
87802208:	1d30      	adds	r0, r6, #4
8780220a:	f000 fd7b 	bl	87802d04 <vTaskPlaceOnUnorderedEventList>
8780220e:	f000 fbef 	bl	878029f0 <xTaskResumeAll>
87802212:	b900      	cbnz	r0, 87802216 <xEventGroupSync+0x7e>
87802214:	df00      	svc	0
87802216:	f001 f82d 	bl	87803274 <uxTaskResetEventItemValue>
8780221a:	0183      	lsls	r3, r0, #6
8780221c:	4604      	mov	r4, r0
8780221e:	d40a      	bmi.n	87802236 <xEventGroupSync+0x9e>
87802220:	f001 fdb8 	bl	87803d94 <vPortEnterCritical>
87802224:	6834      	ldr	r4, [r6, #0]
87802226:	ea35 0304 	bics.w	r3, r5, r4
8780222a:	bf04      	itt	eq
8780222c:	ea24 0505 	biceq.w	r5, r4, r5
87802230:	6035      	streq	r5, [r6, #0]
87802232:	f001 fdf1 	bl	87803e18 <vPortExitCritical>
87802236:	f024 447f 	bic.w	r4, r4, #4278190080	; 0xff000000
8780223a:	e7df      	b.n	878021fc <xEventGroupSync+0x64>

8780223c <vEventGroupSetBitsCallback>:
8780223c:	f7ff bf6e 	b.w	8780211c <xEventGroupSetBits>

87802240 <vEventGroupDelete>:
87802240:	b538      	push	{r3, r4, r5, lr}
87802242:	4604      	mov	r4, r0
87802244:	f000 fb32 	bl	878028ac <vTaskSuspendAll>
87802248:	6863      	ldr	r3, [r4, #4]
8780224a:	b17b      	cbz	r3, 8780226c <vEventGroupDelete+0x2c>
8780224c:	6920      	ldr	r0, [r4, #16]
8780224e:	f104 050c 	add.w	r5, r4, #12
87802252:	42a8      	cmp	r0, r5
87802254:	d103      	bne.n	8780225e <vEventGroupDelete+0x1e>
87802256:	e010      	b.n	8780227a <vEventGroupDelete+0x3a>
87802258:	6920      	ldr	r0, [r4, #16]
8780225a:	42a8      	cmp	r0, r5
8780225c:	d00d      	beq.n	8780227a <vEventGroupDelete+0x3a>
8780225e:	f04f 7100 	mov.w	r1, #33554432	; 0x2000000
87802262:	f000 fdbf 	bl	87802de4 <xTaskRemoveFromUnorderedEventList>
87802266:	6863      	ldr	r3, [r4, #4]
87802268:	2b00      	cmp	r3, #0
8780226a:	d1f5      	bne.n	87802258 <vEventGroupDelete+0x18>
8780226c:	4620      	mov	r0, r4
8780226e:	f001 ff41 	bl	878040f4 <vPortFree>
87802272:	e8bd 4038 	ldmia.w	sp!, {r3, r4, r5, lr}
87802276:	f000 bbbb 	b.w	878029f0 <xTaskResumeAll>
8780227a:	f001 fe0d 	bl	87803e98 <ulPortSetInterruptMask>
8780227e:	e7fe      	b.n	8780227e <vEventGroupDelete+0x3e>

87802280 <xEventGroupSetBitsFromISR>:
87802280:	4613      	mov	r3, r2
87802282:	460a      	mov	r2, r1
87802284:	4601      	mov	r1, r0
87802286:	f242 203d 	movw	r0, #8765	; 0x223d
8780228a:	f2c8 7080 	movt	r0, #34688	; 0x8780
8780228e:	f001 bbd5 	b.w	87803a3c <xTimerPendFunctionCallFromISR>
87802292:	bf00      	nop

87802294 <uxEventGroupGetNumber>:
87802294:	b100      	cbz	r0, 87802298 <uxEventGroupGetNumber+0x4>
87802296:	6980      	ldr	r0, [r0, #24]
87802298:	4770      	bx	lr
8780229a:	bf00      	nop

8780229c <prvAddCurrentTaskToDelayedList>:
8780229c:	b5f8      	push	{r3, r4, r5, r6, r7, lr}
8780229e:	f240 1408 	movw	r4, #264	; 0x108
878022a2:	f6c8 0400 	movt	r4, #34816	; 0x8800
878022a6:	4606      	mov	r6, r0
878022a8:	460f      	mov	r7, r1
878022aa:	6825      	ldr	r5, [r4, #0]
878022ac:	6860      	ldr	r0, [r4, #4]
878022ae:	3004      	adds	r0, #4
878022b0:	f7ff fe78 	bl	87801fa4 <uxListRemove>
878022b4:	b938      	cbnz	r0, 878022c6 <prvAddCurrentTaskToDelayedList+0x2a>
878022b6:	6861      	ldr	r1, [r4, #4]
878022b8:	2201      	movs	r2, #1
878022ba:	68a3      	ldr	r3, [r4, #8]
878022bc:	6ac9      	ldr	r1, [r1, #44]	; 0x2c
878022be:	408a      	lsls	r2, r1
878022c0:	ea23 0302 	bic.w	r3, r3, r2
878022c4:	60a3      	str	r3, [r4, #8]
878022c6:	f1a6 33ff 	sub.w	r3, r6, #4294967295	; 0xffffffff
878022ca:	2f00      	cmp	r7, #0
878022cc:	fab3 f383 	clz	r3, r3
878022d0:	ea4f 1353 	mov.w	r3, r3, lsr #5
878022d4:	bf08      	it	eq
878022d6:	2300      	moveq	r3, #0
878022d8:	b9a3      	cbnz	r3, 87802304 <prvAddCurrentTaskToDelayedList+0x68>
878022da:	6863      	ldr	r3, [r4, #4]
878022dc:	19ad      	adds	r5, r5, r6
878022de:	605d      	str	r5, [r3, #4]
878022e0:	d209      	bcs.n	878022f6 <prvAddCurrentTaskToDelayedList+0x5a>
878022e2:	6a60      	ldr	r0, [r4, #36]	; 0x24
878022e4:	6861      	ldr	r1, [r4, #4]
878022e6:	3104      	adds	r1, #4
878022e8:	f7ff fe42 	bl	87801f70 <vListInsert>
878022ec:	6aa3      	ldr	r3, [r4, #40]	; 0x28
878022ee:	429d      	cmp	r5, r3
878022f0:	bf38      	it	cc
878022f2:	62a5      	strcc	r5, [r4, #40]	; 0x28
878022f4:	bdf8      	pop	{r3, r4, r5, r6, r7, pc}
878022f6:	6a20      	ldr	r0, [r4, #32]
878022f8:	6861      	ldr	r1, [r4, #4]
878022fa:	e8bd 40f8 	ldmia.w	sp!, {r3, r4, r5, r6, r7, lr}
878022fe:	3104      	adds	r1, #4
87802300:	f7ff be36 	b.w	87801f70 <vListInsert>
87802304:	6861      	ldr	r1, [r4, #4]
87802306:	4803      	ldr	r0, [pc, #12]	; (87802314 <prvAddCurrentTaskToDelayedList+0x78>)
87802308:	e8bd 40f8 	ldmia.w	sp!, {r3, r4, r5, r6, r7, lr}
8780230c:	3104      	adds	r1, #4
8780230e:	f7ff be1f 	b.w	87801f50 <vListInsertEnd>
87802312:	bf00      	nop
87802314:	88000114 	stmdahi	r0, {r2, r4, r8}

87802318 <prvResetNextTaskUnblockTime.part.0>:
87802318:	f240 1308 	movw	r3, #264	; 0x108
8780231c:	f6c8 0300 	movt	r3, #34816	; 0x8800
87802320:	6a5a      	ldr	r2, [r3, #36]	; 0x24
87802322:	68d2      	ldr	r2, [r2, #12]
87802324:	68d2      	ldr	r2, [r2, #12]
87802326:	6852      	ldr	r2, [r2, #4]
87802328:	629a      	str	r2, [r3, #40]	; 0x28
8780232a:	4770      	bx	lr

8780232c <prvTaskIsTaskSuspended>:
8780232c:	b508      	push	{r3, lr}
8780232e:	b170      	cbz	r0, 8780234e <prvTaskIsTaskSuspended+0x22>
87802330:	4a08      	ldr	r2, [pc, #32]	; (87802354 <prvTaskIsTaskSuspended+0x28>)
87802332:	6943      	ldr	r3, [r0, #20]
87802334:	4293      	cmp	r3, r2
87802336:	d001      	beq.n	8780233c <prvTaskIsTaskSuspended+0x10>
87802338:	2000      	movs	r0, #0
8780233a:	bd08      	pop	{r3, pc}
8780233c:	6a82      	ldr	r2, [r0, #40]	; 0x28
8780233e:	3320      	adds	r3, #32
87802340:	1ad0      	subs	r0, r2, r3
87802342:	bf18      	it	ne
87802344:	2001      	movne	r0, #1
87802346:	2a00      	cmp	r2, #0
87802348:	bf18      	it	ne
8780234a:	2000      	movne	r0, #0
8780234c:	bd08      	pop	{r3, pc}
8780234e:	f001 fda3 	bl	87803e98 <ulPortSetInterruptMask>
87802352:	e7fe      	b.n	87802352 <prvTaskIsTaskSuspended+0x26>
87802354:	88000114 	stmdahi	r0, {r2, r4, r8}

87802358 <xTaskCreate>:
87802358:	e92d 4ff8 	stmdb	sp!, {r3, r4, r5, r6, r7, r8, r9, sl, fp, lr}
8780235c:	ea4f 0982 	mov.w	r9, r2, lsl #2
87802360:	4607      	mov	r7, r0
87802362:	9e0b      	ldr	r6, [sp, #44]	; 0x2c
87802364:	4648      	mov	r0, r9
87802366:	460d      	mov	r5, r1
87802368:	4698      	mov	r8, r3
8780236a:	f001 fe37 	bl	87803fdc <pvPortMalloc>
8780236e:	2800      	cmp	r0, #0
87802370:	f000 808e 	beq.w	87802490 <xTaskCreate+0x138>
87802374:	4682      	mov	sl, r0
87802376:	2078      	movs	r0, #120	; 0x78
87802378:	f001 fe30 	bl	87803fdc <pvPortMalloc>
8780237c:	4604      	mov	r4, r0
8780237e:	2800      	cmp	r0, #0
87802380:	f000 80b1 	beq.w	878024e6 <xTaskCreate+0x18e>
87802384:	464a      	mov	r2, r9
87802386:	f8c0 a030 	str.w	sl, [r0, #48]	; 0x30
8780238a:	21a5      	movs	r1, #165	; 0xa5
8780238c:	4650      	mov	r0, sl
8780238e:	f002 f947 	bl	87804620 <memset>
87802392:	6b22      	ldr	r2, [r4, #48]	; 0x30
87802394:	f1a9 0904 	sub.w	r9, r9, #4
87802398:	1e6b      	subs	r3, r5, #1
8780239a:	f105 0113 	add.w	r1, r5, #19
8780239e:	f104 0533 	add.w	r5, r4, #51	; 0x33
878023a2:	4491      	add	r9, r2
878023a4:	f029 0907 	bic.w	r9, r9, #7
878023a8:	f8c4 9048 	str.w	r9, [r4, #72]	; 0x48
878023ac:	785a      	ldrb	r2, [r3, #1]
878023ae:	f805 2f01 	strb.w	r2, [r5, #1]!
878023b2:	f813 2f01 	ldrb.w	r2, [r3, #1]!
878023b6:	b10a      	cbz	r2, 878023bc <xTaskCreate+0x64>
878023b8:	428b      	cmp	r3, r1
878023ba:	d1f7      	bne.n	878023ac <xTaskCreate+0x54>
878023bc:	9b0a      	ldr	r3, [sp, #40]	; 0x28
878023be:	2500      	movs	r5, #0
878023c0:	f104 0a04 	add.w	sl, r4, #4
878023c4:	f884 5047 	strb.w	r5, [r4, #71]	; 0x47
878023c8:	4650      	mov	r0, sl
878023ca:	65a5      	str	r5, [r4, #88]	; 0x58
878023cc:	2b07      	cmp	r3, #7
878023ce:	bf28      	it	cs
878023d0:	2307      	movcs	r3, #7
878023d2:	62e3      	str	r3, [r4, #44]	; 0x2c
878023d4:	469b      	mov	fp, r3
878023d6:	6563      	str	r3, [r4, #84]	; 0x54
878023d8:	f7ff fdb6 	bl	87801f48 <vListInitialiseItem>
878023dc:	f104 0018 	add.w	r0, r4, #24
878023e0:	f7ff fdb2 	bl	87801f48 <vListInitialiseItem>
878023e4:	f1cb 0308 	rsb	r3, fp, #8
878023e8:	6725      	str	r5, [r4, #112]	; 0x70
878023ea:	61a3      	str	r3, [r4, #24]
878023ec:	4642      	mov	r2, r8
878023ee:	65e5      	str	r5, [r4, #92]	; 0x5c
878023f0:	4639      	mov	r1, r7
878023f2:	6625      	str	r5, [r4, #96]	; 0x60
878023f4:	4648      	mov	r0, r9
878023f6:	6665      	str	r5, [r4, #100]	; 0x64
878023f8:	66a5      	str	r5, [r4, #104]	; 0x68
878023fa:	66e5      	str	r5, [r4, #108]	; 0x6c
878023fc:	f884 5074 	strb.w	r5, [r4, #116]	; 0x74
87802400:	6124      	str	r4, [r4, #16]
87802402:	6264      	str	r4, [r4, #36]	; 0x24
87802404:	f001 fbba 	bl	87803b7c <pxPortInitialiseStack>
87802408:	6020      	str	r0, [r4, #0]
8780240a:	b106      	cbz	r6, 8780240e <xTaskCreate+0xb6>
8780240c:	6034      	str	r4, [r6, #0]
8780240e:	f240 1508 	movw	r5, #264	; 0x108
87802412:	f6c8 0500 	movt	r5, #34816	; 0x8800
87802416:	f001 fcbd 	bl	87803d94 <vPortEnterCritical>
8780241a:	6c2b      	ldr	r3, [r5, #64]	; 0x40
8780241c:	3301      	adds	r3, #1
8780241e:	642b      	str	r3, [r5, #64]	; 0x40
87802420:	686b      	ldr	r3, [r5, #4]
87802422:	2b00      	cmp	r3, #0
87802424:	d038      	beq.n	87802498 <xTaskCreate+0x140>
87802426:	f8d5 3120 	ldr.w	r3, [r5, #288]	; 0x120
8780242a:	b343      	cbz	r3, 8780247e <xTaskCreate+0x126>
8780242c:	6ae3      	ldr	r3, [r4, #44]	; 0x2c
8780242e:	f105 0844 	add.w	r8, r5, #68	; 0x44
87802432:	f8d5 2124 	ldr.w	r2, [r5, #292]	; 0x124
87802436:	2601      	movs	r6, #1
87802438:	f8d5 e008 	ldr.w	lr, [r5, #8]
8780243c:	fa06 f703 	lsl.w	r7, r6, r3
87802440:	eb03 0383 	add.w	r3, r3, r3, lsl #2
87802444:	4651      	mov	r1, sl
87802446:	4432      	add	r2, r6
87802448:	eb08 0083 	add.w	r0, r8, r3, lsl #2
8780244c:	ea47 070e 	orr.w	r7, r7, lr
87802450:	64e2      	str	r2, [r4, #76]	; 0x4c
87802452:	f8c5 2124 	str.w	r2, [r5, #292]	; 0x124
87802456:	60af      	str	r7, [r5, #8]
87802458:	f7ff fd7a 	bl	87801f50 <vListInsertEnd>
8780245c:	f001 fcdc 	bl	87803e18 <vPortExitCritical>
87802460:	f8d5 3120 	ldr.w	r3, [r5, #288]	; 0x120
87802464:	b143      	cbz	r3, 87802478 <xTaskCreate+0x120>
87802466:	686a      	ldr	r2, [r5, #4]
87802468:	6ae3      	ldr	r3, [r4, #44]	; 0x2c
8780246a:	6ad2      	ldr	r2, [r2, #44]	; 0x2c
8780246c:	429a      	cmp	r2, r3
8780246e:	d203      	bcs.n	87802478 <xTaskCreate+0x120>
87802470:	df00      	svc	0
87802472:	4630      	mov	r0, r6
87802474:	e8bd 8ff8 	ldmia.w	sp!, {r3, r4, r5, r6, r7, r8, r9, sl, fp, pc}
87802478:	4630      	mov	r0, r6
8780247a:	e8bd 8ff8 	ldmia.w	sp!, {r3, r4, r5, r6, r7, r8, r9, sl, fp, pc}
8780247e:	686a      	ldr	r2, [r5, #4]
87802480:	f105 0844 	add.w	r8, r5, #68	; 0x44
87802484:	6ae3      	ldr	r3, [r4, #44]	; 0x2c
87802486:	6ad2      	ldr	r2, [r2, #44]	; 0x2c
87802488:	429a      	cmp	r2, r3
8780248a:	bf98      	it	ls
8780248c:	606c      	strls	r4, [r5, #4]
8780248e:	e7d0      	b.n	87802432 <xTaskCreate+0xda>
87802490:	f04f 30ff 	mov.w	r0, #4294967295	; 0xffffffff
87802494:	e8bd 8ff8 	ldmia.w	sp!, {r3, r4, r5, r6, r7, r8, r9, sl, fp, pc}
87802498:	606c      	str	r4, [r5, #4]
8780249a:	6c2b      	ldr	r3, [r5, #64]	; 0x40
8780249c:	2b01      	cmp	r3, #1
8780249e:	d1c5      	bne.n	8780242c <xTaskCreate+0xd4>
878024a0:	f105 0844 	add.w	r8, r5, #68	; 0x44
878024a4:	f105 07e4 	add.w	r7, r5, #228	; 0xe4
878024a8:	4646      	mov	r6, r8
878024aa:	4630      	mov	r0, r6
878024ac:	3614      	adds	r6, #20
878024ae:	f7ff fd3f 	bl	87801f30 <vListInitialise>
878024b2:	42b7      	cmp	r7, r6
878024b4:	d1f9      	bne.n	878024aa <xTaskCreate+0x152>
878024b6:	4e0f      	ldr	r6, [pc, #60]	; (878024f4 <xTaskCreate+0x19c>)
878024b8:	f1a6 0014 	sub.w	r0, r6, #20
878024bc:	f7ff fd38 	bl	87801f30 <vListInitialise>
878024c0:	4630      	mov	r0, r6
878024c2:	f7ff fd35 	bl	87801f30 <vListInitialise>
878024c6:	f1a6 00cc 	sub.w	r0, r6, #204	; 0xcc
878024ca:	f7ff fd31 	bl	87801f30 <vListInitialise>
878024ce:	f106 0014 	add.w	r0, r6, #20
878024d2:	f7ff fd2d 	bl	87801f30 <vListInitialise>
878024d6:	f1a6 00ec 	sub.w	r0, r6, #236	; 0xec
878024da:	f7ff fd29 	bl	87801f30 <vListInitialise>
878024de:	626f      	str	r7, [r5, #36]	; 0x24
878024e0:	6ae3      	ldr	r3, [r4, #44]	; 0x2c
878024e2:	622e      	str	r6, [r5, #32]
878024e4:	e7a5      	b.n	87802432 <xTaskCreate+0xda>
878024e6:	4650      	mov	r0, sl
878024e8:	f001 fe04 	bl	878040f4 <vPortFree>
878024ec:	f04f 30ff 	mov.w	r0, #4294967295	; 0xffffffff
878024f0:	e8bd 8ff8 	ldmia.w	sp!, {r3, r4, r5, r6, r7, r8, r9, sl, fp, pc}
878024f4:	88000200 	stmdahi	r0, {r9}

878024f8 <vTaskDelete>:
878024f8:	b570      	push	{r4, r5, r6, lr}
878024fa:	4605      	mov	r5, r0
878024fc:	f240 1408 	movw	r4, #264	; 0x108
87802500:	f6c8 0400 	movt	r4, #34816	; 0x8800
87802504:	f001 fc46 	bl	87803d94 <vPortEnterCritical>
87802508:	2d00      	cmp	r5, #0
8780250a:	d041      	beq.n	87802590 <vTaskDelete+0x98>
8780250c:	1d2e      	adds	r6, r5, #4
8780250e:	4630      	mov	r0, r6
87802510:	f7ff fd48 	bl	87801fa4 <uxListRemove>
87802514:	b930      	cbnz	r0, 87802524 <vTaskDelete+0x2c>
87802516:	6ae9      	ldr	r1, [r5, #44]	; 0x2c
87802518:	eb01 0381 	add.w	r3, r1, r1, lsl #2
8780251c:	eb04 0383 	add.w	r3, r4, r3, lsl #2
87802520:	6c5b      	ldr	r3, [r3, #68]	; 0x44
87802522:	b34b      	cbz	r3, 87802578 <vTaskDelete+0x80>
87802524:	6aab      	ldr	r3, [r5, #40]	; 0x28
87802526:	b11b      	cbz	r3, 87802530 <vTaskDelete+0x38>
87802528:	f105 0018 	add.w	r0, r5, #24
8780252c:	f7ff fd3a 	bl	87801fa4 <uxListRemove>
87802530:	6862      	ldr	r2, [r4, #4]
87802532:	f8d4 3124 	ldr.w	r3, [r4, #292]	; 0x124
87802536:	4295      	cmp	r5, r2
87802538:	f103 0301 	add.w	r3, r3, #1
8780253c:	f8c4 3124 	str.w	r3, [r4, #292]	; 0x124
87802540:	d028      	beq.n	87802594 <vTaskDelete+0x9c>
87802542:	6c23      	ldr	r3, [r4, #64]	; 0x40
87802544:	6b28      	ldr	r0, [r5, #48]	; 0x30
87802546:	3b01      	subs	r3, #1
87802548:	6423      	str	r3, [r4, #64]	; 0x40
8780254a:	f001 fdd3 	bl	878040f4 <vPortFree>
8780254e:	4628      	mov	r0, r5
87802550:	f001 fdd0 	bl	878040f4 <vPortFree>
87802554:	6a63      	ldr	r3, [r4, #36]	; 0x24
87802556:	681b      	ldr	r3, [r3, #0]
87802558:	b95b      	cbnz	r3, 87802572 <vTaskDelete+0x7a>
8780255a:	f04f 33ff 	mov.w	r3, #4294967295	; 0xffffffff
8780255e:	62a3      	str	r3, [r4, #40]	; 0x28
87802560:	f001 fc5a 	bl	87803e18 <vPortExitCritical>
87802564:	f8d4 3120 	ldr.w	r3, [r4, #288]	; 0x120
87802568:	b113      	cbz	r3, 87802570 <vTaskDelete+0x78>
8780256a:	6863      	ldr	r3, [r4, #4]
8780256c:	429d      	cmp	r5, r3
8780256e:	d00a      	beq.n	87802586 <vTaskDelete+0x8e>
87802570:	bd70      	pop	{r4, r5, r6, pc}
87802572:	f7ff fed1 	bl	87802318 <prvResetNextTaskUnblockTime.part.0>
87802576:	e7f3      	b.n	87802560 <vTaskDelete+0x68>
87802578:	68a3      	ldr	r3, [r4, #8]
8780257a:	2201      	movs	r2, #1
8780257c:	408a      	lsls	r2, r1
8780257e:	ea23 0302 	bic.w	r3, r3, r2
87802582:	60a3      	str	r3, [r4, #8]
87802584:	e7ce      	b.n	87802524 <vTaskDelete+0x2c>
87802586:	f8d4 312c 	ldr.w	r3, [r4, #300]	; 0x12c
8780258a:	b96b      	cbnz	r3, 878025a8 <vTaskDelete+0xb0>
8780258c:	df00      	svc	0
8780258e:	bd70      	pop	{r4, r5, r6, pc}
87802590:	6865      	ldr	r5, [r4, #4]
87802592:	e7bb      	b.n	8780250c <vTaskDelete+0x14>
87802594:	4631      	mov	r1, r6
87802596:	4806      	ldr	r0, [pc, #24]	; (878025b0 <vTaskDelete+0xb8>)
87802598:	f7ff fcda 	bl	87801f50 <vListInsertEnd>
8780259c:	f8d4 3128 	ldr.w	r3, [r4, #296]	; 0x128
878025a0:	3301      	adds	r3, #1
878025a2:	f8c4 3128 	str.w	r3, [r4, #296]	; 0x128
878025a6:	e7db      	b.n	87802560 <vTaskDelete+0x68>
878025a8:	f001 fc76 	bl	87803e98 <ulPortSetInterruptMask>
878025ac:	e7fe      	b.n	878025ac <vTaskDelete+0xb4>
878025ae:	bf00      	nop
878025b0:	88000214 	stmdahi	r0, {r2, r4, r9}

878025b4 <eTaskGetState>:
878025b4:	b570      	push	{r4, r5, r6, lr}
878025b6:	b348      	cbz	r0, 8780260c <eTaskGetState+0x58>
878025b8:	f240 1408 	movw	r4, #264	; 0x108
878025bc:	4606      	mov	r6, r0
878025be:	f6c8 0400 	movt	r4, #34816	; 0x8800
878025c2:	6863      	ldr	r3, [r4, #4]
878025c4:	4298      	cmp	r0, r3
878025c6:	d019      	beq.n	878025fc <eTaskGetState+0x48>
878025c8:	f001 fbe4 	bl	87803d94 <vPortEnterCritical>
878025cc:	6975      	ldr	r5, [r6, #20]
878025ce:	f001 fc23 	bl	87803e18 <vPortExitCritical>
878025d2:	6a63      	ldr	r3, [r4, #36]	; 0x24
878025d4:	429d      	cmp	r5, r3
878025d6:	d00f      	beq.n	878025f8 <eTaskGetState+0x44>
878025d8:	6a23      	ldr	r3, [r4, #32]
878025da:	429d      	cmp	r5, r3
878025dc:	d00c      	beq.n	878025f8 <eTaskGetState+0x44>
878025de:	f104 030c 	add.w	r3, r4, #12
878025e2:	429d      	cmp	r5, r3
878025e4:	d00c      	beq.n	87802600 <eTaskGetState+0x4c>
878025e6:	f504 7486 	add.w	r4, r4, #268	; 0x10c
878025ea:	42a5      	cmp	r5, r4
878025ec:	bf18      	it	ne
878025ee:	2d00      	cmpne	r5, #0
878025f0:	bf0c      	ite	eq
878025f2:	2004      	moveq	r0, #4
878025f4:	2001      	movne	r0, #1
878025f6:	bd70      	pop	{r4, r5, r6, pc}
878025f8:	2002      	movs	r0, #2
878025fa:	bd70      	pop	{r4, r5, r6, pc}
878025fc:	2000      	movs	r0, #0
878025fe:	bd70      	pop	{r4, r5, r6, pc}
87802600:	6ab3      	ldr	r3, [r6, #40]	; 0x28
87802602:	2b00      	cmp	r3, #0
87802604:	bf14      	ite	ne
87802606:	2002      	movne	r0, #2
87802608:	2003      	moveq	r0, #3
8780260a:	bd70      	pop	{r4, r5, r6, pc}
8780260c:	f001 fc44 	bl	87803e98 <ulPortSetInterruptMask>
87802610:	e7fe      	b.n	87802610 <eTaskGetState+0x5c>
87802612:	bf00      	nop

87802614 <uxTaskPriorityGet>:
87802614:	b510      	push	{r4, lr}
87802616:	4604      	mov	r4, r0
87802618:	f001 fbbc 	bl	87803d94 <vPortEnterCritical>
8780261c:	b124      	cbz	r4, 87802628 <uxTaskPriorityGet+0x14>
8780261e:	6ae4      	ldr	r4, [r4, #44]	; 0x2c
87802620:	f001 fbfa 	bl	87803e18 <vPortExitCritical>
87802624:	4620      	mov	r0, r4
87802626:	bd10      	pop	{r4, pc}
87802628:	f240 1308 	movw	r3, #264	; 0x108
8780262c:	f6c8 0300 	movt	r3, #34816	; 0x8800
87802630:	685c      	ldr	r4, [r3, #4]
87802632:	6ae4      	ldr	r4, [r4, #44]	; 0x2c
87802634:	f001 fbf0 	bl	87803e18 <vPortExitCritical>
87802638:	4620      	mov	r0, r4
8780263a:	bd10      	pop	{r4, pc}

8780263c <uxTaskPriorityGetFromISR>:
8780263c:	b510      	push	{r4, lr}
8780263e:	4604      	mov	r4, r0
87802640:	f001 fc46 	bl	87803ed0 <vPortValidateInterruptPriority>
87802644:	f001 fc28 	bl	87803e98 <ulPortSetInterruptMask>
87802648:	b124      	cbz	r4, 87802654 <uxTaskPriorityGetFromISR+0x18>
8780264a:	6ae4      	ldr	r4, [r4, #44]	; 0x2c
8780264c:	f001 fc0e 	bl	87803e6c <vPortClearInterruptMask>
87802650:	4620      	mov	r0, r4
87802652:	bd10      	pop	{r4, pc}
87802654:	f240 1308 	movw	r3, #264	; 0x108
87802658:	f6c8 0300 	movt	r3, #34816	; 0x8800
8780265c:	685c      	ldr	r4, [r3, #4]
8780265e:	6ae4      	ldr	r4, [r4, #44]	; 0x2c
87802660:	f001 fc04 	bl	87803e6c <vPortClearInterruptMask>
87802664:	4620      	mov	r0, r4
87802666:	bd10      	pop	{r4, pc}

87802668 <vTaskPrioritySet>:
87802668:	2907      	cmp	r1, #7
8780266a:	e92d 43f8 	stmdb	sp!, {r3, r4, r5, r6, r7, r8, r9, lr}
8780266e:	d902      	bls.n	87802676 <vTaskPrioritySet+0xe>
87802670:	f001 fc12 	bl	87803e98 <ulPortSetInterruptMask>
87802674:	e7fe      	b.n	87802674 <vTaskPrioritySet+0xc>
87802676:	4604      	mov	r4, r0
87802678:	460e      	mov	r6, r1
8780267a:	f001 fb8b 	bl	87803d94 <vPortEnterCritical>
8780267e:	b364      	cbz	r4, 878026da <vTaskPrioritySet+0x72>
87802680:	6d63      	ldr	r3, [r4, #84]	; 0x54
87802682:	429e      	cmp	r6, r3
87802684:	d025      	beq.n	878026d2 <vTaskPrioritySet+0x6a>
87802686:	f240 1508 	movw	r5, #264	; 0x108
8780268a:	f6c8 0500 	movt	r5, #34816	; 0x8800
8780268e:	d92a      	bls.n	878026e6 <vTaskPrioritySet+0x7e>
87802690:	686a      	ldr	r2, [r5, #4]
87802692:	4294      	cmp	r4, r2
87802694:	bf08      	it	eq
87802696:	2700      	moveq	r7, #0
87802698:	d005      	beq.n	878026a6 <vTaskPrioritySet+0x3e>
8780269a:	686a      	ldr	r2, [r5, #4]
8780269c:	6ad7      	ldr	r7, [r2, #44]	; 0x2c
8780269e:	42be      	cmp	r6, r7
878026a0:	bf34      	ite	cc
878026a2:	2700      	movcc	r7, #0
878026a4:	2701      	movcs	r7, #1
878026a6:	f8d4 802c 	ldr.w	r8, [r4, #44]	; 0x2c
878026aa:	6566      	str	r6, [r4, #84]	; 0x54
878026ac:	6962      	ldr	r2, [r4, #20]
878026ae:	4543      	cmp	r3, r8
878026b0:	69a3      	ldr	r3, [r4, #24]
878026b2:	bf08      	it	eq
878026b4:	62e6      	streq	r6, [r4, #44]	; 0x2c
878026b6:	2b00      	cmp	r3, #0
878026b8:	eb08 0388 	add.w	r3, r8, r8, lsl #2
878026bc:	bfa4      	itt	ge
878026be:	f1c6 0608 	rsbge	r6, r6, #8
878026c2:	61a6      	strge	r6, [r4, #24]
878026c4:	4e18      	ldr	r6, [pc, #96]	; (87802728 <vTaskPrioritySet+0xc0>)
878026c6:	eb06 0383 	add.w	r3, r6, r3, lsl #2
878026ca:	429a      	cmp	r2, r3
878026cc:	d011      	beq.n	878026f2 <vTaskPrioritySet+0x8a>
878026ce:	b107      	cbz	r7, 878026d2 <vTaskPrioritySet+0x6a>
878026d0:	df00      	svc	0
878026d2:	e8bd 43f8 	ldmia.w	sp!, {r3, r4, r5, r6, r7, r8, r9, lr}
878026d6:	f001 bb9f 	b.w	87803e18 <vPortExitCritical>
878026da:	f240 1308 	movw	r3, #264	; 0x108
878026de:	f6c8 0300 	movt	r3, #34816	; 0x8800
878026e2:	685c      	ldr	r4, [r3, #4]
878026e4:	e7cc      	b.n	87802680 <vTaskPrioritySet+0x18>
878026e6:	686f      	ldr	r7, [r5, #4]
878026e8:	1be7      	subs	r7, r4, r7
878026ea:	fab7 f787 	clz	r7, r7
878026ee:	097f      	lsrs	r7, r7, #5
878026f0:	e7d9      	b.n	878026a6 <vTaskPrioritySet+0x3e>
878026f2:	f104 0904 	add.w	r9, r4, #4
878026f6:	4648      	mov	r0, r9
878026f8:	f7ff fc54 	bl	87801fa4 <uxListRemove>
878026fc:	b930      	cbnz	r0, 8780270c <vTaskPrioritySet+0xa4>
878026fe:	68ab      	ldr	r3, [r5, #8]
87802700:	2201      	movs	r2, #1
87802702:	fa02 f808 	lsl.w	r8, r2, r8
87802706:	ea23 0308 	bic.w	r3, r3, r8
8780270a:	60ab      	str	r3, [r5, #8]
8780270c:	6ae0      	ldr	r0, [r4, #44]	; 0x2c
8780270e:	2301      	movs	r3, #1
87802710:	68aa      	ldr	r2, [r5, #8]
87802712:	4649      	mov	r1, r9
87802714:	4083      	lsls	r3, r0
87802716:	eb00 0080 	add.w	r0, r0, r0, lsl #2
8780271a:	4313      	orrs	r3, r2
8780271c:	eb06 0080 	add.w	r0, r6, r0, lsl #2
87802720:	60ab      	str	r3, [r5, #8]
87802722:	f7ff fc15 	bl	87801f50 <vListInsertEnd>
87802726:	e7d2      	b.n	878026ce <vTaskPrioritySet+0x66>
87802728:	8800014c 	stmdahi	r0, {r2, r3, r6, r8}

8780272c <vTaskResume>:
8780272c:	b5f8      	push	{r3, r4, r5, r6, r7, lr}
8780272e:	b378      	cbz	r0, 87802790 <vTaskResume+0x64>
87802730:	f240 1408 	movw	r4, #264	; 0x108
87802734:	4605      	mov	r5, r0
87802736:	f6c8 0400 	movt	r4, #34816	; 0x8800
8780273a:	6863      	ldr	r3, [r4, #4]
8780273c:	4298      	cmp	r0, r3
8780273e:	d009      	beq.n	87802754 <vTaskResume+0x28>
87802740:	f001 fb28 	bl	87803d94 <vPortEnterCritical>
87802744:	4628      	mov	r0, r5
87802746:	f7ff fdf1 	bl	8780232c <prvTaskIsTaskSuspended>
8780274a:	b920      	cbnz	r0, 87802756 <vTaskResume+0x2a>
8780274c:	e8bd 40f8 	ldmia.w	sp!, {r3, r4, r5, r6, r7, lr}
87802750:	f001 bb62 	b.w	87803e18 <vPortExitCritical>
87802754:	bdf8      	pop	{r3, r4, r5, r6, r7, pc}
87802756:	1d2e      	adds	r6, r5, #4
87802758:	4630      	mov	r0, r6
8780275a:	f7ff fc23 	bl	87801fa4 <uxListRemove>
8780275e:	6aea      	ldr	r2, [r5, #44]	; 0x2c
87802760:	2301      	movs	r3, #1
87802762:	68a7      	ldr	r7, [r4, #8]
87802764:	f104 0044 	add.w	r0, r4, #68	; 0x44
87802768:	4631      	mov	r1, r6
8780276a:	4093      	lsls	r3, r2
8780276c:	eb02 0282 	add.w	r2, r2, r2, lsl #2
87802770:	433b      	orrs	r3, r7
87802772:	eb00 0082 	add.w	r0, r0, r2, lsl #2
87802776:	60a3      	str	r3, [r4, #8]
87802778:	f7ff fbea 	bl	87801f50 <vListInsertEnd>
8780277c:	6863      	ldr	r3, [r4, #4]
8780277e:	6aea      	ldr	r2, [r5, #44]	; 0x2c
87802780:	6adb      	ldr	r3, [r3, #44]	; 0x2c
87802782:	429a      	cmp	r2, r3
87802784:	d3e2      	bcc.n	8780274c <vTaskResume+0x20>
87802786:	df00      	svc	0
87802788:	e8bd 40f8 	ldmia.w	sp!, {r3, r4, r5, r6, r7, lr}
8780278c:	f001 bb44 	b.w	87803e18 <vPortExitCritical>
87802790:	f001 fb82 	bl	87803e98 <ulPortSetInterruptMask>
87802794:	e7fe      	b.n	87802794 <vTaskResume+0x68>
87802796:	bf00      	nop

87802798 <xTaskResumeFromISR>:
87802798:	e92d 41f0 	stmdb	sp!, {r4, r5, r6, r7, r8, lr}
8780279c:	2800      	cmp	r0, #0
8780279e:	d03f      	beq.n	87802820 <xTaskResumeFromISR+0x88>
878027a0:	4605      	mov	r5, r0
878027a2:	f001 fb95 	bl	87803ed0 <vPortValidateInterruptPriority>
878027a6:	f001 fb77 	bl	87803e98 <ulPortSetInterruptMask>
878027aa:	4606      	mov	r6, r0
878027ac:	4628      	mov	r0, r5
878027ae:	f7ff fdbd 	bl	8780232c <prvTaskIsTaskSuspended>
878027b2:	4604      	mov	r4, r0
878027b4:	b308      	cbz	r0, 878027fa <xTaskResumeFromISR+0x62>
878027b6:	f240 1708 	movw	r7, #264	; 0x108
878027ba:	f6c8 0700 	movt	r7, #34816	; 0x8800
878027be:	f8d7 312c 	ldr.w	r3, [r7, #300]	; 0x12c
878027c2:	bb03      	cbnz	r3, 87802806 <xTaskResumeFromISR+0x6e>
878027c4:	687b      	ldr	r3, [r7, #4]
878027c6:	f105 0804 	add.w	r8, r5, #4
878027ca:	6aec      	ldr	r4, [r5, #44]	; 0x2c
878027cc:	4640      	mov	r0, r8
878027ce:	6adb      	ldr	r3, [r3, #44]	; 0x2c
878027d0:	429c      	cmp	r4, r3
878027d2:	bf34      	ite	cc
878027d4:	2400      	movcc	r4, #0
878027d6:	2401      	movcs	r4, #1
878027d8:	f7ff fbe4 	bl	87801fa4 <uxListRemove>
878027dc:	6aea      	ldr	r2, [r5, #44]	; 0x2c
878027de:	2301      	movs	r3, #1
878027e0:	68bd      	ldr	r5, [r7, #8]
878027e2:	f107 0044 	add.w	r0, r7, #68	; 0x44
878027e6:	4641      	mov	r1, r8
878027e8:	4093      	lsls	r3, r2
878027ea:	eb02 0282 	add.w	r2, r2, r2, lsl #2
878027ee:	432b      	orrs	r3, r5
878027f0:	eb00 0082 	add.w	r0, r0, r2, lsl #2
878027f4:	60bb      	str	r3, [r7, #8]
878027f6:	f7ff fbab 	bl	87801f50 <vListInsertEnd>
878027fa:	4630      	mov	r0, r6
878027fc:	f001 fb36 	bl	87803e6c <vPortClearInterruptMask>
87802800:	4620      	mov	r0, r4
87802802:	e8bd 81f0 	ldmia.w	sp!, {r4, r5, r6, r7, r8, pc}
87802806:	f105 0118 	add.w	r1, r5, #24
8780280a:	f107 002c 	add.w	r0, r7, #44	; 0x2c
8780280e:	f7ff fb9f 	bl	87801f50 <vListInsertEnd>
87802812:	2400      	movs	r4, #0
87802814:	4630      	mov	r0, r6
87802816:	f001 fb29 	bl	87803e6c <vPortClearInterruptMask>
8780281a:	4620      	mov	r0, r4
8780281c:	e8bd 81f0 	ldmia.w	sp!, {r4, r5, r6, r7, r8, pc}
87802820:	f001 fb3a 	bl	87803e98 <ulPortSetInterruptMask>
87802824:	e7fe      	b.n	87802824 <xTaskResumeFromISR+0x8c>
87802826:	bf00      	nop

87802828 <vTaskStartScheduler>:
87802828:	b570      	push	{r4, r5, r6, lr}
8780282a:	f240 1408 	movw	r4, #264	; 0x108
8780282e:	f6c8 0400 	movt	r4, #34816	; 0x8800
87802832:	b082      	sub	sp, #8
87802834:	2600      	movs	r6, #0
87802836:	f504 7398 	add.w	r3, r4, #304	; 0x130
8780283a:	f646 01d0 	movw	r1, #26832	; 0x68d0
8780283e:	f642 3071 	movw	r0, #11121	; 0x2b71
87802842:	9301      	str	r3, [sp, #4]
87802844:	f2c8 7180 	movt	r1, #34688	; 0x8780
87802848:	4633      	mov	r3, r6
8780284a:	9600      	str	r6, [sp, #0]
8780284c:	f2c8 7080 	movt	r0, #34688	; 0x8780
87802850:	225a      	movs	r2, #90	; 0x5a
87802852:	f7ff fd81 	bl	87802358 <xTaskCreate>
87802856:	2801      	cmp	r0, #1
87802858:	bf18      	it	ne
8780285a:	4605      	movne	r5, r0
8780285c:	d003      	beq.n	87802866 <vTaskStartScheduler+0x3e>
8780285e:	3501      	adds	r5, #1
87802860:	d013      	beq.n	8780288a <vTaskStartScheduler+0x62>
87802862:	b002      	add	sp, #8
87802864:	bd70      	pop	{r4, r5, r6, pc}
87802866:	f000 ff27 	bl	878036b8 <xTimerCreateTimerTask>
8780286a:	2801      	cmp	r0, #1
8780286c:	4605      	mov	r5, r0
8780286e:	d1f6      	bne.n	8780285e <vTaskStartScheduler+0x36>
87802870:	f001 fb12 	bl	87803e98 <ulPortSetInterruptMask>
87802874:	f04f 33ff 	mov.w	r3, #4294967295	; 0xffffffff
87802878:	62a3      	str	r3, [r4, #40]	; 0x28
8780287a:	f8c4 5120 	str.w	r5, [r4, #288]	; 0x120
8780287e:	6026      	str	r6, [r4, #0]
87802880:	b002      	add	sp, #8
87802882:	e8bd 4070 	ldmia.w	sp!, {r4, r5, r6, lr}
87802886:	f001 b9cb 	b.w	87803c20 <xPortStartScheduler>
8780288a:	f001 fb05 	bl	87803e98 <ulPortSetInterruptMask>
8780288e:	e7fe      	b.n	8780288e <vTaskStartScheduler+0x66>

87802890 <vTaskEndScheduler>:
87802890:	b508      	push	{r3, lr}
87802892:	f001 fb01 	bl	87803e98 <ulPortSetInterruptMask>
87802896:	f240 1308 	movw	r3, #264	; 0x108
8780289a:	2200      	movs	r2, #0
8780289c:	f6c8 0300 	movt	r3, #34816	; 0x8800
878028a0:	f8c3 2120 	str.w	r2, [r3, #288]	; 0x120
878028a4:	e8bd 4008 	ldmia.w	sp!, {r3, lr}
878028a8:	f001 ba52 	b.w	87803d50 <vPortEndScheduler>

878028ac <vTaskSuspendAll>:
878028ac:	f240 1308 	movw	r3, #264	; 0x108
878028b0:	f6c8 0300 	movt	r3, #34816	; 0x8800
878028b4:	f8d3 212c 	ldr.w	r2, [r3, #300]	; 0x12c
878028b8:	3201      	adds	r2, #1
878028ba:	f8c3 212c 	str.w	r2, [r3, #300]	; 0x12c
878028be:	4770      	bx	lr

878028c0 <xTaskGetTickCount>:
878028c0:	f240 1308 	movw	r3, #264	; 0x108
878028c4:	f6c8 0300 	movt	r3, #34816	; 0x8800
878028c8:	6818      	ldr	r0, [r3, #0]
878028ca:	4770      	bx	lr

878028cc <xTaskGetTickCountFromISR>:
878028cc:	b508      	push	{r3, lr}
878028ce:	f001 faff 	bl	87803ed0 <vPortValidateInterruptPriority>
878028d2:	f240 1308 	movw	r3, #264	; 0x108
878028d6:	f6c8 0300 	movt	r3, #34816	; 0x8800
878028da:	6818      	ldr	r0, [r3, #0]
878028dc:	bd08      	pop	{r3, pc}
878028de:	bf00      	nop

878028e0 <uxTaskGetNumberOfTasks>:
878028e0:	f240 1308 	movw	r3, #264	; 0x108
878028e4:	f6c8 0300 	movt	r3, #34816	; 0x8800
878028e8:	6c18      	ldr	r0, [r3, #64]	; 0x40
878028ea:	4770      	bx	lr

878028ec <pcTaskGetName>:
878028ec:	b108      	cbz	r0, 878028f2 <pcTaskGetName+0x6>
878028ee:	3034      	adds	r0, #52	; 0x34
878028f0:	4770      	bx	lr
878028f2:	b508      	push	{r3, lr}
878028f4:	f240 1308 	movw	r3, #264	; 0x108
878028f8:	f6c8 0300 	movt	r3, #34816	; 0x8800
878028fc:	6858      	ldr	r0, [r3, #4]
878028fe:	b910      	cbnz	r0, 87802906 <pcTaskGetName+0x1a>
87802900:	f001 faca 	bl	87803e98 <ulPortSetInterruptMask>
87802904:	e7fe      	b.n	87802904 <pcTaskGetName+0x18>
87802906:	3034      	adds	r0, #52	; 0x34
87802908:	bd08      	pop	{r3, pc}
8780290a:	bf00      	nop

8780290c <xTaskIncrementTick>:
8780290c:	e92d 47f0 	stmdb	sp!, {r4, r5, r6, r7, r8, r9, sl, lr}
87802910:	f240 1408 	movw	r4, #264	; 0x108
87802914:	f6c8 0400 	movt	r4, #34816	; 0x8800
87802918:	f8d4 312c 	ldr.w	r3, [r4, #300]	; 0x12c
8780291c:	2b00      	cmp	r3, #0
8780291e:	d13b      	bne.n	87802998 <xTaskIncrementTick+0x8c>
87802920:	6827      	ldr	r7, [r4, #0]
87802922:	3701      	adds	r7, #1
87802924:	6027      	str	r7, [r4, #0]
87802926:	2f00      	cmp	r7, #0
87802928:	d044      	beq.n	878029b4 <xTaskIncrementTick+0xa8>
8780292a:	6aa3      	ldr	r3, [r4, #40]	; 0x28
8780292c:	429f      	cmp	r7, r3
8780292e:	bf38      	it	cc
87802930:	2600      	movcc	r6, #0
87802932:	d337      	bcc.n	878029a4 <xTaskIncrementTick+0x98>
87802934:	f8df 90b4 	ldr.w	r9, [pc, #180]	; 878029ec <xTaskIncrementTick+0xe0>
87802938:	2600      	movs	r6, #0
8780293a:	f04f 0801 	mov.w	r8, #1
8780293e:	e023      	b.n	87802988 <xTaskIncrementTick+0x7c>
87802940:	6a63      	ldr	r3, [r4, #36]	; 0x24
87802942:	68db      	ldr	r3, [r3, #12]
87802944:	68dd      	ldr	r5, [r3, #12]
87802946:	686b      	ldr	r3, [r5, #4]
87802948:	f105 0a04 	add.w	sl, r5, #4
8780294c:	4650      	mov	r0, sl
8780294e:	429f      	cmp	r7, r3
87802950:	d349      	bcc.n	878029e6 <xTaskIncrementTick+0xda>
87802952:	f7ff fb27 	bl	87801fa4 <uxListRemove>
87802956:	6aab      	ldr	r3, [r5, #40]	; 0x28
87802958:	f105 0018 	add.w	r0, r5, #24
8780295c:	b10b      	cbz	r3, 87802962 <xTaskIncrementTick+0x56>
8780295e:	f7ff fb21 	bl	87801fa4 <uxListRemove>
87802962:	6ae8      	ldr	r0, [r5, #44]	; 0x2c
87802964:	4651      	mov	r1, sl
87802966:	68a2      	ldr	r2, [r4, #8]
87802968:	fa08 f300 	lsl.w	r3, r8, r0
8780296c:	eb00 0080 	add.w	r0, r0, r0, lsl #2
87802970:	4313      	orrs	r3, r2
87802972:	eb09 0080 	add.w	r0, r9, r0, lsl #2
87802976:	60a3      	str	r3, [r4, #8]
87802978:	f7ff faea 	bl	87801f50 <vListInsertEnd>
8780297c:	6863      	ldr	r3, [r4, #4]
8780297e:	6aea      	ldr	r2, [r5, #44]	; 0x2c
87802980:	6adb      	ldr	r3, [r3, #44]	; 0x2c
87802982:	429a      	cmp	r2, r3
87802984:	bf28      	it	cs
87802986:	2601      	movcs	r6, #1
87802988:	6a63      	ldr	r3, [r4, #36]	; 0x24
8780298a:	681b      	ldr	r3, [r3, #0]
8780298c:	2b00      	cmp	r3, #0
8780298e:	d1d7      	bne.n	87802940 <xTaskIncrementTick+0x34>
87802990:	f04f 33ff 	mov.w	r3, #4294967295	; 0xffffffff
87802994:	62a3      	str	r3, [r4, #40]	; 0x28
87802996:	e005      	b.n	878029a4 <xTaskIncrementTick+0x98>
87802998:	f8d4 3138 	ldr.w	r3, [r4, #312]	; 0x138
8780299c:	2600      	movs	r6, #0
8780299e:	3301      	adds	r3, #1
878029a0:	f8c4 3138 	str.w	r3, [r4, #312]	; 0x138
878029a4:	f8d4 313c 	ldr.w	r3, [r4, #316]	; 0x13c
878029a8:	2b00      	cmp	r3, #0
878029aa:	bf18      	it	ne
878029ac:	2601      	movne	r6, #1
878029ae:	4630      	mov	r0, r6
878029b0:	e8bd 87f0 	ldmia.w	sp!, {r4, r5, r6, r7, r8, r9, sl, pc}
878029b4:	6a63      	ldr	r3, [r4, #36]	; 0x24
878029b6:	681b      	ldr	r3, [r3, #0]
878029b8:	b993      	cbnz	r3, 878029e0 <xTaskIncrementTick+0xd4>
878029ba:	6a63      	ldr	r3, [r4, #36]	; 0x24
878029bc:	6a22      	ldr	r2, [r4, #32]
878029be:	6262      	str	r2, [r4, #36]	; 0x24
878029c0:	6223      	str	r3, [r4, #32]
878029c2:	f8d4 3134 	ldr.w	r3, [r4, #308]	; 0x134
878029c6:	3301      	adds	r3, #1
878029c8:	f8c4 3134 	str.w	r3, [r4, #308]	; 0x134
878029cc:	6a63      	ldr	r3, [r4, #36]	; 0x24
878029ce:	681b      	ldr	r3, [r3, #0]
878029d0:	b91b      	cbnz	r3, 878029da <xTaskIncrementTick+0xce>
878029d2:	f04f 33ff 	mov.w	r3, #4294967295	; 0xffffffff
878029d6:	62a3      	str	r3, [r4, #40]	; 0x28
878029d8:	e7a7      	b.n	8780292a <xTaskIncrementTick+0x1e>
878029da:	f7ff fc9d 	bl	87802318 <prvResetNextTaskUnblockTime.part.0>
878029de:	e7a4      	b.n	8780292a <xTaskIncrementTick+0x1e>
878029e0:	f001 fa5a 	bl	87803e98 <ulPortSetInterruptMask>
878029e4:	e7fe      	b.n	878029e4 <xTaskIncrementTick+0xd8>
878029e6:	62a3      	str	r3, [r4, #40]	; 0x28
878029e8:	e7dc      	b.n	878029a4 <xTaskIncrementTick+0x98>
878029ea:	bf00      	nop
878029ec:	8800014c 	stmdahi	r0, {r2, r3, r6, r8}

878029f0 <xTaskResumeAll>:
878029f0:	e92d 41f0 	stmdb	sp!, {r4, r5, r6, r7, r8, lr}
878029f4:	f240 1408 	movw	r4, #264	; 0x108
878029f8:	f6c8 0400 	movt	r4, #34816	; 0x8800
878029fc:	f8d4 312c 	ldr.w	r3, [r4, #300]	; 0x12c
87802a00:	b913      	cbnz	r3, 87802a08 <xTaskResumeAll+0x18>
87802a02:	f001 fa49 	bl	87803e98 <ulPortSetInterruptMask>
87802a06:	e7fe      	b.n	87802a06 <xTaskResumeAll+0x16>
87802a08:	f001 f9c4 	bl	87803d94 <vPortEnterCritical>
87802a0c:	f8d4 312c 	ldr.w	r3, [r4, #300]	; 0x12c
87802a10:	3b01      	subs	r3, #1
87802a12:	f8c4 312c 	str.w	r3, [r4, #300]	; 0x12c
87802a16:	f8d4 512c 	ldr.w	r5, [r4, #300]	; 0x12c
87802a1a:	2d00      	cmp	r5, #0
87802a1c:	d145      	bne.n	87802aaa <xTaskResumeAll+0xba>
87802a1e:	6c23      	ldr	r3, [r4, #64]	; 0x40
87802a20:	2601      	movs	r6, #1
87802a22:	f104 0744 	add.w	r7, r4, #68	; 0x44
87802a26:	b9fb      	cbnz	r3, 87802a68 <xTaskResumeAll+0x78>
87802a28:	e03f      	b.n	87802aaa <xTaskResumeAll+0xba>
87802a2a:	6ba3      	ldr	r3, [r4, #56]	; 0x38
87802a2c:	68dd      	ldr	r5, [r3, #12]
87802a2e:	f105 0804 	add.w	r8, r5, #4
87802a32:	f105 0018 	add.w	r0, r5, #24
87802a36:	f7ff fab5 	bl	87801fa4 <uxListRemove>
87802a3a:	4640      	mov	r0, r8
87802a3c:	f7ff fab2 	bl	87801fa4 <uxListRemove>
87802a40:	6ae8      	ldr	r0, [r5, #44]	; 0x2c
87802a42:	4641      	mov	r1, r8
87802a44:	68a2      	ldr	r2, [r4, #8]
87802a46:	fa06 f300 	lsl.w	r3, r6, r0
87802a4a:	eb00 0080 	add.w	r0, r0, r0, lsl #2
87802a4e:	4313      	orrs	r3, r2
87802a50:	eb07 0080 	add.w	r0, r7, r0, lsl #2
87802a54:	60a3      	str	r3, [r4, #8]
87802a56:	f7ff fa7b 	bl	87801f50 <vListInsertEnd>
87802a5a:	6863      	ldr	r3, [r4, #4]
87802a5c:	6aea      	ldr	r2, [r5, #44]	; 0x2c
87802a5e:	6adb      	ldr	r3, [r3, #44]	; 0x2c
87802a60:	429a      	cmp	r2, r3
87802a62:	bf28      	it	cs
87802a64:	f8c4 613c 	strcs.w	r6, [r4, #316]	; 0x13c
87802a68:	6ae3      	ldr	r3, [r4, #44]	; 0x2c
87802a6a:	2b00      	cmp	r3, #0
87802a6c:	d1dd      	bne.n	87802a2a <xTaskResumeAll+0x3a>
87802a6e:	b12d      	cbz	r5, 87802a7c <xTaskResumeAll+0x8c>
87802a70:	6a63      	ldr	r3, [r4, #36]	; 0x24
87802a72:	681b      	ldr	r3, [r3, #0]
87802a74:	b9fb      	cbnz	r3, 87802ab6 <xTaskResumeAll+0xc6>
87802a76:	f04f 33ff 	mov.w	r3, #4294967295	; 0xffffffff
87802a7a:	62a3      	str	r3, [r4, #40]	; 0x28
87802a7c:	f8d4 5138 	ldr.w	r5, [r4, #312]	; 0x138
87802a80:	b14d      	cbz	r5, 87802a96 <xTaskResumeAll+0xa6>
87802a82:	2601      	movs	r6, #1
87802a84:	f7ff ff42 	bl	8780290c <xTaskIncrementTick>
87802a88:	b108      	cbz	r0, 87802a8e <xTaskResumeAll+0x9e>
87802a8a:	f8c4 613c 	str.w	r6, [r4, #316]	; 0x13c
87802a8e:	3d01      	subs	r5, #1
87802a90:	d1f8      	bne.n	87802a84 <xTaskResumeAll+0x94>
87802a92:	f8c4 5138 	str.w	r5, [r4, #312]	; 0x138
87802a96:	f8d4 313c 	ldr.w	r3, [r4, #316]	; 0x13c
87802a9a:	b133      	cbz	r3, 87802aaa <xTaskResumeAll+0xba>
87802a9c:	df00      	svc	0
87802a9e:	2401      	movs	r4, #1
87802aa0:	f001 f9ba 	bl	87803e18 <vPortExitCritical>
87802aa4:	4620      	mov	r0, r4
87802aa6:	e8bd 81f0 	ldmia.w	sp!, {r4, r5, r6, r7, r8, pc}
87802aaa:	2400      	movs	r4, #0
87802aac:	f001 f9b4 	bl	87803e18 <vPortExitCritical>
87802ab0:	4620      	mov	r0, r4
87802ab2:	e8bd 81f0 	ldmia.w	sp!, {r4, r5, r6, r7, r8, pc}
87802ab6:	f7ff fc2f 	bl	87802318 <prvResetNextTaskUnblockTime.part.0>
87802aba:	e7df      	b.n	87802a7c <xTaskResumeAll+0x8c>

87802abc <vTaskDelayUntil>:
87802abc:	b510      	push	{r4, lr}
87802abe:	2800      	cmp	r0, #0
87802ac0:	d037      	beq.n	87802b32 <vTaskDelayUntil+0x76>
87802ac2:	2900      	cmp	r1, #0
87802ac4:	d032      	beq.n	87802b2c <vTaskDelayUntil+0x70>
87802ac6:	f240 1208 	movw	r2, #264	; 0x108
87802aca:	f6c8 0200 	movt	r2, #34816	; 0x8800
87802ace:	f8d2 312c 	ldr.w	r3, [r2, #300]	; 0x12c
87802ad2:	b9db      	cbnz	r3, 87802b0c <vTaskDelayUntil+0x50>
87802ad4:	f8d2 312c 	ldr.w	r3, [r2, #300]	; 0x12c
87802ad8:	6804      	ldr	r4, [r0, #0]
87802ada:	3301      	adds	r3, #1
87802adc:	f8c2 312c 	str.w	r3, [r2, #300]	; 0x12c
87802ae0:	190b      	adds	r3, r1, r4
87802ae2:	6811      	ldr	r1, [r2, #0]
87802ae4:	bf2c      	ite	cs
87802ae6:	2201      	movcs	r2, #1
87802ae8:	2200      	movcc	r2, #0
87802aea:	42a1      	cmp	r1, r4
87802aec:	d311      	bcc.n	87802b12 <vTaskDelayUntil+0x56>
87802aee:	4299      	cmp	r1, r3
87802af0:	bf38      	it	cc
87802af2:	f042 0201 	orrcc.w	r2, r2, #1
87802af6:	b19a      	cbz	r2, 87802b20 <vTaskDelayUntil+0x64>
87802af8:	6003      	str	r3, [r0, #0]
87802afa:	1a58      	subs	r0, r3, r1
87802afc:	2100      	movs	r1, #0
87802afe:	f7ff fbcd 	bl	8780229c <prvAddCurrentTaskToDelayedList>
87802b02:	f7ff ff75 	bl	878029f0 <xTaskResumeAll>
87802b06:	b980      	cbnz	r0, 87802b2a <vTaskDelayUntil+0x6e>
87802b08:	df00      	svc	0
87802b0a:	bd10      	pop	{r4, pc}
87802b0c:	f001 f9c4 	bl	87803e98 <ulPortSetInterruptMask>
87802b10:	e7fe      	b.n	87802b10 <vTaskDelayUntil+0x54>
87802b12:	4299      	cmp	r1, r3
87802b14:	bf2c      	ite	cs
87802b16:	2200      	movcs	r2, #0
87802b18:	f002 0201 	andcc.w	r2, r2, #1
87802b1c:	2a00      	cmp	r2, #0
87802b1e:	d1eb      	bne.n	87802af8 <vTaskDelayUntil+0x3c>
87802b20:	6003      	str	r3, [r0, #0]
87802b22:	f7ff ff65 	bl	878029f0 <xTaskResumeAll>
87802b26:	2800      	cmp	r0, #0
87802b28:	d0ee      	beq.n	87802b08 <vTaskDelayUntil+0x4c>
87802b2a:	bd10      	pop	{r4, pc}
87802b2c:	f001 f9b4 	bl	87803e98 <ulPortSetInterruptMask>
87802b30:	e7fe      	b.n	87802b30 <vTaskDelayUntil+0x74>
87802b32:	f001 f9b1 	bl	87803e98 <ulPortSetInterruptMask>
87802b36:	e7fe      	b.n	87802b36 <vTaskDelayUntil+0x7a>

87802b38 <vTaskDelay>:
87802b38:	b908      	cbnz	r0, 87802b3e <vTaskDelay+0x6>
87802b3a:	df00      	svc	0
87802b3c:	4770      	bx	lr
87802b3e:	b508      	push	{r3, lr}
87802b40:	f240 1308 	movw	r3, #264	; 0x108
87802b44:	f6c8 0300 	movt	r3, #34816	; 0x8800
87802b48:	f8d3 112c 	ldr.w	r1, [r3, #300]	; 0x12c
87802b4c:	b951      	cbnz	r1, 87802b64 <vTaskDelay+0x2c>
87802b4e:	f8d3 212c 	ldr.w	r2, [r3, #300]	; 0x12c
87802b52:	3201      	adds	r2, #1
87802b54:	f8c3 212c 	str.w	r2, [r3, #300]	; 0x12c
87802b58:	f7ff fba0 	bl	8780229c <prvAddCurrentTaskToDelayedList>
87802b5c:	f7ff ff48 	bl	878029f0 <xTaskResumeAll>
87802b60:	b118      	cbz	r0, 87802b6a <vTaskDelay+0x32>
87802b62:	bd08      	pop	{r3, pc}
87802b64:	f001 f998 	bl	87803e98 <ulPortSetInterruptMask>
87802b68:	e7fe      	b.n	87802b68 <vTaskDelay+0x30>
87802b6a:	df00      	svc	0
87802b6c:	bd08      	pop	{r3, pc}
87802b6e:	bf00      	nop

87802b70 <prvIdleTask>:
87802b70:	f240 1408 	movw	r4, #264	; 0x108
87802b74:	b508      	push	{r3, lr}
87802b76:	f6c8 0400 	movt	r4, #34816	; 0x8800
87802b7a:	e009      	b.n	87802b90 <prvIdleTask+0x20>
87802b7c:	f8d4 312c 	ldr.w	r3, [r4, #300]	; 0x12c
87802b80:	f8d4 510c 	ldr.w	r5, [r4, #268]	; 0x10c
87802b84:	3301      	adds	r3, #1
87802b86:	f8c4 312c 	str.w	r3, [r4, #300]	; 0x12c
87802b8a:	f7ff ff31 	bl	878029f0 <xTaskResumeAll>
87802b8e:	b945      	cbnz	r5, 87802ba2 <prvIdleTask+0x32>
87802b90:	f8d4 3128 	ldr.w	r3, [r4, #296]	; 0x128
87802b94:	2b00      	cmp	r3, #0
87802b96:	d1f1      	bne.n	87802b7c <prvIdleTask+0xc>
87802b98:	6c63      	ldr	r3, [r4, #68]	; 0x44
87802b9a:	2b01      	cmp	r3, #1
87802b9c:	d9f8      	bls.n	87802b90 <prvIdleTask+0x20>
87802b9e:	df00      	svc	0
87802ba0:	e7f6      	b.n	87802b90 <prvIdleTask+0x20>
87802ba2:	f001 f8f7 	bl	87803d94 <vPortEnterCritical>
87802ba6:	f8d4 3118 	ldr.w	r3, [r4, #280]	; 0x118
87802baa:	68dd      	ldr	r5, [r3, #12]
87802bac:	1d28      	adds	r0, r5, #4
87802bae:	f7ff f9f9 	bl	87801fa4 <uxListRemove>
87802bb2:	6c23      	ldr	r3, [r4, #64]	; 0x40
87802bb4:	3b01      	subs	r3, #1
87802bb6:	6423      	str	r3, [r4, #64]	; 0x40
87802bb8:	f8d4 3128 	ldr.w	r3, [r4, #296]	; 0x128
87802bbc:	3b01      	subs	r3, #1
87802bbe:	f8c4 3128 	str.w	r3, [r4, #296]	; 0x128
87802bc2:	f001 f929 	bl	87803e18 <vPortExitCritical>
87802bc6:	6b28      	ldr	r0, [r5, #48]	; 0x30
87802bc8:	f001 fa94 	bl	878040f4 <vPortFree>
87802bcc:	4628      	mov	r0, r5
87802bce:	f001 fa91 	bl	878040f4 <vPortFree>
87802bd2:	e7dd      	b.n	87802b90 <prvIdleTask+0x20>

87802bd4 <vTaskSwitchContext>:
87802bd4:	f240 1208 	movw	r2, #264	; 0x108
87802bd8:	b508      	push	{r3, lr}
87802bda:	f6c8 0200 	movt	r2, #34816	; 0x8800
87802bde:	f8d2 312c 	ldr.w	r3, [r2, #300]	; 0x12c
87802be2:	b9e3      	cbnz	r3, 87802c1e <vTaskSwitchContext+0x4a>
87802be4:	f8c2 313c 	str.w	r3, [r2, #316]	; 0x13c
87802be8:	6893      	ldr	r3, [r2, #8]
87802bea:	fab3 f383 	clz	r3, r3
87802bee:	f1c3 031f 	rsb	r3, r3, #31
87802bf2:	eb03 0383 	add.w	r3, r3, r3, lsl #2
87802bf6:	009b      	lsls	r3, r3, #2
87802bf8:	18d0      	adds	r0, r2, r3
87802bfa:	6c41      	ldr	r1, [r0, #68]	; 0x44
87802bfc:	b161      	cbz	r1, 87802c18 <vTaskSwitchContext+0x44>
87802bfe:	6c81      	ldr	r1, [r0, #72]	; 0x48
87802c00:	4413      	add	r3, r2
87802c02:	334c      	adds	r3, #76	; 0x4c
87802c04:	6849      	ldr	r1, [r1, #4]
87802c06:	4299      	cmp	r1, r3
87802c08:	6481      	str	r1, [r0, #72]	; 0x48
87802c0a:	bf08      	it	eq
87802c0c:	6849      	ldreq	r1, [r1, #4]
87802c0e:	68cb      	ldr	r3, [r1, #12]
87802c10:	bf08      	it	eq
87802c12:	6481      	streq	r1, [r0, #72]	; 0x48
87802c14:	6053      	str	r3, [r2, #4]
87802c16:	bd08      	pop	{r3, pc}
87802c18:	f001 f93e 	bl	87803e98 <ulPortSetInterruptMask>
87802c1c:	e7fe      	b.n	87802c1c <vTaskSwitchContext+0x48>
87802c1e:	2301      	movs	r3, #1
87802c20:	f8c2 313c 	str.w	r3, [r2, #316]	; 0x13c
87802c24:	bd08      	pop	{r3, pc}
87802c26:	bf00      	nop

87802c28 <vTaskSuspend>:
87802c28:	b570      	push	{r4, r5, r6, lr}
87802c2a:	4605      	mov	r5, r0
87802c2c:	f240 1408 	movw	r4, #264	; 0x108
87802c30:	f6c8 0400 	movt	r4, #34816	; 0x8800
87802c34:	f001 f8ae 	bl	87803d94 <vPortEnterCritical>
87802c38:	2d00      	cmp	r5, #0
87802c3a:	d03d      	beq.n	87802cb8 <vTaskSuspend+0x90>
87802c3c:	1d2e      	adds	r6, r5, #4
87802c3e:	4630      	mov	r0, r6
87802c40:	f7ff f9b0 	bl	87801fa4 <uxListRemove>
87802c44:	b930      	cbnz	r0, 87802c54 <vTaskSuspend+0x2c>
87802c46:	6ae9      	ldr	r1, [r5, #44]	; 0x2c
87802c48:	eb01 0381 	add.w	r3, r1, r1, lsl #2
87802c4c:	eb04 0383 	add.w	r3, r4, r3, lsl #2
87802c50:	6c5b      	ldr	r3, [r3, #68]	; 0x44
87802c52:	b193      	cbz	r3, 87802c7a <vTaskSuspend+0x52>
87802c54:	6aab      	ldr	r3, [r5, #40]	; 0x28
87802c56:	b11b      	cbz	r3, 87802c60 <vTaskSuspend+0x38>
87802c58:	f105 0018 	add.w	r0, r5, #24
87802c5c:	f7ff f9a2 	bl	87801fa4 <uxListRemove>
87802c60:	4631      	mov	r1, r6
87802c62:	481d      	ldr	r0, [pc, #116]	; (87802cd8 <vTaskSuspend+0xb0>)
87802c64:	f7ff f974 	bl	87801f50 <vListInsertEnd>
87802c68:	f001 f8d6 	bl	87803e18 <vPortExitCritical>
87802c6c:	f8d4 3120 	ldr.w	r3, [r4, #288]	; 0x120
87802c70:	b953      	cbnz	r3, 87802c88 <vTaskSuspend+0x60>
87802c72:	6863      	ldr	r3, [r4, #4]
87802c74:	429d      	cmp	r5, r3
87802c76:	d013      	beq.n	87802ca0 <vTaskSuspend+0x78>
87802c78:	bd70      	pop	{r4, r5, r6, pc}
87802c7a:	68a3      	ldr	r3, [r4, #8]
87802c7c:	2201      	movs	r2, #1
87802c7e:	408a      	lsls	r2, r1
87802c80:	ea23 0302 	bic.w	r3, r3, r2
87802c84:	60a3      	str	r3, [r4, #8]
87802c86:	e7e5      	b.n	87802c54 <vTaskSuspend+0x2c>
87802c88:	f001 f884 	bl	87803d94 <vPortEnterCritical>
87802c8c:	6a63      	ldr	r3, [r4, #36]	; 0x24
87802c8e:	681b      	ldr	r3, [r3, #0]
87802c90:	b173      	cbz	r3, 87802cb0 <vTaskSuspend+0x88>
87802c92:	f7ff fb41 	bl	87802318 <prvResetNextTaskUnblockTime.part.0>
87802c96:	f001 f8bf 	bl	87803e18 <vPortExitCritical>
87802c9a:	6863      	ldr	r3, [r4, #4]
87802c9c:	429d      	cmp	r5, r3
87802c9e:	d1eb      	bne.n	87802c78 <vTaskSuspend+0x50>
87802ca0:	f8d4 3120 	ldr.w	r3, [r4, #288]	; 0x120
87802ca4:	b153      	cbz	r3, 87802cbc <vTaskSuspend+0x94>
87802ca6:	f8d4 312c 	ldr.w	r3, [r4, #300]	; 0x12c
87802caa:	b98b      	cbnz	r3, 87802cd0 <vTaskSuspend+0xa8>
87802cac:	df00      	svc	0
87802cae:	bd70      	pop	{r4, r5, r6, pc}
87802cb0:	f04f 33ff 	mov.w	r3, #4294967295	; 0xffffffff
87802cb4:	62a3      	str	r3, [r4, #40]	; 0x28
87802cb6:	e7ee      	b.n	87802c96 <vTaskSuspend+0x6e>
87802cb8:	6865      	ldr	r5, [r4, #4]
87802cba:	e7bf      	b.n	87802c3c <vTaskSuspend+0x14>
87802cbc:	6c22      	ldr	r2, [r4, #64]	; 0x40
87802cbe:	68e1      	ldr	r1, [r4, #12]
87802cc0:	4291      	cmp	r1, r2
87802cc2:	d003      	beq.n	87802ccc <vTaskSuspend+0xa4>
87802cc4:	e8bd 4070 	ldmia.w	sp!, {r4, r5, r6, lr}
87802cc8:	f7ff bf84 	b.w	87802bd4 <vTaskSwitchContext>
87802ccc:	6063      	str	r3, [r4, #4]
87802cce:	bd70      	pop	{r4, r5, r6, pc}
87802cd0:	f001 f8e2 	bl	87803e98 <ulPortSetInterruptMask>
87802cd4:	e7fe      	b.n	87802cd4 <vTaskSuspend+0xac>
87802cd6:	bf00      	nop
87802cd8:	88000114 	stmdahi	r0, {r2, r4, r8}

87802cdc <vTaskPlaceOnEventList>:
87802cdc:	b510      	push	{r4, lr}
87802cde:	b170      	cbz	r0, 87802cfe <vTaskPlaceOnEventList+0x22>
87802ce0:	f240 1308 	movw	r3, #264	; 0x108
87802ce4:	460c      	mov	r4, r1
87802ce6:	f6c8 0300 	movt	r3, #34816	; 0x8800
87802cea:	6859      	ldr	r1, [r3, #4]
87802cec:	3118      	adds	r1, #24
87802cee:	f7ff f93f 	bl	87801f70 <vListInsert>
87802cf2:	4620      	mov	r0, r4
87802cf4:	2101      	movs	r1, #1
87802cf6:	e8bd 4010 	ldmia.w	sp!, {r4, lr}
87802cfa:	f7ff bacf 	b.w	8780229c <prvAddCurrentTaskToDelayedList>
87802cfe:	f001 f8cb 	bl	87803e98 <ulPortSetInterruptMask>
87802d02:	e7fe      	b.n	87802d02 <vTaskPlaceOnEventList+0x26>

87802d04 <vTaskPlaceOnUnorderedEventList>:
87802d04:	b510      	push	{r4, lr}
87802d06:	b1c8      	cbz	r0, 87802d3c <vTaskPlaceOnUnorderedEventList+0x38>
87802d08:	f240 1308 	movw	r3, #264	; 0x108
87802d0c:	4614      	mov	r4, r2
87802d0e:	f6c8 0300 	movt	r3, #34816	; 0x8800
87802d12:	f8d3 212c 	ldr.w	r2, [r3, #300]	; 0x12c
87802d16:	b912      	cbnz	r2, 87802d1e <vTaskPlaceOnUnorderedEventList+0x1a>
87802d18:	f001 f8be 	bl	87803e98 <ulPortSetInterruptMask>
87802d1c:	e7fe      	b.n	87802d1c <vTaskPlaceOnUnorderedEventList+0x18>
87802d1e:	685a      	ldr	r2, [r3, #4]
87802d20:	f041 4100 	orr.w	r1, r1, #2147483648	; 0x80000000
87802d24:	685b      	ldr	r3, [r3, #4]
87802d26:	6191      	str	r1, [r2, #24]
87802d28:	f103 0118 	add.w	r1, r3, #24
87802d2c:	f7ff f910 	bl	87801f50 <vListInsertEnd>
87802d30:	4620      	mov	r0, r4
87802d32:	2101      	movs	r1, #1
87802d34:	e8bd 4010 	ldmia.w	sp!, {r4, lr}
87802d38:	f7ff bab0 	b.w	8780229c <prvAddCurrentTaskToDelayedList>
87802d3c:	f001 f8ac 	bl	87803e98 <ulPortSetInterruptMask>
87802d40:	e7fe      	b.n	87802d40 <vTaskPlaceOnUnorderedEventList+0x3c>
87802d42:	bf00      	nop

87802d44 <vTaskPlaceOnEventListRestricted>:
87802d44:	b538      	push	{r3, r4, r5, lr}
87802d46:	b198      	cbz	r0, 87802d70 <vTaskPlaceOnEventListRestricted+0x2c>
87802d48:	f240 1308 	movw	r3, #264	; 0x108
87802d4c:	460d      	mov	r5, r1
87802d4e:	f6c8 0300 	movt	r3, #34816	; 0x8800
87802d52:	4614      	mov	r4, r2
87802d54:	6859      	ldr	r1, [r3, #4]
87802d56:	3118      	adds	r1, #24
87802d58:	f7ff f8fa 	bl	87801f50 <vListInsertEnd>
87802d5c:	2c00      	cmp	r4, #0
87802d5e:	4621      	mov	r1, r4
87802d60:	bf0c      	ite	eq
87802d62:	4628      	moveq	r0, r5
87802d64:	f04f 30ff 	movne.w	r0, #4294967295	; 0xffffffff
87802d68:	e8bd 4038 	ldmia.w	sp!, {r3, r4, r5, lr}
87802d6c:	f7ff ba96 	b.w	8780229c <prvAddCurrentTaskToDelayedList>
87802d70:	f001 f892 	bl	87803e98 <ulPortSetInterruptMask>
87802d74:	e7fe      	b.n	87802d74 <vTaskPlaceOnEventListRestricted+0x30>
87802d76:	bf00      	nop

87802d78 <xTaskRemoveFromEventList>:
87802d78:	b5f8      	push	{r3, r4, r5, r6, r7, lr}
87802d7a:	68c3      	ldr	r3, [r0, #12]
87802d7c:	68dd      	ldr	r5, [r3, #12]
87802d7e:	b375      	cbz	r5, 87802dde <xTaskRemoveFromEventList+0x66>
87802d80:	f105 0618 	add.w	r6, r5, #24
87802d84:	f240 1408 	movw	r4, #264	; 0x108
87802d88:	4630      	mov	r0, r6
87802d8a:	f6c8 0400 	movt	r4, #34816	; 0x8800
87802d8e:	f7ff f909 	bl	87801fa4 <uxListRemove>
87802d92:	f8d4 312c 	ldr.w	r3, [r4, #300]	; 0x12c
87802d96:	b9e3      	cbnz	r3, 87802dd2 <xTaskRemoveFromEventList+0x5a>
87802d98:	1d2e      	adds	r6, r5, #4
87802d9a:	4630      	mov	r0, r6
87802d9c:	f7ff f902 	bl	87801fa4 <uxListRemove>
87802da0:	6aea      	ldr	r2, [r5, #44]	; 0x2c
87802da2:	2301      	movs	r3, #1
87802da4:	68a7      	ldr	r7, [r4, #8]
87802da6:	f104 0044 	add.w	r0, r4, #68	; 0x44
87802daa:	4631      	mov	r1, r6
87802dac:	4093      	lsls	r3, r2
87802dae:	eb02 0282 	add.w	r2, r2, r2, lsl #2
87802db2:	433b      	orrs	r3, r7
87802db4:	eb00 0082 	add.w	r0, r0, r2, lsl #2
87802db8:	60a3      	str	r3, [r4, #8]
87802dba:	f7ff f8c9 	bl	87801f50 <vListInsertEnd>
87802dbe:	6863      	ldr	r3, [r4, #4]
87802dc0:	6aea      	ldr	r2, [r5, #44]	; 0x2c
87802dc2:	6adb      	ldr	r3, [r3, #44]	; 0x2c
87802dc4:	429a      	cmp	r2, r3
87802dc6:	bf8a      	itet	hi
87802dc8:	2001      	movhi	r0, #1
87802dca:	2000      	movls	r0, #0
87802dcc:	f8c4 013c 	strhi.w	r0, [r4, #316]	; 0x13c
87802dd0:	bdf8      	pop	{r3, r4, r5, r6, r7, pc}
87802dd2:	4631      	mov	r1, r6
87802dd4:	f104 002c 	add.w	r0, r4, #44	; 0x2c
87802dd8:	f7ff f8ba 	bl	87801f50 <vListInsertEnd>
87802ddc:	e7ef      	b.n	87802dbe <xTaskRemoveFromEventList+0x46>
87802dde:	f001 f85b 	bl	87803e98 <ulPortSetInterruptMask>
87802de2:	e7fe      	b.n	87802de2 <xTaskRemoveFromEventList+0x6a>

87802de4 <xTaskRemoveFromUnorderedEventList>:
87802de4:	b5f8      	push	{r3, r4, r5, r6, r7, lr}
87802de6:	f240 1408 	movw	r4, #264	; 0x108
87802dea:	f6c8 0400 	movt	r4, #34816	; 0x8800
87802dee:	f8d4 312c 	ldr.w	r3, [r4, #300]	; 0x12c
87802df2:	b323      	cbz	r3, 87802e3e <xTaskRemoveFromUnorderedEventList+0x5a>
87802df4:	68c6      	ldr	r6, [r0, #12]
87802df6:	f041 4100 	orr.w	r1, r1, #2147483648	; 0x80000000
87802dfa:	6001      	str	r1, [r0, #0]
87802dfc:	b316      	cbz	r6, 87802e44 <xTaskRemoveFromUnorderedEventList+0x60>
87802dfe:	1d37      	adds	r7, r6, #4
87802e00:	2501      	movs	r5, #1
87802e02:	f7ff f8cf 	bl	87801fa4 <uxListRemove>
87802e06:	4638      	mov	r0, r7
87802e08:	f7ff f8cc 	bl	87801fa4 <uxListRemove>
87802e0c:	6af3      	ldr	r3, [r6, #44]	; 0x2c
87802e0e:	4639      	mov	r1, r7
87802e10:	68a7      	ldr	r7, [r4, #8]
87802e12:	f104 0044 	add.w	r0, r4, #68	; 0x44
87802e16:	fa05 f203 	lsl.w	r2, r5, r3
87802e1a:	eb03 0383 	add.w	r3, r3, r3, lsl #2
87802e1e:	433a      	orrs	r2, r7
87802e20:	eb00 0083 	add.w	r0, r0, r3, lsl #2
87802e24:	60a2      	str	r2, [r4, #8]
87802e26:	f7ff f893 	bl	87801f50 <vListInsertEnd>
87802e2a:	6863      	ldr	r3, [r4, #4]
87802e2c:	6af2      	ldr	r2, [r6, #44]	; 0x2c
87802e2e:	6adb      	ldr	r3, [r3, #44]	; 0x2c
87802e30:	429a      	cmp	r2, r3
87802e32:	bf86      	itte	hi
87802e34:	4628      	movhi	r0, r5
87802e36:	f8c4 513c 	strhi.w	r5, [r4, #316]	; 0x13c
87802e3a:	2000      	movls	r0, #0
87802e3c:	bdf8      	pop	{r3, r4, r5, r6, r7, pc}
87802e3e:	f001 f82b 	bl	87803e98 <ulPortSetInterruptMask>
87802e42:	e7fe      	b.n	87802e42 <xTaskRemoveFromUnorderedEventList+0x5e>
87802e44:	f001 f828 	bl	87803e98 <ulPortSetInterruptMask>
87802e48:	e7fe      	b.n	87802e48 <xTaskRemoveFromUnorderedEventList+0x64>
87802e4a:	bf00      	nop

87802e4c <vTaskSetTimeOutState>:
87802e4c:	b508      	push	{r3, lr}
87802e4e:	b148      	cbz	r0, 87802e64 <vTaskSetTimeOutState+0x18>
87802e50:	f240 1308 	movw	r3, #264	; 0x108
87802e54:	f6c8 0300 	movt	r3, #34816	; 0x8800
87802e58:	f8d3 2134 	ldr.w	r2, [r3, #308]	; 0x134
87802e5c:	681b      	ldr	r3, [r3, #0]
87802e5e:	e880 000c 	stmia.w	r0, {r2, r3}
87802e62:	bd08      	pop	{r3, pc}
87802e64:	f001 f818 	bl	87803e98 <ulPortSetInterruptMask>
87802e68:	e7fe      	b.n	87802e68 <vTaskSetTimeOutState+0x1c>
87802e6a:	bf00      	nop

87802e6c <xTaskCheckForTimeOut>:
87802e6c:	b570      	push	{r4, r5, r6, lr}
87802e6e:	b370      	cbz	r0, 87802ece <xTaskCheckForTimeOut+0x62>
87802e70:	460d      	mov	r5, r1
87802e72:	b349      	cbz	r1, 87802ec8 <xTaskCheckForTimeOut+0x5c>
87802e74:	4604      	mov	r4, r0
87802e76:	f000 ff8d 	bl	87803d94 <vPortEnterCritical>
87802e7a:	682b      	ldr	r3, [r5, #0]
87802e7c:	f240 1208 	movw	r2, #264	; 0x108
87802e80:	f6c8 0200 	movt	r2, #34816	; 0x8800
87802e84:	6811      	ldr	r1, [r2, #0]
87802e86:	1c58      	adds	r0, r3, #1
87802e88:	bf08      	it	eq
87802e8a:	2500      	moveq	r5, #0
87802e8c:	d013      	beq.n	87802eb6 <xTaskCheckForTimeOut+0x4a>
87802e8e:	f8d2 0134 	ldr.w	r0, [r2, #308]	; 0x134
87802e92:	6826      	ldr	r6, [r4, #0]
87802e94:	4286      	cmp	r6, r0
87802e96:	6860      	ldr	r0, [r4, #4]
87802e98:	d001      	beq.n	87802e9e <xTaskCheckForTimeOut+0x32>
87802e9a:	4281      	cmp	r1, r0
87802e9c:	d20f      	bcs.n	87802ebe <xTaskCheckForTimeOut+0x52>
87802e9e:	1a0e      	subs	r6, r1, r0
87802ea0:	42b3      	cmp	r3, r6
87802ea2:	d90c      	bls.n	87802ebe <xTaskCheckForTimeOut+0x52>
87802ea4:	1a5b      	subs	r3, r3, r1
87802ea6:	f8d2 6134 	ldr.w	r6, [r2, #308]	; 0x134
87802eaa:	4403      	add	r3, r0
87802eac:	6812      	ldr	r2, [r2, #0]
87802eae:	602b      	str	r3, [r5, #0]
87802eb0:	2500      	movs	r5, #0
87802eb2:	6026      	str	r6, [r4, #0]
87802eb4:	6062      	str	r2, [r4, #4]
87802eb6:	f000 ffaf 	bl	87803e18 <vPortExitCritical>
87802eba:	4628      	mov	r0, r5
87802ebc:	bd70      	pop	{r4, r5, r6, pc}
87802ebe:	2501      	movs	r5, #1
87802ec0:	f000 ffaa 	bl	87803e18 <vPortExitCritical>
87802ec4:	4628      	mov	r0, r5
87802ec6:	bd70      	pop	{r4, r5, r6, pc}
87802ec8:	f000 ffe6 	bl	87803e98 <ulPortSetInterruptMask>
87802ecc:	e7fe      	b.n	87802ecc <xTaskCheckForTimeOut+0x60>
87802ece:	f000 ffe3 	bl	87803e98 <ulPortSetInterruptMask>
87802ed2:	e7fe      	b.n	87802ed2 <xTaskCheckForTimeOut+0x66>

87802ed4 <vTaskMissedYield>:
87802ed4:	f240 1308 	movw	r3, #264	; 0x108
87802ed8:	2201      	movs	r2, #1
87802eda:	f6c8 0300 	movt	r3, #34816	; 0x8800
87802ede:	f8c3 213c 	str.w	r2, [r3, #316]	; 0x13c
87802ee2:	4770      	bx	lr

87802ee4 <uxTaskGetTaskNumber>:
87802ee4:	b100      	cbz	r0, 87802ee8 <uxTaskGetTaskNumber+0x4>
87802ee6:	6d00      	ldr	r0, [r0, #80]	; 0x50
87802ee8:	4770      	bx	lr
87802eea:	bf00      	nop

87802eec <vTaskSetTaskNumber>:
87802eec:	b100      	cbz	r0, 87802ef0 <vTaskSetTaskNumber+0x4>
87802eee:	6501      	str	r1, [r0, #80]	; 0x50
87802ef0:	4770      	bx	lr
87802ef2:	bf00      	nop

87802ef4 <vTaskSetThreadLocalStoragePointer>:
87802ef4:	2904      	cmp	r1, #4
87802ef6:	dc03      	bgt.n	87802f00 <vTaskSetThreadLocalStoragePointer+0xc>
87802ef8:	b118      	cbz	r0, 87802f02 <vTaskSetThreadLocalStoragePointer+0xe>
87802efa:	eb00 0181 	add.w	r1, r0, r1, lsl #2
87802efe:	65ca      	str	r2, [r1, #92]	; 0x5c
87802f00:	4770      	bx	lr
87802f02:	f240 1308 	movw	r3, #264	; 0x108
87802f06:	f6c8 0300 	movt	r3, #34816	; 0x8800
87802f0a:	6858      	ldr	r0, [r3, #4]
87802f0c:	e7f5      	b.n	87802efa <vTaskSetThreadLocalStoragePointer+0x6>
87802f0e:	bf00      	nop

87802f10 <pvTaskGetThreadLocalStoragePointer>:
87802f10:	2904      	cmp	r1, #4
87802f12:	dc0d      	bgt.n	87802f30 <pvTaskGetThreadLocalStoragePointer+0x20>
87802f14:	b118      	cbz	r0, 87802f1e <pvTaskGetThreadLocalStoragePointer+0xe>
87802f16:	eb00 0081 	add.w	r0, r0, r1, lsl #2
87802f1a:	6dc0      	ldr	r0, [r0, #92]	; 0x5c
87802f1c:	4770      	bx	lr
87802f1e:	f240 1308 	movw	r3, #264	; 0x108
87802f22:	f6c8 0300 	movt	r3, #34816	; 0x8800
87802f26:	6858      	ldr	r0, [r3, #4]
87802f28:	eb00 0081 	add.w	r0, r0, r1, lsl #2
87802f2c:	6dc0      	ldr	r0, [r0, #92]	; 0x5c
87802f2e:	4770      	bx	lr
87802f30:	2000      	movs	r0, #0
87802f32:	4770      	bx	lr

87802f34 <vTaskGetInfo>:
87802f34:	e92d 41f0 	stmdb	sp!, {r4, r5, r6, r7, r8, lr}
87802f38:	460c      	mov	r4, r1
87802f3a:	4690      	mov	r8, r2
87802f3c:	461f      	mov	r7, r3
87802f3e:	4606      	mov	r6, r0
87802f40:	4605      	mov	r5, r0
87802f42:	2800      	cmp	r0, #0
87802f44:	d040      	beq.n	87802fc8 <vTaskGetInfo+0x94>
87802f46:	6aeb      	ldr	r3, [r5, #44]	; 0x2c
87802f48:	f105 0034 	add.w	r0, r5, #52	; 0x34
87802f4c:	6b29      	ldr	r1, [r5, #48]	; 0x30
87802f4e:	6cea      	ldr	r2, [r5, #76]	; 0x4c
87802f50:	6123      	str	r3, [r4, #16]
87802f52:	68e3      	ldr	r3, [r4, #12]
87802f54:	6025      	str	r5, [r4, #0]
87802f56:	61e1      	str	r1, [r4, #28]
87802f58:	2b03      	cmp	r3, #3
87802f5a:	60a2      	str	r2, [r4, #8]
87802f5c:	6060      	str	r0, [r4, #4]
87802f5e:	d01e      	beq.n	87802f9e <vTaskGetInfo+0x6a>
87802f60:	6d6b      	ldr	r3, [r5, #84]	; 0x54
87802f62:	2f05      	cmp	r7, #5
87802f64:	f04f 0200 	mov.w	r2, #0
87802f68:	bf18      	it	ne
87802f6a:	60e7      	strne	r7, [r4, #12]
87802f6c:	61a2      	str	r2, [r4, #24]
87802f6e:	6163      	str	r3, [r4, #20]
87802f70:	d025      	beq.n	87802fbe <vTaskGetInfo+0x8a>
87802f72:	f1b8 0f00 	cmp.w	r8, #0
87802f76:	d00e      	beq.n	87802f96 <vTaskGetInfo+0x62>
87802f78:	6b29      	ldr	r1, [r5, #48]	; 0x30
87802f7a:	780b      	ldrb	r3, [r1, #0]
87802f7c:	2ba5      	cmp	r3, #165	; 0xa5
87802f7e:	d129      	bne.n	87802fd4 <vTaskGetInfo+0xa0>
87802f80:	1c4b      	adds	r3, r1, #1
87802f82:	1a58      	subs	r0, r3, r1
87802f84:	f813 2b01 	ldrb.w	r2, [r3], #1
87802f88:	2aa5      	cmp	r2, #165	; 0xa5
87802f8a:	d0fa      	beq.n	87802f82 <vTaskGetInfo+0x4e>
87802f8c:	f3c0 008f 	ubfx	r0, r0, #2, #16
87802f90:	8420      	strh	r0, [r4, #32]
87802f92:	e8bd 81f0 	ldmia.w	sp!, {r4, r5, r6, r7, r8, pc}
87802f96:	f8a4 8020 	strh.w	r8, [r4, #32]
87802f9a:	e8bd 81f0 	ldmia.w	sp!, {r4, r5, r6, r7, r8, pc}
87802f9e:	f240 1308 	movw	r3, #264	; 0x108
87802fa2:	6aa9      	ldr	r1, [r5, #40]	; 0x28
87802fa4:	f6c8 0300 	movt	r3, #34816	; 0x8800
87802fa8:	f8d3 212c 	ldr.w	r2, [r3, #300]	; 0x12c
87802fac:	3201      	adds	r2, #1
87802fae:	f8c3 212c 	str.w	r2, [r3, #300]	; 0x12c
87802fb2:	b109      	cbz	r1, 87802fb8 <vTaskGetInfo+0x84>
87802fb4:	2302      	movs	r3, #2
87802fb6:	60e3      	str	r3, [r4, #12]
87802fb8:	f7ff fd1a 	bl	878029f0 <xTaskResumeAll>
87802fbc:	e7d0      	b.n	87802f60 <vTaskGetInfo+0x2c>
87802fbe:	4630      	mov	r0, r6
87802fc0:	f7ff faf8 	bl	878025b4 <eTaskGetState>
87802fc4:	60e0      	str	r0, [r4, #12]
87802fc6:	e7d4      	b.n	87802f72 <vTaskGetInfo+0x3e>
87802fc8:	f240 1308 	movw	r3, #264	; 0x108
87802fcc:	f6c8 0300 	movt	r3, #34816	; 0x8800
87802fd0:	685d      	ldr	r5, [r3, #4]
87802fd2:	e7b8      	b.n	87802f46 <vTaskGetInfo+0x12>
87802fd4:	2000      	movs	r0, #0
87802fd6:	e7db      	b.n	87802f90 <vTaskGetInfo+0x5c>

87802fd8 <prvListTasksWithinSingleList.part.3>:
87802fd8:	684b      	ldr	r3, [r1, #4]
87802fda:	e92d 47f0 	stmdb	sp!, {r4, r5, r6, r7, r8, r9, sl, lr}
87802fde:	f101 0808 	add.w	r8, r1, #8
87802fe2:	460e      	mov	r6, r1
87802fe4:	4692      	mov	sl, r2
87802fe6:	4605      	mov	r5, r0
87802fe8:	2700      	movs	r7, #0
87802fea:	685b      	ldr	r3, [r3, #4]
87802fec:	4543      	cmp	r3, r8
87802fee:	604b      	str	r3, [r1, #4]
87802ff0:	bf08      	it	eq
87802ff2:	68cb      	ldreq	r3, [r1, #12]
87802ff4:	f8d3 900c 	ldr.w	r9, [r3, #12]
87802ff8:	e000      	b.n	87802ffc <prvListTasksWithinSingleList.part.3+0x24>
87802ffa:	6873      	ldr	r3, [r6, #4]
87802ffc:	685c      	ldr	r4, [r3, #4]
87802ffe:	4629      	mov	r1, r5
87803000:	2201      	movs	r2, #1
87803002:	4653      	mov	r3, sl
87803004:	4417      	add	r7, r2
87803006:	3524      	adds	r5, #36	; 0x24
87803008:	45a0      	cmp	r8, r4
8780300a:	6074      	str	r4, [r6, #4]
8780300c:	bf04      	itt	eq
8780300e:	68f4      	ldreq	r4, [r6, #12]
87803010:	6074      	streq	r4, [r6, #4]
87803012:	68e4      	ldr	r4, [r4, #12]
87803014:	4620      	mov	r0, r4
87803016:	f7ff ff8d 	bl	87802f34 <vTaskGetInfo>
8780301a:	45a1      	cmp	r9, r4
8780301c:	d1ed      	bne.n	87802ffa <prvListTasksWithinSingleList.part.3+0x22>
8780301e:	4638      	mov	r0, r7
87803020:	e8bd 87f0 	ldmia.w	sp!, {r4, r5, r6, r7, r8, r9, sl, pc}

87803024 <uxTaskGetSystemState>:
87803024:	e92d 43f8 	stmdb	sp!, {r3, r4, r5, r6, r7, r8, r9, lr}
87803028:	f240 1808 	movw	r8, #264	; 0x108
8780302c:	f6c8 0800 	movt	r8, #34816	; 0x8800
87803030:	f8d8 312c 	ldr.w	r3, [r8, #300]	; 0x12c
87803034:	3301      	adds	r3, #1
87803036:	f8c8 312c 	str.w	r3, [r8, #300]	; 0x12c
8780303a:	f8d8 3040 	ldr.w	r3, [r8, #64]	; 0x40
8780303e:	428b      	cmp	r3, r1
87803040:	bf88      	it	hi
87803042:	2400      	movhi	r4, #0
87803044:	d82f      	bhi.n	878030a6 <uxTaskGetSystemState+0x82>
87803046:	4607      	mov	r7, r0
87803048:	4616      	mov	r6, r2
8780304a:	f108 04d0 	add.w	r4, r8, #208	; 0xd0
8780304e:	f108 0930 	add.w	r9, r8, #48	; 0x30
87803052:	2500      	movs	r5, #0
87803054:	e003      	b.n	8780305e <uxTaskGetSystemState+0x3a>
87803056:	3c14      	subs	r4, #20
87803058:	4405      	add	r5, r0
8780305a:	45a1      	cmp	r9, r4
8780305c:	d00e      	beq.n	8780307c <uxTaskGetSystemState+0x58>
8780305e:	6820      	ldr	r0, [r4, #0]
87803060:	2800      	cmp	r0, #0
87803062:	d0f8      	beq.n	87803056 <uxTaskGetSystemState+0x32>
87803064:	eb05 00c5 	add.w	r0, r5, r5, lsl #3
87803068:	4621      	mov	r1, r4
8780306a:	2201      	movs	r2, #1
8780306c:	eb07 0080 	add.w	r0, r7, r0, lsl #2
87803070:	3c14      	subs	r4, #20
87803072:	f7ff ffb1 	bl	87802fd8 <prvListTasksWithinSingleList.part.3>
87803076:	45a1      	cmp	r9, r4
87803078:	4405      	add	r5, r0
8780307a:	d1f0      	bne.n	8780305e <uxTaskGetSystemState+0x3a>
8780307c:	f8d8 1024 	ldr.w	r1, [r8, #36]	; 0x24
87803080:	6808      	ldr	r0, [r1, #0]
87803082:	b9f0      	cbnz	r0, 878030c2 <uxTaskGetSystemState+0x9e>
87803084:	f8d8 1020 	ldr.w	r1, [r8, #32]
87803088:	182c      	adds	r4, r5, r0
8780308a:	6808      	ldr	r0, [r1, #0]
8780308c:	bb30      	cbnz	r0, 878030dc <uxTaskGetSystemState+0xb8>
8780308e:	f8d8 310c 	ldr.w	r3, [r8, #268]	; 0x10c
87803092:	4404      	add	r4, r0
87803094:	bb73      	cbnz	r3, 878030f4 <uxTaskGetSystemState+0xd0>
87803096:	f8d8 000c 	ldr.w	r0, [r8, #12]
8780309a:	441c      	add	r4, r3
8780309c:	b940      	cbnz	r0, 878030b0 <uxTaskGetSystemState+0x8c>
8780309e:	4404      	add	r4, r0
878030a0:	b10e      	cbz	r6, 878030a6 <uxTaskGetSystemState+0x82>
878030a2:	2300      	movs	r3, #0
878030a4:	6033      	str	r3, [r6, #0]
878030a6:	f7ff fca3 	bl	878029f0 <xTaskResumeAll>
878030aa:	4620      	mov	r0, r4
878030ac:	e8bd 83f8 	ldmia.w	sp!, {r3, r4, r5, r6, r7, r8, r9, pc}
878030b0:	eb04 00c4 	add.w	r0, r4, r4, lsl #3
878030b4:	2203      	movs	r2, #3
878030b6:	4917      	ldr	r1, [pc, #92]	; (87803114 <uxTaskGetSystemState+0xf0>)
878030b8:	eb07 0080 	add.w	r0, r7, r0, lsl #2
878030bc:	f7ff ff8c 	bl	87802fd8 <prvListTasksWithinSingleList.part.3>
878030c0:	e7ed      	b.n	8780309e <uxTaskGetSystemState+0x7a>
878030c2:	eb05 00c5 	add.w	r0, r5, r5, lsl #3
878030c6:	2202      	movs	r2, #2
878030c8:	eb07 0080 	add.w	r0, r7, r0, lsl #2
878030cc:	f7ff ff84 	bl	87802fd8 <prvListTasksWithinSingleList.part.3>
878030d0:	f8d8 1020 	ldr.w	r1, [r8, #32]
878030d4:	182c      	adds	r4, r5, r0
878030d6:	6808      	ldr	r0, [r1, #0]
878030d8:	2800      	cmp	r0, #0
878030da:	d0d8      	beq.n	8780308e <uxTaskGetSystemState+0x6a>
878030dc:	eb04 00c4 	add.w	r0, r4, r4, lsl #3
878030e0:	2202      	movs	r2, #2
878030e2:	eb07 0080 	add.w	r0, r7, r0, lsl #2
878030e6:	f7ff ff77 	bl	87802fd8 <prvListTasksWithinSingleList.part.3>
878030ea:	f8d8 310c 	ldr.w	r3, [r8, #268]	; 0x10c
878030ee:	4404      	add	r4, r0
878030f0:	2b00      	cmp	r3, #0
878030f2:	d0d0      	beq.n	87803096 <uxTaskGetSystemState+0x72>
878030f4:	eb04 00c4 	add.w	r0, r4, r4, lsl #3
878030f8:	2204      	movs	r2, #4
878030fa:	4907      	ldr	r1, [pc, #28]	; (87803118 <uxTaskGetSystemState+0xf4>)
878030fc:	eb07 0080 	add.w	r0, r7, r0, lsl #2
87803100:	f7ff ff6a 	bl	87802fd8 <prvListTasksWithinSingleList.part.3>
87803104:	4603      	mov	r3, r0
87803106:	f8d8 000c 	ldr.w	r0, [r8, #12]
8780310a:	441c      	add	r4, r3
8780310c:	2800      	cmp	r0, #0
8780310e:	d0c6      	beq.n	8780309e <uxTaskGetSystemState+0x7a>
87803110:	e7ce      	b.n	878030b0 <uxTaskGetSystemState+0x8c>
87803112:	bf00      	nop
87803114:	88000114 	stmdahi	r0, {r2, r4, r8}
87803118:	88000214 	stmdahi	r0, {r2, r4, r9}

8780311c <xTaskGetCurrentTaskHandle>:
8780311c:	f240 1308 	movw	r3, #264	; 0x108
87803120:	f6c8 0300 	movt	r3, #34816	; 0x8800
87803124:	6858      	ldr	r0, [r3, #4]
87803126:	4770      	bx	lr

87803128 <xTaskGetSchedulerState>:
87803128:	f240 1308 	movw	r3, #264	; 0x108
8780312c:	f6c8 0300 	movt	r3, #34816	; 0x8800
87803130:	f8d3 2120 	ldr.w	r2, [r3, #288]	; 0x120
87803134:	b132      	cbz	r2, 87803144 <xTaskGetSchedulerState+0x1c>
87803136:	f8d3 312c 	ldr.w	r3, [r3, #300]	; 0x12c
8780313a:	2b00      	cmp	r3, #0
8780313c:	bf0c      	ite	eq
8780313e:	2002      	moveq	r0, #2
87803140:	2000      	movne	r0, #0
87803142:	4770      	bx	lr
87803144:	2001      	movs	r0, #1
87803146:	4770      	bx	lr

87803148 <vTaskPriorityInherit>:
87803148:	2800      	cmp	r0, #0
8780314a:	d043      	beq.n	878031d4 <vTaskPriorityInherit+0x8c>
8780314c:	b5f8      	push	{r3, r4, r5, r6, r7, lr}
8780314e:	f240 1408 	movw	r4, #264	; 0x108
87803152:	f6c8 0400 	movt	r4, #34816	; 0x8800
87803156:	6ac3      	ldr	r3, [r0, #44]	; 0x2c
87803158:	6862      	ldr	r2, [r4, #4]
8780315a:	6ad2      	ldr	r2, [r2, #44]	; 0x2c
8780315c:	4293      	cmp	r3, r2
8780315e:	d213      	bcs.n	87803188 <vTaskPriorityInherit+0x40>
87803160:	6982      	ldr	r2, [r0, #24]
87803162:	eb03 0383 	add.w	r3, r3, r3, lsl #2
87803166:	4d1c      	ldr	r5, [pc, #112]	; (878031d8 <vTaskPriorityInherit+0x90>)
87803168:	2a00      	cmp	r2, #0
8780316a:	bfa8      	it	ge
8780316c:	6862      	ldrge	r2, [r4, #4]
8780316e:	eb05 0383 	add.w	r3, r5, r3, lsl #2
87803172:	bfa2      	ittt	ge
87803174:	6ad2      	ldrge	r2, [r2, #44]	; 0x2c
87803176:	f1c2 0208 	rsbge	r2, r2, #8
8780317a:	6182      	strge	r2, [r0, #24]
8780317c:	6942      	ldr	r2, [r0, #20]
8780317e:	429a      	cmp	r2, r3
87803180:	d003      	beq.n	8780318a <vTaskPriorityInherit+0x42>
87803182:	6863      	ldr	r3, [r4, #4]
87803184:	6adb      	ldr	r3, [r3, #44]	; 0x2c
87803186:	62c3      	str	r3, [r0, #44]	; 0x2c
87803188:	bdf8      	pop	{r3, r4, r5, r6, r7, pc}
8780318a:	1d07      	adds	r7, r0, #4
8780318c:	4606      	mov	r6, r0
8780318e:	4638      	mov	r0, r7
87803190:	f7fe ff08 	bl	87801fa4 <uxListRemove>
87803194:	b968      	cbnz	r0, 878031b2 <vTaskPriorityInherit+0x6a>
87803196:	6af2      	ldr	r2, [r6, #44]	; 0x2c
87803198:	eb02 0382 	add.w	r3, r2, r2, lsl #2
8780319c:	eb04 0383 	add.w	r3, r4, r3, lsl #2
878031a0:	6c5b      	ldr	r3, [r3, #68]	; 0x44
878031a2:	b933      	cbnz	r3, 878031b2 <vTaskPriorityInherit+0x6a>
878031a4:	68a3      	ldr	r3, [r4, #8]
878031a6:	2101      	movs	r1, #1
878031a8:	fa01 f202 	lsl.w	r2, r1, r2
878031ac:	ea23 0202 	bic.w	r2, r3, r2
878031b0:	60a2      	str	r2, [r4, #8]
878031b2:	6860      	ldr	r0, [r4, #4]
878031b4:	2301      	movs	r3, #1
878031b6:	68a2      	ldr	r2, [r4, #8]
878031b8:	4639      	mov	r1, r7
878031ba:	6ac0      	ldr	r0, [r0, #44]	; 0x2c
878031bc:	62f0      	str	r0, [r6, #44]	; 0x2c
878031be:	4083      	lsls	r3, r0
878031c0:	eb00 0080 	add.w	r0, r0, r0, lsl #2
878031c4:	4313      	orrs	r3, r2
878031c6:	eb05 0080 	add.w	r0, r5, r0, lsl #2
878031ca:	60a3      	str	r3, [r4, #8]
878031cc:	e8bd 40f8 	ldmia.w	sp!, {r3, r4, r5, r6, r7, lr}
878031d0:	f7fe bebe 	b.w	87801f50 <vListInsertEnd>
878031d4:	4770      	bx	lr
878031d6:	bf00      	nop
878031d8:	8800014c 	stmdahi	r0, {r2, r3, r6, r8}

878031dc <xTaskPriorityDisinherit>:
878031dc:	b158      	cbz	r0, 878031f6 <xTaskPriorityDisinherit+0x1a>
878031de:	b5f8      	push	{r3, r4, r5, r6, r7, lr}
878031e0:	f240 1508 	movw	r5, #264	; 0x108
878031e4:	f6c8 0500 	movt	r5, #34816	; 0x8800
878031e8:	4604      	mov	r4, r0
878031ea:	686b      	ldr	r3, [r5, #4]
878031ec:	4298      	cmp	r0, r3
878031ee:	d004      	beq.n	878031fa <xTaskPriorityDisinherit+0x1e>
878031f0:	f000 fe52 	bl	87803e98 <ulPortSetInterruptMask>
878031f4:	e7fe      	b.n	878031f4 <xTaskPriorityDisinherit+0x18>
878031f6:	2000      	movs	r0, #0
878031f8:	4770      	bx	lr
878031fa:	6d83      	ldr	r3, [r0, #88]	; 0x58
878031fc:	b163      	cbz	r3, 87803218 <xTaskPriorityDisinherit+0x3c>
878031fe:	6ac2      	ldr	r2, [r0, #44]	; 0x2c
87803200:	3b01      	subs	r3, #1
87803202:	6d41      	ldr	r1, [r0, #84]	; 0x54
87803204:	6583      	str	r3, [r0, #88]	; 0x58
87803206:	1a52      	subs	r2, r2, r1
87803208:	bf18      	it	ne
8780320a:	2201      	movne	r2, #1
8780320c:	2b00      	cmp	r3, #0
8780320e:	bf18      	it	ne
87803210:	2200      	movne	r2, #0
87803212:	b922      	cbnz	r2, 8780321e <xTaskPriorityDisinherit+0x42>
87803214:	2000      	movs	r0, #0
87803216:	bdf8      	pop	{r3, r4, r5, r6, r7, pc}
87803218:	f000 fe3e 	bl	87803e98 <ulPortSetInterruptMask>
8780321c:	e7fe      	b.n	8780321c <xTaskPriorityDisinherit+0x40>
8780321e:	1d07      	adds	r7, r0, #4
87803220:	4638      	mov	r0, r7
87803222:	f7fe febf 	bl	87801fa4 <uxListRemove>
87803226:	b960      	cbnz	r0, 87803242 <xTaskPriorityDisinherit+0x66>
87803228:	6ae0      	ldr	r0, [r4, #44]	; 0x2c
8780322a:	eb00 0380 	add.w	r3, r0, r0, lsl #2
8780322e:	eb05 0383 	add.w	r3, r5, r3, lsl #2
87803232:	6c5b      	ldr	r3, [r3, #68]	; 0x44
87803234:	b92b      	cbnz	r3, 87803242 <xTaskPriorityDisinherit+0x66>
87803236:	68ab      	ldr	r3, [r5, #8]
87803238:	2201      	movs	r2, #1
8780323a:	4082      	lsls	r2, r0
8780323c:	ea23 0302 	bic.w	r3, r3, r2
87803240:	60ab      	str	r3, [r5, #8]
87803242:	6d63      	ldr	r3, [r4, #84]	; 0x54
87803244:	2601      	movs	r6, #1
87803246:	480a      	ldr	r0, [pc, #40]	; (87803270 <xTaskPriorityDisinherit+0x94>)
87803248:	4639      	mov	r1, r7
8780324a:	f8d5 e008 	ldr.w	lr, [r5, #8]
8780324e:	62e3      	str	r3, [r4, #44]	; 0x2c
87803250:	fa06 f203 	lsl.w	r2, r6, r3
87803254:	eb03 0783 	add.w	r7, r3, r3, lsl #2
87803258:	f1c3 0308 	rsb	r3, r3, #8
8780325c:	ea42 020e 	orr.w	r2, r2, lr
87803260:	eb00 0087 	add.w	r0, r0, r7, lsl #2
87803264:	61a3      	str	r3, [r4, #24]
87803266:	60aa      	str	r2, [r5, #8]
87803268:	f7fe fe72 	bl	87801f50 <vListInsertEnd>
8780326c:	4630      	mov	r0, r6
8780326e:	bdf8      	pop	{r3, r4, r5, r6, r7, pc}
87803270:	8800014c 	stmdahi	r0, {r2, r3, r6, r8}

87803274 <uxTaskResetEventItemValue>:
87803274:	f240 1308 	movw	r3, #264	; 0x108
87803278:	f6c8 0300 	movt	r3, #34816	; 0x8800
8780327c:	6859      	ldr	r1, [r3, #4]
8780327e:	685a      	ldr	r2, [r3, #4]
87803280:	685b      	ldr	r3, [r3, #4]
87803282:	6988      	ldr	r0, [r1, #24]
87803284:	6adb      	ldr	r3, [r3, #44]	; 0x2c
87803286:	f1c3 0308 	rsb	r3, r3, #8
8780328a:	6193      	str	r3, [r2, #24]
8780328c:	4770      	bx	lr
8780328e:	bf00      	nop

87803290 <pvTaskIncrementMutexHeldCount>:
87803290:	f240 1308 	movw	r3, #264	; 0x108
87803294:	f6c8 0300 	movt	r3, #34816	; 0x8800
87803298:	685a      	ldr	r2, [r3, #4]
8780329a:	b11a      	cbz	r2, 878032a4 <pvTaskIncrementMutexHeldCount+0x14>
8780329c:	6859      	ldr	r1, [r3, #4]
8780329e:	6d8a      	ldr	r2, [r1, #88]	; 0x58
878032a0:	3201      	adds	r2, #1
878032a2:	658a      	str	r2, [r1, #88]	; 0x58
878032a4:	6858      	ldr	r0, [r3, #4]
878032a6:	4770      	bx	lr

878032a8 <ulTaskNotifyTake>:
878032a8:	b570      	push	{r4, r5, r6, lr}
878032aa:	f240 1408 	movw	r4, #264	; 0x108
878032ae:	f6c8 0400 	movt	r4, #34816	; 0x8800
878032b2:	4606      	mov	r6, r0
878032b4:	460d      	mov	r5, r1
878032b6:	f000 fd6d 	bl	87803d94 <vPortEnterCritical>
878032ba:	6863      	ldr	r3, [r4, #4]
878032bc:	6f1b      	ldr	r3, [r3, #112]	; 0x70
878032be:	b923      	cbnz	r3, 878032ca <ulTaskNotifyTake+0x22>
878032c0:	6863      	ldr	r3, [r4, #4]
878032c2:	2101      	movs	r1, #1
878032c4:	f883 1074 	strb.w	r1, [r3, #116]	; 0x74
878032c8:	b9ad      	cbnz	r5, 878032f6 <ulTaskNotifyTake+0x4e>
878032ca:	f000 fda5 	bl	87803e18 <vPortExitCritical>
878032ce:	f000 fd61 	bl	87803d94 <vPortEnterCritical>
878032d2:	6863      	ldr	r3, [r4, #4]
878032d4:	6f1d      	ldr	r5, [r3, #112]	; 0x70
878032d6:	b11d      	cbz	r5, 878032e0 <ulTaskNotifyTake+0x38>
878032d8:	6863      	ldr	r3, [r4, #4]
878032da:	b94e      	cbnz	r6, 878032f0 <ulTaskNotifyTake+0x48>
878032dc:	1e6a      	subs	r2, r5, #1
878032de:	671a      	str	r2, [r3, #112]	; 0x70
878032e0:	6863      	ldr	r3, [r4, #4]
878032e2:	2200      	movs	r2, #0
878032e4:	f883 2074 	strb.w	r2, [r3, #116]	; 0x74
878032e8:	f000 fd96 	bl	87803e18 <vPortExitCritical>
878032ec:	4628      	mov	r0, r5
878032ee:	bd70      	pop	{r4, r5, r6, pc}
878032f0:	2200      	movs	r2, #0
878032f2:	671a      	str	r2, [r3, #112]	; 0x70
878032f4:	e7f4      	b.n	878032e0 <ulTaskNotifyTake+0x38>
878032f6:	4628      	mov	r0, r5
878032f8:	f7fe ffd0 	bl	8780229c <prvAddCurrentTaskToDelayedList>
878032fc:	df00      	svc	0
878032fe:	e7e4      	b.n	878032ca <ulTaskNotifyTake+0x22>

87803300 <xTaskNotifyWait>:
87803300:	e92d 43f8 	stmdb	sp!, {r3, r4, r5, r6, r7, r8, r9, lr}
87803304:	f240 1408 	movw	r4, #264	; 0x108
87803308:	f6c8 0400 	movt	r4, #34816	; 0x8800
8780330c:	4615      	mov	r5, r2
8780330e:	4681      	mov	r9, r0
87803310:	460f      	mov	r7, r1
87803312:	4698      	mov	r8, r3
87803314:	f000 fd3e 	bl	87803d94 <vPortEnterCritical>
87803318:	6862      	ldr	r2, [r4, #4]
8780331a:	f892 2074 	ldrb.w	r2, [r2, #116]	; 0x74
8780331e:	2a02      	cmp	r2, #2
87803320:	d00b      	beq.n	8780333a <xTaskNotifyWait+0x3a>
87803322:	6866      	ldr	r6, [r4, #4]
87803324:	2101      	movs	r1, #1
87803326:	6f32      	ldr	r2, [r6, #112]	; 0x70
87803328:	ea22 0209 	bic.w	r2, r2, r9
8780332c:	6732      	str	r2, [r6, #112]	; 0x70
8780332e:	6863      	ldr	r3, [r4, #4]
87803330:	f883 1074 	strb.w	r1, [r3, #116]	; 0x74
87803334:	f1b8 0f00 	cmp.w	r8, #0
87803338:	d11c      	bne.n	87803374 <xTaskNotifyWait+0x74>
8780333a:	f000 fd6d 	bl	87803e18 <vPortExitCritical>
8780333e:	f000 fd29 	bl	87803d94 <vPortEnterCritical>
87803342:	b115      	cbz	r5, 8780334a <xTaskNotifyWait+0x4a>
87803344:	6863      	ldr	r3, [r4, #4]
87803346:	6f1b      	ldr	r3, [r3, #112]	; 0x70
87803348:	602b      	str	r3, [r5, #0]
8780334a:	6863      	ldr	r3, [r4, #4]
8780334c:	2200      	movs	r2, #0
8780334e:	f893 3074 	ldrb.w	r3, [r3, #116]	; 0x74
87803352:	2b01      	cmp	r3, #1
87803354:	bf1b      	ittet	ne
87803356:	6863      	ldrne	r3, [r4, #4]
87803358:	2501      	movne	r5, #1
8780335a:	2500      	moveq	r5, #0
8780335c:	6f19      	ldrne	r1, [r3, #112]	; 0x70
8780335e:	bf1c      	itt	ne
87803360:	43b9      	bicne	r1, r7
87803362:	6719      	strne	r1, [r3, #112]	; 0x70
87803364:	6863      	ldr	r3, [r4, #4]
87803366:	f883 2074 	strb.w	r2, [r3, #116]	; 0x74
8780336a:	f000 fd55 	bl	87803e18 <vPortExitCritical>
8780336e:	4628      	mov	r0, r5
87803370:	e8bd 83f8 	ldmia.w	sp!, {r3, r4, r5, r6, r7, r8, r9, pc}
87803374:	4640      	mov	r0, r8
87803376:	f7fe ff91 	bl	8780229c <prvAddCurrentTaskToDelayedList>
8780337a:	df00      	svc	0
8780337c:	e7dd      	b.n	8780333a <xTaskNotifyWait+0x3a>
8780337e:	bf00      	nop

87803380 <xTaskGenericNotify>:
87803380:	b5f8      	push	{r3, r4, r5, r6, r7, lr}
87803382:	2800      	cmp	r0, #0
87803384:	d04a      	beq.n	8780341c <xTaskGenericNotify+0x9c>
87803386:	461d      	mov	r5, r3
87803388:	460f      	mov	r7, r1
8780338a:	4616      	mov	r6, r2
8780338c:	4604      	mov	r4, r0
8780338e:	f000 fd01 	bl	87803d94 <vPortEnterCritical>
87803392:	b10d      	cbz	r5, 87803398 <xTaskGenericNotify+0x18>
87803394:	6f23      	ldr	r3, [r4, #112]	; 0x70
87803396:	602b      	str	r3, [r5, #0]
87803398:	f894 5074 	ldrb.w	r5, [r4, #116]	; 0x74
8780339c:	2202      	movs	r2, #2
8780339e:	1e73      	subs	r3, r6, #1
878033a0:	f884 2074 	strb.w	r2, [r4, #116]	; 0x74
878033a4:	b2ed      	uxtb	r5, r5
878033a6:	2b03      	cmp	r3, #3
878033a8:	d804      	bhi.n	878033b4 <xTaskGenericNotify+0x34>
878033aa:	e8df f003 	tbb	[pc, r3]
878033ae:	30020a2c 	andcc	r0, r2, ip, lsr #20
878033b2:	6727      	str	r7, [r4, #112]	; 0x70
878033b4:	2d01      	cmp	r5, #1
878033b6:	d00a      	beq.n	878033ce <xTaskGenericNotify+0x4e>
878033b8:	2501      	movs	r5, #1
878033ba:	f000 fd2d 	bl	87803e18 <vPortExitCritical>
878033be:	4628      	mov	r0, r5
878033c0:	bdf8      	pop	{r3, r4, r5, r6, r7, pc}
878033c2:	6f23      	ldr	r3, [r4, #112]	; 0x70
878033c4:	2d01      	cmp	r5, #1
878033c6:	f103 0301 	add.w	r3, r3, #1
878033ca:	6723      	str	r3, [r4, #112]	; 0x70
878033cc:	d1f4      	bne.n	878033b8 <xTaskGenericNotify+0x38>
878033ce:	1d27      	adds	r7, r4, #4
878033d0:	f240 1608 	movw	r6, #264	; 0x108
878033d4:	4638      	mov	r0, r7
878033d6:	f6c8 0600 	movt	r6, #34816	; 0x8800
878033da:	f7fe fde3 	bl	87801fa4 <uxListRemove>
878033de:	6ae3      	ldr	r3, [r4, #44]	; 0x2c
878033e0:	4639      	mov	r1, r7
878033e2:	68b7      	ldr	r7, [r6, #8]
878033e4:	f106 0044 	add.w	r0, r6, #68	; 0x44
878033e8:	fa05 f203 	lsl.w	r2, r5, r3
878033ec:	eb03 0383 	add.w	r3, r3, r3, lsl #2
878033f0:	433a      	orrs	r2, r7
878033f2:	eb00 0083 	add.w	r0, r0, r3, lsl #2
878033f6:	60b2      	str	r2, [r6, #8]
878033f8:	f7fe fdaa 	bl	87801f50 <vListInsertEnd>
878033fc:	6aa3      	ldr	r3, [r4, #40]	; 0x28
878033fe:	b183      	cbz	r3, 87803422 <xTaskGenericNotify+0xa2>
87803400:	f000 fd4a 	bl	87803e98 <ulPortSetInterruptMask>
87803404:	e7fe      	b.n	87803404 <xTaskGenericNotify+0x84>
87803406:	6f23      	ldr	r3, [r4, #112]	; 0x70
87803408:	431f      	orrs	r7, r3
8780340a:	6727      	str	r7, [r4, #112]	; 0x70
8780340c:	e7d2      	b.n	878033b4 <xTaskGenericNotify+0x34>
8780340e:	2d02      	cmp	r5, #2
87803410:	d1cf      	bne.n	878033b2 <xTaskGenericNotify+0x32>
87803412:	2500      	movs	r5, #0
87803414:	f000 fd00 	bl	87803e18 <vPortExitCritical>
87803418:	4628      	mov	r0, r5
8780341a:	bdf8      	pop	{r3, r4, r5, r6, r7, pc}
8780341c:	f000 fd3c 	bl	87803e98 <ulPortSetInterruptMask>
87803420:	e7fe      	b.n	87803420 <xTaskGenericNotify+0xa0>
87803422:	6873      	ldr	r3, [r6, #4]
87803424:	6ae2      	ldr	r2, [r4, #44]	; 0x2c
87803426:	6adb      	ldr	r3, [r3, #44]	; 0x2c
87803428:	429a      	cmp	r2, r3
8780342a:	d9c5      	bls.n	878033b8 <xTaskGenericNotify+0x38>
8780342c:	df00      	svc	0
8780342e:	f000 fcf3 	bl	87803e18 <vPortExitCritical>
87803432:	4628      	mov	r0, r5
87803434:	bdf8      	pop	{r3, r4, r5, r6, r7, pc}
87803436:	bf00      	nop

87803438 <xTaskGenericNotifyFromISR>:
87803438:	e92d 43f8 	stmdb	sp!, {r3, r4, r5, r6, r7, r8, r9, lr}
8780343c:	f8dd 8020 	ldr.w	r8, [sp, #32]
87803440:	2800      	cmp	r0, #0
87803442:	d03a      	beq.n	878034ba <xTaskGenericNotifyFromISR+0x82>
87803444:	461e      	mov	r6, r3
87803446:	4689      	mov	r9, r1
87803448:	4615      	mov	r5, r2
8780344a:	4604      	mov	r4, r0
8780344c:	f000 fd40 	bl	87803ed0 <vPortValidateInterruptPriority>
87803450:	f000 fd22 	bl	87803e98 <ulPortSetInterruptMask>
87803454:	4607      	mov	r7, r0
87803456:	b10e      	cbz	r6, 8780345c <xTaskGenericNotifyFromISR+0x24>
87803458:	6f23      	ldr	r3, [r4, #112]	; 0x70
8780345a:	6033      	str	r3, [r6, #0]
8780345c:	f894 6074 	ldrb.w	r6, [r4, #116]	; 0x74
87803460:	2202      	movs	r2, #2
87803462:	1e6b      	subs	r3, r5, #1
87803464:	f884 2074 	strb.w	r2, [r4, #116]	; 0x74
87803468:	b2f6      	uxtb	r6, r6
8780346a:	2b03      	cmp	r3, #3
8780346c:	d805      	bhi.n	8780347a <xTaskGenericNotifyFromISR+0x42>
8780346e:	e8df f003 	tbb	[pc, r3]
87803472:	1b021216 	blne	87887cd2 <__DATA_END+0x812d6>
87803476:	f8c4 9070 	str.w	r9, [r4, #112]	; 0x70
8780347a:	2e01      	cmp	r6, #1
8780347c:	d104      	bne.n	87803488 <xTaskGenericNotifyFromISR+0x50>
8780347e:	6aa3      	ldr	r3, [r4, #40]	; 0x28
87803480:	b1f3      	cbz	r3, 878034c0 <xTaskGenericNotifyFromISR+0x88>
87803482:	f000 fd09 	bl	87803e98 <ulPortSetInterruptMask>
87803486:	e7fe      	b.n	87803486 <xTaskGenericNotifyFromISR+0x4e>
87803488:	4638      	mov	r0, r7
8780348a:	2401      	movs	r4, #1
8780348c:	f000 fcee 	bl	87803e6c <vPortClearInterruptMask>
87803490:	4620      	mov	r0, r4
87803492:	e8bd 83f8 	ldmia.w	sp!, {r3, r4, r5, r6, r7, r8, r9, pc}
87803496:	6f23      	ldr	r3, [r4, #112]	; 0x70
87803498:	3301      	adds	r3, #1
8780349a:	6723      	str	r3, [r4, #112]	; 0x70
8780349c:	e7ed      	b.n	8780347a <xTaskGenericNotifyFromISR+0x42>
8780349e:	6f23      	ldr	r3, [r4, #112]	; 0x70
878034a0:	ea43 0309 	orr.w	r3, r3, r9
878034a4:	6723      	str	r3, [r4, #112]	; 0x70
878034a6:	e7e8      	b.n	8780347a <xTaskGenericNotifyFromISR+0x42>
878034a8:	2e02      	cmp	r6, #2
878034aa:	d1e4      	bne.n	87803476 <xTaskGenericNotifyFromISR+0x3e>
878034ac:	4638      	mov	r0, r7
878034ae:	2400      	movs	r4, #0
878034b0:	f000 fcdc 	bl	87803e6c <vPortClearInterruptMask>
878034b4:	4620      	mov	r0, r4
878034b6:	e8bd 83f8 	ldmia.w	sp!, {r3, r4, r5, r6, r7, r8, r9, pc}
878034ba:	f000 fced 	bl	87803e98 <ulPortSetInterruptMask>
878034be:	e7fe      	b.n	878034be <xTaskGenericNotifyFromISR+0x86>
878034c0:	f240 1508 	movw	r5, #264	; 0x108
878034c4:	f6c8 0500 	movt	r5, #34816	; 0x8800
878034c8:	f8d5 312c 	ldr.w	r3, [r5, #300]	; 0x12c
878034cc:	bb33      	cbnz	r3, 8780351c <xTaskGenericNotifyFromISR+0xe4>
878034ce:	f104 0904 	add.w	r9, r4, #4
878034d2:	4648      	mov	r0, r9
878034d4:	f7fe fd66 	bl	87801fa4 <uxListRemove>
878034d8:	6ae2      	ldr	r2, [r4, #44]	; 0x2c
878034da:	f105 0044 	add.w	r0, r5, #68	; 0x44
878034de:	f8d5 e008 	ldr.w	lr, [r5, #8]
878034e2:	4649      	mov	r1, r9
878034e4:	fa06 f302 	lsl.w	r3, r6, r2
878034e8:	eb02 0282 	add.w	r2, r2, r2, lsl #2
878034ec:	ea43 030e 	orr.w	r3, r3, lr
878034f0:	eb00 0082 	add.w	r0, r0, r2, lsl #2
878034f4:	60ab      	str	r3, [r5, #8]
878034f6:	f7fe fd2b 	bl	87801f50 <vListInsertEnd>
878034fa:	686b      	ldr	r3, [r5, #4]
878034fc:	6ae2      	ldr	r2, [r4, #44]	; 0x2c
878034fe:	6adb      	ldr	r3, [r3, #44]	; 0x2c
87803500:	429a      	cmp	r2, r3
87803502:	d9c1      	bls.n	87803488 <xTaskGenericNotifyFromISR+0x50>
87803504:	2401      	movs	r4, #1
87803506:	f1b8 0f00 	cmp.w	r8, #0
8780350a:	d00e      	beq.n	8780352a <xTaskGenericNotifyFromISR+0xf2>
8780350c:	4638      	mov	r0, r7
8780350e:	f8c8 4000 	str.w	r4, [r8]
87803512:	f000 fcab 	bl	87803e6c <vPortClearInterruptMask>
87803516:	4620      	mov	r0, r4
87803518:	e8bd 83f8 	ldmia.w	sp!, {r3, r4, r5, r6, r7, r8, r9, pc}
8780351c:	f104 0118 	add.w	r1, r4, #24
87803520:	f105 002c 	add.w	r0, r5, #44	; 0x2c
87803524:	f7fe fd14 	bl	87801f50 <vListInsertEnd>
87803528:	e7e7      	b.n	878034fa <xTaskGenericNotifyFromISR+0xc2>
8780352a:	4638      	mov	r0, r7
8780352c:	f8c5 413c 	str.w	r4, [r5, #316]	; 0x13c
87803530:	f000 fc9c 	bl	87803e6c <vPortClearInterruptMask>
87803534:	4620      	mov	r0, r4
87803536:	e8bd 83f8 	ldmia.w	sp!, {r3, r4, r5, r6, r7, r8, r9, pc}
8780353a:	bf00      	nop

8780353c <vTaskNotifyGiveFromISR>:
8780353c:	e92d 43f8 	stmdb	sp!, {r3, r4, r5, r6, r7, r8, r9, lr}
87803540:	2800      	cmp	r0, #0
87803542:	d040      	beq.n	878035c6 <vTaskNotifyGiveFromISR+0x8a>
87803544:	4604      	mov	r4, r0
87803546:	460f      	mov	r7, r1
87803548:	f000 fcc2 	bl	87803ed0 <vPortValidateInterruptPriority>
8780354c:	f000 fca4 	bl	87803e98 <ulPortSetInterruptMask>
87803550:	f894 6074 	ldrb.w	r6, [r4, #116]	; 0x74
87803554:	2302      	movs	r3, #2
87803556:	f884 3074 	strb.w	r3, [r4, #116]	; 0x74
8780355a:	4680      	mov	r8, r0
8780355c:	6f23      	ldr	r3, [r4, #112]	; 0x70
8780355e:	b2f6      	uxtb	r6, r6
87803560:	3301      	adds	r3, #1
87803562:	2e01      	cmp	r6, #1
87803564:	6723      	str	r3, [r4, #112]	; 0x70
87803566:	d129      	bne.n	878035bc <vTaskNotifyGiveFromISR+0x80>
87803568:	6aa3      	ldr	r3, [r4, #40]	; 0x28
8780356a:	b113      	cbz	r3, 87803572 <vTaskNotifyGiveFromISR+0x36>
8780356c:	f000 fc94 	bl	87803e98 <ulPortSetInterruptMask>
87803570:	e7fe      	b.n	87803570 <vTaskNotifyGiveFromISR+0x34>
87803572:	f240 1508 	movw	r5, #264	; 0x108
87803576:	f6c8 0500 	movt	r5, #34816	; 0x8800
8780357a:	f8d5 312c 	ldr.w	r3, [r5, #300]	; 0x12c
8780357e:	bb2b      	cbnz	r3, 878035cc <vTaskNotifyGiveFromISR+0x90>
87803580:	f104 0904 	add.w	r9, r4, #4
87803584:	4648      	mov	r0, r9
87803586:	f7fe fd0d 	bl	87801fa4 <uxListRemove>
8780358a:	6ae2      	ldr	r2, [r4, #44]	; 0x2c
8780358c:	f105 0044 	add.w	r0, r5, #68	; 0x44
87803590:	f8d5 e008 	ldr.w	lr, [r5, #8]
87803594:	4649      	mov	r1, r9
87803596:	fa06 f302 	lsl.w	r3, r6, r2
8780359a:	eb02 0282 	add.w	r2, r2, r2, lsl #2
8780359e:	ea43 030e 	orr.w	r3, r3, lr
878035a2:	eb00 0082 	add.w	r0, r0, r2, lsl #2
878035a6:	60ab      	str	r3, [r5, #8]
878035a8:	f7fe fcd2 	bl	87801f50 <vListInsertEnd>
878035ac:	686b      	ldr	r3, [r5, #4]
878035ae:	6ae2      	ldr	r2, [r4, #44]	; 0x2c
878035b0:	6adb      	ldr	r3, [r3, #44]	; 0x2c
878035b2:	429a      	cmp	r2, r3
878035b4:	d902      	bls.n	878035bc <vTaskNotifyGiveFromISR+0x80>
878035b6:	2301      	movs	r3, #1
878035b8:	b17f      	cbz	r7, 878035da <vTaskNotifyGiveFromISR+0x9e>
878035ba:	603b      	str	r3, [r7, #0]
878035bc:	4640      	mov	r0, r8
878035be:	e8bd 43f8 	ldmia.w	sp!, {r3, r4, r5, r6, r7, r8, r9, lr}
878035c2:	f000 bc53 	b.w	87803e6c <vPortClearInterruptMask>
878035c6:	f000 fc67 	bl	87803e98 <ulPortSetInterruptMask>
878035ca:	e7fe      	b.n	878035ca <vTaskNotifyGiveFromISR+0x8e>
878035cc:	f104 0118 	add.w	r1, r4, #24
878035d0:	f105 002c 	add.w	r0, r5, #44	; 0x2c
878035d4:	f7fe fcbc 	bl	87801f50 <vListInsertEnd>
878035d8:	e7e8      	b.n	878035ac <vTaskNotifyGiveFromISR+0x70>
878035da:	f8c5 313c 	str.w	r3, [r5, #316]	; 0x13c
878035de:	4640      	mov	r0, r8
878035e0:	e8bd 43f8 	ldmia.w	sp!, {r3, r4, r5, r6, r7, r8, r9, lr}
878035e4:	f000 bc42 	b.w	87803e6c <vPortClearInterruptMask>

878035e8 <xTaskNotifyStateClear>:
878035e8:	b538      	push	{r3, r4, r5, lr}
878035ea:	4604      	mov	r4, r0
878035ec:	b170      	cbz	r0, 8780360c <xTaskNotifyStateClear+0x24>
878035ee:	f000 fbd1 	bl	87803d94 <vPortEnterCritical>
878035f2:	f894 3074 	ldrb.w	r3, [r4, #116]	; 0x74
878035f6:	2b02      	cmp	r3, #2
878035f8:	bf05      	ittet	eq
878035fa:	2300      	moveq	r3, #0
878035fc:	2501      	moveq	r5, #1
878035fe:	2500      	movne	r5, #0
87803600:	f884 3074 	strbeq.w	r3, [r4, #116]	; 0x74
87803604:	f000 fc08 	bl	87803e18 <vPortExitCritical>
87803608:	4628      	mov	r0, r5
8780360a:	bd38      	pop	{r3, r4, r5, pc}
8780360c:	f240 1308 	movw	r3, #264	; 0x108
87803610:	f6c8 0300 	movt	r3, #34816	; 0x8800
87803614:	685c      	ldr	r4, [r3, #4]
87803616:	e7ea      	b.n	878035ee <xTaskNotifyStateClear+0x6>

87803618 <prvCheckForValidListAndQueue>:
87803618:	b5f8      	push	{r3, r4, r5, r6, r7, lr}
8780361a:	f240 2448 	movw	r4, #584	; 0x248
8780361e:	f6c8 0400 	movt	r4, #34816	; 0x8800
87803622:	f000 fbb7 	bl	87803d94 <vPortEnterCritical>
87803626:	6825      	ldr	r5, [r4, #0]
87803628:	b11d      	cbz	r5, 87803632 <prvCheckForValidListAndQueue+0x1a>
8780362a:	e8bd 40f8 	ldmia.w	sp!, {r3, r4, r5, r6, r7, lr}
8780362e:	f000 bbf3 	b.w	87803e18 <vPortExitCritical>
87803632:	1d27      	adds	r7, r4, #4
87803634:	f104 0618 	add.w	r6, r4, #24
87803638:	4638      	mov	r0, r7
8780363a:	f7fe fc79 	bl	87801f30 <vListInitialise>
8780363e:	4630      	mov	r0, r6
87803640:	f7fe fc76 	bl	87801f30 <vListInitialise>
87803644:	462a      	mov	r2, r5
87803646:	2110      	movs	r1, #16
87803648:	200a      	movs	r0, #10
8780364a:	62e7      	str	r7, [r4, #44]	; 0x2c
8780364c:	6326      	str	r6, [r4, #48]	; 0x30
8780364e:	f7fe f8c3 	bl	878017d8 <xQueueGenericCreate>
87803652:	6020      	str	r0, [r4, #0]
87803654:	2800      	cmp	r0, #0
87803656:	d0e8      	beq.n	8780362a <prvCheckForValidListAndQueue+0x12>
87803658:	f646 01d8 	movw	r1, #26840	; 0x68d8
8780365c:	f2c8 7180 	movt	r1, #34688	; 0x8780
87803660:	f7fe fbfa 	bl	87801e58 <vQueueAddToRegistry>
87803664:	e7e1      	b.n	8780362a <prvCheckForValidListAndQueue+0x12>
87803666:	bf00      	nop

87803668 <prvInsertTimerInActiveList>:
87803668:	4291      	cmp	r1, r2
8780366a:	b510      	push	{r4, lr}
8780366c:	6100      	str	r0, [r0, #16]
8780366e:	6041      	str	r1, [r0, #4]
87803670:	d805      	bhi.n	8780367e <prvInsertTimerInActiveList+0x16>
87803672:	6981      	ldr	r1, [r0, #24]
87803674:	1ad2      	subs	r2, r2, r3
87803676:	428a      	cmp	r2, r1
87803678:	d314      	bcc.n	878036a4 <prvInsertTimerInActiveList+0x3c>
8780367a:	2001      	movs	r0, #1
8780367c:	bd10      	pop	{r4, pc}
8780367e:	429a      	cmp	r2, r3
87803680:	bf34      	ite	cc
87803682:	2401      	movcc	r4, #1
87803684:	2400      	movcs	r4, #0
87803686:	4299      	cmp	r1, r3
87803688:	bf38      	it	cc
8780368a:	2400      	movcc	r4, #0
8780368c:	2c00      	cmp	r4, #0
8780368e:	d1f4      	bne.n	8780367a <prvInsertTimerInActiveList+0x12>
87803690:	f240 2348 	movw	r3, #584	; 0x248
87803694:	1d01      	adds	r1, r0, #4
87803696:	f6c8 0300 	movt	r3, #34816	; 0x8800
8780369a:	6ad8      	ldr	r0, [r3, #44]	; 0x2c
8780369c:	f7fe fc68 	bl	87801f70 <vListInsert>
878036a0:	4620      	mov	r0, r4
878036a2:	bd10      	pop	{r4, pc}
878036a4:	f240 2348 	movw	r3, #584	; 0x248
878036a8:	1d01      	adds	r1, r0, #4
878036aa:	f6c8 0300 	movt	r3, #34816	; 0x8800
878036ae:	6b18      	ldr	r0, [r3, #48]	; 0x30
878036b0:	f7fe fc5e 	bl	87801f70 <vListInsert>
878036b4:	2000      	movs	r0, #0
878036b6:	bd10      	pop	{r4, pc}

878036b8 <xTimerCreateTimerTask>:
878036b8:	b500      	push	{lr}
878036ba:	b083      	sub	sp, #12
878036bc:	f7ff ffac 	bl	87803618 <prvCheckForValidListAndQueue>
878036c0:	f240 2348 	movw	r3, #584	; 0x248
878036c4:	f6c8 0300 	movt	r3, #34816	; 0x8800
878036c8:	681a      	ldr	r2, [r3, #0]
878036ca:	b19a      	cbz	r2, 878036f4 <xTimerCreateTimerTask+0x3c>
878036cc:	3334      	adds	r3, #52	; 0x34
878036ce:	2207      	movs	r2, #7
878036d0:	f646 01e0 	movw	r1, #26848	; 0x68e0
878036d4:	f243 70fd 	movw	r0, #14333	; 0x37fd
878036d8:	9301      	str	r3, [sp, #4]
878036da:	f2c8 7180 	movt	r1, #34688	; 0x8780
878036de:	9200      	str	r2, [sp, #0]
878036e0:	f2c8 7080 	movt	r0, #34688	; 0x8780
878036e4:	2300      	movs	r3, #0
878036e6:	22b4      	movs	r2, #180	; 0xb4
878036e8:	f7fe fe36 	bl	87802358 <xTaskCreate>
878036ec:	b110      	cbz	r0, 878036f4 <xTimerCreateTimerTask+0x3c>
878036ee:	b003      	add	sp, #12
878036f0:	f85d fb04 	ldr.w	pc, [sp], #4
878036f4:	f000 fbd0 	bl	87803e98 <ulPortSetInterruptMask>
878036f8:	e7fe      	b.n	878036f8 <xTimerCreateTimerTask+0x40>
878036fa:	bf00      	nop

878036fc <xTimerCreate>:
878036fc:	e92d 42f0 	stmdb	sp!, {r4, r5, r6, r7, r9, lr}
87803700:	4681      	mov	r9, r0
87803702:	202c      	movs	r0, #44	; 0x2c
87803704:	460d      	mov	r5, r1
87803706:	4616      	mov	r6, r2
87803708:	461f      	mov	r7, r3
8780370a:	f000 fc67 	bl	87803fdc <pvPortMalloc>
8780370e:	4604      	mov	r4, r0
87803710:	b160      	cbz	r0, 8780372c <xTimerCreate+0x30>
87803712:	b175      	cbz	r5, 87803732 <xTimerCreate+0x36>
87803714:	f7ff ff80 	bl	87803618 <prvCheckForValidListAndQueue>
87803718:	9b06      	ldr	r3, [sp, #24]
8780371a:	1d20      	adds	r0, r4, #4
8780371c:	f8c4 9000 	str.w	r9, [r4]
87803720:	61a5      	str	r5, [r4, #24]
87803722:	61e6      	str	r6, [r4, #28]
87803724:	6227      	str	r7, [r4, #32]
87803726:	6263      	str	r3, [r4, #36]	; 0x24
87803728:	f7fe fc0e 	bl	87801f48 <vListInitialiseItem>
8780372c:	4620      	mov	r0, r4
8780372e:	e8bd 82f0 	ldmia.w	sp!, {r4, r5, r6, r7, r9, pc}
87803732:	f000 fbb1 	bl	87803e98 <ulPortSetInterruptMask>
87803736:	e7fe      	b.n	87803736 <xTimerCreate+0x3a>

87803738 <xTimerGenericCommand>:
87803738:	b530      	push	{r4, r5, lr}
8780373a:	b085      	sub	sp, #20
8780373c:	b308      	cbz	r0, 87803782 <xTimerGenericCommand+0x4a>
8780373e:	f240 2448 	movw	r4, #584	; 0x248
87803742:	4605      	mov	r5, r0
87803744:	f6c8 0400 	movt	r4, #34816	; 0x8800
87803748:	6820      	ldr	r0, [r4, #0]
8780374a:	b188      	cbz	r0, 87803770 <xTimerGenericCommand+0x38>
8780374c:	2905      	cmp	r1, #5
8780374e:	e88d 0026 	stmia.w	sp, {r1, r2, r5}
87803752:	dc0f      	bgt.n	87803774 <xTimerGenericCommand+0x3c>
87803754:	f7ff fce8 	bl	87803128 <xTaskGetSchedulerState>
87803758:	2802      	cmp	r0, #2
8780375a:	4669      	mov	r1, sp
8780375c:	bf11      	iteee	ne
8780375e:	2300      	movne	r3, #0
87803760:	6820      	ldreq	r0, [r4, #0]
87803762:	2300      	moveq	r3, #0
87803764:	9a08      	ldreq	r2, [sp, #32]
87803766:	bf1c      	itt	ne
87803768:	6820      	ldrne	r0, [r4, #0]
8780376a:	461a      	movne	r2, r3
8780376c:	f7fe f866 	bl	8780183c <xQueueGenericSend>
87803770:	b005      	add	sp, #20
87803772:	bd30      	pop	{r4, r5, pc}
87803774:	461a      	mov	r2, r3
87803776:	4669      	mov	r1, sp
87803778:	2300      	movs	r3, #0
8780377a:	f7fe f92b 	bl	878019d4 <xQueueGenericSendFromISR>
8780377e:	b005      	add	sp, #20
87803780:	bd30      	pop	{r4, r5, pc}
87803782:	f000 fb89 	bl	87803e98 <ulPortSetInterruptMask>
87803786:	e7fe      	b.n	87803786 <xTimerGenericCommand+0x4e>

87803788 <prvSwitchTimerLists>:
87803788:	e92d 41f0 	stmdb	sp!, {r4, r5, r6, r7, r8, lr}
8780378c:	f240 2648 	movw	r6, #584	; 0x248
87803790:	b082      	sub	sp, #8
87803792:	f04f 0800 	mov.w	r8, #0
87803796:	f6c8 0600 	movt	r6, #34816	; 0x8800
8780379a:	e00c      	b.n	878037b6 <prvSwitchTimerLists+0x2e>
8780379c:	68db      	ldr	r3, [r3, #12]
8780379e:	68dc      	ldr	r4, [r3, #12]
878037a0:	681f      	ldr	r7, [r3, #0]
878037a2:	1d25      	adds	r5, r4, #4
878037a4:	4628      	mov	r0, r5
878037a6:	f7fe fbfd 	bl	87801fa4 <uxListRemove>
878037aa:	6a63      	ldr	r3, [r4, #36]	; 0x24
878037ac:	4620      	mov	r0, r4
878037ae:	4798      	blx	r3
878037b0:	69e3      	ldr	r3, [r4, #28]
878037b2:	2b01      	cmp	r3, #1
878037b4:	d009      	beq.n	878037ca <prvSwitchTimerLists+0x42>
878037b6:	6af3      	ldr	r3, [r6, #44]	; 0x2c
878037b8:	681a      	ldr	r2, [r3, #0]
878037ba:	2a00      	cmp	r2, #0
878037bc:	d1ee      	bne.n	8780379c <prvSwitchTimerLists+0x14>
878037be:	6b32      	ldr	r2, [r6, #48]	; 0x30
878037c0:	6333      	str	r3, [r6, #48]	; 0x30
878037c2:	62f2      	str	r2, [r6, #44]	; 0x2c
878037c4:	b002      	add	sp, #8
878037c6:	e8bd 81f0 	ldmia.w	sp!, {r4, r5, r6, r7, r8, pc}
878037ca:	4629      	mov	r1, r5
878037cc:	69a5      	ldr	r5, [r4, #24]
878037ce:	2300      	movs	r3, #0
878037d0:	463a      	mov	r2, r7
878037d2:	4620      	mov	r0, r4
878037d4:	197d      	adds	r5, r7, r5
878037d6:	42af      	cmp	r7, r5
878037d8:	d205      	bcs.n	878037e6 <prvSwitchTimerLists+0x5e>
878037da:	6065      	str	r5, [r4, #4]
878037dc:	6124      	str	r4, [r4, #16]
878037de:	6af0      	ldr	r0, [r6, #44]	; 0x2c
878037e0:	f7fe fbc6 	bl	87801f70 <vListInsert>
878037e4:	e7e7      	b.n	878037b6 <prvSwitchTimerLists+0x2e>
878037e6:	f8cd 8000 	str.w	r8, [sp]
878037ea:	4619      	mov	r1, r3
878037ec:	f7ff ffa4 	bl	87803738 <xTimerGenericCommand>
878037f0:	2800      	cmp	r0, #0
878037f2:	d1e0      	bne.n	878037b6 <prvSwitchTimerLists+0x2e>
878037f4:	f000 fb50 	bl	87803e98 <ulPortSetInterruptMask>
878037f8:	e7fe      	b.n	878037f8 <prvSwitchTimerLists+0x70>
878037fa:	bf00      	nop

878037fc <prvTimerTask>:
878037fc:	e92d 41f0 	stmdb	sp!, {r4, r5, r6, r7, r8, lr}
87803800:	f240 2548 	movw	r5, #584	; 0x248
87803804:	b086      	sub	sp, #24
87803806:	f6c8 0500 	movt	r5, #34816	; 0x8800
8780380a:	2600      	movs	r6, #0
8780380c:	6aeb      	ldr	r3, [r5, #44]	; 0x2c
8780380e:	681c      	ldr	r4, [r3, #0]
87803810:	2c00      	cmp	r4, #0
87803812:	d07f      	beq.n	87803914 <prvTimerTask+0x118>
87803814:	68db      	ldr	r3, [r3, #12]
87803816:	681c      	ldr	r4, [r3, #0]
87803818:	f7ff f848 	bl	878028ac <vTaskSuspendAll>
8780381c:	f7ff f850 	bl	878028c0 <xTaskGetTickCount>
87803820:	6bab      	ldr	r3, [r5, #56]	; 0x38
87803822:	4607      	mov	r7, r0
87803824:	4298      	cmp	r0, r3
87803826:	f0c0 8084 	bcc.w	87803932 <prvTimerTask+0x136>
8780382a:	4284      	cmp	r4, r0
8780382c:	63a8      	str	r0, [r5, #56]	; 0x38
8780382e:	bf88      	it	hi
87803830:	2200      	movhi	r2, #0
87803832:	f240 8087 	bls.w	87803944 <prvTimerTask+0x148>
87803836:	1be1      	subs	r1, r4, r7
87803838:	6828      	ldr	r0, [r5, #0]
8780383a:	f7fe fb55 	bl	87801ee8 <vQueueWaitForMessageRestricted>
8780383e:	f7ff f8d7 	bl	878029f0 <xTaskResumeAll>
87803842:	b900      	cbnz	r0, 87803846 <prvTimerTask+0x4a>
87803844:	df00      	svc	0
87803846:	2300      	movs	r3, #0
87803848:	a902      	add	r1, sp, #8
8780384a:	461a      	mov	r2, r3
8780384c:	6828      	ldr	r0, [r5, #0]
8780384e:	f7fe f961 	bl	87801b14 <xQueueGenericReceive>
87803852:	2800      	cmp	r0, #0
87803854:	d0da      	beq.n	8780380c <prvTimerTask+0x10>
87803856:	9b02      	ldr	r3, [sp, #8]
87803858:	2b00      	cmp	r3, #0
8780385a:	db53      	blt.n	87803904 <prvTimerTask+0x108>
8780385c:	9c04      	ldr	r4, [sp, #16]
8780385e:	6963      	ldr	r3, [r4, #20]
87803860:	b113      	cbz	r3, 87803868 <prvTimerTask+0x6c>
87803862:	1d20      	adds	r0, r4, #4
87803864:	f7fe fb9e 	bl	87801fa4 <uxListRemove>
87803868:	f7ff f82a 	bl	878028c0 <xTaskGetTickCount>
8780386c:	6bab      	ldr	r3, [r5, #56]	; 0x38
8780386e:	4607      	mov	r7, r0
87803870:	4298      	cmp	r0, r3
87803872:	d364      	bcc.n	8780393e <prvTimerTask+0x142>
87803874:	9b02      	ldr	r3, [sp, #8]
87803876:	63af      	str	r7, [r5, #56]	; 0x38
87803878:	2b09      	cmp	r3, #9
8780387a:	d8e4      	bhi.n	87803846 <prvTimerTask+0x4a>
8780387c:	a201      	add	r2, pc, #4	; (adr r2, 87803884 <prvTimerTask+0x88>)
8780387e:	f852 f023 	ldr.w	pc, [r2, r3, lsl #2]
87803882:	bf00      	nop
87803884:	878038c3 	strhi	r3, [r0, r3, asr #17]
87803888:	878038c3 	strhi	r3, [r0, r3, asr #17]
8780388c:	878038c3 	strhi	r3, [r0, r3, asr #17]
87803890:	87803847 	strhi	r3, [r0, r7, asr #16]
87803894:	878038ad 	strhi	r3, [r0, sp, lsr #17]
87803898:	878038fd 			; <UNDEFINED> instruction: 0x878038fd
8780389c:	878038c3 	strhi	r3, [r0, r3, asr #17]
878038a0:	878038c3 	strhi	r3, [r0, r3, asr #17]
878038a4:	87803847 	strhi	r3, [r0, r7, asr #16]
878038a8:	878038ad 	strhi	r3, [r0, sp, lsr #17]
878038ac:	9903      	ldr	r1, [sp, #12]
878038ae:	61a1      	str	r1, [r4, #24]
878038b0:	2900      	cmp	r1, #0
878038b2:	d070      	beq.n	87803996 <prvTimerTask+0x19a>
878038b4:	4439      	add	r1, r7
878038b6:	4620      	mov	r0, r4
878038b8:	463b      	mov	r3, r7
878038ba:	463a      	mov	r2, r7
878038bc:	f7ff fed4 	bl	87803668 <prvInsertTimerInActiveList>
878038c0:	e7c1      	b.n	87803846 <prvTimerTask+0x4a>
878038c2:	9b03      	ldr	r3, [sp, #12]
878038c4:	463a      	mov	r2, r7
878038c6:	69a1      	ldr	r1, [r4, #24]
878038c8:	4620      	mov	r0, r4
878038ca:	4419      	add	r1, r3
878038cc:	f7ff fecc 	bl	87803668 <prvInsertTimerInActiveList>
878038d0:	2800      	cmp	r0, #0
878038d2:	d0b8      	beq.n	87803846 <prvTimerTask+0x4a>
878038d4:	6a63      	ldr	r3, [r4, #36]	; 0x24
878038d6:	4620      	mov	r0, r4
878038d8:	4798      	blx	r3
878038da:	69e3      	ldr	r3, [r4, #28]
878038dc:	2b01      	cmp	r3, #1
878038de:	d1b2      	bne.n	87803846 <prvTimerTask+0x4a>
878038e0:	69a2      	ldr	r2, [r4, #24]
878038e2:	2300      	movs	r3, #0
878038e4:	9f03      	ldr	r7, [sp, #12]
878038e6:	4620      	mov	r0, r4
878038e8:	9600      	str	r6, [sp, #0]
878038ea:	4619      	mov	r1, r3
878038ec:	443a      	add	r2, r7
878038ee:	f7ff ff23 	bl	87803738 <xTimerGenericCommand>
878038f2:	2800      	cmp	r0, #0
878038f4:	d1a7      	bne.n	87803846 <prvTimerTask+0x4a>
878038f6:	f000 facf 	bl	87803e98 <ulPortSetInterruptMask>
878038fa:	e7fe      	b.n	878038fa <prvTimerTask+0xfe>
878038fc:	4620      	mov	r0, r4
878038fe:	f000 fbf9 	bl	878040f4 <vPortFree>
87803902:	e7a0      	b.n	87803846 <prvTimerTask+0x4a>
87803904:	9b03      	ldr	r3, [sp, #12]
87803906:	9905      	ldr	r1, [sp, #20]
87803908:	9804      	ldr	r0, [sp, #16]
8780390a:	4798      	blx	r3
8780390c:	9b02      	ldr	r3, [sp, #8]
8780390e:	2b00      	cmp	r3, #0
87803910:	db99      	blt.n	87803846 <prvTimerTask+0x4a>
87803912:	e7a3      	b.n	8780385c <prvTimerTask+0x60>
87803914:	f7fe ffca 	bl	878028ac <vTaskSuspendAll>
87803918:	f7fe ffd2 	bl	878028c0 <xTaskGetTickCount>
8780391c:	6bab      	ldr	r3, [r5, #56]	; 0x38
8780391e:	4607      	mov	r7, r0
87803920:	4283      	cmp	r3, r0
87803922:	d806      	bhi.n	87803932 <prvTimerTask+0x136>
87803924:	6b2b      	ldr	r3, [r5, #48]	; 0x30
87803926:	63af      	str	r7, [r5, #56]	; 0x38
87803928:	681a      	ldr	r2, [r3, #0]
8780392a:	fab2 f282 	clz	r2, r2
8780392e:	0952      	lsrs	r2, r2, #5
87803930:	e781      	b.n	87803836 <prvTimerTask+0x3a>
87803932:	f7ff ff29 	bl	87803788 <prvSwitchTimerLists>
87803936:	63af      	str	r7, [r5, #56]	; 0x38
87803938:	f7ff f85a 	bl	878029f0 <xTaskResumeAll>
8780393c:	e783      	b.n	87803846 <prvTimerTask+0x4a>
8780393e:	f7ff ff23 	bl	87803788 <prvSwitchTimerLists>
87803942:	e797      	b.n	87803874 <prvTimerTask+0x78>
87803944:	f7ff f854 	bl	878029f0 <xTaskResumeAll>
87803948:	6aeb      	ldr	r3, [r5, #44]	; 0x2c
8780394a:	68db      	ldr	r3, [r3, #12]
8780394c:	f8d3 800c 	ldr.w	r8, [r3, #12]
87803950:	f108 0004 	add.w	r0, r8, #4
87803954:	f7fe fb26 	bl	87801fa4 <uxListRemove>
87803958:	f8d8 301c 	ldr.w	r3, [r8, #28]
8780395c:	2b01      	cmp	r3, #1
8780395e:	d004      	beq.n	8780396a <prvTimerTask+0x16e>
87803960:	f8d8 3024 	ldr.w	r3, [r8, #36]	; 0x24
87803964:	4640      	mov	r0, r8
87803966:	4798      	blx	r3
87803968:	e76d      	b.n	87803846 <prvTimerTask+0x4a>
8780396a:	f8d8 1018 	ldr.w	r1, [r8, #24]
8780396e:	463a      	mov	r2, r7
87803970:	4623      	mov	r3, r4
87803972:	4640      	mov	r0, r8
87803974:	4421      	add	r1, r4
87803976:	f7ff fe77 	bl	87803668 <prvInsertTimerInActiveList>
8780397a:	2800      	cmp	r0, #0
8780397c:	d0f0      	beq.n	87803960 <prvTimerTask+0x164>
8780397e:	2300      	movs	r3, #0
87803980:	9600      	str	r6, [sp, #0]
87803982:	4622      	mov	r2, r4
87803984:	4619      	mov	r1, r3
87803986:	4640      	mov	r0, r8
87803988:	f7ff fed6 	bl	87803738 <xTimerGenericCommand>
8780398c:	2800      	cmp	r0, #0
8780398e:	d1e7      	bne.n	87803960 <prvTimerTask+0x164>
87803990:	f000 fa82 	bl	87803e98 <ulPortSetInterruptMask>
87803994:	e7fe      	b.n	87803994 <prvTimerTask+0x198>
87803996:	f000 fa7f 	bl	87803e98 <ulPortSetInterruptMask>
8780399a:	e7fe      	b.n	8780399a <prvTimerTask+0x19e>

8780399c <xTimerGetTimerDaemonTaskHandle>:
8780399c:	b508      	push	{r3, lr}
8780399e:	f240 2348 	movw	r3, #584	; 0x248
878039a2:	f6c8 0300 	movt	r3, #34816	; 0x8800
878039a6:	6b58      	ldr	r0, [r3, #52]	; 0x34
878039a8:	b100      	cbz	r0, 878039ac <xTimerGetTimerDaemonTaskHandle+0x10>
878039aa:	bd08      	pop	{r3, pc}
878039ac:	f000 fa74 	bl	87803e98 <ulPortSetInterruptMask>
878039b0:	e7fe      	b.n	878039b0 <xTimerGetTimerDaemonTaskHandle+0x14>
878039b2:	bf00      	nop

878039b4 <xTimerGetPeriod>:
878039b4:	b108      	cbz	r0, 878039ba <xTimerGetPeriod+0x6>
878039b6:	6980      	ldr	r0, [r0, #24]
878039b8:	4770      	bx	lr
878039ba:	b508      	push	{r3, lr}
878039bc:	f000 fa6c 	bl	87803e98 <ulPortSetInterruptMask>
878039c0:	e7fe      	b.n	878039c0 <xTimerGetPeriod+0xc>
878039c2:	bf00      	nop

878039c4 <xTimerGetExpiryTime>:
878039c4:	b108      	cbz	r0, 878039ca <xTimerGetExpiryTime+0x6>
878039c6:	6840      	ldr	r0, [r0, #4]
878039c8:	4770      	bx	lr
878039ca:	b508      	push	{r3, lr}
878039cc:	f000 fa64 	bl	87803e98 <ulPortSetInterruptMask>
878039d0:	e7fe      	b.n	878039d0 <xTimerGetExpiryTime+0xc>
878039d2:	bf00      	nop

878039d4 <pcTimerGetName>:
878039d4:	b108      	cbz	r0, 878039da <pcTimerGetName+0x6>
878039d6:	6800      	ldr	r0, [r0, #0]
878039d8:	4770      	bx	lr
878039da:	b508      	push	{r3, lr}
878039dc:	f000 fa5c 	bl	87803e98 <ulPortSetInterruptMask>
878039e0:	e7fe      	b.n	878039e0 <pcTimerGetName+0xc>
878039e2:	bf00      	nop

878039e4 <xTimerIsTimerActive>:
878039e4:	b510      	push	{r4, lr}
878039e6:	b150      	cbz	r0, 878039fe <xTimerIsTimerActive+0x1a>
878039e8:	4604      	mov	r4, r0
878039ea:	f000 f9d3 	bl	87803d94 <vPortEnterCritical>
878039ee:	6964      	ldr	r4, [r4, #20]
878039f0:	3400      	adds	r4, #0
878039f2:	bf18      	it	ne
878039f4:	2401      	movne	r4, #1
878039f6:	f000 fa0f 	bl	87803e18 <vPortExitCritical>
878039fa:	4620      	mov	r0, r4
878039fc:	bd10      	pop	{r4, pc}
878039fe:	f000 fa4b 	bl	87803e98 <ulPortSetInterruptMask>
87803a02:	e7fe      	b.n	87803a02 <xTimerIsTimerActive+0x1e>

87803a04 <pvTimerGetTimerID>:
87803a04:	b510      	push	{r4, lr}
87803a06:	b138      	cbz	r0, 87803a18 <pvTimerGetTimerID+0x14>
87803a08:	4604      	mov	r4, r0
87803a0a:	f000 f9c3 	bl	87803d94 <vPortEnterCritical>
87803a0e:	6a24      	ldr	r4, [r4, #32]
87803a10:	f000 fa02 	bl	87803e18 <vPortExitCritical>
87803a14:	4620      	mov	r0, r4
87803a16:	bd10      	pop	{r4, pc}
87803a18:	f000 fa3e 	bl	87803e98 <ulPortSetInterruptMask>
87803a1c:	e7fe      	b.n	87803a1c <pvTimerGetTimerID+0x18>
87803a1e:	bf00      	nop

87803a20 <vTimerSetTimerID>:
87803a20:	b538      	push	{r3, r4, r5, lr}
87803a22:	b140      	cbz	r0, 87803a36 <vTimerSetTimerID+0x16>
87803a24:	460d      	mov	r5, r1
87803a26:	4604      	mov	r4, r0
87803a28:	f000 f9b4 	bl	87803d94 <vPortEnterCritical>
87803a2c:	6225      	str	r5, [r4, #32]
87803a2e:	e8bd 4038 	ldmia.w	sp!, {r3, r4, r5, lr}
87803a32:	f000 b9f1 	b.w	87803e18 <vPortExitCritical>
87803a36:	f000 fa2f 	bl	87803e98 <ulPortSetInterruptMask>
87803a3a:	e7fe      	b.n	87803a3a <vTimerSetTimerID+0x1a>

87803a3c <xTimerPendFunctionCallFromISR>:
87803a3c:	b570      	push	{r4, r5, r6, lr}
87803a3e:	f240 2448 	movw	r4, #584	; 0x248
87803a42:	b084      	sub	sp, #16
87803a44:	461e      	mov	r6, r3
87803a46:	f6c8 0400 	movt	r4, #34816	; 0x8800
87803a4a:	f06f 0501 	mvn.w	r5, #1
87803a4e:	9001      	str	r0, [sp, #4]
87803a50:	2300      	movs	r3, #0
87803a52:	9102      	str	r1, [sp, #8]
87803a54:	4669      	mov	r1, sp
87803a56:	9203      	str	r2, [sp, #12]
87803a58:	4632      	mov	r2, r6
87803a5a:	6820      	ldr	r0, [r4, #0]
87803a5c:	9500      	str	r5, [sp, #0]
87803a5e:	f7fd ffb9 	bl	878019d4 <xQueueGenericSendFromISR>
87803a62:	b004      	add	sp, #16
87803a64:	bd70      	pop	{r4, r5, r6, pc}
87803a66:	bf00      	nop

87803a68 <xTimerPendFunctionCall>:
87803a68:	b5f0      	push	{r4, r5, r6, r7, lr}
87803a6a:	f240 2448 	movw	r4, #584	; 0x248
87803a6e:	f6c8 0400 	movt	r4, #34816	; 0x8800
87803a72:	4607      	mov	r7, r0
87803a74:	b085      	sub	sp, #20
87803a76:	6820      	ldr	r0, [r4, #0]
87803a78:	b170      	cbz	r0, 87803a98 <xTimerPendFunctionCall+0x30>
87803a7a:	460e      	mov	r6, r1
87803a7c:	4615      	mov	r5, r2
87803a7e:	f04f 34ff 	mov.w	r4, #4294967295	; 0xffffffff
87803a82:	461a      	mov	r2, r3
87803a84:	4669      	mov	r1, sp
87803a86:	2300      	movs	r3, #0
87803a88:	9701      	str	r7, [sp, #4]
87803a8a:	9602      	str	r6, [sp, #8]
87803a8c:	9503      	str	r5, [sp, #12]
87803a8e:	9400      	str	r4, [sp, #0]
87803a90:	f7fd fed4 	bl	8780183c <xQueueGenericSend>
87803a94:	b005      	add	sp, #20
87803a96:	bdf0      	pop	{r4, r5, r6, r7, pc}
87803a98:	f000 f9fe 	bl	87803e98 <ulPortSetInterruptMask>
87803a9c:	e7fe      	b.n	87803a9c <xTimerPendFunctionCall+0x34>
87803a9e:	bf00      	nop

87803aa0 <prvTaskExitError>:
87803aa0:	f240 2384 	movw	r3, #644	; 0x284
87803aa4:	f6c8 0300 	movt	r3, #34816	; 0x8800
87803aa8:	681b      	ldr	r3, [r3, #0]
87803aaa:	3301      	adds	r3, #1
87803aac:	d017      	beq.n	87803ade <prvTaskExitError+0x3e>
87803aae:	b672      	cpsid	i
87803ab0:	f3bf 8f4f 	dsb	sy
87803ab4:	f3bf 8f6f 	isb	sy
87803ab8:	f242 0304 	movw	r3, #8196	; 0x2004
87803abc:	f2c0 03a0 	movt	r3, #160	; 0xa0
87803ac0:	681a      	ldr	r2, [r3, #0]
87803ac2:	2aa0      	cmp	r2, #160	; 0xa0
87803ac4:	d005      	beq.n	87803ad2 <prvTaskExitError+0x32>
87803ac6:	22a0      	movs	r2, #160	; 0xa0
87803ac8:	601a      	str	r2, [r3, #0]
87803aca:	f3bf 8f4f 	dsb	sy
87803ace:	f3bf 8f6f 	isb	sy
87803ad2:	b662      	cpsie	i
87803ad4:	f3bf 8f4f 	dsb	sy
87803ad8:	f3bf 8f6f 	isb	sy
87803adc:	e7fe      	b.n	87803adc <prvTaskExitError+0x3c>
87803ade:	b672      	cpsid	i
87803ae0:	f3bf 8f4f 	dsb	sy
87803ae4:	f3bf 8f6f 	isb	sy
87803ae8:	f242 0304 	movw	r3, #8196	; 0x2004
87803aec:	f2c0 03a0 	movt	r3, #160	; 0xa0
87803af0:	681a      	ldr	r2, [r3, #0]
87803af2:	2aa0      	cmp	r2, #160	; 0xa0
87803af4:	d005      	beq.n	87803b02 <prvTaskExitError+0x62>
87803af6:	22a0      	movs	r2, #160	; 0xa0
87803af8:	601a      	str	r2, [r3, #0]
87803afa:	f3bf 8f4f 	dsb	sy
87803afe:	f3bf 8f6f 	isb	sy
87803b02:	b662      	cpsie	i
87803b04:	f3bf 8f4f 	dsb	sy
87803b08:	f3bf 8f6f 	isb	sy
87803b0c:	e7fe      	b.n	87803b0c <prvTaskExitError+0x6c>
87803b0e:	bf00      	nop

87803b10 <FreeRTOS_Tick_Handler>:
87803b10:	b508      	push	{r3, lr}
87803b12:	b672      	cpsid	i
87803b14:	f3bf 8f4f 	dsb	sy
87803b18:	f3bf 8f6f 	isb	sy
87803b1c:	f242 0304 	movw	r3, #8196	; 0x2004
87803b20:	22a0      	movs	r2, #160	; 0xa0
87803b22:	f2c0 03a0 	movt	r3, #160	; 0xa0
87803b26:	601a      	str	r2, [r3, #0]
87803b28:	f3bf 8f4f 	dsb	sy
87803b2c:	f3bf 8f6f 	isb	sy
87803b30:	b662      	cpsie	i
87803b32:	f3bf 8f4f 	dsb	sy
87803b36:	f3bf 8f6f 	isb	sy
87803b3a:	f7fe fee7 	bl	8780290c <xTaskIncrementTick>
87803b3e:	b128      	cbz	r0, 87803b4c <FreeRTOS_Tick_Handler+0x3c>
87803b40:	f240 2384 	movw	r3, #644	; 0x284
87803b44:	2201      	movs	r2, #1
87803b46:	f6c8 0300 	movt	r3, #34816	; 0x8800
87803b4a:	605a      	str	r2, [r3, #4]
87803b4c:	b672      	cpsid	i
87803b4e:	f3bf 8f4f 	dsb	sy
87803b52:	f3bf 8f6f 	isb	sy
87803b56:	f242 0304 	movw	r3, #8196	; 0x2004
87803b5a:	22ff      	movs	r2, #255	; 0xff
87803b5c:	f2c0 03a0 	movt	r3, #160	; 0xa0
87803b60:	601a      	str	r2, [r3, #0]
87803b62:	f3bf 8f4f 	dsb	sy
87803b66:	f3bf 8f6f 	isb	sy
87803b6a:	b662      	cpsie	i
87803b6c:	f3bf 8f4f 	dsb	sy
87803b70:	f3bf 8f6f 	isb	sy
87803b74:	e8bd 4008 	ldmia.w	sp!, {r3, lr}
87803b78:	f002 ba68 	b.w	8780604c <SystemClearSystickFlag>

87803b7c <pxPortInitialiseStack>:
87803b7c:	4603      	mov	r3, r0
87803b7e:	f011 0f01 	tst.w	r1, #1
87803b82:	f643 20a1 	movw	r0, #15009	; 0x3aa1
87803b86:	b5f0      	push	{r4, r5, r6, r7, lr}
87803b88:	f2c8 7080 	movt	r0, #34688	; 0x8780
87803b8c:	bf0c      	ite	eq
87803b8e:	f04f 0e1f 	moveq.w	lr, #31
87803b92:	f04f 0e3f 	movne.w	lr, #63	; 0x3f
87803b96:	f04f 3712 	mov.w	r7, #303174162	; 0x12121212
87803b9a:	f843 1c10 	str.w	r1, [r3, #-16]
87803b9e:	f04f 3611 	mov.w	r6, #286331153	; 0x11111111
87803ba2:	f843 2c48 	str.w	r2, [r3, #-72]
87803ba6:	f04f 3510 	mov.w	r5, #269488144	; 0x10101010
87803baa:	f04f 3409 	mov.w	r4, #151587081	; 0x9090909
87803bae:	f04f 3108 	mov.w	r1, #134744072	; 0x8080808
87803bb2:	f04f 3206 	mov.w	r2, #101058054	; 0x6060606
87803bb6:	f843 ec0c 	str.w	lr, [r3, #-12]
87803bba:	f843 0c14 	str.w	r0, [r3, #-20]
87803bbe:	f04f 3e07 	mov.w	lr, #117901063	; 0x7070707
87803bc2:	f843 7c18 	str.w	r7, [r3, #-24]
87803bc6:	4618      	mov	r0, r3
87803bc8:	f843 6c1c 	str.w	r6, [r3, #-28]
87803bcc:	f04f 3705 	mov.w	r7, #84215045	; 0x5050505
87803bd0:	f843 5c20 	str.w	r5, [r3, #-32]
87803bd4:	f04f 3604 	mov.w	r6, #67372036	; 0x4040404
87803bd8:	f843 4c24 	str.w	r4, [r3, #-36]
87803bdc:	f04f 3503 	mov.w	r5, #50529027	; 0x3030303
87803be0:	f843 1c28 	str.w	r1, [r3, #-40]
87803be4:	f04f 3402 	mov.w	r4, #33686018	; 0x2020202
87803be8:	f843 2c30 	str.w	r2, [r3, #-48]
87803bec:	f04f 3101 	mov.w	r1, #16843009	; 0x1010101
87803bf0:	2200      	movs	r2, #0
87803bf2:	f843 ec2c 	str.w	lr, [r3, #-44]
87803bf6:	f843 7c34 	str.w	r7, [r3, #-52]
87803bfa:	f843 6c38 	str.w	r6, [r3, #-56]
87803bfe:	f843 5c3c 	str.w	r5, [r3, #-60]
87803c02:	f843 4c40 	str.w	r4, [r3, #-64]
87803c06:	f843 1c44 	str.w	r1, [r3, #-68]
87803c0a:	601a      	str	r2, [r3, #0]
87803c0c:	f843 2c04 	str.w	r2, [r3, #-4]
87803c10:	f843 2c08 	str.w	r2, [r3, #-8]
87803c14:	f843 2c4c 	str.w	r2, [r3, #-76]
87803c18:	f840 2d50 	str.w	r2, [r0, #-80]!
87803c1c:	bdf0      	pop	{r4, r5, r6, r7, pc}
87803c1e:	bf00      	nop

87803c20 <xPortStartScheduler>:
87803c20:	f44f 53a0 	mov.w	r3, #5120	; 0x1400
87803c24:	b500      	push	{lr}
87803c26:	f2c0 03a0 	movt	r3, #160	; 0xa0
87803c2a:	b083      	sub	sp, #12
87803c2c:	21ff      	movs	r1, #255	; 0xff
87803c2e:	781a      	ldrb	r2, [r3, #0]
87803c30:	b2d2      	uxtb	r2, r2
87803c32:	9201      	str	r2, [sp, #4]
87803c34:	7019      	strb	r1, [r3, #0]
87803c36:	781b      	ldrb	r3, [r3, #0]
87803c38:	b2db      	uxtb	r3, r3
87803c3a:	f88d 3003 	strb.w	r3, [sp, #3]
87803c3e:	f89d 3003 	ldrb.w	r3, [sp, #3]
87803c42:	07da      	lsls	r2, r3, #31
87803c44:	d408      	bmi.n	87803c58 <xPortStartScheduler+0x38>
87803c46:	f89d 3003 	ldrb.w	r3, [sp, #3]
87803c4a:	085b      	lsrs	r3, r3, #1
87803c4c:	f88d 3003 	strb.w	r3, [sp, #3]
87803c50:	f89d 3003 	ldrb.w	r3, [sp, #3]
87803c54:	07db      	lsls	r3, r3, #31
87803c56:	d5f6      	bpl.n	87803c46 <xPortStartScheduler+0x26>
87803c58:	f89d 3003 	ldrb.w	r3, [sp, #3]
87803c5c:	2b1f      	cmp	r3, #31
87803c5e:	d017      	beq.n	87803c90 <xPortStartScheduler+0x70>
87803c60:	b672      	cpsid	i
87803c62:	f3bf 8f4f 	dsb	sy
87803c66:	f3bf 8f6f 	isb	sy
87803c6a:	f242 0304 	movw	r3, #8196	; 0x2004
87803c6e:	f2c0 03a0 	movt	r3, #160	; 0xa0
87803c72:	681a      	ldr	r2, [r3, #0]
87803c74:	2aa0      	cmp	r2, #160	; 0xa0
87803c76:	d005      	beq.n	87803c84 <xPortStartScheduler+0x64>
87803c78:	22a0      	movs	r2, #160	; 0xa0
87803c7a:	601a      	str	r2, [r3, #0]
87803c7c:	f3bf 8f4f 	dsb	sy
87803c80:	f3bf 8f6f 	isb	sy
87803c84:	b662      	cpsie	i
87803c86:	f3bf 8f4f 	dsb	sy
87803c8a:	f3bf 8f6f 	isb	sy
87803c8e:	e7fe      	b.n	87803c8e <xPortStartScheduler+0x6e>
87803c90:	9b01      	ldr	r3, [sp, #4]
87803c92:	f44f 52a0 	mov.w	r2, #5120	; 0x1400
87803c96:	f2c0 02a0 	movt	r2, #160	; 0xa0
87803c9a:	b2db      	uxtb	r3, r3
87803c9c:	7013      	strb	r3, [r2, #0]
87803c9e:	f3ef 8300 	mrs	r3, CPSR
87803ca2:	f003 031f 	and.w	r3, r3, #31
87803ca6:	2b10      	cmp	r3, #16
87803ca8:	d039      	beq.n	87803d1e <xPortStartScheduler+0xfe>
87803caa:	f242 0308 	movw	r3, #8200	; 0x2008
87803cae:	f2c0 03a0 	movt	r3, #160	; 0xa0
87803cb2:	681a      	ldr	r2, [r3, #0]
87803cb4:	f002 0203 	and.w	r2, r2, #3
87803cb8:	2a03      	cmp	r2, #3
87803cba:	d117      	bne.n	87803cec <xPortStartScheduler+0xcc>
87803cbc:	b672      	cpsid	i
87803cbe:	f3bf 8f4f 	dsb	sy
87803cc2:	f3bf 8f6f 	isb	sy
87803cc6:	f242 0304 	movw	r3, #8196	; 0x2004
87803cca:	f2c0 03a0 	movt	r3, #160	; 0xa0
87803cce:	681a      	ldr	r2, [r3, #0]
87803cd0:	2aa0      	cmp	r2, #160	; 0xa0
87803cd2:	d005      	beq.n	87803ce0 <xPortStartScheduler+0xc0>
87803cd4:	22a0      	movs	r2, #160	; 0xa0
87803cd6:	601a      	str	r2, [r3, #0]
87803cd8:	f3bf 8f4f 	dsb	sy
87803cdc:	f3bf 8f6f 	isb	sy
87803ce0:	b662      	cpsie	i
87803ce2:	f3bf 8f4f 	dsb	sy
87803ce6:	f3bf 8f6f 	isb	sy
87803cea:	e7fe      	b.n	87803cea <xPortStartScheduler+0xca>
87803cec:	681b      	ldr	r3, [r3, #0]
87803cee:	f003 0303 	and.w	r3, r3, #3
87803cf2:	2b03      	cmp	r3, #3
87803cf4:	d00f      	beq.n	87803d16 <xPortStartScheduler+0xf6>
87803cf6:	b672      	cpsid	i
87803cf8:	f3bf 8f4f 	dsb	sy
87803cfc:	f3bf 8f6f 	isb	sy
87803d00:	f643 3111 	movw	r1, #15121	; 0x3b11
87803d04:	221e      	movs	r2, #30
87803d06:	f2c8 7180 	movt	r1, #34688	; 0x8780
87803d0a:	f44f 707a 	mov.w	r0, #1000	; 0x3e8
87803d0e:	f002 f8a7 	bl	87805e60 <SystemSetupSystick>
87803d12:	f7fd e9ca 	blx	878010a8 <vPortRestoreTaskContext>
87803d16:	2000      	movs	r0, #0
87803d18:	b003      	add	sp, #12
87803d1a:	f85d fb04 	ldr.w	pc, [sp], #4
87803d1e:	b672      	cpsid	i
87803d20:	f3bf 8f4f 	dsb	sy
87803d24:	f3bf 8f6f 	isb	sy
87803d28:	f242 0304 	movw	r3, #8196	; 0x2004
87803d2c:	f2c0 03a0 	movt	r3, #160	; 0xa0
87803d30:	681a      	ldr	r2, [r3, #0]
87803d32:	2aa0      	cmp	r2, #160	; 0xa0
87803d34:	d005      	beq.n	87803d42 <xPortStartScheduler+0x122>
87803d36:	22a0      	movs	r2, #160	; 0xa0
87803d38:	601a      	str	r2, [r3, #0]
87803d3a:	f3bf 8f4f 	dsb	sy
87803d3e:	f3bf 8f6f 	isb	sy
87803d42:	b662      	cpsie	i
87803d44:	f3bf 8f4f 	dsb	sy
87803d48:	f3bf 8f6f 	isb	sy
87803d4c:	e7fe      	b.n	87803d4c <xPortStartScheduler+0x12c>
87803d4e:	bf00      	nop

87803d50 <vPortEndScheduler>:
87803d50:	f240 0300 	movw	r3, #0
87803d54:	f6c8 0300 	movt	r3, #34816	; 0x8800
87803d58:	681b      	ldr	r3, [r3, #0]
87803d5a:	f5b3 7f7a 	cmp.w	r3, #1000	; 0x3e8
87803d5e:	d017      	beq.n	87803d90 <vPortEndScheduler+0x40>
87803d60:	b672      	cpsid	i
87803d62:	f3bf 8f4f 	dsb	sy
87803d66:	f3bf 8f6f 	isb	sy
87803d6a:	f242 0304 	movw	r3, #8196	; 0x2004
87803d6e:	f2c0 03a0 	movt	r3, #160	; 0xa0
87803d72:	681a      	ldr	r2, [r3, #0]
87803d74:	2aa0      	cmp	r2, #160	; 0xa0
87803d76:	d005      	beq.n	87803d84 <vPortEndScheduler+0x34>
87803d78:	22a0      	movs	r2, #160	; 0xa0
87803d7a:	601a      	str	r2, [r3, #0]
87803d7c:	f3bf 8f4f 	dsb	sy
87803d80:	f3bf 8f6f 	isb	sy
87803d84:	b662      	cpsie	i
87803d86:	f3bf 8f4f 	dsb	sy
87803d8a:	f3bf 8f6f 	isb	sy
87803d8e:	e7fe      	b.n	87803d8e <vPortEndScheduler+0x3e>
87803d90:	4770      	bx	lr
87803d92:	bf00      	nop

87803d94 <vPortEnterCritical>:
87803d94:	b672      	cpsid	i
87803d96:	f3bf 8f4f 	dsb	sy
87803d9a:	f3bf 8f6f 	isb	sy
87803d9e:	f242 0304 	movw	r3, #8196	; 0x2004
87803da2:	f2c0 03a0 	movt	r3, #160	; 0xa0
87803da6:	681a      	ldr	r2, [r3, #0]
87803da8:	2aa0      	cmp	r2, #160	; 0xa0
87803daa:	d005      	beq.n	87803db8 <vPortEnterCritical+0x24>
87803dac:	22a0      	movs	r2, #160	; 0xa0
87803dae:	601a      	str	r2, [r3, #0]
87803db0:	f3bf 8f4f 	dsb	sy
87803db4:	f3bf 8f6f 	isb	sy
87803db8:	b662      	cpsie	i
87803dba:	f3bf 8f4f 	dsb	sy
87803dbe:	f3bf 8f6f 	isb	sy
87803dc2:	f240 0300 	movw	r3, #0
87803dc6:	f6c8 0300 	movt	r3, #34816	; 0x8800
87803dca:	681a      	ldr	r2, [r3, #0]
87803dcc:	3201      	adds	r2, #1
87803dce:	601a      	str	r2, [r3, #0]
87803dd0:	681b      	ldr	r3, [r3, #0]
87803dd2:	2b01      	cmp	r3, #1
87803dd4:	d000      	beq.n	87803dd8 <vPortEnterCritical+0x44>
87803dd6:	4770      	bx	lr
87803dd8:	f240 2384 	movw	r3, #644	; 0x284
87803ddc:	f6c8 0300 	movt	r3, #34816	; 0x8800
87803de0:	681b      	ldr	r3, [r3, #0]
87803de2:	2b00      	cmp	r3, #0
87803de4:	d0f7      	beq.n	87803dd6 <vPortEnterCritical+0x42>
87803de6:	b672      	cpsid	i
87803de8:	f3bf 8f4f 	dsb	sy
87803dec:	f3bf 8f6f 	isb	sy
87803df0:	f242 0304 	movw	r3, #8196	; 0x2004
87803df4:	f2c0 03a0 	movt	r3, #160	; 0xa0
87803df8:	681a      	ldr	r2, [r3, #0]
87803dfa:	2aa0      	cmp	r2, #160	; 0xa0
87803dfc:	d005      	beq.n	87803e0a <vPortEnterCritical+0x76>
87803dfe:	22a0      	movs	r2, #160	; 0xa0
87803e00:	601a      	str	r2, [r3, #0]
87803e02:	f3bf 8f4f 	dsb	sy
87803e06:	f3bf 8f6f 	isb	sy
87803e0a:	b662      	cpsie	i
87803e0c:	f3bf 8f4f 	dsb	sy
87803e10:	f3bf 8f6f 	isb	sy
87803e14:	e7fe      	b.n	87803e14 <vPortEnterCritical+0x80>
87803e16:	bf00      	nop

87803e18 <vPortExitCritical>:
87803e18:	f240 0300 	movw	r3, #0
87803e1c:	f6c8 0300 	movt	r3, #34816	; 0x8800
87803e20:	681a      	ldr	r2, [r3, #0]
87803e22:	b1c2      	cbz	r2, 87803e56 <vPortExitCritical+0x3e>
87803e24:	681a      	ldr	r2, [r3, #0]
87803e26:	3a01      	subs	r2, #1
87803e28:	601a      	str	r2, [r3, #0]
87803e2a:	681b      	ldr	r3, [r3, #0]
87803e2c:	b99b      	cbnz	r3, 87803e56 <vPortExitCritical+0x3e>
87803e2e:	b672      	cpsid	i
87803e30:	f3bf 8f4f 	dsb	sy
87803e34:	f3bf 8f6f 	isb	sy
87803e38:	f242 0304 	movw	r3, #8196	; 0x2004
87803e3c:	22ff      	movs	r2, #255	; 0xff
87803e3e:	f2c0 03a0 	movt	r3, #160	; 0xa0
87803e42:	601a      	str	r2, [r3, #0]
87803e44:	f3bf 8f4f 	dsb	sy
87803e48:	f3bf 8f6f 	isb	sy
87803e4c:	b662      	cpsie	i
87803e4e:	f3bf 8f4f 	dsb	sy
87803e52:	f3bf 8f6f 	isb	sy
87803e56:	4770      	bx	lr

87803e58 <vPortTaskUsesFPU>:
87803e58:	f240 2384 	movw	r3, #644	; 0x284
87803e5c:	2101      	movs	r1, #1
87803e5e:	f6c8 0300 	movt	r3, #34816	; 0x8800
87803e62:	2200      	movs	r2, #0
87803e64:	6099      	str	r1, [r3, #8]
87803e66:	eee1 2a10 	vmsr	fpscr, r2
87803e6a:	4770      	bx	lr

87803e6c <vPortClearInterruptMask>:
87803e6c:	b998      	cbnz	r0, 87803e96 <vPortClearInterruptMask+0x2a>
87803e6e:	b672      	cpsid	i
87803e70:	f3bf 8f4f 	dsb	sy
87803e74:	f3bf 8f6f 	isb	sy
87803e78:	f242 0304 	movw	r3, #8196	; 0x2004
87803e7c:	22ff      	movs	r2, #255	; 0xff
87803e7e:	f2c0 03a0 	movt	r3, #160	; 0xa0
87803e82:	601a      	str	r2, [r3, #0]
87803e84:	f3bf 8f4f 	dsb	sy
87803e88:	f3bf 8f6f 	isb	sy
87803e8c:	b662      	cpsie	i
87803e8e:	f3bf 8f4f 	dsb	sy
87803e92:	f3bf 8f6f 	isb	sy
87803e96:	4770      	bx	lr

87803e98 <ulPortSetInterruptMask>:
87803e98:	b672      	cpsid	i
87803e9a:	f3bf 8f4f 	dsb	sy
87803e9e:	f3bf 8f6f 	isb	sy
87803ea2:	f242 0304 	movw	r3, #8196	; 0x2004
87803ea6:	f2c0 03a0 	movt	r3, #160	; 0xa0
87803eaa:	681a      	ldr	r2, [r3, #0]
87803eac:	2aa0      	cmp	r2, #160	; 0xa0
87803eae:	bf08      	it	eq
87803eb0:	2001      	moveq	r0, #1
87803eb2:	d006      	beq.n	87803ec2 <ulPortSetInterruptMask+0x2a>
87803eb4:	22a0      	movs	r2, #160	; 0xa0
87803eb6:	601a      	str	r2, [r3, #0]
87803eb8:	f3bf 8f4f 	dsb	sy
87803ebc:	f3bf 8f6f 	isb	sy
87803ec0:	2000      	movs	r0, #0
87803ec2:	b662      	cpsie	i
87803ec4:	f3bf 8f4f 	dsb	sy
87803ec8:	f3bf 8f6f 	isb	sy
87803ecc:	4770      	bx	lr
87803ece:	bf00      	nop

87803ed0 <vPortValidateInterruptPriority>:
87803ed0:	f242 0314 	movw	r3, #8212	; 0x2014
87803ed4:	f2c0 03a0 	movt	r3, #160	; 0xa0
87803ed8:	681b      	ldr	r3, [r3, #0]
87803eda:	2b9f      	cmp	r3, #159	; 0x9f
87803edc:	d817      	bhi.n	87803f0e <vPortValidateInterruptPriority+0x3e>
87803ede:	b672      	cpsid	i
87803ee0:	f3bf 8f4f 	dsb	sy
87803ee4:	f3bf 8f6f 	isb	sy
87803ee8:	f242 0304 	movw	r3, #8196	; 0x2004
87803eec:	f2c0 03a0 	movt	r3, #160	; 0xa0
87803ef0:	681a      	ldr	r2, [r3, #0]
87803ef2:	2aa0      	cmp	r2, #160	; 0xa0
87803ef4:	d005      	beq.n	87803f02 <vPortValidateInterruptPriority+0x32>
87803ef6:	22a0      	movs	r2, #160	; 0xa0
87803ef8:	601a      	str	r2, [r3, #0]
87803efa:	f3bf 8f4f 	dsb	sy
87803efe:	f3bf 8f6f 	isb	sy
87803f02:	b662      	cpsie	i
87803f04:	f3bf 8f4f 	dsb	sy
87803f08:	f3bf 8f6f 	isb	sy
87803f0c:	e7fe      	b.n	87803f0c <vPortValidateInterruptPriority+0x3c>
87803f0e:	f242 0308 	movw	r3, #8200	; 0x2008
87803f12:	f2c0 03a0 	movt	r3, #160	; 0xa0
87803f16:	681b      	ldr	r3, [r3, #0]
87803f18:	f003 0303 	and.w	r3, r3, #3
87803f1c:	2b03      	cmp	r3, #3
87803f1e:	d117      	bne.n	87803f50 <vPortValidateInterruptPriority+0x80>
87803f20:	b672      	cpsid	i
87803f22:	f3bf 8f4f 	dsb	sy
87803f26:	f3bf 8f6f 	isb	sy
87803f2a:	f242 0304 	movw	r3, #8196	; 0x2004
87803f2e:	f2c0 03a0 	movt	r3, #160	; 0xa0
87803f32:	681a      	ldr	r2, [r3, #0]
87803f34:	2aa0      	cmp	r2, #160	; 0xa0
87803f36:	d005      	beq.n	87803f44 <vPortValidateInterruptPriority+0x74>
87803f38:	22a0      	movs	r2, #160	; 0xa0
87803f3a:	601a      	str	r2, [r3, #0]
87803f3c:	f3bf 8f4f 	dsb	sy
87803f40:	f3bf 8f6f 	isb	sy
87803f44:	b662      	cpsie	i
87803f46:	f3bf 8f4f 	dsb	sy
87803f4a:	f3bf 8f6f 	isb	sy
87803f4e:	e7fe      	b.n	87803f4e <vPortValidateInterruptPriority+0x7e>
87803f50:	4770      	bx	lr
87803f52:	bf00      	nop

87803f54 <vApplicationFPUSafeIRQHandler>:
87803f54:	b672      	cpsid	i
87803f56:	f3bf 8f4f 	dsb	sy
87803f5a:	f3bf 8f6f 	isb	sy
87803f5e:	f242 0304 	movw	r3, #8196	; 0x2004
87803f62:	f2c0 03a0 	movt	r3, #160	; 0xa0
87803f66:	681a      	ldr	r2, [r3, #0]
87803f68:	2aa0      	cmp	r2, #160	; 0xa0
87803f6a:	d005      	beq.n	87803f78 <vApplicationFPUSafeIRQHandler+0x24>
87803f6c:	22a0      	movs	r2, #160	; 0xa0
87803f6e:	601a      	str	r2, [r3, #0]
87803f70:	f3bf 8f4f 	dsb	sy
87803f74:	f3bf 8f6f 	isb	sy
87803f78:	b662      	cpsie	i
87803f7a:	f3bf 8f4f 	dsb	sy
87803f7e:	f3bf 8f6f 	isb	sy
87803f82:	e7fe      	b.n	87803f82 <vApplicationFPUSafeIRQHandler+0x2e>

87803f84 <prvInsertBlockIntoFreeList>:
87803f84:	b430      	push	{r4, r5}
87803f86:	f240 2490 	movw	r4, #656	; 0x290
87803f8a:	f6c8 0400 	movt	r4, #34816	; 0x8800
87803f8e:	4622      	mov	r2, r4
87803f90:	e000      	b.n	87803f94 <prvInsertBlockIntoFreeList+0x10>
87803f92:	461a      	mov	r2, r3
87803f94:	6813      	ldr	r3, [r2, #0]
87803f96:	4283      	cmp	r3, r0
87803f98:	d3fb      	bcc.n	87803f92 <prvInsertBlockIntoFreeList+0xe>
87803f9a:	6851      	ldr	r1, [r2, #4]
87803f9c:	1855      	adds	r5, r2, r1
87803f9e:	42a8      	cmp	r0, r5
87803fa0:	bf05      	ittet	eq
87803fa2:	6845      	ldreq	r5, [r0, #4]
87803fa4:	4610      	moveq	r0, r2
87803fa6:	6841      	ldrne	r1, [r0, #4]
87803fa8:	1949      	addeq	r1, r1, r5
87803faa:	eb00 0501 	add.w	r5, r0, r1
87803fae:	bf08      	it	eq
87803fb0:	6051      	streq	r1, [r2, #4]
87803fb2:	42ab      	cmp	r3, r5
87803fb4:	d005      	beq.n	87803fc2 <prvInsertBlockIntoFreeList+0x3e>
87803fb6:	4290      	cmp	r0, r2
87803fb8:	6003      	str	r3, [r0, #0]
87803fba:	bc30      	pop	{r4, r5}
87803fbc:	bf18      	it	ne
87803fbe:	6010      	strne	r0, [r2, #0]
87803fc0:	4770      	bx	lr
87803fc2:	68a4      	ldr	r4, [r4, #8]
87803fc4:	42a3      	cmp	r3, r4
87803fc6:	d0f6      	beq.n	87803fb6 <prvInsertBlockIntoFreeList+0x32>
87803fc8:	cb18      	ldmia	r3, {r3, r4}
87803fca:	4290      	cmp	r0, r2
87803fcc:	4421      	add	r1, r4
87803fce:	6003      	str	r3, [r0, #0]
87803fd0:	6041      	str	r1, [r0, #4]
87803fd2:	bc30      	pop	{r4, r5}
87803fd4:	bf18      	it	ne
87803fd6:	6010      	strne	r0, [r2, #0]
87803fd8:	4770      	bx	lr
87803fda:	bf00      	nop

87803fdc <pvPortMalloc>:
87803fdc:	e92d 41f0 	stmdb	sp!, {r4, r5, r6, r7, r8, lr}
87803fe0:	4604      	mov	r4, r0
87803fe2:	f7fe fc63 	bl	878028ac <vTaskSuspendAll>
87803fe6:	f240 2290 	movw	r2, #656	; 0x290
87803fea:	f6c8 0200 	movt	r2, #34816	; 0x8800
87803fee:	6893      	ldr	r3, [r2, #8]
87803ff0:	2b00      	cmp	r3, #0
87803ff2:	d056      	beq.n	878040a2 <pvPortMalloc+0xc6>
87803ff4:	68d7      	ldr	r7, [r2, #12]
87803ff6:	423c      	tst	r4, r7
87803ff8:	d14d      	bne.n	87804096 <pvPortMalloc+0xba>
87803ffa:	2c00      	cmp	r4, #0
87803ffc:	d04b      	beq.n	87804096 <pvPortMalloc+0xba>
87803ffe:	f104 0308 	add.w	r3, r4, #8
87804002:	0758      	lsls	r0, r3, #29
87804004:	bf1c      	itt	ne
87804006:	f023 0307 	bicne.w	r3, r3, #7
