
/home/wyz/Atom/IMX6ULL/imx-sim/hw_sim/i2c_test/build/i2c_test.elf:     file format elf32-littlearm


Disassembly of section .text:

87800000 <_start>:
87800000:	e10f0000 	mrs	r0, CPSR
87800004:	e3c0001f 	bic	r0, r0, #31
87800008:	e3800013 	orr	r0, r0, #19
8780000c:	e129f000 	msr	CPSR_fc, r0
87800010:	e51fd000 	ldr	sp, [pc, #-0]	; 87800018 <_start+0x18>
87800014:	ea000a69 	b	878029c0 <__main_from_arm>
87800018:	80200000 	eorhi	r0, r0, r0
8780001c:	00001e41 	andeq	r1, r0, r1, asr #28
87800020:	61656100 	cmnvs	r5, r0, lsl #2
87800024:	01006962 	tsteq	r0, r2, ror #18
87800028:	00000014 	andeq	r0, r0, r4, lsl r0
8780002c:	412d3705 	teqmi	sp, r5, lsl #14
87800030:	070a0600 	streq	r0, [sl, -r0, lsl #12]
87800034:	09010841 	stmdbeq	r1, {r0, r6, fp}
87800038:	37040a02 	strcc	r0, [r4, -r2, lsl #20]
8780003c:	02000000 	andeq	r0, r0, #0
87800040:	00001e00 	andeq	r1, r0, r0, lsl #28
87800044:	fb010200 	blx	8784084e <__bss_end+0x3d026>
87800048:	01000d0e 	tsteq	r0, lr, lsl #26
8780004c:	00010101 	andeq	r0, r1, r1, lsl #2
87800050:	00010000 	andeq	r0, r1, r0
87800054:	73000100 	movwvc	r0, #256	; 0x100
87800058:	74726174 	ldrbtvc	r6, [r2], #-372	; 0x174
8780005c:	0000532e 	andeq	r5, r0, lr, lsr #6
87800060:	00000000 	andeq	r0, r0, r0
87800064:	00000205 	andeq	r0, r0, r5, lsl #4
87800068:	2f158780 	svccs	0x00158780
8780006c:	2f302f2f 	svccs	0x00302f2f
87800070:	0002022d 	andeq	r0, r2, sp, lsr #4
87800074:	005b0101 	subseq	r0, fp, r1, lsl #2
87800078:	00020000 	andeq	r0, r2, r0
8780007c:	878000d5 			; <UNDEFINED> instruction: 0x878000d5
87800080:	003b0104 	eorseq	r0, fp, r4, lsl #2
87800084:	00008780 	andeq	r8, r0, r0, lsl #15
87800088:	001c8780 	andseq	r8, ip, r0, lsl #15
8780008c:	74738780 	ldrbtvc	r8, [r3], #-1920	; 0x780
87800090:	2e747261 	cdpcs	2, 7, cr7, cr4, cr1, {3}
87800094:	682f0053 	stmdavs	pc!, {r0, r1, r4, r6}	; <UNPREDICTABLE>
87800098:	2f656d6f 	svccs	0x00656d6f
8780009c:	2f7a7977 	svccs	0x007a7977
878000a0:	6d6f7441 	cfstrdvs	mvd7, [pc, #-260]!	; 877fffa4 <shift+0x877fffa4>
878000a4:	584d492f 	stmdapl	sp, {r0, r1, r2, r3, r5, r8, fp, lr}^
878000a8:	4c4c5536 	cfstr64mi	mvdx5, [ip], {54}	; 0x36
878000ac:	786d692f 	stmdavc	sp!, {r0, r1, r2, r3, r5, r8, fp, sp, lr}^
878000b0:	6d69732d 	stclvs	3, cr7, [r9, #-180]!	; 0xffffff4c
878000b4:	5f77682f 	svcpl	0x0077682f
878000b8:	2f6d6973 	svccs	0x006d6973
878000bc:	5f633269 	svcpl	0x00633269
878000c0:	74736574 	ldrbtvc	r6, [r3], #-1396	; 0x574
878000c4:	554e4700 	strbpl	r4, [lr, #-1792]	; 0x700
878000c8:	20534120 	subscs	r4, r3, r0, lsr #2
878000cc:	34322e32 	ldrtcc	r2, [r2], #-3634	; 0xe32
878000d0:	0100302e 	tsteq	r0, lr, lsr #32
878000d4:	00110180 	andseq	r0, r1, r0, lsl #3
878000d8:	01110610 	tsteq	r1, r0, lsl r6
878000dc:	08030112 	stmdaeq	r3, {r1, r4, r8}
878000e0:	0825081b 	stmdaeq	r5!, {r0, r1, r3, r4, fp}
878000e4:	00000513 	andeq	r0, r0, r3, lsl r5
	...
878000f0:	0000001c 	andeq	r0, r0, ip, lsl r0
878000f4:	00760002 	rsbseq	r0, r6, r2
878000f8:	00048780 	andeq	r8, r4, r0, lsl #15
878000fc:	00000000 	andeq	r0, r0, r0
87800100:	87800000 	strhi	r0, [r0, r0]
87800104:	0000001c 	andeq	r0, r0, ip, lsl r0
	...

87800110 <IOMUXC_SetPinMux>:
87800110:	b480      	push	{r7}
87800112:	b085      	sub	sp, #20
87800114:	af00      	add	r7, sp, #0
87800116:	60f8      	str	r0, [r7, #12]
87800118:	60b9      	str	r1, [r7, #8]
8780011a:	607a      	str	r2, [r7, #4]
8780011c:	603b      	str	r3, [r7, #0]
8780011e:	68fb      	ldr	r3, [r7, #12]
87800120:	68ba      	ldr	r2, [r7, #8]
87800122:	f002 010f 	and.w	r1, r2, #15
87800126:	69fa      	ldr	r2, [r7, #28]
87800128:	0112      	lsls	r2, r2, #4
8780012a:	f002 0210 	and.w	r2, r2, #16
8780012e:	430a      	orrs	r2, r1
87800130:	601a      	str	r2, [r3, #0]
87800132:	687b      	ldr	r3, [r7, #4]
87800134:	2b00      	cmp	r3, #0
87800136:	d004      	beq.n	87800142 <IOMUXC_SetPinMux+0x32>
87800138:	687b      	ldr	r3, [r7, #4]
8780013a:	683a      	ldr	r2, [r7, #0]
8780013c:	f002 0207 	and.w	r2, r2, #7
87800140:	601a      	str	r2, [r3, #0]
87800142:	3714      	adds	r7, #20
87800144:	46bd      	mov	sp, r7
87800146:	f85d 7b04 	ldr.w	r7, [sp], #4
8780014a:	4770      	bx	lr

8780014c <IOMUXC_SetPinConfig>:
8780014c:	b480      	push	{r7}
8780014e:	b085      	sub	sp, #20
87800150:	af00      	add	r7, sp, #0
87800152:	60f8      	str	r0, [r7, #12]
87800154:	60b9      	str	r1, [r7, #8]
87800156:	607a      	str	r2, [r7, #4]
87800158:	603b      	str	r3, [r7, #0]
8780015a:	69bb      	ldr	r3, [r7, #24]
8780015c:	2b00      	cmp	r3, #0
8780015e:	d002      	beq.n	87800166 <IOMUXC_SetPinConfig+0x1a>
87800160:	69bb      	ldr	r3, [r7, #24]
87800162:	69fa      	ldr	r2, [r7, #28]
87800164:	601a      	str	r2, [r3, #0]
87800166:	3714      	adds	r7, #20
87800168:	46bd      	mov	sp, r7
8780016a:	f85d 7b04 	ldr.w	r7, [sp], #4
8780016e:	4770      	bx	lr

87800170 <ap3216c_init>:
87800170:	b580      	push	{r7, lr}
87800172:	b084      	sub	sp, #16
87800174:	af02      	add	r7, sp, #8
87800176:	2300      	movs	r3, #0
87800178:	71fb      	strb	r3, [r7, #7]
8780017a:	2301      	movs	r3, #1
8780017c:	9301      	str	r3, [sp, #4]
8780017e:	f44f 7350 	mov.w	r3, #832	; 0x340
87800182:	f2c0 230e 	movt	r3, #526	; 0x20e
87800186:	9300      	str	r3, [sp, #0]
87800188:	2301      	movs	r3, #1
8780018a:	f240 52a4 	movw	r2, #1444	; 0x5a4
8780018e:	f2c0 220e 	movt	r2, #526	; 0x20e
87800192:	2102      	movs	r1, #2
87800194:	20b4      	movs	r0, #180	; 0xb4
87800196:	f2c0 200e 	movt	r0, #526	; 0x20e
8780019a:	f7ff ffb9 	bl	87800110 <IOMUXC_SetPinMux>
8780019e:	2301      	movs	r3, #1
878001a0:	9301      	str	r3, [sp, #4]
878001a2:	f44f 7351 	mov.w	r3, #836	; 0x344
878001a6:	f2c0 230e 	movt	r3, #526	; 0x20e
878001aa:	9300      	str	r3, [sp, #0]
878001ac:	2302      	movs	r3, #2
878001ae:	f44f 62b5 	mov.w	r2, #1448	; 0x5a8
878001b2:	f2c0 220e 	movt	r2, #526	; 0x20e
878001b6:	2102      	movs	r1, #2
878001b8:	20b8      	movs	r0, #184	; 0xb8
878001ba:	f2c0 200e 	movt	r0, #526	; 0x20e
878001be:	f7ff ffa7 	bl	87800110 <IOMUXC_SetPinMux>
878001c2:	f247 03b0 	movw	r3, #28848	; 0x70b0
878001c6:	9301      	str	r3, [sp, #4]
878001c8:	f44f 7350 	mov.w	r3, #832	; 0x340
878001cc:	f2c0 230e 	movt	r3, #526	; 0x20e
878001d0:	9300      	str	r3, [sp, #0]
878001d2:	2301      	movs	r3, #1
878001d4:	f240 52a4 	movw	r2, #1444	; 0x5a4
878001d8:	f2c0 220e 	movt	r2, #526	; 0x20e
878001dc:	2102      	movs	r1, #2
878001de:	20b4      	movs	r0, #180	; 0xb4
878001e0:	f2c0 200e 	movt	r0, #526	; 0x20e
878001e4:	f7ff ffb2 	bl	8780014c <IOMUXC_SetPinConfig>
878001e8:	f247 03b0 	movw	r3, #28848	; 0x70b0
878001ec:	9301      	str	r3, [sp, #4]
878001ee:	f44f 7351 	mov.w	r3, #836	; 0x344
878001f2:	f2c0 230e 	movt	r3, #526	; 0x20e
878001f6:	9300      	str	r3, [sp, #0]
878001f8:	2302      	movs	r3, #2
878001fa:	f44f 62b5 	mov.w	r2, #1448	; 0x5a8
878001fe:	f2c0 220e 	movt	r2, #526	; 0x20e
87800202:	2102      	movs	r1, #2
87800204:	20b8      	movs	r0, #184	; 0xb8
87800206:	f2c0 200e 	movt	r0, #526	; 0x20e
8780020a:	f7ff ff9f 	bl	8780014c <IOMUXC_SetPinConfig>
8780020e:	2000      	movs	r0, #0
87800210:	f2c0 201a 	movt	r0, #538	; 0x21a
87800214:	f000 f9d0 	bl	878005b8 <i2c_init>
87800218:	2204      	movs	r2, #4
8780021a:	2100      	movs	r1, #0
8780021c:	201e      	movs	r0, #30
8780021e:	f000 f82f 	bl	87800280 <ap3216c_writeonebyte>
87800222:	2096      	movs	r0, #150	; 0x96
87800224:	f000 f976 	bl	87800514 <delayms>
87800228:	2300      	movs	r3, #0
8780022a:	4618      	mov	r0, r3
8780022c:	3708      	adds	r7, #8
8780022e:	46bd      	mov	sp, r7
87800230:	bd80      	pop	{r7, pc}
87800232:	bf00      	nop

87800234 <ap3216c_readonebyte>:
87800234:	b580      	push	{r7, lr}
87800236:	b08a      	sub	sp, #40	; 0x28
87800238:	af00      	add	r7, sp, #0
8780023a:	4603      	mov	r3, r0
8780023c:	460a      	mov	r2, r1
8780023e:	71fb      	strb	r3, [r7, #7]
87800240:	4613      	mov	r3, r2
87800242:	71bb      	strb	r3, [r7, #6]
87800244:	2300      	movs	r3, #0
87800246:	f887 3027 	strb.w	r3, [r7, #39]	; 0x27
8780024a:	79fb      	ldrb	r3, [r7, #7]
8780024c:	733b      	strb	r3, [r7, #12]
8780024e:	2301      	movs	r3, #1
87800250:	613b      	str	r3, [r7, #16]
87800252:	79bb      	ldrb	r3, [r7, #6]
87800254:	617b      	str	r3, [r7, #20]
87800256:	2301      	movs	r3, #1
87800258:	763b      	strb	r3, [r7, #24]
8780025a:	f107 0327 	add.w	r3, r7, #39	; 0x27
8780025e:	61fb      	str	r3, [r7, #28]
87800260:	2301      	movs	r3, #1
87800262:	623b      	str	r3, [r7, #32]
87800264:	f107 030c 	add.w	r3, r7, #12
87800268:	4619      	mov	r1, r3
8780026a:	2000      	movs	r0, #0
8780026c:	f2c0 201a 	movt	r0, #538	; 0x21a
87800270:	f000 faac 	bl	878007cc <i2c_master_transfer>
87800274:	f897 3027 	ldrb.w	r3, [r7, #39]	; 0x27
87800278:	4618      	mov	r0, r3
8780027a:	3728      	adds	r7, #40	; 0x28
8780027c:	46bd      	mov	sp, r7
8780027e:	bd80      	pop	{r7, pc}

87800280 <ap3216c_writeonebyte>:
87800280:	b580      	push	{r7, lr}
87800282:	b08a      	sub	sp, #40	; 0x28
87800284:	af00      	add	r7, sp, #0
87800286:	4603      	mov	r3, r0
87800288:	71fb      	strb	r3, [r7, #7]
8780028a:	460b      	mov	r3, r1
8780028c:	71bb      	strb	r3, [r7, #6]
8780028e:	4613      	mov	r3, r2
87800290:	717b      	strb	r3, [r7, #5]
87800292:	797b      	ldrb	r3, [r7, #5]
87800294:	f887 3027 	strb.w	r3, [r7, #39]	; 0x27
87800298:	f107 0327 	add.w	r3, r7, #39	; 0x27
8780029c:	61fb      	str	r3, [r7, #28]
8780029e:	2301      	movs	r3, #1
878002a0:	623b      	str	r3, [r7, #32]
878002a2:	2300      	movs	r3, #0
878002a4:	613b      	str	r3, [r7, #16]
878002a6:	79fb      	ldrb	r3, [r7, #7]
878002a8:	733b      	strb	r3, [r7, #12]
878002aa:	79bb      	ldrb	r3, [r7, #6]
878002ac:	617b      	str	r3, [r7, #20]
878002ae:	2301      	movs	r3, #1
878002b0:	763b      	strb	r3, [r7, #24]
878002b2:	f107 030c 	add.w	r3, r7, #12
878002b6:	4619      	mov	r1, r3
878002b8:	2000      	movs	r0, #0
878002ba:	f2c0 201a 	movt	r0, #538	; 0x21a
878002be:	f000 fa85 	bl	878007cc <i2c_master_transfer>
878002c2:	4603      	mov	r3, r0
878002c4:	4618      	mov	r0, r3
878002c6:	3728      	adds	r7, #40	; 0x28
878002c8:	46bd      	mov	sp, r7
878002ca:	bd80      	pop	{r7, pc}

878002cc <ap3216c_dump>:
878002cc:	b590      	push	{r4, r7, lr}
878002ce:	b085      	sub	sp, #20
878002d0:	af00      	add	r7, sp, #0
878002d2:	6078      	str	r0, [r7, #4]
878002d4:	2300      	movs	r3, #0
878002d6:	73fb      	strb	r3, [r7, #15]
878002d8:	e011      	b.n	878002fe <ap3216c_dump+0x32>
878002da:	7bfc      	ldrb	r4, [r7, #15]
878002dc:	7bfb      	ldrb	r3, [r7, #15]
878002de:	330a      	adds	r3, #10
878002e0:	b2db      	uxtb	r3, r3
878002e2:	4619      	mov	r1, r3
878002e4:	201e      	movs	r0, #30
878002e6:	f7ff ffa5 	bl	87800234 <ap3216c_readonebyte>
878002ea:	4603      	mov	r3, r0
878002ec:	461a      	mov	r2, r3
878002ee:	f107 0310 	add.w	r3, r7, #16
878002f2:	4423      	add	r3, r4
878002f4:	f803 2c08 	strb.w	r2, [r3, #-8]
878002f8:	7bfb      	ldrb	r3, [r7, #15]
878002fa:	3301      	adds	r3, #1
878002fc:	73fb      	strb	r3, [r7, #15]
878002fe:	7bfb      	ldrb	r3, [r7, #15]
87800300:	2b05      	cmp	r3, #5
87800302:	d9ea      	bls.n	878002da <ap3216c_dump+0xe>
87800304:	7a3b      	ldrb	r3, [r7, #8]
87800306:	b2db      	uxtb	r3, r3
87800308:	b25b      	sxtb	r3, r3
8780030a:	2b00      	cmp	r3, #0
8780030c:	da03      	bge.n	87800316 <ap3216c_dump+0x4a>
8780030e:	687b      	ldr	r3, [r7, #4]
87800310:	2200      	movs	r2, #0
87800312:	801a      	strh	r2, [r3, #0]
87800314:	e00c      	b.n	87800330 <ap3216c_dump+0x64>
87800316:	7a7b      	ldrb	r3, [r7, #9]
87800318:	009b      	lsls	r3, r3, #2
8780031a:	b29a      	uxth	r2, r3
8780031c:	7a3b      	ldrb	r3, [r7, #8]
8780031e:	b29b      	uxth	r3, r3
87800320:	f003 0303 	and.w	r3, r3, #3
87800324:	b29b      	uxth	r3, r3
87800326:	4313      	orrs	r3, r2
87800328:	b29b      	uxth	r3, r3
8780032a:	b29a      	uxth	r2, r3
8780032c:	687b      	ldr	r3, [r7, #4]
8780032e:	801a      	strh	r2, [r3, #0]
87800330:	7afb      	ldrb	r3, [r7, #11]
87800332:	021b      	lsls	r3, r3, #8
87800334:	b29a      	uxth	r2, r3
87800336:	7abb      	ldrb	r3, [r7, #10]
87800338:	b29b      	uxth	r3, r3
8780033a:	4313      	orrs	r3, r2
8780033c:	b29b      	uxth	r3, r3
8780033e:	b29a      	uxth	r2, r3
87800340:	687b      	ldr	r3, [r7, #4]
87800342:	809a      	strh	r2, [r3, #4]
87800344:	7b3b      	ldrb	r3, [r7, #12]
87800346:	f003 0340 	and.w	r3, r3, #64	; 0x40
8780034a:	2b00      	cmp	r3, #0
8780034c:	d003      	beq.n	87800356 <ap3216c_dump+0x8a>
8780034e:	687b      	ldr	r3, [r7, #4]
87800350:	2200      	movs	r2, #0
87800352:	805a      	strh	r2, [r3, #2]
87800354:	e00e      	b.n	87800374 <ap3216c_dump+0xa8>
87800356:	7b7b      	ldrb	r3, [r7, #13]
87800358:	f003 033f 	and.w	r3, r3, #63	; 0x3f
8780035c:	011b      	lsls	r3, r3, #4
8780035e:	b29a      	uxth	r2, r3
87800360:	7b3b      	ldrb	r3, [r7, #12]
87800362:	b29b      	uxth	r3, r3
87800364:	f003 030f 	and.w	r3, r3, #15
87800368:	b29b      	uxth	r3, r3
8780036a:	4313      	orrs	r3, r2
8780036c:	b29b      	uxth	r3, r3
8780036e:	b29a      	uxth	r2, r3
87800370:	687b      	ldr	r3, [r7, #4]
87800372:	805a      	strh	r2, [r3, #2]
87800374:	3714      	adds	r7, #20
87800376:	46bd      	mov	sp, r7
87800378:	bd90      	pop	{r4, r7, pc}
8780037a:	bf00      	nop

8780037c <main>:
8780037c:	b580      	push	{r7, lr}
8780037e:	b082      	sub	sp, #8
87800380:	af00      	add	r7, sp, #0
87800382:	f000 faf5 	bl	87800970 <int_init>
87800386:	f000 f829 	bl	878003dc <imx6ul_clkinit>
8780038a:	f000 f891 	bl	878004b0 <delay_init>
8780038e:	f000 f815 	bl	878003bc <clk_enable>
87800392:	f001 fec3 	bl	8780211c <uart_init>
87800396:	f7ff feeb 	bl	87800170 <ap3216c_init>
8780039a:	463b      	mov	r3, r7
8780039c:	4618      	mov	r0, r3
8780039e:	f7ff ff95 	bl	878002cc <ap3216c_dump>
878003a2:	883b      	ldrh	r3, [r7, #0]
878003a4:	4619      	mov	r1, r3
878003a6:	88bb      	ldrh	r3, [r7, #4]
878003a8:	461a      	mov	r2, r3
878003aa:	887b      	ldrh	r3, [r7, #2]
878003ac:	f642 10c8 	movw	r0, #10696	; 0x29c8
878003b0:	f2c8 7080 	movt	r0, #34688	; 0x8780
878003b4:	f000 fb52 	bl	87800a5c <printf>
878003b8:	e7ef      	b.n	8780039a <main+0x1e>
878003ba:	bf00      	nop

878003bc <clk_enable>:
878003bc:	f44f 4380 	mov.w	r3, #16384	; 0x4000
878003c0:	f04f 32ff 	mov.w	r2, #4294967295	; 0xffffffff
878003c4:	f2c0 230c 	movt	r3, #524	; 0x20c
878003c8:	669a      	str	r2, [r3, #104]	; 0x68
878003ca:	66da      	str	r2, [r3, #108]	; 0x6c
878003cc:	671a      	str	r2, [r3, #112]	; 0x70
878003ce:	675a      	str	r2, [r3, #116]	; 0x74
878003d0:	679a      	str	r2, [r3, #120]	; 0x78
878003d2:	67da      	str	r2, [r3, #124]	; 0x7c
878003d4:	f8c3 2080 	str.w	r2, [r3, #128]	; 0x80
878003d8:	4770      	bx	lr
878003da:	bf00      	nop

878003dc <imx6ul_clkinit>:
878003dc:	f44f 4380 	mov.w	r3, #16384	; 0x4000
878003e0:	b430      	push	{r4, r5}
878003e2:	f2c0 230c 	movt	r3, #524	; 0x20c
878003e6:	68da      	ldr	r2, [r3, #12]
878003e8:	0751      	lsls	r1, r2, #29
878003ea:	d407      	bmi.n	878003fc <imx6ul_clkinit+0x20>
878003ec:	68da      	ldr	r2, [r3, #12]
878003ee:	f422 7280 	bic.w	r2, r2, #256	; 0x100
878003f2:	60da      	str	r2, [r3, #12]
878003f4:	68da      	ldr	r2, [r3, #12]
878003f6:	f042 0204 	orr.w	r2, r2, #4
878003fa:	60da      	str	r2, [r3, #12]
878003fc:	f44f 4100 	mov.w	r1, #32768	; 0x8000
87800400:	f44f 4280 	mov.w	r2, #16384	; 0x4000
87800404:	f2c0 220c 	movt	r2, #524	; 0x20c
87800408:	f2c0 210c 	movt	r1, #524	; 0x20c
8780040c:	f242 0358 	movw	r3, #8280	; 0x2058
87800410:	2501      	movs	r5, #1
87800412:	600b      	str	r3, [r1, #0]
87800414:	f241 041b 	movw	r4, #4123	; 0x101b
87800418:	68d3      	ldr	r3, [r2, #12]
8780041a:	f2c2 0418 	movt	r4, #8216	; 0x2018
8780041e:	f241 000c 	movw	r0, #4108	; 0x100c
87800422:	f2c1 3011 	movt	r0, #4881	; 0x1311
87800426:	f023 0304 	bic.w	r3, r3, #4
8780042a:	60d3      	str	r3, [r2, #12]
8780042c:	4613      	mov	r3, r2
8780042e:	6115      	str	r5, [r2, #16]
87800430:	f8d1 5100 	ldr.w	r5, [r1, #256]	; 0x100
87800434:	f005 35c0 	and.w	r5, r5, #3233857728	; 0xc0c0c0c0
87800438:	432c      	orrs	r4, r5
8780043a:	f8c1 4100 	str.w	r4, [r1, #256]	; 0x100
8780043e:	f8d1 40f0 	ldr.w	r4, [r1, #240]	; 0xf0
87800442:	f004 34c0 	and.w	r4, r4, #3233857728	; 0xc0c0c0c0
87800446:	4320      	orrs	r0, r4
87800448:	f8c1 00f0 	str.w	r0, [r1, #240]	; 0xf0
8780044c:	6991      	ldr	r1, [r2, #24]
8780044e:	f421 2140 	bic.w	r1, r1, #786432	; 0xc0000
87800452:	6191      	str	r1, [r2, #24]
87800454:	6991      	ldr	r1, [r2, #24]
87800456:	f441 2180 	orr.w	r1, r1, #262144	; 0x40000
8780045a:	6191      	str	r1, [r2, #24]
8780045c:	6951      	ldr	r1, [r2, #20]
8780045e:	f021 7100 	bic.w	r1, r1, #33554432	; 0x2000000
87800462:	6151      	str	r1, [r2, #20]
87800464:	6c9a      	ldr	r2, [r3, #72]	; 0x48
87800466:	0692      	lsls	r2, r2, #26
87800468:	d4fc      	bmi.n	87800464 <imx6ul_clkinit+0x88>
8780046a:	695a      	ldr	r2, [r3, #20]
8780046c:	f422 7240 	bic.w	r2, r2, #768	; 0x300
87800470:	615a      	str	r2, [r3, #20]
87800472:	695a      	ldr	r2, [r3, #20]
87800474:	f442 7280 	orr.w	r2, r2, #256	; 0x100
87800478:	615a      	str	r2, [r3, #20]
8780047a:	69da      	ldr	r2, [r3, #28]
8780047c:	f022 0240 	bic.w	r2, r2, #64	; 0x40
87800480:	61da      	str	r2, [r3, #28]
87800482:	69da      	ldr	r2, [r3, #28]
87800484:	f022 0207 	bic.w	r2, r2, #7
87800488:	61da      	str	r2, [r3, #28]
8780048a:	6a5a      	ldr	r2, [r3, #36]	; 0x24
8780048c:	f022 0240 	bic.w	r2, r2, #64	; 0x40
87800490:	625a      	str	r2, [r3, #36]	; 0x24
87800492:	6a5a      	ldr	r2, [r3, #36]	; 0x24
87800494:	f022 023f 	bic.w	r2, r2, #63	; 0x3f
87800498:	625a      	str	r2, [r3, #36]	; 0x24
8780049a:	6b9a      	ldr	r2, [r3, #56]	; 0x38
8780049c:	f422 2280 	bic.w	r2, r2, #262144	; 0x40000
878004a0:	639a      	str	r2, [r3, #56]	; 0x38
878004a2:	6b9a      	ldr	r2, [r3, #56]	; 0x38
878004a4:	f022 72fc 	bic.w	r2, r2, #33030144	; 0x1f80000
878004a8:	639a      	str	r2, [r3, #56]	; 0x38
878004aa:	bc30      	pop	{r4, r5}
878004ac:	4770      	bx	lr
878004ae:	bf00      	nop

878004b0 <delay_init>:
878004b0:	f44f 4300 	mov.w	r3, #32768	; 0x8000
878004b4:	2000      	movs	r0, #0
878004b6:	f2c0 2309 	movt	r3, #521	; 0x209
878004ba:	f44f 4100 	mov.w	r1, #32768	; 0x8000
878004be:	461a      	mov	r2, r3
878004c0:	6018      	str	r0, [r3, #0]
878004c2:	6019      	str	r1, [r3, #0]
878004c4:	6813      	ldr	r3, [r2, #0]
878004c6:	041b      	lsls	r3, r3, #16
878004c8:	d4fc      	bmi.n	878004c4 <delay_init+0x14>
878004ca:	f04f 33ff 	mov.w	r3, #4294967295	; 0xffffffff
878004ce:	2040      	movs	r0, #64	; 0x40
878004d0:	2141      	movs	r1, #65	; 0x41
878004d2:	6010      	str	r0, [r2, #0]
878004d4:	6051      	str	r1, [r2, #4]
878004d6:	6113      	str	r3, [r2, #16]
878004d8:	6813      	ldr	r3, [r2, #0]
878004da:	f043 0301 	orr.w	r3, r3, #1
878004de:	6013      	str	r3, [r2, #0]
878004e0:	4770      	bx	lr
878004e2:	bf00      	nop

878004e4 <delayus>:
878004e4:	f44f 4100 	mov.w	r1, #32768	; 0x8000
878004e8:	b430      	push	{r4, r5}
878004ea:	f2c0 2109 	movt	r1, #521	; 0x209
878004ee:	2400      	movs	r4, #0
878004f0:	6a4a      	ldr	r2, [r1, #36]	; 0x24
878004f2:	6a4b      	ldr	r3, [r1, #36]	; 0x24
878004f4:	429a      	cmp	r2, r3
878004f6:	d0fc      	beq.n	878004f2 <delayus+0xe>
878004f8:	f104 35ff 	add.w	r5, r4, #4294967295	; 0xffffffff
878004fc:	eba4 0402 	sub.w	r4, r4, r2
87800500:	eba5 0202 	sub.w	r2, r5, r2
87800504:	bf34      	ite	cc
87800506:	18e4      	addcc	r4, r4, r3
87800508:	18d4      	addcs	r4, r2, r3
8780050a:	461a      	mov	r2, r3
8780050c:	4284      	cmp	r4, r0
8780050e:	d3f0      	bcc.n	878004f2 <delayus+0xe>
87800510:	bc30      	pop	{r4, r5}
87800512:	4770      	bx	lr

87800514 <delayms>:
87800514:	b1e0      	cbz	r0, 87800550 <delayms+0x3c>
87800516:	f44f 4100 	mov.w	r1, #32768	; 0x8000
8780051a:	b470      	push	{r4, r5, r6}
8780051c:	f2c0 2109 	movt	r1, #521	; 0x209
87800520:	2600      	movs	r6, #0
87800522:	2400      	movs	r4, #0
87800524:	6a4a      	ldr	r2, [r1, #36]	; 0x24
87800526:	6a4b      	ldr	r3, [r1, #36]	; 0x24
87800528:	4293      	cmp	r3, r2
8780052a:	d0fc      	beq.n	87800526 <delayms+0x12>
8780052c:	f104 35ff 	add.w	r5, r4, #4294967295	; 0xffffffff
87800530:	eba4 0402 	sub.w	r4, r4, r2
87800534:	eba5 0202 	sub.w	r2, r5, r2
87800538:	bf8c      	ite	hi
8780053a:	18e4      	addhi	r4, r4, r3
8780053c:	189c      	addls	r4, r3, r2
8780053e:	461a      	mov	r2, r3
87800540:	f5b4 7f7a 	cmp.w	r4, #1000	; 0x3e8
87800544:	d3ef      	bcc.n	87800526 <delayms+0x12>
87800546:	3601      	adds	r6, #1
87800548:	4286      	cmp	r6, r0
8780054a:	d1ea      	bne.n	87800522 <delayms+0xe>
8780054c:	bc70      	pop	{r4, r5, r6}
8780054e:	4770      	bx	lr
87800550:	4770      	bx	lr
87800552:	bf00      	nop

87800554 <delay_short>:
87800554:	b082      	sub	sp, #8
87800556:	9001      	str	r0, [sp, #4]
87800558:	9b01      	ldr	r3, [sp, #4]
8780055a:	1e5a      	subs	r2, r3, #1
8780055c:	9201      	str	r2, [sp, #4]
8780055e:	2b00      	cmp	r3, #0
87800560:	d1fa      	bne.n	87800558 <delay_short+0x4>
87800562:	b002      	add	sp, #8
87800564:	4770      	bx	lr
87800566:	bf00      	nop

87800568 <delay>:
87800568:	b082      	sub	sp, #8
8780056a:	9001      	str	r0, [sp, #4]
8780056c:	9b01      	ldr	r3, [sp, #4]
8780056e:	1e5a      	subs	r2, r3, #1
87800570:	9201      	str	r2, [sp, #4]
87800572:	b153      	cbz	r3, 8780058a <delay+0x22>
87800574:	f240 73ff 	movw	r3, #2047	; 0x7ff
87800578:	461a      	mov	r2, r3
8780057a:	3b01      	subs	r3, #1
8780057c:	2a00      	cmp	r2, #0
8780057e:	d1fb      	bne.n	87800578 <delay+0x10>
87800580:	9b01      	ldr	r3, [sp, #4]
87800582:	1e5a      	subs	r2, r3, #1
87800584:	9201      	str	r2, [sp, #4]
87800586:	2b00      	cmp	r3, #0
87800588:	d1f4      	bne.n	87800574 <delay+0xc>
8780058a:	b002      	add	sp, #8
8780058c:	4770      	bx	lr
8780058e:	bf00      	nop

87800590 <i2c_check_and_clear_error.part.0>:
87800590:	4602      	mov	r2, r0
87800592:	2004      	movs	r0, #4
87800594:	8993      	ldrh	r3, [r2, #12]
87800596:	f023 0310 	bic.w	r3, r3, #16
8780059a:	041b      	lsls	r3, r3, #16
8780059c:	0c1b      	lsrs	r3, r3, #16
8780059e:	8193      	strh	r3, [r2, #12]
878005a0:	8913      	ldrh	r3, [r2, #8]
878005a2:	f023 0380 	bic.w	r3, r3, #128	; 0x80
878005a6:	041b      	lsls	r3, r3, #16
878005a8:	0c1b      	lsrs	r3, r3, #16
878005aa:	8113      	strh	r3, [r2, #8]
878005ac:	8913      	ldrh	r3, [r2, #8]
878005ae:	b29b      	uxth	r3, r3
878005b0:	f043 0380 	orr.w	r3, r3, #128	; 0x80
878005b4:	8113      	strh	r3, [r2, #8]
878005b6:	4770      	bx	lr

878005b8 <i2c_init>:
878005b8:	8903      	ldrh	r3, [r0, #8]
878005ba:	2215      	movs	r2, #21
878005bc:	f023 0380 	bic.w	r3, r3, #128	; 0x80
878005c0:	041b      	lsls	r3, r3, #16
878005c2:	0c1b      	lsrs	r3, r3, #16
878005c4:	8103      	strh	r3, [r0, #8]
878005c6:	8082      	strh	r2, [r0, #4]
878005c8:	8903      	ldrh	r3, [r0, #8]
878005ca:	b29b      	uxth	r3, r3
878005cc:	f043 0380 	orr.w	r3, r3, #128	; 0x80
878005d0:	8103      	strh	r3, [r0, #8]
878005d2:	4770      	bx	lr

878005d4 <i2c_master_repeated_start>:
878005d4:	4603      	mov	r3, r0
878005d6:	8980      	ldrh	r0, [r0, #12]
878005d8:	0680      	lsls	r0, r0, #26
878005da:	d502      	bpl.n	878005e2 <i2c_master_repeated_start+0xe>
878005dc:	8918      	ldrh	r0, [r3, #8]
878005de:	0680      	lsls	r0, r0, #26
878005e0:	d50d      	bpl.n	878005fe <i2c_master_repeated_start+0x2a>
878005e2:	8918      	ldrh	r0, [r3, #8]
878005e4:	0049      	lsls	r1, r1, #1
878005e6:	2a01      	cmp	r2, #1
878005e8:	bf08      	it	eq
878005ea:	f041 0101 	orreq.w	r1, r1, #1
878005ee:	b289      	uxth	r1, r1
878005f0:	b280      	uxth	r0, r0
878005f2:	f040 0014 	orr.w	r0, r0, #20
878005f6:	8118      	strh	r0, [r3, #8]
878005f8:	2000      	movs	r0, #0
878005fa:	8219      	strh	r1, [r3, #16]
878005fc:	4770      	bx	lr
878005fe:	2001      	movs	r0, #1
87800600:	4770      	bx	lr
87800602:	bf00      	nop

87800604 <i2c_master_start>:
87800604:	b410      	push	{r4}
87800606:	f44f 5300 	mov.w	r3, #8192	; 0x2000
8780060a:	e001      	b.n	87800610 <i2c_master_start+0xc>
8780060c:	3b01      	subs	r3, #1
8780060e:	d013      	beq.n	87800638 <i2c_master_start+0x34>
87800610:	8984      	ldrh	r4, [r0, #12]
87800612:	06a4      	lsls	r4, r4, #26
87800614:	d4fa      	bmi.n	8780060c <i2c_master_start+0x8>
87800616:	8903      	ldrh	r3, [r0, #8]
87800618:	0049      	lsls	r1, r1, #1
8780061a:	2a01      	cmp	r2, #1
8780061c:	bf08      	it	eq
8780061e:	f041 0101 	orreq.w	r1, r1, #1
87800622:	b289      	uxth	r1, r1
87800624:	b29b      	uxth	r3, r3
87800626:	f043 0330 	orr.w	r3, r3, #48	; 0x30
8780062a:	8103      	strh	r3, [r0, #8]
8780062c:	2300      	movs	r3, #0
8780062e:	8201      	strh	r1, [r0, #16]
87800630:	4618      	mov	r0, r3
87800632:	f85d 4b04 	ldr.w	r4, [sp], #4
87800636:	4770      	bx	lr
87800638:	2301      	movs	r3, #1
8780063a:	f85d 4b04 	ldr.w	r4, [sp], #4
8780063e:	4618      	mov	r0, r3
87800640:	4770      	bx	lr
87800642:	bf00      	nop

87800644 <i2c_check_and_clear_error>:
87800644:	06cb      	lsls	r3, r1, #27
87800646:	d405      	bmi.n	87800654 <i2c_check_and_clear_error+0x10>
87800648:	f011 0f01 	tst.w	r1, #1
8780064c:	bf14      	ite	ne
8780064e:	2003      	movne	r0, #3
87800650:	2000      	moveq	r0, #0
87800652:	4770      	bx	lr
87800654:	e79c      	b.n	87800590 <i2c_check_and_clear_error.part.0>
87800656:	bf00      	nop

87800658 <i2c_master_stop>:
87800658:	8903      	ldrh	r3, [r0, #8]
8780065a:	f44f 5200 	mov.w	r2, #8192	; 0x2000
8780065e:	f023 0338 	bic.w	r3, r3, #56	; 0x38
87800662:	041b      	lsls	r3, r3, #16
87800664:	0c1b      	lsrs	r3, r3, #16
87800666:	8103      	strh	r3, [r0, #8]
87800668:	e001      	b.n	8780066e <i2c_master_stop+0x16>
8780066a:	3a01      	subs	r2, #1
8780066c:	d005      	beq.n	8780067a <i2c_master_stop+0x22>
8780066e:	8983      	ldrh	r3, [r0, #12]
87800670:	f013 0320 	ands.w	r3, r3, #32
87800674:	d1f9      	bne.n	8780066a <i2c_master_stop+0x12>
87800676:	4618      	mov	r0, r3
87800678:	4770      	bx	lr
8780067a:	2005      	movs	r0, #5
8780067c:	4770      	bx	lr
8780067e:	bf00      	nop

87800680 <i2c_master_write>:
87800680:	b538      	push	{r3, r4, r5, lr}
87800682:	4604      	mov	r4, r0
87800684:	89a3      	ldrh	r3, [r4, #12]
87800686:	0618      	lsls	r0, r3, #24
87800688:	d5fc      	bpl.n	87800684 <i2c_master_write+0x4>
8780068a:	89a3      	ldrh	r3, [r4, #12]
8780068c:	188d      	adds	r5, r1, r2
8780068e:	f023 0302 	bic.w	r3, r3, #2
87800692:	041b      	lsls	r3, r3, #16
87800694:	0c1b      	lsrs	r3, r3, #16
87800696:	81a3      	strh	r3, [r4, #12]
87800698:	8923      	ldrh	r3, [r4, #8]
8780069a:	b29b      	uxth	r3, r3
8780069c:	f043 0310 	orr.w	r3, r3, #16
878006a0:	8123      	strh	r3, [r4, #8]
878006a2:	42a9      	cmp	r1, r5
878006a4:	d014      	beq.n	878006d0 <i2c_master_write+0x50>
878006a6:	f811 3b01 	ldrb.w	r3, [r1], #1
878006aa:	8223      	strh	r3, [r4, #16]
878006ac:	89a3      	ldrh	r3, [r4, #12]
878006ae:	079b      	lsls	r3, r3, #30
878006b0:	d5fc      	bpl.n	878006ac <i2c_master_write+0x2c>
878006b2:	89a3      	ldrh	r3, [r4, #12]
878006b4:	0618      	lsls	r0, r3, #24
878006b6:	d5fc      	bpl.n	878006b2 <i2c_master_write+0x32>
878006b8:	89a3      	ldrh	r3, [r4, #12]
878006ba:	f023 0302 	bic.w	r3, r3, #2
878006be:	041b      	lsls	r3, r3, #16
878006c0:	0c1b      	lsrs	r3, r3, #16
878006c2:	81a3      	strh	r3, [r4, #12]
878006c4:	89a3      	ldrh	r3, [r4, #12]
878006c6:	b29b      	uxth	r3, r3
878006c8:	06da      	lsls	r2, r3, #27
878006ca:	d416      	bmi.n	878006fa <i2c_master_write+0x7a>
878006cc:	07d8      	lsls	r0, r3, #31
878006ce:	d5e8      	bpl.n	878006a2 <i2c_master_write+0x22>
878006d0:	89a2      	ldrh	r2, [r4, #12]
878006d2:	f44f 5300 	mov.w	r3, #8192	; 0x2000
878006d6:	f022 0202 	bic.w	r2, r2, #2
878006da:	0412      	lsls	r2, r2, #16
878006dc:	0c12      	lsrs	r2, r2, #16
878006de:	81a2      	strh	r2, [r4, #12]
878006e0:	8922      	ldrh	r2, [r4, #8]
878006e2:	f022 0238 	bic.w	r2, r2, #56	; 0x38
878006e6:	0412      	lsls	r2, r2, #16
878006e8:	0c12      	lsrs	r2, r2, #16
878006ea:	8122      	strh	r2, [r4, #8]
878006ec:	e001      	b.n	878006f2 <i2c_master_write+0x72>
878006ee:	3b01      	subs	r3, #1
878006f0:	d002      	beq.n	878006f8 <i2c_master_write+0x78>
878006f2:	89a2      	ldrh	r2, [r4, #12]
878006f4:	0692      	lsls	r2, r2, #26
878006f6:	d4fa      	bmi.n	878006ee <i2c_master_write+0x6e>
878006f8:	bd38      	pop	{r3, r4, r5, pc}
878006fa:	4620      	mov	r0, r4
878006fc:	f7ff ff48 	bl	87800590 <i2c_check_and_clear_error.part.0>
87800700:	2800      	cmp	r0, #0
87800702:	d0ce      	beq.n	878006a2 <i2c_master_write+0x22>
87800704:	e7e4      	b.n	878006d0 <i2c_master_write+0x50>
87800706:	bf00      	nop

87800708 <i2c_master_read>:
87800708:	b410      	push	{r4}
8780070a:	2300      	movs	r3, #0
8780070c:	b083      	sub	sp, #12
8780070e:	f88d 3007 	strb.w	r3, [sp, #7]
87800712:	f89d 3007 	ldrb.w	r3, [sp, #7]
87800716:	3301      	adds	r3, #1
87800718:	b2db      	uxtb	r3, r3
8780071a:	f88d 3007 	strb.w	r3, [sp, #7]
8780071e:	8983      	ldrh	r3, [r0, #12]
87800720:	061c      	lsls	r4, r3, #24
87800722:	d5fc      	bpl.n	8780071e <i2c_master_read+0x16>
87800724:	8983      	ldrh	r3, [r0, #12]
87800726:	2a01      	cmp	r2, #1
87800728:	f102 34ff 	add.w	r4, r2, #4294967295	; 0xffffffff
8780072c:	f023 0302 	bic.w	r3, r3, #2
87800730:	ea4f 4303 	mov.w	r3, r3, lsl #16
87800734:	ea4f 4313 	mov.w	r3, r3, lsr #16
87800738:	8183      	strh	r3, [r0, #12]
8780073a:	8903      	ldrh	r3, [r0, #8]
8780073c:	f023 0318 	bic.w	r3, r3, #24
87800740:	ea4f 4303 	mov.w	r3, r3, lsl #16
87800744:	ea4f 4313 	mov.w	r3, r3, lsr #16
87800748:	8103      	strh	r3, [r0, #8]
8780074a:	d02e      	beq.n	878007aa <i2c_master_read+0xa2>
8780074c:	8a03      	ldrh	r3, [r0, #16]
8780074e:	b2db      	uxtb	r3, r3
87800750:	f88d 3007 	strb.w	r3, [sp, #7]
87800754:	b32a      	cbz	r2, 878007a2 <i2c_master_read+0x9a>
87800756:	8983      	ldrh	r3, [r0, #12]
87800758:	079a      	lsls	r2, r3, #30
8780075a:	d5fc      	bpl.n	87800756 <i2c_master_read+0x4e>
8780075c:	8983      	ldrh	r3, [r0, #12]
8780075e:	061b      	lsls	r3, r3, #24
87800760:	d5fc      	bpl.n	8780075c <i2c_master_read+0x54>
87800762:	8983      	ldrh	r3, [r0, #12]
87800764:	2c01      	cmp	r4, #1
87800766:	f023 0302 	bic.w	r3, r3, #2
8780076a:	ea4f 4303 	mov.w	r3, r3, lsl #16
8780076e:	ea4f 4313 	mov.w	r3, r3, lsr #16
87800772:	8183      	strh	r3, [r0, #12]
87800774:	d023      	beq.n	878007be <i2c_master_read+0xb6>
87800776:	b124      	cbz	r4, 87800782 <i2c_master_read+0x7a>
87800778:	8a03      	ldrh	r3, [r0, #16]
8780077a:	3c01      	subs	r4, #1
8780077c:	f801 3b01 	strb.w	r3, [r1], #1
87800780:	e7e9      	b.n	87800756 <i2c_master_read+0x4e>
87800782:	8902      	ldrh	r2, [r0, #8]
87800784:	f44f 5300 	mov.w	r3, #8192	; 0x2000
87800788:	f022 0238 	bic.w	r2, r2, #56	; 0x38
8780078c:	0412      	lsls	r2, r2, #16
8780078e:	0c12      	lsrs	r2, r2, #16
87800790:	8102      	strh	r2, [r0, #8]
87800792:	e001      	b.n	87800798 <i2c_master_read+0x90>
87800794:	3b01      	subs	r3, #1
87800796:	d002      	beq.n	8780079e <i2c_master_read+0x96>
87800798:	8982      	ldrh	r2, [r0, #12]
8780079a:	0692      	lsls	r2, r2, #26
8780079c:	d4fa      	bmi.n	87800794 <i2c_master_read+0x8c>
8780079e:	8a03      	ldrh	r3, [r0, #16]
878007a0:	700b      	strb	r3, [r1, #0]
878007a2:	b003      	add	sp, #12
878007a4:	f85d 4b04 	ldr.w	r4, [sp], #4
878007a8:	4770      	bx	lr
878007aa:	8903      	ldrh	r3, [r0, #8]
878007ac:	b29b      	uxth	r3, r3
878007ae:	f043 0308 	orr.w	r3, r3, #8
878007b2:	8103      	strh	r3, [r0, #8]
878007b4:	8a03      	ldrh	r3, [r0, #16]
878007b6:	b2db      	uxtb	r3, r3
878007b8:	f88d 3007 	strb.w	r3, [sp, #7]
878007bc:	e7cb      	b.n	87800756 <i2c_master_read+0x4e>
878007be:	8903      	ldrh	r3, [r0, #8]
878007c0:	b29b      	uxth	r3, r3
878007c2:	f043 0308 	orr.w	r3, r3, #8
878007c6:	8103      	strh	r3, [r0, #8]
878007c8:	e7d6      	b.n	87800778 <i2c_master_read+0x70>
878007ca:	bf00      	nop

878007cc <i2c_master_transfer>:
878007cc:	b570      	push	{r4, r5, r6, lr}
878007ce:	f44f 5300 	mov.w	r3, #8192	; 0x2000
878007d2:	8982      	ldrh	r2, [r0, #12]
878007d4:	f022 0212 	bic.w	r2, r2, #18
878007d8:	0412      	lsls	r2, r2, #16
878007da:	0c12      	lsrs	r2, r2, #16
878007dc:	8182      	strh	r2, [r0, #12]
878007de:	684d      	ldr	r5, [r1, #4]
878007e0:	7b0c      	ldrb	r4, [r1, #12]
878007e2:	f1a5 0201 	sub.w	r2, r5, #1
878007e6:	fab2 f282 	clz	r2, r2
878007ea:	0952      	lsrs	r2, r2, #5
878007ec:	2c00      	cmp	r4, #0
878007ee:	bf08      	it	eq
878007f0:	2200      	moveq	r2, #0
878007f2:	780c      	ldrb	r4, [r1, #0]
878007f4:	2a00      	cmp	r2, #0
878007f6:	bf18      	it	ne
878007f8:	2500      	movne	r5, #0
878007fa:	e002      	b.n	87800802 <i2c_master_transfer+0x36>
878007fc:	3b01      	subs	r3, #1
878007fe:	f000 80a1 	beq.w	87800944 <i2c_master_transfer+0x178>
87800802:	8982      	ldrh	r2, [r0, #12]
87800804:	0696      	lsls	r6, r2, #26
87800806:	d4f9      	bmi.n	878007fc <i2c_master_transfer+0x30>
87800808:	8902      	ldrh	r2, [r0, #8]
8780080a:	0063      	lsls	r3, r4, #1
8780080c:	2d01      	cmp	r5, #1
8780080e:	bf08      	it	eq
87800810:	f043 0301 	orreq.w	r3, r3, #1
87800814:	b29b      	uxth	r3, r3
87800816:	b292      	uxth	r2, r2
87800818:	f042 0230 	orr.w	r2, r2, #48	; 0x30
8780081c:	8102      	strh	r2, [r0, #8]
8780081e:	8203      	strh	r3, [r0, #16]
87800820:	8983      	ldrh	r3, [r0, #12]
87800822:	079d      	lsls	r5, r3, #30
87800824:	d5fc      	bpl.n	87800820 <i2c_master_transfer+0x54>
87800826:	8983      	ldrh	r3, [r0, #12]
87800828:	061c      	lsls	r4, r3, #24
8780082a:	d5fc      	bpl.n	87800826 <i2c_master_transfer+0x5a>
8780082c:	8983      	ldrh	r3, [r0, #12]
8780082e:	460d      	mov	r5, r1
87800830:	4604      	mov	r4, r0
87800832:	b29b      	uxth	r3, r3
87800834:	06da      	lsls	r2, r3, #27
87800836:	d440      	bmi.n	878008ba <i2c_master_transfer+0xee>
87800838:	07de      	lsls	r6, r3, #31
8780083a:	d42b      	bmi.n	87800894 <i2c_master_transfer+0xc8>
8780083c:	7b2b      	ldrb	r3, [r5, #12]
8780083e:	2b00      	cmp	r3, #0
87800840:	d032      	beq.n	878008a8 <i2c_master_transfer+0xdc>
87800842:	89a3      	ldrh	r3, [r4, #12]
87800844:	f023 0302 	bic.w	r3, r3, #2
87800848:	041b      	lsls	r3, r3, #16
8780084a:	0c1b      	lsrs	r3, r3, #16
8780084c:	81a3      	strh	r3, [r4, #12]
8780084e:	7b2b      	ldrb	r3, [r5, #12]
87800850:	68aa      	ldr	r2, [r5, #8]
87800852:	3b01      	subs	r3, #1
87800854:	b2db      	uxtb	r3, r3
87800856:	00d9      	lsls	r1, r3, #3
87800858:	732b      	strb	r3, [r5, #12]
8780085a:	40ca      	lsrs	r2, r1
8780085c:	b292      	uxth	r2, r2
8780085e:	8222      	strh	r2, [r4, #16]
87800860:	89a3      	ldrh	r3, [r4, #12]
87800862:	0798      	lsls	r0, r3, #30
87800864:	d5fc      	bpl.n	87800860 <i2c_master_transfer+0x94>
87800866:	89a3      	ldrh	r3, [r4, #12]
87800868:	0619      	lsls	r1, r3, #24
8780086a:	d5fc      	bpl.n	87800866 <i2c_master_transfer+0x9a>
8780086c:	89a3      	ldrh	r3, [r4, #12]
8780086e:	b29b      	uxth	r3, r3
87800870:	06da      	lsls	r2, r3, #27
87800872:	d411      	bmi.n	87800898 <i2c_master_transfer+0xcc>
87800874:	07de      	lsls	r6, r3, #31
87800876:	d5e1      	bpl.n	8780083c <i2c_master_transfer+0x70>
87800878:	8922      	ldrh	r2, [r4, #8]
8780087a:	f44f 5300 	mov.w	r3, #8192	; 0x2000
8780087e:	f022 0238 	bic.w	r2, r2, #56	; 0x38
87800882:	0412      	lsls	r2, r2, #16
87800884:	0c12      	lsrs	r2, r2, #16
87800886:	8122      	strh	r2, [r4, #8]
87800888:	e001      	b.n	8780088e <i2c_master_transfer+0xc2>
8780088a:	3b01      	subs	r3, #1
8780088c:	d002      	beq.n	87800894 <i2c_master_transfer+0xc8>
8780088e:	89a2      	ldrh	r2, [r4, #12]
87800890:	0690      	lsls	r0, r2, #26
87800892:	d4fa      	bmi.n	8780088a <i2c_master_transfer+0xbe>
87800894:	2003      	movs	r0, #3
87800896:	bd70      	pop	{r4, r5, r6, pc}
87800898:	4620      	mov	r0, r4
8780089a:	f7ff fe79 	bl	87800590 <i2c_check_and_clear_error.part.0>
8780089e:	2800      	cmp	r0, #0
878008a0:	d1ea      	bne.n	87800878 <i2c_master_transfer+0xac>
878008a2:	7b2b      	ldrb	r3, [r5, #12]
878008a4:	2b00      	cmp	r3, #0
878008a6:	d1cc      	bne.n	87800842 <i2c_master_transfer+0x76>
878008a8:	686e      	ldr	r6, [r5, #4]
878008aa:	2e01      	cmp	r6, #1
878008ac:	d00a      	beq.n	878008c4 <i2c_master_transfer+0xf8>
878008ae:	b916      	cbnz	r6, 878008b6 <i2c_master_transfer+0xea>
878008b0:	696b      	ldr	r3, [r5, #20]
878008b2:	2b00      	cmp	r3, #0
878008b4:	d12d      	bne.n	87800912 <i2c_master_transfer+0x146>
878008b6:	2000      	movs	r0, #0
878008b8:	bd70      	pop	{r4, r5, r6, pc}
878008ba:	f7ff fe69 	bl	87800590 <i2c_check_and_clear_error.part.0>
878008be:	2800      	cmp	r0, #0
878008c0:	d0bc      	beq.n	8780083c <i2c_master_transfer+0x70>
878008c2:	e7e7      	b.n	87800894 <i2c_master_transfer+0xc8>
878008c4:	89a3      	ldrh	r3, [r4, #12]
878008c6:	f023 0302 	bic.w	r3, r3, #2
878008ca:	041b      	lsls	r3, r3, #16
878008cc:	0c1b      	lsrs	r3, r3, #16
878008ce:	81a3      	strh	r3, [r4, #12]
878008d0:	89a3      	ldrh	r3, [r4, #12]
878008d2:	0699      	lsls	r1, r3, #26
878008d4:	d524      	bpl.n	87800920 <i2c_master_transfer+0x154>
878008d6:	8923      	ldrh	r3, [r4, #8]
878008d8:	069a      	lsls	r2, r3, #26
878008da:	d421      	bmi.n	87800920 <i2c_master_transfer+0x154>
878008dc:	89a3      	ldrh	r3, [r4, #12]
878008de:	079b      	lsls	r3, r3, #30
878008e0:	d5fc      	bpl.n	878008dc <i2c_master_transfer+0x110>
878008e2:	89a3      	ldrh	r3, [r4, #12]
878008e4:	061e      	lsls	r6, r3, #24
878008e6:	d5fc      	bpl.n	878008e2 <i2c_master_transfer+0x116>
878008e8:	89a3      	ldrh	r3, [r4, #12]
878008ea:	b29b      	uxth	r3, r3
878008ec:	06d8      	lsls	r0, r3, #27
878008ee:	d42b      	bmi.n	87800948 <i2c_master_transfer+0x17c>
878008f0:	07d9      	lsls	r1, r3, #31
878008f2:	d52e      	bpl.n	87800952 <i2c_master_transfer+0x186>
878008f4:	8922      	ldrh	r2, [r4, #8]
878008f6:	f44f 5300 	mov.w	r3, #8192	; 0x2000
878008fa:	f022 0238 	bic.w	r2, r2, #56	; 0x38
878008fe:	0412      	lsls	r2, r2, #16
87800900:	0c12      	lsrs	r2, r2, #16
87800902:	8122      	strh	r2, [r4, #8]
87800904:	e001      	b.n	8780090a <i2c_master_transfer+0x13e>
87800906:	3b01      	subs	r3, #1
87800908:	d0c4      	beq.n	87800894 <i2c_master_transfer+0xc8>
8780090a:	89a2      	ldrh	r2, [r4, #12]
8780090c:	0692      	lsls	r2, r2, #26
8780090e:	d4fa      	bmi.n	87800906 <i2c_master_transfer+0x13a>
87800910:	e7c0      	b.n	87800894 <i2c_master_transfer+0xc8>
87800912:	6929      	ldr	r1, [r5, #16]
87800914:	4620      	mov	r0, r4
87800916:	696a      	ldr	r2, [r5, #20]
87800918:	f7ff feb2 	bl	87800680 <i2c_master_write>
8780091c:	4630      	mov	r0, r6
8780091e:	bd70      	pop	{r4, r5, r6, pc}
87800920:	782b      	ldrb	r3, [r5, #0]
87800922:	8922      	ldrh	r2, [r4, #8]
87800924:	6869      	ldr	r1, [r5, #4]
87800926:	005b      	lsls	r3, r3, #1
87800928:	2901      	cmp	r1, #1
8780092a:	b292      	uxth	r2, r2
8780092c:	bf08      	it	eq
8780092e:	f043 0301 	orreq.w	r3, r3, #1
87800932:	b29b      	uxth	r3, r3
87800934:	f042 0214 	orr.w	r2, r2, #20
87800938:	8122      	strh	r2, [r4, #8]
8780093a:	8223      	strh	r3, [r4, #16]
8780093c:	89a3      	ldrh	r3, [r4, #12]
8780093e:	079b      	lsls	r3, r3, #30
87800940:	d5cc      	bpl.n	878008dc <i2c_master_transfer+0x110>
87800942:	e7ce      	b.n	878008e2 <i2c_master_transfer+0x116>
87800944:	2007      	movs	r0, #7
87800946:	bd70      	pop	{r4, r5, r6, pc}
87800948:	4620      	mov	r0, r4
8780094a:	f7ff fe21 	bl	87800590 <i2c_check_and_clear_error.part.0>
8780094e:	2800      	cmp	r0, #0
87800950:	d1d0      	bne.n	878008f4 <i2c_master_transfer+0x128>
87800952:	686e      	ldr	r6, [r5, #4]
87800954:	2e01      	cmp	r6, #1
87800956:	d1aa      	bne.n	878008ae <i2c_master_transfer+0xe2>
87800958:	696b      	ldr	r3, [r5, #20]
8780095a:	2b00      	cmp	r3, #0
8780095c:	d0ab      	beq.n	878008b6 <i2c_master_transfer+0xea>
8780095e:	6929      	ldr	r1, [r5, #16]
87800960:	4620      	mov	r0, r4
87800962:	696a      	ldr	r2, [r5, #20]
87800964:	f7ff fed0 	bl	87800708 <i2c_master_read>
87800968:	686e      	ldr	r6, [r5, #4]
8780096a:	e7a0      	b.n	878008ae <i2c_master_transfer+0xe2>

8780096c <default_irqhandler>:
8780096c:	e7fe      	b.n	8780096c <default_irqhandler>
8780096e:	bf00      	nop

87800970 <int_init>:
87800970:	b470      	push	{r4, r5, r6}
87800972:	ee9f 4f10 	mrc	15, 4, r4, cr15, cr0, {0}
87800976:	0c24      	lsrs	r4, r4, #16
87800978:	f241 0204 	movw	r2, #4100	; 0x1004
8780097c:	2300      	movs	r3, #0
8780097e:	0424      	lsls	r4, r4, #16
87800980:	f04f 30ff 	mov.w	r0, #4294967295	; 0xffffffff
87800984:	58a1      	ldr	r1, [r4, r2]
87800986:	f001 011f 	and.w	r1, r1, #31
8780098a:	3101      	adds	r1, #1
8780098c:	f503 628c 	add.w	r2, r3, #1120	; 0x460
87800990:	3301      	adds	r3, #1
87800992:	4299      	cmp	r1, r3
87800994:	f844 0022 	str.w	r0, [r4, r2, lsl #2]
87800998:	d1f8      	bne.n	8780098c <int_init+0x1c>
8780099a:	f642 3320 	movw	r3, #11040	; 0x2b20
8780099e:	2500      	movs	r5, #0
878009a0:	f2c8 7380 	movt	r3, #34688	; 0x8780
878009a4:	f242 0104 	movw	r1, #8196	; 0x2004
878009a8:	26f8      	movs	r6, #248	; 0xf8
878009aa:	f640 126d 	movw	r2, #2413	; 0x96d
878009ae:	5066      	str	r6, [r4, r1]
878009b0:	f203 5004 	addw	r0, r3, #1284	; 0x504
878009b4:	f242 0608 	movw	r6, #8200	; 0x2008
878009b8:	4629      	mov	r1, r5
878009ba:	f843 5b04 	str.w	r5, [r3], #4
878009be:	f2c8 7280 	movt	r2, #34688	; 0x8780
878009c2:	2502      	movs	r5, #2
878009c4:	51a5      	str	r5, [r4, r6]
878009c6:	f504 5680 	add.w	r6, r4, #4096	; 0x1000
878009ca:	2501      	movs	r5, #1
878009cc:	f504 5400 	add.w	r4, r4, #8192	; 0x2000
878009d0:	6035      	str	r5, [r6, #0]
878009d2:	6025      	str	r5, [r4, #0]
878009d4:	e9c3 2100 	strd	r2, r1, [r3]
878009d8:	3308      	adds	r3, #8
878009da:	4298      	cmp	r0, r3
878009dc:	d1fa      	bne.n	878009d4 <int_init+0x64>
878009de:	2300      	movs	r3, #0
878009e0:	f2c8 7380 	movt	r3, #34688	; 0x8780
878009e4:	ee0c 3f10 	mcr	15, 0, r3, cr12, cr0, {0}
878009e8:	bc70      	pop	{r4, r5, r6}
878009ea:	4770      	bx	lr

878009ec <system_irqtable_init>:
878009ec:	b410      	push	{r4}
878009ee:	f640 126d 	movw	r2, #2413	; 0x96d
878009f2:	2400      	movs	r4, #0
878009f4:	f642 3320 	movw	r3, #11040	; 0x2b20
878009f8:	4621      	mov	r1, r4
878009fa:	f2c8 7280 	movt	r2, #34688	; 0x8780
878009fe:	f2c8 7380 	movt	r3, #34688	; 0x8780
87800a02:	f203 5004 	addw	r0, r3, #1284	; 0x504
87800a06:	f843 4b04 	str.w	r4, [r3], #4
87800a0a:	e9c3 2100 	strd	r2, r1, [r3]
87800a0e:	3308      	adds	r3, #8
87800a10:	4283      	cmp	r3, r0
87800a12:	d1fa      	bne.n	87800a0a <system_irqtable_init+0x1e>
87800a14:	f85d 4b04 	ldr.w	r4, [sp], #4
87800a18:	4770      	bx	lr
87800a1a:	bf00      	nop

87800a1c <system_register_irqhandler>:
87800a1c:	f642 3320 	movw	r3, #11040	; 0x2b20
87800a20:	f2c8 7380 	movt	r3, #34688	; 0x8780
87800a24:	eb03 00c0 	add.w	r0, r3, r0, lsl #3
87800a28:	e9c0 1201 	strd	r1, r2, [r0, #4]
87800a2c:	4770      	bx	lr
87800a2e:	bf00      	nop

87800a30 <system_irqhandler>:
87800a30:	b538      	push	{r3, r4, r5, lr}
87800a32:	f3c0 0309 	ubfx	r3, r0, #0, #10
87800a36:	2b9f      	cmp	r3, #159	; 0x9f
87800a38:	d80f      	bhi.n	87800a5a <system_irqhandler+0x2a>
87800a3a:	f642 3420 	movw	r4, #11040	; 0x2b20
87800a3e:	4618      	mov	r0, r3
87800a40:	f2c8 7480 	movt	r4, #34688	; 0x8780
87800a44:	6822      	ldr	r2, [r4, #0]
87800a46:	eb04 03c3 	add.w	r3, r4, r3, lsl #3
87800a4a:	685d      	ldr	r5, [r3, #4]
87800a4c:	3201      	adds	r2, #1
87800a4e:	6899      	ldr	r1, [r3, #8]
87800a50:	6022      	str	r2, [r4, #0]
87800a52:	47a8      	blx	r5
87800a54:	6823      	ldr	r3, [r4, #0]
87800a56:	3b01      	subs	r3, #1
87800a58:	6023      	str	r3, [r4, #0]
87800a5a:	bd38      	pop	{r3, r4, r5, pc}

87800a5c <printf>:
87800a5c:	b40f      	push	{r0, r1, r2, r3}
87800a5e:	f243 0024 	movw	r0, #12324	; 0x3024
87800a62:	b5f8      	push	{r3, r4, r5, r6, r7, lr}
87800a64:	f2c8 7080 	movt	r0, #34688	; 0x8780
87800a68:	4605      	mov	r5, r0
87800a6a:	aa07      	add	r2, sp, #28
87800a6c:	462e      	mov	r6, r5
87800a6e:	2400      	movs	r4, #0
87800a70:	9906      	ldr	r1, [sp, #24]
87800a72:	f001 f8c1 	bl	87801bf8 <vsprintf>
87800a76:	4607      	mov	r7, r0
87800a78:	e003      	b.n	87800a82 <printf+0x26>
87800a7a:	f815 0b01 	ldrb.w	r0, [r5], #1
87800a7e:	f001 fce5 	bl	8780244c <putc>
87800a82:	4630      	mov	r0, r6
87800a84:	f000 f8f6 	bl	87800c74 <strlen>
87800a88:	42a0      	cmp	r0, r4
87800a8a:	f104 0401 	add.w	r4, r4, #1
87800a8e:	d8f4      	bhi.n	87800a7a <printf+0x1e>
87800a90:	4638      	mov	r0, r7
87800a92:	e8bd 40f8 	ldmia.w	sp!, {r3, r4, r5, r6, r7, lr}
87800a96:	b004      	add	sp, #16
87800a98:	4770      	bx	lr
87800a9a:	bf00      	nop

87800a9c <scanf>:
87800a9c:	b40f      	push	{r0, r1, r2, r3}
87800a9e:	b570      	push	{r4, r5, r6, lr}
87800aa0:	2500      	movs	r5, #0
87800aa2:	4e10      	ldr	r6, [pc, #64]	; (87800ae4 <scanf+0x48>)
87800aa4:	e002      	b.n	87800aac <scanf+0x10>
87800aa6:	3501      	adds	r5, #1
87800aa8:	f806 4b01 	strb.w	r4, [r6], #1
87800aac:	f001 fce8 	bl	87802480 <getc>
87800ab0:	4604      	mov	r4, r0
87800ab2:	f001 fccb 	bl	8780244c <putc>
87800ab6:	2c0a      	cmp	r4, #10
87800ab8:	bf18      	it	ne
87800aba:	2c0d      	cmpne	r4, #13
87800abc:	d1f3      	bne.n	87800aa6 <scanf+0xa>
87800abe:	f243 0024 	movw	r0, #12324	; 0x3024
87800ac2:	2300      	movs	r3, #0
87800ac4:	f2c8 7080 	movt	r0, #34688	; 0x8780
87800ac8:	aa05      	add	r2, sp, #20
87800aca:	4405      	add	r5, r0
87800acc:	9904      	ldr	r1, [sp, #16]
87800ace:	f500 6080 	add.w	r0, r0, #1024	; 0x400
87800ad2:	f885 3400 	strb.w	r3, [r5, #1024]	; 0x400
87800ad6:	f001 f8a1 	bl	87801c1c <vsscanf>
87800ada:	e8bd 4070 	ldmia.w	sp!, {r4, r5, r6, lr}
87800ade:	b004      	add	sp, #16
87800ae0:	4770      	bx	lr
87800ae2:	bf00      	nop
87800ae4:	87803424 	strhi	r3, [r0, r4, lsr #8]

87800ae8 <strnicmp>:
87800ae8:	b332      	cbz	r2, 87800b38 <strnicmp+0x50>
87800aea:	b5f0      	push	{r4, r5, r6, r7, lr}
87800aec:	f642 251c 	movw	r5, #10780	; 0x2a1c
87800af0:	1e44      	subs	r4, r0, #1
87800af2:	eb01 0e02 	add.w	lr, r1, r2
87800af6:	f2c8 7580 	movt	r5, #34688	; 0x8780
87800afa:	e006      	b.n	87800b0a <strnicmp+0x22>
87800afc:	fa5f f08c 	uxtb.w	r0, ip
87800b00:	b9b3      	cbnz	r3, 87800b30 <strnicmp+0x48>
87800b02:	4282      	cmp	r2, r0
87800b04:	d11c      	bne.n	87800b40 <strnicmp+0x58>
87800b06:	4571      	cmp	r1, lr
87800b08:	d014      	beq.n	87800b34 <strnicmp+0x4c>
87800b0a:	f814 0f01 	ldrb.w	r0, [r4, #1]!
87800b0e:	f811 2b01 	ldrb.w	r2, [r1], #1
87800b12:	b198      	cbz	r0, 87800b3c <strnicmp+0x54>
87800b14:	b17a      	cbz	r2, 87800b36 <strnicmp+0x4e>
87800b16:	4290      	cmp	r0, r2
87800b18:	d0f5      	beq.n	87800b06 <strnicmp+0x1e>
87800b1a:	5c2e      	ldrb	r6, [r5, r0]
87800b1c:	f102 0720 	add.w	r7, r2, #32
87800b20:	5cab      	ldrb	r3, [r5, r2]
87800b22:	f100 0c20 	add.w	ip, r0, #32
87800b26:	07f6      	lsls	r6, r6, #31
87800b28:	f003 0301 	and.w	r3, r3, #1
87800b2c:	d4e6      	bmi.n	87800afc <strnicmp+0x14>
87800b2e:	b13b      	cbz	r3, 87800b40 <strnicmp+0x58>
87800b30:	b2fa      	uxtb	r2, r7
87800b32:	e7e6      	b.n	87800b02 <strnicmp+0x1a>
87800b34:	2000      	movs	r0, #0
87800b36:	bdf0      	pop	{r4, r5, r6, r7, pc}
87800b38:	4610      	mov	r0, r2
87800b3a:	4770      	bx	lr
87800b3c:	4250      	negs	r0, r2
87800b3e:	bdf0      	pop	{r4, r5, r6, r7, pc}
87800b40:	1a80      	subs	r0, r0, r2
87800b42:	bdf0      	pop	{r4, r5, r6, r7, pc}

87800b44 <strcpy>:
87800b44:	1e42      	subs	r2, r0, #1
87800b46:	f811 3b01 	ldrb.w	r3, [r1], #1
87800b4a:	f802 3f01 	strb.w	r3, [r2, #1]!
87800b4e:	2b00      	cmp	r3, #0
87800b50:	d1f9      	bne.n	87800b46 <strcpy+0x2>
87800b52:	4770      	bx	lr

87800b54 <strncpy>:
87800b54:	b410      	push	{r4}
87800b56:	440a      	add	r2, r1
87800b58:	1e44      	subs	r4, r0, #1
87800b5a:	e004      	b.n	87800b66 <strncpy+0x12>
87800b5c:	f811 3b01 	ldrb.w	r3, [r1], #1
87800b60:	f804 3f01 	strb.w	r3, [r4, #1]!
87800b64:	b10b      	cbz	r3, 87800b6a <strncpy+0x16>
87800b66:	4291      	cmp	r1, r2
87800b68:	d1f8      	bne.n	87800b5c <strncpy+0x8>
87800b6a:	f85d 4b04 	ldr.w	r4, [sp], #4
87800b6e:	4770      	bx	lr

87800b70 <strcat>:
87800b70:	7803      	ldrb	r3, [r0, #0]
87800b72:	b163      	cbz	r3, 87800b8e <strcat+0x1e>
87800b74:	4603      	mov	r3, r0
87800b76:	f813 2f01 	ldrb.w	r2, [r3, #1]!
87800b7a:	2a00      	cmp	r2, #0
87800b7c:	d1fb      	bne.n	87800b76 <strcat+0x6>
87800b7e:	3b01      	subs	r3, #1
87800b80:	f811 2b01 	ldrb.w	r2, [r1], #1
87800b84:	f803 2f01 	strb.w	r2, [r3, #1]!
87800b88:	2a00      	cmp	r2, #0
87800b8a:	d1f9      	bne.n	87800b80 <strcat+0x10>
87800b8c:	4770      	bx	lr
87800b8e:	4603      	mov	r3, r0
87800b90:	e7f5      	b.n	87800b7e <strcat+0xe>
87800b92:	bf00      	nop

87800b94 <strncat>:
87800b94:	b1a2      	cbz	r2, 87800bc0 <strncat+0x2c>
87800b96:	7803      	ldrb	r3, [r0, #0]
87800b98:	b430      	push	{r4, r5}
87800b9a:	b1b3      	cbz	r3, 87800bca <strncat+0x36>
87800b9c:	4603      	mov	r3, r0
87800b9e:	f813 4f01 	ldrb.w	r4, [r3, #1]!
87800ba2:	2c00      	cmp	r4, #0
87800ba4:	d1fb      	bne.n	87800b9e <strncat+0xa>
87800ba6:	441a      	add	r2, r3
87800ba8:	e001      	b.n	87800bae <strncat+0x1a>
87800baa:	4293      	cmp	r3, r2
87800bac:	d009      	beq.n	87800bc2 <strncat+0x2e>
87800bae:	f811 4b01 	ldrb.w	r4, [r1], #1
87800bb2:	461d      	mov	r5, r3
87800bb4:	f803 4b01 	strb.w	r4, [r3], #1
87800bb8:	2c00      	cmp	r4, #0
87800bba:	d1f6      	bne.n	87800baa <strncat+0x16>
87800bbc:	bc30      	pop	{r4, r5}
87800bbe:	4770      	bx	lr
87800bc0:	4770      	bx	lr
87800bc2:	2300      	movs	r3, #0
87800bc4:	706b      	strb	r3, [r5, #1]
87800bc6:	bc30      	pop	{r4, r5}
87800bc8:	4770      	bx	lr
87800bca:	4603      	mov	r3, r0
87800bcc:	e7eb      	b.n	87800ba6 <strncat+0x12>
87800bce:	bf00      	nop

87800bd0 <strcmp>:
87800bd0:	1e42      	subs	r2, r0, #1
87800bd2:	e000      	b.n	87800bd6 <strcmp+0x6>
87800bd4:	b148      	cbz	r0, 87800bea <strcmp+0x1a>
87800bd6:	f812 0f01 	ldrb.w	r0, [r2, #1]!
87800bda:	f811 3b01 	ldrb.w	r3, [r1], #1
87800bde:	1ac3      	subs	r3, r0, r3
87800be0:	b25b      	sxtb	r3, r3
87800be2:	2b00      	cmp	r3, #0
87800be4:	d0f6      	beq.n	87800bd4 <strcmp+0x4>
87800be6:	4618      	mov	r0, r3
87800be8:	4770      	bx	lr
87800bea:	4770      	bx	lr

87800bec <strncmp>:
87800bec:	b1e2      	cbz	r2, 87800c28 <strncmp+0x3c>
87800bee:	b430      	push	{r4, r5}
87800bf0:	1c4c      	adds	r4, r1, #1
87800bf2:	7805      	ldrb	r5, [r0, #0]
87800bf4:	780b      	ldrb	r3, [r1, #0]
87800bf6:	1aeb      	subs	r3, r5, r3
87800bf8:	b25b      	sxtb	r3, r3
87800bfa:	b97b      	cbnz	r3, 87800c1c <strncmp+0x30>
87800bfc:	b15d      	cbz	r5, 87800c16 <strncmp+0x2a>
87800bfe:	4411      	add	r1, r2
87800c00:	e007      	b.n	87800c12 <strncmp+0x26>
87800c02:	f810 2f01 	ldrb.w	r2, [r0, #1]!
87800c06:	f814 3b01 	ldrb.w	r3, [r4], #1
87800c0a:	1ad3      	subs	r3, r2, r3
87800c0c:	b25b      	sxtb	r3, r3
87800c0e:	b92b      	cbnz	r3, 87800c1c <strncmp+0x30>
87800c10:	b13a      	cbz	r2, 87800c22 <strncmp+0x36>
87800c12:	42a1      	cmp	r1, r4
87800c14:	d1f5      	bne.n	87800c02 <strncmp+0x16>
87800c16:	2000      	movs	r0, #0
87800c18:	bc30      	pop	{r4, r5}
87800c1a:	4770      	bx	lr
87800c1c:	4618      	mov	r0, r3
87800c1e:	bc30      	pop	{r4, r5}
87800c20:	4770      	bx	lr
87800c22:	4610      	mov	r0, r2
87800c24:	bc30      	pop	{r4, r5}
87800c26:	4770      	bx	lr
87800c28:	4610      	mov	r0, r2
87800c2a:	4770      	bx	lr

87800c2c <strchr>:
87800c2c:	7803      	ldrb	r3, [r0, #0]
87800c2e:	b2c9      	uxtb	r1, r1
87800c30:	428b      	cmp	r3, r1
87800c32:	d006      	beq.n	87800c42 <strchr+0x16>
87800c34:	b123      	cbz	r3, 87800c40 <strchr+0x14>
87800c36:	f810 3f01 	ldrb.w	r3, [r0, #1]!
87800c3a:	428b      	cmp	r3, r1
87800c3c:	d1fa      	bne.n	87800c34 <strchr+0x8>
87800c3e:	4770      	bx	lr
87800c40:	4618      	mov	r0, r3
87800c42:	4770      	bx	lr

87800c44 <strrchr>:
87800c44:	7803      	ldrb	r3, [r0, #0]
87800c46:	b193      	cbz	r3, 87800c6e <strrchr+0x2a>
87800c48:	4603      	mov	r3, r0
87800c4a:	f813 2f01 	ldrb.w	r2, [r3, #1]!
87800c4e:	2a00      	cmp	r2, #0
87800c50:	d1fb      	bne.n	87800c4a <strrchr+0x6>
87800c52:	b2c9      	uxtb	r1, r1
87800c54:	2200      	movs	r2, #0
87800c56:	e003      	b.n	87800c60 <strrchr+0x1c>
87800c58:	3b01      	subs	r3, #1
87800c5a:	4298      	cmp	r0, r3
87800c5c:	d804      	bhi.n	87800c68 <strrchr+0x24>
87800c5e:	781a      	ldrb	r2, [r3, #0]
87800c60:	428a      	cmp	r2, r1
87800c62:	d1f9      	bne.n	87800c58 <strrchr+0x14>
87800c64:	4618      	mov	r0, r3
87800c66:	4770      	bx	lr
87800c68:	2300      	movs	r3, #0
87800c6a:	4618      	mov	r0, r3
87800c6c:	4770      	bx	lr
87800c6e:	4603      	mov	r3, r0
87800c70:	e7ef      	b.n	87800c52 <strrchr+0xe>
87800c72:	bf00      	nop

87800c74 <strlen>:
87800c74:	7803      	ldrb	r3, [r0, #0]
87800c76:	4602      	mov	r2, r0
87800c78:	b12b      	cbz	r3, 87800c86 <strlen+0x12>
87800c7a:	f810 3f01 	ldrb.w	r3, [r0, #1]!
87800c7e:	2b00      	cmp	r3, #0
87800c80:	d1fb      	bne.n	87800c7a <strlen+0x6>
87800c82:	1a80      	subs	r0, r0, r2
87800c84:	4770      	bx	lr
87800c86:	4618      	mov	r0, r3
87800c88:	4770      	bx	lr
87800c8a:	bf00      	nop

87800c8c <strnlen>:
87800c8c:	b1d1      	cbz	r1, 87800cc4 <strnlen+0x38>
87800c8e:	7803      	ldrb	r3, [r0, #0]
87800c90:	b1d3      	cbz	r3, 87800cc8 <strnlen+0x3c>
87800c92:	1c43      	adds	r3, r0, #1
87800c94:	4401      	add	r1, r0
87800c96:	4299      	cmp	r1, r3
87800c98:	f103 0201 	add.w	r2, r3, #1
87800c9c:	d016      	beq.n	87800ccc <strnlen+0x40>
87800c9e:	b410      	push	{r4}
87800ca0:	781c      	ldrb	r4, [r3, #0]
87800ca2:	b13c      	cbz	r4, 87800cb4 <strnlen+0x28>
87800ca4:	4291      	cmp	r1, r2
87800ca6:	4613      	mov	r3, r2
87800ca8:	f102 0201 	add.w	r2, r2, #1
87800cac:	d006      	beq.n	87800cbc <strnlen+0x30>
87800cae:	781c      	ldrb	r4, [r3, #0]
87800cb0:	2c00      	cmp	r4, #0
87800cb2:	d1f7      	bne.n	87800ca4 <strnlen+0x18>
87800cb4:	1a18      	subs	r0, r3, r0
87800cb6:	f85d 4b04 	ldr.w	r4, [sp], #4
87800cba:	4770      	bx	lr
87800cbc:	1a08      	subs	r0, r1, r0
87800cbe:	f85d 4b04 	ldr.w	r4, [sp], #4
87800cc2:	4770      	bx	lr
87800cc4:	4608      	mov	r0, r1
87800cc6:	4770      	bx	lr
87800cc8:	4618      	mov	r0, r3
87800cca:	4770      	bx	lr
87800ccc:	1a08      	subs	r0, r1, r0
87800cce:	4770      	bx	lr

87800cd0 <strspn>:
87800cd0:	b470      	push	{r4, r5, r6}
87800cd2:	7804      	ldrb	r4, [r0, #0]
87800cd4:	4625      	mov	r5, r4
87800cd6:	b164      	cbz	r4, 87800cf2 <strspn+0x22>
87800cd8:	780e      	ldrb	r6, [r1, #0]
87800cda:	2500      	movs	r5, #0
87800cdc:	b14e      	cbz	r6, 87800cf2 <strspn+0x22>
87800cde:	42a6      	cmp	r6, r4
87800ce0:	d00a      	beq.n	87800cf8 <strspn+0x28>
87800ce2:	460a      	mov	r2, r1
87800ce4:	e001      	b.n	87800cea <strspn+0x1a>
87800ce6:	42a3      	cmp	r3, r4
87800ce8:	d006      	beq.n	87800cf8 <strspn+0x28>
87800cea:	f812 3f01 	ldrb.w	r3, [r2, #1]!
87800cee:	2b00      	cmp	r3, #0
87800cf0:	d1f9      	bne.n	87800ce6 <strspn+0x16>
87800cf2:	4628      	mov	r0, r5
87800cf4:	bc70      	pop	{r4, r5, r6}
87800cf6:	4770      	bx	lr
87800cf8:	f810 4f01 	ldrb.w	r4, [r0, #1]!
87800cfc:	3501      	adds	r5, #1
87800cfe:	2c00      	cmp	r4, #0
87800d00:	d1ec      	bne.n	87800cdc <strspn+0xc>
87800d02:	4628      	mov	r0, r5
87800d04:	bc70      	pop	{r4, r5, r6}
87800d06:	4770      	bx	lr

87800d08 <strpbrk>:
87800d08:	b430      	push	{r4, r5}
87800d0a:	7804      	ldrb	r4, [r0, #0]
87800d0c:	b17c      	cbz	r4, 87800d2e <strpbrk+0x26>
87800d0e:	780d      	ldrb	r5, [r1, #0]
87800d10:	b14d      	cbz	r5, 87800d26 <strpbrk+0x1e>
87800d12:	42a5      	cmp	r5, r4
87800d14:	d00c      	beq.n	87800d30 <strpbrk+0x28>
87800d16:	460a      	mov	r2, r1
87800d18:	e001      	b.n	87800d1e <strpbrk+0x16>
87800d1a:	42a3      	cmp	r3, r4
87800d1c:	d008      	beq.n	87800d30 <strpbrk+0x28>
87800d1e:	f812 3f01 	ldrb.w	r3, [r2, #1]!
87800d22:	2b00      	cmp	r3, #0
87800d24:	d1f9      	bne.n	87800d1a <strpbrk+0x12>
87800d26:	f810 4f01 	ldrb.w	r4, [r0, #1]!
87800d2a:	2c00      	cmp	r4, #0
87800d2c:	d1f0      	bne.n	87800d10 <strpbrk+0x8>
87800d2e:	4620      	mov	r0, r4
87800d30:	bc30      	pop	{r4, r5}
87800d32:	4770      	bx	lr

87800d34 <strtok>:
87800d34:	f643 0c24 	movw	ip, #14372	; 0x3824
87800d38:	f2c8 7c80 	movt	ip, #34688	; 0x8780
87800d3c:	2800      	cmp	r0, #0
87800d3e:	d03c      	beq.n	87800dba <strtok+0x86>
87800d40:	b4f0      	push	{r4, r5, r6, r7}
87800d42:	7804      	ldrb	r4, [r0, #0]
87800d44:	2c00      	cmp	r4, #0
87800d46:	d03d      	beq.n	87800dc4 <strtok+0x90>
87800d48:	780d      	ldrb	r5, [r1, #0]
87800d4a:	4607      	mov	r7, r0
87800d4c:	2600      	movs	r6, #0
87800d4e:	b14d      	cbz	r5, 87800d64 <strtok+0x30>
87800d50:	42ac      	cmp	r4, r5
87800d52:	d01f      	beq.n	87800d94 <strtok+0x60>
87800d54:	460a      	mov	r2, r1
87800d56:	e001      	b.n	87800d5c <strtok+0x28>
87800d58:	42a3      	cmp	r3, r4
87800d5a:	d01b      	beq.n	87800d94 <strtok+0x60>
87800d5c:	f812 3f01 	ldrb.w	r3, [r2, #1]!
87800d60:	2b00      	cmp	r3, #0
87800d62:	d1f9      	bne.n	87800d58 <strtok+0x24>
87800d64:	5d84      	ldrb	r4, [r0, r6]
87800d66:	4430      	add	r0, r6
87800d68:	4606      	mov	r6, r0
87800d6a:	b35c      	cbz	r4, 87800dc4 <strtok+0x90>
87800d6c:	b14d      	cbz	r5, 87800d82 <strtok+0x4e>
87800d6e:	42ac      	cmp	r4, r5
87800d70:	d01b      	beq.n	87800daa <strtok+0x76>
87800d72:	460a      	mov	r2, r1
87800d74:	e001      	b.n	87800d7a <strtok+0x46>
87800d76:	42a3      	cmp	r3, r4
87800d78:	d017      	beq.n	87800daa <strtok+0x76>
87800d7a:	f812 3f01 	ldrb.w	r3, [r2, #1]!
87800d7e:	2b00      	cmp	r3, #0
87800d80:	d1f9      	bne.n	87800d76 <strtok+0x42>
87800d82:	f816 4f01 	ldrb.w	r4, [r6, #1]!
87800d86:	2c00      	cmp	r4, #0
87800d88:	d1f0      	bne.n	87800d6c <strtok+0x38>
87800d8a:	4626      	mov	r6, r4
87800d8c:	f8cc 6000 	str.w	r6, [ip]
87800d90:	bcf0      	pop	{r4, r5, r6, r7}
87800d92:	4770      	bx	lr
87800d94:	f817 4f01 	ldrb.w	r4, [r7, #1]!
87800d98:	3601      	adds	r6, #1
87800d9a:	2c00      	cmp	r4, #0
87800d9c:	d1d7      	bne.n	87800d4e <strtok+0x1a>
87800d9e:	5d84      	ldrb	r4, [r0, r6]
87800da0:	4430      	add	r0, r6
87800da2:	4606      	mov	r6, r0
87800da4:	2c00      	cmp	r4, #0
87800da6:	d1e1      	bne.n	87800d6c <strtok+0x38>
87800da8:	e00c      	b.n	87800dc4 <strtok+0x90>
87800daa:	7833      	ldrb	r3, [r6, #0]
87800dac:	2b00      	cmp	r3, #0
87800dae:	d0ed      	beq.n	87800d8c <strtok+0x58>
87800db0:	2300      	movs	r3, #0
87800db2:	3601      	adds	r6, #1
87800db4:	f806 3c01 	strb.w	r3, [r6, #-1]
87800db8:	e7e8      	b.n	87800d8c <strtok+0x58>
87800dba:	f8dc 0000 	ldr.w	r0, [ip]
87800dbe:	2800      	cmp	r0, #0
87800dc0:	d1be      	bne.n	87800d40 <strtok+0xc>
87800dc2:	4770      	bx	lr
87800dc4:	2000      	movs	r0, #0
87800dc6:	f8cc 0000 	str.w	r0, [ip]
87800dca:	e7e1      	b.n	87800d90 <strtok+0x5c>

87800dcc <strsep>:
87800dcc:	b4f0      	push	{r4, r5, r6, r7}
87800dce:	4607      	mov	r7, r0
87800dd0:	6800      	ldr	r0, [r0, #0]
87800dd2:	b198      	cbz	r0, 87800dfc <strsep+0x30>
87800dd4:	7804      	ldrb	r4, [r0, #0]
87800dd6:	b184      	cbz	r4, 87800dfa <strsep+0x2e>
87800dd8:	780e      	ldrb	r6, [r1, #0]
87800dda:	4605      	mov	r5, r0
87800ddc:	b14e      	cbz	r6, 87800df2 <strsep+0x26>
87800dde:	42a6      	cmp	r6, r4
87800de0:	d00e      	beq.n	87800e00 <strsep+0x34>
87800de2:	460a      	mov	r2, r1
87800de4:	e001      	b.n	87800dea <strsep+0x1e>
87800de6:	42a3      	cmp	r3, r4
87800de8:	d00a      	beq.n	87800e00 <strsep+0x34>
87800dea:	f812 3f01 	ldrb.w	r3, [r2, #1]!
87800dee:	2b00      	cmp	r3, #0
87800df0:	d1f9      	bne.n	87800de6 <strsep+0x1a>
87800df2:	f815 4f01 	ldrb.w	r4, [r5, #1]!
87800df6:	2c00      	cmp	r4, #0
87800df8:	d1f0      	bne.n	87800ddc <strsep+0x10>
87800dfa:	603c      	str	r4, [r7, #0]
87800dfc:	bcf0      	pop	{r4, r5, r6, r7}
87800dfe:	4770      	bx	lr
87800e00:	2300      	movs	r3, #0
87800e02:	1c6c      	adds	r4, r5, #1
87800e04:	702b      	strb	r3, [r5, #0]
87800e06:	e7f8      	b.n	87800dfa <strsep+0x2e>

87800e08 <memset>:
87800e08:	b132      	cbz	r2, 87800e18 <memset+0x10>
87800e0a:	b2c9      	uxtb	r1, r1
87800e0c:	4402      	add	r2, r0
87800e0e:	4603      	mov	r3, r0
87800e10:	f803 1b01 	strb.w	r1, [r3], #1
87800e14:	4293      	cmp	r3, r2
87800e16:	d1fb      	bne.n	87800e10 <memset+0x8>
87800e18:	4770      	bx	lr
87800e1a:	bf00      	nop

87800e1c <bcopy>:
87800e1c:	b13a      	cbz	r2, 87800e2e <bcopy+0x12>
87800e1e:	3901      	subs	r1, #1
87800e20:	4402      	add	r2, r0
87800e22:	f810 3b01 	ldrb.w	r3, [r0], #1
87800e26:	4290      	cmp	r0, r2
87800e28:	f801 3f01 	strb.w	r3, [r1, #1]!
87800e2c:	d1f9      	bne.n	87800e22 <bcopy+0x6>
87800e2e:	4770      	bx	lr

87800e30 <memcpy>:
87800e30:	b15a      	cbz	r2, 87800e4a <memcpy+0x1a>
87800e32:	440a      	add	r2, r1
87800e34:	1e43      	subs	r3, r0, #1
87800e36:	b410      	push	{r4}
87800e38:	f811 4b01 	ldrb.w	r4, [r1], #1
87800e3c:	4291      	cmp	r1, r2
87800e3e:	f803 4f01 	strb.w	r4, [r3, #1]!
87800e42:	d1f9      	bne.n	87800e38 <memcpy+0x8>
87800e44:	f85d 4b04 	ldr.w	r4, [sp], #4
87800e48:	4770      	bx	lr
87800e4a:	4770      	bx	lr

87800e4c <memmove>:
87800e4c:	4288      	cmp	r0, r1
87800e4e:	b410      	push	{r4}
87800e50:	d80b      	bhi.n	87800e6a <memmove+0x1e>
87800e52:	b13a      	cbz	r2, 87800e64 <memmove+0x18>
87800e54:	440a      	add	r2, r1
87800e56:	1e43      	subs	r3, r0, #1
87800e58:	f811 4b01 	ldrb.w	r4, [r1], #1
87800e5c:	428a      	cmp	r2, r1
87800e5e:	f803 4f01 	strb.w	r4, [r3, #1]!
87800e62:	d1f9      	bne.n	87800e58 <memmove+0xc>
87800e64:	f85d 4b04 	ldr.w	r4, [sp], #4
87800e68:	4770      	bx	lr
87800e6a:	1884      	adds	r4, r0, r2
87800e6c:	188b      	adds	r3, r1, r2
87800e6e:	2a00      	cmp	r2, #0
87800e70:	d0f8      	beq.n	87800e64 <memmove+0x18>
87800e72:	4622      	mov	r2, r4
87800e74:	f813 4d01 	ldrb.w	r4, [r3, #-1]!
87800e78:	4299      	cmp	r1, r3
87800e7a:	f802 4d01 	strb.w	r4, [r2, #-1]!
87800e7e:	d1f9      	bne.n	87800e74 <memmove+0x28>
87800e80:	f85d 4b04 	ldr.w	r4, [sp], #4
87800e84:	4770      	bx	lr
87800e86:	bf00      	nop

87800e88 <memcmp>:
87800e88:	b1aa      	cbz	r2, 87800eb6 <memcmp+0x2e>
87800e8a:	b430      	push	{r4, r5}
87800e8c:	4604      	mov	r4, r0
87800e8e:	780b      	ldrb	r3, [r1, #0]
87800e90:	7800      	ldrb	r0, [r0, #0]
87800e92:	1ac0      	subs	r0, r0, r3
87800e94:	d10a      	bne.n	87800eac <memcmp+0x24>
87800e96:	3a01      	subs	r2, #1
87800e98:	188d      	adds	r5, r1, r2
87800e9a:	e005      	b.n	87800ea8 <memcmp+0x20>
87800e9c:	f814 3f01 	ldrb.w	r3, [r4, #1]!
87800ea0:	f811 2f01 	ldrb.w	r2, [r1, #1]!
87800ea4:	1a9b      	subs	r3, r3, r2
87800ea6:	d103      	bne.n	87800eb0 <memcmp+0x28>
87800ea8:	42a9      	cmp	r1, r5
87800eaa:	d1f7      	bne.n	87800e9c <memcmp+0x14>
87800eac:	bc30      	pop	{r4, r5}
87800eae:	4770      	bx	lr
87800eb0:	4618      	mov	r0, r3
87800eb2:	bc30      	pop	{r4, r5}
87800eb4:	4770      	bx	lr
87800eb6:	4610      	mov	r0, r2
87800eb8:	4770      	bx	lr
87800eba:	bf00      	nop

87800ebc <memscan>:
87800ebc:	b1c2      	cbz	r2, 87800ef0 <memscan+0x34>
87800ebe:	7803      	ldrb	r3, [r0, #0]
87800ec0:	4299      	cmp	r1, r3
87800ec2:	d015      	beq.n	87800ef0 <memscan+0x34>
87800ec4:	1c43      	adds	r3, r0, #1
87800ec6:	4402      	add	r2, r0
87800ec8:	4293      	cmp	r3, r2
87800eca:	4618      	mov	r0, r3
87800ecc:	f103 0301 	add.w	r3, r3, #1
87800ed0:	d00f      	beq.n	87800ef2 <memscan+0x36>
87800ed2:	b410      	push	{r4}
87800ed4:	7804      	ldrb	r4, [r0, #0]
87800ed6:	428c      	cmp	r4, r1
87800ed8:	d007      	beq.n	87800eea <memscan+0x2e>
87800eda:	4293      	cmp	r3, r2
87800edc:	4618      	mov	r0, r3
87800ede:	f103 0301 	add.w	r3, r3, #1
87800ee2:	d002      	beq.n	87800eea <memscan+0x2e>
87800ee4:	7804      	ldrb	r4, [r0, #0]
87800ee6:	428c      	cmp	r4, r1
87800ee8:	d1f7      	bne.n	87800eda <memscan+0x1e>
87800eea:	f85d 4b04 	ldr.w	r4, [sp], #4
87800eee:	4770      	bx	lr
87800ef0:	4770      	bx	lr
87800ef2:	4770      	bx	lr

87800ef4 <strstr>:
87800ef4:	e92d 43f0 	stmdb	sp!, {r4, r5, r6, r7, r8, r9, lr}
87800ef8:	f891 8000 	ldrb.w	r8, [r1]
87800efc:	f1b8 0f00 	cmp.w	r8, #0
87800f00:	d027      	beq.n	87800f52 <strstr+0x5e>
87800f02:	460b      	mov	r3, r1
87800f04:	f813 2f01 	ldrb.w	r2, [r3, #1]!
87800f08:	2a00      	cmp	r2, #0
87800f0a:	d1fb      	bne.n	87800f04 <strstr+0x10>
87800f0c:	ebb3 0e01 	subs.w	lr, r3, r1
87800f10:	d01f      	beq.n	87800f52 <strstr+0x5e>
87800f12:	7802      	ldrb	r2, [r0, #0]
87800f14:	4694      	mov	ip, r2
87800f16:	b132      	cbz	r2, 87800f26 <strstr+0x32>
87800f18:	4684      	mov	ip, r0
87800f1a:	f81c 3f01 	ldrb.w	r3, [ip, #1]!
87800f1e:	2b00      	cmp	r3, #0
87800f20:	d1fb      	bne.n	87800f1a <strstr+0x26>
87800f22:	ebac 0c00 	sub.w	ip, ip, r0
87800f26:	45e6      	cmp	lr, ip
87800f28:	dc1a      	bgt.n	87800f60 <strstr+0x6c>
87800f2a:	4607      	mov	r7, r0
87800f2c:	f10e 39ff 	add.w	r9, lr, #4294967295	; 0xffffffff
87800f30:	f10c 3cff 	add.w	ip, ip, #4294967295	; 0xffffffff
87800f34:	4638      	mov	r0, r7
87800f36:	460d      	mov	r5, r1
87800f38:	eb09 0607 	add.w	r6, r9, r7
87800f3c:	463b      	mov	r3, r7
87800f3e:	4644      	mov	r4, r8
87800f40:	e003      	b.n	87800f4a <strstr+0x56>
87800f42:	f813 2f01 	ldrb.w	r2, [r3, #1]!
87800f46:	f815 4f01 	ldrb.w	r4, [r5, #1]!
87800f4a:	42a2      	cmp	r2, r4
87800f4c:	d103      	bne.n	87800f56 <strstr+0x62>
87800f4e:	429e      	cmp	r6, r3
87800f50:	d1f7      	bne.n	87800f42 <strstr+0x4e>
87800f52:	e8bd 83f0 	ldmia.w	sp!, {r4, r5, r6, r7, r8, r9, pc}
87800f56:	45f4      	cmp	ip, lr
87800f58:	db02      	blt.n	87800f60 <strstr+0x6c>
87800f5a:	f817 2f01 	ldrb.w	r2, [r7, #1]!
87800f5e:	e7e7      	b.n	87800f30 <strstr+0x3c>
87800f60:	2000      	movs	r0, #0
87800f62:	e8bd 83f0 	ldmia.w	sp!, {r4, r5, r6, r7, r8, r9, pc}
87800f66:	bf00      	nop

87800f68 <memchr>:
87800f68:	4402      	add	r2, r0
87800f6a:	b2c9      	uxtb	r1, r1
87800f6c:	4290      	cmp	r0, r2
87800f6e:	4603      	mov	r3, r0
87800f70:	d012      	beq.n	87800f98 <memchr+0x30>
87800f72:	b410      	push	{r4}
87800f74:	f813 4b01 	ldrb.w	r4, [r3], #1
87800f78:	428c      	cmp	r4, r1
87800f7a:	d006      	beq.n	87800f8a <memchr+0x22>
87800f7c:	4293      	cmp	r3, r2
87800f7e:	4618      	mov	r0, r3
87800f80:	d006      	beq.n	87800f90 <memchr+0x28>
87800f82:	f813 4b01 	ldrb.w	r4, [r3], #1
87800f86:	428c      	cmp	r4, r1
87800f88:	d1f8      	bne.n	87800f7c <memchr+0x14>
87800f8a:	f85d 4b04 	ldr.w	r4, [sp], #4
87800f8e:	4770      	bx	lr
87800f90:	2000      	movs	r0, #0
87800f92:	f85d 4b04 	ldr.w	r4, [sp], #4
87800f96:	4770      	bx	lr
87800f98:	2000      	movs	r0, #0
87800f9a:	4770      	bx	lr

87800f9c <number>:
87800f9c:	e92d 4ff0 	stmdb	sp!, {r4, r5, r6, r7, r8, r9, sl, fp, lr}
87800fa0:	b0a5      	sub	sp, #148	; 0x94
87800fa2:	460d      	mov	r5, r1
87800fa4:	992e      	ldr	r1, [sp, #184]	; 0xb8
87800fa6:	4604      	mov	r4, r0
87800fa8:	f8dd 90c4 	ldr.w	r9, [sp, #196]	; 0xc4
87800fac:	390a      	subs	r1, #10
87800fae:	bf18      	it	ne
87800fb0:	2101      	movne	r1, #1
87800fb2:	f009 0020 	and.w	r0, r9, #32
87800fb6:	ea01 1159 	and.w	r1, r1, r9, lsr #5
87800fba:	9003      	str	r0, [sp, #12]
87800fbc:	9100      	str	r1, [sp, #0]
87800fbe:	f019 0110 	ands.w	r1, r9, #16
87800fc2:	bf18      	it	ne
87800fc4:	f029 0901 	bicne.w	r9, r9, #1
87800fc8:	9101      	str	r1, [sp, #4]
87800fca:	f019 0102 	ands.w	r1, r9, #2
87800fce:	d011      	beq.n	87800ff4 <number+0x58>
87800fd0:	2a00      	cmp	r2, #0
87800fd2:	f173 0100 	sbcs.w	r1, r3, #0
87800fd6:	f2c0 816e 	blt.w	878012b6 <number+0x31a>
87800fda:	f019 0f04 	tst.w	r9, #4
87800fde:	f040 8188 	bne.w	878012f2 <number+0x356>
87800fe2:	f019 0108 	ands.w	r1, r9, #8
87800fe6:	d005      	beq.n	87800ff4 <number+0x58>
87800fe8:	992f      	ldr	r1, [sp, #188]	; 0xbc
87800fea:	3901      	subs	r1, #1
87800fec:	912f      	str	r1, [sp, #188]	; 0xbc
87800fee:	2120      	movs	r1, #32
87800ff0:	9102      	str	r1, [sp, #8]
87800ff2:	e000      	b.n	87800ff6 <number+0x5a>
87800ff4:	9102      	str	r1, [sp, #8]
87800ff6:	9900      	ldr	r1, [sp, #0]
87800ff8:	2900      	cmp	r1, #0
87800ffa:	d048      	beq.n	8780108e <number+0xf2>
87800ffc:	992e      	ldr	r1, [sp, #184]	; 0xb8
87800ffe:	2910      	cmp	r1, #16
87801000:	992f      	ldr	r1, [sp, #188]	; 0xbc
87801002:	f000 8161 	beq.w	878012c8 <number+0x32c>
87801006:	3901      	subs	r1, #1
87801008:	912f      	str	r1, [sp, #188]	; 0xbc
8780100a:	ea52 0103 	orrs.w	r1, r2, r3
8780100e:	d042      	beq.n	87801096 <number+0xfa>
87801010:	992e      	ldr	r1, [sp, #184]	; 0xb8
87801012:	2910      	cmp	r1, #16
87801014:	f101 3aff 	add.w	sl, r1, #4294967295	; 0xffffffff
87801018:	bf0a      	itet	eq
8780101a:	2004      	moveq	r0, #4
8780101c:	2003      	movne	r0, #3
8780101e:	f04f 0a0f 	moveq.w	sl, #15
87801022:	f642 18e4 	movw	r8, #10724	; 0x29e4
87801026:	f1c0 0120 	rsb	r1, r0, #32
8780102a:	9506      	str	r5, [sp, #24]
8780102c:	f10d 0c2c 	add.w	ip, sp, #44	; 0x2c
87801030:	f8cd 90c4 	str.w	r9, [sp, #196]	; 0xc4
87801034:	f2c8 7880 	movt	r8, #34688	; 0x8780
87801038:	2600      	movs	r6, #0
8780103a:	9404      	str	r4, [sp, #16]
8780103c:	f8dd 900c 	ldr.w	r9, [sp, #12]
87801040:	460d      	mov	r5, r1
87801042:	e000      	b.n	87801046 <number+0xaa>
87801044:	463e      	mov	r6, r7
87801046:	fa03 f705 	lsl.w	r7, r3, r5
8780104a:	f1b0 0e20 	subs.w	lr, r0, #32
8780104e:	b2d4      	uxtb	r4, r2
87801050:	fa22 f100 	lsr.w	r1, r2, r0
87801054:	fa43 fe0e 	asr.w	lr, r3, lr
87801058:	fa43 fb00 	asr.w	fp, r3, r0
8780105c:	ea41 0107 	orr.w	r1, r1, r7
87801060:	ea04 040a 	and.w	r4, r4, sl
87801064:	bf58      	it	pl
87801066:	ea41 010e 	orrpl.w	r1, r1, lr
8780106a:	f818 4004 	ldrb.w	r4, [r8, r4]
8780106e:	460a      	mov	r2, r1
87801070:	465b      	mov	r3, fp
87801072:	ea52 0103 	orrs.w	r1, r2, r3
87801076:	f106 0701 	add.w	r7, r6, #1
8780107a:	ea49 0404 	orr.w	r4, r9, r4
8780107e:	f80c 4b01 	strb.w	r4, [ip], #1
87801082:	d1df      	bne.n	87801044 <number+0xa8>
87801084:	9c04      	ldr	r4, [sp, #16]
87801086:	9d06      	ldr	r5, [sp, #24]
87801088:	f8dd 90c4 	ldr.w	r9, [sp, #196]	; 0xc4
8780108c:	e008      	b.n	878010a0 <number+0x104>
8780108e:	ea52 0103 	orrs.w	r1, r2, r3
87801092:	f040 8081 	bne.w	87801198 <number+0x1fc>
87801096:	2600      	movs	r6, #0
87801098:	2701      	movs	r7, #1
8780109a:	2330      	movs	r3, #48	; 0x30
8780109c:	f88d 302c 	strb.w	r3, [sp, #44]	; 0x2c
878010a0:	9b30      	ldr	r3, [sp, #192]	; 0xc0
878010a2:	42bb      	cmp	r3, r7
878010a4:	bfb8      	it	lt
878010a6:	463b      	movlt	r3, r7
878010a8:	f019 0f11 	tst.w	r9, #17
878010ac:	461a      	mov	r2, r3
878010ae:	9b2f      	ldr	r3, [sp, #188]	; 0xbc
878010b0:	eba3 0302 	sub.w	r3, r3, r2
878010b4:	f103 31ff 	add.w	r1, r3, #4294967295	; 0xffffffff
878010b8:	d10f      	bne.n	878010da <number+0x13e>
878010ba:	2900      	cmp	r1, #0
878010bc:	bfb8      	it	lt
878010be:	1e99      	sublt	r1, r3, #2
878010c0:	db0b      	blt.n	878010da <number+0x13e>
878010c2:	4423      	add	r3, r4
878010c4:	2120      	movs	r1, #32
878010c6:	42a5      	cmp	r5, r4
878010c8:	f104 0401 	add.w	r4, r4, #1
878010cc:	bf88      	it	hi
878010ce:	f804 1c01 	strbhi.w	r1, [r4, #-1]
878010d2:	429c      	cmp	r4, r3
878010d4:	d1f7      	bne.n	878010c6 <number+0x12a>
878010d6:	f06f 0101 	mvn.w	r1, #1
878010da:	9b02      	ldr	r3, [sp, #8]
878010dc:	b12b      	cbz	r3, 878010ea <number+0x14e>
878010de:	42ac      	cmp	r4, r5
878010e0:	f104 0401 	add.w	r4, r4, #1
878010e4:	bf38      	it	cc
878010e6:	f804 3c01 	strbcc.w	r3, [r4, #-1]
878010ea:	9b00      	ldr	r3, [sp, #0]
878010ec:	b153      	cbz	r3, 87801104 <number+0x168>
878010ee:	982e      	ldr	r0, [sp, #184]	; 0xb8
878010f0:	42ac      	cmp	r4, r5
878010f2:	bf3c      	itt	cc
878010f4:	2330      	movcc	r3, #48	; 0x30
878010f6:	7023      	strbcc	r3, [r4, #0]
878010f8:	1c63      	adds	r3, r4, #1
878010fa:	2810      	cmp	r0, #16
878010fc:	bf18      	it	ne
878010fe:	461c      	movne	r4, r3
87801100:	f000 80ed 	beq.w	878012de <number+0x342>
87801104:	9b01      	ldr	r3, [sp, #4]
87801106:	b9ab      	cbnz	r3, 87801134 <number+0x198>
87801108:	f019 0f01 	tst.w	r9, #1
8780110c:	bf0c      	ite	eq
8780110e:	2320      	moveq	r3, #32
87801110:	2330      	movne	r3, #48	; 0x30
87801112:	2900      	cmp	r1, #0
87801114:	bfb8      	it	lt
87801116:	f101 31ff 	addlt.w	r1, r1, #4294967295	; 0xffffffff
8780111a:	db0b      	blt.n	87801134 <number+0x198>
8780111c:	3101      	adds	r1, #1
8780111e:	4421      	add	r1, r4
87801120:	42a5      	cmp	r5, r4
87801122:	f104 0401 	add.w	r4, r4, #1
87801126:	bf88      	it	hi
87801128:	f804 3c01 	strbhi.w	r3, [r4, #-1]
8780112c:	428c      	cmp	r4, r1
8780112e:	d1f7      	bne.n	87801120 <number+0x184>
87801130:	f06f 0101 	mvn.w	r1, #1
87801134:	4297      	cmp	r7, r2
87801136:	bfbe      	ittt	lt
87801138:	1bd7      	sublt	r7, r2, r7
8780113a:	2330      	movlt	r3, #48	; 0x30
8780113c:	193f      	addlt	r7, r7, r4
8780113e:	da07      	bge.n	87801150 <number+0x1b4>
87801140:	42a5      	cmp	r5, r4
87801142:	f104 0401 	add.w	r4, r4, #1
87801146:	bf88      	it	hi
87801148:	f804 3c01 	strbhi.w	r3, [r4, #-1]
8780114c:	42bc      	cmp	r4, r7
8780114e:	d1f7      	bne.n	87801140 <number+0x1a4>
87801150:	2e00      	cmp	r6, #0
87801152:	f2c0 80d4 	blt.w	878012fe <number+0x362>
87801156:	4632      	mov	r2, r6
87801158:	4623      	mov	r3, r4
8780115a:	af0b      	add	r7, sp, #44	; 0x2c
8780115c:	429d      	cmp	r5, r3
8780115e:	f103 0301 	add.w	r3, r3, #1
87801162:	bf88      	it	hi
87801164:	5dd0      	ldrbhi	r0, [r2, r7]
87801166:	f102 32ff 	add.w	r2, r2, #4294967295	; 0xffffffff
8780116a:	bf88      	it	hi
8780116c:	f803 0c01 	strbhi.w	r0, [r3, #-1]
87801170:	1c50      	adds	r0, r2, #1
87801172:	d1f3      	bne.n	8780115c <number+0x1c0>
87801174:	1c70      	adds	r0, r6, #1
87801176:	4420      	add	r0, r4
87801178:	2900      	cmp	r1, #0
8780117a:	db0a      	blt.n	87801192 <number+0x1f6>
8780117c:	1c4b      	adds	r3, r1, #1
8780117e:	2220      	movs	r2, #32
87801180:	4403      	add	r3, r0
87801182:	4285      	cmp	r5, r0
87801184:	f100 0001 	add.w	r0, r0, #1
87801188:	bf88      	it	hi
8780118a:	f800 2c01 	strbhi.w	r2, [r0, #-1]
8780118e:	4298      	cmp	r0, r3
87801190:	d1f7      	bne.n	87801182 <number+0x1e6>
87801192:	b025      	add	sp, #148	; 0x94
87801194:	e8bd 8ff0 	ldmia.w	sp!, {r4, r5, r6, r7, r8, r9, sl, fp, pc}
87801198:	992e      	ldr	r1, [sp, #184]	; 0xb8
8780119a:	290a      	cmp	r1, #10
8780119c:	f47f af38 	bne.w	87801010 <number+0x74>
878011a0:	4692      	mov	sl, r2
878011a2:	469b      	mov	fp, r3
878011a4:	f248 629f 	movw	r2, #34463	; 0x869f
878011a8:	2300      	movs	r3, #0
878011aa:	f2c0 0201 	movt	r2, #1
878011ae:	455b      	cmp	r3, fp
878011b0:	bf08      	it	eq
878011b2:	4552      	cmpeq	r2, sl
878011b4:	e9cd ab08 	strd	sl, fp, [sp, #32]
878011b8:	f080 8109 	bcs.w	878013ce <number+0x432>
878011bc:	f248 61a0 	movw	r1, #34464	; 0x86a0
878011c0:	f645 20c5 	movw	r0, #23237	; 0x5ac5
878011c4:	f2c0 0101 	movt	r1, #1
878011c8:	f6c0 207c 	movt	r0, #2684	; 0xa7c
878011cc:	e9cd 4506 	strd	r4, r5, [sp, #24]
878011d0:	460f      	mov	r7, r1
878011d2:	e9cd 2304 	strd	r2, r3, [sp, #16]
878011d6:	f10d 0631 	add.w	r6, sp, #49	; 0x31
878011da:	4604      	mov	r4, r0
878011dc:	e05c      	b.n	87801298 <number+0x2fc>
878011de:	09d8      	lsrs	r0, r3, #7
878011e0:	f04f 0b00 	mov.w	fp, #0
878011e4:	4603      	mov	r3, r0
878011e6:	fb07 a010 	mls	r0, r7, r0, sl
878011ea:	469a      	mov	sl, r3
878011ec:	e9cd ab08 	strd	sl, fp, [sp, #32]
878011f0:	f3c0 2303 	ubfx	r3, r0, #8, #4
878011f4:	f3c0 1203 	ubfx	r2, r0, #4, #4
878011f8:	0b01      	lsrs	r1, r0, #12
878011fa:	eb02 0c03 	add.w	ip, r2, r3
878011fe:	f000 080f 	and.w	r8, r0, #15
87801202:	eb03 0e83 	add.w	lr, r3, r3, lsl #2
87801206:	448c      	add	ip, r1
87801208:	eb01 00c1 	add.w	r0, r1, r1, lsl #3
8780120c:	eb0c 0c4c 	add.w	ip, ip, ip, lsl #1
87801210:	4635      	mov	r5, r6
87801212:	4402      	add	r2, r0
87801214:	eb08 004c 	add.w	r0, r8, ip, lsl #1
87801218:	f04f 0ccd 	mov.w	ip, #205	; 0xcd
8780121c:	4472      	add	r2, lr
8780121e:	fb0c f800 	mul.w	r8, ip, r0
87801222:	3605      	adds	r6, #5
87801224:	ea4f 28d8 	mov.w	r8, r8, lsr #11
87801228:	4442      	add	r2, r8
8780122a:	eb08 0888 	add.w	r8, r8, r8, lsl #2
8780122e:	fb0c fe02 	mul.w	lr, ip, r2
87801232:	eba0 0048 	sub.w	r0, r0, r8, lsl #1
87801236:	3030      	adds	r0, #48	; 0x30
87801238:	ea4f 2ede 	mov.w	lr, lr, lsr #11
8780123c:	f806 0c0a 	strb.w	r0, [r6, #-10]
87801240:	eb0e 0343 	add.w	r3, lr, r3, lsl #1
87801244:	eb0e 0e8e 	add.w	lr, lr, lr, lsl #2
87801248:	eb03 0043 	add.w	r0, r3, r3, lsl #1
8780124c:	eba2 024e 	sub.w	r2, r2, lr, lsl #1
87801250:	eb03 0080 	add.w	r0, r3, r0, lsl #2
87801254:	3230      	adds	r2, #48	; 0x30
87801256:	f806 2c09 	strb.w	r2, [r6, #-9]
8780125a:	09c2      	lsrs	r2, r0, #7
8780125c:	eb02 0181 	add.w	r1, r2, r1, lsl #2
87801260:	eb02 0282 	add.w	r2, r2, r2, lsl #2
87801264:	fb0c fc01 	mul.w	ip, ip, r1
87801268:	eba3 0342 	sub.w	r3, r3, r2, lsl #1
8780126c:	3330      	adds	r3, #48	; 0x30
8780126e:	f806 3c08 	strb.w	r3, [r6, #-8]
87801272:	ea4f 2cdc 	mov.w	ip, ip, lsr #11
87801276:	eb0c 038c 	add.w	r3, ip, ip, lsl #2
8780127a:	f10c 0c30 	add.w	ip, ip, #48	; 0x30
8780127e:	f806 cc06 	strb.w	ip, [r6, #-6]
87801282:	eba1 0143 	sub.w	r1, r1, r3, lsl #1
87801286:	e9dd 2304 	ldrd	r2, r3, [sp, #16]
8780128a:	3130      	adds	r1, #48	; 0x30
8780128c:	455b      	cmp	r3, fp
8780128e:	f806 1c07 	strb.w	r1, [r6, #-7]
87801292:	bf08      	it	eq
87801294:	4552      	cmpeq	r2, sl
87801296:	d234      	bcs.n	87801302 <number+0x366>
87801298:	4658      	mov	r0, fp
8780129a:	2100      	movs	r1, #0
8780129c:	ea4f 125a 	mov.w	r2, sl, lsr #5
878012a0:	4301      	orrs	r1, r0
878012a2:	fba2 2304 	umull	r2, r3, r2, r4
878012a6:	d09a      	beq.n	878011de <number+0x242>
878012a8:	4639      	mov	r1, r7
878012aa:	a808      	add	r0, sp, #32
878012ac:	f001 f8f4 	bl	87802498 <__div64_32>
878012b0:	e9dd ab08 	ldrd	sl, fp, [sp, #32]
878012b4:	e79c      	b.n	878011f0 <number+0x254>
878012b6:	992f      	ldr	r1, [sp, #188]	; 0xbc
878012b8:	4252      	negs	r2, r2
878012ba:	eb63 0343 	sbc.w	r3, r3, r3, lsl #1
878012be:	3901      	subs	r1, #1
878012c0:	912f      	str	r1, [sp, #188]	; 0xbc
878012c2:	212d      	movs	r1, #45	; 0x2d
878012c4:	9102      	str	r1, [sp, #8]
878012c6:	e696      	b.n	87800ff6 <number+0x5a>
878012c8:	3902      	subs	r1, #2
878012ca:	912f      	str	r1, [sp, #188]	; 0xbc
878012cc:	ea52 0103 	orrs.w	r1, r2, r3
878012d0:	bf1c      	itt	ne
878012d2:	f04f 0a0f 	movne.w	sl, #15
878012d6:	2004      	movne	r0, #4
878012d8:	f47f aea3 	bne.w	87801022 <number+0x86>
878012dc:	e6db      	b.n	87801096 <number+0xfa>
878012de:	429d      	cmp	r5, r3
878012e0:	f104 0402 	add.w	r4, r4, #2
878012e4:	bf82      	ittt	hi
878012e6:	9b03      	ldrhi	r3, [sp, #12]
878012e8:	f043 0358 	orrhi.w	r3, r3, #88	; 0x58
878012ec:	f804 3c01 	strbhi.w	r3, [r4, #-1]
878012f0:	e708      	b.n	87801104 <number+0x168>
878012f2:	992f      	ldr	r1, [sp, #188]	; 0xbc
878012f4:	3901      	subs	r1, #1
878012f6:	912f      	str	r1, [sp, #188]	; 0xbc
878012f8:	212b      	movs	r1, #43	; 0x2b
878012fa:	9102      	str	r1, [sp, #8]
878012fc:	e67b      	b.n	87800ff6 <number+0x5a>
878012fe:	4620      	mov	r0, r4
87801300:	e73a      	b.n	87801178 <number+0x1dc>
87801302:	46a8      	mov	r8, r5
87801304:	e9dd 4506 	ldrd	r4, r5, [sp, #24]
87801308:	f10d 0e2c 	add.w	lr, sp, #44	; 0x2c
8780130c:	f3ca 1003 	ubfx	r0, sl, #4, #4
87801310:	ea4f 371a 	mov.w	r7, sl, lsr #12
87801314:	f3ca 2103 	ubfx	r1, sl, #8, #4
87801318:	1843      	adds	r3, r0, r1
8780131a:	eb07 02c7 	add.w	r2, r7, r7, lsl #3
8780131e:	443b      	add	r3, r7
87801320:	eb01 0681 	add.w	r6, r1, r1, lsl #2
87801324:	eb03 0343 	add.w	r3, r3, r3, lsl #1
87801328:	f00a 0a0f 	and.w	sl, sl, #15
8780132c:	4402      	add	r2, r0
8780132e:	eb0a 0343 	add.w	r3, sl, r3, lsl #1
87801332:	f04f 0ccd 	mov.w	ip, #205	; 0xcd
87801336:	1990      	adds	r0, r2, r6
87801338:	fb0c f203 	mul.w	r2, ip, r3
8780133c:	0ad2      	lsrs	r2, r2, #11
8780133e:	eb02 0682 	add.w	r6, r2, r2, lsl #2
87801342:	1812      	adds	r2, r2, r0
87801344:	bf08      	it	eq
87801346:	f108 0701 	addeq.w	r7, r8, #1
8780134a:	eba3 0346 	sub.w	r3, r3, r6, lsl #1
8780134e:	f103 0330 	add.w	r3, r3, #48	; 0x30
87801352:	f888 3000 	strb.w	r3, [r8]
87801356:	d036      	beq.n	878013c6 <number+0x42a>
87801358:	fb0c f302 	mul.w	r3, ip, r2
8780135c:	0adb      	lsrs	r3, r3, #11
8780135e:	eb03 0083 	add.w	r0, r3, r3, lsl #2
87801362:	eb03 0341 	add.w	r3, r3, r1, lsl #1
87801366:	eba2 0240 	sub.w	r2, r2, r0, lsl #1
8780136a:	3230      	adds	r2, #48	; 0x30
8780136c:	f888 2001 	strb.w	r2, [r8, #1]
87801370:	ea57 0203 	orrs.w	r2, r7, r3
87801374:	bf08      	it	eq
87801376:	f108 0702 	addeq.w	r7, r8, #2
8780137a:	d024      	beq.n	878013c6 <number+0x42a>
8780137c:	eb03 0243 	add.w	r2, r3, r3, lsl #1
87801380:	eb03 0282 	add.w	r2, r3, r2, lsl #2
87801384:	09d2      	lsrs	r2, r2, #7
87801386:	eb02 0182 	add.w	r1, r2, r2, lsl #2
8780138a:	eb12 0287 	adds.w	r2, r2, r7, lsl #2
8780138e:	eba3 0341 	sub.w	r3, r3, r1, lsl #1
87801392:	bf08      	it	eq
87801394:	f108 0703 	addeq.w	r7, r8, #3
87801398:	f103 0330 	add.w	r3, r3, #48	; 0x30
8780139c:	f888 3002 	strb.w	r3, [r8, #2]
878013a0:	d011      	beq.n	878013c6 <number+0x42a>
878013a2:	fb0c f302 	mul.w	r3, ip, r2
878013a6:	f108 0704 	add.w	r7, r8, #4
878013aa:	0adb      	lsrs	r3, r3, #11
878013ac:	eb03 0183 	add.w	r1, r3, r3, lsl #2
878013b0:	eba2 0241 	sub.w	r2, r2, r1, lsl #1
878013b4:	3230      	adds	r2, #48	; 0x30
878013b6:	f888 2003 	strb.w	r2, [r8, #3]
878013ba:	b123      	cbz	r3, 878013c6 <number+0x42a>
878013bc:	f108 0705 	add.w	r7, r8, #5
878013c0:	3330      	adds	r3, #48	; 0x30
878013c2:	f888 3004 	strb.w	r3, [r8, #4]
878013c6:	eba7 070e 	sub.w	r7, r7, lr
878013ca:	1e7e      	subs	r6, r7, #1
878013cc:	e668      	b.n	878010a0 <number+0x104>
878013ce:	f10d 0e2c 	add.w	lr, sp, #44	; 0x2c
878013d2:	46f0      	mov	r8, lr
878013d4:	e79a      	b.n	8780130c <number+0x370>
878013d6:	bf00      	nop

878013d8 <simple_strtoul>:
878013d8:	b4f0      	push	{r4, r5, r6, r7}
878013da:	4607      	mov	r7, r0
878013dc:	7804      	ldrb	r4, [r0, #0]
878013de:	bb52      	cbnz	r2, 87801436 <simple_strtoul+0x5e>
878013e0:	2c30      	cmp	r4, #48	; 0x30
878013e2:	d04f      	beq.n	87801484 <simple_strtoul+0xac>
878013e4:	f642 2c1c 	movw	ip, #10780	; 0x2a1c
878013e8:	4623      	mov	r3, r4
878013ea:	f2c8 7c80 	movt	ip, #34688	; 0x8780
878013ee:	220a      	movs	r2, #10
878013f0:	f81c 5004 	ldrb.w	r5, [ip, r4]
878013f4:	f005 0044 	and.w	r0, r5, #68	; 0x44
878013f8:	b1c8      	cbz	r0, 8780142e <simple_strtoul+0x56>
878013fa:	2000      	movs	r0, #0
878013fc:	e009      	b.n	87801412 <simple_strtoul+0x3a>
878013fe:	f817 4f01 	ldrb.w	r4, [r7, #1]!
87801402:	fb02 3000 	mla	r0, r2, r0, r3
87801406:	f81c 5004 	ldrb.w	r5, [ip, r4]
8780140a:	4623      	mov	r3, r4
8780140c:	f015 0f44 	tst.w	r5, #68	; 0x44
87801410:	d00d      	beq.n	8780142e <simple_strtoul+0x56>
87801412:	f015 0f04 	tst.w	r5, #4
87801416:	f1a3 0330 	sub.w	r3, r3, #48	; 0x30
8780141a:	d106      	bne.n	8780142a <simple_strtoul+0x52>
8780141c:	f1a4 0320 	sub.w	r3, r4, #32
87801420:	07ad      	lsls	r5, r5, #30
87801422:	bf48      	it	mi
87801424:	b2dc      	uxtbmi	r4, r3
87801426:	f1a4 0337 	sub.w	r3, r4, #55	; 0x37
8780142a:	4293      	cmp	r3, r2
8780142c:	d3e7      	bcc.n	878013fe <simple_strtoul+0x26>
8780142e:	b101      	cbz	r1, 87801432 <simple_strtoul+0x5a>
87801430:	600f      	str	r7, [r1, #0]
87801432:	bcf0      	pop	{r4, r5, r6, r7}
87801434:	4770      	bx	lr
87801436:	2a10      	cmp	r2, #16
87801438:	d009      	beq.n	8780144e <simple_strtoul+0x76>
8780143a:	f642 2c1c 	movw	ip, #10780	; 0x2a1c
8780143e:	4623      	mov	r3, r4
87801440:	f2c8 7c80 	movt	ip, #34688	; 0x8780
87801444:	f81c 5004 	ldrb.w	r5, [ip, r4]
87801448:	f005 0044 	and.w	r0, r5, #68	; 0x44
8780144c:	e7d4      	b.n	878013f8 <simple_strtoul+0x20>
8780144e:	2c30      	cmp	r4, #48	; 0x30
87801450:	d1f3      	bne.n	8780143a <simple_strtoul+0x62>
87801452:	7843      	ldrb	r3, [r0, #1]
87801454:	f642 2c1c 	movw	ip, #10780	; 0x2a1c
87801458:	f2c8 7c80 	movt	ip, #34688	; 0x8780
8780145c:	f81c 0003 	ldrb.w	r0, [ip, r3]
87801460:	0786      	lsls	r6, r0, #30
87801462:	bf44      	itt	mi
87801464:	3b20      	submi	r3, #32
87801466:	b2db      	uxtbmi	r3, r3
87801468:	2b58      	cmp	r3, #88	; 0x58
8780146a:	bf0d      	iteet	eq
8780146c:	78bc      	ldrbeq	r4, [r7, #2]
8780146e:	2330      	movne	r3, #48	; 0x30
87801470:	f89c 5030 	ldrbne.w	r5, [ip, #48]	; 0x30
87801474:	3702      	addeq	r7, #2
87801476:	bf04      	itt	eq
87801478:	f81c 5004 	ldrbeq.w	r5, [ip, r4]
8780147c:	4623      	moveq	r3, r4
8780147e:	f005 0044 	and.w	r0, r5, #68	; 0x44
87801482:	e7b9      	b.n	878013f8 <simple_strtoul+0x20>
87801484:	7844      	ldrb	r4, [r0, #1]
87801486:	f642 2c1c 	movw	ip, #10780	; 0x2a1c
8780148a:	f2c8 7c80 	movt	ip, #34688	; 0x8780
8780148e:	3001      	adds	r0, #1
87801490:	f81c 5004 	ldrb.w	r5, [ip, r4]
87801494:	4623      	mov	r3, r4
87801496:	07aa      	lsls	r2, r5, #30
87801498:	bf4a      	itet	mi
8780149a:	f1a4 0220 	submi.w	r2, r4, #32
8780149e:	4622      	movpl	r2, r4
878014a0:	b2d2      	uxtbmi	r2, r2
878014a2:	2a58      	cmp	r2, #88	; 0x58
878014a4:	d004      	beq.n	878014b0 <simple_strtoul+0xd8>
878014a6:	4607      	mov	r7, r0
878014a8:	2208      	movs	r2, #8
878014aa:	f005 0044 	and.w	r0, r5, #68	; 0x44
878014ae:	e7a3      	b.n	878013f8 <simple_strtoul+0x20>
878014b0:	78be      	ldrb	r6, [r7, #2]
878014b2:	f81c 2006 	ldrb.w	r2, [ip, r6]
878014b6:	f012 0f44 	tst.w	r2, #68	; 0x44
878014ba:	d0f4      	beq.n	878014a6 <simple_strtoul+0xce>
878014bc:	4615      	mov	r5, r2
878014be:	4633      	mov	r3, r6
878014c0:	3702      	adds	r7, #2
878014c2:	4634      	mov	r4, r6
878014c4:	2210      	movs	r2, #16
878014c6:	e798      	b.n	878013fa <simple_strtoul+0x22>

878014c8 <simple_strtol>:
878014c8:	b510      	push	{r4, lr}
878014ca:	7804      	ldrb	r4, [r0, #0]
878014cc:	2c2d      	cmp	r4, #45	; 0x2d
878014ce:	d003      	beq.n	878014d8 <simple_strtol+0x10>
878014d0:	e8bd 4010 	ldmia.w	sp!, {r4, lr}
878014d4:	f7ff bf80 	b.w	878013d8 <simple_strtoul>
878014d8:	3001      	adds	r0, #1
878014da:	f7ff ff7d 	bl	878013d8 <simple_strtoul>
878014de:	4240      	negs	r0, r0
878014e0:	bd10      	pop	{r4, pc}
878014e2:	bf00      	nop

878014e4 <simple_strtoull>:
878014e4:	e92d 4ff0 	stmdb	sp!, {r4, r5, r6, r7, r8, r9, sl, fp, lr}
878014e8:	7803      	ldrb	r3, [r0, #0]
878014ea:	2a00      	cmp	r2, #0
878014ec:	d140      	bne.n	87801570 <simple_strtoull+0x8c>
878014ee:	2b30      	cmp	r3, #48	; 0x30
878014f0:	d066      	beq.n	878015c0 <simple_strtoull+0xdc>
878014f2:	f642 2e1c 	movw	lr, #10780	; 0x2a1c
878014f6:	469b      	mov	fp, r3
878014f8:	f2c8 7e80 	movt	lr, #34688	; 0x8780
878014fc:	220a      	movs	r2, #10
878014fe:	f81e c003 	ldrb.w	ip, [lr, r3]
87801502:	f00c 0444 	and.w	r4, ip, #68	; 0x44
87801506:	2c00      	cmp	r4, #0
87801508:	d071      	beq.n	878015ee <simple_strtoull+0x10a>
8780150a:	f04f 0a00 	mov.w	sl, #0
8780150e:	4690      	mov	r8, r2
87801510:	f04f 0900 	mov.w	r9, #0
87801514:	4652      	mov	r2, sl
87801516:	e00e      	b.n	87801536 <simple_strtoull+0x52>
87801518:	fb08 3202 	mla	r2, r8, r2, r3
8780151c:	f810 3f01 	ldrb.w	r3, [r0, #1]!
87801520:	eb16 0a04 	adds.w	sl, r6, r4
87801524:	f81e c003 	ldrb.w	ip, [lr, r3]
87801528:	469b      	mov	fp, r3
8780152a:	4417      	add	r7, r2
8780152c:	eb47 0205 	adc.w	r2, r7, r5
87801530:	f01c 0f44 	tst.w	ip, #68	; 0x44
87801534:	d016      	beq.n	87801564 <simple_strtoull+0x80>
87801536:	f01c 0f04 	tst.w	ip, #4
8780153a:	f1ab 0430 	sub.w	r4, fp, #48	; 0x30
8780153e:	d108      	bne.n	87801552 <simple_strtoull+0x6e>
87801540:	3b20      	subs	r3, #32
87801542:	f01c 0f02 	tst.w	ip, #2
87801546:	b2db      	uxtb	r3, r3
87801548:	f1ab 0437 	sub.w	r4, fp, #55	; 0x37
8780154c:	bf18      	it	ne
8780154e:	f1a3 0437 	subne.w	r4, r3, #55	; 0x37
87801552:	17e5      	asrs	r5, r4, #31
87801554:	fb0a f309 	mul.w	r3, sl, r9
87801558:	454d      	cmp	r5, r9
8780155a:	fbaa 6708 	umull	r6, r7, sl, r8
8780155e:	bf08      	it	eq
87801560:	4544      	cmpeq	r4, r8
87801562:	d3d9      	bcc.n	87801518 <simple_strtoull+0x34>
87801564:	b101      	cbz	r1, 87801568 <simple_strtoull+0x84>
87801566:	6008      	str	r0, [r1, #0]
87801568:	4650      	mov	r0, sl
8780156a:	4611      	mov	r1, r2
8780156c:	e8bd 8ff0 	ldmia.w	sp!, {r4, r5, r6, r7, r8, r9, sl, fp, pc}
87801570:	2a10      	cmp	r2, #16
87801572:	d009      	beq.n	87801588 <simple_strtoull+0xa4>
87801574:	f642 2e1c 	movw	lr, #10780	; 0x2a1c
87801578:	469b      	mov	fp, r3
8780157a:	f2c8 7e80 	movt	lr, #34688	; 0x8780
8780157e:	f81e c003 	ldrb.w	ip, [lr, r3]
87801582:	f00c 0444 	and.w	r4, ip, #68	; 0x44
87801586:	e7be      	b.n	87801506 <simple_strtoull+0x22>
87801588:	2b30      	cmp	r3, #48	; 0x30
8780158a:	d1f3      	bne.n	87801574 <simple_strtoull+0x90>
8780158c:	7844      	ldrb	r4, [r0, #1]
8780158e:	f642 2e1c 	movw	lr, #10780	; 0x2a1c
87801592:	f2c8 7e80 	movt	lr, #34688	; 0x8780
87801596:	f81e 5004 	ldrb.w	r5, [lr, r4]
8780159a:	07ad      	lsls	r5, r5, #30
8780159c:	bf44      	itt	mi
8780159e:	3c20      	submi	r4, #32
878015a0:	b2e4      	uxtbmi	r4, r4
878015a2:	2c58      	cmp	r4, #88	; 0x58
878015a4:	bf0d      	iteet	eq
878015a6:	7883      	ldrbeq	r3, [r0, #2]
878015a8:	f04f 0b30 	movne.w	fp, #48	; 0x30
878015ac:	f89e c030 	ldrbne.w	ip, [lr, #48]	; 0x30
878015b0:	3002      	addeq	r0, #2
878015b2:	bf04      	itt	eq
878015b4:	f81e c003 	ldrbeq.w	ip, [lr, r3]
878015b8:	469b      	moveq	fp, r3
878015ba:	f00c 0444 	and.w	r4, ip, #68	; 0x44
878015be:	e7a2      	b.n	87801506 <simple_strtoull+0x22>
878015c0:	7843      	ldrb	r3, [r0, #1]
878015c2:	f642 2e1c 	movw	lr, #10780	; 0x2a1c
878015c6:	f2c8 7e80 	movt	lr, #34688	; 0x8780
878015ca:	1c44      	adds	r4, r0, #1
878015cc:	f81e c003 	ldrb.w	ip, [lr, r3]
878015d0:	469b      	mov	fp, r3
878015d2:	f01c 0f02 	tst.w	ip, #2
878015d6:	bf16      	itet	ne
878015d8:	f1a3 0220 	subne.w	r2, r3, #32
878015dc:	461a      	moveq	r2, r3
878015de:	b2d2      	uxtbne	r2, r2
878015e0:	2a58      	cmp	r2, #88	; 0x58
878015e2:	d008      	beq.n	878015f6 <simple_strtoull+0x112>
878015e4:	4620      	mov	r0, r4
878015e6:	2208      	movs	r2, #8
878015e8:	f00c 0444 	and.w	r4, ip, #68	; 0x44
878015ec:	e78b      	b.n	87801506 <simple_strtoull+0x22>
878015ee:	f04f 0a00 	mov.w	sl, #0
878015f2:	4652      	mov	r2, sl
878015f4:	e7b6      	b.n	87801564 <simple_strtoull+0x80>
878015f6:	7885      	ldrb	r5, [r0, #2]
878015f8:	f81e 2005 	ldrb.w	r2, [lr, r5]
878015fc:	f012 0f44 	tst.w	r2, #68	; 0x44
87801600:	d0f0      	beq.n	878015e4 <simple_strtoull+0x100>
87801602:	4694      	mov	ip, r2
87801604:	46ab      	mov	fp, r5
87801606:	3002      	adds	r0, #2
87801608:	462b      	mov	r3, r5
8780160a:	2210      	movs	r2, #16
8780160c:	e77d      	b.n	8780150a <simple_strtoull+0x26>
8780160e:	bf00      	nop

87801610 <simple_strtoll>:
87801610:	b510      	push	{r4, lr}
87801612:	7804      	ldrb	r4, [r0, #0]
87801614:	2c2d      	cmp	r4, #45	; 0x2d
87801616:	d003      	beq.n	87801620 <simple_strtoll+0x10>
87801618:	e8bd 4010 	ldmia.w	sp!, {r4, lr}
8780161c:	f7ff bf62 	b.w	878014e4 <simple_strtoull>
87801620:	3001      	adds	r0, #1
87801622:	f7ff ff5f 	bl	878014e4 <simple_strtoull>
87801626:	4240      	negs	r0, r0
87801628:	eb61 0141 	sbc.w	r1, r1, r1, lsl #1
8780162c:	bd10      	pop	{r4, pc}
8780162e:	bf00      	nop

87801630 <vsnprintf>:
87801630:	e92d 4ff0 	stmdb	sp!, {r4, r5, r6, r7, r8, r9, sl, fp, lr}
87801634:	469a      	mov	sl, r3
87801636:	1e0b      	subs	r3, r1, #0
87801638:	b089      	sub	sp, #36	; 0x24
8780163a:	9305      	str	r3, [sp, #20]
8780163c:	f2c0 826a 	blt.w	87801b14 <vsnprintf+0x4e4>
87801640:	f103 38ff 	add.w	r8, r3, #4294967295	; 0xffffffff
87801644:	1e43      	subs	r3, r0, #1
87801646:	4480      	add	r8, r0
87801648:	4605      	mov	r5, r0
8780164a:	4598      	cmp	r8, r3
8780164c:	9006      	str	r0, [sp, #24]
8780164e:	4614      	mov	r4, r2
87801650:	7810      	ldrb	r0, [r2, #0]
87801652:	f0c0 80c9 	bcc.w	878017e8 <vsnprintf+0x1b8>
87801656:	2800      	cmp	r0, #0
87801658:	f000 80d1 	beq.w	878017fe <vsnprintf+0x1ce>
8780165c:	f642 13f4 	movw	r3, #10740	; 0x29f4
87801660:	f642 291c 	movw	r9, #10780	; 0x2a1c
87801664:	f2c8 7380 	movt	r3, #34688	; 0x8780
87801668:	f2c8 7980 	movt	r9, #34688	; 0x8780
8780166c:	9307      	str	r3, [sp, #28]
8780166e:	e008      	b.n	87801682 <vsnprintf+0x52>
87801670:	45a8      	cmp	r8, r5
87801672:	bf28      	it	cs
87801674:	7028      	strbcs	r0, [r5, #0]
87801676:	7860      	ldrb	r0, [r4, #1]
87801678:	3501      	adds	r5, #1
8780167a:	3401      	adds	r4, #1
8780167c:	2800      	cmp	r0, #0
8780167e:	f000 80bc 	beq.w	878017fa <vsnprintf+0x1ca>
87801682:	2825      	cmp	r0, #37	; 0x25
87801684:	d1f4      	bne.n	87801670 <vsnprintf+0x40>
87801686:	2700      	movs	r7, #0
87801688:	7863      	ldrb	r3, [r4, #1]
8780168a:	1c62      	adds	r2, r4, #1
8780168c:	f1a3 0120 	sub.w	r1, r3, #32
87801690:	2910      	cmp	r1, #16
87801692:	d81e      	bhi.n	878016d2 <vsnprintf+0xa2>
87801694:	e8df f001 	tbb	[pc, r1]
87801698:	151d1d19 	ldrne	r1, [sp, #-3353]	; 0xd19
8780169c:	1d1d1d1d 	ldcne	13, cr1, [sp, #-116]	; 0xffffff8c
878016a0:	111d1d1d 	tstne	sp, sp, lsl sp
878016a4:	1d1d0d1d 	ldcne	13, cr0, [sp, #-116]	; 0xffffff8c
878016a8:	f0470009 			; <UNDEFINED> instruction: 0xf0470009
878016ac:	0701      	lsls	r1, r0, #28
878016ae:	4614      	mov	r4, r2
878016b0:	e7ea      	b.n	87801688 <vsnprintf+0x58>
878016b2:	f047 0710 	orr.w	r7, r7, #16
878016b6:	4614      	mov	r4, r2
878016b8:	e7e6      	b.n	87801688 <vsnprintf+0x58>
878016ba:	f047 0704 	orr.w	r7, r7, #4
878016be:	4614      	mov	r4, r2
878016c0:	e7e2      	b.n	87801688 <vsnprintf+0x58>
878016c2:	f047 0720 	orr.w	r7, r7, #32
878016c6:	4614      	mov	r4, r2
878016c8:	e7de      	b.n	87801688 <vsnprintf+0x58>
878016ca:	f047 0708 	orr.w	r7, r7, #8
878016ce:	4614      	mov	r4, r2
878016d0:	e7da      	b.n	87801688 <vsnprintf+0x58>
878016d2:	f819 0003 	ldrb.w	r0, [r9, r3]
878016d6:	4619      	mov	r1, r3
878016d8:	0746      	lsls	r6, r0, #29
878016da:	f100 809b 	bmi.w	87801814 <vsnprintf+0x1e4>
878016de:	2b2a      	cmp	r3, #42	; 0x2a
878016e0:	bf18      	it	ne
878016e2:	f04f 36ff 	movne.w	r6, #4294967295	; 0xffffffff
878016e6:	d10a      	bne.n	878016fe <vsnprintf+0xce>
878016e8:	f8da 6000 	ldr.w	r6, [sl]
878016ec:	1ca2      	adds	r2, r4, #2
878016ee:	78a3      	ldrb	r3, [r4, #2]
878016f0:	f10a 0a04 	add.w	sl, sl, #4
878016f4:	2e00      	cmp	r6, #0
878016f6:	bfbc      	itt	lt
878016f8:	4276      	neglt	r6, r6
878016fa:	f047 0710 	orrlt.w	r7, r7, #16
878016fe:	2b2e      	cmp	r3, #46	; 0x2e
87801700:	bf18      	it	ne
87801702:	f04f 31ff 	movne.w	r1, #4294967295	; 0xffffffff
87801706:	f000 8098 	beq.w	8780183a <vsnprintf+0x20a>
8780170a:	f003 00df 	and.w	r0, r3, #223	; 0xdf
8780170e:	285a      	cmp	r0, #90	; 0x5a
87801710:	bf18      	it	ne
87801712:	284c      	cmpne	r0, #76	; 0x4c
87801714:	bf0c      	ite	eq
87801716:	2001      	moveq	r0, #1
87801718:	2000      	movne	r0, #0
8780171a:	2b68      	cmp	r3, #104	; 0x68
8780171c:	bf08      	it	eq
8780171e:	f040 0001 	orreq.w	r0, r0, #1
87801722:	2800      	cmp	r0, #0
87801724:	f000 8100 	beq.w	87801928 <vsnprintf+0x2f8>
87801728:	4618      	mov	r0, r3
8780172a:	1c54      	adds	r4, r2, #1
8780172c:	286c      	cmp	r0, #108	; 0x6c
8780172e:	7853      	ldrb	r3, [r2, #1]
87801730:	f000 8098 	beq.w	87801864 <vsnprintf+0x234>
87801734:	3b25      	subs	r3, #37	; 0x25
87801736:	2b53      	cmp	r3, #83	; 0x53
87801738:	f200 81b8 	bhi.w	87801aac <vsnprintf+0x47c>
8780173c:	e8df f013 	tbh	[pc, r3, lsl #1]
87801740:	01b60175 			; <UNDEFINED> instruction: 0x01b60175
87801744:	01b601b6 			; <UNDEFINED> instruction: 0x01b601b6
87801748:	01b601b6 			; <UNDEFINED> instruction: 0x01b601b6
8780174c:	01b601b6 			; <UNDEFINED> instruction: 0x01b601b6
87801750:	01b601b6 			; <UNDEFINED> instruction: 0x01b601b6
87801754:	01b601b6 			; <UNDEFINED> instruction: 0x01b601b6
87801758:	01b601b6 			; <UNDEFINED> instruction: 0x01b601b6
8780175c:	01b601b6 			; <UNDEFINED> instruction: 0x01b601b6
87801760:	01b601b6 			; <UNDEFINED> instruction: 0x01b601b6
87801764:	01b601b6 			; <UNDEFINED> instruction: 0x01b601b6
87801768:	01b601b6 			; <UNDEFINED> instruction: 0x01b601b6
8780176c:	01b601b6 			; <UNDEFINED> instruction: 0x01b601b6
87801770:	01b601b6 			; <UNDEFINED> instruction: 0x01b601b6
87801774:	01b601b6 			; <UNDEFINED> instruction: 0x01b601b6
87801778:	01b601b6 			; <UNDEFINED> instruction: 0x01b601b6
8780177c:	01b601b6 			; <UNDEFINED> instruction: 0x01b601b6
87801780:	01b601b6 			; <UNDEFINED> instruction: 0x01b601b6
87801784:	01b601b6 			; <UNDEFINED> instruction: 0x01b601b6
87801788:	01b601b6 			; <UNDEFINED> instruction: 0x01b601b6
8780178c:	01b601b6 			; <UNDEFINED> instruction: 0x01b601b6
87801790:	01b601b6 			; <UNDEFINED> instruction: 0x01b601b6
87801794:	01b601b6 			; <UNDEFINED> instruction: 0x01b601b6
87801798:	01b601b6 			; <UNDEFINED> instruction: 0x01b601b6
8780179c:	01b601b6 			; <UNDEFINED> instruction: 0x01b601b6
878017a0:	01b601b6 			; <UNDEFINED> instruction: 0x01b601b6
878017a4:	019601b6 			; <UNDEFINED> instruction: 0x019601b6
878017a8:	01b601b6 			; <UNDEFINED> instruction: 0x01b601b6
878017ac:	01b601b6 			; <UNDEFINED> instruction: 0x01b601b6
878017b0:	01b601b6 			; <UNDEFINED> instruction: 0x01b601b6
878017b4:	01b601b6 			; <UNDEFINED> instruction: 0x01b601b6
878017b8:	01b601b6 			; <UNDEFINED> instruction: 0x01b601b6
878017bc:	01a10153 			; <UNDEFINED> instruction: 0x01a10153
878017c0:	01b601b6 			; <UNDEFINED> instruction: 0x01b601b6
878017c4:	01b601b6 			; <UNDEFINED> instruction: 0x01b601b6
878017c8:	01b601a1 			; <UNDEFINED> instruction: 0x01b601a1
878017cc:	01b601b6 			; <UNDEFINED> instruction: 0x01b601b6
878017d0:	01ac01b6 			; <UNDEFINED> instruction: 0x01ac01b6
878017d4:	013d01a6 	teqeq	sp, r6, lsr #3
878017d8:	01b601b6 			; <UNDEFINED> instruction: 0x01b601b6
878017dc:	01b60109 			; <UNDEFINED> instruction: 0x01b60109
878017e0:	01b6017a 			; <UNDEFINED> instruction: 0x01b6017a
878017e4:	01a901b6 			; <UNDEFINED> instruction: 0x01a901b6
878017e8:	426b      	negs	r3, r5
878017ea:	9305      	str	r3, [sp, #20]
878017ec:	2800      	cmp	r0, #0
878017ee:	f000 8096 	beq.w	8780191e <vsnprintf+0x2ee>
878017f2:	f04f 38ff 	mov.w	r8, #4294967295	; 0xffffffff
878017f6:	e731      	b.n	8780165c <vsnprintf+0x2c>
878017f8:	4615      	mov	r5, r2
878017fa:	9b06      	ldr	r3, [sp, #24]
878017fc:	1ae8      	subs	r0, r5, r3
878017fe:	45a8      	cmp	r8, r5
87801800:	f080 808d 	bcs.w	8780191e <vsnprintf+0x2ee>
87801804:	9b05      	ldr	r3, [sp, #20]
87801806:	b113      	cbz	r3, 8780180e <vsnprintf+0x1de>
87801808:	2300      	movs	r3, #0
8780180a:	f888 3000 	strb.w	r3, [r8]
8780180e:	b009      	add	sp, #36	; 0x24
87801810:	e8bd 8ff0 	ldmia.w	sp!, {r4, r5, r6, r7, r8, r9, sl, fp, pc}
87801814:	2600      	movs	r6, #0
87801816:	eb06 0686 	add.w	r6, r6, r6, lsl #2
8780181a:	eb01 0646 	add.w	r6, r1, r6, lsl #1
8780181e:	f812 1f01 	ldrb.w	r1, [r2, #1]!
87801822:	3e30      	subs	r6, #48	; 0x30
87801824:	f819 0001 	ldrb.w	r0, [r9, r1]
87801828:	460b      	mov	r3, r1
8780182a:	0740      	lsls	r0, r0, #29
8780182c:	d4f3      	bmi.n	87801816 <vsnprintf+0x1e6>
8780182e:	2b2e      	cmp	r3, #46	; 0x2e
87801830:	bf18      	it	ne
87801832:	f04f 31ff 	movne.w	r1, #4294967295	; 0xffffffff
87801836:	f47f af68 	bne.w	8780170a <vsnprintf+0xda>
8780183a:	7850      	ldrb	r0, [r2, #1]
8780183c:	1c54      	adds	r4, r2, #1
8780183e:	f819 1000 	ldrb.w	r1, [r9, r0]
87801842:	4603      	mov	r3, r0
87801844:	f011 0104 	ands.w	r1, r1, #4
87801848:	d172      	bne.n	87801930 <vsnprintf+0x300>
8780184a:	282a      	cmp	r0, #42	; 0x2a
8780184c:	bf09      	itett	eq
8780184e:	f8da 1000 	ldreq.w	r1, [sl]
87801852:	4622      	movne	r2, r4
87801854:	7893      	ldrbeq	r3, [r2, #2]
87801856:	f10a 0a04 	addeq.w	sl, sl, #4
8780185a:	bf04      	itt	eq
8780185c:	3202      	addeq	r2, #2
8780185e:	ea21 71e1 	biceq.w	r1, r1, r1, asr #31
87801862:	e752      	b.n	8780170a <vsnprintf+0xda>
87801864:	2b6c      	cmp	r3, #108	; 0x6c
87801866:	f000 8147 	beq.w	87801af8 <vsnprintf+0x4c8>
8780186a:	3b25      	subs	r3, #37	; 0x25
8780186c:	2b53      	cmp	r3, #83	; 0x53
8780186e:	f200 811d 	bhi.w	87801aac <vsnprintf+0x47c>
87801872:	e8df f013 	tbh	[pc, r3, lsl #1]
87801876:	011b00da 	ldrsbeq	r0, [fp, -sl]
8780187a:	011b011b 	tsteq	fp, fp, lsl r1
8780187e:	011b011b 	tsteq	fp, fp, lsl r1
87801882:	011b011b 	tsteq	fp, fp, lsl r1
87801886:	011b011b 	tsteq	fp, fp, lsl r1
8780188a:	011b011b 	tsteq	fp, fp, lsl r1
8780188e:	011b011b 	tsteq	fp, fp, lsl r1
87801892:	011b011b 	tsteq	fp, fp, lsl r1
87801896:	011b011b 	tsteq	fp, fp, lsl r1
8780189a:	011b011b 	tsteq	fp, fp, lsl r1
8780189e:	011b011b 	tsteq	fp, fp, lsl r1
878018a2:	011b011b 	tsteq	fp, fp, lsl r1
878018a6:	011b011b 	tsteq	fp, fp, lsl r1
878018aa:	011b011b 	tsteq	fp, fp, lsl r1
878018ae:	011b011b 	tsteq	fp, fp, lsl r1
878018b2:	011b011b 	tsteq	fp, fp, lsl r1
878018b6:	011b011b 	tsteq	fp, fp, lsl r1
878018ba:	011b011b 	tsteq	fp, fp, lsl r1
878018be:	011b011b 	tsteq	fp, fp, lsl r1
878018c2:	011b011b 	tsteq	fp, fp, lsl r1
878018c6:	011b011b 	tsteq	fp, fp, lsl r1
878018ca:	011b011b 	tsteq	fp, fp, lsl r1
878018ce:	011b011b 	tsteq	fp, fp, lsl r1
878018d2:	011b011b 	tsteq	fp, fp, lsl r1
878018d6:	011b011b 	tsteq	fp, fp, lsl r1
878018da:	0188011b 	orreq	r0, r8, fp, lsl r1
878018de:	011b011b 	tsteq	fp, fp, lsl r1
878018e2:	011b011b 	tsteq	fp, fp, lsl r1
878018e6:	011b011b 	tsteq	fp, fp, lsl r1
878018ea:	011b011b 	tsteq	fp, fp, lsl r1
878018ee:	011b011b 	tsteq	fp, fp, lsl r1
878018f2:	018100b8 	strheq	r0, [r1, r8]
878018f6:	011b011b 	tsteq	fp, fp, lsl r1
878018fa:	011b011b 	tsteq	fp, fp, lsl r1
878018fe:	011b0181 	tsteq	fp, r1, lsl #3
87801902:	011b011b 	tsteq	fp, fp, lsl r1
87801906:	012d011b 	teqeq	sp, fp, lsl r1
8780190a:	00a2018f 	adceq	r0, r2, pc, lsl #3
8780190e:	011b011b 	tsteq	fp, fp, lsl r1
87801912:	011b006e 	tsteq	fp, lr, rrx
87801916:	011b0194 			; <UNDEFINED> instruction: 0x011b0194
8780191a:	0136011b 	teqeq	r6, fp, lsl r1
8780191e:	2300      	movs	r3, #0
87801920:	702b      	strb	r3, [r5, #0]
87801922:	b009      	add	sp, #36	; 0x24
87801924:	e8bd 8ff0 	ldmia.w	sp!, {r4, r5, r6, r7, r8, r9, sl, fp, pc}
87801928:	4614      	mov	r4, r2
8780192a:	f04f 30ff 	mov.w	r0, #4294967295	; 0xffffffff
8780192e:	e701      	b.n	87801734 <vsnprintf+0x104>
87801930:	2100      	movs	r1, #0
87801932:	f814 3f01 	ldrb.w	r3, [r4, #1]!
87801936:	eb01 0181 	add.w	r1, r1, r1, lsl #2
8780193a:	eb00 0141 	add.w	r1, r0, r1, lsl #1
8780193e:	f819 2003 	ldrb.w	r2, [r9, r3]
87801942:	4618      	mov	r0, r3
87801944:	3930      	subs	r1, #48	; 0x30
87801946:	0752      	lsls	r2, r2, #29
87801948:	d4f3      	bmi.n	87801932 <vsnprintf+0x302>
8780194a:	ea21 71e1 	bic.w	r1, r1, r1, asr #31
8780194e:	4622      	mov	r2, r4
87801950:	e6db      	b.n	8780170a <vsnprintf+0xda>
87801952:	f8da b000 	ldr.w	fp, [sl]
87801956:	f10a 0a04 	add.w	sl, sl, #4
8780195a:	9b07      	ldr	r3, [sp, #28]
8780195c:	f5bb 6f80 	cmp.w	fp, #1024	; 0x400
87801960:	bf38      	it	cc
87801962:	469b      	movcc	fp, r3
87801964:	4658      	mov	r0, fp
87801966:	f7ff f991 	bl	87800c8c <strnlen>
8780196a:	06f9      	lsls	r1, r7, #27
8780196c:	f106 33ff 	add.w	r3, r6, #4294967295	; 0xffffffff
87801970:	f140 80d8 	bpl.w	87801b24 <vsnprintf+0x4f4>
87801974:	2800      	cmp	r0, #0
87801976:	bfd8      	it	le
87801978:	462a      	movle	r2, r5
8780197a:	dd0d      	ble.n	87801998 <vsnprintf+0x368>
8780197c:	182a      	adds	r2, r5, r0
8780197e:	4545      	cmp	r5, r8
87801980:	f105 0501 	add.w	r5, r5, #1
87801984:	bf98      	it	ls
87801986:	f89b 1000 	ldrbls.w	r1, [fp]
8780198a:	f10b 0b01 	add.w	fp, fp, #1
8780198e:	bf98      	it	ls
87801990:	f805 1c01 	strbls.w	r1, [r5, #-1]
87801994:	4295      	cmp	r5, r2
87801996:	d1f2      	bne.n	8780197e <vsnprintf+0x34e>
87801998:	4286      	cmp	r6, r0
8780199a:	4615      	mov	r5, r2
8780199c:	bfc2      	ittt	gt
8780199e:	3301      	addgt	r3, #1
878019a0:	2120      	movgt	r1, #32
878019a2:	18d2      	addgt	r2, r2, r3
878019a4:	dd60      	ble.n	87801a68 <vsnprintf+0x438>
878019a6:	4545      	cmp	r5, r8
878019a8:	f105 0501 	add.w	r5, r5, #1
878019ac:	bf98      	it	ls
878019ae:	f805 1c01 	strbls.w	r1, [r5, #-1]
878019b2:	1b53      	subs	r3, r2, r5
878019b4:	4298      	cmp	r0, r3
878019b6:	dbf6      	blt.n	878019a6 <vsnprintf+0x376>
878019b8:	e056      	b.n	87801a68 <vsnprintf+0x438>
878019ba:	1c72      	adds	r2, r6, #1
878019bc:	f8da 2000 	ldr.w	r2, [sl]
878019c0:	bf04      	itt	eq
878019c2:	f047 0701 	orreq.w	r7, r7, #1
878019c6:	2608      	moveq	r6, #8
878019c8:	9102      	str	r1, [sp, #8]
878019ca:	2110      	movs	r1, #16
878019cc:	4628      	mov	r0, r5
878019ce:	9100      	str	r1, [sp, #0]
878019d0:	9703      	str	r7, [sp, #12]
878019d2:	2300      	movs	r3, #0
878019d4:	9601      	str	r6, [sp, #4]
878019d6:	4641      	mov	r1, r8
878019d8:	f7ff fae0 	bl	87800f9c <number>
878019dc:	f10a 0a04 	add.w	sl, sl, #4
878019e0:	4605      	mov	r5, r0
878019e2:	7860      	ldrb	r0, [r4, #1]
878019e4:	e649      	b.n	8780167a <vsnprintf+0x4a>
878019e6:	06f8      	lsls	r0, r7, #27
878019e8:	f106 31ff 	add.w	r1, r6, #4294967295	; 0xffffffff
878019ec:	f140 80af 	bpl.w	87801b4e <vsnprintf+0x51e>
878019f0:	4545      	cmp	r5, r8
878019f2:	f10a 0604 	add.w	r6, sl, #4
878019f6:	bf98      	it	ls
878019f8:	f8da 3000 	ldrls.w	r3, [sl]
878019fc:	f105 0001 	add.w	r0, r5, #1
87801a00:	bf98      	it	ls
87801a02:	702b      	strbls	r3, [r5, #0]
87801a04:	2900      	cmp	r1, #0
87801a06:	f340 80cf 	ble.w	87801ba8 <vsnprintf+0x578>
87801a0a:	1c4a      	adds	r2, r1, #1
87801a0c:	4603      	mov	r3, r0
87801a0e:	4415      	add	r5, r2
87801a10:	2220      	movs	r2, #32
87801a12:	4543      	cmp	r3, r8
87801a14:	f103 0301 	add.w	r3, r3, #1
87801a18:	bf98      	it	ls
87801a1a:	f803 2c01 	strbls.w	r2, [r3, #-1]
87801a1e:	42ab      	cmp	r3, r5
87801a20:	d1f7      	bne.n	87801a12 <vsnprintf+0x3e2>
87801a22:	1845      	adds	r5, r0, r1
87801a24:	46b2      	mov	sl, r6
87801a26:	7860      	ldrb	r0, [r4, #1]
87801a28:	e627      	b.n	8780167a <vsnprintf+0x4a>
87801a2a:	45a8      	cmp	r8, r5
87801a2c:	bf24      	itt	cs
87801a2e:	2325      	movcs	r3, #37	; 0x25
87801a30:	702b      	strbcs	r3, [r5, #0]
87801a32:	e620      	b.n	87801676 <vsnprintf+0x46>
87801a34:	f04f 0c0a 	mov.w	ip, #10
87801a38:	284c      	cmp	r0, #76	; 0x4c
87801a3a:	d01d      	beq.n	87801a78 <vsnprintf+0x448>
87801a3c:	286c      	cmp	r0, #108	; 0x6c
87801a3e:	f10a 0e04 	add.w	lr, sl, #4
87801a42:	d052      	beq.n	87801aea <vsnprintf+0x4ba>
87801a44:	f020 0320 	bic.w	r3, r0, #32
87801a48:	2b5a      	cmp	r3, #90	; 0x5a
87801a4a:	d159      	bne.n	87801b00 <vsnprintf+0x4d0>
87801a4c:	f8da 2000 	ldr.w	r2, [sl]
87801a50:	46f2      	mov	sl, lr
87801a52:	2300      	movs	r3, #0
87801a54:	e9cd 1702 	strd	r1, r7, [sp, #8]
87801a58:	4628      	mov	r0, r5
87801a5a:	9601      	str	r6, [sp, #4]
87801a5c:	4641      	mov	r1, r8
87801a5e:	f8cd c000 	str.w	ip, [sp]
87801a62:	f7ff fa9b 	bl	87800f9c <number>
87801a66:	4605      	mov	r5, r0
87801a68:	7860      	ldrb	r0, [r4, #1]
87801a6a:	e606      	b.n	8780167a <vsnprintf+0x4a>
87801a6c:	284c      	cmp	r0, #76	; 0x4c
87801a6e:	f047 0740 	orr.w	r7, r7, #64	; 0x40
87801a72:	f04f 0c10 	mov.w	ip, #16
87801a76:	d1e1      	bne.n	87801a3c <vsnprintf+0x40c>
87801a78:	e9da 2300 	ldrd	r2, r3, [sl]
87801a7c:	f10a 0a08 	add.w	sl, sl, #8
87801a80:	e7e8      	b.n	87801a54 <vsnprintf+0x424>
87801a82:	f047 0702 	orr.w	r7, r7, #2
87801a86:	f04f 0c0a 	mov.w	ip, #10
87801a8a:	e7d5      	b.n	87801a38 <vsnprintf+0x408>
87801a8c:	f04f 0c08 	mov.w	ip, #8
87801a90:	e7d2      	b.n	87801a38 <vsnprintf+0x408>
87801a92:	f04f 0c10 	mov.w	ip, #16
87801a96:	e7cf      	b.n	87801a38 <vsnprintf+0x408>
87801a98:	9b06      	ldr	r3, [sp, #24]
87801a9a:	f8da 2000 	ldr.w	r2, [sl]
87801a9e:	1ae9      	subs	r1, r5, r3
87801aa0:	f10a 0304 	add.w	r3, sl, #4
87801aa4:	6011      	str	r1, [r2, #0]
87801aa6:	469a      	mov	sl, r3
87801aa8:	7860      	ldrb	r0, [r4, #1]
87801aaa:	e5e6      	b.n	8780167a <vsnprintf+0x4a>
87801aac:	45a8      	cmp	r8, r5
87801aae:	f105 0201 	add.w	r2, r5, #1
87801ab2:	bf24      	itt	cs
87801ab4:	2325      	movcs	r3, #37	; 0x25
87801ab6:	702b      	strbcs	r3, [r5, #0]
87801ab8:	7823      	ldrb	r3, [r4, #0]
87801aba:	2b00      	cmp	r3, #0
87801abc:	f43f ae9c 	beq.w	878017f8 <vsnprintf+0x1c8>
87801ac0:	4542      	cmp	r2, r8
87801ac2:	f105 0502 	add.w	r5, r5, #2
87801ac6:	bf98      	it	ls
87801ac8:	f805 3c01 	strbls.w	r3, [r5, #-1]
87801acc:	7860      	ldrb	r0, [r4, #1]
87801ace:	e5d4      	b.n	8780167a <vsnprintf+0x4a>
87801ad0:	9906      	ldr	r1, [sp, #24]
87801ad2:	f10a 0a04 	add.w	sl, sl, #4
87801ad6:	f85a 3c04 	ldr.w	r3, [sl, #-4]
87801ada:	1a69      	subs	r1, r5, r1
87801adc:	6019      	str	r1, [r3, #0]
87801ade:	7890      	ldrb	r0, [r2, #2]
87801ae0:	e5cb      	b.n	8780167a <vsnprintf+0x4a>
87801ae2:	f10a 0e04 	add.w	lr, sl, #4
87801ae6:	f04f 0c10 	mov.w	ip, #16
87801aea:	07bb      	lsls	r3, r7, #30
87801aec:	f8da 2000 	ldr.w	r2, [sl]
87801af0:	46f2      	mov	sl, lr
87801af2:	d5ae      	bpl.n	87801a52 <vsnprintf+0x422>
87801af4:	17d3      	asrs	r3, r2, #31
87801af6:	e7ad      	b.n	87801a54 <vsnprintf+0x424>
87801af8:	1c94      	adds	r4, r2, #2
87801afa:	7893      	ldrb	r3, [r2, #2]
87801afc:	204c      	movs	r0, #76	; 0x4c
87801afe:	e619      	b.n	87801734 <vsnprintf+0x104>
87801b00:	2868      	cmp	r0, #104	; 0x68
87801b02:	f8da 2000 	ldr.w	r2, [sl]
87801b06:	f007 0302 	and.w	r3, r7, #2
87801b0a:	46f2      	mov	sl, lr
87801b0c:	d006      	beq.n	87801b1c <vsnprintf+0x4ec>
87801b0e:	2b00      	cmp	r3, #0
87801b10:	d1f0      	bne.n	87801af4 <vsnprintf+0x4c4>
87801b12:	e79e      	b.n	87801a52 <vsnprintf+0x422>
87801b14:	2000      	movs	r0, #0
87801b16:	b009      	add	sp, #36	; 0x24
87801b18:	e8bd 8ff0 	ldmia.w	sp!, {r4, r5, r6, r7, r8, r9, sl, fp, pc}
87801b1c:	b34b      	cbz	r3, 87801b72 <vsnprintf+0x542>
87801b1e:	b212      	sxth	r2, r2
87801b20:	17d3      	asrs	r3, r2, #31
87801b22:	e797      	b.n	87801a54 <vsnprintf+0x424>
87801b24:	4286      	cmp	r6, r0
87801b26:	bfde      	ittt	le
87801b28:	1eb2      	suble	r2, r6, #2
87801b2a:	461e      	movle	r6, r3
87801b2c:	4613      	movle	r3, r2
87801b2e:	f77f af21 	ble.w	87801974 <vsnprintf+0x344>
87801b32:	1a33      	subs	r3, r6, r0
87801b34:	2220      	movs	r2, #32
87801b36:	442b      	add	r3, r5
87801b38:	4545      	cmp	r5, r8
87801b3a:	f105 0501 	add.w	r5, r5, #1
87801b3e:	bf98      	it	ls
87801b40:	f805 2c01 	strbls.w	r2, [r5, #-1]
87801b44:	429d      	cmp	r5, r3
87801b46:	d1f7      	bne.n	87801b38 <vsnprintf+0x508>
87801b48:	1e46      	subs	r6, r0, #1
87801b4a:	1e73      	subs	r3, r6, #1
87801b4c:	e712      	b.n	87801974 <vsnprintf+0x344>
87801b4e:	2900      	cmp	r1, #0
87801b50:	bfd8      	it	le
87801b52:	1eb1      	suble	r1, r6, #2
87801b54:	f77f af4c 	ble.w	878019f0 <vsnprintf+0x3c0>
87801b58:	4429      	add	r1, r5
87801b5a:	2320      	movs	r3, #32
87801b5c:	4545      	cmp	r5, r8
87801b5e:	f105 0501 	add.w	r5, r5, #1
87801b62:	bf98      	it	ls
87801b64:	f805 3c01 	strbls.w	r3, [r5, #-1]
87801b68:	428d      	cmp	r5, r1
87801b6a:	d1f7      	bne.n	87801b5c <vsnprintf+0x52c>
87801b6c:	f04f 31ff 	mov.w	r1, #4294967295	; 0xffffffff
87801b70:	e73e      	b.n	878019f0 <vsnprintf+0x3c0>
87801b72:	b292      	uxth	r2, r2
87801b74:	2300      	movs	r3, #0
87801b76:	e76d      	b.n	87801a54 <vsnprintf+0x424>
87801b78:	f047 0702 	orr.w	r7, r7, #2
87801b7c:	f10a 0e04 	add.w	lr, sl, #4
87801b80:	f04f 0c0a 	mov.w	ip, #10
87801b84:	e7b1      	b.n	87801aea <vsnprintf+0x4ba>
87801b86:	f047 0740 	orr.w	r7, r7, #64	; 0x40
87801b8a:	f10a 0e04 	add.w	lr, sl, #4
87801b8e:	f04f 0c10 	mov.w	ip, #16
87801b92:	e7aa      	b.n	87801aea <vsnprintf+0x4ba>
87801b94:	f10a 0e04 	add.w	lr, sl, #4
87801b98:	f04f 0c08 	mov.w	ip, #8
87801b9c:	e7a5      	b.n	87801aea <vsnprintf+0x4ba>
87801b9e:	f10a 0e04 	add.w	lr, sl, #4
87801ba2:	f04f 0c0a 	mov.w	ip, #10
87801ba6:	e7a0      	b.n	87801aea <vsnprintf+0x4ba>
87801ba8:	4605      	mov	r5, r0
87801baa:	46b2      	mov	sl, r6
87801bac:	7860      	ldrb	r0, [r4, #1]
87801bae:	e564      	b.n	8780167a <vsnprintf+0x4a>

87801bb0 <vscnprintf>:
87801bb0:	b510      	push	{r4, lr}
87801bb2:	460c      	mov	r4, r1
87801bb4:	f7ff fd3c 	bl	87801630 <vsnprintf>
87801bb8:	42a0      	cmp	r0, r4
87801bba:	bf28      	it	cs
87801bbc:	f104 30ff 	addcs.w	r0, r4, #4294967295	; 0xffffffff
87801bc0:	bd10      	pop	{r4, pc}
87801bc2:	bf00      	nop

87801bc4 <snprintf>:
87801bc4:	b40c      	push	{r2, r3}
87801bc6:	b508      	push	{r3, lr}
87801bc8:	ab03      	add	r3, sp, #12
87801bca:	9a02      	ldr	r2, [sp, #8]
87801bcc:	f7ff fd30 	bl	87801630 <vsnprintf>
87801bd0:	e8bd 4008 	ldmia.w	sp!, {r3, lr}
87801bd4:	b002      	add	sp, #8
87801bd6:	4770      	bx	lr

87801bd8 <scnprintf>:
87801bd8:	b40c      	push	{r2, r3}
87801bda:	b510      	push	{r4, lr}
87801bdc:	460c      	mov	r4, r1
87801bde:	ab03      	add	r3, sp, #12
87801be0:	9a02      	ldr	r2, [sp, #8]
87801be2:	f7ff fd25 	bl	87801630 <vsnprintf>
87801be6:	42a0      	cmp	r0, r4
87801be8:	bf28      	it	cs
87801bea:	f104 30ff 	addcs.w	r0, r4, #4294967295	; 0xffffffff
87801bee:	e8bd 4010 	ldmia.w	sp!, {r4, lr}
87801bf2:	b002      	add	sp, #8
87801bf4:	4770      	bx	lr
87801bf6:	bf00      	nop

87801bf8 <vsprintf>:
87801bf8:	4613      	mov	r3, r2
87801bfa:	460a      	mov	r2, r1
87801bfc:	f06f 4100 	mvn.w	r1, #2147483648	; 0x80000000
87801c00:	f7ff bd16 	b.w	87801630 <vsnprintf>

87801c04 <sprintf>:
87801c04:	b40e      	push	{r1, r2, r3}
87801c06:	f06f 4100 	mvn.w	r1, #2147483648	; 0x80000000
87801c0a:	b500      	push	{lr}
87801c0c:	ab02      	add	r3, sp, #8
87801c0e:	9a01      	ldr	r2, [sp, #4]
87801c10:	f7ff fd0e 	bl	87801630 <vsnprintf>
87801c14:	f85d eb04 	ldr.w	lr, [sp], #4
87801c18:	b003      	add	sp, #12
87801c1a:	4770      	bx	lr

87801c1c <vsscanf>:
87801c1c:	e92d 47f0 	stmdb	sp!, {r4, r5, r6, r7, r8, r9, sl, lr}
87801c20:	f642 241c 	movw	r4, #10780	; 0x2a1c
87801c24:	780b      	ldrb	r3, [r1, #0]
87801c26:	b082      	sub	sp, #8
87801c28:	4680      	mov	r8, r0
87801c2a:	460d      	mov	r5, r1
87801c2c:	f2c8 7480 	movt	r4, #34688	; 0x8780
87801c30:	2700      	movs	r7, #0
87801c32:	b143      	cbz	r3, 87801c46 <vsscanf+0x2a>
87801c34:	7806      	ldrb	r6, [r0, #0]
87801c36:	b136      	cbz	r6, 87801c46 <vsscanf+0x2a>
87801c38:	5ce1      	ldrb	r1, [r4, r3]
87801c3a:	0689      	lsls	r1, r1, #26
87801c3c:	d407      	bmi.n	87801c4e <vsscanf+0x32>
87801c3e:	2b25      	cmp	r3, #37	; 0x25
87801c40:	d01f      	beq.n	87801c82 <vsscanf+0x66>
87801c42:	42b3      	cmp	r3, r6
87801c44:	d017      	beq.n	87801c76 <vsscanf+0x5a>
87801c46:	4638      	mov	r0, r7
87801c48:	b002      	add	sp, #8
87801c4a:	e8bd 87f0 	ldmia.w	sp!, {r4, r5, r6, r7, r8, r9, sl, pc}
87801c4e:	f815 3f01 	ldrb.w	r3, [r5, #1]!
87801c52:	5ce1      	ldrb	r1, [r4, r3]
87801c54:	0689      	lsls	r1, r1, #26
87801c56:	d4fa      	bmi.n	87801c4e <vsscanf+0x32>
87801c58:	5da1      	ldrb	r1, [r4, r6]
87801c5a:	068e      	lsls	r6, r1, #26
87801c5c:	d504      	bpl.n	87801c68 <vsscanf+0x4c>
87801c5e:	f810 1f01 	ldrb.w	r1, [r0, #1]!
87801c62:	5c61      	ldrb	r1, [r4, r1]
87801c64:	0689      	lsls	r1, r1, #26
87801c66:	d4fa      	bmi.n	87801c5e <vsscanf+0x42>
87801c68:	2b25      	cmp	r3, #37	; 0x25
87801c6a:	bf18      	it	ne
87801c6c:	2b00      	cmpne	r3, #0
87801c6e:	d006      	beq.n	87801c7e <vsscanf+0x62>
87801c70:	7806      	ldrb	r6, [r0, #0]
87801c72:	42b3      	cmp	r3, r6
87801c74:	d1e7      	bne.n	87801c46 <vsscanf+0x2a>
87801c76:	786b      	ldrb	r3, [r5, #1]
87801c78:	3001      	adds	r0, #1
87801c7a:	3501      	adds	r5, #1
87801c7c:	e7d9      	b.n	87801c32 <vsscanf+0x16>
87801c7e:	2b00      	cmp	r3, #0
87801c80:	d0e1      	beq.n	87801c46 <vsscanf+0x2a>
87801c82:	786b      	ldrb	r3, [r5, #1]
87801c84:	3501      	adds	r5, #1
87801c86:	2b2a      	cmp	r3, #42	; 0x2a
87801c88:	461e      	mov	r6, r3
87801c8a:	5ce1      	ldrb	r1, [r4, r3]
87801c8c:	f000 81f5 	beq.w	8780207a <vsscanf+0x45e>
87801c90:	0749      	lsls	r1, r1, #29
87801c92:	bf58      	it	pl
87801c94:	f04f 31ff 	movpl.w	r1, #4294967295	; 0xffffffff
87801c98:	f100 80d0 	bmi.w	87801e3c <vsscanf+0x220>
87801c9c:	f003 06df 	and.w	r6, r3, #223	; 0xdf
87801ca0:	2e5a      	cmp	r6, #90	; 0x5a
87801ca2:	bf18      	it	ne
87801ca4:	2e4c      	cmpne	r6, #76	; 0x4c
87801ca6:	bf0c      	ite	eq
87801ca8:	2601      	moveq	r6, #1
87801caa:	2600      	movne	r6, #0
87801cac:	2b68      	cmp	r3, #104	; 0x68
87801cae:	bf08      	it	eq
87801cb0:	f046 0601 	orreq.w	r6, r6, #1
87801cb4:	2e00      	cmp	r6, #0
87801cb6:	f000 81db 	beq.w	87802070 <vsscanf+0x454>
87801cba:	f895 c001 	ldrb.w	ip, [r5, #1]
87801cbe:	f105 0901 	add.w	r9, r5, #1
87801cc2:	459c      	cmp	ip, r3
87801cc4:	f000 8193 	beq.w	87801fee <vsscanf+0x3d2>
87801cc8:	f1bc 0f00 	cmp.w	ip, #0
87801ccc:	d0bb      	beq.n	87801c46 <vsscanf+0x2a>
87801cce:	7806      	ldrb	r6, [r0, #0]
87801cd0:	2e00      	cmp	r6, #0
87801cd2:	d0b8      	beq.n	87801c46 <vsscanf+0x2a>
87801cd4:	f1ac 0c25 	sub.w	ip, ip, #37	; 0x25
87801cd8:	f109 0501 	add.w	r5, r9, #1
87801cdc:	f1bc 0f53 	cmp.w	ip, #83	; 0x53
87801ce0:	d8b1      	bhi.n	87801c46 <vsscanf+0x2a>
87801ce2:	f20f 0e08 	addw	lr, pc, #8
87801ce6:	f85e f02c 	ldr.w	pc, [lr, ip, lsl #2]
87801cea:	bf00      	nop
87801cec:	87801f27 	strhi	r1, [r0, r7, lsr #30]
87801cf0:	87801c47 	strhi	r1, [r0, r7, asr #24]
87801cf4:	87801c47 	strhi	r1, [r0, r7, asr #24]
87801cf8:	87801c47 	strhi	r1, [r0, r7, asr #24]
87801cfc:	87801c47 	strhi	r1, [r0, r7, asr #24]
87801d00:	87801c47 	strhi	r1, [r0, r7, asr #24]
87801d04:	87801c47 	strhi	r1, [r0, r7, asr #24]
87801d08:	87801c47 	strhi	r1, [r0, r7, asr #24]
87801d0c:	87801c47 	strhi	r1, [r0, r7, asr #24]
87801d10:	87801c47 	strhi	r1, [r0, r7, asr #24]
87801d14:	87801c47 	strhi	r1, [r0, r7, asr #24]
87801d18:	87801c47 	strhi	r1, [r0, r7, asr #24]
87801d1c:	87801c47 	strhi	r1, [r0, r7, asr #24]
87801d20:	87801c47 	strhi	r1, [r0, r7, asr #24]
87801d24:	87801c47 	strhi	r1, [r0, r7, asr #24]
87801d28:	87801c47 	strhi	r1, [r0, r7, asr #24]
87801d2c:	87801c47 	strhi	r1, [r0, r7, asr #24]
87801d30:	87801c47 	strhi	r1, [r0, r7, asr #24]
87801d34:	87801c47 	strhi	r1, [r0, r7, asr #24]
87801d38:	87801c47 	strhi	r1, [r0, r7, asr #24]
87801d3c:	87801c47 	strhi	r1, [r0, r7, asr #24]
87801d40:	87801c47 	strhi	r1, [r0, r7, asr #24]
87801d44:	87801c47 	strhi	r1, [r0, r7, asr #24]
87801d48:	87801c47 	strhi	r1, [r0, r7, asr #24]
87801d4c:	87801c47 	strhi	r1, [r0, r7, asr #24]
87801d50:	87801c47 	strhi	r1, [r0, r7, asr #24]
87801d54:	87801c47 	strhi	r1, [r0, r7, asr #24]
87801d58:	87801c47 	strhi	r1, [r0, r7, asr #24]
87801d5c:	87801c47 	strhi	r1, [r0, r7, asr #24]
87801d60:	87801c47 	strhi	r1, [r0, r7, asr #24]
87801d64:	87801c47 	strhi	r1, [r0, r7, asr #24]
87801d68:	87801c47 	strhi	r1, [r0, r7, asr #24]
87801d6c:	87801c47 	strhi	r1, [r0, r7, asr #24]
87801d70:	87801c47 	strhi	r1, [r0, r7, asr #24]
87801d74:	87801c47 	strhi	r1, [r0, r7, asr #24]
87801d78:	87801c47 	strhi	r1, [r0, r7, asr #24]
87801d7c:	87801c47 	strhi	r1, [r0, r7, asr #24]
87801d80:	87801c47 	strhi	r1, [r0, r7, asr #24]
87801d84:	87801c47 	strhi	r1, [r0, r7, asr #24]
87801d88:	87801c47 	strhi	r1, [r0, r7, asr #24]
87801d8c:	87801c47 	strhi	r1, [r0, r7, asr #24]
87801d90:	87801c47 	strhi	r1, [r0, r7, asr #24]
87801d94:	87801c47 	strhi	r1, [r0, r7, asr #24]
87801d98:	87801c47 	strhi	r1, [r0, r7, asr #24]
87801d9c:	87801c47 	strhi	r1, [r0, r7, asr #24]
87801da0:	87801c47 	strhi	r1, [r0, r7, asr #24]
87801da4:	87801c47 	strhi	r1, [r0, r7, asr #24]
87801da8:	87801c47 	strhi	r1, [r0, r7, asr #24]
87801dac:	87801c47 	strhi	r1, [r0, r7, asr #24]
87801db0:	87801c47 	strhi	r1, [r0, r7, asr #24]
87801db4:	87801c47 	strhi	r1, [r0, r7, asr #24]
87801db8:	87801fd7 			; <UNDEFINED> instruction: 0x87801fd7
87801dbc:	87801c47 	strhi	r1, [r0, r7, asr #24]
87801dc0:	87801c47 	strhi	r1, [r0, r7, asr #24]
87801dc4:	87801c47 	strhi	r1, [r0, r7, asr #24]
87801dc8:	87801c47 	strhi	r1, [r0, r7, asr #24]
87801dcc:	87801c47 	strhi	r1, [r0, r7, asr #24]
87801dd0:	87801c47 	strhi	r1, [r0, r7, asr #24]
87801dd4:	87801c47 	strhi	r1, [r0, r7, asr #24]
87801dd8:	87801c47 	strhi	r1, [r0, r7, asr #24]
87801ddc:	87801c47 	strhi	r1, [r0, r7, asr #24]
87801de0:	87801c47 	strhi	r1, [r0, r7, asr #24]
87801de4:	87801fab 	strhi	r1, [r0, fp, lsr #31]
87801de8:	87801e5b 			; <UNDEFINED> instruction: 0x87801e5b
87801dec:	87801c47 	strhi	r1, [r0, r7, asr #24]
87801df0:	87801c47 	strhi	r1, [r0, r7, asr #24]
87801df4:	87801c47 	strhi	r1, [r0, r7, asr #24]
87801df8:	87801c47 	strhi	r1, [r0, r7, asr #24]
87801dfc:	87801fe3 	strhi	r1, [r0, r3, ror #31]
87801e00:	87801c47 	strhi	r1, [r0, r7, asr #24]
87801e04:	87801c47 	strhi	r1, [r0, r7, asr #24]
87801e08:	87801c47 	strhi	r1, [r0, r7, asr #24]
87801e0c:	87801c47 	strhi	r1, [r0, r7, asr #24]
87801e10:	87801f35 			; <UNDEFINED> instruction: 0x87801f35
87801e14:	87801f45 	strhi	r1, [r0, r5, asr #30]
87801e18:	87801c47 	strhi	r1, [r0, r7, asr #24]
87801e1c:	87801c47 	strhi	r1, [r0, r7, asr #24]
87801e20:	87801c47 	strhi	r1, [r0, r7, asr #24]
87801e24:	87801f51 			; <UNDEFINED> instruction: 0x87801f51
87801e28:	87801c47 	strhi	r1, [r0, r7, asr #24]
87801e2c:	87801f9f 			; <UNDEFINED> instruction: 0x87801f9f
87801e30:	87801c47 	strhi	r1, [r0, r7, asr #24]
87801e34:	87801c47 	strhi	r1, [r0, r7, asr #24]
87801e38:	87801fd7 			; <UNDEFINED> instruction: 0x87801fd7
87801e3c:	2100      	movs	r1, #0
87801e3e:	eb01 0181 	add.w	r1, r1, r1, lsl #2
87801e42:	eb06 0141 	add.w	r1, r6, r1, lsl #1
87801e46:	f815 6f01 	ldrb.w	r6, [r5, #1]!
87801e4a:	3930      	subs	r1, #48	; 0x30
87801e4c:	f814 c006 	ldrb.w	ip, [r4, r6]
87801e50:	4633      	mov	r3, r6
87801e52:	f01c 0f04 	tst.w	ip, #4
87801e56:	d1f2      	bne.n	87801e3e <vsscanf+0x222>
87801e58:	e720      	b.n	87801c9c <vsscanf+0x80>
87801e5a:	f04f 0a01 	mov.w	sl, #1
87801e5e:	f04f 0c0a 	mov.w	ip, #10
87801e62:	46d6      	mov	lr, sl
87801e64:	5da1      	ldrb	r1, [r4, r6]
87801e66:	0689      	lsls	r1, r1, #26
87801e68:	f140 8127 	bpl.w	878020ba <vsscanf+0x49e>
87801e6c:	f810 6f01 	ldrb.w	r6, [r0, #1]!
87801e70:	5da1      	ldrb	r1, [r4, r6]
87801e72:	0689      	lsls	r1, r1, #26
87801e74:	d4fa      	bmi.n	87801e6c <vsscanf+0x250>
87801e76:	2e2d      	cmp	r6, #45	; 0x2d
87801e78:	bf14      	ite	ne
87801e7a:	2100      	movne	r1, #0
87801e7c:	f00a 0101 	andeq.w	r1, sl, #1
87801e80:	b101      	cbz	r1, 87801e84 <vsscanf+0x268>
87801e82:	7846      	ldrb	r6, [r0, #1]
87801e84:	2e00      	cmp	r6, #0
87801e86:	f43f aede 	beq.w	87801c46 <vsscanf+0x2a>
87801e8a:	f1bc 0f10 	cmp.w	ip, #16
87801e8e:	f000 80e9 	beq.w	87802064 <vsscanf+0x448>
87801e92:	f1bc 0f0a 	cmp.w	ip, #10
87801e96:	f000 80e0 	beq.w	8780205a <vsscanf+0x43e>
87801e9a:	f1bc 0f08 	cmp.w	ip, #8
87801e9e:	f040 80d8 	bne.w	87802052 <vsscanf+0x436>
87801ea2:	5da1      	ldrb	r1, [r4, r6]
87801ea4:	f081 0104 	eor.w	r1, r1, #4
87801ea8:	f3c1 0180 	ubfx	r1, r1, #2, #1
87801eac:	2e37      	cmp	r6, #55	; 0x37
87801eae:	bf94      	ite	ls
87801eb0:	460e      	movls	r6, r1
87801eb2:	f041 0601 	orrhi.w	r6, r1, #1
87801eb6:	2e00      	cmp	r6, #0
87801eb8:	f47f aec5 	bne.w	87801c46 <vsscanf+0x2a>
87801ebc:	3b48      	subs	r3, #72	; 0x48
87801ebe:	1d16      	adds	r6, r2, #4
87801ec0:	f8d2 a000 	ldr.w	sl, [r2]
87801ec4:	2b32      	cmp	r3, #50	; 0x32
87801ec6:	d81b      	bhi.n	87801f00 <vsscanf+0x2e4>
87801ec8:	e8df f003 	tbb	[pc, r3]
87801ecc:	1a1a1ab9 	bne	87e889b8 <__bss_end+0x685190>
87801ed0:	1a1a1aaf 	bne	87e88994 <__bss_end+0x68516c>
87801ed4:	1a1a1a1a 	bne	87e88744 <__bss_end+0x684f1c>
87801ed8:	1a1a1a1a 	bne	87e88748 <__bss_end+0x684f20>
87801edc:	1aa81a1a 	bne	8620874c <shift+0x8620874c>
87801ee0:	1a1a1a1a 	bne	87e88750 <__bss_end+0x684f28>
87801ee4:	1a1a1a1a 	bne	87e88754 <__bss_end+0x684f2c>
87801ee8:	1a1a1a1a 	bne	87e88758 <__bss_end+0x684f30>
87801eec:	1a1a1a9e 	bne	87e8896c <__bss_end+0x685144>
87801ef0:	1a1a1a1a 	bne	87e88760 <__bss_end+0x684f38>
87801ef4:	1a1a1a1a 	bne	87e88764 <__bss_end+0x684f3c>
87801ef8:	1a1a1a1a 	bne	87e88768 <__bss_end+0x684f40>
87801efc:	00a81a1a 	adceq	r1, r8, sl, lsl sl
87801f00:	4662      	mov	r2, ip
87801f02:	a901      	add	r1, sp, #4
87801f04:	f1be 0f00 	cmp.w	lr, #0
87801f08:	f000 80d2 	beq.w	878020b0 <vsscanf+0x494>
87801f0c:	f7ff fadc 	bl	878014c8 <simple_strtol>
87801f10:	f8ca 0000 	str.w	r0, [sl]
87801f14:	9801      	ldr	r0, [sp, #4]
87801f16:	3701      	adds	r7, #1
87801f18:	2800      	cmp	r0, #0
87801f1a:	f43f ae94 	beq.w	87801c46 <vsscanf+0x2a>
87801f1e:	f899 3001 	ldrb.w	r3, [r9, #1]
87801f22:	4632      	mov	r2, r6
87801f24:	e685      	b.n	87801c32 <vsscanf+0x16>
87801f26:	2e25      	cmp	r6, #37	; 0x25
87801f28:	f47f ae8d 	bne.w	87801c46 <vsscanf+0x2a>
87801f2c:	3001      	adds	r0, #1
87801f2e:	f899 3001 	ldrb.w	r3, [r9, #1]
87801f32:	e67e      	b.n	87801c32 <vsscanf+0x16>
87801f34:	6813      	ldr	r3, [r2, #0]
87801f36:	eba0 0108 	sub.w	r1, r0, r8
87801f3a:	3204      	adds	r2, #4
87801f3c:	6019      	str	r1, [r3, #0]
87801f3e:	f899 3001 	ldrb.w	r3, [r9, #1]
87801f42:	e676      	b.n	87801c32 <vsscanf+0x16>
87801f44:	f04f 0a00 	mov.w	sl, #0
87801f48:	f04f 0c08 	mov.w	ip, #8
87801f4c:	46d6      	mov	lr, sl
87801f4e:	e789      	b.n	87801e64 <vsscanf+0x248>
87801f50:	f102 0e04 	add.w	lr, r2, #4
87801f54:	f8d2 c000 	ldr.w	ip, [r2]
87801f58:	1c4a      	adds	r2, r1, #1
87801f5a:	5da3      	ldrb	r3, [r4, r6]
87801f5c:	f000 80cb 	beq.w	878020f6 <vsscanf+0x4da>
87801f60:	069b      	lsls	r3, r3, #26
87801f62:	d505      	bpl.n	87801f70 <vsscanf+0x354>
87801f64:	f810 6f01 	ldrb.w	r6, [r0, #1]!
87801f68:	5da3      	ldrb	r3, [r4, r6]
87801f6a:	069a      	lsls	r2, r3, #26
87801f6c:	d4fa      	bmi.n	87801f64 <vsscanf+0x348>
87801f6e:	b176      	cbz	r6, 87801f8e <vsscanf+0x372>
87801f70:	b169      	cbz	r1, 87801f8e <vsscanf+0x372>
87801f72:	1c43      	adds	r3, r0, #1
87801f74:	e004      	b.n	87801f80 <vsscanf+0x364>
87801f76:	5da2      	ldrb	r2, [r4, r6]
87801f78:	0692      	lsls	r2, r2, #26
87801f7a:	d408      	bmi.n	87801f8e <vsscanf+0x372>
87801f7c:	3901      	subs	r1, #1
87801f7e:	d006      	beq.n	87801f8e <vsscanf+0x372>
87801f80:	f80c 6b01 	strb.w	r6, [ip], #1
87801f84:	4618      	mov	r0, r3
87801f86:	f813 6b01 	ldrb.w	r6, [r3], #1
87801f8a:	2e00      	cmp	r6, #0
87801f8c:	d1f3      	bne.n	87801f76 <vsscanf+0x35a>
87801f8e:	2300      	movs	r3, #0
87801f90:	3701      	adds	r7, #1
87801f92:	f88c 3000 	strb.w	r3, [ip]
87801f96:	4672      	mov	r2, lr
87801f98:	f899 3001 	ldrb.w	r3, [r9, #1]
87801f9c:	e649      	b.n	87801c32 <vsscanf+0x16>
87801f9e:	f04f 0a00 	mov.w	sl, #0
87801fa2:	f04f 0c0a 	mov.w	ip, #10
87801fa6:	46d6      	mov	lr, sl
87801fa8:	e75c      	b.n	87801e64 <vsscanf+0x248>
87801faa:	1c4b      	adds	r3, r1, #1
87801fac:	f102 0c04 	add.w	ip, r2, #4
87801fb0:	6812      	ldr	r2, [r2, #0]
87801fb2:	f000 80a6 	beq.w	87802102 <vsscanf+0x4e6>
87801fb6:	1c43      	adds	r3, r0, #1
87801fb8:	3901      	subs	r1, #1
87801fba:	f802 6b01 	strb.w	r6, [r2], #1
87801fbe:	2900      	cmp	r1, #0
87801fc0:	4618      	mov	r0, r3
87801fc2:	dd03      	ble.n	87801fcc <vsscanf+0x3b0>
87801fc4:	f813 6b01 	ldrb.w	r6, [r3], #1
87801fc8:	2e00      	cmp	r6, #0
87801fca:	d1f5      	bne.n	87801fb8 <vsscanf+0x39c>
87801fcc:	3701      	adds	r7, #1
87801fce:	f899 3001 	ldrb.w	r3, [r9, #1]
87801fd2:	4662      	mov	r2, ip
87801fd4:	e62d      	b.n	87801c32 <vsscanf+0x16>
87801fd6:	f04f 0a00 	mov.w	sl, #0
87801fda:	f04f 0c10 	mov.w	ip, #16
87801fde:	46d6      	mov	lr, sl
87801fe0:	e740      	b.n	87801e64 <vsscanf+0x248>
87801fe2:	f04f 0a01 	mov.w	sl, #1
87801fe6:	f04f 0c00 	mov.w	ip, #0
87801fea:	46d6      	mov	lr, sl
87801fec:	e73a      	b.n	87801e64 <vsscanf+0x248>
87801fee:	2b68      	cmp	r3, #104	; 0x68
87801ff0:	d07b      	beq.n	878020ea <vsscanf+0x4ce>
87801ff2:	2b6c      	cmp	r3, #108	; 0x6c
87801ff4:	bf18      	it	ne
87801ff6:	469c      	movne	ip, r3
87801ff8:	f47f ae66 	bne.w	87801cc8 <vsscanf+0xac>
87801ffc:	f105 0902 	add.w	r9, r5, #2
87802000:	f895 c002 	ldrb.w	ip, [r5, #2]
87802004:	234c      	movs	r3, #76	; 0x4c
87802006:	e65f      	b.n	87801cc8 <vsscanf+0xac>
87802008:	4662      	mov	r2, ip
8780200a:	a901      	add	r1, sp, #4
8780200c:	f1be 0f00 	cmp.w	lr, #0
87802010:	d066      	beq.n	878020e0 <vsscanf+0x4c4>
87802012:	f7ff fa59 	bl	878014c8 <simple_strtol>
87802016:	f8aa 0000 	strh.w	r0, [sl]
8780201a:	e77b      	b.n	87801f14 <vsscanf+0x2f8>
8780201c:	4662      	mov	r2, ip
8780201e:	a901      	add	r1, sp, #4
87802020:	f7ff f9da 	bl	878013d8 <simple_strtoul>
87802024:	f8ca 0000 	str.w	r0, [sl]
87802028:	e774      	b.n	87801f14 <vsscanf+0x2f8>
8780202a:	4662      	mov	r2, ip
8780202c:	a901      	add	r1, sp, #4
8780202e:	f1be 0f00 	cmp.w	lr, #0
87802032:	d050      	beq.n	878020d6 <vsscanf+0x4ba>
87802034:	f7ff faec 	bl	87801610 <simple_strtoll>
87802038:	e9ca 0100 	strd	r0, r1, [sl]
8780203c:	e76a      	b.n	87801f14 <vsscanf+0x2f8>
8780203e:	4662      	mov	r2, ip
87802040:	a901      	add	r1, sp, #4
87802042:	f1be 0f00 	cmp.w	lr, #0
87802046:	d041      	beq.n	878020cc <vsscanf+0x4b0>
87802048:	f7ff fa3e 	bl	878014c8 <simple_strtol>
8780204c:	f88a 0000 	strb.w	r0, [sl]
87802050:	e760      	b.n	87801f14 <vsscanf+0x2f8>
87802052:	f1bc 0f00 	cmp.w	ip, #0
87802056:	f47f af31 	bne.w	87801ebc <vsscanf+0x2a0>
8780205a:	5da1      	ldrb	r1, [r4, r6]
8780205c:	0749      	lsls	r1, r1, #29
8780205e:	f57f adf2 	bpl.w	87801c46 <vsscanf+0x2a>
87802062:	e72b      	b.n	87801ebc <vsscanf+0x2a0>
87802064:	5da1      	ldrb	r1, [r4, r6]
87802066:	f011 0f44 	tst.w	r1, #68	; 0x44
8780206a:	f47f af27 	bne.w	87801ebc <vsscanf+0x2a0>
8780206e:	e5ea      	b.n	87801c46 <vsscanf+0x2a>
87802070:	469c      	mov	ip, r3
87802072:	46a9      	mov	r9, r5
87802074:	f04f 33ff 	mov.w	r3, #4294967295	; 0xffffffff
87802078:	e626      	b.n	87801cc8 <vsscanf+0xac>
8780207a:	068e      	lsls	r6, r1, #26
8780207c:	d40a      	bmi.n	87802094 <vsscanf+0x478>
8780207e:	f815 3f01 	ldrb.w	r3, [r5, #1]!
87802082:	5ce1      	ldrb	r1, [r4, r3]
87802084:	1c1e      	adds	r6, r3, #0
87802086:	bf18      	it	ne
87802088:	2601      	movne	r6, #1
8780208a:	f081 0120 	eor.w	r1, r1, #32
8780208e:	ea16 1151 	ands.w	r1, r6, r1, lsr #5
87802092:	d1f4      	bne.n	8780207e <vsscanf+0x462>
87802094:	7801      	ldrb	r1, [r0, #0]
87802096:	e001      	b.n	8780209c <vsscanf+0x480>
87802098:	f810 1f01 	ldrb.w	r1, [r0, #1]!
8780209c:	5c66      	ldrb	r6, [r4, r1]
8780209e:	3100      	adds	r1, #0
878020a0:	bf18      	it	ne
878020a2:	2101      	movne	r1, #1
878020a4:	f086 0620 	eor.w	r6, r6, #32
878020a8:	ea11 1156 	ands.w	r1, r1, r6, lsr #5
878020ac:	d1f4      	bne.n	87802098 <vsscanf+0x47c>
878020ae:	e5c0      	b.n	87801c32 <vsscanf+0x16>
878020b0:	f7ff f992 	bl	878013d8 <simple_strtoul>
878020b4:	f8ca 0000 	str.w	r0, [sl]
878020b8:	e72c      	b.n	87801f14 <vsscanf+0x2f8>
878020ba:	2e2d      	cmp	r6, #45	; 0x2d
878020bc:	bf14      	ite	ne
878020be:	2100      	movne	r1, #0
878020c0:	f00a 0101 	andeq.w	r1, sl, #1
878020c4:	2900      	cmp	r1, #0
878020c6:	f47f aedc 	bne.w	87801e82 <vsscanf+0x266>
878020ca:	e6de      	b.n	87801e8a <vsscanf+0x26e>
878020cc:	f7ff f984 	bl	878013d8 <simple_strtoul>
878020d0:	f88a 0000 	strb.w	r0, [sl]
878020d4:	e71e      	b.n	87801f14 <vsscanf+0x2f8>
878020d6:	f7ff fa05 	bl	878014e4 <simple_strtoull>
878020da:	e9ca 0100 	strd	r0, r1, [sl]
878020de:	e719      	b.n	87801f14 <vsscanf+0x2f8>
878020e0:	f7ff f97a 	bl	878013d8 <simple_strtoul>
878020e4:	f8aa 0000 	strh.w	r0, [sl]
878020e8:	e714      	b.n	87801f14 <vsscanf+0x2f8>
878020ea:	f105 0902 	add.w	r9, r5, #2
878020ee:	f895 c002 	ldrb.w	ip, [r5, #2]
878020f2:	2348      	movs	r3, #72	; 0x48
878020f4:	e5e8      	b.n	87801cc8 <vsscanf+0xac>
878020f6:	069b      	lsls	r3, r3, #26
878020f8:	f06f 4100 	mvn.w	r1, #2147483648	; 0x80000000
878020fc:	f57f af39 	bpl.w	87801f72 <vsscanf+0x356>
87802100:	e730      	b.n	87801f64 <vsscanf+0x348>
87802102:	3001      	adds	r0, #1
87802104:	7016      	strb	r6, [r2, #0]
87802106:	e761      	b.n	87801fcc <vsscanf+0x3b0>

87802108 <sscanf>:
87802108:	b40e      	push	{r1, r2, r3}
8780210a:	b500      	push	{lr}
8780210c:	aa02      	add	r2, sp, #8
8780210e:	9901      	ldr	r1, [sp, #4]
87802110:	f7ff fd84 	bl	87801c1c <vsscanf>
87802114:	f85d eb04 	ldr.w	lr, [sp], #4
87802118:	b003      	add	sp, #12
8780211a:	4770      	bx	lr

8780211c <uart_init>:
8780211c:	2284      	movs	r2, #132	; 0x84
8780211e:	b430      	push	{r4, r5}
87802120:	f2c0 220e 	movt	r2, #526	; 0x20e
87802124:	2500      	movs	r5, #0
87802126:	2088      	movs	r0, #136	; 0x88
87802128:	f240 6424 	movw	r4, #1572	; 0x624
8780212c:	6015      	str	r5, [r2, #0]
8780212e:	f2c0 200e 	movt	r0, #526	; 0x20e
87802132:	462a      	mov	r2, r5
87802134:	f44f 7344 	mov.w	r3, #784	; 0x310
87802138:	f44f 7145 	mov.w	r1, #788	; 0x314
8780213c:	6005      	str	r5, [r0, #0]
8780213e:	f2c0 2202 	movt	r2, #514	; 0x202
87802142:	f2c0 230e 	movt	r3, #526	; 0x20e
87802146:	f2c0 210e 	movt	r1, #526	; 0x20e
8780214a:	f241 00b0 	movw	r0, #4272	; 0x10b0
8780214e:	f2c0 240e 	movt	r4, #526	; 0x20e
87802152:	2503      	movs	r5, #3
87802154:	6025      	str	r5, [r4, #0]
87802156:	6018      	str	r0, [r3, #0]
87802158:	4613      	mov	r3, r2
8780215a:	6008      	str	r0, [r1, #0]
8780215c:	f8d2 1080 	ldr.w	r1, [r2, #128]	; 0x80
87802160:	f021 0101 	bic.w	r1, r1, #1
87802164:	f8c2 1080 	str.w	r1, [r2, #128]	; 0x80
87802168:	f8d2 1084 	ldr.w	r1, [r2, #132]	; 0x84
8780216c:	f021 0101 	bic.w	r1, r1, #1
87802170:	f8c2 1084 	str.w	r1, [r2, #132]	; 0x84
87802174:	f8d3 2084 	ldr.w	r2, [r3, #132]	; 0x84
87802178:	07d2      	lsls	r2, r2, #31
8780217a:	d5fb      	bpl.n	87802174 <uart_init+0x58>
8780217c:	2200      	movs	r2, #0
8780217e:	f44f 7420 	mov.w	r4, #640	; 0x280
87802182:	f8c3 2080 	str.w	r2, [r3, #128]	; 0x80
87802186:	2047      	movs	r0, #71	; 0x47
87802188:	f8d3 2084 	ldr.w	r2, [r3, #132]	; 0x84
8780218c:	f640 4134 	movw	r1, #3124	; 0xc34
87802190:	f442 4280 	orr.w	r2, r2, #16384	; 0x4000
87802194:	f042 0226 	orr.w	r2, r2, #38	; 0x26
87802198:	f8c3 2084 	str.w	r2, [r3, #132]	; 0x84
8780219c:	f8d3 2088 	ldr.w	r2, [r3, #136]	; 0x88
878021a0:	f042 0204 	orr.w	r2, r2, #4
878021a4:	f8c3 2088 	str.w	r2, [r3, #136]	; 0x88
878021a8:	f8d3 2080 	ldr.w	r2, [r3, #128]	; 0x80
878021ac:	f422 4280 	bic.w	r2, r2, #16384	; 0x4000
878021b0:	f8c3 2080 	str.w	r2, [r3, #128]	; 0x80
878021b4:	f8c3 4090 	str.w	r4, [r3, #144]	; 0x90
878021b8:	f8c3 00a4 	str.w	r0, [r3, #164]	; 0xa4
878021bc:	f8c3 10a8 	str.w	r1, [r3, #168]	; 0xa8
878021c0:	f8d3 2080 	ldr.w	r2, [r3, #128]	; 0x80
878021c4:	f042 0201 	orr.w	r2, r2, #1
878021c8:	f8c3 2080 	str.w	r2, [r3, #128]	; 0x80
878021cc:	bc30      	pop	{r4, r5}
878021ce:	4770      	bx	lr

878021d0 <uart_io_init>:
878021d0:	b430      	push	{r4, r5}
878021d2:	2288      	movs	r2, #136	; 0x88
878021d4:	2584      	movs	r5, #132	; 0x84
878021d6:	2400      	movs	r4, #0
878021d8:	f2c0 250e 	movt	r5, #526	; 0x20e
878021dc:	f2c0 220e 	movt	r2, #526	; 0x20e
878021e0:	f240 6024 	movw	r0, #1572	; 0x624
878021e4:	f44f 7144 	mov.w	r1, #784	; 0x310
878021e8:	f44f 7345 	mov.w	r3, #788	; 0x314
878021ec:	602c      	str	r4, [r5, #0]
878021ee:	f2c0 200e 	movt	r0, #526	; 0x20e
878021f2:	6014      	str	r4, [r2, #0]
878021f4:	2503      	movs	r5, #3
878021f6:	f241 02b0 	movw	r2, #4272	; 0x10b0
878021fa:	f2c0 210e 	movt	r1, #526	; 0x20e
878021fe:	f2c0 230e 	movt	r3, #526	; 0x20e
87802202:	6005      	str	r5, [r0, #0]
87802204:	600a      	str	r2, [r1, #0]
87802206:	601a      	str	r2, [r3, #0]
87802208:	bc30      	pop	{r4, r5}
8780220a:	4770      	bx	lr

8780220c <uart_setbaudrate>:
8780220c:	e92d 4ff0 	stmdb	sp!, {r4, r5, r6, r7, r8, r9, sl, fp, lr}
87802210:	010c      	lsls	r4, r1, #4
87802212:	b089      	sub	sp, #36	; 0x24
87802214:	460e      	mov	r6, r1
87802216:	4680      	mov	r8, r0
87802218:	4617      	mov	r7, r2
8780221a:	bf08      	it	eq
8780221c:	4615      	moveq	r5, r2
8780221e:	d013      	beq.n	87802248 <uart_setbaudrate+0x3c>
87802220:	46a1      	mov	r9, r4
87802222:	4610      	mov	r0, r2
87802224:	e000      	b.n	87802228 <uart_setbaudrate+0x1c>
87802226:	4689      	mov	r9, r1
87802228:	4649      	mov	r1, r9
8780222a:	f000 fabf 	bl	878027ac <__aeabi_uidivmod>
8780222e:	4648      	mov	r0, r9
87802230:	2900      	cmp	r1, #0
87802232:	d1f8      	bne.n	87802226 <uart_setbaudrate+0x1a>
87802234:	4649      	mov	r1, r9
87802236:	4638      	mov	r0, r7
87802238:	f000 f98a 	bl	87802550 <__aeabi_uidiv>
8780223c:	4649      	mov	r1, r9
8780223e:	4605      	mov	r5, r0
87802240:	4620      	mov	r0, r4
87802242:	f000 f985 	bl	87802550 <__aeabi_uidiv>
87802246:	4604      	mov	r4, r0
87802248:	f64f 79f9 	movw	r9, #65529	; 0xfff9
8780224c:	1e69      	subs	r1, r5, #1
8780224e:	f2c0 0906 	movt	r9, #6
87802252:	454d      	cmp	r5, r9
87802254:	bf98      	it	ls
87802256:	f5b4 3f80 	cmpls.w	r4, #65536	; 0x10000
8780225a:	bf2c      	ite	cs
8780225c:	f04f 0901 	movcs.w	r9, #1
87802260:	f04f 0900 	movcc.w	r9, #0
87802264:	f080 8086 	bcs.w	87802374 <uart_setbaudrate+0x168>
87802268:	f248 0201 	movw	r2, #32769	; 0x8001
8780226c:	ea4f 1a05 	mov.w	sl, r5, lsl #4
87802270:	f2c8 0200 	movt	r2, #32768	; 0x8000
87802274:	f8cd 9008 	str.w	r9, [sp, #8]
87802278:	fba1 2302 	umull	r2, r3, r1, r2
8780227c:	4650      	mov	r0, sl
8780227e:	46a3      	mov	fp, r4
87802280:	0bdb      	lsrs	r3, r3, #15
87802282:	1e59      	subs	r1, r3, #1
87802284:	3301      	adds	r3, #1
87802286:	9306      	str	r3, [sp, #24]
87802288:	2905      	cmp	r1, #5
8780228a:	46b9      	mov	r9, r7
8780228c:	bf97      	itett	ls
8780228e:	f642 13fc 	movwls	r3, #10748	; 0x29fc
87802292:	2305      	movhi	r3, #5
87802294:	f2c8 7380 	movtls	r3, #34688	; 0x8780
87802298:	f853 3021 	ldrls.w	r3, [r3, r1, lsl #2]
8780229c:	9307      	str	r3, [sp, #28]
8780229e:	2300      	movs	r3, #0
878022a0:	f1ba 0f00 	cmp.w	sl, #0
878022a4:	d01d      	beq.n	878022e2 <uart_setbaudrate+0xd6>
878022a6:	46a1      	mov	r9, r4
878022a8:	4638      	mov	r0, r7
878022aa:	4654      	mov	r4, sl
878022ac:	f8cd a010 	str.w	sl, [sp, #16]
878022b0:	2300      	movs	r3, #0
878022b2:	4622      	mov	r2, r4
878022b4:	4619      	mov	r1, r3
878022b6:	f000 fad7 	bl	87802868 <__aeabi_uldivmod>
878022ba:	4620      	mov	r0, r4
878022bc:	2300      	movs	r3, #0
878022be:	4614      	mov	r4, r2
878022c0:	2a00      	cmp	r2, #0
878022c2:	d1f5      	bne.n	878022b0 <uart_setbaudrate+0xa4>
878022c4:	464c      	mov	r4, r9
878022c6:	4681      	mov	r9, r0
878022c8:	4649      	mov	r1, r9
878022ca:	9804      	ldr	r0, [sp, #16]
878022cc:	9305      	str	r3, [sp, #20]
878022ce:	f000 f93f 	bl	87802550 <__aeabi_uidiv>
878022d2:	4649      	mov	r1, r9
878022d4:	9004      	str	r0, [sp, #16]
878022d6:	4638      	mov	r0, r7
878022d8:	f000 f93a 	bl	87802550 <__aeabi_uidiv>
878022dc:	4681      	mov	r9, r0
878022de:	e9dd 0304 	ldrd	r0, r3, [sp, #16]
878022e2:	fb0b fc03 	mul.w	ip, fp, r3
878022e6:	9f02      	ldr	r7, [sp, #8]
878022e8:	4602      	mov	r2, r0
878022ea:	2300      	movs	r3, #0
878022ec:	fbab 0109 	umull	r0, r1, fp, r9
878022f0:	fb09 c907 	mla	r9, r9, r7, ip
878022f4:	4449      	add	r1, r9
878022f6:	f000 fab7 	bl	87802868 <__aeabi_uldivmod>
878022fa:	2300      	movs	r3, #0
878022fc:	4299      	cmp	r1, r3
878022fe:	bf08      	it	eq
87802300:	42b0      	cmpeq	r0, r6
87802302:	d331      	bcc.n	87802368 <uart_setbaudrate+0x15c>
87802304:	1b87      	subs	r7, r0, r6
87802306:	eb61 0303 	sbc.w	r3, r1, r3
8780230a:	9700      	str	r7, [sp, #0]
8780230c:	9301      	str	r3, [sp, #4]
8780230e:	f248 531f 	movw	r3, #34079	; 0x851f
87802312:	e9dd 0100 	ldrd	r0, r1, [sp]
87802316:	f2c5 13eb 	movt	r3, #20971	; 0x51eb
8780231a:	fba6 6703 	umull	r6, r7, r6, r3
8780231e:	2300      	movs	r3, #0
87802320:	4299      	cmp	r1, r3
87802322:	ea4f 1257 	mov.w	r2, r7, lsr #5
87802326:	eb02 0242 	add.w	r2, r2, r2, lsl #1
8780232a:	bf08      	it	eq
8780232c:	4290      	cmpeq	r0, r2
8780232e:	d218      	bcs.n	87802362 <uart_setbaudrate+0x156>
87802330:	f8d8 3090 	ldr.w	r3, [r8, #144]	; 0x90
87802334:	3c01      	subs	r4, #1
87802336:	9a07      	ldr	r2, [sp, #28]
87802338:	b2a4      	uxth	r4, r4
8780233a:	9906      	ldr	r1, [sp, #24]
8780233c:	4628      	mov	r0, r5
8780233e:	f423 7360 	bic.w	r3, r3, #896	; 0x380
87802342:	f8c8 3090 	str.w	r3, [r8, #144]	; 0x90
87802346:	f8d8 3090 	ldr.w	r3, [r8, #144]	; 0x90
8780234a:	ea43 13c2 	orr.w	r3, r3, r2, lsl #7
8780234e:	f8c8 3090 	str.w	r3, [r8, #144]	; 0x90
87802352:	f8c8 40a4 	str.w	r4, [r8, #164]	; 0xa4
87802356:	f000 f8fb 	bl	87802550 <__aeabi_uidiv>
8780235a:	3801      	subs	r0, #1
8780235c:	b280      	uxth	r0, r0
8780235e:	f8c8 00a8 	str.w	r0, [r8, #168]	; 0xa8
87802362:	b009      	add	sp, #36	; 0x24
87802364:	e8bd 8ff0 	ldmia.w	sp!, {r4, r5, r6, r7, r8, r9, sl, fp, pc}
87802368:	1a37      	subs	r7, r6, r0
8780236a:	eb63 0301 	sbc.w	r3, r3, r1
8780236e:	9700      	str	r7, [sp, #0]
87802370:	9301      	str	r3, [sp, #4]
87802372:	e7cc      	b.n	8780230e <uart_setbaudrate+0x102>
87802374:	f646 52b9 	movw	r2, #28089	; 0x6db9
87802378:	f248 0901 	movw	r9, #32769	; 0x8001
8780237c:	f2c2 4293 	movt	r2, #9363	; 0x2493
87802380:	f104 3aff 	add.w	sl, r4, #4294967295	; 0xffffffff
87802384:	fba1 2302 	umull	r2, r3, r1, r2
87802388:	f2c8 0900 	movt	r9, #32768	; 0x8000
8780238c:	4628      	mov	r0, r5
8780238e:	fbaa ab09 	umull	sl, fp, sl, r9
87802392:	e9cd 2302 	strd	r2, r3, [sp, #8]
87802396:	1aca      	subs	r2, r1, r3
87802398:	9b03      	ldr	r3, [sp, #12]
8780239a:	ea4f 3adb 	mov.w	sl, fp, lsr #15
8780239e:	eb03 0352 	add.w	r3, r3, r2, lsr #1
878023a2:	f10a 0a01 	add.w	sl, sl, #1
878023a6:	0c9a      	lsrs	r2, r3, #18
878023a8:	1c53      	adds	r3, r2, #1
878023aa:	459a      	cmp	sl, r3
878023ac:	bf38      	it	cc
878023ae:	469a      	movcc	sl, r3
878023b0:	4651      	mov	r1, sl
878023b2:	f000 f8cd 	bl	87802550 <__aeabi_uidiv>
878023b6:	4605      	mov	r5, r0
878023b8:	4651      	mov	r1, sl
878023ba:	4620      	mov	r0, r4
878023bc:	f000 f8c8 	bl	87802550 <__aeabi_uidiv>
878023c0:	4604      	mov	r4, r0
878023c2:	b96d      	cbnz	r5, 878023e0 <uart_setbaudrate+0x1d4>
878023c4:	b1e0      	cbz	r0, 87802400 <uart_setbaudrate+0x1f4>
878023c6:	4683      	mov	fp, r0
878023c8:	9502      	str	r5, [sp, #8]
878023ca:	2310      	movs	r3, #16
878023cc:	2501      	movs	r5, #1
878023ce:	469a      	mov	sl, r3
878023d0:	9304      	str	r3, [sp, #16]
878023d2:	2305      	movs	r3, #5
878023d4:	46a1      	mov	r9, r4
878023d6:	9506      	str	r5, [sp, #24]
878023d8:	4638      	mov	r0, r7
878023da:	9307      	str	r3, [sp, #28]
878023dc:	4654      	mov	r4, sl
878023de:	e767      	b.n	878022b0 <uart_setbaudrate+0xa4>
878023e0:	1e6a      	subs	r2, r5, #1
878023e2:	ea4f 1a05 	mov.w	sl, r5, lsl #4
878023e6:	fba2 2309 	umull	r2, r3, r2, r9
878023ea:	4650      	mov	r0, sl
878023ec:	0bdb      	lsrs	r3, r3, #15
878023ee:	1e59      	subs	r1, r3, #1
878023f0:	3301      	adds	r3, #1
878023f2:	9306      	str	r3, [sp, #24]
878023f4:	b94c      	cbnz	r4, 8780240a <uart_setbaudrate+0x1fe>
878023f6:	f04f 0b01 	mov.w	fp, #1
878023fa:	9402      	str	r4, [sp, #8]
878023fc:	465c      	mov	r4, fp
878023fe:	e743      	b.n	87802288 <uart_setbaudrate+0x7c>
87802400:	f04f 0b01 	mov.w	fp, #1
87802404:	9002      	str	r0, [sp, #8]
87802406:	465c      	mov	r4, fp
87802408:	e7df      	b.n	878023ca <uart_setbaudrate+0x1be>
8780240a:	2300      	movs	r3, #0
8780240c:	46a3      	mov	fp, r4
8780240e:	9302      	str	r3, [sp, #8]
87802410:	e73a      	b.n	87802288 <uart_setbaudrate+0x7c>
87802412:	bf00      	nop

87802414 <uart_disable>:
87802414:	f8d0 3080 	ldr.w	r3, [r0, #128]	; 0x80
87802418:	f023 0301 	bic.w	r3, r3, #1
8780241c:	f8c0 3080 	str.w	r3, [r0, #128]	; 0x80
87802420:	4770      	bx	lr
87802422:	bf00      	nop

87802424 <uart_enable>:
87802424:	f8d0 3080 	ldr.w	r3, [r0, #128]	; 0x80
87802428:	f043 0301 	orr.w	r3, r3, #1
8780242c:	f8c0 3080 	str.w	r3, [r0, #128]	; 0x80
87802430:	4770      	bx	lr
87802432:	bf00      	nop

87802434 <uart_softreset>:
87802434:	f8d0 3084 	ldr.w	r3, [r0, #132]	; 0x84
87802438:	f023 0301 	bic.w	r3, r3, #1
8780243c:	f8c0 3084 	str.w	r3, [r0, #132]	; 0x84
87802440:	f8d0 3084 	ldr.w	r3, [r0, #132]	; 0x84
87802444:	07db      	lsls	r3, r3, #31
87802446:	d5fb      	bpl.n	87802440 <uart_softreset+0xc>
87802448:	4770      	bx	lr
8780244a:	bf00      	nop

8780244c <putc>:
8780244c:	2200      	movs	r2, #0
8780244e:	f2c0 2202 	movt	r2, #514	; 0x202
87802452:	f8d2 3098 	ldr.w	r3, [r2, #152]	; 0x98
87802456:	071b      	lsls	r3, r3, #28
87802458:	d5fb      	bpl.n	87802452 <putc+0x6>
8780245a:	6410      	str	r0, [r2, #64]	; 0x40
8780245c:	4770      	bx	lr
8780245e:	bf00      	nop

87802460 <puts>:
87802460:	7801      	ldrb	r1, [r0, #0]
87802462:	b159      	cbz	r1, 8780247c <puts+0x1c>
87802464:	2200      	movs	r2, #0
87802466:	f2c0 2202 	movt	r2, #514	; 0x202
8780246a:	f8d2 3098 	ldr.w	r3, [r2, #152]	; 0x98
8780246e:	071b      	lsls	r3, r3, #28
87802470:	d5fb      	bpl.n	8780246a <puts+0xa>
87802472:	6411      	str	r1, [r2, #64]	; 0x40
87802474:	f810 1f01 	ldrb.w	r1, [r0, #1]!
87802478:	2900      	cmp	r1, #0
8780247a:	d1f6      	bne.n	8780246a <puts+0xa>
8780247c:	4770      	bx	lr
8780247e:	bf00      	nop

87802480 <getc>:
87802480:	2200      	movs	r2, #0
87802482:	f2c0 2202 	movt	r2, #514	; 0x202
87802486:	f8d2 3098 	ldr.w	r3, [r2, #152]	; 0x98
8780248a:	07db      	lsls	r3, r3, #31
8780248c:	d5fb      	bpl.n	87802486 <getc+0x6>
8780248e:	6810      	ldr	r0, [r2, #0]
87802490:	b2c0      	uxtb	r0, r0
87802492:	4770      	bx	lr

87802494 <raise>:
87802494:	4770      	bx	lr
87802496:	bf00      	nop

87802498 <__div64_32>:
87802498:	e92d 43f8 	stmdb	sp!, {r3, r4, r5, r6, r7, r8, r9, lr}
8780249c:	4680      	mov	r8, r0
8780249e:	e9d0 6700 	ldrd	r6, r7, [r0]
878024a2:	4689      	mov	r9, r1
878024a4:	460c      	mov	r4, r1
878024a6:	2500      	movs	r5, #0
878024a8:	42b9      	cmp	r1, r7
878024aa:	bf84      	itt	hi
878024ac:	f04f 0c00 	movhi.w	ip, #0
878024b0:	46e6      	movhi	lr, ip
878024b2:	d80c      	bhi.n	878024ce <__div64_32+0x36>
878024b4:	4638      	mov	r0, r7
878024b6:	f000 f84b 	bl	87802550 <__aeabi_uidiv>
878024ba:	fb00 f209 	mul.w	r2, r0, r9
878024be:	f04f 0c00 	mov.w	ip, #0
878024c2:	ebb6 060c 	subs.w	r6, r6, ip
878024c6:	4663      	mov	r3, ip
878024c8:	4686      	mov	lr, r0
878024ca:	eb67 0702 	sbc.w	r7, r7, r2
878024ce:	42bd      	cmp	r5, r7
878024d0:	f04f 0201 	mov.w	r2, #1
878024d4:	bf08      	it	eq
878024d6:	42b4      	cmpeq	r4, r6
878024d8:	bf34      	ite	cc
878024da:	2301      	movcc	r3, #1
878024dc:	2300      	movcs	r3, #0
878024de:	f1b9 0f00 	cmp.w	r9, #0
878024e2:	bf08      	it	eq
878024e4:	2300      	moveq	r3, #0
878024e6:	b373      	cbz	r3, 87802546 <__div64_32+0xae>
878024e8:	2300      	movs	r3, #0
878024ea:	1924      	adds	r4, r4, r4
878024ec:	416d      	adcs	r5, r5
878024ee:	1892      	adds	r2, r2, r2
878024f0:	415b      	adcs	r3, r3
878024f2:	2c01      	cmp	r4, #1
878024f4:	f175 0100 	sbcs.w	r1, r5, #0
878024f8:	bfac      	ite	ge
878024fa:	2101      	movge	r1, #1
878024fc:	2100      	movlt	r1, #0
878024fe:	42bd      	cmp	r5, r7
87802500:	f001 0101 	and.w	r1, r1, #1
87802504:	bf08      	it	eq
87802506:	42b4      	cmpeq	r4, r6
87802508:	bf28      	it	cs
8780250a:	2100      	movcs	r1, #0
8780250c:	2900      	cmp	r1, #0
8780250e:	d1ec      	bne.n	878024ea <__div64_32+0x52>
87802510:	42af      	cmp	r7, r5
87802512:	bf08      	it	eq
87802514:	42a6      	cmpeq	r6, r4
87802516:	d306      	bcc.n	87802526 <__div64_32+0x8e>
87802518:	1b36      	subs	r6, r6, r4
8780251a:	eb67 0705 	sbc.w	r7, r7, r5
8780251e:	eb1c 0c02 	adds.w	ip, ip, r2
87802522:	eb4e 0e03 	adc.w	lr, lr, r3
87802526:	085b      	lsrs	r3, r3, #1
87802528:	ea4f 0232 	mov.w	r2, r2, rrx
8780252c:	086d      	lsrs	r5, r5, #1
8780252e:	ea4f 0434 	mov.w	r4, r4, rrx
87802532:	ea52 0103 	orrs.w	r1, r2, r3
87802536:	d1eb      	bne.n	87802510 <__div64_32+0x78>
87802538:	f8c8 c000 	str.w	ip, [r8]
8780253c:	4630      	mov	r0, r6
8780253e:	f8c8 e004 	str.w	lr, [r8, #4]
87802542:	e8bd 83f8 	ldmia.w	sp!, {r3, r4, r5, r6, r7, r8, r9, pc}
87802546:	2300      	movs	r3, #0
87802548:	e7e2      	b.n	87802510 <__div64_32+0x78>
8780254a:	bf00      	nop
8780254c:	0000      	movs	r0, r0
	...

87802550 <__aeabi_uidiv>:
87802550:	1e4a      	subs	r2, r1, #1
87802552:	bf08      	it	eq
87802554:	4770      	bxeq	lr
87802556:	f0c0 8124 	bcc.w	878027a2 <__aeabi_uidiv+0x252>
8780255a:	4288      	cmp	r0, r1
8780255c:	f240 8116 	bls.w	8780278c <__aeabi_uidiv+0x23c>
87802560:	4211      	tst	r1, r2
87802562:	f000 8117 	beq.w	87802794 <__aeabi_uidiv+0x244>
87802566:	fab0 f380 	clz	r3, r0
8780256a:	fab1 f281 	clz	r2, r1
8780256e:	eba2 0303 	sub.w	r3, r2, r3
87802572:	f1c3 031f 	rsb	r3, r3, #31
87802576:	a204      	add	r2, pc, #16	; (adr r2, 87802588 <__aeabi_uidiv+0x38>)
87802578:	eb02 1303 	add.w	r3, r2, r3, lsl #4
8780257c:	f04f 0200 	mov.w	r2, #0
87802580:	469f      	mov	pc, r3
87802582:	bf00      	nop
87802584:	f3af 8000 	nop.w
87802588:	ebb0 7fc1 	cmp.w	r0, r1, lsl #31
8780258c:	bf00      	nop
8780258e:	eb42 0202 	adc.w	r2, r2, r2
87802592:	bf28      	it	cs
87802594:	eba0 70c1 	subcs.w	r0, r0, r1, lsl #31
87802598:	ebb0 7f81 	cmp.w	r0, r1, lsl #30
8780259c:	bf00      	nop
8780259e:	eb42 0202 	adc.w	r2, r2, r2
878025a2:	bf28      	it	cs
878025a4:	eba0 7081 	subcs.w	r0, r0, r1, lsl #30
878025a8:	ebb0 7f41 	cmp.w	r0, r1, lsl #29
878025ac:	bf00      	nop
878025ae:	eb42 0202 	adc.w	r2, r2, r2
878025b2:	bf28      	it	cs
878025b4:	eba0 7041 	subcs.w	r0, r0, r1, lsl #29
878025b8:	ebb0 7f01 	cmp.w	r0, r1, lsl #28
878025bc:	bf00      	nop
878025be:	eb42 0202 	adc.w	r2, r2, r2
878025c2:	bf28      	it	cs
878025c4:	eba0 7001 	subcs.w	r0, r0, r1, lsl #28
878025c8:	ebb0 6fc1 	cmp.w	r0, r1, lsl #27
878025cc:	bf00      	nop
878025ce:	eb42 0202 	adc.w	r2, r2, r2
878025d2:	bf28      	it	cs
878025d4:	eba0 60c1 	subcs.w	r0, r0, r1, lsl #27
878025d8:	ebb0 6f81 	cmp.w	r0, r1, lsl #26
878025dc:	bf00      	nop
878025de:	eb42 0202 	adc.w	r2, r2, r2
878025e2:	bf28      	it	cs
878025e4:	eba0 6081 	subcs.w	r0, r0, r1, lsl #26
878025e8:	ebb0 6f41 	cmp.w	r0, r1, lsl #25
878025ec:	bf00      	nop
878025ee:	eb42 0202 	adc.w	r2, r2, r2
878025f2:	bf28      	it	cs
878025f4:	eba0 6041 	subcs.w	r0, r0, r1, lsl #25
878025f8:	ebb0 6f01 	cmp.w	r0, r1, lsl #24
878025fc:	bf00      	nop
878025fe:	eb42 0202 	adc.w	r2, r2, r2
87802602:	bf28      	it	cs
87802604:	eba0 6001 	subcs.w	r0, r0, r1, lsl #24
87802608:	ebb0 5fc1 	cmp.w	r0, r1, lsl #23
8780260c:	bf00      	nop
8780260e:	eb42 0202 	adc.w	r2, r2, r2
87802612:	bf28      	it	cs
87802614:	eba0 50c1 	subcs.w	r0, r0, r1, lsl #23
87802618:	ebb0 5f81 	cmp.w	r0, r1, lsl #22
8780261c:	bf00      	nop
8780261e:	eb42 0202 	adc.w	r2, r2, r2
87802622:	bf28      	it	cs
87802624:	eba0 5081 	subcs.w	r0, r0, r1, lsl #22
87802628:	ebb0 5f41 	cmp.w	r0, r1, lsl #21
8780262c:	bf00      	nop
8780262e:	eb42 0202 	adc.w	r2, r2, r2
87802632:	bf28      	it	cs
87802634:	eba0 5041 	subcs.w	r0, r0, r1, lsl #21
87802638:	ebb0 5f01 	cmp.w	r0, r1, lsl #20
8780263c:	bf00      	nop
8780263e:	eb42 0202 	adc.w	r2, r2, r2
87802642:	bf28      	it	cs
87802644:	eba0 5001 	subcs.w	r0, r0, r1, lsl #20
87802648:	ebb0 4fc1 	cmp.w	r0, r1, lsl #19
8780264c:	bf00      	nop
8780264e:	eb42 0202 	adc.w	r2, r2, r2
87802652:	bf28      	it	cs
87802654:	eba0 40c1 	subcs.w	r0, r0, r1, lsl #19
87802658:	ebb0 4f81 	cmp.w	r0, r1, lsl #18
8780265c:	bf00      	nop
8780265e:	eb42 0202 	adc.w	r2, r2, r2
87802662:	bf28      	it	cs
87802664:	eba0 4081 	subcs.w	r0, r0, r1, lsl #18
87802668:	ebb0 4f41 	cmp.w	r0, r1, lsl #17
8780266c:	bf00      	nop
8780266e:	eb42 0202 	adc.w	r2, r2, r2
87802672:	bf28      	it	cs
87802674:	eba0 4041 	subcs.w	r0, r0, r1, lsl #17
87802678:	ebb0 4f01 	cmp.w	r0, r1, lsl #16
8780267c:	bf00      	nop
8780267e:	eb42 0202 	adc.w	r2, r2, r2
87802682:	bf28      	it	cs
87802684:	eba0 4001 	subcs.w	r0, r0, r1, lsl #16
87802688:	ebb0 3fc1 	cmp.w	r0, r1, lsl #15
8780268c:	bf00      	nop
8780268e:	eb42 0202 	adc.w	r2, r2, r2
87802692:	bf28      	it	cs
87802694:	eba0 30c1 	subcs.w	r0, r0, r1, lsl #15
87802698:	ebb0 3f81 	cmp.w	r0, r1, lsl #14
8780269c:	bf00      	nop
8780269e:	eb42 0202 	adc.w	r2, r2, r2
878026a2:	bf28      	it	cs
878026a4:	eba0 3081 	subcs.w	r0, r0, r1, lsl #14
878026a8:	ebb0 3f41 	cmp.w	r0, r1, lsl #13
878026ac:	bf00      	nop
878026ae:	eb42 0202 	adc.w	r2, r2, r2
878026b2:	bf28      	it	cs
878026b4:	eba0 3041 	subcs.w	r0, r0, r1, lsl #13
878026b8:	ebb0 3f01 	cmp.w	r0, r1, lsl #12
878026bc:	bf00      	nop
878026be:	eb42 0202 	adc.w	r2, r2, r2
878026c2:	bf28      	it	cs
878026c4:	eba0 3001 	subcs.w	r0, r0, r1, lsl #12
878026c8:	ebb0 2fc1 	cmp.w	r0, r1, lsl #11
878026cc:	bf00      	nop
878026ce:	eb42 0202 	adc.w	r2, r2, r2
878026d2:	bf28      	it	cs
878026d4:	eba0 20c1 	subcs.w	r0, r0, r1, lsl #11
878026d8:	ebb0 2f81 	cmp.w	r0, r1, lsl #10
878026dc:	bf00      	nop
878026de:	eb42 0202 	adc.w	r2, r2, r2
878026e2:	bf28      	it	cs
878026e4:	eba0 2081 	subcs.w	r0, r0, r1, lsl #10
878026e8:	ebb0 2f41 	cmp.w	r0, r1, lsl #9
878026ec:	bf00      	nop
878026ee:	eb42 0202 	adc.w	r2, r2, r2
878026f2:	bf28      	it	cs
878026f4:	eba0 2041 	subcs.w	r0, r0, r1, lsl #9
878026f8:	ebb0 2f01 	cmp.w	r0, r1, lsl #8
878026fc:	bf00      	nop
878026fe:	eb42 0202 	adc.w	r2, r2, r2
87802702:	bf28      	it	cs
87802704:	eba0 2001 	subcs.w	r0, r0, r1, lsl #8
87802708:	ebb0 1fc1 	cmp.w	r0, r1, lsl #7
8780270c:	bf00      	nop
8780270e:	eb42 0202 	adc.w	r2, r2, r2
87802712:	bf28      	it	cs
87802714:	eba0 10c1 	subcs.w	r0, r0, r1, lsl #7
87802718:	ebb0 1f81 	cmp.w	r0, r1, lsl #6
8780271c:	bf00      	nop
8780271e:	eb42 0202 	adc.w	r2, r2, r2
87802722:	bf28      	it	cs
87802724:	eba0 1081 	subcs.w	r0, r0, r1, lsl #6
87802728:	ebb0 1f41 	cmp.w	r0, r1, lsl #5
8780272c:	bf00      	nop
8780272e:	eb42 0202 	adc.w	r2, r2, r2
87802732:	bf28      	it	cs
87802734:	eba0 1041 	subcs.w	r0, r0, r1, lsl #5
87802738:	ebb0 1f01 	cmp.w	r0, r1, lsl #4
8780273c:	bf00      	nop
8780273e:	eb42 0202 	adc.w	r2, r2, r2
87802742:	bf28      	it	cs
87802744:	eba0 1001 	subcs.w	r0, r0, r1, lsl #4
87802748:	ebb0 0fc1 	cmp.w	r0, r1, lsl #3
8780274c:	bf00      	nop
8780274e:	eb42 0202 	adc.w	r2, r2, r2
87802752:	bf28      	it	cs
87802754:	eba0 00c1 	subcs.w	r0, r0, r1, lsl #3
87802758:	ebb0 0f81 	cmp.w	r0, r1, lsl #2
8780275c:	bf00      	nop
8780275e:	eb42 0202 	adc.w	r2, r2, r2
87802762:	bf28      	it	cs
87802764:	eba0 0081 	subcs.w	r0, r0, r1, lsl #2
87802768:	ebb0 0f41 	cmp.w	r0, r1, lsl #1
8780276c:	bf00      	nop
8780276e:	eb42 0202 	adc.w	r2, r2, r2
87802772:	bf28      	it	cs
87802774:	eba0 0041 	subcs.w	r0, r0, r1, lsl #1
87802778:	ebb0 0f01 	cmp.w	r0, r1
8780277c:	bf00      	nop
8780277e:	eb42 0202 	adc.w	r2, r2, r2
87802782:	bf28      	it	cs
87802784:	eba0 0001 	subcs.w	r0, r0, r1
87802788:	4610      	mov	r0, r2
8780278a:	4770      	bx	lr
8780278c:	bf0c      	ite	eq
8780278e:	2001      	moveq	r0, #1
87802790:	2000      	movne	r0, #0
87802792:	4770      	bx	lr
87802794:	fab1 f281 	clz	r2, r1
87802798:	f1c2 021f 	rsb	r2, r2, #31
8780279c:	fa20 f002 	lsr.w	r0, r0, r2
878027a0:	4770      	bx	lr
878027a2:	b108      	cbz	r0, 878027a8 <__aeabi_uidiv+0x258>
878027a4:	f04f 30ff 	mov.w	r0, #4294967295	; 0xffffffff
878027a8:	f000 b876 	b.w	87802898 <__aeabi_idiv0>

878027ac <__aeabi_uidivmod>:
878027ac:	2900      	cmp	r1, #0
878027ae:	d0f8      	beq.n	878027a2 <__aeabi_uidiv+0x252>
878027b0:	e92d 4003 	stmdb	sp!, {r0, r1, lr}
878027b4:	f7ff fecc 	bl	87802550 <__aeabi_uidiv>
878027b8:	e8bd 4006 	ldmia.w	sp!, {r1, r2, lr}
878027bc:	fb02 f300 	mul.w	r3, r2, r0
878027c0:	eba1 0103 	sub.w	r1, r1, r3
878027c4:	4770      	bx	lr
878027c6:	bf00      	nop

878027c8 <__aeabi_ldivmod>:
878027c8:	b97b      	cbnz	r3, 878027ea <__aeabi_ldivmod+0x22>
878027ca:	b972      	cbnz	r2, 878027ea <__aeabi_ldivmod+0x22>
878027cc:	2900      	cmp	r1, #0
878027ce:	bfbe      	ittt	lt
878027d0:	2000      	movlt	r0, #0
878027d2:	f04f 4100 	movlt.w	r1, #2147483648	; 0x80000000
878027d6:	e006      	blt.n	878027e6 <__aeabi_ldivmod+0x1e>
878027d8:	bf08      	it	eq
878027da:	2800      	cmpeq	r0, #0
878027dc:	bf1c      	itt	ne
878027de:	f06f 4100 	mvnne.w	r1, #2147483648	; 0x80000000
878027e2:	f04f 30ff 	movne.w	r0, #4294967295	; 0xffffffff
878027e6:	f000 b857 	b.w	87802898 <__aeabi_idiv0>
878027ea:	f1ad 0c08 	sub.w	ip, sp, #8
878027ee:	e96d ce04 	strd	ip, lr, [sp, #-16]!
878027f2:	2900      	cmp	r1, #0
878027f4:	db09      	blt.n	8780280a <__aeabi_ldivmod+0x42>
878027f6:	2b00      	cmp	r3, #0
878027f8:	db1a      	blt.n	87802830 <__aeabi_ldivmod+0x68>
878027fa:	f000 f853 	bl	878028a4 <__udivmoddi4>
878027fe:	f8dd e004 	ldr.w	lr, [sp, #4]
87802802:	e9dd 2302 	ldrd	r2, r3, [sp, #8]
87802806:	b004      	add	sp, #16
87802808:	4770      	bx	lr
8780280a:	4240      	negs	r0, r0
8780280c:	eb61 0141 	sbc.w	r1, r1, r1, lsl #1
87802810:	2b00      	cmp	r3, #0
87802812:	db1b      	blt.n	8780284c <__aeabi_ldivmod+0x84>
87802814:	f000 f846 	bl	878028a4 <__udivmoddi4>
87802818:	f8dd e004 	ldr.w	lr, [sp, #4]
8780281c:	e9dd 2302 	ldrd	r2, r3, [sp, #8]
87802820:	b004      	add	sp, #16
87802822:	4240      	negs	r0, r0
87802824:	eb61 0141 	sbc.w	r1, r1, r1, lsl #1
87802828:	4252      	negs	r2, r2
8780282a:	eb63 0343 	sbc.w	r3, r3, r3, lsl #1
8780282e:	4770      	bx	lr
87802830:	4252      	negs	r2, r2
87802832:	eb63 0343 	sbc.w	r3, r3, r3, lsl #1
87802836:	f000 f835 	bl	878028a4 <__udivmoddi4>
8780283a:	f8dd e004 	ldr.w	lr, [sp, #4]
8780283e:	e9dd 2302 	ldrd	r2, r3, [sp, #8]
87802842:	b004      	add	sp, #16
87802844:	4240      	negs	r0, r0
87802846:	eb61 0141 	sbc.w	r1, r1, r1, lsl #1
8780284a:	4770      	bx	lr
8780284c:	4252      	negs	r2, r2
8780284e:	eb63 0343 	sbc.w	r3, r3, r3, lsl #1
87802852:	f000 f827 	bl	878028a4 <__udivmoddi4>
87802856:	f8dd e004 	ldr.w	lr, [sp, #4]
8780285a:	e9dd 2302 	ldrd	r2, r3, [sp, #8]
8780285e:	b004      	add	sp, #16
87802860:	4252      	negs	r2, r2
87802862:	eb63 0343 	sbc.w	r3, r3, r3, lsl #1
87802866:	4770      	bx	lr

87802868 <__aeabi_uldivmod>:
87802868:	b953      	cbnz	r3, 87802880 <__aeabi_uldivmod+0x18>
8780286a:	b94a      	cbnz	r2, 87802880 <__aeabi_uldivmod+0x18>
8780286c:	2900      	cmp	r1, #0
8780286e:	bf08      	it	eq
87802870:	2800      	cmpeq	r0, #0
87802872:	bf1c      	itt	ne
87802874:	f04f 31ff 	movne.w	r1, #4294967295	; 0xffffffff
87802878:	f04f 30ff 	movne.w	r0, #4294967295	; 0xffffffff
8780287c:	f000 b80c 	b.w	87802898 <__aeabi_idiv0>
87802880:	f1ad 0c08 	sub.w	ip, sp, #8
87802884:	e96d ce04 	strd	ip, lr, [sp, #-16]!
87802888:	f000 f80c 	bl	878028a4 <__udivmoddi4>
8780288c:	f8dd e004 	ldr.w	lr, [sp, #4]
87802890:	e9dd 2302 	ldrd	r2, r3, [sp, #8]
87802894:	b004      	add	sp, #16
87802896:	4770      	bx	lr

87802898 <__aeabi_idiv0>:
87802898:	b502      	push	{r1, lr}
8780289a:	f04f 0008 	mov.w	r0, #8
8780289e:	f7ff fdf9 	bl	87802494 <raise>
878028a2:	bd02      	pop	{r1, pc}

878028a4 <__udivmoddi4>:
878028a4:	4299      	cmp	r1, r3
878028a6:	e92d 47f0 	stmdb	sp!, {r4, r5, r6, r7, r8, r9, sl, lr}
878028aa:	bf08      	it	eq
878028ac:	4290      	cmpeq	r0, r2
878028ae:	4604      	mov	r4, r0
878028b0:	460d      	mov	r5, r1
878028b2:	bf38      	it	cc
878028b4:	2000      	movcc	r0, #0
878028b6:	f8dd a020 	ldr.w	sl, [sp, #32]
878028ba:	bf38      	it	cc
878028bc:	2100      	movcc	r1, #0
878028be:	d369      	bcc.n	87802994 <__udivmoddi4+0xf0>
878028c0:	fab3 f683 	clz	r6, r3
878028c4:	2b00      	cmp	r3, #0
878028c6:	d070      	beq.n	878029aa <__udivmoddi4+0x106>
878028c8:	fab5 f185 	clz	r1, r5
878028cc:	2d00      	cmp	r5, #0
878028ce:	d068      	beq.n	878029a2 <__udivmoddi4+0xfe>
878028d0:	1a76      	subs	r6, r6, r1
878028d2:	f1a6 0e20 	sub.w	lr, r6, #32
878028d6:	fa03 f906 	lsl.w	r9, r3, r6
878028da:	fa02 f10e 	lsl.w	r1, r2, lr
878028de:	f1c6 0720 	rsb	r7, r6, #32
878028e2:	fa22 f307 	lsr.w	r3, r2, r7
878028e6:	fa02 f806 	lsl.w	r8, r2, r6
878028ea:	ea49 0901 	orr.w	r9, r9, r1
878028ee:	ea49 0903 	orr.w	r9, r9, r3
878028f2:	454d      	cmp	r5, r9
878028f4:	bf08      	it	eq
878028f6:	4544      	cmpeq	r4, r8
878028f8:	bf3c      	itt	cc
878028fa:	2000      	movcc	r0, #0
878028fc:	2100      	movcc	r1, #0
878028fe:	d30c      	bcc.n	8780291a <__udivmoddi4+0x76>
87802900:	2301      	movs	r3, #1
87802902:	ebb4 0408 	subs.w	r4, r4, r8
87802906:	fa03 f10e 	lsl.w	r1, r3, lr
8780290a:	fa23 f207 	lsr.w	r2, r3, r7
8780290e:	fa03 f006 	lsl.w	r0, r3, r6
87802912:	ea41 0102 	orr.w	r1, r1, r2
87802916:	eb65 0509 	sbc.w	r5, r5, r9
8780291a:	2e00      	cmp	r6, #0
8780291c:	d03a      	beq.n	87802994 <__udivmoddi4+0xf0>
8780291e:	ea5f 0959 	movs.w	r9, r9, lsr #1
87802922:	ea4f 0838 	mov.w	r8, r8, rrx
87802926:	46b4      	mov	ip, r6
87802928:	e00b      	b.n	87802942 <__udivmoddi4+0x9e>
8780292a:	ebb4 0408 	subs.w	r4, r4, r8
8780292e:	eb65 0509 	sbc.w	r5, r5, r9
87802932:	1924      	adds	r4, r4, r4
87802934:	416d      	adcs	r5, r5
87802936:	3401      	adds	r4, #1
87802938:	f145 0500 	adc.w	r5, r5, #0
8780293c:	f1bc 0c01 	subs.w	ip, ip, #1
87802940:	d008      	beq.n	87802954 <__udivmoddi4+0xb0>
87802942:	454d      	cmp	r5, r9
87802944:	bf08      	it	eq
87802946:	4544      	cmpeq	r4, r8
87802948:	d2ef      	bcs.n	8780292a <__udivmoddi4+0x86>
8780294a:	1924      	adds	r4, r4, r4
8780294c:	416d      	adcs	r5, r5
8780294e:	f1bc 0c01 	subs.w	ip, ip, #1
87802952:	d1f6      	bne.n	87802942 <__udivmoddi4+0x9e>
87802954:	fa05 f707 	lsl.w	r7, r5, r7
87802958:	fa24 f306 	lsr.w	r3, r4, r6
8780295c:	fa25 fe0e 	lsr.w	lr, r5, lr
87802960:	fa25 fc06 	lsr.w	ip, r5, r6
87802964:	433b      	orrs	r3, r7
87802966:	1900      	adds	r0, r0, r4
87802968:	ea43 040e 	orr.w	r4, r3, lr
8780296c:	f1a6 0e20 	sub.w	lr, r6, #32
87802970:	fa0c f306 	lsl.w	r3, ip, r6
87802974:	fa04 fe0e 	lsl.w	lr, r4, lr
87802978:	fa04 f206 	lsl.w	r2, r4, r6
8780297c:	f1c6 0720 	rsb	r7, r6, #32
87802980:	fa24 f707 	lsr.w	r7, r4, r7
87802984:	ea43 030e 	orr.w	r3, r3, lr
87802988:	4169      	adcs	r1, r5
8780298a:	433b      	orrs	r3, r7
8780298c:	1a80      	subs	r0, r0, r2
8780298e:	4665      	mov	r5, ip
87802990:	eb61 0103 	sbc.w	r1, r1, r3
87802994:	f1ba 0f00 	cmp.w	sl, #0
87802998:	d001      	beq.n	8780299e <__udivmoddi4+0xfa>
8780299a:	e9ca 4500 	strd	r4, r5, [sl]
8780299e:	e8bd 87f0 	ldmia.w	sp!, {r4, r5, r6, r7, r8, r9, sl, pc}
878029a2:	fab4 f184 	clz	r1, r4
878029a6:	3120      	adds	r1, #32
878029a8:	e792      	b.n	878028d0 <__udivmoddi4+0x2c>
878029aa:	fab2 f682 	clz	r6, r2
878029ae:	fab5 f185 	clz	r1, r5
878029b2:	3620      	adds	r6, #32
878029b4:	2d00      	cmp	r5, #0
878029b6:	d18b      	bne.n	878028d0 <__udivmoddi4+0x2c>
878029b8:	e7f3      	b.n	878029a2 <__udivmoddi4+0xfe>
878029ba:	bf00      	nop
878029bc:	0000      	movs	r0, r0
	...

878029c0 <__main_from_arm>:
878029c0:	e51ff004 	ldr	pc, [pc, #-4]	; 878029c4 <__main_from_arm+0x4>
878029c4:	8780037d 			; <UNDEFINED> instruction: 0x8780037d

Disassembly of section .rodata:

878029c8 <.LC0>:
878029c8:	203a5249 	eorscs	r5, sl, r9, asr #4
878029cc:	41206425 	teqmi	r0, r5, lsr #8
878029d0:	203a534c 	eorscs	r5, sl, ip, asr #6
878029d4:	50206425 	eorpl	r6, r0, r5, lsr #8
878029d8:	25203a53 	strcs	r3, [r0, #-2643]!	; 0xa53
878029dc:	0a0d2064 	beq	87b4ab74 <__bss_end+0x34734c>
878029e0:	00000000 	andeq	r0, r0, r0

878029e4 <digits.9014>:
878029e4:	33323130 	teqcc	r2, #48, 2
878029e8:	37363534 			; <UNDEFINED> instruction: 0x37363534
878029ec:	42413938 	submi	r3, r1, #56, 18	; 0xe0000
878029f0:	46454443 	strbmi	r4, [r5], -r3, asr #8
878029f4:	4c554e3c 	mrrcmi	14, 3, r4, r5, cr12
878029f8:	00003e4c 	andeq	r3, r0, ip, asr #28

878029fc <CSWTCH.9>:
878029fc:	00000004 	andeq	r0, r0, r4
87802a00:	00000003 	andeq	r0, r0, r3
87802a04:	00000002 	andeq	r0, r0, r2
87802a08:	00000001 	andeq	r0, r0, r1
87802a0c:	00000000 	andeq	r0, r0, r0
87802a10:	00000006 	andeq	r0, r0, r6

Disassembly of section .ARM.exidx:

87802a14 <.ARM.exidx>:
87802a14:	7ffffe90 	svcvc	0x00fffe90
87802a18:	00000001 	andeq	r0, r0, r1

Disassembly of section .data:

87802a1c <_ctype>:
87802a1c:	08080808 	stmdaeq	r8, {r3, fp}
87802a20:	08080808 	stmdaeq	r8, {r3, fp}
87802a24:	28282808 	stmdacs	r8!, {r3, fp, sp}
87802a28:	08082828 	stmdaeq	r8, {r3, r5, fp, sp}
87802a2c:	08080808 	stmdaeq	r8, {r3, fp}
87802a30:	08080808 	stmdaeq	r8, {r3, fp}
87802a34:	08080808 	stmdaeq	r8, {r3, fp}
87802a38:	08080808 	stmdaeq	r8, {r3, fp}
87802a3c:	101010a0 	andsne	r1, r0, r0, lsr #1
87802a40:	10101010 	andsne	r1, r0, r0, lsl r0
87802a44:	10101010 	andsne	r1, r0, r0, lsl r0
87802a48:	10101010 	andsne	r1, r0, r0, lsl r0
87802a4c:	04040404 	streq	r0, [r4], #-1028	; 0x404
87802a50:	04040404 	streq	r0, [r4], #-1028	; 0x404
87802a54:	10100404 	andsne	r0, r0, r4, lsl #8
87802a58:	10101010 	andsne	r1, r0, r0, lsl r0
87802a5c:	41414110 	cmpmi	r1, r0, lsl r1
87802a60:	01414141 	cmpeq	r1, r1, asr #2
87802a64:	01010101 	tsteq	r1, r1, lsl #2
87802a68:	01010101 	tsteq	r1, r1, lsl #2
87802a6c:	01010101 	tsteq	r1, r1, lsl #2
87802a70:	01010101 	tsteq	r1, r1, lsl #2
87802a74:	10010101 	andne	r0, r1, r1, lsl #2
87802a78:	10101010 	andsne	r1, r0, r0, lsl r0
87802a7c:	42424210 	submi	r4, r2, #16, 4
87802a80:	02424242 	subeq	r4, r2, #536870916	; 0x20000004
87802a84:	02020202 	andeq	r0, r2, #536870912	; 0x20000000
87802a88:	02020202 	andeq	r0, r2, #536870912	; 0x20000000
87802a8c:	02020202 	andeq	r0, r2, #536870912	; 0x20000000
87802a90:	02020202 	andeq	r0, r2, #536870912	; 0x20000000
87802a94:	10020202 	andne	r0, r2, r2, lsl #4
87802a98:	08101010 	ldmdaeq	r0, {r4, ip}
	...
87802abc:	101010a0 	andsne	r1, r0, r0, lsr #1
87802ac0:	10101010 	andsne	r1, r0, r0, lsl r0
87802ac4:	10101010 	andsne	r1, r0, r0, lsl r0
87802ac8:	10101010 	andsne	r1, r0, r0, lsl r0
87802acc:	10101010 	andsne	r1, r0, r0, lsl r0
87802ad0:	10101010 	andsne	r1, r0, r0, lsl r0
87802ad4:	10101010 	andsne	r1, r0, r0, lsl r0
87802ad8:	10101010 	andsne	r1, r0, r0, lsl r0
87802adc:	01010101 	tsteq	r1, r1, lsl #2
87802ae0:	01010101 	tsteq	r1, r1, lsl #2
87802ae4:	01010101 	tsteq	r1, r1, lsl #2
87802ae8:	01010101 	tsteq	r1, r1, lsl #2
87802aec:	01010101 	tsteq	r1, r1, lsl #2
87802af0:	10010101 	andne	r0, r1, r1, lsl #2
87802af4:	01010101 	tsteq	r1, r1, lsl #2
87802af8:	02010101 	andeq	r0, r1, #1073741824	; 0x40000000
87802afc:	02020202 	andeq	r0, r2, #536870912	; 0x20000000
87802b00:	02020202 	andeq	r0, r2, #536870912	; 0x20000000
87802b04:	02020202 	andeq	r0, r2, #536870912	; 0x20000000
87802b08:	02020202 	andeq	r0, r2, #536870912	; 0x20000000
87802b0c:	02020202 	andeq	r0, r2, #536870912	; 0x20000000
87802b10:	10020202 	andne	r0, r2, r2, lsl #4
87802b14:	02020202 	andeq	r0, r2, #536870912	; 0x20000000
87802b18:	02020202 	andeq	r0, r2, #536870912	; 0x20000000

Disassembly of section .bss:

87802b1c <ulCpuTraceTick>:
87802b1c:	00000000 	andeq	r0, r0, r0

87802b20 <irqNesting>:
87802b20:	00000000 	andeq	r0, r0, r0

87802b24 <irqTable>:
	...

87803024 <g_pcOutBuf>:
	...

87803424 <g_pcInBuf>:
	...

87803824 <___strtok>:
87803824:	00000000 	andeq	r0, r0, r0

