
/home/wyz/Atom/IMX6ULL/Board_Driver/test/epit_test/build/epit_test.elf:     file format elf32-littlearm


Disassembly of section .text:

87800000 <_start>:
87800000:	e59ff100 	ldr	pc, [pc, #256]	; 87800108 <FIQ_Handler+0x8>
87800004:	e59ff100 	ldr	pc, [pc, #256]	; 8780010c <FIQ_Handler+0xc>
87800008:	e59ff100 	ldr	pc, [pc, #256]	; 87800110 <FIQ_Handler+0x10>
8780000c:	e59ff100 	ldr	pc, [pc, #256]	; 87800114 <FIQ_Handler+0x14>
87800010:	e59ff100 	ldr	pc, [pc, #256]	; 87800118 <FIQ_Handler+0x18>
87800014:	e59ff100 	ldr	pc, [pc, #256]	; 8780011c <FIQ_Handler+0x1c>
87800018:	e59ff100 	ldr	pc, [pc, #256]	; 87800120 <FIQ_Handler+0x20>
8780001c:	e59ff100 	ldr	pc, [pc, #256]	; 87800124 <FIQ_Handler+0x24>

87800020 <Reset_Handler>:
87800020:	f10c0080 	cpsid	i
87800024:	ee110f10 	mrc	15, 0, r0, cr1, cr0, {0}
87800028:	e3c00a01 	bic	r0, r0, #4096	; 0x1000
8780002c:	e3c00004 	bic	r0, r0, #4
87800030:	e3c00002 	bic	r0, r0, #2
87800034:	e3c00b02 	bic	r0, r0, #2048	; 0x800
87800038:	e3c00001 	bic	r0, r0, #1
8780003c:	ee010f10 	mcr	15, 0, r0, cr1, cr0, {0}
87800040:	e10f0000 	mrs	r0, CPSR
87800044:	e3c0001f 	bic	r0, r0, #31
87800048:	e3800012 	orr	r0, r0, #18
8780004c:	e129f000 	msr	CPSR_fc, r0
87800050:	e59fd0d0 	ldr	sp, [pc, #208]	; 87800128 <FIQ_Handler+0x28>
87800054:	e10f0000 	mrs	r0, CPSR
87800058:	e3c0001f 	bic	r0, r0, #31
8780005c:	e380001f 	orr	r0, r0, #31
87800060:	e129f000 	msr	CPSR_fc, r0
87800064:	e59fd0c0 	ldr	sp, [pc, #192]	; 8780012c <FIQ_Handler+0x2c>
87800068:	e10f0000 	mrs	r0, CPSR
8780006c:	e3c0001f 	bic	r0, r0, #31
87800070:	e3800013 	orr	r0, r0, #19
87800074:	e129f000 	msr	CPSR_fc, r0
87800078:	e59fd0b0 	ldr	sp, [pc, #176]	; 87800130 <FIQ_Handler+0x30>
8780007c:	f1080080 	cpsie	i
87800080:	ea0009ca 	b	878027b0 <__main_from_arm>

87800084 <Undefined_Handler>:
87800084:	e59f0080 	ldr	r0, [pc, #128]	; 8780010c <FIQ_Handler+0xc>
87800088:	e12fff10 	bx	r0

8780008c <SVC_Handler>:
8780008c:	e59f007c 	ldr	r0, [pc, #124]	; 87800110 <FIQ_Handler+0x10>
87800090:	e12fff10 	bx	r0

87800094 <PrefAbort_Handler>:
87800094:	e59f0078 	ldr	r0, [pc, #120]	; 87800114 <FIQ_Handler+0x14>
87800098:	e12fff10 	bx	r0

8780009c <DataAbort_Handler>:
8780009c:	e59f0074 	ldr	r0, [pc, #116]	; 87800118 <FIQ_Handler+0x18>
878000a0:	e12fff10 	bx	r0

878000a4 <NotUsed_Handler>:
878000a4:	e59f0070 	ldr	r0, [pc, #112]	; 8780011c <FIQ_Handler+0x1c>
878000a8:	e12fff10 	bx	r0

878000ac <IRQ_Handler>:
878000ac:	e52de004 	push	{lr}		; (str lr, [sp, #-4]!)
878000b0:	e92d100f 	push	{r0, r1, r2, r3, ip}
878000b4:	e14f0000 	mrs	r0, SPSR
878000b8:	e52d0004 	push	{r0}		; (str r0, [sp, #-4]!)
878000bc:	ee9f1f10 	mrc	15, 4, r1, cr15, cr0, {0}
878000c0:	e2811a02 	add	r1, r1, #8192	; 0x2000
878000c4:	e591000c 	ldr	r0, [r1, #12]
878000c8:	e92d0003 	push	{r0, r1}
878000cc:	f1020013 	cps	#19
878000d0:	e52de004 	push	{lr}		; (str lr, [sp, #-4]!)
878000d4:	e59f2058 	ldr	r2, [pc, #88]	; 87800134 <FIQ_Handler+0x34>
878000d8:	e12fff32 	blx	r2
878000dc:	e49de004 	pop	{lr}		; (ldr lr, [sp], #4)
878000e0:	f1020012 	cps	#18
878000e4:	e8bd0003 	pop	{r0, r1}
878000e8:	e5810010 	str	r0, [r1, #16]
878000ec:	e49d0004 	pop	{r0}		; (ldr r0, [sp], #4)
878000f0:	e16ff000 	msr	SPSR_fsxc, r0
878000f4:	e8bd100f 	pop	{r0, r1, r2, r3, ip}
878000f8:	e49de004 	pop	{lr}		; (ldr lr, [sp], #4)
878000fc:	e25ef004 	subs	pc, lr, #4

87800100 <FIQ_Handler>:
87800100:	e59f001c 	ldr	r0, [pc, #28]	; 87800124 <FIQ_Handler+0x24>
87800104:	e12fff10 	bx	r0
87800108:	87800020 	strhi	r0, [r0, r0, lsr #32]
8780010c:	87800084 	strhi	r0, [r0, r4, lsl #1]
87800110:	8780008c 	strhi	r0, [r0, ip, lsl #1]
87800114:	87800094 			; <UNDEFINED> instruction: 0x87800094
87800118:	8780009c 			; <UNDEFINED> instruction: 0x8780009c
8780011c:	878000a4 	strhi	r0, [r0, r4, lsr #1]
87800120:	878000ac 	strhi	r0, [r0, ip, lsr #1]
87800124:	87800100 	strhi	r0, [r0, r0, lsl #2]
87800128:	80600000 	rsbhi	r0, r0, r0
8780012c:	80400000 	subhi	r0, r0, r0
87800130:	80200000 	eorhi	r0, r0, r0
87800134:	87800901 	strhi	r0, [r0, r1, lsl #18]
87800138:	00001e41 	andeq	r1, r0, r1, asr #28
8780013c:	61656100 	cmnvs	r5, r0, lsl #2
87800140:	01006962 	tsteq	r0, r2, ror #18
87800144:	00000014 	andeq	r0, r0, r4, lsl r0
87800148:	412d3705 	teqmi	sp, r5, lsl #14
8780014c:	070a0600 	streq	r0, [sl, -r0, lsl #12]
87800150:	09010841 	stmdbeq	r1, {r0, r6, fp}
87800154:	89040a02 	stmdbhi	r4, {r1, r9, fp}
87800158:	02000000 	andeq	r0, r0, #0
8780015c:	00001e00 	andeq	r1, r0, r0, lsl #28
87800160:	fb010200 	blx	8784096a <__bss_end+0x3db82>
87800164:	01000d0e 	tsteq	r0, lr, lsl #26
87800168:	00010101 	andeq	r0, r1, r1, lsl #2
8780016c:	00010000 	andeq	r0, r1, r0
87800170:	73000100 	movwvc	r0, #256	; 0x100
87800174:	74726174 	ldrbtvc	r6, [r2], #-372	; 0x174
87800178:	0000532e 	andeq	r5, r0, lr, lsr #6
8780017c:	00000000 	andeq	r0, r0, r0
87800180:	00000205 	andeq	r0, r0, r5, lsl #4
87800184:	11038780 	smlabbne	r3, r0, r7, r8
87800188:	2f2f2f01 	svccs	0x002f2f01
8780018c:	2f2f2f2f 	svccs	0x002f2f2f
87800190:	2f2f3333 	svccs	0x002f3333
87800194:	2f2f2f2f 	svccs	0x002f2f2f
87800198:	2f2e1403 	svccs	0x002e1403
8780019c:	312f2f2f 	teqcc	pc, pc, lsr #30
878001a0:	2f2f2f2f 	svccs	0x002f2f2f
878001a4:	2f2f2f31 	svccs	0x002f2f31
878001a8:	3236302f 	eorscc	r3, r6, #47	; 0x2f
878001ac:	322f322f 	eorcc	r3, pc, #-268435454	; 0xf0000002
878001b0:	332f322f 	teqcc	pc, #-268435454	; 0xf0000002
878001b4:	302f322f 	eorcc	r3, pc, pc, lsr #4
878001b8:	2f32302f 	svccs	0x0032302f
878001bc:	2f303032 	svccs	0x00303032
878001c0:	2f2f302f 	svccs	0x002f302f
878001c4:	302f302f 	eorcc	r3, pc, pc, lsr #32
878001c8:	2f352f2f 	svccs	0x00352f2f
878001cc:	2e7ef203 	cdpcs	2, 7, cr15, cr14, cr3, {0}
878001d0:	2f2f2f2f 	svccs	0x002f2f2f
878001d4:	032f2f2f 	teqeq	pc, #47, 30	; 0xbc
878001d8:	35352e28 	ldrcc	r2, [r5, #-3624]!	; 0xe28
878001dc:	022e3c03 	eoreq	r3, lr, #768	; 0x300
878001e0:	01010002 	tsteq	r1, r2
878001e4:	0000005f 	andeq	r0, r0, pc, asr r0
878001e8:	02470002 	subeq	r0, r7, #2
878001ec:	01048780 	smlabbeq	r4, r0, r7, r8
878001f0:	87800157 			; <UNDEFINED> instruction: 0x87800157
878001f4:	87800000 	strhi	r0, [r0, r0]
878001f8:	87800138 			; <UNDEFINED> instruction: 0x87800138
878001fc:	72617473 	rsbvc	r7, r1, #1929379840	; 0x73000000
87800200:	00532e74 	subseq	r2, r3, r4, ror lr
87800204:	6d6f682f 	stclvs	8, cr6, [pc, #-188]!	; 87800150 <FIQ_Handler+0x50>
87800208:	79772f65 	ldmdbvc	r7!, {r0, r2, r5, r6, r8, r9, sl, fp, sp}^
8780020c:	74412f7a 	strbvc	r2, [r1], #-3962	; 0xf7a
87800210:	492f6d6f 	stmdbmi	pc!, {r0, r1, r2, r3, r5, r6, r8, sl, fp, sp, lr}	; <UNPREDICTABLE>
87800214:	5536584d 	ldrpl	r5, [r6, #-2125]!	; 0x84d
87800218:	422f4c4c 	eormi	r4, pc, #76, 24	; 0x4c00
8780021c:	6472616f 	ldrbtvs	r6, [r2], #-367	; 0x16f
87800220:	6972445f 	ldmdbvs	r2!, {r0, r1, r2, r3, r4, r6, sl, lr}^
87800224:	2f726576 	svccs	0x00726576
87800228:	74736574 	ldrbtvc	r6, [r3], #-1396	; 0x574
8780022c:	6970652f 	ldmdbvs	r0!, {r0, r1, r2, r3, r5, r8, sl, sp, lr}^
87800230:	65745f74 	ldrbvs	r5, [r4, #-3956]!	; 0xf74
87800234:	47007473 	smlsdxmi	r0, r3, r4, r7
87800238:	4120554e 	teqmi	r0, lr, asr #10
8780023c:	2e322053 	mrccs	0, 1, r2, cr2, cr3, {2}
87800240:	302e3432 	eorcc	r3, lr, r2, lsr r4
87800244:	01800100 	orreq	r0, r0, r0, lsl #2
87800248:	06100011 			; <UNDEFINED> instruction: 0x06100011
8780024c:	01120111 	tsteq	r2, r1, lsl r1
87800250:	081b0803 	ldmdaeq	fp, {r0, r1, fp}
87800254:	05130825 	ldreq	r0, [r3, #-2085]	; 0x825
	...
87800260:	0000001c 	andeq	r0, r0, ip, lsl r0
87800264:	01e40002 	mvneq	r0, r2
87800268:	00048780 	andeq	r8, r4, r0, lsl #15
8780026c:	00000000 	andeq	r0, r0, r0
87800270:	87800000 	strhi	r0, [r0, r0]
87800274:	00000138 	andeq	r0, r0, r8, lsr r1
	...

87800280 <key_irq_handler>:
87800280:	b580      	push	{r7, lr}
87800282:	b084      	sub	sp, #16
87800284:	af00      	add	r7, sp, #0
87800286:	6078      	str	r0, [r7, #4]
87800288:	2301      	movs	r3, #1
8780028a:	73fb      	strb	r3, [r7, #15]
8780028c:	7bfb      	ldrb	r3, [r7, #15]
8780028e:	2b00      	cmp	r3, #0
87800290:	bf0c      	ite	eq
87800292:	2301      	moveq	r3, #1
87800294:	2300      	movne	r3, #0
87800296:	b2db      	uxtb	r3, r3
87800298:	73fb      	strb	r3, [r7, #15]
8780029a:	7bfb      	ldrb	r3, [r7, #15]
8780029c:	4618      	mov	r0, r3
8780029e:	f000 fb77 	bl	87800990 <bsp_led_switch>
878002a2:	f240 20ec 	movw	r0, #748	; 0x2ec
878002a6:	f2c8 7080 	movt	r0, #34688	; 0x8780
878002aa:	f000 fc95 	bl	87800bd8 <log>
878002ae:	f000 fbb9 	bl	87800a24 <epti_clear_interrupt>
878002b2:	3710      	adds	r7, #16
878002b4:	46bd      	mov	sp, r7
878002b6:	bd80      	pop	{r7, pc}

878002b8 <main>:
878002b8:	b580      	push	{r7, lr}
878002ba:	b082      	sub	sp, #8
878002bc:	af00      	add	r7, sp, #0
878002be:	6078      	str	r0, [r7, #4]
878002c0:	6039      	str	r1, [r7, #0]
878002c2:	f000 fabb 	bl	8780083c <system_int_init>
878002c6:	f000 fa59 	bl	8780077c <imx6ull_sclinit>
878002ca:	f000 fa2f 	bl	8780072c <all_clk_enable>
878002ce:	f000 fb33 	bl	87800938 <bsp_led_init>
878002d2:	f000 fb55 	bl	87800980 <bsp_led_off>
878002d6:	f240 2281 	movw	r2, #641	; 0x281
878002da:	f2c8 7280 	movt	r2, #34688	; 0x8780
878002de:	2100      	movs	r1, #0
878002e0:	f44f 70fa 	mov.w	r0, #500	; 0x1f4
878002e4:	f000 fb6a 	bl	878009bc <epit_timer>
878002e8:	e7fe      	b.n	878002e8 <main+0x30>
878002ea:	bf00      	nop

878002ec <.LC0>:
878002ec:	69747065 	ldmdbvs	r4!, {r0, r2, r5, r6, ip, sp, lr}^
878002f0:	746e6920 	strbtvc	r6, [lr], #-2336	; 0x920
878002f4:	75727265 	ldrbvc	r7, [r2, #-613]!	; 0x265
878002f8:	000a7470 	andeq	r7, sl, r0, ror r4
878002fc:	000000ec 	andeq	r0, r0, ip, ror #1
87800300:	03ec0004 	mvneq	r0, #4
87800304:	01048780 	smlabbeq	r4, r0, r7, r8
87800308:	878005ea 	strhi	r0, [r0, sl, ror #11]
8780030c:	8005de01 	andhi	sp, r5, r1, lsl #28
87800310:	8005ab87 	andhi	sl, r5, r7, lsl #23
87800314:	80028087 	andhi	r8, r2, r7, lsl #1
87800318:	00006a87 	andeq	r6, r0, r7, lsl #21
8780031c:	8004c600 	andhi	ip, r4, r0, lsl #12
87800320:	08010287 	stmdaeq	r1, {r0, r1, r2, r7, r9}
87800324:	8780059d 			; <UNDEFINED> instruction: 0x8780059d
87800328:	47070202 	strmi	r0, [r7, -r2, lsl #4]
8780032c:	02878005 	addeq	r8, r7, #5
87800330:	05800704 	streq	r0, [r0, #1796]	; 0x704
87800334:	08028780 	stmdaeq	r2, {r7, r8, r9, sl, pc}
87800338:	80057607 	andhi	r7, r5, r7, lsl #12
8780033c:	08010287 	stmdaeq	r1, {r0, r1, r2, r7, r9}
87800340:	878005a6 	strhi	r0, [r0, r6, lsr #11]
87800344:	6a050202 	bvs	87940b54 <__bss_end+0x13dd6c>
87800348:	03878006 	orreq	r8, r7, #6
8780034c:	6e690504 	cdpvs	5, 6, cr0, cr9, cr4, {0}
87800350:	04020074 	streq	r0, [r2], #-116	; 0x74
87800354:	80067407 	andhi	r7, r6, r7, lsl #8
87800358:	055a0487 	ldrbeq	r0, [sl, #-1159]	; 0x487
8780035c:	10028780 	andne	r8, r2, r0, lsl #15
87800360:	00000068 	andeq	r0, r0, r8, rrx
87800364:	006e0405 	rsbeq	r0, lr, r5, lsl #8
87800368:	79060000 	stmdbvc	r6, {}	; <UNPREDICTABLE>
8780036c:	07000000 	streq	r0, [r0, -r0]
87800370:	00000079 	andeq	r0, r0, r9, ror r0
87800374:	05040800 	streq	r0, [r4, #-2048]	; 0x800
87800378:	00004104 	andeq	r4, r0, r4, lsl #2
8780037c:	058d0900 	streq	r0, [sp, #2304]	; 0x900
87800380:	0f018780 	svceq	0x00018780
87800384:	87800280 	strhi	r0, [r0, r0, lsl #5]
87800388:	00000038 	andeq	r0, r0, r8, lsr r0
8780038c:	00b39c01 	adcseq	r9, r3, r1, lsl #24
87800390:	610a0000 	mrsvs	r0, (UNDEF: 10)
87800394:	01006772 	tsteq	r0, r2, ror r7
87800398:	0000790f 	andeq	r7, r0, pc, lsl #18
8780039c:	6c910200 	lfmvs	f0, 4, [r1], {0}
878003a0:	80056c0b 	andhi	r6, r5, fp, lsl #24
878003a4:	25120187 	ldrcs	r0, [r2, #-391]	; 0x187
878003a8:	02000000 	andeq	r0, r0, #0
878003ac:	0c007791 	stceq	7, cr7, [r0], {145}	; 0x91
878003b0:	87800567 	strhi	r0, [r0, r7, ror #10]
878003b4:	004f1e01 	subeq	r1, pc, r1, lsl #28
878003b8:	02b80000 	adcseq	r0, r8, #0
878003bc:	00328780 	eorseq	r8, r2, r0, lsl #15
878003c0:	9c010000 	stcls	0, cr0, [r1], {-0}
878003c4:	000000e9 	andeq	r0, r0, r9, ror #1
878003c8:	8005e50d 	andhi	lr, r5, sp, lsl #10
878003cc:	4f1e0187 	svcmi	0x001e0187
878003d0:	02000000 	andeq	r0, r0, #0
878003d4:	650d7491 	strvs	r7, [sp, #-1169]	; 0x491
878003d8:	01878006 	orreq	r8, r7, r6
878003dc:	0000e91e 	andeq	lr, r0, lr, lsl r9
878003e0:	70910200 	addsvc	r0, r1, r0, lsl #4
878003e4:	7b040500 	blvc	879017ec <__bss_end+0xfea04>
878003e8:	00000000 	andeq	r0, r0, r0
878003ec:	25011101 	strcs	r1, [r1, #-257]	; 0x101
878003f0:	030b130e 	movweq	r1, #45838	; 0xb30e
878003f4:	110e1b0e 	tstne	lr, lr, lsl #22
878003f8:	10061201 	andne	r1, r6, r1, lsl #4
878003fc:	02000017 	andeq	r0, r0, #23
87800400:	0b0b0024 	bleq	87ac0498 <__bss_end+0x2bd6b0>
87800404:	0e030b3e 	vmoveq.16	d3[0], r0
87800408:	24030000 	strcs	r0, [r3], #-0
8780040c:	3e0b0b00 	vmlacc.f64	d0, d11, d0
87800410:	0008030b 	andeq	r0, r8, fp, lsl #6
87800414:	00160400 	andseq	r0, r6, r0, lsl #8
87800418:	0b3a0e03 	bleq	88683c2c <__bss_end+0xe80e44>
8780041c:	13490b3b 	movtne	r0, #39739	; 0x9b3b
87800420:	0f050000 	svceq	0x00050000
87800424:	490b0b00 	stmdbmi	fp, {r8, r9, fp}
87800428:	06000013 			; <UNDEFINED> instruction: 0x06000013
8780042c:	19270115 	stmdbne	r7!, {r0, r2, r4, r8}
87800430:	00001301 	andeq	r1, r0, r1, lsl #6
87800434:	49000507 	stmdbmi	r0, {r0, r1, r2, r8, sl}
87800438:	08000013 	stmdaeq	r0, {r0, r1, r4}
8780043c:	0b0b000f 	bleq	87ac0480 <__bss_end+0x2bd698>
87800440:	2e090000 	cdpcs	0, 0, cr0, cr9, cr0, {0}
87800444:	03193f01 	tsteq	r9, #1, 30
87800448:	3b0b3a0e 	blcc	87acec88 <__bss_end+0x2cbea0>
8780044c:	1119270b 	tstne	r9, fp, lsl #14
87800450:	40061201 	andmi	r1, r6, r1, lsl #4
87800454:	19429618 	stmdbne	r2, {r3, r4, r9, sl, ip, pc}^
87800458:	00001301 	andeq	r1, r0, r1, lsl #6
8780045c:	0300050a 	movweq	r0, #1290	; 0x50a
87800460:	3b0b3a08 	blcc	87acec88 <__bss_end+0x2cbea0>
87800464:	0213490b 	andseq	r4, r3, #180224	; 0x2c000
87800468:	0b000018 	bleq	878004d0 <.LC0+0x1e4>
8780046c:	0e030034 	mcreq	0, 0, r0, cr3, cr4, {1}
87800470:	0b3b0b3a 	bleq	886c3160 <__bss_end+0xec0378>
87800474:	18021349 	stmdane	r2, {r0, r3, r6, r8, r9, ip}
87800478:	2e0c0000 	cdpcs	0, 0, cr0, cr12, cr0, {0}
8780047c:	03193f01 	tsteq	r9, #1, 30
87800480:	3b0b3a0e 	blcc	87acecc0 <__bss_end+0x2cbed8>
87800484:	4919270b 	ldmdbmi	r9, {r0, r1, r3, r8, r9, sl, sp}
87800488:	12011113 	andne	r1, r1, #-1073741820	; 0xc0000004
8780048c:	96184006 	ldrls	r4, [r8], -r6
87800490:	13011942 	movwne	r1, #6466	; 0x1942
87800494:	050d0000 	streq	r0, [sp, #-0]
87800498:	3a0e0300 	bcc	87b810a0 <__bss_end+0x37e2b8>
8780049c:	490b3b0b 	stmdbmi	fp, {r0, r1, r3, r8, r9, fp, ip, sp}
878004a0:	00180213 	andseq	r0, r8, r3, lsl r2
878004a4:	001c0000 	andseq	r0, ip, r0
878004a8:	00020000 	andeq	r0, r2, r0
878004ac:	878002fc 			; <UNDEFINED> instruction: 0x878002fc
878004b0:	00000004 	andeq	r0, r0, r4
878004b4:	02800000 	addeq	r0, r0, #0
878004b8:	006a8780 	rsbeq	r8, sl, r0, lsl #15
	...
878004c4:	007d0000 	rsbseq	r0, sp, r0
878004c8:	00020000 	andeq	r0, r2, r0
878004cc:	00000056 	andeq	r0, r0, r6, asr r0
878004d0:	0efb0102 	cdpeq	1, 15, cr0, cr11, cr2, {0}
878004d4:	0101000d 	tsteq	r1, sp
878004d8:	00000101 	andeq	r0, r0, r1, lsl #2
878004dc:	00000100 	andeq	r0, r0, r0, lsl #2
878004e0:	6f682f01 	svcvs	0x00682f01
878004e4:	772f656d 	strvc	r6, [pc, -sp, ror #10]!
878004e8:	412f7a79 	teqmi	pc, r9, ror sl	; <UNPREDICTABLE>
878004ec:	2f6d6f74 	svccs	0x006d6f74
878004f0:	36584d49 	ldrbcc	r4, [r8], -r9, asr #26
878004f4:	2f4c4c55 	svccs	0x004c4c55
878004f8:	72616f42 	rsbvc	r6, r1, #264	; 0x108
878004fc:	72445f64 	subvc	r5, r4, #100, 30	; 0x190
87800500:	72657669 	rsbvc	r7, r5, #110100480	; 0x6900000
87800504:	7073622f 	rsbsvc	r6, r3, pc, lsr #4
87800508:	746e692f 	strbtvc	r6, [lr], #-2351	; 0x92f
8780050c:	65740000 	ldrbvs	r0, [r4, #-0]!
87800510:	632e7473 	teqvs	lr, #1929379840	; 0x73000000
87800514:	00000000 	andeq	r0, r0, r0
87800518:	5f707362 	svcpl	0x00707362
8780051c:	2e746e69 	cdpcs	14, 7, cr6, cr4, cr9, {3}
87800520:	00010068 	andeq	r0, r1, r8, rrx
87800524:	05000000 	streq	r0, [r0, #-0]
87800528:	80028002 	andhi	r8, r2, r2
8780052c:	010f0387 	smlabbeq	pc, r7, r3, r0	; <UNPREDICTABLE>
87800530:	4b75334c 	blmi	8954d268 <__bss_end+0x1d4a480>
87800534:	593f2f68 	ldmdbpl	pc!, {r3, r5, r6, r8, r9, sl, fp, sp}	; <UNPREDICTABLE>
87800538:	2f2f2f2f 	svccs	0x002f2f2f
8780053c:	0402002f 	streq	r0, [r2], #-47	; 0x2f
87800540:	01029101 	tsteq	r2, r1, lsl #2
87800544:	73010100 	movwvc	r0, #4352	; 0x1100
87800548:	74726f68 	ldrbtvc	r6, [r2], #-3944	; 0xf68
8780054c:	736e7520 	cmnvc	lr, #32, 10	; 0x8000000
87800550:	656e6769 	strbvs	r6, [lr, #-1897]!	; 0x769
87800554:	6e692064 	cdpvs	0, 6, cr2, cr9, cr4, {3}
87800558:	72690074 	rsbvc	r0, r9, #116	; 0x74
8780055c:	61685f71 	smcvs	34289	; 0x85f1
87800560:	656c646e 	strbvs	r6, [ip, #-1134]!	; 0x46e
87800564:	6d00745f 	cfstrsvs	mvf7, [r0, #-380]	; 0xfffffe84
87800568:	006e6961 	rsbeq	r6, lr, r1, ror #18
8780056c:	5f64656c 	svcpl	0x0064656c
87800570:	74617473 	strbtvc	r7, [r1], #-1139	; 0x473
87800574:	6f6c0065 	svcvs	0x006c0065
87800578:	6c20676e 	stcvs	7, cr6, [r0], #-440	; 0xfffffe48
8780057c:	20676e6f 	rsbcs	r6, r7, pc, ror #28
87800580:	69736e75 	ldmdbvs	r3!, {r0, r2, r4, r5, r6, r9, sl, fp, sp, lr}^
87800584:	64656e67 	strbtvs	r6, [r5], #-3687	; 0xe67
87800588:	746e6920 	strbtvc	r6, [lr], #-2336	; 0x920
8780058c:	79656b00 	stmdbvc	r5!, {r8, r9, fp, sp, lr}^
87800590:	7172695f 	cmnvc	r2, pc, asr r9
87800594:	6e61685f 	mcrvs	8, 3, r6, cr1, cr15, {2}
87800598:	72656c64 	rsbvc	r6, r5, #100, 24	; 0x6400
8780059c:	736e7500 	cmnvc	lr, #0, 10
878005a0:	656e6769 	strbvs	r6, [lr, #-1897]!	; 0x769
878005a4:	68632064 	stmdavs	r3!, {r2, r5, r6, sp}^
878005a8:	2f007261 	svccs	0x00007261
878005ac:	656d6f68 	strbvs	r6, [sp, #-3944]!	; 0xf68
878005b0:	7a79772f 	bvc	8965e274 <__bss_end+0x1e5b48c>
878005b4:	6f74412f 	svcvs	0x0074412f
878005b8:	4d492f6d 	stclmi	15, cr2, [r9, #-436]	; 0xfffffe4c
878005bc:	4c553658 	mrrcmi	6, 5, r3, r5, cr8
878005c0:	6f422f4c 	svcvs	0x00422f4c
878005c4:	5f647261 	svcpl	0x00647261
878005c8:	76697244 	strbtvc	r7, [r9], -r4, asr #4
878005cc:	742f7265 	strtvc	r7, [pc], #-613	; 878005d4 <.LC0+0x2e8>
878005d0:	2f747365 	svccs	0x00747365
878005d4:	74697065 	strbtvc	r7, [r9], #-101	; 0x65
878005d8:	7365745f 	cmnvc	r5, #1593835520	; 0x5f000000
878005dc:	65740074 	ldrbvs	r0, [r4, #-116]!	; 0x74
878005e0:	632e7473 	teqvs	lr, #1929379840	; 0x73000000
878005e4:	67726100 	ldrbvs	r6, [r2, -r0, lsl #2]!
878005e8:	4e470063 	cdpmi	0, 4, cr0, cr7, cr3, {3}
878005ec:	20432055 	subcs	r2, r3, r5, asr r0
878005f0:	2e392e34 	mrccs	14, 1, r2, cr9, cr4, {1}
878005f4:	6d2d2034 	stcvs	0, cr2, [sp, #-208]!	; 0xffffff30
878005f8:	68637261 	stmdavs	r3!, {r0, r5, r6, r9, ip, sp, lr}^
878005fc:	6d72613d 	ldfvse	f6, [r2, #-244]!	; 0xffffff0c
87800600:	612d3776 	teqvs	sp, r6, ror r7
87800604:	746d2d20 	strbtvc	r2, [sp], #-3360	; 0xd20
87800608:	3d656e75 	stclcc	14, cr6, [r5, #-468]!	; 0xfffffe2c
8780060c:	74726f63 	ldrbtvc	r6, [r2], #-3939	; 0xf63
87800610:	612d7865 	teqvs	sp, r5, ror #16
87800614:	6d2d2039 	stcvs	0, cr2, [sp, #-228]!	; 0xffffff1c
87800618:	616f6c66 	cmnvs	pc, r6, ror #24
8780061c:	62612d74 	rsbvs	r2, r1, #116, 26	; 0x1d00
87800620:	61683d69 	cmnvs	r8, r9, ror #26
87800624:	2d206472 	cfstrscs	mvf6, [r0, #-456]!	; 0xfffffe38
87800628:	7570666d 	ldrbvc	r6, [r0, #-1645]!	; 0x66d
8780062c:	7066763d 	rsbvc	r7, r6, sp, lsr r6
87800630:	642d3376 	strtvs	r3, [sp], #-886	; 0x376
87800634:	2d203631 	stccs	6, cr3, [r0, #-196]!	; 0xffffff3c
87800638:	7568746d 	strbvc	r7, [r8, #-1133]!	; 0x46d
8780063c:	2d20626d 	sfmcs	f6, 4, [r0, #-436]!	; 0xfffffe4c
87800640:	736c746d 	cmnvc	ip, #1828716544	; 0x6d000000
87800644:	6169642d 	cmnvs	r9, sp, lsr #8
87800648:	7463656c 	strbtvc	r6, [r3], #-1388	; 0x56c
8780064c:	756e673d 	strbvc	r6, [lr, #-1853]!	; 0x73d
87800650:	20672d20 	rsbcs	r2, r7, r0, lsr #26
87800654:	20304f2d 	eorscs	r4, r0, sp, lsr #30
87800658:	6f6e662d 	svcvs	0x006e662d
8780065c:	6975622d 	ldmdbvs	r5!, {r0, r2, r3, r5, r9, sp, lr}^
87800660:	6e69746c 	cdpvs	4, 6, cr7, cr9, cr12, {3}
87800664:	67726100 	ldrbvs	r6, [r2, -r0, lsl #2]!
87800668:	68730076 	ldmdavs	r3!, {r1, r2, r4, r5, r6}^
8780066c:	2074726f 	rsbscs	r7, r4, pc, ror #4
87800670:	00746e69 	rsbseq	r6, r4, r9, ror #28
87800674:	657a6973 	ldrbvs	r6, [sl, #-2419]!	; 0x973
87800678:	65707974 	ldrbvs	r7, [r0, #-2420]!	; 0x974
8780067c:	43434700 	movtmi	r4, #14080	; 0x3700
87800680:	4c28203a 	stcmi	0, cr2, [r8], #-232	; 0xffffff18
87800684:	72616e69 	rsbvc	r6, r1, #1680	; 0x690
87800688:	4347206f 	movtmi	r2, #28783	; 0x706f
8780068c:	2e342043 	cdpcs	0, 3, cr2, cr4, cr3, {2}
87800690:	30322d39 	eorscc	r2, r2, r9, lsr sp
87800694:	302e3731 	eorcc	r3, lr, r1, lsr r7
87800698:	34202931 	strtcc	r2, [r0], #-2353	; 0x931
8780069c:	342e392e 	strtcc	r3, [lr], #-2350	; 0x92e
878006a0:	00344100 	eorseq	r4, r4, r0, lsl #2
878006a4:	65610000 	strbvs	r0, [r1, #-0]!
878006a8:	00696261 	rsbeq	r6, r9, r1, ror #4
878006ac:	00002a01 	andeq	r2, r0, r1, lsl #20
878006b0:	2d370500 	cfldr32cs	mvfx0, [r7, #-0]
878006b4:	0a060041 	beq	879807c0 <__bss_end+0x17d9d8>
878006b8:	01084107 	tsteq	r8, r7, lsl #2
878006bc:	040a0209 	streq	r0, [sl], #-521	; 0x209
878006c0:	01140412 	tsteq	r4, r2, lsl r4
878006c4:	03170115 	tsteq	r7, #1073741829	; 0x40000005
878006c8:	01190118 	tsteq	r9, r8, lsl r1
878006cc:	031b021a 	tsteq	fp, #-1610612735	; 0xa0000001
878006d0:	061e011c 			; <UNDEFINED> instruction: 0x061e011c
878006d4:	00000122 	andeq	r0, r0, r2, lsr #2
878006d8:	0000000c 	andeq	r0, r0, ip
878006dc:	ffffffff 			; <UNDEFINED> instruction: 0xffffffff
878006e0:	7c020001 	stcvc	0, cr0, [r2], {1}
878006e4:	000d0c0e 	andeq	r0, sp, lr, lsl #24
878006e8:	00000020 	andeq	r0, r0, r0, lsr #32
878006ec:	878006d8 			; <UNDEFINED> instruction: 0x878006d8
878006f0:	87800280 	strhi	r0, [r0, r0, lsl #5]
878006f4:	00000038 	andeq	r0, r0, r8, lsr r0
878006f8:	87080e41 	strhi	r0, [r8, -r1, asr #28]
878006fc:	41018e02 	tstmi	r1, r2, lsl #28
87800700:	0d41180e 	stcleq	8, cr1, [r1, #-56]	; 0xffffffc8
87800704:	080e5707 	stmdaeq	lr, {r0, r1, r2, r8, r9, sl, ip, lr}
87800708:	000d0d41 	andeq	r0, sp, r1, asr #26
8780070c:	0000001c 	andeq	r0, r0, ip, lsl r0
87800710:	878006d8 			; <UNDEFINED> instruction: 0x878006d8
87800714:	878002b8 			; <UNDEFINED> instruction: 0x878002b8
87800718:	00000032 	andeq	r0, r0, r2, lsr r0
8780071c:	87080e41 	strhi	r0, [r8, -r1, asr #28]
87800720:	41018e02 	tstmi	r1, r2, lsl #28
87800724:	0d41100e 	stcleq	0, cr1, [r1, #-56]	; 0xffffffc8
87800728:	00000007 	andeq	r0, r0, r7

8780072c <all_clk_enable>:
8780072c:	f244 0168 	movw	r1, #16488	; 0x4068
87800730:	f244 026c 	movw	r2, #16492	; 0x406c
87800734:	f04f 33ff 	mov.w	r3, #4294967295	; 0xffffffff
87800738:	f2c0 210c 	movt	r1, #524	; 0x20c
8780073c:	f2c0 220c 	movt	r2, #524	; 0x20c
87800740:	b430      	push	{r4, r5}
87800742:	f244 0078 	movw	r0, #16504	; 0x4078
87800746:	600b      	str	r3, [r1, #0]
87800748:	f244 0570 	movw	r5, #16496	; 0x4070
8780074c:	f244 0474 	movw	r4, #16500	; 0x4074
87800750:	6013      	str	r3, [r2, #0]
87800752:	f244 017c 	movw	r1, #16508	; 0x407c
87800756:	f44f 4281 	mov.w	r2, #16512	; 0x4080
8780075a:	f2c0 250c 	movt	r5, #524	; 0x20c
8780075e:	f2c0 240c 	movt	r4, #524	; 0x20c
87800762:	f2c0 200c 	movt	r0, #524	; 0x20c
87800766:	f2c0 210c 	movt	r1, #524	; 0x20c
8780076a:	f2c0 220c 	movt	r2, #524	; 0x20c
8780076e:	602b      	str	r3, [r5, #0]
87800770:	6023      	str	r3, [r4, #0]
87800772:	6003      	str	r3, [r0, #0]
87800774:	bc30      	pop	{r4, r5}
87800776:	600b      	str	r3, [r1, #0]
87800778:	6013      	str	r3, [r2, #0]
8780077a:	4770      	bx	lr

8780077c <imx6ull_sclinit>:
8780077c:	f244 020c 	movw	r2, #16396	; 0x400c
87800780:	b430      	push	{r4, r5}
87800782:	f2c0 220c 	movt	r2, #524	; 0x20c
87800786:	f244 000c 	movw	r0, #16396	; 0x400c
8780078a:	f242 0442 	movw	r4, #8258	; 0x2042
8780078e:	f2c0 200c 	movt	r0, #524	; 0x20c
87800792:	6813      	ldr	r3, [r2, #0]
87800794:	2501      	movs	r5, #1
87800796:	b2db      	uxtb	r3, r3
87800798:	0759      	lsls	r1, r3, #29
8780079a:	f44f 4100 	mov.w	r1, #32768	; 0x8000
8780079e:	bf58      	it	pl
878007a0:	f043 0304 	orrpl.w	r3, r3, #4
878007a4:	f2c0 210c 	movt	r1, #524	; 0x20c
878007a8:	bf58      	it	pl
878007aa:	6013      	strpl	r3, [r2, #0]
878007ac:	f244 0210 	movw	r2, #16400	; 0x4010
878007b0:	f003 03fb 	and.w	r3, r3, #251	; 0xfb
878007b4:	f2c0 220c 	movt	r2, #524	; 0x20c
878007b8:	600c      	str	r4, [r1, #0]
878007ba:	f241 041b 	movw	r4, #4123	; 0x101b
878007be:	6003      	str	r3, [r0, #0]
878007c0:	f2c2 0418 	movt	r4, #8216	; 0x2018
878007c4:	6015      	str	r5, [r2, #0]
878007c6:	f241 000c 	movw	r0, #4108	; 0x100c
878007ca:	f8d1 5100 	ldr.w	r5, [r1, #256]	; 0x100
878007ce:	f2c1 3011 	movt	r0, #4881	; 0x1311
878007d2:	f44f 4280 	mov.w	r2, #16384	; 0x4000
878007d6:	f2c0 220c 	movt	r2, #524	; 0x20c
878007da:	f005 35c0 	and.w	r5, r5, #3233857728	; 0xc0c0c0c0
878007de:	4613      	mov	r3, r2
878007e0:	432c      	orrs	r4, r5
878007e2:	f8c1 4100 	str.w	r4, [r1, #256]	; 0x100
878007e6:	f8d1 40f0 	ldr.w	r4, [r1, #240]	; 0xf0
878007ea:	f004 34c0 	and.w	r4, r4, #3233857728	; 0xc0c0c0c0
878007ee:	4320      	orrs	r0, r4
878007f0:	f8c1 00f0 	str.w	r0, [r1, #240]	; 0xf0
878007f4:	6991      	ldr	r1, [r2, #24]
878007f6:	f421 2140 	bic.w	r1, r1, #786432	; 0xc0000
878007fa:	6191      	str	r1, [r2, #24]
878007fc:	6991      	ldr	r1, [r2, #24]
878007fe:	f441 2180 	orr.w	r1, r1, #262144	; 0x40000
87800802:	6191      	str	r1, [r2, #24]
87800804:	6951      	ldr	r1, [r2, #20]
87800806:	f021 7100 	bic.w	r1, r1, #33554432	; 0x2000000
8780080a:	6151      	str	r1, [r2, #20]
8780080c:	6c9a      	ldr	r2, [r3, #72]	; 0x48
8780080e:	0692      	lsls	r2, r2, #26
87800810:	d4fc      	bmi.n	8780080c <imx6ull_sclinit+0x90>
87800812:	695a      	ldr	r2, [r3, #20]
87800814:	bc30      	pop	{r4, r5}
87800816:	f422 7240 	bic.w	r2, r2, #768	; 0x300
8780081a:	615a      	str	r2, [r3, #20]
8780081c:	695a      	ldr	r2, [r3, #20]
8780081e:	f442 7280 	orr.w	r2, r2, #256	; 0x100
87800822:	615a      	str	r2, [r3, #20]
87800824:	69da      	ldr	r2, [r3, #28]
87800826:	f022 0240 	bic.w	r2, r2, #64	; 0x40
8780082a:	61da      	str	r2, [r3, #28]
8780082c:	69da      	ldr	r2, [r3, #28]
8780082e:	f022 0207 	bic.w	r2, r2, #7
87800832:	61da      	str	r2, [r3, #28]
87800834:	4770      	bx	lr
87800836:	bf00      	nop

87800838 <gic_unhandle>:
87800838:	4770      	bx	lr
8780083a:	bf00      	nop

8780083c <system_int_init>:
8780083c:	b470      	push	{r4, r5, r6}
8780083e:	ee9f 4f10 	mrc	15, 4, r4, cr15, cr0, {0}
87800842:	0c24      	lsrs	r4, r4, #16
87800844:	f241 0204 	movw	r2, #4100	; 0x1004
87800848:	2300      	movs	r3, #0
8780084a:	0424      	lsls	r4, r4, #16
8780084c:	f04f 30ff 	mov.w	r0, #4294967295	; 0xffffffff
87800850:	58a1      	ldr	r1, [r4, r2]
87800852:	f001 011f 	and.w	r1, r1, #31
87800856:	3101      	adds	r1, #1
87800858:	f503 628c 	add.w	r2, r3, #1120	; 0x460
8780085c:	3301      	adds	r3, #1
8780085e:	4299      	cmp	r1, r3
87800860:	f844 0022 	str.w	r0, [r4, r2, lsl #2]
87800864:	d1f8      	bne.n	87800858 <system_int_init+0x1c>
87800866:	f642 03e0 	movw	r3, #10464	; 0x28e0
8780086a:	f242 0504 	movw	r5, #8196	; 0x2004
8780086e:	26f8      	movs	r6, #248	; 0xf8
87800870:	f640 0239 	movw	r2, #2105	; 0x839
87800874:	f2c8 7380 	movt	r3, #34688	; 0x8780
87800878:	5166      	str	r6, [r4, r5]
8780087a:	f2c8 7280 	movt	r2, #34688	; 0x8780
8780087e:	f242 0508 	movw	r5, #8200	; 0x2008
87800882:	2602      	movs	r6, #2
87800884:	f503 60a0 	add.w	r0, r3, #1280	; 0x500
87800888:	2100      	movs	r1, #0
8780088a:	5166      	str	r6, [r4, r5]
8780088c:	f504 5680 	add.w	r6, r4, #4096	; 0x1000
87800890:	2501      	movs	r5, #1
87800892:	f504 5400 	add.w	r4, r4, #8192	; 0x2000
87800896:	6035      	str	r5, [r6, #0]
87800898:	6025      	str	r5, [r4, #0]
8780089a:	e9c3 2100 	strd	r2, r1, [r3]
8780089e:	3308      	adds	r3, #8
878008a0:	4298      	cmp	r0, r3
878008a2:	d1fa      	bne.n	8780089a <system_int_init+0x5e>
878008a4:	2300      	movs	r3, #0
878008a6:	f2c8 7380 	movt	r3, #34688	; 0x8780
878008aa:	ee0c 3f10 	mcr	15, 0, r3, cr12, cr0, {0}
878008ae:	bc70      	pop	{r4, r5, r6}
878008b0:	4770      	bx	lr
878008b2:	bf00      	nop

878008b4 <gic_irq_table_init>:
878008b4:	f642 03e0 	movw	r3, #10464	; 0x28e0
878008b8:	f640 0239 	movw	r2, #2105	; 0x839
878008bc:	f2c8 7380 	movt	r3, #34688	; 0x8780
878008c0:	f2c8 7280 	movt	r2, #34688	; 0x8780
878008c4:	f503 60a0 	add.w	r0, r3, #1280	; 0x500
878008c8:	2100      	movs	r1, #0
878008ca:	e9c3 2100 	strd	r2, r1, [r3]
878008ce:	3308      	adds	r3, #8
878008d0:	4283      	cmp	r3, r0
878008d2:	d1fa      	bne.n	878008ca <gic_irq_table_init+0x16>
878008d4:	2000      	movs	r0, #0
878008d6:	4770      	bx	lr

878008d8 <gic_request_irq>:
878008d8:	289f      	cmp	r0, #159	; 0x9f
878008da:	b430      	push	{r4, r5}
878008dc:	bfdd      	ittte	le
878008de:	f642 03e0 	movwle	r3, #10464	; 0x28e0
878008e2:	2400      	movle	r4, #0
878008e4:	f2c8 7380 	movtle	r3, #34688	; 0x8780
878008e8:	f04f 34ff 	movgt.w	r4, #4294967295	; 0xffffffff
878008ec:	bfdc      	itt	le
878008ee:	eb03 05c0 	addle.w	r5, r3, r0, lsl #3
878008f2:	f843 1030 	strle.w	r1, [r3, r0, lsl #3]
878008f6:	4620      	mov	r0, r4
878008f8:	bfd8      	it	le
878008fa:	606a      	strle	r2, [r5, #4]
878008fc:	bc30      	pop	{r4, r5}
878008fe:	4770      	bx	lr

87800900 <system_irqhandler>:
87800900:	f3c0 0009 	ubfx	r0, r0, #0, #10
87800904:	289f      	cmp	r0, #159	; 0x9f
87800906:	d815      	bhi.n	87800934 <system_irqhandler+0x34>
87800908:	b510      	push	{r4, lr}
8780090a:	f642 04e0 	movw	r4, #10464	; 0x28e0
8780090e:	f2c8 7480 	movt	r4, #34688	; 0x8780
87800912:	eb04 01c0 	add.w	r1, r4, r0, lsl #3
87800916:	f8d4 3500 	ldr.w	r3, [r4, #1280]	; 0x500
8780091a:	f854 2030 	ldr.w	r2, [r4, r0, lsl #3]
8780091e:	6848      	ldr	r0, [r1, #4]
87800920:	3301      	adds	r3, #1
87800922:	f8c4 3500 	str.w	r3, [r4, #1280]	; 0x500
87800926:	4790      	blx	r2
87800928:	f8d4 3500 	ldr.w	r3, [r4, #1280]	; 0x500
8780092c:	3b01      	subs	r3, #1
8780092e:	f8c4 3500 	str.w	r3, [r4, #1280]	; 0x500
87800932:	bd10      	pop	{r4, pc}
87800934:	4770      	bx	lr
87800936:	bf00      	nop

87800938 <bsp_led_init>:
87800938:	2268      	movs	r2, #104	; 0x68
8780093a:	f44f 733d 	mov.w	r3, #756	; 0x2f4
8780093e:	b510      	push	{r4, lr}
87800940:	f2c0 220e 	movt	r2, #526	; 0x20e
87800944:	b084      	sub	sp, #16
87800946:	2405      	movs	r4, #5
87800948:	f2c0 230e 	movt	r3, #526	; 0x20e
8780094c:	f241 01b0 	movw	r1, #4272	; 0x10b0
87800950:	f44f 4040 	mov.w	r0, #49152	; 0xc000
87800954:	6014      	str	r4, [r2, #0]
87800956:	f2c0 2009 	movt	r0, #521	; 0x209
8780095a:	6019      	str	r1, [r3, #0]
8780095c:	aa01      	add	r2, sp, #4
8780095e:	2301      	movs	r3, #1
87800960:	2103      	movs	r1, #3
87800962:	9301      	str	r3, [sp, #4]
87800964:	f88d 3008 	strb.w	r3, [sp, #8]
87800968:	f000 f9de 	bl	87800d28 <gpio_init>
8780096c:	b004      	add	sp, #16
8780096e:	bd10      	pop	{r4, pc}

87800970 <bsp_led_on>:
87800970:	f44f 4040 	mov.w	r0, #49152	; 0xc000
87800974:	2200      	movs	r2, #0
87800976:	f2c0 2009 	movt	r0, #521	; 0x209
8780097a:	2103      	movs	r1, #3
8780097c:	f000 b9f8 	b.w	87800d70 <gpio_pinwrite>

87800980 <bsp_led_off>:
87800980:	f44f 4040 	mov.w	r0, #49152	; 0xc000
87800984:	2201      	movs	r2, #1
87800986:	f2c0 2009 	movt	r0, #521	; 0x209
8780098a:	2103      	movs	r1, #3
8780098c:	f000 b9f0 	b.w	87800d70 <gpio_pinwrite>

87800990 <bsp_led_switch>:
87800990:	2801      	cmp	r0, #1
87800992:	d009      	beq.n	878009a8 <bsp_led_switch+0x18>
87800994:	b100      	cbz	r0, 87800998 <bsp_led_switch+0x8>
87800996:	4770      	bx	lr
87800998:	f44f 4040 	mov.w	r0, #49152	; 0xc000
8780099c:	2201      	movs	r2, #1
8780099e:	f2c0 2009 	movt	r0, #521	; 0x209
878009a2:	2103      	movs	r1, #3
878009a4:	f000 b9e4 	b.w	87800d70 <gpio_pinwrite>
878009a8:	f44f 4040 	mov.w	r0, #49152	; 0xc000
878009ac:	2200      	movs	r2, #0
878009ae:	f2c0 2009 	movt	r0, #521	; 0x209
878009b2:	2103      	movs	r1, #3
878009b4:	f000 b9dc 	b.w	87800d70 <gpio_pinwrite>

878009b8 <delay_ms>:
878009b8:	4770      	bx	lr
878009ba:	bf00      	nop

878009bc <epit_timer>:
878009bc:	b5f8      	push	{r3, r4, r5, r6, r7, lr}
878009be:	4605      	mov	r5, r0
878009c0:	f44f 70e8 	mov.w	r0, #464	; 0x1d0
878009c4:	4616      	mov	r6, r2
878009c6:	f2c0 0001 	movt	r0, #1
878009ca:	460f      	mov	r7, r1
878009cc:	f001 fdac 	bl	87802528 <__aeabi_uidiv>
878009d0:	210e      	movs	r1, #14
878009d2:	fb05 f000 	mul.w	r0, r5, r0
878009d6:	f2c0 1100 	movt	r1, #256	; 0x100
878009da:	2400      	movs	r4, #0
878009dc:	ea41 1107 	orr.w	r1, r1, r7, lsl #4
878009e0:	2208      	movs	r2, #8
878009e2:	230c      	movs	r3, #12
878009e4:	2500      	movs	r5, #0
878009e6:	f2c0 230d 	movt	r3, #525	; 0x20d
878009ea:	f2c0 240d 	movt	r4, #525	; 0x20d
878009ee:	f2c0 220d 	movt	r2, #525	; 0x20d
878009f2:	6025      	str	r5, [r4, #0]
878009f4:	6021      	str	r1, [r4, #0]
878009f6:	6010      	str	r0, [r2, #0]
878009f8:	601d      	str	r5, [r3, #0]
878009fa:	f7ff ff1f 	bl	8780083c <system_int_init>
878009fe:	462a      	mov	r2, r5
87800a00:	4631      	mov	r1, r6
87800a02:	2058      	movs	r0, #88	; 0x58
87800a04:	f7ff ff68 	bl	878008d8 <gic_request_irq>
87800a08:	ee9f 3f10 	mrc	15, 4, r3, cr15, cr0, {0}
87800a0c:	0c1b      	lsrs	r3, r3, #16
87800a0e:	f241 1208 	movw	r2, #4360	; 0x1108
87800a12:	f04f 7180 	mov.w	r1, #16777216	; 0x1000000
87800a16:	041b      	lsls	r3, r3, #16
87800a18:	5099      	str	r1, [r3, r2]
87800a1a:	6823      	ldr	r3, [r4, #0]
87800a1c:	f043 0301 	orr.w	r3, r3, #1
87800a20:	6023      	str	r3, [r4, #0]
87800a22:	bdf8      	pop	{r3, r4, r5, r6, r7, pc}

87800a24 <epti_clear_interrupt>:
87800a24:	2304      	movs	r3, #4
87800a26:	2201      	movs	r2, #1
87800a28:	f2c0 230d 	movt	r3, #525	; 0x20d
87800a2c:	601a      	str	r2, [r3, #0]
87800a2e:	4770      	bx	lr

87800a30 <epit_getstate>:
87800a30:	2304      	movs	r3, #4
87800a32:	f2c0 230d 	movt	r3, #525	; 0x20d
87800a36:	6818      	ldr	r0, [r3, #0]
87800a38:	4770      	bx	lr
87800a3a:	bf00      	nop

87800a3c <uart1_tx_irqhandle>:
87800a3c:	b410      	push	{r4}
87800a3e:	ee9f 3f10 	mrc	15, 4, r3, cr15, cr0, {0}
87800a42:	f242 72d0 	movw	r2, #10192	; 0x27d0
87800a46:	0c1b      	lsrs	r3, r3, #16
87800a48:	f2c8 7280 	movt	r2, #34688	; 0x8780
87800a4c:	6812      	ldr	r2, [r2, #0]
87800a4e:	041b      	lsls	r3, r3, #16
87800a50:	f241 1184 	movw	r1, #4484	; 0x1184
87800a54:	f04f 6480 	mov.w	r4, #67108864	; 0x4000000
87800a58:	505c      	str	r4, [r3, r1]
87800a5a:	f8d2 3094 	ldr.w	r3, [r2, #148]	; 0x94
87800a5e:	681b      	ldr	r3, [r3, #0]
87800a60:	049b      	lsls	r3, r3, #18
87800a62:	d50b      	bpl.n	87800a7c <uart1_tx_irqhandle+0x40>
87800a64:	7803      	ldrb	r3, [r0, #0]
87800a66:	b14b      	cbz	r3, 87800a7c <uart1_tx_irqhandle+0x40>
87800a68:	210d      	movs	r1, #13
87800a6a:	6413      	str	r3, [r2, #64]	; 0x40
87800a6c:	7803      	ldrb	r3, [r0, #0]
87800a6e:	2b0a      	cmp	r3, #10
87800a70:	bf08      	it	eq
87800a72:	6411      	streq	r1, [r2, #64]	; 0x40
87800a74:	f810 3f01 	ldrb.w	r3, [r0, #1]!
87800a78:	2b00      	cmp	r3, #0
87800a7a:	d1f6      	bne.n	87800a6a <uart1_tx_irqhandle+0x2e>
87800a7c:	ee9f 3f10 	mrc	15, 4, r3, cr15, cr0, {0}
87800a80:	0c1b      	lsrs	r3, r3, #16
87800a82:	f241 1204 	movw	r2, #4356	; 0x1104
87800a86:	f04f 6180 	mov.w	r1, #67108864	; 0x4000000
87800a8a:	f85d 4b04 	ldr.w	r4, [sp], #4
87800a8e:	041b      	lsls	r3, r3, #16
87800a90:	5099      	str	r1, [r3, r2]
87800a92:	4770      	bx	lr

87800a94 <bsp_uart_init.constprop.0>:
87800a94:	f242 72d0 	movw	r2, #10192	; 0x27d0
87800a98:	f44f 4134 	mov.w	r1, #46080	; 0xb400
87800a9c:	f2c8 7280 	movt	r2, #34688	; 0x8780
87800aa0:	f44f 30e1 	mov.w	r0, #115200	; 0x1c200
87800aa4:	f2c0 41c4 	movt	r1, #1220	; 0x4c4
87800aa8:	2300      	movs	r3, #0
87800aaa:	b470      	push	{r4, r5, r6}
87800aac:	f2c0 2302 	movt	r3, #514	; 0x202
87800ab0:	6050      	str	r0, [r2, #4]
87800ab2:	2684      	movs	r6, #132	; 0x84
87800ab4:	2488      	movs	r4, #136	; 0x88
87800ab6:	f44f 7044 	mov.w	r0, #784	; 0x310
87800aba:	6091      	str	r1, [r2, #8]
87800abc:	f44f 7145 	mov.w	r1, #788	; 0x314
87800ac0:	6013      	str	r3, [r2, #0]
87800ac2:	2500      	movs	r5, #0
87800ac4:	f241 02b0 	movw	r2, #4272	; 0x10b0
87800ac8:	f2c0 260e 	movt	r6, #526	; 0x20e
87800acc:	f2c0 240e 	movt	r4, #526	; 0x20e
87800ad0:	f2c0 200e 	movt	r0, #526	; 0x20e
87800ad4:	f2c0 210e 	movt	r1, #526	; 0x20e
87800ad8:	6035      	str	r5, [r6, #0]
87800ada:	6025      	str	r5, [r4, #0]
87800adc:	6002      	str	r2, [r0, #0]
87800ade:	600a      	str	r2, [r1, #0]
87800ae0:	f8d3 2080 	ldr.w	r2, [r3, #128]	; 0x80
87800ae4:	f022 0201 	bic.w	r2, r2, #1
87800ae8:	f8c3 2080 	str.w	r2, [r3, #128]	; 0x80
87800aec:	f8d3 2084 	ldr.w	r2, [r3, #132]	; 0x84
87800af0:	f022 0201 	bic.w	r2, r2, #1
87800af4:	f8c3 2084 	str.w	r2, [r3, #132]	; 0x84
87800af8:	f8d3 2084 	ldr.w	r2, [r3, #132]	; 0x84
87800afc:	07d2      	lsls	r2, r2, #31
87800afe:	d5fb      	bpl.n	87800af8 <bsp_uart_init.constprop.0+0x64>
87800b00:	2300      	movs	r3, #0
87800b02:	2001      	movs	r0, #1
87800b04:	4619      	mov	r1, r3
87800b06:	f44f 62e0 	mov.w	r2, #1792	; 0x700
87800b0a:	f2c0 2302 	movt	r3, #514	; 0x202
87800b0e:	f44f 4500 	mov.w	r5, #32768	; 0x8000
87800b12:	f8c3 1080 	str.w	r1, [r3, #128]	; 0x80
87800b16:	f640 0401 	movw	r4, #2049	; 0x801
87800b1a:	f8c3 0084 	str.w	r0, [r3, #132]	; 0x84
87800b1e:	202b      	movs	r0, #43	; 0x2b
87800b20:	f8c3 2088 	str.w	r2, [r3, #136]	; 0x88
87800b24:	2260      	movs	r2, #96	; 0x60
87800b26:	f8c3 508c 	str.w	r5, [r3, #140]	; 0x8c
87800b2a:	f44f 7620 	mov.w	r6, #640	; 0x280
87800b2e:	f8c3 4090 	str.w	r4, [r3, #144]	; 0x90
87800b32:	2547      	movs	r5, #71	; 0x47
87800b34:	f8c3 009c 	str.w	r0, [r3, #156]	; 0x9c
87800b38:	f640 4434 	movw	r4, #3124	; 0xc34
87800b3c:	f8c3 10a0 	str.w	r1, [r3, #160]	; 0xa0
87800b40:	f8c3 10b0 	str.w	r1, [r3, #176]	; 0xb0
87800b44:	f8c3 20b4 	str.w	r2, [r3, #180]	; 0xb4
87800b48:	f8c3 10b8 	str.w	r1, [r3, #184]	; 0xb8
87800b4c:	f8d3 2084 	ldr.w	r2, [r3, #132]	; 0x84
87800b50:	f8d3 0088 	ldr.w	r0, [r3, #136]	; 0x88
87800b54:	f8c3 1080 	str.w	r1, [r3, #128]	; 0x80
87800b58:	f442 4282 	orr.w	r2, r2, #16640	; 0x4100
87800b5c:	f042 0227 	orr.w	r2, r2, #39	; 0x27
87800b60:	f040 0004 	orr.w	r0, r0, #4
87800b64:	f8c3 2084 	str.w	r2, [r3, #132]	; 0x84
87800b68:	f8c3 0088 	str.w	r0, [r3, #136]	; 0x88
87800b6c:	f8c3 6090 	str.w	r6, [r3, #144]	; 0x90
87800b70:	f8c3 50a4 	str.w	r5, [r3, #164]	; 0xa4
87800b74:	f8c3 40a8 	str.w	r4, [r3, #168]	; 0xa8
87800b78:	f8d3 2080 	ldr.w	r2, [r3, #128]	; 0x80
87800b7c:	bc70      	pop	{r4, r5, r6}
87800b7e:	f042 0201 	orr.w	r2, r2, #1
87800b82:	f8c3 2080 	str.w	r2, [r3, #128]	; 0x80
87800b86:	4770      	bx	lr

87800b88 <find_uartid>:
87800b88:	b1f8      	cbz	r0, 87800bca <find_uartid+0x42>
87800b8a:	2300      	movs	r3, #0
87800b8c:	f2c0 2302 	movt	r3, #514	; 0x202
87800b90:	4298      	cmp	r0, r3
87800b92:	d01b      	beq.n	87800bcc <find_uartid+0x44>
87800b94:	f44f 4300 	mov.w	r3, #32768	; 0x8000
87800b98:	f2c0 231e 	movt	r3, #542	; 0x21e
87800b9c:	4298      	cmp	r0, r3
87800b9e:	d017      	beq.n	87800bd0 <find_uartid+0x48>
87800ba0:	f44f 4340 	mov.w	r3, #49152	; 0xc000
87800ba4:	f2c0 231e 	movt	r3, #542	; 0x21e
87800ba8:	4298      	cmp	r0, r3
87800baa:	d013      	beq.n	87800bd4 <find_uartid+0x4c>
87800bac:	2300      	movs	r3, #0
87800bae:	f2c0 231f 	movt	r3, #543	; 0x21f
87800bb2:	4298      	cmp	r0, r3
87800bb4:	d008      	beq.n	87800bc8 <find_uartid+0x40>
87800bb6:	f44f 4380 	mov.w	r3, #16384	; 0x4000
87800bba:	f2c0 231f 	movt	r3, #543	; 0x21f
87800bbe:	4298      	cmp	r0, r3
87800bc0:	bf14      	ite	ne
87800bc2:	2006      	movne	r0, #6
87800bc4:	2005      	moveq	r0, #5
87800bc6:	4770      	bx	lr
87800bc8:	2004      	movs	r0, #4
87800bca:	4770      	bx	lr
87800bcc:	2001      	movs	r0, #1
87800bce:	4770      	bx	lr
87800bd0:	2002      	movs	r0, #2
87800bd2:	4770      	bx	lr
87800bd4:	2003      	movs	r0, #3
87800bd6:	4770      	bx	lr

87800bd8 <log>:
87800bd8:	b40f      	push	{r0, r1, r2, r3}
87800bda:	f44f 7280 	mov.w	r2, #256	; 0x100
87800bde:	b530      	push	{r4, r5, lr}
87800be0:	b0c1      	sub	sp, #260	; 0x104
87800be2:	2100      	movs	r1, #0
87800be4:	4668      	mov	r0, sp
87800be6:	f242 74d0 	movw	r4, #10192	; 0x27d0
87800bea:	f000 fab9 	bl	87801160 <memset>
87800bee:	f2c8 7480 	movt	r4, #34688	; 0x8780
87800bf2:	4668      	mov	r0, sp
87800bf4:	aa45      	add	r2, sp, #276	; 0x114
87800bf6:	9944      	ldr	r1, [sp, #272]	; 0x110
87800bf8:	f001 f9aa 	bl	87801f50 <vsprintf>
87800bfc:	7b23      	ldrb	r3, [r4, #12]
87800bfe:	2b01      	cmp	r3, #1
87800c00:	d021      	beq.n	87800c46 <log+0x6e>
87800c02:	6822      	ldr	r2, [r4, #0]
87800c04:	250d      	movs	r5, #13
87800c06:	466c      	mov	r4, sp
87800c08:	f814 1b01 	ldrb.w	r1, [r4], #1
87800c0c:	b1b1      	cbz	r1, 87800c3c <log+0x64>
87800c0e:	f8d2 3098 	ldr.w	r3, [r2, #152]	; 0x98
87800c12:	4608      	mov	r0, r1
87800c14:	071b      	lsls	r3, r3, #28
87800c16:	d403      	bmi.n	87800c20 <log+0x48>
87800c18:	f8d2 3098 	ldr.w	r3, [r2, #152]	; 0x98
87800c1c:	071b      	lsls	r3, r3, #28
87800c1e:	d5fb      	bpl.n	87800c18 <log+0x40>
87800c20:	290a      	cmp	r1, #10
87800c22:	6410      	str	r0, [r2, #64]	; 0x40
87800c24:	d1f0      	bne.n	87800c08 <log+0x30>
87800c26:	f8d2 3098 	ldr.w	r3, [r2, #152]	; 0x98
87800c2a:	210d      	movs	r1, #13
87800c2c:	4608      	mov	r0, r1
87800c2e:	071b      	lsls	r3, r3, #28
87800c30:	d5f2      	bpl.n	87800c18 <log+0x40>
87800c32:	6415      	str	r5, [r2, #64]	; 0x40
87800c34:	f814 1b01 	ldrb.w	r1, [r4], #1
87800c38:	2900      	cmp	r1, #0
87800c3a:	d1e8      	bne.n	87800c0e <log+0x36>
87800c3c:	b041      	add	sp, #260	; 0x104
87800c3e:	e8bd 4030 	ldmia.w	sp!, {r4, r5, lr}
87800c42:	b004      	add	sp, #16
87800c44:	4770      	bx	lr
87800c46:	f7ff ff25 	bl	87800a94 <bsp_uart_init.constprop.0>
87800c4a:	2300      	movs	r3, #0
87800c4c:	7323      	strb	r3, [r4, #12]
87800c4e:	e7d8      	b.n	87800c02 <log+0x2a>

87800c50 <scanf_log>:
87800c50:	b40f      	push	{r0, r1, r2, r3}
87800c52:	b570      	push	{r4, r5, r6, lr}
87800c54:	f242 74d0 	movw	r4, #10192	; 0x27d0
87800c58:	f2c8 7480 	movt	r4, #34688	; 0x8780
87800c5c:	b0c0      	sub	sp, #256	; 0x100
87800c5e:	7b23      	ldrb	r3, [r4, #12]
87800c60:	2b01      	cmp	r3, #1
87800c62:	d021      	beq.n	87800ca8 <scanf_log+0x58>
87800c64:	6822      	ldr	r2, [r4, #0]
87800c66:	466c      	mov	r4, sp
87800c68:	4621      	mov	r1, r4
87800c6a:	f8d2 3098 	ldr.w	r3, [r2, #152]	; 0x98
87800c6e:	1b0d      	subs	r5, r1, r4
87800c70:	07d8      	lsls	r0, r3, #31
87800c72:	d403      	bmi.n	87800c7c <scanf_log+0x2c>
87800c74:	f8d2 3098 	ldr.w	r3, [r2, #152]	; 0x98
87800c78:	07db      	lsls	r3, r3, #31
87800c7a:	d5fb      	bpl.n	87800c74 <scanf_log+0x24>
87800c7c:	6c13      	ldr	r3, [r2, #64]	; 0x40
87800c7e:	b2db      	uxtb	r3, r3
87800c80:	2b0d      	cmp	r3, #13
87800c82:	bf18      	it	ne
87800c84:	2b0a      	cmpne	r3, #10
87800c86:	d002      	beq.n	87800c8e <scanf_log+0x3e>
87800c88:	f801 3b01 	strb.w	r3, [r1], #1
87800c8c:	e7ed      	b.n	87800c6a <scanf_log+0x1a>
87800c8e:	2600      	movs	r6, #0
87800c90:	4620      	mov	r0, r4
87800c92:	aa45      	add	r2, sp, #276	; 0x114
87800c94:	9944      	ldr	r1, [sp, #272]	; 0x110
87800c96:	5566      	strb	r6, [r4, r5]
87800c98:	f001 f96c 	bl	87801f74 <vsscanf>
87800c9c:	4630      	mov	r0, r6
87800c9e:	b040      	add	sp, #256	; 0x100
87800ca0:	e8bd 4070 	ldmia.w	sp!, {r4, r5, r6, lr}
87800ca4:	b004      	add	sp, #16
87800ca6:	4770      	bx	lr
87800ca8:	f7ff fef4 	bl	87800a94 <bsp_uart_init.constprop.0>
87800cac:	2300      	movs	r3, #0
87800cae:	7323      	strb	r3, [r4, #12]
87800cb0:	e7d8      	b.n	87800c64 <scanf_log+0x14>
87800cb2:	bf00      	nop

87800cb4 <log_intr>:
87800cb4:	b40f      	push	{r0, r1, r2, r3}
87800cb6:	f44f 7280 	mov.w	r2, #256	; 0x100
87800cba:	b510      	push	{r4, lr}
87800cbc:	b0c0      	sub	sp, #256	; 0x100
87800cbe:	2100      	movs	r1, #0
87800cc0:	4668      	mov	r0, sp
87800cc2:	f242 74d0 	movw	r4, #10192	; 0x27d0
87800cc6:	f000 fa4b 	bl	87801160 <memset>
87800cca:	f2c8 7480 	movt	r4, #34688	; 0x8780
87800cce:	4668      	mov	r0, sp
87800cd0:	aa43      	add	r2, sp, #268	; 0x10c
87800cd2:	9942      	ldr	r1, [sp, #264]	; 0x108
87800cd4:	f001 f93c 	bl	87801f50 <vsprintf>
87800cd8:	7b23      	ldrb	r3, [r4, #12]
87800cda:	2b01      	cmp	r3, #1
87800cdc:	d01c      	beq.n	87800d18 <log_intr+0x64>
87800cde:	f640 213d 	movw	r1, #2621	; 0xa3d
87800ce2:	466a      	mov	r2, sp
87800ce4:	f2c8 7180 	movt	r1, #34688	; 0x8780
87800ce8:	203a      	movs	r0, #58	; 0x3a
87800cea:	f7ff fdf5 	bl	878008d8 <gic_request_irq>
87800cee:	6822      	ldr	r2, [r4, #0]
87800cf0:	f8d2 3080 	ldr.w	r3, [r2, #128]	; 0x80
87800cf4:	f043 0340 	orr.w	r3, r3, #64	; 0x40
87800cf8:	f8c2 3080 	str.w	r3, [r2, #128]	; 0x80
87800cfc:	ee9f 3f10 	mrc	15, 4, r3, cr15, cr0, {0}
87800d00:	0c1b      	lsrs	r3, r3, #16
87800d02:	f241 1204 	movw	r2, #4356	; 0x1104
87800d06:	f04f 6180 	mov.w	r1, #67108864	; 0x4000000
87800d0a:	041b      	lsls	r3, r3, #16
87800d0c:	5099      	str	r1, [r3, r2]
87800d0e:	b040      	add	sp, #256	; 0x100
87800d10:	e8bd 4010 	ldmia.w	sp!, {r4, lr}
87800d14:	b004      	add	sp, #16
87800d16:	4770      	bx	lr
87800d18:	f7ff febc 	bl	87800a94 <bsp_uart_init.constprop.0>
87800d1c:	2300      	movs	r3, #0
87800d1e:	7323      	strb	r3, [r4, #12]
87800d20:	e7dd      	b.n	87800cde <log_intr+0x2a>
87800d22:	bf00      	nop

87800d24 <raise>:
87800d24:	4770      	bx	lr
87800d26:	bf00      	nop

87800d28 <gpio_init>:
87800d28:	b410      	push	{r4}
87800d2a:	2301      	movs	r3, #1
87800d2c:	6814      	ldr	r4, [r2, #0]
87800d2e:	fa03 f101 	lsl.w	r1, r3, r1
87800d32:	6843      	ldr	r3, [r0, #4]
87800d34:	b14c      	cbz	r4, 87800d4a <gpio_init+0x22>
87800d36:	430b      	orrs	r3, r1
87800d38:	6043      	str	r3, [r0, #4]
87800d3a:	7913      	ldrb	r3, [r2, #4]
87800d3c:	b15b      	cbz	r3, 87800d56 <gpio_init+0x2e>
87800d3e:	6803      	ldr	r3, [r0, #0]
87800d40:	f85d 4b04 	ldr.w	r4, [sp], #4
87800d44:	4319      	orrs	r1, r3
87800d46:	6001      	str	r1, [r0, #0]
87800d48:	4770      	bx	lr
87800d4a:	ea23 0101 	bic.w	r1, r3, r1
87800d4e:	f85d 4b04 	ldr.w	r4, [sp], #4
87800d52:	6041      	str	r1, [r0, #4]
87800d54:	4770      	bx	lr
87800d56:	6803      	ldr	r3, [r0, #0]
87800d58:	f85d 4b04 	ldr.w	r4, [sp], #4
87800d5c:	ea23 0101 	bic.w	r1, r3, r1
87800d60:	6001      	str	r1, [r0, #0]
87800d62:	4770      	bx	lr

87800d64 <gpio_pinread>:
87800d64:	6800      	ldr	r0, [r0, #0]
87800d66:	40c8      	lsrs	r0, r1
87800d68:	f000 0001 	and.w	r0, r0, #1
87800d6c:	4770      	bx	lr
87800d6e:	bf00      	nop

87800d70 <gpio_pinwrite>:
87800d70:	2301      	movs	r3, #1
87800d72:	fa03 f101 	lsl.w	r1, r3, r1
87800d76:	6803      	ldr	r3, [r0, #0]
87800d78:	b112      	cbz	r2, 87800d80 <gpio_pinwrite+0x10>
87800d7a:	4319      	orrs	r1, r3
87800d7c:	6001      	str	r1, [r0, #0]
87800d7e:	4770      	bx	lr
87800d80:	ea23 0101 	bic.w	r1, r3, r1
87800d84:	6001      	str	r1, [r0, #0]
87800d86:	4770      	bx	lr

87800d88 <gpio_int_init>:
87800d88:	b470      	push	{r4, r5, r6}
87800d8a:	2301      	movs	r3, #1
87800d8c:	69c4      	ldr	r4, [r0, #28]
87800d8e:	408b      	lsls	r3, r1
87800d90:	290f      	cmp	r1, #15
87800d92:	f102 32ff 	add.w	r2, r2, #4294967295	; 0xffffffff
87800d96:	bf98      	it	ls
87800d98:	f100 050c 	addls.w	r5, r0, #12
87800d9c:	ea24 0403 	bic.w	r4, r4, r3
87800da0:	bf88      	it	hi
87800da2:	3910      	subhi	r1, #16
87800da4:	61c4      	str	r4, [r0, #28]
87800da6:	bf8a      	itet	hi
87800da8:	f100 0510 	addhi.w	r5, r0, #16
87800dac:	68c6      	ldrls	r6, [r0, #12]
87800dae:	6906      	ldrhi	r6, [r0, #16]
87800db0:	2a04      	cmp	r2, #4
87800db2:	d80e      	bhi.n	87800dd2 <gpio_int_init+0x4a>
87800db4:	e8df f002 	tbb	[pc, r2]
87800db8:	201c0313 	andscs	r0, ip, r3, lsl r3
87800dbc:	0049000f 	subeq	r0, r9, pc
87800dc0:	2203      	movs	r2, #3
87800dc2:	2301      	movs	r3, #1
87800dc4:	408a      	lsls	r2, r1
87800dc6:	fa03 f101 	lsl.w	r1, r3, r1
87800dca:	ea61 0102 	orn	r1, r1, r2
87800dce:	400e      	ands	r6, r1
87800dd0:	602e      	str	r6, [r5, #0]
87800dd2:	bc70      	pop	{r4, r5, r6}
87800dd4:	4770      	bx	lr
87800dd6:	4323      	orrs	r3, r4
87800dd8:	bc70      	pop	{r4, r5, r6}
87800dda:	61c3      	str	r3, [r0, #28]
87800ddc:	4770      	bx	lr
87800dde:	0049      	lsls	r1, r1, #1
87800de0:	2303      	movs	r3, #3
87800de2:	fa03 f101 	lsl.w	r1, r3, r1
87800de6:	ea26 0601 	bic.w	r6, r6, r1
87800dea:	602e      	str	r6, [r5, #0]
87800dec:	bc70      	pop	{r4, r5, r6}
87800dee:	4770      	bx	lr
87800df0:	0049      	lsls	r1, r1, #1
87800df2:	2203      	movs	r2, #3
87800df4:	2302      	movs	r3, #2
87800df6:	e7e5      	b.n	87800dc4 <gpio_int_init+0x3c>
87800df8:	0049      	lsls	r1, r1, #1
87800dfa:	2303      	movs	r3, #3
87800dfc:	fa03 f101 	lsl.w	r1, r3, r1
87800e00:	430e      	orrs	r6, r1
87800e02:	602e      	str	r6, [r5, #0]
87800e04:	bc70      	pop	{r4, r5, r6}
87800e06:	4770      	bx	lr

87800e08 <gpio_int_enable>:
87800e08:	6942      	ldr	r2, [r0, #20]
87800e0a:	2301      	movs	r3, #1
87800e0c:	fa03 f101 	lsl.w	r1, r3, r1
87800e10:	4211      	tst	r1, r2
87800e12:	bf04      	itt	eq
87800e14:	4311      	orreq	r1, r2
87800e16:	6141      	streq	r1, [r0, #20]
87800e18:	4770      	bx	lr
87800e1a:	bf00      	nop

87800e1c <gpio_int_disable>:
87800e1c:	6943      	ldr	r3, [r0, #20]
87800e1e:	2201      	movs	r2, #1
87800e20:	fa02 f101 	lsl.w	r1, r2, r1
87800e24:	ea23 0301 	bic.w	r3, r3, r1
87800e28:	6143      	str	r3, [r0, #20]
87800e2a:	4770      	bx	lr

87800e2c <gpio_int_clear>:
87800e2c:	6982      	ldr	r2, [r0, #24]
87800e2e:	2301      	movs	r3, #1
87800e30:	fa03 f101 	lsl.w	r1, r3, r1
87800e34:	4211      	tst	r1, r2
87800e36:	bf04      	itt	eq
87800e38:	4311      	orreq	r1, r2
87800e3a:	6181      	streq	r1, [r0, #24]
87800e3c:	4770      	bx	lr
87800e3e:	bf00      	nop

87800e40 <strnicmp>:
87800e40:	b332      	cbz	r2, 87800e90 <strnicmp+0x50>
87800e42:	b5f0      	push	{r4, r5, r6, r7, lr}
87800e44:	f242 75e0 	movw	r5, #10208	; 0x27e0
87800e48:	1e44      	subs	r4, r0, #1
87800e4a:	eb01 0e02 	add.w	lr, r1, r2
87800e4e:	f2c8 7580 	movt	r5, #34688	; 0x8780
87800e52:	e006      	b.n	87800e62 <strnicmp+0x22>
87800e54:	fa5f f08c 	uxtb.w	r0, ip
87800e58:	b9b3      	cbnz	r3, 87800e88 <strnicmp+0x48>
87800e5a:	4282      	cmp	r2, r0
87800e5c:	d11c      	bne.n	87800e98 <strnicmp+0x58>
87800e5e:	4571      	cmp	r1, lr
87800e60:	d014      	beq.n	87800e8c <strnicmp+0x4c>
87800e62:	f814 0f01 	ldrb.w	r0, [r4, #1]!
87800e66:	f811 2b01 	ldrb.w	r2, [r1], #1
87800e6a:	b198      	cbz	r0, 87800e94 <strnicmp+0x54>
87800e6c:	b17a      	cbz	r2, 87800e8e <strnicmp+0x4e>
87800e6e:	4290      	cmp	r0, r2
87800e70:	d0f5      	beq.n	87800e5e <strnicmp+0x1e>
87800e72:	5c2e      	ldrb	r6, [r5, r0]
87800e74:	f102 0720 	add.w	r7, r2, #32
87800e78:	5cab      	ldrb	r3, [r5, r2]
87800e7a:	f100 0c20 	add.w	ip, r0, #32
87800e7e:	07f6      	lsls	r6, r6, #31
87800e80:	f003 0301 	and.w	r3, r3, #1
87800e84:	d4e6      	bmi.n	87800e54 <strnicmp+0x14>
87800e86:	b13b      	cbz	r3, 87800e98 <strnicmp+0x58>
87800e88:	b2fa      	uxtb	r2, r7
87800e8a:	e7e6      	b.n	87800e5a <strnicmp+0x1a>
87800e8c:	2000      	movs	r0, #0
87800e8e:	bdf0      	pop	{r4, r5, r6, r7, pc}
87800e90:	4610      	mov	r0, r2
87800e92:	4770      	bx	lr
87800e94:	4250      	negs	r0, r2
87800e96:	bdf0      	pop	{r4, r5, r6, r7, pc}
87800e98:	1a80      	subs	r0, r0, r2
87800e9a:	bdf0      	pop	{r4, r5, r6, r7, pc}

87800e9c <strcpy>:
87800e9c:	1e42      	subs	r2, r0, #1
87800e9e:	f811 3b01 	ldrb.w	r3, [r1], #1
87800ea2:	f802 3f01 	strb.w	r3, [r2, #1]!
87800ea6:	2b00      	cmp	r3, #0
87800ea8:	d1f9      	bne.n	87800e9e <strcpy+0x2>
87800eaa:	4770      	bx	lr

87800eac <strncpy>:
87800eac:	b410      	push	{r4}
87800eae:	440a      	add	r2, r1
87800eb0:	1e44      	subs	r4, r0, #1
87800eb2:	e004      	b.n	87800ebe <strncpy+0x12>
87800eb4:	f811 3b01 	ldrb.w	r3, [r1], #1
87800eb8:	f804 3f01 	strb.w	r3, [r4, #1]!
87800ebc:	b10b      	cbz	r3, 87800ec2 <strncpy+0x16>
87800ebe:	4291      	cmp	r1, r2
87800ec0:	d1f8      	bne.n	87800eb4 <strncpy+0x8>
87800ec2:	f85d 4b04 	ldr.w	r4, [sp], #4
87800ec6:	4770      	bx	lr

87800ec8 <strcat>:
87800ec8:	7803      	ldrb	r3, [r0, #0]
87800eca:	b163      	cbz	r3, 87800ee6 <strcat+0x1e>
87800ecc:	4603      	mov	r3, r0
87800ece:	f813 2f01 	ldrb.w	r2, [r3, #1]!
87800ed2:	2a00      	cmp	r2, #0
87800ed4:	d1fb      	bne.n	87800ece <strcat+0x6>
87800ed6:	3b01      	subs	r3, #1
87800ed8:	f811 2b01 	ldrb.w	r2, [r1], #1
87800edc:	f803 2f01 	strb.w	r2, [r3, #1]!
87800ee0:	2a00      	cmp	r2, #0
87800ee2:	d1f9      	bne.n	87800ed8 <strcat+0x10>
87800ee4:	4770      	bx	lr
87800ee6:	4603      	mov	r3, r0
87800ee8:	e7f5      	b.n	87800ed6 <strcat+0xe>
87800eea:	bf00      	nop

87800eec <strncat>:
87800eec:	b1a2      	cbz	r2, 87800f18 <strncat+0x2c>
87800eee:	7803      	ldrb	r3, [r0, #0]
87800ef0:	b430      	push	{r4, r5}
87800ef2:	b1b3      	cbz	r3, 87800f22 <strncat+0x36>
87800ef4:	4603      	mov	r3, r0
87800ef6:	f813 4f01 	ldrb.w	r4, [r3, #1]!
87800efa:	2c00      	cmp	r4, #0
87800efc:	d1fb      	bne.n	87800ef6 <strncat+0xa>
87800efe:	441a      	add	r2, r3
87800f00:	e001      	b.n	87800f06 <strncat+0x1a>
87800f02:	4293      	cmp	r3, r2
87800f04:	d009      	beq.n	87800f1a <strncat+0x2e>
87800f06:	f811 4b01 	ldrb.w	r4, [r1], #1
87800f0a:	461d      	mov	r5, r3
87800f0c:	f803 4b01 	strb.w	r4, [r3], #1
87800f10:	2c00      	cmp	r4, #0
87800f12:	d1f6      	bne.n	87800f02 <strncat+0x16>
87800f14:	bc30      	pop	{r4, r5}
87800f16:	4770      	bx	lr
87800f18:	4770      	bx	lr
87800f1a:	2300      	movs	r3, #0
87800f1c:	706b      	strb	r3, [r5, #1]
87800f1e:	bc30      	pop	{r4, r5}
87800f20:	4770      	bx	lr
87800f22:	4603      	mov	r3, r0
87800f24:	e7eb      	b.n	87800efe <strncat+0x12>
87800f26:	bf00      	nop

87800f28 <strcmp>:
87800f28:	1e42      	subs	r2, r0, #1
87800f2a:	e000      	b.n	87800f2e <strcmp+0x6>
87800f2c:	b148      	cbz	r0, 87800f42 <strcmp+0x1a>
87800f2e:	f812 0f01 	ldrb.w	r0, [r2, #1]!
87800f32:	f811 3b01 	ldrb.w	r3, [r1], #1
87800f36:	1ac3      	subs	r3, r0, r3
87800f38:	b25b      	sxtb	r3, r3
87800f3a:	2b00      	cmp	r3, #0
87800f3c:	d0f6      	beq.n	87800f2c <strcmp+0x4>
87800f3e:	4618      	mov	r0, r3
87800f40:	4770      	bx	lr
87800f42:	4770      	bx	lr

87800f44 <strncmp>:
87800f44:	b1e2      	cbz	r2, 87800f80 <strncmp+0x3c>
87800f46:	b430      	push	{r4, r5}
87800f48:	1c4c      	adds	r4, r1, #1
87800f4a:	7805      	ldrb	r5, [r0, #0]
87800f4c:	780b      	ldrb	r3, [r1, #0]
87800f4e:	1aeb      	subs	r3, r5, r3
87800f50:	b25b      	sxtb	r3, r3
87800f52:	b97b      	cbnz	r3, 87800f74 <strncmp+0x30>
87800f54:	b15d      	cbz	r5, 87800f6e <strncmp+0x2a>
87800f56:	4411      	add	r1, r2
87800f58:	e007      	b.n	87800f6a <strncmp+0x26>
87800f5a:	f810 2f01 	ldrb.w	r2, [r0, #1]!
87800f5e:	f814 3b01 	ldrb.w	r3, [r4], #1
87800f62:	1ad3      	subs	r3, r2, r3
87800f64:	b25b      	sxtb	r3, r3
87800f66:	b92b      	cbnz	r3, 87800f74 <strncmp+0x30>
87800f68:	b13a      	cbz	r2, 87800f7a <strncmp+0x36>
87800f6a:	42a1      	cmp	r1, r4
87800f6c:	d1f5      	bne.n	87800f5a <strncmp+0x16>
87800f6e:	2000      	movs	r0, #0
87800f70:	bc30      	pop	{r4, r5}
87800f72:	4770      	bx	lr
87800f74:	4618      	mov	r0, r3
87800f76:	bc30      	pop	{r4, r5}
87800f78:	4770      	bx	lr
87800f7a:	4610      	mov	r0, r2
87800f7c:	bc30      	pop	{r4, r5}
87800f7e:	4770      	bx	lr
87800f80:	4610      	mov	r0, r2
87800f82:	4770      	bx	lr

87800f84 <strchr>:
87800f84:	7803      	ldrb	r3, [r0, #0]
87800f86:	b2c9      	uxtb	r1, r1
87800f88:	428b      	cmp	r3, r1
87800f8a:	d006      	beq.n	87800f9a <strchr+0x16>
87800f8c:	b123      	cbz	r3, 87800f98 <strchr+0x14>
87800f8e:	f810 3f01 	ldrb.w	r3, [r0, #1]!
87800f92:	428b      	cmp	r3, r1
87800f94:	d1fa      	bne.n	87800f8c <strchr+0x8>
87800f96:	4770      	bx	lr
87800f98:	4618      	mov	r0, r3
87800f9a:	4770      	bx	lr

87800f9c <strrchr>:
87800f9c:	7803      	ldrb	r3, [r0, #0]
87800f9e:	b193      	cbz	r3, 87800fc6 <strrchr+0x2a>
87800fa0:	4603      	mov	r3, r0
87800fa2:	f813 2f01 	ldrb.w	r2, [r3, #1]!
87800fa6:	2a00      	cmp	r2, #0
87800fa8:	d1fb      	bne.n	87800fa2 <strrchr+0x6>
87800faa:	b2c9      	uxtb	r1, r1
87800fac:	2200      	movs	r2, #0
87800fae:	e003      	b.n	87800fb8 <strrchr+0x1c>
87800fb0:	3b01      	subs	r3, #1
87800fb2:	4298      	cmp	r0, r3
87800fb4:	d804      	bhi.n	87800fc0 <strrchr+0x24>
87800fb6:	781a      	ldrb	r2, [r3, #0]
87800fb8:	428a      	cmp	r2, r1
87800fba:	d1f9      	bne.n	87800fb0 <strrchr+0x14>
87800fbc:	4618      	mov	r0, r3
87800fbe:	4770      	bx	lr
87800fc0:	2300      	movs	r3, #0
87800fc2:	4618      	mov	r0, r3
87800fc4:	4770      	bx	lr
87800fc6:	4603      	mov	r3, r0
87800fc8:	e7ef      	b.n	87800faa <strrchr+0xe>
87800fca:	bf00      	nop

87800fcc <strlen>:
87800fcc:	7803      	ldrb	r3, [r0, #0]
87800fce:	4602      	mov	r2, r0
87800fd0:	b12b      	cbz	r3, 87800fde <strlen+0x12>
87800fd2:	f810 3f01 	ldrb.w	r3, [r0, #1]!
87800fd6:	2b00      	cmp	r3, #0
87800fd8:	d1fb      	bne.n	87800fd2 <strlen+0x6>
87800fda:	1a80      	subs	r0, r0, r2
87800fdc:	4770      	bx	lr
87800fde:	4618      	mov	r0, r3
87800fe0:	4770      	bx	lr
87800fe2:	bf00      	nop

87800fe4 <strnlen>:
87800fe4:	b1d1      	cbz	r1, 8780101c <strnlen+0x38>
87800fe6:	7803      	ldrb	r3, [r0, #0]
87800fe8:	b1d3      	cbz	r3, 87801020 <strnlen+0x3c>
87800fea:	1c43      	adds	r3, r0, #1
87800fec:	4401      	add	r1, r0
87800fee:	4299      	cmp	r1, r3
87800ff0:	f103 0201 	add.w	r2, r3, #1
87800ff4:	d016      	beq.n	87801024 <strnlen+0x40>
87800ff6:	b410      	push	{r4}
87800ff8:	781c      	ldrb	r4, [r3, #0]
87800ffa:	b13c      	cbz	r4, 8780100c <strnlen+0x28>
87800ffc:	4291      	cmp	r1, r2
87800ffe:	4613      	mov	r3, r2
87801000:	f102 0201 	add.w	r2, r2, #1
87801004:	d006      	beq.n	87801014 <strnlen+0x30>
87801006:	781c      	ldrb	r4, [r3, #0]
87801008:	2c00      	cmp	r4, #0
8780100a:	d1f7      	bne.n	87800ffc <strnlen+0x18>
8780100c:	1a18      	subs	r0, r3, r0
8780100e:	f85d 4b04 	ldr.w	r4, [sp], #4
87801012:	4770      	bx	lr
87801014:	1a08      	subs	r0, r1, r0
87801016:	f85d 4b04 	ldr.w	r4, [sp], #4
8780101a:	4770      	bx	lr
8780101c:	4608      	mov	r0, r1
8780101e:	4770      	bx	lr
87801020:	4618      	mov	r0, r3
87801022:	4770      	bx	lr
87801024:	1a08      	subs	r0, r1, r0
87801026:	4770      	bx	lr

87801028 <strspn>:
87801028:	b470      	push	{r4, r5, r6}
8780102a:	7804      	ldrb	r4, [r0, #0]
8780102c:	4625      	mov	r5, r4
8780102e:	b164      	cbz	r4, 8780104a <strspn+0x22>
87801030:	780e      	ldrb	r6, [r1, #0]
87801032:	2500      	movs	r5, #0
87801034:	b14e      	cbz	r6, 8780104a <strspn+0x22>
87801036:	42a6      	cmp	r6, r4
87801038:	d00a      	beq.n	87801050 <strspn+0x28>
8780103a:	460a      	mov	r2, r1
8780103c:	e001      	b.n	87801042 <strspn+0x1a>
8780103e:	42a3      	cmp	r3, r4
87801040:	d006      	beq.n	87801050 <strspn+0x28>
87801042:	f812 3f01 	ldrb.w	r3, [r2, #1]!
87801046:	2b00      	cmp	r3, #0
87801048:	d1f9      	bne.n	8780103e <strspn+0x16>
8780104a:	4628      	mov	r0, r5
8780104c:	bc70      	pop	{r4, r5, r6}
8780104e:	4770      	bx	lr
87801050:	f810 4f01 	ldrb.w	r4, [r0, #1]!
87801054:	3501      	adds	r5, #1
87801056:	2c00      	cmp	r4, #0
87801058:	d1ec      	bne.n	87801034 <strspn+0xc>
8780105a:	4628      	mov	r0, r5
8780105c:	bc70      	pop	{r4, r5, r6}
8780105e:	4770      	bx	lr

87801060 <strpbrk>:
87801060:	b430      	push	{r4, r5}
87801062:	7804      	ldrb	r4, [r0, #0]
87801064:	b17c      	cbz	r4, 87801086 <strpbrk+0x26>
87801066:	780d      	ldrb	r5, [r1, #0]
87801068:	b14d      	cbz	r5, 8780107e <strpbrk+0x1e>
8780106a:	42a5      	cmp	r5, r4
8780106c:	d00c      	beq.n	87801088 <strpbrk+0x28>
8780106e:	460a      	mov	r2, r1
87801070:	e001      	b.n	87801076 <strpbrk+0x16>
87801072:	42a3      	cmp	r3, r4
87801074:	d008      	beq.n	87801088 <strpbrk+0x28>
87801076:	f812 3f01 	ldrb.w	r3, [r2, #1]!
8780107a:	2b00      	cmp	r3, #0
8780107c:	d1f9      	bne.n	87801072 <strpbrk+0x12>
8780107e:	f810 4f01 	ldrb.w	r4, [r0, #1]!
87801082:	2c00      	cmp	r4, #0
87801084:	d1f0      	bne.n	87801068 <strpbrk+0x8>
87801086:	4620      	mov	r0, r4
87801088:	bc30      	pop	{r4, r5}
8780108a:	4770      	bx	lr

8780108c <strtok>:
8780108c:	f642 5ce4 	movw	ip, #11748	; 0x2de4
87801090:	f2c8 7c80 	movt	ip, #34688	; 0x8780
87801094:	2800      	cmp	r0, #0
87801096:	d03c      	beq.n	87801112 <strtok+0x86>
87801098:	b4f0      	push	{r4, r5, r6, r7}
8780109a:	7804      	ldrb	r4, [r0, #0]
8780109c:	2c00      	cmp	r4, #0
8780109e:	d03d      	beq.n	8780111c <strtok+0x90>
878010a0:	780d      	ldrb	r5, [r1, #0]
878010a2:	4607      	mov	r7, r0
878010a4:	2600      	movs	r6, #0
878010a6:	b14d      	cbz	r5, 878010bc <strtok+0x30>
878010a8:	42ac      	cmp	r4, r5
878010aa:	d01f      	beq.n	878010ec <strtok+0x60>
878010ac:	460a      	mov	r2, r1
878010ae:	e001      	b.n	878010b4 <strtok+0x28>
878010b0:	42a3      	cmp	r3, r4
878010b2:	d01b      	beq.n	878010ec <strtok+0x60>
878010b4:	f812 3f01 	ldrb.w	r3, [r2, #1]!
878010b8:	2b00      	cmp	r3, #0
878010ba:	d1f9      	bne.n	878010b0 <strtok+0x24>
878010bc:	5d84      	ldrb	r4, [r0, r6]
878010be:	4430      	add	r0, r6
878010c0:	4606      	mov	r6, r0
878010c2:	b35c      	cbz	r4, 8780111c <strtok+0x90>
878010c4:	b14d      	cbz	r5, 878010da <strtok+0x4e>
878010c6:	42ac      	cmp	r4, r5
878010c8:	d01b      	beq.n	87801102 <strtok+0x76>
878010ca:	460a      	mov	r2, r1
878010cc:	e001      	b.n	878010d2 <strtok+0x46>
878010ce:	42a3      	cmp	r3, r4
878010d0:	d017      	beq.n	87801102 <strtok+0x76>
878010d2:	f812 3f01 	ldrb.w	r3, [r2, #1]!
878010d6:	2b00      	cmp	r3, #0
878010d8:	d1f9      	bne.n	878010ce <strtok+0x42>
878010da:	f816 4f01 	ldrb.w	r4, [r6, #1]!
878010de:	2c00      	cmp	r4, #0
878010e0:	d1f0      	bne.n	878010c4 <strtok+0x38>
878010e2:	4626      	mov	r6, r4
878010e4:	f8cc 6000 	str.w	r6, [ip]
878010e8:	bcf0      	pop	{r4, r5, r6, r7}
878010ea:	4770      	bx	lr
878010ec:	f817 4f01 	ldrb.w	r4, [r7, #1]!
878010f0:	3601      	adds	r6, #1
878010f2:	2c00      	cmp	r4, #0
878010f4:	d1d7      	bne.n	878010a6 <strtok+0x1a>
878010f6:	5d84      	ldrb	r4, [r0, r6]
878010f8:	4430      	add	r0, r6
878010fa:	4606      	mov	r6, r0
878010fc:	2c00      	cmp	r4, #0
878010fe:	d1e1      	bne.n	878010c4 <strtok+0x38>
87801100:	e00c      	b.n	8780111c <strtok+0x90>
87801102:	7833      	ldrb	r3, [r6, #0]
87801104:	2b00      	cmp	r3, #0
87801106:	d0ed      	beq.n	878010e4 <strtok+0x58>
87801108:	2300      	movs	r3, #0
8780110a:	3601      	adds	r6, #1
8780110c:	f806 3c01 	strb.w	r3, [r6, #-1]
87801110:	e7e8      	b.n	878010e4 <strtok+0x58>
87801112:	f8dc 0000 	ldr.w	r0, [ip]
87801116:	2800      	cmp	r0, #0
87801118:	d1be      	bne.n	87801098 <strtok+0xc>
8780111a:	4770      	bx	lr
8780111c:	2000      	movs	r0, #0
8780111e:	f8cc 0000 	str.w	r0, [ip]
87801122:	e7e1      	b.n	878010e8 <strtok+0x5c>

87801124 <strsep>:
87801124:	b4f0      	push	{r4, r5, r6, r7}
87801126:	4607      	mov	r7, r0
87801128:	6800      	ldr	r0, [r0, #0]
8780112a:	b198      	cbz	r0, 87801154 <strsep+0x30>
8780112c:	7804      	ldrb	r4, [r0, #0]
8780112e:	b184      	cbz	r4, 87801152 <strsep+0x2e>
87801130:	780e      	ldrb	r6, [r1, #0]
87801132:	4605      	mov	r5, r0
87801134:	b14e      	cbz	r6, 8780114a <strsep+0x26>
87801136:	42a6      	cmp	r6, r4
87801138:	d00e      	beq.n	87801158 <strsep+0x34>
8780113a:	460a      	mov	r2, r1
8780113c:	e001      	b.n	87801142 <strsep+0x1e>
8780113e:	42a3      	cmp	r3, r4
87801140:	d00a      	beq.n	87801158 <strsep+0x34>
87801142:	f812 3f01 	ldrb.w	r3, [r2, #1]!
87801146:	2b00      	cmp	r3, #0
87801148:	d1f9      	bne.n	8780113e <strsep+0x1a>
8780114a:	f815 4f01 	ldrb.w	r4, [r5, #1]!
8780114e:	2c00      	cmp	r4, #0
87801150:	d1f0      	bne.n	87801134 <strsep+0x10>
87801152:	603c      	str	r4, [r7, #0]
87801154:	bcf0      	pop	{r4, r5, r6, r7}
87801156:	4770      	bx	lr
87801158:	2300      	movs	r3, #0
8780115a:	1c6c      	adds	r4, r5, #1
8780115c:	702b      	strb	r3, [r5, #0]
8780115e:	e7f8      	b.n	87801152 <strsep+0x2e>

87801160 <memset>:
87801160:	b132      	cbz	r2, 87801170 <memset+0x10>
87801162:	b2c9      	uxtb	r1, r1
87801164:	4402      	add	r2, r0
87801166:	4603      	mov	r3, r0
87801168:	f803 1b01 	strb.w	r1, [r3], #1
8780116c:	4293      	cmp	r3, r2
8780116e:	d1fb      	bne.n	87801168 <memset+0x8>
87801170:	4770      	bx	lr
87801172:	bf00      	nop

87801174 <bcopy>:
87801174:	b13a      	cbz	r2, 87801186 <bcopy+0x12>
87801176:	3901      	subs	r1, #1
87801178:	4402      	add	r2, r0
8780117a:	f810 3b01 	ldrb.w	r3, [r0], #1
8780117e:	4290      	cmp	r0, r2
87801180:	f801 3f01 	strb.w	r3, [r1, #1]!
87801184:	d1f9      	bne.n	8780117a <bcopy+0x6>
87801186:	4770      	bx	lr

87801188 <memcpy>:
87801188:	b15a      	cbz	r2, 878011a2 <memcpy+0x1a>
8780118a:	440a      	add	r2, r1
8780118c:	1e43      	subs	r3, r0, #1
8780118e:	b410      	push	{r4}
87801190:	f811 4b01 	ldrb.w	r4, [r1], #1
87801194:	4291      	cmp	r1, r2
87801196:	f803 4f01 	strb.w	r4, [r3, #1]!
8780119a:	d1f9      	bne.n	87801190 <memcpy+0x8>
8780119c:	f85d 4b04 	ldr.w	r4, [sp], #4
878011a0:	4770      	bx	lr
878011a2:	4770      	bx	lr

878011a4 <memmove>:
878011a4:	4288      	cmp	r0, r1
878011a6:	b410      	push	{r4}
878011a8:	d80b      	bhi.n	878011c2 <memmove+0x1e>
878011aa:	b13a      	cbz	r2, 878011bc <memmove+0x18>
878011ac:	440a      	add	r2, r1
878011ae:	1e43      	subs	r3, r0, #1
878011b0:	f811 4b01 	ldrb.w	r4, [r1], #1
878011b4:	428a      	cmp	r2, r1
878011b6:	f803 4f01 	strb.w	r4, [r3, #1]!
878011ba:	d1f9      	bne.n	878011b0 <memmove+0xc>
878011bc:	f85d 4b04 	ldr.w	r4, [sp], #4
878011c0:	4770      	bx	lr
878011c2:	1884      	adds	r4, r0, r2
878011c4:	188b      	adds	r3, r1, r2
878011c6:	2a00      	cmp	r2, #0
878011c8:	d0f8      	beq.n	878011bc <memmove+0x18>
878011ca:	4622      	mov	r2, r4
878011cc:	f813 4d01 	ldrb.w	r4, [r3, #-1]!
878011d0:	4299      	cmp	r1, r3
878011d2:	f802 4d01 	strb.w	r4, [r2, #-1]!
878011d6:	d1f9      	bne.n	878011cc <memmove+0x28>
878011d8:	f85d 4b04 	ldr.w	r4, [sp], #4
878011dc:	4770      	bx	lr
878011de:	bf00      	nop

878011e0 <memcmp>:
878011e0:	b1aa      	cbz	r2, 8780120e <memcmp+0x2e>
878011e2:	b430      	push	{r4, r5}
878011e4:	4604      	mov	r4, r0
878011e6:	780b      	ldrb	r3, [r1, #0]
878011e8:	7800      	ldrb	r0, [r0, #0]
878011ea:	1ac0      	subs	r0, r0, r3
878011ec:	d10a      	bne.n	87801204 <memcmp+0x24>
878011ee:	3a01      	subs	r2, #1
878011f0:	188d      	adds	r5, r1, r2
878011f2:	e005      	b.n	87801200 <memcmp+0x20>
878011f4:	f814 3f01 	ldrb.w	r3, [r4, #1]!
878011f8:	f811 2f01 	ldrb.w	r2, [r1, #1]!
878011fc:	1a9b      	subs	r3, r3, r2
878011fe:	d103      	bne.n	87801208 <memcmp+0x28>
87801200:	42a9      	cmp	r1, r5
87801202:	d1f7      	bne.n	878011f4 <memcmp+0x14>
87801204:	bc30      	pop	{r4, r5}
87801206:	4770      	bx	lr
87801208:	4618      	mov	r0, r3
8780120a:	bc30      	pop	{r4, r5}
8780120c:	4770      	bx	lr
8780120e:	4610      	mov	r0, r2
87801210:	4770      	bx	lr
87801212:	bf00      	nop

87801214 <memscan>:
87801214:	b1c2      	cbz	r2, 87801248 <memscan+0x34>
87801216:	7803      	ldrb	r3, [r0, #0]
87801218:	4299      	cmp	r1, r3
8780121a:	d015      	beq.n	87801248 <memscan+0x34>
8780121c:	1c43      	adds	r3, r0, #1
8780121e:	4402      	add	r2, r0
87801220:	4293      	cmp	r3, r2
87801222:	4618      	mov	r0, r3
87801224:	f103 0301 	add.w	r3, r3, #1
87801228:	d00f      	beq.n	8780124a <memscan+0x36>
8780122a:	b410      	push	{r4}
8780122c:	7804      	ldrb	r4, [r0, #0]
8780122e:	428c      	cmp	r4, r1
87801230:	d007      	beq.n	87801242 <memscan+0x2e>
87801232:	4293      	cmp	r3, r2
87801234:	4618      	mov	r0, r3
87801236:	f103 0301 	add.w	r3, r3, #1
8780123a:	d002      	beq.n	87801242 <memscan+0x2e>
8780123c:	7804      	ldrb	r4, [r0, #0]
8780123e:	428c      	cmp	r4, r1
87801240:	d1f7      	bne.n	87801232 <memscan+0x1e>
87801242:	f85d 4b04 	ldr.w	r4, [sp], #4
87801246:	4770      	bx	lr
87801248:	4770      	bx	lr
8780124a:	4770      	bx	lr

8780124c <strstr>:
8780124c:	e92d 43f0 	stmdb	sp!, {r4, r5, r6, r7, r8, r9, lr}
87801250:	f891 8000 	ldrb.w	r8, [r1]
87801254:	f1b8 0f00 	cmp.w	r8, #0
87801258:	d027      	beq.n	878012aa <strstr+0x5e>
8780125a:	460b      	mov	r3, r1
8780125c:	f813 2f01 	ldrb.w	r2, [r3, #1]!
87801260:	2a00      	cmp	r2, #0
87801262:	d1fb      	bne.n	8780125c <strstr+0x10>
87801264:	ebb3 0e01 	subs.w	lr, r3, r1
87801268:	d01f      	beq.n	878012aa <strstr+0x5e>
8780126a:	7802      	ldrb	r2, [r0, #0]
8780126c:	4694      	mov	ip, r2
8780126e:	b132      	cbz	r2, 8780127e <strstr+0x32>
87801270:	4684      	mov	ip, r0
87801272:	f81c 3f01 	ldrb.w	r3, [ip, #1]!
87801276:	2b00      	cmp	r3, #0
87801278:	d1fb      	bne.n	87801272 <strstr+0x26>
8780127a:	ebac 0c00 	sub.w	ip, ip, r0
8780127e:	45e6      	cmp	lr, ip
87801280:	dc1a      	bgt.n	878012b8 <strstr+0x6c>
87801282:	4607      	mov	r7, r0
87801284:	f10e 39ff 	add.w	r9, lr, #4294967295	; 0xffffffff
87801288:	f10c 3cff 	add.w	ip, ip, #4294967295	; 0xffffffff
8780128c:	4638      	mov	r0, r7
8780128e:	460d      	mov	r5, r1
87801290:	eb09 0607 	add.w	r6, r9, r7
87801294:	463b      	mov	r3, r7
87801296:	4644      	mov	r4, r8
87801298:	e003      	b.n	878012a2 <strstr+0x56>
8780129a:	f813 2f01 	ldrb.w	r2, [r3, #1]!
8780129e:	f815 4f01 	ldrb.w	r4, [r5, #1]!
878012a2:	42a2      	cmp	r2, r4
878012a4:	d103      	bne.n	878012ae <strstr+0x62>
878012a6:	429e      	cmp	r6, r3
878012a8:	d1f7      	bne.n	8780129a <strstr+0x4e>
878012aa:	e8bd 83f0 	ldmia.w	sp!, {r4, r5, r6, r7, r8, r9, pc}
878012ae:	45f4      	cmp	ip, lr
878012b0:	db02      	blt.n	878012b8 <strstr+0x6c>
878012b2:	f817 2f01 	ldrb.w	r2, [r7, #1]!
878012b6:	e7e7      	b.n	87801288 <strstr+0x3c>
878012b8:	2000      	movs	r0, #0
878012ba:	e8bd 83f0 	ldmia.w	sp!, {r4, r5, r6, r7, r8, r9, pc}
878012be:	bf00      	nop

878012c0 <memchr>:
878012c0:	4402      	add	r2, r0
878012c2:	b2c9      	uxtb	r1, r1
878012c4:	4290      	cmp	r0, r2
878012c6:	4603      	mov	r3, r0
878012c8:	d012      	beq.n	878012f0 <memchr+0x30>
878012ca:	b410      	push	{r4}
878012cc:	f813 4b01 	ldrb.w	r4, [r3], #1
878012d0:	428c      	cmp	r4, r1
878012d2:	d006      	beq.n	878012e2 <memchr+0x22>
878012d4:	4293      	cmp	r3, r2
878012d6:	4618      	mov	r0, r3
878012d8:	d006      	beq.n	878012e8 <memchr+0x28>
878012da:	f813 4b01 	ldrb.w	r4, [r3], #1
878012de:	428c      	cmp	r4, r1
878012e0:	d1f8      	bne.n	878012d4 <memchr+0x14>
878012e2:	f85d 4b04 	ldr.w	r4, [sp], #4
878012e6:	4770      	bx	lr
878012e8:	2000      	movs	r0, #0
878012ea:	f85d 4b04 	ldr.w	r4, [sp], #4
878012ee:	4770      	bx	lr
878012f0:	2000      	movs	r0, #0
878012f2:	4770      	bx	lr

878012f4 <number>:
878012f4:	e92d 4ff0 	stmdb	sp!, {r4, r5, r6, r7, r8, r9, sl, fp, lr}
878012f8:	b0a5      	sub	sp, #148	; 0x94
878012fa:	460d      	mov	r5, r1
878012fc:	992e      	ldr	r1, [sp, #184]	; 0xb8
878012fe:	4604      	mov	r4, r0
87801300:	f8dd 90c4 	ldr.w	r9, [sp, #196]	; 0xc4
87801304:	390a      	subs	r1, #10
87801306:	bf18      	it	ne
87801308:	2101      	movne	r1, #1
8780130a:	f009 0020 	and.w	r0, r9, #32
8780130e:	ea01 1159 	and.w	r1, r1, r9, lsr #5
87801312:	9003      	str	r0, [sp, #12]
87801314:	9100      	str	r1, [sp, #0]
87801316:	f019 0110 	ands.w	r1, r9, #16
8780131a:	bf18      	it	ne
8780131c:	f029 0901 	bicne.w	r9, r9, #1
87801320:	9101      	str	r1, [sp, #4]
87801322:	f019 0102 	ands.w	r1, r9, #2
87801326:	d011      	beq.n	8780134c <number+0x58>
87801328:	2a00      	cmp	r2, #0
8780132a:	f173 0100 	sbcs.w	r1, r3, #0
8780132e:	f2c0 816e 	blt.w	8780160e <number+0x31a>
87801332:	f019 0f04 	tst.w	r9, #4
87801336:	f040 8188 	bne.w	8780164a <number+0x356>
8780133a:	f019 0108 	ands.w	r1, r9, #8
8780133e:	d005      	beq.n	8780134c <number+0x58>
87801340:	992f      	ldr	r1, [sp, #188]	; 0xbc
87801342:	3901      	subs	r1, #1
87801344:	912f      	str	r1, [sp, #188]	; 0xbc
87801346:	2120      	movs	r1, #32
87801348:	9102      	str	r1, [sp, #8]
8780134a:	e000      	b.n	8780134e <number+0x5a>
8780134c:	9102      	str	r1, [sp, #8]
8780134e:	9900      	ldr	r1, [sp, #0]
87801350:	2900      	cmp	r1, #0
87801352:	d048      	beq.n	878013e6 <number+0xf2>
87801354:	992e      	ldr	r1, [sp, #184]	; 0xb8
87801356:	2910      	cmp	r1, #16
87801358:	992f      	ldr	r1, [sp, #188]	; 0xbc
8780135a:	f000 8161 	beq.w	87801620 <number+0x32c>
8780135e:	3901      	subs	r1, #1
87801360:	912f      	str	r1, [sp, #188]	; 0xbc
87801362:	ea52 0103 	orrs.w	r1, r2, r3
87801366:	d042      	beq.n	878013ee <number+0xfa>
87801368:	992e      	ldr	r1, [sp, #184]	; 0xb8
8780136a:	2910      	cmp	r1, #16
8780136c:	f101 3aff 	add.w	sl, r1, #4294967295	; 0xffffffff
87801370:	bf0a      	itet	eq
87801372:	2004      	moveq	r0, #4
87801374:	2003      	movne	r0, #3
87801376:	f04f 0a0f 	moveq.w	sl, #15
8780137a:	f242 78b8 	movw	r8, #10168	; 0x27b8
8780137e:	f1c0 0120 	rsb	r1, r0, #32
87801382:	9506      	str	r5, [sp, #24]
87801384:	f10d 0c2c 	add.w	ip, sp, #44	; 0x2c
87801388:	f8cd 90c4 	str.w	r9, [sp, #196]	; 0xc4
8780138c:	f2c8 7880 	movt	r8, #34688	; 0x8780
87801390:	2600      	movs	r6, #0
87801392:	9404      	str	r4, [sp, #16]
87801394:	f8dd 900c 	ldr.w	r9, [sp, #12]
87801398:	460d      	mov	r5, r1
8780139a:	e000      	b.n	8780139e <number+0xaa>
8780139c:	463e      	mov	r6, r7
8780139e:	fa03 f705 	lsl.w	r7, r3, r5
878013a2:	f1b0 0e20 	subs.w	lr, r0, #32
878013a6:	b2d4      	uxtb	r4, r2
878013a8:	fa22 f100 	lsr.w	r1, r2, r0
878013ac:	fa43 fe0e 	asr.w	lr, r3, lr
878013b0:	fa43 fb00 	asr.w	fp, r3, r0
878013b4:	ea41 0107 	orr.w	r1, r1, r7
878013b8:	ea04 040a 	and.w	r4, r4, sl
878013bc:	bf58      	it	pl
878013be:	ea41 010e 	orrpl.w	r1, r1, lr
878013c2:	f818 4004 	ldrb.w	r4, [r8, r4]
878013c6:	460a      	mov	r2, r1
878013c8:	465b      	mov	r3, fp
878013ca:	ea52 0103 	orrs.w	r1, r2, r3
878013ce:	f106 0701 	add.w	r7, r6, #1
878013d2:	ea49 0404 	orr.w	r4, r9, r4
878013d6:	f80c 4b01 	strb.w	r4, [ip], #1
878013da:	d1df      	bne.n	8780139c <number+0xa8>
878013dc:	9c04      	ldr	r4, [sp, #16]
878013de:	9d06      	ldr	r5, [sp, #24]
878013e0:	f8dd 90c4 	ldr.w	r9, [sp, #196]	; 0xc4
878013e4:	e008      	b.n	878013f8 <number+0x104>
878013e6:	ea52 0103 	orrs.w	r1, r2, r3
878013ea:	f040 8081 	bne.w	878014f0 <number+0x1fc>
878013ee:	2600      	movs	r6, #0
878013f0:	2701      	movs	r7, #1
878013f2:	2330      	movs	r3, #48	; 0x30
878013f4:	f88d 302c 	strb.w	r3, [sp, #44]	; 0x2c
878013f8:	9b30      	ldr	r3, [sp, #192]	; 0xc0
878013fa:	42bb      	cmp	r3, r7
878013fc:	bfb8      	it	lt
878013fe:	463b      	movlt	r3, r7
87801400:	f019 0f11 	tst.w	r9, #17
87801404:	461a      	mov	r2, r3
87801406:	9b2f      	ldr	r3, [sp, #188]	; 0xbc
87801408:	eba3 0302 	sub.w	r3, r3, r2
8780140c:	f103 31ff 	add.w	r1, r3, #4294967295	; 0xffffffff
87801410:	d10f      	bne.n	87801432 <number+0x13e>
87801412:	2900      	cmp	r1, #0
87801414:	bfb8      	it	lt
87801416:	1e99      	sublt	r1, r3, #2
87801418:	db0b      	blt.n	87801432 <number+0x13e>
8780141a:	4423      	add	r3, r4
8780141c:	2120      	movs	r1, #32
8780141e:	42a5      	cmp	r5, r4
87801420:	f104 0401 	add.w	r4, r4, #1
87801424:	bf88      	it	hi
87801426:	f804 1c01 	strbhi.w	r1, [r4, #-1]
8780142a:	429c      	cmp	r4, r3
8780142c:	d1f7      	bne.n	8780141e <number+0x12a>
8780142e:	f06f 0101 	mvn.w	r1, #1
87801432:	9b02      	ldr	r3, [sp, #8]
87801434:	b12b      	cbz	r3, 87801442 <number+0x14e>
87801436:	42ac      	cmp	r4, r5
87801438:	f104 0401 	add.w	r4, r4, #1
8780143c:	bf38      	it	cc
8780143e:	f804 3c01 	strbcc.w	r3, [r4, #-1]
87801442:	9b00      	ldr	r3, [sp, #0]
87801444:	b153      	cbz	r3, 8780145c <number+0x168>
87801446:	982e      	ldr	r0, [sp, #184]	; 0xb8
87801448:	42ac      	cmp	r4, r5
8780144a:	bf3c      	itt	cc
8780144c:	2330      	movcc	r3, #48	; 0x30
8780144e:	7023      	strbcc	r3, [r4, #0]
87801450:	1c63      	adds	r3, r4, #1
87801452:	2810      	cmp	r0, #16
87801454:	bf18      	it	ne
87801456:	461c      	movne	r4, r3
87801458:	f000 80ed 	beq.w	87801636 <number+0x342>
8780145c:	9b01      	ldr	r3, [sp, #4]
8780145e:	b9ab      	cbnz	r3, 8780148c <number+0x198>
87801460:	f019 0f01 	tst.w	r9, #1
87801464:	bf0c      	ite	eq
87801466:	2320      	moveq	r3, #32
87801468:	2330      	movne	r3, #48	; 0x30
8780146a:	2900      	cmp	r1, #0
8780146c:	bfb8      	it	lt
8780146e:	f101 31ff 	addlt.w	r1, r1, #4294967295	; 0xffffffff
87801472:	db0b      	blt.n	8780148c <number+0x198>
87801474:	3101      	adds	r1, #1
87801476:	4421      	add	r1, r4
87801478:	42a5      	cmp	r5, r4
8780147a:	f104 0401 	add.w	r4, r4, #1
8780147e:	bf88      	it	hi
87801480:	f804 3c01 	strbhi.w	r3, [r4, #-1]
87801484:	428c      	cmp	r4, r1
87801486:	d1f7      	bne.n	87801478 <number+0x184>
87801488:	f06f 0101 	mvn.w	r1, #1
8780148c:	4297      	cmp	r7, r2
8780148e:	bfbe      	ittt	lt
87801490:	1bd7      	sublt	r7, r2, r7
87801492:	2330      	movlt	r3, #48	; 0x30
87801494:	193f      	addlt	r7, r7, r4
87801496:	da07      	bge.n	878014a8 <number+0x1b4>
87801498:	42a5      	cmp	r5, r4
8780149a:	f104 0401 	add.w	r4, r4, #1
8780149e:	bf88      	it	hi
878014a0:	f804 3c01 	strbhi.w	r3, [r4, #-1]
878014a4:	42bc      	cmp	r4, r7
878014a6:	d1f7      	bne.n	87801498 <number+0x1a4>
878014a8:	2e00      	cmp	r6, #0
878014aa:	f2c0 80d4 	blt.w	87801656 <number+0x362>
878014ae:	4632      	mov	r2, r6
878014b0:	4623      	mov	r3, r4
878014b2:	af0b      	add	r7, sp, #44	; 0x2c
878014b4:	429d      	cmp	r5, r3
878014b6:	f103 0301 	add.w	r3, r3, #1
878014ba:	bf88      	it	hi
878014bc:	5dd0      	ldrbhi	r0, [r2, r7]
878014be:	f102 32ff 	add.w	r2, r2, #4294967295	; 0xffffffff
878014c2:	bf88      	it	hi
878014c4:	f803 0c01 	strbhi.w	r0, [r3, #-1]
878014c8:	1c50      	adds	r0, r2, #1
878014ca:	d1f3      	bne.n	878014b4 <number+0x1c0>
878014cc:	1c70      	adds	r0, r6, #1
878014ce:	4420      	add	r0, r4
878014d0:	2900      	cmp	r1, #0
878014d2:	db0a      	blt.n	878014ea <number+0x1f6>
878014d4:	1c4b      	adds	r3, r1, #1
878014d6:	2220      	movs	r2, #32
878014d8:	4403      	add	r3, r0
878014da:	4285      	cmp	r5, r0
878014dc:	f100 0001 	add.w	r0, r0, #1
878014e0:	bf88      	it	hi
878014e2:	f800 2c01 	strbhi.w	r2, [r0, #-1]
878014e6:	4298      	cmp	r0, r3
878014e8:	d1f7      	bne.n	878014da <number+0x1e6>
878014ea:	b025      	add	sp, #148	; 0x94
878014ec:	e8bd 8ff0 	ldmia.w	sp!, {r4, r5, r6, r7, r8, r9, sl, fp, pc}
878014f0:	992e      	ldr	r1, [sp, #184]	; 0xb8
878014f2:	290a      	cmp	r1, #10
878014f4:	f47f af38 	bne.w	87801368 <number+0x74>
878014f8:	4692      	mov	sl, r2
878014fa:	469b      	mov	fp, r3
878014fc:	f248 629f 	movw	r2, #34463	; 0x869f
87801500:	2300      	movs	r3, #0
87801502:	f2c0 0201 	movt	r2, #1
87801506:	455b      	cmp	r3, fp
87801508:	bf08      	it	eq
8780150a:	4552      	cmpeq	r2, sl
8780150c:	e9cd ab08 	strd	sl, fp, [sp, #32]
87801510:	f080 8109 	bcs.w	87801726 <number+0x432>
87801514:	f248 61a0 	movw	r1, #34464	; 0x86a0
87801518:	f645 20c5 	movw	r0, #23237	; 0x5ac5
8780151c:	f2c0 0101 	movt	r1, #1
87801520:	f6c0 207c 	movt	r0, #2684	; 0xa7c
87801524:	e9cd 4506 	strd	r4, r5, [sp, #24]
87801528:	460f      	mov	r7, r1
8780152a:	e9cd 2304 	strd	r2, r3, [sp, #16]
8780152e:	f10d 0631 	add.w	r6, sp, #49	; 0x31
87801532:	4604      	mov	r4, r0
87801534:	e05c      	b.n	878015f0 <number+0x2fc>
87801536:	09d8      	lsrs	r0, r3, #7
87801538:	f04f 0b00 	mov.w	fp, #0
8780153c:	4603      	mov	r3, r0
8780153e:	fb07 a010 	mls	r0, r7, r0, sl
87801542:	469a      	mov	sl, r3
87801544:	e9cd ab08 	strd	sl, fp, [sp, #32]
87801548:	f3c0 2303 	ubfx	r3, r0, #8, #4
8780154c:	f3c0 1203 	ubfx	r2, r0, #4, #4
87801550:	0b01      	lsrs	r1, r0, #12
87801552:	eb02 0c03 	add.w	ip, r2, r3
87801556:	f000 080f 	and.w	r8, r0, #15
8780155a:	eb03 0e83 	add.w	lr, r3, r3, lsl #2
8780155e:	448c      	add	ip, r1
87801560:	eb01 00c1 	add.w	r0, r1, r1, lsl #3
87801564:	eb0c 0c4c 	add.w	ip, ip, ip, lsl #1
87801568:	4635      	mov	r5, r6
8780156a:	4402      	add	r2, r0
8780156c:	eb08 004c 	add.w	r0, r8, ip, lsl #1
87801570:	f04f 0ccd 	mov.w	ip, #205	; 0xcd
87801574:	4472      	add	r2, lr
87801576:	fb0c f800 	mul.w	r8, ip, r0
8780157a:	3605      	adds	r6, #5
8780157c:	ea4f 28d8 	mov.w	r8, r8, lsr #11
87801580:	4442      	add	r2, r8
87801582:	eb08 0888 	add.w	r8, r8, r8, lsl #2
87801586:	fb0c fe02 	mul.w	lr, ip, r2
8780158a:	eba0 0048 	sub.w	r0, r0, r8, lsl #1
8780158e:	3030      	adds	r0, #48	; 0x30
87801590:	ea4f 2ede 	mov.w	lr, lr, lsr #11
87801594:	f806 0c0a 	strb.w	r0, [r6, #-10]
87801598:	eb0e 0343 	add.w	r3, lr, r3, lsl #1
8780159c:	eb0e 0e8e 	add.w	lr, lr, lr, lsl #2
878015a0:	eb03 0043 	add.w	r0, r3, r3, lsl #1
878015a4:	eba2 024e 	sub.w	r2, r2, lr, lsl #1
878015a8:	eb03 0080 	add.w	r0, r3, r0, lsl #2
878015ac:	3230      	adds	r2, #48	; 0x30
878015ae:	f806 2c09 	strb.w	r2, [r6, #-9]
878015b2:	09c2      	lsrs	r2, r0, #7
878015b4:	eb02 0181 	add.w	r1, r2, r1, lsl #2
878015b8:	eb02 0282 	add.w	r2, r2, r2, lsl #2
878015bc:	fb0c fc01 	mul.w	ip, ip, r1
878015c0:	eba3 0342 	sub.w	r3, r3, r2, lsl #1
878015c4:	3330      	adds	r3, #48	; 0x30
878015c6:	f806 3c08 	strb.w	r3, [r6, #-8]
878015ca:	ea4f 2cdc 	mov.w	ip, ip, lsr #11
878015ce:	eb0c 038c 	add.w	r3, ip, ip, lsl #2
878015d2:	f10c 0c30 	add.w	ip, ip, #48	; 0x30
878015d6:	f806 cc06 	strb.w	ip, [r6, #-6]
878015da:	eba1 0143 	sub.w	r1, r1, r3, lsl #1
878015de:	e9dd 2304 	ldrd	r2, r3, [sp, #16]
878015e2:	3130      	adds	r1, #48	; 0x30
878015e4:	455b      	cmp	r3, fp
878015e6:	f806 1c07 	strb.w	r1, [r6, #-7]
878015ea:	bf08      	it	eq
878015ec:	4552      	cmpeq	r2, sl
878015ee:	d234      	bcs.n	8780165a <number+0x366>
878015f0:	4658      	mov	r0, fp
878015f2:	2100      	movs	r1, #0
878015f4:	ea4f 125a 	mov.w	r2, sl, lsr #5
878015f8:	4301      	orrs	r1, r0
878015fa:	fba2 2304 	umull	r2, r3, r2, r4
878015fe:	d09a      	beq.n	87801536 <number+0x242>
87801600:	4639      	mov	r1, r7
87801602:	a808      	add	r0, sp, #32
87801604:	f000 ff36 	bl	87802474 <__div64_32>
87801608:	e9dd ab08 	ldrd	sl, fp, [sp, #32]
8780160c:	e79c      	b.n	87801548 <number+0x254>
8780160e:	992f      	ldr	r1, [sp, #188]	; 0xbc
87801610:	4252      	negs	r2, r2
87801612:	eb63 0343 	sbc.w	r3, r3, r3, lsl #1
87801616:	3901      	subs	r1, #1
87801618:	912f      	str	r1, [sp, #188]	; 0xbc
8780161a:	212d      	movs	r1, #45	; 0x2d
8780161c:	9102      	str	r1, [sp, #8]
8780161e:	e696      	b.n	8780134e <number+0x5a>
87801620:	3902      	subs	r1, #2
87801622:	912f      	str	r1, [sp, #188]	; 0xbc
87801624:	ea52 0103 	orrs.w	r1, r2, r3
87801628:	bf1c      	itt	ne
8780162a:	f04f 0a0f 	movne.w	sl, #15
8780162e:	2004      	movne	r0, #4
87801630:	f47f aea3 	bne.w	8780137a <number+0x86>
87801634:	e6db      	b.n	878013ee <number+0xfa>
87801636:	429d      	cmp	r5, r3
87801638:	f104 0402 	add.w	r4, r4, #2
8780163c:	bf82      	ittt	hi
8780163e:	9b03      	ldrhi	r3, [sp, #12]
87801640:	f043 0358 	orrhi.w	r3, r3, #88	; 0x58
87801644:	f804 3c01 	strbhi.w	r3, [r4, #-1]
87801648:	e708      	b.n	8780145c <number+0x168>
8780164a:	992f      	ldr	r1, [sp, #188]	; 0xbc
8780164c:	3901      	subs	r1, #1
8780164e:	912f      	str	r1, [sp, #188]	; 0xbc
87801650:	212b      	movs	r1, #43	; 0x2b
87801652:	9102      	str	r1, [sp, #8]
87801654:	e67b      	b.n	8780134e <number+0x5a>
87801656:	4620      	mov	r0, r4
87801658:	e73a      	b.n	878014d0 <number+0x1dc>
8780165a:	46a8      	mov	r8, r5
8780165c:	e9dd 4506 	ldrd	r4, r5, [sp, #24]
87801660:	f10d 0e2c 	add.w	lr, sp, #44	; 0x2c
87801664:	f3ca 1003 	ubfx	r0, sl, #4, #4
87801668:	ea4f 371a 	mov.w	r7, sl, lsr #12
8780166c:	f3ca 2103 	ubfx	r1, sl, #8, #4
87801670:	1843      	adds	r3, r0, r1
87801672:	eb07 02c7 	add.w	r2, r7, r7, lsl #3
87801676:	443b      	add	r3, r7
87801678:	eb01 0681 	add.w	r6, r1, r1, lsl #2
8780167c:	eb03 0343 	add.w	r3, r3, r3, lsl #1
87801680:	f00a 0a0f 	and.w	sl, sl, #15
87801684:	4402      	add	r2, r0
87801686:	eb0a 0343 	add.w	r3, sl, r3, lsl #1
8780168a:	f04f 0ccd 	mov.w	ip, #205	; 0xcd
8780168e:	1990      	adds	r0, r2, r6
87801690:	fb0c f203 	mul.w	r2, ip, r3
87801694:	0ad2      	lsrs	r2, r2, #11
87801696:	eb02 0682 	add.w	r6, r2, r2, lsl #2
8780169a:	1812      	adds	r2, r2, r0
8780169c:	bf08      	it	eq
8780169e:	f108 0701 	addeq.w	r7, r8, #1
878016a2:	eba3 0346 	sub.w	r3, r3, r6, lsl #1
878016a6:	f103 0330 	add.w	r3, r3, #48	; 0x30
878016aa:	f888 3000 	strb.w	r3, [r8]
878016ae:	d036      	beq.n	8780171e <number+0x42a>
878016b0:	fb0c f302 	mul.w	r3, ip, r2
878016b4:	0adb      	lsrs	r3, r3, #11
878016b6:	eb03 0083 	add.w	r0, r3, r3, lsl #2
878016ba:	eb03 0341 	add.w	r3, r3, r1, lsl #1
878016be:	eba2 0240 	sub.w	r2, r2, r0, lsl #1
878016c2:	3230      	adds	r2, #48	; 0x30
878016c4:	f888 2001 	strb.w	r2, [r8, #1]
878016c8:	ea57 0203 	orrs.w	r2, r7, r3
878016cc:	bf08      	it	eq
878016ce:	f108 0702 	addeq.w	r7, r8, #2
878016d2:	d024      	beq.n	8780171e <number+0x42a>
878016d4:	eb03 0243 	add.w	r2, r3, r3, lsl #1
878016d8:	eb03 0282 	add.w	r2, r3, r2, lsl #2
878016dc:	09d2      	lsrs	r2, r2, #7
878016de:	eb02 0182 	add.w	r1, r2, r2, lsl #2
878016e2:	eb12 0287 	adds.w	r2, r2, r7, lsl #2
878016e6:	eba3 0341 	sub.w	r3, r3, r1, lsl #1
878016ea:	bf08      	it	eq
878016ec:	f108 0703 	addeq.w	r7, r8, #3
878016f0:	f103 0330 	add.w	r3, r3, #48	; 0x30
878016f4:	f888 3002 	strb.w	r3, [r8, #2]
878016f8:	d011      	beq.n	8780171e <number+0x42a>
878016fa:	fb0c f302 	mul.w	r3, ip, r2
878016fe:	f108 0704 	add.w	r7, r8, #4
87801702:	0adb      	lsrs	r3, r3, #11
87801704:	eb03 0183 	add.w	r1, r3, r3, lsl #2
87801708:	eba2 0241 	sub.w	r2, r2, r1, lsl #1
8780170c:	3230      	adds	r2, #48	; 0x30
8780170e:	f888 2003 	strb.w	r2, [r8, #3]
87801712:	b123      	cbz	r3, 8780171e <number+0x42a>
87801714:	f108 0705 	add.w	r7, r8, #5
87801718:	3330      	adds	r3, #48	; 0x30
8780171a:	f888 3004 	strb.w	r3, [r8, #4]
8780171e:	eba7 070e 	sub.w	r7, r7, lr
87801722:	1e7e      	subs	r6, r7, #1
87801724:	e668      	b.n	878013f8 <number+0x104>
87801726:	f10d 0e2c 	add.w	lr, sp, #44	; 0x2c
8780172a:	46f0      	mov	r8, lr
8780172c:	e79a      	b.n	87801664 <number+0x370>
8780172e:	bf00      	nop

87801730 <simple_strtoul>:
87801730:	b4f0      	push	{r4, r5, r6, r7}
87801732:	4607      	mov	r7, r0
87801734:	7804      	ldrb	r4, [r0, #0]
87801736:	bb52      	cbnz	r2, 8780178e <simple_strtoul+0x5e>
87801738:	2c30      	cmp	r4, #48	; 0x30
8780173a:	d04f      	beq.n	878017dc <simple_strtoul+0xac>
8780173c:	f242 7ce0 	movw	ip, #10208	; 0x27e0
87801740:	4623      	mov	r3, r4
87801742:	f2c8 7c80 	movt	ip, #34688	; 0x8780
87801746:	220a      	movs	r2, #10
87801748:	f81c 5004 	ldrb.w	r5, [ip, r4]
8780174c:	f005 0044 	and.w	r0, r5, #68	; 0x44
87801750:	b1c8      	cbz	r0, 87801786 <simple_strtoul+0x56>
87801752:	2000      	movs	r0, #0
87801754:	e009      	b.n	8780176a <simple_strtoul+0x3a>
87801756:	f817 4f01 	ldrb.w	r4, [r7, #1]!
8780175a:	fb02 3000 	mla	r0, r2, r0, r3
8780175e:	f81c 5004 	ldrb.w	r5, [ip, r4]
87801762:	4623      	mov	r3, r4
87801764:	f015 0f44 	tst.w	r5, #68	; 0x44
87801768:	d00d      	beq.n	87801786 <simple_strtoul+0x56>
8780176a:	f015 0f04 	tst.w	r5, #4
8780176e:	f1a3 0330 	sub.w	r3, r3, #48	; 0x30
87801772:	d106      	bne.n	87801782 <simple_strtoul+0x52>
87801774:	f1a4 0320 	sub.w	r3, r4, #32
87801778:	07ad      	lsls	r5, r5, #30
8780177a:	bf48      	it	mi
8780177c:	b2dc      	uxtbmi	r4, r3
8780177e:	f1a4 0337 	sub.w	r3, r4, #55	; 0x37
87801782:	4293      	cmp	r3, r2
87801784:	d3e7      	bcc.n	87801756 <simple_strtoul+0x26>
87801786:	b101      	cbz	r1, 8780178a <simple_strtoul+0x5a>
87801788:	600f      	str	r7, [r1, #0]
8780178a:	bcf0      	pop	{r4, r5, r6, r7}
8780178c:	4770      	bx	lr
8780178e:	2a10      	cmp	r2, #16
87801790:	d009      	beq.n	878017a6 <simple_strtoul+0x76>
87801792:	f242 7ce0 	movw	ip, #10208	; 0x27e0
87801796:	4623      	mov	r3, r4
87801798:	f2c8 7c80 	movt	ip, #34688	; 0x8780
8780179c:	f81c 5004 	ldrb.w	r5, [ip, r4]
878017a0:	f005 0044 	and.w	r0, r5, #68	; 0x44
878017a4:	e7d4      	b.n	87801750 <simple_strtoul+0x20>
878017a6:	2c30      	cmp	r4, #48	; 0x30
878017a8:	d1f3      	bne.n	87801792 <simple_strtoul+0x62>
878017aa:	7843      	ldrb	r3, [r0, #1]
878017ac:	f242 7ce0 	movw	ip, #10208	; 0x27e0
878017b0:	f2c8 7c80 	movt	ip, #34688	; 0x8780
878017b4:	f81c 0003 	ldrb.w	r0, [ip, r3]
878017b8:	0786      	lsls	r6, r0, #30
878017ba:	bf44      	itt	mi
878017bc:	3b20      	submi	r3, #32
878017be:	b2db      	uxtbmi	r3, r3
878017c0:	2b58      	cmp	r3, #88	; 0x58
878017c2:	bf0d      	iteet	eq
878017c4:	78bc      	ldrbeq	r4, [r7, #2]
878017c6:	2330      	movne	r3, #48	; 0x30
878017c8:	f89c 5030 	ldrbne.w	r5, [ip, #48]	; 0x30
878017cc:	3702      	addeq	r7, #2
878017ce:	bf04      	itt	eq
878017d0:	f81c 5004 	ldrbeq.w	r5, [ip, r4]
878017d4:	4623      	moveq	r3, r4
878017d6:	f005 0044 	and.w	r0, r5, #68	; 0x44
878017da:	e7b9      	b.n	87801750 <simple_strtoul+0x20>
878017dc:	7844      	ldrb	r4, [r0, #1]
878017de:	f242 7ce0 	movw	ip, #10208	; 0x27e0
878017e2:	f2c8 7c80 	movt	ip, #34688	; 0x8780
878017e6:	3001      	adds	r0, #1
878017e8:	f81c 5004 	ldrb.w	r5, [ip, r4]
878017ec:	4623      	mov	r3, r4
878017ee:	07aa      	lsls	r2, r5, #30
878017f0:	bf4a      	itet	mi
878017f2:	f1a4 0220 	submi.w	r2, r4, #32
878017f6:	4622      	movpl	r2, r4
878017f8:	b2d2      	uxtbmi	r2, r2
878017fa:	2a58      	cmp	r2, #88	; 0x58
878017fc:	d004      	beq.n	87801808 <simple_strtoul+0xd8>
878017fe:	4607      	mov	r7, r0
87801800:	2208      	movs	r2, #8
87801802:	f005 0044 	and.w	r0, r5, #68	; 0x44
87801806:	e7a3      	b.n	87801750 <simple_strtoul+0x20>
87801808:	78be      	ldrb	r6, [r7, #2]
8780180a:	f81c 2006 	ldrb.w	r2, [ip, r6]
8780180e:	f012 0f44 	tst.w	r2, #68	; 0x44
87801812:	d0f4      	beq.n	878017fe <simple_strtoul+0xce>
87801814:	4615      	mov	r5, r2
87801816:	4633      	mov	r3, r6
87801818:	3702      	adds	r7, #2
8780181a:	4634      	mov	r4, r6
8780181c:	2210      	movs	r2, #16
8780181e:	e798      	b.n	87801752 <simple_strtoul+0x22>

87801820 <simple_strtol>:
87801820:	b510      	push	{r4, lr}
87801822:	7804      	ldrb	r4, [r0, #0]
87801824:	2c2d      	cmp	r4, #45	; 0x2d
87801826:	d003      	beq.n	87801830 <simple_strtol+0x10>
87801828:	e8bd 4010 	ldmia.w	sp!, {r4, lr}
8780182c:	f7ff bf80 	b.w	87801730 <simple_strtoul>
87801830:	3001      	adds	r0, #1
87801832:	f7ff ff7d 	bl	87801730 <simple_strtoul>
87801836:	4240      	negs	r0, r0
87801838:	bd10      	pop	{r4, pc}
8780183a:	bf00      	nop

8780183c <simple_strtoull>:
8780183c:	e92d 4ff0 	stmdb	sp!, {r4, r5, r6, r7, r8, r9, sl, fp, lr}
87801840:	7803      	ldrb	r3, [r0, #0]
87801842:	2a00      	cmp	r2, #0
87801844:	d140      	bne.n	878018c8 <simple_strtoull+0x8c>
87801846:	2b30      	cmp	r3, #48	; 0x30
87801848:	d066      	beq.n	87801918 <simple_strtoull+0xdc>
8780184a:	f242 7ee0 	movw	lr, #10208	; 0x27e0
8780184e:	469b      	mov	fp, r3
87801850:	f2c8 7e80 	movt	lr, #34688	; 0x8780
87801854:	220a      	movs	r2, #10
87801856:	f81e c003 	ldrb.w	ip, [lr, r3]
8780185a:	f00c 0444 	and.w	r4, ip, #68	; 0x44
8780185e:	2c00      	cmp	r4, #0
87801860:	d071      	beq.n	87801946 <simple_strtoull+0x10a>
87801862:	f04f 0a00 	mov.w	sl, #0
87801866:	4690      	mov	r8, r2
87801868:	f04f 0900 	mov.w	r9, #0
8780186c:	4652      	mov	r2, sl
8780186e:	e00e      	b.n	8780188e <simple_strtoull+0x52>
87801870:	fb08 3202 	mla	r2, r8, r2, r3
87801874:	f810 3f01 	ldrb.w	r3, [r0, #1]!
87801878:	eb16 0a04 	adds.w	sl, r6, r4
8780187c:	f81e c003 	ldrb.w	ip, [lr, r3]
87801880:	469b      	mov	fp, r3
87801882:	4417      	add	r7, r2
87801884:	eb47 0205 	adc.w	r2, r7, r5
87801888:	f01c 0f44 	tst.w	ip, #68	; 0x44
8780188c:	d016      	beq.n	878018bc <simple_strtoull+0x80>
8780188e:	f01c 0f04 	tst.w	ip, #4
87801892:	f1ab 0430 	sub.w	r4, fp, #48	; 0x30
87801896:	d108      	bne.n	878018aa <simple_strtoull+0x6e>
87801898:	3b20      	subs	r3, #32
8780189a:	f01c 0f02 	tst.w	ip, #2
8780189e:	b2db      	uxtb	r3, r3
878018a0:	f1ab 0437 	sub.w	r4, fp, #55	; 0x37
878018a4:	bf18      	it	ne
878018a6:	f1a3 0437 	subne.w	r4, r3, #55	; 0x37
878018aa:	17e5      	asrs	r5, r4, #31
878018ac:	fb0a f309 	mul.w	r3, sl, r9
878018b0:	454d      	cmp	r5, r9
878018b2:	fbaa 6708 	umull	r6, r7, sl, r8
878018b6:	bf08      	it	eq
878018b8:	4544      	cmpeq	r4, r8
878018ba:	d3d9      	bcc.n	87801870 <simple_strtoull+0x34>
878018bc:	b101      	cbz	r1, 878018c0 <simple_strtoull+0x84>
878018be:	6008      	str	r0, [r1, #0]
878018c0:	4650      	mov	r0, sl
878018c2:	4611      	mov	r1, r2
878018c4:	e8bd 8ff0 	ldmia.w	sp!, {r4, r5, r6, r7, r8, r9, sl, fp, pc}
878018c8:	2a10      	cmp	r2, #16
878018ca:	d009      	beq.n	878018e0 <simple_strtoull+0xa4>
878018cc:	f242 7ee0 	movw	lr, #10208	; 0x27e0
878018d0:	469b      	mov	fp, r3
878018d2:	f2c8 7e80 	movt	lr, #34688	; 0x8780
878018d6:	f81e c003 	ldrb.w	ip, [lr, r3]
878018da:	f00c 0444 	and.w	r4, ip, #68	; 0x44
878018de:	e7be      	b.n	8780185e <simple_strtoull+0x22>
878018e0:	2b30      	cmp	r3, #48	; 0x30
878018e2:	d1f3      	bne.n	878018cc <simple_strtoull+0x90>
878018e4:	7844      	ldrb	r4, [r0, #1]
878018e6:	f242 7ee0 	movw	lr, #10208	; 0x27e0
878018ea:	f2c8 7e80 	movt	lr, #34688	; 0x8780
878018ee:	f81e 5004 	ldrb.w	r5, [lr, r4]
878018f2:	07ad      	lsls	r5, r5, #30
878018f4:	bf44      	itt	mi
878018f6:	3c20      	submi	r4, #32
878018f8:	b2e4      	uxtbmi	r4, r4
878018fa:	2c58      	cmp	r4, #88	; 0x58
878018fc:	bf0d      	iteet	eq
878018fe:	7883      	ldrbeq	r3, [r0, #2]
87801900:	f04f 0b30 	movne.w	fp, #48	; 0x30
87801904:	f89e c030 	ldrbne.w	ip, [lr, #48]	; 0x30
87801908:	3002      	addeq	r0, #2
8780190a:	bf04      	itt	eq
8780190c:	f81e c003 	ldrbeq.w	ip, [lr, r3]
87801910:	469b      	moveq	fp, r3
87801912:	f00c 0444 	and.w	r4, ip, #68	; 0x44
87801916:	e7a2      	b.n	8780185e <simple_strtoull+0x22>
87801918:	7843      	ldrb	r3, [r0, #1]
8780191a:	f242 7ee0 	movw	lr, #10208	; 0x27e0
8780191e:	f2c8 7e80 	movt	lr, #34688	; 0x8780
87801922:	1c44      	adds	r4, r0, #1
87801924:	f81e c003 	ldrb.w	ip, [lr, r3]
87801928:	469b      	mov	fp, r3
8780192a:	f01c 0f02 	tst.w	ip, #2
8780192e:	bf16      	itet	ne
87801930:	f1a3 0220 	subne.w	r2, r3, #32
87801934:	461a      	moveq	r2, r3
87801936:	b2d2      	uxtbne	r2, r2
87801938:	2a58      	cmp	r2, #88	; 0x58
8780193a:	d008      	beq.n	8780194e <simple_strtoull+0x112>
8780193c:	4620      	mov	r0, r4
8780193e:	2208      	movs	r2, #8
87801940:	f00c 0444 	and.w	r4, ip, #68	; 0x44
87801944:	e78b      	b.n	8780185e <simple_strtoull+0x22>
87801946:	f04f 0a00 	mov.w	sl, #0
8780194a:	4652      	mov	r2, sl
8780194c:	e7b6      	b.n	878018bc <simple_strtoull+0x80>
8780194e:	7885      	ldrb	r5, [r0, #2]
87801950:	f81e 2005 	ldrb.w	r2, [lr, r5]
87801954:	f012 0f44 	tst.w	r2, #68	; 0x44
87801958:	d0f0      	beq.n	8780193c <simple_strtoull+0x100>
8780195a:	4694      	mov	ip, r2
8780195c:	46ab      	mov	fp, r5
8780195e:	3002      	adds	r0, #2
87801960:	462b      	mov	r3, r5
87801962:	2210      	movs	r2, #16
87801964:	e77d      	b.n	87801862 <simple_strtoull+0x26>
87801966:	bf00      	nop

87801968 <simple_strtoll>:
87801968:	b510      	push	{r4, lr}
8780196a:	7804      	ldrb	r4, [r0, #0]
8780196c:	2c2d      	cmp	r4, #45	; 0x2d
8780196e:	d003      	beq.n	87801978 <simple_strtoll+0x10>
87801970:	e8bd 4010 	ldmia.w	sp!, {r4, lr}
87801974:	f7ff bf62 	b.w	8780183c <simple_strtoull>
87801978:	3001      	adds	r0, #1
8780197a:	f7ff ff5f 	bl	8780183c <simple_strtoull>
8780197e:	4240      	negs	r0, r0
87801980:	eb61 0141 	sbc.w	r1, r1, r1, lsl #1
87801984:	bd10      	pop	{r4, pc}
87801986:	bf00      	nop

87801988 <vsnprintf>:
87801988:	e92d 4ff0 	stmdb	sp!, {r4, r5, r6, r7, r8, r9, sl, fp, lr}
8780198c:	469a      	mov	sl, r3
8780198e:	1e0b      	subs	r3, r1, #0
87801990:	b089      	sub	sp, #36	; 0x24
87801992:	9305      	str	r3, [sp, #20]
87801994:	f2c0 826a 	blt.w	87801e6c <vsnprintf+0x4e4>
87801998:	f103 38ff 	add.w	r8, r3, #4294967295	; 0xffffffff
8780199c:	1e43      	subs	r3, r0, #1
8780199e:	4480      	add	r8, r0
878019a0:	4605      	mov	r5, r0
878019a2:	4598      	cmp	r8, r3
878019a4:	9006      	str	r0, [sp, #24]
878019a6:	4614      	mov	r4, r2
878019a8:	7810      	ldrb	r0, [r2, #0]
878019aa:	f0c0 80c9 	bcc.w	87801b40 <vsnprintf+0x1b8>
878019ae:	2800      	cmp	r0, #0
878019b0:	f000 80d1 	beq.w	87801b56 <vsnprintf+0x1ce>
878019b4:	f242 73c8 	movw	r3, #10184	; 0x27c8
878019b8:	f242 79e0 	movw	r9, #10208	; 0x27e0
878019bc:	f2c8 7380 	movt	r3, #34688	; 0x8780
878019c0:	f2c8 7980 	movt	r9, #34688	; 0x8780
878019c4:	9307      	str	r3, [sp, #28]
878019c6:	e008      	b.n	878019da <vsnprintf+0x52>
878019c8:	45a8      	cmp	r8, r5
878019ca:	bf28      	it	cs
878019cc:	7028      	strbcs	r0, [r5, #0]
878019ce:	7860      	ldrb	r0, [r4, #1]
878019d0:	3501      	adds	r5, #1
878019d2:	3401      	adds	r4, #1
878019d4:	2800      	cmp	r0, #0
878019d6:	f000 80bc 	beq.w	87801b52 <vsnprintf+0x1ca>
878019da:	2825      	cmp	r0, #37	; 0x25
878019dc:	d1f4      	bne.n	878019c8 <vsnprintf+0x40>
878019de:	2700      	movs	r7, #0
878019e0:	7863      	ldrb	r3, [r4, #1]
878019e2:	1c62      	adds	r2, r4, #1
878019e4:	f1a3 0120 	sub.w	r1, r3, #32
878019e8:	2910      	cmp	r1, #16
878019ea:	d81e      	bhi.n	87801a2a <vsnprintf+0xa2>
878019ec:	e8df f001 	tbb	[pc, r1]
878019f0:	151d1d19 	ldrne	r1, [sp, #-3353]	; 0xd19
878019f4:	1d1d1d1d 	ldcne	13, cr1, [sp, #-116]	; 0xffffff8c
878019f8:	111d1d1d 	tstne	sp, sp, lsl sp
878019fc:	1d1d0d1d 	ldcne	13, cr0, [sp, #-116]	; 0xffffff8c
87801a00:	f0470009 			; <UNDEFINED> instruction: 0xf0470009
87801a04:	0701      	lsls	r1, r0, #28
87801a06:	4614      	mov	r4, r2
87801a08:	e7ea      	b.n	878019e0 <vsnprintf+0x58>
87801a0a:	f047 0710 	orr.w	r7, r7, #16
87801a0e:	4614      	mov	r4, r2
87801a10:	e7e6      	b.n	878019e0 <vsnprintf+0x58>
87801a12:	f047 0704 	orr.w	r7, r7, #4
87801a16:	4614      	mov	r4, r2
87801a18:	e7e2      	b.n	878019e0 <vsnprintf+0x58>
87801a1a:	f047 0720 	orr.w	r7, r7, #32
87801a1e:	4614      	mov	r4, r2
87801a20:	e7de      	b.n	878019e0 <vsnprintf+0x58>
87801a22:	f047 0708 	orr.w	r7, r7, #8
87801a26:	4614      	mov	r4, r2
87801a28:	e7da      	b.n	878019e0 <vsnprintf+0x58>
87801a2a:	f819 0003 	ldrb.w	r0, [r9, r3]
87801a2e:	4619      	mov	r1, r3
87801a30:	0746      	lsls	r6, r0, #29
87801a32:	f100 809b 	bmi.w	87801b6c <vsnprintf+0x1e4>
87801a36:	2b2a      	cmp	r3, #42	; 0x2a
87801a38:	bf18      	it	ne
87801a3a:	f04f 36ff 	movne.w	r6, #4294967295	; 0xffffffff
87801a3e:	d10a      	bne.n	87801a56 <vsnprintf+0xce>
87801a40:	f8da 6000 	ldr.w	r6, [sl]
87801a44:	1ca2      	adds	r2, r4, #2
87801a46:	78a3      	ldrb	r3, [r4, #2]
87801a48:	f10a 0a04 	add.w	sl, sl, #4
87801a4c:	2e00      	cmp	r6, #0
87801a4e:	bfbc      	itt	lt
87801a50:	4276      	neglt	r6, r6
87801a52:	f047 0710 	orrlt.w	r7, r7, #16
87801a56:	2b2e      	cmp	r3, #46	; 0x2e
87801a58:	bf18      	it	ne
87801a5a:	f04f 31ff 	movne.w	r1, #4294967295	; 0xffffffff
87801a5e:	f000 8098 	beq.w	87801b92 <vsnprintf+0x20a>
87801a62:	f003 00df 	and.w	r0, r3, #223	; 0xdf
87801a66:	285a      	cmp	r0, #90	; 0x5a
87801a68:	bf18      	it	ne
87801a6a:	284c      	cmpne	r0, #76	; 0x4c
87801a6c:	bf0c      	ite	eq
87801a6e:	2001      	moveq	r0, #1
87801a70:	2000      	movne	r0, #0
87801a72:	2b68      	cmp	r3, #104	; 0x68
87801a74:	bf08      	it	eq
87801a76:	f040 0001 	orreq.w	r0, r0, #1
87801a7a:	2800      	cmp	r0, #0
87801a7c:	f000 8100 	beq.w	87801c80 <vsnprintf+0x2f8>
87801a80:	4618      	mov	r0, r3
87801a82:	1c54      	adds	r4, r2, #1
87801a84:	286c      	cmp	r0, #108	; 0x6c
87801a86:	7853      	ldrb	r3, [r2, #1]
87801a88:	f000 8098 	beq.w	87801bbc <vsnprintf+0x234>
87801a8c:	3b25      	subs	r3, #37	; 0x25
87801a8e:	2b53      	cmp	r3, #83	; 0x53
87801a90:	f200 81b8 	bhi.w	87801e04 <vsnprintf+0x47c>
87801a94:	e8df f013 	tbh	[pc, r3, lsl #1]
87801a98:	01b60175 			; <UNDEFINED> instruction: 0x01b60175
87801a9c:	01b601b6 			; <UNDEFINED> instruction: 0x01b601b6
87801aa0:	01b601b6 			; <UNDEFINED> instruction: 0x01b601b6
87801aa4:	01b601b6 			; <UNDEFINED> instruction: 0x01b601b6
87801aa8:	01b601b6 			; <UNDEFINED> instruction: 0x01b601b6
87801aac:	01b601b6 			; <UNDEFINED> instruction: 0x01b601b6
87801ab0:	01b601b6 			; <UNDEFINED> instruction: 0x01b601b6
87801ab4:	01b601b6 			; <UNDEFINED> instruction: 0x01b601b6
87801ab8:	01b601b6 			; <UNDEFINED> instruction: 0x01b601b6
87801abc:	01b601b6 			; <UNDEFINED> instruction: 0x01b601b6
87801ac0:	01b601b6 			; <UNDEFINED> instruction: 0x01b601b6
87801ac4:	01b601b6 			; <UNDEFINED> instruction: 0x01b601b6
87801ac8:	01b601b6 			; <UNDEFINED> instruction: 0x01b601b6
87801acc:	01b601b6 			; <UNDEFINED> instruction: 0x01b601b6
87801ad0:	01b601b6 			; <UNDEFINED> instruction: 0x01b601b6
87801ad4:	01b601b6 			; <UNDEFINED> instruction: 0x01b601b6
87801ad8:	01b601b6 			; <UNDEFINED> instruction: 0x01b601b6
87801adc:	01b601b6 			; <UNDEFINED> instruction: 0x01b601b6
87801ae0:	01b601b6 			; <UNDEFINED> instruction: 0x01b601b6
87801ae4:	01b601b6 			; <UNDEFINED> instruction: 0x01b601b6
87801ae8:	01b601b6 			; <UNDEFINED> instruction: 0x01b601b6
87801aec:	01b601b6 			; <UNDEFINED> instruction: 0x01b601b6
87801af0:	01b601b6 			; <UNDEFINED> instruction: 0x01b601b6
87801af4:	01b601b6 			; <UNDEFINED> instruction: 0x01b601b6
87801af8:	01b601b6 			; <UNDEFINED> instruction: 0x01b601b6
87801afc:	019601b6 			; <UNDEFINED> instruction: 0x019601b6
87801b00:	01b601b6 			; <UNDEFINED> instruction: 0x01b601b6
87801b04:	01b601b6 			; <UNDEFINED> instruction: 0x01b601b6
87801b08:	01b601b6 			; <UNDEFINED> instruction: 0x01b601b6
87801b0c:	01b601b6 			; <UNDEFINED> instruction: 0x01b601b6
87801b10:	01b601b6 			; <UNDEFINED> instruction: 0x01b601b6
87801b14:	01a10153 			; <UNDEFINED> instruction: 0x01a10153
87801b18:	01b601b6 			; <UNDEFINED> instruction: 0x01b601b6
87801b1c:	01b601b6 			; <UNDEFINED> instruction: 0x01b601b6
87801b20:	01b601a1 			; <UNDEFINED> instruction: 0x01b601a1
87801b24:	01b601b6 			; <UNDEFINED> instruction: 0x01b601b6
87801b28:	01ac01b6 			; <UNDEFINED> instruction: 0x01ac01b6
87801b2c:	013d01a6 	teqeq	sp, r6, lsr #3
87801b30:	01b601b6 			; <UNDEFINED> instruction: 0x01b601b6
87801b34:	01b60109 			; <UNDEFINED> instruction: 0x01b60109
87801b38:	01b6017a 			; <UNDEFINED> instruction: 0x01b6017a
87801b3c:	01a901b6 			; <UNDEFINED> instruction: 0x01a901b6
87801b40:	426b      	negs	r3, r5
87801b42:	9305      	str	r3, [sp, #20]
87801b44:	2800      	cmp	r0, #0
87801b46:	f000 8096 	beq.w	87801c76 <vsnprintf+0x2ee>
87801b4a:	f04f 38ff 	mov.w	r8, #4294967295	; 0xffffffff
87801b4e:	e731      	b.n	878019b4 <vsnprintf+0x2c>
87801b50:	4615      	mov	r5, r2
87801b52:	9b06      	ldr	r3, [sp, #24]
87801b54:	1ae8      	subs	r0, r5, r3
87801b56:	45a8      	cmp	r8, r5
87801b58:	f080 808d 	bcs.w	87801c76 <vsnprintf+0x2ee>
87801b5c:	9b05      	ldr	r3, [sp, #20]
87801b5e:	b113      	cbz	r3, 87801b66 <vsnprintf+0x1de>
87801b60:	2300      	movs	r3, #0
87801b62:	f888 3000 	strb.w	r3, [r8]
87801b66:	b009      	add	sp, #36	; 0x24
87801b68:	e8bd 8ff0 	ldmia.w	sp!, {r4, r5, r6, r7, r8, r9, sl, fp, pc}
87801b6c:	2600      	movs	r6, #0
87801b6e:	eb06 0686 	add.w	r6, r6, r6, lsl #2
87801b72:	eb01 0646 	add.w	r6, r1, r6, lsl #1
87801b76:	f812 1f01 	ldrb.w	r1, [r2, #1]!
87801b7a:	3e30      	subs	r6, #48	; 0x30
87801b7c:	f819 0001 	ldrb.w	r0, [r9, r1]
87801b80:	460b      	mov	r3, r1
87801b82:	0740      	lsls	r0, r0, #29
87801b84:	d4f3      	bmi.n	87801b6e <vsnprintf+0x1e6>
87801b86:	2b2e      	cmp	r3, #46	; 0x2e
87801b88:	bf18      	it	ne
87801b8a:	f04f 31ff 	movne.w	r1, #4294967295	; 0xffffffff
87801b8e:	f47f af68 	bne.w	87801a62 <vsnprintf+0xda>
87801b92:	7850      	ldrb	r0, [r2, #1]
87801b94:	1c54      	adds	r4, r2, #1
87801b96:	f819 1000 	ldrb.w	r1, [r9, r0]
87801b9a:	4603      	mov	r3, r0
87801b9c:	f011 0104 	ands.w	r1, r1, #4
87801ba0:	d172      	bne.n	87801c88 <vsnprintf+0x300>
87801ba2:	282a      	cmp	r0, #42	; 0x2a
87801ba4:	bf09      	itett	eq
87801ba6:	f8da 1000 	ldreq.w	r1, [sl]
87801baa:	4622      	movne	r2, r4
87801bac:	7893      	ldrbeq	r3, [r2, #2]
87801bae:	f10a 0a04 	addeq.w	sl, sl, #4
87801bb2:	bf04      	itt	eq
87801bb4:	3202      	addeq	r2, #2
87801bb6:	ea21 71e1 	biceq.w	r1, r1, r1, asr #31
87801bba:	e752      	b.n	87801a62 <vsnprintf+0xda>
87801bbc:	2b6c      	cmp	r3, #108	; 0x6c
87801bbe:	f000 8147 	beq.w	87801e50 <vsnprintf+0x4c8>
87801bc2:	3b25      	subs	r3, #37	; 0x25
87801bc4:	2b53      	cmp	r3, #83	; 0x53
87801bc6:	f200 811d 	bhi.w	87801e04 <vsnprintf+0x47c>
87801bca:	e8df f013 	tbh	[pc, r3, lsl #1]
87801bce:	011b00da 	ldrsbeq	r0, [fp, -sl]
87801bd2:	011b011b 	tsteq	fp, fp, lsl r1
87801bd6:	011b011b 	tsteq	fp, fp, lsl r1
87801bda:	011b011b 	tsteq	fp, fp, lsl r1
87801bde:	011b011b 	tsteq	fp, fp, lsl r1
87801be2:	011b011b 	tsteq	fp, fp, lsl r1
87801be6:	011b011b 	tsteq	fp, fp, lsl r1
87801bea:	011b011b 	tsteq	fp, fp, lsl r1
87801bee:	011b011b 	tsteq	fp, fp, lsl r1
87801bf2:	011b011b 	tsteq	fp, fp, lsl r1
87801bf6:	011b011b 	tsteq	fp, fp, lsl r1
87801bfa:	011b011b 	tsteq	fp, fp, lsl r1
87801bfe:	011b011b 	tsteq	fp, fp, lsl r1
87801c02:	011b011b 	tsteq	fp, fp, lsl r1
87801c06:	011b011b 	tsteq	fp, fp, lsl r1
87801c0a:	011b011b 	tsteq	fp, fp, lsl r1
87801c0e:	011b011b 	tsteq	fp, fp, lsl r1
87801c12:	011b011b 	tsteq	fp, fp, lsl r1
87801c16:	011b011b 	tsteq	fp, fp, lsl r1
87801c1a:	011b011b 	tsteq	fp, fp, lsl r1
87801c1e:	011b011b 	tsteq	fp, fp, lsl r1
87801c22:	011b011b 	tsteq	fp, fp, lsl r1
87801c26:	011b011b 	tsteq	fp, fp, lsl r1
87801c2a:	011b011b 	tsteq	fp, fp, lsl r1
87801c2e:	011b011b 	tsteq	fp, fp, lsl r1
87801c32:	0188011b 	orreq	r0, r8, fp, lsl r1
87801c36:	011b011b 	tsteq	fp, fp, lsl r1
87801c3a:	011b011b 	tsteq	fp, fp, lsl r1
87801c3e:	011b011b 	tsteq	fp, fp, lsl r1
87801c42:	011b011b 	tsteq	fp, fp, lsl r1
87801c46:	011b011b 	tsteq	fp, fp, lsl r1
87801c4a:	018100b8 	strheq	r0, [r1, r8]
87801c4e:	011b011b 	tsteq	fp, fp, lsl r1
87801c52:	011b011b 	tsteq	fp, fp, lsl r1
87801c56:	011b0181 	tsteq	fp, r1, lsl #3
87801c5a:	011b011b 	tsteq	fp, fp, lsl r1
87801c5e:	012d011b 	teqeq	sp, fp, lsl r1
87801c62:	00a2018f 	adceq	r0, r2, pc, lsl #3
87801c66:	011b011b 	tsteq	fp, fp, lsl r1
87801c6a:	011b006e 	tsteq	fp, lr, rrx
87801c6e:	011b0194 			; <UNDEFINED> instruction: 0x011b0194
87801c72:	0136011b 	teqeq	r6, fp, lsl r1
87801c76:	2300      	movs	r3, #0
87801c78:	702b      	strb	r3, [r5, #0]
87801c7a:	b009      	add	sp, #36	; 0x24
87801c7c:	e8bd 8ff0 	ldmia.w	sp!, {r4, r5, r6, r7, r8, r9, sl, fp, pc}
87801c80:	4614      	mov	r4, r2
87801c82:	f04f 30ff 	mov.w	r0, #4294967295	; 0xffffffff
87801c86:	e701      	b.n	87801a8c <vsnprintf+0x104>
87801c88:	2100      	movs	r1, #0
87801c8a:	f814 3f01 	ldrb.w	r3, [r4, #1]!
87801c8e:	eb01 0181 	add.w	r1, r1, r1, lsl #2
87801c92:	eb00 0141 	add.w	r1, r0, r1, lsl #1
87801c96:	f819 2003 	ldrb.w	r2, [r9, r3]
87801c9a:	4618      	mov	r0, r3
87801c9c:	3930      	subs	r1, #48	; 0x30
87801c9e:	0752      	lsls	r2, r2, #29
87801ca0:	d4f3      	bmi.n	87801c8a <vsnprintf+0x302>
87801ca2:	ea21 71e1 	bic.w	r1, r1, r1, asr #31
87801ca6:	4622      	mov	r2, r4
87801ca8:	e6db      	b.n	87801a62 <vsnprintf+0xda>
87801caa:	f8da b000 	ldr.w	fp, [sl]
87801cae:	f10a 0a04 	add.w	sl, sl, #4
87801cb2:	9b07      	ldr	r3, [sp, #28]
87801cb4:	f5bb 6f80 	cmp.w	fp, #1024	; 0x400
87801cb8:	bf38      	it	cc
87801cba:	469b      	movcc	fp, r3
87801cbc:	4658      	mov	r0, fp
87801cbe:	f7ff f991 	bl	87800fe4 <strnlen>
87801cc2:	06f9      	lsls	r1, r7, #27
87801cc4:	f106 33ff 	add.w	r3, r6, #4294967295	; 0xffffffff
87801cc8:	f140 80d8 	bpl.w	87801e7c <vsnprintf+0x4f4>
87801ccc:	2800      	cmp	r0, #0
87801cce:	bfd8      	it	le
87801cd0:	462a      	movle	r2, r5
87801cd2:	dd0d      	ble.n	87801cf0 <vsnprintf+0x368>
87801cd4:	182a      	adds	r2, r5, r0
87801cd6:	4545      	cmp	r5, r8
87801cd8:	f105 0501 	add.w	r5, r5, #1
87801cdc:	bf98      	it	ls
87801cde:	f89b 1000 	ldrbls.w	r1, [fp]
87801ce2:	f10b 0b01 	add.w	fp, fp, #1
87801ce6:	bf98      	it	ls
87801ce8:	f805 1c01 	strbls.w	r1, [r5, #-1]
87801cec:	4295      	cmp	r5, r2
87801cee:	d1f2      	bne.n	87801cd6 <vsnprintf+0x34e>
87801cf0:	4286      	cmp	r6, r0
87801cf2:	4615      	mov	r5, r2
87801cf4:	bfc2      	ittt	gt
87801cf6:	3301      	addgt	r3, #1
87801cf8:	2120      	movgt	r1, #32
87801cfa:	18d2      	addgt	r2, r2, r3
87801cfc:	dd60      	ble.n	87801dc0 <vsnprintf+0x438>
87801cfe:	4545      	cmp	r5, r8
87801d00:	f105 0501 	add.w	r5, r5, #1
87801d04:	bf98      	it	ls
87801d06:	f805 1c01 	strbls.w	r1, [r5, #-1]
87801d0a:	1b53      	subs	r3, r2, r5
87801d0c:	4298      	cmp	r0, r3
87801d0e:	dbf6      	blt.n	87801cfe <vsnprintf+0x376>
87801d10:	e056      	b.n	87801dc0 <vsnprintf+0x438>
87801d12:	1c72      	adds	r2, r6, #1
87801d14:	f8da 2000 	ldr.w	r2, [sl]
87801d18:	bf04      	itt	eq
87801d1a:	f047 0701 	orreq.w	r7, r7, #1
87801d1e:	2608      	moveq	r6, #8
87801d20:	9102      	str	r1, [sp, #8]
87801d22:	2110      	movs	r1, #16
87801d24:	4628      	mov	r0, r5
87801d26:	9100      	str	r1, [sp, #0]
87801d28:	9703      	str	r7, [sp, #12]
87801d2a:	2300      	movs	r3, #0
87801d2c:	9601      	str	r6, [sp, #4]
87801d2e:	4641      	mov	r1, r8
87801d30:	f7ff fae0 	bl	878012f4 <number>
87801d34:	f10a 0a04 	add.w	sl, sl, #4
87801d38:	4605      	mov	r5, r0
87801d3a:	7860      	ldrb	r0, [r4, #1]
87801d3c:	e649      	b.n	878019d2 <vsnprintf+0x4a>
87801d3e:	06f8      	lsls	r0, r7, #27
87801d40:	f106 31ff 	add.w	r1, r6, #4294967295	; 0xffffffff
87801d44:	f140 80af 	bpl.w	87801ea6 <vsnprintf+0x51e>
87801d48:	4545      	cmp	r5, r8
87801d4a:	f10a 0604 	add.w	r6, sl, #4
87801d4e:	bf98      	it	ls
87801d50:	f8da 3000 	ldrls.w	r3, [sl]
87801d54:	f105 0001 	add.w	r0, r5, #1
87801d58:	bf98      	it	ls
87801d5a:	702b      	strbls	r3, [r5, #0]
87801d5c:	2900      	cmp	r1, #0
87801d5e:	f340 80cf 	ble.w	87801f00 <vsnprintf+0x578>
87801d62:	1c4a      	adds	r2, r1, #1
87801d64:	4603      	mov	r3, r0
87801d66:	4415      	add	r5, r2
87801d68:	2220      	movs	r2, #32
87801d6a:	4543      	cmp	r3, r8
87801d6c:	f103 0301 	add.w	r3, r3, #1
87801d70:	bf98      	it	ls
87801d72:	f803 2c01 	strbls.w	r2, [r3, #-1]
87801d76:	42ab      	cmp	r3, r5
87801d78:	d1f7      	bne.n	87801d6a <vsnprintf+0x3e2>
87801d7a:	1845      	adds	r5, r0, r1
87801d7c:	46b2      	mov	sl, r6
87801d7e:	7860      	ldrb	r0, [r4, #1]
87801d80:	e627      	b.n	878019d2 <vsnprintf+0x4a>
87801d82:	45a8      	cmp	r8, r5
87801d84:	bf24      	itt	cs
87801d86:	2325      	movcs	r3, #37	; 0x25
87801d88:	702b      	strbcs	r3, [r5, #0]
87801d8a:	e620      	b.n	878019ce <vsnprintf+0x46>
87801d8c:	f04f 0c0a 	mov.w	ip, #10
87801d90:	284c      	cmp	r0, #76	; 0x4c
87801d92:	d01d      	beq.n	87801dd0 <vsnprintf+0x448>
87801d94:	286c      	cmp	r0, #108	; 0x6c
87801d96:	f10a 0e04 	add.w	lr, sl, #4
87801d9a:	d052      	beq.n	87801e42 <vsnprintf+0x4ba>
87801d9c:	f020 0320 	bic.w	r3, r0, #32
87801da0:	2b5a      	cmp	r3, #90	; 0x5a
87801da2:	d159      	bne.n	87801e58 <vsnprintf+0x4d0>
87801da4:	f8da 2000 	ldr.w	r2, [sl]
87801da8:	46f2      	mov	sl, lr
87801daa:	2300      	movs	r3, #0
87801dac:	e9cd 1702 	strd	r1, r7, [sp, #8]
87801db0:	4628      	mov	r0, r5
87801db2:	9601      	str	r6, [sp, #4]
87801db4:	4641      	mov	r1, r8
87801db6:	f8cd c000 	str.w	ip, [sp]
87801dba:	f7ff fa9b 	bl	878012f4 <number>
87801dbe:	4605      	mov	r5, r0
87801dc0:	7860      	ldrb	r0, [r4, #1]
87801dc2:	e606      	b.n	878019d2 <vsnprintf+0x4a>
87801dc4:	284c      	cmp	r0, #76	; 0x4c
87801dc6:	f047 0740 	orr.w	r7, r7, #64	; 0x40
87801dca:	f04f 0c10 	mov.w	ip, #16
87801dce:	d1e1      	bne.n	87801d94 <vsnprintf+0x40c>
87801dd0:	e9da 2300 	ldrd	r2, r3, [sl]
87801dd4:	f10a 0a08 	add.w	sl, sl, #8
87801dd8:	e7e8      	b.n	87801dac <vsnprintf+0x424>
87801dda:	f047 0702 	orr.w	r7, r7, #2
87801dde:	f04f 0c0a 	mov.w	ip, #10
87801de2:	e7d5      	b.n	87801d90 <vsnprintf+0x408>
87801de4:	f04f 0c08 	mov.w	ip, #8
87801de8:	e7d2      	b.n	87801d90 <vsnprintf+0x408>
87801dea:	f04f 0c10 	mov.w	ip, #16
87801dee:	e7cf      	b.n	87801d90 <vsnprintf+0x408>
87801df0:	9b06      	ldr	r3, [sp, #24]
87801df2:	f8da 2000 	ldr.w	r2, [sl]
87801df6:	1ae9      	subs	r1, r5, r3
87801df8:	f10a 0304 	add.w	r3, sl, #4
87801dfc:	6011      	str	r1, [r2, #0]
87801dfe:	469a      	mov	sl, r3
87801e00:	7860      	ldrb	r0, [r4, #1]
87801e02:	e5e6      	b.n	878019d2 <vsnprintf+0x4a>
87801e04:	45a8      	cmp	r8, r5
87801e06:	f105 0201 	add.w	r2, r5, #1
87801e0a:	bf24      	itt	cs
87801e0c:	2325      	movcs	r3, #37	; 0x25
87801e0e:	702b      	strbcs	r3, [r5, #0]
87801e10:	7823      	ldrb	r3, [r4, #0]
87801e12:	2b00      	cmp	r3, #0
87801e14:	f43f ae9c 	beq.w	87801b50 <vsnprintf+0x1c8>
87801e18:	4542      	cmp	r2, r8
87801e1a:	f105 0502 	add.w	r5, r5, #2
87801e1e:	bf98      	it	ls
87801e20:	f805 3c01 	strbls.w	r3, [r5, #-1]
87801e24:	7860      	ldrb	r0, [r4, #1]
87801e26:	e5d4      	b.n	878019d2 <vsnprintf+0x4a>
87801e28:	9906      	ldr	r1, [sp, #24]
87801e2a:	f10a 0a04 	add.w	sl, sl, #4
87801e2e:	f85a 3c04 	ldr.w	r3, [sl, #-4]
87801e32:	1a69      	subs	r1, r5, r1
87801e34:	6019      	str	r1, [r3, #0]
87801e36:	7890      	ldrb	r0, [r2, #2]
87801e38:	e5cb      	b.n	878019d2 <vsnprintf+0x4a>
87801e3a:	f10a 0e04 	add.w	lr, sl, #4
87801e3e:	f04f 0c10 	mov.w	ip, #16
87801e42:	07bb      	lsls	r3, r7, #30
87801e44:	f8da 2000 	ldr.w	r2, [sl]
87801e48:	46f2      	mov	sl, lr
87801e4a:	d5ae      	bpl.n	87801daa <vsnprintf+0x422>
87801e4c:	17d3      	asrs	r3, r2, #31
87801e4e:	e7ad      	b.n	87801dac <vsnprintf+0x424>
87801e50:	1c94      	adds	r4, r2, #2
87801e52:	7893      	ldrb	r3, [r2, #2]
87801e54:	204c      	movs	r0, #76	; 0x4c
87801e56:	e619      	b.n	87801a8c <vsnprintf+0x104>
87801e58:	2868      	cmp	r0, #104	; 0x68
87801e5a:	f8da 2000 	ldr.w	r2, [sl]
87801e5e:	f007 0302 	and.w	r3, r7, #2
87801e62:	46f2      	mov	sl, lr
87801e64:	d006      	beq.n	87801e74 <vsnprintf+0x4ec>
87801e66:	2b00      	cmp	r3, #0
87801e68:	d1f0      	bne.n	87801e4c <vsnprintf+0x4c4>
87801e6a:	e79e      	b.n	87801daa <vsnprintf+0x422>
87801e6c:	2000      	movs	r0, #0
87801e6e:	b009      	add	sp, #36	; 0x24
87801e70:	e8bd 8ff0 	ldmia.w	sp!, {r4, r5, r6, r7, r8, r9, sl, fp, pc}
87801e74:	b34b      	cbz	r3, 87801eca <vsnprintf+0x542>
87801e76:	b212      	sxth	r2, r2
87801e78:	17d3      	asrs	r3, r2, #31
87801e7a:	e797      	b.n	87801dac <vsnprintf+0x424>
87801e7c:	4286      	cmp	r6, r0
87801e7e:	bfde      	ittt	le
87801e80:	1eb2      	suble	r2, r6, #2
87801e82:	461e      	movle	r6, r3
87801e84:	4613      	movle	r3, r2
87801e86:	f77f af21 	ble.w	87801ccc <vsnprintf+0x344>
87801e8a:	1a33      	subs	r3, r6, r0
87801e8c:	2220      	movs	r2, #32
87801e8e:	442b      	add	r3, r5
87801e90:	4545      	cmp	r5, r8
87801e92:	f105 0501 	add.w	r5, r5, #1
87801e96:	bf98      	it	ls
87801e98:	f805 2c01 	strbls.w	r2, [r5, #-1]
87801e9c:	429d      	cmp	r5, r3
87801e9e:	d1f7      	bne.n	87801e90 <vsnprintf+0x508>
87801ea0:	1e46      	subs	r6, r0, #1
87801ea2:	1e73      	subs	r3, r6, #1
87801ea4:	e712      	b.n	87801ccc <vsnprintf+0x344>
87801ea6:	2900      	cmp	r1, #0
87801ea8:	bfd8      	it	le
87801eaa:	1eb1      	suble	r1, r6, #2
87801eac:	f77f af4c 	ble.w	87801d48 <vsnprintf+0x3c0>
87801eb0:	4429      	add	r1, r5
87801eb2:	2320      	movs	r3, #32
87801eb4:	4545      	cmp	r5, r8
87801eb6:	f105 0501 	add.w	r5, r5, #1
87801eba:	bf98      	it	ls
87801ebc:	f805 3c01 	strbls.w	r3, [r5, #-1]
87801ec0:	428d      	cmp	r5, r1
87801ec2:	d1f7      	bne.n	87801eb4 <vsnprintf+0x52c>
87801ec4:	f04f 31ff 	mov.w	r1, #4294967295	; 0xffffffff
87801ec8:	e73e      	b.n	87801d48 <vsnprintf+0x3c0>
87801eca:	b292      	uxth	r2, r2
87801ecc:	2300      	movs	r3, #0
87801ece:	e76d      	b.n	87801dac <vsnprintf+0x424>
87801ed0:	f047 0702 	orr.w	r7, r7, #2
87801ed4:	f10a 0e04 	add.w	lr, sl, #4
87801ed8:	f04f 0c0a 	mov.w	ip, #10
87801edc:	e7b1      	b.n	87801e42 <vsnprintf+0x4ba>
87801ede:	f047 0740 	orr.w	r7, r7, #64	; 0x40
87801ee2:	f10a 0e04 	add.w	lr, sl, #4
87801ee6:	f04f 0c10 	mov.w	ip, #16
87801eea:	e7aa      	b.n	87801e42 <vsnprintf+0x4ba>
87801eec:	f10a 0e04 	add.w	lr, sl, #4
87801ef0:	f04f 0c08 	mov.w	ip, #8
87801ef4:	e7a5      	b.n	87801e42 <vsnprintf+0x4ba>
87801ef6:	f10a 0e04 	add.w	lr, sl, #4
87801efa:	f04f 0c0a 	mov.w	ip, #10
87801efe:	e7a0      	b.n	87801e42 <vsnprintf+0x4ba>
87801f00:	4605      	mov	r5, r0
87801f02:	46b2      	mov	sl, r6
87801f04:	7860      	ldrb	r0, [r4, #1]
87801f06:	e564      	b.n	878019d2 <vsnprintf+0x4a>

87801f08 <vscnprintf>:
87801f08:	b510      	push	{r4, lr}
87801f0a:	460c      	mov	r4, r1
87801f0c:	f7ff fd3c 	bl	87801988 <vsnprintf>
87801f10:	42a0      	cmp	r0, r4
87801f12:	bf28      	it	cs
87801f14:	f104 30ff 	addcs.w	r0, r4, #4294967295	; 0xffffffff
87801f18:	bd10      	pop	{r4, pc}
87801f1a:	bf00      	nop

87801f1c <snprintf>:
87801f1c:	b40c      	push	{r2, r3}
87801f1e:	b508      	push	{r3, lr}
87801f20:	ab03      	add	r3, sp, #12
87801f22:	9a02      	ldr	r2, [sp, #8]
87801f24:	f7ff fd30 	bl	87801988 <vsnprintf>
87801f28:	e8bd 4008 	ldmia.w	sp!, {r3, lr}
87801f2c:	b002      	add	sp, #8
87801f2e:	4770      	bx	lr

87801f30 <scnprintf>:
87801f30:	b40c      	push	{r2, r3}
87801f32:	b510      	push	{r4, lr}
87801f34:	460c      	mov	r4, r1
87801f36:	ab03      	add	r3, sp, #12
87801f38:	9a02      	ldr	r2, [sp, #8]
87801f3a:	f7ff fd25 	bl	87801988 <vsnprintf>
87801f3e:	42a0      	cmp	r0, r4
87801f40:	bf28      	it	cs
87801f42:	f104 30ff 	addcs.w	r0, r4, #4294967295	; 0xffffffff
87801f46:	e8bd 4010 	ldmia.w	sp!, {r4, lr}
87801f4a:	b002      	add	sp, #8
87801f4c:	4770      	bx	lr
87801f4e:	bf00      	nop

87801f50 <vsprintf>:
87801f50:	4613      	mov	r3, r2
87801f52:	460a      	mov	r2, r1
87801f54:	f06f 4100 	mvn.w	r1, #2147483648	; 0x80000000
87801f58:	f7ff bd16 	b.w	87801988 <vsnprintf>

87801f5c <sprintf>:
87801f5c:	b40e      	push	{r1, r2, r3}
87801f5e:	f06f 4100 	mvn.w	r1, #2147483648	; 0x80000000
87801f62:	b500      	push	{lr}
87801f64:	ab02      	add	r3, sp, #8
87801f66:	9a01      	ldr	r2, [sp, #4]
87801f68:	f7ff fd0e 	bl	87801988 <vsnprintf>
87801f6c:	f85d eb04 	ldr.w	lr, [sp], #4
87801f70:	b003      	add	sp, #12
87801f72:	4770      	bx	lr

87801f74 <vsscanf>:
87801f74:	e92d 47f0 	stmdb	sp!, {r4, r5, r6, r7, r8, r9, sl, lr}
87801f78:	f242 74e0 	movw	r4, #10208	; 0x27e0
87801f7c:	780b      	ldrb	r3, [r1, #0]
87801f7e:	b082      	sub	sp, #8
87801f80:	4680      	mov	r8, r0
87801f82:	460d      	mov	r5, r1
87801f84:	f2c8 7480 	movt	r4, #34688	; 0x8780
87801f88:	2700      	movs	r7, #0
87801f8a:	b143      	cbz	r3, 87801f9e <vsscanf+0x2a>
87801f8c:	7806      	ldrb	r6, [r0, #0]
87801f8e:	b136      	cbz	r6, 87801f9e <vsscanf+0x2a>
87801f90:	5ce1      	ldrb	r1, [r4, r3]
87801f92:	0689      	lsls	r1, r1, #26
87801f94:	d407      	bmi.n	87801fa6 <vsscanf+0x32>
87801f96:	2b25      	cmp	r3, #37	; 0x25
87801f98:	d01f      	beq.n	87801fda <vsscanf+0x66>
87801f9a:	42b3      	cmp	r3, r6
87801f9c:	d017      	beq.n	87801fce <vsscanf+0x5a>
87801f9e:	4638      	mov	r0, r7
87801fa0:	b002      	add	sp, #8
87801fa2:	e8bd 87f0 	ldmia.w	sp!, {r4, r5, r6, r7, r8, r9, sl, pc}
87801fa6:	f815 3f01 	ldrb.w	r3, [r5, #1]!
87801faa:	5ce1      	ldrb	r1, [r4, r3]
87801fac:	0689      	lsls	r1, r1, #26
87801fae:	d4fa      	bmi.n	87801fa6 <vsscanf+0x32>
87801fb0:	5da1      	ldrb	r1, [r4, r6]
87801fb2:	068e      	lsls	r6, r1, #26
87801fb4:	d504      	bpl.n	87801fc0 <vsscanf+0x4c>
87801fb6:	f810 1f01 	ldrb.w	r1, [r0, #1]!
87801fba:	5c61      	ldrb	r1, [r4, r1]
87801fbc:	0689      	lsls	r1, r1, #26
87801fbe:	d4fa      	bmi.n	87801fb6 <vsscanf+0x42>
87801fc0:	2b25      	cmp	r3, #37	; 0x25
87801fc2:	bf18      	it	ne
87801fc4:	2b00      	cmpne	r3, #0
87801fc6:	d006      	beq.n	87801fd6 <vsscanf+0x62>
87801fc8:	7806      	ldrb	r6, [r0, #0]
87801fca:	42b3      	cmp	r3, r6
87801fcc:	d1e7      	bne.n	87801f9e <vsscanf+0x2a>
87801fce:	786b      	ldrb	r3, [r5, #1]
87801fd0:	3001      	adds	r0, #1
87801fd2:	3501      	adds	r5, #1
87801fd4:	e7d9      	b.n	87801f8a <vsscanf+0x16>
87801fd6:	2b00      	cmp	r3, #0
87801fd8:	d0e1      	beq.n	87801f9e <vsscanf+0x2a>
87801fda:	786b      	ldrb	r3, [r5, #1]
87801fdc:	3501      	adds	r5, #1
87801fde:	2b2a      	cmp	r3, #42	; 0x2a
87801fe0:	461e      	mov	r6, r3
87801fe2:	5ce1      	ldrb	r1, [r4, r3]
87801fe4:	f000 81f5 	beq.w	878023d2 <vsscanf+0x45e>
87801fe8:	0749      	lsls	r1, r1, #29
87801fea:	bf58      	it	pl
87801fec:	f04f 31ff 	movpl.w	r1, #4294967295	; 0xffffffff
87801ff0:	f100 80d0 	bmi.w	87802194 <vsscanf+0x220>
87801ff4:	f003 06df 	and.w	r6, r3, #223	; 0xdf
87801ff8:	2e5a      	cmp	r6, #90	; 0x5a
87801ffa:	bf18      	it	ne
87801ffc:	2e4c      	cmpne	r6, #76	; 0x4c
87801ffe:	bf0c      	ite	eq
87802000:	2601      	moveq	r6, #1
87802002:	2600      	movne	r6, #0
87802004:	2b68      	cmp	r3, #104	; 0x68
87802006:	bf08      	it	eq
87802008:	f046 0601 	orreq.w	r6, r6, #1
8780200c:	2e00      	cmp	r6, #0
8780200e:	f000 81db 	beq.w	878023c8 <vsscanf+0x454>
87802012:	f895 c001 	ldrb.w	ip, [r5, #1]
87802016:	f105 0901 	add.w	r9, r5, #1
8780201a:	459c      	cmp	ip, r3
8780201c:	f000 8193 	beq.w	87802346 <vsscanf+0x3d2>
87802020:	f1bc 0f00 	cmp.w	ip, #0
87802024:	d0bb      	beq.n	87801f9e <vsscanf+0x2a>
87802026:	7806      	ldrb	r6, [r0, #0]
87802028:	2e00      	cmp	r6, #0
8780202a:	d0b8      	beq.n	87801f9e <vsscanf+0x2a>
8780202c:	f1ac 0c25 	sub.w	ip, ip, #37	; 0x25
87802030:	f109 0501 	add.w	r5, r9, #1
87802034:	f1bc 0f53 	cmp.w	ip, #83	; 0x53
87802038:	d8b1      	bhi.n	87801f9e <vsscanf+0x2a>
8780203a:	f20f 0e08 	addw	lr, pc, #8
8780203e:	f85e f02c 	ldr.w	pc, [lr, ip, lsl #2]
87802042:	bf00      	nop
87802044:	8780227f 			; <UNDEFINED> instruction: 0x8780227f
87802048:	87801f9f 			; <UNDEFINED> instruction: 0x87801f9f
8780204c:	87801f9f 			; <UNDEFINED> instruction: 0x87801f9f
87802050:	87801f9f 			; <UNDEFINED> instruction: 0x87801f9f
87802054:	87801f9f 			; <UNDEFINED> instruction: 0x87801f9f
87802058:	87801f9f 			; <UNDEFINED> instruction: 0x87801f9f
8780205c:	87801f9f 			; <UNDEFINED> instruction: 0x87801f9f
87802060:	87801f9f 			; <UNDEFINED> instruction: 0x87801f9f
87802064:	87801f9f 			; <UNDEFINED> instruction: 0x87801f9f
87802068:	87801f9f 			; <UNDEFINED> instruction: 0x87801f9f
8780206c:	87801f9f 			; <UNDEFINED> instruction: 0x87801f9f
87802070:	87801f9f 			; <UNDEFINED> instruction: 0x87801f9f
87802074:	87801f9f 			; <UNDEFINED> instruction: 0x87801f9f
87802078:	87801f9f 			; <UNDEFINED> instruction: 0x87801f9f
8780207c:	87801f9f 			; <UNDEFINED> instruction: 0x87801f9f
87802080:	87801f9f 			; <UNDEFINED> instruction: 0x87801f9f
87802084:	87801f9f 			; <UNDEFINED> instruction: 0x87801f9f
87802088:	87801f9f 			; <UNDEFINED> instruction: 0x87801f9f
8780208c:	87801f9f 			; <UNDEFINED> instruction: 0x87801f9f
87802090:	87801f9f 			; <UNDEFINED> instruction: 0x87801f9f
87802094:	87801f9f 			; <UNDEFINED> instruction: 0x87801f9f
87802098:	87801f9f 			; <UNDEFINED> instruction: 0x87801f9f
8780209c:	87801f9f 			; <UNDEFINED> instruction: 0x87801f9f
878020a0:	87801f9f 			; <UNDEFINED> instruction: 0x87801f9f
878020a4:	87801f9f 			; <UNDEFINED> instruction: 0x87801f9f
878020a8:	87801f9f 			; <UNDEFINED> instruction: 0x87801f9f
878020ac:	87801f9f 			; <UNDEFINED> instruction: 0x87801f9f
878020b0:	87801f9f 			; <UNDEFINED> instruction: 0x87801f9f
878020b4:	87801f9f 			; <UNDEFINED> instruction: 0x87801f9f
878020b8:	87801f9f 			; <UNDEFINED> instruction: 0x87801f9f
878020bc:	87801f9f 			; <UNDEFINED> instruction: 0x87801f9f
878020c0:	87801f9f 			; <UNDEFINED> instruction: 0x87801f9f
878020c4:	87801f9f 			; <UNDEFINED> instruction: 0x87801f9f
878020c8:	87801f9f 			; <UNDEFINED> instruction: 0x87801f9f
878020cc:	87801f9f 			; <UNDEFINED> instruction: 0x87801f9f
878020d0:	87801f9f 			; <UNDEFINED> instruction: 0x87801f9f
878020d4:	87801f9f 			; <UNDEFINED> instruction: 0x87801f9f
878020d8:	87801f9f 			; <UNDEFINED> instruction: 0x87801f9f
878020dc:	87801f9f 			; <UNDEFINED> instruction: 0x87801f9f
878020e0:	87801f9f 			; <UNDEFINED> instruction: 0x87801f9f
878020e4:	87801f9f 			; <UNDEFINED> instruction: 0x87801f9f
878020e8:	87801f9f 			; <UNDEFINED> instruction: 0x87801f9f
878020ec:	87801f9f 			; <UNDEFINED> instruction: 0x87801f9f
878020f0:	87801f9f 			; <UNDEFINED> instruction: 0x87801f9f
878020f4:	87801f9f 			; <UNDEFINED> instruction: 0x87801f9f
878020f8:	87801f9f 			; <UNDEFINED> instruction: 0x87801f9f
878020fc:	87801f9f 			; <UNDEFINED> instruction: 0x87801f9f
87802100:	87801f9f 			; <UNDEFINED> instruction: 0x87801f9f
87802104:	87801f9f 			; <UNDEFINED> instruction: 0x87801f9f
87802108:	87801f9f 			; <UNDEFINED> instruction: 0x87801f9f
8780210c:	87801f9f 			; <UNDEFINED> instruction: 0x87801f9f
87802110:	8780232f 	strhi	r2, [r0, pc, lsr #6]
87802114:	87801f9f 			; <UNDEFINED> instruction: 0x87801f9f
87802118:	87801f9f 			; <UNDEFINED> instruction: 0x87801f9f
8780211c:	87801f9f 			; <UNDEFINED> instruction: 0x87801f9f
87802120:	87801f9f 			; <UNDEFINED> instruction: 0x87801f9f
87802124:	87801f9f 			; <UNDEFINED> instruction: 0x87801f9f
87802128:	87801f9f 			; <UNDEFINED> instruction: 0x87801f9f
8780212c:	87801f9f 			; <UNDEFINED> instruction: 0x87801f9f
87802130:	87801f9f 			; <UNDEFINED> instruction: 0x87801f9f
87802134:	87801f9f 			; <UNDEFINED> instruction: 0x87801f9f
87802138:	87801f9f 			; <UNDEFINED> instruction: 0x87801f9f
8780213c:	87802303 	strhi	r2, [r0, r3, lsl #6]
87802140:	878021b3 			; <UNDEFINED> instruction: 0x878021b3
87802144:	87801f9f 			; <UNDEFINED> instruction: 0x87801f9f
87802148:	87801f9f 			; <UNDEFINED> instruction: 0x87801f9f
8780214c:	87801f9f 			; <UNDEFINED> instruction: 0x87801f9f
87802150:	87801f9f 			; <UNDEFINED> instruction: 0x87801f9f
87802154:	8780233b 			; <UNDEFINED> instruction: 0x8780233b
87802158:	87801f9f 			; <UNDEFINED> instruction: 0x87801f9f
8780215c:	87801f9f 			; <UNDEFINED> instruction: 0x87801f9f
87802160:	87801f9f 			; <UNDEFINED> instruction: 0x87801f9f
87802164:	87801f9f 			; <UNDEFINED> instruction: 0x87801f9f
87802168:	8780228d 	strhi	r2, [r0, sp, lsl #5]
8780216c:	8780229d 			; <UNDEFINED> instruction: 0x8780229d
87802170:	87801f9f 			; <UNDEFINED> instruction: 0x87801f9f
87802174:	87801f9f 			; <UNDEFINED> instruction: 0x87801f9f
87802178:	87801f9f 			; <UNDEFINED> instruction: 0x87801f9f
8780217c:	878022a9 	strhi	r2, [r0, r9, lsr #5]
87802180:	87801f9f 			; <UNDEFINED> instruction: 0x87801f9f
87802184:	878022f7 			; <UNDEFINED> instruction: 0x878022f7
87802188:	87801f9f 			; <UNDEFINED> instruction: 0x87801f9f
8780218c:	87801f9f 			; <UNDEFINED> instruction: 0x87801f9f
87802190:	8780232f 	strhi	r2, [r0, pc, lsr #6]
87802194:	2100      	movs	r1, #0
87802196:	eb01 0181 	add.w	r1, r1, r1, lsl #2
8780219a:	eb06 0141 	add.w	r1, r6, r1, lsl #1
8780219e:	f815 6f01 	ldrb.w	r6, [r5, #1]!
878021a2:	3930      	subs	r1, #48	; 0x30
878021a4:	f814 c006 	ldrb.w	ip, [r4, r6]
878021a8:	4633      	mov	r3, r6
878021aa:	f01c 0f04 	tst.w	ip, #4
878021ae:	d1f2      	bne.n	87802196 <vsscanf+0x222>
878021b0:	e720      	b.n	87801ff4 <vsscanf+0x80>
878021b2:	f04f 0a01 	mov.w	sl, #1
878021b6:	f04f 0c0a 	mov.w	ip, #10
878021ba:	46d6      	mov	lr, sl
878021bc:	5da1      	ldrb	r1, [r4, r6]
878021be:	0689      	lsls	r1, r1, #26
878021c0:	f140 8127 	bpl.w	87802412 <vsscanf+0x49e>
878021c4:	f810 6f01 	ldrb.w	r6, [r0, #1]!
878021c8:	5da1      	ldrb	r1, [r4, r6]
878021ca:	0689      	lsls	r1, r1, #26
878021cc:	d4fa      	bmi.n	878021c4 <vsscanf+0x250>
878021ce:	2e2d      	cmp	r6, #45	; 0x2d
878021d0:	bf14      	ite	ne
878021d2:	2100      	movne	r1, #0
878021d4:	f00a 0101 	andeq.w	r1, sl, #1
878021d8:	b101      	cbz	r1, 878021dc <vsscanf+0x268>
878021da:	7846      	ldrb	r6, [r0, #1]
878021dc:	2e00      	cmp	r6, #0
878021de:	f43f aede 	beq.w	87801f9e <vsscanf+0x2a>
878021e2:	f1bc 0f10 	cmp.w	ip, #16
878021e6:	f000 80e9 	beq.w	878023bc <vsscanf+0x448>
878021ea:	f1bc 0f0a 	cmp.w	ip, #10
878021ee:	f000 80e0 	beq.w	878023b2 <vsscanf+0x43e>
878021f2:	f1bc 0f08 	cmp.w	ip, #8
878021f6:	f040 80d8 	bne.w	878023aa <vsscanf+0x436>
878021fa:	5da1      	ldrb	r1, [r4, r6]
878021fc:	f081 0104 	eor.w	r1, r1, #4
87802200:	f3c1 0180 	ubfx	r1, r1, #2, #1
87802204:	2e37      	cmp	r6, #55	; 0x37
87802206:	bf94      	ite	ls
87802208:	460e      	movls	r6, r1
8780220a:	f041 0601 	orrhi.w	r6, r1, #1
8780220e:	2e00      	cmp	r6, #0
87802210:	f47f aec5 	bne.w	87801f9e <vsscanf+0x2a>
87802214:	3b48      	subs	r3, #72	; 0x48
87802216:	1d16      	adds	r6, r2, #4
87802218:	f8d2 a000 	ldr.w	sl, [r2]
8780221c:	2b32      	cmp	r3, #50	; 0x32
8780221e:	d81b      	bhi.n	87802258 <vsscanf+0x2e4>
87802220:	e8df f003 	tbb	[pc, r3]
87802224:	1a1a1ab9 	bne	87e88d10 <__bss_end+0x685f28>
87802228:	1a1a1aaf 	bne	87e88cec <__bss_end+0x685f04>
8780222c:	1a1a1a1a 	bne	87e88a9c <__bss_end+0x685cb4>
87802230:	1a1a1a1a 	bne	87e88aa0 <__bss_end+0x685cb8>
87802234:	1aa81a1a 	bne	86208aa4 <shift+0x86208aa4>
87802238:	1a1a1a1a 	bne	87e88aa8 <__bss_end+0x685cc0>
8780223c:	1a1a1a1a 	bne	87e88aac <__bss_end+0x685cc4>
87802240:	1a1a1a1a 	bne	87e88ab0 <__bss_end+0x685cc8>
87802244:	1a1a1a9e 	bne	87e88cc4 <__bss_end+0x685edc>
87802248:	1a1a1a1a 	bne	87e88ab8 <__bss_end+0x685cd0>
8780224c:	1a1a1a1a 	bne	87e88abc <__bss_end+0x685cd4>
87802250:	1a1a1a1a 	bne	87e88ac0 <__bss_end+0x685cd8>
87802254:	00a81a1a 	adceq	r1, r8, sl, lsl sl
87802258:	4662      	mov	r2, ip
8780225a:	a901      	add	r1, sp, #4
8780225c:	f1be 0f00 	cmp.w	lr, #0
87802260:	f000 80d2 	beq.w	87802408 <vsscanf+0x494>
87802264:	f7ff fadc 	bl	87801820 <simple_strtol>
87802268:	f8ca 0000 	str.w	r0, [sl]
8780226c:	9801      	ldr	r0, [sp, #4]
8780226e:	3701      	adds	r7, #1
87802270:	2800      	cmp	r0, #0
87802272:	f43f ae94 	beq.w	87801f9e <vsscanf+0x2a>
87802276:	f899 3001 	ldrb.w	r3, [r9, #1]
8780227a:	4632      	mov	r2, r6
8780227c:	e685      	b.n	87801f8a <vsscanf+0x16>
8780227e:	2e25      	cmp	r6, #37	; 0x25
87802280:	f47f ae8d 	bne.w	87801f9e <vsscanf+0x2a>
87802284:	3001      	adds	r0, #1
87802286:	f899 3001 	ldrb.w	r3, [r9, #1]
8780228a:	e67e      	b.n	87801f8a <vsscanf+0x16>
8780228c:	6813      	ldr	r3, [r2, #0]
8780228e:	eba0 0108 	sub.w	r1, r0, r8
87802292:	3204      	adds	r2, #4
87802294:	6019      	str	r1, [r3, #0]
87802296:	f899 3001 	ldrb.w	r3, [r9, #1]
8780229a:	e676      	b.n	87801f8a <vsscanf+0x16>
8780229c:	f04f 0a00 	mov.w	sl, #0
878022a0:	f04f 0c08 	mov.w	ip, #8
878022a4:	46d6      	mov	lr, sl
878022a6:	e789      	b.n	878021bc <vsscanf+0x248>
878022a8:	f102 0e04 	add.w	lr, r2, #4
878022ac:	f8d2 c000 	ldr.w	ip, [r2]
878022b0:	1c4a      	adds	r2, r1, #1
878022b2:	5da3      	ldrb	r3, [r4, r6]
878022b4:	f000 80cb 	beq.w	8780244e <vsscanf+0x4da>
878022b8:	069b      	lsls	r3, r3, #26
878022ba:	d505      	bpl.n	878022c8 <vsscanf+0x354>
878022bc:	f810 6f01 	ldrb.w	r6, [r0, #1]!
878022c0:	5da3      	ldrb	r3, [r4, r6]
878022c2:	069a      	lsls	r2, r3, #26
878022c4:	d4fa      	bmi.n	878022bc <vsscanf+0x348>
878022c6:	b176      	cbz	r6, 878022e6 <vsscanf+0x372>
878022c8:	b169      	cbz	r1, 878022e6 <vsscanf+0x372>
878022ca:	1c43      	adds	r3, r0, #1
878022cc:	e004      	b.n	878022d8 <vsscanf+0x364>
878022ce:	5da2      	ldrb	r2, [r4, r6]
878022d0:	0692      	lsls	r2, r2, #26
878022d2:	d408      	bmi.n	878022e6 <vsscanf+0x372>
878022d4:	3901      	subs	r1, #1
878022d6:	d006      	beq.n	878022e6 <vsscanf+0x372>
878022d8:	f80c 6b01 	strb.w	r6, [ip], #1
878022dc:	4618      	mov	r0, r3
878022de:	f813 6b01 	ldrb.w	r6, [r3], #1
878022e2:	2e00      	cmp	r6, #0
878022e4:	d1f3      	bne.n	878022ce <vsscanf+0x35a>
878022e6:	2300      	movs	r3, #0
878022e8:	3701      	adds	r7, #1
878022ea:	f88c 3000 	strb.w	r3, [ip]
878022ee:	4672      	mov	r2, lr
878022f0:	f899 3001 	ldrb.w	r3, [r9, #1]
878022f4:	e649      	b.n	87801f8a <vsscanf+0x16>
878022f6:	f04f 0a00 	mov.w	sl, #0
878022fa:	f04f 0c0a 	mov.w	ip, #10
878022fe:	46d6      	mov	lr, sl
87802300:	e75c      	b.n	878021bc <vsscanf+0x248>
87802302:	1c4b      	adds	r3, r1, #1
87802304:	f102 0c04 	add.w	ip, r2, #4
87802308:	6812      	ldr	r2, [r2, #0]
8780230a:	f000 80a6 	beq.w	8780245a <vsscanf+0x4e6>
8780230e:	1c43      	adds	r3, r0, #1
87802310:	3901      	subs	r1, #1
87802312:	f802 6b01 	strb.w	r6, [r2], #1
87802316:	2900      	cmp	r1, #0
87802318:	4618      	mov	r0, r3
8780231a:	dd03      	ble.n	87802324 <vsscanf+0x3b0>
8780231c:	f813 6b01 	ldrb.w	r6, [r3], #1
87802320:	2e00      	cmp	r6, #0
87802322:	d1f5      	bne.n	87802310 <vsscanf+0x39c>
87802324:	3701      	adds	r7, #1
87802326:	f899 3001 	ldrb.w	r3, [r9, #1]
8780232a:	4662      	mov	r2, ip
8780232c:	e62d      	b.n	87801f8a <vsscanf+0x16>
8780232e:	f04f 0a00 	mov.w	sl, #0
87802332:	f04f 0c10 	mov.w	ip, #16
87802336:	46d6      	mov	lr, sl
87802338:	e740      	b.n	878021bc <vsscanf+0x248>
8780233a:	f04f 0a01 	mov.w	sl, #1
8780233e:	f04f 0c00 	mov.w	ip, #0
87802342:	46d6      	mov	lr, sl
87802344:	e73a      	b.n	878021bc <vsscanf+0x248>
87802346:	2b68      	cmp	r3, #104	; 0x68
87802348:	d07b      	beq.n	87802442 <vsscanf+0x4ce>
8780234a:	2b6c      	cmp	r3, #108	; 0x6c
8780234c:	bf18      	it	ne
8780234e:	469c      	movne	ip, r3
87802350:	f47f ae66 	bne.w	87802020 <vsscanf+0xac>
87802354:	f105 0902 	add.w	r9, r5, #2
87802358:	f895 c002 	ldrb.w	ip, [r5, #2]
8780235c:	234c      	movs	r3, #76	; 0x4c
8780235e:	e65f      	b.n	87802020 <vsscanf+0xac>
87802360:	4662      	mov	r2, ip
87802362:	a901      	add	r1, sp, #4
87802364:	f1be 0f00 	cmp.w	lr, #0
87802368:	d066      	beq.n	87802438 <vsscanf+0x4c4>
8780236a:	f7ff fa59 	bl	87801820 <simple_strtol>
8780236e:	f8aa 0000 	strh.w	r0, [sl]
87802372:	e77b      	b.n	8780226c <vsscanf+0x2f8>
87802374:	4662      	mov	r2, ip
87802376:	a901      	add	r1, sp, #4
87802378:	f7ff f9da 	bl	87801730 <simple_strtoul>
8780237c:	f8ca 0000 	str.w	r0, [sl]
87802380:	e774      	b.n	8780226c <vsscanf+0x2f8>
87802382:	4662      	mov	r2, ip
87802384:	a901      	add	r1, sp, #4
87802386:	f1be 0f00 	cmp.w	lr, #0
8780238a:	d050      	beq.n	8780242e <vsscanf+0x4ba>
8780238c:	f7ff faec 	bl	87801968 <simple_strtoll>
87802390:	e9ca 0100 	strd	r0, r1, [sl]
87802394:	e76a      	b.n	8780226c <vsscanf+0x2f8>
87802396:	4662      	mov	r2, ip
87802398:	a901      	add	r1, sp, #4
8780239a:	f1be 0f00 	cmp.w	lr, #0
8780239e:	d041      	beq.n	87802424 <vsscanf+0x4b0>
878023a0:	f7ff fa3e 	bl	87801820 <simple_strtol>
878023a4:	f88a 0000 	strb.w	r0, [sl]
878023a8:	e760      	b.n	8780226c <vsscanf+0x2f8>
878023aa:	f1bc 0f00 	cmp.w	ip, #0
878023ae:	f47f af31 	bne.w	87802214 <vsscanf+0x2a0>
878023b2:	5da1      	ldrb	r1, [r4, r6]
878023b4:	0749      	lsls	r1, r1, #29
878023b6:	f57f adf2 	bpl.w	87801f9e <vsscanf+0x2a>
878023ba:	e72b      	b.n	87802214 <vsscanf+0x2a0>
878023bc:	5da1      	ldrb	r1, [r4, r6]
878023be:	f011 0f44 	tst.w	r1, #68	; 0x44
878023c2:	f47f af27 	bne.w	87802214 <vsscanf+0x2a0>
878023c6:	e5ea      	b.n	87801f9e <vsscanf+0x2a>
878023c8:	469c      	mov	ip, r3
878023ca:	46a9      	mov	r9, r5
878023cc:	f04f 33ff 	mov.w	r3, #4294967295	; 0xffffffff
878023d0:	e626      	b.n	87802020 <vsscanf+0xac>
878023d2:	068e      	lsls	r6, r1, #26
878023d4:	d40a      	bmi.n	878023ec <vsscanf+0x478>
878023d6:	f815 3f01 	ldrb.w	r3, [r5, #1]!
878023da:	5ce1      	ldrb	r1, [r4, r3]
878023dc:	1c1e      	adds	r6, r3, #0
878023de:	bf18      	it	ne
878023e0:	2601      	movne	r6, #1
878023e2:	f081 0120 	eor.w	r1, r1, #32
878023e6:	ea16 1151 	ands.w	r1, r6, r1, lsr #5
878023ea:	d1f4      	bne.n	878023d6 <vsscanf+0x462>
878023ec:	7801      	ldrb	r1, [r0, #0]
878023ee:	e001      	b.n	878023f4 <vsscanf+0x480>
878023f0:	f810 1f01 	ldrb.w	r1, [r0, #1]!
878023f4:	5c66      	ldrb	r6, [r4, r1]
878023f6:	3100      	adds	r1, #0
878023f8:	bf18      	it	ne
878023fa:	2101      	movne	r1, #1
878023fc:	f086 0620 	eor.w	r6, r6, #32
87802400:	ea11 1156 	ands.w	r1, r1, r6, lsr #5
87802404:	d1f4      	bne.n	878023f0 <vsscanf+0x47c>
87802406:	e5c0      	b.n	87801f8a <vsscanf+0x16>
87802408:	f7ff f992 	bl	87801730 <simple_strtoul>
8780240c:	f8ca 0000 	str.w	r0, [sl]
87802410:	e72c      	b.n	8780226c <vsscanf+0x2f8>
87802412:	2e2d      	cmp	r6, #45	; 0x2d
87802414:	bf14      	ite	ne
87802416:	2100      	movne	r1, #0
87802418:	f00a 0101 	andeq.w	r1, sl, #1
8780241c:	2900      	cmp	r1, #0
8780241e:	f47f aedc 	bne.w	878021da <vsscanf+0x266>
87802422:	e6de      	b.n	878021e2 <vsscanf+0x26e>
87802424:	f7ff f984 	bl	87801730 <simple_strtoul>
87802428:	f88a 0000 	strb.w	r0, [sl]
8780242c:	e71e      	b.n	8780226c <vsscanf+0x2f8>
8780242e:	f7ff fa05 	bl	8780183c <simple_strtoull>
87802432:	e9ca 0100 	strd	r0, r1, [sl]
87802436:	e719      	b.n	8780226c <vsscanf+0x2f8>
87802438:	f7ff f97a 	bl	87801730 <simple_strtoul>
8780243c:	f8aa 0000 	strh.w	r0, [sl]
87802440:	e714      	b.n	8780226c <vsscanf+0x2f8>
87802442:	f105 0902 	add.w	r9, r5, #2
87802446:	f895 c002 	ldrb.w	ip, [r5, #2]
8780244a:	2348      	movs	r3, #72	; 0x48
8780244c:	e5e8      	b.n	87802020 <vsscanf+0xac>
8780244e:	069b      	lsls	r3, r3, #26
87802450:	f06f 4100 	mvn.w	r1, #2147483648	; 0x80000000
87802454:	f57f af39 	bpl.w	878022ca <vsscanf+0x356>
87802458:	e730      	b.n	878022bc <vsscanf+0x348>
8780245a:	3001      	adds	r0, #1
8780245c:	7016      	strb	r6, [r2, #0]
8780245e:	e761      	b.n	87802324 <vsscanf+0x3b0>

87802460 <sscanf>:
87802460:	b40e      	push	{r1, r2, r3}
87802462:	b500      	push	{lr}
87802464:	aa02      	add	r2, sp, #8
87802466:	9901      	ldr	r1, [sp, #4]
87802468:	f7ff fd84 	bl	87801f74 <vsscanf>
8780246c:	f85d eb04 	ldr.w	lr, [sp], #4
87802470:	b003      	add	sp, #12
87802472:	4770      	bx	lr

87802474 <__div64_32>:
87802474:	e92d 43f8 	stmdb	sp!, {r3, r4, r5, r6, r7, r8, r9, lr}
87802478:	4680      	mov	r8, r0
8780247a:	e9d0 6700 	ldrd	r6, r7, [r0]
8780247e:	4689      	mov	r9, r1
87802480:	460c      	mov	r4, r1
87802482:	2500      	movs	r5, #0
87802484:	42b9      	cmp	r1, r7
87802486:	bf84      	itt	hi
87802488:	f04f 0c00 	movhi.w	ip, #0
8780248c:	46e6      	movhi	lr, ip
8780248e:	d80c      	bhi.n	878024aa <__div64_32+0x36>
87802490:	4638      	mov	r0, r7
87802492:	f000 f849 	bl	87802528 <__aeabi_uidiv>
87802496:	fb00 f209 	mul.w	r2, r0, r9
8780249a:	f04f 0c00 	mov.w	ip, #0
8780249e:	ebb6 060c 	subs.w	r6, r6, ip
878024a2:	4663      	mov	r3, ip
878024a4:	4686      	mov	lr, r0
878024a6:	eb67 0702 	sbc.w	r7, r7, r2
878024aa:	42bd      	cmp	r5, r7
878024ac:	f04f 0201 	mov.w	r2, #1
878024b0:	bf08      	it	eq
878024b2:	42b4      	cmpeq	r4, r6
878024b4:	bf34      	ite	cc
878024b6:	2301      	movcc	r3, #1
878024b8:	2300      	movcs	r3, #0
878024ba:	f1b9 0f00 	cmp.w	r9, #0
878024be:	bf08      	it	eq
878024c0:	2300      	moveq	r3, #0
878024c2:	b373      	cbz	r3, 87802522 <__div64_32+0xae>
878024c4:	2300      	movs	r3, #0
878024c6:	1924      	adds	r4, r4, r4
878024c8:	416d      	adcs	r5, r5
878024ca:	1892      	adds	r2, r2, r2
878024cc:	415b      	adcs	r3, r3
878024ce:	2c01      	cmp	r4, #1
878024d0:	f175 0100 	sbcs.w	r1, r5, #0
878024d4:	bfac      	ite	ge
878024d6:	2101      	movge	r1, #1
878024d8:	2100      	movlt	r1, #0
878024da:	42bd      	cmp	r5, r7
878024dc:	f001 0101 	and.w	r1, r1, #1
878024e0:	bf08      	it	eq
878024e2:	42b4      	cmpeq	r4, r6
878024e4:	bf28      	it	cs
878024e6:	2100      	movcs	r1, #0
878024e8:	2900      	cmp	r1, #0
878024ea:	d1ec      	bne.n	878024c6 <__div64_32+0x52>
878024ec:	42af      	cmp	r7, r5
878024ee:	bf08      	it	eq
878024f0:	42a6      	cmpeq	r6, r4
878024f2:	d306      	bcc.n	87802502 <__div64_32+0x8e>
878024f4:	1b36      	subs	r6, r6, r4
878024f6:	eb67 0705 	sbc.w	r7, r7, r5
878024fa:	eb1c 0c02 	adds.w	ip, ip, r2
878024fe:	eb4e 0e03 	adc.w	lr, lr, r3
87802502:	085b      	lsrs	r3, r3, #1
87802504:	ea4f 0232 	mov.w	r2, r2, rrx
87802508:	086d      	lsrs	r5, r5, #1
8780250a:	ea4f 0434 	mov.w	r4, r4, rrx
8780250e:	ea52 0103 	orrs.w	r1, r2, r3
87802512:	d1eb      	bne.n	878024ec <__div64_32+0x78>
87802514:	f8c8 c000 	str.w	ip, [r8]
87802518:	4630      	mov	r0, r6
8780251a:	f8c8 e004 	str.w	lr, [r8, #4]
8780251e:	e8bd 83f8 	ldmia.w	sp!, {r3, r4, r5, r6, r7, r8, r9, pc}
87802522:	2300      	movs	r3, #0
87802524:	e7e2      	b.n	878024ec <__div64_32+0x78>
87802526:	bf00      	nop

87802528 <__aeabi_uidiv>:
87802528:	1e4a      	subs	r2, r1, #1
8780252a:	bf08      	it	eq
8780252c:	4770      	bxeq	lr
8780252e:	f0c0 8124 	bcc.w	8780277a <__aeabi_uidiv+0x252>
87802532:	4288      	cmp	r0, r1
87802534:	f240 8116 	bls.w	87802764 <__aeabi_uidiv+0x23c>
87802538:	4211      	tst	r1, r2
8780253a:	f000 8117 	beq.w	8780276c <__aeabi_uidiv+0x244>
8780253e:	fab0 f380 	clz	r3, r0
87802542:	fab1 f281 	clz	r2, r1
87802546:	eba2 0303 	sub.w	r3, r2, r3
8780254a:	f1c3 031f 	rsb	r3, r3, #31
8780254e:	a204      	add	r2, pc, #16	; (adr r2, 87802560 <__aeabi_uidiv+0x38>)
87802550:	eb02 1303 	add.w	r3, r2, r3, lsl #4
87802554:	f04f 0200 	mov.w	r2, #0
87802558:	469f      	mov	pc, r3
8780255a:	bf00      	nop
8780255c:	f3af 8000 	nop.w
87802560:	ebb0 7fc1 	cmp.w	r0, r1, lsl #31
87802564:	bf00      	nop
87802566:	eb42 0202 	adc.w	r2, r2, r2
8780256a:	bf28      	it	cs
8780256c:	eba0 70c1 	subcs.w	r0, r0, r1, lsl #31
87802570:	ebb0 7f81 	cmp.w	r0, r1, lsl #30
87802574:	bf00      	nop
87802576:	eb42 0202 	adc.w	r2, r2, r2
8780257a:	bf28      	it	cs
8780257c:	eba0 7081 	subcs.w	r0, r0, r1, lsl #30
87802580:	ebb0 7f41 	cmp.w	r0, r1, lsl #29
87802584:	bf00      	nop
87802586:	eb42 0202 	adc.w	r2, r2, r2
8780258a:	bf28      	it	cs
8780258c:	eba0 7041 	subcs.w	r0, r0, r1, lsl #29
87802590:	ebb0 7f01 	cmp.w	r0, r1, lsl #28
87802594:	bf00      	nop
87802596:	eb42 0202 	adc.w	r2, r2, r2
8780259a:	bf28      	it	cs
8780259c:	eba0 7001 	subcs.w	r0, r0, r1, lsl #28
878025a0:	ebb0 6fc1 	cmp.w	r0, r1, lsl #27
878025a4:	bf00      	nop
878025a6:	eb42 0202 	adc.w	r2, r2, r2
878025aa:	bf28      	it	cs
878025ac:	eba0 60c1 	subcs.w	r0, r0, r1, lsl #27
878025b0:	ebb0 6f81 	cmp.w	r0, r1, lsl #26
878025b4:	bf00      	nop
878025b6:	eb42 0202 	adc.w	r2, r2, r2
878025ba:	bf28      	it	cs
878025bc:	eba0 6081 	subcs.w	r0, r0, r1, lsl #26
878025c0:	ebb0 6f41 	cmp.w	r0, r1, lsl #25
878025c4:	bf00      	nop
878025c6:	eb42 0202 	adc.w	r2, r2, r2
878025ca:	bf28      	it	cs
878025cc:	eba0 6041 	subcs.w	r0, r0, r1, lsl #25
878025d0:	ebb0 6f01 	cmp.w	r0, r1, lsl #24
878025d4:	bf00      	nop
878025d6:	eb42 0202 	adc.w	r2, r2, r2
878025da:	bf28      	it	cs
878025dc:	eba0 6001 	subcs.w	r0, r0, r1, lsl #24
878025e0:	ebb0 5fc1 	cmp.w	r0, r1, lsl #23
878025e4:	bf00      	nop
878025e6:	eb42 0202 	adc.w	r2, r2, r2
878025ea:	bf28      	it	cs
878025ec:	eba0 50c1 	subcs.w	r0, r0, r1, lsl #23
878025f0:	ebb0 5f81 	cmp.w	r0, r1, lsl #22
878025f4:	bf00      	nop
878025f6:	eb42 0202 	adc.w	r2, r2, r2
878025fa:	bf28      	it	cs
878025fc:	eba0 5081 	subcs.w	r0, r0, r1, lsl #22
87802600:	ebb0 5f41 	cmp.w	r0, r1, lsl #21
87802604:	bf00      	nop
87802606:	eb42 0202 	adc.w	r2, r2, r2
8780260a:	bf28      	it	cs
8780260c:	eba0 5041 	subcs.w	r0, r0, r1, lsl #21
87802610:	ebb0 5f01 	cmp.w	r0, r1, lsl #20
87802614:	bf00      	nop
87802616:	eb42 0202 	adc.w	r2, r2, r2
8780261a:	bf28      	it	cs
8780261c:	eba0 5001 	subcs.w	r0, r0, r1, lsl #20
87802620:	ebb0 4fc1 	cmp.w	r0, r1, lsl #19
87802624:	bf00      	nop
87802626:	eb42 0202 	adc.w	r2, r2, r2
8780262a:	bf28      	it	cs
8780262c:	eba0 40c1 	subcs.w	r0, r0, r1, lsl #19
87802630:	ebb0 4f81 	cmp.w	r0, r1, lsl #18
87802634:	bf00      	nop
87802636:	eb42 0202 	adc.w	r2, r2, r2
8780263a:	bf28      	it	cs
8780263c:	eba0 4081 	subcs.w	r0, r0, r1, lsl #18
87802640:	ebb0 4f41 	cmp.w	r0, r1, lsl #17
87802644:	bf00      	nop
87802646:	eb42 0202 	adc.w	r2, r2, r2
8780264a:	bf28      	it	cs
8780264c:	eba0 4041 	subcs.w	r0, r0, r1, lsl #17
87802650:	ebb0 4f01 	cmp.w	r0, r1, lsl #16
87802654:	bf00      	nop
87802656:	eb42 0202 	adc.w	r2, r2, r2
8780265a:	bf28      	it	cs
8780265c:	eba0 4001 	subcs.w	r0, r0, r1, lsl #16
87802660:	ebb0 3fc1 	cmp.w	r0, r1, lsl #15
87802664:	bf00      	nop
87802666:	eb42 0202 	adc.w	r2, r2, r2
8780266a:	bf28      	it	cs
8780266c:	eba0 30c1 	subcs.w	r0, r0, r1, lsl #15
87802670:	ebb0 3f81 	cmp.w	r0, r1, lsl #14
87802674:	bf00      	nop
87802676:	eb42 0202 	adc.w	r2, r2, r2
8780267a:	bf28      	it	cs
8780267c:	eba0 3081 	subcs.w	r0, r0, r1, lsl #14
87802680:	ebb0 3f41 	cmp.w	r0, r1, lsl #13
87802684:	bf00      	nop
87802686:	eb42 0202 	adc.w	r2, r2, r2
8780268a:	bf28      	it	cs
8780268c:	eba0 3041 	subcs.w	r0, r0, r1, lsl #13
87802690:	ebb0 3f01 	cmp.w	r0, r1, lsl #12
87802694:	bf00      	nop
87802696:	eb42 0202 	adc.w	r2, r2, r2
8780269a:	bf28      	it	cs
8780269c:	eba0 3001 	subcs.w	r0, r0, r1, lsl #12
878026a0:	ebb0 2fc1 	cmp.w	r0, r1, lsl #11
878026a4:	bf00      	nop
878026a6:	eb42 0202 	adc.w	r2, r2, r2
878026aa:	bf28      	it	cs
878026ac:	eba0 20c1 	subcs.w	r0, r0, r1, lsl #11
878026b0:	ebb0 2f81 	cmp.w	r0, r1, lsl #10
878026b4:	bf00      	nop
878026b6:	eb42 0202 	adc.w	r2, r2, r2
878026ba:	bf28      	it	cs
878026bc:	eba0 2081 	subcs.w	r0, r0, r1, lsl #10
878026c0:	ebb0 2f41 	cmp.w	r0, r1, lsl #9
878026c4:	bf00      	nop
878026c6:	eb42 0202 	adc.w	r2, r2, r2
878026ca:	bf28      	it	cs
878026cc:	eba0 2041 	subcs.w	r0, r0, r1, lsl #9
878026d0:	ebb0 2f01 	cmp.w	r0, r1, lsl #8
878026d4:	bf00      	nop
878026d6:	eb42 0202 	adc.w	r2, r2, r2
878026da:	bf28      	it	cs
878026dc:	eba0 2001 	subcs.w	r0, r0, r1, lsl #8
878026e0:	ebb0 1fc1 	cmp.w	r0, r1, lsl #7
878026e4:	bf00      	nop
878026e6:	eb42 0202 	adc.w	r2, r2, r2
878026ea:	bf28      	it	cs
878026ec:	eba0 10c1 	subcs.w	r0, r0, r1, lsl #7
878026f0:	ebb0 1f81 	cmp.w	r0, r1, lsl #6
878026f4:	bf00      	nop
878026f6:	eb42 0202 	adc.w	r2, r2, r2
878026fa:	bf28      	it	cs
878026fc:	eba0 1081 	subcs.w	r0, r0, r1, lsl #6
87802700:	ebb0 1f41 	cmp.w	r0, r1, lsl #5
87802704:	bf00      	nop
87802706:	eb42 0202 	adc.w	r2, r2, r2
8780270a:	bf28      	it	cs
8780270c:	eba0 1041 	subcs.w	r0, r0, r1, lsl #5
87802710:	ebb0 1f01 	cmp.w	r0, r1, lsl #4
87802714:	bf00      	nop
87802716:	eb42 0202 	adc.w	r2, r2, r2
8780271a:	bf28      	it	cs
8780271c:	eba0 1001 	subcs.w	r0, r0, r1, lsl #4
87802720:	ebb0 0fc1 	cmp.w	r0, r1, lsl #3
87802724:	bf00      	nop
87802726:	eb42 0202 	adc.w	r2, r2, r2
8780272a:	bf28      	it	cs
8780272c:	eba0 00c1 	subcs.w	r0, r0, r1, lsl #3
87802730:	ebb0 0f81 	cmp.w	r0, r1, lsl #2
87802734:	bf00      	nop
87802736:	eb42 0202 	adc.w	r2, r2, r2
8780273a:	bf28      	it	cs
8780273c:	eba0 0081 	subcs.w	r0, r0, r1, lsl #2
87802740:	ebb0 0f41 	cmp.w	r0, r1, lsl #1
87802744:	bf00      	nop
87802746:	eb42 0202 	adc.w	r2, r2, r2
8780274a:	bf28      	it	cs
8780274c:	eba0 0041 	subcs.w	r0, r0, r1, lsl #1
87802750:	ebb0 0f01 	cmp.w	r0, r1
87802754:	bf00      	nop
87802756:	eb42 0202 	adc.w	r2, r2, r2
8780275a:	bf28      	it	cs
8780275c:	eba0 0001 	subcs.w	r0, r0, r1
87802760:	4610      	mov	r0, r2
87802762:	4770      	bx	lr
87802764:	bf0c      	ite	eq
87802766:	2001      	moveq	r0, #1
87802768:	2000      	movne	r0, #0
8780276a:	4770      	bx	lr
8780276c:	fab1 f281 	clz	r2, r1
87802770:	f1c2 021f 	rsb	r2, r2, #31
87802774:	fa20 f002 	lsr.w	r0, r0, r2
87802778:	4770      	bx	lr
8780277a:	b108      	cbz	r0, 87802780 <__aeabi_uidiv+0x258>
8780277c:	f04f 30ff 	mov.w	r0, #4294967295	; 0xffffffff
87802780:	f000 b80e 	b.w	878027a0 <__aeabi_idiv0>

87802784 <__aeabi_uidivmod>:
87802784:	2900      	cmp	r1, #0
87802786:	d0f8      	beq.n	8780277a <__aeabi_uidiv+0x252>
87802788:	e92d 4003 	stmdb	sp!, {r0, r1, lr}
8780278c:	f7ff fecc 	bl	87802528 <__aeabi_uidiv>
87802790:	e8bd 4006 	ldmia.w	sp!, {r1, r2, lr}
87802794:	fb02 f300 	mul.w	r3, r2, r0
87802798:	eba1 0103 	sub.w	r1, r1, r3
8780279c:	4770      	bx	lr
8780279e:	bf00      	nop

878027a0 <__aeabi_idiv0>:
878027a0:	b502      	push	{r1, lr}
878027a2:	f04f 0008 	mov.w	r0, #8
878027a6:	f7fe fabd 	bl	87800d24 <raise>
878027aa:	bd02      	pop	{r1, pc}
878027ac:	0000      	movs	r0, r0
	...

878027b0 <__main_from_arm>:
878027b0:	e51ff004 	ldr	pc, [pc, #-4]	; 878027b4 <__main_from_arm+0x4>
878027b4:	878002b9 			; <UNDEFINED> instruction: 0x878002b9

Disassembly of section .rodata:

878027b8 <digits.8456>:
878027b8:	33323130 	teqcc	r2, #48, 2
878027bc:	37363534 			; <UNDEFINED> instruction: 0x37363534
878027c0:	42413938 	submi	r3, r1, #56, 18	; 0xe0000
878027c4:	46454443 	strbmi	r4, [r5], -r3, asr #8
878027c8:	4c554e3c 	mrrcmi	14, 3, r4, r5, cr12
878027cc:	00003e4c 	andeq	r3, r0, ip, asr #28

Disassembly of section .data:

878027d0 <uart_config>:
878027d0:	02020000 	andeq	r0, r2, #0
878027d4:	0001c200 	andeq	ip, r1, r0, lsl #4
878027d8:	04c4b400 	strbeq	fp, [r4], #1024	; 0x400

878027dc <first_init_uart>:
878027dc:	00000001 	andeq	r0, r0, r1

878027e0 <_ctype>:
878027e0:	08080808 	stmdaeq	r8, {r3, fp}
878027e4:	08080808 	stmdaeq	r8, {r3, fp}
878027e8:	28282808 	stmdacs	r8!, {r3, fp, sp}
878027ec:	08082828 	stmdaeq	r8, {r3, r5, fp, sp}
878027f0:	08080808 	stmdaeq	r8, {r3, fp}
878027f4:	08080808 	stmdaeq	r8, {r3, fp}
878027f8:	08080808 	stmdaeq	r8, {r3, fp}
878027fc:	08080808 	stmdaeq	r8, {r3, fp}
87802800:	101010a0 	andsne	r1, r0, r0, lsr #1
87802804:	10101010 	andsne	r1, r0, r0, lsl r0
87802808:	10101010 	andsne	r1, r0, r0, lsl r0
8780280c:	10101010 	andsne	r1, r0, r0, lsl r0
87802810:	04040404 	streq	r0, [r4], #-1028	; 0x404
87802814:	04040404 	streq	r0, [r4], #-1028	; 0x404
87802818:	10100404 	andsne	r0, r0, r4, lsl #8
8780281c:	10101010 	andsne	r1, r0, r0, lsl r0
87802820:	41414110 	cmpmi	r1, r0, lsl r1
87802824:	01414141 	cmpeq	r1, r1, asr #2
87802828:	01010101 	tsteq	r1, r1, lsl #2
8780282c:	01010101 	tsteq	r1, r1, lsl #2
87802830:	01010101 	tsteq	r1, r1, lsl #2
87802834:	01010101 	tsteq	r1, r1, lsl #2
87802838:	10010101 	andne	r0, r1, r1, lsl #2
8780283c:	10101010 	andsne	r1, r0, r0, lsl r0
87802840:	42424210 	submi	r4, r2, #16, 4
87802844:	02424242 	subeq	r4, r2, #536870916	; 0x20000004
87802848:	02020202 	andeq	r0, r2, #536870912	; 0x20000000
8780284c:	02020202 	andeq	r0, r2, #536870912	; 0x20000000
87802850:	02020202 	andeq	r0, r2, #536870912	; 0x20000000
87802854:	02020202 	andeq	r0, r2, #536870912	; 0x20000000
87802858:	10020202 	andne	r0, r2, r2, lsl #4
8780285c:	08101010 	ldmdaeq	r0, {r4, ip}
	...
87802880:	101010a0 	andsne	r1, r0, r0, lsr #1
87802884:	10101010 	andsne	r1, r0, r0, lsl r0
87802888:	10101010 	andsne	r1, r0, r0, lsl r0
8780288c:	10101010 	andsne	r1, r0, r0, lsl r0
87802890:	10101010 	andsne	r1, r0, r0, lsl r0
87802894:	10101010 	andsne	r1, r0, r0, lsl r0
87802898:	10101010 	andsne	r1, r0, r0, lsl r0
8780289c:	10101010 	andsne	r1, r0, r0, lsl r0
878028a0:	01010101 	tsteq	r1, r1, lsl #2
878028a4:	01010101 	tsteq	r1, r1, lsl #2
878028a8:	01010101 	tsteq	r1, r1, lsl #2
878028ac:	01010101 	tsteq	r1, r1, lsl #2
878028b0:	01010101 	tsteq	r1, r1, lsl #2
878028b4:	10010101 	andne	r0, r1, r1, lsl #2
878028b8:	01010101 	tsteq	r1, r1, lsl #2
878028bc:	02010101 	andeq	r0, r1, #1073741824	; 0x40000000
878028c0:	02020202 	andeq	r0, r2, #536870912	; 0x20000000
878028c4:	02020202 	andeq	r0, r2, #536870912	; 0x20000000
878028c8:	02020202 	andeq	r0, r2, #536870912	; 0x20000000
878028cc:	02020202 	andeq	r0, r2, #536870912	; 0x20000000
878028d0:	02020202 	andeq	r0, r2, #536870912	; 0x20000000
878028d4:	10020202 	andne	r0, r2, r2, lsl #4
878028d8:	02020202 	andeq	r0, r2, #536870912	; 0x20000000
878028dc:	02020202 	andeq	r0, r2, #536870912	; 0x20000000

Disassembly of section .bss:

878028e0 <irq_table>:
	...

87802de0 <irqNesting>:
87802de0:	00000000 	andeq	r0, r0, r0

87802de4 <___strtok>:
87802de4:	00000000 	andeq	r0, r0, r0

