
hw_sim/task2_test/build/task2_test.elf:     file format elf32-littlearm


Disassembly of section .interrupts:

87800000 <__VECTOR_TABLE>:
87800000:	e59ff018 	ldr	pc, [pc, #24]	; 87800020 <__VECTOR_TABLE+0x20>
87800004:	e59ff018 	ldr	pc, [pc, #24]	; 87800024 <__VECTOR_TABLE+0x24>
87800008:	e59ff018 	ldr	pc, [pc, #24]	; 87800028 <__VECTOR_TABLE+0x28>
8780000c:	e59ff018 	ldr	pc, [pc, #24]	; 8780002c <__VECTOR_TABLE+0x2c>
87800010:	e59ff018 	ldr	pc, [pc, #24]	; 87800030 <__VECTOR_TABLE+0x30>
87800014:	00000000 	andeq	r0, r0, r0
87800018:	e59ff014 	ldr	pc, [pc, #20]	; 87800034 <__VECTOR_TABLE+0x34>
8780001c:	e59ff014 	ldr	pc, [pc, #20]	; 87800038 <__VECTOR_TABLE+0x38>
87800020:	87801490 			; <UNDEFINED> instruction: 0x87801490
87800024:	87801548 	strhi	r1, [r0, r8, asr #10]
87800028:	87801000 	strhi	r1, [r0, r0]
8780002c:	87801554 			; <UNDEFINED> instruction: 0x87801554
87800030:	8780155c 			; <UNDEFINED> instruction: 0x8780155c
87800034:	87801110 	usada8hi	r0, r0, r1, r1
87800038:	878015b8 			; <UNDEFINED> instruction: 0x878015b8

Disassembly of section .text:

87801000 <FreeRTOS_SWI_Handler>:
87801000:	f96d051f 	srsdb	sp!, #31
87801004:	f102001f 	cps	#31
87801008:	e92d5fff 	push	{r0, r1, r2, r3, r4, r5, r6, r7, r8, r9, sl, fp, ip, lr}
8780100c:	e59f22ac 	ldr	r2, [pc, #684]	; 878012c0 <ulCriticalNestingConst>
87801010:	e5921000 	ldr	r1, [r2]
87801014:	e52d1004 	push	{r1}		; (str r1, [sp, #-4]!)
87801018:	e59f22a4 	ldr	r2, [pc, #676]	; 878012c4 <ulPortTaskHasFPUContextConst>
8780101c:	e5923000 	ldr	r3, [r2]
87801020:	e3530000 	cmp	r3, #0
87801024:	1ef11a10 	vmrsne	r1, fpscr
87801028:	1d2d0b20 	vpushne	{d0-d15}
8780102c:	1d6d0b20 	vpushne	{d16-d31}
87801030:	152d1004 	pushne	{r1}		; (strne r1, [sp, #-4]!)
87801034:	e52d3004 	push	{r3}		; (str r3, [sp, #-4]!)
87801038:	e59f027c 	ldr	r0, [pc, #636]	; 878012bc <pxCurrentTCBConst>
8780103c:	e5901000 	ldr	r1, [r0]
87801040:	e581d000 	str	sp, [r1]
87801044:	e59f0280 	ldr	r0, [pc, #640]	; 878012cc <vTaskSwitchContextConst>
87801048:	e12fff30 	blx	r0
8780104c:	e59f0268 	ldr	r0, [pc, #616]	; 878012bc <pxCurrentTCBConst>
87801050:	e5901000 	ldr	r1, [r0]
87801054:	e591d000 	ldr	sp, [r1]
87801058:	e59f0264 	ldr	r0, [pc, #612]	; 878012c4 <ulPortTaskHasFPUContextConst>
8780105c:	e49d1004 	pop	{r1}		; (ldr r1, [sp], #4)
87801060:	e5801000 	str	r1, [r0]
87801064:	e3510000 	cmp	r1, #0
87801068:	149d0004 	popne	{r0}		; (ldrne r0, [sp], #4)
8780106c:	1cfd0b20 	vpopne	{d16-d31}
87801070:	1cbd0b20 	vpopne	{d0-d15}
87801074:	1ee10a10 	vmsrne	fpscr, r0
87801078:	e59f0240 	ldr	r0, [pc, #576]	; 878012c0 <ulCriticalNestingConst>
8780107c:	e49d1004 	pop	{r1}		; (ldr r1, [sp], #4)
87801080:	e5801000 	str	r1, [r0]
87801084:	e59f222c 	ldr	r2, [pc, #556]	; 878012b8 <ulICCPMRConst>
87801088:	e5922000 	ldr	r2, [r2]
8780108c:	e3510000 	cmp	r1, #0
87801090:	03a040ff 	moveq	r4, #255	; 0xff
87801094:	159f422c 	ldrne	r4, [pc, #556]	; 878012c8 <ulMaxAPIPriorityMaskConst>
87801098:	15944000 	ldrne	r4, [r4]
8780109c:	e5824000 	str	r4, [r2]
878010a0:	e8bd5fff 	pop	{r0, r1, r2, r3, r4, r5, r6, r7, r8, r9, sl, fp, ip, lr}
878010a4:	f8bd0a00 	rfeia	sp!

878010a8 <vPortRestoreTaskContext>:
878010a8:	f102001f 	cps	#31
878010ac:	e59f0208 	ldr	r0, [pc, #520]	; 878012bc <pxCurrentTCBConst>
878010b0:	e5901000 	ldr	r1, [r0]
878010b4:	e591d000 	ldr	sp, [r1]
878010b8:	e59f0204 	ldr	r0, [pc, #516]	; 878012c4 <ulPortTaskHasFPUContextConst>
878010bc:	e49d1004 	pop	{r1}		; (ldr r1, [sp], #4)
878010c0:	e5801000 	str	r1, [r0]
878010c4:	e3510000 	cmp	r1, #0
878010c8:	149d0004 	popne	{r0}		; (ldrne r0, [sp], #4)
878010cc:	1cfd0b20 	vpopne	{d16-d31}
878010d0:	1cbd0b20 	vpopne	{d0-d15}
878010d4:	1ee10a10 	vmsrne	fpscr, r0
878010d8:	e59f01e0 	ldr	r0, [pc, #480]	; 878012c0 <ulCriticalNestingConst>
878010dc:	e49d1004 	pop	{r1}		; (ldr r1, [sp], #4)
878010e0:	e5801000 	str	r1, [r0]
878010e4:	e59f21cc 	ldr	r2, [pc, #460]	; 878012b8 <ulICCPMRConst>
878010e8:	e5922000 	ldr	r2, [r2]
878010ec:	e3510000 	cmp	r1, #0
878010f0:	03a040ff 	moveq	r4, #255	; 0xff
878010f4:	159f41cc 	ldrne	r4, [pc, #460]	; 878012c8 <ulMaxAPIPriorityMaskConst>
878010f8:	15944000 	ldrne	r4, [r4]
878010fc:	e5824000 	str	r4, [r2]
87801100:	e8bd5fff 	pop	{r0, r1, r2, r3, r4, r5, r6, r7, r8, r9, sl, fp, ip, lr}
87801104:	f8bd0a00 	rfeia	sp!
87801108:	e320f000 	nop	{0}
8780110c:	e320f000 	nop	{0}

87801110 <FreeRTOS_IRQ_Handler>:
87801110:	e24ee004 	sub	lr, lr, #4
87801114:	e52de004 	push	{lr}		; (str lr, [sp, #-4]!)
87801118:	e14fe000 	mrs	lr, SPSR
8780111c:	e52de004 	push	{lr}		; (str lr, [sp, #-4]!)
87801120:	f1020013 	cps	#19
87801124:	e92d101f 	push	{r0, r1, r2, r3, r4, ip}
87801128:	e59f31a4 	ldr	r3, [pc, #420]	; 878012d4 <ulPortInterruptNestingConst>
8780112c:	e5931000 	ldr	r1, [r3]
87801130:	e2814001 	add	r4, r1, #1
87801134:	e5834000 	str	r4, [r3]
87801138:	e59f2170 	ldr	r2, [pc, #368]	; 878012b0 <ulICCIARConst>
8780113c:	e5922000 	ldr	r2, [r2]
87801140:	e5920000 	ldr	r0, [r2]
87801144:	e1a0200d 	mov	r2, sp
87801148:	e2022004 	and	r2, r2, #4
8780114c:	e04dd002 	sub	sp, sp, r2
87801150:	e92d400f 	push	{r0, r1, r2, r3, lr}
87801154:	e59f1180 	ldr	r1, [pc, #384]	; 878012dc <vApplicationFPUSafeIRQHandlerConst+0x4>
87801158:	e12fff31 	blx	r1
8780115c:	e8bd400f 	pop	{r0, r1, r2, r3, lr}
87801160:	e08dd002 	add	sp, sp, r2
87801164:	f10c0080 	cpsid	i
87801168:	f57ff04f 	dsb	sy
8780116c:	f57ff06f 	isb	sy
87801170:	e59f413c 	ldr	r4, [pc, #316]	; 878012b4 <ulICCEOIRConst>
87801174:	e5944000 	ldr	r4, [r4]
87801178:	e5840000 	str	r0, [r4]
8780117c:	e5831000 	str	r1, [r3]
87801180:	e3510000 	cmp	r1, #0
87801184:	1a000003 	bne	87801198 <exit_without_switch>
87801188:	e59f1150 	ldr	r1, [pc, #336]	; 878012e0 <vApplicationFPUSafeIRQHandlerConst+0x8>
8780118c:	e5910000 	ldr	r0, [r1]
87801190:	e3500000 	cmp	r0, #0
87801194:	1a000005 	bne	878011b0 <switch_before_exit>

87801198 <exit_without_switch>:
87801198:	e8bd101f 	pop	{r0, r1, r2, r3, r4, ip}
8780119c:	f1020012 	cps	#18
878011a0:	e49de004 	pop	{lr}		; (ldr lr, [sp], #4)
878011a4:	e16ff00e 	msr	SPSR_fsxc, lr
878011a8:	e49de004 	pop	{lr}		; (ldr lr, [sp], #4)
878011ac:	e1b0f00e 	movs	pc, lr

878011b0 <switch_before_exit>:
878011b0:	e3a00000 	mov	r0, #0
878011b4:	e5810000 	str	r0, [r1]
878011b8:	e8bd101f 	pop	{r0, r1, r2, r3, r4, ip}
878011bc:	f1020012 	cps	#18
878011c0:	e49de004 	pop	{lr}		; (ldr lr, [sp], #4)
878011c4:	e16ff00e 	msr	SPSR_fsxc, lr
878011c8:	e49de004 	pop	{lr}		; (ldr lr, [sp], #4)
878011cc:	f96d051f 	srsdb	sp!, #31
878011d0:	f102001f 	cps	#31
878011d4:	e92d5fff 	push	{r0, r1, r2, r3, r4, r5, r6, r7, r8, r9, sl, fp, ip, lr}
878011d8:	e59f20e0 	ldr	r2, [pc, #224]	; 878012c0 <ulCriticalNestingConst>
878011dc:	e5921000 	ldr	r1, [r2]
878011e0:	e52d1004 	push	{r1}		; (str r1, [sp, #-4]!)
878011e4:	e59f20d8 	ldr	r2, [pc, #216]	; 878012c4 <ulPortTaskHasFPUContextConst>
878011e8:	e5923000 	ldr	r3, [r2]
878011ec:	e3530000 	cmp	r3, #0
878011f0:	1ef11a10 	vmrsne	r1, fpscr
878011f4:	1d2d0b20 	vpushne	{d0-d15}
878011f8:	1d6d0b20 	vpushne	{d16-d31}
878011fc:	152d1004 	pushne	{r1}		; (strne r1, [sp, #-4]!)
87801200:	e52d3004 	push	{r3}		; (str r3, [sp, #-4]!)
87801204:	e59f00b0 	ldr	r0, [pc, #176]	; 878012bc <pxCurrentTCBConst>
87801208:	e5901000 	ldr	r1, [r0]
8780120c:	e581d000 	str	sp, [r1]
87801210:	e59f00b4 	ldr	r0, [pc, #180]	; 878012cc <vTaskSwitchContextConst>
87801214:	e12fff30 	blx	r0
87801218:	e59f009c 	ldr	r0, [pc, #156]	; 878012bc <pxCurrentTCBConst>
8780121c:	e5901000 	ldr	r1, [r0]
87801220:	e591d000 	ldr	sp, [r1]
87801224:	e59f0098 	ldr	r0, [pc, #152]	; 878012c4 <ulPortTaskHasFPUContextConst>
87801228:	e49d1004 	pop	{r1}		; (ldr r1, [sp], #4)
8780122c:	e5801000 	str	r1, [r0]
87801230:	e3510000 	cmp	r1, #0
87801234:	149d0004 	popne	{r0}		; (ldrne r0, [sp], #4)
87801238:	1cfd0b20 	vpopne	{d16-d31}
8780123c:	1cbd0b20 	vpopne	{d0-d15}
87801240:	1ee10a10 	vmsrne	fpscr, r0
87801244:	e59f0074 	ldr	r0, [pc, #116]	; 878012c0 <ulCriticalNestingConst>
87801248:	e49d1004 	pop	{r1}		; (ldr r1, [sp], #4)
8780124c:	e5801000 	str	r1, [r0]
87801250:	e59f2060 	ldr	r2, [pc, #96]	; 878012b8 <ulICCPMRConst>
87801254:	e5922000 	ldr	r2, [r2]
87801258:	e3510000 	cmp	r1, #0
8780125c:	03a040ff 	moveq	r4, #255	; 0xff
87801260:	159f4060 	ldrne	r4, [pc, #96]	; 878012c8 <ulMaxAPIPriorityMaskConst>
87801264:	15944000 	ldrne	r4, [r4]
87801268:	e5824000 	str	r4, [r2]
8780126c:	e8bd5fff 	pop	{r0, r1, r2, r3, r4, r5, r6, r7, r8, r9, sl, fp, ip, lr}
87801270:	f8bd0a00 	rfeia	sp!
87801274:	e320f000 	nop	{0}
87801278:	e320f000 	nop	{0}
8780127c:	e320f000 	nop	{0}

87801280 <vApplicationIRQHandler>:
87801280:	e52de004 	push	{lr}		; (str lr, [sp, #-4]!)
87801284:	eef11a10 	vmrs	r1, fpscr
87801288:	ed2d0b20 	vpush	{d0-d15}
8780128c:	ed6d0b20 	vpush	{d16-d31}
87801290:	e52d1004 	push	{r1}		; (str r1, [sp, #-4]!)
87801294:	e59f103c 	ldr	r1, [pc, #60]	; 878012d8 <vApplicationFPUSafeIRQHandlerConst>
87801298:	e12fff31 	blx	r1
8780129c:	e49d0004 	pop	{r0}		; (ldr r0, [sp], #4)
878012a0:	ecfd0b20 	vpop	{d16-d31}
878012a4:	ecbd0b20 	vpop	{d0-d15}
878012a8:	eee10a10 	vmsr	fpscr, r0
878012ac:	e49df004 	pop	{pc}		; (ldr pc, [sp], #4)

878012b0 <ulICCIARConst>:
878012b0:	8780a154 			; <UNDEFINED> instruction: 0x8780a154

878012b4 <ulICCEOIRConst>:
878012b4:	8780a150 			; <UNDEFINED> instruction: 0x8780a150

878012b8 <ulICCPMRConst>:
878012b8:	8780a14c 	strhi	sl, [r0, ip, asr #2]

878012bc <pxCurrentTCBConst>:
878012bc:	88000330 	stmdahi	r0, {r4, r5, r8, r9}

878012c0 <ulCriticalNestingConst>:
878012c0:	88000018 	stmdahi	r0, {r3, r4}

878012c4 <ulPortTaskHasFPUContextConst>:
878012c4:	880004b0 	stmdahi	r0, {r4, r5, r7, sl}

878012c8 <ulMaxAPIPriorityMaskConst>:
878012c8:	8780a148 	strhi	sl, [r0, r8, asr #2]

878012cc <vTaskSwitchContextConst>:
878012cc:	87806501 	strhi	r6, [r0, r1, lsl #10]

878012d0 <vApplicationIRQHandlerConst>:
878012d0:	87801280 	strhi	r1, [r0, r0, lsl #5]

878012d4 <ulPortInterruptNestingConst>:
878012d4:	880004a8 	stmdahi	r0, {r3, r5, r7, sl}

878012d8 <vApplicationFPUSafeIRQHandlerConst>:
878012d8:	87807881 	strhi	r7, [r0, r1, lsl #17]
878012dc:	878096e5 	strhi	r9, [r0, r5, ror #13]
878012e0:	880004ac 	stmdahi	r0, {r2, r3, r5, r7, sl}
	...

878012f0 <__umodsi3>:
878012f0:	e2512001 	subs	r2, r1, #1
878012f4:	3a000062 	bcc	87801484 <Ldiv0>
878012f8:	11500001 	cmpne	r0, r1
878012fc:	03a00000 	moveq	r0, #0
87801300:	81110002 	tsthi	r1, r2
87801304:	00000002 	andeq	r0, r0, r2
87801308:	91a0f00e 	movls	pc, lr
8780130c:	e3a02000 	mov	r2, #0
87801310:	e3510201 	cmp	r1, #268435456	; 0x10000000
87801314:	31510000 	cmpcc	r1, r0
87801318:	31a01201 	lslcc	r1, r1, #4
8780131c:	32822004 	addcc	r2, r2, #4
87801320:	3afffffa 	bcc	87801310 <__umodsi3+0x20>
87801324:	e3510102 	cmp	r1, #-2147483648	; 0x80000000
87801328:	31510000 	cmpcc	r1, r0
8780132c:	31a01081 	lslcc	r1, r1, #1
87801330:	32822001 	addcc	r2, r2, #1
87801334:	3afffffa 	bcc	87801324 <__umodsi3+0x34>
87801338:	e2522003 	subs	r2, r2, #3
8780133c:	ba00000e 	blt	8780137c <__umodsi3+0x8c>
87801340:	e1500001 	cmp	r0, r1
87801344:	20400001 	subcs	r0, r0, r1
87801348:	e15000a1 	cmp	r0, r1, lsr #1
8780134c:	204000a1 	subcs	r0, r0, r1, lsr #1
87801350:	e1500121 	cmp	r0, r1, lsr #2
87801354:	20400121 	subcs	r0, r0, r1, lsr #2
87801358:	e15001a1 	cmp	r0, r1, lsr #3
8780135c:	204001a1 	subcs	r0, r0, r1, lsr #3
87801360:	e3500001 	cmp	r0, #1
87801364:	e1a01221 	lsr	r1, r1, #4
87801368:	a2522004 	subsge	r2, r2, #4
8780136c:	aafffff3 	bge	87801340 <__umodsi3+0x50>
87801370:	e3120003 	tst	r2, #3
87801374:	13300000 	teqne	r0, #0
87801378:	0a00000a 	beq	878013a8 <__umodsi3+0xb8>
8780137c:	e3720002 	cmn	r2, #2
87801380:	ba000006 	blt	878013a0 <__umodsi3+0xb0>
87801384:	0a000002 	beq	87801394 <__umodsi3+0xa4>
87801388:	e1500001 	cmp	r0, r1
8780138c:	20400001 	subcs	r0, r0, r1
87801390:	e1a010a1 	lsr	r1, r1, #1
87801394:	e1500001 	cmp	r0, r1
87801398:	20400001 	subcs	r0, r0, r1
8780139c:	e1a010a1 	lsr	r1, r1, #1
878013a0:	e1500001 	cmp	r0, r1
878013a4:	20400001 	subcs	r0, r0, r1
878013a8:	e1a0f00e 	mov	pc, lr
878013ac:	90909090 	umullsls	r9, r0, r0, r0

878013b0 <__modsi3>:
878013b0:	e3510000 	cmp	r1, #0
878013b4:	0a000032 	beq	87801484 <Ldiv0>
878013b8:	42611000 	rsbmi	r1, r1, #0
878013bc:	e1b0c000 	movs	ip, r0
878013c0:	42600000 	rsbmi	r0, r0, #0
878013c4:	e2512001 	subs	r2, r1, #1
878013c8:	11500001 	cmpne	r0, r1
878013cc:	03a00000 	moveq	r0, #0
878013d0:	81110002 	tsthi	r1, r2
878013d4:	00000002 	andeq	r0, r0, r2
878013d8:	9a000026 	bls	87801478 <__modsi3+0xc8>
878013dc:	e3a02000 	mov	r2, #0
878013e0:	e3510201 	cmp	r1, #268435456	; 0x10000000
878013e4:	31510000 	cmpcc	r1, r0
878013e8:	31a01201 	lslcc	r1, r1, #4
878013ec:	32822004 	addcc	r2, r2, #4
878013f0:	3afffffa 	bcc	878013e0 <__modsi3+0x30>
878013f4:	e3510102 	cmp	r1, #-2147483648	; 0x80000000
878013f8:	31510000 	cmpcc	r1, r0
878013fc:	31a01081 	lslcc	r1, r1, #1
87801400:	32822001 	addcc	r2, r2, #1
87801404:	3afffffa 	bcc	878013f4 <__modsi3+0x44>
87801408:	e2522003 	subs	r2, r2, #3
8780140c:	ba00000e 	blt	8780144c <__modsi3+0x9c>
87801410:	e1500001 	cmp	r0, r1
87801414:	20400001 	subcs	r0, r0, r1
87801418:	e15000a1 	cmp	r0, r1, lsr #1
8780141c:	204000a1 	subcs	r0, r0, r1, lsr #1
87801420:	e1500121 	cmp	r0, r1, lsr #2
87801424:	20400121 	subcs	r0, r0, r1, lsr #2
87801428:	e15001a1 	cmp	r0, r1, lsr #3
8780142c:	204001a1 	subcs	r0, r0, r1, lsr #3
87801430:	e3500001 	cmp	r0, #1
87801434:	e1a01221 	lsr	r1, r1, #4
87801438:	a2522004 	subsge	r2, r2, #4
8780143c:	aafffff3 	bge	87801410 <__modsi3+0x60>
87801440:	e3120003 	tst	r2, #3
87801444:	13300000 	teqne	r0, #0
87801448:	0a00000a 	beq	87801478 <__modsi3+0xc8>
8780144c:	e3720002 	cmn	r2, #2
87801450:	ba000006 	blt	87801470 <__modsi3+0xc0>
87801454:	0a000002 	beq	87801464 <__modsi3+0xb4>
87801458:	e1500001 	cmp	r0, r1
8780145c:	20400001 	subcs	r0, r0, r1
87801460:	e1a010a1 	lsr	r1, r1, #1
87801464:	e1500001 	cmp	r0, r1
87801468:	20400001 	subcs	r0, r0, r1
8780146c:	e1a010a1 	lsr	r1, r1, #1
87801470:	e1500001 	cmp	r0, r1
87801474:	20400001 	subcs	r0, r0, r1
87801478:	e35c0000 	cmp	ip, #0
8780147c:	42600000 	rsbmi	r0, r0, #0
87801480:	e1a0f00e 	mov	pc, lr

87801484 <Ldiv0>:
87801484:	e52de004 	push	{lr}		; (str lr, [sp, #-4]!)
87801488:	e3a00000 	mov	r0, #0
8780148c:	e49df004 	pop	{pc}		; (ldr pc, [sp], #4)

87801490 <Reset_Handler>:
87801490:	f10c0080 	cpsid	i
87801494:	ee110f10 	mrc	15, 0, r0, cr1, cr0, {0}
87801498:	e3c00a01 	bic	r0, r0, #4096	; 0x1000
8780149c:	e3c00004 	bic	r0, r0, #4
878014a0:	e3c00002 	bic	r0, r0, #2
878014a4:	e3c00b02 	bic	r0, r0, #2048	; 0x800
878014a8:	e3c00001 	bic	r0, r0, #1
878014ac:	ee010f10 	mcr	15, 0, r0, cr1, cr0, {0}
878014b0:	f1020012 	cps	#18
878014b4:	e59fd064 	ldr	sp, [pc, #100]	; 87801520 <Reset_Handler+0x90>
878014b8:	f102001f 	cps	#31
878014bc:	e59fd060 	ldr	sp, [pc, #96]	; 87801524 <Reset_Handler+0x94>
878014c0:	f1020013 	cps	#19
878014c4:	e59fd058 	ldr	sp, [pc, #88]	; 87801524 <Reset_Handler+0x94>
878014c8:	f1080080 	cpsie	i
878014cc:	e59f1054 	ldr	r1, [pc, #84]	; 87801528 <Reset_Handler+0x98>
878014d0:	e59f2054 	ldr	r2, [pc, #84]	; 8780152c <Reset_Handler+0x9c>
878014d4:	e59f3054 	ldr	r3, [pc, #84]	; 87801530 <Reset_Handler+0xa0>
878014d8:	e1520003 	cmp	r2, r3
878014dc:	b4910004 	ldrlt	r0, [r1], #4
878014e0:	b4820004 	strlt	r0, [r2], #4
878014e4:	bafffffb 	blt	878014d8 <Reset_Handler+0x48>
878014e8:	e59f2044 	ldr	r2, [pc, #68]	; 87801534 <Reset_Handler+0xa4>
878014ec:	e59f3044 	ldr	r3, [pc, #68]	; 87801538 <Reset_Handler+0xa8>
878014f0:	e1520003 	cmp	r2, r3
878014f4:	b4910004 	ldrlt	r0, [r1], #4
878014f8:	b4820004 	strlt	r0, [r2], #4
878014fc:	bafffffb 	blt	878014f0 <Reset_Handler+0x60>
87801500:	e59f1034 	ldr	r1, [pc, #52]	; 8780153c <Reset_Handler+0xac>
87801504:	e59f2034 	ldr	r2, [pc, #52]	; 87801540 <Reset_Handler+0xb0>
87801508:	e3b00000 	movs	r0, #0
8780150c:	e1510002 	cmp	r1, r2
87801510:	b4810004 	strlt	r0, [r1], #4
87801514:	bafffffc 	blt	8780150c <Reset_Handler+0x7c>
87801518:	e59f0024 	ldr	r0, [pc, #36]	; 87801544 <Reset_Handler+0xb4>
8780151c:	e12fff10 	bx	r0
87801520:	88400000 	stmdahi	r0, {}^	; <UNPREDICTABLE>
87801524:	883fe000 	ldmdahi	pc!, {sp, lr, pc}	; <UNPREDICTABLE>
87801528:	8780a60c 	strhi	sl, [r0, ip, lsl #12]
8780152c:	88000000 	stmdahi	r0, {}	; <UNPREDICTABLE>
87801530:	8800011c 	stmdahi	r0, {r2, r3, r4, r8}
87801534:	00900000 	addseq	r0, r0, r0
87801538:	00900000 	addseq	r0, r0, r0
8780153c:	8800011c 	stmdahi	r0, {r2, r3, r4, r8}
87801540:	8801a230 	stmdahi	r1, {r4, r5, r9, sp, pc}
87801544:	8780a0ed 	strhi	sl, [r0, sp, ror #1]

87801548 <Undefined_Handler>:
87801548:	eafffffe 	b	87801548 <Undefined_Handler>

8780154c <SVC_Handler>:
8780154c:	e59f006c 	ldr	r0, [pc, #108]	; 878015c0 <FIQ_Handler+0x8>
87801550:	e12fff10 	bx	r0

87801554 <PrefAbort_Handler>:
87801554:	e59f0068 	ldr	r0, [pc, #104]	; 878015c4 <FIQ_Handler+0xc>
87801558:	e12fff10 	bx	r0

8780155c <DataAbort_Handler>:
8780155c:	e59f0064 	ldr	r0, [pc, #100]	; 878015c8 <FIQ_Handler+0x10>
87801560:	e12fff10 	bx	r0

87801564 <IRQ_Handler>:
87801564:	e52de004 	push	{lr}		; (str lr, [sp, #-4]!)
87801568:	e92d100f 	push	{r0, r1, r2, r3, ip}
8780156c:	e14f0000 	mrs	r0, SPSR
87801570:	e52d0004 	push	{r0}		; (str r0, [sp, #-4]!)
87801574:	ee9f1f10 	mrc	15, 4, r1, cr15, cr0, {0}
87801578:	e2811a02 	add	r1, r1, #8192	; 0x2000
8780157c:	e591000c 	ldr	r0, [r1, #12]
87801580:	e92d0003 	push	{r0, r1}
87801584:	f1020013 	cps	#19
87801588:	e52de004 	push	{lr}		; (str lr, [sp, #-4]!)
8780158c:	e59f2038 	ldr	r2, [pc, #56]	; 878015cc <FIQ_Handler+0x14>
87801590:	e12fff32 	blx	r2
87801594:	e49de004 	pop	{lr}		; (ldr lr, [sp], #4)
87801598:	f1020012 	cps	#18
8780159c:	e8bd0003 	pop	{r0, r1}
878015a0:	e5810010 	str	r0, [r1, #16]
878015a4:	e49d0004 	pop	{r0}		; (ldr r0, [sp], #4)
878015a8:	e16ff000 	msr	SPSR_fsxc, r0
878015ac:	e8bd100f 	pop	{r0, r1, r2, r3, ip}
878015b0:	e49de004 	pop	{lr}		; (ldr lr, [sp], #4)
878015b4:	e25ef004 	subs	pc, lr, #4

878015b8 <FIQ_Handler>:
878015b8:	e59f0010 	ldr	r0, [pc, #16]	; 878015d0 <FIQ_Handler+0x18>
878015bc:	e12fff10 	bx	r0
878015c0:	8780154c 	strhi	r1, [r0, ip, asr #10]
878015c4:	87801554 			; <UNDEFINED> instruction: 0x87801554
878015c8:	8780155c 			; <UNDEFINED> instruction: 0x8780155c
878015cc:	878096e5 	strhi	r9, [r0, r5, ror #13]
878015d0:	878015b8 			; <UNDEFINED> instruction: 0x878015b8

878015d4 <prvCheckTask>:
878015d4:	f24a 1380 	movw	r3, #41344	; 0xa180
878015d8:	e92d 4ff0 	stmdb	sp!, {r4, r5, r6, r7, r8, r9, sl, fp, lr}
878015dc:	f2c8 7380 	movt	r3, #34688	; 0x8780
878015e0:	b08f      	sub	sp, #60	; 0x3c
878015e2:	f24a 2224 	movw	r2, #41508	; 0xa224
878015e6:	f240 0000 	movw	r0, #0
878015ea:	930a      	str	r3, [sp, #40]	; 0x28
878015ec:	f6c8 0000 	movt	r0, #34816	; 0x8800
878015f0:	f8dd e028 	ldr.w	lr, [sp, #40]	; 0x28
878015f4:	f2c8 7280 	movt	r2, #34688	; 0x8780
878015f8:	9009      	str	r0, [sp, #36]	; 0x24
878015fa:	f24a 13fc 	movw	r3, #41468	; 0xa1fc
878015fe:	9204      	str	r2, [sp, #16]
87801600:	f24a 2178 	movw	r1, #41592	; 0xa278
87801604:	f24a 26bc 	movw	r6, #41660	; 0xa2bc
87801608:	f24a 24e8 	movw	r4, #41704	; 0xa2e8
8780160c:	f24a 3714 	movw	r7, #41748	; 0xa314
87801610:	f24a 353c 	movw	r5, #41788	; 0xa33c
87801614:	f24a 224c 	movw	r2, #41548	; 0xa24c
87801618:	f24a 2098 	movw	r0, #41624	; 0xa298
8780161c:	f2c8 7380 	movt	r3, #34688	; 0x8780
87801620:	f2c8 7280 	movt	r2, #34688	; 0x8780
87801624:	f2c8 7180 	movt	r1, #34688	; 0x8780
87801628:	f2c8 7080 	movt	r0, #34688	; 0x8780
8780162c:	f2c8 7680 	movt	r6, #34688	; 0x8780
87801630:	f2c8 7480 	movt	r4, #34688	; 0x8780
87801634:	f2c8 7780 	movt	r7, #34688	; 0x8780
87801638:	f2c8 7580 	movt	r5, #34688	; 0x8780
8780163c:	9303      	str	r3, [sp, #12]
8780163e:	46f1      	mov	r9, lr
87801640:	9607      	str	r6, [sp, #28]
87801642:	46f0      	mov	r8, lr
87801644:	9408      	str	r4, [sp, #32]
87801646:	f24a 1bac 	movw	fp, #41388	; 0xa1ac
8780164a:	9701      	str	r7, [sp, #4]
8780164c:	f2c8 7b80 	movt	fp, #34688	; 0x8780
87801650:	9502      	str	r5, [sp, #8]
87801652:	f24a 1ad8 	movw	sl, #41432	; 0xa1d8
87801656:	920b      	str	r2, [sp, #44]	; 0x2c
87801658:	465f      	mov	r7, fp
8780165a:	9105      	str	r1, [sp, #20]
8780165c:	f2c8 7a80 	movt	sl, #34688	; 0x8780
87801660:	9006      	str	r0, [sp, #24]
87801662:	ae0e      	add	r6, sp, #56	; 0x38
87801664:	f004 fdc2 	bl	878061ec <xTaskGetTickCount>
87801668:	9b0b      	ldr	r3, [sp, #44]	; 0x2c
8780166a:	9c09      	ldr	r4, [sp, #36]	; 0x24
8780166c:	9d0a      	ldr	r5, [sp, #40]	; 0x28
8780166e:	469b      	mov	fp, r3
87801670:	f846 0d04 	str.w	r0, [r6, #-4]!
87801674:	f640 31b8 	movw	r1, #3000	; 0xbb8
87801678:	4630      	mov	r0, r6
8780167a:	f004 feb5 	bl	878063e8 <vTaskDelayUntil>
8780167e:	f000 fb83 	bl	87801d88 <xAreDynamicPriorityTasksStillRunning>
87801682:	2801      	cmp	r0, #1
87801684:	bf18      	it	ne
87801686:	6027      	strne	r7, [r4, #0]
87801688:	f003 f968 	bl	8780495c <xAreBlockingQueuesStillRunning>
8780168c:	2801      	cmp	r0, #1
8780168e:	bf18      	it	ne
87801690:	f8c4 a000 	strne.w	sl, [r4]
87801694:	f000 fa20 	bl	87801ad8 <xAreBlockTimeTestTasksStillRunning>
87801698:	2801      	cmp	r0, #1
8780169a:	bf1c      	itt	ne
8780169c:	9b03      	ldrne	r3, [sp, #12]
8780169e:	6023      	strne	r3, [r4, #0]
878016a0:	f001 fb5c 	bl	87802d5c <xAreGenericQueueTasksStillRunning>
878016a4:	2801      	cmp	r0, #1
878016a6:	bf1c      	itt	ne
878016a8:	9b04      	ldrne	r3, [sp, #16]
878016aa:	6023      	strne	r3, [r4, #0]
878016ac:	f002 fff4 	bl	87804698 <xAreRecursiveMutexTasksStillRunning>
878016b0:	2801      	cmp	r0, #1
878016b2:	bf18      	it	ne
878016b4:	f8c4 b000 	strne.w	fp, [r4]
878016b8:	f002 feca 	bl	87804450 <xIsCreateTaskStillRunning>
878016bc:	2801      	cmp	r0, #1
878016be:	bf1c      	itt	ne
878016c0:	9b05      	ldrne	r3, [sp, #20]
878016c2:	6023      	strne	r3, [r4, #0]
878016c4:	f001 fc46 	bl	87802f54 <xAreSemaphoreTasksStillRunning>
878016c8:	2801      	cmp	r0, #1
878016ca:	f640 30b8 	movw	r0, #3000	; 0xbb8
878016ce:	bf1c      	itt	ne
878016d0:	9b06      	ldrne	r3, [sp, #24]
878016d2:	6023      	strne	r3, [r4, #0]
878016d4:	f000 fece 	bl	87802474 <xAreTimerDemoTasksStillRunning>
878016d8:	2801      	cmp	r0, #1
878016da:	bf1c      	itt	ne
878016dc:	9b07      	ldrne	r3, [sp, #28]
878016de:	6023      	strne	r3, [r4, #0]
878016e0:	f003 fc34 	bl	87804f4c <xAreCountingSemaphoreTasksStillRunning>
878016e4:	2801      	cmp	r0, #1
878016e6:	bf1c      	itt	ne
878016e8:	9b08      	ldrne	r3, [sp, #32]
878016ea:	6023      	strne	r3, [r4, #0]
878016ec:	f002 f83c 	bl	87803768 <xIsQueueOverwriteTaskStillRunning>
878016f0:	2801      	cmp	r0, #1
878016f2:	bf1c      	itt	ne
878016f4:	9b01      	ldrne	r3, [sp, #4]
878016f6:	6023      	strne	r3, [r4, #0]
878016f8:	f001 ff9e 	bl	87803638 <xAreEventGroupTasksStillRunning>
878016fc:	2801      	cmp	r0, #1
878016fe:	bf1c      	itt	ne
87801700:	9b02      	ldrne	r3, [sp, #8]
87801702:	6023      	strne	r3, [r4, #0]
87801704:	f002 fe08 	bl	87804318 <xAreTaskNotificationTasksStillRunning>
87801708:	2801      	cmp	r0, #1
8780170a:	f24a 3064 	movw	r0, #41828	; 0xa364
8780170e:	bf0c      	ite	eq
87801710:	6821      	ldreq	r1, [r4, #0]
87801712:	4641      	movne	r1, r8
87801714:	f2c8 7080 	movt	r0, #34688	; 0x8780
87801718:	bf1c      	itt	ne
8780171a:	6025      	strne	r5, [r4, #0]
8780171c:	464d      	movne	r5, r9
8780171e:	f006 f9e3 	bl	87807ae8 <printf>
87801722:	e7a7      	b.n	87801674 <prvCheckTask+0xa0>

87801724 <main_full>:
87801724:	b500      	push	{lr}
87801726:	2400      	movs	r4, #0
87801728:	b083      	sub	sp, #12
8780172a:	2207      	movs	r2, #7
8780172c:	f24a 3170 	movw	r1, #41840	; 0xa370
87801730:	f241 50d5 	movw	r0, #5589	; 0x15d5
87801734:	4623      	mov	r3, r4
87801736:	f2c8 7180 	movt	r1, #34688	; 0x8780
8780173a:	9200      	str	r2, [sp, #0]
8780173c:	f2c8 7080 	movt	r0, #34688	; 0x8780
87801740:	225a      	movs	r2, #90	; 0x5a
87801742:	9401      	str	r4, [sp, #4]
87801744:	f004 fa9e 	bl	87805c84 <xTaskCreate>
87801748:	f000 fabc 	bl	87801cc4 <vStartDynamicPriorityTasks>
8780174c:	2002      	movs	r0, #2
8780174e:	f003 f85d 	bl	8780480c <vStartBlockingQueueTasks>
87801752:	f000 f98b 	bl	87801a6c <vCreateBlockTimeTasks>
87801756:	f003 fbab 	bl	87804eb0 <vStartCountingSemaphoreTasks>
8780175a:	4620      	mov	r0, r4
8780175c:	f001 faa0 	bl	87802ca0 <vStartGenericQueueTasks>
87801760:	f002 ff58 	bl	87804614 <vStartRecursiveMutexTasks>
87801764:	2001      	movs	r0, #1
87801766:	f001 fb6f 	bl	87802e48 <vStartSemaphoreTasks>
8780176a:	2032      	movs	r0, #50	; 0x32
8780176c:	f000 fdac 	bl	878022c8 <vStartTimerDemoTask>
87801770:	4620      	mov	r0, r4
87801772:	f001 ffdb 	bl	8780372c <vStartQueueOverwriteTask>
87801776:	f001 fed3 	bl	87803520 <vStartEventGroupTasks>
8780177a:	f002 fd6d 	bl	87804258 <vStartTaskNotifyTask>
8780177e:	f004 fce9 	bl	87806154 <vTaskStartScheduler>
87801782:	e7fe      	b.n	87801782 <main_full+0x5e>

87801784 <vSecondaryBlockTimeTestTask>:
87801784:	b5f0      	push	{r4, r5, r6, r7, lr}
87801786:	f240 1424 	movw	r4, #292	; 0x124
8780178a:	b083      	sub	sp, #12
8780178c:	f6c8 0400 	movt	r4, #34816	; 0x8800
87801790:	2700      	movs	r7, #0
87801792:	2655      	movs	r6, #85	; 0x55
87801794:	2000      	movs	r0, #0
87801796:	f004 fedd 	bl	87806554 <vTaskSuspend>
8780179a:	f004 fd27 	bl	878061ec <xTaskGetTickCount>
8780179e:	2300      	movs	r3, #0
878017a0:	4605      	mov	r5, r0
878017a2:	22af      	movs	r2, #175	; 0xaf
878017a4:	6860      	ldr	r0, [r4, #4]
878017a6:	a901      	add	r1, sp, #4
878017a8:	9701      	str	r7, [sp, #4]
878017aa:	6026      	str	r6, [r4, #0]
878017ac:	f003 fcdc 	bl	87805168 <xQueueGenericSend>
878017b0:	b108      	cbz	r0, 878017b6 <vSecondaryBlockTimeTestTask+0x32>
878017b2:	2301      	movs	r3, #1
878017b4:	60a3      	str	r3, [r4, #8]
878017b6:	f004 fd19 	bl	878061ec <xTaskGetTickCount>
878017ba:	1b40      	subs	r0, r0, r5
878017bc:	28ae      	cmp	r0, #174	; 0xae
878017be:	d901      	bls.n	878017c4 <vSecondaryBlockTimeTestTask+0x40>
878017c0:	28be      	cmp	r0, #190	; 0xbe
878017c2:	d901      	bls.n	878017c8 <vSecondaryBlockTimeTestTask+0x44>
878017c4:	2301      	movs	r3, #1
878017c6:	60a3      	str	r3, [r4, #8]
878017c8:	2000      	movs	r0, #0
878017ca:	6026      	str	r6, [r4, #0]
878017cc:	f004 fec2 	bl	87806554 <vTaskSuspend>
878017d0:	f004 fd0c 	bl	878061ec <xTaskGetTickCount>
878017d4:	2300      	movs	r3, #0
878017d6:	4605      	mov	r5, r0
878017d8:	22af      	movs	r2, #175	; 0xaf
878017da:	6860      	ldr	r0, [r4, #4]
878017dc:	a901      	add	r1, sp, #4
878017de:	6026      	str	r6, [r4, #0]
878017e0:	f003 fe2e 	bl	87805440 <xQueueGenericReceive>
878017e4:	b108      	cbz	r0, 878017ea <vSecondaryBlockTimeTestTask+0x66>
878017e6:	2301      	movs	r3, #1
878017e8:	60a3      	str	r3, [r4, #8]
878017ea:	f004 fcff 	bl	878061ec <xTaskGetTickCount>
878017ee:	1b40      	subs	r0, r0, r5
878017f0:	28ae      	cmp	r0, #174	; 0xae
878017f2:	d901      	bls.n	878017f8 <vSecondaryBlockTimeTestTask+0x74>
878017f4:	28be      	cmp	r0, #190	; 0xbe
878017f6:	d901      	bls.n	878017fc <vSecondaryBlockTimeTestTask+0x78>
878017f8:	2301      	movs	r3, #1
878017fa:	60a3      	str	r3, [r4, #8]
878017fc:	6026      	str	r6, [r4, #0]
878017fe:	68e3      	ldr	r3, [r4, #12]
87801800:	3301      	adds	r3, #1
87801802:	60e3      	str	r3, [r4, #12]
87801804:	e7c6      	b.n	87801794 <vSecondaryBlockTimeTestTask+0x10>
87801806:	bf00      	nop

87801808 <vPrimaryBlockTimeTestTask>:
87801808:	e92d 47f0 	stmdb	sp!, {r4, r5, r6, r7, r8, r9, sl, lr}
8780180c:	f240 1424 	movw	r4, #292	; 0x124
87801810:	b084      	sub	sp, #16
87801812:	f6c8 0400 	movt	r4, #34816	; 0x8800
87801816:	f04f 0800 	mov.w	r8, #0
8780181a:	2601      	movs	r6, #1
8780181c:	270a      	movs	r7, #10
8780181e:	2106      	movs	r1, #6
87801820:	2000      	movs	r0, #0
87801822:	f004 fbb7 	bl	87805f94 <vTaskPrioritySet>
87801826:	f004 fce1 	bl	878061ec <xTaskGetTickCount>
8780182a:	4605      	mov	r5, r0
8780182c:	20af      	movs	r0, #175	; 0xaf
8780182e:	f004 fe19 	bl	87806464 <vTaskDelay>
87801832:	f004 fcdb 	bl	878061ec <xTaskGetTickCount>
87801836:	1b40      	subs	r0, r0, r5
87801838:	f240 1a77 	movw	sl, #375	; 0x177
8780183c:	28b6      	cmp	r0, #182	; 0xb6
8780183e:	f04f 0500 	mov.w	r5, #0
87801842:	bf88      	it	hi
87801844:	60a6      	strhi	r6, [r4, #8]
87801846:	f004 fcd1 	bl	878061ec <xTaskGetTickCount>
8780184a:	4681      	mov	r9, r0
8780184c:	9003      	str	r0, [sp, #12]
8780184e:	214b      	movs	r1, #75	; 0x4b
87801850:	a803      	add	r0, sp, #12
87801852:	f004 fdc9 	bl	878063e8 <vTaskDelayUntil>
87801856:	f004 fcc9 	bl	878061ec <xTaskGetTickCount>
8780185a:	eba0 0009 	sub.w	r0, r0, r9
8780185e:	1b40      	subs	r0, r0, r5
87801860:	354b      	adds	r5, #75	; 0x4b
87801862:	28b6      	cmp	r0, #182	; 0xb6
87801864:	bf88      	it	hi
87801866:	60a6      	strhi	r6, [r4, #8]
87801868:	4555      	cmp	r5, sl
8780186a:	6923      	ldr	r3, [r4, #16]
8780186c:	f103 0301 	add.w	r3, r3, #1
87801870:	6123      	str	r3, [r4, #16]
87801872:	d1ec      	bne.n	8780184e <vPrimaryBlockTimeTestTask+0x46>
87801874:	2105      	movs	r1, #5
87801876:	2000      	movs	r0, #0
87801878:	f004 fb8c 	bl	87805f94 <vTaskPrioritySet>
8780187c:	2200      	movs	r2, #0
8780187e:	f8cd 8004 	str.w	r8, [sp, #4]
87801882:	fa07 f902 	lsl.w	r9, r7, r2
87801886:	f004 fcb1 	bl	878061ec <xTaskGetTickCount>
8780188a:	464a      	mov	r2, r9
8780188c:	4605      	mov	r5, r0
8780188e:	2300      	movs	r3, #0
87801890:	6860      	ldr	r0, [r4, #4]
87801892:	a902      	add	r1, sp, #8
87801894:	f003 fdd4 	bl	87805440 <xQueueGenericReceive>
87801898:	b100      	cbz	r0, 8780189c <vPrimaryBlockTimeTestTask+0x94>
8780189a:	60a6      	str	r6, [r4, #8]
8780189c:	f004 fca6 	bl	878061ec <xTaskGetTickCount>
878018a0:	9a01      	ldr	r2, [sp, #4]
878018a2:	1b40      	subs	r0, r0, r5
878018a4:	4581      	cmp	r9, r0
878018a6:	f109 030f 	add.w	r3, r9, #15
878018aa:	bf88      	it	hi
878018ac:	60a6      	strhi	r6, [r4, #8]
878018ae:	4298      	cmp	r0, r3
878018b0:	f102 0201 	add.w	r2, r2, #1
878018b4:	bf88      	it	hi
878018b6:	60a6      	strhi	r6, [r4, #8]
878018b8:	2a04      	cmp	r2, #4
878018ba:	9201      	str	r2, [sp, #4]
878018bc:	dde1      	ble.n	87801882 <vPrimaryBlockTimeTestTask+0x7a>
878018be:	f8cd 8004 	str.w	r8, [sp, #4]
878018c2:	2300      	movs	r3, #0
878018c4:	a901      	add	r1, sp, #4
878018c6:	461a      	mov	r2, r3
878018c8:	6860      	ldr	r0, [r4, #4]
878018ca:	f003 fc4d 	bl	87805168 <xQueueGenericSend>
878018ce:	9b01      	ldr	r3, [sp, #4]
878018d0:	2801      	cmp	r0, #1
878018d2:	bf18      	it	ne
878018d4:	60a6      	strne	r6, [r4, #8]
878018d6:	3301      	adds	r3, #1
878018d8:	2b04      	cmp	r3, #4
878018da:	9301      	str	r3, [sp, #4]
878018dc:	ddf1      	ble.n	878018c2 <vPrimaryBlockTimeTestTask+0xba>
878018de:	2200      	movs	r2, #0
878018e0:	f8cd 8004 	str.w	r8, [sp, #4]
878018e4:	fa07 f902 	lsl.w	r9, r7, r2
878018e8:	f004 fc80 	bl	878061ec <xTaskGetTickCount>
878018ec:	464a      	mov	r2, r9
878018ee:	4605      	mov	r5, r0
878018f0:	2300      	movs	r3, #0
878018f2:	6860      	ldr	r0, [r4, #4]
878018f4:	a901      	add	r1, sp, #4
878018f6:	f003 fc37 	bl	87805168 <xQueueGenericSend>
878018fa:	b100      	cbz	r0, 878018fe <vPrimaryBlockTimeTestTask+0xf6>
878018fc:	60a6      	str	r6, [r4, #8]
878018fe:	f004 fc75 	bl	878061ec <xTaskGetTickCount>
87801902:	9a01      	ldr	r2, [sp, #4]
87801904:	1b40      	subs	r0, r0, r5
87801906:	4581      	cmp	r9, r0
87801908:	f109 030f 	add.w	r3, r9, #15
8780190c:	bf88      	it	hi
8780190e:	60a6      	strhi	r6, [r4, #8]
87801910:	4298      	cmp	r0, r3
87801912:	f102 0201 	add.w	r2, r2, #1
87801916:	bf88      	it	hi
87801918:	60a6      	strhi	r6, [r4, #8]
8780191a:	2a04      	cmp	r2, #4
8780191c:	9201      	str	r2, [sp, #4]
8780191e:	dde1      	ble.n	878018e4 <vPrimaryBlockTimeTestTask+0xdc>
87801920:	6960      	ldr	r0, [r4, #20]
87801922:	f8c4 8000 	str.w	r8, [r4]
87801926:	f004 fb97 	bl	87806058 <vTaskResume>
8780192a:	6823      	ldr	r3, [r4, #0]
8780192c:	2b55      	cmp	r3, #85	; 0x55
8780192e:	d005      	beq.n	8780193c <vPrimaryBlockTimeTestTask+0x134>
87801930:	2014      	movs	r0, #20
87801932:	f004 fd97 	bl	87806464 <vTaskDelay>
87801936:	6823      	ldr	r3, [r4, #0]
87801938:	2b55      	cmp	r3, #85	; 0x55
8780193a:	d1f9      	bne.n	87801930 <vPrimaryBlockTimeTestTask+0x128>
8780193c:	2014      	movs	r0, #20
8780193e:	f004 fd91 	bl	87806464 <vTaskDelay>
87801942:	f8c4 8000 	str.w	r8, [r4]
87801946:	f8cd 8004 	str.w	r8, [sp, #4]
8780194a:	2300      	movs	r3, #0
8780194c:	a902      	add	r1, sp, #8
8780194e:	461a      	mov	r2, r3
87801950:	6860      	ldr	r0, [r4, #4]
87801952:	f003 fd75 	bl	87805440 <xQueueGenericReceive>
87801956:	2300      	movs	r3, #0
87801958:	2801      	cmp	r0, #1
8780195a:	461a      	mov	r2, r3
8780195c:	a901      	add	r1, sp, #4
8780195e:	6860      	ldr	r0, [r4, #4]
87801960:	bf18      	it	ne
87801962:	60a6      	strne	r6, [r4, #8]
87801964:	f003 fc00 	bl	87805168 <xQueueGenericSend>
87801968:	2801      	cmp	r0, #1
8780196a:	f04f 0107 	mov.w	r1, #7
8780196e:	bf18      	it	ne
87801970:	60a6      	strne	r6, [r4, #8]
87801972:	6823      	ldr	r3, [r4, #0]
87801974:	6960      	ldr	r0, [r4, #20]
87801976:	2b55      	cmp	r3, #85	; 0x55
87801978:	bf08      	it	eq
8780197a:	60a6      	streq	r6, [r4, #8]
8780197c:	f004 fb0a 	bl	87805f94 <vTaskPrioritySet>
87801980:	6823      	ldr	r3, [r4, #0]
87801982:	2104      	movs	r1, #4
87801984:	6960      	ldr	r0, [r4, #20]
87801986:	2b55      	cmp	r3, #85	; 0x55
87801988:	bf08      	it	eq
8780198a:	60a6      	streq	r6, [r4, #8]
8780198c:	f004 fb02 	bl	87805f94 <vTaskPrioritySet>
87801990:	9b01      	ldr	r3, [sp, #4]
87801992:	3301      	adds	r3, #1
87801994:	2b04      	cmp	r3, #4
87801996:	9301      	str	r3, [sp, #4]
87801998:	ddd7      	ble.n	8780194a <vPrimaryBlockTimeTestTask+0x142>
8780199a:	6823      	ldr	r3, [r4, #0]
8780199c:	2b55      	cmp	r3, #85	; 0x55
8780199e:	d005      	beq.n	878019ac <vPrimaryBlockTimeTestTask+0x1a4>
878019a0:	2014      	movs	r0, #20
878019a2:	f004 fd5f 	bl	87806464 <vTaskDelay>
878019a6:	6823      	ldr	r3, [r4, #0]
878019a8:	2b55      	cmp	r3, #85	; 0x55
878019aa:	d1f9      	bne.n	878019a0 <vPrimaryBlockTimeTestTask+0x198>
878019ac:	2014      	movs	r0, #20
878019ae:	f004 fd59 	bl	87806464 <vTaskDelay>
878019b2:	f8c4 8000 	str.w	r8, [r4]
878019b6:	f8cd 8004 	str.w	r8, [sp, #4]
878019ba:	2300      	movs	r3, #0
878019bc:	a902      	add	r1, sp, #8
878019be:	461a      	mov	r2, r3
878019c0:	6860      	ldr	r0, [r4, #4]
878019c2:	f003 fd3d 	bl	87805440 <xQueueGenericReceive>
878019c6:	9b01      	ldr	r3, [sp, #4]
878019c8:	2801      	cmp	r0, #1
878019ca:	bf18      	it	ne
878019cc:	60a6      	strne	r6, [r4, #8]
878019ce:	3301      	adds	r3, #1
878019d0:	2b04      	cmp	r3, #4
878019d2:	9301      	str	r3, [sp, #4]
878019d4:	ddf1      	ble.n	878019ba <vPrimaryBlockTimeTestTask+0x1b2>
878019d6:	6960      	ldr	r0, [r4, #20]
878019d8:	f004 fb3e 	bl	87806058 <vTaskResume>
878019dc:	6823      	ldr	r3, [r4, #0]
878019de:	2b55      	cmp	r3, #85	; 0x55
878019e0:	d005      	beq.n	878019ee <vPrimaryBlockTimeTestTask+0x1e6>
878019e2:	2014      	movs	r0, #20
878019e4:	f004 fd3e 	bl	87806464 <vTaskDelay>
878019e8:	6823      	ldr	r3, [r4, #0]
878019ea:	2b55      	cmp	r3, #85	; 0x55
878019ec:	d1f9      	bne.n	878019e2 <vPrimaryBlockTimeTestTask+0x1da>
878019ee:	2014      	movs	r0, #20
878019f0:	f004 fd38 	bl	87806464 <vTaskDelay>
878019f4:	f8c4 8000 	str.w	r8, [r4]
878019f8:	f8cd 8004 	str.w	r8, [sp, #4]
878019fc:	2300      	movs	r3, #0
878019fe:	a901      	add	r1, sp, #4
87801a00:	461a      	mov	r2, r3
87801a02:	6860      	ldr	r0, [r4, #4]
87801a04:	f003 fbb0 	bl	87805168 <xQueueGenericSend>
87801a08:	2300      	movs	r3, #0
87801a0a:	2801      	cmp	r0, #1
87801a0c:	461a      	mov	r2, r3
87801a0e:	a902      	add	r1, sp, #8
87801a10:	6860      	ldr	r0, [r4, #4]
87801a12:	bf18      	it	ne
87801a14:	60a6      	strne	r6, [r4, #8]
87801a16:	f003 fd13 	bl	87805440 <xQueueGenericReceive>
87801a1a:	2801      	cmp	r0, #1
87801a1c:	f04f 0107 	mov.w	r1, #7
87801a20:	bf18      	it	ne
87801a22:	60a6      	strne	r6, [r4, #8]
87801a24:	6823      	ldr	r3, [r4, #0]
87801a26:	6960      	ldr	r0, [r4, #20]
87801a28:	2b55      	cmp	r3, #85	; 0x55
87801a2a:	bf08      	it	eq
87801a2c:	60a6      	streq	r6, [r4, #8]
87801a2e:	f004 fab1 	bl	87805f94 <vTaskPrioritySet>
87801a32:	6823      	ldr	r3, [r4, #0]
87801a34:	2104      	movs	r1, #4
87801a36:	6960      	ldr	r0, [r4, #20]
87801a38:	2b55      	cmp	r3, #85	; 0x55
87801a3a:	bf08      	it	eq
87801a3c:	60a6      	streq	r6, [r4, #8]
87801a3e:	f004 faa9 	bl	87805f94 <vTaskPrioritySet>
87801a42:	9b01      	ldr	r3, [sp, #4]
87801a44:	3301      	adds	r3, #1
87801a46:	2b04      	cmp	r3, #4
87801a48:	9301      	str	r3, [sp, #4]
87801a4a:	ddd7      	ble.n	878019fc <vPrimaryBlockTimeTestTask+0x1f4>
87801a4c:	6823      	ldr	r3, [r4, #0]
87801a4e:	2b55      	cmp	r3, #85	; 0x55
87801a50:	d005      	beq.n	87801a5e <vPrimaryBlockTimeTestTask+0x256>
87801a52:	2014      	movs	r0, #20
87801a54:	f004 fd06 	bl	87806464 <vTaskDelay>
87801a58:	6823      	ldr	r3, [r4, #0]
87801a5a:	2b55      	cmp	r3, #85	; 0x55
87801a5c:	d1f9      	bne.n	87801a52 <vPrimaryBlockTimeTestTask+0x24a>
87801a5e:	2014      	movs	r0, #20
87801a60:	f004 fd00 	bl	87806464 <vTaskDelay>
87801a64:	6923      	ldr	r3, [r4, #16]
87801a66:	3301      	adds	r3, #1
87801a68:	6123      	str	r3, [r4, #16]
87801a6a:	e6d8      	b.n	8780181e <vPrimaryBlockTimeTestTask+0x16>

87801a6c <vCreateBlockTimeTasks>:
87801a6c:	b530      	push	{r4, r5, lr}
87801a6e:	f240 1424 	movw	r4, #292	; 0x124
87801a72:	b083      	sub	sp, #12
87801a74:	2200      	movs	r2, #0
87801a76:	2104      	movs	r1, #4
87801a78:	2005      	movs	r0, #5
87801a7a:	f6c8 0400 	movt	r4, #34816	; 0x8800
87801a7e:	f003 fb41 	bl	87805104 <xQueueGenericCreate>
87801a82:	6060      	str	r0, [r4, #4]
87801a84:	b328      	cbz	r0, 87801ad2 <vCreateBlockTimeTasks+0x66>
87801a86:	f24a 3198 	movw	r1, #41880	; 0xa398
87801a8a:	2500      	movs	r5, #0
87801a8c:	f2c8 7180 	movt	r1, #34688	; 0x8780
87801a90:	3414      	adds	r4, #20
87801a92:	f003 fe77 	bl	87805784 <vQueueAddToRegistry>
87801a96:	2205      	movs	r2, #5
87801a98:	f24a 31ac 	movw	r1, #41900	; 0xa3ac
87801a9c:	f641 0009 	movw	r0, #6153	; 0x1809
87801aa0:	462b      	mov	r3, r5
87801aa2:	9200      	str	r2, [sp, #0]
87801aa4:	f2c8 7180 	movt	r1, #34688	; 0x8780
87801aa8:	225a      	movs	r2, #90	; 0x5a
87801aaa:	9501      	str	r5, [sp, #4]
87801aac:	f2c8 7080 	movt	r0, #34688	; 0x8780
87801ab0:	f004 f8e8 	bl	87805c84 <xTaskCreate>
87801ab4:	2204      	movs	r2, #4
87801ab6:	f24a 31b4 	movw	r1, #41908	; 0xa3b4
87801aba:	f241 7085 	movw	r0, #6021	; 0x1785
87801abe:	e88d 0014 	stmia.w	sp, {r2, r4}
87801ac2:	462b      	mov	r3, r5
87801ac4:	f2c8 7180 	movt	r1, #34688	; 0x8780
87801ac8:	f2c8 7080 	movt	r0, #34688	; 0x8780
87801acc:	225a      	movs	r2, #90	; 0x5a
87801ace:	f004 f8d9 	bl	87805c84 <xTaskCreate>
87801ad2:	b003      	add	sp, #12
87801ad4:	bd30      	pop	{r4, r5, pc}
87801ad6:	bf00      	nop

87801ad8 <xAreBlockTimeTestTasksStillRunning>:
87801ad8:	f240 1324 	movw	r3, #292	; 0x124
87801adc:	b410      	push	{r4}
87801ade:	f6c8 0300 	movt	r3, #34816	; 0x8800
87801ae2:	6918      	ldr	r0, [r3, #16]
87801ae4:	69da      	ldr	r2, [r3, #28]
87801ae6:	68d9      	ldr	r1, [r3, #12]
87801ae8:	699c      	ldr	r4, [r3, #24]
87801aea:	4291      	cmp	r1, r2
87801aec:	bf08      	it	eq
87801aee:	2000      	moveq	r0, #0
87801af0:	d002      	beq.n	87801af8 <xAreBlockTimeTestTasksStillRunning+0x20>
87801af2:	1b00      	subs	r0, r0, r4
87801af4:	bf18      	it	ne
87801af6:	2001      	movne	r0, #1
87801af8:	689c      	ldr	r4, [r3, #8]
87801afa:	68d9      	ldr	r1, [r3, #12]
87801afc:	691a      	ldr	r2, [r3, #16]
87801afe:	2c01      	cmp	r4, #1
87801b00:	f85d 4b04 	ldr.w	r4, [sp], #4
87801b04:	bf08      	it	eq
87801b06:	2000      	moveq	r0, #0
87801b08:	61d9      	str	r1, [r3, #28]
87801b0a:	619a      	str	r2, [r3, #24]
87801b0c:	4770      	bx	lr
87801b0e:	bf00      	nop

87801b10 <vQueueReceiveWhenSuspendedTask>:
87801b10:	b5f0      	push	{r4, r5, r6, r7, lr}
87801b12:	f24a 16d8 	movw	r6, #41432	; 0xa1d8
87801b16:	f240 1544 	movw	r5, #324	; 0x144
87801b1a:	b083      	sub	sp, #12
87801b1c:	f6c8 0601 	movt	r6, #34817	; 0x8801
87801b20:	f6c8 0500 	movt	r5, #34816	; 0x8800
87801b24:	2701      	movs	r7, #1
87801b26:	f004 fb57 	bl	878061d8 <vTaskSuspendAll>
87801b2a:	f004 fb55 	bl	878061d8 <vTaskSuspendAll>
87801b2e:	2300      	movs	r3, #0
87801b30:	a901      	add	r1, sp, #4
87801b32:	461a      	mov	r2, r3
87801b34:	6830      	ldr	r0, [r6, #0]
87801b36:	f003 fc83 	bl	87805440 <xQueueGenericReceive>
87801b3a:	4604      	mov	r4, r0
87801b3c:	f004 fbee 	bl	8780631c <xTaskResumeAll>
87801b40:	b100      	cbz	r0, 87801b44 <vQueueReceiveWhenSuspendedTask+0x34>
87801b42:	602f      	str	r7, [r5, #0]
87801b44:	f004 fbea 	bl	8780631c <xTaskResumeAll>
87801b48:	2c00      	cmp	r4, #0
87801b4a:	d0ec      	beq.n	87801b26 <vQueueReceiveWhenSuspendedTask+0x16>
87801b4c:	686b      	ldr	r3, [r5, #4]
87801b4e:	9a01      	ldr	r2, [sp, #4]
87801b50:	429a      	cmp	r2, r3
87801b52:	bf18      	it	ne
87801b54:	602f      	strne	r7, [r5, #0]
87801b56:	682a      	ldr	r2, [r5, #0]
87801b58:	2a01      	cmp	r2, #1
87801b5a:	bf1c      	itt	ne
87801b5c:	3301      	addne	r3, #1
87801b5e:	606b      	strne	r3, [r5, #4]
87801b60:	e7e1      	b.n	87801b26 <vQueueReceiveWhenSuspendedTask+0x16>
87801b62:	bf00      	nop

87801b64 <vQueueSendWhenSuspendedTask>:
87801b64:	f240 1444 	movw	r4, #324	; 0x144
87801b68:	f24a 15d8 	movw	r5, #41432	; 0xa1d8
87801b6c:	f6c8 0400 	movt	r4, #34816	; 0x8800
87801b70:	b580      	push	{r7, lr}
87801b72:	f6c8 0501 	movt	r5, #34817	; 0x8801
87801b76:	f104 0608 	add.w	r6, r4, #8
87801b7a:	2701      	movs	r7, #1
87801b7c:	f004 fb2c 	bl	878061d8 <vTaskSuspendAll>
87801b80:	2300      	movs	r3, #0
87801b82:	4631      	mov	r1, r6
87801b84:	461a      	mov	r2, r3
87801b86:	6828      	ldr	r0, [r5, #0]
87801b88:	f003 faee 	bl	87805168 <xQueueGenericSend>
87801b8c:	2801      	cmp	r0, #1
87801b8e:	bf18      	it	ne
87801b90:	60e7      	strne	r7, [r4, #12]
87801b92:	f004 fbc3 	bl	8780631c <xTaskResumeAll>
87801b96:	2080      	movs	r0, #128	; 0x80
87801b98:	f004 fc64 	bl	87806464 <vTaskDelay>
87801b9c:	68a3      	ldr	r3, [r4, #8]
87801b9e:	3301      	adds	r3, #1
87801ba0:	60a3      	str	r3, [r4, #8]
87801ba2:	e7eb      	b.n	87801b7c <vQueueSendWhenSuspendedTask+0x18>

87801ba4 <vLimitedIncrementTask>:
87801ba4:	b510      	push	{r4, lr}
87801ba6:	4604      	mov	r4, r0
87801ba8:	2000      	movs	r0, #0
87801baa:	f004 fcd3 	bl	87806554 <vTaskSuspend>
87801bae:	6823      	ldr	r3, [r4, #0]
87801bb0:	3301      	adds	r3, #1
87801bb2:	2bfe      	cmp	r3, #254	; 0xfe
87801bb4:	d9fc      	bls.n	87801bb0 <vLimitedIncrementTask+0xc>
87801bb6:	6023      	str	r3, [r4, #0]
87801bb8:	2000      	movs	r0, #0
87801bba:	f004 fccb 	bl	87806554 <vTaskSuspend>
87801bbe:	e7f6      	b.n	87801bae <vLimitedIncrementTask+0xa>

87801bc0 <vCounterControlTask>:
87801bc0:	e92d 43f8 	stmdb	sp!, {r3, r4, r5, r6, r7, r8, r9, lr}
87801bc4:	2600      	movs	r6, #0
87801bc6:	f240 1444 	movw	r4, #324	; 0x144
87801bca:	46b0      	mov	r8, r6
87801bcc:	f6c8 0400 	movt	r4, #34816	; 0x8800
87801bd0:	2505      	movs	r5, #5
87801bd2:	f8c4 8010 	str.w	r8, [r4, #16]
87801bd6:	6960      	ldr	r0, [r4, #20]
87801bd8:	f004 fcbc 	bl	87806554 <vTaskSuspend>
87801bdc:	6960      	ldr	r0, [r4, #20]
87801bde:	f004 f97f 	bl	87805ee0 <eTaskGetState>
87801be2:	2803      	cmp	r0, #3
87801be4:	d136      	bne.n	87801c54 <vCounterControlTask+0x94>
87801be6:	6960      	ldr	r0, [r4, #20]
87801be8:	f8d4 9010 	ldr.w	r9, [r4, #16]
87801bec:	f004 fa34 	bl	87806058 <vTaskResume>
87801bf0:	6960      	ldr	r0, [r4, #20]
87801bf2:	f004 f975 	bl	87805ee0 <eTaskGetState>
87801bf6:	4607      	mov	r7, r0
87801bf8:	2080      	movs	r0, #128	; 0x80
87801bfa:	2f01      	cmp	r7, #1
87801bfc:	d127      	bne.n	87801c4e <vCounterControlTask+0x8e>
87801bfe:	3d01      	subs	r5, #1
87801c00:	f004 fc30 	bl	87806464 <vTaskDelay>
87801c04:	b2ad      	uxth	r5, r5
87801c06:	f004 fae7 	bl	878061d8 <vTaskSuspendAll>
87801c0a:	6923      	ldr	r3, [r4, #16]
87801c0c:	4599      	cmp	r9, r3
87801c0e:	bf08      	it	eq
87801c10:	2601      	moveq	r6, #1
87801c12:	f004 fb83 	bl	8780631c <xTaskResumeAll>
87801c16:	2d00      	cmp	r5, #0
87801c18:	d1dd      	bne.n	87801bd6 <vCounterControlTask+0x16>
87801c1a:	6960      	ldr	r0, [r4, #20]
87801c1c:	f004 fc9a 	bl	87806554 <vTaskSuspend>
87801c20:	69a0      	ldr	r0, [r4, #24]
87801c22:	6125      	str	r5, [r4, #16]
87801c24:	f004 f95c 	bl	87805ee0 <eTaskGetState>
87801c28:	2803      	cmp	r0, #3
87801c2a:	d121      	bne.n	87801c70 <vCounterControlTask+0xb0>
87801c2c:	69a0      	ldr	r0, [r4, #24]
87801c2e:	f004 fa13 	bl	87806058 <vTaskResume>
87801c32:	69a0      	ldr	r0, [r4, #24]
87801c34:	f004 f954 	bl	87805ee0 <eTaskGetState>
87801c38:	2803      	cmp	r0, #3
87801c3a:	d11c      	bne.n	87801c76 <vCounterControlTask+0xb6>
87801c3c:	6923      	ldr	r3, [r4, #16]
87801c3e:	2bff      	cmp	r3, #255	; 0xff
87801c40:	bf18      	it	ne
87801c42:	463e      	movne	r6, r7
87801c44:	d009      	beq.n	87801c5a <vCounterControlTask+0x9a>
87801c46:	6960      	ldr	r0, [r4, #20]
87801c48:	f004 fa06 	bl	87806058 <vTaskResume>
87801c4c:	e7c0      	b.n	87801bd0 <vCounterControlTask+0x10>
87801c4e:	f005 fdb9 	bl	878077c4 <ulPortSetInterruptMask>
87801c52:	e7fe      	b.n	87801c52 <vCounterControlTask+0x92>
87801c54:	f005 fdb6 	bl	878077c4 <ulPortSetInterruptMask>
87801c58:	e7fe      	b.n	87801c58 <vCounterControlTask+0x98>
87801c5a:	2e00      	cmp	r6, #0
87801c5c:	d1f3      	bne.n	87801c46 <vCounterControlTask+0x86>
87801c5e:	f005 fd2f 	bl	878076c0 <vPortEnterCritical>
87801c62:	8ba3      	ldrh	r3, [r4, #28]
87801c64:	3301      	adds	r3, #1
87801c66:	b29b      	uxth	r3, r3
87801c68:	83a3      	strh	r3, [r4, #28]
87801c6a:	f005 fd6b 	bl	87807744 <vPortExitCritical>
87801c6e:	e7ea      	b.n	87801c46 <vCounterControlTask+0x86>
87801c70:	f005 fda8 	bl	878077c4 <ulPortSetInterruptMask>
87801c74:	e7fe      	b.n	87801c74 <vCounterControlTask+0xb4>
87801c76:	f005 fda5 	bl	878077c4 <ulPortSetInterruptMask>
87801c7a:	e7fe      	b.n	87801c7a <vCounterControlTask+0xba>

87801c7c <vContinuousIncrementTask>:
87801c7c:	b570      	push	{r4, r5, r6, lr}
87801c7e:	4606      	mov	r6, r0
87801c80:	2000      	movs	r0, #0
87801c82:	f004 f95d 	bl	87805f40 <uxTaskPriorityGet>
87801c86:	4604      	mov	r4, r0
87801c88:	1c45      	adds	r5, r0, #1
87801c8a:	e009      	b.n	87801ca0 <vContinuousIncrementTask+0x24>
87801c8c:	6833      	ldr	r3, [r6, #0]
87801c8e:	3301      	adds	r3, #1
87801c90:	6033      	str	r3, [r6, #0]
87801c92:	f004 f97f 	bl	87805f94 <vTaskPrioritySet>
87801c96:	2000      	movs	r0, #0
87801c98:	f004 f952 	bl	87805f40 <uxTaskPriorityGet>
87801c9c:	4284      	cmp	r4, r0
87801c9e:	d10e      	bne.n	87801cbe <vContinuousIncrementTask+0x42>
87801ca0:	4629      	mov	r1, r5
87801ca2:	2000      	movs	r0, #0
87801ca4:	f004 f976 	bl	87805f94 <vTaskPrioritySet>
87801ca8:	2000      	movs	r0, #0
87801caa:	f004 f949 	bl	87805f40 <uxTaskPriorityGet>
87801cae:	42a8      	cmp	r0, r5
87801cb0:	4621      	mov	r1, r4
87801cb2:	f04f 0000 	mov.w	r0, #0
87801cb6:	d0e9      	beq.n	87801c8c <vContinuousIncrementTask+0x10>
87801cb8:	f005 fd84 	bl	878077c4 <ulPortSetInterruptMask>
87801cbc:	e7fe      	b.n	87801cbc <vContinuousIncrementTask+0x40>
87801cbe:	f005 fd81 	bl	878077c4 <ulPortSetInterruptMask>
87801cc2:	e7fe      	b.n	87801cc2 <vContinuousIncrementTask+0x46>

87801cc4 <vStartDynamicPriorityTasks>:
87801cc4:	b530      	push	{r4, r5, lr}
87801cc6:	2200      	movs	r2, #0
87801cc8:	b083      	sub	sp, #12
87801cca:	2104      	movs	r1, #4
87801ccc:	2001      	movs	r0, #1
87801cce:	f003 fa19 	bl	87805104 <xQueueGenericCreate>
87801cd2:	f24a 13d8 	movw	r3, #41432	; 0xa1d8
87801cd6:	f6c8 0301 	movt	r3, #34817	; 0x8801
87801cda:	6018      	str	r0, [r3, #0]
87801cdc:	2800      	cmp	r0, #0
87801cde:	d04f      	beq.n	87801d80 <vStartDynamicPriorityTasks+0xbc>
87801ce0:	4d28      	ldr	r5, [pc, #160]	; (87801d84 <vStartDynamicPriorityTasks+0xc0>)
87801ce2:	f24a 31bc 	movw	r1, #41916	; 0xa3bc
87801ce6:	f2c8 7180 	movt	r1, #34688	; 0x8780
87801cea:	2400      	movs	r4, #0
87801cec:	f003 fd4a 	bl	87805784 <vQueueAddToRegistry>
87801cf0:	f24a 31d4 	movw	r1, #41940	; 0xa3d4
87801cf4:	f641 407d 	movw	r0, #7293	; 0x1c7d
87801cf8:	1f2b      	subs	r3, r5, #4
87801cfa:	f2c8 7180 	movt	r1, #34688	; 0x8780
87801cfe:	225a      	movs	r2, #90	; 0x5a
87801d00:	9501      	str	r5, [sp, #4]
87801d02:	9400      	str	r4, [sp, #0]
87801d04:	f2c8 7080 	movt	r0, #34688	; 0x8780
87801d08:	f003 ffbc 	bl	87805c84 <xTaskCreate>
87801d0c:	1d2b      	adds	r3, r5, #4
87801d0e:	2201      	movs	r2, #1
87801d10:	f24a 31dc 	movw	r1, #41948	; 0xa3dc
87801d14:	f641 30a5 	movw	r0, #7077	; 0x1ba5
87801d18:	9301      	str	r3, [sp, #4]
87801d1a:	f2c8 7180 	movt	r1, #34688	; 0x8780
87801d1e:	1f2b      	subs	r3, r5, #4
87801d20:	9200      	str	r2, [sp, #0]
87801d22:	f2c8 7080 	movt	r0, #34688	; 0x8780
87801d26:	225a      	movs	r2, #90	; 0x5a
87801d28:	f003 ffac 	bl	87805c84 <xTaskCreate>
87801d2c:	f24a 31e4 	movw	r1, #41956	; 0xa3e4
87801d30:	f641 30c1 	movw	r0, #7105	; 0x1bc1
87801d34:	4623      	mov	r3, r4
87801d36:	f2c8 7180 	movt	r1, #34688	; 0x8780
87801d3a:	225a      	movs	r2, #90	; 0x5a
87801d3c:	9401      	str	r4, [sp, #4]
87801d3e:	9400      	str	r4, [sp, #0]
87801d40:	f2c8 7080 	movt	r0, #34688	; 0x8780
87801d44:	f003 ff9e 	bl	87805c84 <xTaskCreate>
87801d48:	f24a 31ec 	movw	r1, #41964	; 0xa3ec
87801d4c:	f641 3065 	movw	r0, #7013	; 0x1b65
87801d50:	4623      	mov	r3, r4
87801d52:	f2c8 7180 	movt	r1, #34688	; 0x8780
87801d56:	225a      	movs	r2, #90	; 0x5a
87801d58:	9401      	str	r4, [sp, #4]
87801d5a:	9400      	str	r4, [sp, #0]
87801d5c:	f2c8 7080 	movt	r0, #34688	; 0x8780
87801d60:	f003 ff90 	bl	87805c84 <xTaskCreate>
87801d64:	f24a 31f4 	movw	r1, #41972	; 0xa3f4
87801d68:	f641 3011 	movw	r0, #6929	; 0x1b11
87801d6c:	9401      	str	r4, [sp, #4]
87801d6e:	4623      	mov	r3, r4
87801d70:	9400      	str	r4, [sp, #0]
87801d72:	f2c8 7180 	movt	r1, #34688	; 0x8780
87801d76:	f2c8 7080 	movt	r0, #34688	; 0x8780
87801d7a:	225a      	movs	r2, #90	; 0x5a
87801d7c:	f003 ff82 	bl	87805c84 <xTaskCreate>
87801d80:	b003      	add	sp, #12
87801d82:	bd30      	pop	{r4, r5, pc}
87801d84:	88000158 	stmdahi	r0, {r3, r4, r6, r8}

87801d88 <xAreDynamicPriorityTasksStillRunning>:
87801d88:	f240 1344 	movw	r3, #324	; 0x144
87801d8c:	b430      	push	{r4, r5}
87801d8e:	f6c8 0300 	movt	r3, #34816	; 0x8800
87801d92:	685a      	ldr	r2, [r3, #4]
87801d94:	6a19      	ldr	r1, [r3, #32]
87801d96:	8b98      	ldrh	r0, [r3, #28]
87801d98:	8bdc      	ldrh	r4, [r3, #30]
87801d9a:	428a      	cmp	r2, r1
87801d9c:	bf08      	it	eq
87801d9e:	2000      	moveq	r0, #0
87801da0:	d003      	beq.n	87801daa <xAreDynamicPriorityTasksStillRunning+0x22>
87801da2:	b280      	uxth	r0, r0
87801da4:	1b00      	subs	r0, r0, r4
87801da6:	bf18      	it	ne
87801da8:	2001      	movne	r0, #1
87801daa:	68dd      	ldr	r5, [r3, #12]
87801dac:	681c      	ldr	r4, [r3, #0]
87801dae:	8b99      	ldrh	r1, [r3, #28]
87801db0:	2d01      	cmp	r5, #1
87801db2:	621a      	str	r2, [r3, #32]
87801db4:	bf08      	it	eq
87801db6:	2000      	moveq	r0, #0
87801db8:	2c01      	cmp	r4, #1
87801dba:	bf08      	it	eq
87801dbc:	2000      	moveq	r0, #0
87801dbe:	83d9      	strh	r1, [r3, #30]
87801dc0:	bc30      	pop	{r4, r5}
87801dc2:	4770      	bx	lr

87801dc4 <prvISRAutoReloadTimerCallback>:
87801dc4:	f240 1368 	movw	r3, #360	; 0x168
87801dc8:	f6c8 0300 	movt	r3, #34816	; 0x8800
87801dcc:	781a      	ldrb	r2, [r3, #0]
87801dce:	3201      	adds	r2, #1
87801dd0:	701a      	strb	r2, [r3, #0]
87801dd2:	4770      	bx	lr

87801dd4 <prvISROneShotTimerCallback>:
87801dd4:	f240 1368 	movw	r3, #360	; 0x168
87801dd8:	f6c8 0300 	movt	r3, #34816	; 0x8800
87801ddc:	785a      	ldrb	r2, [r3, #1]
87801dde:	3201      	adds	r2, #1
87801de0:	705a      	strb	r2, [r3, #1]
87801de2:	4770      	bx	lr

87801de4 <prvAutoReloadTimerCallback>:
87801de4:	b508      	push	{r3, lr}
87801de6:	f005 faa3 	bl	87807330 <pvTimerGetTimerID>
87801dea:	280b      	cmp	r0, #11
87801dec:	d908      	bls.n	87801e00 <prvAutoReloadTimerCallback+0x1c>
87801dee:	f240 0304 	movw	r3, #4
87801df2:	2200      	movs	r2, #0
87801df4:	f6c8 0300 	movt	r3, #34816	; 0x8800
87801df8:	601a      	str	r2, [r3, #0]
87801dfa:	681b      	ldr	r3, [r3, #0]
87801dfc:	b14b      	cbz	r3, 87801e12 <prvAutoReloadTimerCallback+0x2e>
87801dfe:	bd08      	pop	{r3, pc}
87801e00:	f240 1368 	movw	r3, #360	; 0x168
87801e04:	f6c8 0300 	movt	r3, #34816	; 0x8800
87801e08:	4403      	add	r3, r0
87801e0a:	791a      	ldrb	r2, [r3, #4]
87801e0c:	3201      	adds	r2, #1
87801e0e:	711a      	strb	r2, [r3, #4]
87801e10:	bd08      	pop	{r3, pc}
87801e12:	f005 fcd7 	bl	878077c4 <ulPortSetInterruptMask>
87801e16:	e7fe      	b.n	87801e16 <prvAutoReloadTimerCallback+0x32>

87801e18 <prvOneShotTimerCallback>:
87801e18:	b538      	push	{r3, r4, r5, lr}
87801e1a:	f240 1468 	movw	r4, #360	; 0x168
87801e1e:	f6c8 0400 	movt	r4, #34816	; 0x8800
87801e22:	4605      	mov	r5, r0
87801e24:	f005 fa84 	bl	87807330 <pvTimerGetTimerID>
87801e28:	6923      	ldr	r3, [r4, #16]
87801e2a:	4298      	cmp	r0, r3
87801e2c:	d002      	beq.n	87801e34 <prvOneShotTimerCallback+0x1c>
87801e2e:	f005 fcc9 	bl	878077c4 <ulPortSetInterruptMask>
87801e32:	e7fe      	b.n	87801e32 <prvOneShotTimerCallback+0x1a>
87801e34:	1c41      	adds	r1, r0, #1
87801e36:	4628      	mov	r0, r5
87801e38:	f005 fa88 	bl	8780734c <vTimerSetTimerID>
87801e3c:	6922      	ldr	r2, [r4, #16]
87801e3e:	7d23      	ldrb	r3, [r4, #20]
87801e40:	3201      	adds	r2, #1
87801e42:	3301      	adds	r3, #1
87801e44:	6122      	str	r2, [r4, #16]
87801e46:	7523      	strb	r3, [r4, #20]
87801e48:	bd38      	pop	{r3, r4, r5, pc}
87801e4a:	bf00      	nop

87801e4c <prvTimerTestTask>:
87801e4c:	f240 1568 	movw	r5, #360	; 0x168
87801e50:	f641 6219 	movw	r2, #7705	; 0x1e19
87801e54:	f6c8 0500 	movt	r5, #34816	; 0x8800
87801e58:	e92d 4880 	stmdb	sp!, {r7, fp, lr}
87801e5c:	69a9      	ldr	r1, [r5, #24]
87801e5e:	b087      	sub	sp, #28
87801e60:	f2c8 7280 	movt	r2, #34688	; 0x8780
87801e64:	2300      	movs	r3, #0
87801e66:	f24a 30fc 	movw	r0, #41980	; 0xa3fc
87801e6a:	9200      	str	r2, [sp, #0]
87801e6c:	f2c8 7080 	movt	r0, #34688	; 0x8780
87801e70:	461a      	mov	r2, r3
87801e72:	eb01 0141 	add.w	r1, r1, r1, lsl #1
87801e76:	f240 0404 	movw	r4, #4
87801e7a:	f6c8 0400 	movt	r4, #34816	; 0x8800
87801e7e:	f005 f8d3 	bl	87807028 <xTimerCreate>
87801e82:	61e8      	str	r0, [r5, #28]
87801e84:	2800      	cmp	r0, #0
87801e86:	f000 8164 	beq.w	87802152 <prvTimerTestTask+0x306>
87801e8a:	4b88      	ldr	r3, [pc, #544]	; (878020ac <prvTimerTestTask+0x260>)
87801e8c:	f103 0628 	add.w	r6, r3, #40	; 0x28
87801e90:	469a      	mov	sl, r3
87801e92:	f85a 0b04 	ldr.w	r0, [sl], #4
87801e96:	f005 fa3b 	bl	87807310 <xTimerIsTimerActive>
87801e9a:	b920      	cbnz	r0, 87801ea6 <prvTimerTestTask+0x5a>
87801e9c:	6020      	str	r0, [r4, #0]
87801e9e:	6823      	ldr	r3, [r4, #0]
87801ea0:	2b00      	cmp	r3, #0
87801ea2:	f000 8161 	beq.w	87802168 <prvTimerTestTask+0x31c>
87801ea6:	4556      	cmp	r6, sl
87801ea8:	d1f3      	bne.n	87801e92 <prvTimerTestTask+0x46>
87801eaa:	6ca8      	ldr	r0, [r5, #72]	; 0x48
87801eac:	f005 fa30 	bl	87807310 <xTimerIsTimerActive>
87801eb0:	b128      	cbz	r0, 87801ebe <prvTimerTestTask+0x72>
87801eb2:	2300      	movs	r3, #0
87801eb4:	6023      	str	r3, [r4, #0]
87801eb6:	6823      	ldr	r3, [r4, #0]
87801eb8:	2b00      	cmp	r3, #0
87801eba:	f000 8147 	beq.w	8780214c <prvTimerTestTask+0x300>
87801ebe:	2600      	movs	r6, #0
87801ec0:	f8cd a010 	str.w	sl, [sp, #16]
87801ec4:	46b3      	mov	fp, r6
87801ec6:	2000      	movs	r0, #0
87801ec8:	f04f 080a 	mov.w	r8, #10
87801ecc:	f004 f838 	bl	87805f40 <uxTaskPriorityGet>
87801ed0:	2107      	movs	r1, #7
87801ed2:	9003      	str	r0, [sp, #12]
87801ed4:	2000      	movs	r0, #0
87801ed6:	f8df 91dc 	ldr.w	r9, [pc, #476]	; 878020b4 <prvTimerTestTask+0x268>
87801eda:	f004 f85b 	bl	87805f94 <vTaskPrioritySet>
87801ede:	69ab      	ldr	r3, [r5, #24]
87801ee0:	464f      	mov	r7, r9
87801ee2:	fb08 f803 	mul.w	r8, r8, r3
87801ee6:	4640      	mov	r0, r8
87801ee8:	f004 fabc 	bl	87806464 <vTaskDelay>
87801eec:	69aa      	ldr	r2, [r5, #24]
87801eee:	9505      	str	r5, [sp, #20]
87801ef0:	4625      	mov	r5, r4
87801ef2:	4692      	mov	sl, r2
87801ef4:	4614      	mov	r4, r2
87801ef6:	4651      	mov	r1, sl
87801ef8:	4640      	mov	r0, r8
87801efa:	f007 ff11 	bl	87809d20 <__aeabi_uidiv>
87801efe:	f817 eb01 	ldrb.w	lr, [r7], #1
87801f02:	b2c0      	uxtb	r0, r0
87801f04:	44a2      	add	sl, r4
87801f06:	1e42      	subs	r2, r0, #1
87801f08:	b2d1      	uxtb	r1, r2
87801f0a:	4570      	cmp	r0, lr
87801f0c:	bf2c      	ite	cs
87801f0e:	2200      	movcs	r2, #0
87801f10:	2201      	movcc	r2, #1
87801f12:	4571      	cmp	r1, lr
87801f14:	bf88      	it	hi
87801f16:	f042 0201 	orrhi.w	r2, r2, #1
87801f1a:	b122      	cbz	r2, 87801f26 <prvTimerTestTask+0xda>
87801f1c:	602e      	str	r6, [r5, #0]
87801f1e:	682a      	ldr	r2, [r5, #0]
87801f20:	2a00      	cmp	r2, #0
87801f22:	f000 811e 	beq.w	87802162 <prvTimerTestTask+0x316>
87801f26:	4b62      	ldr	r3, [pc, #392]	; (878020b0 <prvTimerTestTask+0x264>)
87801f28:	42bb      	cmp	r3, r7
87801f2a:	d1e4      	bne.n	87801ef6 <prvTimerTestTask+0xaa>
87801f2c:	462c      	mov	r4, r5
87801f2e:	9903      	ldr	r1, [sp, #12]
87801f30:	2000      	movs	r0, #0
87801f32:	9d05      	ldr	r5, [sp, #20]
87801f34:	f004 f82e 	bl	87805f94 <vTaskPrioritySet>
87801f38:	6823      	ldr	r3, [r4, #0]
87801f3a:	f8df 8170 	ldr.w	r8, [pc, #368]	; 878020ac <prvTimerTestTask+0x260>
87801f3e:	2b01      	cmp	r3, #1
87801f40:	bf02      	ittt	eq
87801f42:	6ceb      	ldreq	r3, [r5, #76]	; 0x4c
87801f44:	3301      	addeq	r3, #1
87801f46:	64eb      	streq	r3, [r5, #76]	; 0x4c
87801f48:	f8d8 0000 	ldr.w	r0, [r8]
87801f4c:	46c2      	mov	sl, r8
87801f4e:	f005 f9df 	bl	87807310 <xTimerIsTimerActive>
87801f52:	b920      	cbnz	r0, 87801f5e <prvTimerTestTask+0x112>
87801f54:	6020      	str	r0, [r4, #0]
87801f56:	6823      	ldr	r3, [r4, #0]
87801f58:	2b00      	cmp	r3, #0
87801f5a:	f000 8108 	beq.w	8780216e <prvTimerTestTask+0x322>
87801f5e:	2300      	movs	r3, #0
87801f60:	f858 0b04 	ldr.w	r0, [r8], #4
87801f64:	461a      	mov	r2, r3
87801f66:	f8cd b000 	str.w	fp, [sp]
87801f6a:	2103      	movs	r1, #3
87801f6c:	f005 f87a 	bl	87807064 <xTimerGenericCommand>
87801f70:	f8da 0000 	ldr.w	r0, [sl]
87801f74:	f005 f9cc 	bl	87807310 <xTimerIsTimerActive>
87801f78:	b120      	cbz	r0, 87801f84 <prvTimerTestTask+0x138>
87801f7a:	6026      	str	r6, [r4, #0]
87801f7c:	6823      	ldr	r3, [r4, #0]
87801f7e:	2b00      	cmp	r3, #0
87801f80:	f000 8186 	beq.w	87802290 <prvTimerTestTask+0x444>
87801f84:	9b04      	ldr	r3, [sp, #16]
87801f86:	4543      	cmp	r3, r8
87801f88:	d1de      	bne.n	87801f48 <prvTimerTestTask+0xfc>
87801f8a:	f005 fb99 	bl	878076c0 <vPortEnterCritical>
87801f8e:	7bab      	ldrb	r3, [r5, #14]
87801f90:	b123      	cbz	r3, 87801f9c <prvTimerTestTask+0x150>
87801f92:	6026      	str	r6, [r4, #0]
87801f94:	6823      	ldr	r3, [r4, #0]
87801f96:	2b00      	cmp	r3, #0
87801f98:	f000 8177 	beq.w	8780228a <prvTimerTestTask+0x43e>
87801f9c:	220b      	movs	r2, #11
87801f9e:	2100      	movs	r1, #0
87801fa0:	4844      	ldr	r0, [pc, #272]	; (878020b4 <prvTimerTestTask+0x268>)
87801fa2:	f005 ffd3 	bl	87807f4c <memset>
87801fa6:	f005 fbcd 	bl	87807744 <vPortExitCritical>
87801faa:	69ab      	ldr	r3, [r5, #24]
87801fac:	200a      	movs	r0, #10
87801fae:	fb00 f003 	mul.w	r0, r0, r3
87801fb2:	f004 fa57 	bl	87806464 <vTaskDelay>
87801fb6:	f819 3b01 	ldrb.w	r3, [r9], #1
87801fba:	b123      	cbz	r3, 87801fc6 <prvTimerTestTask+0x17a>
87801fbc:	6026      	str	r6, [r4, #0]
87801fbe:	6823      	ldr	r3, [r4, #0]
87801fc0:	2b00      	cmp	r3, #0
87801fc2:	f000 815f 	beq.w	87802284 <prvTimerTestTask+0x438>
87801fc6:	45b9      	cmp	r9, r7
87801fc8:	d1f5      	bne.n	87801fb6 <prvTimerTestTask+0x16a>
87801fca:	6823      	ldr	r3, [r4, #0]
87801fcc:	69e8      	ldr	r0, [r5, #28]
87801fce:	2b01      	cmp	r3, #1
87801fd0:	bf02      	ittt	eq
87801fd2:	6ceb      	ldreq	r3, [r5, #76]	; 0x4c
87801fd4:	3301      	addeq	r3, #1
87801fd6:	64eb      	streq	r3, [r5, #76]	; 0x4c
87801fd8:	f005 f99a 	bl	87807310 <xTimerIsTimerActive>
87801fdc:	b120      	cbz	r0, 87801fe8 <prvTimerTestTask+0x19c>
87801fde:	6026      	str	r6, [r4, #0]
87801fe0:	6823      	ldr	r3, [r4, #0]
87801fe2:	2b00      	cmp	r3, #0
87801fe4:	f000 814b 	beq.w	8780227e <prvTimerTestTask+0x432>
87801fe8:	7d2b      	ldrb	r3, [r5, #20]
87801fea:	b123      	cbz	r3, 87801ff6 <prvTimerTestTask+0x1aa>
87801fec:	6026      	str	r6, [r4, #0]
87801fee:	6823      	ldr	r3, [r4, #0]
87801ff0:	2b00      	cmp	r3, #0
87801ff2:	f000 8141 	beq.w	87802278 <prvTimerTestTask+0x42c>
87801ff6:	69ef      	ldr	r7, [r5, #28]
87801ff8:	f004 f8f8 	bl	878061ec <xTaskGetTickCount>
87801ffc:	f8cd b000 	str.w	fp, [sp]
87802000:	4602      	mov	r2, r0
87802002:	2300      	movs	r3, #0
87802004:	4638      	mov	r0, r7
87802006:	2101      	movs	r1, #1
87802008:	f005 f82c 	bl	87807064 <xTimerGenericCommand>
8780200c:	69e8      	ldr	r0, [r5, #28]
8780200e:	f005 f97f 	bl	87807310 <xTimerIsTimerActive>
87802012:	b920      	cbnz	r0, 8780201e <prvTimerTestTask+0x1d2>
87802014:	6020      	str	r0, [r4, #0]
87802016:	6823      	ldr	r3, [r4, #0]
87802018:	2b00      	cmp	r3, #0
8780201a:	f000 812a 	beq.w	87802272 <prvTimerTestTask+0x426>
8780201e:	69a8      	ldr	r0, [r5, #24]
87802020:	eb00 00c0 	add.w	r0, r0, r0, lsl #3
87802024:	f004 fa1e 	bl	87806464 <vTaskDelay>
87802028:	69e8      	ldr	r0, [r5, #28]
8780202a:	f005 f971 	bl	87807310 <xTimerIsTimerActive>
8780202e:	b120      	cbz	r0, 8780203a <prvTimerTestTask+0x1ee>
87802030:	6026      	str	r6, [r4, #0]
87802032:	6823      	ldr	r3, [r4, #0]
87802034:	2b00      	cmp	r3, #0
87802036:	f000 8119 	beq.w	8780226c <prvTimerTestTask+0x420>
8780203a:	7d2b      	ldrb	r3, [r5, #20]
8780203c:	2b01      	cmp	r3, #1
8780203e:	f000 8113 	beq.w	87802268 <prvTimerTestTask+0x41c>
87802042:	6026      	str	r6, [r4, #0]
87802044:	6823      	ldr	r3, [r4, #0]
87802046:	2b00      	cmp	r3, #0
87802048:	f000 8125 	beq.w	87802296 <prvTimerTestTask+0x44a>
8780204c:	6823      	ldr	r3, [r4, #0]
8780204e:	69ef      	ldr	r7, [r5, #28]
87802050:	2b01      	cmp	r3, #1
87802052:	bf02      	ittt	eq
87802054:	6ceb      	ldreq	r3, [r5, #76]	; 0x4c
87802056:	3301      	addeq	r3, #1
87802058:	64eb      	streq	r3, [r5, #76]	; 0x4c
8780205a:	f004 f8c7 	bl	878061ec <xTaskGetTickCount>
8780205e:	f8cd b000 	str.w	fp, [sp]
87802062:	4602      	mov	r2, r0
87802064:	2300      	movs	r3, #0
87802066:	4638      	mov	r0, r7
87802068:	2101      	movs	r1, #1
8780206a:	f004 fffb 	bl	87807064 <xTimerGenericCommand>
8780206e:	69e8      	ldr	r0, [r5, #28]
87802070:	f005 f94e 	bl	87807310 <xTimerIsTimerActive>
87802074:	b920      	cbnz	r0, 87802080 <prvTimerTestTask+0x234>
87802076:	6020      	str	r0, [r4, #0]
87802078:	6823      	ldr	r3, [r4, #0]
8780207a:	2b00      	cmp	r3, #0
8780207c:	f000 810e 	beq.w	8780229c <prvTimerTestTask+0x450>
87802080:	6c6f      	ldr	r7, [r5, #68]	; 0x44
87802082:	f004 f8b3 	bl	878061ec <xTaskGetTickCount>
87802086:	f8cd b000 	str.w	fp, [sp]
8780208a:	4602      	mov	r2, r0
8780208c:	2300      	movs	r3, #0
8780208e:	4638      	mov	r0, r7
87802090:	2101      	movs	r1, #1
87802092:	f004 ffe7 	bl	87807064 <xTimerGenericCommand>
87802096:	6c68      	ldr	r0, [r5, #68]	; 0x44
87802098:	f005 f93a 	bl	87807310 <xTimerIsTimerActive>
8780209c:	b920      	cbnz	r0, 878020a8 <prvTimerTestTask+0x25c>
8780209e:	6020      	str	r0, [r4, #0]
878020a0:	6823      	ldr	r3, [r4, #0]
878020a2:	2b00      	cmp	r3, #0
878020a4:	f000 80fd 	beq.w	878022a2 <prvTimerTestTask+0x456>
878020a8:	270a      	movs	r7, #10
878020aa:	e03d      	b.n	87802128 <prvTimerTestTask+0x2dc>
878020ac:	88000188 	stmdahi	r0, {r3, r7, r8}
878020b0:	88000176 	stmdahi	r0, {r1, r2, r4, r5, r6, r8}
878020b4:	8800016c 	stmdahi	r0, {r2, r3, r5, r6, r8}
878020b8:	7d2b      	ldrb	r3, [r5, #20]
878020ba:	b123      	cbz	r3, 878020c6 <prvTimerTestTask+0x27a>
878020bc:	6026      	str	r6, [r4, #0]
878020be:	6823      	ldr	r3, [r4, #0]
878020c0:	2b00      	cmp	r3, #0
878020c2:	f000 80f1 	beq.w	878022a8 <prvTimerTestTask+0x45c>
878020c6:	6c68      	ldr	r0, [r5, #68]	; 0x44
878020c8:	f005 f922 	bl	87807310 <xTimerIsTimerActive>
878020cc:	b920      	cbnz	r0, 878020d8 <prvTimerTestTask+0x28c>
878020ce:	6020      	str	r0, [r4, #0]
878020d0:	6823      	ldr	r3, [r4, #0]
878020d2:	2b00      	cmp	r3, #0
878020d4:	f000 80eb 	beq.w	878022ae <prvTimerTestTask+0x462>
878020d8:	7b6b      	ldrb	r3, [r5, #13]
878020da:	b11b      	cbz	r3, 878020e4 <prvTimerTestTask+0x298>
878020dc:	6026      	str	r6, [r4, #0]
878020de:	6823      	ldr	r3, [r4, #0]
878020e0:	2b00      	cmp	r3, #0
878020e2:	d047      	beq.n	87802174 <prvTimerTestTask+0x328>
878020e4:	f8d5 801c 	ldr.w	r8, [r5, #28]
878020e8:	3f01      	subs	r7, #1
878020ea:	f004 f87f 	bl	878061ec <xTaskGetTickCount>
878020ee:	2300      	movs	r3, #0
878020f0:	4602      	mov	r2, r0
878020f2:	2102      	movs	r1, #2
878020f4:	4640      	mov	r0, r8
878020f6:	f8cd b000 	str.w	fp, [sp]
878020fa:	f004 ffb3 	bl	87807064 <xTimerGenericCommand>
878020fe:	f8d5 8044 	ldr.w	r8, [r5, #68]	; 0x44
87802102:	f004 f873 	bl	878061ec <xTaskGetTickCount>
87802106:	2300      	movs	r3, #0
87802108:	4602      	mov	r2, r0
8780210a:	f8cd b000 	str.w	fp, [sp]
8780210e:	4640      	mov	r0, r8
87802110:	2102      	movs	r1, #2
87802112:	f004 ffa7 	bl	87807064 <xTimerGenericCommand>
87802116:	6823      	ldr	r3, [r4, #0]
87802118:	2b01      	cmp	r3, #1
8780211a:	bf02      	ittt	eq
8780211c:	6ceb      	ldreq	r3, [r5, #76]	; 0x4c
8780211e:	3301      	addeq	r3, #1
87802120:	64eb      	streq	r3, [r5, #76]	; 0x4c
87802122:	f017 07ff 	ands.w	r7, r7, #255	; 0xff
87802126:	d028      	beq.n	8780217a <prvTimerTestTask+0x32e>
87802128:	69a8      	ldr	r0, [r5, #24]
8780212a:	eb00 0040 	add.w	r0, r0, r0, lsl #1
8780212e:	0840      	lsrs	r0, r0, #1
87802130:	f004 f998 	bl	87806464 <vTaskDelay>
87802134:	69e8      	ldr	r0, [r5, #28]
87802136:	f005 f8eb 	bl	87807310 <xTimerIsTimerActive>
8780213a:	2800      	cmp	r0, #0
8780213c:	d1bc      	bne.n	878020b8 <prvTimerTestTask+0x26c>
8780213e:	6020      	str	r0, [r4, #0]
87802140:	6823      	ldr	r3, [r4, #0]
87802142:	2b00      	cmp	r3, #0
87802144:	d1b8      	bne.n	878020b8 <prvTimerTestTask+0x26c>
87802146:	f005 fb3d 	bl	878077c4 <ulPortSetInterruptMask>
8780214a:	e7fe      	b.n	8780214a <prvTimerTestTask+0x2fe>
8780214c:	f005 fb3a 	bl	878077c4 <ulPortSetInterruptMask>
87802150:	e7fe      	b.n	87802150 <prvTimerTestTask+0x304>
87802152:	6020      	str	r0, [r4, #0]
87802154:	6823      	ldr	r3, [r4, #0]
87802156:	2b00      	cmp	r3, #0
87802158:	f47f ae97 	bne.w	87801e8a <prvTimerTestTask+0x3e>
8780215c:	f005 fb32 	bl	878077c4 <ulPortSetInterruptMask>
87802160:	e7fe      	b.n	87802160 <prvTimerTestTask+0x314>
87802162:	f005 fb2f 	bl	878077c4 <ulPortSetInterruptMask>
87802166:	e7fe      	b.n	87802166 <prvTimerTestTask+0x31a>
87802168:	f005 fb2c 	bl	878077c4 <ulPortSetInterruptMask>
8780216c:	e7fe      	b.n	8780216c <prvTimerTestTask+0x320>
8780216e:	f005 fb29 	bl	878077c4 <ulPortSetInterruptMask>
87802172:	e7fe      	b.n	87802172 <prvTimerTestTask+0x326>
87802174:	f005 fb26 	bl	878077c4 <ulPortSetInterruptMask>
87802178:	e7fe      	b.n	87802178 <prvTimerTestTask+0x32c>
8780217a:	69ab      	ldr	r3, [r5, #24]
8780217c:	200a      	movs	r0, #10
8780217e:	fb00 f003 	mul.w	r0, r0, r3
87802182:	f004 f96f 	bl	87806464 <vTaskDelay>
87802186:	7d2b      	ldrb	r3, [r5, #20]
87802188:	2b01      	cmp	r3, #1
8780218a:	d004      	beq.n	87802196 <prvTimerTestTask+0x34a>
8780218c:	6027      	str	r7, [r4, #0]
8780218e:	6823      	ldr	r3, [r4, #0]
87802190:	2b00      	cmp	r3, #0
87802192:	f000 808f 	beq.w	878022b4 <prvTimerTestTask+0x468>
87802196:	7b6b      	ldrb	r3, [r5, #13]
87802198:	b923      	cbnz	r3, 878021a4 <prvTimerTestTask+0x358>
8780219a:	6023      	str	r3, [r4, #0]
8780219c:	6823      	ldr	r3, [r4, #0]
8780219e:	2b00      	cmp	r3, #0
878021a0:	f000 808b 	beq.w	878022ba <prvTimerTestTask+0x46e>
878021a4:	6c68      	ldr	r0, [r5, #68]	; 0x44
878021a6:	f005 f8b3 	bl	87807310 <xTimerIsTimerActive>
878021aa:	b918      	cbnz	r0, 878021b4 <prvTimerTestTask+0x368>
878021ac:	6020      	str	r0, [r4, #0]
878021ae:	6823      	ldr	r3, [r4, #0]
878021b0:	2b00      	cmp	r3, #0
878021b2:	d050      	beq.n	87802256 <prvTimerTestTask+0x40a>
878021b4:	69e8      	ldr	r0, [r5, #28]
878021b6:	f005 f8ab 	bl	87807310 <xTimerIsTimerActive>
878021ba:	2801      	cmp	r0, #1
878021bc:	d103      	bne.n	878021c6 <prvTimerTestTask+0x37a>
878021be:	6026      	str	r6, [r4, #0]
878021c0:	6823      	ldr	r3, [r4, #0]
878021c2:	2b00      	cmp	r3, #0
878021c4:	d04a      	beq.n	8780225c <prvTimerTestTask+0x410>
878021c6:	2300      	movs	r3, #0
878021c8:	f8cd b000 	str.w	fp, [sp]
878021cc:	461a      	mov	r2, r3
878021ce:	2103      	movs	r1, #3
878021d0:	6c68      	ldr	r0, [r5, #68]	; 0x44
878021d2:	f004 ff47 	bl	87807064 <xTimerGenericCommand>
878021d6:	6c68      	ldr	r0, [r5, #68]	; 0x44
878021d8:	f005 f89a 	bl	87807310 <xTimerIsTimerActive>
878021dc:	b118      	cbz	r0, 878021e6 <prvTimerTestTask+0x39a>
878021de:	6026      	str	r6, [r4, #0]
878021e0:	6823      	ldr	r3, [r4, #0]
878021e2:	2b00      	cmp	r3, #0
878021e4:	d03d      	beq.n	87802262 <prvTimerTestTask+0x416>
878021e6:	6823      	ldr	r3, [r4, #0]
878021e8:	736e      	strb	r6, [r5, #13]
878021ea:	752e      	strb	r6, [r5, #20]
878021ec:	2b01      	cmp	r3, #1
878021ee:	4f34      	ldr	r7, [pc, #208]	; (878022c0 <prvTimerTestTask+0x474>)
878021f0:	bf02      	ittt	eq
878021f2:	6ceb      	ldreq	r3, [r5, #76]	; 0x4c
878021f4:	3301      	addeq	r3, #1
878021f6:	64eb      	streq	r3, [r5, #76]	; 0x4c
878021f8:	e016      	b.n	87802228 <prvTimerTestTask+0x3dc>
878021fa:	f8d7 8004 	ldr.w	r8, [r7, #4]
878021fe:	f003 fff5 	bl	878061ec <xTaskGetTickCount>
87802202:	f8cd b000 	str.w	fp, [sp]
87802206:	4602      	mov	r2, r0
87802208:	2300      	movs	r3, #0
8780220a:	4640      	mov	r0, r8
8780220c:	2101      	movs	r1, #1
8780220e:	f004 ff29 	bl	87807064 <xTimerGenericCommand>
87802212:	f857 0f04 	ldr.w	r0, [r7, #4]!
87802216:	f005 f87b 	bl	87807310 <xTimerIsTimerActive>
8780221a:	b910      	cbnz	r0, 87802222 <prvTimerTestTask+0x3d6>
8780221c:	6020      	str	r0, [r4, #0]
8780221e:	6823      	ldr	r3, [r4, #0]
87802220:	b173      	cbz	r3, 87802240 <prvTimerTestTask+0x3f4>
87802222:	4b28      	ldr	r3, [pc, #160]	; (878022c4 <prvTimerTestTask+0x478>)
87802224:	42bb      	cmp	r3, r7
87802226:	d00e      	beq.n	87802246 <prvTimerTestTask+0x3fa>
87802228:	6878      	ldr	r0, [r7, #4]
8780222a:	f005 f871 	bl	87807310 <xTimerIsTimerActive>
8780222e:	2800      	cmp	r0, #0
87802230:	d0e3      	beq.n	878021fa <prvTimerTestTask+0x3ae>
87802232:	6026      	str	r6, [r4, #0]
87802234:	6823      	ldr	r3, [r4, #0]
87802236:	2b00      	cmp	r3, #0
87802238:	d1df      	bne.n	878021fa <prvTimerTestTask+0x3ae>
8780223a:	f005 fac3 	bl	878077c4 <ulPortSetInterruptMask>
8780223e:	e7fe      	b.n	8780223e <prvTimerTestTask+0x3f2>
87802240:	f005 fac0 	bl	878077c4 <ulPortSetInterruptMask>
87802244:	e7fe      	b.n	87802244 <prvTimerTestTask+0x3f8>
87802246:	6823      	ldr	r3, [r4, #0]
87802248:	2b01      	cmp	r3, #1
8780224a:	f47f ae3c 	bne.w	87801ec6 <prvTimerTestTask+0x7a>
8780224e:	6ceb      	ldr	r3, [r5, #76]	; 0x4c
87802250:	3301      	adds	r3, #1
87802252:	64eb      	str	r3, [r5, #76]	; 0x4c
87802254:	e637      	b.n	87801ec6 <prvTimerTestTask+0x7a>
87802256:	f005 fab5 	bl	878077c4 <ulPortSetInterruptMask>
8780225a:	e7fe      	b.n	8780225a <prvTimerTestTask+0x40e>
8780225c:	f005 fab2 	bl	878077c4 <ulPortSetInterruptMask>
87802260:	e7fe      	b.n	87802260 <prvTimerTestTask+0x414>
87802262:	f005 faaf 	bl	878077c4 <ulPortSetInterruptMask>
87802266:	e7fe      	b.n	87802266 <prvTimerTestTask+0x41a>
87802268:	752e      	strb	r6, [r5, #20]
8780226a:	e6ef      	b.n	8780204c <prvTimerTestTask+0x200>
8780226c:	f005 faaa 	bl	878077c4 <ulPortSetInterruptMask>
87802270:	e7fe      	b.n	87802270 <prvTimerTestTask+0x424>
87802272:	f005 faa7 	bl	878077c4 <ulPortSetInterruptMask>
87802276:	e7fe      	b.n	87802276 <prvTimerTestTask+0x42a>
87802278:	f005 faa4 	bl	878077c4 <ulPortSetInterruptMask>
8780227c:	e7fe      	b.n	8780227c <prvTimerTestTask+0x430>
8780227e:	f005 faa1 	bl	878077c4 <ulPortSetInterruptMask>
87802282:	e7fe      	b.n	87802282 <prvTimerTestTask+0x436>
87802284:	f005 fa9e 	bl	878077c4 <ulPortSetInterruptMask>
87802288:	e7fe      	b.n	87802288 <prvTimerTestTask+0x43c>
8780228a:	f005 fa9b 	bl	878077c4 <ulPortSetInterruptMask>
8780228e:	e7fe      	b.n	8780228e <prvTimerTestTask+0x442>
87802290:	f005 fa98 	bl	878077c4 <ulPortSetInterruptMask>
87802294:	e7fe      	b.n	87802294 <prvTimerTestTask+0x448>
87802296:	f005 fa95 	bl	878077c4 <ulPortSetInterruptMask>
8780229a:	e7fe      	b.n	8780229a <prvTimerTestTask+0x44e>
8780229c:	f005 fa92 	bl	878077c4 <ulPortSetInterruptMask>
878022a0:	e7fe      	b.n	878022a0 <prvTimerTestTask+0x454>
878022a2:	f005 fa8f 	bl	878077c4 <ulPortSetInterruptMask>
878022a6:	e7fe      	b.n	878022a6 <prvTimerTestTask+0x45a>
878022a8:	f005 fa8c 	bl	878077c4 <ulPortSetInterruptMask>
878022ac:	e7fe      	b.n	878022ac <prvTimerTestTask+0x460>
878022ae:	f005 fa89 	bl	878077c4 <ulPortSetInterruptMask>
878022b2:	e7fe      	b.n	878022b2 <prvTimerTestTask+0x466>
878022b4:	f005 fa86 	bl	878077c4 <ulPortSetInterruptMask>
878022b8:	e7fe      	b.n	878022b8 <prvTimerTestTask+0x46c>
878022ba:	f005 fa83 	bl	878077c4 <ulPortSetInterruptMask>
878022be:	e7fe      	b.n	878022be <prvTimerTestTask+0x472>
878022c0:	88000184 	stmdahi	r0, {r2, r7, r8}
878022c4:	880001ac 	stmdahi	r0, {r2, r3, r5, r7, r8}

878022c8 <vStartTimerDemoTask>:
878022c8:	e92d 4ff0 	stmdb	sp!, {r4, r5, r6, r7, r8, r9, sl, fp, lr}
878022cc:	f240 1768 	movw	r7, #360	; 0x168
878022d0:	f6c8 0700 	movt	r7, #34816	; 0x8800
878022d4:	b083      	sub	sp, #12
878022d6:	4683      	mov	fp, r0
878022d8:	220b      	movs	r2, #11
878022da:	2100      	movs	r1, #0
878022dc:	1d38      	adds	r0, r7, #4
878022de:	f005 fe35 	bl	87807f4c <memset>
878022e2:	f641 59e5 	movw	r9, #7653	; 0x1de5
878022e6:	f107 0020 	add.w	r0, r7, #32
878022ea:	222c      	movs	r2, #44	; 0x2c
878022ec:	2100      	movs	r1, #0
878022ee:	f240 0604 	movw	r6, #4
878022f2:	f24a 480c 	movw	r8, #41996	; 0xa40c
878022f6:	f005 fe29 	bl	87807f4c <memset>
878022fa:	f107 0520 	add.w	r5, r7, #32
878022fe:	f2c8 7980 	movt	r9, #34688	; 0x8780
87802302:	f6c8 0600 	movt	r6, #34816	; 0x8800
87802306:	f2c8 7880 	movt	r8, #34688	; 0x8780
8780230a:	2300      	movs	r3, #0
8780230c:	f8c7 b018 	str.w	fp, [r7, #24]
87802310:	e024      	b.n	8780235c <vStartTimerDemoTask+0x94>
87802312:	f004 fff5 	bl	87807300 <pcTimerGetName>
87802316:	4641      	mov	r1, r8
87802318:	f005 fcfe 	bl	87807d18 <strcmp>
8780231c:	4683      	mov	fp, r0
8780231e:	2800      	cmp	r0, #0
87802320:	f040 80a4 	bne.w	8780246c <vStartTimerDemoTask+0x1a4>
87802324:	f8d5 a000 	ldr.w	sl, [r5]
87802328:	f003 ff60 	bl	878061ec <xTaskGetTickCount>
8780232c:	f04f 33ff 	mov.w	r3, #4294967295	; 0xffffffff
87802330:	4602      	mov	r2, r0
87802332:	9300      	str	r3, [sp, #0]
87802334:	4650      	mov	r0, sl
87802336:	465b      	mov	r3, fp
87802338:	2101      	movs	r1, #1
8780233a:	f004 fe93 	bl	87807064 <xTimerGenericCommand>
8780233e:	2801      	cmp	r0, #1
87802340:	d005      	beq.n	8780234e <vStartTimerDemoTask+0x86>
87802342:	f8c6 b000 	str.w	fp, [r6]
87802346:	6833      	ldr	r3, [r6, #0]
87802348:	2b00      	cmp	r3, #0
8780234a:	f000 808c 	beq.w	87802466 <vStartTimerDemoTask+0x19e>
8780234e:	2c0a      	cmp	r4, #10
87802350:	f105 0504 	add.w	r5, r5, #4
87802354:	4623      	mov	r3, r4
87802356:	d014      	beq.n	87802382 <vStartTimerDemoTask+0xba>
87802358:	f8d7 b018 	ldr.w	fp, [r7, #24]
8780235c:	1c5c      	adds	r4, r3, #1
8780235e:	f8cd 9000 	str.w	r9, [sp]
87802362:	fb0b f104 	mul.w	r1, fp, r4
87802366:	2201      	movs	r2, #1
87802368:	4640      	mov	r0, r8
8780236a:	f004 fe5d 	bl	87807028 <xTimerCreate>
8780236e:	6028      	str	r0, [r5, #0]
87802370:	2800      	cmp	r0, #0
87802372:	d1ce      	bne.n	87802312 <vStartTimerDemoTask+0x4a>
87802374:	6030      	str	r0, [r6, #0]
87802376:	6833      	ldr	r3, [r6, #0]
87802378:	2b00      	cmp	r3, #0
8780237a:	d1e8      	bne.n	8780234e <vStartTimerDemoTask+0x86>
8780237c:	f005 fa22 	bl	878077c4 <ulPortSetInterruptMask>
87802380:	e7fe      	b.n	87802380 <vStartTimerDemoTask+0xb8>
87802382:	69b9      	ldr	r1, [r7, #24]
87802384:	2201      	movs	r2, #1
87802386:	f24a 400c 	movw	r0, #41996	; 0xa40c
8780238a:	4623      	mov	r3, r4
8780238c:	f8cd 9000 	str.w	r9, [sp]
87802390:	f2c8 7080 	movt	r0, #34688	; 0x8780
87802394:	eb01 0181 	add.w	r1, r1, r1, lsl #2
87802398:	4091      	lsls	r1, r2
8780239a:	f004 fe45 	bl	87807028 <xTimerCreate>
8780239e:	4604      	mov	r4, r0
878023a0:	64b8      	str	r0, [r7, #72]	; 0x48
878023a2:	2800      	cmp	r0, #0
878023a4:	d058      	beq.n	87802458 <vStartTimerDemoTask+0x190>
878023a6:	f003 ff21 	bl	878061ec <xTaskGetTickCount>
878023aa:	f04f 33ff 	mov.w	r3, #4294967295	; 0xffffffff
878023ae:	4602      	mov	r2, r0
878023b0:	9300      	str	r3, [sp, #0]
878023b2:	4620      	mov	r0, r4
878023b4:	2300      	movs	r3, #0
878023b6:	2101      	movs	r1, #1
878023b8:	f004 fe54 	bl	87807064 <xTimerGenericCommand>
878023bc:	2801      	cmp	r0, #1
878023be:	d03b      	beq.n	87802438 <vStartTimerDemoTask+0x170>
878023c0:	f641 53c5 	movw	r3, #7621	; 0x1dc5
878023c4:	f24a 4018 	movw	r0, #42008	; 0xa418
878023c8:	f2c8 7380 	movt	r3, #34688	; 0x8780
878023cc:	2201      	movs	r2, #1
878023ce:	9300      	str	r3, [sp, #0]
878023d0:	f64f 71ff 	movw	r1, #65535	; 0xffff
878023d4:	2300      	movs	r3, #0
878023d6:	f2c8 7080 	movt	r0, #34688	; 0x8780
878023da:	f004 fe25 	bl	87807028 <xTimerCreate>
878023de:	f641 52d5 	movw	r2, #7637	; 0x1dd5
878023e2:	6538      	str	r0, [r7, #80]	; 0x50
878023e4:	2300      	movs	r3, #0
878023e6:	f2c8 7280 	movt	r2, #34688	; 0x8780
878023ea:	f24a 4020 	movw	r0, #42016	; 0xa420
878023ee:	9200      	str	r2, [sp, #0]
878023f0:	f2c8 7080 	movt	r0, #34688	; 0x8780
878023f4:	461a      	mov	r2, r3
878023f6:	f64f 71ff 	movw	r1, #65535	; 0xffff
878023fa:	f004 fe15 	bl	87807028 <xTimerCreate>
878023fe:	6d3b      	ldr	r3, [r7, #80]	; 0x50
87802400:	6578      	str	r0, [r7, #84]	; 0x54
87802402:	2800      	cmp	r0, #0
87802404:	bf18      	it	ne
87802406:	2b00      	cmpne	r3, #0
87802408:	d01e      	beq.n	87802448 <vStartTimerDemoTask+0x180>
8780240a:	6833      	ldr	r3, [r6, #0]
8780240c:	b913      	cbnz	r3, 87802414 <vStartTimerDemoTask+0x14c>
8780240e:	b003      	add	sp, #12
87802410:	e8bd 8ff0 	ldmia.w	sp!, {r4, r5, r6, r7, r8, r9, sl, fp, pc}
87802414:	2300      	movs	r3, #0
87802416:	2206      	movs	r2, #6
87802418:	f24a 4128 	movw	r1, #42024	; 0xa428
8780241c:	f641 604d 	movw	r0, #7757	; 0x1e4d
87802420:	e88d 000c 	stmia.w	sp, {r2, r3}
87802424:	f2c8 7180 	movt	r1, #34688	; 0x8780
87802428:	225a      	movs	r2, #90	; 0x5a
8780242a:	f2c8 7080 	movt	r0, #34688	; 0x8780
8780242e:	f003 fc29 	bl	87805c84 <xTaskCreate>
87802432:	b003      	add	sp, #12
87802434:	e8bd 8ff0 	ldmia.w	sp!, {r4, r5, r6, r7, r8, r9, sl, fp, pc}
87802438:	2300      	movs	r3, #0
8780243a:	6033      	str	r3, [r6, #0]
8780243c:	6833      	ldr	r3, [r6, #0]
8780243e:	2b00      	cmp	r3, #0
87802440:	d1be      	bne.n	878023c0 <vStartTimerDemoTask+0xf8>
87802442:	f005 f9bf 	bl	878077c4 <ulPortSetInterruptMask>
87802446:	e7fe      	b.n	87802446 <vStartTimerDemoTask+0x17e>
87802448:	2300      	movs	r3, #0
8780244a:	6033      	str	r3, [r6, #0]
8780244c:	6833      	ldr	r3, [r6, #0]
8780244e:	2b00      	cmp	r3, #0
87802450:	d1db      	bne.n	8780240a <vStartTimerDemoTask+0x142>
87802452:	f005 f9b7 	bl	878077c4 <ulPortSetInterruptMask>
87802456:	e7fe      	b.n	87802456 <vStartTimerDemoTask+0x18e>
87802458:	6030      	str	r0, [r6, #0]
8780245a:	6833      	ldr	r3, [r6, #0]
8780245c:	2b00      	cmp	r3, #0
8780245e:	d1af      	bne.n	878023c0 <vStartTimerDemoTask+0xf8>
87802460:	f005 f9b0 	bl	878077c4 <ulPortSetInterruptMask>
87802464:	e7fe      	b.n	87802464 <vStartTimerDemoTask+0x19c>
87802466:	f005 f9ad 	bl	878077c4 <ulPortSetInterruptMask>
8780246a:	e7fe      	b.n	8780246a <vStartTimerDemoTask+0x1a2>
8780246c:	f005 f9aa 	bl	878077c4 <ulPortSetInterruptMask>
87802470:	e7fe      	b.n	87802470 <vStartTimerDemoTask+0x1a8>
87802472:	bf00      	nop

87802474 <xAreTimerDemoTasksStillRunning>:
87802474:	b538      	push	{r3, r4, r5, lr}
87802476:	f240 1468 	movw	r4, #360	; 0x168
8780247a:	f6c8 0400 	movt	r4, #34816	; 0x8800
8780247e:	6da3      	ldr	r3, [r4, #88]	; 0x58
87802480:	6e22      	ldr	r2, [r4, #96]	; 0x60
87802482:	4283      	cmp	r3, r0
87802484:	bf1e      	ittt	ne
87802486:	2300      	movne	r3, #0
87802488:	65a0      	strne	r0, [r4, #88]	; 0x58
8780248a:	65e3      	strne	r3, [r4, #92]	; 0x5c
8780248c:	6ce3      	ldr	r3, [r4, #76]	; 0x4c
8780248e:	429a      	cmp	r2, r3
87802490:	d009      	beq.n	878024a6 <xAreTimerDemoTasksStillRunning+0x32>
87802492:	f240 0304 	movw	r3, #4
87802496:	2200      	movs	r2, #0
87802498:	f6c8 0300 	movt	r3, #34816	; 0x8800
8780249c:	65e2      	str	r2, [r4, #92]	; 0x5c
8780249e:	6ce2      	ldr	r2, [r4, #76]	; 0x4c
878024a0:	6818      	ldr	r0, [r3, #0]
878024a2:	6622      	str	r2, [r4, #96]	; 0x60
878024a4:	bd38      	pop	{r3, r4, r5, pc}
878024a6:	4601      	mov	r1, r0
878024a8:	69a0      	ldr	r0, [r4, #24]
878024aa:	6de5      	ldr	r5, [r4, #92]	; 0x5c
878024ac:	eb00 0080 	add.w	r0, r0, r0, lsl #2
878024b0:	3501      	adds	r5, #1
878024b2:	65e5      	str	r5, [r4, #92]	; 0x5c
878024b4:	0040      	lsls	r0, r0, #1
878024b6:	f007 fc33 	bl	87809d20 <__aeabi_uidiv>
878024ba:	3001      	adds	r0, #1
878024bc:	f240 0304 	movw	r3, #4
878024c0:	42a8      	cmp	r0, r5
878024c2:	bf28      	it	cs
878024c4:	f6c8 0300 	movtcs	r3, #34816	; 0x8800
878024c8:	d2e9      	bcs.n	8780249e <xAreTimerDemoTasksStillRunning+0x2a>
878024ca:	2200      	movs	r2, #0
878024cc:	f6c8 0300 	movt	r3, #34816	; 0x8800
878024d0:	601a      	str	r2, [r3, #0]
878024d2:	681a      	ldr	r2, [r3, #0]
878024d4:	2a00      	cmp	r2, #0
878024d6:	d1e2      	bne.n	8780249e <xAreTimerDemoTasksStillRunning+0x2a>
878024d8:	f005 f974 	bl	878077c4 <ulPortSetInterruptMask>
878024dc:	e7fe      	b.n	878024dc <xAreTimerDemoTasksStillRunning+0x68>
878024de:	bf00      	nop

878024e0 <vTimerPeriodicISRTests>:
878024e0:	b5f0      	push	{r4, r5, r6, r7, lr}
878024e2:	f240 0404 	movw	r4, #4
878024e6:	f6c8 0400 	movt	r4, #34816	; 0x8800
878024ea:	b083      	sub	sp, #12
878024ec:	6865      	ldr	r5, [r4, #4]
878024ee:	3501      	adds	r5, #1
878024f0:	6065      	str	r5, [r4, #4]
878024f2:	2d00      	cmp	r5, #0
878024f4:	d065      	beq.n	878025c2 <vTimerPeriodicISRTests+0xe2>
878024f6:	f240 1368 	movw	r3, #360	; 0x168
878024fa:	f6c8 0300 	movt	r3, #34816	; 0x8800
878024fe:	699a      	ldr	r2, [r3, #24]
87802500:	1f11      	subs	r1, r2, #4
87802502:	428d      	cmp	r5, r1
87802504:	d071      	beq.n	878025ea <vTimerPeriodicISRTests+0x10a>
87802506:	1d11      	adds	r1, r2, #4
87802508:	428d      	cmp	r5, r1
8780250a:	f000 8081 	beq.w	87802610 <vTimerPeriodicISRTests+0x130>
8780250e:	f102 4100 	add.w	r1, r2, #2147483648	; 0x80000000
87802512:	3902      	subs	r1, #2
87802514:	0049      	lsls	r1, r1, #1
87802516:	428d      	cmp	r5, r1
87802518:	f000 8098 	beq.w	8780264c <vTimerPeriodicISRTests+0x16c>
8780251c:	f101 0008 	add.w	r0, r1, #8
87802520:	4285      	cmp	r5, r0
87802522:	f000 809e 	beq.w	87802662 <vTimerPeriodicISRTests+0x182>
87802526:	3104      	adds	r1, #4
87802528:	eb01 0192 	add.w	r1, r1, r2, lsr #2
8780252c:	428d      	cmp	r5, r1
8780252e:	d07a      	beq.n	87802626 <vTimerPeriodicISRTests+0x146>
87802530:	0051      	lsls	r1, r2, #1
87802532:	1888      	adds	r0, r1, r2
87802534:	4285      	cmp	r5, r0
87802536:	f000 80d3 	beq.w	878026e0 <vTimerPeriodicISRTests+0x200>
8780253a:	3004      	adds	r0, #4
8780253c:	4285      	cmp	r5, r0
8780253e:	f000 80a3 	beq.w	87802688 <vTimerPeriodicISRTests+0x1a8>
87802542:	f102 4080 	add.w	r0, r2, #1073741824	; 0x40000000
87802546:	3804      	subs	r0, #4
87802548:	0080      	lsls	r0, r0, #2
8780254a:	4285      	cmp	r5, r0
8780254c:	f000 8129 	beq.w	878027a2 <vTimerPeriodicISRTests+0x2c2>
87802550:	3014      	adds	r0, #20
87802552:	4285      	cmp	r5, r0
87802554:	f000 814d 	beq.w	878027f2 <vTimerPeriodicISRTests+0x312>
87802558:	00d0      	lsls	r0, r2, #3
8780255a:	4285      	cmp	r5, r0
8780255c:	f000 80f1 	beq.w	87802742 <vTimerPeriodicISRTests+0x262>
87802560:	4410      	add	r0, r2
87802562:	3804      	subs	r0, #4
87802564:	4285      	cmp	r5, r0
87802566:	f000 8158 	beq.w	8780281a <vTimerPeriodicISRTests+0x33a>
8780256a:	eb02 0082 	add.w	r0, r2, r2, lsl #2
8780256e:	0040      	lsls	r0, r0, #1
87802570:	3808      	subs	r0, #8
87802572:	4285      	cmp	r5, r0
87802574:	f000 8102 	beq.w	8780277c <vTimerPeriodicISRTests+0x29c>
87802578:	4411      	add	r1, r2
8780257a:	0089      	lsls	r1, r1, #2
8780257c:	1a88      	subs	r0, r1, r2
8780257e:	380c      	subs	r0, #12
87802580:	4285      	cmp	r5, r0
87802582:	f000 8123 	beq.w	878027cc <vTimerPeriodicISRTests+0x2ec>
87802586:	3908      	subs	r1, #8
87802588:	428d      	cmp	r5, r1
8780258a:	f000 80c4 	beq.w	87802716 <vTimerPeriodicISRTests+0x236>
8780258e:	ebc2 1202 	rsb	r2, r2, r2, lsl #4
87802592:	4295      	cmp	r5, r2
87802594:	d127      	bne.n	878025e6 <vTimerPeriodicISRTests+0x106>
87802596:	781a      	ldrb	r2, [r3, #0]
87802598:	2a03      	cmp	r2, #3
8780259a:	d005      	beq.n	878025a8 <vTimerPeriodicISRTests+0xc8>
8780259c:	2200      	movs	r2, #0
8780259e:	6022      	str	r2, [r4, #0]
878025a0:	6822      	ldr	r2, [r4, #0]
878025a2:	2a00      	cmp	r2, #0
878025a4:	f000 80a7 	beq.w	878026f6 <vTimerPeriodicISRTests+0x216>
878025a8:	785b      	ldrb	r3, [r3, #1]
878025aa:	2b03      	cmp	r3, #3
878025ac:	d005      	beq.n	878025ba <vTimerPeriodicISRTests+0xda>
878025ae:	2300      	movs	r3, #0
878025b0:	6023      	str	r3, [r4, #0]
878025b2:	6823      	ldr	r3, [r4, #0]
878025b4:	2b00      	cmp	r3, #0
878025b6:	f000 80a8 	beq.w	8780270a <vTimerPeriodicISRTests+0x22a>
878025ba:	f04f 33ff 	mov.w	r3, #4294967295	; 0xffffffff
878025be:	6063      	str	r3, [r4, #4]
878025c0:	e011      	b.n	878025e6 <vTimerPeriodicISRTests+0x106>
878025c2:	f240 1668 	movw	r6, #360	; 0x168
878025c6:	f04f 37ff 	mov.w	r7, #4294967295	; 0xffffffff
878025ca:	f6c8 0600 	movt	r6, #34816	; 0x8800
878025ce:	9500      	str	r5, [sp, #0]
878025d0:	69b2      	ldr	r2, [r6, #24]
878025d2:	462b      	mov	r3, r5
878025d4:	6d30      	ldr	r0, [r6, #80]	; 0x50
878025d6:	2109      	movs	r1, #9
878025d8:	6067      	str	r7, [r4, #4]
878025da:	7035      	strb	r5, [r6, #0]
878025dc:	7075      	strb	r5, [r6, #1]
878025de:	f004 fd41 	bl	87807064 <xTimerGenericCommand>
878025e2:	2801      	cmp	r0, #1
878025e4:	d06c      	beq.n	878026c0 <vTimerPeriodicISRTests+0x1e0>
878025e6:	b003      	add	sp, #12
878025e8:	bdf0      	pop	{r4, r5, r6, r7, pc}
878025ea:	781a      	ldrb	r2, [r3, #0]
878025ec:	b13a      	cbz	r2, 878025fe <vTimerPeriodicISRTests+0x11e>
878025ee:	2300      	movs	r3, #0
878025f0:	6023      	str	r3, [r4, #0]
878025f2:	6823      	ldr	r3, [r4, #0]
878025f4:	2b00      	cmp	r3, #0
878025f6:	d1f6      	bne.n	878025e6 <vTimerPeriodicISRTests+0x106>
878025f8:	f005 f8e4 	bl	878077c4 <ulPortSetInterruptMask>
878025fc:	e7fe      	b.n	878025fc <vTimerPeriodicISRTests+0x11c>
878025fe:	785b      	ldrb	r3, [r3, #1]
87802600:	2b00      	cmp	r3, #0
87802602:	d0f0      	beq.n	878025e6 <vTimerPeriodicISRTests+0x106>
87802604:	2300      	movs	r3, #0
87802606:	6023      	str	r3, [r4, #0]
87802608:	6823      	ldr	r3, [r4, #0]
8780260a:	2b00      	cmp	r3, #0
8780260c:	d1eb      	bne.n	878025e6 <vTimerPeriodicISRTests+0x106>
8780260e:	e7f3      	b.n	878025f8 <vTimerPeriodicISRTests+0x118>
87802610:	781a      	ldrb	r2, [r3, #0]
87802612:	2a01      	cmp	r2, #1
87802614:	d050      	beq.n	878026b8 <vTimerPeriodicISRTests+0x1d8>
87802616:	2300      	movs	r3, #0
87802618:	6023      	str	r3, [r4, #0]
8780261a:	6823      	ldr	r3, [r4, #0]
8780261c:	2b00      	cmp	r3, #0
8780261e:	d1e2      	bne.n	878025e6 <vTimerPeriodicISRTests+0x106>
87802620:	f005 f8d0 	bl	878077c4 <ulPortSetInterruptMask>
87802624:	e7fe      	b.n	87802624 <vTimerPeriodicISRTests+0x144>
87802626:	781a      	ldrb	r2, [r3, #0]
87802628:	2a02      	cmp	r2, #2
8780262a:	d004      	beq.n	87802636 <vTimerPeriodicISRTests+0x156>
8780262c:	2200      	movs	r2, #0
8780262e:	6022      	str	r2, [r4, #0]
87802630:	6822      	ldr	r2, [r4, #0]
87802632:	2a00      	cmp	r2, #0
87802634:	d066      	beq.n	87802704 <vTimerPeriodicISRTests+0x224>
87802636:	785b      	ldrb	r3, [r3, #1]
87802638:	2b01      	cmp	r3, #1
8780263a:	d0d4      	beq.n	878025e6 <vTimerPeriodicISRTests+0x106>
8780263c:	2300      	movs	r3, #0
8780263e:	6023      	str	r3, [r4, #0]
87802640:	6823      	ldr	r3, [r4, #0]
87802642:	2b00      	cmp	r3, #0
87802644:	d1cf      	bne.n	878025e6 <vTimerPeriodicISRTests+0x106>
87802646:	f005 f8bd 	bl	878077c4 <ulPortSetInterruptMask>
8780264a:	e7fe      	b.n	8780264a <vTimerPeriodicISRTests+0x16a>
8780264c:	781a      	ldrb	r2, [r3, #0]
8780264e:	2a01      	cmp	r2, #1
87802650:	d054      	beq.n	878026fc <vTimerPeriodicISRTests+0x21c>
87802652:	2300      	movs	r3, #0
87802654:	6023      	str	r3, [r4, #0]
87802656:	6823      	ldr	r3, [r4, #0]
87802658:	2b00      	cmp	r3, #0
8780265a:	d1c4      	bne.n	878025e6 <vTimerPeriodicISRTests+0x106>
8780265c:	f005 f8b2 	bl	878077c4 <ulPortSetInterruptMask>
87802660:	e7fe      	b.n	87802660 <vTimerPeriodicISRTests+0x180>
87802662:	781a      	ldrb	r2, [r3, #0]
87802664:	2a02      	cmp	r2, #2
87802666:	d004      	beq.n	87802672 <vTimerPeriodicISRTests+0x192>
87802668:	2200      	movs	r2, #0
8780266a:	6022      	str	r2, [r4, #0]
8780266c:	6822      	ldr	r2, [r4, #0]
8780266e:	2a00      	cmp	r2, #0
87802670:	d04e      	beq.n	87802710 <vTimerPeriodicISRTests+0x230>
87802672:	785b      	ldrb	r3, [r3, #1]
87802674:	2b01      	cmp	r3, #1
87802676:	d0b6      	beq.n	878025e6 <vTimerPeriodicISRTests+0x106>
87802678:	2300      	movs	r3, #0
8780267a:	6023      	str	r3, [r4, #0]
8780267c:	6823      	ldr	r3, [r4, #0]
8780267e:	2b00      	cmp	r3, #0
87802680:	d1b1      	bne.n	878025e6 <vTimerPeriodicISRTests+0x106>
87802682:	f005 f89f 	bl	878077c4 <ulPortSetInterruptMask>
87802686:	e7fe      	b.n	87802686 <vTimerPeriodicISRTests+0x1a6>
87802688:	781a      	ldrb	r2, [r3, #0]
8780268a:	2a03      	cmp	r2, #3
8780268c:	d005      	beq.n	8780269a <vTimerPeriodicISRTests+0x1ba>
8780268e:	2200      	movs	r2, #0
87802690:	6022      	str	r2, [r4, #0]
87802692:	6822      	ldr	r2, [r4, #0]
87802694:	2a00      	cmp	r2, #0
87802696:	f000 80d2 	beq.w	8780283e <vTimerPeriodicISRTests+0x35e>
8780269a:	785a      	ldrb	r2, [r3, #1]
8780269c:	2a01      	cmp	r2, #1
8780269e:	d003      	beq.n	878026a8 <vTimerPeriodicISRTests+0x1c8>
878026a0:	2200      	movs	r2, #0
878026a2:	6022      	str	r2, [r4, #0]
878026a4:	6822      	ldr	r2, [r4, #0]
878026a6:	b1c2      	cbz	r2, 878026da <vTimerPeriodicISRTests+0x1fa>
878026a8:	6d18      	ldr	r0, [r3, #80]	; 0x50
878026aa:	2300      	movs	r3, #0
878026ac:	2108      	movs	r1, #8
878026ae:	9300      	str	r3, [sp, #0]
878026b0:	461a      	mov	r2, r3
878026b2:	f004 fcd7 	bl	87807064 <xTimerGenericCommand>
878026b6:	e796      	b.n	878025e6 <vTimerPeriodicISRTests+0x106>
878026b8:	785b      	ldrb	r3, [r3, #1]
878026ba:	2b01      	cmp	r3, #1
878026bc:	d1ab      	bne.n	87802616 <vTimerPeriodicISRTests+0x136>
878026be:	e792      	b.n	878025e6 <vTimerPeriodicISRTests+0x106>
878026c0:	69b2      	ldr	r2, [r6, #24]
878026c2:	462b      	mov	r3, r5
878026c4:	6d70      	ldr	r0, [r6, #84]	; 0x54
878026c6:	2109      	movs	r1, #9
878026c8:	9500      	str	r5, [sp, #0]
878026ca:	f004 fccb 	bl	87807064 <xTimerGenericCommand>
878026ce:	2801      	cmp	r0, #1
878026d0:	bf08      	it	eq
878026d2:	6065      	streq	r5, [r4, #4]
878026d4:	d087      	beq.n	878025e6 <vTimerPeriodicISRTests+0x106>
878026d6:	6d30      	ldr	r0, [r6, #80]	; 0x50
878026d8:	e7e7      	b.n	878026aa <vTimerPeriodicISRTests+0x1ca>
878026da:	f005 f873 	bl	878077c4 <ulPortSetInterruptMask>
878026de:	e7fe      	b.n	878026de <vTimerPeriodicISRTests+0x1fe>
878026e0:	6d5c      	ldr	r4, [r3, #84]	; 0x54
878026e2:	f003 fd89 	bl	878061f8 <xTaskGetTickCountFromISR>
878026e6:	2300      	movs	r3, #0
878026e8:	4602      	mov	r2, r0
878026ea:	9300      	str	r3, [sp, #0]
878026ec:	4620      	mov	r0, r4
878026ee:	2106      	movs	r1, #6
878026f0:	f004 fcb8 	bl	87807064 <xTimerGenericCommand>
878026f4:	e777      	b.n	878025e6 <vTimerPeriodicISRTests+0x106>
878026f6:	f005 f865 	bl	878077c4 <ulPortSetInterruptMask>
878026fa:	e7fe      	b.n	878026fa <vTimerPeriodicISRTests+0x21a>
878026fc:	785b      	ldrb	r3, [r3, #1]
878026fe:	2b01      	cmp	r3, #1
87802700:	d1a7      	bne.n	87802652 <vTimerPeriodicISRTests+0x172>
87802702:	e770      	b.n	878025e6 <vTimerPeriodicISRTests+0x106>
87802704:	f005 f85e 	bl	878077c4 <ulPortSetInterruptMask>
87802708:	e7fe      	b.n	87802708 <vTimerPeriodicISRTests+0x228>
8780270a:	f005 f85b 	bl	878077c4 <ulPortSetInterruptMask>
8780270e:	e7fe      	b.n	8780270e <vTimerPeriodicISRTests+0x22e>
87802710:	f005 f858 	bl	878077c4 <ulPortSetInterruptMask>
87802714:	e7fe      	b.n	87802714 <vTimerPeriodicISRTests+0x234>
87802716:	781a      	ldrb	r2, [r3, #0]
87802718:	2a03      	cmp	r2, #3
8780271a:	d005      	beq.n	87802728 <vTimerPeriodicISRTests+0x248>
8780271c:	2200      	movs	r2, #0
8780271e:	6022      	str	r2, [r4, #0]
87802720:	6822      	ldr	r2, [r4, #0]
87802722:	2a00      	cmp	r2, #0
87802724:	f000 8097 	beq.w	87802856 <vTimerPeriodicISRTests+0x376>
87802728:	785b      	ldrb	r3, [r3, #1]
8780272a:	2b03      	cmp	r3, #3
8780272c:	f43f af5b 	beq.w	878025e6 <vTimerPeriodicISRTests+0x106>
87802730:	2300      	movs	r3, #0
87802732:	6023      	str	r3, [r4, #0]
87802734:	6823      	ldr	r3, [r4, #0]
87802736:	2b00      	cmp	r3, #0
87802738:	f47f af55 	bne.w	878025e6 <vTimerPeriodicISRTests+0x106>
8780273c:	f005 f842 	bl	878077c4 <ulPortSetInterruptMask>
87802740:	e7fe      	b.n	87802740 <vTimerPeriodicISRTests+0x260>
87802742:	781a      	ldrb	r2, [r3, #0]
87802744:	2a03      	cmp	r2, #3
87802746:	d004      	beq.n	87802752 <vTimerPeriodicISRTests+0x272>
87802748:	2200      	movs	r2, #0
8780274a:	6022      	str	r2, [r4, #0]
8780274c:	6822      	ldr	r2, [r4, #0]
8780274e:	2a00      	cmp	r2, #0
87802750:	d07b      	beq.n	8780284a <vTimerPeriodicISRTests+0x36a>
87802752:	785a      	ldrb	r2, [r3, #1]
87802754:	2a02      	cmp	r2, #2
87802756:	d003      	beq.n	87802760 <vTimerPeriodicISRTests+0x280>
87802758:	2200      	movs	r2, #0
8780275a:	6022      	str	r2, [r4, #0]
8780275c:	6822      	ldr	r2, [r4, #0]
8780275e:	b152      	cbz	r2, 87802776 <vTimerPeriodicISRTests+0x296>
87802760:	6d5c      	ldr	r4, [r3, #84]	; 0x54
87802762:	f003 fd49 	bl	878061f8 <xTaskGetTickCountFromISR>
87802766:	2300      	movs	r3, #0
87802768:	4602      	mov	r2, r0
8780276a:	9300      	str	r3, [sp, #0]
8780276c:	4620      	mov	r0, r4
8780276e:	2107      	movs	r1, #7
87802770:	f004 fc78 	bl	87807064 <xTimerGenericCommand>
87802774:	e737      	b.n	878025e6 <vTimerPeriodicISRTests+0x106>
87802776:	f005 f825 	bl	878077c4 <ulPortSetInterruptMask>
8780277a:	e7fe      	b.n	8780277a <vTimerPeriodicISRTests+0x29a>
8780277c:	781a      	ldrb	r2, [r3, #0]
8780277e:	2a03      	cmp	r2, #3
87802780:	d004      	beq.n	8780278c <vTimerPeriodicISRTests+0x2ac>
87802782:	2200      	movs	r2, #0
87802784:	6022      	str	r2, [r4, #0]
87802786:	6822      	ldr	r2, [r4, #0]
87802788:	2a00      	cmp	r2, #0
8780278a:	d06a      	beq.n	87802862 <vTimerPeriodicISRTests+0x382>
8780278c:	785a      	ldrb	r2, [r3, #1]
8780278e:	2a02      	cmp	r2, #2
87802790:	d0e6      	beq.n	87802760 <vTimerPeriodicISRTests+0x280>
87802792:	2200      	movs	r2, #0
87802794:	6022      	str	r2, [r4, #0]
87802796:	6822      	ldr	r2, [r4, #0]
87802798:	2a00      	cmp	r2, #0
8780279a:	d1e1      	bne.n	87802760 <vTimerPeriodicISRTests+0x280>
8780279c:	f005 f812 	bl	878077c4 <ulPortSetInterruptMask>
878027a0:	e7fe      	b.n	878027a0 <vTimerPeriodicISRTests+0x2c0>
878027a2:	781a      	ldrb	r2, [r3, #0]
878027a4:	2a03      	cmp	r2, #3
878027a6:	d004      	beq.n	878027b2 <vTimerPeriodicISRTests+0x2d2>
878027a8:	2200      	movs	r2, #0
878027aa:	6022      	str	r2, [r4, #0]
878027ac:	6822      	ldr	r2, [r4, #0]
878027ae:	2a00      	cmp	r2, #0
878027b0:	d048      	beq.n	87802844 <vTimerPeriodicISRTests+0x364>
878027b2:	785b      	ldrb	r3, [r3, #1]
878027b4:	2b01      	cmp	r3, #1
878027b6:	f43f af16 	beq.w	878025e6 <vTimerPeriodicISRTests+0x106>
878027ba:	2300      	movs	r3, #0
878027bc:	6023      	str	r3, [r4, #0]
878027be:	6823      	ldr	r3, [r4, #0]
878027c0:	2b00      	cmp	r3, #0
878027c2:	f47f af10 	bne.w	878025e6 <vTimerPeriodicISRTests+0x106>
878027c6:	f004 fffd 	bl	878077c4 <ulPortSetInterruptMask>
878027ca:	e7fe      	b.n	878027ca <vTimerPeriodicISRTests+0x2ea>
878027cc:	781a      	ldrb	r2, [r3, #0]
878027ce:	2a03      	cmp	r2, #3
878027d0:	d004      	beq.n	878027dc <vTimerPeriodicISRTests+0x2fc>
878027d2:	2200      	movs	r2, #0
878027d4:	6022      	str	r2, [r4, #0]
878027d6:	6822      	ldr	r2, [r4, #0]
878027d8:	2a00      	cmp	r2, #0
878027da:	d03f      	beq.n	8780285c <vTimerPeriodicISRTests+0x37c>
878027dc:	785a      	ldrb	r2, [r3, #1]
878027de:	2a02      	cmp	r2, #2
878027e0:	d0be      	beq.n	87802760 <vTimerPeriodicISRTests+0x280>
878027e2:	2200      	movs	r2, #0
878027e4:	6022      	str	r2, [r4, #0]
878027e6:	6822      	ldr	r2, [r4, #0]
878027e8:	2a00      	cmp	r2, #0
878027ea:	d1b9      	bne.n	87802760 <vTimerPeriodicISRTests+0x280>
878027ec:	f004 ffea 	bl	878077c4 <ulPortSetInterruptMask>
878027f0:	e7fe      	b.n	878027f0 <vTimerPeriodicISRTests+0x310>
878027f2:	781a      	ldrb	r2, [r3, #0]
878027f4:	2a03      	cmp	r2, #3
878027f6:	d003      	beq.n	87802800 <vTimerPeriodicISRTests+0x320>
878027f8:	2200      	movs	r2, #0
878027fa:	6022      	str	r2, [r4, #0]
878027fc:	6822      	ldr	r2, [r4, #0]
878027fe:	b33a      	cbz	r2, 87802850 <vTimerPeriodicISRTests+0x370>
87802800:	785b      	ldrb	r3, [r3, #1]
87802802:	2b02      	cmp	r3, #2
87802804:	f43f aeef 	beq.w	878025e6 <vTimerPeriodicISRTests+0x106>
87802808:	2300      	movs	r3, #0
8780280a:	6023      	str	r3, [r4, #0]
8780280c:	6823      	ldr	r3, [r4, #0]
8780280e:	2b00      	cmp	r3, #0
87802810:	f47f aee9 	bne.w	878025e6 <vTimerPeriodicISRTests+0x106>
87802814:	f004 ffd6 	bl	878077c4 <ulPortSetInterruptMask>
87802818:	e7fe      	b.n	87802818 <vTimerPeriodicISRTests+0x338>
8780281a:	781a      	ldrb	r2, [r3, #0]
8780281c:	2a03      	cmp	r2, #3
8780281e:	d003      	beq.n	87802828 <vTimerPeriodicISRTests+0x348>
87802820:	2200      	movs	r2, #0
87802822:	6022      	str	r2, [r4, #0]
87802824:	6822      	ldr	r2, [r4, #0]
87802826:	b1fa      	cbz	r2, 87802868 <vTimerPeriodicISRTests+0x388>
87802828:	785a      	ldrb	r2, [r3, #1]
8780282a:	2a02      	cmp	r2, #2
8780282c:	d098      	beq.n	87802760 <vTimerPeriodicISRTests+0x280>
8780282e:	2200      	movs	r2, #0
87802830:	6022      	str	r2, [r4, #0]
87802832:	6822      	ldr	r2, [r4, #0]
87802834:	2a00      	cmp	r2, #0
87802836:	d193      	bne.n	87802760 <vTimerPeriodicISRTests+0x280>
87802838:	f004 ffc4 	bl	878077c4 <ulPortSetInterruptMask>
8780283c:	e7fe      	b.n	8780283c <vTimerPeriodicISRTests+0x35c>
8780283e:	f004 ffc1 	bl	878077c4 <ulPortSetInterruptMask>
87802842:	e7fe      	b.n	87802842 <vTimerPeriodicISRTests+0x362>
87802844:	f004 ffbe 	bl	878077c4 <ulPortSetInterruptMask>
87802848:	e7fe      	b.n	87802848 <vTimerPeriodicISRTests+0x368>
8780284a:	f004 ffbb 	bl	878077c4 <ulPortSetInterruptMask>
8780284e:	e7fe      	b.n	8780284e <vTimerPeriodicISRTests+0x36e>
87802850:	f004 ffb8 	bl	878077c4 <ulPortSetInterruptMask>
87802854:	e7fe      	b.n	87802854 <vTimerPeriodicISRTests+0x374>
87802856:	f004 ffb5 	bl	878077c4 <ulPortSetInterruptMask>
8780285a:	e7fe      	b.n	8780285a <vTimerPeriodicISRTests+0x37a>
8780285c:	f004 ffb2 	bl	878077c4 <ulPortSetInterruptMask>
87802860:	e7fe      	b.n	87802860 <vTimerPeriodicISRTests+0x380>
87802862:	f004 ffaf 	bl	878077c4 <ulPortSetInterruptMask>
87802866:	e7fe      	b.n	87802866 <vTimerPeriodicISRTests+0x386>
87802868:	f004 ffac 	bl	878077c4 <ulPortSetInterruptMask>
8780286c:	e7fe      	b.n	8780286c <vTimerPeriodicISRTests+0x38c>
8780286e:	bf00      	nop

87802870 <prvMediumPriorityMutexTask>:
87802870:	f240 14cc 	movw	r4, #460	; 0x1cc
87802874:	b508      	push	{r3, lr}
87802876:	f6c8 0400 	movt	r4, #34816	; 0x8800
8780287a:	2000      	movs	r0, #0
8780287c:	f003 fe6a 	bl	87806554 <vTaskSuspend>
87802880:	6823      	ldr	r3, [r4, #0]
87802882:	3301      	adds	r3, #1
87802884:	6023      	str	r3, [r4, #0]
87802886:	e7f8      	b.n	8780287a <prvMediumPriorityMutexTask+0xa>

87802888 <prvHighPriorityMutexTask>:
87802888:	b570      	push	{r4, r5, r6, lr}
8780288a:	f240 15cc 	movw	r5, #460	; 0x1cc
8780288e:	4604      	mov	r4, r0
87802890:	f6c8 0500 	movt	r5, #34816	; 0x8800
87802894:	2601      	movs	r6, #1
87802896:	2000      	movs	r0, #0
87802898:	f003 fe5c 	bl	87806554 <vTaskSuspend>
8780289c:	2300      	movs	r3, #0
8780289e:	f04f 32ff 	mov.w	r2, #4294967295	; 0xffffffff
878028a2:	4619      	mov	r1, r3
878028a4:	4620      	mov	r0, r4
878028a6:	f002 fdcb 	bl	87805440 <xQueueGenericReceive>
878028aa:	2300      	movs	r3, #0
878028ac:	2801      	cmp	r0, #1
878028ae:	461a      	mov	r2, r3
878028b0:	4619      	mov	r1, r3
878028b2:	4620      	mov	r0, r4
878028b4:	bf18      	it	ne
878028b6:	606e      	strne	r6, [r5, #4]
878028b8:	f002 fc56 	bl	87805168 <xQueueGenericSend>
878028bc:	2801      	cmp	r0, #1
878028be:	bf18      	it	ne
878028c0:	606e      	strne	r6, [r5, #4]
878028c2:	e7e8      	b.n	87802896 <prvHighPriorityMutexTask+0xe>

878028c4 <prvLowPriorityMutexTask>:
878028c4:	e92d 41f0 	stmdb	sp!, {r4, r5, r6, r7, r8, lr}
878028c8:	4607      	mov	r7, r0
878028ca:	2001      	movs	r0, #1
878028cc:	f002 fcec 	bl	878052a8 <xQueueCreateMutex>
878028d0:	2800      	cmp	r0, #0
878028d2:	f000 80ce 	beq.w	87802a72 <prvLowPriorityMutexTask+0x1ae>
878028d6:	f240 14cc 	movw	r4, #460	; 0x1cc
878028da:	4606      	mov	r6, r0
878028dc:	f04f 0800 	mov.w	r8, #0
878028e0:	f6c8 0400 	movt	r4, #34816	; 0x8800
878028e4:	2501      	movs	r5, #1
878028e6:	2300      	movs	r3, #0
878028e8:	4638      	mov	r0, r7
878028ea:	461a      	mov	r2, r3
878028ec:	4619      	mov	r1, r3
878028ee:	f002 fda7 	bl	87805440 <xQueueGenericReceive>
878028f2:	2801      	cmp	r0, #1
878028f4:	f04f 0000 	mov.w	r0, #0
878028f8:	bf18      	it	ne
878028fa:	6065      	strne	r5, [r4, #4]
878028fc:	f8c4 8000 	str.w	r8, [r4]
87802900:	f003 fb1e 	bl	87805f40 <uxTaskPriorityGet>
87802904:	b100      	cbz	r0, 87802908 <prvLowPriorityMutexTask+0x44>
87802906:	6065      	str	r5, [r4, #4]
87802908:	68a0      	ldr	r0, [r4, #8]
8780290a:	f003 fba5 	bl	87806058 <vTaskResume>
8780290e:	68a0      	ldr	r0, [r4, #8]
87802910:	f003 fae6 	bl	87805ee0 <eTaskGetState>
87802914:	2802      	cmp	r0, #2
87802916:	d002      	beq.n	8780291e <prvLowPriorityMutexTask+0x5a>
87802918:	f004 ff54 	bl	878077c4 <ulPortSetInterruptMask>
8780291c:	e7fe      	b.n	8780291c <prvLowPriorityMutexTask+0x58>
8780291e:	2000      	movs	r0, #0
87802920:	f003 fb0e 	bl	87805f40 <uxTaskPriorityGet>
87802924:	2101      	movs	r1, #1
87802926:	2803      	cmp	r0, #3
87802928:	f04f 0000 	mov.w	r0, #0
8780292c:	bf18      	it	ne
8780292e:	6065      	strne	r5, [r4, #4]
87802930:	f003 fb30 	bl	87805f94 <vTaskPrioritySet>
87802934:	2000      	movs	r0, #0
87802936:	f003 fb03 	bl	87805f40 <uxTaskPriorityGet>
8780293a:	2803      	cmp	r0, #3
8780293c:	68e0      	ldr	r0, [r4, #12]
8780293e:	bf18      	it	ne
87802940:	6065      	strne	r5, [r4, #4]
87802942:	f003 fb89 	bl	87806058 <vTaskResume>
87802946:	6823      	ldr	r3, [r4, #0]
87802948:	b103      	cbz	r3, 8780294c <prvLowPriorityMutexTask+0x88>
8780294a:	6065      	str	r5, [r4, #4]
8780294c:	2300      	movs	r3, #0
8780294e:	4630      	mov	r0, r6
87802950:	461a      	mov	r2, r3
87802952:	4619      	mov	r1, r3
87802954:	f002 fd74 	bl	87805440 <xQueueGenericReceive>
87802958:	2300      	movs	r3, #0
8780295a:	2801      	cmp	r0, #1
8780295c:	461a      	mov	r2, r3
8780295e:	4619      	mov	r1, r3
87802960:	4638      	mov	r0, r7
87802962:	bf18      	it	ne
87802964:	6065      	strne	r5, [r4, #4]
87802966:	f002 fbff 	bl	87805168 <xQueueGenericSend>
8780296a:	2801      	cmp	r0, #1
8780296c:	bf18      	it	ne
8780296e:	6065      	strne	r5, [r4, #4]
87802970:	6823      	ldr	r3, [r4, #0]
87802972:	b103      	cbz	r3, 87802976 <prvLowPriorityMutexTask+0xb2>
87802974:	6065      	str	r5, [r4, #4]
87802976:	2000      	movs	r0, #0
87802978:	f003 fae2 	bl	87805f40 <uxTaskPriorityGet>
8780297c:	2300      	movs	r3, #0
8780297e:	2803      	cmp	r0, #3
87802980:	461a      	mov	r2, r3
87802982:	4619      	mov	r1, r3
87802984:	4630      	mov	r0, r6
87802986:	bf18      	it	ne
87802988:	6065      	strne	r5, [r4, #4]
8780298a:	f002 fbed 	bl	87805168 <xQueueGenericSend>
8780298e:	2801      	cmp	r0, #1
87802990:	f04f 0000 	mov.w	r0, #0
87802994:	bf18      	it	ne
87802996:	6065      	strne	r5, [r4, #4]
87802998:	6823      	ldr	r3, [r4, #0]
8780299a:	2b01      	cmp	r3, #1
8780299c:	bf18      	it	ne
8780299e:	6065      	strne	r5, [r4, #4]
878029a0:	f003 face 	bl	87805f40 <uxTaskPriorityGet>
878029a4:	2100      	movs	r1, #0
878029a6:	2801      	cmp	r0, #1
878029a8:	4608      	mov	r0, r1
878029aa:	bf18      	it	ne
878029ac:	6065      	strne	r5, [r4, #4]
878029ae:	f003 faf1 	bl	87805f94 <vTaskPrioritySet>
878029b2:	f8d4 e010 	ldr.w	lr, [r4, #16]
878029b6:	2300      	movs	r3, #0
878029b8:	461a      	mov	r2, r3
878029ba:	4619      	mov	r1, r3
878029bc:	4638      	mov	r0, r7
878029be:	f10e 0e01 	add.w	lr, lr, #1
878029c2:	f8c4 e010 	str.w	lr, [r4, #16]
878029c6:	f002 fd3b 	bl	87805440 <xQueueGenericReceive>
878029ca:	2801      	cmp	r0, #1
878029cc:	f04f 0000 	mov.w	r0, #0
878029d0:	bf18      	it	ne
878029d2:	6065      	strne	r5, [r4, #4]
878029d4:	f8c4 8000 	str.w	r8, [r4]
878029d8:	f003 fab2 	bl	87805f40 <uxTaskPriorityGet>
878029dc:	b100      	cbz	r0, 878029e0 <prvLowPriorityMutexTask+0x11c>
878029de:	6065      	str	r5, [r4, #4]
878029e0:	68a0      	ldr	r0, [r4, #8]
878029e2:	f003 fb39 	bl	87806058 <vTaskResume>
878029e6:	68a0      	ldr	r0, [r4, #8]
878029e8:	f003 fa7a 	bl	87805ee0 <eTaskGetState>
878029ec:	2802      	cmp	r0, #2
878029ee:	d002      	beq.n	878029f6 <prvLowPriorityMutexTask+0x132>
878029f0:	f004 fee8 	bl	878077c4 <ulPortSetInterruptMask>
878029f4:	e7fe      	b.n	878029f4 <prvLowPriorityMutexTask+0x130>
878029f6:	2000      	movs	r0, #0
878029f8:	f003 faa2 	bl	87805f40 <uxTaskPriorityGet>
878029fc:	2803      	cmp	r0, #3
878029fe:	68e0      	ldr	r0, [r4, #12]
87802a00:	bf18      	it	ne
87802a02:	6065      	strne	r5, [r4, #4]
87802a04:	f003 fb28 	bl	87806058 <vTaskResume>
87802a08:	6823      	ldr	r3, [r4, #0]
87802a0a:	b103      	cbz	r3, 87802a0e <prvLowPriorityMutexTask+0x14a>
87802a0c:	6065      	str	r5, [r4, #4]
87802a0e:	2300      	movs	r3, #0
87802a10:	4630      	mov	r0, r6
87802a12:	461a      	mov	r2, r3
87802a14:	4619      	mov	r1, r3
87802a16:	f002 fd13 	bl	87805440 <xQueueGenericReceive>
87802a1a:	2300      	movs	r3, #0
87802a1c:	2801      	cmp	r0, #1
87802a1e:	461a      	mov	r2, r3
87802a20:	4619      	mov	r1, r3
87802a22:	4630      	mov	r0, r6
87802a24:	bf18      	it	ne
87802a26:	6065      	strne	r5, [r4, #4]
87802a28:	f002 fb9e 	bl	87805168 <xQueueGenericSend>
87802a2c:	2801      	cmp	r0, #1
87802a2e:	bf18      	it	ne
87802a30:	6065      	strne	r5, [r4, #4]
87802a32:	6823      	ldr	r3, [r4, #0]
87802a34:	b103      	cbz	r3, 87802a38 <prvLowPriorityMutexTask+0x174>
87802a36:	6065      	str	r5, [r4, #4]
87802a38:	2000      	movs	r0, #0
87802a3a:	f003 fa81 	bl	87805f40 <uxTaskPriorityGet>
87802a3e:	2300      	movs	r3, #0
87802a40:	2803      	cmp	r0, #3
87802a42:	461a      	mov	r2, r3
87802a44:	4619      	mov	r1, r3
87802a46:	4638      	mov	r0, r7
87802a48:	bf18      	it	ne
87802a4a:	6065      	strne	r5, [r4, #4]
87802a4c:	f002 fb8c 	bl	87805168 <xQueueGenericSend>
87802a50:	2801      	cmp	r0, #1
87802a52:	f04f 0000 	mov.w	r0, #0
87802a56:	bf18      	it	ne
87802a58:	6065      	strne	r5, [r4, #4]
87802a5a:	6823      	ldr	r3, [r4, #0]
87802a5c:	2b01      	cmp	r3, #1
87802a5e:	bf18      	it	ne
87802a60:	6065      	strne	r5, [r4, #4]
87802a62:	f003 fa6d 	bl	87805f40 <uxTaskPriorityGet>
87802a66:	b100      	cbz	r0, 87802a6a <prvLowPriorityMutexTask+0x1a6>
87802a68:	6065      	str	r5, [r4, #4]
87802a6a:	6923      	ldr	r3, [r4, #16]
87802a6c:	3301      	adds	r3, #1
87802a6e:	6123      	str	r3, [r4, #16]
87802a70:	e739      	b.n	878028e6 <prvLowPriorityMutexTask+0x22>
87802a72:	f004 fea7 	bl	878077c4 <ulPortSetInterruptMask>
87802a76:	e7fe      	b.n	87802a76 <prvLowPriorityMutexTask+0x1b2>

87802a78 <prvSendFrontAndBackTest>:
87802a78:	e92d 43f0 	stmdb	sp!, {r4, r5, r6, r7, r8, r9, lr}
87802a7c:	f240 15cc 	movw	r5, #460	; 0x1cc
87802a80:	f6c8 0500 	movt	r5, #34816	; 0x8800
87802a84:	b083      	sub	sp, #12
87802a86:	4604      	mov	r4, r0
87802a88:	f105 0814 	add.w	r8, r5, #20
87802a8c:	2601      	movs	r6, #1
87802a8e:	2700      	movs	r7, #0
87802a90:	2301      	movs	r3, #1
87802a92:	2200      	movs	r2, #0
87802a94:	4641      	mov	r1, r8
87802a96:	4620      	mov	r0, r4
87802a98:	f002 fb66 	bl	87805168 <xQueueGenericSend>
87802a9c:	4620      	mov	r0, r4
87802a9e:	f002 fe0d 	bl	878056bc <uxQueueMessagesWaiting>
87802aa2:	2300      	movs	r3, #0
87802aa4:	2801      	cmp	r0, #1
87802aa6:	461a      	mov	r2, r3
87802aa8:	4669      	mov	r1, sp
87802aaa:	4620      	mov	r0, r4
87802aac:	bf18      	it	ne
87802aae:	606e      	strne	r6, [r5, #4]
87802ab0:	f002 fcc6 	bl	87805440 <xQueueGenericReceive>
87802ab4:	2801      	cmp	r0, #1
87802ab6:	9b00      	ldr	r3, [sp, #0]
87802ab8:	bf18      	it	ne
87802aba:	606e      	strne	r6, [r5, #4]
87802abc:	4620      	mov	r0, r4
87802abe:	696a      	ldr	r2, [r5, #20]
87802ac0:	429a      	cmp	r2, r3
87802ac2:	bf18      	it	ne
87802ac4:	606e      	strne	r6, [r5, #4]
87802ac6:	f002 fdf9 	bl	878056bc <uxQueueMessagesWaiting>
87802aca:	b100      	cbz	r0, 87802ace <prvSendFrontAndBackTest+0x56>
87802acc:	606e      	str	r6, [r5, #4]
87802ace:	2300      	movs	r3, #0
87802ad0:	4641      	mov	r1, r8
87802ad2:	461a      	mov	r2, r3
87802ad4:	4620      	mov	r0, r4
87802ad6:	f002 fb47 	bl	87805168 <xQueueGenericSend>
87802ada:	4620      	mov	r0, r4
87802adc:	f002 fdee 	bl	878056bc <uxQueueMessagesWaiting>
87802ae0:	2300      	movs	r3, #0
87802ae2:	2801      	cmp	r0, #1
87802ae4:	4669      	mov	r1, sp
87802ae6:	461a      	mov	r2, r3
87802ae8:	4620      	mov	r0, r4
87802aea:	bf18      	it	ne
87802aec:	606e      	strne	r6, [r5, #4]
87802aee:	f002 fca7 	bl	87805440 <xQueueGenericReceive>
87802af2:	2801      	cmp	r0, #1
87802af4:	4620      	mov	r0, r4
87802af6:	bf18      	it	ne
87802af8:	606e      	strne	r6, [r5, #4]
87802afa:	f002 fddf 	bl	878056bc <uxQueueMessagesWaiting>
87802afe:	b100      	cbz	r0, 87802b02 <prvSendFrontAndBackTest+0x8a>
87802b00:	606e      	str	r6, [r5, #4]
87802b02:	9b00      	ldr	r3, [sp, #0]
87802b04:	696a      	ldr	r2, [r5, #20]
87802b06:	429a      	cmp	r2, r3
87802b08:	f04f 0302 	mov.w	r3, #2
87802b0c:	bf18      	it	ne
87802b0e:	606e      	strne	r6, [r5, #4]
87802b10:	9300      	str	r3, [sp, #0]
87802b12:	2300      	movs	r3, #0
87802b14:	4669      	mov	r1, sp
87802b16:	461a      	mov	r2, r3
87802b18:	4620      	mov	r0, r4
87802b1a:	f002 fb25 	bl	87805168 <xQueueGenericSend>
87802b1e:	9b00      	ldr	r3, [sp, #0]
87802b20:	3301      	adds	r3, #1
87802b22:	2b04      	cmp	r3, #4
87802b24:	9300      	str	r3, [sp, #0]
87802b26:	d9f4      	bls.n	87802b12 <prvSendFrontAndBackTest+0x9a>
87802b28:	4620      	mov	r0, r4
87802b2a:	f002 fdc7 	bl	878056bc <uxQueueMessagesWaiting>
87802b2e:	2301      	movs	r3, #1
87802b30:	2803      	cmp	r0, #3
87802b32:	f04f 0200 	mov.w	r2, #0
87802b36:	4669      	mov	r1, sp
87802b38:	4620      	mov	r0, r4
87802b3a:	bf18      	it	ne
87802b3c:	606e      	strne	r6, [r5, #4]
87802b3e:	9600      	str	r6, [sp, #0]
87802b40:	f002 fb12 	bl	87805168 <xQueueGenericSend>
87802b44:	2301      	movs	r3, #1
87802b46:	2200      	movs	r2, #0
87802b48:	4669      	mov	r1, sp
87802b4a:	4620      	mov	r0, r4
87802b4c:	9700      	str	r7, [sp, #0]
87802b4e:	f002 fb0b 	bl	87805168 <xQueueGenericSend>
87802b52:	4620      	mov	r0, r4
87802b54:	f002 fdb2 	bl	878056bc <uxQueueMessagesWaiting>
87802b58:	2301      	movs	r3, #1
87802b5a:	2805      	cmp	r0, #5
87802b5c:	f04f 0200 	mov.w	r2, #0
87802b60:	4669      	mov	r1, sp
87802b62:	4620      	mov	r0, r4
87802b64:	bf18      	it	ne
87802b66:	606e      	strne	r6, [r5, #4]
87802b68:	f002 fafe 	bl	87805168 <xQueueGenericSend>
87802b6c:	b100      	cbz	r0, 87802b70 <prvSendFrontAndBackTest+0xf8>
87802b6e:	606e      	str	r6, [r5, #4]
87802b70:	2300      	movs	r3, #0
87802b72:	4669      	mov	r1, sp
87802b74:	461a      	mov	r2, r3
87802b76:	4620      	mov	r0, r4
87802b78:	f002 faf6 	bl	87805168 <xQueueGenericSend>
87802b7c:	b100      	cbz	r0, 87802b80 <prvSendFrontAndBackTest+0x108>
87802b7e:	606e      	str	r6, [r5, #4]
87802b80:	9700      	str	r7, [sp, #0]
87802b82:	2301      	movs	r3, #1
87802b84:	2200      	movs	r2, #0
87802b86:	a901      	add	r1, sp, #4
87802b88:	4620      	mov	r0, r4
87802b8a:	f002 fc59 	bl	87805440 <xQueueGenericReceive>
87802b8e:	f8dd e004 	ldr.w	lr, [sp, #4]
87802b92:	2300      	movs	r3, #0
87802b94:	f8dd 9000 	ldr.w	r9, [sp]
87802b98:	2801      	cmp	r0, #1
87802b9a:	461a      	mov	r2, r3
87802b9c:	bf18      	it	ne
87802b9e:	606e      	strne	r6, [r5, #4]
87802ba0:	a901      	add	r1, sp, #4
87802ba2:	ea6f 0c0e 	mvn.w	ip, lr
87802ba6:	45f1      	cmp	r9, lr
87802ba8:	4620      	mov	r0, r4
87802baa:	bf18      	it	ne
87802bac:	606e      	strne	r6, [r5, #4]
87802bae:	f8cd c004 	str.w	ip, [sp, #4]
87802bb2:	f002 fc45 	bl	87805440 <xQueueGenericReceive>
87802bb6:	9a00      	ldr	r2, [sp, #0]
87802bb8:	2801      	cmp	r0, #1
87802bba:	9901      	ldr	r1, [sp, #4]
87802bbc:	bf18      	it	ne
87802bbe:	606e      	strne	r6, [r5, #4]
87802bc0:	1c53      	adds	r3, r2, #1
87802bc2:	428a      	cmp	r2, r1
87802bc4:	9300      	str	r3, [sp, #0]
87802bc6:	bf18      	it	ne
87802bc8:	606e      	strne	r6, [r5, #4]
87802bca:	2b04      	cmp	r3, #4
87802bcc:	d9d9      	bls.n	87802b82 <prvSendFrontAndBackTest+0x10a>
87802bce:	4620      	mov	r0, r4
87802bd0:	f002 fd74 	bl	878056bc <uxQueueMessagesWaiting>
87802bd4:	b100      	cbz	r0, 87802bd8 <prvSendFrontAndBackTest+0x160>
87802bd6:	606e      	str	r6, [r5, #4]
87802bd8:	2300      	movs	r3, #0
87802bda:	f04f 0e0a 	mov.w	lr, #10
87802bde:	461a      	mov	r2, r3
87802be0:	4669      	mov	r1, sp
87802be2:	4620      	mov	r0, r4
87802be4:	f8cd e000 	str.w	lr, [sp]
87802be8:	f002 fabe 	bl	87805168 <xQueueGenericSend>
87802bec:	2300      	movs	r3, #0
87802bee:	2801      	cmp	r0, #1
87802bf0:	f04f 0e0b 	mov.w	lr, #11
87802bf4:	461a      	mov	r2, r3
87802bf6:	4669      	mov	r1, sp
87802bf8:	4620      	mov	r0, r4
87802bfa:	bf18      	it	ne
87802bfc:	606e      	strne	r6, [r5, #4]
87802bfe:	f8cd e000 	str.w	lr, [sp]
87802c02:	f002 fab1 	bl	87805168 <xQueueGenericSend>
87802c06:	2801      	cmp	r0, #1
87802c08:	4620      	mov	r0, r4
87802c0a:	bf18      	it	ne
87802c0c:	606e      	strne	r6, [r5, #4]
87802c0e:	f002 fd55 	bl	878056bc <uxQueueMessagesWaiting>
87802c12:	2309      	movs	r3, #9
87802c14:	2802      	cmp	r0, #2
87802c16:	bf18      	it	ne
87802c18:	606e      	strne	r6, [r5, #4]
87802c1a:	9300      	str	r3, [sp, #0]
87802c1c:	2301      	movs	r3, #1
87802c1e:	2200      	movs	r2, #0
87802c20:	4669      	mov	r1, sp
87802c22:	4620      	mov	r0, r4
87802c24:	f002 faa0 	bl	87805168 <xQueueGenericSend>
87802c28:	9b00      	ldr	r3, [sp, #0]
87802c2a:	2801      	cmp	r0, #1
87802c2c:	bf18      	it	ne
87802c2e:	606e      	strne	r6, [r5, #4]
87802c30:	3b01      	subs	r3, #1
87802c32:	2b06      	cmp	r3, #6
87802c34:	9300      	str	r3, [sp, #0]
87802c36:	d8f1      	bhi.n	87802c1c <prvSendFrontAndBackTest+0x1a4>
87802c38:	4620      	mov	r0, r4
87802c3a:	f002 fd3f 	bl	878056bc <uxQueueMessagesWaiting>
87802c3e:	2301      	movs	r3, #1
87802c40:	2805      	cmp	r0, #5
87802c42:	f04f 0200 	mov.w	r2, #0
87802c46:	4669      	mov	r1, sp
87802c48:	4620      	mov	r0, r4
87802c4a:	bf18      	it	ne
87802c4c:	606e      	strne	r6, [r5, #4]
87802c4e:	f002 fa8b 	bl	87805168 <xQueueGenericSend>
87802c52:	b100      	cbz	r0, 87802c56 <prvSendFrontAndBackTest+0x1de>
87802c54:	606e      	str	r6, [r5, #4]
87802c56:	2300      	movs	r3, #0
87802c58:	4669      	mov	r1, sp
87802c5a:	461a      	mov	r2, r3
87802c5c:	4620      	mov	r0, r4
87802c5e:	f002 fa83 	bl	87805168 <xQueueGenericSend>
87802c62:	b100      	cbz	r0, 87802c66 <prvSendFrontAndBackTest+0x1ee>
87802c64:	606e      	str	r6, [r5, #4]
87802c66:	2307      	movs	r3, #7
87802c68:	9300      	str	r3, [sp, #0]
87802c6a:	2300      	movs	r3, #0
87802c6c:	a901      	add	r1, sp, #4
87802c6e:	461a      	mov	r2, r3
87802c70:	4620      	mov	r0, r4
87802c72:	f002 fbe5 	bl	87805440 <xQueueGenericReceive>
87802c76:	9a00      	ldr	r2, [sp, #0]
87802c78:	2801      	cmp	r0, #1
87802c7a:	9901      	ldr	r1, [sp, #4]
87802c7c:	bf18      	it	ne
87802c7e:	606e      	strne	r6, [r5, #4]
87802c80:	1c53      	adds	r3, r2, #1
87802c82:	428a      	cmp	r2, r1
87802c84:	9300      	str	r3, [sp, #0]
87802c86:	bf18      	it	ne
87802c88:	606e      	strne	r6, [r5, #4]
87802c8a:	2b0b      	cmp	r3, #11
87802c8c:	d9ed      	bls.n	87802c6a <prvSendFrontAndBackTest+0x1f2>
87802c8e:	4620      	mov	r0, r4
87802c90:	f002 fd14 	bl	878056bc <uxQueueMessagesWaiting>
87802c94:	b100      	cbz	r0, 87802c98 <prvSendFrontAndBackTest+0x220>
87802c96:	606e      	str	r6, [r5, #4]
87802c98:	696b      	ldr	r3, [r5, #20]
87802c9a:	3301      	adds	r3, #1
87802c9c:	616b      	str	r3, [r5, #20]
87802c9e:	e6f7      	b.n	87802a90 <prvSendFrontAndBackTest+0x18>

87802ca0 <vStartGenericQueueTasks>:
87802ca0:	b570      	push	{r4, r5, r6, lr}
87802ca2:	2200      	movs	r2, #0
87802ca4:	b082      	sub	sp, #8
87802ca6:	4605      	mov	r5, r0
87802ca8:	2104      	movs	r1, #4
87802caa:	2005      	movs	r0, #5
87802cac:	f002 fa2a 	bl	87805104 <xQueueGenericCreate>
87802cb0:	b1a8      	cbz	r0, 87802cde <vStartGenericQueueTasks+0x3e>
87802cb2:	f24a 4130 	movw	r1, #42032	; 0xa430
87802cb6:	4604      	mov	r4, r0
87802cb8:	f2c8 7180 	movt	r1, #34688	; 0x8780
87802cbc:	f002 fd62 	bl	87805784 <vQueueAddToRegistry>
87802cc0:	2200      	movs	r2, #0
87802cc2:	f24a 4140 	movw	r1, #42048	; 0xa440
87802cc6:	f642 2079 	movw	r0, #10873	; 0x2a79
87802cca:	9201      	str	r2, [sp, #4]
87802ccc:	9500      	str	r5, [sp, #0]
87802cce:	4623      	mov	r3, r4
87802cd0:	f2c8 7180 	movt	r1, #34688	; 0x8780
87802cd4:	f2c8 7080 	movt	r0, #34688	; 0x8780
87802cd8:	225a      	movs	r2, #90	; 0x5a
87802cda:	f002 ffd3 	bl	87805c84 <xTaskCreate>
87802cde:	2001      	movs	r0, #1
87802ce0:	f002 fae2 	bl	878052a8 <xQueueCreateMutex>
87802ce4:	4606      	mov	r6, r0
87802ce6:	b3a0      	cbz	r0, 87802d52 <vStartGenericQueueTasks+0xb2>
87802ce8:	f24a 4148 	movw	r1, #42056	; 0xa448
87802cec:	2500      	movs	r5, #0
87802cee:	f2c8 7180 	movt	r1, #34688	; 0x8780
87802cf2:	4c19      	ldr	r4, [pc, #100]	; (87802d58 <vStartGenericQueueTasks+0xb8>)
87802cf4:	f002 fd46 	bl	87805784 <vQueueAddToRegistry>
87802cf8:	f24a 4158 	movw	r1, #42072	; 0xa458
87802cfc:	f642 00c5 	movw	r0, #10437	; 0x28c5
87802d00:	f2c8 7180 	movt	r1, #34688	; 0x8780
87802d04:	4633      	mov	r3, r6
87802d06:	225a      	movs	r2, #90	; 0x5a
87802d08:	9501      	str	r5, [sp, #4]
87802d0a:	9500      	str	r5, [sp, #0]
87802d0c:	f2c8 7080 	movt	r0, #34688	; 0x8780
87802d10:	f002 ffb8 	bl	87805c84 <xTaskCreate>
87802d14:	2202      	movs	r2, #2
87802d16:	f24a 4160 	movw	r1, #42080	; 0xa460
87802d1a:	f642 0071 	movw	r0, #10353	; 0x2871
87802d1e:	462b      	mov	r3, r5
87802d20:	9401      	str	r4, [sp, #4]
87802d22:	f2c8 7180 	movt	r1, #34688	; 0x8780
87802d26:	9200      	str	r2, [sp, #0]
87802d28:	f2c8 7080 	movt	r0, #34688	; 0x8780
87802d2c:	225a      	movs	r2, #90	; 0x5a
87802d2e:	3c04      	subs	r4, #4
87802d30:	f002 ffa8 	bl	87805c84 <xTaskCreate>
87802d34:	2203      	movs	r2, #3
87802d36:	f24a 4168 	movw	r1, #42088	; 0xa468
87802d3a:	f642 0089 	movw	r0, #10377	; 0x2889
87802d3e:	9200      	str	r2, [sp, #0]
87802d40:	9401      	str	r4, [sp, #4]
87802d42:	4633      	mov	r3, r6
87802d44:	f2c8 7180 	movt	r1, #34688	; 0x8780
87802d48:	f2c8 7080 	movt	r0, #34688	; 0x8780
87802d4c:	225a      	movs	r2, #90	; 0x5a
87802d4e:	f002 ff99 	bl	87805c84 <xTaskCreate>
87802d52:	b002      	add	sp, #8
87802d54:	bd70      	pop	{r4, r5, r6, pc}
87802d56:	bf00      	nop
87802d58:	880001d8 	stmdahi	r0, {r3, r4, r6, r7, r8}

87802d5c <xAreGenericQueueTasksStillRunning>:
87802d5c:	f240 13cc 	movw	r3, #460	; 0x1cc
87802d60:	f6c8 0300 	movt	r3, #34816	; 0x8800
87802d64:	695a      	ldr	r2, [r3, #20]
87802d66:	6999      	ldr	r1, [r3, #24]
87802d68:	4291      	cmp	r1, r2
87802d6a:	69d9      	ldr	r1, [r3, #28]
87802d6c:	bf04      	itt	eq
87802d6e:	2201      	moveq	r2, #1
87802d70:	605a      	streq	r2, [r3, #4]
87802d72:	691a      	ldr	r2, [r3, #16]
87802d74:	4291      	cmp	r1, r2
87802d76:	bf04      	itt	eq
87802d78:	2201      	moveq	r2, #1
87802d7a:	605a      	streq	r2, [r3, #4]
87802d7c:	6959      	ldr	r1, [r3, #20]
87802d7e:	691a      	ldr	r2, [r3, #16]
87802d80:	6858      	ldr	r0, [r3, #4]
87802d82:	6199      	str	r1, [r3, #24]
87802d84:	61da      	str	r2, [r3, #28]
87802d86:	fab0 f080 	clz	r0, r0
87802d8a:	0940      	lsrs	r0, r0, #5
87802d8c:	4770      	bx	lr
87802d8e:	bf00      	nop

87802d90 <prvSemaphoreTest>:
87802d90:	e92d 41f0 	stmdb	sp!, {r4, r5, r6, r7, r8, lr}
87802d94:	f240 17ec 	movw	r7, #492	; 0x1ec
87802d98:	f6c8 0700 	movt	r7, #34816	; 0x8800
87802d9c:	b082      	sub	sp, #8
87802d9e:	4606      	mov	r6, r0
87802da0:	f004 fc8e 	bl	878076c0 <vPortEnterCritical>
87802da4:	f8b7 8000 	ldrh.w	r8, [r7]
87802da8:	883b      	ldrh	r3, [r7, #0]
87802daa:	3301      	adds	r3, #1
87802dac:	fa0f f888 	sxth.w	r8, r8
87802db0:	b21b      	sxth	r3, r3
87802db2:	803b      	strh	r3, [r7, #0]
87802db4:	f004 fcc6 	bl	87807744 <vPortExitCritical>
87802db8:	68b2      	ldr	r2, [r6, #8]
87802dba:	6875      	ldr	r5, [r6, #4]
87802dbc:	2a00      	cmp	r2, #0
87802dbe:	d040      	beq.n	87802e42 <prvSemaphoreTest+0xb2>
87802dc0:	f640 73ff 	movw	r3, #4095	; 0xfff
87802dc4:	9301      	str	r3, [sp, #4]
87802dc6:	eb07 0748 	add.w	r7, r7, r8, lsl #1
87802dca:	2400      	movs	r4, #0
87802dcc:	2300      	movs	r3, #0
87802dce:	6830      	ldr	r0, [r6, #0]
87802dd0:	4619      	mov	r1, r3
87802dd2:	f002 fb35 	bl	87805440 <xQueueGenericReceive>
87802dd6:	2801      	cmp	r0, #1
87802dd8:	d004      	beq.n	87802de4 <prvSemaphoreTest+0x54>
87802dda:	68b2      	ldr	r2, [r6, #8]
87802ddc:	2a00      	cmp	r2, #0
87802dde:	d1f5      	bne.n	87802dcc <prvSemaphoreTest+0x3c>
87802de0:	df00      	svc	0
87802de2:	e7f3      	b.n	87802dcc <prvSemaphoreTest+0x3c>
87802de4:	6829      	ldr	r1, [r5, #0]
87802de6:	2300      	movs	r3, #0
87802de8:	9a01      	ldr	r2, [sp, #4]
87802dea:	9801      	ldr	r0, [sp, #4]
87802dec:	4291      	cmp	r1, r2
87802dee:	bf18      	it	ne
87802df0:	2401      	movne	r4, #1
87802df2:	602b      	str	r3, [r5, #0]
87802df4:	6829      	ldr	r1, [r5, #0]
87802df6:	9a01      	ldr	r2, [sp, #4]
87802df8:	4299      	cmp	r1, r3
87802dfa:	bf18      	it	ne
87802dfc:	2401      	movne	r4, #1
87802dfe:	3301      	adds	r3, #1
87802e00:	429a      	cmp	r2, r3
87802e02:	d2f6      	bcs.n	87802df2 <prvSemaphoreTest+0x62>
87802e04:	2300      	movs	r3, #0
87802e06:	6830      	ldr	r0, [r6, #0]
87802e08:	461a      	mov	r2, r3
87802e0a:	4619      	mov	r1, r3
87802e0c:	f002 f9ac 	bl	87805168 <xQueueGenericSend>
87802e10:	b1a8      	cbz	r0, 87802e3e <prvSemaphoreTest+0xae>
87802e12:	f084 0301 	eor.w	r3, r4, #1
87802e16:	f1b8 0f03 	cmp.w	r8, #3
87802e1a:	bfcc      	ite	gt
87802e1c:	2300      	movgt	r3, #0
87802e1e:	f003 0301 	andle.w	r3, r3, #1
87802e22:	b123      	cbz	r3, 87802e2e <prvSemaphoreTest+0x9e>
87802e24:	88bb      	ldrh	r3, [r7, #4]
87802e26:	2400      	movs	r4, #0
87802e28:	3301      	adds	r3, #1
87802e2a:	b21b      	sxth	r3, r3
87802e2c:	80bb      	strh	r3, [r7, #4]
87802e2e:	68b0      	ldr	r0, [r6, #8]
87802e30:	eb00 0080 	add.w	r0, r0, r0, lsl #2
87802e34:	0040      	lsls	r0, r0, #1
87802e36:	f003 fb15 	bl	87806464 <vTaskDelay>
87802e3a:	68b2      	ldr	r2, [r6, #8]
87802e3c:	e7c6      	b.n	87802dcc <prvSemaphoreTest+0x3c>
87802e3e:	2401      	movs	r4, #1
87802e40:	e7f5      	b.n	87802e2e <prvSemaphoreTest+0x9e>
87802e42:	23ff      	movs	r3, #255	; 0xff
87802e44:	9301      	str	r3, [sp, #4]
87802e46:	e7be      	b.n	87802dc6 <prvSemaphoreTest+0x36>

87802e48 <vStartSemaphoreTasks>:
87802e48:	b5f0      	push	{r4, r5, r6, r7, lr}
87802e4a:	4606      	mov	r6, r0
87802e4c:	b083      	sub	sp, #12
87802e4e:	200c      	movs	r0, #12
87802e50:	f004 fd5a 	bl	87807908 <pvPortMalloc>
87802e54:	2800      	cmp	r0, #0
87802e56:	d038      	beq.n	87802eca <vStartSemaphoreTasks+0x82>
87802e58:	4604      	mov	r4, r0
87802e5a:	2203      	movs	r2, #3
87802e5c:	2100      	movs	r1, #0
87802e5e:	2001      	movs	r0, #1
87802e60:	f002 f950 	bl	87805104 <xQueueGenericCreate>
87802e64:	6020      	str	r0, [r4, #0]
87802e66:	b380      	cbz	r0, 87802eca <vStartSemaphoreTasks+0x82>
87802e68:	2300      	movs	r3, #0
87802e6a:	461a      	mov	r2, r3
87802e6c:	4619      	mov	r1, r3
87802e6e:	461d      	mov	r5, r3
87802e70:	f002 f97a 	bl	87805168 <xQueueGenericSend>
87802e74:	2004      	movs	r0, #4
87802e76:	f004 fd47 	bl	87807908 <pvPortMalloc>
87802e7a:	22ff      	movs	r2, #255	; 0xff
87802e7c:	4603      	mov	r3, r0
87802e7e:	f24a 4170 	movw	r1, #42096	; 0xa470
87802e82:	f642 5091 	movw	r0, #11665	; 0x2d91
87802e86:	6063      	str	r3, [r4, #4]
87802e88:	f2c8 7180 	movt	r1, #34688	; 0x8780
87802e8c:	601a      	str	r2, [r3, #0]
87802e8e:	f2c8 7080 	movt	r0, #34688	; 0x8780
87802e92:	60a5      	str	r5, [r4, #8]
87802e94:	4623      	mov	r3, r4
87802e96:	225a      	movs	r2, #90	; 0x5a
87802e98:	9501      	str	r5, [sp, #4]
87802e9a:	9500      	str	r5, [sp, #0]
87802e9c:	f002 fef2 	bl	87805c84 <xTaskCreate>
87802ea0:	f24a 4178 	movw	r1, #42104	; 0xa478
87802ea4:	f642 5091 	movw	r0, #11665	; 0x2d91
87802ea8:	f2c8 7180 	movt	r1, #34688	; 0x8780
87802eac:	9501      	str	r5, [sp, #4]
87802eae:	9500      	str	r5, [sp, #0]
87802eb0:	f2c8 7080 	movt	r0, #34688	; 0x8780
87802eb4:	4623      	mov	r3, r4
87802eb6:	225a      	movs	r2, #90	; 0x5a
87802eb8:	f002 fee4 	bl	87805c84 <xTaskCreate>
87802ebc:	f24a 4180 	movw	r1, #42112	; 0xa480
87802ec0:	6820      	ldr	r0, [r4, #0]
87802ec2:	f2c8 7180 	movt	r1, #34688	; 0x8780
87802ec6:	f002 fc5d 	bl	87805784 <vQueueAddToRegistry>
87802eca:	200c      	movs	r0, #12
87802ecc:	f004 fd1c 	bl	87807908 <pvPortMalloc>
87802ed0:	4604      	mov	r4, r0
87802ed2:	2800      	cmp	r0, #0
87802ed4:	d03c      	beq.n	87802f50 <vStartSemaphoreTasks+0x108>
87802ed6:	2203      	movs	r2, #3
87802ed8:	2100      	movs	r1, #0
87802eda:	2001      	movs	r0, #1
87802edc:	f002 f912 	bl	87805104 <xQueueGenericCreate>
87802ee0:	6020      	str	r0, [r4, #0]
87802ee2:	b3a8      	cbz	r0, 87802f50 <vStartSemaphoreTasks+0x108>
87802ee4:	2300      	movs	r3, #0
87802ee6:	f640 77ff 	movw	r7, #4095	; 0xfff
87802eea:	461a      	mov	r2, r3
87802eec:	4619      	mov	r1, r3
87802eee:	461d      	mov	r5, r3
87802ef0:	f002 f93a 	bl	87805168 <xQueueGenericSend>
87802ef4:	2004      	movs	r0, #4
87802ef6:	f004 fd07 	bl	87807908 <pvPortMalloc>
87802efa:	2264      	movs	r2, #100	; 0x64
87802efc:	4603      	mov	r3, r0
87802efe:	f24a 4190 	movw	r1, #42128	; 0xa490
87802f02:	f642 5091 	movw	r0, #11665	; 0x2d91
87802f06:	6063      	str	r3, [r4, #4]
87802f08:	f2c8 7180 	movt	r1, #34688	; 0x8780
87802f0c:	601f      	str	r7, [r3, #0]
87802f0e:	f2c8 7080 	movt	r0, #34688	; 0x8780
87802f12:	60a2      	str	r2, [r4, #8]
87802f14:	4623      	mov	r3, r4
87802f16:	9600      	str	r6, [sp, #0]
87802f18:	225a      	movs	r2, #90	; 0x5a
87802f1a:	9501      	str	r5, [sp, #4]
87802f1c:	f002 feb2 	bl	87805c84 <xTaskCreate>
87802f20:	f24a 4198 	movw	r1, #42136	; 0xa498
87802f24:	f642 5091 	movw	r0, #11665	; 0x2d91
87802f28:	9501      	str	r5, [sp, #4]
87802f2a:	f2c8 7180 	movt	r1, #34688	; 0x8780
87802f2e:	9600      	str	r6, [sp, #0]
87802f30:	4623      	mov	r3, r4
87802f32:	225a      	movs	r2, #90	; 0x5a
87802f34:	f2c8 7080 	movt	r0, #34688	; 0x8780
87802f38:	f002 fea4 	bl	87805c84 <xTaskCreate>
87802f3c:	f24a 41a0 	movw	r1, #42144	; 0xa4a0
87802f40:	6820      	ldr	r0, [r4, #0]
87802f42:	f2c8 7180 	movt	r1, #34688	; 0x8780
87802f46:	b003      	add	sp, #12
87802f48:	e8bd 40f0 	ldmia.w	sp!, {r4, r5, r6, r7, lr}
87802f4c:	f002 bc1a 	b.w	87805784 <vQueueAddToRegistry>
87802f50:	b003      	add	sp, #12
87802f52:	bdf0      	pop	{r4, r5, r6, r7, pc}

87802f54 <xAreSemaphoreTasksStillRunning>:
87802f54:	490b      	ldr	r1, [pc, #44]	; (87802f84 <xAreSemaphoreTasksStillRunning+0x30>)
87802f56:	2001      	movs	r0, #1
87802f58:	b470      	push	{r4, r5, r6}
87802f5a:	2300      	movs	r3, #0
87802f5c:	f1a1 060c 	sub.w	r6, r1, #12
87802f60:	eb06 0443 	add.w	r4, r6, r3, lsl #1
87802f64:	f9b1 5000 	ldrsh.w	r5, [r1]
87802f68:	3301      	adds	r3, #1
87802f6a:	88a2      	ldrh	r2, [r4, #4]
87802f6c:	88a4      	ldrh	r4, [r4, #4]
87802f6e:	b212      	sxth	r2, r2
87802f70:	f821 4b02 	strh.w	r4, [r1], #2
87802f74:	4295      	cmp	r5, r2
87802f76:	bf08      	it	eq
87802f78:	2000      	moveq	r0, #0
87802f7a:	2b04      	cmp	r3, #4
87802f7c:	d1f0      	bne.n	87802f60 <xAreSemaphoreTasksStillRunning+0xc>
87802f7e:	bc70      	pop	{r4, r5, r6}
87802f80:	4770      	bx	lr
87802f82:	bf00      	nop
87802f84:	880001f8 	stmdahi	r0, {r3, r4, r5, r6, r7, r8}

87802f88 <prvSyncTask>:
87802f88:	b5f0      	push	{r4, r5, r6, r7, lr}
87802f8a:	f240 2400 	movw	r4, #512	; 0x200
87802f8e:	b083      	sub	sp, #12
87802f90:	f6c8 0400 	movt	r4, #34816	; 0x8800
87802f94:	4606      	mov	r6, r0
87802f96:	f04f 37ff 	mov.w	r7, #4294967295	; 0xffffffff
87802f9a:	f003 fd55 	bl	87806a48 <xTaskGetCurrentTaskHandle>
87802f9e:	6825      	ldr	r5, [r4, #0]
87802fa0:	4285      	cmp	r5, r0
87802fa2:	bf0c      	ite	eq
87802fa4:	2503      	moveq	r5, #3
87802fa6:	2505      	movne	r5, #5
87802fa8:	2000      	movs	r0, #0
87802faa:	f003 fad3 	bl	87806554 <vTaskSuspend>
87802fae:	6860      	ldr	r0, [r4, #4]
87802fb0:	2300      	movs	r3, #0
87802fb2:	9700      	str	r7, [sp, #0]
87802fb4:	2201      	movs	r2, #1
87802fb6:	4629      	mov	r1, r5
87802fb8:	f002 fcac 	bl	87805914 <xEventGroupWaitBits>
87802fbc:	2800      	cmp	r0, #0
87802fbe:	d1f3      	bne.n	87802fa8 <prvSyncTask+0x20>
87802fc0:	f04f 37ff 	mov.w	r7, #4294967295	; 0xffffffff
87802fc4:	e014      	b.n	87802ff0 <prvSyncTask+0x68>
87802fc6:	f003 fac5 	bl	87806554 <vTaskSuspend>
87802fca:	462a      	mov	r2, r5
87802fcc:	f04f 33ff 	mov.w	r3, #4294967295	; 0xffffffff
87802fd0:	4631      	mov	r1, r6
87802fd2:	6860      	ldr	r0, [r4, #4]
87802fd4:	f002 fd76 	bl	87805ac4 <xEventGroupSync>
87802fd8:	f000 010f 	and.w	r1, r0, #15
87802fdc:	2301      	movs	r3, #1
87802fde:	290f      	cmp	r1, #15
87802fe0:	f04f 0200 	mov.w	r2, #0
87802fe4:	d119      	bne.n	8780301a <prvSyncTask+0x92>
87802fe6:	6860      	ldr	r0, [r4, #4]
87802fe8:	9700      	str	r7, [sp, #0]
87802fea:	f002 fc93 	bl	87805914 <xEventGroupWaitBits>
87802fee:	b988      	cbnz	r0, 87803014 <prvSyncTask+0x8c>
87802ff0:	2000      	movs	r0, #0
87802ff2:	f003 faaf 	bl	87806554 <vTaskSuspend>
87802ff6:	f04f 33ff 	mov.w	r3, #4294967295	; 0xffffffff
87802ffa:	220f      	movs	r2, #15
87802ffc:	4631      	mov	r1, r6
87802ffe:	6860      	ldr	r0, [r4, #4]
87803000:	f002 fd60 	bl	87805ac4 <xEventGroupSync>
87803004:	f000 050f 	and.w	r5, r0, #15
87803008:	2000      	movs	r0, #0
8780300a:	2d0f      	cmp	r5, #15
8780300c:	d0db      	beq.n	87802fc6 <prvSyncTask+0x3e>
8780300e:	f004 fbd9 	bl	878077c4 <ulPortSetInterruptMask>
87803012:	e7fe      	b.n	87803012 <prvSyncTask+0x8a>
87803014:	f004 fbd6 	bl	878077c4 <ulPortSetInterruptMask>
87803018:	e7fe      	b.n	87803018 <prvSyncTask+0x90>
8780301a:	f004 fbd3 	bl	878077c4 <ulPortSetInterruptMask>
8780301e:	e7fe      	b.n	8780301e <prvSyncTask+0x96>

87803020 <prvTestSlaveTask>:
87803020:	b5f0      	push	{r4, r5, r6, r7, lr}
87803022:	f240 2400 	movw	r4, #512	; 0x200
87803026:	b083      	sub	sp, #12
87803028:	f04f 36ff 	mov.w	r6, #4294967295	; 0xffffffff
8780302c:	f6c8 0400 	movt	r4, #34816	; 0x8800
87803030:	2000      	movs	r0, #0
87803032:	f003 fa8f 	bl	87806554 <vTaskSuspend>
87803036:	2301      	movs	r3, #1
87803038:	2102      	movs	r1, #2
8780303a:	461a      	mov	r2, r3
8780303c:	6860      	ldr	r0, [r4, #4]
8780303e:	9600      	str	r6, [sp, #0]
87803040:	f002 fc68 	bl	87805914 <xEventGroupWaitBits>
87803044:	2301      	movs	r3, #1
87803046:	4605      	mov	r5, r0
87803048:	9600      	str	r6, [sp, #0]
8780304a:	2200      	movs	r2, #0
8780304c:	6860      	ldr	r0, [r4, #4]
8780304e:	21a2      	movs	r1, #162	; 0xa2
87803050:	f002 fc60 	bl	87805914 <xEventGroupWaitBits>
87803054:	f000 00a2 	and.w	r0, r0, #162	; 0xa2
87803058:	28a2      	cmp	r0, #162	; 0xa2
8780305a:	bf18      	it	ne
8780305c:	2501      	movne	r5, #1
8780305e:	d102      	bne.n	87803066 <prvTestSlaveTask+0x46>
87803060:	3da2      	subs	r5, #162	; 0xa2
87803062:	bf18      	it	ne
87803064:	2501      	movne	r5, #1
87803066:	2000      	movs	r0, #0
87803068:	f003 fa74 	bl	87806554 <vTaskSuspend>
8780306c:	2301      	movs	r3, #1
8780306e:	21a2      	movs	r1, #162	; 0xa2
87803070:	461a      	mov	r2, r3
87803072:	6860      	ldr	r0, [r4, #4]
87803074:	9600      	str	r6, [sp, #0]
87803076:	f002 fc4d 	bl	87805914 <xEventGroupWaitBits>
8780307a:	28ff      	cmp	r0, #255	; 0xff
8780307c:	f04f 0000 	mov.w	r0, #0
87803080:	bf18      	it	ne
87803082:	2501      	movne	r5, #1
87803084:	f003 fa66 	bl	87806554 <vTaskSuspend>
87803088:	2102      	movs	r1, #2
8780308a:	f04f 33ff 	mov.w	r3, #4294967295	; 0xffffffff
8780308e:	220f      	movs	r2, #15
87803090:	6860      	ldr	r0, [r4, #4]
87803092:	f002 fd17 	bl	87805ac4 <xEventGroupSync>
87803096:	f000 000f 	and.w	r0, r0, #15
8780309a:	2100      	movs	r1, #0
8780309c:	280f      	cmp	r0, #15
8780309e:	6860      	ldr	r0, [r4, #4]
878030a0:	d04e      	beq.n	87803140 <prvTestSlaveTask+0x120>
878030a2:	f002 fcd1 	bl	87805a48 <xEventGroupSetBits>
878030a6:	4601      	mov	r1, r0
878030a8:	bb60      	cbnz	r0, 87803104 <prvTestSlaveTask+0xe4>
878030aa:	2501      	movs	r5, #1
878030ac:	6860      	ldr	r0, [r4, #4]
878030ae:	f002 fc9d 	bl	878059ec <xEventGroupClearBits>
878030b2:	2000      	movs	r0, #0
878030b4:	f003 fa4e 	bl	87806554 <vTaskSuspend>
878030b8:	2102      	movs	r1, #2
878030ba:	f04f 33ff 	mov.w	r3, #4294967295	; 0xffffffff
878030be:	220f      	movs	r2, #15
878030c0:	6860      	ldr	r0, [r4, #4]
878030c2:	f002 fcff 	bl	87805ac4 <xEventGroupSync>
878030c6:	f000 070f 	and.w	r7, r0, #15
878030ca:	2100      	movs	r1, #0
878030cc:	2f0f      	cmp	r7, #15
878030ce:	6860      	ldr	r0, [r4, #4]
878030d0:	d01e      	beq.n	87803110 <prvTestSlaveTask+0xf0>
878030d2:	f002 fcb9 	bl	87805a48 <xEventGroupSetBits>
878030d6:	4602      	mov	r2, r0
878030d8:	b950      	cbnz	r0, 878030f0 <prvTestSlaveTask+0xd0>
878030da:	f04f 33ff 	mov.w	r3, #4294967295	; 0xffffffff
878030de:	6860      	ldr	r0, [r4, #4]
878030e0:	9300      	str	r3, [sp, #0]
878030e2:	210f      	movs	r1, #15
878030e4:	2301      	movs	r3, #1
878030e6:	f002 fc15 	bl	87805914 <xEventGroupWaitBits>
878030ea:	f004 fb6b 	bl	878077c4 <ulPortSetInterruptMask>
878030ee:	e7fe      	b.n	878030ee <prvTestSlaveTask+0xce>
878030f0:	f04f 33ff 	mov.w	r3, #4294967295	; 0xffffffff
878030f4:	6860      	ldr	r0, [r4, #4]
878030f6:	9300      	str	r3, [sp, #0]
878030f8:	2200      	movs	r2, #0
878030fa:	2301      	movs	r3, #1
878030fc:	210f      	movs	r1, #15
878030fe:	f002 fc09 	bl	87805914 <xEventGroupWaitBits>
87803102:	e7f2      	b.n	878030ea <prvTestSlaveTask+0xca>
87803104:	2100      	movs	r1, #0
87803106:	6860      	ldr	r0, [r4, #4]
87803108:	f002 fc70 	bl	878059ec <xEventGroupClearBits>
8780310c:	2501      	movs	r5, #1
8780310e:	e7d0      	b.n	878030b2 <prvTestSlaveTask+0x92>
87803110:	f002 fc9a 	bl	87805a48 <xEventGroupSetBits>
87803114:	4602      	mov	r2, r0
87803116:	2800      	cmp	r0, #0
87803118:	d1ea      	bne.n	878030f0 <prvTestSlaveTask+0xd0>
8780311a:	6860      	ldr	r0, [r4, #4]
8780311c:	4639      	mov	r1, r7
8780311e:	9600      	str	r6, [sp, #0]
87803120:	2301      	movs	r3, #1
87803122:	f085 0501 	eor.w	r5, r5, #1
87803126:	f002 fbf5 	bl	87805914 <xEventGroupWaitBits>
8780312a:	2800      	cmp	r0, #0
8780312c:	bf14      	ite	ne
8780312e:	2500      	movne	r5, #0
87803130:	f005 0501 	andeq.w	r5, r5, #1
87803134:	2d00      	cmp	r5, #0
87803136:	d0d8      	beq.n	878030ea <prvTestSlaveTask+0xca>
87803138:	68a3      	ldr	r3, [r4, #8]
8780313a:	3301      	adds	r3, #1
8780313c:	60a3      	str	r3, [r4, #8]
8780313e:	e777      	b.n	87803030 <prvTestSlaveTask+0x10>
87803140:	f002 fc82 	bl	87805a48 <xEventGroupSetBits>
87803144:	4601      	mov	r1, r0
87803146:	2800      	cmp	r0, #0
87803148:	d1dc      	bne.n	87803104 <prvTestSlaveTask+0xe4>
8780314a:	6860      	ldr	r0, [r4, #4]
8780314c:	f002 fc4e 	bl	878059ec <xEventGroupClearBits>
87803150:	b928      	cbnz	r0, 8780315e <prvTestSlaveTask+0x13e>
87803152:	2d00      	cmp	r5, #0
87803154:	d1ad      	bne.n	878030b2 <prvTestSlaveTask+0x92>
87803156:	68a3      	ldr	r3, [r4, #8]
87803158:	3301      	adds	r3, #1
8780315a:	60a3      	str	r3, [r4, #8]
8780315c:	e7a9      	b.n	878030b2 <prvTestSlaveTask+0x92>
8780315e:	2501      	movs	r5, #1
87803160:	e7a7      	b.n	878030b2 <prvTestSlaveTask+0x92>
87803162:	bf00      	nop

87803164 <prvTestMasterTask>:
87803164:	e92d 41f0 	stmdb	sp!, {r4, r5, r6, r7, r8, lr}
87803168:	f240 2700 	movw	r7, #512	; 0x200
8780316c:	b082      	sub	sp, #8
8780316e:	f6c8 0700 	movt	r7, #34816	; 0x8800
87803172:	4680      	mov	r8, r0
87803174:	f002 fbc0 	bl	878058f8 <xEventGroupCreate>
87803178:	6078      	str	r0, [r7, #4]
8780317a:	2800      	cmp	r0, #0
8780317c:	f000 81cd 	beq.w	8780351a <prvTestMasterTask+0x3b6>
87803180:	6838      	ldr	r0, [r7, #0]
87803182:	f002 fead 	bl	87805ee0 <eTaskGetState>
87803186:	4604      	mov	r4, r0
87803188:	68f8      	ldr	r0, [r7, #12]
8780318a:	f002 fea9 	bl	87805ee0 <eTaskGetState>
8780318e:	2803      	cmp	r0, #3
87803190:	bf18      	it	ne
87803192:	2401      	movne	r4, #1
87803194:	d102      	bne.n	8780319c <prvTestMasterTask+0x38>
87803196:	3c03      	subs	r4, #3
87803198:	bf18      	it	ne
8780319a:	2401      	movne	r4, #1
8780319c:	2608      	movs	r6, #8
8780319e:	2501      	movs	r5, #1
878031a0:	e011      	b.n	878031c6 <prvTestMasterTask+0x62>
878031a2:	f002 fe9d 	bl	87805ee0 <eTaskGetState>
878031a6:	2802      	cmp	r0, #2
878031a8:	d000      	beq.n	878031ac <prvTestMasterTask+0x48>
878031aa:	2401      	movs	r4, #1
878031ac:	f015 0f05 	tst.w	r5, #5
878031b0:	68f8      	ldr	r0, [r7, #12]
878031b2:	d129      	bne.n	87803208 <prvTestMasterTask+0xa4>
878031b4:	f002 fe94 	bl	87805ee0 <eTaskGetState>
878031b8:	2802      	cmp	r0, #2
878031ba:	d000      	beq.n	878031be <prvTestMasterTask+0x5a>
878031bc:	2401      	movs	r4, #1
878031be:	3e01      	subs	r6, #1
878031c0:	ea4f 0545 	mov.w	r5, r5, lsl #1
878031c4:	d028      	beq.n	87803218 <prvTestMasterTask+0xb4>
878031c6:	6838      	ldr	r0, [r7, #0]
878031c8:	f002 ff46 	bl	87806058 <vTaskResume>
878031cc:	68f8      	ldr	r0, [r7, #12]
878031ce:	f002 ff43 	bl	87806058 <vTaskResume>
878031d2:	6838      	ldr	r0, [r7, #0]
878031d4:	f002 fe84 	bl	87805ee0 <eTaskGetState>
878031d8:	2802      	cmp	r0, #2
878031da:	68f8      	ldr	r0, [r7, #12]
878031dc:	bf18      	it	ne
878031de:	2401      	movne	r4, #1
878031e0:	f002 fe7e 	bl	87805ee0 <eTaskGetState>
878031e4:	4629      	mov	r1, r5
878031e6:	2802      	cmp	r0, #2
878031e8:	6878      	ldr	r0, [r7, #4]
878031ea:	bf18      	it	ne
878031ec:	2401      	movne	r4, #1
878031ee:	f002 fc2b 	bl	87805a48 <xEventGroupSetBits>
878031f2:	07ab      	lsls	r3, r5, #30
878031f4:	6838      	ldr	r0, [r7, #0]
878031f6:	d0d4      	beq.n	878031a2 <prvTestMasterTask+0x3e>
878031f8:	f002 fe72 	bl	87805ee0 <eTaskGetState>
878031fc:	2803      	cmp	r0, #3
878031fe:	d1d4      	bne.n	878031aa <prvTestMasterTask+0x46>
87803200:	f015 0f05 	tst.w	r5, #5
87803204:	68f8      	ldr	r0, [r7, #12]
87803206:	d0d5      	beq.n	878031b4 <prvTestMasterTask+0x50>
87803208:	f002 fe6a 	bl	87805ee0 <eTaskGetState>
8780320c:	2803      	cmp	r0, #3
8780320e:	d1d5      	bne.n	878031bc <prvTestMasterTask+0x58>
87803210:	3e01      	subs	r6, #1
87803212:	ea4f 0545 	mov.w	r5, r5, lsl #1
87803216:	d1d6      	bne.n	878031c6 <prvTestMasterTask+0x62>
87803218:	6838      	ldr	r0, [r7, #0]
8780321a:	f002 ff1d 	bl	87806058 <vTaskResume>
8780321e:	68f8      	ldr	r0, [r7, #12]
87803220:	f002 ff1a 	bl	87806058 <vTaskResume>
87803224:	6878      	ldr	r0, [r7, #4]
87803226:	f002 fca1 	bl	87805b6c <vEventGroupDelete>
8780322a:	f002 fb65 	bl	878058f8 <xEventGroupCreate>
8780322e:	6078      	str	r0, [r7, #4]
87803230:	2800      	cmp	r0, #0
87803232:	f000 816f 	beq.w	87803514 <prvTestMasterTask+0x3b0>
87803236:	4640      	mov	r0, r8
87803238:	f002 ff0e 	bl	87806058 <vTaskResume>
8780323c:	4640      	mov	r0, r8
8780323e:	f002 fe4f 	bl	87805ee0 <eTaskGetState>
87803242:	21a2      	movs	r1, #162	; 0xa2
87803244:	2802      	cmp	r0, #2
87803246:	6878      	ldr	r0, [r7, #4]
87803248:	bf18      	it	ne
8780324a:	2401      	movne	r4, #1
8780324c:	f002 fbfc 	bl	87805a48 <xEventGroupSetBits>
87803250:	2300      	movs	r3, #0
87803252:	21ff      	movs	r1, #255	; 0xff
87803254:	461a      	mov	r2, r3
87803256:	6878      	ldr	r0, [r7, #4]
87803258:	9600      	str	r6, [sp, #0]
8780325a:	f002 fb5b 	bl	87805914 <xEventGroupWaitBits>
8780325e:	28a0      	cmp	r0, #160	; 0xa0
87803260:	4640      	mov	r0, r8
87803262:	bf18      	it	ne
87803264:	2401      	movne	r4, #1
87803266:	f002 fe3b 	bl	87805ee0 <eTaskGetState>
8780326a:	21fd      	movs	r1, #253	; 0xfd
8780326c:	2802      	cmp	r0, #2
8780326e:	6878      	ldr	r0, [r7, #4]
87803270:	bf18      	it	ne
87803272:	2401      	movne	r4, #1
87803274:	f002 fbe8 	bl	87805a48 <xEventGroupSetBits>
87803278:	2300      	movs	r3, #0
8780327a:	21ff      	movs	r1, #255	; 0xff
8780327c:	461a      	mov	r2, r3
8780327e:	6878      	ldr	r0, [r7, #4]
87803280:	9600      	str	r6, [sp, #0]
87803282:	f002 fb47 	bl	87805914 <xEventGroupWaitBits>
87803286:	28fd      	cmp	r0, #253	; 0xfd
87803288:	4640      	mov	r0, r8
8780328a:	bf18      	it	ne
8780328c:	2401      	movne	r4, #1
8780328e:	f002 fe27 	bl	87805ee0 <eTaskGetState>
87803292:	2102      	movs	r1, #2
87803294:	4288      	cmp	r0, r1
87803296:	6878      	ldr	r0, [r7, #4]
87803298:	bf18      	it	ne
8780329a:	2401      	movne	r4, #1
8780329c:	f002 fbd4 	bl	87805a48 <xEventGroupSetBits>
878032a0:	4640      	mov	r0, r8
878032a2:	f002 fe1d 	bl	87805ee0 <eTaskGetState>
878032a6:	2100      	movs	r1, #0
878032a8:	2803      	cmp	r0, #3
878032aa:	6878      	ldr	r0, [r7, #4]
878032ac:	bf18      	it	ne
878032ae:	2401      	movne	r4, #1
878032b0:	f002 fbca 	bl	87805a48 <xEventGroupSetBits>
878032b4:	2102      	movs	r1, #2
878032b6:	28ff      	cmp	r0, #255	; 0xff
878032b8:	6878      	ldr	r0, [r7, #4]
878032ba:	bf18      	it	ne
878032bc:	2401      	movne	r4, #1
878032be:	f002 fb95 	bl	878059ec <xEventGroupClearBits>
878032c2:	28ff      	cmp	r0, #255	; 0xff
878032c4:	4640      	mov	r0, r8
878032c6:	bf18      	it	ne
878032c8:	2401      	movne	r4, #1
878032ca:	f002 fec5 	bl	87806058 <vTaskResume>
878032ce:	4640      	mov	r0, r8
878032d0:	f002 fe06 	bl	87805ee0 <eTaskGetState>
878032d4:	2102      	movs	r1, #2
878032d6:	4288      	cmp	r0, r1
878032d8:	6878      	ldr	r0, [r7, #4]
878032da:	bf18      	it	ne
878032dc:	2401      	movne	r4, #1
878032de:	f002 fbb3 	bl	87805a48 <xEventGroupSetBits>
878032e2:	4640      	mov	r0, r8
878032e4:	f002 fdfc 	bl	87805ee0 <eTaskGetState>
878032e8:	687d      	ldr	r5, [r7, #4]
878032ea:	2300      	movs	r3, #0
878032ec:	461a      	mov	r2, r3
878032ee:	2803      	cmp	r0, #3
878032f0:	f04f 01ff 	mov.w	r1, #255	; 0xff
878032f4:	9600      	str	r6, [sp, #0]
878032f6:	4628      	mov	r0, r5
878032f8:	bf18      	it	ne
878032fa:	2401      	movne	r4, #1
878032fc:	f002 fb0a 	bl	87805914 <xEventGroupWaitBits>
87803300:	21ff      	movs	r1, #255	; 0xff
87803302:	285d      	cmp	r0, #93	; 0x5d
87803304:	6878      	ldr	r0, [r7, #4]
87803306:	bf18      	it	ne
87803308:	2401      	movne	r4, #1
8780330a:	f002 fb6f 	bl	878059ec <xEventGroupClearBits>
8780330e:	2100      	movs	r1, #0
87803310:	285d      	cmp	r0, #93	; 0x5d
87803312:	6878      	ldr	r0, [r7, #4]
87803314:	bf18      	it	ne
87803316:	2401      	movne	r4, #1
87803318:	f002 fb68 	bl	878059ec <xEventGroupClearBits>
8780331c:	2800      	cmp	r0, #0
8780331e:	4640      	mov	r0, r8
87803320:	bf18      	it	ne
87803322:	2401      	movne	r4, #1
87803324:	f002 fddc 	bl	87805ee0 <eTaskGetState>
87803328:	2803      	cmp	r0, #3
8780332a:	6838      	ldr	r0, [r7, #0]
8780332c:	bf18      	it	ne
8780332e:	2401      	movne	r4, #1
87803330:	f002 fdd6 	bl	87805ee0 <eTaskGetState>
87803334:	2803      	cmp	r0, #3
87803336:	68f8      	ldr	r0, [r7, #12]
87803338:	bf18      	it	ne
8780333a:	2401      	movne	r4, #1
8780333c:	f002 fdd0 	bl	87805ee0 <eTaskGetState>
87803340:	210e      	movs	r1, #14
87803342:	2803      	cmp	r0, #3
87803344:	6878      	ldr	r0, [r7, #4]
87803346:	bf18      	it	ne
87803348:	2401      	movne	r4, #1
8780334a:	f002 fb7d 	bl	87805a48 <xEventGroupSetBits>
8780334e:	2201      	movs	r2, #1
87803350:	f04f 33ff 	mov.w	r3, #4294967295	; 0xffffffff
87803354:	4611      	mov	r1, r2
87803356:	6878      	ldr	r0, [r7, #4]
87803358:	f002 fbb4 	bl	87805ac4 <xEventGroupSync>
8780335c:	2100      	movs	r1, #0
8780335e:	f010 0f01 	tst.w	r0, #1
87803362:	6878      	ldr	r0, [r7, #4]
87803364:	bf08      	it	eq
87803366:	2401      	moveq	r4, #1
87803368:	f002 fb40 	bl	878059ec <xEventGroupClearBits>
8780336c:	210e      	movs	r1, #14
8780336e:	4288      	cmp	r0, r1
87803370:	6878      	ldr	r0, [r7, #4]
87803372:	bf18      	it	ne
87803374:	2401      	movne	r4, #1
87803376:	f002 fb39 	bl	878059ec <xEventGroupClearBits>
8780337a:	2100      	movs	r1, #0
8780337c:	6878      	ldr	r0, [r7, #4]
8780337e:	f002 fb35 	bl	878059ec <xEventGroupClearBits>
87803382:	2800      	cmp	r0, #0
87803384:	4640      	mov	r0, r8
87803386:	bf18      	it	ne
87803388:	2401      	movne	r4, #1
8780338a:	f002 fe65 	bl	87806058 <vTaskResume>
8780338e:	6838      	ldr	r0, [r7, #0]
87803390:	f002 fe62 	bl	87806058 <vTaskResume>
87803394:	68f8      	ldr	r0, [r7, #12]
87803396:	f002 fe5f 	bl	87806058 <vTaskResume>
8780339a:	4640      	mov	r0, r8
8780339c:	f002 fda0 	bl	87805ee0 <eTaskGetState>
878033a0:	2802      	cmp	r0, #2
878033a2:	6838      	ldr	r0, [r7, #0]
878033a4:	bf18      	it	ne
878033a6:	2401      	movne	r4, #1
878033a8:	f002 fd9a 	bl	87805ee0 <eTaskGetState>
878033ac:	2802      	cmp	r0, #2
878033ae:	68f8      	ldr	r0, [r7, #12]
878033b0:	bf18      	it	ne
878033b2:	2401      	movne	r4, #1
878033b4:	f002 fd94 	bl	87805ee0 <eTaskGetState>
878033b8:	f04f 33ff 	mov.w	r3, #4294967295	; 0xffffffff
878033bc:	220f      	movs	r2, #15
878033be:	2802      	cmp	r0, #2
878033c0:	f04f 0101 	mov.w	r1, #1
878033c4:	6878      	ldr	r0, [r7, #4]
878033c6:	bf18      	it	ne
878033c8:	460c      	movne	r4, r1
878033ca:	f002 fb7b 	bl	87805ac4 <xEventGroupSync>
878033ce:	f000 000f 	and.w	r0, r0, #15
878033d2:	2100      	movs	r1, #0
878033d4:	280f      	cmp	r0, #15
878033d6:	6878      	ldr	r0, [r7, #4]
878033d8:	bf18      	it	ne
878033da:	2401      	movne	r4, #1
878033dc:	f002 fb06 	bl	878059ec <xEventGroupClearBits>
878033e0:	2800      	cmp	r0, #0
878033e2:	4640      	mov	r0, r8
878033e4:	bf18      	it	ne
878033e6:	2401      	movne	r4, #1
878033e8:	f002 fd7a 	bl	87805ee0 <eTaskGetState>
878033ec:	2803      	cmp	r0, #3
878033ee:	6838      	ldr	r0, [r7, #0]
878033f0:	bf18      	it	ne
878033f2:	2401      	movne	r4, #1
878033f4:	f002 fd74 	bl	87805ee0 <eTaskGetState>
878033f8:	2803      	cmp	r0, #3
878033fa:	68f8      	ldr	r0, [r7, #12]
878033fc:	bf18      	it	ne
878033fe:	2401      	movne	r4, #1
87803400:	f002 fd6e 	bl	87805ee0 <eTaskGetState>
87803404:	2803      	cmp	r0, #3
87803406:	4640      	mov	r0, r8
87803408:	bf18      	it	ne
8780340a:	2401      	movne	r4, #1
8780340c:	f002 fe24 	bl	87806058 <vTaskResume>
87803410:	6838      	ldr	r0, [r7, #0]
87803412:	f002 fe21 	bl	87806058 <vTaskResume>
87803416:	68f8      	ldr	r0, [r7, #12]
87803418:	f002 fe1e 	bl	87806058 <vTaskResume>
8780341c:	4640      	mov	r0, r8
8780341e:	f002 fd5f 	bl	87805ee0 <eTaskGetState>
87803422:	2802      	cmp	r0, #2
87803424:	6838      	ldr	r0, [r7, #0]
87803426:	bf18      	it	ne
87803428:	2401      	movne	r4, #1
8780342a:	f002 fd59 	bl	87805ee0 <eTaskGetState>
8780342e:	2802      	cmp	r0, #2
87803430:	68f8      	ldr	r0, [r7, #12]
87803432:	bf18      	it	ne
87803434:	2401      	movne	r4, #1
87803436:	f002 fd53 	bl	87805ee0 <eTaskGetState>
8780343a:	2102      	movs	r1, #2
8780343c:	4288      	cmp	r0, r1
8780343e:	f04f 0000 	mov.w	r0, #0
87803442:	bf18      	it	ne
87803444:	2401      	movne	r4, #1
87803446:	f002 fda5 	bl	87805f94 <vTaskPrioritySet>
8780344a:	f04f 33ff 	mov.w	r3, #4294967295	; 0xffffffff
8780344e:	220f      	movs	r2, #15
87803450:	2101      	movs	r1, #1
87803452:	6878      	ldr	r0, [r7, #4]
87803454:	f002 fb36 	bl	87805ac4 <xEventGroupSync>
87803458:	f000 000f 	and.w	r0, r0, #15
8780345c:	2100      	movs	r1, #0
8780345e:	280f      	cmp	r0, #15
87803460:	6878      	ldr	r0, [r7, #4]
87803462:	bf18      	it	ne
87803464:	2401      	movne	r4, #1
87803466:	f002 fac1 	bl	878059ec <xEventGroupClearBits>
8780346a:	2800      	cmp	r0, #0
8780346c:	4640      	mov	r0, r8
8780346e:	bf18      	it	ne
87803470:	2401      	movne	r4, #1
87803472:	f002 fd35 	bl	87805ee0 <eTaskGetState>
87803476:	2801      	cmp	r0, #1
87803478:	6838      	ldr	r0, [r7, #0]
8780347a:	bf18      	it	ne
8780347c:	2401      	movne	r4, #1
8780347e:	f002 fd2f 	bl	87805ee0 <eTaskGetState>
87803482:	2801      	cmp	r0, #1
87803484:	68f8      	ldr	r0, [r7, #12]
87803486:	bf18      	it	ne
87803488:	2401      	movne	r4, #1
8780348a:	f002 fd29 	bl	87805ee0 <eTaskGetState>
8780348e:	2100      	movs	r1, #0
87803490:	2801      	cmp	r0, #1
87803492:	4608      	mov	r0, r1
87803494:	bf18      	it	ne
87803496:	2401      	movne	r4, #1
87803498:	f002 fd7c 	bl	87805f94 <vTaskPrioritySet>
8780349c:	4640      	mov	r0, r8
8780349e:	f002 fd1f 	bl	87805ee0 <eTaskGetState>
878034a2:	2802      	cmp	r0, #2
878034a4:	6838      	ldr	r0, [r7, #0]
878034a6:	bf18      	it	ne
878034a8:	2401      	movne	r4, #1
878034aa:	f002 fd19 	bl	87805ee0 <eTaskGetState>
878034ae:	2802      	cmp	r0, #2
878034b0:	68f8      	ldr	r0, [r7, #12]
878034b2:	bf18      	it	ne
878034b4:	2401      	movne	r4, #1
878034b6:	f002 fd13 	bl	87805ee0 <eTaskGetState>
878034ba:	2802      	cmp	r0, #2
878034bc:	6878      	ldr	r0, [r7, #4]
878034be:	bf18      	it	ne
878034c0:	2401      	movne	r4, #1
878034c2:	f002 fb53 	bl	87805b6c <vEventGroupDelete>
878034c6:	4640      	mov	r0, r8
878034c8:	f002 fd0a 	bl	87805ee0 <eTaskGetState>
878034cc:	2803      	cmp	r0, #3
878034ce:	6838      	ldr	r0, [r7, #0]
878034d0:	d007      	beq.n	878034e2 <prvTestMasterTask+0x37e>
878034d2:	f002 fd05 	bl	87805ee0 <eTaskGetState>
878034d6:	68f8      	ldr	r0, [r7, #12]
878034d8:	f002 fd02 	bl	87805ee0 <eTaskGetState>
878034dc:	f004 f972 	bl	878077c4 <ulPortSetInterruptMask>
878034e0:	e7fe      	b.n	878034e0 <prvTestMasterTask+0x37c>
878034e2:	f002 fcfd 	bl	87805ee0 <eTaskGetState>
878034e6:	2803      	cmp	r0, #3
878034e8:	d1f5      	bne.n	878034d6 <prvTestMasterTask+0x372>
878034ea:	68f8      	ldr	r0, [r7, #12]
878034ec:	f002 fcf8 	bl	87805ee0 <eTaskGetState>
878034f0:	f084 0301 	eor.w	r3, r4, #1
878034f4:	2803      	cmp	r0, #3
878034f6:	bf14      	ite	ne
878034f8:	2300      	movne	r3, #0
878034fa:	f003 0301 	andeq.w	r3, r3, #1
878034fe:	2b00      	cmp	r3, #0
87803500:	d0ec      	beq.n	878034dc <prvTestMasterTask+0x378>
87803502:	693b      	ldr	r3, [r7, #16]
87803504:	3301      	adds	r3, #1
87803506:	613b      	str	r3, [r7, #16]
87803508:	f002 f9f6 	bl	878058f8 <xEventGroupCreate>
8780350c:	6078      	str	r0, [r7, #4]
8780350e:	2800      	cmp	r0, #0
87803510:	f47f ae91 	bne.w	87803236 <prvTestMasterTask+0xd2>
87803514:	f004 f956 	bl	878077c4 <ulPortSetInterruptMask>
87803518:	e7fe      	b.n	87803518 <prvTestMasterTask+0x3b4>
8780351a:	f004 f953 	bl	878077c4 <ulPortSetInterruptMask>
8780351e:	e7fe      	b.n	8780351e <prvTestMasterTask+0x3ba>

87803520 <vStartEventGroupTasks>:
87803520:	b530      	push	{r4, r5, lr}
87803522:	b085      	sub	sp, #20
87803524:	2501      	movs	r5, #1
87803526:	ab03      	add	r3, sp, #12
87803528:	f24a 41b0 	movw	r1, #42160	; 0xa4b0
8780352c:	f243 0021 	movw	r0, #12321	; 0x3021
87803530:	9301      	str	r3, [sp, #4]
87803532:	f2c8 7180 	movt	r1, #34688	; 0x8780
87803536:	2300      	movs	r3, #0
87803538:	225a      	movs	r2, #90	; 0x5a
8780353a:	9500      	str	r5, [sp, #0]
8780353c:	f2c8 7080 	movt	r0, #34688	; 0x8780
87803540:	f002 fba0 	bl	87805c84 <xTaskCreate>
87803544:	2200      	movs	r2, #0
87803546:	f24a 41b8 	movw	r1, #42168	; 0xa4b8
8780354a:	f243 1065 	movw	r0, #12645	; 0x3165
8780354e:	9b03      	ldr	r3, [sp, #12]
87803550:	9201      	str	r2, [sp, #4]
87803552:	f2c8 7180 	movt	r1, #34688	; 0x8780
87803556:	9200      	str	r2, [sp, #0]
87803558:	f2c8 7080 	movt	r0, #34688	; 0x8780
8780355c:	225a      	movs	r2, #90	; 0x5a
8780355e:	f240 2400 	movw	r4, #512	; 0x200
87803562:	f002 fb8f 	bl	87805c84 <xTaskCreate>
87803566:	f6c8 0400 	movt	r4, #34816	; 0x8800
8780356a:	f24a 41c0 	movw	r1, #42176	; 0xa4c0
8780356e:	f642 7089 	movw	r0, #12169	; 0x2f89
87803572:	f2c8 7180 	movt	r1, #34688	; 0x8780
87803576:	2304      	movs	r3, #4
87803578:	225a      	movs	r2, #90	; 0x5a
8780357a:	9500      	str	r5, [sp, #0]
8780357c:	f2c8 7080 	movt	r0, #34688	; 0x8780
87803580:	9401      	str	r4, [sp, #4]
87803582:	f002 fb7f 	bl	87805c84 <xTaskCreate>
87803586:	f104 030c 	add.w	r3, r4, #12
8780358a:	f24a 41c0 	movw	r1, #42176	; 0xa4c0
8780358e:	f642 7089 	movw	r0, #12169	; 0x2f89
87803592:	9301      	str	r3, [sp, #4]
87803594:	9500      	str	r5, [sp, #0]
87803596:	2308      	movs	r3, #8
87803598:	f2c8 7180 	movt	r1, #34688	; 0x8780
8780359c:	f2c8 7080 	movt	r0, #34688	; 0x8780
878035a0:	225a      	movs	r2, #90	; 0x5a
878035a2:	f002 fb6f 	bl	87805c84 <xTaskCreate>
878035a6:	68e3      	ldr	r3, [r4, #12]
878035a8:	b12b      	cbz	r3, 878035b6 <vStartEventGroupTasks+0x96>
878035aa:	f002 f9a5 	bl	878058f8 <xEventGroupCreate>
878035ae:	6160      	str	r0, [r4, #20]
878035b0:	b120      	cbz	r0, 878035bc <vStartEventGroupTasks+0x9c>
878035b2:	b005      	add	sp, #20
878035b4:	bd30      	pop	{r4, r5, pc}
878035b6:	f004 f905 	bl	878077c4 <ulPortSetInterruptMask>
878035ba:	e7fe      	b.n	878035ba <vStartEventGroupTasks+0x9a>
878035bc:	f004 f902 	bl	878077c4 <ulPortSetInterruptMask>
878035c0:	e7fe      	b.n	878035c0 <vStartEventGroupTasks+0xa0>
878035c2:	bf00      	nop

878035c4 <vPeriodicEventGroupsProcessing>:
878035c4:	b510      	push	{r4, lr}
878035c6:	f240 2400 	movw	r4, #512	; 0x200
878035ca:	f6c8 0400 	movt	r4, #34816	; 0x8800
878035ce:	69a3      	ldr	r3, [r4, #24]
878035d0:	3301      	adds	r3, #1
878035d2:	2b64      	cmp	r3, #100	; 0x64
878035d4:	61a3      	str	r3, [r4, #24]
878035d6:	d010      	beq.n	878035fa <vPeriodicEventGroupsProcessing+0x36>
878035d8:	2bc8      	cmp	r3, #200	; 0xc8
878035da:	d015      	beq.n	87803608 <vPeriodicEventGroupsProcessing+0x44>
878035dc:	f5b3 7f96 	cmp.w	r3, #300	; 0x12c
878035e0:	d000      	beq.n	878035e4 <vPeriodicEventGroupsProcessing+0x20>
878035e2:	bd10      	pop	{r4, pc}
878035e4:	2112      	movs	r1, #18
878035e6:	6960      	ldr	r0, [r4, #20]
878035e8:	f002 fa1a 	bl	87805a20 <xEventGroupClearBitsFromISR>
878035ec:	2801      	cmp	r0, #1
878035ee:	d019      	beq.n	87803624 <vPeriodicEventGroupsProcessing+0x60>
878035f0:	2201      	movs	r2, #1
878035f2:	2300      	movs	r3, #0
878035f4:	61e2      	str	r2, [r4, #28]
878035f6:	61a3      	str	r3, [r4, #24]
878035f8:	bd10      	pop	{r4, pc}
878035fa:	6960      	ldr	r0, [r4, #20]
878035fc:	f002 fa1a 	bl	87805a34 <xEventGroupGetBitsFromISR>
87803600:	b140      	cbz	r0, 87803614 <vPeriodicEventGroupsProcessing+0x50>
87803602:	2301      	movs	r3, #1
87803604:	61e3      	str	r3, [r4, #28]
87803606:	bd10      	pop	{r4, pc}
87803608:	6960      	ldr	r0, [r4, #20]
8780360a:	f002 fa13 	bl	87805a34 <xEventGroupGetBitsFromISR>
8780360e:	2812      	cmp	r0, #18
87803610:	d1f7      	bne.n	87803602 <vPeriodicEventGroupsProcessing+0x3e>
87803612:	bd10      	pop	{r4, pc}
87803614:	4602      	mov	r2, r0
87803616:	2112      	movs	r1, #18
87803618:	6960      	ldr	r0, [r4, #20]
8780361a:	f002 fac7 	bl	87805bac <xEventGroupSetBitsFromISR>
8780361e:	2801      	cmp	r0, #1
87803620:	d1ef      	bne.n	87803602 <vPeriodicEventGroupsProcessing+0x3e>
87803622:	bd10      	pop	{r4, pc}
87803624:	69e3      	ldr	r3, [r4, #28]
87803626:	2200      	movs	r2, #0
87803628:	61a2      	str	r2, [r4, #24]
8780362a:	b91b      	cbnz	r3, 87803634 <vPeriodicEventGroupsProcessing+0x70>
8780362c:	6a23      	ldr	r3, [r4, #32]
8780362e:	3301      	adds	r3, #1
87803630:	6223      	str	r3, [r4, #32]
87803632:	bd10      	pop	{r4, pc}
87803634:	bd10      	pop	{r4, pc}
87803636:	bf00      	nop

87803638 <xAreEventGroupTasksStillRunning>:
87803638:	f240 2300 	movw	r3, #512	; 0x200
8780363c:	b430      	push	{r4, r5}
8780363e:	f6c8 0300 	movt	r3, #34816	; 0x8800
87803642:	6918      	ldr	r0, [r3, #16]
87803644:	6a9c      	ldr	r4, [r3, #40]	; 0x28
87803646:	691d      	ldr	r5, [r3, #16]
87803648:	6899      	ldr	r1, [r3, #8]
8780364a:	6a5a      	ldr	r2, [r3, #36]	; 0x24
8780364c:	625d      	str	r5, [r3, #36]	; 0x24
8780364e:	428c      	cmp	r4, r1
87803650:	bf08      	it	eq
87803652:	2200      	moveq	r2, #0
87803654:	d002      	beq.n	8780365c <xAreEventGroupTasksStillRunning+0x24>
87803656:	1a12      	subs	r2, r2, r0
87803658:	bf18      	it	ne
8780365a:	2201      	movne	r2, #1
8780365c:	689d      	ldr	r5, [r3, #8]
8780365e:	6adc      	ldr	r4, [r3, #44]	; 0x2c
87803660:	6a18      	ldr	r0, [r3, #32]
87803662:	6a19      	ldr	r1, [r3, #32]
87803664:	629d      	str	r5, [r3, #40]	; 0x28
87803666:	4284      	cmp	r4, r0
87803668:	bf14      	ite	ne
8780366a:	4610      	movne	r0, r2
8780366c:	2000      	moveq	r0, #0
8780366e:	bc30      	pop	{r4, r5}
87803670:	62d9      	str	r1, [r3, #44]	; 0x2c
87803672:	4770      	bx	lr

87803674 <prvQueueOverwriteTask>:
87803674:	e92d 41f0 	stmdb	sp!, {r4, r5, r6, r7, r8, lr}
87803678:	2200      	movs	r2, #0
8780367a:	b082      	sub	sp, #8
8780367c:	2104      	movs	r1, #4
8780367e:	2001      	movs	r0, #1
87803680:	f001 fd40 	bl	87805104 <xQueueGenericCreate>
87803684:	2800      	cmp	r0, #0
87803686:	d04d      	beq.n	87803724 <prvQueueOverwriteTask+0xb0>
87803688:	f240 2730 	movw	r7, #560	; 0x230
8780368c:	4605      	mov	r5, r0
8780368e:	f6c8 0700 	movt	r7, #34816	; 0x8800
87803692:	f04f 080a 	mov.w	r8, #10
87803696:	2600      	movs	r6, #0
87803698:	2401      	movs	r4, #1
8780369a:	2302      	movs	r3, #2
8780369c:	2200      	movs	r2, #0
8780369e:	4669      	mov	r1, sp
878036a0:	4628      	mov	r0, r5
878036a2:	f8cd 8000 	str.w	r8, [sp]
878036a6:	f001 fd5f 	bl	87805168 <xQueueGenericSend>
878036aa:	2300      	movs	r3, #0
878036ac:	4669      	mov	r1, sp
878036ae:	461a      	mov	r2, r3
878036b0:	4628      	mov	r0, r5
878036b2:	9600      	str	r6, [sp, #0]
878036b4:	f001 fec4 	bl	87805440 <xQueueGenericReceive>
878036b8:	9b00      	ldr	r3, [sp, #0]
878036ba:	9601      	str	r6, [sp, #4]
878036bc:	2b0a      	cmp	r3, #10
878036be:	bf18      	it	ne
878036c0:	2400      	movne	r4, #0
878036c2:	2302      	movs	r3, #2
878036c4:	2200      	movs	r2, #0
878036c6:	a901      	add	r1, sp, #4
878036c8:	4628      	mov	r0, r5
878036ca:	f001 fd4d 	bl	87805168 <xQueueGenericSend>
878036ce:	2301      	movs	r3, #1
878036d0:	2200      	movs	r2, #0
878036d2:	4669      	mov	r1, sp
878036d4:	4628      	mov	r0, r5
878036d6:	f001 feb3 	bl	87805440 <xQueueGenericReceive>
878036da:	9b01      	ldr	r3, [sp, #4]
878036dc:	4628      	mov	r0, r5
878036de:	9a00      	ldr	r2, [sp, #0]
878036e0:	429a      	cmp	r2, r3
878036e2:	bf18      	it	ne
878036e4:	2400      	movne	r4, #0
878036e6:	f001 ffe9 	bl	878056bc <uxQueueMessagesWaiting>
878036ea:	9b01      	ldr	r3, [sp, #4]
878036ec:	2801      	cmp	r0, #1
878036ee:	bf18      	it	ne
878036f0:	2400      	movne	r4, #0
878036f2:	3301      	adds	r3, #1
878036f4:	2b04      	cmp	r3, #4
878036f6:	9301      	str	r3, [sp, #4]
878036f8:	d9e3      	bls.n	878036c2 <prvQueueOverwriteTask+0x4e>
878036fa:	2300      	movs	r3, #0
878036fc:	4669      	mov	r1, sp
878036fe:	461a      	mov	r2, r3
87803700:	4628      	mov	r0, r5
87803702:	f001 fe9d 	bl	87805440 <xQueueGenericReceive>
87803706:	4628      	mov	r0, r5
87803708:	f001 ffd8 	bl	878056bc <uxQueueMessagesWaiting>
8780370c:	2800      	cmp	r0, #0
8780370e:	bf14      	ite	ne
87803710:	2000      	movne	r0, #0
87803712:	f004 0001 	andeq.w	r0, r4, #1
87803716:	2400      	movs	r4, #0
87803718:	2800      	cmp	r0, #0
8780371a:	d0be      	beq.n	8780369a <prvQueueOverwriteTask+0x26>
8780371c:	683b      	ldr	r3, [r7, #0]
8780371e:	3301      	adds	r3, #1
87803720:	603b      	str	r3, [r7, #0]
87803722:	e7b9      	b.n	87803698 <prvQueueOverwriteTask+0x24>
87803724:	f004 f84e 	bl	878077c4 <ulPortSetInterruptMask>
87803728:	e7fe      	b.n	87803728 <prvQueueOverwriteTask+0xb4>
8780372a:	bf00      	nop

8780372c <vStartQueueOverwriteTask>:
8780372c:	b510      	push	{r4, lr}
8780372e:	2200      	movs	r2, #0
87803730:	b082      	sub	sp, #8
87803732:	4604      	mov	r4, r0
87803734:	2104      	movs	r1, #4
87803736:	2001      	movs	r0, #1
87803738:	f001 fce4 	bl	87805104 <xQueueGenericCreate>
8780373c:	f240 2330 	movw	r3, #560	; 0x230
87803740:	2200      	movs	r2, #0
87803742:	f6c8 0300 	movt	r3, #34816	; 0x8800
87803746:	f24a 41c8 	movw	r1, #42184	; 0xa4c8
8780374a:	6058      	str	r0, [r3, #4]
8780374c:	f243 6075 	movw	r0, #13941	; 0x3675
87803750:	4613      	mov	r3, r2
87803752:	9201      	str	r2, [sp, #4]
87803754:	9400      	str	r4, [sp, #0]
87803756:	f2c8 7180 	movt	r1, #34688	; 0x8780
8780375a:	225a      	movs	r2, #90	; 0x5a
8780375c:	f2c8 7080 	movt	r0, #34688	; 0x8780
87803760:	f002 fa90 	bl	87805c84 <xTaskCreate>
87803764:	b002      	add	sp, #8
87803766:	bd10      	pop	{r4, pc}

87803768 <xIsQueueOverwriteTaskStillRunning>:
87803768:	f240 030c 	movw	r3, #12
8780376c:	f6c8 0300 	movt	r3, #34816	; 0x8800
87803770:	681b      	ldr	r3, [r3, #0]
87803772:	2b01      	cmp	r3, #1
87803774:	f240 2330 	movw	r3, #560	; 0x230
87803778:	bf1c      	itt	ne
8780377a:	2000      	movne	r0, #0
8780377c:	f6c8 0300 	movtne	r3, #34816	; 0x8800
87803780:	d105      	bne.n	8780378e <xIsQueueOverwriteTaskStillRunning+0x26>
87803782:	f6c8 0300 	movt	r3, #34816	; 0x8800
87803786:	6818      	ldr	r0, [r3, #0]
87803788:	3000      	adds	r0, #0
8780378a:	bf18      	it	ne
8780378c:	2001      	movne	r0, #1
8780378e:	2200      	movs	r2, #0
87803790:	601a      	str	r2, [r3, #0]
87803792:	4770      	bx	lr

87803794 <vQueueOverwritePeriodicISRDemo>:
87803794:	b510      	push	{r4, lr}
87803796:	f240 2430 	movw	r4, #560	; 0x230
8780379a:	f6c8 0400 	movt	r4, #34816	; 0x8800
8780379e:	b084      	sub	sp, #16
878037a0:	220a      	movs	r2, #10
878037a2:	2314      	movs	r3, #20
878037a4:	6860      	ldr	r0, [r4, #4]
878037a6:	9201      	str	r2, [sp, #4]
878037a8:	9302      	str	r3, [sp, #8]
878037aa:	2800      	cmp	r0, #0
878037ac:	d035      	beq.n	8780381a <vQueueOverwritePeriodicISRDemo+0x86>
878037ae:	68a3      	ldr	r3, [r4, #8]
878037b0:	2b01      	cmp	r3, #1
878037b2:	d02b      	beq.n	8780380c <vQueueOverwritePeriodicISRDemo+0x78>
878037b4:	d316      	bcc.n	878037e4 <vQueueOverwritePeriodicISRDemo+0x50>
878037b6:	2b02      	cmp	r3, #2
878037b8:	d10d      	bne.n	878037d6 <vQueueOverwritePeriodicISRDemo+0x42>
878037ba:	2200      	movs	r2, #0
878037bc:	a903      	add	r1, sp, #12
878037be:	f001 ff05 	bl	878055cc <xQueueReceiveFromISR>
878037c2:	9b03      	ldr	r3, [sp, #12]
878037c4:	2b14      	cmp	r3, #20
878037c6:	68a3      	ldr	r3, [r4, #8]
878037c8:	bf1f      	itttt	ne
878037ca:	f240 020c 	movwne	r2, #12
878037ce:	2100      	movne	r1, #0
878037d0:	f6c8 0200 	movtne	r2, #34816	; 0x8800
878037d4:	6011      	strne	r1, [r2, #0]
878037d6:	3301      	adds	r3, #1
878037d8:	2b02      	cmp	r3, #2
878037da:	bf88      	it	hi
878037dc:	2300      	movhi	r3, #0
878037de:	60a3      	str	r3, [r4, #8]
878037e0:	b004      	add	sp, #16
878037e2:	bd10      	pop	{r4, pc}
878037e4:	2302      	movs	r3, #2
878037e6:	2200      	movs	r2, #0
878037e8:	a901      	add	r1, sp, #4
878037ea:	f001 fd89 	bl	87805300 <xQueueGenericSendFromISR>
878037ee:	a903      	add	r1, sp, #12
878037f0:	6860      	ldr	r0, [r4, #4]
878037f2:	f001 ff33 	bl	8780565c <xQueuePeekFromISR>
878037f6:	9b03      	ldr	r3, [sp, #12]
878037f8:	2b0a      	cmp	r3, #10
878037fa:	d00c      	beq.n	87803816 <vQueueOverwritePeriodicISRDemo+0x82>
878037fc:	f240 020c 	movw	r2, #12
87803800:	2100      	movs	r1, #0
87803802:	f6c8 0200 	movt	r2, #34816	; 0x8800
87803806:	68a3      	ldr	r3, [r4, #8]
87803808:	6011      	str	r1, [r2, #0]
8780380a:	e7e4      	b.n	878037d6 <vQueueOverwritePeriodicISRDemo+0x42>
8780380c:	2302      	movs	r3, #2
8780380e:	2200      	movs	r2, #0
87803810:	a902      	add	r1, sp, #8
87803812:	f001 fd75 	bl	87805300 <xQueueGenericSendFromISR>
87803816:	68a3      	ldr	r3, [r4, #8]
87803818:	e7dd      	b.n	878037d6 <vQueueOverwritePeriodicISRDemo+0x42>
8780381a:	f003 ffd3 	bl	878077c4 <ulPortSetInterruptMask>
8780381e:	e7fe      	b.n	8780381e <vQueueOverwritePeriodicISRDemo+0x8a>

87803820 <vPolledQueueProducer>:
87803820:	e92d 43f0 	stmdb	sp!, {r4, r5, r6, r7, r8, r9, lr}
87803824:	2300      	movs	r3, #0
87803826:	f240 293c 	movw	r9, #572	; 0x23c
8780382a:	b083      	sub	sp, #12
8780382c:	4680      	mov	r8, r0
8780382e:	461c      	mov	r4, r3
87803830:	f6c8 0900 	movt	r9, #34816	; 0x8800
87803834:	af02      	add	r7, sp, #8
87803836:	f827 3d02 	strh.w	r3, [r7, #-2]!
8780383a:	2500      	movs	r5, #0
8780383c:	2300      	movs	r3, #0
8780383e:	4639      	mov	r1, r7
87803840:	461a      	mov	r2, r3
87803842:	f8d8 0000 	ldr.w	r0, [r8]
87803846:	f001 fc8f 	bl	87805168 <xQueueGenericSend>
8780384a:	2801      	cmp	r0, #1
8780384c:	d02f      	beq.n	878038ae <vPolledQueueProducer+0x8e>
8780384e:	462e      	mov	r6, r5
87803850:	1c75      	adds	r5, r6, #1
87803852:	2300      	movs	r3, #0
87803854:	2d03      	cmp	r5, #3
87803856:	4639      	mov	r1, r7
87803858:	461a      	mov	r2, r3
8780385a:	d021      	beq.n	878038a0 <vPolledQueueProducer+0x80>
8780385c:	f8d8 0000 	ldr.w	r0, [r8]
87803860:	f001 fc82 	bl	87805168 <xQueueGenericSend>
87803864:	2801      	cmp	r0, #1
87803866:	f04f 0300 	mov.w	r3, #0
8780386a:	4639      	mov	r1, r7
8780386c:	461a      	mov	r2, r3
8780386e:	d01c      	beq.n	878038aa <vPolledQueueProducer+0x8a>
87803870:	2e01      	cmp	r6, #1
87803872:	d015      	beq.n	878038a0 <vPolledQueueProducer+0x80>
87803874:	f8d8 0000 	ldr.w	r0, [r8]
87803878:	2602      	movs	r6, #2
8780387a:	f001 fc75 	bl	87805168 <xQueueGenericSend>
8780387e:	2801      	cmp	r0, #1
87803880:	4604      	mov	r4, r0
87803882:	d1e5      	bne.n	87803850 <vPolledQueueProducer+0x30>
87803884:	4635      	mov	r5, r6
87803886:	f8bd 3006 	ldrh.w	r3, [sp, #6]
8780388a:	3501      	adds	r5, #1
8780388c:	2d03      	cmp	r5, #3
8780388e:	f103 0301 	add.w	r3, r3, #1
87803892:	f8ad 3006 	strh.w	r3, [sp, #6]
87803896:	d1d1      	bne.n	8780383c <vPolledQueueProducer+0x1c>
87803898:	20c8      	movs	r0, #200	; 0xc8
8780389a:	f002 fde3 	bl	87806464 <vTaskDelay>
8780389e:	e7cc      	b.n	8780383a <vPolledQueueProducer+0x1a>
878038a0:	20c8      	movs	r0, #200	; 0xc8
878038a2:	2401      	movs	r4, #1
878038a4:	f002 fdde 	bl	87806464 <vTaskDelay>
878038a8:	e7c7      	b.n	8780383a <vPolledQueueProducer+0x1a>
878038aa:	4604      	mov	r4, r0
878038ac:	e7eb      	b.n	87803886 <vPolledQueueProducer+0x66>
878038ae:	2c00      	cmp	r4, #0
878038b0:	d1e9      	bne.n	87803886 <vPolledQueueProducer+0x66>
878038b2:	f003 ff05 	bl	878076c0 <vPortEnterCritical>
878038b6:	f8d9 3000 	ldr.w	r3, [r9]
878038ba:	3301      	adds	r3, #1
878038bc:	f8c9 3000 	str.w	r3, [r9]
878038c0:	f003 ff40 	bl	87807744 <vPortExitCritical>
878038c4:	e7df      	b.n	87803886 <vPolledQueueProducer+0x66>
878038c6:	bf00      	nop

878038c8 <vPolledQueueConsumer>:
878038c8:	e92d 41f0 	stmdb	sp!, {r4, r5, r6, r7, r8, lr}
878038cc:	2700      	movs	r7, #0
878038ce:	f240 283c 	movw	r8, #572	; 0x23c
878038d2:	b082      	sub	sp, #8
878038d4:	4604      	mov	r4, r0
878038d6:	463e      	mov	r6, r7
878038d8:	f6c8 0800 	movt	r8, #34816	; 0x8800
878038dc:	6820      	ldr	r0, [r4, #0]
878038de:	f001 feed 	bl	878056bc <uxQueueMessagesWaiting>
878038e2:	b938      	cbnz	r0, 878038f4 <vPolledQueueConsumer+0x2c>
878038e4:	20b4      	movs	r0, #180	; 0xb4
878038e6:	f002 fdbd 	bl	87806464 <vTaskDelay>
878038ea:	6820      	ldr	r0, [r4, #0]
878038ec:	f001 fee6 	bl	878056bc <uxQueueMessagesWaiting>
878038f0:	2800      	cmp	r0, #0
878038f2:	d0f7      	beq.n	878038e4 <vPolledQueueConsumer+0x1c>
878038f4:	2300      	movs	r3, #0
878038f6:	f10d 0106 	add.w	r1, sp, #6
878038fa:	461a      	mov	r2, r3
878038fc:	6820      	ldr	r0, [r4, #0]
878038fe:	f001 fd9f 	bl	87805440 <xQueueGenericReceive>
87803902:	2801      	cmp	r0, #1
87803904:	d1ea      	bne.n	878038dc <vPolledQueueConsumer+0x14>
87803906:	f8bd 5006 	ldrh.w	r5, [sp, #6]
8780390a:	42ae      	cmp	r6, r5
8780390c:	d003      	beq.n	87803916 <vPolledQueueConsumer+0x4e>
8780390e:	4607      	mov	r7, r0
87803910:	3501      	adds	r5, #1
87803912:	b2ae      	uxth	r6, r5
87803914:	e7e2      	b.n	878038dc <vPolledQueueConsumer+0x14>
87803916:	2f00      	cmp	r7, #0
87803918:	d1f9      	bne.n	8780390e <vPolledQueueConsumer+0x46>
8780391a:	f003 fed1 	bl	878076c0 <vPortEnterCritical>
8780391e:	f8d8 3004 	ldr.w	r3, [r8, #4]
87803922:	3301      	adds	r3, #1
87803924:	f8c8 3004 	str.w	r3, [r8, #4]
87803928:	f003 ff0c 	bl	87807744 <vPortExitCritical>
8780392c:	e7f0      	b.n	87803910 <vPolledQueueConsumer+0x48>
8780392e:	bf00      	nop

87803930 <vStartPolledQueueTasks>:
87803930:	b570      	push	{r4, r5, r6, lr}
87803932:	f240 243c 	movw	r4, #572	; 0x23c
87803936:	b082      	sub	sp, #8
87803938:	4605      	mov	r5, r0
8780393a:	2200      	movs	r2, #0
8780393c:	2102      	movs	r1, #2
8780393e:	200a      	movs	r0, #10
87803940:	f6c8 0400 	movt	r4, #34816	; 0x8800
87803944:	f001 fbde 	bl	87805104 <xQueueGenericCreate>
87803948:	60a0      	str	r0, [r4, #8]
8780394a:	b320      	cbz	r0, 87803996 <vStartPolledQueueTasks+0x66>
8780394c:	f24a 41d0 	movw	r1, #42192	; 0xa4d0
87803950:	2600      	movs	r6, #0
87803952:	f2c8 7180 	movt	r1, #34688	; 0x8780
87803956:	f001 ff15 	bl	87805784 <vQueueAddToRegistry>
8780395a:	f24a 41e0 	movw	r1, #42208	; 0xa4e0
8780395e:	f643 00c9 	movw	r0, #14537	; 0x38c9
87803962:	f2c8 7180 	movt	r1, #34688	; 0x8780
87803966:	f104 0308 	add.w	r3, r4, #8
8780396a:	225a      	movs	r2, #90	; 0x5a
8780396c:	9500      	str	r5, [sp, #0]
8780396e:	9601      	str	r6, [sp, #4]
87803970:	f2c8 7080 	movt	r0, #34688	; 0x8780
87803974:	f002 f986 	bl	87805c84 <xTaskCreate>
87803978:	f24a 41e8 	movw	r1, #42216	; 0xa4e8
8780397c:	f643 0021 	movw	r0, #14369	; 0x3821
87803980:	9601      	str	r6, [sp, #4]
87803982:	f104 0308 	add.w	r3, r4, #8
87803986:	9500      	str	r5, [sp, #0]
87803988:	f2c8 7180 	movt	r1, #34688	; 0x8780
8780398c:	f2c8 7080 	movt	r0, #34688	; 0x8780
87803990:	225a      	movs	r2, #90	; 0x5a
87803992:	f002 f977 	bl	87805c84 <xTaskCreate>
87803996:	b002      	add	sp, #8
87803998:	bd70      	pop	{r4, r5, r6, pc}
8780399a:	bf00      	nop

8780399c <xArePollingQueuesStillRunning>:
8780399c:	f240 233c 	movw	r3, #572	; 0x23c
878039a0:	f6c8 0300 	movt	r3, #34816	; 0x8800
878039a4:	6858      	ldr	r0, [r3, #4]
878039a6:	b118      	cbz	r0, 878039b0 <xArePollingQueuesStillRunning+0x14>
878039a8:	6818      	ldr	r0, [r3, #0]
878039aa:	3000      	adds	r0, #0
878039ac:	bf18      	it	ne
878039ae:	2001      	movne	r0, #1
878039b0:	2200      	movs	r2, #0
878039b2:	605a      	str	r2, [r3, #4]
878039b4:	601a      	str	r2, [r3, #0]
878039b6:	4770      	bx	lr

878039b8 <prvHighestPriorityPeekTask>:
878039b8:	e92d 47f0 	stmdb	sp!, {r4, r5, r6, r7, r8, r9, sl, lr}
878039bc:	f240 2448 	movw	r4, #584	; 0x248
878039c0:	f243 3744 	movw	r7, #13124	; 0x3344
878039c4:	f244 5967 	movw	r9, #17767	; 0x4567
878039c8:	f64a 28bb 	movw	r8, #43707	; 0xaabb
878039cc:	b082      	sub	sp, #8
878039ce:	4606      	mov	r6, r0
878039d0:	f6c8 0400 	movt	r4, #34816	; 0x8800
878039d4:	f2c1 1722 	movt	r7, #4386	; 0x1122
878039d8:	f2c0 1923 	movt	r9, #291	; 0x123
878039dc:	f6ca 28bb 	movt	r8, #43707	; 0xaabb
878039e0:	2501      	movs	r5, #1
878039e2:	f04f 0a00 	mov.w	sl, #0
878039e6:	a901      	add	r1, sp, #4
878039e8:	f04f 32ff 	mov.w	r2, #4294967295	; 0xffffffff
878039ec:	2301      	movs	r3, #1
878039ee:	4630      	mov	r0, r6
878039f0:	f001 fd26 	bl	87805440 <xQueueGenericReceive>
878039f4:	9b01      	ldr	r3, [sp, #4]
878039f6:	2801      	cmp	r0, #1
878039f8:	bf18      	it	ne
878039fa:	6025      	strne	r5, [r4, #0]
878039fc:	4630      	mov	r0, r6
878039fe:	42bb      	cmp	r3, r7
87803a00:	bf18      	it	ne
87803a02:	6025      	strne	r5, [r4, #0]
87803a04:	f001 fe5a 	bl	878056bc <uxQueueMessagesWaiting>
87803a08:	2300      	movs	r3, #0
87803a0a:	2801      	cmp	r0, #1
87803a0c:	a901      	add	r1, sp, #4
87803a0e:	461a      	mov	r2, r3
87803a10:	4630      	mov	r0, r6
87803a12:	bf18      	it	ne
87803a14:	6025      	strne	r5, [r4, #0]
87803a16:	f8cd a004 	str.w	sl, [sp, #4]
87803a1a:	f001 fd11 	bl	87805440 <xQueueGenericReceive>
87803a1e:	9b01      	ldr	r3, [sp, #4]
87803a20:	2801      	cmp	r0, #1
87803a22:	a901      	add	r1, sp, #4
87803a24:	bf18      	it	ne
87803a26:	6025      	strne	r5, [r4, #0]
87803a28:	f04f 32ff 	mov.w	r2, #4294967295	; 0xffffffff
87803a2c:	4630      	mov	r0, r6
87803a2e:	42bb      	cmp	r3, r7
87803a30:	f04f 0301 	mov.w	r3, #1
87803a34:	bf18      	it	ne
87803a36:	6025      	strne	r5, [r4, #0]
87803a38:	f001 fd02 	bl	87805440 <xQueueGenericReceive>
87803a3c:	9b01      	ldr	r3, [sp, #4]
87803a3e:	2801      	cmp	r0, #1
87803a40:	bf18      	it	ne
87803a42:	6025      	strne	r5, [r4, #0]
87803a44:	4630      	mov	r0, r6
87803a46:	454b      	cmp	r3, r9
87803a48:	bf18      	it	ne
87803a4a:	6025      	strne	r5, [r4, #0]
87803a4c:	f001 fe36 	bl	878056bc <uxQueueMessagesWaiting>
87803a50:	2801      	cmp	r0, #1
87803a52:	f04f 0000 	mov.w	r0, #0
87803a56:	bf18      	it	ne
87803a58:	6025      	strne	r5, [r4, #0]
87803a5a:	f002 fd7b 	bl	87806554 <vTaskSuspend>
87803a5e:	2301      	movs	r3, #1
87803a60:	f04f 32ff 	mov.w	r2, #4294967295	; 0xffffffff
87803a64:	a901      	add	r1, sp, #4
87803a66:	4630      	mov	r0, r6
87803a68:	f001 fcea 	bl	87805440 <xQueueGenericReceive>
87803a6c:	9b01      	ldr	r3, [sp, #4]
87803a6e:	2801      	cmp	r0, #1
87803a70:	bf18      	it	ne
87803a72:	6025      	strne	r5, [r4, #0]
87803a74:	2000      	movs	r0, #0
87803a76:	4543      	cmp	r3, r8
87803a78:	bf18      	it	ne
87803a7a:	6025      	strne	r5, [r4, #0]
87803a7c:	f002 fd6a 	bl	87806554 <vTaskSuspend>
87803a80:	e7b1      	b.n	878039e6 <prvHighestPriorityPeekTask+0x2e>
87803a82:	bf00      	nop

87803a84 <prvHighPriorityPeekTask>:
87803a84:	b570      	push	{r4, r5, r6, lr}
87803a86:	f240 2448 	movw	r4, #584	; 0x248
87803a8a:	f244 5667 	movw	r6, #17767	; 0x4567
87803a8e:	b082      	sub	sp, #8
87803a90:	4605      	mov	r5, r0
87803a92:	f6c8 0400 	movt	r4, #34816	; 0x8800
87803a96:	f2c0 1623 	movt	r6, #291	; 0x123
87803a9a:	a901      	add	r1, sp, #4
87803a9c:	2301      	movs	r3, #1
87803a9e:	f04f 32ff 	mov.w	r2, #4294967295	; 0xffffffff
87803aa2:	4628      	mov	r0, r5
87803aa4:	f001 fccc 	bl	87805440 <xQueueGenericReceive>
87803aa8:	2801      	cmp	r0, #1
87803aaa:	4628      	mov	r0, r5
87803aac:	bf1c      	itt	ne
87803aae:	2301      	movne	r3, #1
87803ab0:	6023      	strne	r3, [r4, #0]
87803ab2:	9b01      	ldr	r3, [sp, #4]
87803ab4:	42b3      	cmp	r3, r6
87803ab6:	bf1c      	itt	ne
87803ab8:	2301      	movne	r3, #1
87803aba:	6023      	strne	r3, [r4, #0]
87803abc:	f001 fdfe 	bl	878056bc <uxQueueMessagesWaiting>
87803ac0:	2801      	cmp	r0, #1
87803ac2:	f04f 0000 	mov.w	r0, #0
87803ac6:	bf1c      	itt	ne
87803ac8:	2301      	movne	r3, #1
87803aca:	6023      	strne	r3, [r4, #0]
87803acc:	f002 fd42 	bl	87806554 <vTaskSuspend>
87803ad0:	2300      	movs	r3, #0
87803ad2:	f04f 32ff 	mov.w	r2, #4294967295	; 0xffffffff
87803ad6:	a901      	add	r1, sp, #4
87803ad8:	4628      	mov	r0, r5
87803ada:	f001 fcb1 	bl	87805440 <xQueueGenericReceive>
87803ade:	2801      	cmp	r0, #1
87803ae0:	9a01      	ldr	r2, [sp, #4]
87803ae2:	bf18      	it	ne
87803ae4:	2301      	movne	r3, #1
87803ae6:	f04f 0000 	mov.w	r0, #0
87803aea:	bf18      	it	ne
87803aec:	6023      	strne	r3, [r4, #0]
87803aee:	f64a 23bb 	movw	r3, #43707	; 0xaabb
87803af2:	f6ca 23bb 	movt	r3, #43707	; 0xaabb
87803af6:	429a      	cmp	r2, r3
87803af8:	bf1c      	itt	ne
87803afa:	2301      	movne	r3, #1
87803afc:	6023      	strne	r3, [r4, #0]
87803afe:	f002 fd29 	bl	87806554 <vTaskSuspend>
87803b02:	e7ca      	b.n	87803a9a <prvHighPriorityPeekTask+0x16>

87803b04 <prvMediumPriorityPeekTask>:
87803b04:	b5f0      	push	{r4, r5, r6, r7, lr}
87803b06:	f240 2448 	movw	r4, #584	; 0x248
87803b0a:	f244 5767 	movw	r7, #17767	; 0x4567
87803b0e:	b083      	sub	sp, #12
87803b10:	4606      	mov	r6, r0
87803b12:	f6c8 0400 	movt	r4, #34816	; 0x8800
87803b16:	f2c0 1723 	movt	r7, #291	; 0x123
87803b1a:	2501      	movs	r5, #1
87803b1c:	f04f 32ff 	mov.w	r2, #4294967295	; 0xffffffff
87803b20:	a901      	add	r1, sp, #4
87803b22:	2301      	movs	r3, #1
87803b24:	4630      	mov	r0, r6
87803b26:	f001 fc8b 	bl	87805440 <xQueueGenericReceive>
87803b2a:	9b01      	ldr	r3, [sp, #4]
87803b2c:	2801      	cmp	r0, #1
87803b2e:	bf18      	it	ne
87803b30:	6025      	strne	r5, [r4, #0]
87803b32:	4630      	mov	r0, r6
87803b34:	42bb      	cmp	r3, r7
87803b36:	bf18      	it	ne
87803b38:	6025      	strne	r5, [r4, #0]
87803b3a:	f001 fdbf 	bl	878056bc <uxQueueMessagesWaiting>
87803b3e:	2801      	cmp	r0, #1
87803b40:	f04f 0000 	mov.w	r0, #0
87803b44:	bf18      	it	ne
87803b46:	6025      	strne	r5, [r4, #0]
87803b48:	6863      	ldr	r3, [r4, #4]
87803b4a:	3301      	adds	r3, #1
87803b4c:	6063      	str	r3, [r4, #4]
87803b4e:	f002 fd01 	bl	87806554 <vTaskSuspend>
87803b52:	e7e3      	b.n	87803b1c <prvMediumPriorityPeekTask+0x18>

87803b54 <prvLowPriorityPeekTask>:
87803b54:	e92d 4ff0 	stmdb	sp!, {r4, r5, r6, r7, r8, r9, sl, fp, lr}
87803b58:	f240 2548 	movw	r5, #584	; 0x248
87803b5c:	f24a 19e0 	movw	r9, #41440	; 0xa1e0
87803b60:	f24a 18dc 	movw	r8, #41436	; 0xa1dc
87803b64:	f243 3b44 	movw	fp, #13124	; 0x3344
87803b68:	f244 5a67 	movw	sl, #17767	; 0x4567
87803b6c:	f24a 17e4 	movw	r7, #41444	; 0xa1e4
87803b70:	f64a 23bb 	movw	r3, #43707	; 0xaabb
87803b74:	4604      	mov	r4, r0
87803b76:	f6c8 0500 	movt	r5, #34816	; 0x8800
87803b7a:	f6c8 0901 	movt	r9, #34817	; 0x8801
87803b7e:	f6c8 0801 	movt	r8, #34817	; 0x8801
87803b82:	f2c1 1b22 	movt	fp, #4386	; 0x1122
87803b86:	f2c0 1a23 	movt	sl, #291	; 0x123
87803b8a:	2601      	movs	r6, #1
87803b8c:	b085      	sub	sp, #20
87803b8e:	f6c8 0701 	movt	r7, #34817	; 0x8801
87803b92:	f6ca 23bb 	movt	r3, #43707	; 0xaabb
87803b96:	9301      	str	r3, [sp, #4]
87803b98:	9700      	str	r7, [sp, #0]
87803b9a:	2300      	movs	r3, #0
87803b9c:	a903      	add	r1, sp, #12
87803b9e:	461a      	mov	r2, r3
87803ba0:	4620      	mov	r0, r4
87803ba2:	f8cd b00c 	str.w	fp, [sp, #12]
87803ba6:	f001 fadf 	bl	87805168 <xQueueGenericSend>
87803baa:	2801      	cmp	r0, #1
87803bac:	4620      	mov	r0, r4
87803bae:	bf18      	it	ne
87803bb0:	602e      	strne	r6, [r5, #0]
87803bb2:	f001 fd83 	bl	878056bc <uxQueueMessagesWaiting>
87803bb6:	b100      	cbz	r0, 87803bba <prvLowPriorityPeekTask+0x66>
87803bb8:	602e      	str	r6, [r5, #0]
87803bba:	2300      	movs	r3, #0
87803bbc:	a903      	add	r1, sp, #12
87803bbe:	461a      	mov	r2, r3
87803bc0:	4620      	mov	r0, r4
87803bc2:	f8cd a00c 	str.w	sl, [sp, #12]
87803bc6:	f001 facf 	bl	87805168 <xQueueGenericSend>
87803bca:	2300      	movs	r3, #0
87803bcc:	a903      	add	r1, sp, #12
87803bce:	461a      	mov	r2, r3
87803bd0:	2801      	cmp	r0, #1
87803bd2:	4620      	mov	r0, r4
87803bd4:	9303      	str	r3, [sp, #12]
87803bd6:	bf18      	it	ne
87803bd8:	602e      	strne	r6, [r5, #0]
87803bda:	f001 fc31 	bl	87805440 <xQueueGenericReceive>
87803bde:	2801      	cmp	r0, #1
87803be0:	f04f 000a 	mov.w	r0, #10
87803be4:	bf18      	it	ne
87803be6:	602e      	strne	r6, [r5, #0]
87803be8:	f002 fc3c 	bl	87806464 <vTaskDelay>
87803bec:	f8d9 0000 	ldr.w	r0, [r9]
87803bf0:	f002 fa32 	bl	87806058 <vTaskResume>
87803bf4:	f8d8 0000 	ldr.w	r0, [r8]
87803bf8:	f002 fa2e 	bl	87806058 <vTaskResume>
87803bfc:	9b00      	ldr	r3, [sp, #0]
87803bfe:	6818      	ldr	r0, [r3, #0]
87803c00:	f002 fa2a 	bl	87806058 <vTaskResume>
87803c04:	9f01      	ldr	r7, [sp, #4]
87803c06:	2301      	movs	r3, #1
87803c08:	2200      	movs	r2, #0
87803c0a:	a903      	add	r1, sp, #12
87803c0c:	4620      	mov	r0, r4
87803c0e:	9703      	str	r7, [sp, #12]
87803c10:	f001 faaa 	bl	87805168 <xQueueGenericSend>
87803c14:	2301      	movs	r3, #1
87803c16:	2801      	cmp	r0, #1
87803c18:	f04f 0200 	mov.w	r2, #0
87803c1c:	a903      	add	r1, sp, #12
87803c1e:	4620      	mov	r0, r4
87803c20:	bf18      	it	ne
87803c22:	602e      	strne	r6, [r5, #0]
87803c24:	f001 fc0c 	bl	87805440 <xQueueGenericReceive>
87803c28:	b100      	cbz	r0, 87803c2c <prvLowPriorityPeekTask+0xd8>
87803c2a:	602e      	str	r6, [r5, #0]
87803c2c:	f8d8 0000 	ldr.w	r0, [r8]
87803c30:	f002 fa12 	bl	87806058 <vTaskResume>
87803c34:	9b00      	ldr	r3, [sp, #0]
87803c36:	6818      	ldr	r0, [r3, #0]
87803c38:	f002 fa0e 	bl	87806058 <vTaskResume>
87803c3c:	200a      	movs	r0, #10
87803c3e:	f002 fc11 	bl	87806464 <vTaskDelay>
87803c42:	e7aa      	b.n	87803b9a <prvLowPriorityPeekTask+0x46>

87803c44 <vStartQueuePeekTasks>:
87803c44:	b530      	push	{r4, r5, lr}
87803c46:	2200      	movs	r2, #0
87803c48:	b083      	sub	sp, #12
87803c4a:	2104      	movs	r1, #4
87803c4c:	2005      	movs	r0, #5
87803c4e:	f001 fa59 	bl	87805104 <xQueueGenericCreate>
87803c52:	2800      	cmp	r0, #0
87803c54:	d04e      	beq.n	87803cf4 <vStartQueuePeekTasks+0xb0>
87803c56:	f24a 41f0 	movw	r1, #42224	; 0xa4f0
87803c5a:	4604      	mov	r4, r0
87803c5c:	f2c8 7180 	movt	r1, #34688	; 0x8780
87803c60:	2503      	movs	r5, #3
87803c62:	f001 fd8f 	bl	87805784 <vQueueAddToRegistry>
87803c66:	2300      	movs	r3, #0
87803c68:	f24a 5104 	movw	r1, #42244	; 0xa504
87803c6c:	f643 3055 	movw	r0, #15189	; 0x3b55
87803c70:	9301      	str	r3, [sp, #4]
87803c72:	9300      	str	r3, [sp, #0]
87803c74:	f2c8 7180 	movt	r1, #34688	; 0x8780
87803c78:	4623      	mov	r3, r4
87803c7a:	225a      	movs	r2, #90	; 0x5a
87803c7c:	f2c8 7080 	movt	r0, #34688	; 0x8780
87803c80:	f002 f800 	bl	87805c84 <xTaskCreate>
87803c84:	f24a 13e0 	movw	r3, #41440	; 0xa1e0
87803c88:	2201      	movs	r2, #1
87803c8a:	f6c8 0301 	movt	r3, #34817	; 0x8801
87803c8e:	f24a 510c 	movw	r1, #42252	; 0xa50c
87803c92:	f643 3005 	movw	r0, #15109	; 0x3b05
87803c96:	e88d 000c 	stmia.w	sp, {r2, r3}
87803c9a:	f2c8 7180 	movt	r1, #34688	; 0x8780
87803c9e:	4623      	mov	r3, r4
87803ca0:	225a      	movs	r2, #90	; 0x5a
87803ca2:	f2c8 7080 	movt	r0, #34688	; 0x8780
87803ca6:	f001 ffed 	bl	87805c84 <xTaskCreate>
87803caa:	f24a 13dc 	movw	r3, #41436	; 0xa1dc
87803cae:	2202      	movs	r2, #2
87803cb0:	f6c8 0301 	movt	r3, #34817	; 0x8801
87803cb4:	f24a 5114 	movw	r1, #42260	; 0xa514
87803cb8:	f643 2085 	movw	r0, #14981	; 0x3a85
87803cbc:	e88d 000c 	stmia.w	sp, {r2, r3}
87803cc0:	f2c8 7180 	movt	r1, #34688	; 0x8780
87803cc4:	4623      	mov	r3, r4
87803cc6:	225a      	movs	r2, #90	; 0x5a
87803cc8:	f2c8 7080 	movt	r0, #34688	; 0x8780
87803ccc:	f001 ffda 	bl	87805c84 <xTaskCreate>
87803cd0:	f24a 12e4 	movw	r2, #41444	; 0xa1e4
87803cd4:	f24a 511c 	movw	r1, #42268	; 0xa51c
87803cd8:	f6c8 0201 	movt	r2, #34817	; 0x8801
87803cdc:	f643 10b9 	movw	r0, #14777	; 0x39b9
87803ce0:	9201      	str	r2, [sp, #4]
87803ce2:	4623      	mov	r3, r4
87803ce4:	f2c8 7180 	movt	r1, #34688	; 0x8780
87803ce8:	9500      	str	r5, [sp, #0]
87803cea:	f2c8 7080 	movt	r0, #34688	; 0x8780
87803cee:	225a      	movs	r2, #90	; 0x5a
87803cf0:	f001 ffc8 	bl	87805c84 <xTaskCreate>
87803cf4:	b003      	add	sp, #12
87803cf6:	bd30      	pop	{r4, r5, pc}

87803cf8 <xAreQueuePeekTasksStillRunning>:
87803cf8:	f240 2348 	movw	r3, #584	; 0x248
87803cfc:	f6c8 0300 	movt	r3, #34816	; 0x8800
87803d00:	685a      	ldr	r2, [r3, #4]
87803d02:	6899      	ldr	r1, [r3, #8]
87803d04:	4291      	cmp	r1, r2
87803d06:	bf04      	itt	eq
87803d08:	2201      	moveq	r2, #1
87803d0a:	601a      	streq	r2, [r3, #0]
87803d0c:	685a      	ldr	r2, [r3, #4]
87803d0e:	6818      	ldr	r0, [r3, #0]
87803d10:	609a      	str	r2, [r3, #8]
87803d12:	fab0 f080 	clz	r0, r0
87803d16:	0940      	lsrs	r0, r0, #5
87803d18:	4770      	bx	lr
87803d1a:	bf00      	nop

87803d1c <vLEDFlashTask>:
87803d1c:	b530      	push	{r4, r5, lr}
87803d1e:	b083      	sub	sp, #12
87803d20:	f003 fcce 	bl	878076c0 <vPortEnterCritical>
87803d24:	f240 2354 	movw	r3, #596	; 0x254
87803d28:	f240 144d 	movw	r4, #333	; 0x14d
87803d2c:	f6c8 0300 	movt	r3, #34816	; 0x8800
87803d30:	681d      	ldr	r5, [r3, #0]
87803d32:	681a      	ldr	r2, [r3, #0]
87803d34:	fb05 4404 	mla	r4, r5, r4, r4
87803d38:	3201      	adds	r2, #1
87803d3a:	ad02      	add	r5, sp, #8
87803d3c:	601a      	str	r2, [r3, #0]
87803d3e:	0864      	lsrs	r4, r4, #1
87803d40:	f003 fd00 	bl	87807744 <vPortExitCritical>
87803d44:	f002 fa52 	bl	878061ec <xTaskGetTickCount>
87803d48:	f845 0d04 	str.w	r0, [r5, #-4]!
87803d4c:	4621      	mov	r1, r4
87803d4e:	4628      	mov	r0, r5
87803d50:	f002 fb4a 	bl	878063e8 <vTaskDelayUntil>
87803d54:	4621      	mov	r1, r4
87803d56:	4628      	mov	r0, r5
87803d58:	f002 fb46 	bl	878063e8 <vTaskDelayUntil>
87803d5c:	e7f6      	b.n	87803d4c <vLEDFlashTask+0x30>
87803d5e:	bf00      	nop

87803d60 <vStartLEDFlashTasks>:
87803d60:	e92d 41f0 	stmdb	sp!, {r4, r5, r6, r7, r8, lr}
87803d64:	f24a 5624 	movw	r6, #42276	; 0xa524
87803d68:	f643 551d 	movw	r5, #15645	; 0x3d1d
87803d6c:	b082      	sub	sp, #8
87803d6e:	4680      	mov	r8, r0
87803d70:	f2c8 7680 	movt	r6, #34688	; 0x8780
87803d74:	f2c8 7580 	movt	r5, #34688	; 0x8780
87803d78:	2403      	movs	r4, #3
87803d7a:	2700      	movs	r7, #0
87803d7c:	9701      	str	r7, [sp, #4]
87803d7e:	2300      	movs	r3, #0
87803d80:	f8cd 8000 	str.w	r8, [sp]
87803d84:	225a      	movs	r2, #90	; 0x5a
87803d86:	4631      	mov	r1, r6
87803d88:	4628      	mov	r0, r5
87803d8a:	f001 ff7b 	bl	87805c84 <xTaskCreate>
87803d8e:	3c01      	subs	r4, #1
87803d90:	d1f4      	bne.n	87803d7c <vStartLEDFlashTasks+0x1c>
87803d92:	b002      	add	sp, #8
87803d94:	e8bd 81f0 	ldmia.w	sp!, {r4, r5, r6, r7, r8, pc}

87803d98 <prvRand>:
87803d98:	f240 2358 	movw	r3, #600	; 0x258
87803d9c:	f644 6035 	movw	r0, #20021	; 0x4e35
87803da0:	f6c8 0300 	movt	r3, #34816	; 0x8800
87803da4:	f2c0 105a 	movt	r0, #346	; 0x15a
87803da8:	681a      	ldr	r2, [r3, #0]
87803daa:	fb00 f002 	mul.w	r0, r0, r2
87803dae:	3001      	adds	r0, #1
87803db0:	6018      	str	r0, [r3, #0]
87803db2:	f3c0 400e 	ubfx	r0, r0, #16, #15
87803db6:	4770      	bx	lr

87803db8 <prvNotifyingTimer>:
87803db8:	b510      	push	{r4, lr}
87803dba:	f240 2458 	movw	r4, #600	; 0x258
87803dbe:	2300      	movs	r3, #0
87803dc0:	f6c8 0400 	movt	r4, #34816	; 0x8800
87803dc4:	4619      	mov	r1, r3
87803dc6:	2202      	movs	r2, #2
87803dc8:	6860      	ldr	r0, [r4, #4]
87803dca:	f002 ff6f 	bl	87806cac <xTaskGenericNotify>
87803dce:	f003 fc77 	bl	878076c0 <vPortEnterCritical>
87803dd2:	68a3      	ldr	r3, [r4, #8]
87803dd4:	3301      	adds	r3, #1
87803dd6:	60a3      	str	r3, [r4, #8]
87803dd8:	e8bd 4010 	ldmia.w	sp!, {r4, lr}
87803ddc:	f003 bcb2 	b.w	87807744 <vPortExitCritical>

87803de0 <prvNotifiedTask>:
87803de0:	e92d 43f0 	stmdb	sp!, {r4, r5, r6, r7, r8, r9, lr}
87803de4:	b085      	sub	sp, #20
87803de6:	f002 fa01 	bl	878061ec <xTaskGetTickCount>
87803dea:	2364      	movs	r3, #100	; 0x64
87803dec:	4604      	mov	r4, r0
87803dee:	aa02      	add	r2, sp, #8
87803df0:	2100      	movs	r1, #0
87803df2:	f04f 30ff 	mov.w	r0, #4294967295	; 0xffffffff
87803df6:	f240 0510 	movw	r5, #16
87803dfa:	f002 ff17 	bl	87806c2c <xTaskNotifyWait>
87803dfe:	4606      	mov	r6, r0
87803e00:	f002 f9f4 	bl	878061ec <xTaskGetTickCount>
87803e04:	1b00      	subs	r0, r0, r4
87803e06:	2863      	cmp	r0, #99	; 0x63
87803e08:	bf9b      	ittet	ls
87803e0a:	2300      	movls	r3, #0
87803e0c:	f6c8 0500 	movtls	r5, #34816	; 0x8800
87803e10:	f6c8 0500 	movthi	r5, #34816	; 0x8800
87803e14:	602b      	strls	r3, [r5, #0]
87803e16:	b9b6      	cbnz	r6, 87803e46 <prvNotifiedTask+0x66>
87803e18:	9b02      	ldr	r3, [sp, #8]
87803e1a:	b113      	cbz	r3, 87803e22 <prvNotifiedTask+0x42>
87803e1c:	f003 fcd2 	bl	878077c4 <ulPortSetInterruptMask>
87803e20:	e7fe      	b.n	87803e20 <prvNotifiedTask+0x40>
87803e22:	f240 2458 	movw	r4, #600	; 0x258
87803e26:	f248 61a1 	movw	r1, #34465	; 0x86a1
87803e2a:	f6c8 0400 	movt	r4, #34816	; 0x8800
87803e2e:	ab03      	add	r3, sp, #12
87803e30:	6860      	ldr	r0, [r4, #4]
87803e32:	f2c0 0101 	movt	r1, #1
87803e36:	2204      	movs	r2, #4
87803e38:	f002 ff38 	bl	87806cac <xTaskGenericNotify>
87803e3c:	2801      	cmp	r0, #1
87803e3e:	d005      	beq.n	87803e4c <prvNotifiedTask+0x6c>
87803e40:	f003 fcc0 	bl	878077c4 <ulPortSetInterruptMask>
87803e44:	e7fe      	b.n	87803e44 <prvNotifiedTask+0x64>
87803e46:	f003 fcbd 	bl	878077c4 <ulPortSetInterruptMask>
87803e4a:	e7fe      	b.n	87803e4a <prvNotifiedTask+0x6a>
87803e4c:	9f03      	ldr	r7, [sp, #12]
87803e4e:	b117      	cbz	r7, 87803e56 <prvNotifiedTask+0x76>
87803e50:	f003 fcb8 	bl	878077c4 <ulPortSetInterruptMask>
87803e54:	e7fe      	b.n	87803e54 <prvNotifiedTask+0x74>
87803e56:	f002 f9c9 	bl	878061ec <xTaskGetTickCount>
87803e5a:	2364      	movs	r3, #100	; 0x64
87803e5c:	4680      	mov	r8, r0
87803e5e:	aa02      	add	r2, sp, #8
87803e60:	4631      	mov	r1, r6
87803e62:	f04f 30ff 	mov.w	r0, #4294967295	; 0xffffffff
87803e66:	f002 fee1 	bl	87806c2c <xTaskNotifyWait>
87803e6a:	4681      	mov	r9, r0
87803e6c:	f002 f9be 	bl	878061ec <xTaskGetTickCount>
87803e70:	eba0 0008 	sub.w	r0, r0, r8
87803e74:	2863      	cmp	r0, #99	; 0x63
87803e76:	bf88      	it	hi
87803e78:	602e      	strhi	r6, [r5, #0]
87803e7a:	f1b9 0f01 	cmp.w	r9, #1
87803e7e:	d002      	beq.n	87803e86 <prvNotifiedTask+0xa6>
87803e80:	f003 fca0 	bl	878077c4 <ulPortSetInterruptMask>
87803e84:	e7fe      	b.n	87803e84 <prvNotifiedTask+0xa4>
87803e86:	9e02      	ldr	r6, [sp, #8]
87803e88:	f248 63a1 	movw	r3, #34465	; 0x86a1
87803e8c:	f2c0 0301 	movt	r3, #1
87803e90:	429e      	cmp	r6, r3
87803e92:	d002      	beq.n	87803e9a <prvNotifiedTask+0xba>
87803e94:	f003 fc96 	bl	878077c4 <ulPortSetInterruptMask>
87803e98:	e7fe      	b.n	87803e98 <prvNotifiedTask+0xb8>
87803e9a:	68e5      	ldr	r5, [r4, #12]
87803e9c:	2300      	movs	r3, #0
87803e9e:	2204      	movs	r2, #4
87803ea0:	4631      	mov	r1, r6
87803ea2:	6860      	ldr	r0, [r4, #4]
87803ea4:	3501      	adds	r5, #1
87803ea6:	60e5      	str	r5, [r4, #12]
87803ea8:	f002 ff00 	bl	87806cac <xTaskGenericNotify>
87803eac:	2801      	cmp	r0, #1
87803eae:	d002      	beq.n	87803eb6 <prvNotifiedTask+0xd6>
87803eb0:	f003 fc88 	bl	878077c4 <ulPortSetInterruptMask>
87803eb4:	e7fe      	b.n	87803eb4 <prvNotifiedTask+0xd4>
87803eb6:	2300      	movs	r3, #0
87803eb8:	2204      	movs	r2, #4
87803eba:	f241 51b3 	movw	r1, #5555	; 0x15b3
87803ebe:	6860      	ldr	r0, [r4, #4]
87803ec0:	f002 fef4 	bl	87806cac <xTaskGenericNotify>
87803ec4:	4605      	mov	r5, r0
87803ec6:	b110      	cbz	r0, 87803ece <prvNotifiedTask+0xee>
87803ec8:	f003 fc7c 	bl	878077c4 <ulPortSetInterruptMask>
87803ecc:	e7fe      	b.n	87803ecc <prvNotifiedTask+0xec>
87803ece:	4603      	mov	r3, r0
87803ed0:	4601      	mov	r1, r0
87803ed2:	aa02      	add	r2, sp, #8
87803ed4:	f04f 30ff 	mov.w	r0, #4294967295	; 0xffffffff
87803ed8:	f002 fea8 	bl	87806c2c <xTaskNotifyWait>
87803edc:	2801      	cmp	r0, #1
87803ede:	d002      	beq.n	87803ee6 <prvNotifiedTask+0x106>
87803ee0:	f003 fc70 	bl	878077c4 <ulPortSetInterruptMask>
87803ee4:	e7fe      	b.n	87803ee4 <prvNotifiedTask+0x104>
87803ee6:	9902      	ldr	r1, [sp, #8]
87803ee8:	42b1      	cmp	r1, r6
87803eea:	d002      	beq.n	87803ef2 <prvNotifiedTask+0x112>
87803eec:	f003 fc6a 	bl	878077c4 <ulPortSetInterruptMask>
87803ef0:	e7fe      	b.n	87803ef0 <prvNotifiedTask+0x110>
87803ef2:	462b      	mov	r3, r5
87803ef4:	2203      	movs	r2, #3
87803ef6:	6860      	ldr	r0, [r4, #4]
87803ef8:	f002 fed8 	bl	87806cac <xTaskGenericNotify>
87803efc:	2801      	cmp	r0, #1
87803efe:	d002      	beq.n	87803f06 <prvNotifiedTask+0x126>
87803f00:	f003 fc60 	bl	878077c4 <ulPortSetInterruptMask>
87803f04:	e7fe      	b.n	87803f04 <prvNotifiedTask+0x124>
87803f06:	462b      	mov	r3, r5
87803f08:	2203      	movs	r2, #3
87803f0a:	f241 51b3 	movw	r1, #5555	; 0x15b3
87803f0e:	6860      	ldr	r0, [r4, #4]
87803f10:	f002 fecc 	bl	87806cac <xTaskGenericNotify>
87803f14:	2801      	cmp	r0, #1
87803f16:	d002      	beq.n	87803f1e <prvNotifiedTask+0x13e>
87803f18:	f003 fc54 	bl	878077c4 <ulPortSetInterruptMask>
87803f1c:	e7fe      	b.n	87803f1c <prvNotifiedTask+0x13c>
87803f1e:	462b      	mov	r3, r5
87803f20:	4629      	mov	r1, r5
87803f22:	aa02      	add	r2, sp, #8
87803f24:	f04f 30ff 	mov.w	r0, #4294967295	; 0xffffffff
87803f28:	f002 fe80 	bl	87806c2c <xTaskNotifyWait>
87803f2c:	2801      	cmp	r0, #1
87803f2e:	d002      	beq.n	87803f36 <prvNotifiedTask+0x156>
87803f30:	f003 fc48 	bl	878077c4 <ulPortSetInterruptMask>
87803f34:	e7fe      	b.n	87803f34 <prvNotifiedTask+0x154>
87803f36:	9a02      	ldr	r2, [sp, #8]
87803f38:	f241 53b3 	movw	r3, #5555	; 0x15b3
87803f3c:	429a      	cmp	r2, r3
87803f3e:	d002      	beq.n	87803f46 <prvNotifiedTask+0x166>
87803f40:	f003 fc40 	bl	878077c4 <ulPortSetInterruptMask>
87803f44:	e7fe      	b.n	87803f44 <prvNotifiedTask+0x164>
87803f46:	2300      	movs	r3, #0
87803f48:	f248 61a1 	movw	r1, #34465	; 0x86a1
87803f4c:	461a      	mov	r2, r3
87803f4e:	f2c0 0101 	movt	r1, #1
87803f52:	6860      	ldr	r0, [r4, #4]
87803f54:	f002 feaa 	bl	87806cac <xTaskGenericNotify>
87803f58:	2801      	cmp	r0, #1
87803f5a:	d002      	beq.n	87803f62 <prvNotifiedTask+0x182>
87803f5c:	f003 fc32 	bl	878077c4 <ulPortSetInterruptMask>
87803f60:	e7fe      	b.n	87803f60 <prvNotifiedTask+0x180>
87803f62:	2300      	movs	r3, #0
87803f64:	aa02      	add	r2, sp, #8
87803f66:	4619      	mov	r1, r3
87803f68:	f04f 30ff 	mov.w	r0, #4294967295	; 0xffffffff
87803f6c:	f002 fe5e 	bl	87806c2c <xTaskNotifyWait>
87803f70:	9a02      	ldr	r2, [sp, #8]
87803f72:	f241 53b3 	movw	r3, #5555	; 0x15b3
87803f76:	429a      	cmp	r2, r3
87803f78:	d002      	beq.n	87803f80 <prvNotifiedTask+0x1a0>
87803f7a:	f003 fc23 	bl	878077c4 <ulPortSetInterruptMask>
87803f7e:	e7fe      	b.n	87803f7e <prvNotifiedTask+0x19e>
87803f80:	2505      	movs	r5, #5
87803f82:	2300      	movs	r3, #0
87803f84:	2202      	movs	r2, #2
87803f86:	4619      	mov	r1, r3
87803f88:	6860      	ldr	r0, [r4, #4]
87803f8a:	f002 fe8f 	bl	87806cac <xTaskGenericNotify>
87803f8e:	2801      	cmp	r0, #1
87803f90:	d10e      	bne.n	87803fb0 <prvNotifiedTask+0x1d0>
87803f92:	3d01      	subs	r5, #1
87803f94:	d1f5      	bne.n	87803f82 <prvNotifiedTask+0x1a2>
87803f96:	462b      	mov	r3, r5
87803f98:	aa02      	add	r2, sp, #8
87803f9a:	4629      	mov	r1, r5
87803f9c:	f04f 30ff 	mov.w	r0, #4294967295	; 0xffffffff
87803fa0:	f002 fe44 	bl	87806c2c <xTaskNotifyWait>
87803fa4:	2801      	cmp	r0, #1
87803fa6:	4606      	mov	r6, r0
87803fa8:	d005      	beq.n	87803fb6 <prvNotifiedTask+0x1d6>
87803faa:	f003 fc0b 	bl	878077c4 <ulPortSetInterruptMask>
87803fae:	e7fe      	b.n	87803fae <prvNotifiedTask+0x1ce>
87803fb0:	f003 fc08 	bl	878077c4 <ulPortSetInterruptMask>
87803fb4:	e7fe      	b.n	87803fb4 <prvNotifiedTask+0x1d4>
87803fb6:	9a02      	ldr	r2, [sp, #8]
87803fb8:	f241 53b8 	movw	r3, #5560	; 0x15b8
87803fbc:	429a      	cmp	r2, r3
87803fbe:	d002      	beq.n	87803fc6 <prvNotifiedTask+0x1e6>
87803fc0:	f003 fc00 	bl	878077c4 <ulPortSetInterruptMask>
87803fc4:	e7fe      	b.n	87803fc4 <prvNotifiedTask+0x1e4>
87803fc6:	462b      	mov	r3, r5
87803fc8:	aa02      	add	r2, sp, #8
87803fca:	4629      	mov	r1, r5
87803fcc:	4628      	mov	r0, r5
87803fce:	f002 fe2d 	bl	87806c2c <xTaskNotifyWait>
87803fd2:	b110      	cbz	r0, 87803fda <prvNotifiedTask+0x1fa>
87803fd4:	f003 fbf6 	bl	878077c4 <ulPortSetInterruptMask>
87803fd8:	e7fe      	b.n	87803fd8 <prvNotifiedTask+0x1f8>
87803fda:	462b      	mov	r3, r5
87803fdc:	4629      	mov	r1, r5
87803fde:	aa02      	add	r2, sp, #8
87803fe0:	f04f 30ff 	mov.w	r0, #4294967295	; 0xffffffff
87803fe4:	f002 fe22 	bl	87806c2c <xTaskNotifyWait>
87803fe8:	4631      	mov	r1, r6
87803fea:	2300      	movs	r3, #0
87803fec:	2201      	movs	r2, #1
87803fee:	6860      	ldr	r0, [r4, #4]
87803ff0:	f002 fe5c 	bl	87806cac <xTaskGenericNotify>
87803ff4:	2300      	movs	r3, #0
87803ff6:	aa02      	add	r2, sp, #8
87803ff8:	4619      	mov	r1, r3
87803ffa:	4618      	mov	r0, r3
87803ffc:	f002 fe16 	bl	87806c2c <xTaskNotifyWait>
87804000:	2801      	cmp	r0, #1
87804002:	f107 0701 	add.w	r7, r7, #1
87804006:	ea4f 0646 	mov.w	r6, r6, lsl #1
8780400a:	d109      	bne.n	87804020 <prvNotifiedTask+0x240>
8780400c:	f8dd 8008 	ldr.w	r8, [sp, #8]
87804010:	f1b8 3fff 	cmp.w	r8, #4294967295	; 0xffffffff
87804014:	d1e8      	bne.n	87803fe8 <prvNotifiedTask+0x208>
87804016:	2f20      	cmp	r7, #32
87804018:	d005      	beq.n	87804026 <prvNotifiedTask+0x246>
8780401a:	f003 fbd3 	bl	878077c4 <ulPortSetInterruptMask>
8780401e:	e7fe      	b.n	8780401e <prvNotifiedTask+0x23e>
87804020:	f003 fbd0 	bl	878077c4 <ulPortSetInterruptMask>
87804024:	e7fe      	b.n	87804024 <prvNotifiedTask+0x244>
87804026:	2364      	movs	r3, #100	; 0x64
87804028:	aa02      	add	r2, sp, #8
8780402a:	2102      	movs	r1, #2
8780402c:	f002 fdfe 	bl	87806c2c <xTaskNotifyWait>
87804030:	4605      	mov	r5, r0
87804032:	b110      	cbz	r0, 8780403a <prvNotifiedTask+0x25a>
87804034:	f003 fbc6 	bl	878077c4 <ulPortSetInterruptMask>
87804038:	e7fe      	b.n	87804038 <prvNotifiedTask+0x258>
8780403a:	4603      	mov	r3, r0
8780403c:	4602      	mov	r2, r0
8780403e:	4641      	mov	r1, r8
87804040:	6860      	ldr	r0, [r4, #4]
87804042:	f002 fe33 	bl	87806cac <xTaskGenericNotify>
87804046:	462b      	mov	r3, r5
87804048:	aa02      	add	r2, sp, #8
8780404a:	4629      	mov	r1, r5
8780404c:	4628      	mov	r0, r5
8780404e:	f002 fded 	bl	87806c2c <xTaskNotifyWait>
87804052:	2801      	cmp	r0, #1
87804054:	4606      	mov	r6, r0
87804056:	d002      	beq.n	8780405e <prvNotifiedTask+0x27e>
87804058:	f003 fbb4 	bl	878077c4 <ulPortSetInterruptMask>
8780405c:	e7fe      	b.n	8780405c <prvNotifiedTask+0x27c>
8780405e:	9b02      	ldr	r3, [sp, #8]
87804060:	3302      	adds	r3, #2
87804062:	d002      	beq.n	8780406a <prvNotifiedTask+0x28a>
87804064:	f003 fbae 	bl	878077c4 <ulPortSetInterruptMask>
87804068:	e7fe      	b.n	87804068 <prvNotifiedTask+0x288>
8780406a:	462b      	mov	r3, r5
8780406c:	462a      	mov	r2, r5
8780406e:	4629      	mov	r1, r5
87804070:	6860      	ldr	r0, [r4, #4]
87804072:	f002 fe1b 	bl	87806cac <xTaskGenericNotify>
87804076:	462b      	mov	r3, r5
87804078:	aa02      	add	r2, sp, #8
8780407a:	2102      	movs	r1, #2
8780407c:	4628      	mov	r0, r5
8780407e:	f002 fdd5 	bl	87806c2c <xTaskNotifyWait>
87804082:	9b02      	ldr	r3, [sp, #8]
87804084:	3302      	adds	r3, #2
87804086:	d002      	beq.n	8780408e <prvNotifiedTask+0x2ae>
87804088:	f003 fb9c 	bl	878077c4 <ulPortSetInterruptMask>
8780408c:	e7fe      	b.n	8780408c <prvNotifiedTask+0x2ac>
8780408e:	4629      	mov	r1, r5
87804090:	462b      	mov	r3, r5
87804092:	aa02      	add	r2, sp, #8
87804094:	4628      	mov	r0, r5
87804096:	f002 fdc9 	bl	87806c2c <xTaskNotifyWait>
8780409a:	4601      	mov	r1, r0
8780409c:	b928      	cbnz	r0, 878040aa <prvNotifiedTask+0x2ca>
8780409e:	9b02      	ldr	r3, [sp, #8]
878040a0:	3304      	adds	r3, #4
878040a2:	d005      	beq.n	878040b0 <prvNotifiedTask+0x2d0>
878040a4:	f003 fb8e 	bl	878077c4 <ulPortSetInterruptMask>
878040a8:	e7fe      	b.n	878040a8 <prvNotifiedTask+0x2c8>
878040aa:	f003 fb8b 	bl	878077c4 <ulPortSetInterruptMask>
878040ae:	e7fe      	b.n	878040ae <prvNotifiedTask+0x2ce>
878040b0:	ab03      	add	r3, sp, #12
878040b2:	4632      	mov	r2, r6
878040b4:	6860      	ldr	r0, [r4, #4]
878040b6:	f002 fdf9 	bl	87806cac <xTaskGenericNotify>
878040ba:	9b02      	ldr	r3, [sp, #8]
878040bc:	3304      	adds	r3, #4
878040be:	d002      	beq.n	878040c6 <prvNotifiedTask+0x2e6>
878040c0:	f003 fb80 	bl	878077c4 <ulPortSetInterruptMask>
878040c4:	e7fe      	b.n	878040c4 <prvNotifiedTask+0x2e4>
878040c6:	2300      	movs	r3, #0
878040c8:	aa02      	add	r2, sp, #8
878040ca:	4618      	mov	r0, r3
878040cc:	f04f 31ff 	mov.w	r1, #4294967295	; 0xffffffff
878040d0:	f002 fdac 	bl	87806c2c <xTaskNotifyWait>
878040d4:	ab03      	add	r3, sp, #12
878040d6:	2201      	movs	r2, #1
878040d8:	2100      	movs	r1, #0
878040da:	6860      	ldr	r0, [r4, #4]
