
/home/wyz/Atom/IMX6ULL/Board_Driver/test/beep_test/build/beep_test.elf:     file format elf32-littlearm


Disassembly of section .text:

87800000 <_start>:
87800000:	e10f0000 	mrs	r0, CPSR
87800004:	e3c0001f 	bic	r0, r0, #31
87800008:	e3800013 	orr	r0, r0, #19
8780000c:	e129f000 	msr	CPSR_fc, r0
87800010:	e51fd000 	ldr	sp, [pc, #-0]	; 87800018 <_start+0x18>
87800014:	ea000211 	b	87800860 <__main_from_arm>
87800018:	80200000 	eorhi	r0, r0, r0
8780001c:	00001e41 	andeq	r1, r0, r1, asr #28
87800020:	61656100 	cmnvs	r5, r0, lsl #2
87800024:	01006962 	tsteq	r0, r2, ror #18
87800028:	00000014 	andeq	r0, r0, r4, lsl r0
8780002c:	412d3705 	teqmi	sp, r5, lsl #14
87800030:	070a0600 	streq	r0, [sl, -r0, lsl #12]
87800034:	09010841 	stmdbeq	r1, {r0, r6, fp}
87800038:	37040a02 	strcc	r0, [r4, -r2, lsl #20]
8780003c:	02000000 	andeq	r0, r0, #0
87800040:	00001e00 	andeq	r1, r0, r0, lsl #28
87800044:	fb010200 	blx	8784084e <__bss_end+0x3ffe6>
87800048:	01000d0e 	tsteq	r0, lr, lsl #26
8780004c:	00010101 	andeq	r0, r1, r1, lsl #2
87800050:	00010000 	andeq	r0, r1, r0
87800054:	73000100 	movwvc	r0, #256	; 0x100
87800058:	74726174 	ldrbtvc	r6, [r2], #-372	; 0x174
8780005c:	0000532e 	andeq	r5, r0, lr, lsr #6
87800060:	00000000 	andeq	r0, r0, r0
87800064:	00000205 	andeq	r0, r0, r5, lsl #4
87800068:	2f158780 	svccs	0x00158780
8780006c:	2f302f2f 	svccs	0x00302f2f
87800070:	0002022d 	andeq	r0, r2, sp, lsr #4
87800074:	005f0101 	subseq	r0, pc, r1, lsl #2
87800078:	00020000 	andeq	r0, r2, r0
8780007c:	878000d9 			; <UNDEFINED> instruction: 0x878000d9
87800080:	003b0104 	eorseq	r0, fp, r4, lsl #2
87800084:	00008780 	andeq	r8, r0, r0, lsl #15
87800088:	001c8780 	andseq	r8, ip, r0, lsl #15
8780008c:	74738780 	ldrbtvc	r8, [r3], #-1920	; 0x780
87800090:	2e747261 	cdpcs	2, 7, cr7, cr4, cr1, {3}
87800094:	682f0053 	stmdavs	pc!, {r0, r1, r4, r6}	; <UNPREDICTABLE>
87800098:	2f656d6f 	svccs	0x00656d6f
8780009c:	2f7a7977 	svccs	0x007a7977
878000a0:	6d6f7441 	cfstrdvs	mvd7, [pc, #-260]!	; 877fffa4 <_start-0x5c>
878000a4:	584d492f 	stmdapl	sp, {r0, r1, r2, r3, r5, r8, fp, lr}^
878000a8:	4c4c5536 	cfstr64mi	mvdx5, [ip], {54}	; 0x36
878000ac:	616f422f 	cmnvs	pc, pc, lsr #4
878000b0:	445f6472 	ldrbmi	r6, [pc], #-1138	; 878000b8 <_start+0xb8>
878000b4:	65766972 	ldrbvs	r6, [r6, #-2418]!	; 0x972
878000b8:	65742f72 	ldrbvs	r2, [r4, #-3954]!	; 0xf72
878000bc:	622f7473 	eorvs	r7, pc, #1929379840	; 0x73000000
878000c0:	5f706565 	svcpl	0x00706565
878000c4:	74736574 	ldrbtvc	r6, [r3], #-1396	; 0x574
878000c8:	554e4700 	strbpl	r4, [lr, #-1792]	; 0x700
878000cc:	20534120 	subscs	r4, r3, r0, lsr #2
878000d0:	34322e32 	ldrtcc	r2, [r2], #-3634	; 0xe32
878000d4:	0100302e 	tsteq	r0, lr, lsr #32
878000d8:	00110180 	andseq	r0, r1, r0, lsl #3
878000dc:	01110610 	tsteq	r1, r0, lsl r6
878000e0:	08030112 	stmdaeq	r3, {r1, r4, r8}
878000e4:	0825081b 	stmdaeq	r5!, {r0, r1, r3, r4, fp}
878000e8:	00000513 	andeq	r0, r0, r3, lsl r5
878000ec:	00000000 	andeq	r0, r0, r0
878000f0:	0000001c 	andeq	r0, r0, ip, lsl r0
878000f4:	00760002 	rsbseq	r0, r6, r2
878000f8:	00048780 	andeq	r8, r4, r0, lsl #15
878000fc:	00000000 	andeq	r0, r0, r0
87800100:	87800000 	strhi	r0, [r0, r0]
87800104:	0000001c 	andeq	r0, r0, ip, lsl r0
	...

87800110 <bsp_clk_msleep>:
87800110:	b480      	push	{r7}
87800112:	b085      	sub	sp, #20
87800114:	af00      	add	r7, sp, #0
87800116:	6078      	str	r0, [r7, #4]
87800118:	2300      	movs	r3, #0
8780011a:	60fb      	str	r3, [r7, #12]
8780011c:	e00a      	b.n	87800134 <bsp_clk_msleep+0x24>
8780011e:	2300      	movs	r3, #0
87800120:	60fb      	str	r3, [r7, #12]
87800122:	e002      	b.n	8780012a <bsp_clk_msleep+0x1a>
87800124:	68fb      	ldr	r3, [r7, #12]
87800126:	3301      	adds	r3, #1
87800128:	60fb      	str	r3, [r7, #12]
8780012a:	68fb      	ldr	r3, [r7, #12]
8780012c:	f240 72fe 	movw	r2, #2046	; 0x7fe
87800130:	4293      	cmp	r3, r2
87800132:	ddf7      	ble.n	87800124 <bsp_clk_msleep+0x14>
87800134:	687b      	ldr	r3, [r7, #4]
87800136:	1e5a      	subs	r2, r3, #1
87800138:	607a      	str	r2, [r7, #4]
8780013a:	2b00      	cmp	r3, #0
8780013c:	d1ef      	bne.n	8780011e <bsp_clk_msleep+0xe>
8780013e:	3714      	adds	r7, #20
87800140:	46bd      	mov	sp, r7
87800142:	f85d 7b04 	ldr.w	r7, [sp], #4
87800146:	4770      	bx	lr

87800148 <main>:
87800148:	b580      	push	{r7, lr}
8780014a:	b082      	sub	sp, #8
8780014c:	af00      	add	r7, sp, #0
8780014e:	6078      	str	r0, [r7, #4]
87800150:	6039      	str	r1, [r7, #0]
87800152:	f000 fa31 	bl	878005b8 <all_clk_enable>
87800156:	f000 fb41 	bl	878007dc <bsp_led_init>
8780015a:	f000 f9ed 	bl	87800538 <beep_init>
8780015e:	f000 fb59 	bl	87800814 <bsp_led_on>
87800162:	f000 fa05 	bl	87800570 <beep_on>
87800166:	f44f 70fa 	mov.w	r0, #500	; 0x1f4
8780016a:	f7ff ffd1 	bl	87800110 <bsp_clk_msleep>
8780016e:	f000 fb59 	bl	87800824 <bsp_led_off>
87800172:	f000 fa05 	bl	87800580 <beep_off>
87800176:	f44f 70fa 	mov.w	r0, #500	; 0x1f4
8780017a:	f7ff ffc9 	bl	87800110 <bsp_clk_msleep>
8780017e:	e7ee      	b.n	8780015e <main+0x16>
87800180:	000000cb 	andeq	r0, r0, fp, asr #1
87800184:	024f0004 	subeq	r0, pc, #4
87800188:	01048780 	smlabbeq	r4, r0, r7, r8
8780018c:	87800387 	strhi	r0, [r0, r7, lsl #7]
87800190:	80044d01 	andhi	r4, r4, r1, lsl #26
87800194:	80040c87 	andhi	r0, r4, r7, lsl #25
87800198:	80011087 	andhi	r1, r1, r7, lsl #1
8780019c:	00007087 	andeq	r7, r0, r7, lsl #1
878001a0:	80030500 	andhi	r0, r3, r0, lsl #10
878001a4:	08010287 	stmdaeq	r1, {r0, r1, r2, r7, r9}
878001a8:	8780043f 			; <UNDEFINED> instruction: 0x8780043f
878001ac:	59070202 	stmdbpl	r7, {r1, r9}
878001b0:	02878004 	addeq	r8, r7, #4
878001b4:	03ff0704 	mvnseq	r0, #4, 14	; 0x100000
878001b8:	08028780 	stmdaeq	r2, {r7, r8, r9, sl, pc}
878001bc:	8003f507 	andhi	pc, r3, r7, lsl #10
878001c0:	08010287 	stmdaeq	r1, {r0, r1, r2, r7, r9}
878001c4:	87800448 	strhi	r0, [r0, r8, asr #8]
878001c8:	71050202 	tstvc	r5, r2, lsl #4
878001cc:	03878004 	orreq	r8, r7, #4
878001d0:	6e690504 	cdpvs	5, 6, cr0, cr9, cr4, {0}
878001d4:	04020074 	streq	r0, [r2], #-116	; 0x74
878001d8:	80047b07 	andhi	r7, r4, r7, lsl #22
878001dc:	03780487 	cmneq	r8, #-2030043136	; 0x87000000
878001e0:	0e018780 	cdpeq	7, 0, cr8, cr1, cr0, {4}
878001e4:	87800110 	usada8hi	r0, r0, r1, r0
878001e8:	00000038 	andeq	r0, r0, r8, lsr r0
878001ec:	008c9c01 	addeq	r9, ip, r1, lsl #24
878001f0:	6d050000 	stcvs	0, cr0, [r5, #-0]
878001f4:	0e010073 	mcreq	0, 0, r0, cr1, cr3, {3}
878001f8:	0000004f 	andeq	r0, r0, pc, asr #32
878001fc:	066c9102 	strbteq	r9, [ip], -r2, lsl #2
87800200:	10010069 	andne	r0, r1, r9, rrx
87800204:	0000004f 	andeq	r0, r0, pc, asr #32
87800208:	00749102 	rsbseq	r9, r4, r2, lsl #2
8780020c:	80037307 	andhi	r7, r3, r7, lsl #6
87800210:	4f170187 	svcmi	0x00170187
87800214:	48000000 	stmdami	r0, {}	; <UNPREDICTABLE>
87800218:	38878001 	stmcc	r7, {r0, pc}
8780021c:	01000000 	mrseq	r0, (UNDEF: 0)
87800220:	0000c29c 	muleq	r0, ip, r2
87800224:	04540800 	ldrbeq	r0, [r4], #-2048	; 0x800
87800228:	17018780 	strne	r8, [r1, -r0, lsl #15]
8780022c:	0000004f 	andeq	r0, r0, pc, asr #32
87800230:	08749102 	ldmdaeq	r4!, {r1, r8, ip, pc}^
87800234:	8780046c 	strhi	r0, [r0, ip, ror #8]
87800238:	00c21701 	sbceq	r1, r2, r1, lsl #14
8780023c:	91020000 	mrsls	r0, (UNDEF: 2)
87800240:	04090070 	streq	r0, [r9], #-112	; 0x70
87800244:	000000c8 	andeq	r0, r0, r8, asr #1
87800248:	00410409 	subeq	r0, r1, r9, lsl #8
8780024c:	01000000 	mrseq	r0, (UNDEF: 0)
87800250:	0e250111 	mcreq	1, 1, r0, cr5, cr1, {0}
87800254:	0e030b13 	vmoveq.32	d3[0], r0
87800258:	01110e1b 	tsteq	r1, fp, lsl lr
8780025c:	17100612 			; <UNDEFINED> instruction: 0x17100612
87800260:	24020000 	strcs	r0, [r2], #-0
87800264:	3e0b0b00 	vmlacc.f64	d0, d11, d0
87800268:	000e030b 	andeq	r0, lr, fp, lsl #6
8780026c:	00240300 	eoreq	r0, r4, r0, lsl #6
87800270:	0b3e0b0b 	bleq	88782ea4 <__bss_end+0xf8263c>
87800274:	00000803 	andeq	r0, r0, r3, lsl #16
87800278:	3f012e04 	svccc	0x00012e04
8780027c:	3a0e0319 	bcc	87b80ee8 <__bss_end+0x380680>
87800280:	270b3b0b 	strcs	r3, [fp, -fp, lsl #22]
87800284:	12011119 	andne	r1, r1, #1073741830	; 0x40000006
87800288:	97184006 	ldrls	r4, [r8, -r6]
8780028c:	13011942 	movwne	r1, #6466	; 0x1942
87800290:	05050000 	streq	r0, [r5, #-0]
87800294:	3a080300 	bcc	87a00e9c <__bss_end+0x200634>
87800298:	490b3b0b 	stmdbmi	fp, {r0, r1, r3, r8, r9, fp, ip, sp}
8780029c:	00180213 	andseq	r0, r8, r3, lsl r2
878002a0:	00340600 	eorseq	r0, r4, r0, lsl #12
878002a4:	0b3a0803 	bleq	886822b8 <__bss_end+0xe81a50>
878002a8:	13490b3b 	movtne	r0, #39739	; 0x9b3b
878002ac:	00001802 	andeq	r1, r0, r2, lsl #16
878002b0:	3f012e07 	svccc	0x00012e07
878002b4:	3a0e0319 	bcc	87b80f20 <__bss_end+0x3806b8>
878002b8:	270b3b0b 	strcs	r3, [fp, -fp, lsl #22]
878002bc:	11134919 	tstne	r3, r9, lsl r9
878002c0:	40061201 	andmi	r1, r6, r1, lsl #4
878002c4:	19429618 	stmdbne	r2, {r3, r4, r9, sl, ip, pc}^
878002c8:	00001301 	andeq	r1, r0, r1, lsl #6
878002cc:	03000508 	movweq	r0, #1288	; 0x508
878002d0:	3b0b3a0e 	blcc	87aceb10 <__bss_end+0x2ce2a8>
878002d4:	0213490b 	andseq	r4, r3, #180224	; 0x2c000
878002d8:	09000018 	stmdbeq	r0, {r3, r4}
878002dc:	0b0b000f 	bleq	87ac0320 <__bss_end+0x2bfab8>
878002e0:	00001349 	andeq	r1, r0, r9, asr #6
878002e4:	00001c00 	andeq	r1, r0, r0, lsl #24
878002e8:	80000200 	andhi	r0, r0, r0, lsl #4
878002ec:	04878001 	streq	r8, [r7], #1
878002f0:	00000000 	andeq	r0, r0, r0
878002f4:	80011000 	andhi	r1, r1, r0
878002f8:	00007087 	andeq	r7, r0, r7, lsl #1
	...
87800304:	00006a00 	andeq	r6, r0, r0, lsl #20
87800308:	1d000200 	sfmne	f0, 4, [r0, #-0]
8780030c:	02000000 	andeq	r0, r0, #0
87800310:	0d0efb01 	vstreq	d15, [lr, #-4]
87800314:	01010100 	mrseq	r0, (UNDEF: 17)
87800318:	00000001 	andeq	r0, r0, r1
8780031c:	01000001 	tsteq	r0, r1
87800320:	73657400 	cmnvc	r5, #0, 8
87800324:	00632e74 	rsbeq	r2, r3, r4, ror lr
87800328:	00000000 	andeq	r0, r0, r0
8780032c:	10020500 	andne	r0, r2, r0, lsl #10
87800330:	03878001 	orreq	r8, r7, #1
87800334:	2f4b010e 	svccs	0x004b010e
87800338:	04020022 	streq	r0, [r2], #-34	; 0x22
8780033c:	003c0603 	eorseq	r0, ip, r3, lsl #12
87800340:	3c010402 	cfstrscc	mvf0, [r1], {2}
87800344:	5b5c5606 	blpl	88f15b64 <__bss_end+0x17152fc>
87800348:	002f2f59 	eoreq	r2, pc, r9, asr pc	; <UNPREDICTABLE>
8780034c:	32010402 	andcc	r0, r1, #33554432	; 0x2000000
87800350:	01040200 	mrseq	r0, R12_usr
87800354:	0402002f 	streq	r0, [r2], #-47	; 0x2f
87800358:	02002f01 	andeq	r2, r0, #1, 30
8780035c:	004c0104 	subeq	r0, ip, r4, lsl #2
87800360:	2f010402 	svccs	0x00010402
87800364:	01040200 	mrseq	r0, R12_usr
87800368:	0402002f 	streq	r0, [r2], #-47	; 0x2f
8780036c:	01024b01 	tsteq	r2, r1, lsl #22
87800370:	6d010100 	stfvss	f0, [r1, #-0]
87800374:	006e6961 	rsbeq	r6, lr, r1, ror #18
87800378:	5f707362 	svcpl	0x00707362
8780037c:	5f6b6c63 	svcpl	0x006b6c63
87800380:	656c736d 	strbvs	r7, [ip, #-877]!	; 0x36d
87800384:	47007065 	strmi	r7, [r0, -r5, rrx]
87800388:	4320554e 	teqmi	r0, #327155712	; 0x13800000
8780038c:	392e3420 	stmdbcc	lr!, {r5, sl, ip, sp}
87800390:	2d20342e 	cfstrscs	mvf3, [r0, #-184]!	; 0xffffff48
87800394:	6372616d 	cmnvs	r2, #1073741851	; 0x4000001b
87800398:	72613d68 	rsbvc	r3, r1, #104, 26	; 0x1a00
8780039c:	2d37766d 	ldccs	6, cr7, [r7, #-436]!	; 0xfffffe4c
878003a0:	6d2d2061 	stcvs	0, cr2, [sp, #-388]!	; 0xfffffe7c
878003a4:	656e7574 	strbvs	r7, [lr, #-1396]!	; 0x574
878003a8:	726f633d 	rsbvc	r6, pc, #-201326592	; 0xf4000000
878003ac:	2d786574 	cfldr64cs	mvdx6, [r8, #-464]!	; 0xfffffe30
878003b0:	2d203961 	stccs	9, cr3, [r0, #-388]!	; 0xfffffe7c
878003b4:	6f6c666d 	svcvs	0x006c666d
878003b8:	612d7461 	teqvs	sp, r1, ror #8
878003bc:	683d6962 	ldmdavs	sp!, {r1, r5, r6, r8, fp, sp, lr}
878003c0:	20647261 	rsbcs	r7, r4, r1, ror #4
878003c4:	70666d2d 	rsbvc	r6, r6, sp, lsr #26
878003c8:	66763d75 			; <UNDEFINED> instruction: 0x66763d75
878003cc:	2d337670 	ldccs	6, cr7, [r3, #-448]!	; 0xfffffe40
878003d0:	20363164 	eorscs	r3, r6, r4, ror #2
878003d4:	68746d2d 	ldmdavs	r4!, {r0, r2, r3, r5, r8, sl, fp, sp, lr}^
878003d8:	20626d75 	rsbcs	r6, r2, r5, ror sp
878003dc:	6c746d2d 	ldclvs	13, cr6, [r4], #-180	; 0xffffff4c
878003e0:	69642d73 	stmdbvs	r4!, {r0, r1, r4, r5, r6, r8, sl, fp, sp}^
878003e4:	63656c61 	cmnvs	r5, #24832	; 0x6100
878003e8:	6e673d74 	mcrvs	13, 3, r3, cr7, cr4, {3}
878003ec:	672d2075 			; <UNDEFINED> instruction: 0x672d2075
878003f0:	304f2d20 	subcc	r2, pc, r0, lsr #26
878003f4:	6e6f6c00 	cdpvs	12, 6, cr6, cr15, cr0, {0}
878003f8:	6f6c2067 	svcvs	0x006c2067
878003fc:	7520676e 	strvc	r6, [r0, #-1902]!	; 0x76e
87800400:	6769736e 	strbvs	r7, [r9, -lr, ror #6]!
87800404:	2064656e 	rsbcs	r6, r4, lr, ror #10
87800408:	00746e69 	rsbseq	r6, r4, r9, ror #28
8780040c:	6d6f682f 	stclvs	8, cr6, [pc, #-188]!	; 87800358 <main+0x210>
87800410:	79772f65 	ldmdbvc	r7!, {r0, r2, r5, r6, r8, r9, sl, fp, sp}^
87800414:	74412f7a 	strbvc	r2, [r1], #-3962	; 0xf7a
87800418:	492f6d6f 	stmdbmi	pc!, {r0, r1, r2, r3, r5, r6, r8, sl, fp, sp, lr}	; <UNPREDICTABLE>
8780041c:	5536584d 	ldrpl	r5, [r6, #-2125]!	; 0x84d
87800420:	422f4c4c 	eormi	r4, pc, #76, 24	; 0x4c00
87800424:	6472616f 	ldrbtvs	r6, [r2], #-367	; 0x16f
87800428:	6972445f 	ldmdbvs	r2!, {r0, r1, r2, r3, r4, r6, sl, lr}^
8780042c:	2f726576 	svccs	0x00726576
87800430:	74736574 	ldrbtvc	r6, [r3], #-1396	; 0x574
87800434:	6565622f 	strbvs	r6, [r5, #-559]!	; 0x22f
87800438:	65745f70 	ldrbvs	r5, [r4, #-3952]!	; 0xf70
8780043c:	75007473 	strvc	r7, [r0, #-1139]	; 0x473
87800440:	6769736e 	strbvs	r7, [r9, -lr, ror #6]!
87800444:	2064656e 	rsbcs	r6, r4, lr, ror #10
87800448:	72616863 	rsbvc	r6, r1, #6488064	; 0x630000
8780044c:	73657400 	cmnvc	r5, #0, 8
87800450:	00632e74 	rsbeq	r2, r3, r4, ror lr
87800454:	63677261 	cmnvs	r7, #268435462	; 0x10000006
87800458:	6f687300 	svcvs	0x00687300
8780045c:	75207472 	strvc	r7, [r0, #-1138]!	; 0x472
87800460:	6769736e 	strbvs	r7, [r9, -lr, ror #6]!
87800464:	2064656e 	rsbcs	r6, r4, lr, ror #10
87800468:	00746e69 	rsbseq	r6, r4, r9, ror #28
8780046c:	76677261 	strbtvc	r7, [r7], -r1, ror #4
87800470:	6f687300 	svcvs	0x00687300
87800474:	69207472 	stmdbvs	r0!, {r1, r4, r5, r6, sl, ip, sp, lr}
87800478:	7300746e 	movwvc	r7, #1134	; 0x46e
8780047c:	74657a69 	strbtvc	r7, [r5], #-2665	; 0xa69
87800480:	00657079 	rsbeq	r7, r5, r9, ror r0
87800484:	3a434347 	bcc	888d11a8 <__bss_end+0x10d0940>
87800488:	694c2820 	stmdbvs	ip, {r5, fp, sp}^
8780048c:	6f72616e 	svcvs	0x0072616e
87800490:	43434720 	movtmi	r4, #14112	; 0x3720
87800494:	392e3420 	stmdbcc	lr!, {r5, sl, ip, sp}
87800498:	3130322d 	teqcc	r0, sp, lsr #4
8780049c:	31302e37 	teqcc	r0, r7, lsr lr
878004a0:	2e342029 	cdpcs	0, 3, cr2, cr4, cr9, {1}
878004a4:	00342e39 	eorseq	r2, r4, r9, lsr lr
878004a8:	00003441 	andeq	r3, r0, r1, asr #8
878004ac:	61656100 	cmnvs	r5, r0, lsl #2
878004b0:	01006962 	tsteq	r0, r2, ror #18
878004b4:	0000002a 	andeq	r0, r0, sl, lsr #32
878004b8:	412d3705 	teqmi	sp, r5, lsl #14
878004bc:	070a0600 	streq	r0, [sl, -r0, lsl #12]
878004c0:	09010841 	stmdbeq	r1, {r0, r6, fp}
878004c4:	12040a02 	andne	r0, r4, #8192	; 0x2000
878004c8:	15011404 	strne	r1, [r1, #-1028]	; 0x404
878004cc:	18031701 	stmdane	r3, {r0, r8, r9, sl, ip}
878004d0:	1a011901 	bne	878468dc <__bss_end+0x46074>
878004d4:	1c031b02 	stcne	11, cr1, [r3], {2}
878004d8:	22061e01 	andcs	r1, r6, #1, 28
878004dc:	00000001 	andeq	r0, r0, r1
878004e0:	0000000c 	andeq	r0, r0, ip
878004e4:	ffffffff 			; <UNDEFINED> instruction: 0xffffffff
878004e8:	7c020001 	stcvc	0, cr0, [r2], {1}
878004ec:	000d0c0e 	andeq	r0, sp, lr, lsl #24
878004f0:	00000024 	andeq	r0, r0, r4, lsr #32
878004f4:	878004e0 	strhi	r0, [r0, r0, ror #9]
878004f8:	87800110 	usada8hi	r0, r0, r1, r0
878004fc:	00000038 	andeq	r0, r0, r8, lsr r0
87800500:	87040e41 	strhi	r0, [r4, -r1, asr #28]
87800504:	180e4101 	stmdane	lr, {r0, r8, lr}
87800508:	55070d41 	strpl	r0, [r7, #-3393]	; 0xd41
8780050c:	0d41040e 	cfstrdeq	mvd0, [r1, #-56]	; 0xffffffc8
87800510:	0ec7420d 	cdpeq	2, 12, cr4, cr7, cr13, {0}
87800514:	00000000 	andeq	r0, r0, r0
87800518:	0000001c 	andeq	r0, r0, ip, lsl r0
8780051c:	878004e0 	strhi	r0, [r0, r0, ror #9]
87800520:	87800148 	strhi	r0, [r0, r8, asr #2]
87800524:	00000038 	andeq	r0, r0, r8, lsr r0
87800528:	87080e41 	strhi	r0, [r8, -r1, asr #28]
8780052c:	41018e02 	tstmi	r1, r2, lsl #28
87800530:	0d41100e 	stcleq	0, cr1, [r1, #-56]	; 0xffffffc8
87800534:	00000007 	andeq	r0, r0, r7

87800538 <beep_init>:
87800538:	210c      	movs	r1, #12
8780053a:	2250      	movs	r2, #80	; 0x50
8780053c:	b530      	push	{r4, r5, lr}
8780053e:	2301      	movs	r3, #1
87800540:	b085      	sub	sp, #20
87800542:	f2c0 2129 	movt	r1, #553	; 0x229
87800546:	2505      	movs	r5, #5
87800548:	f2c0 2229 	movt	r2, #553	; 0x229
8780054c:	f241 04b0 	movw	r4, #4272	; 0x10b0
87800550:	f44f 4040 	mov.w	r0, #49152	; 0xc000
87800554:	600d      	str	r5, [r1, #0]
87800556:	f2c0 200a 	movt	r0, #522	; 0x20a
8780055a:	6014      	str	r4, [r2, #0]
8780055c:	4619      	mov	r1, r3
8780055e:	2400      	movs	r4, #0
87800560:	aa01      	add	r2, sp, #4
87800562:	9301      	str	r3, [sp, #4]
87800564:	f88d 4008 	strb.w	r4, [sp, #8]
87800568:	f000 f8ac 	bl	878006c4 <gpio_init>
8780056c:	b005      	add	sp, #20
8780056e:	bd30      	pop	{r4, r5, pc}

87800570 <beep_on>:
87800570:	f44f 4040 	mov.w	r0, #49152	; 0xc000
87800574:	2200      	movs	r2, #0
87800576:	f2c0 200a 	movt	r0, #522	; 0x20a
8780057a:	2101      	movs	r1, #1
8780057c:	f000 b8c6 	b.w	8780070c <gpio_pinwrite>

87800580 <beep_off>:
87800580:	2201      	movs	r2, #1
87800582:	f44f 4040 	mov.w	r0, #49152	; 0xc000
87800586:	4611      	mov	r1, r2
87800588:	f2c0 200a 	movt	r0, #522	; 0x20a
8780058c:	f000 b8be 	b.w	8780070c <gpio_pinwrite>

87800590 <beep_switch>:
87800590:	2801      	cmp	r0, #1
87800592:	4601      	mov	r1, r0
87800594:	d009      	beq.n	878005aa <beep_switch+0x1a>
87800596:	b100      	cbz	r0, 8780059a <beep_switch+0xa>
87800598:	4770      	bx	lr
8780059a:	2201      	movs	r2, #1
8780059c:	f44f 4040 	mov.w	r0, #49152	; 0xc000
878005a0:	4611      	mov	r1, r2
878005a2:	f2c0 200a 	movt	r0, #522	; 0x20a
878005a6:	f000 b8b1 	b.w	8780070c <gpio_pinwrite>
878005aa:	f44f 4040 	mov.w	r0, #49152	; 0xc000
878005ae:	2200      	movs	r2, #0
878005b0:	f2c0 200a 	movt	r0, #522	; 0x20a
878005b4:	f000 b8aa 	b.w	8780070c <gpio_pinwrite>

878005b8 <all_clk_enable>:
878005b8:	f244 0168 	movw	r1, #16488	; 0x4068
878005bc:	f244 026c 	movw	r2, #16492	; 0x406c
878005c0:	f04f 33ff 	mov.w	r3, #4294967295	; 0xffffffff
878005c4:	f2c0 210c 	movt	r1, #524	; 0x20c
878005c8:	f2c0 220c 	movt	r2, #524	; 0x20c
878005cc:	b430      	push	{r4, r5}
878005ce:	f244 0078 	movw	r0, #16504	; 0x4078
878005d2:	600b      	str	r3, [r1, #0]
878005d4:	f244 0570 	movw	r5, #16496	; 0x4070
878005d8:	f244 0474 	movw	r4, #16500	; 0x4074
878005dc:	6013      	str	r3, [r2, #0]
878005de:	f244 017c 	movw	r1, #16508	; 0x407c
878005e2:	f44f 4281 	mov.w	r2, #16512	; 0x4080
878005e6:	f2c0 250c 	movt	r5, #524	; 0x20c
878005ea:	f2c0 240c 	movt	r4, #524	; 0x20c
878005ee:	f2c0 200c 	movt	r0, #524	; 0x20c
878005f2:	f2c0 210c 	movt	r1, #524	; 0x20c
878005f6:	f2c0 220c 	movt	r2, #524	; 0x20c
878005fa:	602b      	str	r3, [r5, #0]
878005fc:	6023      	str	r3, [r4, #0]
878005fe:	6003      	str	r3, [r0, #0]
87800600:	600b      	str	r3, [r1, #0]
87800602:	6013      	str	r3, [r2, #0]
87800604:	bc30      	pop	{r4, r5}
87800606:	4770      	bx	lr

87800608 <imx6ull_sclinit>:
87800608:	f244 020c 	movw	r2, #16396	; 0x400c
8780060c:	b430      	push	{r4, r5}
8780060e:	f2c0 220c 	movt	r2, #524	; 0x20c
87800612:	f244 000c 	movw	r0, #16396	; 0x400c
87800616:	f242 0442 	movw	r4, #8258	; 0x2042
8780061a:	f2c0 200c 	movt	r0, #524	; 0x20c
8780061e:	6813      	ldr	r3, [r2, #0]
87800620:	2501      	movs	r5, #1
87800622:	b2db      	uxtb	r3, r3
87800624:	0759      	lsls	r1, r3, #29
87800626:	f44f 4100 	mov.w	r1, #32768	; 0x8000
8780062a:	bf58      	it	pl
8780062c:	f043 0304 	orrpl.w	r3, r3, #4
87800630:	f2c0 210c 	movt	r1, #524	; 0x20c
87800634:	bf58      	it	pl
87800636:	6013      	strpl	r3, [r2, #0]
87800638:	f244 0210 	movw	r2, #16400	; 0x4010
8780063c:	f003 03fb 	and.w	r3, r3, #251	; 0xfb
87800640:	f2c0 220c 	movt	r2, #524	; 0x20c
87800644:	600c      	str	r4, [r1, #0]
87800646:	f241 041b 	movw	r4, #4123	; 0x101b
8780064a:	6003      	str	r3, [r0, #0]
8780064c:	f2c2 0418 	movt	r4, #8216	; 0x2018
87800650:	6015      	str	r5, [r2, #0]
87800652:	f241 000c 	movw	r0, #4108	; 0x100c
87800656:	f8d1 5100 	ldr.w	r5, [r1, #256]	; 0x100
8780065a:	f2c1 3011 	movt	r0, #4881	; 0x1311
8780065e:	f44f 4280 	mov.w	r2, #16384	; 0x4000
87800662:	f2c0 220c 	movt	r2, #524	; 0x20c
87800666:	f005 35c0 	and.w	r5, r5, #3233857728	; 0xc0c0c0c0
8780066a:	4613      	mov	r3, r2
8780066c:	432c      	orrs	r4, r5
8780066e:	f8c1 4100 	str.w	r4, [r1, #256]	; 0x100
87800672:	f8d1 40f0 	ldr.w	r4, [r1, #240]	; 0xf0
87800676:	f004 34c0 	and.w	r4, r4, #3233857728	; 0xc0c0c0c0
8780067a:	4320      	orrs	r0, r4
8780067c:	f8c1 00f0 	str.w	r0, [r1, #240]	; 0xf0
87800680:	6991      	ldr	r1, [r2, #24]
87800682:	f421 2140 	bic.w	r1, r1, #786432	; 0xc0000
87800686:	6191      	str	r1, [r2, #24]
87800688:	6991      	ldr	r1, [r2, #24]
8780068a:	f441 2180 	orr.w	r1, r1, #262144	; 0x40000
8780068e:	6191      	str	r1, [r2, #24]
87800690:	6951      	ldr	r1, [r2, #20]
87800692:	f021 7100 	bic.w	r1, r1, #33554432	; 0x2000000
87800696:	6151      	str	r1, [r2, #20]
87800698:	6c9a      	ldr	r2, [r3, #72]	; 0x48
8780069a:	0692      	lsls	r2, r2, #26
8780069c:	d4fc      	bmi.n	87800698 <imx6ull_sclinit+0x90>
8780069e:	695a      	ldr	r2, [r3, #20]
878006a0:	f422 7240 	bic.w	r2, r2, #768	; 0x300
878006a4:	615a      	str	r2, [r3, #20]
878006a6:	695a      	ldr	r2, [r3, #20]
878006a8:	f442 7280 	orr.w	r2, r2, #256	; 0x100
878006ac:	615a      	str	r2, [r3, #20]
878006ae:	69da      	ldr	r2, [r3, #28]
878006b0:	f022 0240 	bic.w	r2, r2, #64	; 0x40
878006b4:	61da      	str	r2, [r3, #28]
878006b6:	69da      	ldr	r2, [r3, #28]
878006b8:	f022 0207 	bic.w	r2, r2, #7
878006bc:	61da      	str	r2, [r3, #28]
878006be:	bc30      	pop	{r4, r5}
878006c0:	4770      	bx	lr
878006c2:	bf00      	nop

878006c4 <gpio_init>:
878006c4:	b410      	push	{r4}
878006c6:	2301      	movs	r3, #1
878006c8:	6814      	ldr	r4, [r2, #0]
878006ca:	fa03 f101 	lsl.w	r1, r3, r1
878006ce:	6843      	ldr	r3, [r0, #4]
878006d0:	b14c      	cbz	r4, 878006e6 <gpio_init+0x22>
878006d2:	430b      	orrs	r3, r1
878006d4:	6043      	str	r3, [r0, #4]
878006d6:	7913      	ldrb	r3, [r2, #4]
878006d8:	b15b      	cbz	r3, 878006f2 <gpio_init+0x2e>
878006da:	6803      	ldr	r3, [r0, #0]
878006dc:	f85d 4b04 	ldr.w	r4, [sp], #4
878006e0:	4319      	orrs	r1, r3
878006e2:	6001      	str	r1, [r0, #0]
878006e4:	4770      	bx	lr
878006e6:	ea23 0101 	bic.w	r1, r3, r1
878006ea:	f85d 4b04 	ldr.w	r4, [sp], #4
878006ee:	6041      	str	r1, [r0, #4]
878006f0:	4770      	bx	lr
878006f2:	6803      	ldr	r3, [r0, #0]
878006f4:	f85d 4b04 	ldr.w	r4, [sp], #4
878006f8:	ea23 0101 	bic.w	r1, r3, r1
878006fc:	6001      	str	r1, [r0, #0]
878006fe:	4770      	bx	lr

87800700 <gpio_pinread>:
87800700:	6800      	ldr	r0, [r0, #0]
87800702:	40c8      	lsrs	r0, r1
87800704:	f000 0001 	and.w	r0, r0, #1
87800708:	4770      	bx	lr
8780070a:	bf00      	nop

8780070c <gpio_pinwrite>:
8780070c:	2301      	movs	r3, #1
8780070e:	fa03 f101 	lsl.w	r1, r3, r1
87800712:	6803      	ldr	r3, [r0, #0]
87800714:	b112      	cbz	r2, 8780071c <gpio_pinwrite+0x10>
87800716:	4319      	orrs	r1, r3
87800718:	6001      	str	r1, [r0, #0]
8780071a:	4770      	bx	lr
8780071c:	ea23 0101 	bic.w	r1, r3, r1
87800720:	6001      	str	r1, [r0, #0]
87800722:	4770      	bx	lr

87800724 <gpio_int_init>:
87800724:	b470      	push	{r4, r5, r6}
87800726:	2301      	movs	r3, #1
87800728:	69c4      	ldr	r4, [r0, #28]
8780072a:	408b      	lsls	r3, r1
8780072c:	290f      	cmp	r1, #15
8780072e:	f102 32ff 	add.w	r2, r2, #4294967295	; 0xffffffff
87800732:	bf98      	it	ls
87800734:	f100 050c 	addls.w	r5, r0, #12
87800738:	ea24 0403 	bic.w	r4, r4, r3
8780073c:	bf88      	it	hi
8780073e:	3910      	subhi	r1, #16
87800740:	61c4      	str	r4, [r0, #28]
87800742:	bf8a      	itet	hi
87800744:	f100 0510 	addhi.w	r5, r0, #16
87800748:	68c6      	ldrls	r6, [r0, #12]
8780074a:	6906      	ldrhi	r6, [r0, #16]
8780074c:	2a04      	cmp	r2, #4
8780074e:	d80e      	bhi.n	8780076e <gpio_int_init+0x4a>
87800750:	e8df f002 	tbb	[pc, r2]
87800754:	201c0313 	andscs	r0, ip, r3, lsl r3
87800758:	0049000f 	subeq	r0, r9, pc
8780075c:	2203      	movs	r2, #3
8780075e:	2301      	movs	r3, #1
87800760:	408a      	lsls	r2, r1
87800762:	fa03 f101 	lsl.w	r1, r3, r1
87800766:	ea61 0102 	orn	r1, r1, r2
8780076a:	400e      	ands	r6, r1
8780076c:	602e      	str	r6, [r5, #0]
8780076e:	bc70      	pop	{r4, r5, r6}
87800770:	4770      	bx	lr
87800772:	4323      	orrs	r3, r4
87800774:	bc70      	pop	{r4, r5, r6}
87800776:	61c3      	str	r3, [r0, #28]
87800778:	4770      	bx	lr
8780077a:	0049      	lsls	r1, r1, #1
8780077c:	2303      	movs	r3, #3
8780077e:	fa03 f101 	lsl.w	r1, r3, r1
87800782:	ea26 0601 	bic.w	r6, r6, r1
87800786:	602e      	str	r6, [r5, #0]
87800788:	bc70      	pop	{r4, r5, r6}
8780078a:	4770      	bx	lr
8780078c:	0049      	lsls	r1, r1, #1
8780078e:	2203      	movs	r2, #3
87800790:	2302      	movs	r3, #2
87800792:	e7e5      	b.n	87800760 <gpio_int_init+0x3c>
87800794:	0049      	lsls	r1, r1, #1
87800796:	2303      	movs	r3, #3
87800798:	fa03 f101 	lsl.w	r1, r3, r1
8780079c:	430e      	orrs	r6, r1
8780079e:	602e      	str	r6, [r5, #0]
878007a0:	bc70      	pop	{r4, r5, r6}
878007a2:	4770      	bx	lr

878007a4 <gpio_int_enable>:
878007a4:	6942      	ldr	r2, [r0, #20]
878007a6:	2301      	movs	r3, #1
878007a8:	fa03 f101 	lsl.w	r1, r3, r1
878007ac:	4211      	tst	r1, r2
878007ae:	bf04      	itt	eq
878007b0:	4311      	orreq	r1, r2
878007b2:	6141      	streq	r1, [r0, #20]
878007b4:	4770      	bx	lr
878007b6:	bf00      	nop

878007b8 <gpio_int_disable>:
878007b8:	6943      	ldr	r3, [r0, #20]
878007ba:	2201      	movs	r2, #1
878007bc:	fa02 f101 	lsl.w	r1, r2, r1
878007c0:	ea23 0301 	bic.w	r3, r3, r1
878007c4:	6143      	str	r3, [r0, #20]
878007c6:	4770      	bx	lr

878007c8 <gpio_int_clear>:
878007c8:	6982      	ldr	r2, [r0, #24]
878007ca:	2301      	movs	r3, #1
878007cc:	fa03 f101 	lsl.w	r1, r3, r1
878007d0:	4211      	tst	r1, r2
878007d2:	bf04      	itt	eq
878007d4:	4311      	orreq	r1, r2
878007d6:	6181      	streq	r1, [r0, #24]
878007d8:	4770      	bx	lr
878007da:	bf00      	nop

878007dc <bsp_led_init>:
878007dc:	2268      	movs	r2, #104	; 0x68
878007de:	f44f 733d 	mov.w	r3, #756	; 0x2f4
878007e2:	b510      	push	{r4, lr}
878007e4:	f2c0 220e 	movt	r2, #526	; 0x20e
878007e8:	b084      	sub	sp, #16
878007ea:	2405      	movs	r4, #5
878007ec:	f2c0 230e 	movt	r3, #526	; 0x20e
878007f0:	f241 01b0 	movw	r1, #4272	; 0x10b0
878007f4:	f44f 4040 	mov.w	r0, #49152	; 0xc000
878007f8:	6014      	str	r4, [r2, #0]
878007fa:	f2c0 2009 	movt	r0, #521	; 0x209
878007fe:	6019      	str	r1, [r3, #0]
87800800:	aa01      	add	r2, sp, #4
87800802:	2301      	movs	r3, #1
87800804:	2103      	movs	r1, #3
87800806:	9301      	str	r3, [sp, #4]
87800808:	f88d 3008 	strb.w	r3, [sp, #8]
8780080c:	f7ff ff5a 	bl	878006c4 <gpio_init>
87800810:	b004      	add	sp, #16
87800812:	bd10      	pop	{r4, pc}

87800814 <bsp_led_on>:
87800814:	f44f 4040 	mov.w	r0, #49152	; 0xc000
87800818:	2200      	movs	r2, #0
8780081a:	f2c0 2009 	movt	r0, #521	; 0x209
8780081e:	2103      	movs	r1, #3
87800820:	f7ff bf74 	b.w	8780070c <gpio_pinwrite>

87800824 <bsp_led_off>:
87800824:	f44f 4040 	mov.w	r0, #49152	; 0xc000
87800828:	2201      	movs	r2, #1
8780082a:	f2c0 2009 	movt	r0, #521	; 0x209
8780082e:	2103      	movs	r1, #3
87800830:	f7ff bf6c 	b.w	8780070c <gpio_pinwrite>

87800834 <bsp_led_switch>:
87800834:	2801      	cmp	r0, #1
87800836:	d009      	beq.n	8780084c <bsp_led_switch+0x18>
87800838:	b100      	cbz	r0, 8780083c <bsp_led_switch+0x8>
8780083a:	4770      	bx	lr
8780083c:	f44f 4040 	mov.w	r0, #49152	; 0xc000
87800840:	2201      	movs	r2, #1
87800842:	f2c0 2009 	movt	r0, #521	; 0x209
87800846:	2103      	movs	r1, #3
87800848:	f7ff bf60 	b.w	8780070c <gpio_pinwrite>
8780084c:	f44f 4040 	mov.w	r0, #49152	; 0xc000
87800850:	2200      	movs	r2, #0
87800852:	f2c0 2009 	movt	r0, #521	; 0x209
87800856:	2103      	movs	r1, #3
87800858:	f7ff bf58 	b.w	8780070c <gpio_pinwrite>
8780085c:	0000      	movs	r0, r0
	...

87800860 <__main_from_arm>:
87800860:	e51ff004 	ldr	pc, [pc, #-4]	; 87800864 <__main_from_arm+0x4>
87800864:	87800149 	strhi	r0, [r0, r9, asr #2]

