
/home/wyz/Atom/IMX6ULL/Board_Driver/test/keyint_test/build/keyint_test.elf:     file format elf32-littlearm


Disassembly of section .text:

87800000 <_start>:
87800000:	e59ff100 	ldr	pc, [pc, #256]	; 87800108 <FIQ_Handler+0x8>
87800004:	e59ff100 	ldr	pc, [pc, #256]	; 8780010c <FIQ_Handler+0xc>
87800008:	e59ff100 	ldr	pc, [pc, #256]	; 87800110 <FIQ_Handler+0x10>
8780000c:	e59ff100 	ldr	pc, [pc, #256]	; 87800114 <FIQ_Handler+0x14>
87800010:	e59ff100 	ldr	pc, [pc, #256]	; 87800118 <FIQ_Handler+0x18>
87800014:	e59ff100 	ldr	pc, [pc, #256]	; 8780011c <FIQ_Handler+0x1c>
87800018:	e59ff100 	ldr	pc, [pc, #256]	; 87800120 <FIQ_Handler+0x20>
8780001c:	e59ff100 	ldr	pc, [pc, #256]	; 87800124 <FIQ_Handler+0x24>

87800020 <Reset_Handler>:
87800020:	f10c0080 	cpsid	i
87800024:	ee110f10 	mrc	15, 0, r0, cr1, cr0, {0}
87800028:	e3c00a01 	bic	r0, r0, #4096	; 0x1000
8780002c:	e3c00004 	bic	r0, r0, #4
87800030:	e3c00002 	bic	r0, r0, #2
87800034:	e3c00b02 	bic	r0, r0, #2048	; 0x800
87800038:	e3c00001 	bic	r0, r0, #1
8780003c:	ee010f10 	mcr	15, 0, r0, cr1, cr0, {0}
87800040:	e10f0000 	mrs	r0, CPSR
87800044:	e3c0001f 	bic	r0, r0, #31
87800048:	e3800012 	orr	r0, r0, #18
8780004c:	e129f000 	msr	CPSR_fc, r0
87800050:	e59fd0d0 	ldr	sp, [pc, #208]	; 87800128 <FIQ_Handler+0x28>
87800054:	e10f0000 	mrs	r0, CPSR
87800058:	e3c0001f 	bic	r0, r0, #31
8780005c:	e380001f 	orr	r0, r0, #31
87800060:	e129f000 	msr	CPSR_fc, r0
87800064:	e59fd0c0 	ldr	sp, [pc, #192]	; 8780012c <FIQ_Handler+0x2c>
87800068:	e10f0000 	mrs	r0, CPSR
8780006c:	e3c0001f 	bic	r0, r0, #31
87800070:	e3800013 	orr	r0, r0, #19
87800074:	e129f000 	msr	CPSR_fc, r0
87800078:	e59fd0b0 	ldr	sp, [pc, #176]	; 87800130 <FIQ_Handler+0x30>
8780007c:	f1080080 	cpsie	i
87800080:	ea000a8c 	b	87802ab8 <__main_from_arm>

87800084 <Undefined_Handler>:
87800084:	e59f0080 	ldr	r0, [pc, #128]	; 8780010c <FIQ_Handler+0xc>
87800088:	e12fff10 	bx	r0

8780008c <SVC_Handler>:
8780008c:	e59f007c 	ldr	r0, [pc, #124]	; 87800110 <FIQ_Handler+0x10>
87800090:	e12fff10 	bx	r0

87800094 <PrefAbort_Handler>:
87800094:	e59f0078 	ldr	r0, [pc, #120]	; 87800114 <FIQ_Handler+0x14>
87800098:	e12fff10 	bx	r0

8780009c <DataAbort_Handler>:
8780009c:	e59f0074 	ldr	r0, [pc, #116]	; 87800118 <FIQ_Handler+0x18>
878000a0:	e12fff10 	bx	r0

878000a4 <NotUsed_Handler>:
878000a4:	e59f0070 	ldr	r0, [pc, #112]	; 8780011c <FIQ_Handler+0x1c>
878000a8:	e12fff10 	bx	r0

878000ac <IRQ_Handler>:
878000ac:	e52de004 	push	{lr}		; (str lr, [sp, #-4]!)
878000b0:	e92d100f 	push	{r0, r1, r2, r3, ip}
878000b4:	e14f0000 	mrs	r0, SPSR
878000b8:	e52d0004 	push	{r0}		; (str r0, [sp, #-4]!)
878000bc:	ee9f1f10 	mrc	15, 4, r1, cr15, cr0, {0}
878000c0:	e2811a02 	add	r1, r1, #8192	; 0x2000
878000c4:	e591000c 	ldr	r0, [r1, #12]
878000c8:	e92d0003 	push	{r0, r1}
878000cc:	f1020013 	cps	#19
878000d0:	e52de004 	push	{lr}		; (str lr, [sp, #-4]!)
878000d4:	e59f2058 	ldr	r2, [pc, #88]	; 87800134 <FIQ_Handler+0x34>
878000d8:	e12fff32 	blx	r2
878000dc:	e49de004 	pop	{lr}		; (ldr lr, [sp], #4)
878000e0:	f1020012 	cps	#18
878000e4:	e8bd0003 	pop	{r0, r1}
878000e8:	e5810010 	str	r0, [r1, #16]
878000ec:	e49d0004 	pop	{r0}		; (ldr r0, [sp], #4)
878000f0:	e16ff000 	msr	SPSR_fsxc, r0
878000f4:	e8bd100f 	pop	{r0, r1, r2, r3, ip}
878000f8:	e49de004 	pop	{lr}		; (ldr lr, [sp], #4)
878000fc:	e25ef004 	subs	pc, lr, #4

87800100 <FIQ_Handler>:
87800100:	e59f001c 	ldr	r0, [pc, #28]	; 87800124 <FIQ_Handler+0x24>
87800104:	e12fff10 	bx	r0
87800108:	87800020 	strhi	r0, [r0, r0, lsr #32]
8780010c:	87800084 	strhi	r0, [r0, r4, lsl #1]
87800110:	8780008c 	strhi	r0, [r0, ip, lsl #1]
87800114:	87800094 			; <UNDEFINED> instruction: 0x87800094
87800118:	8780009c 			; <UNDEFINED> instruction: 0x8780009c
8780011c:	878000a4 	strhi	r0, [r0, r4, lsr #1]
87800120:	878000ac 	strhi	r0, [r0, ip, lsr #1]
87800124:	87800100 	strhi	r0, [r0, r0, lsl #2]
87800128:	80600000 	rsbhi	r0, r0, r0
8780012c:	80400000 	subhi	r0, r0, r0
87800130:	80200000 	eorhi	r0, r0, r0
87800134:	87800c25 	strhi	r0, [r0, r5, lsr #24]
87800138:	00001e41 	andeq	r1, r0, r1, asr #28
8780013c:	61656100 	cmnvs	r5, r0, lsl #2
87800140:	01006962 	tsteq	r0, r2, ror #18
87800144:	00000014 	andeq	r0, r0, r4, lsl r0
87800148:	412d3705 	teqmi	sp, r5, lsl #14
8780014c:	070a0600 	streq	r0, [sl, -r0, lsl #12]
87800150:	09010841 	stmdbeq	r1, {r0, r6, fp}
87800154:	89040a02 	stmdbhi	r4, {r1, r9, fp}
87800158:	02000000 	andeq	r0, r0, #0
8780015c:	00001e00 	andeq	r1, r0, r0, lsl #28
87800160:	fb010200 	blx	8784096a <__bss_end+0x3d876>
87800164:	01000d0e 	tsteq	r0, lr, lsl #26
87800168:	00010101 	andeq	r0, r1, r1, lsl #2
8780016c:	00010000 	andeq	r0, r1, r0
87800170:	73000100 	movwvc	r0, #256	; 0x100
87800174:	74726174 	ldrbtvc	r6, [r2], #-372	; 0x174
87800178:	0000532e 	andeq	r5, r0, lr, lsr #6
8780017c:	00000000 	andeq	r0, r0, r0
87800180:	00000205 	andeq	r0, r0, r5, lsl #4
87800184:	11038780 	smlabbne	r3, r0, r7, r8
87800188:	2f2f2f01 	svccs	0x002f2f01
8780018c:	2f2f2f2f 	svccs	0x002f2f2f
87800190:	2f2f3333 	svccs	0x002f3333
87800194:	2f2f2f2f 	svccs	0x002f2f2f
87800198:	2f2e1403 	svccs	0x002e1403
8780019c:	312f2f2f 	teqcc	pc, pc, lsr #30
878001a0:	2f2f2f2f 	svccs	0x002f2f2f
878001a4:	2f2f2f31 	svccs	0x002f2f31
878001a8:	3236302f 	eorscc	r3, r6, #47	; 0x2f
878001ac:	322f322f 	eorcc	r3, pc, #-268435454	; 0xf0000002
878001b0:	332f322f 	teqcc	pc, #-268435454	; 0xf0000002
878001b4:	302f322f 	eorcc	r3, pc, pc, lsr #4
878001b8:	2f32302f 	svccs	0x0032302f
878001bc:	2f303032 	svccs	0x00303032
878001c0:	2f2f302f 	svccs	0x002f302f
878001c4:	302f302f 	eorcc	r3, pc, pc, lsr #32
878001c8:	2f352f2f 	svccs	0x00352f2f
878001cc:	2e7ef203 	cdpcs	2, 7, cr15, cr14, cr3, {0}
878001d0:	2f2f2f2f 	svccs	0x002f2f2f
878001d4:	032f2f2f 	teqeq	pc, #47, 30	; 0xbc
878001d8:	35352e28 	ldrcc	r2, [r5, #-3624]!	; 0xe28
878001dc:	022e3c03 	eoreq	r3, lr, #768	; 0x300
878001e0:	01010002 	tsteq	r1, r2
878001e4:	00000061 	andeq	r0, r0, r1, rrx
878001e8:	02490002 	subeq	r0, r9, #2
878001ec:	01048780 	smlabbeq	r4, r0, r7, r8
878001f0:	87800157 			; <UNDEFINED> instruction: 0x87800157
878001f4:	87800000 	strhi	r0, [r0, r0]
878001f8:	87800138 			; <UNDEFINED> instruction: 0x87800138
878001fc:	72617473 	rsbvc	r7, r1, #1929379840	; 0x73000000
87800200:	00532e74 	subseq	r2, r3, r4, ror lr
87800204:	6d6f682f 	stclvs	8, cr6, [pc, #-188]!	; 87800150 <FIQ_Handler+0x50>
87800208:	79772f65 	ldmdbvc	r7!, {r0, r2, r5, r6, r8, r9, sl, fp, sp}^
8780020c:	74412f7a 	strbvc	r2, [r1], #-3962	; 0xf7a
87800210:	492f6d6f 	stmdbmi	pc!, {r0, r1, r2, r3, r5, r6, r8, sl, fp, sp, lr}	; <UNPREDICTABLE>
87800214:	5536584d 	ldrpl	r5, [r6, #-2125]!	; 0x84d
87800218:	422f4c4c 	eormi	r4, pc, #76, 24	; 0x4c00
8780021c:	6472616f 	ldrbtvs	r6, [r2], #-367	; 0x16f
87800220:	6972445f 	ldmdbvs	r2!, {r0, r1, r2, r3, r4, r6, sl, lr}^
87800224:	2f726576 	svccs	0x00726576
87800228:	74736574 	ldrbtvc	r6, [r3], #-1396	; 0x574
8780022c:	79656b2f 	stmdbvc	r5!, {r0, r1, r2, r3, r5, r8, r9, fp, sp, lr}^
87800230:	5f746e69 	svcpl	0x00746e69
87800234:	74736574 	ldrbtvc	r6, [r3], #-1396	; 0x574
87800238:	554e4700 	strbpl	r4, [lr, #-1792]	; 0x700
8780023c:	20534120 	subscs	r4, r3, r0, lsr #2
87800240:	34322e32 	ldrtcc	r2, [r2], #-3634	; 0xe32
87800244:	0100302e 	tsteq	r0, lr, lsr #32
87800248:	00110180 	andseq	r0, r1, r0, lsl #3
8780024c:	01110610 	tsteq	r1, r0, lsl r6
87800250:	08030112 	stmdaeq	r3, {r1, r4, r8}
87800254:	0825081b 	stmdaeq	r5!, {r0, r1, r3, r4, fp}
87800258:	00000513 	andeq	r0, r0, r3, lsl r5
8780025c:	00000000 	andeq	r0, r0, r0
87800260:	0000001c 	andeq	r0, r0, ip, lsl r0
87800264:	01e40002 	mvneq	r0, r2
87800268:	00048780 	andeq	r8, r4, r0, lsl #15
8780026c:	00000000 	andeq	r0, r0, r0
87800270:	87800000 	strhi	r0, [r0, r0]
87800274:	00000138 	andeq	r0, r0, r8, lsr r1
	...

87800280 <key_irq_handler>:
87800280:	b580      	push	{r7, lr}
87800282:	b084      	sub	sp, #16
87800284:	af00      	add	r7, sp, #0
87800286:	6078      	str	r0, [r7, #4]
87800288:	2300      	movs	r3, #0
8780028a:	60fb      	str	r3, [r7, #12]
8780028c:	2300      	movs	r3, #0
8780028e:	72fb      	strb	r3, [r7, #11]
87800290:	200a      	movs	r0, #10
87800292:	f000 fda3 	bl	87800ddc <delay_ms>
87800296:	f000 fd73 	bl	87800d80 <bsp_key_getvalue>
8780029a:	60f8      	str	r0, [r7, #12]
8780029c:	68fb      	ldr	r3, [r7, #12]
8780029e:	2b00      	cmp	r3, #0
878002a0:	d012      	beq.n	878002c8 <key_irq_handler+0x48>
878002a2:	7afb      	ldrb	r3, [r7, #11]
878002a4:	2b00      	cmp	r3, #0
878002a6:	bf0c      	ite	eq
878002a8:	2301      	moveq	r3, #1
878002aa:	2300      	movne	r3, #0
878002ac:	b2db      	uxtb	r3, r3
878002ae:	72fb      	strb	r3, [r7, #11]
878002b0:	7afb      	ldrb	r3, [r7, #11]
878002b2:	4618      	mov	r0, r3
878002b4:	f000 fb2c 	bl	87800910 <beep_switch>
878002b8:	f000 fcf4 	bl	87800ca4 <bsp_led_off>
878002bc:	f240 3010 	movw	r0, #784	; 0x310
878002c0:	f2c8 7080 	movt	r0, #34688	; 0x8780
878002c4:	f000 fe98 	bl	87800ff8 <log>
878002c8:	2112      	movs	r1, #18
878002ca:	f44f 4040 	mov.w	r0, #49152	; 0xc000
878002ce:	f2c0 2009 	movt	r0, #521	; 0x209
878002d2:	f000 fc39 	bl	87800b48 <gpio_int_clear>
878002d6:	3710      	adds	r7, #16
878002d8:	46bd      	mov	sp, r7
878002da:	bd80      	pop	{r7, pc}

878002dc <main>:
878002dc:	b580      	push	{r7, lr}
878002de:	b082      	sub	sp, #8
878002e0:	af00      	add	r7, sp, #0
878002e2:	6078      	str	r0, [r7, #4]
878002e4:	6039      	str	r1, [r7, #0]
878002e6:	f000 fb4f 	bl	87800988 <imx6ull_sclinit>
878002ea:	f000 fb25 	bl	87800938 <all_clk_enable>
878002ee:	f000 fcb5 	bl	87800c5c <bsp_led_init>
878002f2:	f000 fae1 	bl	878008b8 <beep_init>
878002f6:	f000 fcf1 	bl	87800cdc <bsp_key_init>
878002fa:	f000 fb01 	bl	87800900 <beep_off>
878002fe:	f000 fcc9 	bl	87800c94 <bsp_led_on>
87800302:	f240 2081 	movw	r0, #641	; 0x281
87800306:	f2c8 7080 	movt	r0, #34688	; 0x8780
8780030a:	f000 fd03 	bl	87800d14 <bsp_key_extint_request>
8780030e:	e7fe      	b.n	8780030e <main+0x32>

87800310 <.LC0>:
87800310:	2079656b 	rsbscs	r6, r9, fp, ror #10
87800314:	65746e69 	ldrbvs	r6, [r4, #-3689]!	; 0xe69
87800318:	70757272 	rsbsvc	r7, r5, r2, ror r2
8780031c:	00000a74 	andeq	r0, r0, r4, ror sl
87800320:	0000018c 	andeq	r0, r0, ip, lsl #3
87800324:	04b00004 	ldrteq	r0, [r0], #4
87800328:	01048780 	smlabbeq	r4, r0, r7, r8
8780032c:	87800743 	strhi	r0, [r0, r3, asr #14]
87800330:	80071a01 	andhi	r1, r7, r1, lsl #20
87800334:	8007be87 	andhi	fp, r7, r7, lsl #29
87800338:	80028087 	andhi	r8, r2, r7, lsl #1
8780033c:	00009087 	andeq	r9, r0, r7, lsl #1
87800340:	8005d000 	andhi	sp, r5, r0
87800344:	08010287 	stmdaeq	r1, {r0, r1, r2, r7, r9}
87800348:	8780070c 	strhi	r0, [r0, ip, lsl #14]
8780034c:	9d070202 	sfmls	f0, 4, [r7, #-8]
87800350:	03878006 	orreq	r8, r7, #6
87800354:	87800721 	strhi	r0, [r0, r1, lsr #14]
87800358:	003e4303 	eorseq	r4, lr, r3, lsl #6
8780035c:	04020000 	streq	r0, [r2], #-0
87800360:	8006ef07 	andhi	lr, r6, r7, lsl #30
87800364:	07080287 	streq	r0, [r8, -r7, lsl #5]
87800368:	878006e5 	strhi	r0, [r0, r5, ror #13]
8780036c:	15080102 	strne	r0, [r8, #-258]	; 0x102
87800370:	02878007 	addeq	r8, r7, #7
87800374:	07340502 	ldreq	r0, [r4, -r2, lsl #10]!
87800378:	04048780 	streq	r8, [r4], #-1920	; 0x780
8780037c:	746e6905 	strbtvc	r6, [lr], #-2309	; 0x905
87800380:	07040200 	streq	r0, [r4, -r0, lsl #4]
87800384:	87800801 	strhi	r0, [r0, r1, lsl #16]
87800388:	00006d05 	andeq	r6, r0, r5, lsl #26
8780038c:	00330600 	eorseq	r0, r3, r0, lsl #12
87800390:	20070000 	andcs	r0, r7, r0
87800394:	e334a702 	teq	r4, #524288	; 0x80000
87800398:	08000000 	stmdaeq	r0, {}	; <UNPREDICTABLE>
8780039c:	02005244 	andeq	r5, r0, #68, 4	; 0x40000004
878003a0:	006d34a8 	rsbeq	r3, sp, r8, lsr #9
878003a4:	09000000 	stmdbeq	r0, {}	; <UNPREDICTABLE>
878003a8:	878006d3 			; <UNDEFINED> instruction: 0x878006d3
878003ac:	6d34a902 	ldcvs	9, cr10, [r4, #-8]!
878003b0:	04000000 	streq	r0, [r0], #-0
878003b4:	52535008 	subspl	r5, r3, #8
878003b8:	34aa0200 	strtcc	r0, [sl], #512	; 0x200
878003bc:	00000068 	andeq	r0, r0, r8, rrx
878003c0:	06b00908 	ldrteq	r0, [r0], r8, lsl #18
878003c4:	ab028780 	blge	878a21cc <__bss_end+0x9f0d8>
878003c8:	00006d34 	andeq	r6, r0, r4, lsr sp
878003cc:	b5090c00 	strlt	r0, [r9, #-3072]	; 0xc00
878003d0:	02878006 	addeq	r8, r7, #6
878003d4:	006d34ac 	rsbeq	r3, sp, ip, lsr #9
878003d8:	08100000 	ldmdaeq	r0, {}	; <UNPREDICTABLE>
878003dc:	00524d49 	subseq	r4, r2, r9, asr #26
878003e0:	6d34ad02 	ldcvs	13, cr10, [r4, #-8]!
878003e4:	14000000 	strne	r0, [r0], #-0
878003e8:	52534908 	subspl	r4, r3, #8, 18	; 0x20000
878003ec:	34ae0200 	strtcc	r0, [lr], #512	; 0x200
878003f0:	0000006d 	andeq	r0, r0, sp, rrx
878003f4:	07f80918 			; <UNDEFINED> instruction: 0x07f80918
878003f8:	af028780 	svcge	0x00028780
878003fc:	00006d34 	andeq	r6, r0, r4, lsr sp
87800400:	0a001c00 	beq	87807408 <__bss_end+0x4314>
87800404:	8780072a 	strhi	r0, [r0, sl, lsr #14]
87800408:	7234b002 	eorsvc	fp, r4, #2
8780040c:	03000000 	movweq	r0, #0
87800410:	878006d8 			; <UNDEFINED> instruction: 0x878006d8
87800414:	00fa1004 	rscseq	r1, sl, r4
87800418:	040b0000 	streq	r0, [fp], #-0
8780041c:	00000100 	andeq	r0, r0, r0, lsl #2
87800420:	00010b0c 	andeq	r0, r1, ip, lsl #22
87800424:	010b0d00 	tsteq	fp, r0, lsl #26
87800428:	0e000000 	cdpeq	0, 0, cr0, cr0, cr0, {0}
8780042c:	4c040b04 	stcmi	11, cr0, [r4], {4}
87800430:	0f000000 	svceq	0x00000000
87800434:	878006fc 			; <UNDEFINED> instruction: 0x878006fc
87800438:	02801101 	addeq	r1, r0, #1073741824	; 0x40000000
8780043c:	005c8780 	subseq	r8, ip, r0, lsl #15
87800440:	9c010000 	stcls	0, cr0, [r1], {-0}
87800444:	00000153 	andeq	r0, r0, r3, asr r1
87800448:	67726110 			; <UNDEFINED> instruction: 0x67726110
8780044c:	0b110100 	bleq	87c40854 <__bss_end+0x43d760>
87800450:	02000001 	andeq	r0, r0, #1
87800454:	ba116c91 	blt	87c5b6a0 <__bss_end+0x4585ac>
87800458:	01878006 	orreq	r8, r7, r6
8780045c:	00003313 	andeq	r3, r0, r3, lsl r3
87800460:	74910200 	ldrvc	r0, [r1], #512	; 0x200
87800464:	8006c311 	andhi	ip, r6, r1, lsl r3
87800468:	25140187 	ldrcs	r0, [r4, #-391]	; 0x187
8780046c:	02000000 	andeq	r0, r0, #0
87800470:	12007391 	andne	r7, r0, #1140850690	; 0x44000002
87800474:	878006ce 	strhi	r0, [r0, lr, asr #13]
87800478:	005a2201 	subseq	r2, sl, r1, lsl #4
8780047c:	02dc0000 	sbcseq	r0, ip, #0
87800480:	00348780 	eorseq	r8, r4, r0, lsl #15
87800484:	9c010000 	stcls	0, cr0, [r1], {-0}
87800488:	00000189 	andeq	r0, r0, r9, lsl #3
8780048c:	80073e13 	andhi	r3, r7, r3, lsl lr
87800490:	5a220187 	bpl	88080ab4 <__bss_end+0x87d9c0>
87800494:	02000000 	andeq	r0, r0, #0
87800498:	f3137491 	vqshl.u16	d7, d1, d19
8780049c:	01878007 	orreq	r8, r7, r7
878004a0:	00018922 	andeq	r8, r1, r2, lsr #18
878004a4:	70910200 	addsvc	r0, r1, r0, lsl #4
878004a8:	0d040b00 	vstreq	d0, [r4, #-0]
878004ac:	00000001 	andeq	r0, r0, r1
878004b0:	25011101 	strcs	r1, [r1, #-257]	; 0x101
878004b4:	030b130e 	movweq	r1, #45838	; 0xb30e
878004b8:	110e1b0e 	tstne	lr, lr, lsl #22
878004bc:	10061201 	andne	r1, r6, r1, lsl #4
878004c0:	02000017 	andeq	r0, r0, #23
878004c4:	0b0b0024 	bleq	87ac055c <__bss_end+0x2bd468>
878004c8:	0e030b3e 	vmoveq.16	d3[0], r0
878004cc:	16030000 	strne	r0, [r3], -r0
878004d0:	3a0e0300 	bcc	87b810d8 <__bss_end+0x37dfe4>
878004d4:	490b3b0b 	stmdbmi	fp, {r0, r1, r3, r8, r9, fp, ip, sp}
878004d8:	04000013 	streq	r0, [r0], #-19
878004dc:	0b0b0024 	bleq	87ac0574 <__bss_end+0x2bd480>
878004e0:	08030b3e 	stmdaeq	r3, {r1, r2, r3, r4, r5, r8, r9, fp}
878004e4:	26050000 	strcs	r0, [r5], -r0
878004e8:	00134900 	andseq	r4, r3, r0, lsl #18
878004ec:	00350600 	eorseq	r0, r5, r0, lsl #12
878004f0:	00001349 	andeq	r1, r0, r9, asr #6
878004f4:	0b011307 	bleq	87845118 <__bss_end+0x42024>
878004f8:	3b0b3a0b 	blcc	87aced2c <__bss_end+0x2cbc38>
878004fc:	00130105 	andseq	r0, r3, r5, lsl #2
87800500:	000d0800 	andeq	r0, sp, r0, lsl #16
87800504:	0b3a0803 	bleq	88682518 <__bss_end+0xe7f424>
87800508:	1349053b 	movtne	r0, #38203	; 0x953b
8780050c:	00000b38 	andeq	r0, r0, r8, lsr fp
87800510:	03000d09 	movweq	r0, #3337	; 0xd09
87800514:	3b0b3a0e 	blcc	87aced54 <__bss_end+0x2cbc60>
87800518:	38134905 	ldmdacc	r3, {r0, r2, r8, fp, lr}
8780051c:	0a00000b 	beq	87800550 <.LC0+0x240>
87800520:	0e030016 	mcreq	0, 0, r0, cr3, cr6, {0}
87800524:	053b0b3a 	ldreq	r0, [fp, #-2874]!	; 0xb3a
87800528:	00001349 	andeq	r1, r0, r9, asr #6
8780052c:	0b000f0b 	bleq	87804160 <__bss_end+0x106c>
87800530:	0013490b 	andseq	r4, r3, fp, lsl #18
87800534:	01150c00 	tsteq	r5, r0, lsl #24
87800538:	13011927 	movwne	r1, #6439	; 0x1927
8780053c:	050d0000 	streq	r0, [sp, #-0]
87800540:	00134900 	andseq	r4, r3, r0, lsl #18
87800544:	000f0e00 	andeq	r0, pc, r0, lsl #28
87800548:	00000b0b 	andeq	r0, r0, fp, lsl #22
8780054c:	3f012e0f 	svccc	0x00012e0f
87800550:	3a0e0319 	bcc	87b811bc <__bss_end+0x37e0c8>
87800554:	270b3b0b 	strcs	r3, [fp, -fp, lsl #22]
87800558:	12011119 	andne	r1, r1, #1073741830	; 0x40000006
8780055c:	96184006 	ldrls	r4, [r8], -r6
87800560:	13011942 	movwne	r1, #6466	; 0x1942
87800564:	05100000 	ldreq	r0, [r0, #-0]
87800568:	3a080300 	bcc	87a01170 <__bss_end+0x1fe07c>
8780056c:	490b3b0b 	stmdbmi	fp, {r0, r1, r3, r8, r9, fp, ip, sp}
87800570:	00180213 	andseq	r0, r8, r3, lsl r2
87800574:	00341100 	eorseq	r1, r4, r0, lsl #2
87800578:	0b3a0e03 	bleq	88683d8c <__bss_end+0xe80c98>
8780057c:	13490b3b 	movtne	r0, #39739	; 0x9b3b
87800580:	00001802 	andeq	r1, r0, r2, lsl #16
87800584:	3f012e12 	svccc	0x00012e12
87800588:	3a0e0319 	bcc	87b811f4 <__bss_end+0x37e100>
8780058c:	270b3b0b 	strcs	r3, [fp, -fp, lsl #22]
87800590:	11134919 	tstne	r3, r9, lsl r9
87800594:	40061201 	andmi	r1, r6, r1, lsl #4
87800598:	19429618 	stmdbne	r2, {r3, r4, r9, sl, ip, pc}^
8780059c:	00001301 	andeq	r1, r0, r1, lsl #6
878005a0:	03000513 	movweq	r0, #1299	; 0x513
878005a4:	3b0b3a0e 	blcc	87acede4 <__bss_end+0x2cbcf0>
878005a8:	0213490b 	andseq	r4, r3, #180224	; 0x2c000
878005ac:	00000018 	andeq	r0, r0, r8, lsl r0
878005b0:	0000001c 	andeq	r0, r0, ip, lsl r0
878005b4:	03200002 	teqeq	r0, #2
878005b8:	00048780 	andeq	r8, r4, r0, lsl #15
878005bc:	00000000 	andeq	r0, r0, r0
878005c0:	87800280 	strhi	r0, [r0, r0, lsl #5]
878005c4:	00000090 	muleq	r0, r0, r0
	...
878005d0:	000000c9 	andeq	r0, r0, r9, asr #1
878005d4:	009b0002 	addseq	r0, fp, r2
878005d8:	01020000 	mrseq	r0, (UNDEF: 2)
878005dc:	000d0efb 	strdeq	r0, [sp], -fp
878005e0:	01010101 	tsteq	r1, r1, lsl #2
878005e4:	01000000 	mrseq	r0, (UNDEF: 0)
878005e8:	2f010000 	svccs	0x00010000
878005ec:	656d6f68 	strbvs	r6, [sp, #-3944]!	; 0xf68
878005f0:	7a79772f 	bvc	8965e2b4 <__bss_end+0x1e5b1c0>
878005f4:	6f74412f 	svcvs	0x0074412f
878005f8:	4d492f6d 	stclmi	15, cr2, [r9, #-436]	; 0xfffffe4c
878005fc:	4c553658 	mrrcmi	6, 5, r3, r5, cr8
87800600:	6f422f4c 	svcvs	0x00422f4c
87800604:	5f647261 	svcpl	0x00647261
87800608:	76697244 	strbtvc	r7, [r9], -r4, asr #4
8780060c:	732f7265 	teqvc	pc, #1342177286	; 0x50000006
87800610:	2f006b64 	svccs	0x00006b64
87800614:	656d6f68 	strbvs	r6, [sp, #-3944]!	; 0xf68
87800618:	7a79772f 	bvc	8965e2dc <__bss_end+0x1e5b1e8>
8780061c:	6f74412f 	svcvs	0x0074412f
87800620:	4d492f6d 	stclmi	15, cr2, [r9, #-436]	; 0xfffffe4c
87800624:	4c553658 	mrrcmi	6, 5, r3, r5, cr8
87800628:	6f422f4c 	svcvs	0x00422f4c
8780062c:	5f647261 	svcpl	0x00647261
87800630:	76697244 	strbtvc	r7, [r9], -r4, asr #4
87800634:	622f7265 	eorvs	r7, pc, #1342177286	; 0x50000006
87800638:	692f7073 	stmdbvs	pc!, {r0, r1, r4, r5, r6, ip, sp, lr}	; <UNPREDICTABLE>
8780063c:	0000746e 	andeq	r7, r0, lr, ror #8
87800640:	74736574 	ldrbtvc	r6, [r3], #-1396	; 0x574
87800644:	0000632e 	andeq	r6, r0, lr, lsr #6
87800648:	434d0000 	movtmi	r0, #53248	; 0xd000
8780064c:	36584d49 	ldrbcc	r4, [r8], -r9, asr #26
87800650:	682e3259 	stmdavs	lr!, {r0, r3, r4, r6, r9, ip, sp}
87800654:	00000100 	andeq	r0, r0, r0, lsl #2
87800658:	65726f63 	ldrbvs	r6, [r2, #-3939]!	; 0xf63
8780065c:	7079745f 	rsbsvc	r7, r9, pc, asr r4
87800660:	00682e65 	rsbeq	r2, r8, r5, ror #28
87800664:	62000001 	andvs	r0, r0, #1
87800668:	695f7073 	ldmdbvs	pc, {r0, r1, r4, r5, r6, ip, sp, lr}^	; <UNPREDICTABLE>
8780066c:	682e746e 	stmdavs	lr!, {r1, r2, r3, r5, r6, sl, ip, sp, lr}
87800670:	00000200 	andeq	r0, r0, r0, lsl #4
87800674:	02050000 	andeq	r0, r5, #0
87800678:	87800280 	strhi	r0, [r0, r0, lsl #5]
8780067c:	4b011103 	blmi	87844a90 <__bss_end+0x4199c>
87800680:	3d3e2f2f 	ldccc	15, cr2, [lr, #-188]!	; 0xffffff44
87800684:	2f4b753e 	svccs	0x004b753e
87800688:	5a3f7568 	bpl	887ddc30 <__bss_end+0xfdab3c>
8780068c:	2f2f2f2f 	svccs	0x002f2f2f
87800690:	002f2f2f 	eoreq	r2, pc, pc, lsr #30
87800694:	67010402 	strvs	r0, [r1, -r2, lsl #8]
87800698:	01000102 	tsteq	r0, r2, lsl #2
8780069c:	6f687301 	svcvs	0x00687301
878006a0:	75207472 	strvc	r7, [r0, #-1138]!	; 0x472
878006a4:	6769736e 	strbvs	r7, [r9, -lr, ror #6]!
878006a8:	2064656e 	rsbcs	r6, r4, lr, ror #10
878006ac:	00746e69 	rsbseq	r6, r4, r9, ror #28
878006b0:	31524349 	cmpcc	r2, r9, asr #6
878006b4:	52434900 	subpl	r4, r3, #0, 18
878006b8:	656b0032 	strbvs	r0, [fp, #-50]!	; 0x32
878006bc:	6c617679 	stclvs	6, cr7, [r1], #-484	; 0xfffffe1c
878006c0:	62006575 	andvs	r6, r0, #490733568	; 0x1d400000
878006c4:	5f706565 	svcpl	0x00706565
878006c8:	74617473 	strbtvc	r7, [r1], #-1139	; 0x473
878006cc:	616d0065 	cmnvs	sp, r5, rrx
878006d0:	47006e69 	strmi	r6, [r0, -r9, ror #28]
878006d4:	00524944 	subseq	r4, r2, r4, asr #18
878006d8:	5f717269 	svcpl	0x00717269
878006dc:	646e6168 	strbtvs	r6, [lr], #-360	; 0x168
878006e0:	745f656c 	ldrbvc	r6, [pc], #-1388	; 878006e8 <.LC0+0x3d8>
878006e4:	6e6f6c00 	cdpvs	12, 6, cr6, cr15, cr0, {0}
878006e8:	6f6c2067 	svcvs	0x006c2067
878006ec:	7520676e 	strvc	r6, [r0, #-1902]!	; 0x76e
878006f0:	6769736e 	strbvs	r7, [r9, -lr, ror #6]!
878006f4:	2064656e 	rsbcs	r6, r4, lr, ror #10
878006f8:	00746e69 	rsbseq	r6, r4, r9, ror #28
878006fc:	5f79656b 	svcpl	0x0079656b
87800700:	5f717269 	svcpl	0x00717269
87800704:	646e6168 	strbtvs	r6, [lr], #-360	; 0x168
87800708:	0072656c 	rsbseq	r6, r2, ip, ror #10
8780070c:	69736e75 	ldmdbvs	r3!, {r0, r2, r4, r5, r6, r9, sl, fp, sp, lr}^
87800710:	64656e67 	strbtvs	r6, [r5], #-3687	; 0xe67
87800714:	61686320 	cmnvs	r8, r0, lsr #6
87800718:	65740072 	ldrbvs	r0, [r4, #-114]!	; 0x72
8780071c:	632e7473 	teqvs	lr, #1929379840	; 0x73000000
87800720:	6e697500 	cdpvs	5, 6, cr7, cr9, cr0, {0}
87800724:	5f323374 	svcpl	0x00323374
87800728:	50470074 	subpl	r0, r7, r4, ror r0
8780072c:	545f4f49 	ldrbpl	r4, [pc], #-3913	; 87800734 <.LC0+0x424>
87800730:	00657079 	rsbeq	r7, r5, r9, ror r0
87800734:	726f6873 	rsbvc	r6, pc, #7536640	; 0x730000
87800738:	6e692074 	mcrvs	0, 3, r2, cr9, cr4, {3}
8780073c:	72610074 	rsbvc	r0, r1, #116	; 0x74
87800740:	47006367 	strmi	r6, [r0, -r7, ror #6]
87800744:	4320554e 	teqmi	r0, #327155712	; 0x13800000
87800748:	392e3420 	stmdbcc	lr!, {r5, sl, ip, sp}
8780074c:	2d20342e 	cfstrscs	mvf3, [r0, #-184]!	; 0xffffff48
87800750:	6372616d 	cmnvs	r2, #1073741851	; 0x4000001b
87800754:	72613d68 	rsbvc	r3, r1, #104, 26	; 0x1a00
87800758:	2d37766d 	ldccs	6, cr7, [r7, #-436]!	; 0xfffffe4c
8780075c:	6d2d2061 	stcvs	0, cr2, [sp, #-388]!	; 0xfffffe7c
87800760:	656e7574 	strbvs	r7, [lr, #-1396]!	; 0x574
87800764:	726f633d 	rsbvc	r6, pc, #-201326592	; 0xf4000000
87800768:	2d786574 	cfldr64cs	mvdx6, [r8, #-464]!	; 0xfffffe30
8780076c:	2d203961 	stccs	9, cr3, [r0, #-388]!	; 0xfffffe7c
87800770:	6f6c666d 	svcvs	0x006c666d
87800774:	612d7461 	teqvs	sp, r1, ror #8
87800778:	683d6962 	ldmdavs	sp!, {r1, r5, r6, r8, fp, sp, lr}
8780077c:	20647261 	rsbcs	r7, r4, r1, ror #4
87800780:	70666d2d 	rsbvc	r6, r6, sp, lsr #26
87800784:	66763d75 			; <UNDEFINED> instruction: 0x66763d75
87800788:	2d337670 	ldccs	6, cr7, [r3, #-448]!	; 0xfffffe40
8780078c:	20363164 	eorscs	r3, r6, r4, ror #2
87800790:	68746d2d 	ldmdavs	r4!, {r0, r2, r3, r5, r8, sl, fp, sp, lr}^
87800794:	20626d75 	rsbcs	r6, r2, r5, ror sp
87800798:	6c746d2d 	ldclvs	13, cr6, [r4], #-180	; 0xffffff4c
8780079c:	69642d73 	stmdbvs	r4!, {r0, r1, r4, r5, r6, r8, sl, fp, sp}^
878007a0:	63656c61 	cmnvs	r5, #24832	; 0x6100
878007a4:	6e673d74 	mcrvs	13, 3, r3, cr7, cr4, {3}
878007a8:	672d2075 			; <UNDEFINED> instruction: 0x672d2075
878007ac:	304f2d20 	subcc	r2, pc, r0, lsr #26
878007b0:	6e662d20 	cdpvs	13, 6, cr2, cr6, cr0, {1}
878007b4:	75622d6f 	strbvc	r2, [r2, #-3439]!	; 0xd6f
878007b8:	69746c69 	ldmdbvs	r4!, {r0, r3, r5, r6, sl, fp, sp, lr}^
878007bc:	682f006e 	stmdavs	pc!, {r1, r2, r3, r5, r6}	; <UNPREDICTABLE>
878007c0:	2f656d6f 	svccs	0x00656d6f
878007c4:	2f7a7977 	svccs	0x007a7977
878007c8:	6d6f7441 	cfstrdvs	mvd7, [pc, #-260]!	; 878006cc <.LC0+0x3bc>
878007cc:	584d492f 	stmdapl	sp, {r0, r1, r2, r3, r5, r8, fp, lr}^
878007d0:	4c4c5536 	cfstr64mi	mvdx5, [ip], {54}	; 0x36
878007d4:	616f422f 	cmnvs	pc, pc, lsr #4
878007d8:	445f6472 	ldrbmi	r6, [pc], #-1138	; 878007e0 <.LC0+0x4d0>
878007dc:	65766972 	ldrbvs	r6, [r6, #-2418]!	; 0x972
878007e0:	65742f72 	ldrbvs	r2, [r4, #-3954]!	; 0xf72
878007e4:	6b2f7473 	blvs	883dd9b8 <__bss_end+0xbda8c4>
878007e8:	6e697965 	cdpvs	9, 6, cr7, cr9, cr5, {3}
878007ec:	65745f74 	ldrbvs	r5, [r4, #-3956]!	; 0xf74
878007f0:	61007473 	tstvs	r0, r3, ror r4
878007f4:	00766772 	rsbseq	r6, r6, r2, ror r7
878007f8:	45474445 	strbmi	r4, [r7, #-1093]	; 0x445
878007fc:	4c45535f 	mcrrmi	3, 5, r5, r5, cr15
87800800:	7a697300 	bvc	8925d408 <__bss_end+0x1a5a314>
87800804:	70797465 	rsbsvc	r7, r9, r5, ror #8
87800808:	43470065 	movtmi	r0, #28773	; 0x7065
8780080c:	28203a43 	stmdacs	r0!, {r0, r1, r6, r9, fp, ip, sp}
87800810:	616e694c 	cmnvs	lr, ip, asr #18
87800814:	47206f72 			; <UNDEFINED> instruction: 0x47206f72
87800818:	34204343 	strtcc	r4, [r0], #-835	; 0x343
8780081c:	322d392e 	eorcc	r3, sp, #753664	; 0xb8000
87800820:	2e373130 	mrccs	1, 1, r3, cr7, cr0, {1}
87800824:	20293130 	eorcs	r3, r9, r0, lsr r1
87800828:	2e392e34 	mrccs	14, 1, r2, cr9, cr4, {1}
8780082c:	34410034 	strbcc	r0, [r1], #-52	; 0x34
87800830:	61000000 	mrsvs	r0, (UNDEF: 0)
87800834:	69626165 	stmdbvs	r2!, {r0, r2, r5, r6, r8, sp, lr}^
87800838:	002a0100 	eoreq	r0, sl, r0, lsl #2
8780083c:	37050000 	strcc	r0, [r5, -r0]
87800840:	0600412d 	streq	r4, [r0], -sp, lsr #2
87800844:	0841070a 	stmdaeq	r1, {r1, r3, r8, r9, sl}^
87800848:	0a020901 	beq	87882c54 <__bss_end+0x7fb60>
8780084c:	14041204 	strne	r1, [r4], #-516	; 0x204
87800850:	17011501 	strne	r1, [r1, -r1, lsl #10]
87800854:	19011803 	stmdbne	r1, {r0, r1, fp, ip}
87800858:	1b021a01 	blne	87887064 <__bss_end+0x83f70>
8780085c:	1e011c03 	cdpne	12, 0, cr1, cr1, cr3, {0}
87800860:	00012206 	andeq	r2, r1, r6, lsl #4
87800864:	0000000c 	andeq	r0, r0, ip
87800868:	ffffffff 			; <UNDEFINED> instruction: 0xffffffff
8780086c:	7c020001 	stcvc	0, cr0, [r2], {1}
87800870:	000d0c0e 	andeq	r0, sp, lr, lsl #24
87800874:	00000020 	andeq	r0, r0, r0, lsr #32
87800878:	87800864 	strhi	r0, [r0, r4, ror #16]
8780087c:	87800280 	strhi	r0, [r0, r0, lsl #5]
87800880:	0000005c 	andeq	r0, r0, ip, asr r0
87800884:	87080e41 	strhi	r0, [r8, -r1, asr #28]
87800888:	41018e02 	tstmi	r1, r2, lsl #28
8780088c:	0d41180e 	stcleq	8, cr1, [r1, #-56]	; 0xffffffc8
87800890:	080e6907 	stmdaeq	lr, {r0, r1, r2, r8, fp, sp, lr}
87800894:	000d0d41 	andeq	r0, sp, r1, asr #26
87800898:	0000001c 	andeq	r0, r0, ip, lsl r0
8780089c:	87800864 	strhi	r0, [r0, r4, ror #16]
878008a0:	878002dc 			; <UNDEFINED> instruction: 0x878002dc
878008a4:	00000034 	andeq	r0, r0, r4, lsr r0
878008a8:	87080e41 	strhi	r0, [r8, -r1, asr #28]
878008ac:	41018e02 	tstmi	r1, r2, lsl #28
878008b0:	0d41100e 	stcleq	0, cr1, [r1, #-56]	; 0xffffffc8
878008b4:	00000007 	andeq	r0, r0, r7

878008b8 <beep_init>:
878008b8:	210c      	movs	r1, #12
878008ba:	2250      	movs	r2, #80	; 0x50
878008bc:	b530      	push	{r4, r5, lr}
878008be:	2301      	movs	r3, #1
878008c0:	b085      	sub	sp, #20
878008c2:	f2c0 2129 	movt	r1, #553	; 0x229
878008c6:	2505      	movs	r5, #5
878008c8:	f2c0 2229 	movt	r2, #553	; 0x229
878008cc:	f241 04b0 	movw	r4, #4272	; 0x10b0
878008d0:	f44f 4040 	mov.w	r0, #49152	; 0xc000
878008d4:	600d      	str	r5, [r1, #0]
878008d6:	f2c0 200a 	movt	r0, #522	; 0x20a
878008da:	6014      	str	r4, [r2, #0]
878008dc:	4619      	mov	r1, r3
878008de:	2400      	movs	r4, #0
878008e0:	aa01      	add	r2, sp, #4
878008e2:	9301      	str	r3, [sp, #4]
878008e4:	f88d 4008 	strb.w	r4, [sp, #8]
878008e8:	f000 f8ac 	bl	87800a44 <gpio_init>
878008ec:	b005      	add	sp, #20
878008ee:	bd30      	pop	{r4, r5, pc}

878008f0 <beep_on>:
878008f0:	f44f 4040 	mov.w	r0, #49152	; 0xc000
878008f4:	2200      	movs	r2, #0
878008f6:	f2c0 200a 	movt	r0, #522	; 0x20a
878008fa:	2101      	movs	r1, #1
878008fc:	f000 b8c6 	b.w	87800a8c <gpio_pinwrite>

87800900 <beep_off>:
87800900:	2201      	movs	r2, #1
87800902:	f44f 4040 	mov.w	r0, #49152	; 0xc000
87800906:	4611      	mov	r1, r2
87800908:	f2c0 200a 	movt	r0, #522	; 0x20a
8780090c:	f000 b8be 	b.w	87800a8c <gpio_pinwrite>

87800910 <beep_switch>:
87800910:	2801      	cmp	r0, #1
87800912:	4601      	mov	r1, r0
87800914:	d009      	beq.n	8780092a <beep_switch+0x1a>
87800916:	b100      	cbz	r0, 8780091a <beep_switch+0xa>
87800918:	4770      	bx	lr
8780091a:	2201      	movs	r2, #1
8780091c:	f44f 4040 	mov.w	r0, #49152	; 0xc000
87800920:	4611      	mov	r1, r2
87800922:	f2c0 200a 	movt	r0, #522	; 0x20a
87800926:	f000 b8b1 	b.w	87800a8c <gpio_pinwrite>
8780092a:	f44f 4040 	mov.w	r0, #49152	; 0xc000
8780092e:	2200      	movs	r2, #0
87800930:	f2c0 200a 	movt	r0, #522	; 0x20a
87800934:	f000 b8aa 	b.w	87800a8c <gpio_pinwrite>

87800938 <all_clk_enable>:
87800938:	f244 0168 	movw	r1, #16488	; 0x4068
8780093c:	f244 026c 	movw	r2, #16492	; 0x406c
87800940:	f04f 33ff 	mov.w	r3, #4294967295	; 0xffffffff
87800944:	f2c0 210c 	movt	r1, #524	; 0x20c
87800948:	f2c0 220c 	movt	r2, #524	; 0x20c
8780094c:	b430      	push	{r4, r5}
8780094e:	f244 0078 	movw	r0, #16504	; 0x4078
87800952:	600b      	str	r3, [r1, #0]
87800954:	f244 0570 	movw	r5, #16496	; 0x4070
87800958:	f244 0474 	movw	r4, #16500	; 0x4074
8780095c:	6013      	str	r3, [r2, #0]
8780095e:	f244 017c 	movw	r1, #16508	; 0x407c
87800962:	f44f 4281 	mov.w	r2, #16512	; 0x4080
87800966:	f2c0 250c 	movt	r5, #524	; 0x20c
8780096a:	f2c0 240c 	movt	r4, #524	; 0x20c
8780096e:	f2c0 200c 	movt	r0, #524	; 0x20c
87800972:	f2c0 210c 	movt	r1, #524	; 0x20c
87800976:	f2c0 220c 	movt	r2, #524	; 0x20c
8780097a:	602b      	str	r3, [r5, #0]
8780097c:	6023      	str	r3, [r4, #0]
8780097e:	6003      	str	r3, [r0, #0]
87800980:	600b      	str	r3, [r1, #0]
87800982:	6013      	str	r3, [r2, #0]
87800984:	bc30      	pop	{r4, r5}
87800986:	4770      	bx	lr

87800988 <imx6ull_sclinit>:
87800988:	f244 020c 	movw	r2, #16396	; 0x400c
8780098c:	b430      	push	{r4, r5}
8780098e:	f2c0 220c 	movt	r2, #524	; 0x20c
87800992:	f244 000c 	movw	r0, #16396	; 0x400c
87800996:	f242 0442 	movw	r4, #8258	; 0x2042
8780099a:	f2c0 200c 	movt	r0, #524	; 0x20c
8780099e:	6813      	ldr	r3, [r2, #0]
878009a0:	2501      	movs	r5, #1
878009a2:	b2db      	uxtb	r3, r3
878009a4:	0759      	lsls	r1, r3, #29
878009a6:	f44f 4100 	mov.w	r1, #32768	; 0x8000
878009aa:	bf58      	it	pl
878009ac:	f043 0304 	orrpl.w	r3, r3, #4
878009b0:	f2c0 210c 	movt	r1, #524	; 0x20c
878009b4:	bf58      	it	pl
878009b6:	6013      	strpl	r3, [r2, #0]
878009b8:	f244 0210 	movw	r2, #16400	; 0x4010
878009bc:	f003 03fb 	and.w	r3, r3, #251	; 0xfb
878009c0:	f2c0 220c 	movt	r2, #524	; 0x20c
878009c4:	600c      	str	r4, [r1, #0]
878009c6:	f241 041b 	movw	r4, #4123	; 0x101b
878009ca:	6003      	str	r3, [r0, #0]
878009cc:	f2c2 0418 	movt	r4, #8216	; 0x2018
878009d0:	6015      	str	r5, [r2, #0]
878009d2:	f241 000c 	movw	r0, #4108	; 0x100c
878009d6:	f8d1 5100 	ldr.w	r5, [r1, #256]	; 0x100
878009da:	f2c1 3011 	movt	r0, #4881	; 0x1311
878009de:	f44f 4280 	mov.w	r2, #16384	; 0x4000
878009e2:	f2c0 220c 	movt	r2, #524	; 0x20c
878009e6:	f005 35c0 	and.w	r5, r5, #3233857728	; 0xc0c0c0c0
878009ea:	4613      	mov	r3, r2
878009ec:	432c      	orrs	r4, r5
878009ee:	f8c1 4100 	str.w	r4, [r1, #256]	; 0x100
878009f2:	f8d1 40f0 	ldr.w	r4, [r1, #240]	; 0xf0
878009f6:	f004 34c0 	and.w	r4, r4, #3233857728	; 0xc0c0c0c0
878009fa:	4320      	orrs	r0, r4
878009fc:	f8c1 00f0 	str.w	r0, [r1, #240]	; 0xf0
87800a00:	6991      	ldr	r1, [r2, #24]
87800a02:	f421 2140 	bic.w	r1, r1, #786432	; 0xc0000
87800a06:	6191      	str	r1, [r2, #24]
87800a08:	6991      	ldr	r1, [r2, #24]
87800a0a:	f441 2180 	orr.w	r1, r1, #262144	; 0x40000
87800a0e:	6191      	str	r1, [r2, #24]
87800a10:	6951      	ldr	r1, [r2, #20]
87800a12:	f021 7100 	bic.w	r1, r1, #33554432	; 0x2000000
87800a16:	6151      	str	r1, [r2, #20]
87800a18:	6c9a      	ldr	r2, [r3, #72]	; 0x48
87800a1a:	0692      	lsls	r2, r2, #26
87800a1c:	d4fc      	bmi.n	87800a18 <imx6ull_sclinit+0x90>
87800a1e:	695a      	ldr	r2, [r3, #20]
87800a20:	f422 7240 	bic.w	r2, r2, #768	; 0x300
87800a24:	615a      	str	r2, [r3, #20]
87800a26:	695a      	ldr	r2, [r3, #20]
87800a28:	f442 7280 	orr.w	r2, r2, #256	; 0x100
87800a2c:	615a      	str	r2, [r3, #20]
87800a2e:	69da      	ldr	r2, [r3, #28]
87800a30:	f022 0240 	bic.w	r2, r2, #64	; 0x40
87800a34:	61da      	str	r2, [r3, #28]
87800a36:	69da      	ldr	r2, [r3, #28]
87800a38:	f022 0207 	bic.w	r2, r2, #7
87800a3c:	61da      	str	r2, [r3, #28]
87800a3e:	bc30      	pop	{r4, r5}
87800a40:	4770      	bx	lr
87800a42:	bf00      	nop

87800a44 <gpio_init>:
87800a44:	b410      	push	{r4}
87800a46:	2301      	movs	r3, #1
87800a48:	6814      	ldr	r4, [r2, #0]
87800a4a:	fa03 f101 	lsl.w	r1, r3, r1
87800a4e:	6843      	ldr	r3, [r0, #4]
87800a50:	b14c      	cbz	r4, 87800a66 <gpio_init+0x22>
87800a52:	430b      	orrs	r3, r1
87800a54:	6043      	str	r3, [r0, #4]
87800a56:	7913      	ldrb	r3, [r2, #4]
87800a58:	b15b      	cbz	r3, 87800a72 <gpio_init+0x2e>
87800a5a:	6803      	ldr	r3, [r0, #0]
87800a5c:	f85d 4b04 	ldr.w	r4, [sp], #4
87800a60:	4319      	orrs	r1, r3
87800a62:	6001      	str	r1, [r0, #0]
87800a64:	4770      	bx	lr
87800a66:	ea23 0101 	bic.w	r1, r3, r1
87800a6a:	f85d 4b04 	ldr.w	r4, [sp], #4
87800a6e:	6041      	str	r1, [r0, #4]
87800a70:	4770      	bx	lr
87800a72:	6803      	ldr	r3, [r0, #0]
87800a74:	f85d 4b04 	ldr.w	r4, [sp], #4
87800a78:	ea23 0101 	bic.w	r1, r3, r1
87800a7c:	6001      	str	r1, [r0, #0]
87800a7e:	4770      	bx	lr

87800a80 <gpio_pinread>:
87800a80:	6800      	ldr	r0, [r0, #0]
87800a82:	40c8      	lsrs	r0, r1
87800a84:	f000 0001 	and.w	r0, r0, #1
87800a88:	4770      	bx	lr
87800a8a:	bf00      	nop

87800a8c <gpio_pinwrite>:
87800a8c:	2301      	movs	r3, #1
87800a8e:	fa03 f101 	lsl.w	r1, r3, r1
87800a92:	6803      	ldr	r3, [r0, #0]
87800a94:	b112      	cbz	r2, 87800a9c <gpio_pinwrite+0x10>
87800a96:	4319      	orrs	r1, r3
87800a98:	6001      	str	r1, [r0, #0]
87800a9a:	4770      	bx	lr
87800a9c:	ea23 0101 	bic.w	r1, r3, r1
87800aa0:	6001      	str	r1, [r0, #0]
87800aa2:	4770      	bx	lr

87800aa4 <gpio_int_init>:
87800aa4:	b470      	push	{r4, r5, r6}
87800aa6:	2301      	movs	r3, #1
87800aa8:	69c4      	ldr	r4, [r0, #28]
87800aaa:	408b      	lsls	r3, r1
87800aac:	290f      	cmp	r1, #15
87800aae:	f102 32ff 	add.w	r2, r2, #4294967295	; 0xffffffff
87800ab2:	bf98      	it	ls
87800ab4:	f100 050c 	addls.w	r5, r0, #12
87800ab8:	ea24 0403 	bic.w	r4, r4, r3
87800abc:	bf88      	it	hi
87800abe:	3910      	subhi	r1, #16
87800ac0:	61c4      	str	r4, [r0, #28]
87800ac2:	bf8a      	itet	hi
87800ac4:	f100 0510 	addhi.w	r5, r0, #16
87800ac8:	68c6      	ldrls	r6, [r0, #12]
87800aca:	6906      	ldrhi	r6, [r0, #16]
87800acc:	2a04      	cmp	r2, #4
87800ace:	d80e      	bhi.n	87800aee <gpio_int_init+0x4a>
87800ad0:	e8df f002 	tbb	[pc, r2]
87800ad4:	201c0313 	andscs	r0, ip, r3, lsl r3
87800ad8:	0049000f 	subeq	r0, r9, pc
87800adc:	2203      	movs	r2, #3
87800ade:	2301      	movs	r3, #1
87800ae0:	408a      	lsls	r2, r1
87800ae2:	fa03 f101 	lsl.w	r1, r3, r1
87800ae6:	ea61 0102 	orn	r1, r1, r2
87800aea:	400e      	ands	r6, r1
87800aec:	602e      	str	r6, [r5, #0]
87800aee:	bc70      	pop	{r4, r5, r6}
87800af0:	4770      	bx	lr
87800af2:	4323      	orrs	r3, r4
87800af4:	bc70      	pop	{r4, r5, r6}
87800af6:	61c3      	str	r3, [r0, #28]
87800af8:	4770      	bx	lr
87800afa:	0049      	lsls	r1, r1, #1
87800afc:	2303      	movs	r3, #3
87800afe:	fa03 f101 	lsl.w	r1, r3, r1
87800b02:	ea26 0601 	bic.w	r6, r6, r1
87800b06:	602e      	str	r6, [r5, #0]
87800b08:	bc70      	pop	{r4, r5, r6}
87800b0a:	4770      	bx	lr
87800b0c:	0049      	lsls	r1, r1, #1
87800b0e:	2203      	movs	r2, #3
87800b10:	2302      	movs	r3, #2
87800b12:	e7e5      	b.n	87800ae0 <gpio_int_init+0x3c>
87800b14:	0049      	lsls	r1, r1, #1
87800b16:	2303      	movs	r3, #3
87800b18:	fa03 f101 	lsl.w	r1, r3, r1
87800b1c:	430e      	orrs	r6, r1
87800b1e:	602e      	str	r6, [r5, #0]
87800b20:	bc70      	pop	{r4, r5, r6}
87800b22:	4770      	bx	lr

87800b24 <gpio_int_enable>:
87800b24:	6942      	ldr	r2, [r0, #20]
87800b26:	2301      	movs	r3, #1
87800b28:	fa03 f101 	lsl.w	r1, r3, r1
87800b2c:	4211      	tst	r1, r2
87800b2e:	bf04      	itt	eq
87800b30:	4311      	orreq	r1, r2
87800b32:	6141      	streq	r1, [r0, #20]
87800b34:	4770      	bx	lr
87800b36:	bf00      	nop

87800b38 <gpio_int_disable>:
87800b38:	6943      	ldr	r3, [r0, #20]
87800b3a:	2201      	movs	r2, #1
87800b3c:	fa02 f101 	lsl.w	r1, r2, r1
87800b40:	ea23 0301 	bic.w	r3, r3, r1
87800b44:	6143      	str	r3, [r0, #20]
87800b46:	4770      	bx	lr

87800b48 <gpio_int_clear>:
87800b48:	6982      	ldr	r2, [r0, #24]
87800b4a:	2301      	movs	r3, #1
87800b4c:	fa03 f101 	lsl.w	r1, r3, r1
87800b50:	4211      	tst	r1, r2
87800b52:	bf04      	itt	eq
87800b54:	4311      	orreq	r1, r2
87800b56:	6181      	streq	r1, [r0, #24]
87800b58:	4770      	bx	lr
87800b5a:	bf00      	nop

87800b5c <gic_unhandle>:
87800b5c:	4770      	bx	lr
87800b5e:	bf00      	nop

87800b60 <system_int_init>:
87800b60:	b470      	push	{r4, r5, r6}
87800b62:	ee9f 4f10 	mrc	15, 4, r4, cr15, cr0, {0}
87800b66:	0c24      	lsrs	r4, r4, #16
87800b68:	f241 0204 	movw	r2, #4100	; 0x1004
87800b6c:	2300      	movs	r3, #0
87800b6e:	0424      	lsls	r4, r4, #16
87800b70:	f04f 30ff 	mov.w	r0, #4294967295	; 0xffffffff
87800b74:	58a1      	ldr	r1, [r4, r2]
87800b76:	f001 011f 	and.w	r1, r1, #31
87800b7a:	3101      	adds	r1, #1
87800b7c:	f503 628c 	add.w	r2, r3, #1120	; 0x460
87800b80:	3301      	adds	r3, #1
87800b82:	4299      	cmp	r1, r3
87800b84:	f844 0022 	str.w	r0, [r4, r2, lsl #2]
87800b88:	d1f8      	bne.n	87800b7c <system_int_init+0x1c>
87800b8a:	f642 33ec 	movw	r3, #11244	; 0x2bec
87800b8e:	f242 0504 	movw	r5, #8196	; 0x2004
87800b92:	26f8      	movs	r6, #248	; 0xf8
87800b94:	f640 325d 	movw	r2, #2909	; 0xb5d
87800b98:	f2c8 7380 	movt	r3, #34688	; 0x8780
87800b9c:	5166      	str	r6, [r4, r5]
87800b9e:	f2c8 7280 	movt	r2, #34688	; 0x8780
87800ba2:	f242 0508 	movw	r5, #8200	; 0x2008
87800ba6:	2602      	movs	r6, #2
87800ba8:	f503 60a0 	add.w	r0, r3, #1280	; 0x500
87800bac:	2100      	movs	r1, #0
87800bae:	5166      	str	r6, [r4, r5]
87800bb0:	f504 5680 	add.w	r6, r4, #4096	; 0x1000
87800bb4:	2501      	movs	r5, #1
87800bb6:	f504 5400 	add.w	r4, r4, #8192	; 0x2000
87800bba:	6035      	str	r5, [r6, #0]
87800bbc:	6025      	str	r5, [r4, #0]
87800bbe:	e9c3 2100 	strd	r2, r1, [r3]
87800bc2:	3308      	adds	r3, #8
87800bc4:	4298      	cmp	r0, r3
87800bc6:	d1fa      	bne.n	87800bbe <system_int_init+0x5e>
87800bc8:	2300      	movs	r3, #0
87800bca:	f2c8 7380 	movt	r3, #34688	; 0x8780
87800bce:	ee0c 3f10 	mcr	15, 0, r3, cr12, cr0, {0}
87800bd2:	bc70      	pop	{r4, r5, r6}
87800bd4:	4770      	bx	lr
87800bd6:	bf00      	nop

87800bd8 <gic_irq_table_init>:
87800bd8:	f642 33ec 	movw	r3, #11244	; 0x2bec
87800bdc:	f640 325d 	movw	r2, #2909	; 0xb5d
87800be0:	f2c8 7380 	movt	r3, #34688	; 0x8780
87800be4:	f2c8 7280 	movt	r2, #34688	; 0x8780
87800be8:	f503 60a0 	add.w	r0, r3, #1280	; 0x500
87800bec:	2100      	movs	r1, #0
87800bee:	e9c3 2100 	strd	r2, r1, [r3]
87800bf2:	3308      	adds	r3, #8
87800bf4:	4283      	cmp	r3, r0
87800bf6:	d1fa      	bne.n	87800bee <gic_irq_table_init+0x16>
87800bf8:	2000      	movs	r0, #0
87800bfa:	4770      	bx	lr

87800bfc <gic_request_irq>:
87800bfc:	289f      	cmp	r0, #159	; 0x9f
87800bfe:	b430      	push	{r4, r5}
87800c00:	bfdd      	ittte	le
87800c02:	f642 33ec 	movwle	r3, #11244	; 0x2bec
87800c06:	2400      	movle	r4, #0
87800c08:	f2c8 7380 	movtle	r3, #34688	; 0x8780
87800c0c:	f04f 34ff 	movgt.w	r4, #4294967295	; 0xffffffff
87800c10:	bfdc      	itt	le
87800c12:	eb03 05c0 	addle.w	r5, r3, r0, lsl #3
87800c16:	f843 1030 	strle.w	r1, [r3, r0, lsl #3]
87800c1a:	4620      	mov	r0, r4
87800c1c:	bfd8      	it	le
87800c1e:	606a      	strle	r2, [r5, #4]
87800c20:	bc30      	pop	{r4, r5}
87800c22:	4770      	bx	lr

87800c24 <system_irqhandler>:
87800c24:	f3c0 0009 	ubfx	r0, r0, #0, #10
87800c28:	289f      	cmp	r0, #159	; 0x9f
87800c2a:	d815      	bhi.n	87800c58 <system_irqhandler+0x34>
87800c2c:	b510      	push	{r4, lr}
87800c2e:	f642 34ec 	movw	r4, #11244	; 0x2bec
87800c32:	f2c8 7480 	movt	r4, #34688	; 0x8780
87800c36:	eb04 01c0 	add.w	r1, r4, r0, lsl #3
87800c3a:	f8d4 3500 	ldr.w	r3, [r4, #1280]	; 0x500
87800c3e:	f854 2030 	ldr.w	r2, [r4, r0, lsl #3]
87800c42:	6848      	ldr	r0, [r1, #4]
87800c44:	3301      	adds	r3, #1
87800c46:	f8c4 3500 	str.w	r3, [r4, #1280]	; 0x500
87800c4a:	4790      	blx	r2
87800c4c:	f8d4 3500 	ldr.w	r3, [r4, #1280]	; 0x500
87800c50:	3b01      	subs	r3, #1
87800c52:	f8c4 3500 	str.w	r3, [r4, #1280]	; 0x500
87800c56:	bd10      	pop	{r4, pc}
87800c58:	4770      	bx	lr
87800c5a:	bf00      	nop

87800c5c <bsp_led_init>:
87800c5c:	2268      	movs	r2, #104	; 0x68
87800c5e:	f44f 733d 	mov.w	r3, #756	; 0x2f4
87800c62:	b510      	push	{r4, lr}
87800c64:	f2c0 220e 	movt	r2, #526	; 0x20e
87800c68:	b084      	sub	sp, #16
87800c6a:	2405      	movs	r4, #5
87800c6c:	f2c0 230e 	movt	r3, #526	; 0x20e
87800c70:	f241 01b0 	movw	r1, #4272	; 0x10b0
87800c74:	f44f 4040 	mov.w	r0, #49152	; 0xc000
87800c78:	6014      	str	r4, [r2, #0]
87800c7a:	f2c0 2009 	movt	r0, #521	; 0x209
87800c7e:	6019      	str	r1, [r3, #0]
87800c80:	aa01      	add	r2, sp, #4
87800c82:	2301      	movs	r3, #1
87800c84:	2103      	movs	r1, #3
87800c86:	9301      	str	r3, [sp, #4]
87800c88:	f88d 3008 	strb.w	r3, [sp, #8]
87800c8c:	f7ff feda 	bl	87800a44 <gpio_init>
87800c90:	b004      	add	sp, #16
87800c92:	bd10      	pop	{r4, pc}

87800c94 <bsp_led_on>:
87800c94:	f44f 4040 	mov.w	r0, #49152	; 0xc000
87800c98:	2200      	movs	r2, #0
87800c9a:	f2c0 2009 	movt	r0, #521	; 0x209
87800c9e:	2103      	movs	r1, #3
87800ca0:	f7ff bef4 	b.w	87800a8c <gpio_pinwrite>

87800ca4 <bsp_led_off>:
87800ca4:	f44f 4040 	mov.w	r0, #49152	; 0xc000
87800ca8:	2201      	movs	r2, #1
87800caa:	f2c0 2009 	movt	r0, #521	; 0x209
87800cae:	2103      	movs	r1, #3
87800cb0:	f7ff beec 	b.w	87800a8c <gpio_pinwrite>

87800cb4 <bsp_led_switch>:
87800cb4:	2801      	cmp	r0, #1
87800cb6:	d009      	beq.n	87800ccc <bsp_led_switch+0x18>
87800cb8:	b100      	cbz	r0, 87800cbc <bsp_led_switch+0x8>
87800cba:	4770      	bx	lr
87800cbc:	f44f 4040 	mov.w	r0, #49152	; 0xc000
87800cc0:	2201      	movs	r2, #1
87800cc2:	f2c0 2009 	movt	r0, #521	; 0x209
87800cc6:	2103      	movs	r1, #3
87800cc8:	f7ff bee0 	b.w	87800a8c <gpio_pinwrite>
87800ccc:	f44f 4040 	mov.w	r0, #49152	; 0xc000
87800cd0:	2200      	movs	r2, #0
87800cd2:	f2c0 2009 	movt	r0, #521	; 0x209
87800cd6:	2103      	movs	r1, #3
87800cd8:	f7ff bed8 	b.w	87800a8c <gpio_pinwrite>

87800cdc <bsp_key_init>:
87800cdc:	218c      	movs	r1, #140	; 0x8c
87800cde:	b530      	push	{r4, r5, lr}
87800ce0:	f2c0 210e 	movt	r1, #526	; 0x20e
87800ce4:	b085      	sub	sp, #20
87800ce6:	2005      	movs	r0, #5
87800ce8:	f44f 7346 	mov.w	r3, #792	; 0x318
87800cec:	6008      	str	r0, [r1, #0]
87800cee:	f2c0 230e 	movt	r3, #526	; 0x20e
87800cf2:	aa04      	add	r2, sp, #16
87800cf4:	f24f 0580 	movw	r5, #61568	; 0xf080
87800cf8:	2400      	movs	r4, #0
87800cfa:	f44f 4040 	mov.w	r0, #49152	; 0xc000
87800cfe:	601d      	str	r5, [r3, #0]
87800d00:	f2c0 2009 	movt	r0, #521	; 0x209
87800d04:	f842 4d0c 	str.w	r4, [r2, #-12]!
87800d08:	2112      	movs	r1, #18
87800d0a:	f7ff fe9b 	bl	87800a44 <gpio_init>
87800d0e:	b005      	add	sp, #20
87800d10:	bd30      	pop	{r4, r5, pc}
87800d12:	bf00      	nop

87800d14 <bsp_key_extint_request>:
87800d14:	228c      	movs	r2, #140	; 0x8c
87800d16:	f44f 7346 	mov.w	r3, #792	; 0x318
87800d1a:	b5f0      	push	{r4, r5, r6, r7, lr}
87800d1c:	f2c0 220e 	movt	r2, #526	; 0x20e
87800d20:	2505      	movs	r5, #5
87800d22:	f2c0 230e 	movt	r3, #526	; 0x20e
87800d26:	f24f 0180 	movw	r1, #61568	; 0xf080
87800d2a:	f44f 4440 	mov.w	r4, #49152	; 0xc000
87800d2e:	b085      	sub	sp, #20
87800d30:	6015      	str	r5, [r2, #0]
87800d32:	f2c0 2409 	movt	r4, #521	; 0x209
87800d36:	6019      	str	r1, [r3, #0]
87800d38:	2304      	movs	r3, #4
87800d3a:	4606      	mov	r6, r0
87800d3c:	eb0d 0203 	add.w	r2, sp, r3
87800d40:	4620      	mov	r0, r4
87800d42:	2500      	movs	r5, #0
87800d44:	2112      	movs	r1, #18
87800d46:	2701      	movs	r7, #1
87800d48:	9303      	str	r3, [sp, #12]
87800d4a:	9501      	str	r5, [sp, #4]
87800d4c:	f88d 7008 	strb.w	r7, [sp, #8]
87800d50:	f7ff fe78 	bl	87800a44 <gpio_init>
87800d54:	f7ff ff04 	bl	87800b60 <system_int_init>
87800d58:	462a      	mov	r2, r5
87800d5a:	4631      	mov	r1, r6
87800d5c:	2063      	movs	r0, #99	; 0x63
87800d5e:	f7ff ff4d 	bl	87800bfc <gic_request_irq>
87800d62:	4620      	mov	r0, r4
87800d64:	2112      	movs	r1, #18
87800d66:	f7ff fedd 	bl	87800b24 <gpio_int_enable>
87800d6a:	ee9f 3f10 	mrc	15, 4, r3, cr15, cr0, {0}
87800d6e:	0c1b      	lsrs	r3, r3, #16
87800d70:	f241 120c 	movw	r2, #4364	; 0x110c
87800d74:	2108      	movs	r1, #8
87800d76:	041b      	lsls	r3, r3, #16
87800d78:	5099      	str	r1, [r3, r2]
87800d7a:	b005      	add	sp, #20
87800d7c:	bdf0      	pop	{r4, r5, r6, r7, pc}
87800d7e:	bf00      	nop

87800d80 <bsp_key_getvalue>:
87800d80:	b538      	push	{r3, r4, r5, lr}
87800d82:	f642 24d8 	movw	r4, #10968	; 0x2ad8
87800d86:	f2c8 7480 	movt	r4, #34688	; 0x8780
87800d8a:	7823      	ldrb	r3, [r4, #0]
87800d8c:	2b01      	cmp	r3, #1
87800d8e:	d00b      	beq.n	87800da8 <bsp_key_getvalue+0x28>
87800d90:	f44f 4040 	mov.w	r0, #49152	; 0xc000
87800d94:	2112      	movs	r1, #18
87800d96:	f2c0 2009 	movt	r0, #521	; 0x209
87800d9a:	f7ff fe71 	bl	87800a80 <gpio_pinread>
87800d9e:	2801      	cmp	r0, #1
87800da0:	bf08      	it	eq
87800da2:	7020      	strbeq	r0, [r4, #0]
87800da4:	2000      	movs	r0, #0
87800da6:	bd38      	pop	{r3, r4, r5, pc}
87800da8:	f44f 4040 	mov.w	r0, #49152	; 0xc000
87800dac:	2112      	movs	r1, #18
87800dae:	f2c0 2009 	movt	r0, #521	; 0x209
87800db2:	f7ff fe65 	bl	87800a80 <gpio_pinread>
87800db6:	4605      	mov	r5, r0
87800db8:	2800      	cmp	r0, #0
87800dba:	d1e9      	bne.n	87800d90 <bsp_key_getvalue+0x10>
87800dbc:	200a      	movs	r0, #10
87800dbe:	f000 f80d 	bl	87800ddc <delay_ms>
87800dc2:	f44f 4040 	mov.w	r0, #49152	; 0xc000
87800dc6:	2112      	movs	r1, #18
87800dc8:	f2c0 2009 	movt	r0, #521	; 0x209
87800dcc:	7025      	strb	r5, [r4, #0]
87800dce:	f7ff fe57 	bl	87800a80 <gpio_pinread>
87800dd2:	fab0 f080 	clz	r0, r0
87800dd6:	0940      	lsrs	r0, r0, #5
87800dd8:	bd38      	pop	{r3, r4, r5, pc}
87800dda:	bf00      	nop

87800ddc <delay_ms>:
87800ddc:	4770      	bx	lr
87800dde:	bf00      	nop

87800de0 <epit_timer>:
87800de0:	b5f8      	push	{r3, r4, r5, r6, r7, lr}
87800de2:	4605      	mov	r5, r0
87800de4:	f44f 70e8 	mov.w	r0, #464	; 0x1d0
87800de8:	4616      	mov	r6, r2
87800dea:	f2c0 0001 	movt	r0, #1
87800dee:	460f      	mov	r7, r1
87800df0:	f001 fd1e 	bl	87802830 <__aeabi_uidiv>
87800df4:	210e      	movs	r1, #14
87800df6:	fb05 f000 	mul.w	r0, r5, r0
87800dfa:	f2c0 1100 	movt	r1, #256	; 0x100
87800dfe:	2400      	movs	r4, #0
87800e00:	ea41 1107 	orr.w	r1, r1, r7, lsl #4
87800e04:	2208      	movs	r2, #8
87800e06:	230c      	movs	r3, #12
87800e08:	2500      	movs	r5, #0
87800e0a:	f2c0 230d 	movt	r3, #525	; 0x20d
87800e0e:	f2c0 240d 	movt	r4, #525	; 0x20d
87800e12:	f2c0 220d 	movt	r2, #525	; 0x20d
87800e16:	6025      	str	r5, [r4, #0]
87800e18:	6021      	str	r1, [r4, #0]
87800e1a:	6010      	str	r0, [r2, #0]
87800e1c:	601d      	str	r5, [r3, #0]
87800e1e:	f7ff fe9f 	bl	87800b60 <system_int_init>
87800e22:	462a      	mov	r2, r5
87800e24:	4631      	mov	r1, r6
87800e26:	2058      	movs	r0, #88	; 0x58
87800e28:	f7ff fee8 	bl	87800bfc <gic_request_irq>
87800e2c:	ee9f 3f10 	mrc	15, 4, r3, cr15, cr0, {0}
87800e30:	0c1b      	lsrs	r3, r3, #16
87800e32:	f241 1208 	movw	r2, #4360	; 0x1108
87800e36:	f04f 7180 	mov.w	r1, #16777216	; 0x1000000
87800e3a:	041b      	lsls	r3, r3, #16
87800e3c:	5099      	str	r1, [r3, r2]
87800e3e:	6823      	ldr	r3, [r4, #0]
87800e40:	f043 0301 	orr.w	r3, r3, #1
87800e44:	6023      	str	r3, [r4, #0]
87800e46:	bdf8      	pop	{r3, r4, r5, r6, r7, pc}

87800e48 <epti_clear_interrupt>:
87800e48:	2304      	movs	r3, #4
87800e4a:	2201      	movs	r2, #1
87800e4c:	f2c0 230d 	movt	r3, #525	; 0x20d
87800e50:	601a      	str	r2, [r3, #0]
87800e52:	4770      	bx	lr

87800e54 <epit_getstate>:
87800e54:	2304      	movs	r3, #4
87800e56:	f2c0 230d 	movt	r3, #525	; 0x20d
87800e5a:	6818      	ldr	r0, [r3, #0]
87800e5c:	4770      	bx	lr
87800e5e:	bf00      	nop

87800e60 <uart1_tx_irqhandle>:
87800e60:	b410      	push	{r4}
87800e62:	ee9f 3f10 	mrc	15, 4, r3, cr15, cr0, {0}
87800e66:	f642 22dc 	movw	r2, #10972	; 0x2adc
87800e6a:	0c1b      	lsrs	r3, r3, #16
87800e6c:	f2c8 7280 	movt	r2, #34688	; 0x8780
87800e70:	6812      	ldr	r2, [r2, #0]
87800e72:	041b      	lsls	r3, r3, #16
87800e74:	f241 1184 	movw	r1, #4484	; 0x1184
87800e78:	f04f 6480 	mov.w	r4, #67108864	; 0x4000000
87800e7c:	505c      	str	r4, [r3, r1]
87800e7e:	f8d2 3094 	ldr.w	r3, [r2, #148]	; 0x94
87800e82:	681b      	ldr	r3, [r3, #0]
87800e84:	049b      	lsls	r3, r3, #18
87800e86:	d50b      	bpl.n	87800ea0 <uart1_tx_irqhandle+0x40>
87800e88:	7803      	ldrb	r3, [r0, #0]
87800e8a:	b14b      	cbz	r3, 87800ea0 <uart1_tx_irqhandle+0x40>
87800e8c:	210d      	movs	r1, #13
87800e8e:	6413      	str	r3, [r2, #64]	; 0x40
87800e90:	7803      	ldrb	r3, [r0, #0]
87800e92:	2b0a      	cmp	r3, #10
87800e94:	bf08      	it	eq
87800e96:	6411      	streq	r1, [r2, #64]	; 0x40
87800e98:	f810 3f01 	ldrb.w	r3, [r0, #1]!
87800e9c:	2b00      	cmp	r3, #0
87800e9e:	d1f6      	bne.n	87800e8e <uart1_tx_irqhandle+0x2e>
87800ea0:	ee9f 3f10 	mrc	15, 4, r3, cr15, cr0, {0}
87800ea4:	0c1b      	lsrs	r3, r3, #16
87800ea6:	f241 1204 	movw	r2, #4356	; 0x1104
87800eaa:	f04f 6180 	mov.w	r1, #67108864	; 0x4000000
87800eae:	041b      	lsls	r3, r3, #16
87800eb0:	5099      	str	r1, [r3, r2]
87800eb2:	f85d 4b04 	ldr.w	r4, [sp], #4
87800eb6:	4770      	bx	lr

87800eb8 <bsp_uart_init.constprop.0>:
87800eb8:	f642 23dc 	movw	r3, #10972	; 0x2adc
87800ebc:	2200      	movs	r2, #0
87800ebe:	f2c8 7380 	movt	r3, #34688	; 0x8780
87800ec2:	f2c0 2202 	movt	r2, #514	; 0x202
87800ec6:	b470      	push	{r4, r5, r6}
87800ec8:	f44f 4134 	mov.w	r1, #46080	; 0xb400
87800ecc:	601a      	str	r2, [r3, #0]
87800ece:	f44f 32e1 	mov.w	r2, #115200	; 0x1c200
87800ed2:	f2c0 41c4 	movt	r1, #1220	; 0x4c4
87800ed6:	2684      	movs	r6, #132	; 0x84
87800ed8:	605a      	str	r2, [r3, #4]
87800eda:	2488      	movs	r4, #136	; 0x88
87800edc:	f44f 7044 	mov.w	r0, #784	; 0x310
87800ee0:	f44f 7245 	mov.w	r2, #788	; 0x314
87800ee4:	6099      	str	r1, [r3, #8]
87800ee6:	f2c0 220e 	movt	r2, #526	; 0x20e
87800eea:	2500      	movs	r5, #0
87800eec:	f241 01b0 	movw	r1, #4272	; 0x10b0
87800ef0:	f2c0 260e 	movt	r6, #526	; 0x20e
87800ef4:	f2c0 240e 	movt	r4, #526	; 0x20e
87800ef8:	f2c0 200e 	movt	r0, #526	; 0x20e
87800efc:	6035      	str	r5, [r6, #0]
87800efe:	6025      	str	r5, [r4, #0]
87800f00:	6001      	str	r1, [r0, #0]
87800f02:	6011      	str	r1, [r2, #0]
87800f04:	681b      	ldr	r3, [r3, #0]
87800f06:	f8d3 2080 	ldr.w	r2, [r3, #128]	; 0x80
87800f0a:	f022 0201 	bic.w	r2, r2, #1
87800f0e:	f8c3 2080 	str.w	r2, [r3, #128]	; 0x80
87800f12:	f8d3 2084 	ldr.w	r2, [r3, #132]	; 0x84
87800f16:	f022 0201 	bic.w	r2, r2, #1
87800f1a:	f8c3 2084 	str.w	r2, [r3, #132]	; 0x84
87800f1e:	f8d3 2084 	ldr.w	r2, [r3, #132]	; 0x84
87800f22:	07d2      	lsls	r2, r2, #31
87800f24:	d5fb      	bpl.n	87800f1e <bsp_uart_init.constprop.0+0x66>
87800f26:	2100      	movs	r1, #0
87800f28:	2001      	movs	r0, #1
87800f2a:	f44f 62e0 	mov.w	r2, #1792	; 0x700
87800f2e:	f8c3 1080 	str.w	r1, [r3, #128]	; 0x80
87800f32:	f44f 4500 	mov.w	r5, #32768	; 0x8000
87800f36:	f8c3 0084 	str.w	r0, [r3, #132]	; 0x84
87800f3a:	f640 0401 	movw	r4, #2049	; 0x801
87800f3e:	f8c3 2088 	str.w	r2, [r3, #136]	; 0x88
87800f42:	202b      	movs	r0, #43	; 0x2b
87800f44:	2260      	movs	r2, #96	; 0x60
87800f46:	f8c3 508c 	str.w	r5, [r3, #140]	; 0x8c
87800f4a:	f44f 7620 	mov.w	r6, #640	; 0x280
87800f4e:	f8c3 4090 	str.w	r4, [r3, #144]	; 0x90
87800f52:	2547      	movs	r5, #71	; 0x47
87800f54:	f8c3 009c 	str.w	r0, [r3, #156]	; 0x9c
87800f58:	f640 4434 	movw	r4, #3124	; 0xc34
87800f5c:	f8c3 10a0 	str.w	r1, [r3, #160]	; 0xa0
87800f60:	f8c3 10b0 	str.w	r1, [r3, #176]	; 0xb0
87800f64:	f8c3 20b4 	str.w	r2, [r3, #180]	; 0xb4
87800f68:	f8c3 10b8 	str.w	r1, [r3, #184]	; 0xb8
87800f6c:	f8d3 2084 	ldr.w	r2, [r3, #132]	; 0x84
87800f70:	f8d3 0088 	ldr.w	r0, [r3, #136]	; 0x88
87800f74:	f8c3 1080 	str.w	r1, [r3, #128]	; 0x80
87800f78:	f442 4282 	orr.w	r2, r2, #16640	; 0x4100
87800f7c:	f042 0227 	orr.w	r2, r2, #39	; 0x27
87800f80:	f040 0004 	orr.w	r0, r0, #4
87800f84:	f8c3 2084 	str.w	r2, [r3, #132]	; 0x84
87800f88:	f8c3 0088 	str.w	r0, [r3, #136]	; 0x88
87800f8c:	f8c3 6090 	str.w	r6, [r3, #144]	; 0x90
87800f90:	f8c3 50a4 	str.w	r5, [r3, #164]	; 0xa4
87800f94:	f8c3 40a8 	str.w	r4, [r3, #168]	; 0xa8
87800f98:	f8d3 2080 	ldr.w	r2, [r3, #128]	; 0x80
87800f9c:	f042 0201 	orr.w	r2, r2, #1
87800fa0:	f8c3 2080 	str.w	r2, [r3, #128]	; 0x80
87800fa4:	bc70      	pop	{r4, r5, r6}
87800fa6:	4770      	bx	lr

87800fa8 <find_uartid>:
87800fa8:	b1f8      	cbz	r0, 87800fea <find_uartid+0x42>
87800faa:	2300      	movs	r3, #0
87800fac:	f2c0 2302 	movt	r3, #514	; 0x202
87800fb0:	4298      	cmp	r0, r3
87800fb2:	d01b      	beq.n	87800fec <find_uartid+0x44>
87800fb4:	f44f 4300 	mov.w	r3, #32768	; 0x8000
87800fb8:	f2c0 231e 	movt	r3, #542	; 0x21e
87800fbc:	4298      	cmp	r0, r3
87800fbe:	d017      	beq.n	87800ff0 <find_uartid+0x48>
87800fc0:	f44f 4340 	mov.w	r3, #49152	; 0xc000
87800fc4:	f2c0 231e 	movt	r3, #542	; 0x21e
87800fc8:	4298      	cmp	r0, r3
87800fca:	d013      	beq.n	87800ff4 <find_uartid+0x4c>
87800fcc:	2300      	movs	r3, #0
87800fce:	f2c0 231f 	movt	r3, #543	; 0x21f
87800fd2:	4298      	cmp	r0, r3
87800fd4:	d008      	beq.n	87800fe8 <find_uartid+0x40>
87800fd6:	f44f 4380 	mov.w	r3, #16384	; 0x4000
87800fda:	f2c0 231f 	movt	r3, #543	; 0x21f
87800fde:	4298      	cmp	r0, r3
87800fe0:	bf14      	ite	ne
87800fe2:	2006      	movne	r0, #6
87800fe4:	2005      	moveq	r0, #5
87800fe6:	4770      	bx	lr
87800fe8:	2004      	movs	r0, #4
87800fea:	4770      	bx	lr
87800fec:	2001      	movs	r0, #1
87800fee:	4770      	bx	lr
87800ff0:	2002      	movs	r0, #2
87800ff2:	4770      	bx	lr
87800ff4:	2003      	movs	r0, #3
87800ff6:	4770      	bx	lr

87800ff8 <log>:
87800ff8:	b40f      	push	{r0, r1, r2, r3}
87800ffa:	f44f 7280 	mov.w	r2, #256	; 0x100
87800ffe:	b530      	push	{r4, r5, lr}
87801000:	b0c1      	sub	sp, #260	; 0x104
87801002:	2100      	movs	r1, #0
87801004:	4668      	mov	r0, sp
87801006:	f642 24dc 	movw	r4, #10972	; 0x2adc
8780100a:	f000 fa2d 	bl	87801468 <memset>
8780100e:	f2c8 7480 	movt	r4, #34688	; 0x8780
87801012:	4668      	mov	r0, sp
87801014:	aa45      	add	r2, sp, #276	; 0x114
87801016:	9944      	ldr	r1, [sp, #272]	; 0x110
87801018:	f001 f91e 	bl	87802258 <vsprintf>
8780101c:	7b23      	ldrb	r3, [r4, #12]
8780101e:	2b01      	cmp	r3, #1
87801020:	d021      	beq.n	87801066 <log+0x6e>
87801022:	6822      	ldr	r2, [r4, #0]
87801024:	250d      	movs	r5, #13
87801026:	466c      	mov	r4, sp
87801028:	f814 1b01 	ldrb.w	r1, [r4], #1
8780102c:	b1b1      	cbz	r1, 8780105c <log+0x64>
8780102e:	f8d2 3098 	ldr.w	r3, [r2, #152]	; 0x98
87801032:	4608      	mov	r0, r1
87801034:	071b      	lsls	r3, r3, #28
87801036:	d403      	bmi.n	87801040 <log+0x48>
87801038:	f8d2 3098 	ldr.w	r3, [r2, #152]	; 0x98
8780103c:	071b      	lsls	r3, r3, #28
8780103e:	d5fb      	bpl.n	87801038 <log+0x40>
87801040:	290a      	cmp	r1, #10
87801042:	6410      	str	r0, [r2, #64]	; 0x40
87801044:	d1f0      	bne.n	87801028 <log+0x30>
87801046:	f8d2 3098 	ldr.w	r3, [r2, #152]	; 0x98
8780104a:	210d      	movs	r1, #13
8780104c:	4608      	mov	r0, r1
8780104e:	071b      	lsls	r3, r3, #28
87801050:	d5f2      	bpl.n	87801038 <log+0x40>
87801052:	6415      	str	r5, [r2, #64]	; 0x40
87801054:	f814 1b01 	ldrb.w	r1, [r4], #1
87801058:	2900      	cmp	r1, #0
8780105a:	d1e8      	bne.n	8780102e <log+0x36>
8780105c:	b041      	add	sp, #260	; 0x104
8780105e:	e8bd 4030 	ldmia.w	sp!, {r4, r5, lr}
87801062:	b004      	add	sp, #16
87801064:	4770      	bx	lr
87801066:	f7ff ff27 	bl	87800eb8 <bsp_uart_init.constprop.0>
8780106a:	2300      	movs	r3, #0
8780106c:	7323      	strb	r3, [r4, #12]
8780106e:	e7d8      	b.n	87801022 <log+0x2a>

87801070 <scanf_log>:
87801070:	b40f      	push	{r0, r1, r2, r3}
87801072:	b570      	push	{r4, r5, r6, lr}
87801074:	f642 24dc 	movw	r4, #10972	; 0x2adc
87801078:	f2c8 7480 	movt	r4, #34688	; 0x8780
8780107c:	b0c0      	sub	sp, #256	; 0x100
8780107e:	7b23      	ldrb	r3, [r4, #12]
87801080:	2b01      	cmp	r3, #1
87801082:	d021      	beq.n	878010c8 <scanf_log+0x58>
87801084:	6822      	ldr	r2, [r4, #0]
87801086:	466c      	mov	r4, sp
87801088:	4621      	mov	r1, r4
8780108a:	f8d2 3098 	ldr.w	r3, [r2, #152]	; 0x98
8780108e:	1b0d      	subs	r5, r1, r4
87801090:	07d8      	lsls	r0, r3, #31
87801092:	d403      	bmi.n	8780109c <scanf_log+0x2c>
87801094:	f8d2 3098 	ldr.w	r3, [r2, #152]	; 0x98
87801098:	07db      	lsls	r3, r3, #31
8780109a:	d5fb      	bpl.n	87801094 <scanf_log+0x24>
8780109c:	6c13      	ldr	r3, [r2, #64]	; 0x40
8780109e:	b2db      	uxtb	r3, r3
878010a0:	2b0d      	cmp	r3, #13
878010a2:	bf18      	it	ne
878010a4:	2b0a      	cmpne	r3, #10
878010a6:	d002      	beq.n	878010ae <scanf_log+0x3e>
878010a8:	f801 3b01 	strb.w	r3, [r1], #1
878010ac:	e7ed      	b.n	8780108a <scanf_log+0x1a>
878010ae:	2600      	movs	r6, #0
878010b0:	4620      	mov	r0, r4
878010b2:	aa45      	add	r2, sp, #276	; 0x114
878010b4:	9944      	ldr	r1, [sp, #272]	; 0x110
878010b6:	5566      	strb	r6, [r4, r5]
878010b8:	f001 f8e0 	bl	8780227c <vsscanf>
878010bc:	4630      	mov	r0, r6
878010be:	b040      	add	sp, #256	; 0x100
878010c0:	e8bd 4070 	ldmia.w	sp!, {r4, r5, r6, lr}
878010c4:	b004      	add	sp, #16
878010c6:	4770      	bx	lr
878010c8:	f7ff fef6 	bl	87800eb8 <bsp_uart_init.constprop.0>
878010cc:	2300      	movs	r3, #0
878010ce:	7323      	strb	r3, [r4, #12]
878010d0:	e7d8      	b.n	87801084 <scanf_log+0x14>
878010d2:	bf00      	nop

878010d4 <log_intr>:
878010d4:	b40f      	push	{r0, r1, r2, r3}
878010d6:	f44f 7280 	mov.w	r2, #256	; 0x100
878010da:	b510      	push	{r4, lr}
878010dc:	b0c0      	sub	sp, #256	; 0x100
878010de:	2100      	movs	r1, #0
878010e0:	4668      	mov	r0, sp
878010e2:	f642 24dc 	movw	r4, #10972	; 0x2adc
878010e6:	f000 f9bf 	bl	87801468 <memset>
878010ea:	f2c8 7480 	movt	r4, #34688	; 0x8780
878010ee:	4668      	mov	r0, sp
878010f0:	aa43      	add	r2, sp, #268	; 0x10c
878010f2:	9942      	ldr	r1, [sp, #264]	; 0x108
878010f4:	f001 f8b0 	bl	87802258 <vsprintf>
878010f8:	7b23      	ldrb	r3, [r4, #12]
878010fa:	2b01      	cmp	r3, #1
878010fc:	d01c      	beq.n	87801138 <log_intr+0x64>
878010fe:	f640 6161 	movw	r1, #3681	; 0xe61
87801102:	466a      	mov	r2, sp
87801104:	f2c8 7180 	movt	r1, #34688	; 0x8780
87801108:	203a      	movs	r0, #58	; 0x3a
8780110a:	f7ff fd77 	bl	87800bfc <gic_request_irq>
8780110e:	6822      	ldr	r2, [r4, #0]
87801110:	f8d2 3080 	ldr.w	r3, [r2, #128]	; 0x80
87801114:	f043 0340 	orr.w	r3, r3, #64	; 0x40
87801118:	f8c2 3080 	str.w	r3, [r2, #128]	; 0x80
8780111c:	ee9f 3f10 	mrc	15, 4, r3, cr15, cr0, {0}
87801120:	0c1b      	lsrs	r3, r3, #16
87801122:	f241 1204 	movw	r2, #4356	; 0x1104
87801126:	f04f 6180 	mov.w	r1, #67108864	; 0x4000000
8780112a:	041b      	lsls	r3, r3, #16
8780112c:	5099      	str	r1, [r3, r2]
8780112e:	b040      	add	sp, #256	; 0x100
87801130:	e8bd 4010 	ldmia.w	sp!, {r4, lr}
87801134:	b004      	add	sp, #16
87801136:	4770      	bx	lr
87801138:	f7ff febe 	bl	87800eb8 <bsp_uart_init.constprop.0>
8780113c:	2300      	movs	r3, #0
8780113e:	7323      	strb	r3, [r4, #12]
87801140:	e7dd      	b.n	878010fe <log_intr+0x2a>
87801142:	bf00      	nop

87801144 <raise>:
87801144:	4770      	bx	lr
87801146:	bf00      	nop

87801148 <strnicmp>:
87801148:	b332      	cbz	r2, 87801198 <strnicmp+0x50>
8780114a:	b5f0      	push	{r4, r5, r6, r7, lr}
8780114c:	f642 25ec 	movw	r5, #10988	; 0x2aec
87801150:	1e44      	subs	r4, r0, #1
87801152:	eb01 0e02 	add.w	lr, r1, r2
87801156:	f2c8 7580 	movt	r5, #34688	; 0x8780
8780115a:	e006      	b.n	8780116a <strnicmp+0x22>
8780115c:	fa5f f08c 	uxtb.w	r0, ip
87801160:	b9b3      	cbnz	r3, 87801190 <strnicmp+0x48>
87801162:	4282      	cmp	r2, r0
87801164:	d11c      	bne.n	878011a0 <strnicmp+0x58>
87801166:	4571      	cmp	r1, lr
87801168:	d014      	beq.n	87801194 <strnicmp+0x4c>
8780116a:	f814 0f01 	ldrb.w	r0, [r4, #1]!
8780116e:	f811 2b01 	ldrb.w	r2, [r1], #1
87801172:	b198      	cbz	r0, 8780119c <strnicmp+0x54>
87801174:	b17a      	cbz	r2, 87801196 <strnicmp+0x4e>
87801176:	4290      	cmp	r0, r2
87801178:	d0f5      	beq.n	87801166 <strnicmp+0x1e>
8780117a:	5c2e      	ldrb	r6, [r5, r0]
8780117c:	f102 0720 	add.w	r7, r2, #32
87801180:	5cab      	ldrb	r3, [r5, r2]
87801182:	f100 0c20 	add.w	ip, r0, #32
87801186:	07f6      	lsls	r6, r6, #31
87801188:	f003 0301 	and.w	r3, r3, #1
8780118c:	d4e6      	bmi.n	8780115c <strnicmp+0x14>
8780118e:	b13b      	cbz	r3, 878011a0 <strnicmp+0x58>
87801190:	b2fa      	uxtb	r2, r7
87801192:	e7e6      	b.n	87801162 <strnicmp+0x1a>
87801194:	2000      	movs	r0, #0
87801196:	bdf0      	pop	{r4, r5, r6, r7, pc}
87801198:	4610      	mov	r0, r2
8780119a:	4770      	bx	lr
8780119c:	4250      	negs	r0, r2
8780119e:	bdf0      	pop	{r4, r5, r6, r7, pc}
878011a0:	1a80      	subs	r0, r0, r2
878011a2:	bdf0      	pop	{r4, r5, r6, r7, pc}

878011a4 <strcpy>:
878011a4:	1e42      	subs	r2, r0, #1
878011a6:	f811 3b01 	ldrb.w	r3, [r1], #1
878011aa:	f802 3f01 	strb.w	r3, [r2, #1]!
878011ae:	2b00      	cmp	r3, #0
878011b0:	d1f9      	bne.n	878011a6 <strcpy+0x2>
878011b2:	4770      	bx	lr

878011b4 <strncpy>:
878011b4:	b410      	push	{r4}
878011b6:	440a      	add	r2, r1
878011b8:	1e44      	subs	r4, r0, #1
878011ba:	e004      	b.n	878011c6 <strncpy+0x12>
878011bc:	f811 3b01 	ldrb.w	r3, [r1], #1
878011c0:	f804 3f01 	strb.w	r3, [r4, #1]!
878011c4:	b10b      	cbz	r3, 878011ca <strncpy+0x16>
878011c6:	4291      	cmp	r1, r2
878011c8:	d1f8      	bne.n	878011bc <strncpy+0x8>
878011ca:	f85d 4b04 	ldr.w	r4, [sp], #4
878011ce:	4770      	bx	lr

878011d0 <strcat>:
878011d0:	7803      	ldrb	r3, [r0, #0]
878011d2:	b163      	cbz	r3, 878011ee <strcat+0x1e>
878011d4:	4603      	mov	r3, r0
878011d6:	f813 2f01 	ldrb.w	r2, [r3, #1]!
878011da:	2a00      	cmp	r2, #0
878011dc:	d1fb      	bne.n	878011d6 <strcat+0x6>
878011de:	3b01      	subs	r3, #1
878011e0:	f811 2b01 	ldrb.w	r2, [r1], #1
878011e4:	f803 2f01 	strb.w	r2, [r3, #1]!
878011e8:	2a00      	cmp	r2, #0
878011ea:	d1f9      	bne.n	878011e0 <strcat+0x10>
878011ec:	4770      	bx	lr
878011ee:	4603      	mov	r3, r0
878011f0:	e7f5      	b.n	878011de <strcat+0xe>
878011f2:	bf00      	nop

878011f4 <strncat>:
878011f4:	b1a2      	cbz	r2, 87801220 <strncat+0x2c>
878011f6:	7803      	ldrb	r3, [r0, #0]
878011f8:	b430      	push	{r4, r5}
878011fa:	b1b3      	cbz	r3, 8780122a <strncat+0x36>
878011fc:	4603      	mov	r3, r0
878011fe:	f813 4f01 	ldrb.w	r4, [r3, #1]!
87801202:	2c00      	cmp	r4, #0
87801204:	d1fb      	bne.n	878011fe <strncat+0xa>
87801206:	441a      	add	r2, r3
87801208:	e001      	b.n	8780120e <strncat+0x1a>
8780120a:	4293      	cmp	r3, r2
8780120c:	d009      	beq.n	87801222 <strncat+0x2e>
8780120e:	f811 4b01 	ldrb.w	r4, [r1], #1
87801212:	461d      	mov	r5, r3
87801214:	f803 4b01 	strb.w	r4, [r3], #1
87801218:	2c00      	cmp	r4, #0
8780121a:	d1f6      	bne.n	8780120a <strncat+0x16>
8780121c:	bc30      	pop	{r4, r5}
8780121e:	4770      	bx	lr
87801220:	4770      	bx	lr
87801222:	2300      	movs	r3, #0
87801224:	706b      	strb	r3, [r5, #1]
87801226:	bc30      	pop	{r4, r5}
87801228:	4770      	bx	lr
8780122a:	4603      	mov	r3, r0
8780122c:	e7eb      	b.n	87801206 <strncat+0x12>
8780122e:	bf00      	nop

87801230 <strcmp>:
87801230:	1e42      	subs	r2, r0, #1
87801232:	e000      	b.n	87801236 <strcmp+0x6>
87801234:	b148      	cbz	r0, 8780124a <strcmp+0x1a>
87801236:	f812 0f01 	ldrb.w	r0, [r2, #1]!
8780123a:	f811 3b01 	ldrb.w	r3, [r1], #1
8780123e:	1ac3      	subs	r3, r0, r3
87801240:	b25b      	sxtb	r3, r3
87801242:	2b00      	cmp	r3, #0
87801244:	d0f6      	beq.n	87801234 <strcmp+0x4>
87801246:	4618      	mov	r0, r3
87801248:	4770      	bx	lr
8780124a:	4770      	bx	lr

8780124c <strncmp>:
8780124c:	b1e2      	cbz	r2, 87801288 <strncmp+0x3c>
8780124e:	b430      	push	{r4, r5}
87801250:	1c4c      	adds	r4, r1, #1
87801252:	7805      	ldrb	r5, [r0, #0]
87801254:	780b      	ldrb	r3, [r1, #0]
87801256:	1aeb      	subs	r3, r5, r3
87801258:	b25b      	sxtb	r3, r3
8780125a:	b97b      	cbnz	r3, 8780127c <strncmp+0x30>
8780125c:	b15d      	cbz	r5, 87801276 <strncmp+0x2a>
8780125e:	4411      	add	r1, r2
87801260:	e007      	b.n	87801272 <strncmp+0x26>
87801262:	f810 2f01 	ldrb.w	r2, [r0, #1]!
87801266:	f814 3b01 	ldrb.w	r3, [r4], #1
8780126a:	1ad3      	subs	r3, r2, r3
8780126c:	b25b      	sxtb	r3, r3
8780126e:	b92b      	cbnz	r3, 8780127c <strncmp+0x30>
87801270:	b13a      	cbz	r2, 87801282 <strncmp+0x36>
87801272:	42a1      	cmp	r1, r4
87801274:	d1f5      	bne.n	87801262 <strncmp+0x16>
87801276:	2000      	movs	r0, #0
87801278:	bc30      	pop	{r4, r5}
8780127a:	4770      	bx	lr
8780127c:	4618      	mov	r0, r3
8780127e:	bc30      	pop	{r4, r5}
87801280:	4770      	bx	lr
87801282:	4610      	mov	r0, r2
87801284:	bc30      	pop	{r4, r5}
87801286:	4770      	bx	lr
87801288:	4610      	mov	r0, r2
8780128a:	4770      	bx	lr

8780128c <strchr>:
8780128c:	7803      	ldrb	r3, [r0, #0]
8780128e:	b2c9      	uxtb	r1, r1
87801290:	428b      	cmp	r3, r1
87801292:	d006      	beq.n	878012a2 <strchr+0x16>
87801294:	b123      	cbz	r3, 878012a0 <strchr+0x14>
87801296:	f810 3f01 	ldrb.w	r3, [r0, #1]!
8780129a:	428b      	cmp	r3, r1
8780129c:	d1fa      	bne.n	87801294 <strchr+0x8>
8780129e:	4770      	bx	lr
878012a0:	4618      	mov	r0, r3
878012a2:	4770      	bx	lr

878012a4 <strrchr>:
878012a4:	7803      	ldrb	r3, [r0, #0]
878012a6:	b193      	cbz	r3, 878012ce <strrchr+0x2a>
878012a8:	4603      	mov	r3, r0
878012aa:	f813 2f01 	ldrb.w	r2, [r3, #1]!
878012ae:	2a00      	cmp	r2, #0
878012b0:	d1fb      	bne.n	878012aa <strrchr+0x6>
878012b2:	b2c9      	uxtb	r1, r1
878012b4:	2200      	movs	r2, #0
878012b6:	e003      	b.n	878012c0 <strrchr+0x1c>
878012b8:	3b01      	subs	r3, #1
878012ba:	4298      	cmp	r0, r3
878012bc:	d804      	bhi.n	878012c8 <strrchr+0x24>
878012be:	781a      	ldrb	r2, [r3, #0]
878012c0:	428a      	cmp	r2, r1
878012c2:	d1f9      	bne.n	878012b8 <strrchr+0x14>
878012c4:	4618      	mov	r0, r3
878012c6:	4770      	bx	lr
878012c8:	2300      	movs	r3, #0
878012ca:	4618      	mov	r0, r3
878012cc:	4770      	bx	lr
878012ce:	4603      	mov	r3, r0
878012d0:	e7ef      	b.n	878012b2 <strrchr+0xe>
878012d2:	bf00      	nop

878012d4 <strlen>:
878012d4:	7803      	ldrb	r3, [r0, #0]
878012d6:	4602      	mov	r2, r0
878012d8:	b12b      	cbz	r3, 878012e6 <strlen+0x12>
878012da:	f810 3f01 	ldrb.w	r3, [r0, #1]!
878012de:	2b00      	cmp	r3, #0
878012e0:	d1fb      	bne.n	878012da <strlen+0x6>
878012e2:	1a80      	subs	r0, r0, r2
878012e4:	4770      	bx	lr
878012e6:	4618      	mov	r0, r3
878012e8:	4770      	bx	lr
878012ea:	bf00      	nop

878012ec <strnlen>:
878012ec:	b1d1      	cbz	r1, 87801324 <strnlen+0x38>
878012ee:	7803      	ldrb	r3, [r0, #0]
878012f0:	b1d3      	cbz	r3, 87801328 <strnlen+0x3c>
878012f2:	1c43      	adds	r3, r0, #1
878012f4:	4401      	add	r1, r0
878012f6:	4299      	cmp	r1, r3
878012f8:	f103 0201 	add.w	r2, r3, #1
878012fc:	d016      	beq.n	8780132c <strnlen+0x40>
878012fe:	b410      	push	{r4}
87801300:	781c      	ldrb	r4, [r3, #0]
87801302:	b13c      	cbz	r4, 87801314 <strnlen+0x28>
87801304:	4291      	cmp	r1, r2
87801306:	4613      	mov	r3, r2
87801308:	f102 0201 	add.w	r2, r2, #1
8780130c:	d006      	beq.n	8780131c <strnlen+0x30>
8780130e:	781c      	ldrb	r4, [r3, #0]
87801310:	2c00      	cmp	r4, #0
87801312:	d1f7      	bne.n	87801304 <strnlen+0x18>
87801314:	1a18      	subs	r0, r3, r0
87801316:	f85d 4b04 	ldr.w	r4, [sp], #4
8780131a:	4770      	bx	lr
8780131c:	1a08      	subs	r0, r1, r0
8780131e:	f85d 4b04 	ldr.w	r4, [sp], #4
87801322:	4770      	bx	lr
87801324:	4608      	mov	r0, r1
87801326:	4770      	bx	lr
87801328:	4618      	mov	r0, r3
8780132a:	4770      	bx	lr
8780132c:	1a08      	subs	r0, r1, r0
8780132e:	4770      	bx	lr

87801330 <strspn>:
87801330:	b470      	push	{r4, r5, r6}
87801332:	7804      	ldrb	r4, [r0, #0]
87801334:	4625      	mov	r5, r4
87801336:	b164      	cbz	r4, 87801352 <strspn+0x22>
87801338:	780e      	ldrb	r6, [r1, #0]
8780133a:	2500      	movs	r5, #0
8780133c:	b14e      	cbz	r6, 87801352 <strspn+0x22>
8780133e:	42a6      	cmp	r6, r4
87801340:	d00a      	beq.n	87801358 <strspn+0x28>
87801342:	460a      	mov	r2, r1
87801344:	e001      	b.n	8780134a <strspn+0x1a>
87801346:	42a3      	cmp	r3, r4
87801348:	d006      	beq.n	87801358 <strspn+0x28>
8780134a:	f812 3f01 	ldrb.w	r3, [r2, #1]!
8780134e:	2b00      	cmp	r3, #0
87801350:	d1f9      	bne.n	87801346 <strspn+0x16>
87801352:	4628      	mov	r0, r5
87801354:	bc70      	pop	{r4, r5, r6}
87801356:	4770      	bx	lr
87801358:	f810 4f01 	ldrb.w	r4, [r0, #1]!
8780135c:	3501      	adds	r5, #1
8780135e:	2c00      	cmp	r4, #0
87801360:	d1ec      	bne.n	8780133c <strspn+0xc>
87801362:	4628      	mov	r0, r5
87801364:	bc70      	pop	{r4, r5, r6}
87801366:	4770      	bx	lr

87801368 <strpbrk>:
87801368:	b430      	push	{r4, r5}
8780136a:	7804      	ldrb	r4, [r0, #0]
8780136c:	b17c      	cbz	r4, 8780138e <strpbrk+0x26>
8780136e:	780d      	ldrb	r5, [r1, #0]
87801370:	b14d      	cbz	r5, 87801386 <strpbrk+0x1e>
87801372:	42a5      	cmp	r5, r4
87801374:	d00c      	beq.n	87801390 <strpbrk+0x28>
87801376:	460a      	mov	r2, r1
87801378:	e001      	b.n	8780137e <strpbrk+0x16>
8780137a:	42a3      	cmp	r3, r4
8780137c:	d008      	beq.n	87801390 <strpbrk+0x28>
8780137e:	f812 3f01 	ldrb.w	r3, [r2, #1]!
87801382:	2b00      	cmp	r3, #0
87801384:	d1f9      	bne.n	8780137a <strpbrk+0x12>
87801386:	f810 4f01 	ldrb.w	r4, [r0, #1]!
8780138a:	2c00      	cmp	r4, #0
8780138c:	d1f0      	bne.n	87801370 <strpbrk+0x8>
8780138e:	4620      	mov	r0, r4
87801390:	bc30      	pop	{r4, r5}
87801392:	4770      	bx	lr

87801394 <strtok>:
87801394:	f243 0cf0 	movw	ip, #12528	; 0x30f0
87801398:	f2c8 7c80 	movt	ip, #34688	; 0x8780
8780139c:	2800      	cmp	r0, #0
8780139e:	d03c      	beq.n	8780141a <strtok+0x86>
878013a0:	b4f0      	push	{r4, r5, r6, r7}
878013a2:	7804      	ldrb	r4, [r0, #0]
878013a4:	2c00      	cmp	r4, #0
878013a6:	d03d      	beq.n	87801424 <strtok+0x90>
878013a8:	780d      	ldrb	r5, [r1, #0]
878013aa:	4607      	mov	r7, r0
878013ac:	2600      	movs	r6, #0
878013ae:	b14d      	cbz	r5, 878013c4 <strtok+0x30>
878013b0:	42ac      	cmp	r4, r5
878013b2:	d01f      	beq.n	878013f4 <strtok+0x60>
878013b4:	460a      	mov	r2, r1
878013b6:	e001      	b.n	878013bc <strtok+0x28>
878013b8:	42a3      	cmp	r3, r4
878013ba:	d01b      	beq.n	878013f4 <strtok+0x60>
878013bc:	f812 3f01 	ldrb.w	r3, [r2, #1]!
878013c0:	2b00      	cmp	r3, #0
878013c2:	d1f9      	bne.n	878013b8 <strtok+0x24>
878013c4:	5d84      	ldrb	r4, [r0, r6]
878013c6:	4430      	add	r0, r6
878013c8:	4606      	mov	r6, r0
878013ca:	b35c      	cbz	r4, 87801424 <strtok+0x90>
878013cc:	b14d      	cbz	r5, 878013e2 <strtok+0x4e>
878013ce:	42ac      	cmp	r4, r5
878013d0:	d01b      	beq.n	8780140a <strtok+0x76>
878013d2:	460a      	mov	r2, r1
878013d4:	e001      	b.n	878013da <strtok+0x46>
878013d6:	42a3      	cmp	r3, r4
878013d8:	d017      	beq.n	8780140a <strtok+0x76>
878013da:	f812 3f01 	ldrb.w	r3, [r2, #1]!
878013de:	2b00      	cmp	r3, #0
878013e0:	d1f9      	bne.n	878013d6 <strtok+0x42>
878013e2:	f816 4f01 	ldrb.w	r4, [r6, #1]!
878013e6:	2c00      	cmp	r4, #0
878013e8:	d1f0      	bne.n	878013cc <strtok+0x38>
878013ea:	4626      	mov	r6, r4
878013ec:	f8cc 6000 	str.w	r6, [ip]
878013f0:	bcf0      	pop	{r4, r5, r6, r7}
878013f2:	4770      	bx	lr
878013f4:	f817 4f01 	ldrb.w	r4, [r7, #1]!
878013f8:	3601      	adds	r6, #1
878013fa:	2c00      	cmp	r4, #0
878013fc:	d1d7      	bne.n	878013ae <strtok+0x1a>
878013fe:	5d84      	ldrb	r4, [r0, r6]
87801400:	4430      	add	r0, r6
87801402:	4606      	mov	r6, r0
87801404:	2c00      	cmp	r4, #0
87801406:	d1e1      	bne.n	878013cc <strtok+0x38>
87801408:	e00c      	b.n	87801424 <strtok+0x90>
8780140a:	7833      	ldrb	r3, [r6, #0]
8780140c:	2b00      	cmp	r3, #0
8780140e:	d0ed      	beq.n	878013ec <strtok+0x58>
87801410:	2300      	movs	r3, #0
87801412:	3601      	adds	r6, #1
87801414:	f806 3c01 	strb.w	r3, [r6, #-1]
87801418:	e7e8      	b.n	878013ec <strtok+0x58>
8780141a:	f8dc 0000 	ldr.w	r0, [ip]
8780141e:	2800      	cmp	r0, #0
87801420:	d1be      	bne.n	878013a0 <strtok+0xc>
87801422:	4770      	bx	lr
87801424:	2000      	movs	r0, #0
87801426:	f8cc 0000 	str.w	r0, [ip]
8780142a:	e7e1      	b.n	878013f0 <strtok+0x5c>

8780142c <strsep>:
8780142c:	b4f0      	push	{r4, r5, r6, r7}
8780142e:	4607      	mov	r7, r0
87801430:	6800      	ldr	r0, [r0, #0]
87801432:	b198      	cbz	r0, 8780145c <strsep+0x30>
87801434:	7804      	ldrb	r4, [r0, #0]
87801436:	b184      	cbz	r4, 8780145a <strsep+0x2e>
87801438:	780e      	ldrb	r6, [r1, #0]
8780143a:	4605      	mov	r5, r0
8780143c:	b14e      	cbz	r6, 87801452 <strsep+0x26>
8780143e:	42a6      	cmp	r6, r4
87801440:	d00e      	beq.n	87801460 <strsep+0x34>
87801442:	460a      	mov	r2, r1
87801444:	e001      	b.n	8780144a <strsep+0x1e>
87801446:	42a3      	cmp	r3, r4
87801448:	d00a      	beq.n	87801460 <strsep+0x34>
8780144a:	f812 3f01 	ldrb.w	r3, [r2, #1]!
8780144e:	2b00      	cmp	r3, #0
87801450:	d1f9      	bne.n	87801446 <strsep+0x1a>
87801452:	f815 4f01 	ldrb.w	r4, [r5, #1]!
87801456:	2c00      	cmp	r4, #0
87801458:	d1f0      	bne.n	8780143c <strsep+0x10>
8780145a:	603c      	str	r4, [r7, #0]
8780145c:	bcf0      	pop	{r4, r5, r6, r7}
8780145e:	4770      	bx	lr
87801460:	2300      	movs	r3, #0
87801462:	1c6c      	adds	r4, r5, #1
87801464:	702b      	strb	r3, [r5, #0]
87801466:	e7f8      	b.n	8780145a <strsep+0x2e>

87801468 <memset>:
87801468:	b132      	cbz	r2, 87801478 <memset+0x10>
8780146a:	b2c9      	uxtb	r1, r1
8780146c:	4402      	add	r2, r0
8780146e:	4603      	mov	r3, r0
87801470:	f803 1b01 	strb.w	r1, [r3], #1
87801474:	4293      	cmp	r3, r2
87801476:	d1fb      	bne.n	87801470 <memset+0x8>
87801478:	4770      	bx	lr
8780147a:	bf00      	nop

8780147c <bcopy>:
8780147c:	b13a      	cbz	r2, 8780148e <bcopy+0x12>
8780147e:	3901      	subs	r1, #1
87801480:	4402      	add	r2, r0
87801482:	f810 3b01 	ldrb.w	r3, [r0], #1
87801486:	4290      	cmp	r0, r2
87801488:	f801 3f01 	strb.w	r3, [r1, #1]!
8780148c:	d1f9      	bne.n	87801482 <bcopy+0x6>
8780148e:	4770      	bx	lr

87801490 <memcpy>:
87801490:	b15a      	cbz	r2, 878014aa <memcpy+0x1a>
87801492:	440a      	add	r2, r1
87801494:	1e43      	subs	r3, r0, #1
87801496:	b410      	push	{r4}
87801498:	f811 4b01 	ldrb.w	r4, [r1], #1
8780149c:	4291      	cmp	r1, r2
8780149e:	f803 4f01 	strb.w	r4, [r3, #1]!
878014a2:	d1f9      	bne.n	87801498 <memcpy+0x8>
878014a4:	f85d 4b04 	ldr.w	r4, [sp], #4
878014a8:	4770      	bx	lr
878014aa:	4770      	bx	lr

878014ac <memmove>:
878014ac:	4288      	cmp	r0, r1
878014ae:	b410      	push	{r4}
878014b0:	d80b      	bhi.n	878014ca <memmove+0x1e>
878014b2:	b13a      	cbz	r2, 878014c4 <memmove+0x18>
878014b4:	440a      	add	r2, r1
878014b6:	1e43      	subs	r3, r0, #1
878014b8:	f811 4b01 	ldrb.w	r4, [r1], #1
878014bc:	428a      	cmp	r2, r1
878014be:	f803 4f01 	strb.w	r4, [r3, #1]!
878014c2:	d1f9      	bne.n	878014b8 <memmove+0xc>
878014c4:	f85d 4b04 	ldr.w	r4, [sp], #4
878014c8:	4770      	bx	lr
878014ca:	1884      	adds	r4, r0, r2
878014cc:	188b      	adds	r3, r1, r2
878014ce:	2a00      	cmp	r2, #0
878014d0:	d0f8      	beq.n	878014c4 <memmove+0x18>
878014d2:	4622      	mov	r2, r4
878014d4:	f813 4d01 	ldrb.w	r4, [r3, #-1]!
878014d8:	4299      	cmp	r1, r3
878014da:	f802 4d01 	strb.w	r4, [r2, #-1]!
878014de:	d1f9      	bne.n	878014d4 <memmove+0x28>
878014e0:	f85d 4b04 	ldr.w	r4, [sp], #4
878014e4:	4770      	bx	lr
878014e6:	bf00      	nop

878014e8 <memcmp>:
878014e8:	b1aa      	cbz	r2, 87801516 <memcmp+0x2e>
878014ea:	b430      	push	{r4, r5}
878014ec:	4604      	mov	r4, r0
878014ee:	780b      	ldrb	r3, [r1, #0]
878014f0:	7800      	ldrb	r0, [r0, #0]
878014f2:	1ac0      	subs	r0, r0, r3
878014f4:	d10a      	bne.n	8780150c <memcmp+0x24>
878014f6:	3a01      	subs	r2, #1
878014f8:	188d      	adds	r5, r1, r2
878014fa:	e005      	b.n	87801508 <memcmp+0x20>
878014fc:	f814 3f01 	ldrb.w	r3, [r4, #1]!
87801500:	f811 2f01 	ldrb.w	r2, [r1, #1]!
87801504:	1a9b      	subs	r3, r3, r2
87801506:	d103      	bne.n	87801510 <memcmp+0x28>
87801508:	42a9      	cmp	r1, r5
8780150a:	d1f7      	bne.n	878014fc <memcmp+0x14>
8780150c:	bc30      	pop	{r4, r5}
8780150e:	4770      	bx	lr
87801510:	4618      	mov	r0, r3
87801512:	bc30      	pop	{r4, r5}
87801514:	4770      	bx	lr
87801516:	4610      	mov	r0, r2
87801518:	4770      	bx	lr
8780151a:	bf00      	nop

8780151c <memscan>:
8780151c:	b1c2      	cbz	r2, 87801550 <memscan+0x34>
8780151e:	7803      	ldrb	r3, [r0, #0]
87801520:	4299      	cmp	r1, r3
87801522:	d015      	beq.n	87801550 <memscan+0x34>
87801524:	1c43      	adds	r3, r0, #1
87801526:	4402      	add	r2, r0
87801528:	4293      	cmp	r3, r2
8780152a:	4618      	mov	r0, r3
8780152c:	f103 0301 	add.w	r3, r3, #1
87801530:	d00f      	beq.n	87801552 <memscan+0x36>
87801532:	b410      	push	{r4}
87801534:	7804      	ldrb	r4, [r0, #0]
87801536:	428c      	cmp	r4, r1
87801538:	d007      	beq.n	8780154a <memscan+0x2e>
8780153a:	4293      	cmp	r3, r2
8780153c:	4618      	mov	r0, r3
8780153e:	f103 0301 	add.w	r3, r3, #1
87801542:	d002      	beq.n	8780154a <memscan+0x2e>
87801544:	7804      	ldrb	r4, [r0, #0]
87801546:	428c      	cmp	r4, r1
87801548:	d1f7      	bne.n	8780153a <memscan+0x1e>
8780154a:	f85d 4b04 	ldr.w	r4, [sp], #4
8780154e:	4770      	bx	lr
87801550:	4770      	bx	lr
87801552:	4770      	bx	lr

87801554 <strstr>:
87801554:	e92d 43f0 	stmdb	sp!, {r4, r5, r6, r7, r8, r9, lr}
87801558:	f891 8000 	ldrb.w	r8, [r1]
8780155c:	f1b8 0f00 	cmp.w	r8, #0
87801560:	d027      	beq.n	878015b2 <strstr+0x5e>
87801562:	460b      	mov	r3, r1
87801564:	f813 2f01 	ldrb.w	r2, [r3, #1]!
87801568:	2a00      	cmp	r2, #0
8780156a:	d1fb      	bne.n	87801564 <strstr+0x10>
8780156c:	ebb3 0e01 	subs.w	lr, r3, r1
87801570:	d01f      	beq.n	878015b2 <strstr+0x5e>
87801572:	7802      	ldrb	r2, [r0, #0]
87801574:	4694      	mov	ip, r2
87801576:	b132      	cbz	r2, 87801586 <strstr+0x32>
87801578:	4684      	mov	ip, r0
8780157a:	f81c 3f01 	ldrb.w	r3, [ip, #1]!
8780157e:	2b00      	cmp	r3, #0
87801580:	d1fb      	bne.n	8780157a <strstr+0x26>
87801582:	ebac 0c00 	sub.w	ip, ip, r0
87801586:	45e6      	cmp	lr, ip
87801588:	dc1a      	bgt.n	878015c0 <strstr+0x6c>
8780158a:	4607      	mov	r7, r0
8780158c:	f10e 39ff 	add.w	r9, lr, #4294967295	; 0xffffffff
87801590:	f10c 3cff 	add.w	ip, ip, #4294967295	; 0xffffffff
87801594:	4638      	mov	r0, r7
87801596:	460d      	mov	r5, r1
87801598:	eb09 0607 	add.w	r6, r9, r7
8780159c:	463b      	mov	r3, r7
8780159e:	4644      	mov	r4, r8
878015a0:	e003      	b.n	878015aa <strstr+0x56>
878015a2:	f813 2f01 	ldrb.w	r2, [r3, #1]!
878015a6:	f815 4f01 	ldrb.w	r4, [r5, #1]!
878015aa:	42a2      	cmp	r2, r4
878015ac:	d103      	bne.n	878015b6 <strstr+0x62>
878015ae:	429e      	cmp	r6, r3
878015b0:	d1f7      	bne.n	878015a2 <strstr+0x4e>
878015b2:	e8bd 83f0 	ldmia.w	sp!, {r4, r5, r6, r7, r8, r9, pc}
878015b6:	45f4      	cmp	ip, lr
878015b8:	db02      	blt.n	878015c0 <strstr+0x6c>
878015ba:	f817 2f01 	ldrb.w	r2, [r7, #1]!
878015be:	e7e7      	b.n	87801590 <strstr+0x3c>
878015c0:	2000      	movs	r0, #0
878015c2:	e8bd 83f0 	ldmia.w	sp!, {r4, r5, r6, r7, r8, r9, pc}
878015c6:	bf00      	nop

878015c8 <memchr>:
878015c8:	4402      	add	r2, r0
878015ca:	b2c9      	uxtb	r1, r1
878015cc:	4290      	cmp	r0, r2
878015ce:	4603      	mov	r3, r0
878015d0:	d012      	beq.n	878015f8 <memchr+0x30>
878015d2:	b410      	push	{r4}
878015d4:	f813 4b01 	ldrb.w	r4, [r3], #1
878015d8:	428c      	cmp	r4, r1
878015da:	d006      	beq.n	878015ea <memchr+0x22>
878015dc:	4293      	cmp	r3, r2
878015de:	4618      	mov	r0, r3
878015e0:	d006      	beq.n	878015f0 <memchr+0x28>
878015e2:	f813 4b01 	ldrb.w	r4, [r3], #1
878015e6:	428c      	cmp	r4, r1
878015e8:	d1f8      	bne.n	878015dc <memchr+0x14>
878015ea:	f85d 4b04 	ldr.w	r4, [sp], #4
878015ee:	4770      	bx	lr
878015f0:	2000      	movs	r0, #0
878015f2:	f85d 4b04 	ldr.w	r4, [sp], #4
878015f6:	4770      	bx	lr
878015f8:	2000      	movs	r0, #0
878015fa:	4770      	bx	lr

878015fc <number>:
878015fc:	e92d 4ff0 	stmdb	sp!, {r4, r5, r6, r7, r8, r9, sl, fp, lr}
87801600:	b0a5      	sub	sp, #148	; 0x94
87801602:	460d      	mov	r5, r1
87801604:	992e      	ldr	r1, [sp, #184]	; 0xb8
87801606:	4604      	mov	r4, r0
87801608:	f8dd 90c4 	ldr.w	r9, [sp, #196]	; 0xc4
8780160c:	390a      	subs	r1, #10
8780160e:	bf18      	it	ne
87801610:	2101      	movne	r1, #1
87801612:	f009 0020 	and.w	r0, r9, #32
87801616:	ea01 1159 	and.w	r1, r1, r9, lsr #5
8780161a:	9003      	str	r0, [sp, #12]
8780161c:	9100      	str	r1, [sp, #0]
8780161e:	f019 0110 	ands.w	r1, r9, #16
87801622:	bf18      	it	ne
87801624:	f029 0901 	bicne.w	r9, r9, #1
87801628:	9101      	str	r1, [sp, #4]
8780162a:	f019 0102 	ands.w	r1, r9, #2
8780162e:	d011      	beq.n	87801654 <number+0x58>
87801630:	2a00      	cmp	r2, #0
87801632:	f173 0100 	sbcs.w	r1, r3, #0
87801636:	f2c0 816e 	blt.w	87801916 <number+0x31a>
8780163a:	f019 0f04 	tst.w	r9, #4
8780163e:	f040 8188 	bne.w	87801952 <number+0x356>
87801642:	f019 0108 	ands.w	r1, r9, #8
87801646:	d005      	beq.n	87801654 <number+0x58>
87801648:	992f      	ldr	r1, [sp, #188]	; 0xbc
8780164a:	3901      	subs	r1, #1
8780164c:	912f      	str	r1, [sp, #188]	; 0xbc
8780164e:	2120      	movs	r1, #32
87801650:	9102      	str	r1, [sp, #8]
87801652:	e000      	b.n	87801656 <number+0x5a>
87801654:	9102      	str	r1, [sp, #8]
87801656:	9900      	ldr	r1, [sp, #0]
87801658:	2900      	cmp	r1, #0
8780165a:	d048      	beq.n	878016ee <number+0xf2>
8780165c:	992e      	ldr	r1, [sp, #184]	; 0xb8
8780165e:	2910      	cmp	r1, #16
87801660:	992f      	ldr	r1, [sp, #188]	; 0xbc
87801662:	f000 8161 	beq.w	87801928 <number+0x32c>
87801666:	3901      	subs	r1, #1
87801668:	912f      	str	r1, [sp, #188]	; 0xbc
8780166a:	ea52 0103 	orrs.w	r1, r2, r3
8780166e:	d042      	beq.n	878016f6 <number+0xfa>
87801670:	992e      	ldr	r1, [sp, #184]	; 0xb8
87801672:	2910      	cmp	r1, #16
87801674:	f101 3aff 	add.w	sl, r1, #4294967295	; 0xffffffff
87801678:	bf0a      	itet	eq
8780167a:	2004      	moveq	r0, #4
8780167c:	2003      	movne	r0, #3
8780167e:	f04f 0a0f 	moveq.w	sl, #15
87801682:	f642 28c0 	movw	r8, #10944	; 0x2ac0
87801686:	f1c0 0120 	rsb	r1, r0, #32
8780168a:	9506      	str	r5, [sp, #24]
8780168c:	f10d 0c2c 	add.w	ip, sp, #44	; 0x2c
87801690:	f8cd 90c4 	str.w	r9, [sp, #196]	; 0xc4
87801694:	f2c8 7880 	movt	r8, #34688	; 0x8780
87801698:	2600      	movs	r6, #0
8780169a:	9404      	str	r4, [sp, #16]
8780169c:	f8dd 900c 	ldr.w	r9, [sp, #12]
878016a0:	460d      	mov	r5, r1
878016a2:	e000      	b.n	878016a6 <number+0xaa>
878016a4:	463e      	mov	r6, r7
878016a6:	fa03 f705 	lsl.w	r7, r3, r5
878016aa:	f1b0 0e20 	subs.w	lr, r0, #32
878016ae:	b2d4      	uxtb	r4, r2
878016b0:	fa22 f100 	lsr.w	r1, r2, r0
878016b4:	fa43 fe0e 	asr.w	lr, r3, lr
878016b8:	fa43 fb00 	asr.w	fp, r3, r0
878016bc:	ea41 0107 	orr.w	r1, r1, r7
878016c0:	ea04 040a 	and.w	r4, r4, sl
878016c4:	bf58      	it	pl
878016c6:	ea41 010e 	orrpl.w	r1, r1, lr
878016ca:	f818 4004 	ldrb.w	r4, [r8, r4]
878016ce:	460a      	mov	r2, r1
878016d0:	465b      	mov	r3, fp
878016d2:	ea52 0103 	orrs.w	r1, r2, r3
878016d6:	f106 0701 	add.w	r7, r6, #1
878016da:	ea49 0404 	orr.w	r4, r9, r4
878016de:	f80c 4b01 	strb.w	r4, [ip], #1
878016e2:	d1df      	bne.n	878016a4 <number+0xa8>
878016e4:	9c04      	ldr	r4, [sp, #16]
878016e6:	9d06      	ldr	r5, [sp, #24]
878016e8:	f8dd 90c4 	ldr.w	r9, [sp, #196]	; 0xc4
878016ec:	e008      	b.n	87801700 <number+0x104>
878016ee:	ea52 0103 	orrs.w	r1, r2, r3
878016f2:	f040 8081 	bne.w	878017f8 <number+0x1fc>
878016f6:	2600      	movs	r6, #0
878016f8:	2701      	movs	r7, #1
878016fa:	2330      	movs	r3, #48	; 0x30
878016fc:	f88d 302c 	strb.w	r3, [sp, #44]	; 0x2c
87801700:	9b30      	ldr	r3, [sp, #192]	; 0xc0
87801702:	42bb      	cmp	r3, r7
87801704:	bfb8      	it	lt
87801706:	463b      	movlt	r3, r7
87801708:	f019 0f11 	tst.w	r9, #17
8780170c:	461a      	mov	r2, r3
8780170e:	9b2f      	ldr	r3, [sp, #188]	; 0xbc
87801710:	eba3 0302 	sub.w	r3, r3, r2
87801714:	f103 31ff 	add.w	r1, r3, #4294967295	; 0xffffffff
87801718:	d10f      	bne.n	8780173a <number+0x13e>
8780171a:	2900      	cmp	r1, #0
8780171c:	bfb8      	it	lt
8780171e:	1e99      	sublt	r1, r3, #2
87801720:	db0b      	blt.n	8780173a <number+0x13e>
87801722:	4423      	add	r3, r4
87801724:	2120      	movs	r1, #32
87801726:	42a5      	cmp	r5, r4
87801728:	f104 0401 	add.w	r4, r4, #1
8780172c:	bf88      	it	hi
8780172e:	f804 1c01 	strbhi.w	r1, [r4, #-1]
87801732:	429c      	cmp	r4, r3
87801734:	d1f7      	bne.n	87801726 <number+0x12a>
87801736:	f06f 0101 	mvn.w	r1, #1
8780173a:	9b02      	ldr	r3, [sp, #8]
8780173c:	b12b      	cbz	r3, 8780174a <number+0x14e>
8780173e:	42ac      	cmp	r4, r5
87801740:	f104 0401 	add.w	r4, r4, #1
87801744:	bf38      	it	cc
87801746:	f804 3c01 	strbcc.w	r3, [r4, #-1]
8780174a:	9b00      	ldr	r3, [sp, #0]
8780174c:	b153      	cbz	r3, 87801764 <number+0x168>
8780174e:	982e      	ldr	r0, [sp, #184]	; 0xb8
87801750:	42ac      	cmp	r4, r5
87801752:	bf3c      	itt	cc
87801754:	2330      	movcc	r3, #48	; 0x30
87801756:	7023      	strbcc	r3, [r4, #0]
87801758:	1c63      	adds	r3, r4, #1
8780175a:	2810      	cmp	r0, #16
8780175c:	bf18      	it	ne
8780175e:	461c      	movne	r4, r3
87801760:	f000 80ed 	beq.w	8780193e <number+0x342>
87801764:	9b01      	ldr	r3, [sp, #4]
87801766:	b9ab      	cbnz	r3, 87801794 <number+0x198>
87801768:	f019 0f01 	tst.w	r9, #1
8780176c:	bf0c      	ite	eq
8780176e:	2320      	moveq	r3, #32
87801770:	2330      	movne	r3, #48	; 0x30
87801772:	2900      	cmp	r1, #0
87801774:	bfb8      	it	lt
87801776:	f101 31ff 	addlt.w	r1, r1, #4294967295	; 0xffffffff
8780177a:	db0b      	blt.n	87801794 <number+0x198>
8780177c:	3101      	adds	r1, #1
8780177e:	4421      	add	r1, r4
87801780:	42a5      	cmp	r5, r4
87801782:	f104 0401 	add.w	r4, r4, #1
87801786:	bf88      	it	hi
87801788:	f804 3c01 	strbhi.w	r3, [r4, #-1]
8780178c:	428c      	cmp	r4, r1
8780178e:	d1f7      	bne.n	87801780 <number+0x184>
87801790:	f06f 0101 	mvn.w	r1, #1
87801794:	4297      	cmp	r7, r2
87801796:	bfbe      	ittt	lt
87801798:	1bd7      	sublt	r7, r2, r7
8780179a:	2330      	movlt	r3, #48	; 0x30
8780179c:	193f      	addlt	r7, r7, r4
8780179e:	da07      	bge.n	878017b0 <number+0x1b4>
878017a0:	42a5      	cmp	r5, r4
878017a2:	f104 0401 	add.w	r4, r4, #1
878017a6:	bf88      	it	hi
878017a8:	f804 3c01 	strbhi.w	r3, [r4, #-1]
878017ac:	42bc      	cmp	r4, r7
878017ae:	d1f7      	bne.n	878017a0 <number+0x1a4>
878017b0:	2e00      	cmp	r6, #0
878017b2:	f2c0 80d4 	blt.w	8780195e <number+0x362>
878017b6:	4632      	mov	r2, r6
878017b8:	4623      	mov	r3, r4
878017ba:	af0b      	add	r7, sp, #44	; 0x2c
878017bc:	429d      	cmp	r5, r3
878017be:	f103 0301 	add.w	r3, r3, #1
878017c2:	bf88      	it	hi
878017c4:	5dd0      	ldrbhi	r0, [r2, r7]
878017c6:	f102 32ff 	add.w	r2, r2, #4294967295	; 0xffffffff
878017ca:	bf88      	it	hi
878017cc:	f803 0c01 	strbhi.w	r0, [r3, #-1]
878017d0:	1c50      	adds	r0, r2, #1
878017d2:	d1f3      	bne.n	878017bc <number+0x1c0>
878017d4:	1c70      	adds	r0, r6, #1
878017d6:	4420      	add	r0, r4
878017d8:	2900      	cmp	r1, #0
878017da:	db0a      	blt.n	878017f2 <number+0x1f6>
878017dc:	1c4b      	adds	r3, r1, #1
878017de:	2220      	movs	r2, #32
878017e0:	4403      	add	r3, r0
878017e2:	4285      	cmp	r5, r0
878017e4:	f100 0001 	add.w	r0, r0, #1
878017e8:	bf88      	it	hi
878017ea:	f800 2c01 	strbhi.w	r2, [r0, #-1]
878017ee:	4298      	cmp	r0, r3
878017f0:	d1f7      	bne.n	878017e2 <number+0x1e6>
878017f2:	b025      	add	sp, #148	; 0x94
878017f4:	e8bd 8ff0 	ldmia.w	sp!, {r4, r5, r6, r7, r8, r9, sl, fp, pc}
878017f8:	992e      	ldr	r1, [sp, #184]	; 0xb8
878017fa:	290a      	cmp	r1, #10
878017fc:	f47f af38 	bne.w	87801670 <number+0x74>
87801800:	4692      	mov	sl, r2
87801802:	469b      	mov	fp, r3
87801804:	f248 629f 	movw	r2, #34463	; 0x869f
87801808:	2300      	movs	r3, #0
8780180a:	f2c0 0201 	movt	r2, #1
8780180e:	455b      	cmp	r3, fp
87801810:	bf08      	it	eq
87801812:	4552      	cmpeq	r2, sl
87801814:	e9cd ab08 	strd	sl, fp, [sp, #32]
87801818:	f080 8109 	bcs.w	87801a2e <number+0x432>
8780181c:	f248 61a0 	movw	r1, #34464	; 0x86a0
87801820:	f645 20c5 	movw	r0, #23237	; 0x5ac5
87801824:	f2c0 0101 	movt	r1, #1
87801828:	f6c0 207c 	movt	r0, #2684	; 0xa7c
8780182c:	e9cd 4506 	strd	r4, r5, [sp, #24]
87801830:	460f      	mov	r7, r1
87801832:	e9cd 2304 	strd	r2, r3, [sp, #16]
87801836:	f10d 0631 	add.w	r6, sp, #49	; 0x31
8780183a:	4604      	mov	r4, r0
8780183c:	e05c      	b.n	878018f8 <number+0x2fc>
8780183e:	09d8      	lsrs	r0, r3, #7
87801840:	f04f 0b00 	mov.w	fp, #0
87801844:	4603      	mov	r3, r0
87801846:	fb07 a010 	mls	r0, r7, r0, sl
8780184a:	469a      	mov	sl, r3
8780184c:	e9cd ab08 	strd	sl, fp, [sp, #32]
87801850:	f3c0 2303 	ubfx	r3, r0, #8, #4
87801854:	f3c0 1203 	ubfx	r2, r0, #4, #4
87801858:	0b01      	lsrs	r1, r0, #12
8780185a:	eb02 0c03 	add.w	ip, r2, r3
8780185e:	f000 080f 	and.w	r8, r0, #15
87801862:	eb03 0e83 	add.w	lr, r3, r3, lsl #2
87801866:	448c      	add	ip, r1
87801868:	eb01 00c1 	add.w	r0, r1, r1, lsl #3
8780186c:	eb0c 0c4c 	add.w	ip, ip, ip, lsl #1
87801870:	4635      	mov	r5, r6
87801872:	4402      	add	r2, r0
87801874:	eb08 004c 	add.w	r0, r8, ip, lsl #1
87801878:	f04f 0ccd 	mov.w	ip, #205	; 0xcd
8780187c:	4472      	add	r2, lr
8780187e:	fb0c f800 	mul.w	r8, ip, r0
87801882:	3605      	adds	r6, #5
87801884:	ea4f 28d8 	mov.w	r8, r8, lsr #11
87801888:	4442      	add	r2, r8
8780188a:	eb08 0888 	add.w	r8, r8, r8, lsl #2
8780188e:	fb0c fe02 	mul.w	lr, ip, r2
87801892:	eba0 0048 	sub.w	r0, r0, r8, lsl #1
87801896:	3030      	adds	r0, #48	; 0x30
87801898:	ea4f 2ede 	mov.w	lr, lr, lsr #11
8780189c:	f806 0c0a 	strb.w	r0, [r6, #-10]
878018a0:	eb0e 0343 	add.w	r3, lr, r3, lsl #1
878018a4:	eb0e 0e8e 	add.w	lr, lr, lr, lsl #2
878018a8:	eb03 0043 	add.w	r0, r3, r3, lsl #1
878018ac:	eba2 024e 	sub.w	r2, r2, lr, lsl #1
878018b0:	eb03 0080 	add.w	r0, r3, r0, lsl #2
878018b4:	3230      	adds	r2, #48	; 0x30
878018b6:	f806 2c09 	strb.w	r2, [r6, #-9]
878018ba:	09c2      	lsrs	r2, r0, #7
878018bc:	eb02 0181 	add.w	r1, r2, r1, lsl #2
878018c0:	eb02 0282 	add.w	r2, r2, r2, lsl #2
878018c4:	fb0c fc01 	mul.w	ip, ip, r1
878018c8:	eba3 0342 	sub.w	r3, r3, r2, lsl #1
878018cc:	3330      	adds	r3, #48	; 0x30
878018ce:	f806 3c08 	strb.w	r3, [r6, #-8]
878018d2:	ea4f 2cdc 	mov.w	ip, ip, lsr #11
878018d6:	eb0c 038c 	add.w	r3, ip, ip, lsl #2
878018da:	f10c 0c30 	add.w	ip, ip, #48	; 0x30
878018de:	f806 cc06 	strb.w	ip, [r6, #-6]
878018e2:	eba1 0143 	sub.w	r1, r1, r3, lsl #1
878018e6:	e9dd 2304 	ldrd	r2, r3, [sp, #16]
878018ea:	3130      	adds	r1, #48	; 0x30
878018ec:	455b      	cmp	r3, fp
878018ee:	f806 1c07 	strb.w	r1, [r6, #-7]
878018f2:	bf08      	it	eq
878018f4:	4552      	cmpeq	r2, sl
878018f6:	d234      	bcs.n	87801962 <number+0x366>
878018f8:	4658      	mov	r0, fp
878018fa:	2100      	movs	r1, #0
878018fc:	ea4f 125a 	mov.w	r2, sl, lsr #5
87801900:	4301      	orrs	r1, r0
87801902:	fba2 2304 	umull	r2, r3, r2, r4
87801906:	d09a      	beq.n	8780183e <number+0x242>
87801908:	4639      	mov	r1, r7
8780190a:	a808      	add	r0, sp, #32
8780190c:	f000 ff36 	bl	8780277c <__div64_32>
87801910:	e9dd ab08 	ldrd	sl, fp, [sp, #32]
87801914:	e79c      	b.n	87801850 <number+0x254>
87801916:	992f      	ldr	r1, [sp, #188]	; 0xbc
87801918:	4252      	negs	r2, r2
8780191a:	eb63 0343 	sbc.w	r3, r3, r3, lsl #1
8780191e:	3901      	subs	r1, #1
87801920:	912f      	str	r1, [sp, #188]	; 0xbc
87801922:	212d      	movs	r1, #45	; 0x2d
87801924:	9102      	str	r1, [sp, #8]
87801926:	e696      	b.n	87801656 <number+0x5a>
87801928:	3902      	subs	r1, #2
8780192a:	912f      	str	r1, [sp, #188]	; 0xbc
8780192c:	ea52 0103 	orrs.w	r1, r2, r3
87801930:	bf1c      	itt	ne
87801932:	f04f 0a0f 	movne.w	sl, #15
87801936:	2004      	movne	r0, #4
87801938:	f47f aea3 	bne.w	87801682 <number+0x86>
8780193c:	e6db      	b.n	878016f6 <number+0xfa>
8780193e:	429d      	cmp	r5, r3
87801940:	f104 0402 	add.w	r4, r4, #2
87801944:	bf82      	ittt	hi
87801946:	9b03      	ldrhi	r3, [sp, #12]
87801948:	f043 0358 	orrhi.w	r3, r3, #88	; 0x58
8780194c:	f804 3c01 	strbhi.w	r3, [r4, #-1]
87801950:	e708      	b.n	87801764 <number+0x168>
87801952:	992f      	ldr	r1, [sp, #188]	; 0xbc
87801954:	3901      	subs	r1, #1
87801956:	912f      	str	r1, [sp, #188]	; 0xbc
87801958:	212b      	movs	r1, #43	; 0x2b
8780195a:	9102      	str	r1, [sp, #8]
8780195c:	e67b      	b.n	87801656 <number+0x5a>
8780195e:	4620      	mov	r0, r4
87801960:	e73a      	b.n	878017d8 <number+0x1dc>
87801962:	46a8      	mov	r8, r5
87801964:	e9dd 4506 	ldrd	r4, r5, [sp, #24]
87801968:	f10d 0e2c 	add.w	lr, sp, #44	; 0x2c
8780196c:	f3ca 1003 	ubfx	r0, sl, #4, #4
87801970:	ea4f 371a 	mov.w	r7, sl, lsr #12
87801974:	f3ca 2103 	ubfx	r1, sl, #8, #4
87801978:	1843      	adds	r3, r0, r1
8780197a:	eb07 02c7 	add.w	r2, r7, r7, lsl #3
8780197e:	443b      	add	r3, r7
87801980:	eb01 0681 	add.w	r6, r1, r1, lsl #2
87801984:	eb03 0343 	add.w	r3, r3, r3, lsl #1
87801988:	f00a 0a0f 	and.w	sl, sl, #15
8780198c:	4402      	add	r2, r0
8780198e:	eb0a 0343 	add.w	r3, sl, r3, lsl #1
87801992:	f04f 0ccd 	mov.w	ip, #205	; 0xcd
87801996:	1990      	adds	r0, r2, r6
87801998:	fb0c f203 	mul.w	r2, ip, r3
8780199c:	0ad2      	lsrs	r2, r2, #11
8780199e:	eb02 0682 	add.w	r6, r2, r2, lsl #2
878019a2:	1812      	adds	r2, r2, r0
878019a4:	bf08      	it	eq
878019a6:	f108 0701 	addeq.w	r7, r8, #1
878019aa:	eba3 0346 	sub.w	r3, r3, r6, lsl #1
878019ae:	f103 0330 	add.w	r3, r3, #48	; 0x30
878019b2:	f888 3000 	strb.w	r3, [r8]
878019b6:	d036      	beq.n	87801a26 <number+0x42a>
878019b8:	fb0c f302 	mul.w	r3, ip, r2
878019bc:	0adb      	lsrs	r3, r3, #11
878019be:	eb03 0083 	add.w	r0, r3, r3, lsl #2
878019c2:	eb03 0341 	add.w	r3, r3, r1, lsl #1
878019c6:	eba2 0240 	sub.w	r2, r2, r0, lsl #1
878019ca:	3230      	adds	r2, #48	; 0x30
878019cc:	f888 2001 	strb.w	r2, [r8, #1]
878019d0:	ea57 0203 	orrs.w	r2, r7, r3
878019d4:	bf08      	it	eq
878019d6:	f108 0702 	addeq.w	r7, r8, #2
878019da:	d024      	beq.n	87801a26 <number+0x42a>
878019dc:	eb03 0243 	add.w	r2, r3, r3, lsl #1
878019e0:	eb03 0282 	add.w	r2, r3, r2, lsl #2
878019e4:	09d2      	lsrs	r2, r2, #7
878019e6:	eb02 0182 	add.w	r1, r2, r2, lsl #2
878019ea:	eb12 0287 	adds.w	r2, r2, r7, lsl #2
878019ee:	eba3 0341 	sub.w	r3, r3, r1, lsl #1
878019f2:	bf08      	it	eq
878019f4:	f108 0703 	addeq.w	r7, r8, #3
878019f8:	f103 0330 	add.w	r3, r3, #48	; 0x30
878019fc:	f888 3002 	strb.w	r3, [r8, #2]
87801a00:	d011      	beq.n	87801a26 <number+0x42a>
87801a02:	fb0c f302 	mul.w	r3, ip, r2
87801a06:	f108 0704 	add.w	r7, r8, #4
87801a0a:	0adb      	lsrs	r3, r3, #11
87801a0c:	eb03 0183 	add.w	r1, r3, r3, lsl #2
87801a10:	eba2 0241 	sub.w	r2, r2, r1, lsl #1
87801a14:	3230      	adds	r2, #48	; 0x30
87801a16:	f888 2003 	strb.w	r2, [r8, #3]
87801a1a:	b123      	cbz	r3, 87801a26 <number+0x42a>
87801a1c:	f108 0705 	add.w	r7, r8, #5
87801a20:	3330      	adds	r3, #48	; 0x30
87801a22:	f888 3004 	strb.w	r3, [r8, #4]
87801a26:	eba7 070e 	sub.w	r7, r7, lr
87801a2a:	1e7e      	subs	r6, r7, #1
87801a2c:	e668      	b.n	87801700 <number+0x104>
87801a2e:	f10d 0e2c 	add.w	lr, sp, #44	; 0x2c
87801a32:	46f0      	mov	r8, lr
87801a34:	e79a      	b.n	8780196c <number+0x370>
87801a36:	bf00      	nop

87801a38 <simple_strtoul>:
87801a38:	b4f0      	push	{r4, r5, r6, r7}
87801a3a:	4607      	mov	r7, r0
87801a3c:	7804      	ldrb	r4, [r0, #0]
87801a3e:	bb52      	cbnz	r2, 87801a96 <simple_strtoul+0x5e>
87801a40:	2c30      	cmp	r4, #48	; 0x30
87801a42:	d04f      	beq.n	87801ae4 <simple_strtoul+0xac>
87801a44:	f642 2cec 	movw	ip, #10988	; 0x2aec
87801a48:	4623      	mov	r3, r4
87801a4a:	f2c8 7c80 	movt	ip, #34688	; 0x8780
87801a4e:	220a      	movs	r2, #10
87801a50:	f81c 5004 	ldrb.w	r5, [ip, r4]
87801a54:	f005 0044 	and.w	r0, r5, #68	; 0x44
87801a58:	b1c8      	cbz	r0, 87801a8e <simple_strtoul+0x56>
87801a5a:	2000      	movs	r0, #0
87801a5c:	e009      	b.n	87801a72 <simple_strtoul+0x3a>
87801a5e:	f817 4f01 	ldrb.w	r4, [r7, #1]!
87801a62:	fb02 3000 	mla	r0, r2, r0, r3
87801a66:	f81c 5004 	ldrb.w	r5, [ip, r4]
87801a6a:	4623      	mov	r3, r4
87801a6c:	f015 0f44 	tst.w	r5, #68	; 0x44
87801a70:	d00d      	beq.n	87801a8e <simple_strtoul+0x56>
87801a72:	f015 0f04 	tst.w	r5, #4
87801a76:	f1a3 0330 	sub.w	r3, r3, #48	; 0x30
87801a7a:	d106      	bne.n	87801a8a <simple_strtoul+0x52>
87801a7c:	f1a4 0320 	sub.w	r3, r4, #32
87801a80:	07ad      	lsls	r5, r5, #30
87801a82:	bf48      	it	mi
87801a84:	b2dc      	uxtbmi	r4, r3
87801a86:	f1a4 0337 	sub.w	r3, r4, #55	; 0x37
87801a8a:	4293      	cmp	r3, r2
87801a8c:	d3e7      	bcc.n	87801a5e <simple_strtoul+0x26>
87801a8e:	b101      	cbz	r1, 87801a92 <simple_strtoul+0x5a>
87801a90:	600f      	str	r7, [r1, #0]
87801a92:	bcf0      	pop	{r4, r5, r6, r7}
87801a94:	4770      	bx	lr
87801a96:	2a10      	cmp	r2, #16
87801a98:	d009      	beq.n	87801aae <simple_strtoul+0x76>
87801a9a:	f642 2cec 	movw	ip, #10988	; 0x2aec
87801a9e:	4623      	mov	r3, r4
87801aa0:	f2c8 7c80 	movt	ip, #34688	; 0x8780
87801aa4:	f81c 5004 	ldrb.w	r5, [ip, r4]
87801aa8:	f005 0044 	and.w	r0, r5, #68	; 0x44
87801aac:	e7d4      	b.n	87801a58 <simple_strtoul+0x20>
87801aae:	2c30      	cmp	r4, #48	; 0x30
87801ab0:	d1f3      	bne.n	87801a9a <simple_strtoul+0x62>
87801ab2:	7843      	ldrb	r3, [r0, #1]
87801ab4:	f642 2cec 	movw	ip, #10988	; 0x2aec
87801ab8:	f2c8 7c80 	movt	ip, #34688	; 0x8780
87801abc:	f81c 0003 	ldrb.w	r0, [ip, r3]
87801ac0:	0786      	lsls	r6, r0, #30
87801ac2:	bf44      	itt	mi
87801ac4:	3b20      	submi	r3, #32
87801ac6:	b2db      	uxtbmi	r3, r3
87801ac8:	2b58      	cmp	r3, #88	; 0x58
87801aca:	bf0d      	iteet	eq
87801acc:	78bc      	ldrbeq	r4, [r7, #2]
87801ace:	2330      	movne	r3, #48	; 0x30
87801ad0:	f89c 5030 	ldrbne.w	r5, [ip, #48]	; 0x30
87801ad4:	3702      	addeq	r7, #2
87801ad6:	bf04      	itt	eq
87801ad8:	f81c 5004 	ldrbeq.w	r5, [ip, r4]
87801adc:	4623      	moveq	r3, r4
87801ade:	f005 0044 	and.w	r0, r5, #68	; 0x44
87801ae2:	e7b9      	b.n	87801a58 <simple_strtoul+0x20>
87801ae4:	7844      	ldrb	r4, [r0, #1]
87801ae6:	f642 2cec 	movw	ip, #10988	; 0x2aec
87801aea:	f2c8 7c80 	movt	ip, #34688	; 0x8780
87801aee:	3001      	adds	r0, #1
87801af0:	f81c 5004 	ldrb.w	r5, [ip, r4]
87801af4:	4623      	mov	r3, r4
87801af6:	07aa      	lsls	r2, r5, #30
87801af8:	bf4a      	itet	mi
87801afa:	f1a4 0220 	submi.w	r2, r4, #32
87801afe:	4622      	movpl	r2, r4
87801b00:	b2d2      	uxtbmi	r2, r2
87801b02:	2a58      	cmp	r2, #88	; 0x58
87801b04:	d004      	beq.n	87801b10 <simple_strtoul+0xd8>
87801b06:	4607      	mov	r7, r0
87801b08:	2208      	movs	r2, #8
87801b0a:	f005 0044 	and.w	r0, r5, #68	; 0x44
87801b0e:	e7a3      	b.n	87801a58 <simple_strtoul+0x20>
87801b10:	78be      	ldrb	r6, [r7, #2]
87801b12:	f81c 2006 	ldrb.w	r2, [ip, r6]
87801b16:	f012 0f44 	tst.w	r2, #68	; 0x44
87801b1a:	d0f4      	beq.n	87801b06 <simple_strtoul+0xce>
87801b1c:	4615      	mov	r5, r2
87801b1e:	4633      	mov	r3, r6
87801b20:	3702      	adds	r7, #2
87801b22:	4634      	mov	r4, r6
87801b24:	2210      	movs	r2, #16
87801b26:	e798      	b.n	87801a5a <simple_strtoul+0x22>

87801b28 <simple_strtol>:
87801b28:	b510      	push	{r4, lr}
87801b2a:	7804      	ldrb	r4, [r0, #0]
87801b2c:	2c2d      	cmp	r4, #45	; 0x2d
87801b2e:	d003      	beq.n	87801b38 <simple_strtol+0x10>
87801b30:	e8bd 4010 	ldmia.w	sp!, {r4, lr}
87801b34:	f7ff bf80 	b.w	87801a38 <simple_strtoul>
87801b38:	3001      	adds	r0, #1
87801b3a:	f7ff ff7d 	bl	87801a38 <simple_strtoul>
87801b3e:	4240      	negs	r0, r0
87801b40:	bd10      	pop	{r4, pc}
87801b42:	bf00      	nop

87801b44 <simple_strtoull>:
87801b44:	e92d 4ff0 	stmdb	sp!, {r4, r5, r6, r7, r8, r9, sl, fp, lr}
87801b48:	7803      	ldrb	r3, [r0, #0]
87801b4a:	2a00      	cmp	r2, #0
87801b4c:	d140      	bne.n	87801bd0 <simple_strtoull+0x8c>
87801b4e:	2b30      	cmp	r3, #48	; 0x30
87801b50:	d066      	beq.n	87801c20 <simple_strtoull+0xdc>
87801b52:	f642 2eec 	movw	lr, #10988	; 0x2aec
87801b56:	469b      	mov	fp, r3
87801b58:	f2c8 7e80 	movt	lr, #34688	; 0x8780
87801b5c:	220a      	movs	r2, #10
87801b5e:	f81e c003 	ldrb.w	ip, [lr, r3]
87801b62:	f00c 0444 	and.w	r4, ip, #68	; 0x44
87801b66:	2c00      	cmp	r4, #0
87801b68:	d071      	beq.n	87801c4e <simple_strtoull+0x10a>
87801b6a:	f04f 0a00 	mov.w	sl, #0
87801b6e:	4690      	mov	r8, r2
87801b70:	f04f 0900 	mov.w	r9, #0
87801b74:	4652      	mov	r2, sl
87801b76:	e00e      	b.n	87801b96 <simple_strtoull+0x52>
87801b78:	fb08 3202 	mla	r2, r8, r2, r3
87801b7c:	f810 3f01 	ldrb.w	r3, [r0, #1]!
87801b80:	eb16 0a04 	adds.w	sl, r6, r4
87801b84:	f81e c003 	ldrb.w	ip, [lr, r3]
87801b88:	469b      	mov	fp, r3
87801b8a:	4417      	add	r7, r2
87801b8c:	eb47 0205 	adc.w	r2, r7, r5
87801b90:	f01c 0f44 	tst.w	ip, #68	; 0x44
87801b94:	d016      	beq.n	87801bc4 <simple_strtoull+0x80>
87801b96:	f01c 0f04 	tst.w	ip, #4
87801b9a:	f1ab 0430 	sub.w	r4, fp, #48	; 0x30
87801b9e:	d108      	bne.n	87801bb2 <simple_strtoull+0x6e>
87801ba0:	3b20      	subs	r3, #32
87801ba2:	f01c 0f02 	tst.w	ip, #2
87801ba6:	b2db      	uxtb	r3, r3
87801ba8:	f1ab 0437 	sub.w	r4, fp, #55	; 0x37
87801bac:	bf18      	it	ne
87801bae:	f1a3 0437 	subne.w	r4, r3, #55	; 0x37
87801bb2:	17e5      	asrs	r5, r4, #31
87801bb4:	fb0a f309 	mul.w	r3, sl, r9
87801bb8:	454d      	cmp	r5, r9
87801bba:	fbaa 6708 	umull	r6, r7, sl, r8
87801bbe:	bf08      	it	eq
87801bc0:	4544      	cmpeq	r4, r8
87801bc2:	d3d9      	bcc.n	87801b78 <simple_strtoull+0x34>
87801bc4:	b101      	cbz	r1, 87801bc8 <simple_strtoull+0x84>
87801bc6:	6008      	str	r0, [r1, #0]
87801bc8:	4650      	mov	r0, sl
87801bca:	4611      	mov	r1, r2
87801bcc:	e8bd 8ff0 	ldmia.w	sp!, {r4, r5, r6, r7, r8, r9, sl, fp, pc}
87801bd0:	2a10      	cmp	r2, #16
87801bd2:	d009      	beq.n	87801be8 <simple_strtoull+0xa4>
87801bd4:	f642 2eec 	movw	lr, #10988	; 0x2aec
87801bd8:	469b      	mov	fp, r3
87801bda:	f2c8 7e80 	movt	lr, #34688	; 0x8780
87801bde:	f81e c003 	ldrb.w	ip, [lr, r3]
87801be2:	f00c 0444 	and.w	r4, ip, #68	; 0x44
87801be6:	e7be      	b.n	87801b66 <simple_strtoull+0x22>
87801be8:	2b30      	cmp	r3, #48	; 0x30
87801bea:	d1f3      	bne.n	87801bd4 <simple_strtoull+0x90>
87801bec:	7844      	ldrb	r4, [r0, #1]
87801bee:	f642 2eec 	movw	lr, #10988	; 0x2aec
87801bf2:	f2c8 7e80 	movt	lr, #34688	; 0x8780
87801bf6:	f81e 5004 	ldrb.w	r5, [lr, r4]
87801bfa:	07ad      	lsls	r5, r5, #30
87801bfc:	bf44      	itt	mi
87801bfe:	3c20      	submi	r4, #32
87801c00:	b2e4      	uxtbmi	r4, r4
87801c02:	2c58      	cmp	r4, #88	; 0x58
87801c04:	bf0d      	iteet	eq
87801c06:	7883      	ldrbeq	r3, [r0, #2]
87801c08:	f04f 0b30 	movne.w	fp, #48	; 0x30
87801c0c:	f89e c030 	ldrbne.w	ip, [lr, #48]	; 0x30
87801c10:	3002      	addeq	r0, #2
87801c12:	bf04      	itt	eq
87801c14:	f81e c003 	ldrbeq.w	ip, [lr, r3]
87801c18:	469b      	moveq	fp, r3
87801c1a:	f00c 0444 	and.w	r4, ip, #68	; 0x44
87801c1e:	e7a2      	b.n	87801b66 <simple_strtoull+0x22>
87801c20:	7843      	ldrb	r3, [r0, #1]
87801c22:	f642 2eec 	movw	lr, #10988	; 0x2aec
87801c26:	f2c8 7e80 	movt	lr, #34688	; 0x8780
87801c2a:	1c44      	adds	r4, r0, #1
87801c2c:	f81e c003 	ldrb.w	ip, [lr, r3]
87801c30:	469b      	mov	fp, r3
87801c32:	f01c 0f02 	tst.w	ip, #2
87801c36:	bf16      	itet	ne
87801c38:	f1a3 0220 	subne.w	r2, r3, #32
87801c3c:	461a      	moveq	r2, r3
87801c3e:	b2d2      	uxtbne	r2, r2
87801c40:	2a58      	cmp	r2, #88	; 0x58
87801c42:	d008      	beq.n	87801c56 <simple_strtoull+0x112>
87801c44:	4620      	mov	r0, r4
87801c46:	2208      	movs	r2, #8
87801c48:	f00c 0444 	and.w	r4, ip, #68	; 0x44
87801c4c:	e78b      	b.n	87801b66 <simple_strtoull+0x22>
87801c4e:	f04f 0a00 	mov.w	sl, #0
87801c52:	4652      	mov	r2, sl
87801c54:	e7b6      	b.n	87801bc4 <simple_strtoull+0x80>
87801c56:	7885      	ldrb	r5, [r0, #2]
87801c58:	f81e 2005 	ldrb.w	r2, [lr, r5]
87801c5c:	f012 0f44 	tst.w	r2, #68	; 0x44
87801c60:	d0f0      	beq.n	87801c44 <simple_strtoull+0x100>
87801c62:	4694      	mov	ip, r2
87801c64:	46ab      	mov	fp, r5
87801c66:	3002      	adds	r0, #2
87801c68:	462b      	mov	r3, r5
87801c6a:	2210      	movs	r2, #16
87801c6c:	e77d      	b.n	87801b6a <simple_strtoull+0x26>
87801c6e:	bf00      	nop

87801c70 <simple_strtoll>:
87801c70:	b510      	push	{r4, lr}
87801c72:	7804      	ldrb	r4, [r0, #0]
87801c74:	2c2d      	cmp	r4, #45	; 0x2d
87801c76:	d003      	beq.n	87801c80 <simple_strtoll+0x10>
87801c78:	e8bd 4010 	ldmia.w	sp!, {r4, lr}
87801c7c:	f7ff bf62 	b.w	87801b44 <simple_strtoull>
87801c80:	3001      	adds	r0, #1
87801c82:	f7ff ff5f 	bl	87801b44 <simple_strtoull>
87801c86:	4240      	negs	r0, r0
87801c88:	eb61 0141 	sbc.w	r1, r1, r1, lsl #1
87801c8c:	bd10      	pop	{r4, pc}
87801c8e:	bf00      	nop

87801c90 <vsnprintf>:
87801c90:	e92d 4ff0 	stmdb	sp!, {r4, r5, r6, r7, r8, r9, sl, fp, lr}
87801c94:	469a      	mov	sl, r3
87801c96:	1e0b      	subs	r3, r1, #0
87801c98:	b089      	sub	sp, #36	; 0x24
87801c9a:	9305      	str	r3, [sp, #20]
87801c9c:	f2c0 826a 	blt.w	87802174 <vsnprintf+0x4e4>
87801ca0:	f103 38ff 	add.w	r8, r3, #4294967295	; 0xffffffff
87801ca4:	1e43      	subs	r3, r0, #1
87801ca6:	4480      	add	r8, r0
87801ca8:	4605      	mov	r5, r0
87801caa:	4598      	cmp	r8, r3
87801cac:	9006      	str	r0, [sp, #24]
87801cae:	4614      	mov	r4, r2
87801cb0:	7810      	ldrb	r0, [r2, #0]
87801cb2:	f0c0 80c9 	bcc.w	87801e48 <vsnprintf+0x1b8>
87801cb6:	2800      	cmp	r0, #0
87801cb8:	f000 80d1 	beq.w	87801e5e <vsnprintf+0x1ce>
87801cbc:	f642 23d0 	movw	r3, #10960	; 0x2ad0
87801cc0:	f642 29ec 	movw	r9, #10988	; 0x2aec
87801cc4:	f2c8 7380 	movt	r3, #34688	; 0x8780
87801cc8:	f2c8 7980 	movt	r9, #34688	; 0x8780
87801ccc:	9307      	str	r3, [sp, #28]
87801cce:	e008      	b.n	87801ce2 <vsnprintf+0x52>
87801cd0:	45a8      	cmp	r8, r5
87801cd2:	bf28      	it	cs
87801cd4:	7028      	strbcs	r0, [r5, #0]
87801cd6:	7860      	ldrb	r0, [r4, #1]
87801cd8:	3501      	adds	r5, #1
87801cda:	3401      	adds	r4, #1
87801cdc:	2800      	cmp	r0, #0
87801cde:	f000 80bc 	beq.w	87801e5a <vsnprintf+0x1ca>
87801ce2:	2825      	cmp	r0, #37	; 0x25
87801ce4:	d1f4      	bne.n	87801cd0 <vsnprintf+0x40>
87801ce6:	2700      	movs	r7, #0
87801ce8:	7863      	ldrb	r3, [r4, #1]
87801cea:	1c62      	adds	r2, r4, #1
87801cec:	f1a3 0120 	sub.w	r1, r3, #32
87801cf0:	2910      	cmp	r1, #16
87801cf2:	d81e      	bhi.n	87801d32 <vsnprintf+0xa2>
87801cf4:	e8df f001 	tbb	[pc, r1]
87801cf8:	151d1d19 	ldrne	r1, [sp, #-3353]	; 0xd19
87801cfc:	1d1d1d1d 	ldcne	13, cr1, [sp, #-116]	; 0xffffff8c
87801d00:	111d1d1d 	tstne	sp, sp, lsl sp
87801d04:	1d1d0d1d 	ldcne	13, cr0, [sp, #-116]	; 0xffffff8c
87801d08:	f0470009 			; <UNDEFINED> instruction: 0xf0470009
87801d0c:	0701      	lsls	r1, r0, #28
87801d0e:	4614      	mov	r4, r2
87801d10:	e7ea      	b.n	87801ce8 <vsnprintf+0x58>
87801d12:	f047 0710 	orr.w	r7, r7, #16
87801d16:	4614      	mov	r4, r2
87801d18:	e7e6      	b.n	87801ce8 <vsnprintf+0x58>
87801d1a:	f047 0704 	orr.w	r7, r7, #4
87801d1e:	4614      	mov	r4, r2
87801d20:	e7e2      	b.n	87801ce8 <vsnprintf+0x58>
87801d22:	f047 0720 	orr.w	r7, r7, #32
87801d26:	4614      	mov	r4, r2
87801d28:	e7de      	b.n	87801ce8 <vsnprintf+0x58>
87801d2a:	f047 0708 	orr.w	r7, r7, #8
87801d2e:	4614      	mov	r4, r2
87801d30:	e7da      	b.n	87801ce8 <vsnprintf+0x58>
87801d32:	f819 0003 	ldrb.w	r0, [r9, r3]
87801d36:	4619      	mov	r1, r3
87801d38:	0746      	lsls	r6, r0, #29
87801d3a:	f100 809b 	bmi.w	87801e74 <vsnprintf+0x1e4>
87801d3e:	2b2a      	cmp	r3, #42	; 0x2a
87801d40:	bf18      	it	ne
87801d42:	f04f 36ff 	movne.w	r6, #4294967295	; 0xffffffff
87801d46:	d10a      	bne.n	87801d5e <vsnprintf+0xce>
87801d48:	f8da 6000 	ldr.w	r6, [sl]
87801d4c:	1ca2      	adds	r2, r4, #2
87801d4e:	78a3      	ldrb	r3, [r4, #2]
87801d50:	f10a 0a04 	add.w	sl, sl, #4
87801d54:	2e00      	cmp	r6, #0
87801d56:	bfbc      	itt	lt
87801d58:	4276      	neglt	r6, r6
87801d5a:	f047 0710 	orrlt.w	r7, r7, #16
87801d5e:	2b2e      	cmp	r3, #46	; 0x2e
87801d60:	bf18      	it	ne
87801d62:	f04f 31ff 	movne.w	r1, #4294967295	; 0xffffffff
87801d66:	f000 8098 	beq.w	87801e9a <vsnprintf+0x20a>
87801d6a:	f003 00df 	and.w	r0, r3, #223	; 0xdf
87801d6e:	285a      	cmp	r0, #90	; 0x5a
87801d70:	bf18      	it	ne
87801d72:	284c      	cmpne	r0, #76	; 0x4c
87801d74:	bf0c      	ite	eq
87801d76:	2001      	moveq	r0, #1
87801d78:	2000      	movne	r0, #0
87801d7a:	2b68      	cmp	r3, #104	; 0x68
87801d7c:	bf08      	it	eq
87801d7e:	f040 0001 	orreq.w	r0, r0, #1
87801d82:	2800      	cmp	r0, #0
87801d84:	f000 8100 	beq.w	87801f88 <vsnprintf+0x2f8>
87801d88:	4618      	mov	r0, r3
87801d8a:	1c54      	adds	r4, r2, #1
87801d8c:	286c      	cmp	r0, #108	; 0x6c
87801d8e:	7853      	ldrb	r3, [r2, #1]
87801d90:	f000 8098 	beq.w	87801ec4 <vsnprintf+0x234>
87801d94:	3b25      	subs	r3, #37	; 0x25
87801d96:	2b53      	cmp	r3, #83	; 0x53
87801d98:	f200 81b8 	bhi.w	8780210c <vsnprintf+0x47c>
87801d9c:	e8df f013 	tbh	[pc, r3, lsl #1]
87801da0:	01b60175 			; <UNDEFINED> instruction: 0x01b60175
87801da4:	01b601b6 			; <UNDEFINED> instruction: 0x01b601b6
87801da8:	01b601b6 			; <UNDEFINED> instruction: 0x01b601b6
87801dac:	01b601b6 			; <UNDEFINED> instruction: 0x01b601b6
87801db0:	01b601b6 			; <UNDEFINED> instruction: 0x01b601b6
87801db4:	01b601b6 			; <UNDEFINED> instruction: 0x01b601b6
87801db8:	01b601b6 			; <UNDEFINED> instruction: 0x01b601b6
87801dbc:	01b601b6 			; <UNDEFINED> instruction: 0x01b601b6
87801dc0:	01b601b6 			; <UNDEFINED> instruction: 0x01b601b6
87801dc4:	01b601b6 			; <UNDEFINED> instruction: 0x01b601b6
87801dc8:	01b601b6 			; <UNDEFINED> instruction: 0x01b601b6
87801dcc:	01b601b6 			; <UNDEFINED> instruction: 0x01b601b6
87801dd0:	01b601b6 			; <UNDEFINED> instruction: 0x01b601b6
87801dd4:	01b601b6 			; <UNDEFINED> instruction: 0x01b601b6
87801dd8:	01b601b6 			; <UNDEFINED> instruction: 0x01b601b6
87801ddc:	01b601b6 			; <UNDEFINED> instruction: 0x01b601b6
87801de0:	01b601b6 			; <UNDEFINED> instruction: 0x01b601b6
87801de4:	01b601b6 			; <UNDEFINED> instruction: 0x01b601b6
87801de8:	01b601b6 			; <UNDEFINED> instruction: 0x01b601b6
87801dec:	01b601b6 			; <UNDEFINED> instruction: 0x01b601b6
87801df0:	01b601b6 			; <UNDEFINED> instruction: 0x01b601b6
87801df4:	01b601b6 			; <UNDEFINED> instruction: 0x01b601b6
87801df8:	01b601b6 			; <UNDEFINED> instruction: 0x01b601b6
87801dfc:	01b601b6 			; <UNDEFINED> instruction: 0x01b601b6
87801e00:	01b601b6 			; <UNDEFINED> instruction: 0x01b601b6
87801e04:	019601b6 			; <UNDEFINED> instruction: 0x019601b6
87801e08:	01b601b6 			; <UNDEFINED> instruction: 0x01b601b6
87801e0c:	01b601b6 			; <UNDEFINED> instruction: 0x01b601b6
87801e10:	01b601b6 			; <UNDEFINED> instruction: 0x01b601b6
87801e14:	01b601b6 			; <UNDEFINED> instruction: 0x01b601b6
87801e18:	01b601b6 			; <UNDEFINED> instruction: 0x01b601b6
87801e1c:	01a10153 			; <UNDEFINED> instruction: 0x01a10153
87801e20:	01b601b6 			; <UNDEFINED> instruction: 0x01b601b6
87801e24:	01b601b6 			; <UNDEFINED> instruction: 0x01b601b6
87801e28:	01b601a1 			; <UNDEFINED> instruction: 0x01b601a1
87801e2c:	01b601b6 			; <UNDEFINED> instruction: 0x01b601b6
87801e30:	01ac01b6 			; <UNDEFINED> instruction: 0x01ac01b6
87801e34:	013d01a6 	teqeq	sp, r6, lsr #3
87801e38:	01b601b6 			; <UNDEFINED> instruction: 0x01b601b6
87801e3c:	01b60109 			; <UNDEFINED> instruction: 0x01b60109
87801e40:	01b6017a 			; <UNDEFINED> instruction: 0x01b6017a
87801e44:	01a901b6 			; <UNDEFINED> instruction: 0x01a901b6
87801e48:	426b      	negs	r3, r5
87801e4a:	9305      	str	r3, [sp, #20]
87801e4c:	2800      	cmp	r0, #0
87801e4e:	f000 8096 	beq.w	87801f7e <vsnprintf+0x2ee>
87801e52:	f04f 38ff 	mov.w	r8, #4294967295	; 0xffffffff
87801e56:	e731      	b.n	87801cbc <vsnprintf+0x2c>
87801e58:	4615      	mov	r5, r2
87801e5a:	9b06      	ldr	r3, [sp, #24]
87801e5c:	1ae8      	subs	r0, r5, r3
87801e5e:	45a8      	cmp	r8, r5
87801e60:	f080 808d 	bcs.w	87801f7e <vsnprintf+0x2ee>
87801e64:	9b05      	ldr	r3, [sp, #20]
87801e66:	b113      	cbz	r3, 87801e6e <vsnprintf+0x1de>
87801e68:	2300      	movs	r3, #0
87801e6a:	f888 3000 	strb.w	r3, [r8]
87801e6e:	b009      	add	sp, #36	; 0x24
87801e70:	e8bd 8ff0 	ldmia.w	sp!, {r4, r5, r6, r7, r8, r9, sl, fp, pc}
87801e74:	2600      	movs	r6, #0
87801e76:	eb06 0686 	add.w	r6, r6, r6, lsl #2
87801e7a:	eb01 0646 	add.w	r6, r1, r6, lsl #1
87801e7e:	f812 1f01 	ldrb.w	r1, [r2, #1]!
87801e82:	3e30      	subs	r6, #48	; 0x30
87801e84:	f819 0001 	ldrb.w	r0, [r9, r1]
87801e88:	460b      	mov	r3, r1
87801e8a:	0740      	lsls	r0, r0, #29
87801e8c:	d4f3      	bmi.n	87801e76 <vsnprintf+0x1e6>
87801e8e:	2b2e      	cmp	r3, #46	; 0x2e
87801e90:	bf18      	it	ne
87801e92:	f04f 31ff 	movne.w	r1, #4294967295	; 0xffffffff
87801e96:	f47f af68 	bne.w	87801d6a <vsnprintf+0xda>
87801e9a:	7850      	ldrb	r0, [r2, #1]
87801e9c:	1c54      	adds	r4, r2, #1
87801e9e:	f819 1000 	ldrb.w	r1, [r9, r0]
87801ea2:	4603      	mov	r3, r0
87801ea4:	f011 0104 	ands.w	r1, r1, #4
87801ea8:	d172      	bne.n	87801f90 <vsnprintf+0x300>
87801eaa:	282a      	cmp	r0, #42	; 0x2a
87801eac:	bf09      	itett	eq
87801eae:	f8da 1000 	ldreq.w	r1, [sl]
87801eb2:	4622      	movne	r2, r4
87801eb4:	7893      	ldrbeq	r3, [r2, #2]
87801eb6:	f10a 0a04 	addeq.w	sl, sl, #4
87801eba:	bf04      	itt	eq
87801ebc:	3202      	addeq	r2, #2
87801ebe:	ea21 71e1 	biceq.w	r1, r1, r1, asr #31
87801ec2:	e752      	b.n	87801d6a <vsnprintf+0xda>
87801ec4:	2b6c      	cmp	r3, #108	; 0x6c
87801ec6:	f000 8147 	beq.w	87802158 <vsnprintf+0x4c8>
87801eca:	3b25      	subs	r3, #37	; 0x25
87801ecc:	2b53      	cmp	r3, #83	; 0x53
87801ece:	f200 811d 	bhi.w	8780210c <vsnprintf+0x47c>
87801ed2:	e8df f013 	tbh	[pc, r3, lsl #1]
87801ed6:	011b00da 	ldrsbeq	r0, [fp, -sl]
87801eda:	011b011b 	tsteq	fp, fp, lsl r1
87801ede:	011b011b 	tsteq	fp, fp, lsl r1
87801ee2:	011b011b 	tsteq	fp, fp, lsl r1
87801ee6:	011b011b 	tsteq	fp, fp, lsl r1
87801eea:	011b011b 	tsteq	fp, fp, lsl r1
87801eee:	011b011b 	tsteq	fp, fp, lsl r1
87801ef2:	011b011b 	tsteq	fp, fp, lsl r1
87801ef6:	011b011b 	tsteq	fp, fp, lsl r1
87801efa:	011b011b 	tsteq	fp, fp, lsl r1
87801efe:	011b011b 	tsteq	fp, fp, lsl r1
87801f02:	011b011b 	tsteq	fp, fp, lsl r1
87801f06:	011b011b 	tsteq	fp, fp, lsl r1
87801f0a:	011b011b 	tsteq	fp, fp, lsl r1
87801f0e:	011b011b 	tsteq	fp, fp, lsl r1
87801f12:	011b011b 	tsteq	fp, fp, lsl r1
87801f16:	011b011b 	tsteq	fp, fp, lsl r1
87801f1a:	011b011b 	tsteq	fp, fp, lsl r1
87801f1e:	011b011b 	tsteq	fp, fp, lsl r1
87801f22:	011b011b 	tsteq	fp, fp, lsl r1
87801f26:	011b011b 	tsteq	fp, fp, lsl r1
87801f2a:	011b011b 	tsteq	fp, fp, lsl r1
87801f2e:	011b011b 	tsteq	fp, fp, lsl r1
87801f32:	011b011b 	tsteq	fp, fp, lsl r1
87801f36:	011b011b 	tsteq	fp, fp, lsl r1
87801f3a:	0188011b 	orreq	r0, r8, fp, lsl r1
87801f3e:	011b011b 	tsteq	fp, fp, lsl r1
87801f42:	011b011b 	tsteq	fp, fp, lsl r1
87801f46:	011b011b 	tsteq	fp, fp, lsl r1
87801f4a:	011b011b 	tsteq	fp, fp, lsl r1
87801f4e:	011b011b 	tsteq	fp, fp, lsl r1
87801f52:	018100b8 	strheq	r0, [r1, r8]
87801f56:	011b011b 	tsteq	fp, fp, lsl r1
87801f5a:	011b011b 	tsteq	fp, fp, lsl r1
87801f5e:	011b0181 	tsteq	fp, r1, lsl #3
87801f62:	011b011b 	tsteq	fp, fp, lsl r1
87801f66:	012d011b 	teqeq	sp, fp, lsl r1
87801f6a:	00a2018f 	adceq	r0, r2, pc, lsl #3
87801f6e:	011b011b 	tsteq	fp, fp, lsl r1
87801f72:	011b006e 	tsteq	fp, lr, rrx
87801f76:	011b0194 			; <UNDEFINED> instruction: 0x011b0194
87801f7a:	0136011b 	teqeq	r6, fp, lsl r1
87801f7e:	2300      	movs	r3, #0
87801f80:	702b      	strb	r3, [r5, #0]
87801f82:	b009      	add	sp, #36	; 0x24
87801f84:	e8bd 8ff0 	ldmia.w	sp!, {r4, r5, r6, r7, r8, r9, sl, fp, pc}
87801f88:	4614      	mov	r4, r2
87801f8a:	f04f 30ff 	mov.w	r0, #4294967295	; 0xffffffff
87801f8e:	e701      	b.n	87801d94 <vsnprintf+0x104>
87801f90:	2100      	movs	r1, #0
87801f92:	f814 3f01 	ldrb.w	r3, [r4, #1]!
87801f96:	eb01 0181 	add.w	r1, r1, r1, lsl #2
87801f9a:	eb00 0141 	add.w	r1, r0, r1, lsl #1
87801f9e:	f819 2003 	ldrb.w	r2, [r9, r3]
87801fa2:	4618      	mov	r0, r3
87801fa4:	3930      	subs	r1, #48	; 0x30
87801fa6:	0752      	lsls	r2, r2, #29
87801fa8:	d4f3      	bmi.n	87801f92 <vsnprintf+0x302>
87801faa:	ea21 71e1 	bic.w	r1, r1, r1, asr #31
87801fae:	4622      	mov	r2, r4
87801fb0:	e6db      	b.n	87801d6a <vsnprintf+0xda>
87801fb2:	f8da b000 	ldr.w	fp, [sl]
87801fb6:	f10a 0a04 	add.w	sl, sl, #4
87801fba:	9b07      	ldr	r3, [sp, #28]
87801fbc:	f5bb 6f80 	cmp.w	fp, #1024	; 0x400
87801fc0:	bf38      	it	cc
87801fc2:	469b      	movcc	fp, r3
87801fc4:	4658      	mov	r0, fp
87801fc6:	f7ff f991 	bl	878012ec <strnlen>
87801fca:	06f9      	lsls	r1, r7, #27
87801fcc:	f106 33ff 	add.w	r3, r6, #4294967295	; 0xffffffff
87801fd0:	f140 80d8 	bpl.w	87802184 <vsnprintf+0x4f4>
87801fd4:	2800      	cmp	r0, #0
87801fd6:	bfd8      	it	le
87801fd8:	462a      	movle	r2, r5
87801fda:	dd0d      	ble.n	87801ff8 <vsnprintf+0x368>
87801fdc:	182a      	adds	r2, r5, r0
87801fde:	4545      	cmp	r5, r8
87801fe0:	f105 0501 	add.w	r5, r5, #1
87801fe4:	bf98      	it	ls
87801fe6:	f89b 1000 	ldrbls.w	r1, [fp]
87801fea:	f10b 0b01 	add.w	fp, fp, #1
87801fee:	bf98      	it	ls
87801ff0:	f805 1c01 	strbls.w	r1, [r5, #-1]
87801ff4:	4295      	cmp	r5, r2
87801ff6:	d1f2      	bne.n	87801fde <vsnprintf+0x34e>
87801ff8:	4286      	cmp	r6, r0
87801ffa:	4615      	mov	r5, r2
87801ffc:	bfc2      	ittt	gt
87801ffe:	3301      	addgt	r3, #1
87802000:	2120      	movgt	r1, #32
87802002:	18d2      	addgt	r2, r2, r3
87802004:	dd60      	ble.n	878020c8 <vsnprintf+0x438>
87802006:	4545      	cmp	r5, r8
87802008:	f105 0501 	add.w	r5, r5, #1
8780200c:	bf98      	it	ls
8780200e:	f805 1c01 	strbls.w	r1, [r5, #-1]
87802012:	1b53      	subs	r3, r2, r5
87802014:	4298      	cmp	r0, r3
87802016:	dbf6      	blt.n	87802006 <vsnprintf+0x376>
87802018:	e056      	b.n	878020c8 <vsnprintf+0x438>
8780201a:	1c72      	adds	r2, r6, #1
8780201c:	f8da 2000 	ldr.w	r2, [sl]
87802020:	bf04      	itt	eq
87802022:	f047 0701 	orreq.w	r7, r7, #1
87802026:	2608      	moveq	r6, #8
87802028:	9102      	str	r1, [sp, #8]
8780202a:	2110      	movs	r1, #16
8780202c:	4628      	mov	r0, r5
8780202e:	9100      	str	r1, [sp, #0]
87802030:	9703      	str	r7, [sp, #12]
87802032:	2300      	movs	r3, #0
87802034:	9601      	str	r6, [sp, #4]
87802036:	4641      	mov	r1, r8
87802038:	f7ff fae0 	bl	878015fc <number>
8780203c:	f10a 0a04 	add.w	sl, sl, #4
87802040:	4605      	mov	r5, r0
87802042:	7860      	ldrb	r0, [r4, #1]
87802044:	e649      	b.n	87801cda <vsnprintf+0x4a>
87802046:	06f8      	lsls	r0, r7, #27
87802048:	f106 31ff 	add.w	r1, r6, #4294967295	; 0xffffffff
8780204c:	f140 80af 	bpl.w	878021ae <vsnprintf+0x51e>
87802050:	4545      	cmp	r5, r8
87802052:	f10a 0604 	add.w	r6, sl, #4
87802056:	bf98      	it	ls
87802058:	f8da 3000 	ldrls.w	r3, [sl]
8780205c:	f105 0001 	add.w	r0, r5, #1
87802060:	bf98      	it	ls
87802062:	702b      	strbls	r3, [r5, #0]
87802064:	2900      	cmp	r1, #0
87802066:	f340 80cf 	ble.w	87802208 <vsnprintf+0x578>
8780206a:	1c4a      	adds	r2, r1, #1
8780206c:	4603      	mov	r3, r0
8780206e:	4415      	add	r5, r2
87802070:	2220      	movs	r2, #32
87802072:	4543      	cmp	r3, r8
87802074:	f103 0301 	add.w	r3, r3, #1
87802078:	bf98      	it	ls
8780207a:	f803 2c01 	strbls.w	r2, [r3, #-1]
8780207e:	42ab      	cmp	r3, r5
87802080:	d1f7      	bne.n	87802072 <vsnprintf+0x3e2>
87802082:	1845      	adds	r5, r0, r1
87802084:	46b2      	mov	sl, r6
87802086:	7860      	ldrb	r0, [r4, #1]
87802088:	e627      	b.n	87801cda <vsnprintf+0x4a>
8780208a:	45a8      	cmp	r8, r5
8780208c:	bf24      	itt	cs
8780208e:	2325      	movcs	r3, #37	; 0x25
87802090:	702b      	strbcs	r3, [r5, #0]
87802092:	e620      	b.n	87801cd6 <vsnprintf+0x46>
87802094:	f04f 0c0a 	mov.w	ip, #10
87802098:	284c      	cmp	r0, #76	; 0x4c
8780209a:	d01d      	beq.n	878020d8 <vsnprintf+0x448>
8780209c:	286c      	cmp	r0, #108	; 0x6c
8780209e:	f10a 0e04 	add.w	lr, sl, #4
878020a2:	d052      	beq.n	8780214a <vsnprintf+0x4ba>
878020a4:	f020 0320 	bic.w	r3, r0, #32
878020a8:	2b5a      	cmp	r3, #90	; 0x5a
878020aa:	d159      	bne.n	87802160 <vsnprintf+0x4d0>
878020ac:	f8da 2000 	ldr.w	r2, [sl]
878020b0:	46f2      	mov	sl, lr
878020b2:	2300      	movs	r3, #0
878020b4:	e9cd 1702 	strd	r1, r7, [sp, #8]
878020b8:	4628      	mov	r0, r5
878020ba:	9601      	str	r6, [sp, #4]
878020bc:	4641      	mov	r1, r8
878020be:	f8cd c000 	str.w	ip, [sp]
878020c2:	f7ff fa9b 	bl	878015fc <number>
878020c6:	4605      	mov	r5, r0
878020c8:	7860      	ldrb	r0, [r4, #1]
878020ca:	e606      	b.n	87801cda <vsnprintf+0x4a>
878020cc:	284c      	cmp	r0, #76	; 0x4c
878020ce:	f047 0740 	orr.w	r7, r7, #64	; 0x40
878020d2:	f04f 0c10 	mov.w	ip, #16
878020d6:	d1e1      	bne.n	8780209c <vsnprintf+0x40c>
878020d8:	e9da 2300 	ldrd	r2, r3, [sl]
878020dc:	f10a 0a08 	add.w	sl, sl, #8
878020e0:	e7e8      	b.n	878020b4 <vsnprintf+0x424>
878020e2:	f047 0702 	orr.w	r7, r7, #2
878020e6:	f04f 0c0a 	mov.w	ip, #10
878020ea:	e7d5      	b.n	87802098 <vsnprintf+0x408>
878020ec:	f04f 0c08 	mov.w	ip, #8
878020f0:	e7d2      	b.n	87802098 <vsnprintf+0x408>
878020f2:	f04f 0c10 	mov.w	ip, #16
878020f6:	e7cf      	b.n	87802098 <vsnprintf+0x408>
878020f8:	9b06      	ldr	r3, [sp, #24]
878020fa:	f8da 2000 	ldr.w	r2, [sl]
878020fe:	1ae9      	subs	r1, r5, r3
87802100:	f10a 0304 	add.w	r3, sl, #4
87802104:	6011      	str	r1, [r2, #0]
87802106:	469a      	mov	sl, r3
87802108:	7860      	ldrb	r0, [r4, #1]
8780210a:	e5e6      	b.n	87801cda <vsnprintf+0x4a>
8780210c:	45a8      	cmp	r8, r5
8780210e:	f105 0201 	add.w	r2, r5, #1
87802112:	bf24      	itt	cs
87802114:	2325      	movcs	r3, #37	; 0x25
87802116:	702b      	strbcs	r3, [r5, #0]
87802118:	7823      	ldrb	r3, [r4, #0]
8780211a:	2b00      	cmp	r3, #0
8780211c:	f43f ae9c 	beq.w	87801e58 <vsnprintf+0x1c8>
87802120:	4542      	cmp	r2, r8
87802122:	f105 0502 	add.w	r5, r5, #2
87802126:	bf98      	it	ls
87802128:	f805 3c01 	strbls.w	r3, [r5, #-1]
8780212c:	7860      	ldrb	r0, [r4, #1]
8780212e:	e5d4      	b.n	87801cda <vsnprintf+0x4a>
87802130:	9906      	ldr	r1, [sp, #24]
87802132:	f10a 0a04 	add.w	sl, sl, #4
87802136:	f85a 3c04 	ldr.w	r3, [sl, #-4]
8780213a:	1a69      	subs	r1, r5, r1
8780213c:	6019      	str	r1, [r3, #0]
8780213e:	7890      	ldrb	r0, [r2, #2]
87802140:	e5cb      	b.n	87801cda <vsnprintf+0x4a>
87802142:	f10a 0e04 	add.w	lr, sl, #4
87802146:	f04f 0c10 	mov.w	ip, #16
8780214a:	07bb      	lsls	r3, r7, #30
8780214c:	f8da 2000 	ldr.w	r2, [sl]
87802150:	46f2      	mov	sl, lr
87802152:	d5ae      	bpl.n	878020b2 <vsnprintf+0x422>
87802154:	17d3      	asrs	r3, r2, #31
87802156:	e7ad      	b.n	878020b4 <vsnprintf+0x424>
87802158:	1c94      	adds	r4, r2, #2
8780215a:	7893      	ldrb	r3, [r2, #2]
8780215c:	204c      	movs	r0, #76	; 0x4c
8780215e:	e619      	b.n	87801d94 <vsnprintf+0x104>
87802160:	2868      	cmp	r0, #104	; 0x68
87802162:	f8da 2000 	ldr.w	r2, [sl]
87802166:	f007 0302 	and.w	r3, r7, #2
8780216a:	46f2      	mov	sl, lr
8780216c:	d006      	beq.n	8780217c <vsnprintf+0x4ec>
8780216e:	2b00      	cmp	r3, #0
87802170:	d1f0      	bne.n	87802154 <vsnprintf+0x4c4>
87802172:	e79e      	b.n	878020b2 <vsnprintf+0x422>
87802174:	2000      	movs	r0, #0
87802176:	b009      	add	sp, #36	; 0x24
87802178:	e8bd 8ff0 	ldmia.w	sp!, {r4, r5, r6, r7, r8, r9, sl, fp, pc}
8780217c:	b34b      	cbz	r3, 878021d2 <vsnprintf+0x542>
8780217e:	b212      	sxth	r2, r2
87802180:	17d3      	asrs	r3, r2, #31
87802182:	e797      	b.n	878020b4 <vsnprintf+0x424>
87802184:	4286      	cmp	r6, r0
87802186:	bfde      	ittt	le
87802188:	1eb2      	suble	r2, r6, #2
8780218a:	461e      	movle	r6, r3
8780218c:	4613      	movle	r3, r2
8780218e:	f77f af21 	ble.w	87801fd4 <vsnprintf+0x344>
87802192:	1a33      	subs	r3, r6, r0
87802194:	2220      	movs	r2, #32
87802196:	442b      	add	r3, r5
87802198:	4545      	cmp	r5, r8
8780219a:	f105 0501 	add.w	r5, r5, #1
8780219e:	bf98      	it	ls
878021a0:	f805 2c01 	strbls.w	r2, [r5, #-1]
878021a4:	429d      	cmp	r5, r3
878021a6:	d1f7      	bne.n	87802198 <vsnprintf+0x508>
878021a8:	1e46      	subs	r6, r0, #1
878021aa:	1e73      	subs	r3, r6, #1
878021ac:	e712      	b.n	87801fd4 <vsnprintf+0x344>
878021ae:	2900      	cmp	r1, #0
878021b0:	bfd8      	it	le
878021b2:	1eb1      	suble	r1, r6, #2
878021b4:	f77f af4c 	ble.w	87802050 <vsnprintf+0x3c0>
878021b8:	4429      	add	r1, r5
878021ba:	2320      	movs	r3, #32
878021bc:	4545      	cmp	r5, r8
878021be:	f105 0501 	add.w	r5, r5, #1
878021c2:	bf98      	it	ls
878021c4:	f805 3c01 	strbls.w	r3, [r5, #-1]
878021c8:	428d      	cmp	r5, r1
878021ca:	d1f7      	bne.n	878021bc <vsnprintf+0x52c>
878021cc:	f04f 31ff 	mov.w	r1, #4294967295	; 0xffffffff
878021d0:	e73e      	b.n	87802050 <vsnprintf+0x3c0>
878021d2:	b292      	uxth	r2, r2
878021d4:	2300      	movs	r3, #0
878021d6:	e76d      	b.n	878020b4 <vsnprintf+0x424>
878021d8:	f047 0702 	orr.w	r7, r7, #2
878021dc:	f10a 0e04 	add.w	lr, sl, #4
878021e0:	f04f 0c0a 	mov.w	ip, #10
878021e4:	e7b1      	b.n	8780214a <vsnprintf+0x4ba>
878021e6:	f047 0740 	orr.w	r7, r7, #64	; 0x40
878021ea:	f10a 0e04 	add.w	lr, sl, #4
878021ee:	f04f 0c10 	mov.w	ip, #16
878021f2:	e7aa      	b.n	8780214a <vsnprintf+0x4ba>
878021f4:	f10a 0e04 	add.w	lr, sl, #4
878021f8:	f04f 0c08 	mov.w	ip, #8
878021fc:	e7a5      	b.n	8780214a <vsnprintf+0x4ba>
878021fe:	f10a 0e04 	add.w	lr, sl, #4
87802202:	f04f 0c0a 	mov.w	ip, #10
87802206:	e7a0      	b.n	8780214a <vsnprintf+0x4ba>
87802208:	4605      	mov	r5, r0
8780220a:	46b2      	mov	sl, r6
8780220c:	7860      	ldrb	r0, [r4, #1]
8780220e:	e564      	b.n	87801cda <vsnprintf+0x4a>

87802210 <vscnprintf>:
87802210:	b510      	push	{r4, lr}
87802212:	460c      	mov	r4, r1
87802214:	f7ff fd3c 	bl	87801c90 <vsnprintf>
87802218:	42a0      	cmp	r0, r4
8780221a:	bf28      	it	cs
8780221c:	f104 30ff 	addcs.w	r0, r4, #4294967295	; 0xffffffff
87802220:	bd10      	pop	{r4, pc}
87802222:	bf00      	nop

87802224 <snprintf>:
87802224:	b40c      	push	{r2, r3}
87802226:	b508      	push	{r3, lr}
87802228:	ab03      	add	r3, sp, #12
8780222a:	9a02      	ldr	r2, [sp, #8]
8780222c:	f7ff fd30 	bl	87801c90 <vsnprintf>
87802230:	e8bd 4008 	ldmia.w	sp!, {r3, lr}
87802234:	b002      	add	sp, #8
87802236:	4770      	bx	lr

87802238 <scnprintf>:
87802238:	b40c      	push	{r2, r3}
8780223a:	b510      	push	{r4, lr}
8780223c:	460c      	mov	r4, r1
8780223e:	ab03      	add	r3, sp, #12
87802240:	9a02      	ldr	r2, [sp, #8]
87802242:	f7ff fd25 	bl	87801c90 <vsnprintf>
87802246:	42a0      	cmp	r0, r4
87802248:	bf28      	it	cs
8780224a:	f104 30ff 	addcs.w	r0, r4, #4294967295	; 0xffffffff
8780224e:	e8bd 4010 	ldmia.w	sp!, {r4, lr}
87802252:	b002      	add	sp, #8
87802254:	4770      	bx	lr
87802256:	bf00      	nop

87802258 <vsprintf>:
87802258:	4613      	mov	r3, r2
8780225a:	460a      	mov	r2, r1
8780225c:	f06f 4100 	mvn.w	r1, #2147483648	; 0x80000000
87802260:	f7ff bd16 	b.w	87801c90 <vsnprintf>

87802264 <sprintf>:
87802264:	b40e      	push	{r1, r2, r3}
87802266:	f06f 4100 	mvn.w	r1, #2147483648	; 0x80000000
8780226a:	b500      	push	{lr}
8780226c:	ab02      	add	r3, sp, #8
8780226e:	9a01      	ldr	r2, [sp, #4]
87802270:	f7ff fd0e 	bl	87801c90 <vsnprintf>
87802274:	f85d eb04 	ldr.w	lr, [sp], #4
87802278:	b003      	add	sp, #12
8780227a:	4770      	bx	lr

8780227c <vsscanf>:
8780227c:	e92d 47f0 	stmdb	sp!, {r4, r5, r6, r7, r8, r9, sl, lr}
87802280:	f642 24ec 	movw	r4, #10988	; 0x2aec
87802284:	780b      	ldrb	r3, [r1, #0]
87802286:	b082      	sub	sp, #8
87802288:	4680      	mov	r8, r0
8780228a:	460d      	mov	r5, r1
8780228c:	f2c8 7480 	movt	r4, #34688	; 0x8780
87802290:	2700      	movs	r7, #0
87802292:	b143      	cbz	r3, 878022a6 <vsscanf+0x2a>
87802294:	7806      	ldrb	r6, [r0, #0]
87802296:	b136      	cbz	r6, 878022a6 <vsscanf+0x2a>
87802298:	5ce1      	ldrb	r1, [r4, r3]
8780229a:	0689      	lsls	r1, r1, #26
8780229c:	d407      	bmi.n	878022ae <vsscanf+0x32>
8780229e:	2b25      	cmp	r3, #37	; 0x25
878022a0:	d01f      	beq.n	878022e2 <vsscanf+0x66>
878022a2:	42b3      	cmp	r3, r6
878022a4:	d017      	beq.n	878022d6 <vsscanf+0x5a>
878022a6:	4638      	mov	r0, r7
878022a8:	b002      	add	sp, #8
878022aa:	e8bd 87f0 	ldmia.w	sp!, {r4, r5, r6, r7, r8, r9, sl, pc}
878022ae:	f815 3f01 	ldrb.w	r3, [r5, #1]!
878022b2:	5ce1      	ldrb	r1, [r4, r3]
878022b4:	0689      	lsls	r1, r1, #26
878022b6:	d4fa      	bmi.n	878022ae <vsscanf+0x32>
878022b8:	5da1      	ldrb	r1, [r4, r6]
878022ba:	068e      	lsls	r6, r1, #26
878022bc:	d504      	bpl.n	878022c8 <vsscanf+0x4c>
878022be:	f810 1f01 	ldrb.w	r1, [r0, #1]!
878022c2:	5c61      	ldrb	r1, [r4, r1]
878022c4:	0689      	lsls	r1, r1, #26
878022c6:	d4fa      	bmi.n	878022be <vsscanf+0x42>
878022c8:	2b25      	cmp	r3, #37	; 0x25
878022ca:	bf18      	it	ne
878022cc:	2b00      	cmpne	r3, #0
878022ce:	d006      	beq.n	878022de <vsscanf+0x62>
878022d0:	7806      	ldrb	r6, [r0, #0]
878022d2:	42b3      	cmp	r3, r6
878022d4:	d1e7      	bne.n	878022a6 <vsscanf+0x2a>
878022d6:	786b      	ldrb	r3, [r5, #1]
878022d8:	3001      	adds	r0, #1
878022da:	3501      	adds	r5, #1
878022dc:	e7d9      	b.n	87802292 <vsscanf+0x16>
878022de:	2b00      	cmp	r3, #0
878022e0:	d0e1      	beq.n	878022a6 <vsscanf+0x2a>
878022e2:	786b      	ldrb	r3, [r5, #1]
878022e4:	3501      	adds	r5, #1
878022e6:	2b2a      	cmp	r3, #42	; 0x2a
878022e8:	461e      	mov	r6, r3
878022ea:	5ce1      	ldrb	r1, [r4, r3]
878022ec:	f000 81f5 	beq.w	878026da <vsscanf+0x45e>
878022f0:	0749      	lsls	r1, r1, #29
878022f2:	bf58      	it	pl
878022f4:	f04f 31ff 	movpl.w	r1, #4294967295	; 0xffffffff
878022f8:	f100 80d0 	bmi.w	8780249c <vsscanf+0x220>
878022fc:	f003 06df 	and.w	r6, r3, #223	; 0xdf
87802300:	2e5a      	cmp	r6, #90	; 0x5a
87802302:	bf18      	it	ne
87802304:	2e4c      	cmpne	r6, #76	; 0x4c
87802306:	bf0c      	ite	eq
87802308:	2601      	moveq	r6, #1
8780230a:	2600      	movne	r6, #0
8780230c:	2b68      	cmp	r3, #104	; 0x68
8780230e:	bf08      	it	eq
87802310:	f046 0601 	orreq.w	r6, r6, #1
87802314:	2e00      	cmp	r6, #0
87802316:	f000 81db 	beq.w	878026d0 <vsscanf+0x454>
8780231a:	f895 c001 	ldrb.w	ip, [r5, #1]
8780231e:	f105 0901 	add.w	r9, r5, #1
87802322:	459c      	cmp	ip, r3
87802324:	f000 8193 	beq.w	8780264e <vsscanf+0x3d2>
87802328:	f1bc 0f00 	cmp.w	ip, #0
8780232c:	d0bb      	beq.n	878022a6 <vsscanf+0x2a>
8780232e:	7806      	ldrb	r6, [r0, #0]
87802330:	2e00      	cmp	r6, #0
87802332:	d0b8      	beq.n	878022a6 <vsscanf+0x2a>
87802334:	f1ac 0c25 	sub.w	ip, ip, #37	; 0x25
87802338:	f109 0501 	add.w	r5, r9, #1
8780233c:	f1bc 0f53 	cmp.w	ip, #83	; 0x53
87802340:	d8b1      	bhi.n	878022a6 <vsscanf+0x2a>
87802342:	f20f 0e08 	addw	lr, pc, #8
87802346:	f85e f02c 	ldr.w	pc, [lr, ip, lsl #2]
8780234a:	bf00      	nop
8780234c:	87802587 	strhi	r2, [r0, r7, lsl #11]
87802350:	878022a7 	strhi	r2, [r0, r7, lsr #5]
87802354:	878022a7 	strhi	r2, [r0, r7, lsr #5]
87802358:	878022a7 	strhi	r2, [r0, r7, lsr #5]
8780235c:	878022a7 	strhi	r2, [r0, r7, lsr #5]
87802360:	878022a7 	strhi	r2, [r0, r7, lsr #5]
87802364:	878022a7 	strhi	r2, [r0, r7, lsr #5]
87802368:	878022a7 	strhi	r2, [r0, r7, lsr #5]
8780236c:	878022a7 	strhi	r2, [r0, r7, lsr #5]
87802370:	878022a7 	strhi	r2, [r0, r7, lsr #5]
87802374:	878022a7 	strhi	r2, [r0, r7, lsr #5]
87802378:	878022a7 	strhi	r2, [r0, r7, lsr #5]
8780237c:	878022a7 	strhi	r2, [r0, r7, lsr #5]
87802380:	878022a7 	strhi	r2, [r0, r7, lsr #5]
87802384:	878022a7 	strhi	r2, [r0, r7, lsr #5]
87802388:	878022a7 	strhi	r2, [r0, r7, lsr #5]
8780238c:	878022a7 	strhi	r2, [r0, r7, lsr #5]
87802390:	878022a7 	strhi	r2, [r0, r7, lsr #5]
87802394:	878022a7 	strhi	r2, [r0, r7, lsr #5]
87802398:	878022a7 	strhi	r2, [r0, r7, lsr #5]
8780239c:	878022a7 	strhi	r2, [r0, r7, lsr #5]
878023a0:	878022a7 	strhi	r2, [r0, r7, lsr #5]
878023a4:	878022a7 	strhi	r2, [r0, r7, lsr #5]
878023a8:	878022a7 	strhi	r2, [r0, r7, lsr #5]
878023ac:	878022a7 	strhi	r2, [r0, r7, lsr #5]
878023b0:	878022a7 	strhi	r2, [r0, r7, lsr #5]
878023b4:	878022a7 	strhi	r2, [r0, r7, lsr #5]
878023b8:	878022a7 	strhi	r2, [r0, r7, lsr #5]
878023bc:	878022a7 	strhi	r2, [r0, r7, lsr #5]
878023c0:	878022a7 	strhi	r2, [r0, r7, lsr #5]
878023c4:	878022a7 	strhi	r2, [r0, r7, lsr #5]
878023c8:	878022a7 	strhi	r2, [r0, r7, lsr #5]
878023cc:	878022a7 	strhi	r2, [r0, r7, lsr #5]
878023d0:	878022a7 	strhi	r2, [r0, r7, lsr #5]
878023d4:	878022a7 	strhi	r2, [r0, r7, lsr #5]
878023d8:	878022a7 	strhi	r2, [r0, r7, lsr #5]
878023dc:	878022a7 	strhi	r2, [r0, r7, lsr #5]
878023e0:	878022a7 	strhi	r2, [r0, r7, lsr #5]
878023e4:	878022a7 	strhi	r2, [r0, r7, lsr #5]
878023e8:	878022a7 	strhi	r2, [r0, r7, lsr #5]
878023ec:	878022a7 	strhi	r2, [r0, r7, lsr #5]
878023f0:	878022a7 	strhi	r2, [r0, r7, lsr #5]
878023f4:	878022a7 	strhi	r2, [r0, r7, lsr #5]
878023f8:	878022a7 	strhi	r2, [r0, r7, lsr #5]
878023fc:	878022a7 	strhi	r2, [r0, r7, lsr #5]
87802400:	878022a7 	strhi	r2, [r0, r7, lsr #5]
87802404:	878022a7 	strhi	r2, [r0, r7, lsr #5]
87802408:	878022a7 	strhi	r2, [r0, r7, lsr #5]
8780240c:	878022a7 	strhi	r2, [r0, r7, lsr #5]
87802410:	878022a7 	strhi	r2, [r0, r7, lsr #5]
87802414:	878022a7 	strhi	r2, [r0, r7, lsr #5]
87802418:	87802637 			; <UNDEFINED> instruction: 0x87802637
8780241c:	878022a7 	strhi	r2, [r0, r7, lsr #5]
87802420:	878022a7 	strhi	r2, [r0, r7, lsr #5]
87802424:	878022a7 	strhi	r2, [r0, r7, lsr #5]
87802428:	878022a7 	strhi	r2, [r0, r7, lsr #5]
8780242c:	878022a7 	strhi	r2, [r0, r7, lsr #5]
87802430:	878022a7 	strhi	r2, [r0, r7, lsr #5]
87802434:	878022a7 	strhi	r2, [r0, r7, lsr #5]
87802438:	878022a7 	strhi	r2, [r0, r7, lsr #5]
8780243c:	878022a7 	strhi	r2, [r0, r7, lsr #5]
87802440:	878022a7 	strhi	r2, [r0, r7, lsr #5]
87802444:	8780260b 	strhi	r2, [r0, fp, lsl #12]
87802448:	878024bb 			; <UNDEFINED> instruction: 0x878024bb
8780244c:	878022a7 	strhi	r2, [r0, r7, lsr #5]
87802450:	878022a7 	strhi	r2, [r0, r7, lsr #5]
87802454:	878022a7 	strhi	r2, [r0, r7, lsr #5]
87802458:	878022a7 	strhi	r2, [r0, r7, lsr #5]
8780245c:	87802643 	strhi	r2, [r0, r3, asr #12]
87802460:	878022a7 	strhi	r2, [r0, r7, lsr #5]
87802464:	878022a7 	strhi	r2, [r0, r7, lsr #5]
87802468:	878022a7 	strhi	r2, [r0, r7, lsr #5]
8780246c:	878022a7 	strhi	r2, [r0, r7, lsr #5]
87802470:	87802595 			; <UNDEFINED> instruction: 0x87802595
87802474:	878025a5 	strhi	r2, [r0, r5, lsr #11]
87802478:	878022a7 	strhi	r2, [r0, r7, lsr #5]
8780247c:	878022a7 	strhi	r2, [r0, r7, lsr #5]
87802480:	878022a7 	strhi	r2, [r0, r7, lsr #5]
87802484:	878025b1 			; <UNDEFINED> instruction: 0x878025b1
87802488:	878022a7 	strhi	r2, [r0, r7, lsr #5]
8780248c:	878025ff 			; <UNDEFINED> instruction: 0x878025ff
87802490:	878022a7 	strhi	r2, [r0, r7, lsr #5]
87802494:	878022a7 	strhi	r2, [r0, r7, lsr #5]
87802498:	87802637 			; <UNDEFINED> instruction: 0x87802637
8780249c:	2100      	movs	r1, #0
8780249e:	eb01 0181 	add.w	r1, r1, r1, lsl #2
878024a2:	eb06 0141 	add.w	r1, r6, r1, lsl #1
878024a6:	f815 6f01 	ldrb.w	r6, [r5, #1]!
878024aa:	3930      	subs	r1, #48	; 0x30
878024ac:	f814 c006 	ldrb.w	ip, [r4, r6]
878024b0:	4633      	mov	r3, r6
878024b2:	f01c 0f04 	tst.w	ip, #4
878024b6:	d1f2      	bne.n	8780249e <vsscanf+0x222>
878024b8:	e720      	b.n	878022fc <vsscanf+0x80>
878024ba:	f04f 0a01 	mov.w	sl, #1
878024be:	f04f 0c0a 	mov.w	ip, #10
878024c2:	46d6      	mov	lr, sl
878024c4:	5da1      	ldrb	r1, [r4, r6]
878024c6:	0689      	lsls	r1, r1, #26
878024c8:	f140 8127 	bpl.w	8780271a <vsscanf+0x49e>
878024cc:	f810 6f01 	ldrb.w	r6, [r0, #1]!
878024d0:	5da1      	ldrb	r1, [r4, r6]
878024d2:	0689      	lsls	r1, r1, #26
878024d4:	d4fa      	bmi.n	878024cc <vsscanf+0x250>
878024d6:	2e2d      	cmp	r6, #45	; 0x2d
878024d8:	bf14      	ite	ne
878024da:	2100      	movne	r1, #0
878024dc:	f00a 0101 	andeq.w	r1, sl, #1
878024e0:	b101      	cbz	r1, 878024e4 <vsscanf+0x268>
878024e2:	7846      	ldrb	r6, [r0, #1]
878024e4:	2e00      	cmp	r6, #0
878024e6:	f43f aede 	beq.w	878022a6 <vsscanf+0x2a>
878024ea:	f1bc 0f10 	cmp.w	ip, #16
878024ee:	f000 80e9 	beq.w	878026c4 <vsscanf+0x448>
878024f2:	f1bc 0f0a 	cmp.w	ip, #10
878024f6:	f000 80e0 	beq.w	878026ba <vsscanf+0x43e>
878024fa:	f1bc 0f08 	cmp.w	ip, #8
878024fe:	f040 80d8 	bne.w	878026b2 <vsscanf+0x436>
87802502:	5da1      	ldrb	r1, [r4, r6]
87802504:	f081 0104 	eor.w	r1, r1, #4
87802508:	f3c1 0180 	ubfx	r1, r1, #2, #1
8780250c:	2e37      	cmp	r6, #55	; 0x37
8780250e:	bf94      	ite	ls
87802510:	460e      	movls	r6, r1
87802512:	f041 0601 	orrhi.w	r6, r1, #1
87802516:	2e00      	cmp	r6, #0
87802518:	f47f aec5 	bne.w	878022a6 <vsscanf+0x2a>
8780251c:	3b48      	subs	r3, #72	; 0x48
8780251e:	1d16      	adds	r6, r2, #4
87802520:	f8d2 a000 	ldr.w	sl, [r2]
87802524:	2b32      	cmp	r3, #50	; 0x32
87802526:	d81b      	bhi.n	87802560 <vsscanf+0x2e4>
87802528:	e8df f003 	tbb	[pc, r3]
8780252c:	1a1a1ab9 	bne	87e89018 <__bss_end+0x685f24>
87802530:	1a1a1aaf 	bne	87e88ff4 <__bss_end+0x685f00>
87802534:	1a1a1a1a 	bne	87e88da4 <__bss_end+0x685cb0>
87802538:	1a1a1a1a 	bne	87e88da8 <__bss_end+0x685cb4>
8780253c:	1aa81a1a 	bne	86208dac <shift+0x86208dac>
87802540:	1a1a1a1a 	bne	87e88db0 <__bss_end+0x685cbc>
87802544:	1a1a1a1a 	bne	87e88db4 <__bss_end+0x685cc0>
87802548:	1a1a1a1a 	bne	87e88db8 <__bss_end+0x685cc4>
8780254c:	1a1a1a9e 	bne	87e88fcc <__bss_end+0x685ed8>
87802550:	1a1a1a1a 	bne	87e88dc0 <__bss_end+0x685ccc>
87802554:	1a1a1a1a 	bne	87e88dc4 <__bss_end+0x685cd0>
87802558:	1a1a1a1a 	bne	87e88dc8 <__bss_end+0x685cd4>
8780255c:	00a81a1a 	adceq	r1, r8, sl, lsl sl
87802560:	4662      	mov	r2, ip
87802562:	a901      	add	r1, sp, #4
87802564:	f1be 0f00 	cmp.w	lr, #0
87802568:	f000 80d2 	beq.w	87802710 <vsscanf+0x494>
8780256c:	f7ff fadc 	bl	87801b28 <simple_strtol>
87802570:	f8ca 0000 	str.w	r0, [sl]
87802574:	9801      	ldr	r0, [sp, #4]
87802576:	3701      	adds	r7, #1
87802578:	2800      	cmp	r0, #0
8780257a:	f43f ae94 	beq.w	878022a6 <vsscanf+0x2a>
8780257e:	f899 3001 	ldrb.w	r3, [r9, #1]
87802582:	4632      	mov	r2, r6
87802584:	e685      	b.n	87802292 <vsscanf+0x16>
87802586:	2e25      	cmp	r6, #37	; 0x25
87802588:	f47f ae8d 	bne.w	878022a6 <vsscanf+0x2a>
8780258c:	3001      	adds	r0, #1
8780258e:	f899 3001 	ldrb.w	r3, [r9, #1]
87802592:	e67e      	b.n	87802292 <vsscanf+0x16>
87802594:	6813      	ldr	r3, [r2, #0]
87802596:	eba0 0108 	sub.w	r1, r0, r8
8780259a:	3204      	adds	r2, #4
8780259c:	6019      	str	r1, [r3, #0]
8780259e:	f899 3001 	ldrb.w	r3, [r9, #1]
878025a2:	e676      	b.n	87802292 <vsscanf+0x16>
878025a4:	f04f 0a00 	mov.w	sl, #0
878025a8:	f04f 0c08 	mov.w	ip, #8
878025ac:	46d6      	mov	lr, sl
878025ae:	e789      	b.n	878024c4 <vsscanf+0x248>
878025b0:	f102 0e04 	add.w	lr, r2, #4
878025b4:	f8d2 c000 	ldr.w	ip, [r2]
878025b8:	1c4a      	adds	r2, r1, #1
878025ba:	5da3      	ldrb	r3, [r4, r6]
878025bc:	f000 80cb 	beq.w	87802756 <vsscanf+0x4da>
878025c0:	069b      	lsls	r3, r3, #26
878025c2:	d505      	bpl.n	878025d0 <vsscanf+0x354>
878025c4:	f810 6f01 	ldrb.w	r6, [r0, #1]!
878025c8:	5da3      	ldrb	r3, [r4, r6]
878025ca:	069a      	lsls	r2, r3, #26
878025cc:	d4fa      	bmi.n	878025c4 <vsscanf+0x348>
878025ce:	b176      	cbz	r6, 878025ee <vsscanf+0x372>
878025d0:	b169      	cbz	r1, 878025ee <vsscanf+0x372>
878025d2:	1c43      	adds	r3, r0, #1
878025d4:	e004      	b.n	878025e0 <vsscanf+0x364>
878025d6:	5da2      	ldrb	r2, [r4, r6]
878025d8:	0692      	lsls	r2, r2, #26
878025da:	d408      	bmi.n	878025ee <vsscanf+0x372>
878025dc:	3901      	subs	r1, #1
878025de:	d006      	beq.n	878025ee <vsscanf+0x372>
878025e0:	f80c 6b01 	strb.w	r6, [ip], #1
878025e4:	4618      	mov	r0, r3
878025e6:	f813 6b01 	ldrb.w	r6, [r3], #1
878025ea:	2e00      	cmp	r6, #0
878025ec:	d1f3      	bne.n	878025d6 <vsscanf+0x35a>
878025ee:	2300      	movs	r3, #0
878025f0:	3701      	adds	r7, #1
878025f2:	f88c 3000 	strb.w	r3, [ip]
878025f6:	4672      	mov	r2, lr
878025f8:	f899 3001 	ldrb.w	r3, [r9, #1]
878025fc:	e649      	b.n	87802292 <vsscanf+0x16>
878025fe:	f04f 0a00 	mov.w	sl, #0
87802602:	f04f 0c0a 	mov.w	ip, #10
87802606:	46d6      	mov	lr, sl
87802608:	e75c      	b.n	878024c4 <vsscanf+0x248>
8780260a:	1c4b      	adds	r3, r1, #1
8780260c:	f102 0c04 	add.w	ip, r2, #4
87802610:	6812      	ldr	r2, [r2, #0]
87802612:	f000 80a6 	beq.w	87802762 <vsscanf+0x4e6>
87802616:	1c43      	adds	r3, r0, #1
87802618:	3901      	subs	r1, #1
8780261a:	f802 6b01 	strb.w	r6, [r2], #1
8780261e:	2900      	cmp	r1, #0
87802620:	4618      	mov	r0, r3
87802622:	dd03      	ble.n	8780262c <vsscanf+0x3b0>
87802624:	f813 6b01 	ldrb.w	r6, [r3], #1
87802628:	2e00      	cmp	r6, #0
8780262a:	d1f5      	bne.n	87802618 <vsscanf+0x39c>
8780262c:	3701      	adds	r7, #1
8780262e:	f899 3001 	ldrb.w	r3, [r9, #1]
87802632:	4662      	mov	r2, ip
87802634:	e62d      	b.n	87802292 <vsscanf+0x16>
87802636:	f04f 0a00 	mov.w	sl, #0
8780263a:	f04f 0c10 	mov.w	ip, #16
8780263e:	46d6      	mov	lr, sl
87802640:	e740      	b.n	878024c4 <vsscanf+0x248>
87802642:	f04f 0a01 	mov.w	sl, #1
87802646:	f04f 0c00 	mov.w	ip, #0
8780264a:	46d6      	mov	lr, sl
8780264c:	e73a      	b.n	878024c4 <vsscanf+0x248>
8780264e:	2b68      	cmp	r3, #104	; 0x68
87802650:	d07b      	beq.n	8780274a <vsscanf+0x4ce>
87802652:	2b6c      	cmp	r3, #108	; 0x6c
87802654:	bf18      	it	ne
87802656:	469c      	movne	ip, r3
87802658:	f47f ae66 	bne.w	87802328 <vsscanf+0xac>
8780265c:	f105 0902 	add.w	r9, r5, #2
87802660:	f895 c002 	ldrb.w	ip, [r5, #2]
87802664:	234c      	movs	r3, #76	; 0x4c
87802666:	e65f      	b.n	87802328 <vsscanf+0xac>
87802668:	4662      	mov	r2, ip
8780266a:	a901      	add	r1, sp, #4
8780266c:	f1be 0f00 	cmp.w	lr, #0
87802670:	d066      	beq.n	87802740 <vsscanf+0x4c4>
87802672:	f7ff fa59 	bl	87801b28 <simple_strtol>
87802676:	f8aa 0000 	strh.w	r0, [sl]
8780267a:	e77b      	b.n	87802574 <vsscanf+0x2f8>
8780267c:	4662      	mov	r2, ip
8780267e:	a901      	add	r1, sp, #4
87802680:	f7ff f9da 	bl	87801a38 <simple_strtoul>
87802684:	f8ca 0000 	str.w	r0, [sl]
87802688:	e774      	b.n	87802574 <vsscanf+0x2f8>
8780268a:	4662      	mov	r2, ip
8780268c:	a901      	add	r1, sp, #4
8780268e:	f1be 0f00 	cmp.w	lr, #0
87802692:	d050      	beq.n	87802736 <vsscanf+0x4ba>
87802694:	f7ff faec 	bl	87801c70 <simple_strtoll>
87802698:	e9ca 0100 	strd	r0, r1, [sl]
8780269c:	e76a      	b.n	87802574 <vsscanf+0x2f8>
8780269e:	4662      	mov	r2, ip
878026a0:	a901      	add	r1, sp, #4
878026a2:	f1be 0f00 	cmp.w	lr, #0
878026a6:	d041      	beq.n	8780272c <vsscanf+0x4b0>
878026a8:	f7ff fa3e 	bl	87801b28 <simple_strtol>
878026ac:	f88a 0000 	strb.w	r0, [sl]
878026b0:	e760      	b.n	87802574 <vsscanf+0x2f8>
878026b2:	f1bc 0f00 	cmp.w	ip, #0
878026b6:	f47f af31 	bne.w	8780251c <vsscanf+0x2a0>
878026ba:	5da1      	ldrb	r1, [r4, r6]
878026bc:	0749      	lsls	r1, r1, #29
878026be:	f57f adf2 	bpl.w	878022a6 <vsscanf+0x2a>
878026c2:	e72b      	b.n	8780251c <vsscanf+0x2a0>
878026c4:	5da1      	ldrb	r1, [r4, r6]
878026c6:	f011 0f44 	tst.w	r1, #68	; 0x44
878026ca:	f47f af27 	bne.w	8780251c <vsscanf+0x2a0>
878026ce:	e5ea      	b.n	878022a6 <vsscanf+0x2a>
878026d0:	469c      	mov	ip, r3
878026d2:	46a9      	mov	r9, r5
878026d4:	f04f 33ff 	mov.w	r3, #4294967295	; 0xffffffff
878026d8:	e626      	b.n	87802328 <vsscanf+0xac>
878026da:	068e      	lsls	r6, r1, #26
878026dc:	d40a      	bmi.n	878026f4 <vsscanf+0x478>
878026de:	f815 3f01 	ldrb.w	r3, [r5, #1]!
878026e2:	5ce1      	ldrb	r1, [r4, r3]
878026e4:	1c1e      	adds	r6, r3, #0
878026e6:	bf18      	it	ne
878026e8:	2601      	movne	r6, #1
878026ea:	f081 0120 	eor.w	r1, r1, #32
878026ee:	ea16 1151 	ands.w	r1, r6, r1, lsr #5
878026f2:	d1f4      	bne.n	878026de <vsscanf+0x462>
878026f4:	7801      	ldrb	r1, [r0, #0]
878026f6:	e001      	b.n	878026fc <vsscanf+0x480>
878026f8:	f810 1f01 	ldrb.w	r1, [r0, #1]!
878026fc:	5c66      	ldrb	r6, [r4, r1]
878026fe:	3100      	adds	r1, #0
87802700:	bf18      	it	ne
87802702:	2101      	movne	r1, #1
87802704:	f086 0620 	eor.w	r6, r6, #32
87802708:	ea11 1156 	ands.w	r1, r1, r6, lsr #5
8780270c:	d1f4      	bne.n	878026f8 <vsscanf+0x47c>
8780270e:	e5c0      	b.n	87802292 <vsscanf+0x16>
87802710:	f7ff f992 	bl	87801a38 <simple_strtoul>
87802714:	f8ca 0000 	str.w	r0, [sl]
87802718:	e72c      	b.n	87802574 <vsscanf+0x2f8>
8780271a:	2e2d      	cmp	r6, #45	; 0x2d
8780271c:	bf14      	ite	ne
8780271e:	2100      	movne	r1, #0
87802720:	f00a 0101 	andeq.w	r1, sl, #1
87802724:	2900      	cmp	r1, #0
87802726:	f47f aedc 	bne.w	878024e2 <vsscanf+0x266>
8780272a:	e6de      	b.n	878024ea <vsscanf+0x26e>
8780272c:	f7ff f984 	bl	87801a38 <simple_strtoul>
87802730:	f88a 0000 	strb.w	r0, [sl]
87802734:	e71e      	b.n	87802574 <vsscanf+0x2f8>
87802736:	f7ff fa05 	bl	87801b44 <simple_strtoull>
8780273a:	e9ca 0100 	strd	r0, r1, [sl]
8780273e:	e719      	b.n	87802574 <vsscanf+0x2f8>
87802740:	f7ff f97a 	bl	87801a38 <simple_strtoul>
87802744:	f8aa 0000 	strh.w	r0, [sl]
87802748:	e714      	b.n	87802574 <vsscanf+0x2f8>
8780274a:	f105 0902 	add.w	r9, r5, #2
8780274e:	f895 c002 	ldrb.w	ip, [r5, #2]
87802752:	2348      	movs	r3, #72	; 0x48
87802754:	e5e8      	b.n	87802328 <vsscanf+0xac>
87802756:	069b      	lsls	r3, r3, #26
87802758:	f06f 4100 	mvn.w	r1, #2147483648	; 0x80000000
8780275c:	f57f af39 	bpl.w	878025d2 <vsscanf+0x356>
87802760:	e730      	b.n	878025c4 <vsscanf+0x348>
87802762:	3001      	adds	r0, #1
87802764:	7016      	strb	r6, [r2, #0]
87802766:	e761      	b.n	8780262c <vsscanf+0x3b0>

87802768 <sscanf>:
87802768:	b40e      	push	{r1, r2, r3}
8780276a:	b500      	push	{lr}
8780276c:	aa02      	add	r2, sp, #8
8780276e:	9901      	ldr	r1, [sp, #4]
87802770:	f7ff fd84 	bl	8780227c <vsscanf>
87802774:	f85d eb04 	ldr.w	lr, [sp], #4
87802778:	b003      	add	sp, #12
8780277a:	4770      	bx	lr

8780277c <__div64_32>:
8780277c:	e92d 43f8 	stmdb	sp!, {r3, r4, r5, r6, r7, r8, r9, lr}
87802780:	4680      	mov	r8, r0
87802782:	e9d0 6700 	ldrd	r6, r7, [r0]
87802786:	4689      	mov	r9, r1
87802788:	460c      	mov	r4, r1
8780278a:	2500      	movs	r5, #0
8780278c:	42b9      	cmp	r1, r7
8780278e:	bf84      	itt	hi
87802790:	f04f 0c00 	movhi.w	ip, #0
87802794:	46e6      	movhi	lr, ip
87802796:	d80c      	bhi.n	878027b2 <__div64_32+0x36>
87802798:	4638      	mov	r0, r7
8780279a:	f000 f849 	bl	87802830 <__aeabi_uidiv>
8780279e:	fb00 f209 	mul.w	r2, r0, r9
878027a2:	f04f 0c00 	mov.w	ip, #0
878027a6:	ebb6 060c 	subs.w	r6, r6, ip
878027aa:	4663      	mov	r3, ip
878027ac:	4686      	mov	lr, r0
878027ae:	eb67 0702 	sbc.w	r7, r7, r2
878027b2:	42bd      	cmp	r5, r7
878027b4:	f04f 0201 	mov.w	r2, #1
878027b8:	bf08      	it	eq
878027ba:	42b4      	cmpeq	r4, r6
878027bc:	bf34      	ite	cc
878027be:	2301      	movcc	r3, #1
878027c0:	2300      	movcs	r3, #0
878027c2:	f1b9 0f00 	cmp.w	r9, #0
878027c6:	bf08      	it	eq
878027c8:	2300      	moveq	r3, #0
878027ca:	b373      	cbz	r3, 8780282a <__div64_32+0xae>
878027cc:	2300      	movs	r3, #0
878027ce:	1924      	adds	r4, r4, r4
878027d0:	416d      	adcs	r5, r5
878027d2:	1892      	adds	r2, r2, r2
878027d4:	415b      	adcs	r3, r3
878027d6:	2c01      	cmp	r4, #1
878027d8:	f175 0100 	sbcs.w	r1, r5, #0
878027dc:	bfac      	ite	ge
878027de:	2101      	movge	r1, #1
878027e0:	2100      	movlt	r1, #0
878027e2:	42bd      	cmp	r5, r7
878027e4:	f001 0101 	and.w	r1, r1, #1
878027e8:	bf08      	it	eq
878027ea:	42b4      	cmpeq	r4, r6
878027ec:	bf28      	it	cs
878027ee:	2100      	movcs	r1, #0
878027f0:	2900      	cmp	r1, #0
878027f2:	d1ec      	bne.n	878027ce <__div64_32+0x52>
878027f4:	42af      	cmp	r7, r5
878027f6:	bf08      	it	eq
878027f8:	42a6      	cmpeq	r6, r4
878027fa:	d306      	bcc.n	8780280a <__div64_32+0x8e>
878027fc:	1b36      	subs	r6, r6, r4
878027fe:	eb67 0705 	sbc.w	r7, r7, r5
87802802:	eb1c 0c02 	adds.w	ip, ip, r2
87802806:	eb4e 0e03 	adc.w	lr, lr, r3
8780280a:	085b      	lsrs	r3, r3, #1
8780280c:	ea4f 0232 	mov.w	r2, r2, rrx
87802810:	086d      	lsrs	r5, r5, #1
87802812:	ea4f 0434 	mov.w	r4, r4, rrx
87802816:	ea52 0103 	orrs.w	r1, r2, r3
8780281a:	d1eb      	bne.n	878027f4 <__div64_32+0x78>
8780281c:	f8c8 c000 	str.w	ip, [r8]
87802820:	4630      	mov	r0, r6
87802822:	f8c8 e004 	str.w	lr, [r8, #4]
87802826:	e8bd 83f8 	ldmia.w	sp!, {r3, r4, r5, r6, r7, r8, r9, pc}
8780282a:	2300      	movs	r3, #0
8780282c:	e7e2      	b.n	878027f4 <__div64_32+0x78>
8780282e:	bf00      	nop

87802830 <__aeabi_uidiv>:
87802830:	1e4a      	subs	r2, r1, #1
87802832:	bf08      	it	eq
87802834:	4770      	bxeq	lr
87802836:	f0c0 8124 	bcc.w	87802a82 <__aeabi_uidiv+0x252>
8780283a:	4288      	cmp	r0, r1
8780283c:	f240 8116 	bls.w	87802a6c <__aeabi_uidiv+0x23c>
87802840:	4211      	tst	r1, r2
87802842:	f000 8117 	beq.w	87802a74 <__aeabi_uidiv+0x244>
87802846:	fab0 f380 	clz	r3, r0
8780284a:	fab1 f281 	clz	r2, r1
8780284e:	eba2 0303 	sub.w	r3, r2, r3
87802852:	f1c3 031f 	rsb	r3, r3, #31
87802856:	a204      	add	r2, pc, #16	; (adr r2, 87802868 <__aeabi_uidiv+0x38>)
87802858:	eb02 1303 	add.w	r3, r2, r3, lsl #4
8780285c:	f04f 0200 	mov.w	r2, #0
87802860:	469f      	mov	pc, r3
87802862:	bf00      	nop
87802864:	f3af 8000 	nop.w
87802868:	ebb0 7fc1 	cmp.w	r0, r1, lsl #31
8780286c:	bf00      	nop
8780286e:	eb42 0202 	adc.w	r2, r2, r2
87802872:	bf28      	it	cs
87802874:	eba0 70c1 	subcs.w	r0, r0, r1, lsl #31
87802878:	ebb0 7f81 	cmp.w	r0, r1, lsl #30
8780287c:	bf00      	nop
8780287e:	eb42 0202 	adc.w	r2, r2, r2
87802882:	bf28      	it	cs
87802884:	eba0 7081 	subcs.w	r0, r0, r1, lsl #30
87802888:	ebb0 7f41 	cmp.w	r0, r1, lsl #29
8780288c:	bf00      	nop
8780288e:	eb42 0202 	adc.w	r2, r2, r2
87802892:	bf28      	it	cs
87802894:	eba0 7041 	subcs.w	r0, r0, r1, lsl #29
87802898:	ebb0 7f01 	cmp.w	r0, r1, lsl #28
8780289c:	bf00      	nop
8780289e:	eb42 0202 	adc.w	r2, r2, r2
878028a2:	bf28      	it	cs
878028a4:	eba0 7001 	subcs.w	r0, r0, r1, lsl #28
878028a8:	ebb0 6fc1 	cmp.w	r0, r1, lsl #27
878028ac:	bf00      	nop
878028ae:	eb42 0202 	adc.w	r2, r2, r2
878028b2:	bf28      	it	cs
878028b4:	eba0 60c1 	subcs.w	r0, r0, r1, lsl #27
878028b8:	ebb0 6f81 	cmp.w	r0, r1, lsl #26
878028bc:	bf00      	nop
878028be:	eb42 0202 	adc.w	r2, r2, r2
878028c2:	bf28      	it	cs
878028c4:	eba0 6081 	subcs.w	r0, r0, r1, lsl #26
878028c8:	ebb0 6f41 	cmp.w	r0, r1, lsl #25
878028cc:	bf00      	nop
878028ce:	eb42 0202 	adc.w	r2, r2, r2
878028d2:	bf28      	it	cs
878028d4:	eba0 6041 	subcs.w	r0, r0, r1, lsl #25
878028d8:	ebb0 6f01 	cmp.w	r0, r1, lsl #24
878028dc:	bf00      	nop
878028de:	eb42 0202 	adc.w	r2, r2, r2
878028e2:	bf28      	it	cs
878028e4:	eba0 6001 	subcs.w	r0, r0, r1, lsl #24
878028e8:	ebb0 5fc1 	cmp.w	r0, r1, lsl #23
878028ec:	bf00      	nop
878028ee:	eb42 0202 	adc.w	r2, r2, r2
878028f2:	bf28      	it	cs
878028f4:	eba0 50c1 	subcs.w	r0, r0, r1, lsl #23
878028f8:	ebb0 5f81 	cmp.w	r0, r1, lsl #22
878028fc:	bf00      	nop
878028fe:	eb42 0202 	adc.w	r2, r2, r2
87802902:	bf28      	it	cs
87802904:	eba0 5081 	subcs.w	r0, r0, r1, lsl #22
87802908:	ebb0 5f41 	cmp.w	r0, r1, lsl #21
8780290c:	bf00      	nop
8780290e:	eb42 0202 	adc.w	r2, r2, r2
87802912:	bf28      	it	cs
87802914:	eba0 5041 	subcs.w	r0, r0, r1, lsl #21
87802918:	ebb0 5f01 	cmp.w	r0, r1, lsl #20
8780291c:	bf00      	nop
8780291e:	eb42 0202 	adc.w	r2, r2, r2
87802922:	bf28      	it	cs
87802924:	eba0 5001 	subcs.w	r0, r0, r1, lsl #20
87802928:	ebb0 4fc1 	cmp.w	r0, r1, lsl #19
8780292c:	bf00      	nop
8780292e:	eb42 0202 	adc.w	r2, r2, r2
87802932:	bf28      	it	cs
87802934:	eba0 40c1 	subcs.w	r0, r0, r1, lsl #19
87802938:	ebb0 4f81 	cmp.w	r0, r1, lsl #18
8780293c:	bf00      	nop
8780293e:	eb42 0202 	adc.w	r2, r2, r2
87802942:	bf28      	it	cs
87802944:	eba0 4081 	subcs.w	r0, r0, r1, lsl #18
87802948:	ebb0 4f41 	cmp.w	r0, r1, lsl #17
8780294c:	bf00      	nop
8780294e:	eb42 0202 	adc.w	r2, r2, r2
87802952:	bf28      	it	cs
87802954:	eba0 4041 	subcs.w	r0, r0, r1, lsl #17
87802958:	ebb0 4f01 	cmp.w	r0, r1, lsl #16
8780295c:	bf00      	nop
8780295e:	eb42 0202 	adc.w	r2, r2, r2
87802962:	bf28      	it	cs
87802964:	eba0 4001 	subcs.w	r0, r0, r1, lsl #16
87802968:	ebb0 3fc1 	cmp.w	r0, r1, lsl #15
8780296c:	bf00      	nop
8780296e:	eb42 0202 	adc.w	r2, r2, r2
87802972:	bf28      	it	cs
87802974:	eba0 30c1 	subcs.w	r0, r0, r1, lsl #15
87802978:	ebb0 3f81 	cmp.w	r0, r1, lsl #14
8780297c:	bf00      	nop
8780297e:	eb42 0202 	adc.w	r2, r2, r2
87802982:	bf28      	it	cs
87802984:	eba0 3081 	subcs.w	r0, r0, r1, lsl #14
87802988:	ebb0 3f41 	cmp.w	r0, r1, lsl #13
8780298c:	bf00      	nop
8780298e:	eb42 0202 	adc.w	r2, r2, r2
87802992:	bf28      	it	cs
87802994:	eba0 3041 	subcs.w	r0, r0, r1, lsl #13
87802998:	ebb0 3f01 	cmp.w	r0, r1, lsl #12
8780299c:	bf00      	nop
8780299e:	eb42 0202 	adc.w	r2, r2, r2
878029a2:	bf28      	it	cs
878029a4:	eba0 3001 	subcs.w	r0, r0, r1, lsl #12
878029a8:	ebb0 2fc1 	cmp.w	r0, r1, lsl #11
878029ac:	bf00      	nop
878029ae:	eb42 0202 	adc.w	r2, r2, r2
878029b2:	bf28      	it	cs
878029b4:	eba0 20c1 	subcs.w	r0, r0, r1, lsl #11
878029b8:	ebb0 2f81 	cmp.w	r0, r1, lsl #10
878029bc:	bf00      	nop
878029be:	eb42 0202 	adc.w	r2, r2, r2
878029c2:	bf28      	it	cs
878029c4:	eba0 2081 	subcs.w	r0, r0, r1, lsl #10
878029c8:	ebb0 2f41 	cmp.w	r0, r1, lsl #9
878029cc:	bf00      	nop
878029ce:	eb42 0202 	adc.w	r2, r2, r2
878029d2:	bf28      	it	cs
878029d4:	eba0 2041 	subcs.w	r0, r0, r1, lsl #9
878029d8:	ebb0 2f01 	cmp.w	r0, r1, lsl #8
878029dc:	bf00      	nop
878029de:	eb42 0202 	adc.w	r2, r2, r2
878029e2:	bf28      	it	cs
878029e4:	eba0 2001 	subcs.w	r0, r0, r1, lsl #8
878029e8:	ebb0 1fc1 	cmp.w	r0, r1, lsl #7
878029ec:	bf00      	nop
878029ee:	eb42 0202 	adc.w	r2, r2, r2
878029f2:	bf28      	it	cs
878029f4:	eba0 10c1 	subcs.w	r0, r0, r1, lsl #7
878029f8:	ebb0 1f81 	cmp.w	r0, r1, lsl #6
878029fc:	bf00      	nop
878029fe:	eb42 0202 	adc.w	r2, r2, r2
87802a02:	bf28      	it	cs
87802a04:	eba0 1081 	subcs.w	r0, r0, r1, lsl #6
87802a08:	ebb0 1f41 	cmp.w	r0, r1, lsl #5
87802a0c:	bf00      	nop
87802a0e:	eb42 0202 	adc.w	r2, r2, r2
87802a12:	bf28      	it	cs
87802a14:	eba0 1041 	subcs.w	r0, r0, r1, lsl #5
87802a18:	ebb0 1f01 	cmp.w	r0, r1, lsl #4
87802a1c:	bf00      	nop
87802a1e:	eb42 0202 	adc.w	r2, r2, r2
87802a22:	bf28      	it	cs
87802a24:	eba0 1001 	subcs.w	r0, r0, r1, lsl #4
87802a28:	ebb0 0fc1 	cmp.w	r0, r1, lsl #3
87802a2c:	bf00      	nop
87802a2e:	eb42 0202 	adc.w	r2, r2, r2
87802a32:	bf28      	it	cs
87802a34:	eba0 00c1 	subcs.w	r0, r0, r1, lsl #3
87802a38:	ebb0 0f81 	cmp.w	r0, r1, lsl #2
87802a3c:	bf00      	nop
87802a3e:	eb42 0202 	adc.w	r2, r2, r2
87802a42:	bf28      	it	cs
87802a44:	eba0 0081 	subcs.w	r0, r0, r1, lsl #2
87802a48:	ebb0 0f41 	cmp.w	r0, r1, lsl #1
87802a4c:	bf00      	nop
87802a4e:	eb42 0202 	adc.w	r2, r2, r2
87802a52:	bf28      	it	cs
87802a54:	eba0 0041 	subcs.w	r0, r0, r1, lsl #1
87802a58:	ebb0 0f01 	cmp.w	r0, r1
87802a5c:	bf00      	nop
87802a5e:	eb42 0202 	adc.w	r2, r2, r2
87802a62:	bf28      	it	cs
87802a64:	eba0 0001 	subcs.w	r0, r0, r1
87802a68:	4610      	mov	r0, r2
87802a6a:	4770      	bx	lr
87802a6c:	bf0c      	ite	eq
87802a6e:	2001      	moveq	r0, #1
87802a70:	2000      	movne	r0, #0
87802a72:	4770      	bx	lr
87802a74:	fab1 f281 	clz	r2, r1
87802a78:	f1c2 021f 	rsb	r2, r2, #31
87802a7c:	fa20 f002 	lsr.w	r0, r0, r2
87802a80:	4770      	bx	lr
87802a82:	b108      	cbz	r0, 87802a88 <__aeabi_uidiv+0x258>
87802a84:	f04f 30ff 	mov.w	r0, #4294967295	; 0xffffffff
87802a88:	f000 b80e 	b.w	87802aa8 <__aeabi_idiv0>

87802a8c <__aeabi_uidivmod>:
87802a8c:	2900      	cmp	r1, #0
87802a8e:	d0f8      	beq.n	87802a82 <__aeabi_uidiv+0x252>
87802a90:	e92d 4003 	stmdb	sp!, {r0, r1, lr}
87802a94:	f7ff fecc 	bl	87802830 <__aeabi_uidiv>
87802a98:	e8bd 4006 	ldmia.w	sp!, {r1, r2, lr}
87802a9c:	fb02 f300 	mul.w	r3, r2, r0
87802aa0:	eba1 0103 	sub.w	r1, r1, r3
87802aa4:	4770      	bx	lr
87802aa6:	bf00      	nop

87802aa8 <__aeabi_idiv0>:
87802aa8:	b502      	push	{r1, lr}
87802aaa:	f04f 0008 	mov.w	r0, #8
87802aae:	f7fe fb49 	bl	87801144 <raise>
87802ab2:	bd02      	pop	{r1, pc}
87802ab4:	0000      	movs	r0, r0
	...

87802ab8 <__main_from_arm>:
87802ab8:	e51ff004 	ldr	pc, [pc, #-4]	; 87802abc <__main_from_arm+0x4>
87802abc:	878002dd 			; <UNDEFINED> instruction: 0x878002dd

Disassembly of section .rodata:

87802ac0 <digits.8527>:
87802ac0:	33323130 	teqcc	r2, #48, 2
87802ac4:	37363534 			; <UNDEFINED> instruction: 0x37363534
87802ac8:	42413938 	submi	r3, r1, #56, 18	; 0xe0000
87802acc:	46454443 	strbmi	r4, [r5], -r3, asr #8
87802ad0:	4c554e3c 	mrrcmi	14, 3, r4, r5, cr12
87802ad4:	00003e4c 	andeq	r3, r0, ip, asr #28

Disassembly of section .data:

87802ad8 <release.8665>:
87802ad8:	00000001 	andeq	r0, r0, r1

87802adc <uart_config>:
87802adc:	02020000 	andeq	r0, r2, #0
87802ae0:	0001c200 	andeq	ip, r1, r0, lsl #4
87802ae4:	04c4b400 	strbeq	fp, [r4], #1024	; 0x400

87802ae8 <first_init_uart>:
87802ae8:	00000001 	andeq	r0, r0, r1

87802aec <_ctype>:
87802aec:	08080808 	stmdaeq	r8, {r3, fp}
87802af0:	08080808 	stmdaeq	r8, {r3, fp}
87802af4:	28282808 	stmdacs	r8!, {r3, fp, sp}
87802af8:	08082828 	stmdaeq	r8, {r3, r5, fp, sp}
87802afc:	08080808 	stmdaeq	r8, {r3, fp}
87802b00:	08080808 	stmdaeq	r8, {r3, fp}
87802b04:	08080808 	stmdaeq	r8, {r3, fp}
87802b08:	08080808 	stmdaeq	r8, {r3, fp}
87802b0c:	101010a0 	andsne	r1, r0, r0, lsr #1
87802b10:	10101010 	andsne	r1, r0, r0, lsl r0
87802b14:	10101010 	andsne	r1, r0, r0, lsl r0
87802b18:	10101010 	andsne	r1, r0, r0, lsl r0
87802b1c:	04040404 	streq	r0, [r4], #-1028	; 0x404
87802b20:	04040404 	streq	r0, [r4], #-1028	; 0x404
87802b24:	10100404 	andsne	r0, r0, r4, lsl #8
87802b28:	10101010 	andsne	r1, r0, r0, lsl r0
87802b2c:	41414110 	cmpmi	r1, r0, lsl r1
87802b30:	01414141 	cmpeq	r1, r1, asr #2
87802b34:	01010101 	tsteq	r1, r1, lsl #2
87802b38:	01010101 	tsteq	r1, r1, lsl #2
87802b3c:	01010101 	tsteq	r1, r1, lsl #2
87802b40:	01010101 	tsteq	r1, r1, lsl #2
87802b44:	10010101 	andne	r0, r1, r1, lsl #2
87802b48:	10101010 	andsne	r1, r0, r0, lsl r0
87802b4c:	42424210 	submi	r4, r2, #16, 4
87802b50:	02424242 	subeq	r4, r2, #536870916	; 0x20000004
87802b54:	02020202 	andeq	r0, r2, #536870912	; 0x20000000
87802b58:	02020202 	andeq	r0, r2, #536870912	; 0x20000000
87802b5c:	02020202 	andeq	r0, r2, #536870912	; 0x20000000
87802b60:	02020202 	andeq	r0, r2, #536870912	; 0x20000000
87802b64:	10020202 	andne	r0, r2, r2, lsl #4
87802b68:	08101010 	ldmdaeq	r0, {r4, ip}
	...
87802b8c:	101010a0 	andsne	r1, r0, r0, lsr #1
87802b90:	10101010 	andsne	r1, r0, r0, lsl r0
87802b94:	10101010 	andsne	r1, r0, r0, lsl r0
87802b98:	10101010 	andsne	r1, r0, r0, lsl r0
87802b9c:	10101010 	andsne	r1, r0, r0, lsl r0
87802ba0:	10101010 	andsne	r1, r0, r0, lsl r0
87802ba4:	10101010 	andsne	r1, r0, r0, lsl r0
87802ba8:	10101010 	andsne	r1, r0, r0, lsl r0
87802bac:	01010101 	tsteq	r1, r1, lsl #2
87802bb0:	01010101 	tsteq	r1, r1, lsl #2
87802bb4:	01010101 	tsteq	r1, r1, lsl #2
87802bb8:	01010101 	tsteq	r1, r1, lsl #2
87802bbc:	01010101 	tsteq	r1, r1, lsl #2
87802bc0:	10010101 	andne	r0, r1, r1, lsl #2
87802bc4:	01010101 	tsteq	r1, r1, lsl #2
87802bc8:	02010101 	andeq	r0, r1, #1073741824	; 0x40000000
87802bcc:	02020202 	andeq	r0, r2, #536870912	; 0x20000000
87802bd0:	02020202 	andeq	r0, r2, #536870912	; 0x20000000
87802bd4:	02020202 	andeq	r0, r2, #536870912	; 0x20000000
87802bd8:	02020202 	andeq	r0, r2, #536870912	; 0x20000000
87802bdc:	02020202 	andeq	r0, r2, #536870912	; 0x20000000
87802be0:	10020202 	andne	r0, r2, r2, lsl #4
87802be4:	02020202 	andeq	r0, r2, #536870912	; 0x20000000
87802be8:	02020202 	andeq	r0, r2, #536870912	; 0x20000000

Disassembly of section .bss:

87802bec <irq_table>:
	...

878030ec <irqNesting>:
878030ec:	00000000 	andeq	r0, r0, r0

878030f0 <___strtok>:
878030f0:	00000000 	andeq	r0, r0, r0

