
/home/wyz/Atom/IMX6ULL/imx-sim/hw_sim/spi_test/build/spi_test.elf:     file format elf32-littlearm


Disassembly of section .text:

87800000 <_start>:
87800000:	e10f0000 	mrs	r0, CPSR
87800004:	e3c0001f 	bic	r0, r0, #31
87800008:	e3800013 	orr	r0, r0, #19
8780000c:	e129f000 	msr	CPSR_fc, r0
87800010:	e51fd000 	ldr	sp, [pc, #-0]	; 87800018 <_start+0x18>
87800014:	ea000b5d 	b	87802d90 <__main_from_arm>
87800018:	80200000 	eorhi	r0, r0, r0
8780001c:	00001e41 	andeq	r1, r0, r1, asr #28
87800020:	61656100 	cmnvs	r5, r0, lsl #2
87800024:	01006962 	tsteq	r0, r2, ror #18
87800028:	00000014 	andeq	r0, r0, r4, lsl r0
8780002c:	412d3705 	teqmi	sp, r5, lsl #14
87800030:	070a0600 	streq	r0, [sl, -r0, lsl #12]
87800034:	09010841 	stmdbeq	r1, {r0, r6, fp}
87800038:	37040a02 	strcc	r0, [r4, -r2, lsl #20]
8780003c:	02000000 	andeq	r0, r0, #0
87800040:	00001e00 	andeq	r1, r0, r0, lsl #28
87800044:	fb010200 	blx	8784084e <__bss_end+0x3cb26>
87800048:	01000d0e 	tsteq	r0, lr, lsl #26
8780004c:	00010101 	andeq	r0, r1, r1, lsl #2
87800050:	00010000 	andeq	r0, r1, r0
87800054:	73000100 	movwvc	r0, #256	; 0x100
87800058:	74726174 	ldrbtvc	r6, [r2], #-372	; 0x174
8780005c:	0000532e 	andeq	r5, r0, lr, lsr #6
87800060:	00000000 	andeq	r0, r0, r0
87800064:	00000205 	andeq	r0, r0, r5, lsl #4
87800068:	2f158780 	svccs	0x00158780
8780006c:	2f302f2f 	svccs	0x00302f2f
87800070:	0002022d 	andeq	r0, r2, sp, lsr #4
87800074:	005b0101 	subseq	r0, fp, r1, lsl #2
87800078:	00020000 	andeq	r0, r2, r0
8780007c:	878000d5 			; <UNDEFINED> instruction: 0x878000d5
87800080:	003b0104 	eorseq	r0, fp, r4, lsl #2
87800084:	00008780 	andeq	r8, r0, r0, lsl #15
87800088:	001c8780 	andseq	r8, ip, r0, lsl #15
8780008c:	74738780 	ldrbtvc	r8, [r3], #-1920	; 0x780
87800090:	2e747261 	cdpcs	2, 7, cr7, cr4, cr1, {3}
87800094:	682f0053 	stmdavs	pc!, {r0, r1, r4, r6}	; <UNPREDICTABLE>
87800098:	2f656d6f 	svccs	0x00656d6f
8780009c:	2f7a7977 	svccs	0x007a7977
878000a0:	6d6f7441 	cfstrdvs	mvd7, [pc, #-260]!	; 877fffa4 <shift+0x877fffa4>
878000a4:	584d492f 	stmdapl	sp, {r0, r1, r2, r3, r5, r8, fp, lr}^
878000a8:	4c4c5536 	cfstr64mi	mvdx5, [ip], {54}	; 0x36
878000ac:	786d692f 	stmdavc	sp!, {r0, r1, r2, r3, r5, r8, fp, sp, lr}^
878000b0:	6d69732d 	stclvs	3, cr7, [r9, #-180]!	; 0xffffff4c
878000b4:	5f77682f 	svcpl	0x0077682f
878000b8:	2f6d6973 	svccs	0x006d6973
878000bc:	5f697073 	svcpl	0x00697073
878000c0:	74736574 	ldrbtvc	r6, [r3], #-1396	; 0x574
878000c4:	554e4700 	strbpl	r4, [lr, #-1792]	; 0x700
878000c8:	20534120 	subscs	r4, r3, r0, lsr #2
878000cc:	34322e32 	ldrtcc	r2, [r2], #-3634	; 0xe32
878000d0:	0100302e 	tsteq	r0, lr, lsr #32
878000d4:	00110180 	andseq	r0, r1, r0, lsl #3
878000d8:	01110610 	tsteq	r1, r0, lsl r6
878000dc:	08030112 	stmdaeq	r3, {r1, r4, r8}
878000e0:	0825081b 	stmdaeq	r5!, {r0, r1, r3, r4, fp}
878000e4:	00000513 	andeq	r0, r0, r3, lsl r5
	...
878000f0:	0000001c 	andeq	r0, r0, ip, lsl r0
878000f4:	00760002 	rsbseq	r0, r6, r2
878000f8:	00048780 	andeq	r8, r4, r0, lsl #15
878000fc:	00000000 	andeq	r0, r0, r0
87800100:	87800000 	strhi	r0, [r0, r0]
87800104:	0000001c 	andeq	r0, r0, ip, lsl r0
	...

87800110 <IOMUXC_SetPinMux>:
87800110:	b480      	push	{r7}
87800112:	b085      	sub	sp, #20
87800114:	af00      	add	r7, sp, #0
87800116:	60f8      	str	r0, [r7, #12]
87800118:	60b9      	str	r1, [r7, #8]
8780011a:	607a      	str	r2, [r7, #4]
8780011c:	603b      	str	r3, [r7, #0]
8780011e:	68fb      	ldr	r3, [r7, #12]
87800120:	68ba      	ldr	r2, [r7, #8]
87800122:	f002 010f 	and.w	r1, r2, #15
87800126:	69fa      	ldr	r2, [r7, #28]
87800128:	0112      	lsls	r2, r2, #4
8780012a:	f002 0210 	and.w	r2, r2, #16
8780012e:	430a      	orrs	r2, r1
87800130:	601a      	str	r2, [r3, #0]
87800132:	687b      	ldr	r3, [r7, #4]
87800134:	2b00      	cmp	r3, #0
87800136:	d004      	beq.n	87800142 <IOMUXC_SetPinMux+0x32>
87800138:	687b      	ldr	r3, [r7, #4]
8780013a:	683a      	ldr	r2, [r7, #0]
8780013c:	f002 0207 	and.w	r2, r2, #7
87800140:	601a      	str	r2, [r3, #0]
87800142:	3714      	adds	r7, #20
87800144:	46bd      	mov	sp, r7
87800146:	f85d 7b04 	ldr.w	r7, [sp], #4
8780014a:	4770      	bx	lr

8780014c <IOMUXC_SetPinConfig>:
8780014c:	b480      	push	{r7}
8780014e:	b085      	sub	sp, #20
87800150:	af00      	add	r7, sp, #0
87800152:	60f8      	str	r0, [r7, #12]
87800154:	60b9      	str	r1, [r7, #8]
87800156:	607a      	str	r2, [r7, #4]
87800158:	603b      	str	r3, [r7, #0]
8780015a:	69bb      	ldr	r3, [r7, #24]
8780015c:	2b00      	cmp	r3, #0
8780015e:	d002      	beq.n	87800166 <IOMUXC_SetPinConfig+0x1a>
87800160:	69bb      	ldr	r3, [r7, #24]
87800162:	69fa      	ldr	r2, [r7, #28]
87800164:	601a      	str	r2, [r3, #0]
87800166:	3714      	adds	r7, #20
87800168:	46bd      	mov	sp, r7
8780016a:	f85d 7b04 	ldr.w	r7, [sp], #4
8780016e:	4770      	bx	lr

87800170 <icm20608_init>:
87800170:	b580      	push	{r7, lr}
87800172:	b086      	sub	sp, #24
87800174:	af02      	add	r7, sp, #8
87800176:	2300      	movs	r3, #0
87800178:	9301      	str	r3, [sp, #4]
8780017a:	f44f 7349 	mov.w	r3, #804	; 0x324
8780017e:	f2c0 230e 	movt	r3, #526	; 0x20e
87800182:	9300      	str	r3, [sp, #0]
87800184:	2300      	movs	r3, #0
87800186:	f240 5254 	movw	r2, #1364	; 0x554
8780018a:	f2c0 220e 	movt	r2, #526	; 0x20e
8780018e:	2108      	movs	r1, #8
87800190:	2098      	movs	r0, #152	; 0x98
87800192:	f2c0 200e 	movt	r0, #526	; 0x20e
87800196:	f7ff ffbb 	bl	87800110 <IOMUXC_SetPinMux>
8780019a:	2300      	movs	r3, #0
8780019c:	9301      	str	r3, [sp, #4]
8780019e:	f44f 734a 	mov.w	r3, #808	; 0x328
878001a2:	f2c0 230e 	movt	r3, #526	; 0x20e
878001a6:	9300      	str	r3, [sp, #0]
878001a8:	2300      	movs	r3, #0
878001aa:	f240 525c 	movw	r2, #1372	; 0x55c
878001ae:	f2c0 220e 	movt	r2, #526	; 0x20e
878001b2:	2108      	movs	r1, #8
878001b4:	209c      	movs	r0, #156	; 0x9c
878001b6:	f2c0 200e 	movt	r0, #526	; 0x20e
878001ba:	f7ff ffa9 	bl	87800110 <IOMUXC_SetPinMux>
878001be:	2300      	movs	r3, #0
878001c0:	9301      	str	r3, [sp, #4]
878001c2:	f44f 734b 	mov.w	r3, #812	; 0x32c
878001c6:	f2c0 230e 	movt	r3, #526	; 0x20e
878001ca:	9300      	str	r3, [sp, #0]
878001cc:	2300      	movs	r3, #0
878001ce:	f44f 62ab 	mov.w	r2, #1368	; 0x558
878001d2:	f2c0 220e 	movt	r2, #526	; 0x20e
878001d6:	2108      	movs	r1, #8
878001d8:	20a0      	movs	r0, #160	; 0xa0
878001da:	f2c0 200e 	movt	r0, #526	; 0x20e
878001de:	f7ff ff97 	bl	87800110 <IOMUXC_SetPinMux>
878001e2:	f241 03b1 	movw	r3, #4273	; 0x10b1
878001e6:	9301      	str	r3, [sp, #4]
878001e8:	f44f 7349 	mov.w	r3, #804	; 0x324
878001ec:	f2c0 230e 	movt	r3, #526	; 0x20e
878001f0:	9300      	str	r3, [sp, #0]
878001f2:	2300      	movs	r3, #0
878001f4:	f240 5254 	movw	r2, #1364	; 0x554
878001f8:	f2c0 220e 	movt	r2, #526	; 0x20e
878001fc:	2108      	movs	r1, #8
878001fe:	2098      	movs	r0, #152	; 0x98
87800200:	f2c0 200e 	movt	r0, #526	; 0x20e
87800204:	f7ff ffa2 	bl	8780014c <IOMUXC_SetPinConfig>
87800208:	f241 03b1 	movw	r3, #4273	; 0x10b1
8780020c:	9301      	str	r3, [sp, #4]
8780020e:	f44f 734a 	mov.w	r3, #808	; 0x328
87800212:	f2c0 230e 	movt	r3, #526	; 0x20e
87800216:	9300      	str	r3, [sp, #0]
87800218:	2300      	movs	r3, #0
8780021a:	f240 525c 	movw	r2, #1372	; 0x55c
8780021e:	f2c0 220e 	movt	r2, #526	; 0x20e
87800222:	2108      	movs	r1, #8
87800224:	209c      	movs	r0, #156	; 0x9c
87800226:	f2c0 200e 	movt	r0, #526	; 0x20e
8780022a:	f7ff ff8f 	bl	8780014c <IOMUXC_SetPinConfig>
8780022e:	f241 03b1 	movw	r3, #4273	; 0x10b1
87800232:	9301      	str	r3, [sp, #4]
87800234:	f44f 734b 	mov.w	r3, #812	; 0x32c
87800238:	f2c0 230e 	movt	r3, #526	; 0x20e
8780023c:	9300      	str	r3, [sp, #0]
8780023e:	2300      	movs	r3, #0
87800240:	f44f 62ab 	mov.w	r2, #1368	; 0x558
87800244:	f2c0 220e 	movt	r2, #526	; 0x20e
87800248:	2108      	movs	r1, #8
8780024a:	20a0      	movs	r0, #160	; 0xa0
8780024c:	f2c0 200e 	movt	r0, #526	; 0x20e
87800250:	f7ff ff7c 	bl	8780014c <IOMUXC_SetPinConfig>
87800254:	2300      	movs	r3, #0
87800256:	9301      	str	r3, [sp, #4]
87800258:	f44f 7348 	mov.w	r3, #800	; 0x320
8780025c:	f2c0 230e 	movt	r3, #526	; 0x20e
87800260:	9300      	str	r3, [sp, #0]
87800262:	2300      	movs	r3, #0
87800264:	2200      	movs	r2, #0
87800266:	2105      	movs	r1, #5
87800268:	2094      	movs	r0, #148	; 0x94
8780026a:	f2c0 200e 	movt	r0, #526	; 0x20e
8780026e:	f7ff ff4f 	bl	87800110 <IOMUXC_SetPinMux>
87800272:	f241 03b0 	movw	r3, #4272	; 0x10b0
87800276:	9301      	str	r3, [sp, #4]
87800278:	f44f 7348 	mov.w	r3, #800	; 0x320
8780027c:	f2c0 230e 	movt	r3, #526	; 0x20e
87800280:	9300      	str	r3, [sp, #0]
87800282:	2300      	movs	r3, #0
87800284:	2200      	movs	r2, #0
87800286:	2105      	movs	r1, #5
87800288:	2094      	movs	r0, #148	; 0x94
8780028a:	f2c0 200e 	movt	r0, #526	; 0x20e
8780028e:	f7ff ff5d 	bl	8780014c <IOMUXC_SetPinConfig>
87800292:	2301      	movs	r3, #1
87800294:	603b      	str	r3, [r7, #0]
87800296:	2300      	movs	r3, #0
87800298:	713b      	strb	r3, [r7, #4]
8780029a:	463b      	mov	r3, r7
8780029c:	461a      	mov	r2, r3
8780029e:	2114      	movs	r1, #20
878002a0:	f44f 4040 	mov.w	r0, #49152	; 0xc000
878002a4:	f2c0 2009 	movt	r0, #521	; 0x209
878002a8:	f002 faa2 	bl	878027f0 <gpio_init>
878002ac:	2000      	movs	r0, #0
878002ae:	f2c0 2001 	movt	r0, #513	; 0x201
878002b2:	f002 f9e3 	bl	8780267c <spi_init>
878002b6:	2180      	movs	r1, #128	; 0x80
878002b8:	206b      	movs	r0, #107	; 0x6b
878002ba:	f000 f845 	bl	87800348 <icm20608_write_reg>
878002be:	2032      	movs	r0, #50	; 0x32
878002c0:	f000 fbb6 	bl	87800a30 <delayms>
878002c4:	2101      	movs	r1, #1
878002c6:	206b      	movs	r0, #107	; 0x6b
878002c8:	f000 f83e 	bl	87800348 <icm20608_write_reg>
878002cc:	2032      	movs	r0, #50	; 0x32
878002ce:	f000 fbaf 	bl	87800a30 <delayms>
878002d2:	2075      	movs	r0, #117	; 0x75
878002d4:	f000 f866 	bl	878003a4 <icm20608_read_reg>
878002d8:	4603      	mov	r3, r0
878002da:	73fb      	strb	r3, [r7, #15]
878002dc:	7bfb      	ldrb	r3, [r7, #15]
878002de:	4619      	mov	r1, r3
878002e0:	f642 5098 	movw	r0, #11672	; 0x2d98
878002e4:	f2c8 7080 	movt	r0, #34688	; 0x8780
878002e8:	f000 fc58 	bl	87800b9c <printf>
878002ec:	7bfb      	ldrb	r3, [r7, #15]
878002ee:	2baf      	cmp	r3, #175	; 0xaf
878002f0:	d004      	beq.n	878002fc <icm20608_init+0x18c>
878002f2:	7bfb      	ldrb	r3, [r7, #15]
878002f4:	2bae      	cmp	r3, #174	; 0xae
878002f6:	d001      	beq.n	878002fc <icm20608_init+0x18c>
878002f8:	2301      	movs	r3, #1
878002fa:	e020      	b.n	8780033e <icm20608_init+0x1ce>
878002fc:	2100      	movs	r1, #0
878002fe:	2019      	movs	r0, #25
87800300:	f000 f822 	bl	87800348 <icm20608_write_reg>
87800304:	2118      	movs	r1, #24
87800306:	201b      	movs	r0, #27
87800308:	f000 f81e 	bl	87800348 <icm20608_write_reg>
8780030c:	2118      	movs	r1, #24
8780030e:	201c      	movs	r0, #28
87800310:	f000 f81a 	bl	87800348 <icm20608_write_reg>
87800314:	2104      	movs	r1, #4
87800316:	201a      	movs	r0, #26
87800318:	f000 f816 	bl	87800348 <icm20608_write_reg>
8780031c:	2104      	movs	r1, #4
8780031e:	201d      	movs	r0, #29
87800320:	f000 f812 	bl	87800348 <icm20608_write_reg>
87800324:	2100      	movs	r1, #0
87800326:	206c      	movs	r0, #108	; 0x6c
87800328:	f000 f80e 	bl	87800348 <icm20608_write_reg>
8780032c:	2100      	movs	r1, #0
8780032e:	201e      	movs	r0, #30
87800330:	f000 f80a 	bl	87800348 <icm20608_write_reg>
87800334:	2100      	movs	r1, #0
87800336:	2023      	movs	r0, #35	; 0x23
87800338:	f000 f806 	bl	87800348 <icm20608_write_reg>
8780033c:	2300      	movs	r3, #0
8780033e:	4618      	mov	r0, r3
87800340:	3710      	adds	r7, #16
87800342:	46bd      	mov	sp, r7
87800344:	bd80      	pop	{r7, pc}
87800346:	bf00      	nop

87800348 <icm20608_write_reg>:
87800348:	b580      	push	{r7, lr}
8780034a:	b082      	sub	sp, #8
8780034c:	af00      	add	r7, sp, #0
8780034e:	4603      	mov	r3, r0
87800350:	460a      	mov	r2, r1
87800352:	71fb      	strb	r3, [r7, #7]
87800354:	4613      	mov	r3, r2
87800356:	71bb      	strb	r3, [r7, #6]
87800358:	79fb      	ldrb	r3, [r7, #7]
8780035a:	f003 037f 	and.w	r3, r3, #127	; 0x7f
8780035e:	71fb      	strb	r3, [r7, #7]
87800360:	2200      	movs	r2, #0
87800362:	2114      	movs	r1, #20
87800364:	f44f 4040 	mov.w	r0, #49152	; 0xc000
87800368:	f2c0 2009 	movt	r0, #521	; 0x209
8780036c:	f002 f9ee 	bl	8780274c <gpio_pinwrite>
87800370:	79fb      	ldrb	r3, [r7, #7]
87800372:	4619      	mov	r1, r3
87800374:	2000      	movs	r0, #0
87800376:	f2c0 2001 	movt	r0, #513	; 0x201
8780037a:	f002 f991 	bl	878026a0 <spi_readwrite_onebyte>
8780037e:	79bb      	ldrb	r3, [r7, #6]
87800380:	4619      	mov	r1, r3
87800382:	2000      	movs	r0, #0
87800384:	f2c0 2001 	movt	r0, #513	; 0x201
87800388:	f002 f98a 	bl	878026a0 <spi_readwrite_onebyte>
8780038c:	2201      	movs	r2, #1
8780038e:	2114      	movs	r1, #20
87800390:	f44f 4040 	mov.w	r0, #49152	; 0xc000
87800394:	f2c0 2009 	movt	r0, #521	; 0x209
87800398:	f002 f9d8 	bl	8780274c <gpio_pinwrite>
8780039c:	3708      	adds	r7, #8
8780039e:	46bd      	mov	sp, r7
878003a0:	bd80      	pop	{r7, pc}
878003a2:	bf00      	nop

878003a4 <icm20608_read_reg>:
878003a4:	b580      	push	{r7, lr}
878003a6:	b084      	sub	sp, #16
878003a8:	af00      	add	r7, sp, #0
878003aa:	4603      	mov	r3, r0
878003ac:	71fb      	strb	r3, [r7, #7]
878003ae:	79fb      	ldrb	r3, [r7, #7]
878003b0:	f063 037f 	orn	r3, r3, #127	; 0x7f
878003b4:	71fb      	strb	r3, [r7, #7]
878003b6:	2200      	movs	r2, #0
878003b8:	2114      	movs	r1, #20
878003ba:	f44f 4040 	mov.w	r0, #49152	; 0xc000
878003be:	f2c0 2009 	movt	r0, #521	; 0x209
878003c2:	f002 f9c3 	bl	8780274c <gpio_pinwrite>
878003c6:	79fb      	ldrb	r3, [r7, #7]
878003c8:	4619      	mov	r1, r3
878003ca:	2000      	movs	r0, #0
878003cc:	f2c0 2001 	movt	r0, #513	; 0x201
878003d0:	f002 f966 	bl	878026a0 <spi_readwrite_onebyte>
878003d4:	21ff      	movs	r1, #255	; 0xff
878003d6:	2000      	movs	r0, #0
878003d8:	f2c0 2001 	movt	r0, #513	; 0x201
878003dc:	f002 f960 	bl	878026a0 <spi_readwrite_onebyte>
878003e0:	4603      	mov	r3, r0
878003e2:	73fb      	strb	r3, [r7, #15]
878003e4:	2201      	movs	r2, #1
878003e6:	2114      	movs	r1, #20
878003e8:	f44f 4040 	mov.w	r0, #49152	; 0xc000
878003ec:	f2c0 2009 	movt	r0, #521	; 0x209
878003f0:	f002 f9ac 	bl	8780274c <gpio_pinwrite>
878003f4:	7bfb      	ldrb	r3, [r7, #15]
878003f6:	4618      	mov	r0, r3
878003f8:	3710      	adds	r7, #16
878003fa:	46bd      	mov	sp, r7
878003fc:	bd80      	pop	{r7, pc}
878003fe:	bf00      	nop

87800400 <icm20608_read_len>:
87800400:	b580      	push	{r7, lr}
87800402:	b08a      	sub	sp, #40	; 0x28
87800404:	af00      	add	r7, sp, #0
87800406:	4603      	mov	r3, r0
87800408:	6039      	str	r1, [r7, #0]
8780040a:	71fb      	strb	r3, [r7, #7]
8780040c:	4613      	mov	r3, r2
8780040e:	71bb      	strb	r3, [r7, #6]
87800410:	79fb      	ldrb	r3, [r7, #7]
87800412:	f063 037f 	orn	r3, r3, #127	; 0x7f
87800416:	71fb      	strb	r3, [r7, #7]
87800418:	683b      	ldr	r3, [r7, #0]
8780041a:	627b      	str	r3, [r7, #36]	; 0x24
8780041c:	79bb      	ldrb	r3, [r7, #6]
8780041e:	f887 3023 	strb.w	r3, [r7, #35]	; 0x23
87800422:	2300      	movs	r3, #0
87800424:	61fb      	str	r3, [r7, #28]
87800426:	69fb      	ldr	r3, [r7, #28]
87800428:	79fa      	ldrb	r2, [r7, #7]
8780042a:	701a      	strb	r2, [r3, #0]
8780042c:	69fb      	ldr	r3, [r7, #28]
8780042e:	3301      	adds	r3, #1
87800430:	22ff      	movs	r2, #255	; 0xff
87800432:	701a      	strb	r2, [r3, #0]
87800434:	6a7b      	ldr	r3, [r7, #36]	; 0x24
87800436:	60fb      	str	r3, [r7, #12]
87800438:	f897 3023 	ldrb.w	r3, [r7, #35]	; 0x23
8780043c:	613b      	str	r3, [r7, #16]
8780043e:	69fb      	ldr	r3, [r7, #28]
87800440:	617b      	str	r3, [r7, #20]
87800442:	2302      	movs	r3, #2
87800444:	61bb      	str	r3, [r7, #24]
87800446:	2200      	movs	r2, #0
87800448:	2114      	movs	r1, #20
8780044a:	f44f 4040 	mov.w	r0, #49152	; 0xc000
8780044e:	f2c0 2009 	movt	r0, #521	; 0x209
87800452:	f002 f97b 	bl	8780274c <gpio_pinwrite>
87800456:	f107 030c 	add.w	r3, r7, #12
8780045a:	4619      	mov	r1, r3
8780045c:	2000      	movs	r0, #0
8780045e:	f2c0 2001 	movt	r0, #513	; 0x201
87800462:	f002 f92d 	bl	878026c0 <spi_readwrite_byte>
87800466:	2201      	movs	r2, #1
87800468:	2114      	movs	r1, #20
8780046a:	f44f 4040 	mov.w	r0, #49152	; 0xc000
8780046e:	f2c0 2009 	movt	r0, #521	; 0x209
87800472:	f002 f96b 	bl	8780274c <gpio_pinwrite>
87800476:	3728      	adds	r7, #40	; 0x28
87800478:	46bd      	mov	sp, r7
8780047a:	bd80      	pop	{r7, pc}

8780047c <icm20608_gyro_scaleget>:
8780047c:	b580      	push	{r7, lr}
8780047e:	b082      	sub	sp, #8
87800480:	af00      	add	r7, sp, #0
87800482:	201b      	movs	r0, #27
87800484:	f7ff ff8e 	bl	878003a4 <icm20608_read_reg>
87800488:	4603      	mov	r3, r0
8780048a:	08db      	lsrs	r3, r3, #3
8780048c:	b2db      	uxtb	r3, r3
8780048e:	f003 0303 	and.w	r3, r3, #3
87800492:	70fb      	strb	r3, [r7, #3]
87800494:	78fb      	ldrb	r3, [r7, #3]
87800496:	2b03      	cmp	r3, #3
87800498:	d822      	bhi.n	878004e0 <icm20608_gyro_scaleget+0x64>
8780049a:	a201      	add	r2, pc, #4	; (adr r2, 878004a0 <icm20608_gyro_scaleget+0x24>)
8780049c:	f852 f023 	ldr.w	pc, [r2, r3, lsl #2]
878004a0:	878004b1 			; <UNDEFINED> instruction: 0x878004b1
878004a4:	878004bd 			; <UNDEFINED> instruction: 0x878004bd
878004a8:	878004c9 	strhi	r0, [r0, r9, asr #9]
878004ac:	878004d5 			; <UNDEFINED> instruction: 0x878004d5
878004b0:	f04f 0300 	mov.w	r3, #0
878004b4:	f2c4 3303 	movt	r3, #17155	; 0x4303
878004b8:	607b      	str	r3, [r7, #4]
878004ba:	e011      	b.n	878004e0 <icm20608_gyro_scaleget+0x64>
878004bc:	f04f 0300 	mov.w	r3, #0
878004c0:	f2c4 2383 	movt	r3, #17027	; 0x4283
878004c4:	607b      	str	r3, [r7, #4]
878004c6:	e00b      	b.n	878004e0 <icm20608_gyro_scaleget+0x64>
878004c8:	f243 3333 	movw	r3, #13107	; 0x3333
878004cc:	f2c4 2303 	movt	r3, #16899	; 0x4203
878004d0:	607b      	str	r3, [r7, #4]
878004d2:	e005      	b.n	878004e0 <icm20608_gyro_scaleget+0x64>
878004d4:	f243 3333 	movw	r3, #13107	; 0x3333
878004d8:	f2c4 1383 	movt	r3, #16771	; 0x4183
878004dc:	607b      	str	r3, [r7, #4]
878004de:	bf00      	nop
878004e0:	687b      	ldr	r3, [r7, #4]
878004e2:	ee07 3a90 	vmov	s15, r3
878004e6:	eeb0 0a67 	vmov.f32	s0, s15
878004ea:	3708      	adds	r7, #8
878004ec:	46bd      	mov	sp, r7
878004ee:	bd80      	pop	{r7, pc}

878004f0 <icm20608_accel_scaleget>:
878004f0:	b580      	push	{r7, lr}
878004f2:	b082      	sub	sp, #8
878004f4:	af00      	add	r7, sp, #0
878004f6:	201c      	movs	r0, #28
878004f8:	f7ff ff54 	bl	878003a4 <icm20608_read_reg>
878004fc:	4603      	mov	r3, r0
878004fe:	08db      	lsrs	r3, r3, #3
87800500:	b2db      	uxtb	r3, r3
87800502:	f003 0303 	and.w	r3, r3, #3
87800506:	717b      	strb	r3, [r7, #5]
87800508:	797b      	ldrb	r3, [r7, #5]
8780050a:	2b03      	cmp	r3, #3
8780050c:	d81a      	bhi.n	87800544 <icm20608_accel_scaleget+0x54>
8780050e:	a201      	add	r2, pc, #4	; (adr r2, 87800514 <icm20608_accel_scaleget+0x24>)
87800510:	f852 f023 	ldr.w	pc, [r2, r3, lsl #2]
87800514:	87800525 	strhi	r0, [r0, r5, lsr #10]
87800518:	8780052d 	strhi	r0, [r0, sp, lsr #10]
8780051c:	87800535 			; <UNDEFINED> instruction: 0x87800535
87800520:	8780053d 			; <UNDEFINED> instruction: 0x8780053d
87800524:	f44f 4380 	mov.w	r3, #16384	; 0x4000
87800528:	80fb      	strh	r3, [r7, #6]
8780052a:	e00b      	b.n	87800544 <icm20608_accel_scaleget+0x54>
8780052c:	f44f 5300 	mov.w	r3, #8192	; 0x2000
87800530:	80fb      	strh	r3, [r7, #6]
87800532:	e007      	b.n	87800544 <icm20608_accel_scaleget+0x54>
87800534:	f44f 5380 	mov.w	r3, #4096	; 0x1000
87800538:	80fb      	strh	r3, [r7, #6]
8780053a:	e003      	b.n	87800544 <icm20608_accel_scaleget+0x54>
8780053c:	f44f 6300 	mov.w	r3, #2048	; 0x800
87800540:	80fb      	strh	r3, [r7, #6]
87800542:	bf00      	nop
87800544:	88fb      	ldrh	r3, [r7, #6]
87800546:	4618      	mov	r0, r3
87800548:	3708      	adds	r7, #8
8780054a:	46bd      	mov	sp, r7
8780054c:	bd80      	pop	{r7, pc}
8780054e:	bf00      	nop

87800550 <icm20608_getdata>:
87800550:	b580      	push	{r7, lr}
87800552:	b086      	sub	sp, #24
87800554:	af00      	add	r7, sp, #0
87800556:	1d3b      	adds	r3, r7, #4
87800558:	220e      	movs	r2, #14
8780055a:	4619      	mov	r1, r3
8780055c:	203b      	movs	r0, #59	; 0x3b
8780055e:	f7ff ff4f 	bl	87800400 <icm20608_read_len>
87800562:	f7ff ff8b 	bl	8780047c <icm20608_gyro_scaleget>
87800566:	ed87 0a05 	vstr	s0, [r7, #20]
8780056a:	f7ff ffc1 	bl	878004f0 <icm20608_accel_scaleget>
8780056e:	4603      	mov	r3, r0
87800570:	827b      	strh	r3, [r7, #18]
87800572:	793b      	ldrb	r3, [r7, #4]
87800574:	021b      	lsls	r3, r3, #8
87800576:	b29a      	uxth	r2, r3
87800578:	797b      	ldrb	r3, [r7, #5]
8780057a:	b29b      	uxth	r3, r3
8780057c:	4313      	orrs	r3, r2
8780057e:	b29b      	uxth	r3, r3
87800580:	b21a      	sxth	r2, r3
87800582:	f643 43ec 	movw	r3, #15596	; 0x3cec
87800586:	f2c8 7380 	movt	r3, #34688	; 0x8780
8780058a:	60da      	str	r2, [r3, #12]
8780058c:	79bb      	ldrb	r3, [r7, #6]
8780058e:	021b      	lsls	r3, r3, #8
87800590:	b29a      	uxth	r2, r3
87800592:	79fb      	ldrb	r3, [r7, #7]
87800594:	b29b      	uxth	r3, r3
87800596:	4313      	orrs	r3, r2
87800598:	b29b      	uxth	r3, r3
8780059a:	b21a      	sxth	r2, r3
8780059c:	f643 43ec 	movw	r3, #15596	; 0x3cec
878005a0:	f2c8 7380 	movt	r3, #34688	; 0x8780
878005a4:	611a      	str	r2, [r3, #16]
878005a6:	7a3b      	ldrb	r3, [r7, #8]
878005a8:	021b      	lsls	r3, r3, #8
878005aa:	b29a      	uxth	r2, r3
878005ac:	7a7b      	ldrb	r3, [r7, #9]
878005ae:	b29b      	uxth	r3, r3
878005b0:	4313      	orrs	r3, r2
878005b2:	b29b      	uxth	r3, r3
878005b4:	b21a      	sxth	r2, r3
878005b6:	f643 43ec 	movw	r3, #15596	; 0x3cec
878005ba:	f2c8 7380 	movt	r3, #34688	; 0x8780
878005be:	615a      	str	r2, [r3, #20]
878005c0:	7abb      	ldrb	r3, [r7, #10]
878005c2:	021b      	lsls	r3, r3, #8
878005c4:	b29a      	uxth	r2, r3
878005c6:	7afb      	ldrb	r3, [r7, #11]
878005c8:	b29b      	uxth	r3, r3
878005ca:	4313      	orrs	r3, r2
878005cc:	b29b      	uxth	r3, r3
878005ce:	b21a      	sxth	r2, r3
878005d0:	f643 43ec 	movw	r3, #15596	; 0x3cec
878005d4:	f2c8 7380 	movt	r3, #34688	; 0x8780
878005d8:	619a      	str	r2, [r3, #24]
878005da:	7b3b      	ldrb	r3, [r7, #12]
878005dc:	021b      	lsls	r3, r3, #8
878005de:	b29a      	uxth	r2, r3
878005e0:	7b7b      	ldrb	r3, [r7, #13]
878005e2:	b29b      	uxth	r3, r3
878005e4:	4313      	orrs	r3, r2
878005e6:	b29b      	uxth	r3, r3
878005e8:	b21a      	sxth	r2, r3
878005ea:	f643 43ec 	movw	r3, #15596	; 0x3cec
878005ee:	f2c8 7380 	movt	r3, #34688	; 0x8780
878005f2:	601a      	str	r2, [r3, #0]
878005f4:	7bbb      	ldrb	r3, [r7, #14]
878005f6:	021b      	lsls	r3, r3, #8
878005f8:	b29a      	uxth	r2, r3
878005fa:	7bfb      	ldrb	r3, [r7, #15]
878005fc:	b29b      	uxth	r3, r3
878005fe:	4313      	orrs	r3, r2
87800600:	b29b      	uxth	r3, r3
87800602:	b21a      	sxth	r2, r3
87800604:	f643 43ec 	movw	r3, #15596	; 0x3cec
87800608:	f2c8 7380 	movt	r3, #34688	; 0x8780
8780060c:	605a      	str	r2, [r3, #4]
8780060e:	7c3b      	ldrb	r3, [r7, #16]
87800610:	021b      	lsls	r3, r3, #8
87800612:	b29a      	uxth	r2, r3
87800614:	7c7b      	ldrb	r3, [r7, #17]
87800616:	b29b      	uxth	r3, r3
87800618:	4313      	orrs	r3, r2
8780061a:	b29b      	uxth	r3, r3
8780061c:	b21a      	sxth	r2, r3
8780061e:	f643 43ec 	movw	r3, #15596	; 0x3cec
87800622:	f2c8 7380 	movt	r3, #34688	; 0x8780
87800626:	609a      	str	r2, [r3, #8]
87800628:	f643 43ec 	movw	r3, #15596	; 0x3cec
8780062c:	f2c8 7380 	movt	r3, #34688	; 0x8780
87800630:	681b      	ldr	r3, [r3, #0]
87800632:	ee07 3a90 	vmov	s15, r3
87800636:	eeb8 7ae7 	vcvt.f32.s32	s14, s15
8780063a:	edd7 7a05 	vldr	s15, [r7, #20]
8780063e:	eec7 7a27 	vdiv.f32	s15, s14, s15
87800642:	ed9f 7a63 	vldr	s14, [pc, #396]	; 878007d0 <icm20608_getdata+0x280>
87800646:	ee67 7a87 	vmul.f32	s15, s15, s14
8780064a:	eefd 7ae7 	vcvt.s32.f32	s15, s15
8780064e:	ee17 2a90 	vmov	r2, s15
87800652:	f643 43ec 	movw	r3, #15596	; 0x3cec
87800656:	f2c8 7380 	movt	r3, #34688	; 0x8780
8780065a:	61da      	str	r2, [r3, #28]
8780065c:	f643 43ec 	movw	r3, #15596	; 0x3cec
87800660:	f2c8 7380 	movt	r3, #34688	; 0x8780
87800664:	685b      	ldr	r3, [r3, #4]
87800666:	ee07 3a90 	vmov	s15, r3
8780066a:	eeb8 7ae7 	vcvt.f32.s32	s14, s15
8780066e:	edd7 7a05 	vldr	s15, [r7, #20]
87800672:	eec7 7a27 	vdiv.f32	s15, s14, s15
87800676:	ed9f 7a56 	vldr	s14, [pc, #344]	; 878007d0 <icm20608_getdata+0x280>
8780067a:	ee67 7a87 	vmul.f32	s15, s15, s14
8780067e:	eefd 7ae7 	vcvt.s32.f32	s15, s15
87800682:	ee17 2a90 	vmov	r2, s15
87800686:	f643 43ec 	movw	r3, #15596	; 0x3cec
8780068a:	f2c8 7380 	movt	r3, #34688	; 0x8780
8780068e:	621a      	str	r2, [r3, #32]
87800690:	f643 43ec 	movw	r3, #15596	; 0x3cec
87800694:	f2c8 7380 	movt	r3, #34688	; 0x8780
87800698:	689b      	ldr	r3, [r3, #8]
8780069a:	ee07 3a90 	vmov	s15, r3
8780069e:	eeb8 7ae7 	vcvt.f32.s32	s14, s15
878006a2:	edd7 7a05 	vldr	s15, [r7, #20]
878006a6:	eec7 7a27 	vdiv.f32	s15, s14, s15
878006aa:	ed9f 7a49 	vldr	s14, [pc, #292]	; 878007d0 <icm20608_getdata+0x280>
878006ae:	ee67 7a87 	vmul.f32	s15, s15, s14
878006b2:	eefd 7ae7 	vcvt.s32.f32	s15, s15
878006b6:	ee17 2a90 	vmov	r2, s15
878006ba:	f643 43ec 	movw	r3, #15596	; 0x3cec
878006be:	f2c8 7380 	movt	r3, #34688	; 0x8780
878006c2:	625a      	str	r2, [r3, #36]	; 0x24
878006c4:	f643 43ec 	movw	r3, #15596	; 0x3cec
878006c8:	f2c8 7380 	movt	r3, #34688	; 0x8780
878006cc:	68db      	ldr	r3, [r3, #12]
878006ce:	ee07 3a90 	vmov	s15, r3
878006d2:	eeb8 7ae7 	vcvt.f32.s32	s14, s15
878006d6:	8a7b      	ldrh	r3, [r7, #18]
878006d8:	ee07 3a90 	vmov	s15, r3
878006dc:	eef8 7ae7 	vcvt.f32.s32	s15, s15
878006e0:	eec7 7a27 	vdiv.f32	s15, s14, s15
878006e4:	ed9f 7a3a 	vldr	s14, [pc, #232]	; 878007d0 <icm20608_getdata+0x280>
878006e8:	ee67 7a87 	vmul.f32	s15, s15, s14
878006ec:	eefd 7ae7 	vcvt.s32.f32	s15, s15
878006f0:	ee17 2a90 	vmov	r2, s15
878006f4:	f643 43ec 	movw	r3, #15596	; 0x3cec
878006f8:	f2c8 7380 	movt	r3, #34688	; 0x8780
878006fc:	629a      	str	r2, [r3, #40]	; 0x28
878006fe:	f643 43ec 	movw	r3, #15596	; 0x3cec
87800702:	f2c8 7380 	movt	r3, #34688	; 0x8780
87800706:	691b      	ldr	r3, [r3, #16]
87800708:	ee07 3a90 	vmov	s15, r3
8780070c:	eeb8 7ae7 	vcvt.f32.s32	s14, s15
87800710:	8a7b      	ldrh	r3, [r7, #18]
87800712:	ee07 3a90 	vmov	s15, r3
87800716:	eef8 7ae7 	vcvt.f32.s32	s15, s15
8780071a:	eec7 7a27 	vdiv.f32	s15, s14, s15
8780071e:	ed9f 7a2c 	vldr	s14, [pc, #176]	; 878007d0 <icm20608_getdata+0x280>
87800722:	ee67 7a87 	vmul.f32	s15, s15, s14
87800726:	eefd 7ae7 	vcvt.s32.f32	s15, s15
8780072a:	ee17 2a90 	vmov	r2, s15
8780072e:	f643 43ec 	movw	r3, #15596	; 0x3cec
87800732:	f2c8 7380 	movt	r3, #34688	; 0x8780
87800736:	62da      	str	r2, [r3, #44]	; 0x2c
87800738:	f643 43ec 	movw	r3, #15596	; 0x3cec
8780073c:	f2c8 7380 	movt	r3, #34688	; 0x8780
87800740:	695b      	ldr	r3, [r3, #20]
87800742:	ee07 3a90 	vmov	s15, r3
87800746:	eeb8 7ae7 	vcvt.f32.s32	s14, s15
8780074a:	8a7b      	ldrh	r3, [r7, #18]
8780074c:	ee07 3a90 	vmov	s15, r3
87800750:	eef8 7ae7 	vcvt.f32.s32	s15, s15
87800754:	eec7 7a27 	vdiv.f32	s15, s14, s15
87800758:	ed9f 7a1d 	vldr	s14, [pc, #116]	; 878007d0 <icm20608_getdata+0x280>
8780075c:	ee67 7a87 	vmul.f32	s15, s15, s14
87800760:	eefd 7ae7 	vcvt.s32.f32	s15, s15
87800764:	ee17 2a90 	vmov	r2, s15
87800768:	f643 43ec 	movw	r3, #15596	; 0x3cec
8780076c:	f2c8 7380 	movt	r3, #34688	; 0x8780
87800770:	631a      	str	r2, [r3, #48]	; 0x30
87800772:	f643 43ec 	movw	r3, #15596	; 0x3cec
87800776:	f2c8 7380 	movt	r3, #34688	; 0x8780
8780077a:	699b      	ldr	r3, [r3, #24]
8780077c:	ee07 3a90 	vmov	s15, r3
87800780:	eef8 7ae7 	vcvt.f32.s32	s15, s15
87800784:	eeb3 7a09 	vmov.f32	s14, #57	; 0x39
87800788:	ee77 7ac7 	vsub.f32	s15, s15, s14
8780078c:	eeb7 7ae7 	vcvt.f64.f32	d7, s15
87800790:	ed9f 6b0b 	vldr	d6, [pc, #44]	; 878007c0 <icm20608_getdata+0x270>
87800794:	ee87 7b06 	vdiv.f64	d7, d7, d6
87800798:	eeb3 6b09 	vmov.f64	d6, #57	; 0x39
8780079c:	ee37 7b06 	vadd.f64	d7, d7, d6
878007a0:	ed9f 6b09 	vldr	d6, [pc, #36]	; 878007c8 <icm20608_getdata+0x278>
878007a4:	ee27 7b06 	vmul.f64	d7, d7, d6
878007a8:	eefd 7bc7 	vcvt.s32.f64	s15, d7
878007ac:	ee17 2a90 	vmov	r2, s15
878007b0:	f643 43ec 	movw	r3, #15596	; 0x3cec
878007b4:	f2c8 7380 	movt	r3, #34688	; 0x8780
878007b8:	635a      	str	r2, [r3, #52]	; 0x34
878007ba:	3718      	adds	r7, #24
878007bc:	46bd      	mov	sp, r7
878007be:	bd80      	pop	{r7, pc}
878007c0:	cccccccd 	stclgt	12, cr12, [ip], {205}	; 0xcd
878007c4:	40746ccc 	rsbsmi	r6, r4, ip, asr #25
878007c8:	00000000 	andeq	r0, r0, r0
878007cc:	40590000 	subsmi	r0, r9, r0
878007d0:	42c80000 	sbcmi	r0, r8, #0

878007d4 <main>:
878007d4:	b580      	push	{r7, lr}
878007d6:	af00      	add	r7, sp, #0
878007d8:	f001 fd40 	bl	8780225c <imx6ul_hardfpu_enable>
878007dc:	f000 f968 	bl	87800ab0 <int_init>
878007e0:	f000 f88a 	bl	878008f8 <imx6ul_clkinit>
878007e4:	f000 f8f2 	bl	878009cc <delay_init>
878007e8:	f000 f876 	bl	878008d8 <clk_enable>
878007ec:	f001 fd48 	bl	87802280 <uart_init>
878007f0:	f7ff fcbe 	bl	87800170 <icm20608_init>
878007f4:	f7ff feac 	bl	87800550 <icm20608_getdata>
878007f8:	f643 43ec 	movw	r3, #15596	; 0x3cec
878007fc:	f2c8 7380 	movt	r3, #34688	; 0x8780
87800800:	68d9      	ldr	r1, [r3, #12]
87800802:	f643 43ec 	movw	r3, #15596	; 0x3cec
87800806:	f2c8 7380 	movt	r3, #34688	; 0x8780
8780080a:	691a      	ldr	r2, [r3, #16]
8780080c:	f643 43ec 	movw	r3, #15596	; 0x3cec
87800810:	f2c8 7380 	movt	r3, #34688	; 0x8780
87800814:	695b      	ldr	r3, [r3, #20]
87800816:	f642 50ac 	movw	r0, #11692	; 0x2dac
8780081a:	f2c8 7080 	movt	r0, #34688	; 0x8780
8780081e:	f000 f9bd 	bl	87800b9c <printf>
87800822:	f643 43ec 	movw	r3, #15596	; 0x3cec
87800826:	f2c8 7380 	movt	r3, #34688	; 0x8780
8780082a:	6819      	ldr	r1, [r3, #0]
8780082c:	f643 43ec 	movw	r3, #15596	; 0x3cec
87800830:	f2c8 7380 	movt	r3, #34688	; 0x8780
87800834:	685a      	ldr	r2, [r3, #4]
87800836:	f643 43ec 	movw	r3, #15596	; 0x3cec
8780083a:	f2c8 7380 	movt	r3, #34688	; 0x8780
8780083e:	689b      	ldr	r3, [r3, #8]
87800840:	f642 50e4 	movw	r0, #11748	; 0x2de4
87800844:	f2c8 7080 	movt	r0, #34688	; 0x8780
87800848:	f000 f9a8 	bl	87800b9c <printf>
8780084c:	f643 43ec 	movw	r3, #15596	; 0x3cec
87800850:	f2c8 7380 	movt	r3, #34688	; 0x8780
87800854:	699b      	ldr	r3, [r3, #24]
87800856:	4619      	mov	r1, r3
87800858:	f642 6018 	movw	r0, #11800	; 0x2e18
8780085c:	f2c8 7080 	movt	r0, #34688	; 0x8780
87800860:	f000 f99c 	bl	87800b9c <printf>
87800864:	f643 43ec 	movw	r3, #15596	; 0x3cec
87800868:	f2c8 7380 	movt	r3, #34688	; 0x8780
8780086c:	6a99      	ldr	r1, [r3, #40]	; 0x28
8780086e:	f643 43ec 	movw	r3, #15596	; 0x3cec
87800872:	f2c8 7380 	movt	r3, #34688	; 0x8780
87800876:	6ada      	ldr	r2, [r3, #44]	; 0x2c
87800878:	f643 43ec 	movw	r3, #15596	; 0x3cec
8780087c:	f2c8 7380 	movt	r3, #34688	; 0x8780
87800880:	6b1b      	ldr	r3, [r3, #48]	; 0x30
87800882:	f642 6028 	movw	r0, #11816	; 0x2e28
87800886:	f2c8 7080 	movt	r0, #34688	; 0x8780
8780088a:	f000 f987 	bl	87800b9c <printf>
8780088e:	f643 43ec 	movw	r3, #15596	; 0x3cec
87800892:	f2c8 7380 	movt	r3, #34688	; 0x8780
87800896:	69d9      	ldr	r1, [r3, #28]
87800898:	f643 43ec 	movw	r3, #15596	; 0x3cec
8780089c:	f2c8 7380 	movt	r3, #34688	; 0x8780
878008a0:	6a1a      	ldr	r2, [r3, #32]
878008a2:	f643 43ec 	movw	r3, #15596	; 0x3cec
878008a6:	f2c8 7380 	movt	r3, #34688	; 0x8780
878008aa:	6a5b      	ldr	r3, [r3, #36]	; 0x24
878008ac:	f642 6060 	movw	r0, #11872	; 0x2e60
878008b0:	f2c8 7080 	movt	r0, #34688	; 0x8780
878008b4:	f000 f972 	bl	87800b9c <printf>
878008b8:	f643 43ec 	movw	r3, #15596	; 0x3cec
878008bc:	f2c8 7380 	movt	r3, #34688	; 0x8780
878008c0:	6b5b      	ldr	r3, [r3, #52]	; 0x34
878008c2:	4619      	mov	r1, r3
878008c4:	f642 6094 	movw	r0, #11924	; 0x2e94
878008c8:	f2c8 7080 	movt	r0, #34688	; 0x8780
878008cc:	f000 f966 	bl	87800b9c <printf>
878008d0:	e790      	b.n	878007f4 <main+0x20>
878008d2:	bf00      	nop
878008d4:	f3af 8000 	nop.w

878008d8 <clk_enable>:
878008d8:	f44f 4380 	mov.w	r3, #16384	; 0x4000
878008dc:	f04f 32ff 	mov.w	r2, #4294967295	; 0xffffffff
878008e0:	f2c0 230c 	movt	r3, #524	; 0x20c
878008e4:	669a      	str	r2, [r3, #104]	; 0x68
878008e6:	66da      	str	r2, [r3, #108]	; 0x6c
878008e8:	671a      	str	r2, [r3, #112]	; 0x70
878008ea:	675a      	str	r2, [r3, #116]	; 0x74
878008ec:	679a      	str	r2, [r3, #120]	; 0x78
878008ee:	67da      	str	r2, [r3, #124]	; 0x7c
878008f0:	f8c3 2080 	str.w	r2, [r3, #128]	; 0x80
878008f4:	4770      	bx	lr
878008f6:	bf00      	nop

878008f8 <imx6ul_clkinit>:
878008f8:	f44f 4380 	mov.w	r3, #16384	; 0x4000
878008fc:	b430      	push	{r4, r5}
878008fe:	f2c0 230c 	movt	r3, #524	; 0x20c
87800902:	68da      	ldr	r2, [r3, #12]
87800904:	0751      	lsls	r1, r2, #29
87800906:	d407      	bmi.n	87800918 <imx6ul_clkinit+0x20>
87800908:	68da      	ldr	r2, [r3, #12]
8780090a:	f422 7280 	bic.w	r2, r2, #256	; 0x100
8780090e:	60da      	str	r2, [r3, #12]
87800910:	68da      	ldr	r2, [r3, #12]
87800912:	f042 0204 	orr.w	r2, r2, #4
87800916:	60da      	str	r2, [r3, #12]
87800918:	f44f 4100 	mov.w	r1, #32768	; 0x8000
8780091c:	f44f 4280 	mov.w	r2, #16384	; 0x4000
87800920:	f2c0 220c 	movt	r2, #524	; 0x20c
87800924:	f2c0 210c 	movt	r1, #524	; 0x20c
87800928:	f242 0358 	movw	r3, #8280	; 0x2058
8780092c:	2501      	movs	r5, #1
8780092e:	600b      	str	r3, [r1, #0]
87800930:	f241 041b 	movw	r4, #4123	; 0x101b
87800934:	68d3      	ldr	r3, [r2, #12]
87800936:	f2c2 0418 	movt	r4, #8216	; 0x2018
8780093a:	f241 000c 	movw	r0, #4108	; 0x100c
8780093e:	f2c1 3011 	movt	r0, #4881	; 0x1311
87800942:	f023 0304 	bic.w	r3, r3, #4
87800946:	60d3      	str	r3, [r2, #12]
87800948:	4613      	mov	r3, r2
8780094a:	6115      	str	r5, [r2, #16]
8780094c:	f8d1 5100 	ldr.w	r5, [r1, #256]	; 0x100
87800950:	f005 35c0 	and.w	r5, r5, #3233857728	; 0xc0c0c0c0
87800954:	432c      	orrs	r4, r5
87800956:	f8c1 4100 	str.w	r4, [r1, #256]	; 0x100
8780095a:	f8d1 40f0 	ldr.w	r4, [r1, #240]	; 0xf0
8780095e:	f004 34c0 	and.w	r4, r4, #3233857728	; 0xc0c0c0c0
87800962:	4320      	orrs	r0, r4
87800964:	f8c1 00f0 	str.w	r0, [r1, #240]	; 0xf0
87800968:	6991      	ldr	r1, [r2, #24]
8780096a:	f421 2140 	bic.w	r1, r1, #786432	; 0xc0000
8780096e:	6191      	str	r1, [r2, #24]
87800970:	6991      	ldr	r1, [r2, #24]
87800972:	f441 2180 	orr.w	r1, r1, #262144	; 0x40000
87800976:	6191      	str	r1, [r2, #24]
87800978:	6951      	ldr	r1, [r2, #20]
8780097a:	f021 7100 	bic.w	r1, r1, #33554432	; 0x2000000
8780097e:	6151      	str	r1, [r2, #20]
87800980:	6c9a      	ldr	r2, [r3, #72]	; 0x48
87800982:	0692      	lsls	r2, r2, #26
87800984:	d4fc      	bmi.n	87800980 <imx6ul_clkinit+0x88>
87800986:	695a      	ldr	r2, [r3, #20]
87800988:	f422 7240 	bic.w	r2, r2, #768	; 0x300
8780098c:	615a      	str	r2, [r3, #20]
8780098e:	695a      	ldr	r2, [r3, #20]
87800990:	f442 7280 	orr.w	r2, r2, #256	; 0x100
87800994:	615a      	str	r2, [r3, #20]
87800996:	69da      	ldr	r2, [r3, #28]
87800998:	f022 0240 	bic.w	r2, r2, #64	; 0x40
8780099c:	61da      	str	r2, [r3, #28]
8780099e:	69da      	ldr	r2, [r3, #28]
878009a0:	f022 0207 	bic.w	r2, r2, #7
878009a4:	61da      	str	r2, [r3, #28]
878009a6:	6a5a      	ldr	r2, [r3, #36]	; 0x24
878009a8:	f022 0240 	bic.w	r2, r2, #64	; 0x40
878009ac:	625a      	str	r2, [r3, #36]	; 0x24
878009ae:	6a5a      	ldr	r2, [r3, #36]	; 0x24
878009b0:	f022 023f 	bic.w	r2, r2, #63	; 0x3f
878009b4:	625a      	str	r2, [r3, #36]	; 0x24
878009b6:	6b9a      	ldr	r2, [r3, #56]	; 0x38
878009b8:	f422 2280 	bic.w	r2, r2, #262144	; 0x40000
878009bc:	639a      	str	r2, [r3, #56]	; 0x38
878009be:	6b9a      	ldr	r2, [r3, #56]	; 0x38
878009c0:	f022 72fc 	bic.w	r2, r2, #33030144	; 0x1f80000
878009c4:	639a      	str	r2, [r3, #56]	; 0x38
878009c6:	bc30      	pop	{r4, r5}
878009c8:	4770      	bx	lr
878009ca:	bf00      	nop

878009cc <delay_init>:
878009cc:	f44f 4300 	mov.w	r3, #32768	; 0x8000
878009d0:	2000      	movs	r0, #0
878009d2:	f2c0 2309 	movt	r3, #521	; 0x209
878009d6:	f44f 4100 	mov.w	r1, #32768	; 0x8000
878009da:	461a      	mov	r2, r3
878009dc:	6018      	str	r0, [r3, #0]
878009de:	6019      	str	r1, [r3, #0]
878009e0:	6813      	ldr	r3, [r2, #0]
878009e2:	041b      	lsls	r3, r3, #16
878009e4:	d4fc      	bmi.n	878009e0 <delay_init+0x14>
878009e6:	f04f 33ff 	mov.w	r3, #4294967295	; 0xffffffff
878009ea:	2040      	movs	r0, #64	; 0x40
878009ec:	2141      	movs	r1, #65	; 0x41
878009ee:	6010      	str	r0, [r2, #0]
878009f0:	6051      	str	r1, [r2, #4]
878009f2:	6113      	str	r3, [r2, #16]
878009f4:	6813      	ldr	r3, [r2, #0]
878009f6:	f043 0301 	orr.w	r3, r3, #1
878009fa:	6013      	str	r3, [r2, #0]
878009fc:	4770      	bx	lr
878009fe:	bf00      	nop

87800a00 <delayus>:
87800a00:	f44f 4100 	mov.w	r1, #32768	; 0x8000
87800a04:	b430      	push	{r4, r5}
87800a06:	f2c0 2109 	movt	r1, #521	; 0x209
87800a0a:	2400      	movs	r4, #0
87800a0c:	6a4a      	ldr	r2, [r1, #36]	; 0x24
87800a0e:	6a4b      	ldr	r3, [r1, #36]	; 0x24
87800a10:	429a      	cmp	r2, r3
87800a12:	d0fc      	beq.n	87800a0e <delayus+0xe>
87800a14:	f104 35ff 	add.w	r5, r4, #4294967295	; 0xffffffff
87800a18:	eba4 0402 	sub.w	r4, r4, r2
87800a1c:	eba5 0202 	sub.w	r2, r5, r2
87800a20:	bf34      	ite	cc
87800a22:	18e4      	addcc	r4, r4, r3
87800a24:	18d4      	addcs	r4, r2, r3
87800a26:	461a      	mov	r2, r3
87800a28:	4284      	cmp	r4, r0
87800a2a:	d3f0      	bcc.n	87800a0e <delayus+0xe>
87800a2c:	bc30      	pop	{r4, r5}
87800a2e:	4770      	bx	lr

87800a30 <delayms>:
87800a30:	b1e0      	cbz	r0, 87800a6c <delayms+0x3c>
87800a32:	f44f 4100 	mov.w	r1, #32768	; 0x8000
87800a36:	b470      	push	{r4, r5, r6}
87800a38:	f2c0 2109 	movt	r1, #521	; 0x209
87800a3c:	2600      	movs	r6, #0
87800a3e:	2400      	movs	r4, #0
87800a40:	6a4a      	ldr	r2, [r1, #36]	; 0x24
87800a42:	6a4b      	ldr	r3, [r1, #36]	; 0x24
87800a44:	4293      	cmp	r3, r2
87800a46:	d0fc      	beq.n	87800a42 <delayms+0x12>
87800a48:	f104 35ff 	add.w	r5, r4, #4294967295	; 0xffffffff
87800a4c:	eba4 0402 	sub.w	r4, r4, r2
87800a50:	eba5 0202 	sub.w	r2, r5, r2
87800a54:	bf8c      	ite	hi
87800a56:	18e4      	addhi	r4, r4, r3
87800a58:	189c      	addls	r4, r3, r2
87800a5a:	461a      	mov	r2, r3
87800a5c:	f5b4 7f7a 	cmp.w	r4, #1000	; 0x3e8
87800a60:	d3ef      	bcc.n	87800a42 <delayms+0x12>
87800a62:	3601      	adds	r6, #1
87800a64:	4286      	cmp	r6, r0
87800a66:	d1ea      	bne.n	87800a3e <delayms+0xe>
87800a68:	bc70      	pop	{r4, r5, r6}
87800a6a:	4770      	bx	lr
87800a6c:	4770      	bx	lr
87800a6e:	bf00      	nop

87800a70 <delay_short>:
87800a70:	b082      	sub	sp, #8
87800a72:	9001      	str	r0, [sp, #4]
87800a74:	9b01      	ldr	r3, [sp, #4]
87800a76:	1e5a      	subs	r2, r3, #1
87800a78:	9201      	str	r2, [sp, #4]
87800a7a:	2b00      	cmp	r3, #0
87800a7c:	d1fa      	bne.n	87800a74 <delay_short+0x4>
87800a7e:	b002      	add	sp, #8
87800a80:	4770      	bx	lr
87800a82:	bf00      	nop

87800a84 <delay>:
87800a84:	b082      	sub	sp, #8
87800a86:	9001      	str	r0, [sp, #4]
87800a88:	9b01      	ldr	r3, [sp, #4]
87800a8a:	1e5a      	subs	r2, r3, #1
87800a8c:	9201      	str	r2, [sp, #4]
87800a8e:	b153      	cbz	r3, 87800aa6 <delay+0x22>
87800a90:	f240 73ff 	movw	r3, #2047	; 0x7ff
87800a94:	461a      	mov	r2, r3
87800a96:	3b01      	subs	r3, #1
87800a98:	2a00      	cmp	r2, #0
87800a9a:	d1fb      	bne.n	87800a94 <delay+0x10>
87800a9c:	9b01      	ldr	r3, [sp, #4]
87800a9e:	1e5a      	subs	r2, r3, #1
87800aa0:	9201      	str	r2, [sp, #4]
87800aa2:	2b00      	cmp	r3, #0
87800aa4:	d1f4      	bne.n	87800a90 <delay+0xc>
87800aa6:	b002      	add	sp, #8
87800aa8:	4770      	bx	lr
87800aaa:	bf00      	nop

87800aac <default_irqhandler>:
87800aac:	e7fe      	b.n	87800aac <default_irqhandler>
87800aae:	bf00      	nop

87800ab0 <int_init>:
87800ab0:	b470      	push	{r4, r5, r6}
87800ab2:	ee9f 4f10 	mrc	15, 4, r4, cr15, cr0, {0}
87800ab6:	0c24      	lsrs	r4, r4, #16
87800ab8:	f241 0204 	movw	r2, #4100	; 0x1004
87800abc:	2300      	movs	r3, #0
87800abe:	0424      	lsls	r4, r4, #16
87800ac0:	f04f 30ff 	mov.w	r0, #4294967295	; 0xffffffff
87800ac4:	58a1      	ldr	r1, [r4, r2]
87800ac6:	f001 011f 	and.w	r1, r1, #31
87800aca:	3101      	adds	r1, #1
87800acc:	f503 628c 	add.w	r2, r3, #1120	; 0x460
87800ad0:	3301      	adds	r3, #1
87800ad2:	4299      	cmp	r1, r3
87800ad4:	f844 0022 	str.w	r0, [r4, r2, lsl #2]
87800ad8:	d1f8      	bne.n	87800acc <int_init+0x1c>
87800ada:	f642 73e0 	movw	r3, #12256	; 0x2fe0
87800ade:	2500      	movs	r5, #0
87800ae0:	f2c8 7380 	movt	r3, #34688	; 0x8780
87800ae4:	f242 0104 	movw	r1, #8196	; 0x2004
87800ae8:	26f8      	movs	r6, #248	; 0xf8
87800aea:	f640 22ad 	movw	r2, #2733	; 0xaad
87800aee:	5066      	str	r6, [r4, r1]
87800af0:	f203 5004 	addw	r0, r3, #1284	; 0x504
87800af4:	f242 0608 	movw	r6, #8200	; 0x2008
87800af8:	4629      	mov	r1, r5
87800afa:	f843 5b04 	str.w	r5, [r3], #4
87800afe:	f2c8 7280 	movt	r2, #34688	; 0x8780
87800b02:	2502      	movs	r5, #2
87800b04:	51a5      	str	r5, [r4, r6]
87800b06:	f504 5680 	add.w	r6, r4, #4096	; 0x1000
87800b0a:	2501      	movs	r5, #1
87800b0c:	f504 5400 	add.w	r4, r4, #8192	; 0x2000
87800b10:	6035      	str	r5, [r6, #0]
87800b12:	6025      	str	r5, [r4, #0]
87800b14:	e9c3 2100 	strd	r2, r1, [r3]
87800b18:	3308      	adds	r3, #8
87800b1a:	4298      	cmp	r0, r3
87800b1c:	d1fa      	bne.n	87800b14 <int_init+0x64>
87800b1e:	2300      	movs	r3, #0
87800b20:	f2c8 7380 	movt	r3, #34688	; 0x8780
87800b24:	ee0c 3f10 	mcr	15, 0, r3, cr12, cr0, {0}
87800b28:	bc70      	pop	{r4, r5, r6}
87800b2a:	4770      	bx	lr

87800b2c <system_irqtable_init>:
87800b2c:	b410      	push	{r4}
87800b2e:	f640 22ad 	movw	r2, #2733	; 0xaad
87800b32:	2400      	movs	r4, #0
87800b34:	f642 73e0 	movw	r3, #12256	; 0x2fe0
87800b38:	4621      	mov	r1, r4
87800b3a:	f2c8 7280 	movt	r2, #34688	; 0x8780
87800b3e:	f2c8 7380 	movt	r3, #34688	; 0x8780
87800b42:	f203 5004 	addw	r0, r3, #1284	; 0x504
87800b46:	f843 4b04 	str.w	r4, [r3], #4
87800b4a:	e9c3 2100 	strd	r2, r1, [r3]
87800b4e:	3308      	adds	r3, #8
87800b50:	4283      	cmp	r3, r0
87800b52:	d1fa      	bne.n	87800b4a <system_irqtable_init+0x1e>
87800b54:	f85d 4b04 	ldr.w	r4, [sp], #4
87800b58:	4770      	bx	lr
87800b5a:	bf00      	nop

87800b5c <system_register_irqhandler>:
87800b5c:	f642 73e0 	movw	r3, #12256	; 0x2fe0
87800b60:	f2c8 7380 	movt	r3, #34688	; 0x8780
87800b64:	eb03 00c0 	add.w	r0, r3, r0, lsl #3
87800b68:	e9c0 1201 	strd	r1, r2, [r0, #4]
87800b6c:	4770      	bx	lr
87800b6e:	bf00      	nop

87800b70 <system_irqhandler>:
87800b70:	b538      	push	{r3, r4, r5, lr}
87800b72:	f3c0 0309 	ubfx	r3, r0, #0, #10
87800b76:	2b9f      	cmp	r3, #159	; 0x9f
87800b78:	d80f      	bhi.n	87800b9a <system_irqhandler+0x2a>
87800b7a:	f642 74e0 	movw	r4, #12256	; 0x2fe0
87800b7e:	4618      	mov	r0, r3
87800b80:	f2c8 7480 	movt	r4, #34688	; 0x8780
87800b84:	6822      	ldr	r2, [r4, #0]
87800b86:	eb04 03c3 	add.w	r3, r4, r3, lsl #3
87800b8a:	685d      	ldr	r5, [r3, #4]
87800b8c:	3201      	adds	r2, #1
87800b8e:	6899      	ldr	r1, [r3, #8]
87800b90:	6022      	str	r2, [r4, #0]
87800b92:	47a8      	blx	r5
87800b94:	6823      	ldr	r3, [r4, #0]
87800b96:	3b01      	subs	r3, #1
87800b98:	6023      	str	r3, [r4, #0]
87800b9a:	bd38      	pop	{r3, r4, r5, pc}

87800b9c <printf>:
87800b9c:	b40f      	push	{r0, r1, r2, r3}
87800b9e:	f243 40e4 	movw	r0, #13540	; 0x34e4
87800ba2:	b5f8      	push	{r3, r4, r5, r6, r7, lr}
87800ba4:	f2c8 7080 	movt	r0, #34688	; 0x8780
87800ba8:	4605      	mov	r5, r0
87800baa:	aa07      	add	r2, sp, #28
87800bac:	462e      	mov	r6, r5
87800bae:	2400      	movs	r4, #0
87800bb0:	9906      	ldr	r1, [sp, #24]
87800bb2:	f001 f8c1 	bl	87801d38 <vsprintf>
87800bb6:	4607      	mov	r7, r0
87800bb8:	e003      	b.n	87800bc2 <printf+0x26>
87800bba:	f815 0b01 	ldrb.w	r0, [r5], #1
87800bbe:	f001 fcf7 	bl	878025b0 <putc>
87800bc2:	4630      	mov	r0, r6
87800bc4:	f000 f8f6 	bl	87800db4 <strlen>
87800bc8:	42a0      	cmp	r0, r4
87800bca:	f104 0401 	add.w	r4, r4, #1
87800bce:	d8f4      	bhi.n	87800bba <printf+0x1e>
87800bd0:	4638      	mov	r0, r7
87800bd2:	e8bd 40f8 	ldmia.w	sp!, {r3, r4, r5, r6, r7, lr}
87800bd6:	b004      	add	sp, #16
87800bd8:	4770      	bx	lr
87800bda:	bf00      	nop

87800bdc <scanf>:
87800bdc:	b40f      	push	{r0, r1, r2, r3}
87800bde:	b570      	push	{r4, r5, r6, lr}
87800be0:	2500      	movs	r5, #0
87800be2:	4e10      	ldr	r6, [pc, #64]	; (87800c24 <scanf+0x48>)
87800be4:	e002      	b.n	87800bec <scanf+0x10>
87800be6:	3501      	adds	r5, #1
87800be8:	f806 4b01 	strb.w	r4, [r6], #1
87800bec:	f001 fcfa 	bl	878025e4 <getc>
87800bf0:	4604      	mov	r4, r0
87800bf2:	f001 fcdd 	bl	878025b0 <putc>
87800bf6:	2c0a      	cmp	r4, #10
87800bf8:	bf18      	it	ne
87800bfa:	2c0d      	cmpne	r4, #13
87800bfc:	d1f3      	bne.n	87800be6 <scanf+0xa>
87800bfe:	f243 40e4 	movw	r0, #13540	; 0x34e4
87800c02:	2300      	movs	r3, #0
87800c04:	f2c8 7080 	movt	r0, #34688	; 0x8780
87800c08:	aa05      	add	r2, sp, #20
87800c0a:	4405      	add	r5, r0
87800c0c:	9904      	ldr	r1, [sp, #16]
87800c0e:	f500 6080 	add.w	r0, r0, #1024	; 0x400
87800c12:	f885 3400 	strb.w	r3, [r5, #1024]	; 0x400
87800c16:	f001 f8a1 	bl	87801d5c <vsscanf>
87800c1a:	e8bd 4070 	ldmia.w	sp!, {r4, r5, r6, lr}
87800c1e:	b004      	add	sp, #16
87800c20:	4770      	bx	lr
87800c22:	bf00      	nop
87800c24:	878038e4 	strhi	r3, [r0, r4, ror #17]

87800c28 <strnicmp>:
87800c28:	b332      	cbz	r2, 87800c78 <strnicmp+0x50>
87800c2a:	b5f0      	push	{r4, r5, r6, r7, lr}
87800c2c:	f642 65dc 	movw	r5, #11996	; 0x2edc
87800c30:	1e44      	subs	r4, r0, #1
87800c32:	eb01 0e02 	add.w	lr, r1, r2
87800c36:	f2c8 7580 	movt	r5, #34688	; 0x8780
87800c3a:	e006      	b.n	87800c4a <strnicmp+0x22>
87800c3c:	fa5f f08c 	uxtb.w	r0, ip
87800c40:	b9b3      	cbnz	r3, 87800c70 <strnicmp+0x48>
87800c42:	4282      	cmp	r2, r0
87800c44:	d11c      	bne.n	87800c80 <strnicmp+0x58>
87800c46:	4571      	cmp	r1, lr
87800c48:	d014      	beq.n	87800c74 <strnicmp+0x4c>
87800c4a:	f814 0f01 	ldrb.w	r0, [r4, #1]!
87800c4e:	f811 2b01 	ldrb.w	r2, [r1], #1
87800c52:	b198      	cbz	r0, 87800c7c <strnicmp+0x54>
87800c54:	b17a      	cbz	r2, 87800c76 <strnicmp+0x4e>
87800c56:	4290      	cmp	r0, r2
87800c58:	d0f5      	beq.n	87800c46 <strnicmp+0x1e>
87800c5a:	5c2e      	ldrb	r6, [r5, r0]
87800c5c:	f102 0720 	add.w	r7, r2, #32
87800c60:	5cab      	ldrb	r3, [r5, r2]
87800c62:	f100 0c20 	add.w	ip, r0, #32
87800c66:	07f6      	lsls	r6, r6, #31
87800c68:	f003 0301 	and.w	r3, r3, #1
87800c6c:	d4e6      	bmi.n	87800c3c <strnicmp+0x14>
87800c6e:	b13b      	cbz	r3, 87800c80 <strnicmp+0x58>
87800c70:	b2fa      	uxtb	r2, r7
87800c72:	e7e6      	b.n	87800c42 <strnicmp+0x1a>
87800c74:	2000      	movs	r0, #0
87800c76:	bdf0      	pop	{r4, r5, r6, r7, pc}
87800c78:	4610      	mov	r0, r2
87800c7a:	4770      	bx	lr
87800c7c:	4250      	negs	r0, r2
87800c7e:	bdf0      	pop	{r4, r5, r6, r7, pc}
87800c80:	1a80      	subs	r0, r0, r2
87800c82:	bdf0      	pop	{r4, r5, r6, r7, pc}

87800c84 <strcpy>:
87800c84:	1e42      	subs	r2, r0, #1
87800c86:	f811 3b01 	ldrb.w	r3, [r1], #1
87800c8a:	f802 3f01 	strb.w	r3, [r2, #1]!
87800c8e:	2b00      	cmp	r3, #0
87800c90:	d1f9      	bne.n	87800c86 <strcpy+0x2>
87800c92:	4770      	bx	lr

87800c94 <strncpy>:
87800c94:	b410      	push	{r4}
87800c96:	440a      	add	r2, r1
87800c98:	1e44      	subs	r4, r0, #1
87800c9a:	e004      	b.n	87800ca6 <strncpy+0x12>
87800c9c:	f811 3b01 	ldrb.w	r3, [r1], #1
87800ca0:	f804 3f01 	strb.w	r3, [r4, #1]!
87800ca4:	b10b      	cbz	r3, 87800caa <strncpy+0x16>
87800ca6:	4291      	cmp	r1, r2
87800ca8:	d1f8      	bne.n	87800c9c <strncpy+0x8>
87800caa:	f85d 4b04 	ldr.w	r4, [sp], #4
87800cae:	4770      	bx	lr

87800cb0 <strcat>:
87800cb0:	7803      	ldrb	r3, [r0, #0]
87800cb2:	b163      	cbz	r3, 87800cce <strcat+0x1e>
87800cb4:	4603      	mov	r3, r0
87800cb6:	f813 2f01 	ldrb.w	r2, [r3, #1]!
87800cba:	2a00      	cmp	r2, #0
87800cbc:	d1fb      	bne.n	87800cb6 <strcat+0x6>
87800cbe:	3b01      	subs	r3, #1
87800cc0:	f811 2b01 	ldrb.w	r2, [r1], #1
87800cc4:	f803 2f01 	strb.w	r2, [r3, #1]!
87800cc8:	2a00      	cmp	r2, #0
87800cca:	d1f9      	bne.n	87800cc0 <strcat+0x10>
87800ccc:	4770      	bx	lr
87800cce:	4603      	mov	r3, r0
87800cd0:	e7f5      	b.n	87800cbe <strcat+0xe>
87800cd2:	bf00      	nop

87800cd4 <strncat>:
87800cd4:	b1a2      	cbz	r2, 87800d00 <strncat+0x2c>
87800cd6:	7803      	ldrb	r3, [r0, #0]
87800cd8:	b430      	push	{r4, r5}
87800cda:	b1b3      	cbz	r3, 87800d0a <strncat+0x36>
87800cdc:	4603      	mov	r3, r0
87800cde:	f813 4f01 	ldrb.w	r4, [r3, #1]!
87800ce2:	2c00      	cmp	r4, #0
87800ce4:	d1fb      	bne.n	87800cde <strncat+0xa>
87800ce6:	441a      	add	r2, r3
87800ce8:	e001      	b.n	87800cee <strncat+0x1a>
87800cea:	4293      	cmp	r3, r2
87800cec:	d009      	beq.n	87800d02 <strncat+0x2e>
87800cee:	f811 4b01 	ldrb.w	r4, [r1], #1
87800cf2:	461d      	mov	r5, r3
87800cf4:	f803 4b01 	strb.w	r4, [r3], #1
87800cf8:	2c00      	cmp	r4, #0
87800cfa:	d1f6      	bne.n	87800cea <strncat+0x16>
87800cfc:	bc30      	pop	{r4, r5}
87800cfe:	4770      	bx	lr
87800d00:	4770      	bx	lr
87800d02:	2300      	movs	r3, #0
87800d04:	706b      	strb	r3, [r5, #1]
87800d06:	bc30      	pop	{r4, r5}
87800d08:	4770      	bx	lr
87800d0a:	4603      	mov	r3, r0
87800d0c:	e7eb      	b.n	87800ce6 <strncat+0x12>
87800d0e:	bf00      	nop

87800d10 <strcmp>:
87800d10:	1e42      	subs	r2, r0, #1
87800d12:	e000      	b.n	87800d16 <strcmp+0x6>
87800d14:	b148      	cbz	r0, 87800d2a <strcmp+0x1a>
87800d16:	f812 0f01 	ldrb.w	r0, [r2, #1]!
87800d1a:	f811 3b01 	ldrb.w	r3, [r1], #1
87800d1e:	1ac3      	subs	r3, r0, r3
87800d20:	b25b      	sxtb	r3, r3
87800d22:	2b00      	cmp	r3, #0
87800d24:	d0f6      	beq.n	87800d14 <strcmp+0x4>
87800d26:	4618      	mov	r0, r3
87800d28:	4770      	bx	lr
87800d2a:	4770      	bx	lr

87800d2c <strncmp>:
87800d2c:	b1e2      	cbz	r2, 87800d68 <strncmp+0x3c>
87800d2e:	b430      	push	{r4, r5}
87800d30:	1c4c      	adds	r4, r1, #1
87800d32:	7805      	ldrb	r5, [r0, #0]
87800d34:	780b      	ldrb	r3, [r1, #0]
87800d36:	1aeb      	subs	r3, r5, r3
87800d38:	b25b      	sxtb	r3, r3
87800d3a:	b97b      	cbnz	r3, 87800d5c <strncmp+0x30>
87800d3c:	b15d      	cbz	r5, 87800d56 <strncmp+0x2a>
87800d3e:	4411      	add	r1, r2
87800d40:	e007      	b.n	87800d52 <strncmp+0x26>
87800d42:	f810 2f01 	ldrb.w	r2, [r0, #1]!
87800d46:	f814 3b01 	ldrb.w	r3, [r4], #1
87800d4a:	1ad3      	subs	r3, r2, r3
87800d4c:	b25b      	sxtb	r3, r3
87800d4e:	b92b      	cbnz	r3, 87800d5c <strncmp+0x30>
87800d50:	b13a      	cbz	r2, 87800d62 <strncmp+0x36>
87800d52:	42a1      	cmp	r1, r4
87800d54:	d1f5      	bne.n	87800d42 <strncmp+0x16>
87800d56:	2000      	movs	r0, #0
87800d58:	bc30      	pop	{r4, r5}
87800d5a:	4770      	bx	lr
87800d5c:	4618      	mov	r0, r3
87800d5e:	bc30      	pop	{r4, r5}
87800d60:	4770      	bx	lr
87800d62:	4610      	mov	r0, r2
87800d64:	bc30      	pop	{r4, r5}
87800d66:	4770      	bx	lr
87800d68:	4610      	mov	r0, r2
87800d6a:	4770      	bx	lr

87800d6c <strchr>:
87800d6c:	7803      	ldrb	r3, [r0, #0]
87800d6e:	b2c9      	uxtb	r1, r1
87800d70:	428b      	cmp	r3, r1
87800d72:	d006      	beq.n	87800d82 <strchr+0x16>
87800d74:	b123      	cbz	r3, 87800d80 <strchr+0x14>
87800d76:	f810 3f01 	ldrb.w	r3, [r0, #1]!
87800d7a:	428b      	cmp	r3, r1
87800d7c:	d1fa      	bne.n	87800d74 <strchr+0x8>
87800d7e:	4770      	bx	lr
87800d80:	4618      	mov	r0, r3
87800d82:	4770      	bx	lr

87800d84 <strrchr>:
87800d84:	7803      	ldrb	r3, [r0, #0]
87800d86:	b193      	cbz	r3, 87800dae <strrchr+0x2a>
87800d88:	4603      	mov	r3, r0
87800d8a:	f813 2f01 	ldrb.w	r2, [r3, #1]!
87800d8e:	2a00      	cmp	r2, #0
87800d90:	d1fb      	bne.n	87800d8a <strrchr+0x6>
87800d92:	b2c9      	uxtb	r1, r1
87800d94:	2200      	movs	r2, #0
87800d96:	e003      	b.n	87800da0 <strrchr+0x1c>
87800d98:	3b01      	subs	r3, #1
87800d9a:	4298      	cmp	r0, r3
87800d9c:	d804      	bhi.n	87800da8 <strrchr+0x24>
87800d9e:	781a      	ldrb	r2, [r3, #0]
87800da0:	428a      	cmp	r2, r1
87800da2:	d1f9      	bne.n	87800d98 <strrchr+0x14>
87800da4:	4618      	mov	r0, r3
87800da6:	4770      	bx	lr
87800da8:	2300      	movs	r3, #0
87800daa:	4618      	mov	r0, r3
87800dac:	4770      	bx	lr
87800dae:	4603      	mov	r3, r0
87800db0:	e7ef      	b.n	87800d92 <strrchr+0xe>
87800db2:	bf00      	nop

87800db4 <strlen>:
87800db4:	7803      	ldrb	r3, [r0, #0]
87800db6:	4602      	mov	r2, r0
87800db8:	b12b      	cbz	r3, 87800dc6 <strlen+0x12>
87800dba:	f810 3f01 	ldrb.w	r3, [r0, #1]!
87800dbe:	2b00      	cmp	r3, #0
87800dc0:	d1fb      	bne.n	87800dba <strlen+0x6>
87800dc2:	1a80      	subs	r0, r0, r2
87800dc4:	4770      	bx	lr
87800dc6:	4618      	mov	r0, r3
87800dc8:	4770      	bx	lr
87800dca:	bf00      	nop

87800dcc <strnlen>:
87800dcc:	b1d1      	cbz	r1, 87800e04 <strnlen+0x38>
87800dce:	7803      	ldrb	r3, [r0, #0]
87800dd0:	b1d3      	cbz	r3, 87800e08 <strnlen+0x3c>
87800dd2:	1c43      	adds	r3, r0, #1
87800dd4:	4401      	add	r1, r0
87800dd6:	4299      	cmp	r1, r3
87800dd8:	f103 0201 	add.w	r2, r3, #1
87800ddc:	d016      	beq.n	87800e0c <strnlen+0x40>
87800dde:	b410      	push	{r4}
87800de0:	781c      	ldrb	r4, [r3, #0]
87800de2:	b13c      	cbz	r4, 87800df4 <strnlen+0x28>
87800de4:	4291      	cmp	r1, r2
87800de6:	4613      	mov	r3, r2
87800de8:	f102 0201 	add.w	r2, r2, #1
87800dec:	d006      	beq.n	87800dfc <strnlen+0x30>
87800dee:	781c      	ldrb	r4, [r3, #0]
87800df0:	2c00      	cmp	r4, #0
87800df2:	d1f7      	bne.n	87800de4 <strnlen+0x18>
87800df4:	1a18      	subs	r0, r3, r0
87800df6:	f85d 4b04 	ldr.w	r4, [sp], #4
87800dfa:	4770      	bx	lr
87800dfc:	1a08      	subs	r0, r1, r0
87800dfe:	f85d 4b04 	ldr.w	r4, [sp], #4
87800e02:	4770      	bx	lr
87800e04:	4608      	mov	r0, r1
87800e06:	4770      	bx	lr
87800e08:	4618      	mov	r0, r3
87800e0a:	4770      	bx	lr
87800e0c:	1a08      	subs	r0, r1, r0
87800e0e:	4770      	bx	lr

87800e10 <strspn>:
87800e10:	b470      	push	{r4, r5, r6}
87800e12:	7804      	ldrb	r4, [r0, #0]
87800e14:	4625      	mov	r5, r4
87800e16:	b164      	cbz	r4, 87800e32 <strspn+0x22>
87800e18:	780e      	ldrb	r6, [r1, #0]
87800e1a:	2500      	movs	r5, #0
87800e1c:	b14e      	cbz	r6, 87800e32 <strspn+0x22>
87800e1e:	42a6      	cmp	r6, r4
87800e20:	d00a      	beq.n	87800e38 <strspn+0x28>
87800e22:	460a      	mov	r2, r1
87800e24:	e001      	b.n	87800e2a <strspn+0x1a>
87800e26:	42a3      	cmp	r3, r4
87800e28:	d006      	beq.n	87800e38 <strspn+0x28>
87800e2a:	f812 3f01 	ldrb.w	r3, [r2, #1]!
87800e2e:	2b00      	cmp	r3, #0
87800e30:	d1f9      	bne.n	87800e26 <strspn+0x16>
87800e32:	4628      	mov	r0, r5
87800e34:	bc70      	pop	{r4, r5, r6}
87800e36:	4770      	bx	lr
87800e38:	f810 4f01 	ldrb.w	r4, [r0, #1]!
87800e3c:	3501      	adds	r5, #1
87800e3e:	2c00      	cmp	r4, #0
87800e40:	d1ec      	bne.n	87800e1c <strspn+0xc>
87800e42:	4628      	mov	r0, r5
87800e44:	bc70      	pop	{r4, r5, r6}
87800e46:	4770      	bx	lr

87800e48 <strpbrk>:
87800e48:	b430      	push	{r4, r5}
87800e4a:	7804      	ldrb	r4, [r0, #0]
87800e4c:	b17c      	cbz	r4, 87800e6e <strpbrk+0x26>
87800e4e:	780d      	ldrb	r5, [r1, #0]
87800e50:	b14d      	cbz	r5, 87800e66 <strpbrk+0x1e>
87800e52:	42a5      	cmp	r5, r4
87800e54:	d00c      	beq.n	87800e70 <strpbrk+0x28>
87800e56:	460a      	mov	r2, r1
87800e58:	e001      	b.n	87800e5e <strpbrk+0x16>
87800e5a:	42a3      	cmp	r3, r4
87800e5c:	d008      	beq.n	87800e70 <strpbrk+0x28>
87800e5e:	f812 3f01 	ldrb.w	r3, [r2, #1]!
87800e62:	2b00      	cmp	r3, #0
87800e64:	d1f9      	bne.n	87800e5a <strpbrk+0x12>
87800e66:	f810 4f01 	ldrb.w	r4, [r0, #1]!
87800e6a:	2c00      	cmp	r4, #0
87800e6c:	d1f0      	bne.n	87800e50 <strpbrk+0x8>
87800e6e:	4620      	mov	r0, r4
87800e70:	bc30      	pop	{r4, r5}
87800e72:	4770      	bx	lr

87800e74 <strtok>:
87800e74:	f643 5c24 	movw	ip, #15652	; 0x3d24
87800e78:	f2c8 7c80 	movt	ip, #34688	; 0x8780
87800e7c:	2800      	cmp	r0, #0
87800e7e:	d03c      	beq.n	87800efa <strtok+0x86>
87800e80:	b4f0      	push	{r4, r5, r6, r7}
87800e82:	7804      	ldrb	r4, [r0, #0]
87800e84:	2c00      	cmp	r4, #0
87800e86:	d03d      	beq.n	87800f04 <strtok+0x90>
87800e88:	780d      	ldrb	r5, [r1, #0]
87800e8a:	4607      	mov	r7, r0
87800e8c:	2600      	movs	r6, #0
87800e8e:	b14d      	cbz	r5, 87800ea4 <strtok+0x30>
87800e90:	42ac      	cmp	r4, r5
87800e92:	d01f      	beq.n	87800ed4 <strtok+0x60>
87800e94:	460a      	mov	r2, r1
87800e96:	e001      	b.n	87800e9c <strtok+0x28>
87800e98:	42a3      	cmp	r3, r4
87800e9a:	d01b      	beq.n	87800ed4 <strtok+0x60>
87800e9c:	f812 3f01 	ldrb.w	r3, [r2, #1]!
87800ea0:	2b00      	cmp	r3, #0
87800ea2:	d1f9      	bne.n	87800e98 <strtok+0x24>
87800ea4:	5d84      	ldrb	r4, [r0, r6]
87800ea6:	4430      	add	r0, r6
87800ea8:	4606      	mov	r6, r0
87800eaa:	b35c      	cbz	r4, 87800f04 <strtok+0x90>
87800eac:	b14d      	cbz	r5, 87800ec2 <strtok+0x4e>
87800eae:	42ac      	cmp	r4, r5
87800eb0:	d01b      	beq.n	87800eea <strtok+0x76>
87800eb2:	460a      	mov	r2, r1
87800eb4:	e001      	b.n	87800eba <strtok+0x46>
87800eb6:	42a3      	cmp	r3, r4
87800eb8:	d017      	beq.n	87800eea <strtok+0x76>
87800eba:	f812 3f01 	ldrb.w	r3, [r2, #1]!
87800ebe:	2b00      	cmp	r3, #0
87800ec0:	d1f9      	bne.n	87800eb6 <strtok+0x42>
87800ec2:	f816 4f01 	ldrb.w	r4, [r6, #1]!
87800ec6:	2c00      	cmp	r4, #0
87800ec8:	d1f0      	bne.n	87800eac <strtok+0x38>
87800eca:	4626      	mov	r6, r4
87800ecc:	f8cc 6000 	str.w	r6, [ip]
87800ed0:	bcf0      	pop	{r4, r5, r6, r7}
87800ed2:	4770      	bx	lr
87800ed4:	f817 4f01 	ldrb.w	r4, [r7, #1]!
87800ed8:	3601      	adds	r6, #1
87800eda:	2c00      	cmp	r4, #0
87800edc:	d1d7      	bne.n	87800e8e <strtok+0x1a>
87800ede:	5d84      	ldrb	r4, [r0, r6]
87800ee0:	4430      	add	r0, r6
87800ee2:	4606      	mov	r6, r0
87800ee4:	2c00      	cmp	r4, #0
87800ee6:	d1e1      	bne.n	87800eac <strtok+0x38>
87800ee8:	e00c      	b.n	87800f04 <strtok+0x90>
87800eea:	7833      	ldrb	r3, [r6, #0]
87800eec:	2b00      	cmp	r3, #0
87800eee:	d0ed      	beq.n	87800ecc <strtok+0x58>
87800ef0:	2300      	movs	r3, #0
87800ef2:	3601      	adds	r6, #1
87800ef4:	f806 3c01 	strb.w	r3, [r6, #-1]
87800ef8:	e7e8      	b.n	87800ecc <strtok+0x58>
87800efa:	f8dc 0000 	ldr.w	r0, [ip]
87800efe:	2800      	cmp	r0, #0
87800f00:	d1be      	bne.n	87800e80 <strtok+0xc>
87800f02:	4770      	bx	lr
87800f04:	2000      	movs	r0, #0
87800f06:	f8cc 0000 	str.w	r0, [ip]
87800f0a:	e7e1      	b.n	87800ed0 <strtok+0x5c>

87800f0c <strsep>:
87800f0c:	b4f0      	push	{r4, r5, r6, r7}
87800f0e:	4607      	mov	r7, r0
87800f10:	6800      	ldr	r0, [r0, #0]
87800f12:	b198      	cbz	r0, 87800f3c <strsep+0x30>
87800f14:	7804      	ldrb	r4, [r0, #0]
87800f16:	b184      	cbz	r4, 87800f3a <strsep+0x2e>
87800f18:	780e      	ldrb	r6, [r1, #0]
87800f1a:	4605      	mov	r5, r0
87800f1c:	b14e      	cbz	r6, 87800f32 <strsep+0x26>
87800f1e:	42a6      	cmp	r6, r4
87800f20:	d00e      	beq.n	87800f40 <strsep+0x34>
87800f22:	460a      	mov	r2, r1
87800f24:	e001      	b.n	87800f2a <strsep+0x1e>
87800f26:	42a3      	cmp	r3, r4
87800f28:	d00a      	beq.n	87800f40 <strsep+0x34>
87800f2a:	f812 3f01 	ldrb.w	r3, [r2, #1]!
87800f2e:	2b00      	cmp	r3, #0
87800f30:	d1f9      	bne.n	87800f26 <strsep+0x1a>
87800f32:	f815 4f01 	ldrb.w	r4, [r5, #1]!
87800f36:	2c00      	cmp	r4, #0
87800f38:	d1f0      	bne.n	87800f1c <strsep+0x10>
87800f3a:	603c      	str	r4, [r7, #0]
87800f3c:	bcf0      	pop	{r4, r5, r6, r7}
87800f3e:	4770      	bx	lr
87800f40:	2300      	movs	r3, #0
87800f42:	1c6c      	adds	r4, r5, #1
87800f44:	702b      	strb	r3, [r5, #0]
87800f46:	e7f8      	b.n	87800f3a <strsep+0x2e>

87800f48 <memset>:
87800f48:	b132      	cbz	r2, 87800f58 <memset+0x10>
87800f4a:	b2c9      	uxtb	r1, r1
87800f4c:	4402      	add	r2, r0
87800f4e:	4603      	mov	r3, r0
87800f50:	f803 1b01 	strb.w	r1, [r3], #1
87800f54:	4293      	cmp	r3, r2
87800f56:	d1fb      	bne.n	87800f50 <memset+0x8>
87800f58:	4770      	bx	lr
87800f5a:	bf00      	nop

87800f5c <bcopy>:
87800f5c:	b13a      	cbz	r2, 87800f6e <bcopy+0x12>
87800f5e:	3901      	subs	r1, #1
87800f60:	4402      	add	r2, r0
87800f62:	f810 3b01 	ldrb.w	r3, [r0], #1
87800f66:	4290      	cmp	r0, r2
87800f68:	f801 3f01 	strb.w	r3, [r1, #1]!
87800f6c:	d1f9      	bne.n	87800f62 <bcopy+0x6>
87800f6e:	4770      	bx	lr

87800f70 <memcpy>:
87800f70:	b15a      	cbz	r2, 87800f8a <memcpy+0x1a>
87800f72:	440a      	add	r2, r1
87800f74:	1e43      	subs	r3, r0, #1
87800f76:	b410      	push	{r4}
87800f78:	f811 4b01 	ldrb.w	r4, [r1], #1
87800f7c:	4291      	cmp	r1, r2
87800f7e:	f803 4f01 	strb.w	r4, [r3, #1]!
87800f82:	d1f9      	bne.n	87800f78 <memcpy+0x8>
87800f84:	f85d 4b04 	ldr.w	r4, [sp], #4
87800f88:	4770      	bx	lr
87800f8a:	4770      	bx	lr

87800f8c <memmove>:
87800f8c:	4288      	cmp	r0, r1
87800f8e:	b410      	push	{r4}
87800f90:	d80b      	bhi.n	87800faa <memmove+0x1e>
87800f92:	b13a      	cbz	r2, 87800fa4 <memmove+0x18>
87800f94:	440a      	add	r2, r1
87800f96:	1e43      	subs	r3, r0, #1
87800f98:	f811 4b01 	ldrb.w	r4, [r1], #1
87800f9c:	428a      	cmp	r2, r1
87800f9e:	f803 4f01 	strb.w	r4, [r3, #1]!
87800fa2:	d1f9      	bne.n	87800f98 <memmove+0xc>
87800fa4:	f85d 4b04 	ldr.w	r4, [sp], #4
87800fa8:	4770      	bx	lr
87800faa:	1884      	adds	r4, r0, r2
87800fac:	188b      	adds	r3, r1, r2
87800fae:	2a00      	cmp	r2, #0
87800fb0:	d0f8      	beq.n	87800fa4 <memmove+0x18>
87800fb2:	4622      	mov	r2, r4
87800fb4:	f813 4d01 	ldrb.w	r4, [r3, #-1]!
87800fb8:	4299      	cmp	r1, r3
87800fba:	f802 4d01 	strb.w	r4, [r2, #-1]!
87800fbe:	d1f9      	bne.n	87800fb4 <memmove+0x28>
87800fc0:	f85d 4b04 	ldr.w	r4, [sp], #4
87800fc4:	4770      	bx	lr
87800fc6:	bf00      	nop

87800fc8 <memcmp>:
87800fc8:	b1aa      	cbz	r2, 87800ff6 <memcmp+0x2e>
87800fca:	b430      	push	{r4, r5}
87800fcc:	4604      	mov	r4, r0
87800fce:	780b      	ldrb	r3, [r1, #0]
87800fd0:	7800      	ldrb	r0, [r0, #0]
87800fd2:	1ac0      	subs	r0, r0, r3
87800fd4:	d10a      	bne.n	87800fec <memcmp+0x24>
87800fd6:	3a01      	subs	r2, #1
87800fd8:	188d      	adds	r5, r1, r2
87800fda:	e005      	b.n	87800fe8 <memcmp+0x20>
87800fdc:	f814 3f01 	ldrb.w	r3, [r4, #1]!
87800fe0:	f811 2f01 	ldrb.w	r2, [r1, #1]!
87800fe4:	1a9b      	subs	r3, r3, r2
87800fe6:	d103      	bne.n	87800ff0 <memcmp+0x28>
87800fe8:	42a9      	cmp	r1, r5
87800fea:	d1f7      	bne.n	87800fdc <memcmp+0x14>
87800fec:	bc30      	pop	{r4, r5}
87800fee:	4770      	bx	lr
87800ff0:	4618      	mov	r0, r3
87800ff2:	bc30      	pop	{r4, r5}
87800ff4:	4770      	bx	lr
87800ff6:	4610      	mov	r0, r2
87800ff8:	4770      	bx	lr
87800ffa:	bf00      	nop

87800ffc <memscan>:
87800ffc:	b1c2      	cbz	r2, 87801030 <memscan+0x34>
87800ffe:	7803      	ldrb	r3, [r0, #0]
87801000:	4299      	cmp	r1, r3
87801002:	d015      	beq.n	87801030 <memscan+0x34>
87801004:	1c43      	adds	r3, r0, #1
87801006:	4402      	add	r2, r0
87801008:	4293      	cmp	r3, r2
8780100a:	4618      	mov	r0, r3
8780100c:	f103 0301 	add.w	r3, r3, #1
87801010:	d00f      	beq.n	87801032 <memscan+0x36>
87801012:	b410      	push	{r4}
87801014:	7804      	ldrb	r4, [r0, #0]
87801016:	428c      	cmp	r4, r1
87801018:	d007      	beq.n	8780102a <memscan+0x2e>
8780101a:	4293      	cmp	r3, r2
8780101c:	4618      	mov	r0, r3
8780101e:	f103 0301 	add.w	r3, r3, #1
87801022:	d002      	beq.n	8780102a <memscan+0x2e>
87801024:	7804      	ldrb	r4, [r0, #0]
87801026:	428c      	cmp	r4, r1
87801028:	d1f7      	bne.n	8780101a <memscan+0x1e>
8780102a:	f85d 4b04 	ldr.w	r4, [sp], #4
8780102e:	4770      	bx	lr
87801030:	4770      	bx	lr
87801032:	4770      	bx	lr

87801034 <strstr>:
87801034:	e92d 43f0 	stmdb	sp!, {r4, r5, r6, r7, r8, r9, lr}
87801038:	f891 8000 	ldrb.w	r8, [r1]
8780103c:	f1b8 0f00 	cmp.w	r8, #0
87801040:	d027      	beq.n	87801092 <strstr+0x5e>
87801042:	460b      	mov	r3, r1
87801044:	f813 2f01 	ldrb.w	r2, [r3, #1]!
87801048:	2a00      	cmp	r2, #0
8780104a:	d1fb      	bne.n	87801044 <strstr+0x10>
8780104c:	ebb3 0e01 	subs.w	lr, r3, r1
87801050:	d01f      	beq.n	87801092 <strstr+0x5e>
87801052:	7802      	ldrb	r2, [r0, #0]
87801054:	4694      	mov	ip, r2
87801056:	b132      	cbz	r2, 87801066 <strstr+0x32>
87801058:	4684      	mov	ip, r0
8780105a:	f81c 3f01 	ldrb.w	r3, [ip, #1]!
8780105e:	2b00      	cmp	r3, #0
87801060:	d1fb      	bne.n	8780105a <strstr+0x26>
87801062:	ebac 0c00 	sub.w	ip, ip, r0
87801066:	45e6      	cmp	lr, ip
87801068:	dc1a      	bgt.n	878010a0 <strstr+0x6c>
8780106a:	4607      	mov	r7, r0
8780106c:	f10e 39ff 	add.w	r9, lr, #4294967295	; 0xffffffff
87801070:	f10c 3cff 	add.w	ip, ip, #4294967295	; 0xffffffff
87801074:	4638      	mov	r0, r7
87801076:	460d      	mov	r5, r1
87801078:	eb09 0607 	add.w	r6, r9, r7
8780107c:	463b      	mov	r3, r7
8780107e:	4644      	mov	r4, r8
87801080:	e003      	b.n	8780108a <strstr+0x56>
87801082:	f813 2f01 	ldrb.w	r2, [r3, #1]!
87801086:	f815 4f01 	ldrb.w	r4, [r5, #1]!
8780108a:	42a2      	cmp	r2, r4
8780108c:	d103      	bne.n	87801096 <strstr+0x62>
8780108e:	429e      	cmp	r6, r3
87801090:	d1f7      	bne.n	87801082 <strstr+0x4e>
87801092:	e8bd 83f0 	ldmia.w	sp!, {r4, r5, r6, r7, r8, r9, pc}
87801096:	45f4      	cmp	ip, lr
87801098:	db02      	blt.n	878010a0 <strstr+0x6c>
8780109a:	f817 2f01 	ldrb.w	r2, [r7, #1]!
8780109e:	e7e7      	b.n	87801070 <strstr+0x3c>
878010a0:	2000      	movs	r0, #0
878010a2:	e8bd 83f0 	ldmia.w	sp!, {r4, r5, r6, r7, r8, r9, pc}
878010a6:	bf00      	nop

878010a8 <memchr>:
878010a8:	4402      	add	r2, r0
878010aa:	b2c9      	uxtb	r1, r1
878010ac:	4290      	cmp	r0, r2
878010ae:	4603      	mov	r3, r0
878010b0:	d012      	beq.n	878010d8 <memchr+0x30>
878010b2:	b410      	push	{r4}
878010b4:	f813 4b01 	ldrb.w	r4, [r3], #1
878010b8:	428c      	cmp	r4, r1
878010ba:	d006      	beq.n	878010ca <memchr+0x22>
878010bc:	4293      	cmp	r3, r2
878010be:	4618      	mov	r0, r3
878010c0:	d006      	beq.n	878010d0 <memchr+0x28>
878010c2:	f813 4b01 	ldrb.w	r4, [r3], #1
878010c6:	428c      	cmp	r4, r1
878010c8:	d1f8      	bne.n	878010bc <memchr+0x14>
878010ca:	f85d 4b04 	ldr.w	r4, [sp], #4
878010ce:	4770      	bx	lr
878010d0:	2000      	movs	r0, #0
878010d2:	f85d 4b04 	ldr.w	r4, [sp], #4
878010d6:	4770      	bx	lr
878010d8:	2000      	movs	r0, #0
878010da:	4770      	bx	lr

878010dc <number>:
878010dc:	e92d 4ff0 	stmdb	sp!, {r4, r5, r6, r7, r8, r9, sl, fp, lr}
878010e0:	b0a5      	sub	sp, #148	; 0x94
878010e2:	460d      	mov	r5, r1
878010e4:	992e      	ldr	r1, [sp, #184]	; 0xb8
878010e6:	4604      	mov	r4, r0
878010e8:	f8dd 90c4 	ldr.w	r9, [sp, #196]	; 0xc4
878010ec:	390a      	subs	r1, #10
878010ee:	bf18      	it	ne
878010f0:	2101      	movne	r1, #1
878010f2:	f009 0020 	and.w	r0, r9, #32
878010f6:	ea01 1159 	and.w	r1, r1, r9, lsr #5
878010fa:	9003      	str	r0, [sp, #12]
878010fc:	9100      	str	r1, [sp, #0]
878010fe:	f019 0110 	ands.w	r1, r9, #16
87801102:	bf18      	it	ne
87801104:	f029 0901 	bicne.w	r9, r9, #1
87801108:	9101      	str	r1, [sp, #4]
8780110a:	f019 0102 	ands.w	r1, r9, #2
8780110e:	d011      	beq.n	87801134 <number+0x58>
87801110:	2a00      	cmp	r2, #0
87801112:	f173 0100 	sbcs.w	r1, r3, #0
87801116:	f2c0 816e 	blt.w	878013f6 <number+0x31a>
8780111a:	f019 0f04 	tst.w	r9, #4
8780111e:	f040 8188 	bne.w	87801432 <number+0x356>
87801122:	f019 0108 	ands.w	r1, r9, #8
87801126:	d005      	beq.n	87801134 <number+0x58>
87801128:	992f      	ldr	r1, [sp, #188]	; 0xbc
8780112a:	3901      	subs	r1, #1
8780112c:	912f      	str	r1, [sp, #188]	; 0xbc
8780112e:	2120      	movs	r1, #32
87801130:	9102      	str	r1, [sp, #8]
87801132:	e000      	b.n	87801136 <number+0x5a>
87801134:	9102      	str	r1, [sp, #8]
87801136:	9900      	ldr	r1, [sp, #0]
87801138:	2900      	cmp	r1, #0
8780113a:	d048      	beq.n	878011ce <number+0xf2>
8780113c:	992e      	ldr	r1, [sp, #184]	; 0xb8
8780113e:	2910      	cmp	r1, #16
87801140:	992f      	ldr	r1, [sp, #188]	; 0xbc
87801142:	f000 8161 	beq.w	87801408 <number+0x32c>
87801146:	3901      	subs	r1, #1
87801148:	912f      	str	r1, [sp, #188]	; 0xbc
8780114a:	ea52 0103 	orrs.w	r1, r2, r3
8780114e:	d042      	beq.n	878011d6 <number+0xfa>
87801150:	992e      	ldr	r1, [sp, #184]	; 0xb8
87801152:	2910      	cmp	r1, #16
87801154:	f101 3aff 	add.w	sl, r1, #4294967295	; 0xffffffff
87801158:	bf0a      	itet	eq
8780115a:	2004      	moveq	r0, #4
8780115c:	2003      	movne	r0, #3
8780115e:	f04f 0a0f 	moveq.w	sl, #15
87801162:	f642 68a4 	movw	r8, #11940	; 0x2ea4
87801166:	f1c0 0120 	rsb	r1, r0, #32
8780116a:	9506      	str	r5, [sp, #24]
8780116c:	f10d 0c2c 	add.w	ip, sp, #44	; 0x2c
87801170:	f8cd 90c4 	str.w	r9, [sp, #196]	; 0xc4
87801174:	f2c8 7880 	movt	r8, #34688	; 0x8780
87801178:	2600      	movs	r6, #0
8780117a:	9404      	str	r4, [sp, #16]
8780117c:	f8dd 900c 	ldr.w	r9, [sp, #12]
87801180:	460d      	mov	r5, r1
87801182:	e000      	b.n	87801186 <number+0xaa>
87801184:	463e      	mov	r6, r7
87801186:	fa03 f705 	lsl.w	r7, r3, r5
8780118a:	f1b0 0e20 	subs.w	lr, r0, #32
8780118e:	b2d4      	uxtb	r4, r2
87801190:	fa22 f100 	lsr.w	r1, r2, r0
87801194:	fa43 fe0e 	asr.w	lr, r3, lr
87801198:	fa43 fb00 	asr.w	fp, r3, r0
8780119c:	ea41 0107 	orr.w	r1, r1, r7
878011a0:	ea04 040a 	and.w	r4, r4, sl
878011a4:	bf58      	it	pl
878011a6:	ea41 010e 	orrpl.w	r1, r1, lr
878011aa:	f818 4004 	ldrb.w	r4, [r8, r4]
878011ae:	460a      	mov	r2, r1
878011b0:	465b      	mov	r3, fp
878011b2:	ea52 0103 	orrs.w	r1, r2, r3
878011b6:	f106 0701 	add.w	r7, r6, #1
878011ba:	ea49 0404 	orr.w	r4, r9, r4
878011be:	f80c 4b01 	strb.w	r4, [ip], #1
878011c2:	d1df      	bne.n	87801184 <number+0xa8>
878011c4:	9c04      	ldr	r4, [sp, #16]
878011c6:	9d06      	ldr	r5, [sp, #24]
878011c8:	f8dd 90c4 	ldr.w	r9, [sp, #196]	; 0xc4
878011cc:	e008      	b.n	878011e0 <number+0x104>
878011ce:	ea52 0103 	orrs.w	r1, r2, r3
878011d2:	f040 8081 	bne.w	878012d8 <number+0x1fc>
878011d6:	2600      	movs	r6, #0
878011d8:	2701      	movs	r7, #1
878011da:	2330      	movs	r3, #48	; 0x30
878011dc:	f88d 302c 	strb.w	r3, [sp, #44]	; 0x2c
878011e0:	9b30      	ldr	r3, [sp, #192]	; 0xc0
878011e2:	42bb      	cmp	r3, r7
878011e4:	bfb8      	it	lt
878011e6:	463b      	movlt	r3, r7
878011e8:	f019 0f11 	tst.w	r9, #17
878011ec:	461a      	mov	r2, r3
878011ee:	9b2f      	ldr	r3, [sp, #188]	; 0xbc
878011f0:	eba3 0302 	sub.w	r3, r3, r2
878011f4:	f103 31ff 	add.w	r1, r3, #4294967295	; 0xffffffff
878011f8:	d10f      	bne.n	8780121a <number+0x13e>
878011fa:	2900      	cmp	r1, #0
878011fc:	bfb8      	it	lt
878011fe:	1e99      	sublt	r1, r3, #2
87801200:	db0b      	blt.n	8780121a <number+0x13e>
87801202:	4423      	add	r3, r4
87801204:	2120      	movs	r1, #32
87801206:	42a5      	cmp	r5, r4
87801208:	f104 0401 	add.w	r4, r4, #1
8780120c:	bf88      	it	hi
8780120e:	f804 1c01 	strbhi.w	r1, [r4, #-1]
87801212:	429c      	cmp	r4, r3
87801214:	d1f7      	bne.n	87801206 <number+0x12a>
87801216:	f06f 0101 	mvn.w	r1, #1
8780121a:	9b02      	ldr	r3, [sp, #8]
8780121c:	b12b      	cbz	r3, 8780122a <number+0x14e>
8780121e:	42ac      	cmp	r4, r5
87801220:	f104 0401 	add.w	r4, r4, #1
87801224:	bf38      	it	cc
87801226:	f804 3c01 	strbcc.w	r3, [r4, #-1]
8780122a:	9b00      	ldr	r3, [sp, #0]
8780122c:	b153      	cbz	r3, 87801244 <number+0x168>
8780122e:	982e      	ldr	r0, [sp, #184]	; 0xb8
87801230:	42ac      	cmp	r4, r5
87801232:	bf3c      	itt	cc
87801234:	2330      	movcc	r3, #48	; 0x30
87801236:	7023      	strbcc	r3, [r4, #0]
87801238:	1c63      	adds	r3, r4, #1
8780123a:	2810      	cmp	r0, #16
8780123c:	bf18      	it	ne
8780123e:	461c      	movne	r4, r3
87801240:	f000 80ed 	beq.w	8780141e <number+0x342>
87801244:	9b01      	ldr	r3, [sp, #4]
87801246:	b9ab      	cbnz	r3, 87801274 <number+0x198>
87801248:	f019 0f01 	tst.w	r9, #1
8780124c:	bf0c      	ite	eq
8780124e:	2320      	moveq	r3, #32
87801250:	2330      	movne	r3, #48	; 0x30
87801252:	2900      	cmp	r1, #0
87801254:	bfb8      	it	lt
87801256:	f101 31ff 	addlt.w	r1, r1, #4294967295	; 0xffffffff
8780125a:	db0b      	blt.n	87801274 <number+0x198>
8780125c:	3101      	adds	r1, #1
8780125e:	4421      	add	r1, r4
87801260:	42a5      	cmp	r5, r4
87801262:	f104 0401 	add.w	r4, r4, #1
87801266:	bf88      	it	hi
87801268:	f804 3c01 	strbhi.w	r3, [r4, #-1]
8780126c:	428c      	cmp	r4, r1
8780126e:	d1f7      	bne.n	87801260 <number+0x184>
87801270:	f06f 0101 	mvn.w	r1, #1
87801274:	4297      	cmp	r7, r2
87801276:	bfbe      	ittt	lt
87801278:	1bd7      	sublt	r7, r2, r7
8780127a:	2330      	movlt	r3, #48	; 0x30
8780127c:	193f      	addlt	r7, r7, r4
8780127e:	da07      	bge.n	87801290 <number+0x1b4>
87801280:	42a5      	cmp	r5, r4
87801282:	f104 0401 	add.w	r4, r4, #1
87801286:	bf88      	it	hi
87801288:	f804 3c01 	strbhi.w	r3, [r4, #-1]
8780128c:	42bc      	cmp	r4, r7
8780128e:	d1f7      	bne.n	87801280 <number+0x1a4>
87801290:	2e00      	cmp	r6, #0
87801292:	f2c0 80d4 	blt.w	8780143e <number+0x362>
87801296:	4632      	mov	r2, r6
87801298:	4623      	mov	r3, r4
8780129a:	af0b      	add	r7, sp, #44	; 0x2c
8780129c:	429d      	cmp	r5, r3
8780129e:	f103 0301 	add.w	r3, r3, #1
878012a2:	bf88      	it	hi
878012a4:	5dd0      	ldrbhi	r0, [r2, r7]
878012a6:	f102 32ff 	add.w	r2, r2, #4294967295	; 0xffffffff
878012aa:	bf88      	it	hi
878012ac:	f803 0c01 	strbhi.w	r0, [r3, #-1]
878012b0:	1c50      	adds	r0, r2, #1
878012b2:	d1f3      	bne.n	8780129c <number+0x1c0>
878012b4:	1c70      	adds	r0, r6, #1
878012b6:	4420      	add	r0, r4
878012b8:	2900      	cmp	r1, #0
878012ba:	db0a      	blt.n	878012d2 <number+0x1f6>
878012bc:	1c4b      	adds	r3, r1, #1
878012be:	2220      	movs	r2, #32
878012c0:	4403      	add	r3, r0
878012c2:	4285      	cmp	r5, r0
878012c4:	f100 0001 	add.w	r0, r0, #1
878012c8:	bf88      	it	hi
878012ca:	f800 2c01 	strbhi.w	r2, [r0, #-1]
878012ce:	4298      	cmp	r0, r3
878012d0:	d1f7      	bne.n	878012c2 <number+0x1e6>
878012d2:	b025      	add	sp, #148	; 0x94
878012d4:	e8bd 8ff0 	ldmia.w	sp!, {r4, r5, r6, r7, r8, r9, sl, fp, pc}
878012d8:	992e      	ldr	r1, [sp, #184]	; 0xb8
878012da:	290a      	cmp	r1, #10
878012dc:	f47f af38 	bne.w	87801150 <number+0x74>
878012e0:	4692      	mov	sl, r2
878012e2:	469b      	mov	fp, r3
878012e4:	f248 629f 	movw	r2, #34463	; 0x869f
878012e8:	2300      	movs	r3, #0
878012ea:	f2c0 0201 	movt	r2, #1
878012ee:	455b      	cmp	r3, fp
878012f0:	bf08      	it	eq
878012f2:	4552      	cmpeq	r2, sl
878012f4:	e9cd ab08 	strd	sl, fp, [sp, #32]
878012f8:	f080 8109 	bcs.w	8780150e <number+0x432>
878012fc:	f248 61a0 	movw	r1, #34464	; 0x86a0
87801300:	f645 20c5 	movw	r0, #23237	; 0x5ac5
87801304:	f2c0 0101 	movt	r1, #1
87801308:	f6c0 207c 	movt	r0, #2684	; 0xa7c
8780130c:	e9cd 4506 	strd	r4, r5, [sp, #24]
87801310:	460f      	mov	r7, r1
87801312:	e9cd 2304 	strd	r2, r3, [sp, #16]
87801316:	f10d 0631 	add.w	r6, sp, #49	; 0x31
8780131a:	4604      	mov	r4, r0
8780131c:	e05c      	b.n	878013d8 <number+0x2fc>
8780131e:	09d8      	lsrs	r0, r3, #7
87801320:	f04f 0b00 	mov.w	fp, #0
87801324:	4603      	mov	r3, r0
87801326:	fb07 a010 	mls	r0, r7, r0, sl
8780132a:	469a      	mov	sl, r3
8780132c:	e9cd ab08 	strd	sl, fp, [sp, #32]
87801330:	f3c0 2303 	ubfx	r3, r0, #8, #4
87801334:	f3c0 1203 	ubfx	r2, r0, #4, #4
87801338:	0b01      	lsrs	r1, r0, #12
8780133a:	eb02 0c03 	add.w	ip, r2, r3
8780133e:	f000 080f 	and.w	r8, r0, #15
87801342:	eb03 0e83 	add.w	lr, r3, r3, lsl #2
87801346:	448c      	add	ip, r1
87801348:	eb01 00c1 	add.w	r0, r1, r1, lsl #3
8780134c:	eb0c 0c4c 	add.w	ip, ip, ip, lsl #1
87801350:	4635      	mov	r5, r6
87801352:	4402      	add	r2, r0
87801354:	eb08 004c 	add.w	r0, r8, ip, lsl #1
87801358:	f04f 0ccd 	mov.w	ip, #205	; 0xcd
8780135c:	4472      	add	r2, lr
8780135e:	fb0c f800 	mul.w	r8, ip, r0
87801362:	3605      	adds	r6, #5
87801364:	ea4f 28d8 	mov.w	r8, r8, lsr #11
87801368:	4442      	add	r2, r8
8780136a:	eb08 0888 	add.w	r8, r8, r8, lsl #2
8780136e:	fb0c fe02 	mul.w	lr, ip, r2
87801372:	eba0 0048 	sub.w	r0, r0, r8, lsl #1
87801376:	3030      	adds	r0, #48	; 0x30
87801378:	ea4f 2ede 	mov.w	lr, lr, lsr #11
8780137c:	f806 0c0a 	strb.w	r0, [r6, #-10]
87801380:	eb0e 0343 	add.w	r3, lr, r3, lsl #1
87801384:	eb0e 0e8e 	add.w	lr, lr, lr, lsl #2
87801388:	eb03 0043 	add.w	r0, r3, r3, lsl #1
8780138c:	eba2 024e 	sub.w	r2, r2, lr, lsl #1
87801390:	eb03 0080 	add.w	r0, r3, r0, lsl #2
87801394:	3230      	adds	r2, #48	; 0x30
87801396:	f806 2c09 	strb.w	r2, [r6, #-9]
8780139a:	09c2      	lsrs	r2, r0, #7
8780139c:	eb02 0181 	add.w	r1, r2, r1, lsl #2
878013a0:	eb02 0282 	add.w	r2, r2, r2, lsl #2
878013a4:	fb0c fc01 	mul.w	ip, ip, r1
878013a8:	eba3 0342 	sub.w	r3, r3, r2, lsl #1
878013ac:	3330      	adds	r3, #48	; 0x30
878013ae:	f806 3c08 	strb.w	r3, [r6, #-8]
878013b2:	ea4f 2cdc 	mov.w	ip, ip, lsr #11
878013b6:	eb0c 038c 	add.w	r3, ip, ip, lsl #2
878013ba:	f10c 0c30 	add.w	ip, ip, #48	; 0x30
878013be:	f806 cc06 	strb.w	ip, [r6, #-6]
878013c2:	eba1 0143 	sub.w	r1, r1, r3, lsl #1
878013c6:	e9dd 2304 	ldrd	r2, r3, [sp, #16]
878013ca:	3130      	adds	r1, #48	; 0x30
878013cc:	455b      	cmp	r3, fp
878013ce:	f806 1c07 	strb.w	r1, [r6, #-7]
878013d2:	bf08      	it	eq
878013d4:	4552      	cmpeq	r2, sl
878013d6:	d234      	bcs.n	87801442 <number+0x366>
878013d8:	4658      	mov	r0, fp
878013da:	2100      	movs	r1, #0
878013dc:	ea4f 125a 	mov.w	r2, sl, lsr #5
878013e0:	4301      	orrs	r1, r0
878013e2:	fba2 2304 	umull	r2, r3, r2, r4
878013e6:	d09a      	beq.n	8780131e <number+0x242>
878013e8:	4639      	mov	r1, r7
878013ea:	a808      	add	r0, sp, #32
878013ec:	f001 fa3c 	bl	87802868 <__div64_32>
878013f0:	e9dd ab08 	ldrd	sl, fp, [sp, #32]
878013f4:	e79c      	b.n	87801330 <number+0x254>
878013f6:	992f      	ldr	r1, [sp, #188]	; 0xbc
878013f8:	4252      	negs	r2, r2
878013fa:	eb63 0343 	sbc.w	r3, r3, r3, lsl #1
878013fe:	3901      	subs	r1, #1
87801400:	912f      	str	r1, [sp, #188]	; 0xbc
87801402:	212d      	movs	r1, #45	; 0x2d
87801404:	9102      	str	r1, [sp, #8]
87801406:	e696      	b.n	87801136 <number+0x5a>
87801408:	3902      	subs	r1, #2
8780140a:	912f      	str	r1, [sp, #188]	; 0xbc
8780140c:	ea52 0103 	orrs.w	r1, r2, r3
87801410:	bf1c      	itt	ne
87801412:	f04f 0a0f 	movne.w	sl, #15
87801416:	2004      	movne	r0, #4
87801418:	f47f aea3 	bne.w	87801162 <number+0x86>
8780141c:	e6db      	b.n	878011d6 <number+0xfa>
8780141e:	429d      	cmp	r5, r3
87801420:	f104 0402 	add.w	r4, r4, #2
87801424:	bf82      	ittt	hi
87801426:	9b03      	ldrhi	r3, [sp, #12]
87801428:	f043 0358 	orrhi.w	r3, r3, #88	; 0x58
8780142c:	f804 3c01 	strbhi.w	r3, [r4, #-1]
87801430:	e708      	b.n	87801244 <number+0x168>
87801432:	992f      	ldr	r1, [sp, #188]	; 0xbc
87801434:	3901      	subs	r1, #1
87801436:	912f      	str	r1, [sp, #188]	; 0xbc
87801438:	212b      	movs	r1, #43	; 0x2b
8780143a:	9102      	str	r1, [sp, #8]
8780143c:	e67b      	b.n	87801136 <number+0x5a>
8780143e:	4620      	mov	r0, r4
87801440:	e73a      	b.n	878012b8 <number+0x1dc>
87801442:	46a8      	mov	r8, r5
87801444:	e9dd 4506 	ldrd	r4, r5, [sp, #24]
87801448:	f10d 0e2c 	add.w	lr, sp, #44	; 0x2c
8780144c:	f3ca 1003 	ubfx	r0, sl, #4, #4
87801450:	ea4f 371a 	mov.w	r7, sl, lsr #12
87801454:	f3ca 2103 	ubfx	r1, sl, #8, #4
87801458:	1843      	adds	r3, r0, r1
8780145a:	eb07 02c7 	add.w	r2, r7, r7, lsl #3
8780145e:	443b      	add	r3, r7
87801460:	eb01 0681 	add.w	r6, r1, r1, lsl #2
87801464:	eb03 0343 	add.w	r3, r3, r3, lsl #1
87801468:	f00a 0a0f 	and.w	sl, sl, #15
8780146c:	4402      	add	r2, r0
8780146e:	eb0a 0343 	add.w	r3, sl, r3, lsl #1
87801472:	f04f 0ccd 	mov.w	ip, #205	; 0xcd
87801476:	1990      	adds	r0, r2, r6
87801478:	fb0c f203 	mul.w	r2, ip, r3
8780147c:	0ad2      	lsrs	r2, r2, #11
8780147e:	eb02 0682 	add.w	r6, r2, r2, lsl #2
87801482:	1812      	adds	r2, r2, r0
87801484:	bf08      	it	eq
87801486:	f108 0701 	addeq.w	r7, r8, #1
8780148a:	eba3 0346 	sub.w	r3, r3, r6, lsl #1
8780148e:	f103 0330 	add.w	r3, r3, #48	; 0x30
87801492:	f888 3000 	strb.w	r3, [r8]
87801496:	d036      	beq.n	87801506 <number+0x42a>
87801498:	fb0c f302 	mul.w	r3, ip, r2
8780149c:	0adb      	lsrs	r3, r3, #11
8780149e:	eb03 0083 	add.w	r0, r3, r3, lsl #2
878014a2:	eb03 0341 	add.w	r3, r3, r1, lsl #1
878014a6:	eba2 0240 	sub.w	r2, r2, r0, lsl #1
878014aa:	3230      	adds	r2, #48	; 0x30
878014ac:	f888 2001 	strb.w	r2, [r8, #1]
878014b0:	ea57 0203 	orrs.w	r2, r7, r3
878014b4:	bf08      	it	eq
878014b6:	f108 0702 	addeq.w	r7, r8, #2
878014ba:	d024      	beq.n	87801506 <number+0x42a>
878014bc:	eb03 0243 	add.w	r2, r3, r3, lsl #1
878014c0:	eb03 0282 	add.w	r2, r3, r2, lsl #2
878014c4:	09d2      	lsrs	r2, r2, #7
878014c6:	eb02 0182 	add.w	r1, r2, r2, lsl #2
878014ca:	eb12 0287 	adds.w	r2, r2, r7, lsl #2
878014ce:	eba3 0341 	sub.w	r3, r3, r1, lsl #1
878014d2:	bf08      	it	eq
878014d4:	f108 0703 	addeq.w	r7, r8, #3
878014d8:	f103 0330 	add.w	r3, r3, #48	; 0x30
878014dc:	f888 3002 	strb.w	r3, [r8, #2]
878014e0:	d011      	beq.n	87801506 <number+0x42a>
878014e2:	fb0c f302 	mul.w	r3, ip, r2
878014e6:	f108 0704 	add.w	r7, r8, #4
878014ea:	0adb      	lsrs	r3, r3, #11
878014ec:	eb03 0183 	add.w	r1, r3, r3, lsl #2
878014f0:	eba2 0241 	sub.w	r2, r2, r1, lsl #1
878014f4:	3230      	adds	r2, #48	; 0x30
878014f6:	f888 2003 	strb.w	r2, [r8, #3]
878014fa:	b123      	cbz	r3, 87801506 <number+0x42a>
878014fc:	f108 0705 	add.w	r7, r8, #5
87801500:	3330      	adds	r3, #48	; 0x30
87801502:	f888 3004 	strb.w	r3, [r8, #4]
87801506:	eba7 070e 	sub.w	r7, r7, lr
8780150a:	1e7e      	subs	r6, r7, #1
8780150c:	e668      	b.n	878011e0 <number+0x104>
8780150e:	f10d 0e2c 	add.w	lr, sp, #44	; 0x2c
87801512:	46f0      	mov	r8, lr
87801514:	e79a      	b.n	8780144c <number+0x370>
87801516:	bf00      	nop

87801518 <simple_strtoul>:
87801518:	b4f0      	push	{r4, r5, r6, r7}
8780151a:	4607      	mov	r7, r0
8780151c:	7804      	ldrb	r4, [r0, #0]
8780151e:	bb52      	cbnz	r2, 87801576 <simple_strtoul+0x5e>
87801520:	2c30      	cmp	r4, #48	; 0x30
87801522:	d04f      	beq.n	878015c4 <simple_strtoul+0xac>
87801524:	f642 6cdc 	movw	ip, #11996	; 0x2edc
87801528:	4623      	mov	r3, r4
8780152a:	f2c8 7c80 	movt	ip, #34688	; 0x8780
8780152e:	220a      	movs	r2, #10
87801530:	f81c 5004 	ldrb.w	r5, [ip, r4]
87801534:	f005 0044 	and.w	r0, r5, #68	; 0x44
87801538:	b1c8      	cbz	r0, 8780156e <simple_strtoul+0x56>
8780153a:	2000      	movs	r0, #0
8780153c:	e009      	b.n	87801552 <simple_strtoul+0x3a>
8780153e:	f817 4f01 	ldrb.w	r4, [r7, #1]!
87801542:	fb02 3000 	mla	r0, r2, r0, r3
87801546:	f81c 5004 	ldrb.w	r5, [ip, r4]
8780154a:	4623      	mov	r3, r4
8780154c:	f015 0f44 	tst.w	r5, #68	; 0x44
87801550:	d00d      	beq.n	8780156e <simple_strtoul+0x56>
87801552:	f015 0f04 	tst.w	r5, #4
87801556:	f1a3 0330 	sub.w	r3, r3, #48	; 0x30
8780155a:	d106      	bne.n	8780156a <simple_strtoul+0x52>
8780155c:	f1a4 0320 	sub.w	r3, r4, #32
87801560:	07ad      	lsls	r5, r5, #30
87801562:	bf48      	it	mi
87801564:	b2dc      	uxtbmi	r4, r3
87801566:	f1a4 0337 	sub.w	r3, r4, #55	; 0x37
8780156a:	4293      	cmp	r3, r2
8780156c:	d3e7      	bcc.n	8780153e <simple_strtoul+0x26>
8780156e:	b101      	cbz	r1, 87801572 <simple_strtoul+0x5a>
87801570:	600f      	str	r7, [r1, #0]
87801572:	bcf0      	pop	{r4, r5, r6, r7}
87801574:	4770      	bx	lr
87801576:	2a10      	cmp	r2, #16
87801578:	d009      	beq.n	8780158e <simple_strtoul+0x76>
8780157a:	f642 6cdc 	movw	ip, #11996	; 0x2edc
8780157e:	4623      	mov	r3, r4
87801580:	f2c8 7c80 	movt	ip, #34688	; 0x8780
87801584:	f81c 5004 	ldrb.w	r5, [ip, r4]
87801588:	f005 0044 	and.w	r0, r5, #68	; 0x44
8780158c:	e7d4      	b.n	87801538 <simple_strtoul+0x20>
8780158e:	2c30      	cmp	r4, #48	; 0x30
87801590:	d1f3      	bne.n	8780157a <simple_strtoul+0x62>
87801592:	7843      	ldrb	r3, [r0, #1]
87801594:	f642 6cdc 	movw	ip, #11996	; 0x2edc
87801598:	f2c8 7c80 	movt	ip, #34688	; 0x8780
8780159c:	f81c 0003 	ldrb.w	r0, [ip, r3]
878015a0:	0786      	lsls	r6, r0, #30
878015a2:	bf44      	itt	mi
878015a4:	3b20      	submi	r3, #32
878015a6:	b2db      	uxtbmi	r3, r3
878015a8:	2b58      	cmp	r3, #88	; 0x58
878015aa:	bf0d      	iteet	eq
878015ac:	78bc      	ldrbeq	r4, [r7, #2]
878015ae:	2330      	movne	r3, #48	; 0x30
878015b0:	f89c 5030 	ldrbne.w	r5, [ip, #48]	; 0x30
878015b4:	3702      	addeq	r7, #2
878015b6:	bf04      	itt	eq
878015b8:	f81c 5004 	ldrbeq.w	r5, [ip, r4]
878015bc:	4623      	moveq	r3, r4
878015be:	f005 0044 	and.w	r0, r5, #68	; 0x44
878015c2:	e7b9      	b.n	87801538 <simple_strtoul+0x20>
878015c4:	7844      	ldrb	r4, [r0, #1]
878015c6:	f642 6cdc 	movw	ip, #11996	; 0x2edc
878015ca:	f2c8 7c80 	movt	ip, #34688	; 0x8780
878015ce:	3001      	adds	r0, #1
878015d0:	f81c 5004 	ldrb.w	r5, [ip, r4]
878015d4:	4623      	mov	r3, r4
878015d6:	07aa      	lsls	r2, r5, #30
878015d8:	bf4a      	itet	mi
878015da:	f1a4 0220 	submi.w	r2, r4, #32
878015de:	4622      	movpl	r2, r4
878015e0:	b2d2      	uxtbmi	r2, r2
878015e2:	2a58      	cmp	r2, #88	; 0x58
878015e4:	d004      	beq.n	878015f0 <simple_strtoul+0xd8>
878015e6:	4607      	mov	r7, r0
878015e8:	2208      	movs	r2, #8
878015ea:	f005 0044 	and.w	r0, r5, #68	; 0x44
878015ee:	e7a3      	b.n	87801538 <simple_strtoul+0x20>
878015f0:	78be      	ldrb	r6, [r7, #2]
878015f2:	f81c 2006 	ldrb.w	r2, [ip, r6]
878015f6:	f012 0f44 	tst.w	r2, #68	; 0x44
878015fa:	d0f4      	beq.n	878015e6 <simple_strtoul+0xce>
878015fc:	4615      	mov	r5, r2
878015fe:	4633      	mov	r3, r6
87801600:	3702      	adds	r7, #2
87801602:	4634      	mov	r4, r6
87801604:	2210      	movs	r2, #16
87801606:	e798      	b.n	8780153a <simple_strtoul+0x22>

87801608 <simple_strtol>:
87801608:	b510      	push	{r4, lr}
8780160a:	7804      	ldrb	r4, [r0, #0]
8780160c:	2c2d      	cmp	r4, #45	; 0x2d
8780160e:	d003      	beq.n	87801618 <simple_strtol+0x10>
87801610:	e8bd 4010 	ldmia.w	sp!, {r4, lr}
87801614:	f7ff bf80 	b.w	87801518 <simple_strtoul>
87801618:	3001      	adds	r0, #1
8780161a:	f7ff ff7d 	bl	87801518 <simple_strtoul>
8780161e:	4240      	negs	r0, r0
87801620:	bd10      	pop	{r4, pc}
87801622:	bf00      	nop

87801624 <simple_strtoull>:
87801624:	e92d 4ff0 	stmdb	sp!, {r4, r5, r6, r7, r8, r9, sl, fp, lr}
87801628:	7803      	ldrb	r3, [r0, #0]
8780162a:	2a00      	cmp	r2, #0
8780162c:	d140      	bne.n	878016b0 <simple_strtoull+0x8c>
8780162e:	2b30      	cmp	r3, #48	; 0x30
87801630:	d066      	beq.n	87801700 <simple_strtoull+0xdc>
87801632:	f642 6edc 	movw	lr, #11996	; 0x2edc
87801636:	469b      	mov	fp, r3
87801638:	f2c8 7e80 	movt	lr, #34688	; 0x8780
8780163c:	220a      	movs	r2, #10
8780163e:	f81e c003 	ldrb.w	ip, [lr, r3]
87801642:	f00c 0444 	and.w	r4, ip, #68	; 0x44
87801646:	2c00      	cmp	r4, #0
87801648:	d071      	beq.n	8780172e <simple_strtoull+0x10a>
8780164a:	f04f 0a00 	mov.w	sl, #0
8780164e:	4690      	mov	r8, r2
87801650:	f04f 0900 	mov.w	r9, #0
87801654:	4652      	mov	r2, sl
87801656:	e00e      	b.n	87801676 <simple_strtoull+0x52>
87801658:	fb08 3202 	mla	r2, r8, r2, r3
8780165c:	f810 3f01 	ldrb.w	r3, [r0, #1]!
87801660:	eb16 0a04 	adds.w	sl, r6, r4
87801664:	f81e c003 	ldrb.w	ip, [lr, r3]
87801668:	469b      	mov	fp, r3
8780166a:	4417      	add	r7, r2
8780166c:	eb47 0205 	adc.w	r2, r7, r5
87801670:	f01c 0f44 	tst.w	ip, #68	; 0x44
87801674:	d016      	beq.n	878016a4 <simple_strtoull+0x80>
87801676:	f01c 0f04 	tst.w	ip, #4
8780167a:	f1ab 0430 	sub.w	r4, fp, #48	; 0x30
8780167e:	d108      	bne.n	87801692 <simple_strtoull+0x6e>
87801680:	3b20      	subs	r3, #32
87801682:	f01c 0f02 	tst.w	ip, #2
87801686:	b2db      	uxtb	r3, r3
87801688:	f1ab 0437 	sub.w	r4, fp, #55	; 0x37
8780168c:	bf18      	it	ne
8780168e:	f1a3 0437 	subne.w	r4, r3, #55	; 0x37
87801692:	17e5      	asrs	r5, r4, #31
87801694:	fb0a f309 	mul.w	r3, sl, r9
87801698:	454d      	cmp	r5, r9
8780169a:	fbaa 6708 	umull	r6, r7, sl, r8
8780169e:	bf08      	it	eq
878016a0:	4544      	cmpeq	r4, r8
878016a2:	d3d9      	bcc.n	87801658 <simple_strtoull+0x34>
878016a4:	b101      	cbz	r1, 878016a8 <simple_strtoull+0x84>
878016a6:	6008      	str	r0, [r1, #0]
878016a8:	4650      	mov	r0, sl
878016aa:	4611      	mov	r1, r2
878016ac:	e8bd 8ff0 	ldmia.w	sp!, {r4, r5, r6, r7, r8, r9, sl, fp, pc}
878016b0:	2a10      	cmp	r2, #16
878016b2:	d009      	beq.n	878016c8 <simple_strtoull+0xa4>
878016b4:	f642 6edc 	movw	lr, #11996	; 0x2edc
878016b8:	469b      	mov	fp, r3
878016ba:	f2c8 7e80 	movt	lr, #34688	; 0x8780
878016be:	f81e c003 	ldrb.w	ip, [lr, r3]
878016c2:	f00c 0444 	and.w	r4, ip, #68	; 0x44
878016c6:	e7be      	b.n	87801646 <simple_strtoull+0x22>
878016c8:	2b30      	cmp	r3, #48	; 0x30
878016ca:	d1f3      	bne.n	878016b4 <simple_strtoull+0x90>
878016cc:	7844      	ldrb	r4, [r0, #1]
878016ce:	f642 6edc 	movw	lr, #11996	; 0x2edc
878016d2:	f2c8 7e80 	movt	lr, #34688	; 0x8780
878016d6:	f81e 5004 	ldrb.w	r5, [lr, r4]
878016da:	07ad      	lsls	r5, r5, #30
878016dc:	bf44      	itt	mi
878016de:	3c20      	submi	r4, #32
878016e0:	b2e4      	uxtbmi	r4, r4
878016e2:	2c58      	cmp	r4, #88	; 0x58
878016e4:	bf0d      	iteet	eq
878016e6:	7883      	ldrbeq	r3, [r0, #2]
878016e8:	f04f 0b30 	movne.w	fp, #48	; 0x30
878016ec:	f89e c030 	ldrbne.w	ip, [lr, #48]	; 0x30
878016f0:	3002      	addeq	r0, #2
878016f2:	bf04      	itt	eq
878016f4:	f81e c003 	ldrbeq.w	ip, [lr, r3]
878016f8:	469b      	moveq	fp, r3
878016fa:	f00c 0444 	and.w	r4, ip, #68	; 0x44
878016fe:	e7a2      	b.n	87801646 <simple_strtoull+0x22>
87801700:	7843      	ldrb	r3, [r0, #1]
87801702:	f642 6edc 	movw	lr, #11996	; 0x2edc
87801706:	f2c8 7e80 	movt	lr, #34688	; 0x8780
8780170a:	1c44      	adds	r4, r0, #1
8780170c:	f81e c003 	ldrb.w	ip, [lr, r3]
87801710:	469b      	mov	fp, r3
87801712:	f01c 0f02 	tst.w	ip, #2
87801716:	bf16      	itet	ne
87801718:	f1a3 0220 	subne.w	r2, r3, #32
8780171c:	461a      	moveq	r2, r3
8780171e:	b2d2      	uxtbne	r2, r2
87801720:	2a58      	cmp	r2, #88	; 0x58
87801722:	d008      	beq.n	87801736 <simple_strtoull+0x112>
87801724:	4620      	mov	r0, r4
87801726:	2208      	movs	r2, #8
87801728:	f00c 0444 	and.w	r4, ip, #68	; 0x44
8780172c:	e78b      	b.n	87801646 <simple_strtoull+0x22>
8780172e:	f04f 0a00 	mov.w	sl, #0
87801732:	4652      	mov	r2, sl
87801734:	e7b6      	b.n	878016a4 <simple_strtoull+0x80>
87801736:	7885      	ldrb	r5, [r0, #2]
87801738:	f81e 2005 	ldrb.w	r2, [lr, r5]
8780173c:	f012 0f44 	tst.w	r2, #68	; 0x44
87801740:	d0f0      	beq.n	87801724 <simple_strtoull+0x100>
87801742:	4694      	mov	ip, r2
87801744:	46ab      	mov	fp, r5
87801746:	3002      	adds	r0, #2
87801748:	462b      	mov	r3, r5
8780174a:	2210      	movs	r2, #16
8780174c:	e77d      	b.n	8780164a <simple_strtoull+0x26>
8780174e:	bf00      	nop

87801750 <simple_strtoll>:
87801750:	b510      	push	{r4, lr}
87801752:	7804      	ldrb	r4, [r0, #0]
87801754:	2c2d      	cmp	r4, #45	; 0x2d
87801756:	d003      	beq.n	87801760 <simple_strtoll+0x10>
87801758:	e8bd 4010 	ldmia.w	sp!, {r4, lr}
8780175c:	f7ff bf62 	b.w	87801624 <simple_strtoull>
87801760:	3001      	adds	r0, #1
87801762:	f7ff ff5f 	bl	87801624 <simple_strtoull>
87801766:	4240      	negs	r0, r0
87801768:	eb61 0141 	sbc.w	r1, r1, r1, lsl #1
8780176c:	bd10      	pop	{r4, pc}
8780176e:	bf00      	nop

87801770 <vsnprintf>:
87801770:	e92d 4ff0 	stmdb	sp!, {r4, r5, r6, r7, r8, r9, sl, fp, lr}
87801774:	469a      	mov	sl, r3
87801776:	1e0b      	subs	r3, r1, #0
87801778:	b089      	sub	sp, #36	; 0x24
8780177a:	9305      	str	r3, [sp, #20]
8780177c:	f2c0 826a 	blt.w	87801c54 <vsnprintf+0x4e4>
87801780:	f103 38ff 	add.w	r8, r3, #4294967295	; 0xffffffff
87801784:	1e43      	subs	r3, r0, #1
87801786:	4480      	add	r8, r0
87801788:	4605      	mov	r5, r0
8780178a:	4598      	cmp	r8, r3
8780178c:	9006      	str	r0, [sp, #24]
8780178e:	4614      	mov	r4, r2
87801790:	7810      	ldrb	r0, [r2, #0]
87801792:	f0c0 80c9 	bcc.w	87801928 <vsnprintf+0x1b8>
87801796:	2800      	cmp	r0, #0
87801798:	f000 80d1 	beq.w	8780193e <vsnprintf+0x1ce>
8780179c:	f642 63b4 	movw	r3, #11956	; 0x2eb4
878017a0:	f642 69dc 	movw	r9, #11996	; 0x2edc
878017a4:	f2c8 7380 	movt	r3, #34688	; 0x8780
878017a8:	f2c8 7980 	movt	r9, #34688	; 0x8780
878017ac:	9307      	str	r3, [sp, #28]
878017ae:	e008      	b.n	878017c2 <vsnprintf+0x52>
878017b0:	45a8      	cmp	r8, r5
878017b2:	bf28      	it	cs
878017b4:	7028      	strbcs	r0, [r5, #0]
878017b6:	7860      	ldrb	r0, [r4, #1]
878017b8:	3501      	adds	r5, #1
878017ba:	3401      	adds	r4, #1
878017bc:	2800      	cmp	r0, #0
878017be:	f000 80bc 	beq.w	8780193a <vsnprintf+0x1ca>
878017c2:	2825      	cmp	r0, #37	; 0x25
878017c4:	d1f4      	bne.n	878017b0 <vsnprintf+0x40>
878017c6:	2700      	movs	r7, #0
878017c8:	7863      	ldrb	r3, [r4, #1]
878017ca:	1c62      	adds	r2, r4, #1
878017cc:	f1a3 0120 	sub.w	r1, r3, #32
878017d0:	2910      	cmp	r1, #16
878017d2:	d81e      	bhi.n	87801812 <vsnprintf+0xa2>
878017d4:	e8df f001 	tbb	[pc, r1]
878017d8:	151d1d19 	ldrne	r1, [sp, #-3353]	; 0xd19
878017dc:	1d1d1d1d 	ldcne	13, cr1, [sp, #-116]	; 0xffffff8c
878017e0:	111d1d1d 	tstne	sp, sp, lsl sp
878017e4:	1d1d0d1d 	ldcne	13, cr0, [sp, #-116]	; 0xffffff8c
878017e8:	f0470009 			; <UNDEFINED> instruction: 0xf0470009
878017ec:	0701      	lsls	r1, r0, #28
878017ee:	4614      	mov	r4, r2
878017f0:	e7ea      	b.n	878017c8 <vsnprintf+0x58>
878017f2:	f047 0710 	orr.w	r7, r7, #16
878017f6:	4614      	mov	r4, r2
878017f8:	e7e6      	b.n	878017c8 <vsnprintf+0x58>
878017fa:	f047 0704 	orr.w	r7, r7, #4
878017fe:	4614      	mov	r4, r2
87801800:	e7e2      	b.n	878017c8 <vsnprintf+0x58>
87801802:	f047 0720 	orr.w	r7, r7, #32
87801806:	4614      	mov	r4, r2
87801808:	e7de      	b.n	878017c8 <vsnprintf+0x58>
8780180a:	f047 0708 	orr.w	r7, r7, #8
8780180e:	4614      	mov	r4, r2
87801810:	e7da      	b.n	878017c8 <vsnprintf+0x58>
87801812:	f819 0003 	ldrb.w	r0, [r9, r3]
87801816:	4619      	mov	r1, r3
87801818:	0746      	lsls	r6, r0, #29
8780181a:	f100 809b 	bmi.w	87801954 <vsnprintf+0x1e4>
8780181e:	2b2a      	cmp	r3, #42	; 0x2a
87801820:	bf18      	it	ne
87801822:	f04f 36ff 	movne.w	r6, #4294967295	; 0xffffffff
87801826:	d10a      	bne.n	8780183e <vsnprintf+0xce>
87801828:	f8da 6000 	ldr.w	r6, [sl]
8780182c:	1ca2      	adds	r2, r4, #2
8780182e:	78a3      	ldrb	r3, [r4, #2]
87801830:	f10a 0a04 	add.w	sl, sl, #4
87801834:	2e00      	cmp	r6, #0
87801836:	bfbc      	itt	lt
87801838:	4276      	neglt	r6, r6
8780183a:	f047 0710 	orrlt.w	r7, r7, #16
8780183e:	2b2e      	cmp	r3, #46	; 0x2e
87801840:	bf18      	it	ne
87801842:	f04f 31ff 	movne.w	r1, #4294967295	; 0xffffffff
87801846:	f000 8098 	beq.w	8780197a <vsnprintf+0x20a>
8780184a:	f003 00df 	and.w	r0, r3, #223	; 0xdf
8780184e:	285a      	cmp	r0, #90	; 0x5a
87801850:	bf18      	it	ne
87801852:	284c      	cmpne	r0, #76	; 0x4c
87801854:	bf0c      	ite	eq
87801856:	2001      	moveq	r0, #1
87801858:	2000      	movne	r0, #0
8780185a:	2b68      	cmp	r3, #104	; 0x68
8780185c:	bf08      	it	eq
8780185e:	f040 0001 	orreq.w	r0, r0, #1
87801862:	2800      	cmp	r0, #0
87801864:	f000 8100 	beq.w	87801a68 <vsnprintf+0x2f8>
87801868:	4618      	mov	r0, r3
8780186a:	1c54      	adds	r4, r2, #1
8780186c:	286c      	cmp	r0, #108	; 0x6c
8780186e:	7853      	ldrb	r3, [r2, #1]
87801870:	f000 8098 	beq.w	878019a4 <vsnprintf+0x234>
87801874:	3b25      	subs	r3, #37	; 0x25
87801876:	2b53      	cmp	r3, #83	; 0x53
87801878:	f200 81b8 	bhi.w	87801bec <vsnprintf+0x47c>
8780187c:	e8df f013 	tbh	[pc, r3, lsl #1]
87801880:	01b60175 			; <UNDEFINED> instruction: 0x01b60175
87801884:	01b601b6 			; <UNDEFINED> instruction: 0x01b601b6
87801888:	01b601b6 			; <UNDEFINED> instruction: 0x01b601b6
8780188c:	01b601b6 			; <UNDEFINED> instruction: 0x01b601b6
87801890:	01b601b6 			; <UNDEFINED> instruction: 0x01b601b6
87801894:	01b601b6 			; <UNDEFINED> instruction: 0x01b601b6
87801898:	01b601b6 			; <UNDEFINED> instruction: 0x01b601b6
8780189c:	01b601b6 			; <UNDEFINED> instruction: 0x01b601b6
878018a0:	01b601b6 			; <UNDEFINED> instruction: 0x01b601b6
878018a4:	01b601b6 			; <UNDEFINED> instruction: 0x01b601b6
878018a8:	01b601b6 			; <UNDEFINED> instruction: 0x01b601b6
878018ac:	01b601b6 			; <UNDEFINED> instruction: 0x01b601b6
878018b0:	01b601b6 			; <UNDEFINED> instruction: 0x01b601b6
878018b4:	01b601b6 			; <UNDEFINED> instruction: 0x01b601b6
878018b8:	01b601b6 			; <UNDEFINED> instruction: 0x01b601b6
878018bc:	01b601b6 			; <UNDEFINED> instruction: 0x01b601b6
878018c0:	01b601b6 			; <UNDEFINED> instruction: 0x01b601b6
878018c4:	01b601b6 			; <UNDEFINED> instruction: 0x01b601b6
878018c8:	01b601b6 			; <UNDEFINED> instruction: 0x01b601b6
878018cc:	01b601b6 			; <UNDEFINED> instruction: 0x01b601b6
878018d0:	01b601b6 			; <UNDEFINED> instruction: 0x01b601b6
878018d4:	01b601b6 			; <UNDEFINED> instruction: 0x01b601b6
878018d8:	01b601b6 			; <UNDEFINED> instruction: 0x01b601b6
878018dc:	01b601b6 			; <UNDEFINED> instruction: 0x01b601b6
878018e0:	01b601b6 			; <UNDEFINED> instruction: 0x01b601b6
878018e4:	019601b6 			; <UNDEFINED> instruction: 0x019601b6
878018e8:	01b601b6 			; <UNDEFINED> instruction: 0x01b601b6
878018ec:	01b601b6 			; <UNDEFINED> instruction: 0x01b601b6
878018f0:	01b601b6 			; <UNDEFINED> instruction: 0x01b601b6
878018f4:	01b601b6 			; <UNDEFINED> instruction: 0x01b601b6
878018f8:	01b601b6 			; <UNDEFINED> instruction: 0x01b601b6
878018fc:	01a10153 			; <UNDEFINED> instruction: 0x01a10153
87801900:	01b601b6 			; <UNDEFINED> instruction: 0x01b601b6
87801904:	01b601b6 			; <UNDEFINED> instruction: 0x01b601b6
87801908:	01b601a1 			; <UNDEFINED> instruction: 0x01b601a1
8780190c:	01b601b6 			; <UNDEFINED> instruction: 0x01b601b6
87801910:	01ac01b6 			; <UNDEFINED> instruction: 0x01ac01b6
87801914:	013d01a6 	teqeq	sp, r6, lsr #3
87801918:	01b601b6 			; <UNDEFINED> instruction: 0x01b601b6
8780191c:	01b60109 			; <UNDEFINED> instruction: 0x01b60109
87801920:	01b6017a 			; <UNDEFINED> instruction: 0x01b6017a
87801924:	01a901b6 			; <UNDEFINED> instruction: 0x01a901b6
87801928:	426b      	negs	r3, r5
8780192a:	9305      	str	r3, [sp, #20]
8780192c:	2800      	cmp	r0, #0
8780192e:	f000 8096 	beq.w	87801a5e <vsnprintf+0x2ee>
87801932:	f04f 38ff 	mov.w	r8, #4294967295	; 0xffffffff
87801936:	e731      	b.n	8780179c <vsnprintf+0x2c>
87801938:	4615      	mov	r5, r2
8780193a:	9b06      	ldr	r3, [sp, #24]
8780193c:	1ae8      	subs	r0, r5, r3
8780193e:	45a8      	cmp	r8, r5
87801940:	f080 808d 	bcs.w	87801a5e <vsnprintf+0x2ee>
87801944:	9b05      	ldr	r3, [sp, #20]
87801946:	b113      	cbz	r3, 8780194e <vsnprintf+0x1de>
87801948:	2300      	movs	r3, #0
8780194a:	f888 3000 	strb.w	r3, [r8]
8780194e:	b009      	add	sp, #36	; 0x24
87801950:	e8bd 8ff0 	ldmia.w	sp!, {r4, r5, r6, r7, r8, r9, sl, fp, pc}
87801954:	2600      	movs	r6, #0
87801956:	eb06 0686 	add.w	r6, r6, r6, lsl #2
8780195a:	eb01 0646 	add.w	r6, r1, r6, lsl #1
8780195e:	f812 1f01 	ldrb.w	r1, [r2, #1]!
87801962:	3e30      	subs	r6, #48	; 0x30
87801964:	f819 0001 	ldrb.w	r0, [r9, r1]
87801968:	460b      	mov	r3, r1
8780196a:	0740      	lsls	r0, r0, #29
8780196c:	d4f3      	bmi.n	87801956 <vsnprintf+0x1e6>
8780196e:	2b2e      	cmp	r3, #46	; 0x2e
87801970:	bf18      	it	ne
87801972:	f04f 31ff 	movne.w	r1, #4294967295	; 0xffffffff
87801976:	f47f af68 	bne.w	8780184a <vsnprintf+0xda>
8780197a:	7850      	ldrb	r0, [r2, #1]
8780197c:	1c54      	adds	r4, r2, #1
8780197e:	f819 1000 	ldrb.w	r1, [r9, r0]
87801982:	4603      	mov	r3, r0
87801984:	f011 0104 	ands.w	r1, r1, #4
87801988:	d172      	bne.n	87801a70 <vsnprintf+0x300>
8780198a:	282a      	cmp	r0, #42	; 0x2a
8780198c:	bf09      	itett	eq
8780198e:	f8da 1000 	ldreq.w	r1, [sl]
87801992:	4622      	movne	r2, r4
87801994:	7893      	ldrbeq	r3, [r2, #2]
87801996:	f10a 0a04 	addeq.w	sl, sl, #4
8780199a:	bf04      	itt	eq
8780199c:	3202      	addeq	r2, #2
8780199e:	ea21 71e1 	biceq.w	r1, r1, r1, asr #31
878019a2:	e752      	b.n	8780184a <vsnprintf+0xda>
878019a4:	2b6c      	cmp	r3, #108	; 0x6c
878019a6:	f000 8147 	beq.w	87801c38 <vsnprintf+0x4c8>
878019aa:	3b25      	subs	r3, #37	; 0x25
878019ac:	2b53      	cmp	r3, #83	; 0x53
878019ae:	f200 811d 	bhi.w	87801bec <vsnprintf+0x47c>
878019b2:	e8df f013 	tbh	[pc, r3, lsl #1]
878019b6:	011b00da 	ldrsbeq	r0, [fp, -sl]
878019ba:	011b011b 	tsteq	fp, fp, lsl r1
878019be:	011b011b 	tsteq	fp, fp, lsl r1
878019c2:	011b011b 	tsteq	fp, fp, lsl r1
878019c6:	011b011b 	tsteq	fp, fp, lsl r1
878019ca:	011b011b 	tsteq	fp, fp, lsl r1
878019ce:	011b011b 	tsteq	fp, fp, lsl r1
878019d2:	011b011b 	tsteq	fp, fp, lsl r1
878019d6:	011b011b 	tsteq	fp, fp, lsl r1
878019da:	011b011b 	tsteq	fp, fp, lsl r1
878019de:	011b011b 	tsteq	fp, fp, lsl r1
878019e2:	011b011b 	tsteq	fp, fp, lsl r1
878019e6:	011b011b 	tsteq	fp, fp, lsl r1
878019ea:	011b011b 	tsteq	fp, fp, lsl r1
878019ee:	011b011b 	tsteq	fp, fp, lsl r1
878019f2:	011b011b 	tsteq	fp, fp, lsl r1
878019f6:	011b011b 	tsteq	fp, fp, lsl r1
878019fa:	011b011b 	tsteq	fp, fp, lsl r1
878019fe:	011b011b 	tsteq	fp, fp, lsl r1
87801a02:	011b011b 	tsteq	fp, fp, lsl r1
87801a06:	011b011b 	tsteq	fp, fp, lsl r1
87801a0a:	011b011b 	tsteq	fp, fp, lsl r1
87801a0e:	011b011b 	tsteq	fp, fp, lsl r1
87801a12:	011b011b 	tsteq	fp, fp, lsl r1
87801a16:	011b011b 	tsteq	fp, fp, lsl r1
87801a1a:	0188011b 	orreq	r0, r8, fp, lsl r1
87801a1e:	011b011b 	tsteq	fp, fp, lsl r1
87801a22:	011b011b 	tsteq	fp, fp, lsl r1
87801a26:	011b011b 	tsteq	fp, fp, lsl r1
87801a2a:	011b011b 	tsteq	fp, fp, lsl r1
87801a2e:	011b011b 	tsteq	fp, fp, lsl r1
87801a32:	018100b8 	strheq	r0, [r1, r8]
87801a36:	011b011b 	tsteq	fp, fp, lsl r1
87801a3a:	011b011b 	tsteq	fp, fp, lsl r1
87801a3e:	011b0181 	tsteq	fp, r1, lsl #3
87801a42:	011b011b 	tsteq	fp, fp, lsl r1
87801a46:	012d011b 	teqeq	sp, fp, lsl r1
87801a4a:	00a2018f 	adceq	r0, r2, pc, lsl #3
87801a4e:	011b011b 	tsteq	fp, fp, lsl r1
87801a52:	011b006e 	tsteq	fp, lr, rrx
87801a56:	011b0194 			; <UNDEFINED> instruction: 0x011b0194
87801a5a:	0136011b 	teqeq	r6, fp, lsl r1
87801a5e:	2300      	movs	r3, #0
87801a60:	702b      	strb	r3, [r5, #0]
87801a62:	b009      	add	sp, #36	; 0x24
87801a64:	e8bd 8ff0 	ldmia.w	sp!, {r4, r5, r6, r7, r8, r9, sl, fp, pc}
87801a68:	4614      	mov	r4, r2
87801a6a:	f04f 30ff 	mov.w	r0, #4294967295	; 0xffffffff
87801a6e:	e701      	b.n	87801874 <vsnprintf+0x104>
87801a70:	2100      	movs	r1, #0
87801a72:	f814 3f01 	ldrb.w	r3, [r4, #1]!
87801a76:	eb01 0181 	add.w	r1, r1, r1, lsl #2
87801a7a:	eb00 0141 	add.w	r1, r0, r1, lsl #1
87801a7e:	f819 2003 	ldrb.w	r2, [r9, r3]
87801a82:	4618      	mov	r0, r3
87801a84:	3930      	subs	r1, #48	; 0x30
87801a86:	0752      	lsls	r2, r2, #29
87801a88:	d4f3      	bmi.n	87801a72 <vsnprintf+0x302>
87801a8a:	ea21 71e1 	bic.w	r1, r1, r1, asr #31
87801a8e:	4622      	mov	r2, r4
87801a90:	e6db      	b.n	8780184a <vsnprintf+0xda>
87801a92:	f8da b000 	ldr.w	fp, [sl]
87801a96:	f10a 0a04 	add.w	sl, sl, #4
87801a9a:	9b07      	ldr	r3, [sp, #28]
87801a9c:	f5bb 6f80 	cmp.w	fp, #1024	; 0x400
87801aa0:	bf38      	it	cc
87801aa2:	469b      	movcc	fp, r3
87801aa4:	4658      	mov	r0, fp
87801aa6:	f7ff f991 	bl	87800dcc <strnlen>
87801aaa:	06f9      	lsls	r1, r7, #27
87801aac:	f106 33ff 	add.w	r3, r6, #4294967295	; 0xffffffff
87801ab0:	f140 80d8 	bpl.w	87801c64 <vsnprintf+0x4f4>
87801ab4:	2800      	cmp	r0, #0
87801ab6:	bfd8      	it	le
87801ab8:	462a      	movle	r2, r5
87801aba:	dd0d      	ble.n	87801ad8 <vsnprintf+0x368>
87801abc:	182a      	adds	r2, r5, r0
87801abe:	4545      	cmp	r5, r8
87801ac0:	f105 0501 	add.w	r5, r5, #1
87801ac4:	bf98      	it	ls
87801ac6:	f89b 1000 	ldrbls.w	r1, [fp]
87801aca:	f10b 0b01 	add.w	fp, fp, #1
87801ace:	bf98      	it	ls
87801ad0:	f805 1c01 	strbls.w	r1, [r5, #-1]
87801ad4:	4295      	cmp	r5, r2
87801ad6:	d1f2      	bne.n	87801abe <vsnprintf+0x34e>
87801ad8:	4286      	cmp	r6, r0
87801ada:	4615      	mov	r5, r2
87801adc:	bfc2      	ittt	gt
87801ade:	3301      	addgt	r3, #1
87801ae0:	2120      	movgt	r1, #32
87801ae2:	18d2      	addgt	r2, r2, r3
87801ae4:	dd60      	ble.n	87801ba8 <vsnprintf+0x438>
87801ae6:	4545      	cmp	r5, r8
87801ae8:	f105 0501 	add.w	r5, r5, #1
87801aec:	bf98      	it	ls
87801aee:	f805 1c01 	strbls.w	r1, [r5, #-1]
87801af2:	1b53      	subs	r3, r2, r5
87801af4:	4298      	cmp	r0, r3
87801af6:	dbf6      	blt.n	87801ae6 <vsnprintf+0x376>
87801af8:	e056      	b.n	87801ba8 <vsnprintf+0x438>
87801afa:	1c72      	adds	r2, r6, #1
87801afc:	f8da 2000 	ldr.w	r2, [sl]
87801b00:	bf04      	itt	eq
87801b02:	f047 0701 	orreq.w	r7, r7, #1
87801b06:	2608      	moveq	r6, #8
87801b08:	9102      	str	r1, [sp, #8]
87801b0a:	2110      	movs	r1, #16
87801b0c:	4628      	mov	r0, r5
87801b0e:	9100      	str	r1, [sp, #0]
87801b10:	9703      	str	r7, [sp, #12]
87801b12:	2300      	movs	r3, #0
87801b14:	9601      	str	r6, [sp, #4]
87801b16:	4641      	mov	r1, r8
87801b18:	f7ff fae0 	bl	878010dc <number>
87801b1c:	f10a 0a04 	add.w	sl, sl, #4
87801b20:	4605      	mov	r5, r0
87801b22:	7860      	ldrb	r0, [r4, #1]
87801b24:	e649      	b.n	878017ba <vsnprintf+0x4a>
87801b26:	06f8      	lsls	r0, r7, #27
87801b28:	f106 31ff 	add.w	r1, r6, #4294967295	; 0xffffffff
87801b2c:	f140 80af 	bpl.w	87801c8e <vsnprintf+0x51e>
87801b30:	4545      	cmp	r5, r8
87801b32:	f10a 0604 	add.w	r6, sl, #4
87801b36:	bf98      	it	ls
87801b38:	f8da 3000 	ldrls.w	r3, [sl]
87801b3c:	f105 0001 	add.w	r0, r5, #1
87801b40:	bf98      	it	ls
87801b42:	702b      	strbls	r3, [r5, #0]
87801b44:	2900      	cmp	r1, #0
87801b46:	f340 80cf 	ble.w	87801ce8 <vsnprintf+0x578>
87801b4a:	1c4a      	adds	r2, r1, #1
87801b4c:	4603      	mov	r3, r0
87801b4e:	4415      	add	r5, r2
87801b50:	2220      	movs	r2, #32
87801b52:	4543      	cmp	r3, r8
87801b54:	f103 0301 	add.w	r3, r3, #1
87801b58:	bf98      	it	ls
87801b5a:	f803 2c01 	strbls.w	r2, [r3, #-1]
87801b5e:	42ab      	cmp	r3, r5
87801b60:	d1f7      	bne.n	87801b52 <vsnprintf+0x3e2>
87801b62:	1845      	adds	r5, r0, r1
87801b64:	46b2      	mov	sl, r6
87801b66:	7860      	ldrb	r0, [r4, #1]
87801b68:	e627      	b.n	878017ba <vsnprintf+0x4a>
87801b6a:	45a8      	cmp	r8, r5
87801b6c:	bf24      	itt	cs
87801b6e:	2325      	movcs	r3, #37	; 0x25
87801b70:	702b      	strbcs	r3, [r5, #0]
87801b72:	e620      	b.n	878017b6 <vsnprintf+0x46>
87801b74:	f04f 0c0a 	mov.w	ip, #10
87801b78:	284c      	cmp	r0, #76	; 0x4c
87801b7a:	d01d      	beq.n	87801bb8 <vsnprintf+0x448>
87801b7c:	286c      	cmp	r0, #108	; 0x6c
87801b7e:	f10a 0e04 	add.w	lr, sl, #4
87801b82:	d052      	beq.n	87801c2a <vsnprintf+0x4ba>
87801b84:	f020 0320 	bic.w	r3, r0, #32
87801b88:	2b5a      	cmp	r3, #90	; 0x5a
87801b8a:	d159      	bne.n	87801c40 <vsnprintf+0x4d0>
87801b8c:	f8da 2000 	ldr.w	r2, [sl]
87801b90:	46f2      	mov	sl, lr
87801b92:	2300      	movs	r3, #0
87801b94:	e9cd 1702 	strd	r1, r7, [sp, #8]
87801b98:	4628      	mov	r0, r5
87801b9a:	9601      	str	r6, [sp, #4]
87801b9c:	4641      	mov	r1, r8
87801b9e:	f8cd c000 	str.w	ip, [sp]
87801ba2:	f7ff fa9b 	bl	878010dc <number>
87801ba6:	4605      	mov	r5, r0
87801ba8:	7860      	ldrb	r0, [r4, #1]
87801baa:	e606      	b.n	878017ba <vsnprintf+0x4a>
87801bac:	284c      	cmp	r0, #76	; 0x4c
87801bae:	f047 0740 	orr.w	r7, r7, #64	; 0x40
87801bb2:	f04f 0c10 	mov.w	ip, #16
87801bb6:	d1e1      	bne.n	87801b7c <vsnprintf+0x40c>
87801bb8:	e9da 2300 	ldrd	r2, r3, [sl]
87801bbc:	f10a 0a08 	add.w	sl, sl, #8
87801bc0:	e7e8      	b.n	87801b94 <vsnprintf+0x424>
87801bc2:	f047 0702 	orr.w	r7, r7, #2
87801bc6:	f04f 0c0a 	mov.w	ip, #10
87801bca:	e7d5      	b.n	87801b78 <vsnprintf+0x408>
87801bcc:	f04f 0c08 	mov.w	ip, #8
87801bd0:	e7d2      	b.n	87801b78 <vsnprintf+0x408>
87801bd2:	f04f 0c10 	mov.w	ip, #16
87801bd6:	e7cf      	b.n	87801b78 <vsnprintf+0x408>
87801bd8:	9b06      	ldr	r3, [sp, #24]
87801bda:	f8da 2000 	ldr.w	r2, [sl]
87801bde:	1ae9      	subs	r1, r5, r3
87801be0:	f10a 0304 	add.w	r3, sl, #4
87801be4:	6011      	str	r1, [r2, #0]
87801be6:	469a      	mov	sl, r3
87801be8:	7860      	ldrb	r0, [r4, #1]
87801bea:	e5e6      	b.n	878017ba <vsnprintf+0x4a>
87801bec:	45a8      	cmp	r8, r5
87801bee:	f105 0201 	add.w	r2, r5, #1
87801bf2:	bf24      	itt	cs
87801bf4:	2325      	movcs	r3, #37	; 0x25
87801bf6:	702b      	strbcs	r3, [r5, #0]
87801bf8:	7823      	ldrb	r3, [r4, #0]
87801bfa:	2b00      	cmp	r3, #0
87801bfc:	f43f ae9c 	beq.w	87801938 <vsnprintf+0x1c8>
87801c00:	4542      	cmp	r2, r8
87801c02:	f105 0502 	add.w	r5, r5, #2
87801c06:	bf98      	it	ls
87801c08:	f805 3c01 	strbls.w	r3, [r5, #-1]
87801c0c:	7860      	ldrb	r0, [r4, #1]
87801c0e:	e5d4      	b.n	878017ba <vsnprintf+0x4a>
87801c10:	9906      	ldr	r1, [sp, #24]
87801c12:	f10a 0a04 	add.w	sl, sl, #4
87801c16:	f85a 3c04 	ldr.w	r3, [sl, #-4]
87801c1a:	1a69      	subs	r1, r5, r1
87801c1c:	6019      	str	r1, [r3, #0]
87801c1e:	7890      	ldrb	r0, [r2, #2]
87801c20:	e5cb      	b.n	878017ba <vsnprintf+0x4a>
87801c22:	f10a 0e04 	add.w	lr, sl, #4
87801c26:	f04f 0c10 	mov.w	ip, #16
87801c2a:	07bb      	lsls	r3, r7, #30
87801c2c:	f8da 2000 	ldr.w	r2, [sl]
87801c30:	46f2      	mov	sl, lr
87801c32:	d5ae      	bpl.n	87801b92 <vsnprintf+0x422>
87801c34:	17d3      	asrs	r3, r2, #31
87801c36:	e7ad      	b.n	87801b94 <vsnprintf+0x424>
87801c38:	1c94      	adds	r4, r2, #2
87801c3a:	7893      	ldrb	r3, [r2, #2]
87801c3c:	204c      	movs	r0, #76	; 0x4c
87801c3e:	e619      	b.n	87801874 <vsnprintf+0x104>
87801c40:	2868      	cmp	r0, #104	; 0x68
87801c42:	f8da 2000 	ldr.w	r2, [sl]
87801c46:	f007 0302 	and.w	r3, r7, #2
87801c4a:	46f2      	mov	sl, lr
87801c4c:	d006      	beq.n	87801c5c <vsnprintf+0x4ec>
87801c4e:	2b00      	cmp	r3, #0
87801c50:	d1f0      	bne.n	87801c34 <vsnprintf+0x4c4>
87801c52:	e79e      	b.n	87801b92 <vsnprintf+0x422>
87801c54:	2000      	movs	r0, #0
87801c56:	b009      	add	sp, #36	; 0x24
87801c58:	e8bd 8ff0 	ldmia.w	sp!, {r4, r5, r6, r7, r8, r9, sl, fp, pc}
87801c5c:	b34b      	cbz	r3, 87801cb2 <vsnprintf+0x542>
87801c5e:	b212      	sxth	r2, r2
87801c60:	17d3      	asrs	r3, r2, #31
87801c62:	e797      	b.n	87801b94 <vsnprintf+0x424>
87801c64:	4286      	cmp	r6, r0
87801c66:	bfde      	ittt	le
87801c68:	1eb2      	suble	r2, r6, #2
87801c6a:	461e      	movle	r6, r3
87801c6c:	4613      	movle	r3, r2
87801c6e:	f77f af21 	ble.w	87801ab4 <vsnprintf+0x344>
87801c72:	1a33      	subs	r3, r6, r0
87801c74:	2220      	movs	r2, #32
87801c76:	442b      	add	r3, r5
87801c78:	4545      	cmp	r5, r8
87801c7a:	f105 0501 	add.w	r5, r5, #1
87801c7e:	bf98      	it	ls
87801c80:	f805 2c01 	strbls.w	r2, [r5, #-1]
87801c84:	429d      	cmp	r5, r3
87801c86:	d1f7      	bne.n	87801c78 <vsnprintf+0x508>
87801c88:	1e46      	subs	r6, r0, #1
87801c8a:	1e73      	subs	r3, r6, #1
87801c8c:	e712      	b.n	87801ab4 <vsnprintf+0x344>
87801c8e:	2900      	cmp	r1, #0
87801c90:	bfd8      	it	le
87801c92:	1eb1      	suble	r1, r6, #2
87801c94:	f77f af4c 	ble.w	87801b30 <vsnprintf+0x3c0>
87801c98:	4429      	add	r1, r5
87801c9a:	2320      	movs	r3, #32
87801c9c:	4545      	cmp	r5, r8
87801c9e:	f105 0501 	add.w	r5, r5, #1
87801ca2:	bf98      	it	ls
87801ca4:	f805 3c01 	strbls.w	r3, [r5, #-1]
87801ca8:	428d      	cmp	r5, r1
87801caa:	d1f7      	bne.n	87801c9c <vsnprintf+0x52c>
87801cac:	f04f 31ff 	mov.w	r1, #4294967295	; 0xffffffff
87801cb0:	e73e      	b.n	87801b30 <vsnprintf+0x3c0>
87801cb2:	b292      	uxth	r2, r2
87801cb4:	2300      	movs	r3, #0
87801cb6:	e76d      	b.n	87801b94 <vsnprintf+0x424>
87801cb8:	f047 0702 	orr.w	r7, r7, #2
87801cbc:	f10a 0e04 	add.w	lr, sl, #4
87801cc0:	f04f 0c0a 	mov.w	ip, #10
87801cc4:	e7b1      	b.n	87801c2a <vsnprintf+0x4ba>
87801cc6:	f047 0740 	orr.w	r7, r7, #64	; 0x40
87801cca:	f10a 0e04 	add.w	lr, sl, #4
87801cce:	f04f 0c10 	mov.w	ip, #16
87801cd2:	e7aa      	b.n	87801c2a <vsnprintf+0x4ba>
87801cd4:	f10a 0e04 	add.w	lr, sl, #4
87801cd8:	f04f 0c08 	mov.w	ip, #8
87801cdc:	e7a5      	b.n	87801c2a <vsnprintf+0x4ba>
87801cde:	f10a 0e04 	add.w	lr, sl, #4
87801ce2:	f04f 0c0a 	mov.w	ip, #10
87801ce6:	e7a0      	b.n	87801c2a <vsnprintf+0x4ba>
87801ce8:	4605      	mov	r5, r0
87801cea:	46b2      	mov	sl, r6
87801cec:	7860      	ldrb	r0, [r4, #1]
87801cee:	e564      	b.n	878017ba <vsnprintf+0x4a>

87801cf0 <vscnprintf>:
87801cf0:	b510      	push	{r4, lr}
87801cf2:	460c      	mov	r4, r1
87801cf4:	f7ff fd3c 	bl	87801770 <vsnprintf>
87801cf8:	42a0      	cmp	r0, r4
87801cfa:	bf28      	it	cs
87801cfc:	f104 30ff 	addcs.w	r0, r4, #4294967295	; 0xffffffff
87801d00:	bd10      	pop	{r4, pc}
87801d02:	bf00      	nop

87801d04 <snprintf>:
87801d04:	b40c      	push	{r2, r3}
87801d06:	b508      	push	{r3, lr}
87801d08:	ab03      	add	r3, sp, #12
87801d0a:	9a02      	ldr	r2, [sp, #8]
87801d0c:	f7ff fd30 	bl	87801770 <vsnprintf>
87801d10:	e8bd 4008 	ldmia.w	sp!, {r3, lr}
87801d14:	b002      	add	sp, #8
87801d16:	4770      	bx	lr

87801d18 <scnprintf>:
87801d18:	b40c      	push	{r2, r3}
87801d1a:	b510      	push	{r4, lr}
87801d1c:	460c      	mov	r4, r1
87801d1e:	ab03      	add	r3, sp, #12
87801d20:	9a02      	ldr	r2, [sp, #8]
87801d22:	f7ff fd25 	bl	87801770 <vsnprintf>
87801d26:	42a0      	cmp	r0, r4
87801d28:	bf28      	it	cs
87801d2a:	f104 30ff 	addcs.w	r0, r4, #4294967295	; 0xffffffff
87801d2e:	e8bd 4010 	ldmia.w	sp!, {r4, lr}
87801d32:	b002      	add	sp, #8
87801d34:	4770      	bx	lr
87801d36:	bf00      	nop

87801d38 <vsprintf>:
87801d38:	4613      	mov	r3, r2
87801d3a:	460a      	mov	r2, r1
87801d3c:	f06f 4100 	mvn.w	r1, #2147483648	; 0x80000000
87801d40:	f7ff bd16 	b.w	87801770 <vsnprintf>

87801d44 <sprintf>:
87801d44:	b40e      	push	{r1, r2, r3}
87801d46:	f06f 4100 	mvn.w	r1, #2147483648	; 0x80000000
87801d4a:	b500      	push	{lr}
87801d4c:	ab02      	add	r3, sp, #8
87801d4e:	9a01      	ldr	r2, [sp, #4]
87801d50:	f7ff fd0e 	bl	87801770 <vsnprintf>
87801d54:	f85d eb04 	ldr.w	lr, [sp], #4
87801d58:	b003      	add	sp, #12
87801d5a:	4770      	bx	lr

87801d5c <vsscanf>:
87801d5c:	e92d 47f0 	stmdb	sp!, {r4, r5, r6, r7, r8, r9, sl, lr}
87801d60:	f642 64dc 	movw	r4, #11996	; 0x2edc
87801d64:	780b      	ldrb	r3, [r1, #0]
87801d66:	b082      	sub	sp, #8
87801d68:	4680      	mov	r8, r0
87801d6a:	460d      	mov	r5, r1
87801d6c:	f2c8 7480 	movt	r4, #34688	; 0x8780
87801d70:	2700      	movs	r7, #0
87801d72:	b143      	cbz	r3, 87801d86 <vsscanf+0x2a>
87801d74:	7806      	ldrb	r6, [r0, #0]
87801d76:	b136      	cbz	r6, 87801d86 <vsscanf+0x2a>
87801d78:	5ce1      	ldrb	r1, [r4, r3]
87801d7a:	0689      	lsls	r1, r1, #26
87801d7c:	d407      	bmi.n	87801d8e <vsscanf+0x32>
87801d7e:	2b25      	cmp	r3, #37	; 0x25
87801d80:	d01f      	beq.n	87801dc2 <vsscanf+0x66>
87801d82:	42b3      	cmp	r3, r6
87801d84:	d017      	beq.n	87801db6 <vsscanf+0x5a>
87801d86:	4638      	mov	r0, r7
87801d88:	b002      	add	sp, #8
87801d8a:	e8bd 87f0 	ldmia.w	sp!, {r4, r5, r6, r7, r8, r9, sl, pc}
87801d8e:	f815 3f01 	ldrb.w	r3, [r5, #1]!
87801d92:	5ce1      	ldrb	r1, [r4, r3]
87801d94:	0689      	lsls	r1, r1, #26
87801d96:	d4fa      	bmi.n	87801d8e <vsscanf+0x32>
87801d98:	5da1      	ldrb	r1, [r4, r6]
87801d9a:	068e      	lsls	r6, r1, #26
87801d9c:	d504      	bpl.n	87801da8 <vsscanf+0x4c>
87801d9e:	f810 1f01 	ldrb.w	r1, [r0, #1]!
87801da2:	5c61      	ldrb	r1, [r4, r1]
87801da4:	0689      	lsls	r1, r1, #26
87801da6:	d4fa      	bmi.n	87801d9e <vsscanf+0x42>
87801da8:	2b25      	cmp	r3, #37	; 0x25
87801daa:	bf18      	it	ne
87801dac:	2b00      	cmpne	r3, #0
87801dae:	d006      	beq.n	87801dbe <vsscanf+0x62>
87801db0:	7806      	ldrb	r6, [r0, #0]
87801db2:	42b3      	cmp	r3, r6
87801db4:	d1e7      	bne.n	87801d86 <vsscanf+0x2a>
87801db6:	786b      	ldrb	r3, [r5, #1]
87801db8:	3001      	adds	r0, #1
87801dba:	3501      	adds	r5, #1
87801dbc:	e7d9      	b.n	87801d72 <vsscanf+0x16>
87801dbe:	2b00      	cmp	r3, #0
87801dc0:	d0e1      	beq.n	87801d86 <vsscanf+0x2a>
87801dc2:	786b      	ldrb	r3, [r5, #1]
87801dc4:	3501      	adds	r5, #1
87801dc6:	2b2a      	cmp	r3, #42	; 0x2a
87801dc8:	461e      	mov	r6, r3
87801dca:	5ce1      	ldrb	r1, [r4, r3]
87801dcc:	f000 81f5 	beq.w	878021ba <vsscanf+0x45e>
87801dd0:	0749      	lsls	r1, r1, #29
87801dd2:	bf58      	it	pl
87801dd4:	f04f 31ff 	movpl.w	r1, #4294967295	; 0xffffffff
87801dd8:	f100 80d0 	bmi.w	87801f7c <vsscanf+0x220>
87801ddc:	f003 06df 	and.w	r6, r3, #223	; 0xdf
87801de0:	2e5a      	cmp	r6, #90	; 0x5a
87801de2:	bf18      	it	ne
87801de4:	2e4c      	cmpne	r6, #76	; 0x4c
87801de6:	bf0c      	ite	eq
87801de8:	2601      	moveq	r6, #1
87801dea:	2600      	movne	r6, #0
87801dec:	2b68      	cmp	r3, #104	; 0x68
87801dee:	bf08      	it	eq
87801df0:	f046 0601 	orreq.w	r6, r6, #1
87801df4:	2e00      	cmp	r6, #0
87801df6:	f000 81db 	beq.w	878021b0 <vsscanf+0x454>
87801dfa:	f895 c001 	ldrb.w	ip, [r5, #1]
87801dfe:	f105 0901 	add.w	r9, r5, #1
87801e02:	459c      	cmp	ip, r3
87801e04:	f000 8193 	beq.w	8780212e <vsscanf+0x3d2>
87801e08:	f1bc 0f00 	cmp.w	ip, #0
87801e0c:	d0bb      	beq.n	87801d86 <vsscanf+0x2a>
87801e0e:	7806      	ldrb	r6, [r0, #0]
87801e10:	2e00      	cmp	r6, #0
87801e12:	d0b8      	beq.n	87801d86 <vsscanf+0x2a>
87801e14:	f1ac 0c25 	sub.w	ip, ip, #37	; 0x25
87801e18:	f109 0501 	add.w	r5, r9, #1
87801e1c:	f1bc 0f53 	cmp.w	ip, #83	; 0x53
87801e20:	d8b1      	bhi.n	87801d86 <vsscanf+0x2a>
87801e22:	f20f 0e08 	addw	lr, pc, #8
87801e26:	f85e f02c 	ldr.w	pc, [lr, ip, lsl #2]
87801e2a:	bf00      	nop
87801e2c:	87802067 	strhi	r2, [r0, r7, rrx]
87801e30:	87801d87 	strhi	r1, [r0, r7, lsl #27]
87801e34:	87801d87 	strhi	r1, [r0, r7, lsl #27]
87801e38:	87801d87 	strhi	r1, [r0, r7, lsl #27]
87801e3c:	87801d87 	strhi	r1, [r0, r7, lsl #27]
87801e40:	87801d87 	strhi	r1, [r0, r7, lsl #27]
87801e44:	87801d87 	strhi	r1, [r0, r7, lsl #27]
87801e48:	87801d87 	strhi	r1, [r0, r7, lsl #27]
87801e4c:	87801d87 	strhi	r1, [r0, r7, lsl #27]
87801e50:	87801d87 	strhi	r1, [r0, r7, lsl #27]
87801e54:	87801d87 	strhi	r1, [r0, r7, lsl #27]
87801e58:	87801d87 	strhi	r1, [r0, r7, lsl #27]
87801e5c:	87801d87 	strhi	r1, [r0, r7, lsl #27]
87801e60:	87801d87 	strhi	r1, [r0, r7, lsl #27]
87801e64:	87801d87 	strhi	r1, [r0, r7, lsl #27]
87801e68:	87801d87 	strhi	r1, [r0, r7, lsl #27]
87801e6c:	87801d87 	strhi	r1, [r0, r7, lsl #27]
87801e70:	87801d87 	strhi	r1, [r0, r7, lsl #27]
87801e74:	87801d87 	strhi	r1, [r0, r7, lsl #27]
87801e78:	87801d87 	strhi	r1, [r0, r7, lsl #27]
87801e7c:	87801d87 	strhi	r1, [r0, r7, lsl #27]
87801e80:	87801d87 	strhi	r1, [r0, r7, lsl #27]
87801e84:	87801d87 	strhi	r1, [r0, r7, lsl #27]
87801e88:	87801d87 	strhi	r1, [r0, r7, lsl #27]
87801e8c:	87801d87 	strhi	r1, [r0, r7, lsl #27]
87801e90:	87801d87 	strhi	r1, [r0, r7, lsl #27]
87801e94:	87801d87 	strhi	r1, [r0, r7, lsl #27]
87801e98:	87801d87 	strhi	r1, [r0, r7, lsl #27]
87801e9c:	87801d87 	strhi	r1, [r0, r7, lsl #27]
87801ea0:	87801d87 	strhi	r1, [r0, r7, lsl #27]
87801ea4:	87801d87 	strhi	r1, [r0, r7, lsl #27]
87801ea8:	87801d87 	strhi	r1, [r0, r7, lsl #27]
87801eac:	87801d87 	strhi	r1, [r0, r7, lsl #27]
87801eb0:	87801d87 	strhi	r1, [r0, r7, lsl #27]
87801eb4:	87801d87 	strhi	r1, [r0, r7, lsl #27]
87801eb8:	87801d87 	strhi	r1, [r0, r7, lsl #27]
87801ebc:	87801d87 	strhi	r1, [r0, r7, lsl #27]
87801ec0:	87801d87 	strhi	r1, [r0, r7, lsl #27]
87801ec4:	87801d87 	strhi	r1, [r0, r7, lsl #27]
87801ec8:	87801d87 	strhi	r1, [r0, r7, lsl #27]
87801ecc:	87801d87 	strhi	r1, [r0, r7, lsl #27]
87801ed0:	87801d87 	strhi	r1, [r0, r7, lsl #27]
87801ed4:	87801d87 	strhi	r1, [r0, r7, lsl #27]
87801ed8:	87801d87 	strhi	r1, [r0, r7, lsl #27]
87801edc:	87801d87 	strhi	r1, [r0, r7, lsl #27]
87801ee0:	87801d87 	strhi	r1, [r0, r7, lsl #27]
87801ee4:	87801d87 	strhi	r1, [r0, r7, lsl #27]
87801ee8:	87801d87 	strhi	r1, [r0, r7, lsl #27]
87801eec:	87801d87 	strhi	r1, [r0, r7, lsl #27]
87801ef0:	87801d87 	strhi	r1, [r0, r7, lsl #27]
87801ef4:	87801d87 	strhi	r1, [r0, r7, lsl #27]
87801ef8:	87802117 	usada8hi	r0, r7, r1, r2
87801efc:	87801d87 	strhi	r1, [r0, r7, lsl #27]
87801f00:	87801d87 	strhi	r1, [r0, r7, lsl #27]
87801f04:	87801d87 	strhi	r1, [r0, r7, lsl #27]
87801f08:	87801d87 	strhi	r1, [r0, r7, lsl #27]
87801f0c:	87801d87 	strhi	r1, [r0, r7, lsl #27]
87801f10:	87801d87 	strhi	r1, [r0, r7, lsl #27]
87801f14:	87801d87 	strhi	r1, [r0, r7, lsl #27]
87801f18:	87801d87 	strhi	r1, [r0, r7, lsl #27]
87801f1c:	87801d87 	strhi	r1, [r0, r7, lsl #27]
87801f20:	87801d87 	strhi	r1, [r0, r7, lsl #27]
87801f24:	878020eb 	strhi	r2, [r0, fp, ror #1]
87801f28:	87801f9b 			; <UNDEFINED> instruction: 0x87801f9b
87801f2c:	87801d87 	strhi	r1, [r0, r7, lsl #27]
87801f30:	87801d87 	strhi	r1, [r0, r7, lsl #27]
87801f34:	87801d87 	strhi	r1, [r0, r7, lsl #27]
87801f38:	87801d87 	strhi	r1, [r0, r7, lsl #27]
87801f3c:	87802123 	strhi	r2, [r0, r3, lsr #2]
87801f40:	87801d87 	strhi	r1, [r0, r7, lsl #27]
87801f44:	87801d87 	strhi	r1, [r0, r7, lsl #27]
87801f48:	87801d87 	strhi	r1, [r0, r7, lsl #27]
87801f4c:	87801d87 	strhi	r1, [r0, r7, lsl #27]
87801f50:	87802075 			; <UNDEFINED> instruction: 0x87802075
87801f54:	87802085 	strhi	r2, [r0, r5, lsl #1]
87801f58:	87801d87 	strhi	r1, [r0, r7, lsl #27]
87801f5c:	87801d87 	strhi	r1, [r0, r7, lsl #27]
87801f60:	87801d87 	strhi	r1, [r0, r7, lsl #27]
87801f64:	87802091 			; <UNDEFINED> instruction: 0x87802091
87801f68:	87801d87 	strhi	r1, [r0, r7, lsl #27]
87801f6c:	878020df 			; <UNDEFINED> instruction: 0x878020df
87801f70:	87801d87 	strhi	r1, [r0, r7, lsl #27]
87801f74:	87801d87 	strhi	r1, [r0, r7, lsl #27]
87801f78:	87802117 	usada8hi	r0, r7, r1, r2
87801f7c:	2100      	movs	r1, #0
87801f7e:	eb01 0181 	add.w	r1, r1, r1, lsl #2
87801f82:	eb06 0141 	add.w	r1, r6, r1, lsl #1
87801f86:	f815 6f01 	ldrb.w	r6, [r5, #1]!
87801f8a:	3930      	subs	r1, #48	; 0x30
87801f8c:	f814 c006 	ldrb.w	ip, [r4, r6]
87801f90:	4633      	mov	r3, r6
87801f92:	f01c 0f04 	tst.w	ip, #4
87801f96:	d1f2      	bne.n	87801f7e <vsscanf+0x222>
87801f98:	e720      	b.n	87801ddc <vsscanf+0x80>
87801f9a:	f04f 0a01 	mov.w	sl, #1
87801f9e:	f04f 0c0a 	mov.w	ip, #10
87801fa2:	46d6      	mov	lr, sl
87801fa4:	5da1      	ldrb	r1, [r4, r6]
87801fa6:	0689      	lsls	r1, r1, #26
87801fa8:	f140 8127 	bpl.w	878021fa <vsscanf+0x49e>
87801fac:	f810 6f01 	ldrb.w	r6, [r0, #1]!
87801fb0:	5da1      	ldrb	r1, [r4, r6]
87801fb2:	0689      	lsls	r1, r1, #26
87801fb4:	d4fa      	bmi.n	87801fac <vsscanf+0x250>
87801fb6:	2e2d      	cmp	r6, #45	; 0x2d
87801fb8:	bf14      	ite	ne
87801fba:	2100      	movne	r1, #0
87801fbc:	f00a 0101 	andeq.w	r1, sl, #1
87801fc0:	b101      	cbz	r1, 87801fc4 <vsscanf+0x268>
87801fc2:	7846      	ldrb	r6, [r0, #1]
87801fc4:	2e00      	cmp	r6, #0
87801fc6:	f43f aede 	beq.w	87801d86 <vsscanf+0x2a>
87801fca:	f1bc 0f10 	cmp.w	ip, #16
87801fce:	f000 80e9 	beq.w	878021a4 <vsscanf+0x448>
87801fd2:	f1bc 0f0a 	cmp.w	ip, #10
87801fd6:	f000 80e0 	beq.w	8780219a <vsscanf+0x43e>
87801fda:	f1bc 0f08 	cmp.w	ip, #8
87801fde:	f040 80d8 	bne.w	87802192 <vsscanf+0x436>
87801fe2:	5da1      	ldrb	r1, [r4, r6]
87801fe4:	f081 0104 	eor.w	r1, r1, #4
87801fe8:	f3c1 0180 	ubfx	r1, r1, #2, #1
87801fec:	2e37      	cmp	r6, #55	; 0x37
87801fee:	bf94      	ite	ls
87801ff0:	460e      	movls	r6, r1
87801ff2:	f041 0601 	orrhi.w	r6, r1, #1
87801ff6:	2e00      	cmp	r6, #0
87801ff8:	f47f aec5 	bne.w	87801d86 <vsscanf+0x2a>
87801ffc:	3b48      	subs	r3, #72	; 0x48
87801ffe:	1d16      	adds	r6, r2, #4
87802000:	f8d2 a000 	ldr.w	sl, [r2]
87802004:	2b32      	cmp	r3, #50	; 0x32
87802006:	d81b      	bhi.n	87802040 <vsscanf+0x2e4>
87802008:	e8df f003 	tbb	[pc, r3]
8780200c:	1a1a1ab9 	bne	87e88af8 <__bss_end+0x684dd0>
87802010:	1a1a1aaf 	bne	87e88ad4 <__bss_end+0x684dac>
87802014:	1a1a1a1a 	bne	87e88884 <__bss_end+0x684b5c>
87802018:	1a1a1a1a 	bne	87e88888 <__bss_end+0x684b60>
8780201c:	1aa81a1a 	bne	8620888c <shift+0x8620888c>
87802020:	1a1a1a1a 	bne	87e88890 <__bss_end+0x684b68>
87802024:	1a1a1a1a 	bne	87e88894 <__bss_end+0x684b6c>
87802028:	1a1a1a1a 	bne	87e88898 <__bss_end+0x684b70>
8780202c:	1a1a1a9e 	bne	87e88aac <__bss_end+0x684d84>
87802030:	1a1a1a1a 	bne	87e888a0 <__bss_end+0x684b78>
87802034:	1a1a1a1a 	bne	87e888a4 <__bss_end+0x684b7c>
87802038:	1a1a1a1a 	bne	87e888a8 <__bss_end+0x684b80>
8780203c:	00a81a1a 	adceq	r1, r8, sl, lsl sl
87802040:	4662      	mov	r2, ip
87802042:	a901      	add	r1, sp, #4
87802044:	f1be 0f00 	cmp.w	lr, #0
87802048:	f000 80d2 	beq.w	878021f0 <vsscanf+0x494>
8780204c:	f7ff fadc 	bl	87801608 <simple_strtol>
87802050:	f8ca 0000 	str.w	r0, [sl]
87802054:	9801      	ldr	r0, [sp, #4]
87802056:	3701      	adds	r7, #1
87802058:	2800      	cmp	r0, #0
8780205a:	f43f ae94 	beq.w	87801d86 <vsscanf+0x2a>
8780205e:	f899 3001 	ldrb.w	r3, [r9, #1]
87802062:	4632      	mov	r2, r6
87802064:	e685      	b.n	87801d72 <vsscanf+0x16>
87802066:	2e25      	cmp	r6, #37	; 0x25
87802068:	f47f ae8d 	bne.w	87801d86 <vsscanf+0x2a>
8780206c:	3001      	adds	r0, #1
8780206e:	f899 3001 	ldrb.w	r3, [r9, #1]
87802072:	e67e      	b.n	87801d72 <vsscanf+0x16>
87802074:	6813      	ldr	r3, [r2, #0]
87802076:	eba0 0108 	sub.w	r1, r0, r8
8780207a:	3204      	adds	r2, #4
8780207c:	6019      	str	r1, [r3, #0]
8780207e:	f899 3001 	ldrb.w	r3, [r9, #1]
87802082:	e676      	b.n	87801d72 <vsscanf+0x16>
87802084:	f04f 0a00 	mov.w	sl, #0
87802088:	f04f 0c08 	mov.w	ip, #8
8780208c:	46d6      	mov	lr, sl
8780208e:	e789      	b.n	87801fa4 <vsscanf+0x248>
87802090:	f102 0e04 	add.w	lr, r2, #4
87802094:	f8d2 c000 	ldr.w	ip, [r2]
87802098:	1c4a      	adds	r2, r1, #1
8780209a:	5da3      	ldrb	r3, [r4, r6]
8780209c:	f000 80cb 	beq.w	87802236 <vsscanf+0x4da>
878020a0:	069b      	lsls	r3, r3, #26
878020a2:	d505      	bpl.n	878020b0 <vsscanf+0x354>
878020a4:	f810 6f01 	ldrb.w	r6, [r0, #1]!
878020a8:	5da3      	ldrb	r3, [r4, r6]
878020aa:	069a      	lsls	r2, r3, #26
878020ac:	d4fa      	bmi.n	878020a4 <vsscanf+0x348>
878020ae:	b176      	cbz	r6, 878020ce <vsscanf+0x372>
878020b0:	b169      	cbz	r1, 878020ce <vsscanf+0x372>
878020b2:	1c43      	adds	r3, r0, #1
878020b4:	e004      	b.n	878020c0 <vsscanf+0x364>
878020b6:	5da2      	ldrb	r2, [r4, r6]
878020b8:	0692      	lsls	r2, r2, #26
878020ba:	d408      	bmi.n	878020ce <vsscanf+0x372>
878020bc:	3901      	subs	r1, #1
878020be:	d006      	beq.n	878020ce <vsscanf+0x372>
878020c0:	f80c 6b01 	strb.w	r6, [ip], #1
878020c4:	4618      	mov	r0, r3
878020c6:	f813 6b01 	ldrb.w	r6, [r3], #1
878020ca:	2e00      	cmp	r6, #0
878020cc:	d1f3      	bne.n	878020b6 <vsscanf+0x35a>
878020ce:	2300      	movs	r3, #0
878020d0:	3701      	adds	r7, #1
878020d2:	f88c 3000 	strb.w	r3, [ip]
878020d6:	4672      	mov	r2, lr
878020d8:	f899 3001 	ldrb.w	r3, [r9, #1]
878020dc:	e649      	b.n	87801d72 <vsscanf+0x16>
878020de:	f04f 0a00 	mov.w	sl, #0
878020e2:	f04f 0c0a 	mov.w	ip, #10
878020e6:	46d6      	mov	lr, sl
878020e8:	e75c      	b.n	87801fa4 <vsscanf+0x248>
878020ea:	1c4b      	adds	r3, r1, #1
878020ec:	f102 0c04 	add.w	ip, r2, #4
878020f0:	6812      	ldr	r2, [r2, #0]
878020f2:	f000 80a6 	beq.w	87802242 <vsscanf+0x4e6>
878020f6:	1c43      	adds	r3, r0, #1
878020f8:	3901      	subs	r1, #1
878020fa:	f802 6b01 	strb.w	r6, [r2], #1
878020fe:	2900      	cmp	r1, #0
87802100:	4618      	mov	r0, r3
87802102:	dd03      	ble.n	8780210c <vsscanf+0x3b0>
87802104:	f813 6b01 	ldrb.w	r6, [r3], #1
87802108:	2e00      	cmp	r6, #0
8780210a:	d1f5      	bne.n	878020f8 <vsscanf+0x39c>
8780210c:	3701      	adds	r7, #1
8780210e:	f899 3001 	ldrb.w	r3, [r9, #1]
87802112:	4662      	mov	r2, ip
87802114:	e62d      	b.n	87801d72 <vsscanf+0x16>
87802116:	f04f 0a00 	mov.w	sl, #0
8780211a:	f04f 0c10 	mov.w	ip, #16
8780211e:	46d6      	mov	lr, sl
87802120:	e740      	b.n	87801fa4 <vsscanf+0x248>
87802122:	f04f 0a01 	mov.w	sl, #1
87802126:	f04f 0c00 	mov.w	ip, #0
8780212a:	46d6      	mov	lr, sl
8780212c:	e73a      	b.n	87801fa4 <vsscanf+0x248>
8780212e:	2b68      	cmp	r3, #104	; 0x68
87802130:	d07b      	beq.n	8780222a <vsscanf+0x4ce>
87802132:	2b6c      	cmp	r3, #108	; 0x6c
87802134:	bf18      	it	ne
87802136:	469c      	movne	ip, r3
87802138:	f47f ae66 	bne.w	87801e08 <vsscanf+0xac>
8780213c:	f105 0902 	add.w	r9, r5, #2
87802140:	f895 c002 	ldrb.w	ip, [r5, #2]
87802144:	234c      	movs	r3, #76	; 0x4c
87802146:	e65f      	b.n	87801e08 <vsscanf+0xac>
87802148:	4662      	mov	r2, ip
8780214a:	a901      	add	r1, sp, #4
8780214c:	f1be 0f00 	cmp.w	lr, #0
87802150:	d066      	beq.n	87802220 <vsscanf+0x4c4>
87802152:	f7ff fa59 	bl	87801608 <simple_strtol>
87802156:	f8aa 0000 	strh.w	r0, [sl]
8780215a:	e77b      	b.n	87802054 <vsscanf+0x2f8>
8780215c:	4662      	mov	r2, ip
8780215e:	a901      	add	r1, sp, #4
87802160:	f7ff f9da 	bl	87801518 <simple_strtoul>
87802164:	f8ca 0000 	str.w	r0, [sl]
87802168:	e774      	b.n	87802054 <vsscanf+0x2f8>
8780216a:	4662      	mov	r2, ip
8780216c:	a901      	add	r1, sp, #4
8780216e:	f1be 0f00 	cmp.w	lr, #0
87802172:	d050      	beq.n	87802216 <vsscanf+0x4ba>
87802174:	f7ff faec 	bl	87801750 <simple_strtoll>
87802178:	e9ca 0100 	strd	r0, r1, [sl]
8780217c:	e76a      	b.n	87802054 <vsscanf+0x2f8>
8780217e:	4662      	mov	r2, ip
87802180:	a901      	add	r1, sp, #4
87802182:	f1be 0f00 	cmp.w	lr, #0
87802186:	d041      	beq.n	8780220c <vsscanf+0x4b0>
87802188:	f7ff fa3e 	bl	87801608 <simple_strtol>
8780218c:	f88a 0000 	strb.w	r0, [sl]
87802190:	e760      	b.n	87802054 <vsscanf+0x2f8>
87802192:	f1bc 0f00 	cmp.w	ip, #0
87802196:	f47f af31 	bne.w	87801ffc <vsscanf+0x2a0>
8780219a:	5da1      	ldrb	r1, [r4, r6]
8780219c:	0749      	lsls	r1, r1, #29
8780219e:	f57f adf2 	bpl.w	87801d86 <vsscanf+0x2a>
878021a2:	e72b      	b.n	87801ffc <vsscanf+0x2a0>
878021a4:	5da1      	ldrb	r1, [r4, r6]
878021a6:	f011 0f44 	tst.w	r1, #68	; 0x44
878021aa:	f47f af27 	bne.w	87801ffc <vsscanf+0x2a0>
878021ae:	e5ea      	b.n	87801d86 <vsscanf+0x2a>
878021b0:	469c      	mov	ip, r3
878021b2:	46a9      	mov	r9, r5
878021b4:	f04f 33ff 	mov.w	r3, #4294967295	; 0xffffffff
878021b8:	e626      	b.n	87801e08 <vsscanf+0xac>
878021ba:	068e      	lsls	r6, r1, #26
878021bc:	d40a      	bmi.n	878021d4 <vsscanf+0x478>
878021be:	f815 3f01 	ldrb.w	r3, [r5, #1]!
878021c2:	5ce1      	ldrb	r1, [r4, r3]
878021c4:	1c1e      	adds	r6, r3, #0
878021c6:	bf18      	it	ne
878021c8:	2601      	movne	r6, #1
878021ca:	f081 0120 	eor.w	r1, r1, #32
878021ce:	ea16 1151 	ands.w	r1, r6, r1, lsr #5
878021d2:	d1f4      	bne.n	878021be <vsscanf+0x462>
878021d4:	7801      	ldrb	r1, [r0, #0]
878021d6:	e001      	b.n	878021dc <vsscanf+0x480>
878021d8:	f810 1f01 	ldrb.w	r1, [r0, #1]!
878021dc:	5c66      	ldrb	r6, [r4, r1]
878021de:	3100      	adds	r1, #0
878021e0:	bf18      	it	ne
878021e2:	2101      	movne	r1, #1
878021e4:	f086 0620 	eor.w	r6, r6, #32
878021e8:	ea11 1156 	ands.w	r1, r1, r6, lsr #5
878021ec:	d1f4      	bne.n	878021d8 <vsscanf+0x47c>
878021ee:	e5c0      	b.n	87801d72 <vsscanf+0x16>
878021f0:	f7ff f992 	bl	87801518 <simple_strtoul>
878021f4:	f8ca 0000 	str.w	r0, [sl]
878021f8:	e72c      	b.n	87802054 <vsscanf+0x2f8>
878021fa:	2e2d      	cmp	r6, #45	; 0x2d
878021fc:	bf14      	ite	ne
878021fe:	2100      	movne	r1, #0
87802200:	f00a 0101 	andeq.w	r1, sl, #1
87802204:	2900      	cmp	r1, #0
87802206:	f47f aedc 	bne.w	87801fc2 <vsscanf+0x266>
8780220a:	e6de      	b.n	87801fca <vsscanf+0x26e>
8780220c:	f7ff f984 	bl	87801518 <simple_strtoul>
87802210:	f88a 0000 	strb.w	r0, [sl]
87802214:	e71e      	b.n	87802054 <vsscanf+0x2f8>
87802216:	f7ff fa05 	bl	87801624 <simple_strtoull>
8780221a:	e9ca 0100 	strd	r0, r1, [sl]
8780221e:	e719      	b.n	87802054 <vsscanf+0x2f8>
87802220:	f7ff f97a 	bl	87801518 <simple_strtoul>
87802224:	f8aa 0000 	strh.w	r0, [sl]
87802228:	e714      	b.n	87802054 <vsscanf+0x2f8>
8780222a:	f105 0902 	add.w	r9, r5, #2
8780222e:	f895 c002 	ldrb.w	ip, [r5, #2]
87802232:	2348      	movs	r3, #72	; 0x48
87802234:	e5e8      	b.n	87801e08 <vsscanf+0xac>
87802236:	069b      	lsls	r3, r3, #26
87802238:	f06f 4100 	mvn.w	r1, #2147483648	; 0x80000000
8780223c:	f57f af39 	bpl.w	878020b2 <vsscanf+0x356>
87802240:	e730      	b.n	878020a4 <vsscanf+0x348>
87802242:	3001      	adds	r0, #1
87802244:	7016      	strb	r6, [r2, #0]
87802246:	e761      	b.n	8780210c <vsscanf+0x3b0>

87802248 <sscanf>:
87802248:	b40e      	push	{r1, r2, r3}
8780224a:	b500      	push	{lr}
8780224c:	aa02      	add	r2, sp, #8
8780224e:	9901      	ldr	r1, [sp, #4]
87802250:	f7ff fd84 	bl	87801d5c <vsscanf>
87802254:	f85d eb04 	ldr.w	lr, [sp], #4
87802258:	b003      	add	sp, #12
8780225a:	4770      	bx	lr

8780225c <imx6ul_hardfpu_enable>:
8780225c:	ee11 3f50 	mrc	15, 0, r3, cr1, cr0, {2}
87802260:	f023 4340 	bic.w	r3, r3, #3221225472	; 0xc0000000
87802264:	f423 0370 	bic.w	r3, r3, #15728640	; 0xf00000
87802268:	f443 0370 	orr.w	r3, r3, #15728640	; 0xf00000
8780226c:	ee01 3f50 	mcr	15, 0, r3, cr1, cr0, {2}
87802270:	eef8 3a10 	vmrs	r3, fpexc
87802274:	f043 4380 	orr.w	r3, r3, #1073741824	; 0x40000000
87802278:	eee8 3a10 	vmsr	fpexc, r3
8780227c:	4770      	bx	lr
8780227e:	bf00      	nop

87802280 <uart_init>:
87802280:	2284      	movs	r2, #132	; 0x84
87802282:	b430      	push	{r4, r5}
87802284:	f2c0 220e 	movt	r2, #526	; 0x20e
87802288:	2500      	movs	r5, #0
8780228a:	2088      	movs	r0, #136	; 0x88
8780228c:	f240 6424 	movw	r4, #1572	; 0x624
87802290:	6015      	str	r5, [r2, #0]
87802292:	f2c0 200e 	movt	r0, #526	; 0x20e
87802296:	462a      	mov	r2, r5
87802298:	f44f 7344 	mov.w	r3, #784	; 0x310
8780229c:	f44f 7145 	mov.w	r1, #788	; 0x314
878022a0:	6005      	str	r5, [r0, #0]
878022a2:	f2c0 2202 	movt	r2, #514	; 0x202
878022a6:	f2c0 230e 	movt	r3, #526	; 0x20e
878022aa:	f2c0 210e 	movt	r1, #526	; 0x20e
878022ae:	f241 00b0 	movw	r0, #4272	; 0x10b0
878022b2:	f2c0 240e 	movt	r4, #526	; 0x20e
878022b6:	2503      	movs	r5, #3
878022b8:	6025      	str	r5, [r4, #0]
878022ba:	6018      	str	r0, [r3, #0]
878022bc:	4613      	mov	r3, r2
878022be:	6008      	str	r0, [r1, #0]
878022c0:	f8d2 1080 	ldr.w	r1, [r2, #128]	; 0x80
878022c4:	f021 0101 	bic.w	r1, r1, #1
878022c8:	f8c2 1080 	str.w	r1, [r2, #128]	; 0x80
878022cc:	f8d2 1084 	ldr.w	r1, [r2, #132]	; 0x84
878022d0:	f021 0101 	bic.w	r1, r1, #1
878022d4:	f8c2 1084 	str.w	r1, [r2, #132]	; 0x84
878022d8:	f8d3 2084 	ldr.w	r2, [r3, #132]	; 0x84
878022dc:	07d2      	lsls	r2, r2, #31
878022de:	d5fb      	bpl.n	878022d8 <uart_init+0x58>
878022e0:	2200      	movs	r2, #0
878022e2:	f44f 7420 	mov.w	r4, #640	; 0x280
878022e6:	f8c3 2080 	str.w	r2, [r3, #128]	; 0x80
878022ea:	2047      	movs	r0, #71	; 0x47
878022ec:	f8d3 2084 	ldr.w	r2, [r3, #132]	; 0x84
878022f0:	f640 4134 	movw	r1, #3124	; 0xc34
878022f4:	f442 4280 	orr.w	r2, r2, #16384	; 0x4000
878022f8:	f042 0226 	orr.w	r2, r2, #38	; 0x26
878022fc:	f8c3 2084 	str.w	r2, [r3, #132]	; 0x84
87802300:	f8d3 2088 	ldr.w	r2, [r3, #136]	; 0x88
87802304:	f042 0204 	orr.w	r2, r2, #4
87802308:	f8c3 2088 	str.w	r2, [r3, #136]	; 0x88
8780230c:	f8d3 2080 	ldr.w	r2, [r3, #128]	; 0x80
87802310:	f422 4280 	bic.w	r2, r2, #16384	; 0x4000
87802314:	f8c3 2080 	str.w	r2, [r3, #128]	; 0x80
87802318:	f8c3 4090 	str.w	r4, [r3, #144]	; 0x90
8780231c:	f8c3 00a4 	str.w	r0, [r3, #164]	; 0xa4
87802320:	f8c3 10a8 	str.w	r1, [r3, #168]	; 0xa8
87802324:	f8d3 2080 	ldr.w	r2, [r3, #128]	; 0x80
87802328:	f042 0201 	orr.w	r2, r2, #1
8780232c:	f8c3 2080 	str.w	r2, [r3, #128]	; 0x80
87802330:	bc30      	pop	{r4, r5}
87802332:	4770      	bx	lr

87802334 <uart_io_init>:
87802334:	b430      	push	{r4, r5}
87802336:	2288      	movs	r2, #136	; 0x88
87802338:	2584      	movs	r5, #132	; 0x84
8780233a:	2400      	movs	r4, #0
8780233c:	f2c0 250e 	movt	r5, #526	; 0x20e
87802340:	f2c0 220e 	movt	r2, #526	; 0x20e
87802344:	f240 6024 	movw	r0, #1572	; 0x624
87802348:	f44f 7144 	mov.w	r1, #784	; 0x310
8780234c:	f44f 7345 	mov.w	r3, #788	; 0x314
87802350:	602c      	str	r4, [r5, #0]
87802352:	f2c0 200e 	movt	r0, #526	; 0x20e
87802356:	6014      	str	r4, [r2, #0]
87802358:	2503      	movs	r5, #3
8780235a:	f241 02b0 	movw	r2, #4272	; 0x10b0
8780235e:	f2c0 210e 	movt	r1, #526	; 0x20e
87802362:	f2c0 230e 	movt	r3, #526	; 0x20e
87802366:	6005      	str	r5, [r0, #0]
87802368:	600a      	str	r2, [r1, #0]
8780236a:	601a      	str	r2, [r3, #0]
8780236c:	bc30      	pop	{r4, r5}
8780236e:	4770      	bx	lr

87802370 <uart_setbaudrate>:
87802370:	e92d 4ff0 	stmdb	sp!, {r4, r5, r6, r7, r8, r9, sl, fp, lr}
87802374:	010c      	lsls	r4, r1, #4
87802376:	b089      	sub	sp, #36	; 0x24
87802378:	460e      	mov	r6, r1
8780237a:	4680      	mov	r8, r0
8780237c:	4617      	mov	r7, r2
8780237e:	bf08      	it	eq
87802380:	4615      	moveq	r5, r2
87802382:	d013      	beq.n	878023ac <uart_setbaudrate+0x3c>
87802384:	46a1      	mov	r9, r4
87802386:	4610      	mov	r0, r2
87802388:	e000      	b.n	8780238c <uart_setbaudrate+0x1c>
8780238a:	4689      	mov	r9, r1
8780238c:	4649      	mov	r1, r9
8780238e:	f000 fbf5 	bl	87802b7c <__aeabi_uidivmod>
87802392:	4648      	mov	r0, r9
87802394:	2900      	cmp	r1, #0
87802396:	d1f8      	bne.n	8780238a <uart_setbaudrate+0x1a>
87802398:	4649      	mov	r1, r9
8780239a:	4638      	mov	r0, r7
8780239c:	f000 fac0 	bl	87802920 <__aeabi_uidiv>
878023a0:	4649      	mov	r1, r9
878023a2:	4605      	mov	r5, r0
878023a4:	4620      	mov	r0, r4
878023a6:	f000 fabb 	bl	87802920 <__aeabi_uidiv>
878023aa:	4604      	mov	r4, r0
878023ac:	f64f 79f9 	movw	r9, #65529	; 0xfff9
878023b0:	1e69      	subs	r1, r5, #1
878023b2:	f2c0 0906 	movt	r9, #6
878023b6:	454d      	cmp	r5, r9
878023b8:	bf98      	it	ls
878023ba:	f5b4 3f80 	cmpls.w	r4, #65536	; 0x10000
878023be:	bf2c      	ite	cs
878023c0:	f04f 0901 	movcs.w	r9, #1
878023c4:	f04f 0900 	movcc.w	r9, #0
878023c8:	f080 8086 	bcs.w	878024d8 <uart_setbaudrate+0x168>
878023cc:	f248 0201 	movw	r2, #32769	; 0x8001
878023d0:	ea4f 1a05 	mov.w	sl, r5, lsl #4
878023d4:	f2c8 0200 	movt	r2, #32768	; 0x8000
878023d8:	f8cd 9008 	str.w	r9, [sp, #8]
878023dc:	fba1 2302 	umull	r2, r3, r1, r2
878023e0:	4650      	mov	r0, sl
878023e2:	46a3      	mov	fp, r4
878023e4:	0bdb      	lsrs	r3, r3, #15
878023e6:	1e59      	subs	r1, r3, #1
878023e8:	3301      	adds	r3, #1
878023ea:	9306      	str	r3, [sp, #24]
878023ec:	2905      	cmp	r1, #5
878023ee:	46b9      	mov	r9, r7
878023f0:	bf97      	itett	ls
878023f2:	f642 63bc 	movwls	r3, #11964	; 0x2ebc
878023f6:	2305      	movhi	r3, #5
878023f8:	f2c8 7380 	movtls	r3, #34688	; 0x8780
878023fc:	f853 3021 	ldrls.w	r3, [r3, r1, lsl #2]
87802400:	9307      	str	r3, [sp, #28]
87802402:	2300      	movs	r3, #0
87802404:	f1ba 0f00 	cmp.w	sl, #0
87802408:	d01d      	beq.n	87802446 <uart_setbaudrate+0xd6>
8780240a:	46a1      	mov	r9, r4
8780240c:	4638      	mov	r0, r7
8780240e:	4654      	mov	r4, sl
87802410:	f8cd a010 	str.w	sl, [sp, #16]
87802414:	2300      	movs	r3, #0
87802416:	4622      	mov	r2, r4
87802418:	4619      	mov	r1, r3
8780241a:	f000 fc0d 	bl	87802c38 <__aeabi_uldivmod>
8780241e:	4620      	mov	r0, r4
87802420:	2300      	movs	r3, #0
87802422:	4614      	mov	r4, r2
87802424:	2a00      	cmp	r2, #0
87802426:	d1f5      	bne.n	87802414 <uart_setbaudrate+0xa4>
87802428:	464c      	mov	r4, r9
8780242a:	4681      	mov	r9, r0
8780242c:	4649      	mov	r1, r9
8780242e:	9804      	ldr	r0, [sp, #16]
87802430:	9305      	str	r3, [sp, #20]
87802432:	f000 fa75 	bl	87802920 <__aeabi_uidiv>
87802436:	4649      	mov	r1, r9
87802438:	9004      	str	r0, [sp, #16]
8780243a:	4638      	mov	r0, r7
8780243c:	f000 fa70 	bl	87802920 <__aeabi_uidiv>
87802440:	4681      	mov	r9, r0
87802442:	e9dd 0304 	ldrd	r0, r3, [sp, #16]
87802446:	fb0b fc03 	mul.w	ip, fp, r3
8780244a:	9f02      	ldr	r7, [sp, #8]
8780244c:	4602      	mov	r2, r0
8780244e:	2300      	movs	r3, #0
87802450:	fbab 0109 	umull	r0, r1, fp, r9
87802454:	fb09 c907 	mla	r9, r9, r7, ip
87802458:	4449      	add	r1, r9
8780245a:	f000 fbed 	bl	87802c38 <__aeabi_uldivmod>
8780245e:	2300      	movs	r3, #0
87802460:	4299      	cmp	r1, r3
87802462:	bf08      	it	eq
87802464:	42b0      	cmpeq	r0, r6
87802466:	d331      	bcc.n	878024cc <uart_setbaudrate+0x15c>
87802468:	1b87      	subs	r7, r0, r6
8780246a:	eb61 0303 	sbc.w	r3, r1, r3
8780246e:	9700      	str	r7, [sp, #0]
87802470:	9301      	str	r3, [sp, #4]
87802472:	f248 531f 	movw	r3, #34079	; 0x851f
87802476:	e9dd 0100 	ldrd	r0, r1, [sp]
8780247a:	f2c5 13eb 	movt	r3, #20971	; 0x51eb
8780247e:	fba6 6703 	umull	r6, r7, r6, r3
87802482:	2300      	movs	r3, #0
87802484:	4299      	cmp	r1, r3
87802486:	ea4f 1257 	mov.w	r2, r7, lsr #5
8780248a:	eb02 0242 	add.w	r2, r2, r2, lsl #1
8780248e:	bf08      	it	eq
87802490:	4290      	cmpeq	r0, r2
87802492:	d218      	bcs.n	878024c6 <uart_setbaudrate+0x156>
87802494:	f8d8 3090 	ldr.w	r3, [r8, #144]	; 0x90
87802498:	3c01      	subs	r4, #1
8780249a:	9a07      	ldr	r2, [sp, #28]
8780249c:	b2a4      	uxth	r4, r4
8780249e:	9906      	ldr	r1, [sp, #24]
878024a0:	4628      	mov	r0, r5
878024a2:	f423 7360 	bic.w	r3, r3, #896	; 0x380
878024a6:	f8c8 3090 	str.w	r3, [r8, #144]	; 0x90
878024aa:	f8d8 3090 	ldr.w	r3, [r8, #144]	; 0x90
878024ae:	ea43 13c2 	orr.w	r3, r3, r2, lsl #7
878024b2:	f8c8 3090 	str.w	r3, [r8, #144]	; 0x90
878024b6:	f8c8 40a4 	str.w	r4, [r8, #164]	; 0xa4
878024ba:	f000 fa31 	bl	87802920 <__aeabi_uidiv>
878024be:	3801      	subs	r0, #1
878024c0:	b280      	uxth	r0, r0
878024c2:	f8c8 00a8 	str.w	r0, [r8, #168]	; 0xa8
878024c6:	b009      	add	sp, #36	; 0x24
878024c8:	e8bd 8ff0 	ldmia.w	sp!, {r4, r5, r6, r7, r8, r9, sl, fp, pc}
878024cc:	1a37      	subs	r7, r6, r0
878024ce:	eb63 0301 	sbc.w	r3, r3, r1
878024d2:	9700      	str	r7, [sp, #0]
878024d4:	9301      	str	r3, [sp, #4]
878024d6:	e7cc      	b.n	87802472 <uart_setbaudrate+0x102>
878024d8:	f646 52b9 	movw	r2, #28089	; 0x6db9
878024dc:	f248 0901 	movw	r9, #32769	; 0x8001
878024e0:	f2c2 4293 	movt	r2, #9363	; 0x2493
878024e4:	f104 3aff 	add.w	sl, r4, #4294967295	; 0xffffffff
878024e8:	fba1 2302 	umull	r2, r3, r1, r2
878024ec:	f2c8 0900 	movt	r9, #32768	; 0x8000
878024f0:	4628      	mov	r0, r5
878024f2:	fbaa ab09 	umull	sl, fp, sl, r9
878024f6:	e9cd 2302 	strd	r2, r3, [sp, #8]
878024fa:	1aca      	subs	r2, r1, r3
878024fc:	9b03      	ldr	r3, [sp, #12]
878024fe:	ea4f 3adb 	mov.w	sl, fp, lsr #15
87802502:	eb03 0352 	add.w	r3, r3, r2, lsr #1
87802506:	f10a 0a01 	add.w	sl, sl, #1
8780250a:	0c9a      	lsrs	r2, r3, #18
8780250c:	1c53      	adds	r3, r2, #1
8780250e:	459a      	cmp	sl, r3
87802510:	bf38      	it	cc
87802512:	469a      	movcc	sl, r3
87802514:	4651      	mov	r1, sl
87802516:	f000 fa03 	bl	87802920 <__aeabi_uidiv>
8780251a:	4605      	mov	r5, r0
8780251c:	4651      	mov	r1, sl
8780251e:	4620      	mov	r0, r4
87802520:	f000 f9fe 	bl	87802920 <__aeabi_uidiv>
87802524:	4604      	mov	r4, r0
87802526:	b96d      	cbnz	r5, 87802544 <uart_setbaudrate+0x1d4>
87802528:	b1e0      	cbz	r0, 87802564 <uart_setbaudrate+0x1f4>
8780252a:	4683      	mov	fp, r0
8780252c:	9502      	str	r5, [sp, #8]
8780252e:	2310      	movs	r3, #16
87802530:	2501      	movs	r5, #1
87802532:	469a      	mov	sl, r3
87802534:	9304      	str	r3, [sp, #16]
87802536:	2305      	movs	r3, #5
87802538:	46a1      	mov	r9, r4
8780253a:	9506      	str	r5, [sp, #24]
8780253c:	4638      	mov	r0, r7
8780253e:	9307      	str	r3, [sp, #28]
87802540:	4654      	mov	r4, sl
87802542:	e767      	b.n	87802414 <uart_setbaudrate+0xa4>
87802544:	1e6a      	subs	r2, r5, #1
87802546:	ea4f 1a05 	mov.w	sl, r5, lsl #4
8780254a:	fba2 2309 	umull	r2, r3, r2, r9
8780254e:	4650      	mov	r0, sl
87802550:	0bdb      	lsrs	r3, r3, #15
87802552:	1e59      	subs	r1, r3, #1
87802554:	3301      	adds	r3, #1
87802556:	9306      	str	r3, [sp, #24]
87802558:	b94c      	cbnz	r4, 8780256e <uart_setbaudrate+0x1fe>
8780255a:	f04f 0b01 	mov.w	fp, #1
8780255e:	9402      	str	r4, [sp, #8]
87802560:	465c      	mov	r4, fp
87802562:	e743      	b.n	878023ec <uart_setbaudrate+0x7c>
87802564:	f04f 0b01 	mov.w	fp, #1
87802568:	9002      	str	r0, [sp, #8]
8780256a:	465c      	mov	r4, fp
8780256c:	e7df      	b.n	8780252e <uart_setbaudrate+0x1be>
8780256e:	2300      	movs	r3, #0
87802570:	46a3      	mov	fp, r4
87802572:	9302      	str	r3, [sp, #8]
87802574:	e73a      	b.n	878023ec <uart_setbaudrate+0x7c>
87802576:	bf00      	nop

87802578 <uart_disable>:
87802578:	f8d0 3080 	ldr.w	r3, [r0, #128]	; 0x80
8780257c:	f023 0301 	bic.w	r3, r3, #1
87802580:	f8c0 3080 	str.w	r3, [r0, #128]	; 0x80
87802584:	4770      	bx	lr
87802586:	bf00      	nop

87802588 <uart_enable>:
87802588:	f8d0 3080 	ldr.w	r3, [r0, #128]	; 0x80
8780258c:	f043 0301 	orr.w	r3, r3, #1
87802590:	f8c0 3080 	str.w	r3, [r0, #128]	; 0x80
87802594:	4770      	bx	lr
87802596:	bf00      	nop

87802598 <uart_softreset>:
87802598:	f8d0 3084 	ldr.w	r3, [r0, #132]	; 0x84
8780259c:	f023 0301 	bic.w	r3, r3, #1
878025a0:	f8c0 3084 	str.w	r3, [r0, #132]	; 0x84
878025a4:	f8d0 3084 	ldr.w	r3, [r0, #132]	; 0x84
878025a8:	07db      	lsls	r3, r3, #31
878025aa:	d5fb      	bpl.n	878025a4 <uart_softreset+0xc>
878025ac:	4770      	bx	lr
878025ae:	bf00      	nop

878025b0 <putc>:
878025b0:	2200      	movs	r2, #0
878025b2:	f2c0 2202 	movt	r2, #514	; 0x202
878025b6:	f8d2 3098 	ldr.w	r3, [r2, #152]	; 0x98
878025ba:	071b      	lsls	r3, r3, #28
878025bc:	d5fb      	bpl.n	878025b6 <putc+0x6>
878025be:	6410      	str	r0, [r2, #64]	; 0x40
878025c0:	4770      	bx	lr
878025c2:	bf00      	nop

878025c4 <puts>:
878025c4:	7801      	ldrb	r1, [r0, #0]
878025c6:	b159      	cbz	r1, 878025e0 <puts+0x1c>
878025c8:	2200      	movs	r2, #0
878025ca:	f2c0 2202 	movt	r2, #514	; 0x202
878025ce:	f8d2 3098 	ldr.w	r3, [r2, #152]	; 0x98
878025d2:	071b      	lsls	r3, r3, #28
878025d4:	d5fb      	bpl.n	878025ce <puts+0xa>
878025d6:	6411      	str	r1, [r2, #64]	; 0x40
878025d8:	f810 1f01 	ldrb.w	r1, [r0, #1]!
878025dc:	2900      	cmp	r1, #0
878025de:	d1f6      	bne.n	878025ce <puts+0xa>
878025e0:	4770      	bx	lr
878025e2:	bf00      	nop

878025e4 <getc>:
878025e4:	2200      	movs	r2, #0
878025e6:	f2c0 2202 	movt	r2, #514	; 0x202
878025ea:	f8d2 3098 	ldr.w	r3, [r2, #152]	; 0x98
878025ee:	07db      	lsls	r3, r3, #31
878025f0:	d5fb      	bpl.n	878025ea <getc+0x6>
878025f2:	6810      	ldr	r0, [r2, #0]
878025f4:	b2c0      	uxtb	r0, r0
878025f6:	4770      	bx	lr

878025f8 <raise>:
878025f8:	4770      	bx	lr
878025fa:	bf00      	nop

878025fc <spi_transfer_handle>:
878025fc:	b4f0      	push	{r4, r5, r6, r7}
878025fe:	6805      	ldr	r5, [r0, #0]
87802600:	69ab      	ldr	r3, [r5, #24]
87802602:	07da      	lsls	r2, r3, #31
87802604:	d516      	bpl.n	87802634 <spi_transfer_handle+0x38>
87802606:	6843      	ldr	r3, [r0, #4]
87802608:	f643 46e4 	movw	r6, #15588	; 0x3ce4
8780260c:	f2c8 7680 	movt	r6, #34688	; 0x8780
87802610:	2700      	movs	r7, #0
87802612:	6832      	ldr	r2, [r6, #0]
87802614:	6859      	ldr	r1, [r3, #4]
87802616:	e009      	b.n	8780262c <spi_transfer_handle+0x30>
87802618:	681b      	ldr	r3, [r3, #0]
8780261a:	2701      	movs	r7, #1
8780261c:	5c9b      	ldrb	r3, [r3, r2]
8780261e:	4622      	mov	r2, r4
87802620:	606b      	str	r3, [r5, #4]
87802622:	6843      	ldr	r3, [r0, #4]
87802624:	6859      	ldr	r1, [r3, #4]
87802626:	428c      	cmp	r4, r1
87802628:	d222      	bcs.n	87802670 <spi_transfer_handle+0x74>
8780262a:	6805      	ldr	r5, [r0, #0]
8780262c:	1c54      	adds	r4, r2, #1
8780262e:	2900      	cmp	r1, #0
87802630:	d1f2      	bne.n	87802618 <spi_transfer_handle+0x1c>
87802632:	bb0f      	cbnz	r7, 87802678 <spi_transfer_handle+0x7c>
87802634:	69ab      	ldr	r3, [r5, #24]
87802636:	071b      	lsls	r3, r3, #28
87802638:	d514      	bpl.n	87802664 <spi_transfer_handle+0x68>
8780263a:	6842      	ldr	r2, [r0, #4]
8780263c:	f643 46e4 	movw	r6, #15588	; 0x3ce4
87802640:	f2c8 7680 	movt	r6, #34688	; 0x8780
87802644:	2400      	movs	r4, #0
87802646:	6873      	ldr	r3, [r6, #4]
87802648:	68d1      	ldr	r1, [r2, #12]
8780264a:	b169      	cbz	r1, 87802668 <spi_transfer_handle+0x6c>
8780264c:	6801      	ldr	r1, [r0, #0]
8780264e:	2401      	movs	r4, #1
87802650:	6892      	ldr	r2, [r2, #8]
87802652:	6849      	ldr	r1, [r1, #4]
87802654:	54d1      	strb	r1, [r2, r3]
87802656:	4423      	add	r3, r4
87802658:	6842      	ldr	r2, [r0, #4]
8780265a:	68d1      	ldr	r1, [r2, #12]
8780265c:	428b      	cmp	r3, r1
8780265e:	d3f4      	bcc.n	8780264a <spi_transfer_handle+0x4e>
87802660:	2300      	movs	r3, #0
87802662:	6073      	str	r3, [r6, #4]
87802664:	bcf0      	pop	{r4, r5, r6, r7}
87802666:	4770      	bx	lr
87802668:	2c00      	cmp	r4, #0
8780266a:	d0fb      	beq.n	87802664 <spi_transfer_handle+0x68>
8780266c:	6073      	str	r3, [r6, #4]
8780266e:	e7f9      	b.n	87802664 <spi_transfer_handle+0x68>
87802670:	2300      	movs	r3, #0
87802672:	6805      	ldr	r5, [r0, #0]
87802674:	6033      	str	r3, [r6, #0]
87802676:	e7dd      	b.n	87802634 <spi_transfer_handle+0x38>
87802678:	6032      	str	r2, [r6, #0]
8780267a:	e7db      	b.n	87802634 <spi_transfer_handle+0x38>

8780267c <spi_init>:
8780267c:	2200      	movs	r2, #0
8780267e:	6082      	str	r2, [r0, #8]
87802680:	6883      	ldr	r3, [r0, #8]
87802682:	f443 03e0 	orr.w	r3, r3, #7340032	; 0x700000
87802686:	f043 0319 	orr.w	r3, r3, #25
8780268a:	6083      	str	r3, [r0, #8]
8780268c:	60c2      	str	r2, [r0, #12]
8780268e:	6883      	ldr	r3, [r0, #8]
87802690:	f423 437f 	bic.w	r3, r3, #65280	; 0xff00
87802694:	6083      	str	r3, [r0, #8]
87802696:	6883      	ldr	r3, [r0, #8]
87802698:	f443 4310 	orr.w	r3, r3, #36864	; 0x9000
8780269c:	6083      	str	r3, [r0, #8]
8780269e:	4770      	bx	lr

878026a0 <spi_readwrite_onebyte>:
878026a0:	6883      	ldr	r3, [r0, #8]
878026a2:	f423 2340 	bic.w	r3, r3, #786432	; 0xc0000
878026a6:	6083      	str	r3, [r0, #8]
878026a8:	6883      	ldr	r3, [r0, #8]
878026aa:	6083      	str	r3, [r0, #8]
878026ac:	6983      	ldr	r3, [r0, #24]
878026ae:	07da      	lsls	r2, r3, #31
878026b0:	d5fc      	bpl.n	878026ac <spi_readwrite_onebyte+0xc>
878026b2:	6041      	str	r1, [r0, #4]
878026b4:	6983      	ldr	r3, [r0, #24]
878026b6:	071b      	lsls	r3, r3, #28
878026b8:	d5fc      	bpl.n	878026b4 <spi_readwrite_onebyte+0x14>
878026ba:	6800      	ldr	r0, [r0, #0]
878026bc:	b2c0      	uxtb	r0, r0
878026be:	4770      	bx	lr

878026c0 <spi_readwrite_byte>:
878026c0:	b430      	push	{r4, r5}
878026c2:	2200      	movs	r2, #0
878026c4:	6883      	ldr	r3, [r0, #8]
878026c6:	f423 2340 	bic.w	r3, r3, #786432	; 0xc0000
878026ca:	6083      	str	r3, [r0, #8]
878026cc:	6883      	ldr	r3, [r0, #8]
878026ce:	6083      	str	r3, [r0, #8]
878026d0:	684b      	ldr	r3, [r1, #4]
878026d2:	b163      	cbz	r3, 878026ee <spi_readwrite_byte+0x2e>
878026d4:	6983      	ldr	r3, [r0, #24]
878026d6:	07dc      	lsls	r4, r3, #31
878026d8:	d5fc      	bpl.n	878026d4 <spi_readwrite_byte+0x14>
878026da:	680b      	ldr	r3, [r1, #0]
878026dc:	1c54      	adds	r4, r2, #1
878026de:	5c9b      	ldrb	r3, [r3, r2]
878026e0:	6043      	str	r3, [r0, #4]
878026e2:	684b      	ldr	r3, [r1, #4]
878026e4:	42a3      	cmp	r3, r4
878026e6:	d902      	bls.n	878026ee <spi_readwrite_byte+0x2e>
878026e8:	4622      	mov	r2, r4
878026ea:	2b00      	cmp	r3, #0
878026ec:	d1f2      	bne.n	878026d4 <spi_readwrite_byte+0x14>
878026ee:	68cb      	ldr	r3, [r1, #12]
878026f0:	2200      	movs	r2, #0
878026f2:	b163      	cbz	r3, 8780270e <spi_readwrite_byte+0x4e>
878026f4:	6983      	ldr	r3, [r0, #24]
878026f6:	071b      	lsls	r3, r3, #28
878026f8:	d5fc      	bpl.n	878026f4 <spi_readwrite_byte+0x34>
878026fa:	688b      	ldr	r3, [r1, #8]
878026fc:	1c54      	adds	r4, r2, #1
878026fe:	6845      	ldr	r5, [r0, #4]
87802700:	549d      	strb	r5, [r3, r2]
87802702:	68cb      	ldr	r3, [r1, #12]
87802704:	42a3      	cmp	r3, r4
87802706:	d902      	bls.n	8780270e <spi_readwrite_byte+0x4e>
87802708:	4622      	mov	r2, r4
8780270a:	2b00      	cmp	r3, #0
8780270c:	d1f2      	bne.n	878026f4 <spi_readwrite_byte+0x34>
8780270e:	2000      	movs	r0, #0
87802710:	bc30      	pop	{r4, r5}
87802712:	4770      	bx	lr

87802714 <spi_readwrite_byte_int>:
87802714:	b530      	push	{r4, r5, lr}
87802716:	2500      	movs	r5, #0
87802718:	6105      	str	r5, [r0, #16]
8780271a:	b083      	sub	sp, #12
8780271c:	4603      	mov	r3, r0
8780271e:	466a      	mov	r2, sp
87802720:	6904      	ldr	r4, [r0, #16]
87802722:	203f      	movs	r0, #63	; 0x3f
87802724:	9101      	str	r1, [sp, #4]
87802726:	f242 51fd 	movw	r1, #9725	; 0x25fd
8780272a:	f2c8 7180 	movt	r1, #34688	; 0x8780
8780272e:	9300      	str	r3, [sp, #0]
87802730:	f044 0409 	orr.w	r4, r4, #9
87802734:	611c      	str	r4, [r3, #16]
87802736:	f7fe fa11 	bl	87800b5c <system_register_irqhandler>
8780273a:	4628      	mov	r0, r5
8780273c:	b003      	add	sp, #12
8780273e:	bd30      	pop	{r4, r5, pc}

87802740 <gpio_pinread>:
87802740:	6800      	ldr	r0, [r0, #0]
87802742:	40c8      	lsrs	r0, r1
87802744:	f000 0001 	and.w	r0, r0, #1
87802748:	4770      	bx	lr
8780274a:	bf00      	nop

8780274c <gpio_pinwrite>:
8780274c:	2301      	movs	r3, #1
8780274e:	fa03 f101 	lsl.w	r1, r3, r1
87802752:	6803      	ldr	r3, [r0, #0]
87802754:	b112      	cbz	r2, 8780275c <gpio_pinwrite+0x10>
87802756:	4319      	orrs	r1, r3
87802758:	6001      	str	r1, [r0, #0]
8780275a:	4770      	bx	lr
8780275c:	ea23 0101 	bic.w	r1, r3, r1
87802760:	6001      	str	r1, [r0, #0]
87802762:	4770      	bx	lr

87802764 <gpio_intconfig>:
87802764:	b410      	push	{r4}
87802766:	2301      	movs	r3, #1
87802768:	69c4      	ldr	r4, [r0, #28]
8780276a:	408b      	lsls	r3, r1
8780276c:	290f      	cmp	r1, #15
8780276e:	f102 32ff 	add.w	r2, r2, #4294967295	; 0xffffffff
87802772:	bf88      	it	hi
87802774:	3910      	subhi	r1, #16
87802776:	ea24 0403 	bic.w	r4, r4, r3
8780277a:	61c4      	str	r4, [r0, #28]
8780277c:	bf94      	ite	ls
8780277e:	f100 040c 	addls.w	r4, r0, #12
87802782:	f100 0410 	addhi.w	r4, r0, #16
87802786:	2a04      	cmp	r2, #4
87802788:	d80e      	bhi.n	878027a8 <gpio_intconfig+0x44>
8780278a:	e8df f002 	tbb	[pc, r2]
8780278e:	26210316 			; <UNDEFINED> instruction: 0x26210316
87802792:	68230010 	stmdavs	r3!, {r4}
87802796:	0049      	lsls	r1, r1, #1
87802798:	2003      	movs	r0, #3
8780279a:	2201      	movs	r2, #1
8780279c:	4088      	lsls	r0, r1
8780279e:	408a      	lsls	r2, r1
878027a0:	ea23 0100 	bic.w	r1, r3, r0
878027a4:	4311      	orrs	r1, r2
878027a6:	6021      	str	r1, [r4, #0]
878027a8:	f85d 4b04 	ldr.w	r4, [sp], #4
878027ac:	4770      	bx	lr
878027ae:	69c2      	ldr	r2, [r0, #28]
878027b0:	4313      	orrs	r3, r2
878027b2:	61c3      	str	r3, [r0, #28]
878027b4:	f85d 4b04 	ldr.w	r4, [sp], #4
878027b8:	4770      	bx	lr
878027ba:	0049      	lsls	r1, r1, #1
878027bc:	6823      	ldr	r3, [r4, #0]
878027be:	2203      	movs	r2, #3
878027c0:	fa02 f101 	lsl.w	r1, r2, r1
878027c4:	ea23 0101 	bic.w	r1, r3, r1
878027c8:	6021      	str	r1, [r4, #0]
878027ca:	f85d 4b04 	ldr.w	r4, [sp], #4
878027ce:	4770      	bx	lr
878027d0:	0049      	lsls	r1, r1, #1
878027d2:	2003      	movs	r0, #3
878027d4:	6823      	ldr	r3, [r4, #0]
878027d6:	2202      	movs	r2, #2
878027d8:	e7e0      	b.n	8780279c <gpio_intconfig+0x38>
878027da:	0049      	lsls	r1, r1, #1
878027dc:	6822      	ldr	r2, [r4, #0]
878027de:	2303      	movs	r3, #3
878027e0:	fa03 f101 	lsl.w	r1, r3, r1
878027e4:	4311      	orrs	r1, r2
878027e6:	6021      	str	r1, [r4, #0]
878027e8:	f85d 4b04 	ldr.w	r4, [sp], #4
878027ec:	4770      	bx	lr
878027ee:	bf00      	nop

878027f0 <gpio_init>:
878027f0:	2301      	movs	r3, #1
878027f2:	b430      	push	{r4, r5}
878027f4:	408b      	lsls	r3, r1
878027f6:	6944      	ldr	r4, [r0, #20]
878027f8:	43dd      	mvns	r5, r3
878027fa:	402c      	ands	r4, r5
878027fc:	6144      	str	r4, [r0, #20]
878027fe:	6814      	ldr	r4, [r2, #0]
87802800:	b15c      	cbz	r4, 8780281a <gpio_init+0x2a>
87802802:	6844      	ldr	r4, [r0, #4]
87802804:	431c      	orrs	r4, r3
87802806:	6044      	str	r4, [r0, #4]
87802808:	7914      	ldrb	r4, [r2, #4]
8780280a:	b16c      	cbz	r4, 87802828 <gpio_init+0x38>
8780280c:	6804      	ldr	r4, [r0, #0]
8780280e:	4323      	orrs	r3, r4
87802810:	bc30      	pop	{r4, r5}
87802812:	6003      	str	r3, [r0, #0]
87802814:	6892      	ldr	r2, [r2, #8]
87802816:	f7ff bfa5 	b.w	87802764 <gpio_intconfig>
8780281a:	6843      	ldr	r3, [r0, #4]
8780281c:	401d      	ands	r5, r3
8780281e:	6045      	str	r5, [r0, #4]
87802820:	bc30      	pop	{r4, r5}
87802822:	6892      	ldr	r2, [r2, #8]
87802824:	f7ff bf9e 	b.w	87802764 <gpio_intconfig>
87802828:	6803      	ldr	r3, [r0, #0]
8780282a:	401d      	ands	r5, r3
8780282c:	6005      	str	r5, [r0, #0]
8780282e:	bc30      	pop	{r4, r5}
87802830:	6892      	ldr	r2, [r2, #8]
87802832:	f7ff bf97 	b.w	87802764 <gpio_intconfig>
87802836:	bf00      	nop

87802838 <gpio_enableint>:
87802838:	6942      	ldr	r2, [r0, #20]
8780283a:	2301      	movs	r3, #1
8780283c:	fa03 f101 	lsl.w	r1, r3, r1
87802840:	4311      	orrs	r1, r2
87802842:	6141      	str	r1, [r0, #20]
87802844:	4770      	bx	lr
87802846:	bf00      	nop

87802848 <gpio_disableint>:
87802848:	6943      	ldr	r3, [r0, #20]
8780284a:	2201      	movs	r2, #1
8780284c:	fa02 f101 	lsl.w	r1, r2, r1
87802850:	ea23 0301 	bic.w	r3, r3, r1
87802854:	6143      	str	r3, [r0, #20]
87802856:	4770      	bx	lr

87802858 <gpio_clearintflags>:
87802858:	6982      	ldr	r2, [r0, #24]
8780285a:	2301      	movs	r3, #1
8780285c:	fa03 f101 	lsl.w	r1, r3, r1
87802860:	4311      	orrs	r1, r2
87802862:	6181      	str	r1, [r0, #24]
87802864:	4770      	bx	lr
87802866:	bf00      	nop

87802868 <__div64_32>:
87802868:	e92d 43f8 	stmdb	sp!, {r3, r4, r5, r6, r7, r8, r9, lr}
8780286c:	4680      	mov	r8, r0
8780286e:	e9d0 6700 	ldrd	r6, r7, [r0]
87802872:	4689      	mov	r9, r1
87802874:	460c      	mov	r4, r1
87802876:	2500      	movs	r5, #0
87802878:	42b9      	cmp	r1, r7
8780287a:	bf84      	itt	hi
8780287c:	f04f 0c00 	movhi.w	ip, #0
87802880:	46e6      	movhi	lr, ip
87802882:	d80c      	bhi.n	8780289e <__div64_32+0x36>
87802884:	4638      	mov	r0, r7
87802886:	f000 f84b 	bl	87802920 <__aeabi_uidiv>
8780288a:	fb00 f209 	mul.w	r2, r0, r9
8780288e:	f04f 0c00 	mov.w	ip, #0
87802892:	ebb6 060c 	subs.w	r6, r6, ip
87802896:	4663      	mov	r3, ip
87802898:	4686      	mov	lr, r0
8780289a:	eb67 0702 	sbc.w	r7, r7, r2
8780289e:	42bd      	cmp	r5, r7
878028a0:	f04f 0201 	mov.w	r2, #1
878028a4:	bf08      	it	eq
878028a6:	42b4      	cmpeq	r4, r6
878028a8:	bf34      	ite	cc
878028aa:	2301      	movcc	r3, #1
878028ac:	2300      	movcs	r3, #0
878028ae:	f1b9 0f00 	cmp.w	r9, #0
878028b2:	bf08      	it	eq
878028b4:	2300      	moveq	r3, #0
878028b6:	b373      	cbz	r3, 87802916 <__div64_32+0xae>
878028b8:	2300      	movs	r3, #0
878028ba:	1924      	adds	r4, r4, r4
878028bc:	416d      	adcs	r5, r5
878028be:	1892      	adds	r2, r2, r2
878028c0:	415b      	adcs	r3, r3
878028c2:	2c01      	cmp	r4, #1
878028c4:	f175 0100 	sbcs.w	r1, r5, #0
878028c8:	bfac      	ite	ge
878028ca:	2101      	movge	r1, #1
878028cc:	2100      	movlt	r1, #0
878028ce:	42bd      	cmp	r5, r7
878028d0:	f001 0101 	and.w	r1, r1, #1
878028d4:	bf08      	it	eq
878028d6:	42b4      	cmpeq	r4, r6
878028d8:	bf28      	it	cs
878028da:	2100      	movcs	r1, #0
878028dc:	2900      	cmp	r1, #0
878028de:	d1ec      	bne.n	878028ba <__div64_32+0x52>
878028e0:	42af      	cmp	r7, r5
878028e2:	bf08      	it	eq
878028e4:	42a6      	cmpeq	r6, r4
878028e6:	d306      	bcc.n	878028f6 <__div64_32+0x8e>
878028e8:	1b36      	subs	r6, r6, r4
878028ea:	eb67 0705 	sbc.w	r7, r7, r5
878028ee:	eb1c 0c02 	adds.w	ip, ip, r2
878028f2:	eb4e 0e03 	adc.w	lr, lr, r3
878028f6:	085b      	lsrs	r3, r3, #1
878028f8:	ea4f 0232 	mov.w	r2, r2, rrx
878028fc:	086d      	lsrs	r5, r5, #1
878028fe:	ea4f 0434 	mov.w	r4, r4, rrx
87802902:	ea52 0103 	orrs.w	r1, r2, r3
87802906:	d1eb      	bne.n	878028e0 <__div64_32+0x78>
87802908:	f8c8 c000 	str.w	ip, [r8]
8780290c:	4630      	mov	r0, r6
8780290e:	f8c8 e004 	str.w	lr, [r8, #4]
87802912:	e8bd 83f8 	ldmia.w	sp!, {r3, r4, r5, r6, r7, r8, r9, pc}
87802916:	2300      	movs	r3, #0
87802918:	e7e2      	b.n	878028e0 <__div64_32+0x78>
8780291a:	bf00      	nop
8780291c:	0000      	movs	r0, r0
	...

87802920 <__aeabi_uidiv>:
87802920:	1e4a      	subs	r2, r1, #1
87802922:	bf08      	it	eq
87802924:	4770      	bxeq	lr
87802926:	f0c0 8124 	bcc.w	87802b72 <__aeabi_uidiv+0x252>
8780292a:	4288      	cmp	r0, r1
8780292c:	f240 8116 	bls.w	87802b5c <__aeabi_uidiv+0x23c>
87802930:	4211      	tst	r1, r2
87802932:	f000 8117 	beq.w	87802b64 <__aeabi_uidiv+0x244>
87802936:	fab0 f380 	clz	r3, r0
8780293a:	fab1 f281 	clz	r2, r1
8780293e:	eba2 0303 	sub.w	r3, r2, r3
87802942:	f1c3 031f 	rsb	r3, r3, #31
87802946:	a204      	add	r2, pc, #16	; (adr r2, 87802958 <__aeabi_uidiv+0x38>)
87802948:	eb02 1303 	add.w	r3, r2, r3, lsl #4
8780294c:	f04f 0200 	mov.w	r2, #0
87802950:	469f      	mov	pc, r3
87802952:	bf00      	nop
87802954:	f3af 8000 	nop.w
87802958:	ebb0 7fc1 	cmp.w	r0, r1, lsl #31
8780295c:	bf00      	nop
8780295e:	eb42 0202 	adc.w	r2, r2, r2
87802962:	bf28      	it	cs
87802964:	eba0 70c1 	subcs.w	r0, r0, r1, lsl #31
87802968:	ebb0 7f81 	cmp.w	r0, r1, lsl #30
8780296c:	bf00      	nop
8780296e:	eb42 0202 	adc.w	r2, r2, r2
87802972:	bf28      	it	cs
87802974:	eba0 7081 	subcs.w	r0, r0, r1, lsl #30
87802978:	ebb0 7f41 	cmp.w	r0, r1, lsl #29
8780297c:	bf00      	nop
8780297e:	eb42 0202 	adc.w	r2, r2, r2
87802982:	bf28      	it	cs
87802984:	eba0 7041 	subcs.w	r0, r0, r1, lsl #29
87802988:	ebb0 7f01 	cmp.w	r0, r1, lsl #28
8780298c:	bf00      	nop
8780298e:	eb42 0202 	adc.w	r2, r2, r2
87802992:	bf28      	it	cs
87802994:	eba0 7001 	subcs.w	r0, r0, r1, lsl #28
87802998:	ebb0 6fc1 	cmp.w	r0, r1, lsl #27
8780299c:	bf00      	nop
8780299e:	eb42 0202 	adc.w	r2, r2, r2
878029a2:	bf28      	it	cs
878029a4:	eba0 60c1 	subcs.w	r0, r0, r1, lsl #27
878029a8:	ebb0 6f81 	cmp.w	r0, r1, lsl #26
878029ac:	bf00      	nop
878029ae:	eb42 0202 	adc.w	r2, r2, r2
878029b2:	bf28      	it	cs
878029b4:	eba0 6081 	subcs.w	r0, r0, r1, lsl #26
878029b8:	ebb0 6f41 	cmp.w	r0, r1, lsl #25
878029bc:	bf00      	nop
878029be:	eb42 0202 	adc.w	r2, r2, r2
878029c2:	bf28      	it	cs
878029c4:	eba0 6041 	subcs.w	r0, r0, r1, lsl #25
878029c8:	ebb0 6f01 	cmp.w	r0, r1, lsl #24
878029cc:	bf00      	nop
878029ce:	eb42 0202 	adc.w	r2, r2, r2
878029d2:	bf28      	it	cs
878029d4:	eba0 6001 	subcs.w	r0, r0, r1, lsl #24
878029d8:	ebb0 5fc1 	cmp.w	r0, r1, lsl #23
878029dc:	bf00      	nop
878029de:	eb42 0202 	adc.w	r2, r2, r2
878029e2:	bf28      	it	cs
878029e4:	eba0 50c1 	subcs.w	r0, r0, r1, lsl #23
878029e8:	ebb0 5f81 	cmp.w	r0, r1, lsl #22
878029ec:	bf00      	nop
878029ee:	eb42 0202 	adc.w	r2, r2, r2
878029f2:	bf28      	it	cs
878029f4:	eba0 5081 	subcs.w	r0, r0, r1, lsl #22
878029f8:	ebb0 5f41 	cmp.w	r0, r1, lsl #21
878029fc:	bf00      	nop
878029fe:	eb42 0202 	adc.w	r2, r2, r2
87802a02:	bf28      	it	cs
87802a04:	eba0 5041 	subcs.w	r0, r0, r1, lsl #21
87802a08:	ebb0 5f01 	cmp.w	r0, r1, lsl #20
87802a0c:	bf00      	nop
87802a0e:	eb42 0202 	adc.w	r2, r2, r2
87802a12:	bf28      	it	cs
87802a14:	eba0 5001 	subcs.w	r0, r0, r1, lsl #20
87802a18:	ebb0 4fc1 	cmp.w	r0, r1, lsl #19
87802a1c:	bf00      	nop
87802a1e:	eb42 0202 	adc.w	r2, r2, r2
87802a22:	bf28      	it	cs
87802a24:	eba0 40c1 	subcs.w	r0, r0, r1, lsl #19
87802a28:	ebb0 4f81 	cmp.w	r0, r1, lsl #18
87802a2c:	bf00      	nop
87802a2e:	eb42 0202 	adc.w	r2, r2, r2
87802a32:	bf28      	it	cs
87802a34:	eba0 4081 	subcs.w	r0, r0, r1, lsl #18
87802a38:	ebb0 4f41 	cmp.w	r0, r1, lsl #17
87802a3c:	bf00      	nop
87802a3e:	eb42 0202 	adc.w	r2, r2, r2
87802a42:	bf28      	it	cs
87802a44:	eba0 4041 	subcs.w	r0, r0, r1, lsl #17
87802a48:	ebb0 4f01 	cmp.w	r0, r1, lsl #16
87802a4c:	bf00      	nop
87802a4e:	eb42 0202 	adc.w	r2, r2, r2
87802a52:	bf28      	it	cs
87802a54:	eba0 4001 	subcs.w	r0, r0, r1, lsl #16
87802a58:	ebb0 3fc1 	cmp.w	r0, r1, lsl #15
87802a5c:	bf00      	nop
87802a5e:	eb42 0202 	adc.w	r2, r2, r2
87802a62:	bf28      	it	cs
87802a64:	eba0 30c1 	subcs.w	r0, r0, r1, lsl #15
87802a68:	ebb0 3f81 	cmp.w	r0, r1, lsl #14
87802a6c:	bf00      	nop
87802a6e:	eb42 0202 	adc.w	r2, r2, r2
87802a72:	bf28      	it	cs
87802a74:	eba0 3081 	subcs.w	r0, r0, r1, lsl #14
87802a78:	ebb0 3f41 	cmp.w	r0, r1, lsl #13
87802a7c:	bf00      	nop
87802a7e:	eb42 0202 	adc.w	r2, r2, r2
87802a82:	bf28      	it	cs
87802a84:	eba0 3041 	subcs.w	r0, r0, r1, lsl #13
87802a88:	ebb0 3f01 	cmp.w	r0, r1, lsl #12
87802a8c:	bf00      	nop
87802a8e:	eb42 0202 	adc.w	r2, r2, r2
87802a92:	bf28      	it	cs
87802a94:	eba0 3001 	subcs.w	r0, r0, r1, lsl #12
87802a98:	ebb0 2fc1 	cmp.w	r0, r1, lsl #11
87802a9c:	bf00      	nop
87802a9e:	eb42 0202 	adc.w	r2, r2, r2
87802aa2:	bf28      	it	cs
87802aa4:	eba0 20c1 	subcs.w	r0, r0, r1, lsl #11
87802aa8:	ebb0 2f81 	cmp.w	r0, r1, lsl #10
87802aac:	bf00      	nop
87802aae:	eb42 0202 	adc.w	r2, r2, r2
87802ab2:	bf28      	it	cs
87802ab4:	eba0 2081 	subcs.w	r0, r0, r1, lsl #10
87802ab8:	ebb0 2f41 	cmp.w	r0, r1, lsl #9
87802abc:	bf00      	nop
87802abe:	eb42 0202 	adc.w	r2, r2, r2
87802ac2:	bf28      	it	cs
87802ac4:	eba0 2041 	subcs.w	r0, r0, r1, lsl #9
87802ac8:	ebb0 2f01 	cmp.w	r0, r1, lsl #8
87802acc:	bf00      	nop
87802ace:	eb42 0202 	adc.w	r2, r2, r2
87802ad2:	bf28      	it	cs
87802ad4:	eba0 2001 	subcs.w	r0, r0, r1, lsl #8
87802ad8:	ebb0 1fc1 	cmp.w	r0, r1, lsl #7
87802adc:	bf00      	nop
87802ade:	eb42 0202 	adc.w	r2, r2, r2
87802ae2:	bf28      	it	cs
87802ae4:	eba0 10c1 	subcs.w	r0, r0, r1, lsl #7
87802ae8:	ebb0 1f81 	cmp.w	r0, r1, lsl #6
87802aec:	bf00      	nop
87802aee:	eb42 0202 	adc.w	r2, r2, r2
87802af2:	bf28      	it	cs
87802af4:	eba0 1081 	subcs.w	r0, r0, r1, lsl #6
87802af8:	ebb0 1f41 	cmp.w	r0, r1, lsl #5
87802afc:	bf00      	nop
87802afe:	eb42 0202 	adc.w	r2, r2, r2
87802b02:	bf28      	it	cs
87802b04:	eba0 1041 	subcs.w	r0, r0, r1, lsl #5
87802b08:	ebb0 1f01 	cmp.w	r0, r1, lsl #4
87802b0c:	bf00      	nop
87802b0e:	eb42 0202 	adc.w	r2, r2, r2
87802b12:	bf28      	it	cs
87802b14:	eba0 1001 	subcs.w	r0, r0, r1, lsl #4
87802b18:	ebb0 0fc1 	cmp.w	r0, r1, lsl #3
87802b1c:	bf00      	nop
87802b1e:	eb42 0202 	adc.w	r2, r2, r2
87802b22:	bf28      	it	cs
87802b24:	eba0 00c1 	subcs.w	r0, r0, r1, lsl #3
87802b28:	ebb0 0f81 	cmp.w	r0, r1, lsl #2
87802b2c:	bf00      	nop
87802b2e:	eb42 0202 	adc.w	r2, r2, r2
87802b32:	bf28      	it	cs
87802b34:	eba0 0081 	subcs.w	r0, r0, r1, lsl #2
87802b38:	ebb0 0f41 	cmp.w	r0, r1, lsl #1
87802b3c:	bf00      	nop
87802b3e:	eb42 0202 	adc.w	r2, r2, r2
87802b42:	bf28      	it	cs
87802b44:	eba0 0041 	subcs.w	r0, r0, r1, lsl #1
87802b48:	ebb0 0f01 	cmp.w	r0, r1
87802b4c:	bf00      	nop
87802b4e:	eb42 0202 	adc.w	r2, r2, r2
87802b52:	bf28      	it	cs
87802b54:	eba0 0001 	subcs.w	r0, r0, r1
87802b58:	4610      	mov	r0, r2
87802b5a:	4770      	bx	lr
87802b5c:	bf0c      	ite	eq
87802b5e:	2001      	moveq	r0, #1
87802b60:	2000      	movne	r0, #0
87802b62:	4770      	bx	lr
87802b64:	fab1 f281 	clz	r2, r1
87802b68:	f1c2 021f 	rsb	r2, r2, #31
87802b6c:	fa20 f002 	lsr.w	r0, r0, r2
87802b70:	4770      	bx	lr
87802b72:	b108      	cbz	r0, 87802b78 <__aeabi_uidiv+0x258>
87802b74:	f04f 30ff 	mov.w	r0, #4294967295	; 0xffffffff
87802b78:	f000 b876 	b.w	87802c68 <__aeabi_idiv0>

87802b7c <__aeabi_uidivmod>:
87802b7c:	2900      	cmp	r1, #0
87802b7e:	d0f8      	beq.n	87802b72 <__aeabi_uidiv+0x252>
87802b80:	e92d 4003 	stmdb	sp!, {r0, r1, lr}
87802b84:	f7ff fecc 	bl	87802920 <__aeabi_uidiv>
87802b88:	e8bd 4006 	ldmia.w	sp!, {r1, r2, lr}
87802b8c:	fb02 f300 	mul.w	r3, r2, r0
87802b90:	eba1 0103 	sub.w	r1, r1, r3
87802b94:	4770      	bx	lr
87802b96:	bf00      	nop

87802b98 <__aeabi_ldivmod>:
87802b98:	b97b      	cbnz	r3, 87802bba <__aeabi_ldivmod+0x22>
87802b9a:	b972      	cbnz	r2, 87802bba <__aeabi_ldivmod+0x22>
87802b9c:	2900      	cmp	r1, #0
87802b9e:	bfbe      	ittt	lt
87802ba0:	2000      	movlt	r0, #0
87802ba2:	f04f 4100 	movlt.w	r1, #2147483648	; 0x80000000
87802ba6:	e006      	blt.n	87802bb6 <__aeabi_ldivmod+0x1e>
87802ba8:	bf08      	it	eq
87802baa:	2800      	cmpeq	r0, #0
87802bac:	bf1c      	itt	ne
87802bae:	f06f 4100 	mvnne.w	r1, #2147483648	; 0x80000000
87802bb2:	f04f 30ff 	movne.w	r0, #4294967295	; 0xffffffff
87802bb6:	f000 b857 	b.w	87802c68 <__aeabi_idiv0>
87802bba:	f1ad 0c08 	sub.w	ip, sp, #8
87802bbe:	e96d ce04 	strd	ip, lr, [sp, #-16]!
87802bc2:	2900      	cmp	r1, #0
87802bc4:	db09      	blt.n	87802bda <__aeabi_ldivmod+0x42>
87802bc6:	2b00      	cmp	r3, #0
87802bc8:	db1a      	blt.n	87802c00 <__aeabi_ldivmod+0x68>
87802bca:	f000 f853 	bl	87802c74 <__udivmoddi4>
87802bce:	f8dd e004 	ldr.w	lr, [sp, #4]
87802bd2:	e9dd 2302 	ldrd	r2, r3, [sp, #8]
87802bd6:	b004      	add	sp, #16
87802bd8:	4770      	bx	lr
87802bda:	4240      	negs	r0, r0
87802bdc:	eb61 0141 	sbc.w	r1, r1, r1, lsl #1
87802be0:	2b00      	cmp	r3, #0
87802be2:	db1b      	blt.n	87802c1c <__aeabi_ldivmod+0x84>
87802be4:	f000 f846 	bl	87802c74 <__udivmoddi4>
87802be8:	f8dd e004 	ldr.w	lr, [sp, #4]
87802bec:	e9dd 2302 	ldrd	r2, r3, [sp, #8]
87802bf0:	b004      	add	sp, #16
87802bf2:	4240      	negs	r0, r0
87802bf4:	eb61 0141 	sbc.w	r1, r1, r1, lsl #1
87802bf8:	4252      	negs	r2, r2
87802bfa:	eb63 0343 	sbc.w	r3, r3, r3, lsl #1
87802bfe:	4770      	bx	lr
87802c00:	4252      	negs	r2, r2
87802c02:	eb63 0343 	sbc.w	r3, r3, r3, lsl #1
87802c06:	f000 f835 	bl	87802c74 <__udivmoddi4>
87802c0a:	f8dd e004 	ldr.w	lr, [sp, #4]
87802c0e:	e9dd 2302 	ldrd	r2, r3, [sp, #8]
87802c12:	b004      	add	sp, #16
87802c14:	4240      	negs	r0, r0
87802c16:	eb61 0141 	sbc.w	r1, r1, r1, lsl #1
87802c1a:	4770      	bx	lr
87802c1c:	4252      	negs	r2, r2
87802c1e:	eb63 0343 	sbc.w	r3, r3, r3, lsl #1
87802c22:	f000 f827 	bl	87802c74 <__udivmoddi4>
87802c26:	f8dd e004 	ldr.w	lr, [sp, #4]
87802c2a:	e9dd 2302 	ldrd	r2, r3, [sp, #8]
87802c2e:	b004      	add	sp, #16
87802c30:	4252      	negs	r2, r2
87802c32:	eb63 0343 	sbc.w	r3, r3, r3, lsl #1
87802c36:	4770      	bx	lr

87802c38 <__aeabi_uldivmod>:
87802c38:	b953      	cbnz	r3, 87802c50 <__aeabi_uldivmod+0x18>
87802c3a:	b94a      	cbnz	r2, 87802c50 <__aeabi_uldivmod+0x18>
87802c3c:	2900      	cmp	r1, #0
87802c3e:	bf08      	it	eq
87802c40:	2800      	cmpeq	r0, #0
87802c42:	bf1c      	itt	ne
87802c44:	f04f 31ff 	movne.w	r1, #4294967295	; 0xffffffff
87802c48:	f04f 30ff 	movne.w	r0, #4294967295	; 0xffffffff
87802c4c:	f000 b80c 	b.w	87802c68 <__aeabi_idiv0>
87802c50:	f1ad 0c08 	sub.w	ip, sp, #8
87802c54:	e96d ce04 	strd	ip, lr, [sp, #-16]!
87802c58:	f000 f80c 	bl	87802c74 <__udivmoddi4>
87802c5c:	f8dd e004 	ldr.w	lr, [sp, #4]
87802c60:	e9dd 2302 	ldrd	r2, r3, [sp, #8]
87802c64:	b004      	add	sp, #16
87802c66:	4770      	bx	lr

87802c68 <__aeabi_idiv0>:
87802c68:	b502      	push	{r1, lr}
87802c6a:	f04f 0008 	mov.w	r0, #8
87802c6e:	f7ff fcc3 	bl	878025f8 <raise>
87802c72:	bd02      	pop	{r1, pc}

87802c74 <__udivmoddi4>:
87802c74:	4299      	cmp	r1, r3
87802c76:	e92d 47f0 	stmdb	sp!, {r4, r5, r6, r7, r8, r9, sl, lr}
87802c7a:	bf08      	it	eq
87802c7c:	4290      	cmpeq	r0, r2
87802c7e:	4604      	mov	r4, r0
87802c80:	460d      	mov	r5, r1
87802c82:	bf38      	it	cc
87802c84:	2000      	movcc	r0, #0
87802c86:	f8dd a020 	ldr.w	sl, [sp, #32]
87802c8a:	bf38      	it	cc
87802c8c:	2100      	movcc	r1, #0
87802c8e:	d369      	bcc.n	87802d64 <__udivmoddi4+0xf0>
87802c90:	fab3 f683 	clz	r6, r3
87802c94:	2b00      	cmp	r3, #0
87802c96:	d070      	beq.n	87802d7a <__udivmoddi4+0x106>
87802c98:	fab5 f185 	clz	r1, r5
87802c9c:	2d00      	cmp	r5, #0
87802c9e:	d068      	beq.n	87802d72 <__udivmoddi4+0xfe>
87802ca0:	1a76      	subs	r6, r6, r1
87802ca2:	f1a6 0e20 	sub.w	lr, r6, #32
87802ca6:	fa03 f906 	lsl.w	r9, r3, r6
87802caa:	fa02 f10e 	lsl.w	r1, r2, lr
87802cae:	f1c6 0720 	rsb	r7, r6, #32
87802cb2:	fa22 f307 	lsr.w	r3, r2, r7
87802cb6:	fa02 f806 	lsl.w	r8, r2, r6
87802cba:	ea49 0901 	orr.w	r9, r9, r1
87802cbe:	ea49 0903 	orr.w	r9, r9, r3
87802cc2:	454d      	cmp	r5, r9
87802cc4:	bf08      	it	eq
87802cc6:	4544      	cmpeq	r4, r8
87802cc8:	bf3c      	itt	cc
87802cca:	2000      	movcc	r0, #0
87802ccc:	2100      	movcc	r1, #0
87802cce:	d30c      	bcc.n	87802cea <__udivmoddi4+0x76>
87802cd0:	2301      	movs	r3, #1
87802cd2:	ebb4 0408 	subs.w	r4, r4, r8
87802cd6:	fa03 f10e 	lsl.w	r1, r3, lr
87802cda:	fa23 f207 	lsr.w	r2, r3, r7
87802cde:	fa03 f006 	lsl.w	r0, r3, r6
87802ce2:	ea41 0102 	orr.w	r1, r1, r2
87802ce6:	eb65 0509 	sbc.w	r5, r5, r9
87802cea:	2e00      	cmp	r6, #0
87802cec:	d03a      	beq.n	87802d64 <__udivmoddi4+0xf0>
87802cee:	ea5f 0959 	movs.w	r9, r9, lsr #1
87802cf2:	ea4f 0838 	mov.w	r8, r8, rrx
87802cf6:	46b4      	mov	ip, r6
87802cf8:	e00b      	b.n	87802d12 <__udivmoddi4+0x9e>
87802cfa:	ebb4 0408 	subs.w	r4, r4, r8
87802cfe:	eb65 0509 	sbc.w	r5, r5, r9
87802d02:	1924      	adds	r4, r4, r4
87802d04:	416d      	adcs	r5, r5
87802d06:	3401      	adds	r4, #1
87802d08:	f145 0500 	adc.w	r5, r5, #0
87802d0c:	f1bc 0c01 	subs.w	ip, ip, #1
87802d10:	d008      	beq.n	87802d24 <__udivmoddi4+0xb0>
87802d12:	454d      	cmp	r5, r9
87802d14:	bf08      	it	eq
87802d16:	4544      	cmpeq	r4, r8
87802d18:	d2ef      	bcs.n	87802cfa <__udivmoddi4+0x86>
87802d1a:	1924      	adds	r4, r4, r4
87802d1c:	416d      	adcs	r5, r5
87802d1e:	f1bc 0c01 	subs.w	ip, ip, #1
87802d22:	d1f6      	bne.n	87802d12 <__udivmoddi4+0x9e>
87802d24:	fa05 f707 	lsl.w	r7, r5, r7
87802d28:	fa24 f306 	lsr.w	r3, r4, r6
87802d2c:	fa25 fe0e 	lsr.w	lr, r5, lr
87802d30:	fa25 fc06 	lsr.w	ip, r5, r6
87802d34:	433b      	orrs	r3, r7
87802d36:	1900      	adds	r0, r0, r4
87802d38:	ea43 040e 	orr.w	r4, r3, lr
87802d3c:	f1a6 0e20 	sub.w	lr, r6, #32
87802d40:	fa0c f306 	lsl.w	r3, ip, r6
87802d44:	fa04 fe0e 	lsl.w	lr, r4, lr
87802d48:	fa04 f206 	lsl.w	r2, r4, r6
87802d4c:	f1c6 0720 	rsb	r7, r6, #32
87802d50:	fa24 f707 	lsr.w	r7, r4, r7
87802d54:	ea43 030e 	orr.w	r3, r3, lr
87802d58:	4169      	adcs	r1, r5
87802d5a:	433b      	orrs	r3, r7
87802d5c:	1a80      	subs	r0, r0, r2
87802d5e:	4665      	mov	r5, ip
87802d60:	eb61 0103 	sbc.w	r1, r1, r3
87802d64:	f1ba 0f00 	cmp.w	sl, #0
87802d68:	d001      	beq.n	87802d6e <__udivmoddi4+0xfa>
87802d6a:	e9ca 4500 	strd	r4, r5, [sl]
87802d6e:	e8bd 87f0 	ldmia.w	sp!, {r4, r5, r6, r7, r8, r9, sl, pc}
87802d72:	fab4 f184 	clz	r1, r4
87802d76:	3120      	adds	r1, #32
87802d78:	e792      	b.n	87802ca0 <__udivmoddi4+0x2c>
87802d7a:	fab2 f682 	clz	r6, r2
87802d7e:	fab5 f185 	clz	r1, r5
87802d82:	3620      	adds	r6, #32
87802d84:	2d00      	cmp	r5, #0
87802d86:	d18b      	bne.n	87802ca0 <__udivmoddi4+0x2c>
87802d88:	e7f3      	b.n	87802d72 <__udivmoddi4+0xfe>
87802d8a:	bf00      	nop
87802d8c:	0000      	movs	r0, r0
	...

87802d90 <__main_from_arm>:
87802d90:	e51ff004 	ldr	pc, [pc, #-4]	; 87802d94 <__main_from_arm+0x4>
87802d94:	878007d5 			; <UNDEFINED> instruction: 0x878007d5

Disassembly of section .rodata:

87802d98 <.LC0>:
87802d98:	326d6369 	rsbcc	r6, sp, #-1543503871	; 0xa4000001
87802d9c:	38303630 	ldmdacc	r0!, {r4, r5, r9, sl, ip, sp}
87802da0:	20646920 	rsbcs	r6, r4, r0, lsr #18
87802da4:	2325203d 	teqcs	r5, #61	; 0x3d
87802da8:	000a0d58 	andeq	r0, sl, r8, asr sp

87802dac <.LC1>:
87802dac:	65636361 	strbvs	r6, [r3, #-865]!	; 0x361
87802db0:	5f785f6c 	svcpl	0x00785f6c
87802db4:	20636461 	rsbcs	r6, r3, r1, ror #8
87802db8:	6425203a 	strtvs	r2, [r5], #-58	; 0x3a
87802dbc:	6361202c 	cmnvs	r1, #44	; 0x2c
87802dc0:	5f6c6563 	svcpl	0x006c6563
87802dc4:	64615f79 	strbtvs	r5, [r1], #-3961	; 0xf79
87802dc8:	203a2063 	eorscs	r2, sl, r3, rrx
87802dcc:	202c6425 	eorcs	r6, ip, r5, lsr #8
87802dd0:	65636361 	strbvs	r6, [r3, #-865]!	; 0x361
87802dd4:	5f7a5f6c 	svcpl	0x007a5f6c
87802dd8:	20636461 	rsbcs	r6, r3, r1, ror #8
87802ddc:	6425203a 	strtvs	r2, [r5], #-58	; 0x3a
87802de0:	00000a0d 	andeq	r0, r0, sp, lsl #20

87802de4 <.LC2>:
87802de4:	6f727967 	svcvs	0x00727967
87802de8:	615f785f 	cmpvs	pc, pc, asr r8	; <UNPREDICTABLE>
87802dec:	3a206364 	bcc	8801bb84 <__bss_end+0x817e5c>
87802df0:	2c642520 	cfstr64cs	mvdx2, [r4], #-128	; 0xffffff80
87802df4:	72796720 	rsbsvc	r6, r9, #32, 14	; 0x800000
87802df8:	5f795f6f 	svcpl	0x00795f6f
87802dfc:	20636461 	rsbcs	r6, r3, r1, ror #8
87802e00:	6425203a 	strtvs	r2, [r5], #-58	; 0x3a
87802e04:	7967202c 	stmdbvc	r7!, {r2, r3, r5, sp}^
87802e08:	7a5f6f72 	bvc	88fdebd8 <__bss_end+0x17daeb0>
87802e0c:	6364615f 	cmnvs	r4, #-1073741801	; 0xc0000017
87802e10:	25203a20 	strcs	r3, [r0, #-2592]!	; 0xa20
87802e14:	000a0d64 	andeq	r0, sl, r4, ror #26

87802e18 <.LC3>:
87802e18:	706d6574 	rsbvc	r6, sp, r4, ror r5
87802e1c:	6364615f 	cmnvs	r4, #-1073741801	; 0xc0000017
87802e20:	25203a20 	strcs	r3, [r0, #-2592]!	; 0xa20
87802e24:	000a0d64 	andeq	r0, sl, r4, ror #26

87802e28 <.LC4>:
87802e28:	65636361 	strbvs	r6, [r3, #-865]!	; 0x361
87802e2c:	5f785f6c 	svcpl	0x00785f6c
87802e30:	20746361 	rsbscs	r6, r4, r1, ror #6
87802e34:	6425203a 	strtvs	r2, [r5], #-58	; 0x3a
87802e38:	6361202c 	cmnvs	r1, #44	; 0x2c
87802e3c:	5f6c6563 	svcpl	0x006c6563
87802e40:	63615f79 	cmnvs	r1, #484	; 0x1e4
87802e44:	203a2074 	eorscs	r2, sl, r4, ror r0
87802e48:	202c6425 	eorcs	r6, ip, r5, lsr #8
87802e4c:	65636361 	strbvs	r6, [r3, #-865]!	; 0x361
87802e50:	5f7a5f6c 	svcpl	0x007a5f6c
87802e54:	20746361 	rsbscs	r6, r4, r1, ror #6
87802e58:	6425203a 	strtvs	r2, [r5], #-58	; 0x3a
87802e5c:	00000a0d 	andeq	r0, r0, sp, lsl #20

87802e60 <.LC5>:
87802e60:	6f727967 	svcvs	0x00727967
87802e64:	615f785f 	cmpvs	pc, pc, asr r8	; <UNPREDICTABLE>
87802e68:	3a207463 	bcc	8801fffc <__bss_end+0x81c2d4>
87802e6c:	2c642520 	cfstr64cs	mvdx2, [r4], #-128	; 0xffffff80
87802e70:	72796720 	rsbsvc	r6, r9, #32, 14	; 0x800000
87802e74:	5f795f6f 	svcpl	0x00795f6f
87802e78:	20746361 	rsbscs	r6, r4, r1, ror #6
87802e7c:	6425203a 	strtvs	r2, [r5], #-58	; 0x3a
87802e80:	7967202c 	stmdbvc	r7!, {r2, r3, r5, sp}^
87802e84:	7a5f6f72 	bvc	88fdec54 <__bss_end+0x17daf2c>
87802e88:	7463615f 	strbtvc	r6, [r3], #-351	; 0x15f
87802e8c:	25203a20 	strcs	r3, [r0, #-2592]!	; 0xa20
87802e90:	000a0d64 	andeq	r0, sl, r4, ror #26

87802e94 <.LC6>:
87802e94:	706d6574 	rsbvc	r6, sp, r4, ror r5
87802e98:	7463615f 	strbtvc	r6, [r3], #-351	; 0x15f
87802e9c:	25203a20 	strcs	r3, [r0, #-2592]!	; 0xa20
87802ea0:	000a0d64 	andeq	r0, sl, r4, ror #26

87802ea4 <digits.9014>:
87802ea4:	33323130 	teqcc	r2, #48, 2
87802ea8:	37363534 			; <UNDEFINED> instruction: 0x37363534
87802eac:	42413938 	submi	r3, r1, #56, 18	; 0xe0000
87802eb0:	46454443 	strbmi	r4, [r5], -r3, asr #8
87802eb4:	4c554e3c 	mrrcmi	14, 3, r4, r5, cr12
87802eb8:	00003e4c 	andeq	r3, r0, ip, asr #28

87802ebc <CSWTCH.9>:
87802ebc:	00000004 	andeq	r0, r0, r4
87802ec0:	00000003 	andeq	r0, r0, r3
87802ec4:	00000002 	andeq	r0, r0, r2
87802ec8:	00000001 	andeq	r0, r0, r1
87802ecc:	00000000 	andeq	r0, r0, r0
87802ed0:	00000006 	andeq	r0, r0, r6

Disassembly of section .ARM.exidx:

87802ed4 <.ARM.exidx>:
87802ed4:	7ffffda0 	svcvc	0x00fffda0
87802ed8:	00000001 	andeq	r0, r0, r1

Disassembly of section .data:

87802edc <_ctype>:
87802edc:	08080808 	stmdaeq	r8, {r3, fp}
87802ee0:	08080808 	stmdaeq	r8, {r3, fp}
87802ee4:	28282808 	stmdacs	r8!, {r3, fp, sp}
87802ee8:	08082828 	stmdaeq	r8, {r3, r5, fp, sp}
87802eec:	08080808 	stmdaeq	r8, {r3, fp}
87802ef0:	08080808 	stmdaeq	r8, {r3, fp}
87802ef4:	08080808 	stmdaeq	r8, {r3, fp}
87802ef8:	08080808 	stmdaeq	r8, {r3, fp}
87802efc:	101010a0 	andsne	r1, r0, r0, lsr #1
87802f00:	10101010 	andsne	r1, r0, r0, lsl r0
87802f04:	10101010 	andsne	r1, r0, r0, lsl r0
87802f08:	10101010 	andsne	r1, r0, r0, lsl r0
87802f0c:	04040404 	streq	r0, [r4], #-1028	; 0x404
87802f10:	04040404 	streq	r0, [r4], #-1028	; 0x404
87802f14:	10100404 	andsne	r0, r0, r4, lsl #8
87802f18:	10101010 	andsne	r1, r0, r0, lsl r0
87802f1c:	41414110 	cmpmi	r1, r0, lsl r1
87802f20:	01414141 	cmpeq	r1, r1, asr #2
87802f24:	01010101 	tsteq	r1, r1, lsl #2
87802f28:	01010101 	tsteq	r1, r1, lsl #2
87802f2c:	01010101 	tsteq	r1, r1, lsl #2
87802f30:	01010101 	tsteq	r1, r1, lsl #2
87802f34:	10010101 	andne	r0, r1, r1, lsl #2
87802f38:	10101010 	andsne	r1, r0, r0, lsl r0
87802f3c:	42424210 	submi	r4, r2, #16, 4
87802f40:	02424242 	subeq	r4, r2, #536870916	; 0x20000004
87802f44:	02020202 	andeq	r0, r2, #536870912	; 0x20000000
87802f48:	02020202 	andeq	r0, r2, #536870912	; 0x20000000
87802f4c:	02020202 	andeq	r0, r2, #536870912	; 0x20000000
87802f50:	02020202 	andeq	r0, r2, #536870912	; 0x20000000
87802f54:	10020202 	andne	r0, r2, r2, lsl #4
87802f58:	08101010 	ldmdaeq	r0, {r4, ip}
	...
87802f7c:	101010a0 	andsne	r1, r0, r0, lsr #1
87802f80:	10101010 	andsne	r1, r0, r0, lsl r0
87802f84:	10101010 	andsne	r1, r0, r0, lsl r0
87802f88:	10101010 	andsne	r1, r0, r0, lsl r0
87802f8c:	10101010 	andsne	r1, r0, r0, lsl r0
87802f90:	10101010 	andsne	r1, r0, r0, lsl r0
87802f94:	10101010 	andsne	r1, r0, r0, lsl r0
87802f98:	10101010 	andsne	r1, r0, r0, lsl r0
87802f9c:	01010101 	tsteq	r1, r1, lsl #2
87802fa0:	01010101 	tsteq	r1, r1, lsl #2
87802fa4:	01010101 	tsteq	r1, r1, lsl #2
87802fa8:	01010101 	tsteq	r1, r1, lsl #2
87802fac:	01010101 	tsteq	r1, r1, lsl #2
87802fb0:	10010101 	andne	r0, r1, r1, lsl #2
87802fb4:	01010101 	tsteq	r1, r1, lsl #2
87802fb8:	02010101 	andeq	r0, r1, #1073741824	; 0x40000000
87802fbc:	02020202 	andeq	r0, r2, #536870912	; 0x20000000
87802fc0:	02020202 	andeq	r0, r2, #536870912	; 0x20000000
87802fc4:	02020202 	andeq	r0, r2, #536870912	; 0x20000000
87802fc8:	02020202 	andeq	r0, r2, #536870912	; 0x20000000
87802fcc:	02020202 	andeq	r0, r2, #536870912	; 0x20000000
87802fd0:	10020202 	andne	r0, r2, r2, lsl #4
87802fd4:	02020202 	andeq	r0, r2, #536870912	; 0x20000000
87802fd8:	02020202 	andeq	r0, r2, #536870912	; 0x20000000

Disassembly of section .bss:

87802fdc <ulCpuTraceTick>:
87802fdc:	00000000 	andeq	r0, r0, r0

87802fe0 <irqNesting>:
87802fe0:	00000000 	andeq	r0, r0, r0

87802fe4 <irqTable>:
	...

878034e4 <g_pcOutBuf>:
	...

878038e4 <g_pcInBuf>:
	...

87803ce4 <txlen.8802>:
87803ce4:	00000000 	andeq	r0, r0, r0

87803ce8 <rxlen.8803>:
87803ce8:	00000000 	andeq	r0, r0, r0

87803cec <icm20608_dev>:
	...

87803d24 <___strtok>:
87803d24:	00000000 	andeq	r0, r0, r0

