
hw_sim/task_blinky/build/task_blinky.elf:     file format elf32-littlearm


Disassembly of section .interrupts:

87800000 <__VECTOR_TABLE>:
87800000:	e59ff018 	ldr	pc, [pc, #24]	; 87800020 <__VECTOR_TABLE+0x20>
87800004:	e59ff018 	ldr	pc, [pc, #24]	; 87800024 <__VECTOR_TABLE+0x24>
87800008:	e59ff018 	ldr	pc, [pc, #24]	; 87800028 <__VECTOR_TABLE+0x28>
8780000c:	e59ff018 	ldr	pc, [pc, #24]	; 8780002c <__VECTOR_TABLE+0x2c>
87800010:	e59ff018 	ldr	pc, [pc, #24]	; 87800030 <__VECTOR_TABLE+0x30>
87800014:	00000000 	andeq	r0, r0, r0
87800018:	e59ff014 	ldr	pc, [pc, #20]	; 87800034 <__VECTOR_TABLE+0x34>
8780001c:	e59ff014 	ldr	pc, [pc, #20]	; 87800038 <__VECTOR_TABLE+0x38>
87800020:	87801490 			; <UNDEFINED> instruction: 0x87801490
87800024:	87801548 	strhi	r1, [r0, r8, asr #10]
87800028:	87801000 	strhi	r1, [r0, r0]
8780002c:	87801554 			; <UNDEFINED> instruction: 0x87801554
87800030:	8780155c 			; <UNDEFINED> instruction: 0x8780155c
87800034:	87801110 	usada8hi	r0, r0, r1, r1
87800038:	878015b8 			; <UNDEFINED> instruction: 0x878015b8

Disassembly of section .text:

87801000 <FreeRTOS_SWI_Handler>:
87801000:	f96d051f 	srsdb	sp!, #31
87801004:	f102001f 	cps	#31
87801008:	e92d5fff 	push	{r0, r1, r2, r3, r4, r5, r6, r7, r8, r9, sl, fp, ip, lr}
8780100c:	e59f22ac 	ldr	r2, [pc, #684]	; 878012c0 <ulCriticalNestingConst>
87801010:	e5921000 	ldr	r1, [r2]
87801014:	e52d1004 	push	{r1}		; (str r1, [sp, #-4]!)
87801018:	e59f22a4 	ldr	r2, [pc, #676]	; 878012c4 <ulPortTaskHasFPUContextConst>
8780101c:	e5923000 	ldr	r3, [r2]
87801020:	e3530000 	cmp	r3, #0
87801024:	1ef11a10 	vmrsne	r1, fpscr
87801028:	1d2d0b20 	vpushne	{d0-d15}
8780102c:	1d6d0b20 	vpushne	{d16-d31}
87801030:	152d1004 	pushne	{r1}		; (strne r1, [sp, #-4]!)
87801034:	e52d3004 	push	{r3}		; (str r3, [sp, #-4]!)
87801038:	e59f027c 	ldr	r0, [pc, #636]	; 878012bc <pxCurrentTCBConst>
8780103c:	e5901000 	ldr	r1, [r0]
87801040:	e581d000 	str	sp, [r1]
87801044:	e59f0280 	ldr	r0, [pc, #640]	; 878012cc <vTaskSwitchContextConst>
87801048:	e12fff30 	blx	r0
8780104c:	e59f0268 	ldr	r0, [pc, #616]	; 878012bc <pxCurrentTCBConst>
87801050:	e5901000 	ldr	r1, [r0]
87801054:	e591d000 	ldr	sp, [r1]
87801058:	e59f0264 	ldr	r0, [pc, #612]	; 878012c4 <ulPortTaskHasFPUContextConst>
8780105c:	e49d1004 	pop	{r1}		; (ldr r1, [sp], #4)
87801060:	e5801000 	str	r1, [r0]
87801064:	e3510000 	cmp	r1, #0
87801068:	149d0004 	popne	{r0}		; (ldrne r0, [sp], #4)
8780106c:	1cfd0b20 	vpopne	{d16-d31}
87801070:	1cbd0b20 	vpopne	{d0-d15}
87801074:	1ee10a10 	vmsrne	fpscr, r0
87801078:	e59f0240 	ldr	r0, [pc, #576]	; 878012c0 <ulCriticalNestingConst>
8780107c:	e49d1004 	pop	{r1}		; (ldr r1, [sp], #4)
87801080:	e5801000 	str	r1, [r0]
87801084:	e59f222c 	ldr	r2, [pc, #556]	; 878012b8 <ulICCPMRConst>
87801088:	e5922000 	ldr	r2, [r2]
8780108c:	e3510000 	cmp	r1, #0
87801090:	03a040ff 	moveq	r4, #255	; 0xff
87801094:	159f422c 	ldrne	r4, [pc, #556]	; 878012c8 <ulMaxAPIPriorityMaskConst>
87801098:	15944000 	ldrne	r4, [r4]
8780109c:	e5824000 	str	r4, [r2]
878010a0:	e8bd5fff 	pop	{r0, r1, r2, r3, r4, r5, r6, r7, r8, r9, sl, fp, ip, lr}
878010a4:	f8bd0a00 	rfeia	sp!

878010a8 <vPortRestoreTaskContext>:
878010a8:	f102001f 	cps	#31
878010ac:	e59f0208 	ldr	r0, [pc, #520]	; 878012bc <pxCurrentTCBConst>
878010b0:	e5901000 	ldr	r1, [r0]
878010b4:	e591d000 	ldr	sp, [r1]
878010b8:	e59f0204 	ldr	r0, [pc, #516]	; 878012c4 <ulPortTaskHasFPUContextConst>
878010bc:	e49d1004 	pop	{r1}		; (ldr r1, [sp], #4)
878010c0:	e5801000 	str	r1, [r0]
878010c4:	e3510000 	cmp	r1, #0
878010c8:	149d0004 	popne	{r0}		; (ldrne r0, [sp], #4)
878010cc:	1cfd0b20 	vpopne	{d16-d31}
878010d0:	1cbd0b20 	vpopne	{d0-d15}
878010d4:	1ee10a10 	vmsrne	fpscr, r0
878010d8:	e59f01e0 	ldr	r0, [pc, #480]	; 878012c0 <ulCriticalNestingConst>
878010dc:	e49d1004 	pop	{r1}		; (ldr r1, [sp], #4)
878010e0:	e5801000 	str	r1, [r0]
878010e4:	e59f21cc 	ldr	r2, [pc, #460]	; 878012b8 <ulICCPMRConst>
878010e8:	e5922000 	ldr	r2, [r2]
878010ec:	e3510000 	cmp	r1, #0
878010f0:	03a040ff 	moveq	r4, #255	; 0xff
878010f4:	159f41cc 	ldrne	r4, [pc, #460]	; 878012c8 <ulMaxAPIPriorityMaskConst>
878010f8:	15944000 	ldrne	r4, [r4]
878010fc:	e5824000 	str	r4, [r2]
87801100:	e8bd5fff 	pop	{r0, r1, r2, r3, r4, r5, r6, r7, r8, r9, sl, fp, ip, lr}
87801104:	f8bd0a00 	rfeia	sp!
87801108:	e320f000 	nop	{0}
8780110c:	e320f000 	nop	{0}

87801110 <FreeRTOS_IRQ_Handler>:
87801110:	e24ee004 	sub	lr, lr, #4
87801114:	e52de004 	push	{lr}		; (str lr, [sp, #-4]!)
87801118:	e14fe000 	mrs	lr, SPSR
8780111c:	e52de004 	push	{lr}		; (str lr, [sp, #-4]!)
87801120:	f1020013 	cps	#19
87801124:	e92d101f 	push	{r0, r1, r2, r3, r4, ip}
87801128:	e59f31a4 	ldr	r3, [pc, #420]	; 878012d4 <ulPortInterruptNestingConst>
8780112c:	e5931000 	ldr	r1, [r3]
87801130:	e2814001 	add	r4, r1, #1
87801134:	e5834000 	str	r4, [r3]
87801138:	e59f2170 	ldr	r2, [pc, #368]	; 878012b0 <ulICCIARConst>
8780113c:	e5922000 	ldr	r2, [r2]
87801140:	e5920000 	ldr	r0, [r2]
87801144:	e1a0200d 	mov	r2, sp
87801148:	e2022004 	and	r2, r2, #4
8780114c:	e04dd002 	sub	sp, sp, r2
87801150:	e92d400f 	push	{r0, r1, r2, r3, lr}
87801154:	e59f1180 	ldr	r1, [pc, #384]	; 878012dc <vApplicationFPUSafeIRQHandlerConst+0x4>
87801158:	e12fff31 	blx	r1
8780115c:	e8bd400f 	pop	{r0, r1, r2, r3, lr}
87801160:	e08dd002 	add	sp, sp, r2
87801164:	f10c0080 	cpsid	i
87801168:	f57ff04f 	dsb	sy
8780116c:	f57ff06f 	isb	sy
87801170:	e59f413c 	ldr	r4, [pc, #316]	; 878012b4 <ulICCEOIRConst>
87801174:	e5944000 	ldr	r4, [r4]
87801178:	e5840000 	str	r0, [r4]
8780117c:	e5831000 	str	r1, [r3]
87801180:	e3510000 	cmp	r1, #0
87801184:	1a000003 	bne	87801198 <exit_without_switch>
87801188:	e59f1150 	ldr	r1, [pc, #336]	; 878012e0 <vApplicationFPUSafeIRQHandlerConst+0x8>
8780118c:	e5910000 	ldr	r0, [r1]
87801190:	e3500000 	cmp	r0, #0
87801194:	1a000005 	bne	878011b0 <switch_before_exit>

87801198 <exit_without_switch>:
87801198:	e8bd101f 	pop	{r0, r1, r2, r3, r4, ip}
8780119c:	f1020012 	cps	#18
878011a0:	e49de004 	pop	{lr}		; (ldr lr, [sp], #4)
878011a4:	e16ff00e 	msr	SPSR_fsxc, lr
878011a8:	e49de004 	pop	{lr}		; (ldr lr, [sp], #4)
878011ac:	e1b0f00e 	movs	pc, lr

878011b0 <switch_before_exit>:
878011b0:	e3a00000 	mov	r0, #0
878011b4:	e5810000 	str	r0, [r1]
878011b8:	e8bd101f 	pop	{r0, r1, r2, r3, r4, ip}
878011bc:	f1020012 	cps	#18
878011c0:	e49de004 	pop	{lr}		; (ldr lr, [sp], #4)
878011c4:	e16ff00e 	msr	SPSR_fsxc, lr
878011c8:	e49de004 	pop	{lr}		; (ldr lr, [sp], #4)
878011cc:	f96d051f 	srsdb	sp!, #31
878011d0:	f102001f 	cps	#31
878011d4:	e92d5fff 	push	{r0, r1, r2, r3, r4, r5, r6, r7, r8, r9, sl, fp, ip, lr}
878011d8:	e59f20e0 	ldr	r2, [pc, #224]	; 878012c0 <ulCriticalNestingConst>
878011dc:	e5921000 	ldr	r1, [r2]
878011e0:	e52d1004 	push	{r1}		; (str r1, [sp, #-4]!)
878011e4:	e59f20d8 	ldr	r2, [pc, #216]	; 878012c4 <ulPortTaskHasFPUContextConst>
878011e8:	e5923000 	ldr	r3, [r2]
878011ec:	e3530000 	cmp	r3, #0
878011f0:	1ef11a10 	vmrsne	r1, fpscr
878011f4:	1d2d0b20 	vpushne	{d0-d15}
878011f8:	1d6d0b20 	vpushne	{d16-d31}
878011fc:	152d1004 	pushne	{r1}		; (strne r1, [sp, #-4]!)
87801200:	e52d3004 	push	{r3}		; (str r3, [sp, #-4]!)
87801204:	e59f00b0 	ldr	r0, [pc, #176]	; 878012bc <pxCurrentTCBConst>
87801208:	e5901000 	ldr	r1, [r0]
8780120c:	e581d000 	str	sp, [r1]
87801210:	e59f00b4 	ldr	r0, [pc, #180]	; 878012cc <vTaskSwitchContextConst>
87801214:	e12fff30 	blx	r0
87801218:	e59f009c 	ldr	r0, [pc, #156]	; 878012bc <pxCurrentTCBConst>
8780121c:	e5901000 	ldr	r1, [r0]
87801220:	e591d000 	ldr	sp, [r1]
87801224:	e59f0098 	ldr	r0, [pc, #152]	; 878012c4 <ulPortTaskHasFPUContextConst>
87801228:	e49d1004 	pop	{r1}		; (ldr r1, [sp], #4)
8780122c:	e5801000 	str	r1, [r0]
87801230:	e3510000 	cmp	r1, #0
87801234:	149d0004 	popne	{r0}		; (ldrne r0, [sp], #4)
87801238:	1cfd0b20 	vpopne	{d16-d31}
8780123c:	1cbd0b20 	vpopne	{d0-d15}
87801240:	1ee10a10 	vmsrne	fpscr, r0
87801244:	e59f0074 	ldr	r0, [pc, #116]	; 878012c0 <ulCriticalNestingConst>
87801248:	e49d1004 	pop	{r1}		; (ldr r1, [sp], #4)
8780124c:	e5801000 	str	r1, [r0]
87801250:	e59f2060 	ldr	r2, [pc, #96]	; 878012b8 <ulICCPMRConst>
87801254:	e5922000 	ldr	r2, [r2]
87801258:	e3510000 	cmp	r1, #0
8780125c:	03a040ff 	moveq	r4, #255	; 0xff
87801260:	159f4060 	ldrne	r4, [pc, #96]	; 878012c8 <ulMaxAPIPriorityMaskConst>
87801264:	15944000 	ldrne	r4, [r4]
87801268:	e5824000 	str	r4, [r2]
8780126c:	e8bd5fff 	pop	{r0, r1, r2, r3, r4, r5, r6, r7, r8, r9, sl, fp, ip, lr}
87801270:	f8bd0a00 	rfeia	sp!
87801274:	e320f000 	nop	{0}
87801278:	e320f000 	nop	{0}
8780127c:	e320f000 	nop	{0}

87801280 <vApplicationIRQHandler>:
87801280:	e52de004 	push	{lr}		; (str lr, [sp, #-4]!)
87801284:	eef11a10 	vmrs	r1, fpscr
87801288:	ed2d0b20 	vpush	{d0-d15}
8780128c:	ed6d0b20 	vpush	{d16-d31}
87801290:	e52d1004 	push	{r1}		; (str r1, [sp, #-4]!)
87801294:	e59f103c 	ldr	r1, [pc, #60]	; 878012d8 <vApplicationFPUSafeIRQHandlerConst>
87801298:	e12fff31 	blx	r1
8780129c:	e49d0004 	pop	{r0}		; (ldr r0, [sp], #4)
878012a0:	ecfd0b20 	vpop	{d16-d31}
878012a4:	ecbd0b20 	vpop	{d0-d15}
878012a8:	eee10a10 	vmsr	fpscr, r0
878012ac:	e49df004 	pop	{pc}		; (ldr pc, [sp], #4)

878012b0 <ulICCIARConst>:
878012b0:	87806900 	strhi	r6, [r0, r0, lsl #18]

878012b4 <ulICCEOIRConst>:
878012b4:	878068fc 			; <UNDEFINED> instruction: 0x878068fc

878012b8 <ulICCPMRConst>:
878012b8:	878068f8 			; <UNDEFINED> instruction: 0x878068f8

878012bc <pxCurrentTCBConst>:
878012bc:	8800010c 	stmdahi	r0, {r2, r3, r8}

878012c0 <ulCriticalNestingConst>:
878012c0:	88000000 	stmdahi	r0, {}	; <UNPREDICTABLE>

878012c4 <ulPortTaskHasFPUContextConst>:
878012c4:	88000250 	stmdahi	r0, {r4, r6, r9}

878012c8 <ulMaxAPIPriorityMaskConst>:
878012c8:	878068f4 			; <UNDEFINED> instruction: 0x878068f4

878012cc <vTaskSwitchContextConst>:
878012cc:	87802cb9 			; <UNDEFINED> instruction: 0x87802cb9

878012d0 <vApplicationIRQHandlerConst>:
878012d0:	87801280 	strhi	r1, [r0, r0, lsl #5]

878012d4 <ulPortInterruptNestingConst>:
878012d4:	88000248 	stmdahi	r0, {r3, r6, r9}

878012d8 <vApplicationFPUSafeIRQHandlerConst>:
878012d8:	87804031 			; <UNDEFINED> instruction: 0x87804031
878012dc:	87805e95 			; <UNDEFINED> instruction: 0x87805e95
878012e0:	8800024c 	stmdahi	r0, {r2, r3, r6, r9}
	...

878012f0 <__umodsi3>:
878012f0:	e2512001 	subs	r2, r1, #1
878012f4:	3a000062 	bcc	87801484 <Ldiv0>
878012f8:	11500001 	cmpne	r0, r1
878012fc:	03a00000 	moveq	r0, #0
87801300:	81110002 	tsthi	r1, r2
87801304:	00000002 	andeq	r0, r0, r2
87801308:	91a0f00e 	movls	pc, lr
8780130c:	e3a02000 	mov	r2, #0
87801310:	e3510201 	cmp	r1, #268435456	; 0x10000000
87801314:	31510000 	cmpcc	r1, r0
87801318:	31a01201 	lslcc	r1, r1, #4
8780131c:	32822004 	addcc	r2, r2, #4
87801320:	3afffffa 	bcc	87801310 <__umodsi3+0x20>
87801324:	e3510102 	cmp	r1, #-2147483648	; 0x80000000
87801328:	31510000 	cmpcc	r1, r0
8780132c:	31a01081 	lslcc	r1, r1, #1
87801330:	32822001 	addcc	r2, r2, #1
87801334:	3afffffa 	bcc	87801324 <__umodsi3+0x34>
87801338:	e2522003 	subs	r2, r2, #3
8780133c:	ba00000e 	blt	8780137c <__umodsi3+0x8c>
87801340:	e1500001 	cmp	r0, r1
87801344:	20400001 	subcs	r0, r0, r1
87801348:	e15000a1 	cmp	r0, r1, lsr #1
8780134c:	204000a1 	subcs	r0, r0, r1, lsr #1
87801350:	e1500121 	cmp	r0, r1, lsr #2
87801354:	20400121 	subcs	r0, r0, r1, lsr #2
87801358:	e15001a1 	cmp	r0, r1, lsr #3
8780135c:	204001a1 	subcs	r0, r0, r1, lsr #3
87801360:	e3500001 	cmp	r0, #1
87801364:	e1a01221 	lsr	r1, r1, #4
87801368:	a2522004 	subsge	r2, r2, #4
8780136c:	aafffff3 	bge	87801340 <__umodsi3+0x50>
87801370:	e3120003 	tst	r2, #3
87801374:	13300000 	teqne	r0, #0
87801378:	0a00000a 	beq	878013a8 <__umodsi3+0xb8>
8780137c:	e3720002 	cmn	r2, #2
87801380:	ba000006 	blt	878013a0 <__umodsi3+0xb0>
87801384:	0a000002 	beq	87801394 <__umodsi3+0xa4>
87801388:	e1500001 	cmp	r0, r1
8780138c:	20400001 	subcs	r0, r0, r1
87801390:	e1a010a1 	lsr	r1, r1, #1
87801394:	e1500001 	cmp	r0, r1
87801398:	20400001 	subcs	r0, r0, r1
8780139c:	e1a010a1 	lsr	r1, r1, #1
878013a0:	e1500001 	cmp	r0, r1
878013a4:	20400001 	subcs	r0, r0, r1
878013a8:	e1a0f00e 	mov	pc, lr
878013ac:	90909090 	umullsls	r9, r0, r0, r0

878013b0 <__modsi3>:
878013b0:	e3510000 	cmp	r1, #0
878013b4:	0a000032 	beq	87801484 <Ldiv0>
878013b8:	42611000 	rsbmi	r1, r1, #0
878013bc:	e1b0c000 	movs	ip, r0
878013c0:	42600000 	rsbmi	r0, r0, #0
878013c4:	e2512001 	subs	r2, r1, #1
878013c8:	11500001 	cmpne	r0, r1
878013cc:	03a00000 	moveq	r0, #0
878013d0:	81110002 	tsthi	r1, r2
878013d4:	00000002 	andeq	r0, r0, r2
878013d8:	9a000026 	bls	87801478 <__modsi3+0xc8>
878013dc:	e3a02000 	mov	r2, #0
878013e0:	e3510201 	cmp	r1, #268435456	; 0x10000000
878013e4:	31510000 	cmpcc	r1, r0
878013e8:	31a01201 	lslcc	r1, r1, #4
878013ec:	32822004 	addcc	r2, r2, #4
878013f0:	3afffffa 	bcc	878013e0 <__modsi3+0x30>
878013f4:	e3510102 	cmp	r1, #-2147483648	; 0x80000000
878013f8:	31510000 	cmpcc	r1, r0
878013fc:	31a01081 	lslcc	r1, r1, #1
87801400:	32822001 	addcc	r2, r2, #1
87801404:	3afffffa 	bcc	878013f4 <__modsi3+0x44>
87801408:	e2522003 	subs	r2, r2, #3
8780140c:	ba00000e 	blt	8780144c <__modsi3+0x9c>
87801410:	e1500001 	cmp	r0, r1
87801414:	20400001 	subcs	r0, r0, r1
87801418:	e15000a1 	cmp	r0, r1, lsr #1
8780141c:	204000a1 	subcs	r0, r0, r1, lsr #1
87801420:	e1500121 	cmp	r0, r1, lsr #2
87801424:	20400121 	subcs	r0, r0, r1, lsr #2
87801428:	e15001a1 	cmp	r0, r1, lsr #3
8780142c:	204001a1 	subcs	r0, r0, r1, lsr #3
87801430:	e3500001 	cmp	r0, #1
87801434:	e1a01221 	lsr	r1, r1, #4
87801438:	a2522004 	subsge	r2, r2, #4
8780143c:	aafffff3 	bge	87801410 <__modsi3+0x60>
87801440:	e3120003 	tst	r2, #3
87801444:	13300000 	teqne	r0, #0
87801448:	0a00000a 	beq	87801478 <__modsi3+0xc8>
8780144c:	e3720002 	cmn	r2, #2
87801450:	ba000006 	blt	87801470 <__modsi3+0xc0>
87801454:	0a000002 	beq	87801464 <__modsi3+0xb4>
87801458:	e1500001 	cmp	r0, r1
8780145c:	20400001 	subcs	r0, r0, r1
87801460:	e1a010a1 	lsr	r1, r1, #1
87801464:	e1500001 	cmp	r0, r1
87801468:	20400001 	subcs	r0, r0, r1
8780146c:	e1a010a1 	lsr	r1, r1, #1
87801470:	e1500001 	cmp	r0, r1
87801474:	20400001 	subcs	r0, r0, r1
87801478:	e35c0000 	cmp	ip, #0
8780147c:	42600000 	rsbmi	r0, r0, #0
87801480:	e1a0f00e 	mov	pc, lr

87801484 <Ldiv0>:
87801484:	e52de004 	push	{lr}		; (str lr, [sp, #-4]!)
87801488:	e3a00000 	mov	r0, #0
8780148c:	e49df004 	pop	{pc}		; (ldr pc, [sp], #4)

87801490 <Reset_Handler>:
87801490:	f10c0080 	cpsid	i
87801494:	ee110f10 	mrc	15, 0, r0, cr1, cr0, {0}
87801498:	e3c00a01 	bic	r0, r0, #4096	; 0x1000
8780149c:	e3c00004 	bic	r0, r0, #4
878014a0:	e3c00002 	bic	r0, r0, #2
878014a4:	e3c00b02 	bic	r0, r0, #2048	; 0x800
878014a8:	e3c00001 	bic	r0, r0, #1
878014ac:	ee010f10 	mcr	15, 0, r0, cr1, cr0, {0}
878014b0:	f1020012 	cps	#18
878014b4:	e59fd064 	ldr	sp, [pc, #100]	; 87801520 <Reset_Handler+0x90>
878014b8:	f102001f 	cps	#31
878014bc:	e59fd060 	ldr	sp, [pc, #96]	; 87801524 <Reset_Handler+0x94>
878014c0:	f1020013 	cps	#19
878014c4:	e59fd058 	ldr	sp, [pc, #88]	; 87801524 <Reset_Handler+0x94>
878014c8:	f1080080 	cpsie	i
878014cc:	e59f1054 	ldr	r1, [pc, #84]	; 87801528 <Reset_Handler+0x98>
878014d0:	e59f2054 	ldr	r2, [pc, #84]	; 8780152c <Reset_Handler+0x9c>
878014d4:	e59f3054 	ldr	r3, [pc, #84]	; 87801530 <Reset_Handler+0xa0>
878014d8:	e1520003 	cmp	r2, r3
878014dc:	b4910004 	ldrlt	r0, [r1], #4
878014e0:	b4820004 	strlt	r0, [r2], #4
878014e4:	bafffffb 	blt	878014d8 <Reset_Handler+0x48>
878014e8:	e59f2044 	ldr	r2, [pc, #68]	; 87801534 <Reset_Handler+0xa4>
878014ec:	e59f3044 	ldr	r3, [pc, #68]	; 87801538 <Reset_Handler+0xa8>
878014f0:	e1520003 	cmp	r2, r3
878014f4:	b4910004 	ldrlt	r0, [r1], #4
878014f8:	b4820004 	strlt	r0, [r2], #4
878014fc:	bafffffb 	blt	878014f0 <Reset_Handler+0x60>
87801500:	e59f1034 	ldr	r1, [pc, #52]	; 8780153c <Reset_Handler+0xac>
87801504:	e59f2034 	ldr	r2, [pc, #52]	; 87801540 <Reset_Handler+0xb0>
87801508:	e3b00000 	movs	r0, #0
8780150c:	e1510002 	cmp	r1, r2
87801510:	b4810004 	strlt	r0, [r1], #4
87801514:	bafffffc 	blt	8780150c <Reset_Handler+0x7c>
87801518:	e59f0024 	ldr	r0, [pc, #36]	; 87801544 <Reset_Handler+0xb4>
8780151c:	e12fff10 	bx	r0
87801520:	88400000 	stmdahi	r0, {}^	; <UNPREDICTABLE>
87801524:	883fe000 	ldmdahi	pc!, {sp, lr, pc}	; <UNPREDICTABLE>
87801528:	878069c4 	strhi	r6, [r0, r4, asr #19]
8780152c:	88000000 	stmdahi	r0, {}	; <UNPREDICTABLE>
87801530:	88000104 	stmdahi	r0, {r2, r8}
87801534:	00900000 	addseq	r0, r0, r0
87801538:	00900000 	addseq	r0, r0, r0
8780153c:	88000104 	stmdahi	r0, {r2, r8}
87801540:	88019fbc 	stmdahi	r1, {r2, r3, r4, r5, r7, r8, r9, sl, fp, ip, pc}
87801544:	8780689d 			; <UNDEFINED> instruction: 0x8780689d

87801548 <Undefined_Handler>:
87801548:	eafffffe 	b	87801548 <Undefined_Handler>

8780154c <SVC_Handler>:
8780154c:	e59f006c 	ldr	r0, [pc, #108]	; 878015c0 <FIQ_Handler+0x8>
87801550:	e12fff10 	bx	r0

87801554 <PrefAbort_Handler>:
87801554:	e59f0068 	ldr	r0, [pc, #104]	; 878015c4 <FIQ_Handler+0xc>
87801558:	e12fff10 	bx	r0

8780155c <DataAbort_Handler>:
8780155c:	e59f0064 	ldr	r0, [pc, #100]	; 878015c8 <FIQ_Handler+0x10>
87801560:	e12fff10 	bx	r0

87801564 <IRQ_Handler>:
87801564:	e52de004 	push	{lr}		; (str lr, [sp, #-4]!)
87801568:	e92d100f 	push	{r0, r1, r2, r3, ip}
8780156c:	e14f0000 	mrs	r0, SPSR
87801570:	e52d0004 	push	{r0}		; (str r0, [sp, #-4]!)
87801574:	ee9f1f10 	mrc	15, 4, r1, cr15, cr0, {0}
87801578:	e2811a02 	add	r1, r1, #8192	; 0x2000
8780157c:	e591000c 	ldr	r0, [r1, #12]
87801580:	e92d0003 	push	{r0, r1}
87801584:	f1020013 	cps	#19
87801588:	e52de004 	push	{lr}		; (str lr, [sp, #-4]!)
8780158c:	e59f2038 	ldr	r2, [pc, #56]	; 878015cc <FIQ_Handler+0x14>
87801590:	e12fff32 	blx	r2
87801594:	e49de004 	pop	{lr}		; (ldr lr, [sp], #4)
87801598:	f1020012 	cps	#18
8780159c:	e8bd0003 	pop	{r0, r1}
878015a0:	e5810010 	str	r0, [r1, #16]
878015a4:	e49d0004 	pop	{r0}		; (ldr r0, [sp], #4)
878015a8:	e16ff000 	msr	SPSR_fsxc, r0
878015ac:	e8bd100f 	pop	{r0, r1, r2, r3, ip}
878015b0:	e49de004 	pop	{lr}		; (ldr lr, [sp], #4)
878015b4:	e25ef004 	subs	pc, lr, #4

878015b8 <FIQ_Handler>:
878015b8:	e59f0010 	ldr	r0, [pc, #16]	; 878015d0 <FIQ_Handler+0x18>
878015bc:	e12fff10 	bx	r0
878015c0:	8780154c 	strhi	r1, [r0, ip, asr #10]
878015c4:	87801554 			; <UNDEFINED> instruction: 0x87801554
878015c8:	8780155c 			; <UNDEFINED> instruction: 0x8780155c
878015cc:	87805e95 			; <UNDEFINED> instruction: 0x87805e95
878015d0:	878015b8 			; <UNDEFINED> instruction: 0x878015b8

878015d4 <prvQueueSendTimerCallback>:
878015d4:	b510      	push	{r4, lr}
878015d6:	f240 1204 	movw	r2, #260	; 0x104
878015da:	b082      	sub	sp, #8
878015dc:	2300      	movs	r3, #0
878015de:	a902      	add	r1, sp, #8
878015e0:	24c8      	movs	r4, #200	; 0xc8
878015e2:	f6c8 0200 	movt	r2, #34816	; 0x8800
878015e6:	f841 4d04 	str.w	r4, [r1, #-4]!
878015ea:	6810      	ldr	r0, [r2, #0]
878015ec:	461a      	mov	r2, r3
878015ee:	f000 f985 	bl	878018fc <xQueueGenericSend>
878015f2:	b002      	add	sp, #8
878015f4:	bd10      	pop	{r4, pc}
878015f6:	bf00      	nop

878015f8 <prvQueueSendTask>:
878015f8:	b530      	push	{r4, r5, lr}
878015fa:	f240 1504 	movw	r5, #260	; 0x104
878015fe:	b083      	sub	sp, #12
87801600:	f6c8 0500 	movt	r5, #34816	; 0x8800
87801604:	2364      	movs	r3, #100	; 0x64
87801606:	ac02      	add	r4, sp, #8
87801608:	9301      	str	r3, [sp, #4]
8780160a:	f001 f9c1 	bl	87802990 <xTaskGetTickCount>
8780160e:	f844 0d08 	str.w	r0, [r4, #-8]!
87801612:	4620      	mov	r0, r4
87801614:	21c8      	movs	r1, #200	; 0xc8
87801616:	f001 fac3 	bl	87802ba0 <vTaskDelayUntil>
8780161a:	2300      	movs	r3, #0
8780161c:	a901      	add	r1, sp, #4
8780161e:	461a      	mov	r2, r3
87801620:	6828      	ldr	r0, [r5, #0]
87801622:	f000 f96b 	bl	878018fc <xQueueGenericSend>
87801626:	e7f4      	b.n	87801612 <prvQueueSendTask+0x1a>

87801628 <prvQueueReceiveTask>:
87801628:	b580      	push	{r7, lr}
8780162a:	f240 1504 	movw	r5, #260	; 0x104
8780162e:	f646 1474 	movw	r4, #26996	; 0x6974
87801632:	f646 164c 	movw	r6, #26956	; 0x694c
87801636:	f646 172c 	movw	r7, #26924	; 0x692c
8780163a:	b082      	sub	sp, #8
8780163c:	f6c8 0500 	movt	r5, #34816	; 0x8800
87801640:	f2c8 7480 	movt	r4, #34688	; 0x8780
87801644:	f2c8 7680 	movt	r6, #34688	; 0x8780
87801648:	f2c8 7780 	movt	r7, #34688	; 0x8780
8780164c:	e006      	b.n	8780165c <prvQueueReceiveTask+0x34>
8780164e:	2bc8      	cmp	r3, #200	; 0xc8
87801650:	bf08      	it	eq
87801652:	4630      	moveq	r0, r6
87801654:	f002 fe20 	bl	87804298 <printf>
87801658:	f002 fc4c 	bl	87803ef4 <vPortExitCritical>
8780165c:	2300      	movs	r3, #0
8780165e:	f04f 32ff 	mov.w	r2, #4294967295	; 0xffffffff
87801662:	a901      	add	r1, sp, #4
87801664:	6828      	ldr	r0, [r5, #0]
87801666:	f000 fab5 	bl	87801bd4 <xQueueGenericReceive>
8780166a:	f002 fc01 	bl	87803e70 <vPortEnterCritical>
8780166e:	9b01      	ldr	r3, [sp, #4]
87801670:	4620      	mov	r0, r4
87801672:	2b64      	cmp	r3, #100	; 0x64
87801674:	d1eb      	bne.n	8780164e <prvQueueReceiveTask+0x26>
87801676:	4638      	mov	r0, r7
87801678:	f002 fe0e 	bl	87804298 <printf>
8780167c:	e7ec      	b.n	87801658 <prvQueueReceiveTask+0x30>
8780167e:	bf00      	nop

87801680 <main_blinky>:
87801680:	b570      	push	{r4, r5, r6, lr}
87801682:	2200      	movs	r2, #0
87801684:	b082      	sub	sp, #8
87801686:	2104      	movs	r1, #4
87801688:	2002      	movs	r0, #2
8780168a:	f000 f905 	bl	87801898 <xQueueGenericCreate>
8780168e:	f240 1304 	movw	r3, #260	; 0x104
87801692:	f6c8 0300 	movt	r3, #34816	; 0x8800
87801696:	6018      	str	r0, [r3, #0]
87801698:	b3c8      	cbz	r0, 8780170e <main_blinky+0x8e>
8780169a:	2400      	movs	r4, #0
8780169c:	2202      	movs	r2, #2
8780169e:	f646 118c 	movw	r1, #27020	; 0x698c
878016a2:	f241 6029 	movw	r0, #5673	; 0x1629
878016a6:	4623      	mov	r3, r4
878016a8:	9200      	str	r2, [sp, #0]
878016aa:	f2c8 7180 	movt	r1, #34688	; 0x8780
878016ae:	225a      	movs	r2, #90	; 0x5a
878016b0:	9401      	str	r4, [sp, #4]
878016b2:	f2c8 7080 	movt	r0, #34688	; 0x8780
878016b6:	f000 feaf 	bl	87802418 <xTaskCreate>
878016ba:	2501      	movs	r5, #1
878016bc:	f646 1190 	movw	r1, #27024	; 0x6990
878016c0:	f241 50f9 	movw	r0, #5625	; 0x15f9
878016c4:	4623      	mov	r3, r4
878016c6:	f2c8 7180 	movt	r1, #34688	; 0x8780
878016ca:	225a      	movs	r2, #90	; 0x5a
878016cc:	9401      	str	r4, [sp, #4]
878016ce:	f2c8 7080 	movt	r0, #34688	; 0x8780
878016d2:	9500      	str	r5, [sp, #0]
878016d4:	f000 fea0 	bl	87802418 <xTaskCreate>
878016d8:	f241 52d5 	movw	r2, #5589	; 0x15d5
878016dc:	f646 1094 	movw	r0, #27028	; 0x6994
878016e0:	f2c8 7280 	movt	r2, #34688	; 0x8780
878016e4:	4623      	mov	r3, r4
878016e6:	f44f 61fa 	mov.w	r1, #2000	; 0x7d0
878016ea:	9200      	str	r2, [sp, #0]
878016ec:	f2c8 7080 	movt	r0, #34688	; 0x8780
878016f0:	462a      	mov	r2, r5
878016f2:	f002 f871 	bl	878037d8 <xTimerCreate>
878016f6:	4606      	mov	r6, r0
878016f8:	f001 f94a 	bl	87802990 <xTaskGetTickCount>
878016fc:	4623      	mov	r3, r4
878016fe:	4602      	mov	r2, r0
87801700:	4629      	mov	r1, r5
87801702:	9400      	str	r4, [sp, #0]
87801704:	4630      	mov	r0, r6
87801706:	f002 f885 	bl	87803814 <xTimerGenericCommand>
8780170a:	f001 f8f5 	bl	878028f8 <vTaskStartScheduler>
8780170e:	e7fe      	b.n	8780170e <main_blinky+0x8e>

87801710 <prvCopyDataToQueue>:
87801710:	b570      	push	{r4, r5, r6, lr}
87801712:	4616      	mov	r6, r2
87801714:	6c02      	ldr	r2, [r0, #64]	; 0x40
87801716:	4604      	mov	r4, r0
87801718:	6b85      	ldr	r5, [r0, #56]	; 0x38
8780171a:	b932      	cbnz	r2, 8780172a <prvCopyDataToQueue+0x1a>
8780171c:	6806      	ldr	r6, [r0, #0]
8780171e:	2e00      	cmp	r6, #0
87801720:	d02f      	beq.n	87801782 <prvCopyDataToQueue+0x72>
87801722:	3501      	adds	r5, #1
87801724:	4610      	mov	r0, r2
87801726:	63a5      	str	r5, [r4, #56]	; 0x38
87801728:	bd70      	pop	{r4, r5, r6, pc}
8780172a:	b99e      	cbnz	r6, 87801754 <prvCopyDataToQueue+0x44>
8780172c:	6880      	ldr	r0, [r0, #8]
8780172e:	f002 fff9 	bl	87804724 <memcpy>
87801732:	68a3      	ldr	r3, [r4, #8]
87801734:	6c21      	ldr	r1, [r4, #64]	; 0x40
87801736:	6862      	ldr	r2, [r4, #4]
87801738:	440b      	add	r3, r1
8780173a:	4293      	cmp	r3, r2
8780173c:	60a3      	str	r3, [r4, #8]
8780173e:	bf2b      	itete	cs
87801740:	6823      	ldrcs	r3, [r4, #0]
87801742:	3501      	addcc	r5, #1
87801744:	3501      	addcs	r5, #1
87801746:	4630      	movcc	r0, r6
87801748:	bf28      	it	cs
8780174a:	4630      	movcs	r0, r6
8780174c:	63a5      	str	r5, [r4, #56]	; 0x38
8780174e:	bf28      	it	cs
87801750:	60a3      	strcs	r3, [r4, #8]
87801752:	bd70      	pop	{r4, r5, r6, pc}
87801754:	68c0      	ldr	r0, [r0, #12]
87801756:	f002 ffe5 	bl	87804724 <memcpy>
8780175a:	6c22      	ldr	r2, [r4, #64]	; 0x40
8780175c:	68e3      	ldr	r3, [r4, #12]
8780175e:	6821      	ldr	r1, [r4, #0]
87801760:	4252      	negs	r2, r2
87801762:	4413      	add	r3, r2
87801764:	428b      	cmp	r3, r1
87801766:	60e3      	str	r3, [r4, #12]
87801768:	bf3e      	ittt	cc
8780176a:	6863      	ldrcc	r3, [r4, #4]
8780176c:	18d2      	addcc	r2, r2, r3
8780176e:	60e2      	strcc	r2, [r4, #12]
87801770:	2e02      	cmp	r6, #2
87801772:	bf1c      	itt	ne
87801774:	3501      	addne	r5, #1
87801776:	2000      	movne	r0, #0
87801778:	d1d5      	bne.n	87801726 <prvCopyDataToQueue+0x16>
8780177a:	b905      	cbnz	r5, 8780177e <prvCopyDataToQueue+0x6e>
8780177c:	2501      	movs	r5, #1
8780177e:	2000      	movs	r0, #0
87801780:	e7d1      	b.n	87801726 <prvCopyDataToQueue+0x16>
87801782:	6840      	ldr	r0, [r0, #4]
87801784:	3501      	adds	r5, #1
87801786:	f001 fd97 	bl	878032b8 <xTaskPriorityDisinherit>
8780178a:	6066      	str	r6, [r4, #4]
8780178c:	e7cb      	b.n	87801726 <prvCopyDataToQueue+0x16>
8780178e:	bf00      	nop

87801790 <prvUnlockQueue>:
87801790:	b570      	push	{r4, r5, r6, lr}
87801792:	4605      	mov	r5, r0
87801794:	f002 fb6c 	bl	87803e70 <vPortEnterCritical>
87801798:	f895 4045 	ldrb.w	r4, [r5, #69]	; 0x45
8780179c:	b264      	sxtb	r4, r4
8780179e:	2c00      	cmp	r4, #0
878017a0:	dd16      	ble.n	878017d0 <prvUnlockQueue+0x40>
878017a2:	6a6b      	ldr	r3, [r5, #36]	; 0x24
878017a4:	b1a3      	cbz	r3, 878017d0 <prvUnlockQueue+0x40>
878017a6:	f105 0624 	add.w	r6, r5, #36	; 0x24
878017aa:	e005      	b.n	878017b8 <prvUnlockQueue+0x28>
878017ac:	3c01      	subs	r4, #1
878017ae:	b2e3      	uxtb	r3, r4
878017b0:	b25c      	sxtb	r4, r3
878017b2:	b16b      	cbz	r3, 878017d0 <prvUnlockQueue+0x40>
878017b4:	6a6b      	ldr	r3, [r5, #36]	; 0x24
878017b6:	b15b      	cbz	r3, 878017d0 <prvUnlockQueue+0x40>
878017b8:	4630      	mov	r0, r6
878017ba:	f001 fb4f 	bl	87802e5c <xTaskRemoveFromEventList>
878017be:	2800      	cmp	r0, #0
878017c0:	d0f4      	beq.n	878017ac <prvUnlockQueue+0x1c>
878017c2:	3c01      	subs	r4, #1
878017c4:	f001 fbf8 	bl	87802fb8 <vTaskMissedYield>
878017c8:	b2e3      	uxtb	r3, r4
878017ca:	b25c      	sxtb	r4, r3
878017cc:	2b00      	cmp	r3, #0
878017ce:	d1f1      	bne.n	878017b4 <prvUnlockQueue+0x24>
878017d0:	23ff      	movs	r3, #255	; 0xff
878017d2:	f885 3045 	strb.w	r3, [r5, #69]	; 0x45
878017d6:	f002 fb8d 	bl	87803ef4 <vPortExitCritical>
878017da:	f002 fb49 	bl	87803e70 <vPortEnterCritical>
878017de:	f895 4044 	ldrb.w	r4, [r5, #68]	; 0x44
878017e2:	b264      	sxtb	r4, r4
878017e4:	2c00      	cmp	r4, #0
878017e6:	dd16      	ble.n	87801816 <prvUnlockQueue+0x86>
878017e8:	692b      	ldr	r3, [r5, #16]
878017ea:	b1a3      	cbz	r3, 87801816 <prvUnlockQueue+0x86>
878017ec:	f105 0610 	add.w	r6, r5, #16
878017f0:	e005      	b.n	878017fe <prvUnlockQueue+0x6e>
878017f2:	3c01      	subs	r4, #1
878017f4:	b2e3      	uxtb	r3, r4
878017f6:	b25c      	sxtb	r4, r3
878017f8:	b16b      	cbz	r3, 87801816 <prvUnlockQueue+0x86>
878017fa:	692b      	ldr	r3, [r5, #16]
878017fc:	b15b      	cbz	r3, 87801816 <prvUnlockQueue+0x86>
878017fe:	4630      	mov	r0, r6
87801800:	f001 fb2c 	bl	87802e5c <xTaskRemoveFromEventList>
87801804:	2800      	cmp	r0, #0
87801806:	d0f4      	beq.n	878017f2 <prvUnlockQueue+0x62>
87801808:	3c01      	subs	r4, #1
8780180a:	f001 fbd5 	bl	87802fb8 <vTaskMissedYield>
8780180e:	b2e3      	uxtb	r3, r4
87801810:	b25c      	sxtb	r4, r3
87801812:	2b00      	cmp	r3, #0
87801814:	d1f1      	bne.n	878017fa <prvUnlockQueue+0x6a>
87801816:	23ff      	movs	r3, #255	; 0xff
87801818:	f885 3044 	strb.w	r3, [r5, #68]	; 0x44
8780181c:	e8bd 4070 	ldmia.w	sp!, {r4, r5, r6, lr}
87801820:	f002 bb68 	b.w	87803ef4 <vPortExitCritical>

87801824 <xQueueGenericReset>:
87801824:	b570      	push	{r4, r5, r6, lr}
87801826:	b398      	cbz	r0, 87801890 <xQueueGenericReset+0x6c>
87801828:	4604      	mov	r4, r0
8780182a:	460e      	mov	r6, r1
8780182c:	25ff      	movs	r5, #255	; 0xff
8780182e:	f002 fb1f 	bl	87803e70 <vPortEnterCritical>
87801832:	6c20      	ldr	r0, [r4, #64]	; 0x40
87801834:	2100      	movs	r1, #0
87801836:	6be3      	ldr	r3, [r4, #60]	; 0x3c
87801838:	6822      	ldr	r2, [r4, #0]
8780183a:	63a1      	str	r1, [r4, #56]	; 0x38
8780183c:	f884 5044 	strb.w	r5, [r4, #68]	; 0x44
87801840:	fb03 f300 	mul.w	r3, r3, r0
87801844:	60a2      	str	r2, [r4, #8]
87801846:	f884 5045 	strb.w	r5, [r4, #69]	; 0x45
8780184a:	1a18      	subs	r0, r3, r0
8780184c:	4413      	add	r3, r2
8780184e:	4402      	add	r2, r0
87801850:	6063      	str	r3, [r4, #4]
87801852:	60e2      	str	r2, [r4, #12]
87801854:	b986      	cbnz	r6, 87801878 <xQueueGenericReset+0x54>
87801856:	6923      	ldr	r3, [r4, #16]
87801858:	b91b      	cbnz	r3, 87801862 <xQueueGenericReset+0x3e>
8780185a:	f002 fb4b 	bl	87803ef4 <vPortExitCritical>
8780185e:	2001      	movs	r0, #1
87801860:	bd70      	pop	{r4, r5, r6, pc}
87801862:	f104 0010 	add.w	r0, r4, #16
87801866:	f001 faf9 	bl	87802e5c <xTaskRemoveFromEventList>
8780186a:	2800      	cmp	r0, #0
8780186c:	d0f5      	beq.n	8780185a <xQueueGenericReset+0x36>
8780186e:	df00      	svc	0
87801870:	f002 fb40 	bl	87803ef4 <vPortExitCritical>
87801874:	2001      	movs	r0, #1
87801876:	bd70      	pop	{r4, r5, r6, pc}
87801878:	f104 0010 	add.w	r0, r4, #16
8780187c:	f000 fbb8 	bl	87801ff0 <vListInitialise>
87801880:	f104 0024 	add.w	r0, r4, #36	; 0x24
87801884:	f000 fbb4 	bl	87801ff0 <vListInitialise>
87801888:	f002 fb34 	bl	87803ef4 <vPortExitCritical>
8780188c:	2001      	movs	r0, #1
8780188e:	bd70      	pop	{r4, r5, r6, pc}
87801890:	f002 fb70 	bl	87803f74 <ulPortSetInterruptMask>
87801894:	e7fe      	b.n	87801894 <xQueueGenericReset+0x70>
87801896:	bf00      	nop

87801898 <xQueueGenericCreate>:
87801898:	b5f8      	push	{r3, r4, r5, r6, r7, lr}
8780189a:	b1a8      	cbz	r0, 878018c8 <xQueueGenericCreate+0x30>
8780189c:	4606      	mov	r6, r0
8780189e:	fb01 f000 	mul.w	r0, r1, r0
878018a2:	460d      	mov	r5, r1
878018a4:	4617      	mov	r7, r2
878018a6:	3050      	adds	r0, #80	; 0x50
878018a8:	f002 fc06 	bl	878040b8 <pvPortMalloc>
878018ac:	4604      	mov	r4, r0
878018ae:	b148      	cbz	r0, 878018c4 <xQueueGenericCreate+0x2c>
878018b0:	b96d      	cbnz	r5, 878018ce <xQueueGenericCreate+0x36>
878018b2:	6020      	str	r0, [r4, #0]
878018b4:	63e6      	str	r6, [r4, #60]	; 0x3c
878018b6:	2101      	movs	r1, #1
878018b8:	6425      	str	r5, [r4, #64]	; 0x40
878018ba:	4620      	mov	r0, r4
878018bc:	f7ff ffb2 	bl	87801824 <xQueueGenericReset>
878018c0:	f884 704c 	strb.w	r7, [r4, #76]	; 0x4c
878018c4:	4620      	mov	r0, r4
878018c6:	bdf8      	pop	{r3, r4, r5, r6, r7, pc}
878018c8:	f002 fb54 	bl	87803f74 <ulPortSetInterruptMask>
878018cc:	e7fe      	b.n	878018cc <xQueueGenericCreate+0x34>
878018ce:	f100 0350 	add.w	r3, r0, #80	; 0x50
878018d2:	6003      	str	r3, [r0, #0]
878018d4:	e7ee      	b.n	878018b4 <xQueueGenericCreate+0x1c>
878018d6:	bf00      	nop

878018d8 <xQueueCreateCountingSemaphore>:
878018d8:	b510      	push	{r4, lr}
878018da:	b160      	cbz	r0, 878018f6 <xQueueCreateCountingSemaphore+0x1e>
878018dc:	4288      	cmp	r0, r1
878018de:	460c      	mov	r4, r1
878018e0:	d202      	bcs.n	878018e8 <xQueueCreateCountingSemaphore+0x10>
878018e2:	f002 fb47 	bl	87803f74 <ulPortSetInterruptMask>
878018e6:	e7fe      	b.n	878018e6 <xQueueCreateCountingSemaphore+0xe>
878018e8:	2202      	movs	r2, #2
878018ea:	2100      	movs	r1, #0
878018ec:	f7ff ffd4 	bl	87801898 <xQueueGenericCreate>
878018f0:	b100      	cbz	r0, 878018f4 <xQueueCreateCountingSemaphore+0x1c>
878018f2:	6384      	str	r4, [r0, #56]	; 0x38
878018f4:	bd10      	pop	{r4, pc}
878018f6:	f002 fb3d 	bl	87803f74 <ulPortSetInterruptMask>
878018fa:	e7fe      	b.n	878018fa <xQueueCreateCountingSemaphore+0x22>

878018fc <xQueueGenericSend>:
878018fc:	e92d 47f0 	stmdb	sp!, {r4, r5, r6, r7, r8, r9, sl, lr}
87801900:	b084      	sub	sp, #16
87801902:	9201      	str	r2, [sp, #4]
87801904:	2800      	cmp	r0, #0
87801906:	d067      	beq.n	878019d8 <xQueueGenericSend+0xdc>
87801908:	4688      	mov	r8, r1
8780190a:	461e      	mov	r6, r3
8780190c:	4604      	mov	r4, r0
8780190e:	2900      	cmp	r1, #0
87801910:	f000 808d 	beq.w	87801a2e <xQueueGenericSend+0x132>
87801914:	2e02      	cmp	r6, #2
87801916:	d049      	beq.n	878019ac <xQueueGenericSend+0xb0>
87801918:	f001 fc74 	bl	87803204 <xTaskGetSchedulerState>
8780191c:	b918      	cbnz	r0, 87801926 <xQueueGenericSend+0x2a>
8780191e:	9b01      	ldr	r3, [sp, #4]
87801920:	2b00      	cmp	r3, #0
87801922:	f040 8081 	bne.w	87801a28 <xQueueGenericSend+0x12c>
87801926:	f1a6 0a02 	sub.w	sl, r6, #2
8780192a:	2700      	movs	r7, #0
8780192c:	faba fa8a 	clz	sl, sl
87801930:	46b9      	mov	r9, r7
87801932:	ea4f 1a5a 	mov.w	sl, sl, lsr #5
87801936:	e027      	b.n	87801988 <xQueueGenericSend+0x8c>
87801938:	f002 fadc 	bl	87803ef4 <vPortExitCritical>
8780193c:	f001 f81e 	bl	8780297c <vTaskSuspendAll>
87801940:	f002 fa96 	bl	87803e70 <vPortEnterCritical>
87801944:	f894 3044 	ldrb.w	r3, [r4, #68]	; 0x44
87801948:	2bff      	cmp	r3, #255	; 0xff
8780194a:	bf08      	it	eq
8780194c:	f884 9044 	strbeq.w	r9, [r4, #68]	; 0x44
87801950:	f894 3045 	ldrb.w	r3, [r4, #69]	; 0x45
87801954:	2bff      	cmp	r3, #255	; 0xff
87801956:	bf08      	it	eq
87801958:	f884 9045 	strbeq.w	r9, [r4, #69]	; 0x45
8780195c:	f002 faca 	bl	87803ef4 <vPortExitCritical>
87801960:	a901      	add	r1, sp, #4
87801962:	a802      	add	r0, sp, #8
87801964:	f001 faf4 	bl	87802f50 <xTaskCheckForTimeOut>
87801968:	2800      	cmp	r0, #0
8780196a:	d138      	bne.n	878019de <xQueueGenericSend+0xe2>
8780196c:	f002 fa80 	bl	87803e70 <vPortEnterCritical>
87801970:	6ba2      	ldr	r2, [r4, #56]	; 0x38
87801972:	6be3      	ldr	r3, [r4, #60]	; 0x3c
87801974:	429a      	cmp	r2, r3
87801976:	d01f      	beq.n	878019b8 <xQueueGenericSend+0xbc>
87801978:	f002 fabc 	bl	87803ef4 <vPortExitCritical>
8780197c:	4620      	mov	r0, r4
8780197e:	f7ff ff07 	bl	87801790 <prvUnlockQueue>
87801982:	f001 f8a7 	bl	87802ad4 <xTaskResumeAll>
87801986:	2701      	movs	r7, #1
87801988:	f002 fa72 	bl	87803e70 <vPortEnterCritical>
8780198c:	6ba3      	ldr	r3, [r4, #56]	; 0x38
8780198e:	6be2      	ldr	r2, [r4, #60]	; 0x3c
87801990:	4293      	cmp	r3, r2
87801992:	bf2c      	ite	cs
87801994:	4653      	movcs	r3, sl
87801996:	f04a 0301 	orrcc.w	r3, sl, #1
8780199a:	bb7b      	cbnz	r3, 878019fc <xQueueGenericSend+0x100>
8780199c:	9d01      	ldr	r5, [sp, #4]
8780199e:	b33d      	cbz	r5, 878019f0 <xQueueGenericSend+0xf4>
878019a0:	2f00      	cmp	r7, #0
878019a2:	d1c9      	bne.n	87801938 <xQueueGenericSend+0x3c>
878019a4:	a802      	add	r0, sp, #8
878019a6:	f001 fac3 	bl	87802f30 <vTaskSetTimeOutState>
878019aa:	e7c5      	b.n	87801938 <xQueueGenericSend+0x3c>
878019ac:	6be3      	ldr	r3, [r4, #60]	; 0x3c
878019ae:	2b01      	cmp	r3, #1
878019b0:	d0b2      	beq.n	87801918 <xQueueGenericSend+0x1c>
878019b2:	f002 fadf 	bl	87803f74 <ulPortSetInterruptMask>
878019b6:	e7fe      	b.n	878019b6 <xQueueGenericSend+0xba>
878019b8:	f002 fa9c 	bl	87803ef4 <vPortExitCritical>
878019bc:	9901      	ldr	r1, [sp, #4]
878019be:	f104 0010 	add.w	r0, r4, #16
878019c2:	f001 f9fd 	bl	87802dc0 <vTaskPlaceOnEventList>
878019c6:	4620      	mov	r0, r4
878019c8:	f7ff fee2 	bl	87801790 <prvUnlockQueue>
878019cc:	f001 f882 	bl	87802ad4 <xTaskResumeAll>
878019d0:	2800      	cmp	r0, #0
878019d2:	d1d8      	bne.n	87801986 <xQueueGenericSend+0x8a>
878019d4:	df00      	svc	0
878019d6:	e7d6      	b.n	87801986 <xQueueGenericSend+0x8a>
878019d8:	f002 facc 	bl	87803f74 <ulPortSetInterruptMask>
878019dc:	e7fe      	b.n	878019dc <xQueueGenericSend+0xe0>
878019de:	4620      	mov	r0, r4
878019e0:	f7ff fed6 	bl	87801790 <prvUnlockQueue>
878019e4:	f001 f876 	bl	87802ad4 <xTaskResumeAll>
878019e8:	2000      	movs	r0, #0
878019ea:	b004      	add	sp, #16
878019ec:	e8bd 87f0 	ldmia.w	sp!, {r4, r5, r6, r7, r8, r9, sl, pc}
878019f0:	f002 fa80 	bl	87803ef4 <vPortExitCritical>
878019f4:	4628      	mov	r0, r5
878019f6:	b004      	add	sp, #16
878019f8:	e8bd 87f0 	ldmia.w	sp!, {r4, r5, r6, r7, r8, r9, sl, pc}
878019fc:	4632      	mov	r2, r6
878019fe:	4641      	mov	r1, r8
87801a00:	4620      	mov	r0, r4
87801a02:	f7ff fe85 	bl	87801710 <prvCopyDataToQueue>
87801a06:	6a63      	ldr	r3, [r4, #36]	; 0x24
87801a08:	b93b      	cbnz	r3, 87801a1a <xQueueGenericSend+0x11e>
87801a0a:	b100      	cbz	r0, 87801a0e <xQueueGenericSend+0x112>
87801a0c:	df00      	svc	0
87801a0e:	f002 fa71 	bl	87803ef4 <vPortExitCritical>
87801a12:	2001      	movs	r0, #1
87801a14:	b004      	add	sp, #16
87801a16:	e8bd 87f0 	ldmia.w	sp!, {r4, r5, r6, r7, r8, r9, sl, pc}
87801a1a:	f104 0024 	add.w	r0, r4, #36	; 0x24
87801a1e:	f001 fa1d 	bl	87802e5c <xTaskRemoveFromEventList>
87801a22:	2800      	cmp	r0, #0
87801a24:	d1f2      	bne.n	87801a0c <xQueueGenericSend+0x110>
87801a26:	e7f2      	b.n	87801a0e <xQueueGenericSend+0x112>
87801a28:	f002 faa4 	bl	87803f74 <ulPortSetInterruptMask>
87801a2c:	e7fe      	b.n	87801a2c <xQueueGenericSend+0x130>
87801a2e:	6c03      	ldr	r3, [r0, #64]	; 0x40
87801a30:	2b00      	cmp	r3, #0
87801a32:	f43f af6f 	beq.w	87801914 <xQueueGenericSend+0x18>
87801a36:	f002 fa9d 	bl	87803f74 <ulPortSetInterruptMask>
87801a3a:	e7fe      	b.n	87801a3a <xQueueGenericSend+0x13e>

87801a3c <xQueueCreateMutex>:
87801a3c:	b510      	push	{r4, lr}
87801a3e:	4602      	mov	r2, r0
87801a40:	2100      	movs	r1, #0
87801a42:	2001      	movs	r0, #1
87801a44:	f7ff ff28 	bl	87801898 <xQueueGenericCreate>
87801a48:	4604      	mov	r4, r0
87801a4a:	b138      	cbz	r0, 87801a5c <xQueueCreateMutex+0x20>
87801a4c:	2300      	movs	r3, #0
87801a4e:	6043      	str	r3, [r0, #4]
87801a50:	461a      	mov	r2, r3
87801a52:	6003      	str	r3, [r0, #0]
87801a54:	4619      	mov	r1, r3
87801a56:	60c3      	str	r3, [r0, #12]
87801a58:	f7ff ff50 	bl	878018fc <xQueueGenericSend>
87801a5c:	4620      	mov	r0, r4
87801a5e:	bd10      	pop	{r4, pc}

87801a60 <xQueueGiveMutexRecursive>:
87801a60:	b538      	push	{r3, r4, r5, lr}
87801a62:	b138      	cbz	r0, 87801a74 <xQueueGiveMutexRecursive+0x14>
87801a64:	6845      	ldr	r5, [r0, #4]
87801a66:	4604      	mov	r4, r0
87801a68:	f001 fbc6 	bl	878031f8 <xTaskGetCurrentTaskHandle>
87801a6c:	4285      	cmp	r5, r0
87801a6e:	d004      	beq.n	87801a7a <xQueueGiveMutexRecursive+0x1a>
87801a70:	2000      	movs	r0, #0
87801a72:	bd38      	pop	{r3, r4, r5, pc}
87801a74:	f002 fa7e 	bl	87803f74 <ulPortSetInterruptMask>
87801a78:	e7fe      	b.n	87801a78 <xQueueGiveMutexRecursive+0x18>
87801a7a:	68e3      	ldr	r3, [r4, #12]
87801a7c:	3b01      	subs	r3, #1
87801a7e:	60e3      	str	r3, [r4, #12]
87801a80:	b10b      	cbz	r3, 87801a86 <xQueueGiveMutexRecursive+0x26>
87801a82:	2001      	movs	r0, #1
87801a84:	bd38      	pop	{r3, r4, r5, pc}
87801a86:	4620      	mov	r0, r4
87801a88:	461a      	mov	r2, r3
87801a8a:	4619      	mov	r1, r3
87801a8c:	f7ff ff36 	bl	878018fc <xQueueGenericSend>
87801a90:	2001      	movs	r0, #1
87801a92:	bd38      	pop	{r3, r4, r5, pc}

87801a94 <xQueueGenericSendFromISR>:
87801a94:	e92d 43f8 	stmdb	sp!, {r3, r4, r5, r6, r7, r8, r9, lr}
87801a98:	2800      	cmp	r0, #0
87801a9a:	d03a      	beq.n	87801b12 <xQueueGenericSendFromISR+0x7e>
87801a9c:	460f      	mov	r7, r1
87801a9e:	4690      	mov	r8, r2
87801aa0:	4699      	mov	r9, r3
87801aa2:	4604      	mov	r4, r0
87801aa4:	2900      	cmp	r1, #0
87801aa6:	d04d      	beq.n	87801b44 <xQueueGenericSendFromISR+0xb0>
87801aa8:	f1b9 0f02 	cmp.w	r9, #2
87801aac:	d010      	beq.n	87801ad0 <xQueueGenericSendFromISR+0x3c>
87801aae:	f002 fa7d 	bl	87803fac <vPortValidateInterruptPriority>
87801ab2:	f002 fa5f 	bl	87803f74 <ulPortSetInterruptMask>
87801ab6:	6ba2      	ldr	r2, [r4, #56]	; 0x38
87801ab8:	4606      	mov	r6, r0
87801aba:	6be3      	ldr	r3, [r4, #60]	; 0x3c
87801abc:	429a      	cmp	r2, r3
87801abe:	bf28      	it	cs
87801ac0:	2500      	movcs	r5, #0
87801ac2:	d311      	bcc.n	87801ae8 <xQueueGenericSendFromISR+0x54>
87801ac4:	4630      	mov	r0, r6
87801ac6:	f002 fa3f 	bl	87803f48 <vPortClearInterruptMask>
87801aca:	4628      	mov	r0, r5
87801acc:	e8bd 83f8 	ldmia.w	sp!, {r3, r4, r5, r6, r7, r8, r9, pc}
87801ad0:	6be3      	ldr	r3, [r4, #60]	; 0x3c
87801ad2:	2b01      	cmp	r3, #1
87801ad4:	d002      	beq.n	87801adc <xQueueGenericSendFromISR+0x48>
87801ad6:	f002 fa4d 	bl	87803f74 <ulPortSetInterruptMask>
87801ada:	e7fe      	b.n	87801ada <xQueueGenericSendFromISR+0x46>
87801adc:	f002 fa66 	bl	87803fac <vPortValidateInterruptPriority>
87801ae0:	f002 fa48 	bl	87803f74 <ulPortSetInterruptMask>
87801ae4:	6ba3      	ldr	r3, [r4, #56]	; 0x38
87801ae6:	4606      	mov	r6, r0
87801ae8:	f894 5045 	ldrb.w	r5, [r4, #69]	; 0x45
87801aec:	464a      	mov	r2, r9
87801aee:	4639      	mov	r1, r7
87801af0:	4620      	mov	r0, r4
87801af2:	f7ff fe0d 	bl	87801710 <prvCopyDataToQueue>
87801af6:	b26d      	sxtb	r5, r5
87801af8:	1c6b      	adds	r3, r5, #1
87801afa:	d00d      	beq.n	87801b18 <xQueueGenericSendFromISR+0x84>
87801afc:	1c6b      	adds	r3, r5, #1
87801afe:	4630      	mov	r0, r6
87801b00:	b25b      	sxtb	r3, r3
87801b02:	2501      	movs	r5, #1
87801b04:	f884 3045 	strb.w	r3, [r4, #69]	; 0x45
87801b08:	f002 fa1e 	bl	87803f48 <vPortClearInterruptMask>
87801b0c:	4628      	mov	r0, r5
87801b0e:	e8bd 83f8 	ldmia.w	sp!, {r3, r4, r5, r6, r7, r8, r9, pc}
87801b12:	f002 fa2f 	bl	87803f74 <ulPortSetInterruptMask>
87801b16:	e7fe      	b.n	87801b16 <xQueueGenericSendFromISR+0x82>
87801b18:	6a63      	ldr	r3, [r4, #36]	; 0x24
87801b1a:	2501      	movs	r5, #1
87801b1c:	2b00      	cmp	r3, #0
87801b1e:	d0d1      	beq.n	87801ac4 <xQueueGenericSendFromISR+0x30>
87801b20:	f104 0024 	add.w	r0, r4, #36	; 0x24
87801b24:	2501      	movs	r5, #1
87801b26:	f001 f999 	bl	87802e5c <xTaskRemoveFromEventList>
87801b2a:	2800      	cmp	r0, #0
87801b2c:	bf18      	it	ne
87801b2e:	f1b8 0f00 	cmpne.w	r8, #0
87801b32:	4630      	mov	r0, r6
87801b34:	bf18      	it	ne
87801b36:	f8c8 5000 	strne.w	r5, [r8]
87801b3a:	f002 fa05 	bl	87803f48 <vPortClearInterruptMask>
87801b3e:	4628      	mov	r0, r5
87801b40:	e8bd 83f8 	ldmia.w	sp!, {r3, r4, r5, r6, r7, r8, r9, pc}
87801b44:	6c03      	ldr	r3, [r0, #64]	; 0x40
87801b46:	2b00      	cmp	r3, #0
87801b48:	d0ae      	beq.n	87801aa8 <xQueueGenericSendFromISR+0x14>
87801b4a:	f002 fa13 	bl	87803f74 <ulPortSetInterruptMask>
87801b4e:	e7fe      	b.n	87801b4e <xQueueGenericSendFromISR+0xba>

87801b50 <xQueueGiveFromISR>:
87801b50:	b5f8      	push	{r3, r4, r5, r6, r7, lr}
87801b52:	b320      	cbz	r0, 87801b9e <xQueueGiveFromISR+0x4e>
87801b54:	6c03      	ldr	r3, [r0, #64]	; 0x40
87801b56:	4604      	mov	r4, r0
87801b58:	b9f3      	cbnz	r3, 87801b98 <xQueueGiveFromISR+0x48>
87801b5a:	6803      	ldr	r3, [r0, #0]
87801b5c:	460e      	mov	r6, r1
87801b5e:	b39b      	cbz	r3, 87801bc8 <xQueueGiveFromISR+0x78>
87801b60:	f002 fa24 	bl	87803fac <vPortValidateInterruptPriority>
87801b64:	f002 fa06 	bl	87803f74 <ulPortSetInterruptMask>
87801b68:	6ba2      	ldr	r2, [r4, #56]	; 0x38
87801b6a:	4607      	mov	r7, r0
87801b6c:	6be3      	ldr	r3, [r4, #60]	; 0x3c
87801b6e:	429a      	cmp	r2, r3
87801b70:	bf28      	it	cs
87801b72:	2500      	movcs	r5, #0
87801b74:	d20b      	bcs.n	87801b8e <xQueueGiveFromISR+0x3e>
87801b76:	f894 3045 	ldrb.w	r3, [r4, #69]	; 0x45
87801b7a:	3201      	adds	r2, #1
87801b7c:	63a2      	str	r2, [r4, #56]	; 0x38
87801b7e:	b25b      	sxtb	r3, r3
87801b80:	1c5a      	adds	r2, r3, #1
87801b82:	d00f      	beq.n	87801ba4 <xQueueGiveFromISR+0x54>
87801b84:	3301      	adds	r3, #1
87801b86:	2501      	movs	r5, #1
87801b88:	b25b      	sxtb	r3, r3
87801b8a:	f884 3045 	strb.w	r3, [r4, #69]	; 0x45
87801b8e:	4638      	mov	r0, r7
87801b90:	f002 f9da 	bl	87803f48 <vPortClearInterruptMask>
87801b94:	4628      	mov	r0, r5
87801b96:	bdf8      	pop	{r3, r4, r5, r6, r7, pc}
87801b98:	f002 f9ec 	bl	87803f74 <ulPortSetInterruptMask>
87801b9c:	e7fe      	b.n	87801b9c <xQueueGiveFromISR+0x4c>
87801b9e:	f002 f9e9 	bl	87803f74 <ulPortSetInterruptMask>
87801ba2:	e7fe      	b.n	87801ba2 <xQueueGiveFromISR+0x52>
87801ba4:	6a63      	ldr	r3, [r4, #36]	; 0x24
87801ba6:	2501      	movs	r5, #1
87801ba8:	2b00      	cmp	r3, #0
87801baa:	d0f0      	beq.n	87801b8e <xQueueGiveFromISR+0x3e>
87801bac:	f104 0024 	add.w	r0, r4, #36	; 0x24
87801bb0:	f001 f954 	bl	87802e5c <xTaskRemoveFromEventList>
87801bb4:	2800      	cmp	r0, #0
87801bb6:	bf18      	it	ne
87801bb8:	2e00      	cmpne	r6, #0
87801bba:	4638      	mov	r0, r7
87801bbc:	bf18      	it	ne
87801bbe:	6035      	strne	r5, [r6, #0]
87801bc0:	f002 f9c2 	bl	87803f48 <vPortClearInterruptMask>
87801bc4:	4628      	mov	r0, r5
87801bc6:	bdf8      	pop	{r3, r4, r5, r6, r7, pc}
87801bc8:	6843      	ldr	r3, [r0, #4]
87801bca:	2b00      	cmp	r3, #0
87801bcc:	d0c8      	beq.n	87801b60 <xQueueGiveFromISR+0x10>
87801bce:	f002 f9d1 	bl	87803f74 <ulPortSetInterruptMask>
87801bd2:	e7fe      	b.n	87801bd2 <xQueueGiveFromISR+0x82>

87801bd4 <xQueueGenericReceive>:
87801bd4:	e92d 43f0 	stmdb	sp!, {r4, r5, r6, r7, r8, r9, lr}
87801bd8:	b085      	sub	sp, #20
87801bda:	9201      	str	r2, [sp, #4]
87801bdc:	2800      	cmp	r0, #0
87801bde:	d061      	beq.n	87801ca4 <xQueueGenericReceive+0xd0>
87801be0:	4688      	mov	r8, r1
87801be2:	4699      	mov	r9, r3
87801be4:	4604      	mov	r4, r0
87801be6:	2900      	cmp	r1, #0
87801be8:	f000 8097 	beq.w	87801d1a <xQueueGenericReceive+0x146>
87801bec:	f001 fb0a 	bl	87803204 <xTaskGetSchedulerState>
87801bf0:	b920      	cbnz	r0, 87801bfc <xQueueGenericReceive+0x28>
87801bf2:	9d01      	ldr	r5, [sp, #4]
87801bf4:	b11d      	cbz	r5, 87801bfe <xQueueGenericReceive+0x2a>
87801bf6:	f002 f9bd 	bl	87803f74 <ulPortSetInterruptMask>
87801bfa:	e7fe      	b.n	87801bfa <xQueueGenericReceive+0x26>
87801bfc:	2500      	movs	r5, #0
87801bfe:	2700      	movs	r7, #0
87801c00:	e00c      	b.n	87801c1c <xQueueGenericReceive+0x48>
87801c02:	f002 f935 	bl	87803e70 <vPortEnterCritical>
87801c06:	6ba3      	ldr	r3, [r4, #56]	; 0x38
87801c08:	2b00      	cmp	r3, #0
87801c0a:	d039      	beq.n	87801c80 <xQueueGenericReceive+0xac>
87801c0c:	f002 f972 	bl	87803ef4 <vPortExitCritical>
87801c10:	4620      	mov	r0, r4
87801c12:	f7ff fdbd 	bl	87801790 <prvUnlockQueue>
87801c16:	f000 ff5d 	bl	87802ad4 <xTaskResumeAll>
87801c1a:	2501      	movs	r5, #1
87801c1c:	f002 f928 	bl	87803e70 <vPortEnterCritical>
87801c20:	6ba6      	ldr	r6, [r4, #56]	; 0x38
87801c22:	2e00      	cmp	r6, #0
87801c24:	d14f      	bne.n	87801cc6 <xQueueGenericReceive+0xf2>
87801c26:	9b01      	ldr	r3, [sp, #4]
87801c28:	2b00      	cmp	r3, #0
87801c2a:	d046      	beq.n	87801cba <xQueueGenericReceive+0xe6>
87801c2c:	b915      	cbnz	r5, 87801c34 <xQueueGenericReceive+0x60>
87801c2e:	a802      	add	r0, sp, #8
87801c30:	f001 f97e 	bl	87802f30 <vTaskSetTimeOutState>
87801c34:	f002 f95e 	bl	87803ef4 <vPortExitCritical>
87801c38:	f000 fea0 	bl	8780297c <vTaskSuspendAll>
87801c3c:	f002 f918 	bl	87803e70 <vPortEnterCritical>
87801c40:	f894 3044 	ldrb.w	r3, [r4, #68]	; 0x44
87801c44:	2bff      	cmp	r3, #255	; 0xff
87801c46:	bf08      	it	eq
87801c48:	f884 7044 	strbeq.w	r7, [r4, #68]	; 0x44
87801c4c:	f894 3045 	ldrb.w	r3, [r4, #69]	; 0x45
87801c50:	2bff      	cmp	r3, #255	; 0xff
87801c52:	bf08      	it	eq
87801c54:	f884 7045 	strbeq.w	r7, [r4, #69]	; 0x45
87801c58:	f002 f94c 	bl	87803ef4 <vPortExitCritical>
87801c5c:	a901      	add	r1, sp, #4
87801c5e:	a802      	add	r0, sp, #8
87801c60:	f001 f976 	bl	87802f50 <xTaskCheckForTimeOut>
87801c64:	2800      	cmp	r0, #0
87801c66:	d0cc      	beq.n	87801c02 <xQueueGenericReceive+0x2e>
87801c68:	4620      	mov	r0, r4
87801c6a:	f7ff fd91 	bl	87801790 <prvUnlockQueue>
87801c6e:	f000 ff31 	bl	87802ad4 <xTaskResumeAll>
87801c72:	f002 f8fd 	bl	87803e70 <vPortEnterCritical>
87801c76:	6ba3      	ldr	r3, [r4, #56]	; 0x38
87801c78:	b1fb      	cbz	r3, 87801cba <xQueueGenericReceive+0xe6>
87801c7a:	f002 f93b 	bl	87803ef4 <vPortExitCritical>
87801c7e:	e7cc      	b.n	87801c1a <xQueueGenericReceive+0x46>
87801c80:	f002 f938 	bl	87803ef4 <vPortExitCritical>
87801c84:	6823      	ldr	r3, [r4, #0]
87801c86:	b183      	cbz	r3, 87801caa <xQueueGenericReceive+0xd6>
87801c88:	9901      	ldr	r1, [sp, #4]
87801c8a:	f104 0024 	add.w	r0, r4, #36	; 0x24
87801c8e:	f001 f897 	bl	87802dc0 <vTaskPlaceOnEventList>
87801c92:	4620      	mov	r0, r4
87801c94:	f7ff fd7c 	bl	87801790 <prvUnlockQueue>
87801c98:	f000 ff1c 	bl	87802ad4 <xTaskResumeAll>
87801c9c:	2800      	cmp	r0, #0
87801c9e:	d1bc      	bne.n	87801c1a <xQueueGenericReceive+0x46>
87801ca0:	df00      	svc	0
87801ca2:	e7ba      	b.n	87801c1a <xQueueGenericReceive+0x46>
87801ca4:	f002 f966 	bl	87803f74 <ulPortSetInterruptMask>
87801ca8:	e7fe      	b.n	87801ca8 <xQueueGenericReceive+0xd4>
87801caa:	f002 f8e1 	bl	87803e70 <vPortEnterCritical>
87801cae:	6860      	ldr	r0, [r4, #4]
87801cb0:	f001 fab8 	bl	87803224 <vTaskPriorityInherit>
87801cb4:	f002 f91e 	bl	87803ef4 <vPortExitCritical>
87801cb8:	e7e6      	b.n	87801c88 <xQueueGenericReceive+0xb4>
87801cba:	f002 f91b 	bl	87803ef4 <vPortExitCritical>
87801cbe:	2000      	movs	r0, #0
87801cc0:	b005      	add	sp, #20
87801cc2:	e8bd 83f0 	ldmia.w	sp!, {r4, r5, r6, r7, r8, r9, pc}
87801cc6:	4641      	mov	r1, r8
87801cc8:	4620      	mov	r0, r4
87801cca:	68e5      	ldr	r5, [r4, #12]
87801ccc:	f004 fdf6 	bl	878068bc <prvCopyDataFromQueue>
87801cd0:	f1b9 0f00 	cmp.w	r9, #0
87801cd4:	d10e      	bne.n	87801cf4 <xQueueGenericReceive+0x120>
87801cd6:	6823      	ldr	r3, [r4, #0]
87801cd8:	3e01      	subs	r6, #1
87801cda:	63a6      	str	r6, [r4, #56]	; 0x38
87801cdc:	b913      	cbnz	r3, 87801ce4 <xQueueGenericReceive+0x110>
87801cde:	f001 fb45 	bl	8780336c <pvTaskIncrementMutexHeldCount>
87801ce2:	6060      	str	r0, [r4, #4]
87801ce4:	6923      	ldr	r3, [r4, #16]
87801ce6:	b98b      	cbnz	r3, 87801d0c <xQueueGenericReceive+0x138>
87801ce8:	f002 f904 	bl	87803ef4 <vPortExitCritical>
87801cec:	2001      	movs	r0, #1
87801cee:	b005      	add	sp, #20
87801cf0:	e8bd 83f0 	ldmia.w	sp!, {r4, r5, r6, r7, r8, r9, pc}
87801cf4:	6a63      	ldr	r3, [r4, #36]	; 0x24
87801cf6:	60e5      	str	r5, [r4, #12]
87801cf8:	2b00      	cmp	r3, #0
87801cfa:	d0f5      	beq.n	87801ce8 <xQueueGenericReceive+0x114>
87801cfc:	f104 0024 	add.w	r0, r4, #36	; 0x24
87801d00:	f001 f8ac 	bl	87802e5c <xTaskRemoveFromEventList>
87801d04:	2800      	cmp	r0, #0
87801d06:	d0ef      	beq.n	87801ce8 <xQueueGenericReceive+0x114>
87801d08:	df00      	svc	0
87801d0a:	e7ed      	b.n	87801ce8 <xQueueGenericReceive+0x114>
87801d0c:	f104 0010 	add.w	r0, r4, #16
87801d10:	f001 f8a4 	bl	87802e5c <xTaskRemoveFromEventList>
87801d14:	2800      	cmp	r0, #0
87801d16:	d1f7      	bne.n	87801d08 <xQueueGenericReceive+0x134>
87801d18:	e7e6      	b.n	87801ce8 <xQueueGenericReceive+0x114>
87801d1a:	6c03      	ldr	r3, [r0, #64]	; 0x40
87801d1c:	2b00      	cmp	r3, #0
87801d1e:	f43f af65 	beq.w	87801bec <xQueueGenericReceive+0x18>
87801d22:	f002 f927 	bl	87803f74 <ulPortSetInterruptMask>
87801d26:	e7fe      	b.n	87801d26 <xQueueGenericReceive+0x152>

87801d28 <xQueueTakeMutexRecursive>:
87801d28:	b570      	push	{r4, r5, r6, lr}
87801d2a:	b188      	cbz	r0, 87801d50 <xQueueTakeMutexRecursive+0x28>
87801d2c:	6846      	ldr	r6, [r0, #4]
87801d2e:	460d      	mov	r5, r1
87801d30:	4604      	mov	r4, r0
87801d32:	f001 fa61 	bl	878031f8 <xTaskGetCurrentTaskHandle>
87801d36:	4286      	cmp	r6, r0
87801d38:	d00d      	beq.n	87801d56 <xQueueTakeMutexRecursive+0x2e>
87801d3a:	2300      	movs	r3, #0
87801d3c:	462a      	mov	r2, r5
87801d3e:	4619      	mov	r1, r3
87801d40:	4620      	mov	r0, r4
87801d42:	f7ff ff47 	bl	87801bd4 <xQueueGenericReceive>
87801d46:	b110      	cbz	r0, 87801d4e <xQueueTakeMutexRecursive+0x26>
87801d48:	68e3      	ldr	r3, [r4, #12]
87801d4a:	3301      	adds	r3, #1
87801d4c:	60e3      	str	r3, [r4, #12]
87801d4e:	bd70      	pop	{r4, r5, r6, pc}
87801d50:	f002 f910 	bl	87803f74 <ulPortSetInterruptMask>
87801d54:	e7fe      	b.n	87801d54 <xQueueTakeMutexRecursive+0x2c>
87801d56:	68e3      	ldr	r3, [r4, #12]
87801d58:	2001      	movs	r0, #1
87801d5a:	4403      	add	r3, r0
87801d5c:	60e3      	str	r3, [r4, #12]
87801d5e:	bd70      	pop	{r4, r5, r6, pc}

87801d60 <xQueueReceiveFromISR>:
87801d60:	e92d 43f8 	stmdb	sp!, {r3, r4, r5, r6, r7, r8, r9, lr}
87801d64:	b180      	cbz	r0, 87801d88 <xQueueReceiveFromISR+0x28>
87801d66:	4689      	mov	r9, r1
87801d68:	4690      	mov	r8, r2
87801d6a:	4605      	mov	r5, r0
87801d6c:	b329      	cbz	r1, 87801dba <xQueueReceiveFromISR+0x5a>
87801d6e:	f002 f91d 	bl	87803fac <vPortValidateInterruptPriority>
87801d72:	f002 f8ff 	bl	87803f74 <ulPortSetInterruptMask>
87801d76:	6bac      	ldr	r4, [r5, #56]	; 0x38
87801d78:	4607      	mov	r7, r0
87801d7a:	b944      	cbnz	r4, 87801d8e <xQueueReceiveFromISR+0x2e>
87801d7c:	4638      	mov	r0, r7
87801d7e:	f002 f8e3 	bl	87803f48 <vPortClearInterruptMask>
87801d82:	4620      	mov	r0, r4
87801d84:	e8bd 83f8 	ldmia.w	sp!, {r3, r4, r5, r6, r7, r8, r9, pc}
87801d88:	f002 f8f4 	bl	87803f74 <ulPortSetInterruptMask>
87801d8c:	e7fe      	b.n	87801d8c <xQueueReceiveFromISR+0x2c>
87801d8e:	f895 6044 	ldrb.w	r6, [r5, #68]	; 0x44
87801d92:	4649      	mov	r1, r9
87801d94:	4628      	mov	r0, r5
87801d96:	3c01      	subs	r4, #1
87801d98:	f004 fd90 	bl	878068bc <prvCopyDataFromQueue>
87801d9c:	63ac      	str	r4, [r5, #56]	; 0x38
87801d9e:	b276      	sxtb	r6, r6
87801da0:	1c73      	adds	r3, r6, #1
87801da2:	d010      	beq.n	87801dc6 <xQueueReceiveFromISR+0x66>
87801da4:	1c73      	adds	r3, r6, #1
87801da6:	4638      	mov	r0, r7
87801da8:	b25b      	sxtb	r3, r3
87801daa:	2401      	movs	r4, #1
87801dac:	f885 3044 	strb.w	r3, [r5, #68]	; 0x44
87801db0:	f002 f8ca 	bl	87803f48 <vPortClearInterruptMask>
87801db4:	4620      	mov	r0, r4
87801db6:	e8bd 83f8 	ldmia.w	sp!, {r3, r4, r5, r6, r7, r8, r9, pc}
87801dba:	6c03      	ldr	r3, [r0, #64]	; 0x40
87801dbc:	2b00      	cmp	r3, #0
87801dbe:	d0d6      	beq.n	87801d6e <xQueueReceiveFromISR+0xe>
87801dc0:	f002 f8d8 	bl	87803f74 <ulPortSetInterruptMask>
87801dc4:	e7fe      	b.n	87801dc4 <xQueueReceiveFromISR+0x64>
87801dc6:	692b      	ldr	r3, [r5, #16]
87801dc8:	2401      	movs	r4, #1
87801dca:	2b00      	cmp	r3, #0
87801dcc:	d0d6      	beq.n	87801d7c <xQueueReceiveFromISR+0x1c>
87801dce:	f105 0010 	add.w	r0, r5, #16
87801dd2:	f001 f843 	bl	87802e5c <xTaskRemoveFromEventList>
87801dd6:	2800      	cmp	r0, #0
87801dd8:	bf18      	it	ne
87801dda:	f1b8 0f00 	cmpne.w	r8, #0
87801dde:	4638      	mov	r0, r7
87801de0:	bf18      	it	ne
87801de2:	f8c8 4000 	strne.w	r4, [r8]
87801de6:	f002 f8af 	bl	87803f48 <vPortClearInterruptMask>
87801dea:	4620      	mov	r0, r4
87801dec:	e8bd 83f8 	ldmia.w	sp!, {r3, r4, r5, r6, r7, r8, r9, pc}

87801df0 <xQueuePeekFromISR>:
87801df0:	e92d 41f0 	stmdb	sp!, {r4, r5, r6, r7, r8, lr}
87801df4:	b1a0      	cbz	r0, 87801e20 <xQueuePeekFromISR+0x30>
87801df6:	460e      	mov	r6, r1
87801df8:	4604      	mov	r4, r0
87801dfa:	6c03      	ldr	r3, [r0, #64]	; 0x40
87801dfc:	b311      	cbz	r1, 87801e44 <xQueuePeekFromISR+0x54>
87801dfe:	b913      	cbnz	r3, 87801e06 <xQueuePeekFromISR+0x16>
87801e00:	f002 f8b8 	bl	87803f74 <ulPortSetInterruptMask>
87801e04:	e7fe      	b.n	87801e04 <xQueuePeekFromISR+0x14>
87801e06:	f002 f8d1 	bl	87803fac <vPortValidateInterruptPriority>
87801e0a:	f002 f8b3 	bl	87803f74 <ulPortSetInterruptMask>
87801e0e:	6ba5      	ldr	r5, [r4, #56]	; 0x38
87801e10:	4607      	mov	r7, r0
87801e12:	b945      	cbnz	r5, 87801e26 <xQueuePeekFromISR+0x36>
87801e14:	4638      	mov	r0, r7
87801e16:	f002 f897 	bl	87803f48 <vPortClearInterruptMask>
87801e1a:	4628      	mov	r0, r5
87801e1c:	e8bd 81f0 	ldmia.w	sp!, {r4, r5, r6, r7, r8, pc}
87801e20:	f002 f8a8 	bl	87803f74 <ulPortSetInterruptMask>
87801e24:	e7fe      	b.n	87801e24 <xQueuePeekFromISR+0x34>
87801e26:	f8d4 800c 	ldr.w	r8, [r4, #12]
87801e2a:	4631      	mov	r1, r6
87801e2c:	4620      	mov	r0, r4
87801e2e:	2501      	movs	r5, #1
87801e30:	f004 fd44 	bl	878068bc <prvCopyDataFromQueue>
87801e34:	4638      	mov	r0, r7
87801e36:	f8c4 800c 	str.w	r8, [r4, #12]
87801e3a:	f002 f885 	bl	87803f48 <vPortClearInterruptMask>
87801e3e:	4628      	mov	r0, r5
87801e40:	e8bd 81f0 	ldmia.w	sp!, {r4, r5, r6, r7, r8, pc}
87801e44:	2b00      	cmp	r3, #0
87801e46:	d0db      	beq.n	87801e00 <xQueuePeekFromISR+0x10>
87801e48:	f002 f894 	bl	87803f74 <ulPortSetInterruptMask>
87801e4c:	e7fe      	b.n	87801e4c <xQueuePeekFromISR+0x5c>
87801e4e:	bf00      	nop

87801e50 <uxQueueMessagesWaiting>:
87801e50:	b510      	push	{r4, lr}
87801e52:	b138      	cbz	r0, 87801e64 <uxQueueMessagesWaiting+0x14>
87801e54:	4604      	mov	r4, r0
87801e56:	f002 f80b 	bl	87803e70 <vPortEnterCritical>
87801e5a:	6ba4      	ldr	r4, [r4, #56]	; 0x38
87801e5c:	f002 f84a 	bl	87803ef4 <vPortExitCritical>
87801e60:	4620      	mov	r0, r4
87801e62:	bd10      	pop	{r4, pc}
87801e64:	f002 f886 	bl	87803f74 <ulPortSetInterruptMask>
87801e68:	e7fe      	b.n	87801e68 <uxQueueMessagesWaiting+0x18>
87801e6a:	bf00      	nop

87801e6c <uxQueueSpacesAvailable>:
87801e6c:	b510      	push	{r4, lr}
87801e6e:	b148      	cbz	r0, 87801e84 <uxQueueSpacesAvailable+0x18>
87801e70:	4604      	mov	r4, r0
87801e72:	f001 fffd 	bl	87803e70 <vPortEnterCritical>
87801e76:	6ba3      	ldr	r3, [r4, #56]	; 0x38
87801e78:	6be4      	ldr	r4, [r4, #60]	; 0x3c
87801e7a:	1ae4      	subs	r4, r4, r3
87801e7c:	f002 f83a 	bl	87803ef4 <vPortExitCritical>
87801e80:	4620      	mov	r0, r4
87801e82:	bd10      	pop	{r4, pc}
87801e84:	f002 f876 	bl	87803f74 <ulPortSetInterruptMask>
87801e88:	e7fe      	b.n	87801e88 <uxQueueSpacesAvailable+0x1c>
87801e8a:	bf00      	nop

87801e8c <uxQueueMessagesWaitingFromISR>:
87801e8c:	b108      	cbz	r0, 87801e92 <uxQueueMessagesWaitingFromISR+0x6>
87801e8e:	6b80      	ldr	r0, [r0, #56]	; 0x38
87801e90:	4770      	bx	lr
87801e92:	b508      	push	{r3, lr}
87801e94:	f002 f86e 	bl	87803f74 <ulPortSetInterruptMask>
87801e98:	e7fe      	b.n	87801e98 <uxQueueMessagesWaitingFromISR+0xc>
87801e9a:	bf00      	nop

87801e9c <vQueueDelete>:
87801e9c:	b510      	push	{r4, lr}
87801e9e:	f649 7478 	movw	r4, #40824	; 0x9f78
87801ea2:	f6c8 0401 	movt	r4, #34817	; 0x8801
87801ea6:	2200      	movs	r2, #0
87801ea8:	4623      	mov	r3, r4
87801eaa:	b1a0      	cbz	r0, 87801ed6 <vQueueDelete+0x3a>
87801eac:	6859      	ldr	r1, [r3, #4]
87801eae:	3308      	adds	r3, #8
87801eb0:	4288      	cmp	r0, r1
87801eb2:	d006      	beq.n	87801ec2 <vQueueDelete+0x26>
87801eb4:	3201      	adds	r2, #1
87801eb6:	2a08      	cmp	r2, #8
87801eb8:	d1f8      	bne.n	87801eac <vQueueDelete+0x10>
87801eba:	e8bd 4010 	ldmia.w	sp!, {r4, lr}
87801ebe:	f002 b987 	b.w	878041d0 <vPortFree>
87801ec2:	eb04 01c2 	add.w	r1, r4, r2, lsl #3
87801ec6:	2300      	movs	r3, #0
87801ec8:	f844 3032 	str.w	r3, [r4, r2, lsl #3]
87801ecc:	604b      	str	r3, [r1, #4]
87801ece:	e8bd 4010 	ldmia.w	sp!, {r4, lr}
87801ed2:	f002 b97d 	b.w	878041d0 <vPortFree>
87801ed6:	f002 f84d 	bl	87803f74 <ulPortSetInterruptMask>
87801eda:	e7fe      	b.n	87801eda <vQueueDelete+0x3e>

87801edc <uxQueueGetQueueNumber>:
87801edc:	6c80      	ldr	r0, [r0, #72]	; 0x48
87801ede:	4770      	bx	lr

87801ee0 <vQueueSetQueueNumber>:
87801ee0:	6481      	str	r1, [r0, #72]	; 0x48
87801ee2:	4770      	bx	lr

87801ee4 <ucQueueGetQueueType>:
87801ee4:	f890 004c 	ldrb.w	r0, [r0, #76]	; 0x4c
87801ee8:	4770      	bx	lr
87801eea:	bf00      	nop

87801eec <xQueueIsQueueEmptyFromISR>:
87801eec:	b120      	cbz	r0, 87801ef8 <xQueueIsQueueEmptyFromISR+0xc>
87801eee:	6b80      	ldr	r0, [r0, #56]	; 0x38
87801ef0:	fab0 f080 	clz	r0, r0
87801ef4:	0940      	lsrs	r0, r0, #5
87801ef6:	4770      	bx	lr
87801ef8:	b508      	push	{r3, lr}
87801efa:	f002 f83b 	bl	87803f74 <ulPortSetInterruptMask>
87801efe:	e7fe      	b.n	87801efe <xQueueIsQueueEmptyFromISR+0x12>

87801f00 <xQueueIsQueueFullFromISR>:
87801f00:	b508      	push	{r3, lr}
87801f02:	b130      	cbz	r0, 87801f12 <xQueueIsQueueFullFromISR+0x12>
87801f04:	6b83      	ldr	r3, [r0, #56]	; 0x38
87801f06:	6bc0      	ldr	r0, [r0, #60]	; 0x3c
87801f08:	1ac0      	subs	r0, r0, r3
87801f0a:	fab0 f080 	clz	r0, r0
87801f0e:	0940      	lsrs	r0, r0, #5
87801f10:	bd08      	pop	{r3, pc}
87801f12:	f002 f82f 	bl	87803f74 <ulPortSetInterruptMask>
87801f16:	e7fe      	b.n	87801f16 <xQueueIsQueueFullFromISR+0x16>

87801f18 <vQueueAddToRegistry>:
87801f18:	f649 7278 	movw	r2, #40824	; 0x9f78
87801f1c:	2300      	movs	r3, #0
87801f1e:	f6c8 0201 	movt	r2, #34817	; 0x8801
87801f22:	b430      	push	{r4, r5}
87801f24:	f852 4033 	ldr.w	r4, [r2, r3, lsl #3]
87801f28:	eb02 05c3 	add.w	r5, r2, r3, lsl #3
87801f2c:	b124      	cbz	r4, 87801f38 <vQueueAddToRegistry+0x20>
87801f2e:	3301      	adds	r3, #1
87801f30:	2b08      	cmp	r3, #8
87801f32:	d1f7      	bne.n	87801f24 <vQueueAddToRegistry+0xc>
87801f34:	bc30      	pop	{r4, r5}
87801f36:	4770      	bx	lr
87801f38:	6068      	str	r0, [r5, #4]
87801f3a:	f842 1033 	str.w	r1, [r2, r3, lsl #3]
87801f3e:	bc30      	pop	{r4, r5}
87801f40:	4770      	bx	lr
87801f42:	bf00      	nop

87801f44 <pcQueueGetName>:
87801f44:	b410      	push	{r4}
87801f46:	f649 7478 	movw	r4, #40824	; 0x9f78
87801f4a:	f6c8 0401 	movt	r4, #34817	; 0x8801
87801f4e:	2200      	movs	r2, #0
87801f50:	4623      	mov	r3, r4
87801f52:	6859      	ldr	r1, [r3, #4]
87801f54:	3308      	adds	r3, #8
87801f56:	4281      	cmp	r1, r0
87801f58:	d006      	beq.n	87801f68 <pcQueueGetName+0x24>
87801f5a:	3201      	adds	r2, #1
87801f5c:	2a08      	cmp	r2, #8
87801f5e:	d1f8      	bne.n	87801f52 <pcQueueGetName+0xe>
87801f60:	2000      	movs	r0, #0
87801f62:	f85d 4b04 	ldr.w	r4, [sp], #4
87801f66:	4770      	bx	lr
87801f68:	f854 0032 	ldr.w	r0, [r4, r2, lsl #3]
87801f6c:	f85d 4b04 	ldr.w	r4, [sp], #4
87801f70:	4770      	bx	lr
87801f72:	bf00      	nop

87801f74 <vQueueUnregisterQueue>:
87801f74:	b410      	push	{r4}
87801f76:	f649 7478 	movw	r4, #40824	; 0x9f78
87801f7a:	f6c8 0401 	movt	r4, #34817	; 0x8801
87801f7e:	2200      	movs	r2, #0
87801f80:	4623      	mov	r3, r4
87801f82:	6859      	ldr	r1, [r3, #4]
87801f84:	3308      	adds	r3, #8
87801f86:	4281      	cmp	r1, r0
87801f88:	d005      	beq.n	87801f96 <vQueueUnregisterQueue+0x22>
87801f8a:	3201      	adds	r2, #1
87801f8c:	2a08      	cmp	r2, #8
87801f8e:	d1f8      	bne.n	87801f82 <vQueueUnregisterQueue+0xe>
87801f90:	f85d 4b04 	ldr.w	r4, [sp], #4
87801f94:	4770      	bx	lr
87801f96:	eb04 01c2 	add.w	r1, r4, r2, lsl #3
87801f9a:	2300      	movs	r3, #0
87801f9c:	f844 3032 	str.w	r3, [r4, r2, lsl #3]
87801fa0:	604b      	str	r3, [r1, #4]
87801fa2:	f85d 4b04 	ldr.w	r4, [sp], #4
87801fa6:	4770      	bx	lr

87801fa8 <vQueueWaitForMessageRestricted>:
87801fa8:	b570      	push	{r4, r5, r6, lr}
87801faa:	4604      	mov	r4, r0
87801fac:	460d      	mov	r5, r1
87801fae:	4616      	mov	r6, r2
87801fb0:	f001 ff5e 	bl	87803e70 <vPortEnterCritical>
87801fb4:	f894 3044 	ldrb.w	r3, [r4, #68]	; 0x44
87801fb8:	2bff      	cmp	r3, #255	; 0xff
87801fba:	bf04      	itt	eq
87801fbc:	2300      	moveq	r3, #0
87801fbe:	f884 3044 	strbeq.w	r3, [r4, #68]	; 0x44
87801fc2:	f894 3045 	ldrb.w	r3, [r4, #69]	; 0x45
87801fc6:	2bff      	cmp	r3, #255	; 0xff
87801fc8:	bf04      	itt	eq
87801fca:	2300      	moveq	r3, #0
87801fcc:	f884 3045 	strbeq.w	r3, [r4, #69]	; 0x45
87801fd0:	f001 ff90 	bl	87803ef4 <vPortExitCritical>
87801fd4:	6ba3      	ldr	r3, [r4, #56]	; 0x38
87801fd6:	b92b      	cbnz	r3, 87801fe4 <vQueueWaitForMessageRestricted+0x3c>
87801fd8:	4632      	mov	r2, r6
87801fda:	4629      	mov	r1, r5
87801fdc:	f104 0024 	add.w	r0, r4, #36	; 0x24
87801fe0:	f000 ff22 	bl	87802e28 <vTaskPlaceOnEventListRestricted>
87801fe4:	4620      	mov	r0, r4
87801fe6:	e8bd 4070 	ldmia.w	sp!, {r4, r5, r6, lr}
87801fea:	f7ff bbd1 	b.w	87801790 <prvUnlockQueue>
87801fee:	bf00      	nop

87801ff0 <vListInitialise>:
87801ff0:	f100 0308 	add.w	r3, r0, #8
87801ff4:	f04f 31ff 	mov.w	r1, #4294967295	; 0xffffffff
87801ff8:	2200      	movs	r2, #0
87801ffa:	6081      	str	r1, [r0, #8]
87801ffc:	e880 000c 	stmia.w	r0, {r2, r3}
87802000:	60c3      	str	r3, [r0, #12]
87802002:	6103      	str	r3, [r0, #16]
87802004:	4770      	bx	lr
87802006:	bf00      	nop

87802008 <vListInitialiseItem>:
87802008:	2300      	movs	r3, #0
8780200a:	6103      	str	r3, [r0, #16]
8780200c:	4770      	bx	lr
8780200e:	bf00      	nop

87802010 <vListInsertEnd>:
87802010:	e890 000c 	ldmia.w	r0, {r2, r3}
87802014:	b410      	push	{r4}
87802016:	3201      	adds	r2, #1
87802018:	689c      	ldr	r4, [r3, #8]
8780201a:	604b      	str	r3, [r1, #4]
8780201c:	608c      	str	r4, [r1, #8]
8780201e:	689c      	ldr	r4, [r3, #8]
87802020:	6061      	str	r1, [r4, #4]
87802022:	6099      	str	r1, [r3, #8]
87802024:	f85d 4b04 	ldr.w	r4, [sp], #4
87802028:	6108      	str	r0, [r1, #16]
8780202a:	6002      	str	r2, [r0, #0]
8780202c:	4770      	bx	lr
8780202e:	bf00      	nop

87802030 <vListInsert>:
87802030:	b430      	push	{r4, r5}
87802032:	680d      	ldr	r5, [r1, #0]
87802034:	1c6b      	adds	r3, r5, #1
87802036:	bf18      	it	ne
87802038:	f100 0208 	addne.w	r2, r0, #8
8780203c:	d101      	bne.n	87802042 <vListInsert+0x12>
8780203e:	e00e      	b.n	8780205e <vListInsert+0x2e>
87802040:	461a      	mov	r2, r3
87802042:	6853      	ldr	r3, [r2, #4]
87802044:	681c      	ldr	r4, [r3, #0]
87802046:	42a5      	cmp	r5, r4
87802048:	d2fa      	bcs.n	87802040 <vListInsert+0x10>
8780204a:	6804      	ldr	r4, [r0, #0]
8780204c:	604b      	str	r3, [r1, #4]
8780204e:	6099      	str	r1, [r3, #8]
87802050:	3401      	adds	r4, #1
87802052:	608a      	str	r2, [r1, #8]
87802054:	6051      	str	r1, [r2, #4]
87802056:	6108      	str	r0, [r1, #16]
87802058:	6004      	str	r4, [r0, #0]
8780205a:	bc30      	pop	{r4, r5}
8780205c:	4770      	bx	lr
8780205e:	6902      	ldr	r2, [r0, #16]
87802060:	6853      	ldr	r3, [r2, #4]
87802062:	e7f2      	b.n	8780204a <vListInsert+0x1a>

87802064 <uxListRemove>:
87802064:	6902      	ldr	r2, [r0, #16]
87802066:	6843      	ldr	r3, [r0, #4]
87802068:	6881      	ldr	r1, [r0, #8]
8780206a:	b410      	push	{r4}
8780206c:	6854      	ldr	r4, [r2, #4]
8780206e:	6099      	str	r1, [r3, #8]
87802070:	6881      	ldr	r1, [r0, #8]
87802072:	42a0      	cmp	r0, r4
87802074:	f85d 4b04 	ldr.w	r4, [sp], #4
87802078:	604b      	str	r3, [r1, #4]
8780207a:	6813      	ldr	r3, [r2, #0]
8780207c:	bf08      	it	eq
8780207e:	6051      	streq	r1, [r2, #4]
87802080:	2100      	movs	r1, #0
87802082:	6101      	str	r1, [r0, #16]
87802084:	1e58      	subs	r0, r3, #1
87802086:	6010      	str	r0, [r2, #0]
87802088:	4770      	bx	lr
8780208a:	bf00      	nop

8780208c <xEventGroupCreate>:
8780208c:	b510      	push	{r4, lr}
8780208e:	201c      	movs	r0, #28
87802090:	f002 f812 	bl	878040b8 <pvPortMalloc>
87802094:	4604      	mov	r4, r0
87802096:	b120      	cbz	r0, 878020a2 <xEventGroupCreate+0x16>
87802098:	2300      	movs	r3, #0
8780209a:	f840 3b04 	str.w	r3, [r0], #4
8780209e:	f7ff ffa7 	bl	87801ff0 <vListInitialise>
878020a2:	4620      	mov	r0, r4
878020a4:	bd10      	pop	{r4, pc}
878020a6:	bf00      	nop

878020a8 <xEventGroupWaitBits>:
878020a8:	e92d 43f8 	stmdb	sp!, {r3, r4, r5, r6, r7, r8, r9, lr}
878020ac:	f8dd 8020 	ldr.w	r8, [sp, #32]
878020b0:	b340      	cbz	r0, 87802104 <xEventGroupWaitBits+0x5c>
878020b2:	f011 4f7f 	tst.w	r1, #4278190080	; 0xff000000
878020b6:	460d      	mov	r5, r1
878020b8:	d121      	bne.n	878020fe <xEventGroupWaitBits+0x56>
878020ba:	b911      	cbnz	r1, 878020c2 <xEventGroupWaitBits+0x1a>
878020bc:	f001 ff5a 	bl	87803f74 <ulPortSetInterruptMask>
878020c0:	e7fe      	b.n	878020c0 <xEventGroupWaitBits+0x18>
878020c2:	4699      	mov	r9, r3
878020c4:	4617      	mov	r7, r2
878020c6:	4606      	mov	r6, r0
878020c8:	f001 f89c 	bl	87803204 <xTaskGetSchedulerState>
878020cc:	1c03      	adds	r3, r0, #0
878020ce:	bf18      	it	ne
878020d0:	2301      	movne	r3, #1
878020d2:	f1b8 0f00 	cmp.w	r8, #0
878020d6:	bf08      	it	eq
878020d8:	f043 0301 	orreq.w	r3, r3, #1
878020dc:	b913      	cbnz	r3, 878020e4 <xEventGroupWaitBits+0x3c>
878020de:	f001 ff49 	bl	87803f74 <ulPortSetInterruptMask>
878020e2:	e7fe      	b.n	878020e2 <xEventGroupWaitBits+0x3a>
878020e4:	f000 fc4a 	bl	8780297c <vTaskSuspendAll>
878020e8:	6834      	ldr	r4, [r6, #0]
878020ea:	f1b9 0f00 	cmp.w	r9, #0
878020ee:	d10c      	bne.n	8780210a <xEventGroupWaitBits+0x62>
878020f0:	4225      	tst	r5, r4
878020f2:	d00d      	beq.n	87802110 <xEventGroupWaitBits+0x68>
878020f4:	b17f      	cbz	r7, 87802116 <xEventGroupWaitBits+0x6e>
878020f6:	ea24 0505 	bic.w	r5, r4, r5
878020fa:	6035      	str	r5, [r6, #0]
878020fc:	e00b      	b.n	87802116 <xEventGroupWaitBits+0x6e>
878020fe:	f001 ff39 	bl	87803f74 <ulPortSetInterruptMask>
87802102:	e7fe      	b.n	87802102 <xEventGroupWaitBits+0x5a>
87802104:	f001 ff36 	bl	87803f74 <ulPortSetInterruptMask>
87802108:	e7fe      	b.n	87802108 <xEventGroupWaitBits+0x60>
8780210a:	ea35 0304 	bics.w	r3, r5, r4
8780210e:	d0f1      	beq.n	878020f4 <xEventGroupWaitBits+0x4c>
87802110:	f1b8 0f00 	cmp.w	r8, #0
87802114:	d104      	bne.n	87802120 <xEventGroupWaitBits+0x78>
87802116:	f000 fcdd 	bl	87802ad4 <xTaskResumeAll>
8780211a:	4620      	mov	r0, r4
8780211c:	e8bd 83f8 	ldmia.w	sp!, {r3, r4, r5, r6, r7, r8, r9, pc}
87802120:	2f00      	cmp	r7, #0
87802122:	bf0c      	ite	eq
87802124:	2100      	moveq	r1, #0
87802126:	f04f 7180 	movne.w	r1, #16777216	; 0x1000000
8780212a:	f1b9 0f00 	cmp.w	r9, #0
8780212e:	d001      	beq.n	87802134 <xEventGroupWaitBits+0x8c>
87802130:	f041 6180 	orr.w	r1, r1, #67108864	; 0x4000000
87802134:	4642      	mov	r2, r8
87802136:	4329      	orrs	r1, r5
87802138:	1d30      	adds	r0, r6, #4
8780213a:	f000 fe55 	bl	87802de8 <vTaskPlaceOnUnorderedEventList>
8780213e:	f000 fcc9 	bl	87802ad4 <xTaskResumeAll>
87802142:	b900      	cbnz	r0, 87802146 <xEventGroupWaitBits+0x9e>
87802144:	df00      	svc	0
87802146:	f001 f903 	bl	87803350 <uxTaskResetEventItemValue>
8780214a:	0183      	lsls	r3, r0, #6
8780214c:	4604      	mov	r4, r0
8780214e:	d503      	bpl.n	87802158 <xEventGroupWaitBits+0xb0>
87802150:	f024 407f 	bic.w	r0, r4, #4278190080	; 0xff000000
87802154:	e8bd 83f8 	ldmia.w	sp!, {r3, r4, r5, r6, r7, r8, r9, pc}
87802158:	f001 fe8a 	bl	87803e70 <vPortEnterCritical>
8780215c:	6834      	ldr	r4, [r6, #0]
8780215e:	f1b9 0f00 	cmp.w	r9, #0
87802162:	d108      	bne.n	87802176 <xEventGroupWaitBits+0xce>
87802164:	4225      	tst	r5, r4
87802166:	d003      	beq.n	87802170 <xEventGroupWaitBits+0xc8>
87802168:	b117      	cbz	r7, 87802170 <xEventGroupWaitBits+0xc8>
8780216a:	ea24 0505 	bic.w	r5, r4, r5
8780216e:	6035      	str	r5, [r6, #0]
87802170:	f001 fec0 	bl	87803ef4 <vPortExitCritical>
87802174:	e7ec      	b.n	87802150 <xEventGroupWaitBits+0xa8>
87802176:	ea35 0304 	bics.w	r3, r5, r4
8780217a:	d1f9      	bne.n	87802170 <xEventGroupWaitBits+0xc8>
8780217c:	e7f4      	b.n	87802168 <xEventGroupWaitBits+0xc0>
8780217e:	bf00      	nop

87802180 <xEventGroupClearBits>:
87802180:	b570      	push	{r4, r5, r6, lr}
87802182:	b188      	cbz	r0, 878021a8 <xEventGroupClearBits+0x28>
87802184:	f011 4f7f 	tst.w	r1, #4278190080	; 0xff000000
87802188:	460c      	mov	r4, r1
8780218a:	d002      	beq.n	87802192 <xEventGroupClearBits+0x12>
8780218c:	f001 fef2 	bl	87803f74 <ulPortSetInterruptMask>
87802190:	e7fe      	b.n	87802190 <xEventGroupClearBits+0x10>
87802192:	4605      	mov	r5, r0
87802194:	f001 fe6c 	bl	87803e70 <vPortEnterCritical>
87802198:	682e      	ldr	r6, [r5, #0]
8780219a:	ea26 0404 	bic.w	r4, r6, r4
8780219e:	602c      	str	r4, [r5, #0]
878021a0:	f001 fea8 	bl	87803ef4 <vPortExitCritical>
878021a4:	4630      	mov	r0, r6
878021a6:	bd70      	pop	{r4, r5, r6, pc}
878021a8:	f001 fee4 	bl	87803f74 <ulPortSetInterruptMask>
878021ac:	e7fe      	b.n	878021ac <xEventGroupClearBits+0x2c>
878021ae:	bf00      	nop

878021b0 <vEventGroupClearBitsCallback>:
878021b0:	f7ff bfe6 	b.w	87802180 <xEventGroupClearBits>

878021b4 <xEventGroupClearBitsFromISR>:
878021b4:	460a      	mov	r2, r1
878021b6:	4601      	mov	r1, r0
878021b8:	f242 10b1 	movw	r0, #8625	; 0x21b1
878021bc:	2300      	movs	r3, #0
878021be:	f2c8 7080 	movt	r0, #34688	; 0x8780
878021c2:	f001 bca9 	b.w	87803b18 <xTimerPendFunctionCallFromISR>
878021c6:	bf00      	nop

878021c8 <xEventGroupGetBitsFromISR>:
878021c8:	b510      	push	{r4, lr}
878021ca:	4604      	mov	r4, r0
878021cc:	f001 fed2 	bl	87803f74 <ulPortSetInterruptMask>
878021d0:	6824      	ldr	r4, [r4, #0]
878021d2:	f001 feb9 	bl	87803f48 <vPortClearInterruptMask>
878021d6:	4620      	mov	r0, r4
878021d8:	bd10      	pop	{r4, pc}
878021da:	bf00      	nop

878021dc <xEventGroupSetBits>:
878021dc:	b5f8      	push	{r3, r4, r5, r6, r7, lr}
878021de:	b3a8      	cbz	r0, 8780224c <xEventGroupSetBits+0x70>
878021e0:	f011 467f 	ands.w	r6, r1, #4278190080	; 0xff000000
878021e4:	460c      	mov	r4, r1
878021e6:	d002      	beq.n	878021ee <xEventGroupSetBits+0x12>
878021e8:	f001 fec4 	bl	87803f74 <ulPortSetInterruptMask>
878021ec:	e7fe      	b.n	878021ec <xEventGroupSetBits+0x10>
878021ee:	4605      	mov	r5, r0
878021f0:	f000 fbc4 	bl	8780297c <vTaskSuspendAll>
878021f4:	6928      	ldr	r0, [r5, #16]
878021f6:	f105 070c 	add.w	r7, r5, #12
878021fa:	6829      	ldr	r1, [r5, #0]
878021fc:	4287      	cmp	r7, r0
878021fe:	ea41 0104 	orr.w	r1, r1, r4
87802202:	6029      	str	r1, [r5, #0]
87802204:	d025      	beq.n	87802252 <xEventGroupSetBits+0x76>
87802206:	4634      	mov	r4, r6
87802208:	e00c      	b.n	87802224 <xEventGroupSetBits+0x48>
8780220a:	420a      	tst	r2, r1
8780220c:	d007      	beq.n	8780221e <xEventGroupSetBits+0x42>
8780220e:	01db      	lsls	r3, r3, #7
87802210:	f041 7100 	orr.w	r1, r1, #33554432	; 0x2000000
87802214:	bf48      	it	mi
87802216:	4314      	orrmi	r4, r2
87802218:	f000 fe56 	bl	87802ec8 <xTaskRemoveFromUnorderedEventList>
8780221c:	6829      	ldr	r1, [r5, #0]
8780221e:	42b7      	cmp	r7, r6
87802220:	4630      	mov	r0, r6
87802222:	d00c      	beq.n	8780223e <xEventGroupSetBits+0x62>
87802224:	e890 0048 	ldmia.w	r0, {r3, r6}
87802228:	f013 6f80 	tst.w	r3, #67108864	; 0x4000000
8780222c:	f023 427f 	bic.w	r2, r3, #4278190080	; 0xff000000
87802230:	d0eb      	beq.n	8780220a <xEventGroupSetBits+0x2e>
87802232:	ea32 0e01 	bics.w	lr, r2, r1
87802236:	d0ea      	beq.n	8780220e <xEventGroupSetBits+0x32>
87802238:	42b7      	cmp	r7, r6
8780223a:	4630      	mov	r0, r6
8780223c:	d1f2      	bne.n	87802224 <xEventGroupSetBits+0x48>
8780223e:	43e4      	mvns	r4, r4
87802240:	4021      	ands	r1, r4
87802242:	6029      	str	r1, [r5, #0]
87802244:	f000 fc46 	bl	87802ad4 <xTaskResumeAll>
87802248:	6828      	ldr	r0, [r5, #0]
8780224a:	bdf8      	pop	{r3, r4, r5, r6, r7, pc}
8780224c:	f001 fe92 	bl	87803f74 <ulPortSetInterruptMask>
87802250:	e7fe      	b.n	87802250 <xEventGroupSetBits+0x74>
87802252:	f04f 34ff 	mov.w	r4, #4294967295	; 0xffffffff
87802256:	e7f3      	b.n	87802240 <xEventGroupSetBits+0x64>

87802258 <xEventGroupSync>:
87802258:	f012 4f7f 	tst.w	r2, #4278190080	; 0xff000000
8780225c:	e92d 41f0 	stmdb	sp!, {r4, r5, r6, r7, r8, lr}
87802260:	d123      	bne.n	878022aa <xEventGroupSync+0x52>
87802262:	4615      	mov	r5, r2
87802264:	b912      	cbnz	r2, 8780226c <xEventGroupSync+0x14>
87802266:	f001 fe85 	bl	87803f74 <ulPortSetInterruptMask>
8780226a:	e7fe      	b.n	8780226a <xEventGroupSync+0x12>
8780226c:	461f      	mov	r7, r3
8780226e:	4688      	mov	r8, r1
87802270:	4606      	mov	r6, r0
87802272:	f000 ffc7 	bl	87803204 <xTaskGetSchedulerState>
87802276:	fab7 f187 	clz	r1, r7
8780227a:	0949      	lsrs	r1, r1, #5
8780227c:	2800      	cmp	r0, #0
8780227e:	bf18      	it	ne
87802280:	f041 0101 	orrne.w	r1, r1, #1
87802284:	b911      	cbnz	r1, 8780228c <xEventGroupSync+0x34>
87802286:	f001 fe75 	bl	87803f74 <ulPortSetInterruptMask>
8780228a:	e7fe      	b.n	8780228a <xEventGroupSync+0x32>
8780228c:	f000 fb76 	bl	8780297c <vTaskSuspendAll>
87802290:	6834      	ldr	r4, [r6, #0]
87802292:	4641      	mov	r1, r8
87802294:	4630      	mov	r0, r6
87802296:	f7ff ffa1 	bl	878021dc <xEventGroupSetBits>
8780229a:	ea44 0408 	orr.w	r4, r4, r8
8780229e:	ea35 0304 	bics.w	r3, r5, r4
878022a2:	d005      	beq.n	878022b0 <xEventGroupSync+0x58>
878022a4:	b96f      	cbnz	r7, 878022c2 <xEventGroupSync+0x6a>
878022a6:	6834      	ldr	r4, [r6, #0]
878022a8:	e006      	b.n	878022b8 <xEventGroupSync+0x60>
878022aa:	f001 fe63 	bl	87803f74 <ulPortSetInterruptMask>
878022ae:	e7fe      	b.n	878022ae <xEventGroupSync+0x56>
878022b0:	6833      	ldr	r3, [r6, #0]
878022b2:	ea23 0305 	bic.w	r3, r3, r5
878022b6:	6033      	str	r3, [r6, #0]
878022b8:	f000 fc0c 	bl	87802ad4 <xTaskResumeAll>
878022bc:	4620      	mov	r0, r4
878022be:	e8bd 81f0 	ldmia.w	sp!, {r4, r5, r6, r7, r8, pc}
878022c2:	463a      	mov	r2, r7
878022c4:	f045 61a0 	orr.w	r1, r5, #83886080	; 0x5000000
878022c8:	1d30      	adds	r0, r6, #4
878022ca:	f000 fd8d 	bl	87802de8 <vTaskPlaceOnUnorderedEventList>
878022ce:	f000 fc01 	bl	87802ad4 <xTaskResumeAll>
878022d2:	b900      	cbnz	r0, 878022d6 <xEventGroupSync+0x7e>
878022d4:	df00      	svc	0
878022d6:	f001 f83b 	bl	87803350 <uxTaskResetEventItemValue>
878022da:	0183      	lsls	r3, r0, #6
878022dc:	4604      	mov	r4, r0
878022de:	d40a      	bmi.n	878022f6 <xEventGroupSync+0x9e>
878022e0:	f001 fdc6 	bl	87803e70 <vPortEnterCritical>
878022e4:	6834      	ldr	r4, [r6, #0]
878022e6:	ea35 0304 	bics.w	r3, r5, r4
878022ea:	bf04      	itt	eq
878022ec:	ea24 0505 	biceq.w	r5, r4, r5
878022f0:	6035      	streq	r5, [r6, #0]
878022f2:	f001 fdff 	bl	87803ef4 <vPortExitCritical>
878022f6:	f024 447f 	bic.w	r4, r4, #4278190080	; 0xff000000
878022fa:	e7df      	b.n	878022bc <xEventGroupSync+0x64>

878022fc <vEventGroupSetBitsCallback>:
878022fc:	f7ff bf6e 	b.w	878021dc <xEventGroupSetBits>

87802300 <vEventGroupDelete>:
87802300:	b538      	push	{r3, r4, r5, lr}
87802302:	4604      	mov	r4, r0
87802304:	f000 fb3a 	bl	8780297c <vTaskSuspendAll>
87802308:	6863      	ldr	r3, [r4, #4]
8780230a:	b17b      	cbz	r3, 8780232c <vEventGroupDelete+0x2c>
8780230c:	6920      	ldr	r0, [r4, #16]
8780230e:	f104 050c 	add.w	r5, r4, #12
87802312:	42a8      	cmp	r0, r5
87802314:	d103      	bne.n	8780231e <vEventGroupDelete+0x1e>
87802316:	e010      	b.n	8780233a <vEventGroupDelete+0x3a>
87802318:	6920      	ldr	r0, [r4, #16]
8780231a:	42a8      	cmp	r0, r5
8780231c:	d00d      	beq.n	8780233a <vEventGroupDelete+0x3a>
8780231e:	f04f 7100 	mov.w	r1, #33554432	; 0x2000000
87802322:	f000 fdd1 	bl	87802ec8 <xTaskRemoveFromUnorderedEventList>
87802326:	6863      	ldr	r3, [r4, #4]
87802328:	2b00      	cmp	r3, #0
8780232a:	d1f5      	bne.n	87802318 <vEventGroupDelete+0x18>
8780232c:	4620      	mov	r0, r4
8780232e:	f001 ff4f 	bl	878041d0 <vPortFree>
87802332:	e8bd 4038 	ldmia.w	sp!, {r3, r4, r5, lr}
87802336:	f000 bbcd 	b.w	87802ad4 <xTaskResumeAll>
8780233a:	f001 fe1b 	bl	87803f74 <ulPortSetInterruptMask>
8780233e:	e7fe      	b.n	8780233e <vEventGroupDelete+0x3e>

87802340 <xEventGroupSetBitsFromISR>:
87802340:	4613      	mov	r3, r2
87802342:	460a      	mov	r2, r1
87802344:	4601      	mov	r1, r0
87802346:	f242 20fd 	movw	r0, #8957	; 0x22fd
8780234a:	f2c8 7080 	movt	r0, #34688	; 0x8780
8780234e:	f001 bbe3 	b.w	87803b18 <xTimerPendFunctionCallFromISR>
87802352:	bf00      	nop

87802354 <uxEventGroupGetNumber>:
87802354:	b100      	cbz	r0, 87802358 <uxEventGroupGetNumber+0x4>
87802356:	6980      	ldr	r0, [r0, #24]
87802358:	4770      	bx	lr
8780235a:	bf00      	nop

8780235c <prvAddCurrentTaskToDelayedList>:
8780235c:	b5f8      	push	{r3, r4, r5, r6, r7, lr}
8780235e:	f240 1408 	movw	r4, #264	; 0x108
87802362:	f6c8 0400 	movt	r4, #34816	; 0x8800
87802366:	4606      	mov	r6, r0
87802368:	460f      	mov	r7, r1
8780236a:	6825      	ldr	r5, [r4, #0]
8780236c:	6860      	ldr	r0, [r4, #4]
8780236e:	3004      	adds	r0, #4
87802370:	f7ff fe78 	bl	87802064 <uxListRemove>
87802374:	b938      	cbnz	r0, 87802386 <prvAddCurrentTaskToDelayedList+0x2a>
87802376:	6861      	ldr	r1, [r4, #4]
87802378:	2201      	movs	r2, #1
8780237a:	68a3      	ldr	r3, [r4, #8]
8780237c:	6ac9      	ldr	r1, [r1, #44]	; 0x2c
8780237e:	408a      	lsls	r2, r1
87802380:	ea23 0302 	bic.w	r3, r3, r2
87802384:	60a3      	str	r3, [r4, #8]
87802386:	f1a6 33ff 	sub.w	r3, r6, #4294967295	; 0xffffffff
8780238a:	2f00      	cmp	r7, #0
8780238c:	fab3 f383 	clz	r3, r3
87802390:	ea4f 1353 	mov.w	r3, r3, lsr #5
87802394:	bf08      	it	eq
87802396:	2300      	moveq	r3, #0
87802398:	b9a3      	cbnz	r3, 878023c4 <prvAddCurrentTaskToDelayedList+0x68>
8780239a:	6863      	ldr	r3, [r4, #4]
8780239c:	19ad      	adds	r5, r5, r6
8780239e:	605d      	str	r5, [r3, #4]
878023a0:	d209      	bcs.n	878023b6 <prvAddCurrentTaskToDelayedList+0x5a>
878023a2:	6a60      	ldr	r0, [r4, #36]	; 0x24
878023a4:	6861      	ldr	r1, [r4, #4]
878023a6:	3104      	adds	r1, #4
878023a8:	f7ff fe42 	bl	87802030 <vListInsert>
878023ac:	6aa3      	ldr	r3, [r4, #40]	; 0x28
878023ae:	429d      	cmp	r5, r3
878023b0:	bf38      	it	cc
878023b2:	62a5      	strcc	r5, [r4, #40]	; 0x28
878023b4:	bdf8      	pop	{r3, r4, r5, r6, r7, pc}
878023b6:	6a20      	ldr	r0, [r4, #32]
878023b8:	6861      	ldr	r1, [r4, #4]
878023ba:	e8bd 40f8 	ldmia.w	sp!, {r3, r4, r5, r6, r7, lr}
878023be:	3104      	adds	r1, #4
878023c0:	f7ff be36 	b.w	87802030 <vListInsert>
878023c4:	6861      	ldr	r1, [r4, #4]
878023c6:	4803      	ldr	r0, [pc, #12]	; (878023d4 <prvAddCurrentTaskToDelayedList+0x78>)
878023c8:	e8bd 40f8 	ldmia.w	sp!, {r3, r4, r5, r6, r7, lr}
878023cc:	3104      	adds	r1, #4
878023ce:	f7ff be1f 	b.w	87802010 <vListInsertEnd>
878023d2:	bf00      	nop
878023d4:	88000114 	stmdahi	r0, {r2, r4, r8}

878023d8 <prvResetNextTaskUnblockTime.part.0>:
878023d8:	f240 1308 	movw	r3, #264	; 0x108
878023dc:	f6c8 0300 	movt	r3, #34816	; 0x8800
878023e0:	6a5a      	ldr	r2, [r3, #36]	; 0x24
878023e2:	68d2      	ldr	r2, [r2, #12]
878023e4:	68d2      	ldr	r2, [r2, #12]
878023e6:	6852      	ldr	r2, [r2, #4]
878023e8:	629a      	str	r2, [r3, #40]	; 0x28
878023ea:	4770      	bx	lr

878023ec <prvTaskIsTaskSuspended>:
878023ec:	b508      	push	{r3, lr}
878023ee:	b170      	cbz	r0, 8780240e <prvTaskIsTaskSuspended+0x22>
878023f0:	4a08      	ldr	r2, [pc, #32]	; (87802414 <prvTaskIsTaskSuspended+0x28>)
878023f2:	6943      	ldr	r3, [r0, #20]
878023f4:	4293      	cmp	r3, r2
878023f6:	d001      	beq.n	878023fc <prvTaskIsTaskSuspended+0x10>
878023f8:	2000      	movs	r0, #0
878023fa:	bd08      	pop	{r3, pc}
878023fc:	6a82      	ldr	r2, [r0, #40]	; 0x28
878023fe:	3320      	adds	r3, #32
87802400:	1ad0      	subs	r0, r2, r3
87802402:	bf18      	it	ne
87802404:	2001      	movne	r0, #1
87802406:	2a00      	cmp	r2, #0
87802408:	bf18      	it	ne
8780240a:	2000      	movne	r0, #0
8780240c:	bd08      	pop	{r3, pc}
8780240e:	f001 fdb1 	bl	87803f74 <ulPortSetInterruptMask>
87802412:	e7fe      	b.n	87802412 <prvTaskIsTaskSuspended+0x26>
87802414:	88000114 	stmdahi	r0, {r2, r4, r8}

87802418 <xTaskCreate>:
87802418:	e92d 4ff8 	stmdb	sp!, {r3, r4, r5, r6, r7, r8, r9, sl, fp, lr}
8780241c:	ea4f 0982 	mov.w	r9, r2, lsl #2
87802420:	4607      	mov	r7, r0
87802422:	9e0b      	ldr	r6, [sp, #44]	; 0x2c
87802424:	4648      	mov	r0, r9
87802426:	460d      	mov	r5, r1
87802428:	4698      	mov	r8, r3
8780242a:	f001 fe45 	bl	878040b8 <pvPortMalloc>
8780242e:	2800      	cmp	r0, #0
87802430:	f000 808e 	beq.w	87802550 <xTaskCreate+0x138>
87802434:	4682      	mov	sl, r0
87802436:	2078      	movs	r0, #120	; 0x78
87802438:	f001 fe3e 	bl	878040b8 <pvPortMalloc>
8780243c:	4604      	mov	r4, r0
8780243e:	2800      	cmp	r0, #0
87802440:	f000 80bd 	beq.w	878025be <xTaskCreate+0x1a6>
87802444:	464a      	mov	r2, r9
87802446:	f8c0 a030 	str.w	sl, [r0, #48]	; 0x30
8780244a:	21a5      	movs	r1, #165	; 0xa5
8780244c:	4650      	mov	r0, sl
8780244e:	f002 f955 	bl	878046fc <memset>
87802452:	6b22      	ldr	r2, [r4, #48]	; 0x30
87802454:	f1a9 0904 	sub.w	r9, r9, #4
87802458:	1e6b      	subs	r3, r5, #1
8780245a:	f105 0113 	add.w	r1, r5, #19
8780245e:	f104 0533 	add.w	r5, r4, #51	; 0x33
87802462:	4491      	add	r9, r2
87802464:	f029 0907 	bic.w	r9, r9, #7
87802468:	f8c4 9048 	str.w	r9, [r4, #72]	; 0x48
8780246c:	785a      	ldrb	r2, [r3, #1]
8780246e:	f805 2f01 	strb.w	r2, [r5, #1]!
87802472:	f813 2f01 	ldrb.w	r2, [r3, #1]!
87802476:	b10a      	cbz	r2, 8780247c <xTaskCreate+0x64>
87802478:	428b      	cmp	r3, r1
8780247a:	d1f7      	bne.n	8780246c <xTaskCreate+0x54>
8780247c:	9b0a      	ldr	r3, [sp, #40]	; 0x28
8780247e:	2500      	movs	r5, #0
87802480:	f104 0a04 	add.w	sl, r4, #4
87802484:	f884 5047 	strb.w	r5, [r4, #71]	; 0x47
87802488:	4650      	mov	r0, sl
8780248a:	65a5      	str	r5, [r4, #88]	; 0x58
8780248c:	2b04      	cmp	r3, #4
8780248e:	bf28      	it	cs
87802490:	2304      	movcs	r3, #4
87802492:	62e3      	str	r3, [r4, #44]	; 0x2c
87802494:	469b      	mov	fp, r3
87802496:	6563      	str	r3, [r4, #84]	; 0x54
87802498:	f7ff fdb6 	bl	87802008 <vListInitialiseItem>
8780249c:	f104 0018 	add.w	r0, r4, #24
878024a0:	f7ff fdb2 	bl	87802008 <vListInitialiseItem>
878024a4:	f1cb 0305 	rsb	r3, fp, #5
878024a8:	6725      	str	r5, [r4, #112]	; 0x70
878024aa:	61a3      	str	r3, [r4, #24]
878024ac:	4642      	mov	r2, r8
878024ae:	65e5      	str	r5, [r4, #92]	; 0x5c
878024b0:	4639      	mov	r1, r7
878024b2:	6625      	str	r5, [r4, #96]	; 0x60
878024b4:	4648      	mov	r0, r9
878024b6:	6665      	str	r5, [r4, #100]	; 0x64
878024b8:	66a5      	str	r5, [r4, #104]	; 0x68
878024ba:	66e5      	str	r5, [r4, #108]	; 0x6c
878024bc:	f884 5074 	strb.w	r5, [r4, #116]	; 0x74
878024c0:	6124      	str	r4, [r4, #16]
878024c2:	6264      	str	r4, [r4, #36]	; 0x24
878024c4:	f001 fbc8 	bl	87803c58 <pxPortInitialiseStack>
878024c8:	6020      	str	r0, [r4, #0]
878024ca:	b106      	cbz	r6, 878024ce <xTaskCreate+0xb6>
878024cc:	6034      	str	r4, [r6, #0]
878024ce:	f240 1508 	movw	r5, #264	; 0x108
878024d2:	f6c8 0500 	movt	r5, #34816	; 0x8800
878024d6:	f001 fccb 	bl	87803e70 <vPortEnterCritical>
878024da:	6c2b      	ldr	r3, [r5, #64]	; 0x40
878024dc:	3301      	adds	r3, #1
878024de:	642b      	str	r3, [r5, #64]	; 0x40
878024e0:	686b      	ldr	r3, [r5, #4]
878024e2:	2b00      	cmp	r3, #0
878024e4:	d038      	beq.n	87802558 <xTaskCreate+0x140>
878024e6:	f8d5 30e4 	ldr.w	r3, [r5, #228]	; 0xe4
878024ea:	b343      	cbz	r3, 8780253e <xTaskCreate+0x126>
878024ec:	6ae3      	ldr	r3, [r4, #44]	; 0x2c
878024ee:	f105 0844 	add.w	r8, r5, #68	; 0x44
878024f2:	f8d5 20e8 	ldr.w	r2, [r5, #232]	; 0xe8
878024f6:	2601      	movs	r6, #1
878024f8:	f8d5 e008 	ldr.w	lr, [r5, #8]
878024fc:	fa06 f703 	lsl.w	r7, r6, r3
87802500:	eb03 0383 	add.w	r3, r3, r3, lsl #2
87802504:	4651      	mov	r1, sl
87802506:	4432      	add	r2, r6
87802508:	eb08 0083 	add.w	r0, r8, r3, lsl #2
8780250c:	ea47 070e 	orr.w	r7, r7, lr
87802510:	64e2      	str	r2, [r4, #76]	; 0x4c
87802512:	f8c5 20e8 	str.w	r2, [r5, #232]	; 0xe8
87802516:	60af      	str	r7, [r5, #8]
87802518:	f7ff fd7a 	bl	87802010 <vListInsertEnd>
8780251c:	f001 fcea 	bl	87803ef4 <vPortExitCritical>
87802520:	f8d5 30e4 	ldr.w	r3, [r5, #228]	; 0xe4
87802524:	b143      	cbz	r3, 87802538 <xTaskCreate+0x120>
87802526:	686a      	ldr	r2, [r5, #4]
87802528:	6ae3      	ldr	r3, [r4, #44]	; 0x2c
8780252a:	6ad2      	ldr	r2, [r2, #44]	; 0x2c
8780252c:	429a      	cmp	r2, r3
8780252e:	d203      	bcs.n	87802538 <xTaskCreate+0x120>
87802530:	df00      	svc	0
87802532:	4630      	mov	r0, r6
87802534:	e8bd 8ff8 	ldmia.w	sp!, {r3, r4, r5, r6, r7, r8, r9, sl, fp, pc}
87802538:	4630      	mov	r0, r6
8780253a:	e8bd 8ff8 	ldmia.w	sp!, {r3, r4, r5, r6, r7, r8, r9, sl, fp, pc}
8780253e:	686a      	ldr	r2, [r5, #4]
87802540:	f105 0844 	add.w	r8, r5, #68	; 0x44
87802544:	6ae3      	ldr	r3, [r4, #44]	; 0x2c
87802546:	6ad2      	ldr	r2, [r2, #44]	; 0x2c
87802548:	429a      	cmp	r2, r3
8780254a:	bf98      	it	ls
8780254c:	606c      	strls	r4, [r5, #4]
8780254e:	e7d0      	b.n	878024f2 <xTaskCreate+0xda>
87802550:	f04f 30ff 	mov.w	r0, #4294967295	; 0xffffffff
87802554:	e8bd 8ff8 	ldmia.w	sp!, {r3, r4, r5, r6, r7, r8, r9, sl, fp, pc}
87802558:	606c      	str	r4, [r5, #4]
8780255a:	6c2b      	ldr	r3, [r5, #64]	; 0x40
8780255c:	2b01      	cmp	r3, #1
8780255e:	d1c5      	bne.n	878024ec <xTaskCreate+0xd4>
87802560:	f105 0844 	add.w	r8, r5, #68	; 0x44
87802564:	f105 07a8 	add.w	r7, r5, #168	; 0xa8
87802568:	4640      	mov	r0, r8
8780256a:	f105 06bc 	add.w	r6, r5, #188	; 0xbc
8780256e:	f7ff fd3f 	bl	87801ff0 <vListInitialise>
87802572:	f105 0058 	add.w	r0, r5, #88	; 0x58
87802576:	f7ff fd3b 	bl	87801ff0 <vListInitialise>
8780257a:	f105 006c 	add.w	r0, r5, #108	; 0x6c
8780257e:	f7ff fd37 	bl	87801ff0 <vListInitialise>
87802582:	f105 0080 	add.w	r0, r5, #128	; 0x80
87802586:	f7ff fd33 	bl	87801ff0 <vListInitialise>
8780258a:	f105 0094 	add.w	r0, r5, #148	; 0x94
8780258e:	f7ff fd2f 	bl	87801ff0 <vListInitialise>
87802592:	4638      	mov	r0, r7
87802594:	f7ff fd2c 	bl	87801ff0 <vListInitialise>
87802598:	4630      	mov	r0, r6
8780259a:	f7ff fd29 	bl	87801ff0 <vListInitialise>
8780259e:	f105 002c 	add.w	r0, r5, #44	; 0x2c
878025a2:	f7ff fd25 	bl	87801ff0 <vListInitialise>
878025a6:	f105 00d0 	add.w	r0, r5, #208	; 0xd0
878025aa:	f7ff fd21 	bl	87801ff0 <vListInitialise>
878025ae:	f105 000c 	add.w	r0, r5, #12
878025b2:	f7ff fd1d 	bl	87801ff0 <vListInitialise>
878025b6:	626f      	str	r7, [r5, #36]	; 0x24
878025b8:	6ae3      	ldr	r3, [r4, #44]	; 0x2c
878025ba:	622e      	str	r6, [r5, #32]
878025bc:	e799      	b.n	878024f2 <xTaskCreate+0xda>
878025be:	4650      	mov	r0, sl
878025c0:	f001 fe06 	bl	878041d0 <vPortFree>
878025c4:	f04f 30ff 	mov.w	r0, #4294967295	; 0xffffffff
878025c8:	e8bd 8ff8 	ldmia.w	sp!, {r3, r4, r5, r6, r7, r8, r9, sl, fp, pc}

878025cc <vTaskDelete>:
878025cc:	b570      	push	{r4, r5, r6, lr}
878025ce:	4605      	mov	r5, r0
878025d0:	f240 1408 	movw	r4, #264	; 0x108
878025d4:	f6c8 0400 	movt	r4, #34816	; 0x8800
878025d8:	f001 fc4a 	bl	87803e70 <vPortEnterCritical>
878025dc:	2d00      	cmp	r5, #0
878025de:	d041      	beq.n	87802664 <vTaskDelete+0x98>
878025e0:	1d2e      	adds	r6, r5, #4
878025e2:	4630      	mov	r0, r6
878025e4:	f7ff fd3e 	bl	87802064 <uxListRemove>
878025e8:	b930      	cbnz	r0, 878025f8 <vTaskDelete+0x2c>
878025ea:	6ae9      	ldr	r1, [r5, #44]	; 0x2c
878025ec:	eb01 0381 	add.w	r3, r1, r1, lsl #2
878025f0:	eb04 0383 	add.w	r3, r4, r3, lsl #2
878025f4:	6c5b      	ldr	r3, [r3, #68]	; 0x44
878025f6:	b34b      	cbz	r3, 8780264c <vTaskDelete+0x80>
878025f8:	6aab      	ldr	r3, [r5, #40]	; 0x28
878025fa:	b11b      	cbz	r3, 87802604 <vTaskDelete+0x38>
878025fc:	f105 0018 	add.w	r0, r5, #24
87802600:	f7ff fd30 	bl	87802064 <uxListRemove>
87802604:	6862      	ldr	r2, [r4, #4]
87802606:	f8d4 30e8 	ldr.w	r3, [r4, #232]	; 0xe8
8780260a:	4295      	cmp	r5, r2
8780260c:	f103 0301 	add.w	r3, r3, #1
87802610:	f8c4 30e8 	str.w	r3, [r4, #232]	; 0xe8
87802614:	d028      	beq.n	87802668 <vTaskDelete+0x9c>
87802616:	6c23      	ldr	r3, [r4, #64]	; 0x40
87802618:	6b28      	ldr	r0, [r5, #48]	; 0x30
8780261a:	3b01      	subs	r3, #1
8780261c:	6423      	str	r3, [r4, #64]	; 0x40
8780261e:	f001 fdd7 	bl	878041d0 <vPortFree>
87802622:	4628      	mov	r0, r5
87802624:	f001 fdd4 	bl	878041d0 <vPortFree>
87802628:	6a63      	ldr	r3, [r4, #36]	; 0x24
8780262a:	681b      	ldr	r3, [r3, #0]
8780262c:	b95b      	cbnz	r3, 87802646 <vTaskDelete+0x7a>
8780262e:	f04f 33ff 	mov.w	r3, #4294967295	; 0xffffffff
87802632:	62a3      	str	r3, [r4, #40]	; 0x28
87802634:	f001 fc5e 	bl	87803ef4 <vPortExitCritical>
87802638:	f8d4 30e4 	ldr.w	r3, [r4, #228]	; 0xe4
8780263c:	b113      	cbz	r3, 87802644 <vTaskDelete+0x78>
8780263e:	6863      	ldr	r3, [r4, #4]
87802640:	429d      	cmp	r5, r3
87802642:	d00a      	beq.n	8780265a <vTaskDelete+0x8e>
87802644:	bd70      	pop	{r4, r5, r6, pc}
87802646:	f7ff fec7 	bl	878023d8 <prvResetNextTaskUnblockTime.part.0>
8780264a:	e7f3      	b.n	87802634 <vTaskDelete+0x68>
8780264c:	68a3      	ldr	r3, [r4, #8]
8780264e:	2201      	movs	r2, #1
87802650:	408a      	lsls	r2, r1
87802652:	ea23 0302 	bic.w	r3, r3, r2
87802656:	60a3      	str	r3, [r4, #8]
87802658:	e7ce      	b.n	878025f8 <vTaskDelete+0x2c>
8780265a:	f8d4 30f0 	ldr.w	r3, [r4, #240]	; 0xf0
8780265e:	b96b      	cbnz	r3, 8780267c <vTaskDelete+0xb0>
87802660:	df00      	svc	0
87802662:	bd70      	pop	{r4, r5, r6, pc}
87802664:	6865      	ldr	r5, [r4, #4]
87802666:	e7bb      	b.n	878025e0 <vTaskDelete+0x14>
87802668:	4631      	mov	r1, r6
8780266a:	4806      	ldr	r0, [pc, #24]	; (87802684 <vTaskDelete+0xb8>)
8780266c:	f7ff fcd0 	bl	87802010 <vListInsertEnd>
87802670:	f8d4 30ec 	ldr.w	r3, [r4, #236]	; 0xec
87802674:	3301      	adds	r3, #1
87802676:	f8c4 30ec 	str.w	r3, [r4, #236]	; 0xec
8780267a:	e7db      	b.n	87802634 <vTaskDelete+0x68>
8780267c:	f001 fc7a 	bl	87803f74 <ulPortSetInterruptMask>
87802680:	e7fe      	b.n	87802680 <vTaskDelete+0xb4>
87802682:	bf00      	nop
87802684:	880001d8 	stmdahi	r0, {r3, r4, r6, r7, r8}

87802688 <eTaskGetState>:
87802688:	b570      	push	{r4, r5, r6, lr}
8780268a:	b340      	cbz	r0, 878026de <eTaskGetState+0x56>
8780268c:	f240 1408 	movw	r4, #264	; 0x108
87802690:	4606      	mov	r6, r0
87802692:	f6c8 0400 	movt	r4, #34816	; 0x8800
87802696:	6863      	ldr	r3, [r4, #4]
87802698:	4298      	cmp	r0, r3
8780269a:	d018      	beq.n	878026ce <eTaskGetState+0x46>
8780269c:	f001 fbe8 	bl	87803e70 <vPortEnterCritical>
878026a0:	6975      	ldr	r5, [r6, #20]
878026a2:	f001 fc27 	bl	87803ef4 <vPortExitCritical>
878026a6:	6a63      	ldr	r3, [r4, #36]	; 0x24
878026a8:	429d      	cmp	r5, r3
878026aa:	d00e      	beq.n	878026ca <eTaskGetState+0x42>
878026ac:	6a23      	ldr	r3, [r4, #32]
878026ae:	429d      	cmp	r5, r3
878026b0:	d00b      	beq.n	878026ca <eTaskGetState+0x42>
878026b2:	f104 030c 	add.w	r3, r4, #12
878026b6:	429d      	cmp	r5, r3
878026b8:	d00b      	beq.n	878026d2 <eTaskGetState+0x4a>
878026ba:	34d0      	adds	r4, #208	; 0xd0
878026bc:	42a5      	cmp	r5, r4
878026be:	bf18      	it	ne
878026c0:	2d00      	cmpne	r5, #0
878026c2:	bf0c      	ite	eq
878026c4:	2004      	moveq	r0, #4
878026c6:	2001      	movne	r0, #1
878026c8:	bd70      	pop	{r4, r5, r6, pc}
878026ca:	2002      	movs	r0, #2
878026cc:	bd70      	pop	{r4, r5, r6, pc}
878026ce:	2000      	movs	r0, #0
878026d0:	bd70      	pop	{r4, r5, r6, pc}
878026d2:	6ab3      	ldr	r3, [r6, #40]	; 0x28
878026d4:	2b00      	cmp	r3, #0
878026d6:	bf14      	ite	ne
878026d8:	2002      	movne	r0, #2
878026da:	2003      	moveq	r0, #3
878026dc:	bd70      	pop	{r4, r5, r6, pc}
878026de:	f001 fc49 	bl	87803f74 <ulPortSetInterruptMask>
878026e2:	e7fe      	b.n	878026e2 <eTaskGetState+0x5a>

878026e4 <uxTaskPriorityGet>:
878026e4:	b510      	push	{r4, lr}
878026e6:	4604      	mov	r4, r0
878026e8:	f001 fbc2 	bl	87803e70 <vPortEnterCritical>
878026ec:	b124      	cbz	r4, 878026f8 <uxTaskPriorityGet+0x14>
878026ee:	6ae4      	ldr	r4, [r4, #44]	; 0x2c
878026f0:	f001 fc00 	bl	87803ef4 <vPortExitCritical>
878026f4:	4620      	mov	r0, r4
878026f6:	bd10      	pop	{r4, pc}
878026f8:	f240 1308 	movw	r3, #264	; 0x108
878026fc:	f6c8 0300 	movt	r3, #34816	; 0x8800
87802700:	685c      	ldr	r4, [r3, #4]
87802702:	6ae4      	ldr	r4, [r4, #44]	; 0x2c
87802704:	f001 fbf6 	bl	87803ef4 <vPortExitCritical>
87802708:	4620      	mov	r0, r4
8780270a:	bd10      	pop	{r4, pc}

8780270c <uxTaskPriorityGetFromISR>:
8780270c:	b510      	push	{r4, lr}
8780270e:	4604      	mov	r4, r0
87802710:	f001 fc4c 	bl	87803fac <vPortValidateInterruptPriority>
87802714:	f001 fc2e 	bl	87803f74 <ulPortSetInterruptMask>
87802718:	b124      	cbz	r4, 87802724 <uxTaskPriorityGetFromISR+0x18>
8780271a:	6ae4      	ldr	r4, [r4, #44]	; 0x2c
8780271c:	f001 fc14 	bl	87803f48 <vPortClearInterruptMask>
87802720:	4620      	mov	r0, r4
87802722:	bd10      	pop	{r4, pc}
87802724:	f240 1308 	movw	r3, #264	; 0x108
87802728:	f6c8 0300 	movt	r3, #34816	; 0x8800
8780272c:	685c      	ldr	r4, [r3, #4]
8780272e:	6ae4      	ldr	r4, [r4, #44]	; 0x2c
87802730:	f001 fc0a 	bl	87803f48 <vPortClearInterruptMask>
87802734:	4620      	mov	r0, r4
87802736:	bd10      	pop	{r4, pc}

87802738 <vTaskPrioritySet>:
87802738:	2904      	cmp	r1, #4
8780273a:	e92d 43f8 	stmdb	sp!, {r3, r4, r5, r6, r7, r8, r9, lr}
8780273e:	d902      	bls.n	87802746 <vTaskPrioritySet+0xe>
87802740:	f001 fc18 	bl	87803f74 <ulPortSetInterruptMask>
87802744:	e7fe      	b.n	87802744 <vTaskPrioritySet+0xc>
87802746:	4604      	mov	r4, r0
87802748:	460e      	mov	r6, r1
8780274a:	f001 fb91 	bl	87803e70 <vPortEnterCritical>
8780274e:	b364      	cbz	r4, 878027aa <vTaskPrioritySet+0x72>
87802750:	6d63      	ldr	r3, [r4, #84]	; 0x54
87802752:	429e      	cmp	r6, r3
87802754:	d025      	beq.n	878027a2 <vTaskPrioritySet+0x6a>
87802756:	f240 1508 	movw	r5, #264	; 0x108
8780275a:	f6c8 0500 	movt	r5, #34816	; 0x8800
8780275e:	d92a      	bls.n	878027b6 <vTaskPrioritySet+0x7e>
87802760:	686a      	ldr	r2, [r5, #4]
87802762:	4294      	cmp	r4, r2
87802764:	bf08      	it	eq
87802766:	2700      	moveq	r7, #0
87802768:	d005      	beq.n	87802776 <vTaskPrioritySet+0x3e>
8780276a:	686a      	ldr	r2, [r5, #4]
8780276c:	6ad7      	ldr	r7, [r2, #44]	; 0x2c
8780276e:	42be      	cmp	r6, r7
87802770:	bf34      	ite	cc
87802772:	2700      	movcc	r7, #0
87802774:	2701      	movcs	r7, #1
87802776:	f8d4 802c 	ldr.w	r8, [r4, #44]	; 0x2c
8780277a:	6566      	str	r6, [r4, #84]	; 0x54
8780277c:	6962      	ldr	r2, [r4, #20]
8780277e:	4543      	cmp	r3, r8
87802780:	69a3      	ldr	r3, [r4, #24]
87802782:	bf08      	it	eq
87802784:	62e6      	streq	r6, [r4, #44]	; 0x2c
87802786:	2b00      	cmp	r3, #0
87802788:	eb08 0388 	add.w	r3, r8, r8, lsl #2
8780278c:	bfa4      	itt	ge
8780278e:	f1c6 0605 	rsbge	r6, r6, #5
87802792:	61a6      	strge	r6, [r4, #24]
87802794:	4e18      	ldr	r6, [pc, #96]	; (878027f8 <vTaskPrioritySet+0xc0>)
87802796:	eb06 0383 	add.w	r3, r6, r3, lsl #2
8780279a:	429a      	cmp	r2, r3
8780279c:	d011      	beq.n	878027c2 <vTaskPrioritySet+0x8a>
8780279e:	b107      	cbz	r7, 878027a2 <vTaskPrioritySet+0x6a>
878027a0:	df00      	svc	0
878027a2:	e8bd 43f8 	ldmia.w	sp!, {r3, r4, r5, r6, r7, r8, r9, lr}
878027a6:	f001 bba5 	b.w	87803ef4 <vPortExitCritical>
878027aa:	f240 1308 	movw	r3, #264	; 0x108
878027ae:	f6c8 0300 	movt	r3, #34816	; 0x8800
878027b2:	685c      	ldr	r4, [r3, #4]
878027b4:	e7cc      	b.n	87802750 <vTaskPrioritySet+0x18>
878027b6:	686f      	ldr	r7, [r5, #4]
878027b8:	1be7      	subs	r7, r4, r7
878027ba:	fab7 f787 	clz	r7, r7
878027be:	097f      	lsrs	r7, r7, #5
878027c0:	e7d9      	b.n	87802776 <vTaskPrioritySet+0x3e>
878027c2:	f104 0904 	add.w	r9, r4, #4
878027c6:	4648      	mov	r0, r9
878027c8:	f7ff fc4c 	bl	87802064 <uxListRemove>
878027cc:	b930      	cbnz	r0, 878027dc <vTaskPrioritySet+0xa4>
878027ce:	68ab      	ldr	r3, [r5, #8]
878027d0:	2201      	movs	r2, #1
878027d2:	fa02 f808 	lsl.w	r8, r2, r8
878027d6:	ea23 0308 	bic.w	r3, r3, r8
878027da:	60ab      	str	r3, [r5, #8]
878027dc:	6ae0      	ldr	r0, [r4, #44]	; 0x2c
878027de:	2301      	movs	r3, #1
878027e0:	68aa      	ldr	r2, [r5, #8]
878027e2:	4649      	mov	r1, r9
878027e4:	4083      	lsls	r3, r0
878027e6:	eb00 0080 	add.w	r0, r0, r0, lsl #2
878027ea:	4313      	orrs	r3, r2
878027ec:	eb06 0080 	add.w	r0, r6, r0, lsl #2
878027f0:	60ab      	str	r3, [r5, #8]
878027f2:	f7ff fc0d 	bl	87802010 <vListInsertEnd>
878027f6:	e7d2      	b.n	8780279e <vTaskPrioritySet+0x66>
878027f8:	8800014c 	stmdahi	r0, {r2, r3, r6, r8}

878027fc <vTaskResume>:
878027fc:	b5f8      	push	{r3, r4, r5, r6, r7, lr}
878027fe:	b378      	cbz	r0, 87802860 <vTaskResume+0x64>
87802800:	f240 1408 	movw	r4, #264	; 0x108
87802804:	4605      	mov	r5, r0
87802806:	f6c8 0400 	movt	r4, #34816	; 0x8800
8780280a:	6863      	ldr	r3, [r4, #4]
8780280c:	4298      	cmp	r0, r3
8780280e:	d009      	beq.n	87802824 <vTaskResume+0x28>
87802810:	f001 fb2e 	bl	87803e70 <vPortEnterCritical>
87802814:	4628      	mov	r0, r5
87802816:	f7ff fde9 	bl	878023ec <prvTaskIsTaskSuspended>
8780281a:	b920      	cbnz	r0, 87802826 <vTaskResume+0x2a>
8780281c:	e8bd 40f8 	ldmia.w	sp!, {r3, r4, r5, r6, r7, lr}
87802820:	f001 bb68 	b.w	87803ef4 <vPortExitCritical>
87802824:	bdf8      	pop	{r3, r4, r5, r6, r7, pc}
87802826:	1d2e      	adds	r6, r5, #4
87802828:	4630      	mov	r0, r6
8780282a:	f7ff fc1b 	bl	87802064 <uxListRemove>
8780282e:	6aea      	ldr	r2, [r5, #44]	; 0x2c
87802830:	2301      	movs	r3, #1
87802832:	68a7      	ldr	r7, [r4, #8]
87802834:	f104 0044 	add.w	r0, r4, #68	; 0x44
87802838:	4631      	mov	r1, r6
8780283a:	4093      	lsls	r3, r2
8780283c:	eb02 0282 	add.w	r2, r2, r2, lsl #2
87802840:	433b      	orrs	r3, r7
87802842:	eb00 0082 	add.w	r0, r0, r2, lsl #2
87802846:	60a3      	str	r3, [r4, #8]
87802848:	f7ff fbe2 	bl	87802010 <vListInsertEnd>
8780284c:	6863      	ldr	r3, [r4, #4]
8780284e:	6aea      	ldr	r2, [r5, #44]	; 0x2c
87802850:	6adb      	ldr	r3, [r3, #44]	; 0x2c
87802852:	429a      	cmp	r2, r3
87802854:	d3e2      	bcc.n	8780281c <vTaskResume+0x20>
87802856:	df00      	svc	0
87802858:	e8bd 40f8 	ldmia.w	sp!, {r3, r4, r5, r6, r7, lr}
8780285c:	f001 bb4a 	b.w	87803ef4 <vPortExitCritical>
87802860:	f001 fb88 	bl	87803f74 <ulPortSetInterruptMask>
87802864:	e7fe      	b.n	87802864 <vTaskResume+0x68>
87802866:	bf00      	nop

87802868 <xTaskResumeFromISR>:
87802868:	e92d 41f0 	stmdb	sp!, {r4, r5, r6, r7, r8, lr}
8780286c:	2800      	cmp	r0, #0
8780286e:	d03f      	beq.n	878028f0 <xTaskResumeFromISR+0x88>
87802870:	4605      	mov	r5, r0
87802872:	f001 fb9b 	bl	87803fac <vPortValidateInterruptPriority>
87802876:	f001 fb7d 	bl	87803f74 <ulPortSetInterruptMask>
8780287a:	4606      	mov	r6, r0
8780287c:	4628      	mov	r0, r5
8780287e:	f7ff fdb5 	bl	878023ec <prvTaskIsTaskSuspended>
87802882:	4604      	mov	r4, r0
87802884:	b308      	cbz	r0, 878028ca <xTaskResumeFromISR+0x62>
87802886:	f240 1708 	movw	r7, #264	; 0x108
8780288a:	f6c8 0700 	movt	r7, #34816	; 0x8800
8780288e:	f8d7 30f0 	ldr.w	r3, [r7, #240]	; 0xf0
87802892:	bb03      	cbnz	r3, 878028d6 <xTaskResumeFromISR+0x6e>
87802894:	687b      	ldr	r3, [r7, #4]
87802896:	f105 0804 	add.w	r8, r5, #4
8780289a:	6aec      	ldr	r4, [r5, #44]	; 0x2c
8780289c:	4640      	mov	r0, r8
8780289e:	6adb      	ldr	r3, [r3, #44]	; 0x2c
878028a0:	429c      	cmp	r4, r3
878028a2:	bf34      	ite	cc
878028a4:	2400      	movcc	r4, #0
878028a6:	2401      	movcs	r4, #1
878028a8:	f7ff fbdc 	bl	87802064 <uxListRemove>
878028ac:	6aea      	ldr	r2, [r5, #44]	; 0x2c
878028ae:	2301      	movs	r3, #1
878028b0:	68bd      	ldr	r5, [r7, #8]
878028b2:	f107 0044 	add.w	r0, r7, #68	; 0x44
878028b6:	4641      	mov	r1, r8
878028b8:	4093      	lsls	r3, r2
878028ba:	eb02 0282 	add.w	r2, r2, r2, lsl #2
878028be:	432b      	orrs	r3, r5
878028c0:	eb00 0082 	add.w	r0, r0, r2, lsl #2
878028c4:	60bb      	str	r3, [r7, #8]
878028c6:	f7ff fba3 	bl	87802010 <vListInsertEnd>
878028ca:	4630      	mov	r0, r6
878028cc:	f001 fb3c 	bl	87803f48 <vPortClearInterruptMask>
878028d0:	4620      	mov	r0, r4
878028d2:	e8bd 81f0 	ldmia.w	sp!, {r4, r5, r6, r7, r8, pc}
878028d6:	f105 0118 	add.w	r1, r5, #24
878028da:	f107 002c 	add.w	r0, r7, #44	; 0x2c
878028de:	f7ff fb97 	bl	87802010 <vListInsertEnd>
878028e2:	2400      	movs	r4, #0
878028e4:	4630      	mov	r0, r6
878028e6:	f001 fb2f 	bl	87803f48 <vPortClearInterruptMask>
878028ea:	4620      	mov	r0, r4
878028ec:	e8bd 81f0 	ldmia.w	sp!, {r4, r5, r6, r7, r8, pc}
878028f0:	f001 fb40 	bl	87803f74 <ulPortSetInterruptMask>
878028f4:	e7fe      	b.n	878028f4 <xTaskResumeFromISR+0x8c>
878028f6:	bf00      	nop

878028f8 <vTaskStartScheduler>:
878028f8:	b570      	push	{r4, r5, r6, lr}
878028fa:	f240 1408 	movw	r4, #264	; 0x108
878028fe:	f6c8 0400 	movt	r4, #34816	; 0x8800
87802902:	b082      	sub	sp, #8
87802904:	2600      	movs	r6, #0
87802906:	f104 03f4 	add.w	r3, r4, #244	; 0xf4
8780290a:	f646 119c 	movw	r1, #27036	; 0x699c
8780290e:	f642 4055 	movw	r0, #11349	; 0x2c55
87802912:	9301      	str	r3, [sp, #4]
87802914:	f2c8 7180 	movt	r1, #34688	; 0x8780
87802918:	4633      	mov	r3, r6
8780291a:	9600      	str	r6, [sp, #0]
8780291c:	f2c8 7080 	movt	r0, #34688	; 0x8780
87802920:	225a      	movs	r2, #90	; 0x5a
87802922:	f7ff fd79 	bl	87802418 <xTaskCreate>
87802926:	2801      	cmp	r0, #1
87802928:	bf18      	it	ne
8780292a:	4605      	movne	r5, r0
8780292c:	d003      	beq.n	87802936 <vTaskStartScheduler+0x3e>
8780292e:	3501      	adds	r5, #1
87802930:	d013      	beq.n	8780295a <vTaskStartScheduler+0x62>
87802932:	b002      	add	sp, #8
87802934:	bd70      	pop	{r4, r5, r6, pc}
87802936:	f000 ff2d 	bl	87803794 <xTimerCreateTimerTask>
8780293a:	2801      	cmp	r0, #1
8780293c:	4605      	mov	r5, r0
8780293e:	d1f6      	bne.n	8780292e <vTaskStartScheduler+0x36>
87802940:	f001 fb18 	bl	87803f74 <ulPortSetInterruptMask>
87802944:	f04f 33ff 	mov.w	r3, #4294967295	; 0xffffffff
87802948:	62a3      	str	r3, [r4, #40]	; 0x28
8780294a:	f8c4 50e4 	str.w	r5, [r4, #228]	; 0xe4
8780294e:	6026      	str	r6, [r4, #0]
87802950:	b002      	add	sp, #8
87802952:	e8bd 4070 	ldmia.w	sp!, {r4, r5, r6, lr}
87802956:	f001 b9d1 	b.w	87803cfc <xPortStartScheduler>
8780295a:	f001 fb0b 	bl	87803f74 <ulPortSetInterruptMask>
8780295e:	e7fe      	b.n	8780295e <vTaskStartScheduler+0x66>

87802960 <vTaskEndScheduler>:
87802960:	b508      	push	{r3, lr}
87802962:	f001 fb07 	bl	87803f74 <ulPortSetInterruptMask>
87802966:	f240 1308 	movw	r3, #264	; 0x108
8780296a:	2200      	movs	r2, #0
8780296c:	f6c8 0300 	movt	r3, #34816	; 0x8800
87802970:	f8c3 20e4 	str.w	r2, [r3, #228]	; 0xe4
87802974:	e8bd 4008 	ldmia.w	sp!, {r3, lr}
87802978:	f001 ba58 	b.w	87803e2c <vPortEndScheduler>

8780297c <vTaskSuspendAll>:
8780297c:	f240 1308 	movw	r3, #264	; 0x108
87802980:	f6c8 0300 	movt	r3, #34816	; 0x8800
87802984:	f8d3 20f0 	ldr.w	r2, [r3, #240]	; 0xf0
87802988:	3201      	adds	r2, #1
8780298a:	f8c3 20f0 	str.w	r2, [r3, #240]	; 0xf0
8780298e:	4770      	bx	lr

87802990 <xTaskGetTickCount>:
87802990:	f240 1308 	movw	r3, #264	; 0x108
87802994:	f6c8 0300 	movt	r3, #34816	; 0x8800
87802998:	6818      	ldr	r0, [r3, #0]
8780299a:	4770      	bx	lr

8780299c <xTaskGetTickCountFromISR>:
8780299c:	b508      	push	{r3, lr}
8780299e:	f001 fb05 	bl	87803fac <vPortValidateInterruptPriority>
878029a2:	f240 1308 	movw	r3, #264	; 0x108
878029a6:	f6c8 0300 	movt	r3, #34816	; 0x8800
878029aa:	6818      	ldr	r0, [r3, #0]
878029ac:	bd08      	pop	{r3, pc}
878029ae:	bf00      	nop

878029b0 <uxTaskGetNumberOfTasks>:
878029b0:	f240 1308 	movw	r3, #264	; 0x108
878029b4:	f6c8 0300 	movt	r3, #34816	; 0x8800
878029b8:	6c18      	ldr	r0, [r3, #64]	; 0x40
878029ba:	4770      	bx	lr

878029bc <pcTaskGetName>:
878029bc:	b108      	cbz	r0, 878029c2 <pcTaskGetName+0x6>
878029be:	3034      	adds	r0, #52	; 0x34
878029c0:	4770      	bx	lr
878029c2:	b508      	push	{r3, lr}
878029c4:	f240 1308 	movw	r3, #264	; 0x108
878029c8:	f6c8 0300 	movt	r3, #34816	; 0x8800
878029cc:	6858      	ldr	r0, [r3, #4]
878029ce:	b910      	cbnz	r0, 878029d6 <pcTaskGetName+0x1a>
878029d0:	f001 fad0 	bl	87803f74 <ulPortSetInterruptMask>
878029d4:	e7fe      	b.n	878029d4 <pcTaskGetName+0x18>
878029d6:	3034      	adds	r0, #52	; 0x34
878029d8:	bd08      	pop	{r3, pc}
878029da:	bf00      	nop

878029dc <xTaskIncrementTick>:
878029dc:	e92d 47f0 	stmdb	sp!, {r4, r5, r6, r7, r8, r9, sl, lr}
878029e0:	f240 1408 	movw	r4, #264	; 0x108
878029e4:	f6c8 0400 	movt	r4, #34816	; 0x8800
878029e8:	f8d4 30f0 	ldr.w	r3, [r4, #240]	; 0xf0
878029ec:	2b00      	cmp	r3, #0
878029ee:	d145      	bne.n	87802a7c <xTaskIncrementTick+0xa0>
878029f0:	6827      	ldr	r7, [r4, #0]
878029f2:	3701      	adds	r7, #1
878029f4:	6027      	str	r7, [r4, #0]
878029f6:	2f00      	cmp	r7, #0
878029f8:	d04e      	beq.n	87802a98 <xTaskIncrementTick+0xbc>
878029fa:	6aa3      	ldr	r3, [r4, #40]	; 0x28
878029fc:	429f      	cmp	r7, r3
878029fe:	bf38      	it	cc
87802a00:	2600      	movcc	r6, #0
87802a02:	d330      	bcc.n	87802a66 <xTaskIncrementTick+0x8a>
87802a04:	f8df 90c8 	ldr.w	r9, [pc, #200]	; 87802ad0 <xTaskIncrementTick+0xf4>
87802a08:	2600      	movs	r6, #0
87802a0a:	f04f 0801 	mov.w	r8, #1
87802a0e:	e023      	b.n	87802a58 <xTaskIncrementTick+0x7c>
87802a10:	6a63      	ldr	r3, [r4, #36]	; 0x24
87802a12:	68db      	ldr	r3, [r3, #12]
87802a14:	68dd      	ldr	r5, [r3, #12]
87802a16:	686b      	ldr	r3, [r5, #4]
87802a18:	f105 0a04 	add.w	sl, r5, #4
87802a1c:	4650      	mov	r0, sl
87802a1e:	429f      	cmp	r7, r3
87802a20:	d353      	bcc.n	87802aca <xTaskIncrementTick+0xee>
87802a22:	f7ff fb1f 	bl	87802064 <uxListRemove>
87802a26:	6aab      	ldr	r3, [r5, #40]	; 0x28
87802a28:	f105 0018 	add.w	r0, r5, #24
87802a2c:	b10b      	cbz	r3, 87802a32 <xTaskIncrementTick+0x56>
87802a2e:	f7ff fb19 	bl	87802064 <uxListRemove>
87802a32:	6ae8      	ldr	r0, [r5, #44]	; 0x2c
87802a34:	4651      	mov	r1, sl
87802a36:	68a2      	ldr	r2, [r4, #8]
87802a38:	fa08 f300 	lsl.w	r3, r8, r0
87802a3c:	eb00 0080 	add.w	r0, r0, r0, lsl #2
87802a40:	4313      	orrs	r3, r2
87802a42:	eb09 0080 	add.w	r0, r9, r0, lsl #2
87802a46:	60a3      	str	r3, [r4, #8]
87802a48:	f7ff fae2 	bl	87802010 <vListInsertEnd>
87802a4c:	6863      	ldr	r3, [r4, #4]
87802a4e:	6aea      	ldr	r2, [r5, #44]	; 0x2c
87802a50:	6adb      	ldr	r3, [r3, #44]	; 0x2c
87802a52:	429a      	cmp	r2, r3
87802a54:	bf28      	it	cs
87802a56:	2601      	movcs	r6, #1
87802a58:	6a63      	ldr	r3, [r4, #36]	; 0x24
87802a5a:	681b      	ldr	r3, [r3, #0]
87802a5c:	2b00      	cmp	r3, #0
87802a5e:	d1d7      	bne.n	87802a10 <xTaskIncrementTick+0x34>
87802a60:	f04f 33ff 	mov.w	r3, #4294967295	; 0xffffffff
87802a64:	62a3      	str	r3, [r4, #40]	; 0x28
87802a66:	6863      	ldr	r3, [r4, #4]
87802a68:	6adb      	ldr	r3, [r3, #44]	; 0x2c
87802a6a:	eb03 0383 	add.w	r3, r3, r3, lsl #2
87802a6e:	eb04 0383 	add.w	r3, r4, r3, lsl #2
87802a72:	6c5b      	ldr	r3, [r3, #68]	; 0x44
87802a74:	2b02      	cmp	r3, #2
87802a76:	bf28      	it	cs
87802a78:	2601      	movcs	r6, #1
87802a7a:	e005      	b.n	87802a88 <xTaskIncrementTick+0xac>
87802a7c:	f8d4 30fc 	ldr.w	r3, [r4, #252]	; 0xfc
87802a80:	2600      	movs	r6, #0
87802a82:	3301      	adds	r3, #1
87802a84:	f8c4 30fc 	str.w	r3, [r4, #252]	; 0xfc
87802a88:	f8d4 3100 	ldr.w	r3, [r4, #256]	; 0x100
87802a8c:	2b00      	cmp	r3, #0
87802a8e:	bf18      	it	ne
87802a90:	2601      	movne	r6, #1
87802a92:	4630      	mov	r0, r6
87802a94:	e8bd 87f0 	ldmia.w	sp!, {r4, r5, r6, r7, r8, r9, sl, pc}
87802a98:	6a63      	ldr	r3, [r4, #36]	; 0x24
87802a9a:	681b      	ldr	r3, [r3, #0]
87802a9c:	b993      	cbnz	r3, 87802ac4 <xTaskIncrementTick+0xe8>
87802a9e:	6a63      	ldr	r3, [r4, #36]	; 0x24
87802aa0:	6a22      	ldr	r2, [r4, #32]
87802aa2:	6262      	str	r2, [r4, #36]	; 0x24
87802aa4:	6223      	str	r3, [r4, #32]
87802aa6:	f8d4 30f8 	ldr.w	r3, [r4, #248]	; 0xf8
87802aaa:	3301      	adds	r3, #1
87802aac:	f8c4 30f8 	str.w	r3, [r4, #248]	; 0xf8
87802ab0:	6a63      	ldr	r3, [r4, #36]	; 0x24
87802ab2:	681b      	ldr	r3, [r3, #0]
87802ab4:	b91b      	cbnz	r3, 87802abe <xTaskIncrementTick+0xe2>
87802ab6:	f04f 33ff 	mov.w	r3, #4294967295	; 0xffffffff
87802aba:	62a3      	str	r3, [r4, #40]	; 0x28
87802abc:	e79d      	b.n	878029fa <xTaskIncrementTick+0x1e>
87802abe:	f7ff fc8b 	bl	878023d8 <prvResetNextTaskUnblockTime.part.0>
87802ac2:	e79a      	b.n	878029fa <xTaskIncrementTick+0x1e>
87802ac4:	f001 fa56 	bl	87803f74 <ulPortSetInterruptMask>
87802ac8:	e7fe      	b.n	87802ac8 <xTaskIncrementTick+0xec>
87802aca:	62a3      	str	r3, [r4, #40]	; 0x28
87802acc:	e7cb      	b.n	87802a66 <xTaskIncrementTick+0x8a>
87802ace:	bf00      	nop
87802ad0:	8800014c 	stmdahi	r0, {r2, r3, r6, r8}

87802ad4 <xTaskResumeAll>:
87802ad4:	e92d 41f0 	stmdb	sp!, {r4, r5, r6, r7, r8, lr}
87802ad8:	f240 1408 	movw	r4, #264	; 0x108
87802adc:	f6c8 0400 	movt	r4, #34816	; 0x8800
87802ae0:	f8d4 30f0 	ldr.w	r3, [r4, #240]	; 0xf0
87802ae4:	b913      	cbnz	r3, 87802aec <xTaskResumeAll+0x18>
87802ae6:	f001 fa45 	bl	87803f74 <ulPortSetInterruptMask>
87802aea:	e7fe      	b.n	87802aea <xTaskResumeAll+0x16>
87802aec:	f001 f9c0 	bl	87803e70 <vPortEnterCritical>
87802af0:	f8d4 30f0 	ldr.w	r3, [r4, #240]	; 0xf0
87802af4:	3b01      	subs	r3, #1
87802af6:	f8c4 30f0 	str.w	r3, [r4, #240]	; 0xf0
87802afa:	f8d4 50f0 	ldr.w	r5, [r4, #240]	; 0xf0
87802afe:	2d00      	cmp	r5, #0
87802b00:	d145      	bne.n	87802b8e <xTaskResumeAll+0xba>
87802b02:	6c23      	ldr	r3, [r4, #64]	; 0x40
87802b04:	2601      	movs	r6, #1
87802b06:	f104 0744 	add.w	r7, r4, #68	; 0x44
87802b0a:	b9fb      	cbnz	r3, 87802b4c <xTaskResumeAll+0x78>
87802b0c:	e03f      	b.n	87802b8e <xTaskResumeAll+0xba>
87802b0e:	6ba3      	ldr	r3, [r4, #56]	; 0x38
87802b10:	68dd      	ldr	r5, [r3, #12]
87802b12:	f105 0804 	add.w	r8, r5, #4
87802b16:	f105 0018 	add.w	r0, r5, #24
87802b1a:	f7ff faa3 	bl	87802064 <uxListRemove>
87802b1e:	4640      	mov	r0, r8
87802b20:	f7ff faa0 	bl	87802064 <uxListRemove>
87802b24:	6ae8      	ldr	r0, [r5, #44]	; 0x2c
87802b26:	4641      	mov	r1, r8
87802b28:	68a2      	ldr	r2, [r4, #8]
87802b2a:	fa06 f300 	lsl.w	r3, r6, r0
87802b2e:	eb00 0080 	add.w	r0, r0, r0, lsl #2
87802b32:	4313      	orrs	r3, r2
87802b34:	eb07 0080 	add.w	r0, r7, r0, lsl #2
87802b38:	60a3      	str	r3, [r4, #8]
87802b3a:	f7ff fa69 	bl	87802010 <vListInsertEnd>
87802b3e:	6863      	ldr	r3, [r4, #4]
87802b40:	6aea      	ldr	r2, [r5, #44]	; 0x2c
87802b42:	6adb      	ldr	r3, [r3, #44]	; 0x2c
87802b44:	429a      	cmp	r2, r3
87802b46:	bf28      	it	cs
87802b48:	f8c4 6100 	strcs.w	r6, [r4, #256]	; 0x100
87802b4c:	6ae3      	ldr	r3, [r4, #44]	; 0x2c
87802b4e:	2b00      	cmp	r3, #0
87802b50:	d1dd      	bne.n	87802b0e <xTaskResumeAll+0x3a>
87802b52:	b12d      	cbz	r5, 87802b60 <xTaskResumeAll+0x8c>
87802b54:	6a63      	ldr	r3, [r4, #36]	; 0x24
87802b56:	681b      	ldr	r3, [r3, #0]
87802b58:	b9fb      	cbnz	r3, 87802b9a <xTaskResumeAll+0xc6>
87802b5a:	f04f 33ff 	mov.w	r3, #4294967295	; 0xffffffff
87802b5e:	62a3      	str	r3, [r4, #40]	; 0x28
87802b60:	f8d4 50fc 	ldr.w	r5, [r4, #252]	; 0xfc
87802b64:	b14d      	cbz	r5, 87802b7a <xTaskResumeAll+0xa6>
87802b66:	2601      	movs	r6, #1
87802b68:	f7ff ff38 	bl	878029dc <xTaskIncrementTick>
87802b6c:	b108      	cbz	r0, 87802b72 <xTaskResumeAll+0x9e>
87802b6e:	f8c4 6100 	str.w	r6, [r4, #256]	; 0x100
87802b72:	3d01      	subs	r5, #1
87802b74:	d1f8      	bne.n	87802b68 <xTaskResumeAll+0x94>
87802b76:	f8c4 50fc 	str.w	r5, [r4, #252]	; 0xfc
87802b7a:	f8d4 3100 	ldr.w	r3, [r4, #256]	; 0x100
87802b7e:	b133      	cbz	r3, 87802b8e <xTaskResumeAll+0xba>
87802b80:	df00      	svc	0
87802b82:	2401      	movs	r4, #1
87802b84:	f001 f9b6 	bl	87803ef4 <vPortExitCritical>
87802b88:	4620      	mov	r0, r4
87802b8a:	e8bd 81f0 	ldmia.w	sp!, {r4, r5, r6, r7, r8, pc}
87802b8e:	2400      	movs	r4, #0
87802b90:	f001 f9b0 	bl	87803ef4 <vPortExitCritical>
87802b94:	4620      	mov	r0, r4
87802b96:	e8bd 81f0 	ldmia.w	sp!, {r4, r5, r6, r7, r8, pc}
87802b9a:	f7ff fc1d 	bl	878023d8 <prvResetNextTaskUnblockTime.part.0>
87802b9e:	e7df      	b.n	87802b60 <xTaskResumeAll+0x8c>

87802ba0 <vTaskDelayUntil>:
87802ba0:	b510      	push	{r4, lr}
87802ba2:	2800      	cmp	r0, #0
87802ba4:	d037      	beq.n	87802c16 <vTaskDelayUntil+0x76>
87802ba6:	2900      	cmp	r1, #0
87802ba8:	d032      	beq.n	87802c10 <vTaskDelayUntil+0x70>
87802baa:	f240 1208 	movw	r2, #264	; 0x108
87802bae:	f6c8 0200 	movt	r2, #34816	; 0x8800
87802bb2:	f8d2 30f0 	ldr.w	r3, [r2, #240]	; 0xf0
87802bb6:	b9db      	cbnz	r3, 87802bf0 <vTaskDelayUntil+0x50>
87802bb8:	f8d2 30f0 	ldr.w	r3, [r2, #240]	; 0xf0
87802bbc:	6804      	ldr	r4, [r0, #0]
87802bbe:	3301      	adds	r3, #1
87802bc0:	f8c2 30f0 	str.w	r3, [r2, #240]	; 0xf0
87802bc4:	190b      	adds	r3, r1, r4
87802bc6:	6811      	ldr	r1, [r2, #0]
87802bc8:	bf2c      	ite	cs
87802bca:	2201      	movcs	r2, #1
87802bcc:	2200      	movcc	r2, #0
87802bce:	42a1      	cmp	r1, r4
87802bd0:	d311      	bcc.n	87802bf6 <vTaskDelayUntil+0x56>
87802bd2:	4299      	cmp	r1, r3
87802bd4:	bf38      	it	cc
87802bd6:	f042 0201 	orrcc.w	r2, r2, #1
87802bda:	b19a      	cbz	r2, 87802c04 <vTaskDelayUntil+0x64>
87802bdc:	6003      	str	r3, [r0, #0]
87802bde:	1a58      	subs	r0, r3, r1
87802be0:	2100      	movs	r1, #0
87802be2:	f7ff fbbb 	bl	8780235c <prvAddCurrentTaskToDelayedList>
87802be6:	f7ff ff75 	bl	87802ad4 <xTaskResumeAll>
87802bea:	b980      	cbnz	r0, 87802c0e <vTaskDelayUntil+0x6e>
87802bec:	df00      	svc	0
87802bee:	bd10      	pop	{r4, pc}
87802bf0:	f001 f9c0 	bl	87803f74 <ulPortSetInterruptMask>
87802bf4:	e7fe      	b.n	87802bf4 <vTaskDelayUntil+0x54>
87802bf6:	4299      	cmp	r1, r3
87802bf8:	bf2c      	ite	cs
87802bfa:	2200      	movcs	r2, #0
87802bfc:	f002 0201 	andcc.w	r2, r2, #1
87802c00:	2a00      	cmp	r2, #0
87802c02:	d1eb      	bne.n	87802bdc <vTaskDelayUntil+0x3c>
87802c04:	6003      	str	r3, [r0, #0]
87802c06:	f7ff ff65 	bl	87802ad4 <xTaskResumeAll>
87802c0a:	2800      	cmp	r0, #0
87802c0c:	d0ee      	beq.n	87802bec <vTaskDelayUntil+0x4c>
87802c0e:	bd10      	pop	{r4, pc}
87802c10:	f001 f9b0 	bl	87803f74 <ulPortSetInterruptMask>
87802c14:	e7fe      	b.n	87802c14 <vTaskDelayUntil+0x74>
87802c16:	f001 f9ad 	bl	87803f74 <ulPortSetInterruptMask>
87802c1a:	e7fe      	b.n	87802c1a <vTaskDelayUntil+0x7a>

87802c1c <vTaskDelay>:
87802c1c:	b908      	cbnz	r0, 87802c22 <vTaskDelay+0x6>
87802c1e:	df00      	svc	0
87802c20:	4770      	bx	lr
87802c22:	b508      	push	{r3, lr}
87802c24:	f240 1308 	movw	r3, #264	; 0x108
87802c28:	f6c8 0300 	movt	r3, #34816	; 0x8800
87802c2c:	f8d3 10f0 	ldr.w	r1, [r3, #240]	; 0xf0
87802c30:	b951      	cbnz	r1, 87802c48 <vTaskDelay+0x2c>
87802c32:	f8d3 20f0 	ldr.w	r2, [r3, #240]	; 0xf0
87802c36:	3201      	adds	r2, #1
87802c38:	f8c3 20f0 	str.w	r2, [r3, #240]	; 0xf0
87802c3c:	f7ff fb8e 	bl	8780235c <prvAddCurrentTaskToDelayedList>
87802c40:	f7ff ff48 	bl	87802ad4 <xTaskResumeAll>
87802c44:	b118      	cbz	r0, 87802c4e <vTaskDelay+0x32>
87802c46:	bd08      	pop	{r3, pc}
87802c48:	f001 f994 	bl	87803f74 <ulPortSetInterruptMask>
87802c4c:	e7fe      	b.n	87802c4c <vTaskDelay+0x30>
87802c4e:	df00      	svc	0
87802c50:	bd08      	pop	{r3, pc}
87802c52:	bf00      	nop

87802c54 <prvIdleTask>:
87802c54:	f240 1408 	movw	r4, #264	; 0x108
87802c58:	b508      	push	{r3, lr}
87802c5a:	f6c8 0400 	movt	r4, #34816	; 0x8800
87802c5e:	e009      	b.n	87802c74 <prvIdleTask+0x20>
87802c60:	f8d4 30f0 	ldr.w	r3, [r4, #240]	; 0xf0
87802c64:	f8d4 50d0 	ldr.w	r5, [r4, #208]	; 0xd0
87802c68:	3301      	adds	r3, #1
87802c6a:	f8c4 30f0 	str.w	r3, [r4, #240]	; 0xf0
87802c6e:	f7ff ff31 	bl	87802ad4 <xTaskResumeAll>
87802c72:	b945      	cbnz	r5, 87802c86 <prvIdleTask+0x32>
87802c74:	f8d4 30ec 	ldr.w	r3, [r4, #236]	; 0xec
87802c78:	2b00      	cmp	r3, #0
87802c7a:	d1f1      	bne.n	87802c60 <prvIdleTask+0xc>
87802c7c:	6c63      	ldr	r3, [r4, #68]	; 0x44
87802c7e:	2b01      	cmp	r3, #1
87802c80:	d9f8      	bls.n	87802c74 <prvIdleTask+0x20>
87802c82:	df00      	svc	0
87802c84:	e7f6      	b.n	87802c74 <prvIdleTask+0x20>
87802c86:	f001 f8f3 	bl	87803e70 <vPortEnterCritical>
87802c8a:	f8d4 30dc 	ldr.w	r3, [r4, #220]	; 0xdc
87802c8e:	68dd      	ldr	r5, [r3, #12]
87802c90:	1d28      	adds	r0, r5, #4
87802c92:	f7ff f9e7 	bl	87802064 <uxListRemove>
87802c96:	6c23      	ldr	r3, [r4, #64]	; 0x40
87802c98:	3b01      	subs	r3, #1
87802c9a:	6423      	str	r3, [r4, #64]	; 0x40
87802c9c:	f8d4 30ec 	ldr.w	r3, [r4, #236]	; 0xec
87802ca0:	3b01      	subs	r3, #1
87802ca2:	f8c4 30ec 	str.w	r3, [r4, #236]	; 0xec
87802ca6:	f001 f925 	bl	87803ef4 <vPortExitCritical>
87802caa:	6b28      	ldr	r0, [r5, #48]	; 0x30
87802cac:	f001 fa90 	bl	878041d0 <vPortFree>
87802cb0:	4628      	mov	r0, r5
87802cb2:	f001 fa8d 	bl	878041d0 <vPortFree>
87802cb6:	e7dd      	b.n	87802c74 <prvIdleTask+0x20>

87802cb8 <vTaskSwitchContext>:
87802cb8:	f240 1208 	movw	r2, #264	; 0x108
87802cbc:	b508      	push	{r3, lr}
87802cbe:	f6c8 0200 	movt	r2, #34816	; 0x8800
87802cc2:	f8d2 30f0 	ldr.w	r3, [r2, #240]	; 0xf0
87802cc6:	b9e3      	cbnz	r3, 87802d02 <vTaskSwitchContext+0x4a>
87802cc8:	f8c2 3100 	str.w	r3, [r2, #256]	; 0x100
87802ccc:	6893      	ldr	r3, [r2, #8]
87802cce:	fab3 f383 	clz	r3, r3
87802cd2:	f1c3 031f 	rsb	r3, r3, #31
87802cd6:	eb03 0383 	add.w	r3, r3, r3, lsl #2
87802cda:	009b      	lsls	r3, r3, #2
87802cdc:	18d0      	adds	r0, r2, r3
87802cde:	6c41      	ldr	r1, [r0, #68]	; 0x44
87802ce0:	b161      	cbz	r1, 87802cfc <vTaskSwitchContext+0x44>
87802ce2:	6c81      	ldr	r1, [r0, #72]	; 0x48
87802ce4:	4413      	add	r3, r2
87802ce6:	334c      	adds	r3, #76	; 0x4c
87802ce8:	6849      	ldr	r1, [r1, #4]
87802cea:	4299      	cmp	r1, r3
87802cec:	6481      	str	r1, [r0, #72]	; 0x48
87802cee:	bf08      	it	eq
87802cf0:	6849      	ldreq	r1, [r1, #4]
87802cf2:	68cb      	ldr	r3, [r1, #12]
87802cf4:	bf08      	it	eq
87802cf6:	6481      	streq	r1, [r0, #72]	; 0x48
87802cf8:	6053      	str	r3, [r2, #4]
87802cfa:	bd08      	pop	{r3, pc}
87802cfc:	f001 f93a 	bl	87803f74 <ulPortSetInterruptMask>
87802d00:	e7fe      	b.n	87802d00 <vTaskSwitchContext+0x48>
87802d02:	2301      	movs	r3, #1
87802d04:	f8c2 3100 	str.w	r3, [r2, #256]	; 0x100
87802d08:	bd08      	pop	{r3, pc}
87802d0a:	bf00      	nop

87802d0c <vTaskSuspend>:
87802d0c:	b570      	push	{r4, r5, r6, lr}
87802d0e:	4605      	mov	r5, r0
87802d10:	f240 1408 	movw	r4, #264	; 0x108
87802d14:	f6c8 0400 	movt	r4, #34816	; 0x8800
87802d18:	f001 f8aa 	bl	87803e70 <vPortEnterCritical>
87802d1c:	2d00      	cmp	r5, #0
87802d1e:	d03d      	beq.n	87802d9c <vTaskSuspend+0x90>
87802d20:	1d2e      	adds	r6, r5, #4
87802d22:	4630      	mov	r0, r6
87802d24:	f7ff f99e 	bl	87802064 <uxListRemove>
87802d28:	b930      	cbnz	r0, 87802d38 <vTaskSuspend+0x2c>
87802d2a:	6ae9      	ldr	r1, [r5, #44]	; 0x2c
87802d2c:	eb01 0381 	add.w	r3, r1, r1, lsl #2
87802d30:	eb04 0383 	add.w	r3, r4, r3, lsl #2
87802d34:	6c5b      	ldr	r3, [r3, #68]	; 0x44
87802d36:	b193      	cbz	r3, 87802d5e <vTaskSuspend+0x52>
87802d38:	6aab      	ldr	r3, [r5, #40]	; 0x28
87802d3a:	b11b      	cbz	r3, 87802d44 <vTaskSuspend+0x38>
87802d3c:	f105 0018 	add.w	r0, r5, #24
87802d40:	f7ff f990 	bl	87802064 <uxListRemove>
87802d44:	4631      	mov	r1, r6
87802d46:	481d      	ldr	r0, [pc, #116]	; (87802dbc <vTaskSuspend+0xb0>)
87802d48:	f7ff f962 	bl	87802010 <vListInsertEnd>
87802d4c:	f001 f8d2 	bl	87803ef4 <vPortExitCritical>
87802d50:	f8d4 30e4 	ldr.w	r3, [r4, #228]	; 0xe4
87802d54:	b953      	cbnz	r3, 87802d6c <vTaskSuspend+0x60>
87802d56:	6863      	ldr	r3, [r4, #4]
87802d58:	429d      	cmp	r5, r3
87802d5a:	d013      	beq.n	87802d84 <vTaskSuspend+0x78>
87802d5c:	bd70      	pop	{r4, r5, r6, pc}
87802d5e:	68a3      	ldr	r3, [r4, #8]
87802d60:	2201      	movs	r2, #1
87802d62:	408a      	lsls	r2, r1
87802d64:	ea23 0302 	bic.w	r3, r3, r2
87802d68:	60a3      	str	r3, [r4, #8]
87802d6a:	e7e5      	b.n	87802d38 <vTaskSuspend+0x2c>
87802d6c:	f001 f880 	bl	87803e70 <vPortEnterCritical>
87802d70:	6a63      	ldr	r3, [r4, #36]	; 0x24
87802d72:	681b      	ldr	r3, [r3, #0]
87802d74:	b173      	cbz	r3, 87802d94 <vTaskSuspend+0x88>
87802d76:	f7ff fb2f 	bl	878023d8 <prvResetNextTaskUnblockTime.part.0>
87802d7a:	f001 f8bb 	bl	87803ef4 <vPortExitCritical>
87802d7e:	6863      	ldr	r3, [r4, #4]
87802d80:	429d      	cmp	r5, r3
87802d82:	d1eb      	bne.n	87802d5c <vTaskSuspend+0x50>
87802d84:	f8d4 30e4 	ldr.w	r3, [r4, #228]	; 0xe4
87802d88:	b153      	cbz	r3, 87802da0 <vTaskSuspend+0x94>
87802d8a:	f8d4 30f0 	ldr.w	r3, [r4, #240]	; 0xf0
87802d8e:	b98b      	cbnz	r3, 87802db4 <vTaskSuspend+0xa8>
87802d90:	df00      	svc	0
87802d92:	bd70      	pop	{r4, r5, r6, pc}
87802d94:	f04f 33ff 	mov.w	r3, #4294967295	; 0xffffffff
87802d98:	62a3      	str	r3, [r4, #40]	; 0x28
87802d9a:	e7ee      	b.n	87802d7a <vTaskSuspend+0x6e>
87802d9c:	6865      	ldr	r5, [r4, #4]
87802d9e:	e7bf      	b.n	87802d20 <vTaskSuspend+0x14>
87802da0:	6c22      	ldr	r2, [r4, #64]	; 0x40
87802da2:	68e1      	ldr	r1, [r4, #12]
87802da4:	4291      	cmp	r1, r2
87802da6:	d003      	beq.n	87802db0 <vTaskSuspend+0xa4>
87802da8:	e8bd 4070 	ldmia.w	sp!, {r4, r5, r6, lr}
87802dac:	f7ff bf84 	b.w	87802cb8 <vTaskSwitchContext>
87802db0:	6063      	str	r3, [r4, #4]
87802db2:	bd70      	pop	{r4, r5, r6, pc}
87802db4:	f001 f8de 	bl	87803f74 <ulPortSetInterruptMask>
87802db8:	e7fe      	b.n	87802db8 <vTaskSuspend+0xac>
87802dba:	bf00      	nop
87802dbc:	88000114 	stmdahi	r0, {r2, r4, r8}

87802dc0 <vTaskPlaceOnEventList>:
87802dc0:	b510      	push	{r4, lr}
87802dc2:	b170      	cbz	r0, 87802de2 <vTaskPlaceOnEventList+0x22>
87802dc4:	f240 1308 	movw	r3, #264	; 0x108
87802dc8:	460c      	mov	r4, r1
87802dca:	f6c8 0300 	movt	r3, #34816	; 0x8800
87802dce:	6859      	ldr	r1, [r3, #4]
87802dd0:	3118      	adds	r1, #24
87802dd2:	f7ff f92d 	bl	87802030 <vListInsert>
87802dd6:	4620      	mov	r0, r4
87802dd8:	2101      	movs	r1, #1
87802dda:	e8bd 4010 	ldmia.w	sp!, {r4, lr}
87802dde:	f7ff babd 	b.w	8780235c <prvAddCurrentTaskToDelayedList>
87802de2:	f001 f8c7 	bl	87803f74 <ulPortSetInterruptMask>
87802de6:	e7fe      	b.n	87802de6 <vTaskPlaceOnEventList+0x26>

87802de8 <vTaskPlaceOnUnorderedEventList>:
87802de8:	b510      	push	{r4, lr}
87802dea:	b1c8      	cbz	r0, 87802e20 <vTaskPlaceOnUnorderedEventList+0x38>
87802dec:	f240 1308 	movw	r3, #264	; 0x108
87802df0:	4614      	mov	r4, r2
87802df2:	f6c8 0300 	movt	r3, #34816	; 0x8800
87802df6:	f8d3 20f0 	ldr.w	r2, [r3, #240]	; 0xf0
87802dfa:	b912      	cbnz	r2, 87802e02 <vTaskPlaceOnUnorderedEventList+0x1a>
87802dfc:	f001 f8ba 	bl	87803f74 <ulPortSetInterruptMask>
87802e00:	e7fe      	b.n	87802e00 <vTaskPlaceOnUnorderedEventList+0x18>
87802e02:	685a      	ldr	r2, [r3, #4]
87802e04:	f041 4100 	orr.w	r1, r1, #2147483648	; 0x80000000
87802e08:	685b      	ldr	r3, [r3, #4]
87802e0a:	6191      	str	r1, [r2, #24]
87802e0c:	f103 0118 	add.w	r1, r3, #24
87802e10:	f7ff f8fe 	bl	87802010 <vListInsertEnd>
87802e14:	4620      	mov	r0, r4
87802e16:	2101      	movs	r1, #1
87802e18:	e8bd 4010 	ldmia.w	sp!, {r4, lr}
87802e1c:	f7ff ba9e 	b.w	8780235c <prvAddCurrentTaskToDelayedList>
87802e20:	f001 f8a8 	bl	87803f74 <ulPortSetInterruptMask>
87802e24:	e7fe      	b.n	87802e24 <vTaskPlaceOnUnorderedEventList+0x3c>
87802e26:	bf00      	nop

87802e28 <vTaskPlaceOnEventListRestricted>:
87802e28:	b538      	push	{r3, r4, r5, lr}
87802e2a:	b198      	cbz	r0, 87802e54 <vTaskPlaceOnEventListRestricted+0x2c>
87802e2c:	f240 1308 	movw	r3, #264	; 0x108
87802e30:	460d      	mov	r5, r1
87802e32:	f6c8 0300 	movt	r3, #34816	; 0x8800
87802e36:	4614      	mov	r4, r2
87802e38:	6859      	ldr	r1, [r3, #4]
87802e3a:	3118      	adds	r1, #24
87802e3c:	f7ff f8e8 	bl	87802010 <vListInsertEnd>
87802e40:	2c00      	cmp	r4, #0
87802e42:	4621      	mov	r1, r4
87802e44:	bf0c      	ite	eq
87802e46:	4628      	moveq	r0, r5
87802e48:	f04f 30ff 	movne.w	r0, #4294967295	; 0xffffffff
87802e4c:	e8bd 4038 	ldmia.w	sp!, {r3, r4, r5, lr}
87802e50:	f7ff ba84 	b.w	8780235c <prvAddCurrentTaskToDelayedList>
87802e54:	f001 f88e 	bl	87803f74 <ulPortSetInterruptMask>
87802e58:	e7fe      	b.n	87802e58 <vTaskPlaceOnEventListRestricted+0x30>
87802e5a:	bf00      	nop

87802e5c <xTaskRemoveFromEventList>:
87802e5c:	b5f8      	push	{r3, r4, r5, r6, r7, lr}
87802e5e:	68c3      	ldr	r3, [r0, #12]
87802e60:	68dd      	ldr	r5, [r3, #12]
87802e62:	b375      	cbz	r5, 87802ec2 <xTaskRemoveFromEventList+0x66>
87802e64:	f105 0618 	add.w	r6, r5, #24
87802e68:	f240 1408 	movw	r4, #264	; 0x108
87802e6c:	4630      	mov	r0, r6
87802e6e:	f6c8 0400 	movt	r4, #34816	; 0x8800
87802e72:	f7ff f8f7 	bl	87802064 <uxListRemove>
87802e76:	f8d4 30f0 	ldr.w	r3, [r4, #240]	; 0xf0
87802e7a:	b9e3      	cbnz	r3, 87802eb6 <xTaskRemoveFromEventList+0x5a>
87802e7c:	1d2e      	adds	r6, r5, #4
87802e7e:	4630      	mov	r0, r6
87802e80:	f7ff f8f0 	bl	87802064 <uxListRemove>
87802e84:	6aea      	ldr	r2, [r5, #44]	; 0x2c
87802e86:	2301      	movs	r3, #1
87802e88:	68a7      	ldr	r7, [r4, #8]
87802e8a:	f104 0044 	add.w	r0, r4, #68	; 0x44
87802e8e:	4631      	mov	r1, r6
87802e90:	4093      	lsls	r3, r2
87802e92:	eb02 0282 	add.w	r2, r2, r2, lsl #2
87802e96:	433b      	orrs	r3, r7
87802e98:	eb00 0082 	add.w	r0, r0, r2, lsl #2
87802e9c:	60a3      	str	r3, [r4, #8]
87802e9e:	f7ff f8b7 	bl	87802010 <vListInsertEnd>
87802ea2:	6863      	ldr	r3, [r4, #4]
87802ea4:	6aea      	ldr	r2, [r5, #44]	; 0x2c
87802ea6:	6adb      	ldr	r3, [r3, #44]	; 0x2c
87802ea8:	429a      	cmp	r2, r3
87802eaa:	bf8a      	itet	hi
87802eac:	2001      	movhi	r0, #1
87802eae:	2000      	movls	r0, #0
87802eb0:	f8c4 0100 	strhi.w	r0, [r4, #256]	; 0x100
87802eb4:	bdf8      	pop	{r3, r4, r5, r6, r7, pc}
87802eb6:	4631      	mov	r1, r6
87802eb8:	f104 002c 	add.w	r0, r4, #44	; 0x2c
87802ebc:	f7ff f8a8 	bl	87802010 <vListInsertEnd>
87802ec0:	e7ef      	b.n	87802ea2 <xTaskRemoveFromEventList+0x46>
87802ec2:	f001 f857 	bl	87803f74 <ulPortSetInterruptMask>
87802ec6:	e7fe      	b.n	87802ec6 <xTaskRemoveFromEventList+0x6a>

87802ec8 <xTaskRemoveFromUnorderedEventList>:
87802ec8:	b5f8      	push	{r3, r4, r5, r6, r7, lr}
87802eca:	f240 1408 	movw	r4, #264	; 0x108
87802ece:	f6c8 0400 	movt	r4, #34816	; 0x8800
87802ed2:	f8d4 30f0 	ldr.w	r3, [r4, #240]	; 0xf0
87802ed6:	b323      	cbz	r3, 87802f22 <xTaskRemoveFromUnorderedEventList+0x5a>
87802ed8:	68c6      	ldr	r6, [r0, #12]
87802eda:	f041 4100 	orr.w	r1, r1, #2147483648	; 0x80000000
87802ede:	6001      	str	r1, [r0, #0]
87802ee0:	b316      	cbz	r6, 87802f28 <xTaskRemoveFromUnorderedEventList+0x60>
87802ee2:	1d37      	adds	r7, r6, #4
87802ee4:	2501      	movs	r5, #1
87802ee6:	f7ff f8bd 	bl	87802064 <uxListRemove>
87802eea:	4638      	mov	r0, r7
87802eec:	f7ff f8ba 	bl	87802064 <uxListRemove>
87802ef0:	6af3      	ldr	r3, [r6, #44]	; 0x2c
87802ef2:	4639      	mov	r1, r7
87802ef4:	68a7      	ldr	r7, [r4, #8]
87802ef6:	f104 0044 	add.w	r0, r4, #68	; 0x44
87802efa:	fa05 f203 	lsl.w	r2, r5, r3
87802efe:	eb03 0383 	add.w	r3, r3, r3, lsl #2
87802f02:	433a      	orrs	r2, r7
87802f04:	eb00 0083 	add.w	r0, r0, r3, lsl #2
87802f08:	60a2      	str	r2, [r4, #8]
87802f0a:	f7ff f881 	bl	87802010 <vListInsertEnd>
87802f0e:	6863      	ldr	r3, [r4, #4]
87802f10:	6af2      	ldr	r2, [r6, #44]	; 0x2c
87802f12:	6adb      	ldr	r3, [r3, #44]	; 0x2c
87802f14:	429a      	cmp	r2, r3
87802f16:	bf86      	itte	hi
87802f18:	4628      	movhi	r0, r5
87802f1a:	f8c4 5100 	strhi.w	r5, [r4, #256]	; 0x100
87802f1e:	2000      	movls	r0, #0
87802f20:	bdf8      	pop	{r3, r4, r5, r6, r7, pc}
87802f22:	f001 f827 	bl	87803f74 <ulPortSetInterruptMask>
87802f26:	e7fe      	b.n	87802f26 <xTaskRemoveFromUnorderedEventList+0x5e>
87802f28:	f001 f824 	bl	87803f74 <ulPortSetInterruptMask>
87802f2c:	e7fe      	b.n	87802f2c <xTaskRemoveFromUnorderedEventList+0x64>
87802f2e:	bf00      	nop

87802f30 <vTaskSetTimeOutState>:
87802f30:	b508      	push	{r3, lr}
87802f32:	b148      	cbz	r0, 87802f48 <vTaskSetTimeOutState+0x18>
87802f34:	f240 1308 	movw	r3, #264	; 0x108
87802f38:	f6c8 0300 	movt	r3, #34816	; 0x8800
87802f3c:	f8d3 20f8 	ldr.w	r2, [r3, #248]	; 0xf8
87802f40:	681b      	ldr	r3, [r3, #0]
87802f42:	e880 000c 	stmia.w	r0, {r2, r3}
87802f46:	bd08      	pop	{r3, pc}
87802f48:	f001 f814 	bl	87803f74 <ulPortSetInterruptMask>
87802f4c:	e7fe      	b.n	87802f4c <vTaskSetTimeOutState+0x1c>
87802f4e:	bf00      	nop

87802f50 <xTaskCheckForTimeOut>:
87802f50:	b570      	push	{r4, r5, r6, lr}
87802f52:	b370      	cbz	r0, 87802fb2 <xTaskCheckForTimeOut+0x62>
87802f54:	460d      	mov	r5, r1
87802f56:	b349      	cbz	r1, 87802fac <xTaskCheckForTimeOut+0x5c>
87802f58:	4604      	mov	r4, r0
87802f5a:	f000 ff89 	bl	87803e70 <vPortEnterCritical>
87802f5e:	682b      	ldr	r3, [r5, #0]
87802f60:	f240 1208 	movw	r2, #264	; 0x108
87802f64:	f6c8 0200 	movt	r2, #34816	; 0x8800
87802f68:	6811      	ldr	r1, [r2, #0]
87802f6a:	1c58      	adds	r0, r3, #1
87802f6c:	bf08      	it	eq
87802f6e:	2500      	moveq	r5, #0
87802f70:	d013      	beq.n	87802f9a <xTaskCheckForTimeOut+0x4a>
87802f72:	f8d2 00f8 	ldr.w	r0, [r2, #248]	; 0xf8
87802f76:	6826      	ldr	r6, [r4, #0]
87802f78:	4286      	cmp	r6, r0
87802f7a:	6860      	ldr	r0, [r4, #4]
87802f7c:	d001      	beq.n	87802f82 <xTaskCheckForTimeOut+0x32>
87802f7e:	4281      	cmp	r1, r0
87802f80:	d20f      	bcs.n	87802fa2 <xTaskCheckForTimeOut+0x52>
87802f82:	1a0e      	subs	r6, r1, r0
87802f84:	42b3      	cmp	r3, r6
87802f86:	d90c      	bls.n	87802fa2 <xTaskCheckForTimeOut+0x52>
87802f88:	1a5b      	subs	r3, r3, r1
87802f8a:	f8d2 60f8 	ldr.w	r6, [r2, #248]	; 0xf8
87802f8e:	4403      	add	r3, r0
87802f90:	6812      	ldr	r2, [r2, #0]
87802f92:	602b      	str	r3, [r5, #0]
87802f94:	2500      	movs	r5, #0
87802f96:	6026      	str	r6, [r4, #0]
87802f98:	6062      	str	r2, [r4, #4]
87802f9a:	f000 ffab 	bl	87803ef4 <vPortExitCritical>
87802f9e:	4628      	mov	r0, r5
87802fa0:	bd70      	pop	{r4, r5, r6, pc}
87802fa2:	2501      	movs	r5, #1
87802fa4:	f000 ffa6 	bl	87803ef4 <vPortExitCritical>
87802fa8:	4628      	mov	r0, r5
87802faa:	bd70      	pop	{r4, r5, r6, pc}
87802fac:	f000 ffe2 	bl	87803f74 <ulPortSetInterruptMask>
87802fb0:	e7fe      	b.n	87802fb0 <xTaskCheckForTimeOut+0x60>
87802fb2:	f000 ffdf 	bl	87803f74 <ulPortSetInterruptMask>
87802fb6:	e7fe      	b.n	87802fb6 <xTaskCheckForTimeOut+0x66>

87802fb8 <vTaskMissedYield>:
87802fb8:	f240 1308 	movw	r3, #264	; 0x108
87802fbc:	2201      	movs	r2, #1
87802fbe:	f6c8 0300 	movt	r3, #34816	; 0x8800
87802fc2:	f8c3 2100 	str.w	r2, [r3, #256]	; 0x100
87802fc6:	4770      	bx	lr

87802fc8 <uxTaskGetTaskNumber>:
87802fc8:	b100      	cbz	r0, 87802fcc <uxTaskGetTaskNumber+0x4>
87802fca:	6d00      	ldr	r0, [r0, #80]	; 0x50
87802fcc:	4770      	bx	lr
87802fce:	bf00      	nop

87802fd0 <vTaskSetTaskNumber>:
87802fd0:	b100      	cbz	r0, 87802fd4 <vTaskSetTaskNumber+0x4>
87802fd2:	6501      	str	r1, [r0, #80]	; 0x50
87802fd4:	4770      	bx	lr
87802fd6:	bf00      	nop

87802fd8 <vTaskSetThreadLocalStoragePointer>:
87802fd8:	2904      	cmp	r1, #4
87802fda:	dc03      	bgt.n	87802fe4 <vTaskSetThreadLocalStoragePointer+0xc>
87802fdc:	b118      	cbz	r0, 87802fe6 <vTaskSetThreadLocalStoragePointer+0xe>
87802fde:	eb00 0181 	add.w	r1, r0, r1, lsl #2
87802fe2:	65ca      	str	r2, [r1, #92]	; 0x5c
87802fe4:	4770      	bx	lr
87802fe6:	f240 1308 	movw	r3, #264	; 0x108
87802fea:	f6c8 0300 	movt	r3, #34816	; 0x8800
87802fee:	6858      	ldr	r0, [r3, #4]
87802ff0:	e7f5      	b.n	87802fde <vTaskSetThreadLocalStoragePointer+0x6>
87802ff2:	bf00      	nop

87802ff4 <pvTaskGetThreadLocalStoragePointer>:
87802ff4:	2904      	cmp	r1, #4
87802ff6:	dc0d      	bgt.n	87803014 <pvTaskGetThreadLocalStoragePointer+0x20>
87802ff8:	b118      	cbz	r0, 87803002 <pvTaskGetThreadLocalStoragePointer+0xe>
87802ffa:	eb00 0081 	add.w	r0, r0, r1, lsl #2
87802ffe:	6dc0      	ldr	r0, [r0, #92]	; 0x5c
87803000:	4770      	bx	lr
87803002:	f240 1308 	movw	r3, #264	; 0x108
87803006:	f6c8 0300 	movt	r3, #34816	; 0x8800
8780300a:	6858      	ldr	r0, [r3, #4]
8780300c:	eb00 0081 	add.w	r0, r0, r1, lsl #2
87803010:	6dc0      	ldr	r0, [r0, #92]	; 0x5c
87803012:	4770      	bx	lr
87803014:	2000      	movs	r0, #0
87803016:	4770      	bx	lr

87803018 <vTaskGetInfo>:
87803018:	e92d 41f0 	stmdb	sp!, {r4, r5, r6, r7, r8, lr}
8780301c:	460c      	mov	r4, r1
8780301e:	4690      	mov	r8, r2
87803020:	461f      	mov	r7, r3
87803022:	4606      	mov	r6, r0
87803024:	4605      	mov	r5, r0
87803026:	2800      	cmp	r0, #0
87803028:	d040      	beq.n	878030ac <vTaskGetInfo+0x94>
8780302a:	6aeb      	ldr	r3, [r5, #44]	; 0x2c
8780302c:	f105 0034 	add.w	r0, r5, #52	; 0x34
87803030:	6b29      	ldr	r1, [r5, #48]	; 0x30
87803032:	6cea      	ldr	r2, [r5, #76]	; 0x4c
87803034:	6123      	str	r3, [r4, #16]
87803036:	68e3      	ldr	r3, [r4, #12]
87803038:	6025      	str	r5, [r4, #0]
8780303a:	61e1      	str	r1, [r4, #28]
8780303c:	2b03      	cmp	r3, #3
8780303e:	60a2      	str	r2, [r4, #8]
87803040:	6060      	str	r0, [r4, #4]
87803042:	d01e      	beq.n	87803082 <vTaskGetInfo+0x6a>
87803044:	6d6b      	ldr	r3, [r5, #84]	; 0x54
87803046:	2f05      	cmp	r7, #5
87803048:	f04f 0200 	mov.w	r2, #0
8780304c:	bf18      	it	ne
8780304e:	60e7      	strne	r7, [r4, #12]
87803050:	61a2      	str	r2, [r4, #24]
87803052:	6163      	str	r3, [r4, #20]
87803054:	d025      	beq.n	878030a2 <vTaskGetInfo+0x8a>
87803056:	f1b8 0f00 	cmp.w	r8, #0
8780305a:	d00e      	beq.n	8780307a <vTaskGetInfo+0x62>
8780305c:	6b29      	ldr	r1, [r5, #48]	; 0x30
8780305e:	780b      	ldrb	r3, [r1, #0]
87803060:	2ba5      	cmp	r3, #165	; 0xa5
87803062:	d129      	bne.n	878030b8 <vTaskGetInfo+0xa0>
87803064:	1c4b      	adds	r3, r1, #1
87803066:	1a58      	subs	r0, r3, r1
87803068:	f813 2b01 	ldrb.w	r2, [r3], #1
8780306c:	2aa5      	cmp	r2, #165	; 0xa5
8780306e:	d0fa      	beq.n	87803066 <vTaskGetInfo+0x4e>
87803070:	f3c0 008f 	ubfx	r0, r0, #2, #16
87803074:	8420      	strh	r0, [r4, #32]
87803076:	e8bd 81f0 	ldmia.w	sp!, {r4, r5, r6, r7, r8, pc}
8780307a:	f8a4 8020 	strh.w	r8, [r4, #32]
8780307e:	e8bd 81f0 	ldmia.w	sp!, {r4, r5, r6, r7, r8, pc}
87803082:	f240 1308 	movw	r3, #264	; 0x108
87803086:	6aa9      	ldr	r1, [r5, #40]	; 0x28
87803088:	f6c8 0300 	movt	r3, #34816	; 0x8800
8780308c:	f8d3 20f0 	ldr.w	r2, [r3, #240]	; 0xf0
87803090:	3201      	adds	r2, #1
87803092:	f8c3 20f0 	str.w	r2, [r3, #240]	; 0xf0
87803096:	b109      	cbz	r1, 8780309c <vTaskGetInfo+0x84>
87803098:	2302      	movs	r3, #2
8780309a:	60e3      	str	r3, [r4, #12]
8780309c:	f7ff fd1a 	bl	87802ad4 <xTaskResumeAll>
878030a0:	e7d0      	b.n	87803044 <vTaskGetInfo+0x2c>
878030a2:	4630      	mov	r0, r6
878030a4:	f7ff faf0 	bl	87802688 <eTaskGetState>
878030a8:	60e0      	str	r0, [r4, #12]
878030aa:	e7d4      	b.n	87803056 <vTaskGetInfo+0x3e>
878030ac:	f240 1308 	movw	r3, #264	; 0x108
878030b0:	f6c8 0300 	movt	r3, #34816	; 0x8800
878030b4:	685d      	ldr	r5, [r3, #4]
878030b6:	e7b8      	b.n	8780302a <vTaskGetInfo+0x12>
878030b8:	2000      	movs	r0, #0
878030ba:	e7db      	b.n	87803074 <vTaskGetInfo+0x5c>

878030bc <prvListTasksWithinSingleList.part.3>:
878030bc:	684b      	ldr	r3, [r1, #4]
878030be:	e92d 47f0 	stmdb	sp!, {r4, r5, r6, r7, r8, r9, sl, lr}
878030c2:	f101 0808 	add.w	r8, r1, #8
878030c6:	460e      	mov	r6, r1
878030c8:	4692      	mov	sl, r2
878030ca:	4605      	mov	r5, r0
878030cc:	2700      	movs	r7, #0
878030ce:	685b      	ldr	r3, [r3, #4]
878030d0:	4543      	cmp	r3, r8
878030d2:	604b      	str	r3, [r1, #4]
878030d4:	bf08      	it	eq
878030d6:	68cb      	ldreq	r3, [r1, #12]
878030d8:	f8d3 900c 	ldr.w	r9, [r3, #12]
878030dc:	e000      	b.n	878030e0 <prvListTasksWithinSingleList.part.3+0x24>
878030de:	6873      	ldr	r3, [r6, #4]
878030e0:	685c      	ldr	r4, [r3, #4]
878030e2:	4629      	mov	r1, r5
878030e4:	2201      	movs	r2, #1
878030e6:	4653      	mov	r3, sl
878030e8:	4417      	add	r7, r2
878030ea:	3524      	adds	r5, #36	; 0x24
878030ec:	45a0      	cmp	r8, r4
878030ee:	6074      	str	r4, [r6, #4]
878030f0:	bf04      	itt	eq
878030f2:	68f4      	ldreq	r4, [r6, #12]
878030f4:	6074      	streq	r4, [r6, #4]
878030f6:	68e4      	ldr	r4, [r4, #12]
878030f8:	4620      	mov	r0, r4
878030fa:	f7ff ff8d 	bl	87803018 <vTaskGetInfo>
878030fe:	45a1      	cmp	r9, r4
87803100:	d1ed      	bne.n	878030de <prvListTasksWithinSingleList.part.3+0x22>
87803102:	4638      	mov	r0, r7
87803104:	e8bd 87f0 	ldmia.w	sp!, {r4, r5, r6, r7, r8, r9, sl, pc}

87803108 <uxTaskGetSystemState>:
87803108:	e92d 43f8 	stmdb	sp!, {r3, r4, r5, r6, r7, r8, r9, lr}
8780310c:	f240 1808 	movw	r8, #264	; 0x108
87803110:	f6c8 0800 	movt	r8, #34816	; 0x8800
87803114:	f8d8 30f0 	ldr.w	r3, [r8, #240]	; 0xf0
87803118:	3301      	adds	r3, #1
8780311a:	f8c8 30f0 	str.w	r3, [r8, #240]	; 0xf0
8780311e:	f8d8 3040 	ldr.w	r3, [r8, #64]	; 0x40
87803122:	428b      	cmp	r3, r1
87803124:	bf88      	it	hi
87803126:	2400      	movhi	r4, #0
87803128:	d821      	bhi.n	8780316e <uxTaskGetSystemState+0x66>
8780312a:	4607      	mov	r7, r0
8780312c:	4616      	mov	r6, r2
8780312e:	f108 0544 	add.w	r5, r8, #68	; 0x44
87803132:	f1a8 0920 	sub.w	r9, r8, #32
87803136:	2400      	movs	r4, #0
87803138:	6d28      	ldr	r0, [r5, #80]	; 0x50
8780313a:	b9e8      	cbnz	r0, 87803178 <uxTaskGetSystemState+0x70>
8780313c:	3d14      	subs	r5, #20
8780313e:	4404      	add	r4, r0
87803140:	45a9      	cmp	r9, r5
87803142:	d1f9      	bne.n	87803138 <uxTaskGetSystemState+0x30>
87803144:	f8d8 1024 	ldr.w	r1, [r8, #36]	; 0x24
87803148:	6808      	ldr	r0, [r1, #0]
8780314a:	bb40      	cbnz	r0, 8780319e <uxTaskGetSystemState+0x96>
8780314c:	f8d8 1020 	ldr.w	r1, [r8, #32]
87803150:	4404      	add	r4, r0
87803152:	6808      	ldr	r0, [r1, #0]
87803154:	bb80      	cbnz	r0, 878031b8 <uxTaskGetSystemState+0xb0>
87803156:	f8d8 30d0 	ldr.w	r3, [r8, #208]	; 0xd0
8780315a:	4404      	add	r4, r0
8780315c:	bbc3      	cbnz	r3, 878031d0 <uxTaskGetSystemState+0xc8>
8780315e:	f8d8 000c 	ldr.w	r0, [r8, #12]
87803162:	441c      	add	r4, r3
87803164:	b990      	cbnz	r0, 8780318c <uxTaskGetSystemState+0x84>
87803166:	4404      	add	r4, r0
87803168:	b10e      	cbz	r6, 8780316e <uxTaskGetSystemState+0x66>
8780316a:	2300      	movs	r3, #0
8780316c:	6033      	str	r3, [r6, #0]
8780316e:	f7ff fcb1 	bl	87802ad4 <xTaskResumeAll>
87803172:	4620      	mov	r0, r4
87803174:	e8bd 83f8 	ldmia.w	sp!, {r3, r4, r5, r6, r7, r8, r9, pc}
87803178:	eb04 00c4 	add.w	r0, r4, r4, lsl #3
8780317c:	2201      	movs	r2, #1
8780317e:	f105 0150 	add.w	r1, r5, #80	; 0x50
87803182:	eb07 0080 	add.w	r0, r7, r0, lsl #2
87803186:	f7ff ff99 	bl	878030bc <prvListTasksWithinSingleList.part.3>
8780318a:	e7d7      	b.n	8780313c <uxTaskGetSystemState+0x34>
8780318c:	eb04 00c4 	add.w	r0, r4, r4, lsl #3
87803190:	2203      	movs	r2, #3
87803192:	4917      	ldr	r1, [pc, #92]	; (878031f0 <uxTaskGetSystemState+0xe8>)
87803194:	eb07 0080 	add.w	r0, r7, r0, lsl #2
87803198:	f7ff ff90 	bl	878030bc <prvListTasksWithinSingleList.part.3>
8780319c:	e7e3      	b.n	87803166 <uxTaskGetSystemState+0x5e>
8780319e:	eb04 00c4 	add.w	r0, r4, r4, lsl #3
878031a2:	2202      	movs	r2, #2
878031a4:	eb07 0080 	add.w	r0, r7, r0, lsl #2
878031a8:	f7ff ff88 	bl	878030bc <prvListTasksWithinSingleList.part.3>
878031ac:	f8d8 1020 	ldr.w	r1, [r8, #32]
878031b0:	4404      	add	r4, r0
878031b2:	6808      	ldr	r0, [r1, #0]
878031b4:	2800      	cmp	r0, #0
878031b6:	d0ce      	beq.n	87803156 <uxTaskGetSystemState+0x4e>
878031b8:	eb04 00c4 	add.w	r0, r4, r4, lsl #3
878031bc:	2202      	movs	r2, #2
878031be:	eb07 0080 	add.w	r0, r7, r0, lsl #2
878031c2:	f7ff ff7b 	bl	878030bc <prvListTasksWithinSingleList.part.3>
878031c6:	f8d8 30d0 	ldr.w	r3, [r8, #208]	; 0xd0
878031ca:	4404      	add	r4, r0
878031cc:	2b00      	cmp	r3, #0
878031ce:	d0c6      	beq.n	8780315e <uxTaskGetSystemState+0x56>
878031d0:	eb04 00c4 	add.w	r0, r4, r4, lsl #3
878031d4:	2204      	movs	r2, #4
878031d6:	4907      	ldr	r1, [pc, #28]	; (878031f4 <uxTaskGetSystemState+0xec>)
878031d8:	eb07 0080 	add.w	r0, r7, r0, lsl #2
878031dc:	f7ff ff6e 	bl	878030bc <prvListTasksWithinSingleList.part.3>
878031e0:	4603      	mov	r3, r0
878031e2:	f8d8 000c 	ldr.w	r0, [r8, #12]
878031e6:	441c      	add	r4, r3
878031e8:	2800      	cmp	r0, #0
878031ea:	d0bc      	beq.n	87803166 <uxTaskGetSystemState+0x5e>
878031ec:	e7ce      	b.n	8780318c <uxTaskGetSystemState+0x84>
878031ee:	bf00      	nop
878031f0:	88000114 	stmdahi	r0, {r2, r4, r8}
878031f4:	880001d8 	stmdahi	r0, {r3, r4, r6, r7, r8}

878031f8 <xTaskGetCurrentTaskHandle>:
878031f8:	f240 1308 	movw	r3, #264	; 0x108
878031fc:	f6c8 0300 	movt	r3, #34816	; 0x8800
87803200:	6858      	ldr	r0, [r3, #4]
87803202:	4770      	bx	lr

87803204 <xTaskGetSchedulerState>:
87803204:	f240 1308 	movw	r3, #264	; 0x108
87803208:	f6c8 0300 	movt	r3, #34816	; 0x8800
8780320c:	f8d3 20e4 	ldr.w	r2, [r3, #228]	; 0xe4
87803210:	b132      	cbz	r2, 87803220 <xTaskGetSchedulerState+0x1c>
87803212:	f8d3 30f0 	ldr.w	r3, [r3, #240]	; 0xf0
87803216:	2b00      	cmp	r3, #0
87803218:	bf0c      	ite	eq
8780321a:	2002      	moveq	r0, #2
8780321c:	2000      	movne	r0, #0
8780321e:	4770      	bx	lr
87803220:	2001      	movs	r0, #1
87803222:	4770      	bx	lr

87803224 <vTaskPriorityInherit>:
87803224:	2800      	cmp	r0, #0
87803226:	d043      	beq.n	878032b0 <vTaskPriorityInherit+0x8c>
87803228:	b5f8      	push	{r3, r4, r5, r6, r7, lr}
8780322a:	f240 1408 	movw	r4, #264	; 0x108
8780322e:	f6c8 0400 	movt	r4, #34816	; 0x8800
87803232:	6ac3      	ldr	r3, [r0, #44]	; 0x2c
87803234:	6862      	ldr	r2, [r4, #4]
87803236:	6ad2      	ldr	r2, [r2, #44]	; 0x2c
87803238:	4293      	cmp	r3, r2
8780323a:	d213      	bcs.n	87803264 <vTaskPriorityInherit+0x40>
8780323c:	6982      	ldr	r2, [r0, #24]
8780323e:	eb03 0383 	add.w	r3, r3, r3, lsl #2
87803242:	4d1c      	ldr	r5, [pc, #112]	; (878032b4 <vTaskPriorityInherit+0x90>)
87803244:	2a00      	cmp	r2, #0
87803246:	bfa8      	it	ge
87803248:	6862      	ldrge	r2, [r4, #4]
8780324a:	eb05 0383 	add.w	r3, r5, r3, lsl #2
8780324e:	bfa2      	ittt	ge
87803250:	6ad2      	ldrge	r2, [r2, #44]	; 0x2c
87803252:	f1c2 0205 	rsbge	r2, r2, #5
87803256:	6182      	strge	r2, [r0, #24]
87803258:	6942      	ldr	r2, [r0, #20]
8780325a:	429a      	cmp	r2, r3
8780325c:	d003      	beq.n	87803266 <vTaskPriorityInherit+0x42>
8780325e:	6863      	ldr	r3, [r4, #4]
87803260:	6adb      	ldr	r3, [r3, #44]	; 0x2c
87803262:	62c3      	str	r3, [r0, #44]	; 0x2c
87803264:	bdf8      	pop	{r3, r4, r5, r6, r7, pc}
87803266:	1d07      	adds	r7, r0, #4
87803268:	4606      	mov	r6, r0
8780326a:	4638      	mov	r0, r7
8780326c:	f7fe fefa 	bl	87802064 <uxListRemove>
87803270:	b968      	cbnz	r0, 8780328e <vTaskPriorityInherit+0x6a>
87803272:	6af2      	ldr	r2, [r6, #44]	; 0x2c
87803274:	eb02 0382 	add.w	r3, r2, r2, lsl #2
87803278:	eb04 0383 	add.w	r3, r4, r3, lsl #2
8780327c:	6c5b      	ldr	r3, [r3, #68]	; 0x44
8780327e:	b933      	cbnz	r3, 8780328e <vTaskPriorityInherit+0x6a>
87803280:	68a3      	ldr	r3, [r4, #8]
87803282:	2101      	movs	r1, #1
87803284:	fa01 f202 	lsl.w	r2, r1, r2
87803288:	ea23 0202 	bic.w	r2, r3, r2
8780328c:	60a2      	str	r2, [r4, #8]
8780328e:	6860      	ldr	r0, [r4, #4]
87803290:	2301      	movs	r3, #1
87803292:	68a2      	ldr	r2, [r4, #8]
87803294:	4639      	mov	r1, r7
87803296:	6ac0      	ldr	r0, [r0, #44]	; 0x2c
87803298:	62f0      	str	r0, [r6, #44]	; 0x2c
8780329a:	4083      	lsls	r3, r0
8780329c:	eb00 0080 	add.w	r0, r0, r0, lsl #2
878032a0:	4313      	orrs	r3, r2
878032a2:	eb05 0080 	add.w	r0, r5, r0, lsl #2
878032a6:	60a3      	str	r3, [r4, #8]
878032a8:	e8bd 40f8 	ldmia.w	sp!, {r3, r4, r5, r6, r7, lr}
878032ac:	f7fe beb0 	b.w	87802010 <vListInsertEnd>
878032b0:	4770      	bx	lr
878032b2:	bf00      	nop
878032b4:	8800014c 	stmdahi	r0, {r2, r3, r6, r8}

878032b8 <xTaskPriorityDisinherit>:
878032b8:	b158      	cbz	r0, 878032d2 <xTaskPriorityDisinherit+0x1a>
878032ba:	b5f8      	push	{r3, r4, r5, r6, r7, lr}
878032bc:	f240 1508 	movw	r5, #264	; 0x108
878032c0:	f6c8 0500 	movt	r5, #34816	; 0x8800
878032c4:	4604      	mov	r4, r0
878032c6:	686b      	ldr	r3, [r5, #4]
878032c8:	4298      	cmp	r0, r3
878032ca:	d004      	beq.n	878032d6 <xTaskPriorityDisinherit+0x1e>
878032cc:	f000 fe52 	bl	87803f74 <ulPortSetInterruptMask>
878032d0:	e7fe      	b.n	878032d0 <xTaskPriorityDisinherit+0x18>
878032d2:	2000      	movs	r0, #0
878032d4:	4770      	bx	lr
878032d6:	6d83      	ldr	r3, [r0, #88]	; 0x58
878032d8:	b163      	cbz	r3, 878032f4 <xTaskPriorityDisinherit+0x3c>
878032da:	6ac2      	ldr	r2, [r0, #44]	; 0x2c
878032dc:	3b01      	subs	r3, #1
878032de:	6d41      	ldr	r1, [r0, #84]	; 0x54
878032e0:	6583      	str	r3, [r0, #88]	; 0x58
878032e2:	1a52      	subs	r2, r2, r1
878032e4:	bf18      	it	ne
878032e6:	2201      	movne	r2, #1
878032e8:	2b00      	cmp	r3, #0
878032ea:	bf18      	it	ne
878032ec:	2200      	movne	r2, #0
878032ee:	b922      	cbnz	r2, 878032fa <xTaskPriorityDisinherit+0x42>
878032f0:	2000      	movs	r0, #0
878032f2:	bdf8      	pop	{r3, r4, r5, r6, r7, pc}
878032f4:	f000 fe3e 	bl	87803f74 <ulPortSetInterruptMask>
878032f8:	e7fe      	b.n	878032f8 <xTaskPriorityDisinherit+0x40>
878032fa:	1d07      	adds	r7, r0, #4
878032fc:	4638      	mov	r0, r7
878032fe:	f7fe feb1 	bl	87802064 <uxListRemove>
87803302:	b960      	cbnz	r0, 8780331e <xTaskPriorityDisinherit+0x66>
87803304:	6ae0      	ldr	r0, [r4, #44]	; 0x2c
87803306:	eb00 0380 	add.w	r3, r0, r0, lsl #2
8780330a:	eb05 0383 	add.w	r3, r5, r3, lsl #2
8780330e:	6c5b      	ldr	r3, [r3, #68]	; 0x44
87803310:	b92b      	cbnz	r3, 8780331e <xTaskPriorityDisinherit+0x66>
87803312:	68ab      	ldr	r3, [r5, #8]
87803314:	2201      	movs	r2, #1
87803316:	4082      	lsls	r2, r0
87803318:	ea23 0302 	bic.w	r3, r3, r2
8780331c:	60ab      	str	r3, [r5, #8]
8780331e:	6d63      	ldr	r3, [r4, #84]	; 0x54
87803320:	2601      	movs	r6, #1
87803322:	480a      	ldr	r0, [pc, #40]	; (8780334c <xTaskPriorityDisinherit+0x94>)
87803324:	4639      	mov	r1, r7
87803326:	f8d5 e008 	ldr.w	lr, [r5, #8]
8780332a:	62e3      	str	r3, [r4, #44]	; 0x2c
8780332c:	fa06 f203 	lsl.w	r2, r6, r3
87803330:	eb03 0783 	add.w	r7, r3, r3, lsl #2
87803334:	f1c3 0305 	rsb	r3, r3, #5
87803338:	ea42 020e 	orr.w	r2, r2, lr
8780333c:	eb00 0087 	add.w	r0, r0, r7, lsl #2
87803340:	61a3      	str	r3, [r4, #24]
87803342:	60aa      	str	r2, [r5, #8]
87803344:	f7fe fe64 	bl	87802010 <vListInsertEnd>
87803348:	4630      	mov	r0, r6
8780334a:	bdf8      	pop	{r3, r4, r5, r6, r7, pc}
8780334c:	8800014c 	stmdahi	r0, {r2, r3, r6, r8}

87803350 <uxTaskResetEventItemValue>:
87803350:	f240 1308 	movw	r3, #264	; 0x108
87803354:	f6c8 0300 	movt	r3, #34816	; 0x8800
87803358:	6859      	ldr	r1, [r3, #4]
8780335a:	685a      	ldr	r2, [r3, #4]
8780335c:	685b      	ldr	r3, [r3, #4]
8780335e:	6988      	ldr	r0, [r1, #24]
87803360:	6adb      	ldr	r3, [r3, #44]	; 0x2c
87803362:	f1c3 0305 	rsb	r3, r3, #5
87803366:	6193      	str	r3, [r2, #24]
87803368:	4770      	bx	lr
8780336a:	bf00      	nop

8780336c <pvTaskIncrementMutexHeldCount>:
8780336c:	f240 1308 	movw	r3, #264	; 0x108
87803370:	f6c8 0300 	movt	r3, #34816	; 0x8800
87803374:	685a      	ldr	r2, [r3, #4]
87803376:	b11a      	cbz	r2, 87803380 <pvTaskIncrementMutexHeldCount+0x14>
87803378:	6859      	ldr	r1, [r3, #4]
8780337a:	6d8a      	ldr	r2, [r1, #88]	; 0x58
8780337c:	3201      	adds	r2, #1
8780337e:	658a      	str	r2, [r1, #88]	; 0x58
87803380:	6858      	ldr	r0, [r3, #4]
87803382:	4770      	bx	lr

87803384 <ulTaskNotifyTake>:
87803384:	b570      	push	{r4, r5, r6, lr}
87803386:	f240 1408 	movw	r4, #264	; 0x108
8780338a:	f6c8 0400 	movt	r4, #34816	; 0x8800
8780338e:	4606      	mov	r6, r0
87803390:	460d      	mov	r5, r1
87803392:	f000 fd6d 	bl	87803e70 <vPortEnterCritical>
87803396:	6863      	ldr	r3, [r4, #4]
87803398:	6f1b      	ldr	r3, [r3, #112]	; 0x70
8780339a:	b923      	cbnz	r3, 878033a6 <ulTaskNotifyTake+0x22>
8780339c:	6863      	ldr	r3, [r4, #4]
8780339e:	2101      	movs	r1, #1
878033a0:	f883 1074 	strb.w	r1, [r3, #116]	; 0x74
878033a4:	b9ad      	cbnz	r5, 878033d2 <ulTaskNotifyTake+0x4e>
878033a6:	f000 fda5 	bl	87803ef4 <vPortExitCritical>
878033aa:	f000 fd61 	bl	87803e70 <vPortEnterCritical>
878033ae:	6863      	ldr	r3, [r4, #4]
878033b0:	6f1d      	ldr	r5, [r3, #112]	; 0x70
878033b2:	b11d      	cbz	r5, 878033bc <ulTaskNotifyTake+0x38>
878033b4:	6863      	ldr	r3, [r4, #4]
878033b6:	b94e      	cbnz	r6, 878033cc <ulTaskNotifyTake+0x48>
878033b8:	1e6a      	subs	r2, r5, #1
878033ba:	671a      	str	r2, [r3, #112]	; 0x70
878033bc:	6863      	ldr	r3, [r4, #4]
878033be:	2200      	movs	r2, #0
878033c0:	f883 2074 	strb.w	r2, [r3, #116]	; 0x74
878033c4:	f000 fd96 	bl	87803ef4 <vPortExitCritical>
878033c8:	4628      	mov	r0, r5
878033ca:	bd70      	pop	{r4, r5, r6, pc}
878033cc:	2200      	movs	r2, #0
878033ce:	671a      	str	r2, [r3, #112]	; 0x70
878033d0:	e7f4      	b.n	878033bc <ulTaskNotifyTake+0x38>
878033d2:	4628      	mov	r0, r5
878033d4:	f7fe ffc2 	bl	8780235c <prvAddCurrentTaskToDelayedList>
878033d8:	df00      	svc	0
878033da:	e7e4      	b.n	878033a6 <ulTaskNotifyTake+0x22>

878033dc <xTaskNotifyWait>:
878033dc:	e92d 43f8 	stmdb	sp!, {r3, r4, r5, r6, r7, r8, r9, lr}
878033e0:	f240 1408 	movw	r4, #264	; 0x108
878033e4:	f6c8 0400 	movt	r4, #34816	; 0x8800
878033e8:	4615      	mov	r5, r2
878033ea:	4681      	mov	r9, r0
878033ec:	460f      	mov	r7, r1
878033ee:	4698      	mov	r8, r3
878033f0:	f000 fd3e 	bl	87803e70 <vPortEnterCritical>
878033f4:	6862      	ldr	r2, [r4, #4]
878033f6:	f892 2074 	ldrb.w	r2, [r2, #116]	; 0x74
878033fa:	2a02      	cmp	r2, #2
878033fc:	d00b      	beq.n	87803416 <xTaskNotifyWait+0x3a>
878033fe:	6866      	ldr	r6, [r4, #4]
87803400:	2101      	movs	r1, #1
87803402:	6f32      	ldr	r2, [r6, #112]	; 0x70
87803404:	ea22 0209 	bic.w	r2, r2, r9
87803408:	6732      	str	r2, [r6, #112]	; 0x70
8780340a:	6863      	ldr	r3, [r4, #4]
8780340c:	f883 1074 	strb.w	r1, [r3, #116]	; 0x74
87803410:	f1b8 0f00 	cmp.w	r8, #0
87803414:	d11c      	bne.n	87803450 <xTaskNotifyWait+0x74>
87803416:	f000 fd6d 	bl	87803ef4 <vPortExitCritical>
8780341a:	f000 fd29 	bl	87803e70 <vPortEnterCritical>
8780341e:	b115      	cbz	r5, 87803426 <xTaskNotifyWait+0x4a>
87803420:	6863      	ldr	r3, [r4, #4]
87803422:	6f1b      	ldr	r3, [r3, #112]	; 0x70
87803424:	602b      	str	r3, [r5, #0]
87803426:	6863      	ldr	r3, [r4, #4]
87803428:	2200      	movs	r2, #0
8780342a:	f893 3074 	ldrb.w	r3, [r3, #116]	; 0x74
8780342e:	2b01      	cmp	r3, #1
87803430:	bf1b      	ittet	ne
87803432:	6863      	ldrne	r3, [r4, #4]
87803434:	2501      	movne	r5, #1
87803436:	2500      	moveq	r5, #0
87803438:	6f19      	ldrne	r1, [r3, #112]	; 0x70
8780343a:	bf1c      	itt	ne
8780343c:	43b9      	bicne	r1, r7
8780343e:	6719      	strne	r1, [r3, #112]	; 0x70
87803440:	6863      	ldr	r3, [r4, #4]
87803442:	f883 2074 	strb.w	r2, [r3, #116]	; 0x74
87803446:	f000 fd55 	bl	87803ef4 <vPortExitCritical>
8780344a:	4628      	mov	r0, r5
8780344c:	e8bd 83f8 	ldmia.w	sp!, {r3, r4, r5, r6, r7, r8, r9, pc}
87803450:	4640      	mov	r0, r8
87803452:	f7fe ff83 	bl	8780235c <prvAddCurrentTaskToDelayedList>
87803456:	df00      	svc	0
87803458:	e7dd      	b.n	87803416 <xTaskNotifyWait+0x3a>
8780345a:	bf00      	nop

8780345c <xTaskGenericNotify>:
8780345c:	b5f8      	push	{r3, r4, r5, r6, r7, lr}
8780345e:	2800      	cmp	r0, #0
87803460:	d04a      	beq.n	878034f8 <xTaskGenericNotify+0x9c>
87803462:	461d      	mov	r5, r3
87803464:	460f      	mov	r7, r1
87803466:	4616      	mov	r6, r2
87803468:	4604      	mov	r4, r0
8780346a:	f000 fd01 	bl	87803e70 <vPortEnterCritical>
8780346e:	b10d      	cbz	r5, 87803474 <xTaskGenericNotify+0x18>
87803470:	6f23      	ldr	r3, [r4, #112]	; 0x70
87803472:	602b      	str	r3, [r5, #0]
87803474:	f894 5074 	ldrb.w	r5, [r4, #116]	; 0x74
87803478:	2202      	movs	r2, #2
8780347a:	1e73      	subs	r3, r6, #1
8780347c:	f884 2074 	strb.w	r2, [r4, #116]	; 0x74
87803480:	b2ed      	uxtb	r5, r5
87803482:	2b03      	cmp	r3, #3
87803484:	d804      	bhi.n	87803490 <xTaskGenericNotify+0x34>
87803486:	e8df f003 	tbb	[pc, r3]
8780348a:	30020a2c 	andcc	r0, r2, ip, lsr #20
8780348e:	6727      	str	r7, [r4, #112]	; 0x70
87803490:	2d01      	cmp	r5, #1
87803492:	d00a      	beq.n	878034aa <xTaskGenericNotify+0x4e>
87803494:	2501      	movs	r5, #1
87803496:	f000 fd2d 	bl	87803ef4 <vPortExitCritical>
8780349a:	4628      	mov	r0, r5
8780349c:	bdf8      	pop	{r3, r4, r5, r6, r7, pc}
8780349e:	6f23      	ldr	r3, [r4, #112]	; 0x70
878034a0:	2d01      	cmp	r5, #1
878034a2:	f103 0301 	add.w	r3, r3, #1
878034a6:	6723      	str	r3, [r4, #112]	; 0x70
878034a8:	d1f4      	bne.n	87803494 <xTaskGenericNotify+0x38>
878034aa:	1d27      	adds	r7, r4, #4
878034ac:	f240 1608 	movw	r6, #264	; 0x108
878034b0:	4638      	mov	r0, r7
878034b2:	f6c8 0600 	movt	r6, #34816	; 0x8800
878034b6:	f7fe fdd5 	bl	87802064 <uxListRemove>
878034ba:	6ae3      	ldr	r3, [r4, #44]	; 0x2c
878034bc:	4639      	mov	r1, r7
878034be:	68b7      	ldr	r7, [r6, #8]
878034c0:	f106 0044 	add.w	r0, r6, #68	; 0x44
878034c4:	fa05 f203 	lsl.w	r2, r5, r3
878034c8:	eb03 0383 	add.w	r3, r3, r3, lsl #2
878034cc:	433a      	orrs	r2, r7
878034ce:	eb00 0083 	add.w	r0, r0, r3, lsl #2
878034d2:	60b2      	str	r2, [r6, #8]
878034d4:	f7fe fd9c 	bl	87802010 <vListInsertEnd>
878034d8:	6aa3      	ldr	r3, [r4, #40]	; 0x28
878034da:	b183      	cbz	r3, 878034fe <xTaskGenericNotify+0xa2>
878034dc:	f000 fd4a 	bl	87803f74 <ulPortSetInterruptMask>
878034e0:	e7fe      	b.n	878034e0 <xTaskGenericNotify+0x84>
878034e2:	6f23      	ldr	r3, [r4, #112]	; 0x70
878034e4:	431f      	orrs	r7, r3
878034e6:	6727      	str	r7, [r4, #112]	; 0x70
878034e8:	e7d2      	b.n	87803490 <xTaskGenericNotify+0x34>
878034ea:	2d02      	cmp	r5, #2
878034ec:	d1cf      	bne.n	8780348e <xTaskGenericNotify+0x32>
878034ee:	2500      	movs	r5, #0
878034f0:	f000 fd00 	bl	87803ef4 <vPortExitCritical>
878034f4:	4628      	mov	r0, r5
878034f6:	bdf8      	pop	{r3, r4, r5, r6, r7, pc}
878034f8:	f000 fd3c 	bl	87803f74 <ulPortSetInterruptMask>
878034fc:	e7fe      	b.n	878034fc <xTaskGenericNotify+0xa0>
878034fe:	6873      	ldr	r3, [r6, #4]
87803500:	6ae2      	ldr	r2, [r4, #44]	; 0x2c
87803502:	6adb      	ldr	r3, [r3, #44]	; 0x2c
87803504:	429a      	cmp	r2, r3
87803506:	d9c5      	bls.n	87803494 <xTaskGenericNotify+0x38>
87803508:	df00      	svc	0
8780350a:	f000 fcf3 	bl	87803ef4 <vPortExitCritical>
8780350e:	4628      	mov	r0, r5
87803510:	bdf8      	pop	{r3, r4, r5, r6, r7, pc}
87803512:	bf00      	nop

87803514 <xTaskGenericNotifyFromISR>:
87803514:	e92d 43f8 	stmdb	sp!, {r3, r4, r5, r6, r7, r8, r9, lr}
87803518:	f8dd 8020 	ldr.w	r8, [sp, #32]
8780351c:	2800      	cmp	r0, #0
8780351e:	d03a      	beq.n	87803596 <xTaskGenericNotifyFromISR+0x82>
87803520:	461e      	mov	r6, r3
87803522:	4689      	mov	r9, r1
87803524:	4615      	mov	r5, r2
87803526:	4604      	mov	r4, r0
87803528:	f000 fd40 	bl	87803fac <vPortValidateInterruptPriority>
8780352c:	f000 fd22 	bl	87803f74 <ulPortSetInterruptMask>
87803530:	4607      	mov	r7, r0
87803532:	b10e      	cbz	r6, 87803538 <xTaskGenericNotifyFromISR+0x24>
87803534:	6f23      	ldr	r3, [r4, #112]	; 0x70
87803536:	6033      	str	r3, [r6, #0]
87803538:	f894 6074 	ldrb.w	r6, [r4, #116]	; 0x74
8780353c:	2202      	movs	r2, #2
8780353e:	1e6b      	subs	r3, r5, #1
87803540:	f884 2074 	strb.w	r2, [r4, #116]	; 0x74
87803544:	b2f6      	uxtb	r6, r6
87803546:	2b03      	cmp	r3, #3
87803548:	d805      	bhi.n	87803556 <xTaskGenericNotifyFromISR+0x42>
8780354a:	e8df f003 	tbb	[pc, r3]
8780354e:	1b021216 	blne	87887dae <__DATA_END+0x812e6>
87803552:	f8c4 9070 	str.w	r9, [r4, #112]	; 0x70
87803556:	2e01      	cmp	r6, #1
87803558:	d104      	bne.n	87803564 <xTaskGenericNotifyFromISR+0x50>
8780355a:	6aa3      	ldr	r3, [r4, #40]	; 0x28
8780355c:	b1f3      	cbz	r3, 8780359c <xTaskGenericNotifyFromISR+0x88>
8780355e:	f000 fd09 	bl	87803f74 <ulPortSetInterruptMask>
87803562:	e7fe      	b.n	87803562 <xTaskGenericNotifyFromISR+0x4e>
87803564:	4638      	mov	r0, r7
87803566:	2401      	movs	r4, #1
87803568:	f000 fcee 	bl	87803f48 <vPortClearInterruptMask>
8780356c:	4620      	mov	r0, r4
8780356e:	e8bd 83f8 	ldmia.w	sp!, {r3, r4, r5, r6, r7, r8, r9, pc}
87803572:	6f23      	ldr	r3, [r4, #112]	; 0x70
87803574:	3301      	adds	r3, #1
87803576:	6723      	str	r3, [r4, #112]	; 0x70
87803578:	e7ed      	b.n	87803556 <xTaskGenericNotifyFromISR+0x42>
8780357a:	6f23      	ldr	r3, [r4, #112]	; 0x70
8780357c:	ea43 0309 	orr.w	r3, r3, r9
87803580:	6723      	str	r3, [r4, #112]	; 0x70
87803582:	e7e8      	b.n	87803556 <xTaskGenericNotifyFromISR+0x42>
87803584:	2e02      	cmp	r6, #2
87803586:	d1e4      	bne.n	87803552 <xTaskGenericNotifyFromISR+0x3e>
87803588:	4638      	mov	r0, r7
8780358a:	2400      	movs	r4, #0
8780358c:	f000 fcdc 	bl	87803f48 <vPortClearInterruptMask>
87803590:	4620      	mov	r0, r4
87803592:	e8bd 83f8 	ldmia.w	sp!, {r3, r4, r5, r6, r7, r8, r9, pc}
87803596:	f000 fced 	bl	87803f74 <ulPortSetInterruptMask>
8780359a:	e7fe      	b.n	8780359a <xTaskGenericNotifyFromISR+0x86>
8780359c:	f240 1508 	movw	r5, #264	; 0x108
878035a0:	f6c8 0500 	movt	r5, #34816	; 0x8800
878035a4:	f8d5 30f0 	ldr.w	r3, [r5, #240]	; 0xf0
878035a8:	bb33      	cbnz	r3, 878035f8 <xTaskGenericNotifyFromISR+0xe4>
878035aa:	f104 0904 	add.w	r9, r4, #4
878035ae:	4648      	mov	r0, r9
878035b0:	f7fe fd58 	bl	87802064 <uxListRemove>
878035b4:	6ae2      	ldr	r2, [r4, #44]	; 0x2c
878035b6:	f105 0044 	add.w	r0, r5, #68	; 0x44
878035ba:	f8d5 e008 	ldr.w	lr, [r5, #8]
878035be:	4649      	mov	r1, r9
878035c0:	fa06 f302 	lsl.w	r3, r6, r2
878035c4:	eb02 0282 	add.w	r2, r2, r2, lsl #2
878035c8:	ea43 030e 	orr.w	r3, r3, lr
878035cc:	eb00 0082 	add.w	r0, r0, r2, lsl #2
878035d0:	60ab      	str	r3, [r5, #8]
878035d2:	f7fe fd1d 	bl	87802010 <vListInsertEnd>
878035d6:	686b      	ldr	r3, [r5, #4]
878035d8:	6ae2      	ldr	r2, [r4, #44]	; 0x2c
878035da:	6adb      	ldr	r3, [r3, #44]	; 0x2c
878035dc:	429a      	cmp	r2, r3
878035de:	d9c1      	bls.n	87803564 <xTaskGenericNotifyFromISR+0x50>
878035e0:	2401      	movs	r4, #1
878035e2:	f1b8 0f00 	cmp.w	r8, #0
878035e6:	d00e      	beq.n	87803606 <xTaskGenericNotifyFromISR+0xf2>
878035e8:	4638      	mov	r0, r7
878035ea:	f8c8 4000 	str.w	r4, [r8]
878035ee:	f000 fcab 	bl	87803f48 <vPortClearInterruptMask>
878035f2:	4620      	mov	r0, r4
878035f4:	e8bd 83f8 	ldmia.w	sp!, {r3, r4, r5, r6, r7, r8, r9, pc}
878035f8:	f104 0118 	add.w	r1, r4, #24
878035fc:	f105 002c 	add.w	r0, r5, #44	; 0x2c
87803600:	f7fe fd06 	bl	87802010 <vListInsertEnd>
87803604:	e7e7      	b.n	878035d6 <xTaskGenericNotifyFromISR+0xc2>
87803606:	4638      	mov	r0, r7
87803608:	f8c5 4100 	str.w	r4, [r5, #256]	; 0x100
8780360c:	f000 fc9c 	bl	87803f48 <vPortClearInterruptMask>
87803610:	4620      	mov	r0, r4
87803612:	e8bd 83f8 	ldmia.w	sp!, {r3, r4, r5, r6, r7, r8, r9, pc}
87803616:	bf00      	nop

87803618 <vTaskNotifyGiveFromISR>:
87803618:	e92d 43f8 	stmdb	sp!, {r3, r4, r5, r6, r7, r8, r9, lr}
8780361c:	2800      	cmp	r0, #0
8780361e:	d040      	beq.n	878036a2 <vTaskNotifyGiveFromISR+0x8a>
87803620:	4604      	mov	r4, r0
87803622:	460f      	mov	r7, r1
87803624:	f000 fcc2 	bl	87803fac <vPortValidateInterruptPriority>
87803628:	f000 fca4 	bl	87803f74 <ulPortSetInterruptMask>
8780362c:	f894 6074 	ldrb.w	r6, [r4, #116]	; 0x74
87803630:	2302      	movs	r3, #2
87803632:	f884 3074 	strb.w	r3, [r4, #116]	; 0x74
87803636:	4680      	mov	r8, r0
87803638:	6f23      	ldr	r3, [r4, #112]	; 0x70
8780363a:	b2f6      	uxtb	r6, r6
8780363c:	3301      	adds	r3, #1
8780363e:	2e01      	cmp	r6, #1
87803640:	6723      	str	r3, [r4, #112]	; 0x70
87803642:	d129      	bne.n	87803698 <vTaskNotifyGiveFromISR+0x80>
87803644:	6aa3      	ldr	r3, [r4, #40]	; 0x28
87803646:	b113      	cbz	r3, 8780364e <vTaskNotifyGiveFromISR+0x36>
87803648:	f000 fc94 	bl	87803f74 <ulPortSetInterruptMask>
8780364c:	e7fe      	b.n	8780364c <vTaskNotifyGiveFromISR+0x34>
8780364e:	f240 1508 	movw	r5, #264	; 0x108
87803652:	f6c8 0500 	movt	r5, #34816	; 0x8800
87803656:	f8d5 30f0 	ldr.w	r3, [r5, #240]	; 0xf0
8780365a:	bb2b      	cbnz	r3, 878036a8 <vTaskNotifyGiveFromISR+0x90>
8780365c:	f104 0904 	add.w	r9, r4, #4
87803660:	4648      	mov	r0, r9
87803662:	f7fe fcff 	bl	87802064 <uxListRemove>
87803666:	6ae2      	ldr	r2, [r4, #44]	; 0x2c
87803668:	f105 0044 	add.w	r0, r5, #68	; 0x44
8780366c:	f8d5 e008 	ldr.w	lr, [r5, #8]
87803670:	4649      	mov	r1, r9
87803672:	fa06 f302 	lsl.w	r3, r6, r2
87803676:	eb02 0282 	add.w	r2, r2, r2, lsl #2
8780367a:	ea43 030e 	orr.w	r3, r3, lr
8780367e:	eb00 0082 	add.w	r0, r0, r2, lsl #2
87803682:	60ab      	str	r3, [r5, #8]
87803684:	f7fe fcc4 	bl	87802010 <vListInsertEnd>
87803688:	686b      	ldr	r3, [r5, #4]
8780368a:	6ae2      	ldr	r2, [r4, #44]	; 0x2c
8780368c:	6adb      	ldr	r3, [r3, #44]	; 0x2c
8780368e:	429a      	cmp	r2, r3
87803690:	d902      	bls.n	87803698 <vTaskNotifyGiveFromISR+0x80>
87803692:	2301      	movs	r3, #1
87803694:	b17f      	cbz	r7, 878036b6 <vTaskNotifyGiveFromISR+0x9e>
87803696:	603b      	str	r3, [r7, #0]
87803698:	4640      	mov	r0, r8
8780369a:	e8bd 43f8 	ldmia.w	sp!, {r3, r4, r5, r6, r7, r8, r9, lr}
8780369e:	f000 bc53 	b.w	87803f48 <vPortClearInterruptMask>
878036a2:	f000 fc67 	bl	87803f74 <ulPortSetInterruptMask>
878036a6:	e7fe      	b.n	878036a6 <vTaskNotifyGiveFromISR+0x8e>
878036a8:	f104 0118 	add.w	r1, r4, #24
878036ac:	f105 002c 	add.w	r0, r5, #44	; 0x2c
878036b0:	f7fe fcae 	bl	87802010 <vListInsertEnd>
878036b4:	e7e8      	b.n	87803688 <vTaskNotifyGiveFromISR+0x70>
878036b6:	f8c5 3100 	str.w	r3, [r5, #256]	; 0x100
878036ba:	4640      	mov	r0, r8
878036bc:	e8bd 43f8 	ldmia.w	sp!, {r3, r4, r5, r6, r7, r8, r9, lr}
878036c0:	f000 bc42 	b.w	87803f48 <vPortClearInterruptMask>

878036c4 <xTaskNotifyStateClear>:
878036c4:	b538      	push	{r3, r4, r5, lr}
878036c6:	4604      	mov	r4, r0
878036c8:	b170      	cbz	r0, 878036e8 <xTaskNotifyStateClear+0x24>
878036ca:	f000 fbd1 	bl	87803e70 <vPortEnterCritical>
878036ce:	f894 3074 	ldrb.w	r3, [r4, #116]	; 0x74
878036d2:	2b02      	cmp	r3, #2
878036d4:	bf05      	ittet	eq
878036d6:	2300      	moveq	r3, #0
878036d8:	2501      	moveq	r5, #1
878036da:	2500      	movne	r5, #0
878036dc:	f884 3074 	strbeq.w	r3, [r4, #116]	; 0x74
878036e0:	f000 fc08 	bl	87803ef4 <vPortExitCritical>
878036e4:	4628      	mov	r0, r5
878036e6:	bd38      	pop	{r3, r4, r5, pc}
878036e8:	f240 1308 	movw	r3, #264	; 0x108
878036ec:	f6c8 0300 	movt	r3, #34816	; 0x8800
878036f0:	685c      	ldr	r4, [r3, #4]
878036f2:	e7ea      	b.n	878036ca <xTaskNotifyStateClear+0x6>

878036f4 <prvCheckForValidListAndQueue>:
878036f4:	b5f8      	push	{r3, r4, r5, r6, r7, lr}
878036f6:	f240 240c 	movw	r4, #524	; 0x20c
878036fa:	f6c8 0400 	movt	r4, #34816	; 0x8800
878036fe:	f000 fbb7 	bl	87803e70 <vPortEnterCritical>
87803702:	6825      	ldr	r5, [r4, #0]
87803704:	b11d      	cbz	r5, 8780370e <prvCheckForValidListAndQueue+0x1a>
87803706:	e8bd 40f8 	ldmia.w	sp!, {r3, r4, r5, r6, r7, lr}
8780370a:	f000 bbf3 	b.w	87803ef4 <vPortExitCritical>
8780370e:	1d27      	adds	r7, r4, #4
87803710:	f104 0618 	add.w	r6, r4, #24
87803714:	4638      	mov	r0, r7
87803716:	f7fe fc6b 	bl	87801ff0 <vListInitialise>
8780371a:	4630      	mov	r0, r6
8780371c:	f7fe fc68 	bl	87801ff0 <vListInitialise>
87803720:	462a      	mov	r2, r5
87803722:	2110      	movs	r1, #16
87803724:	200a      	movs	r0, #10
87803726:	62e7      	str	r7, [r4, #44]	; 0x2c
87803728:	6326      	str	r6, [r4, #48]	; 0x30
8780372a:	f7fe f8b5 	bl	87801898 <xQueueGenericCreate>
8780372e:	6020      	str	r0, [r4, #0]
87803730:	2800      	cmp	r0, #0
87803732:	d0e8      	beq.n	87803706 <prvCheckForValidListAndQueue+0x12>
87803734:	f646 11a4 	movw	r1, #27044	; 0x69a4
87803738:	f2c8 7180 	movt	r1, #34688	; 0x8780
8780373c:	f7fe fbec 	bl	87801f18 <vQueueAddToRegistry>
87803740:	e7e1      	b.n	87803706 <prvCheckForValidListAndQueue+0x12>
87803742:	bf00      	nop

87803744 <prvInsertTimerInActiveList>:
87803744:	4291      	cmp	r1, r2
87803746:	b510      	push	{r4, lr}
87803748:	6100      	str	r0, [r0, #16]
8780374a:	6041      	str	r1, [r0, #4]
8780374c:	d805      	bhi.n	8780375a <prvInsertTimerInActiveList+0x16>
8780374e:	6981      	ldr	r1, [r0, #24]
87803750:	1ad2      	subs	r2, r2, r3
87803752:	428a      	cmp	r2, r1
87803754:	d314      	bcc.n	87803780 <prvInsertTimerInActiveList+0x3c>
87803756:	2001      	movs	r0, #1
87803758:	bd10      	pop	{r4, pc}
8780375a:	429a      	cmp	r2, r3
8780375c:	bf34      	ite	cc
8780375e:	2401      	movcc	r4, #1
87803760:	2400      	movcs	r4, #0
87803762:	4299      	cmp	r1, r3
87803764:	bf38      	it	cc
87803766:	2400      	movcc	r4, #0
87803768:	2c00      	cmp	r4, #0
8780376a:	d1f4      	bne.n	87803756 <prvInsertTimerInActiveList+0x12>
8780376c:	f240 230c 	movw	r3, #524	; 0x20c
87803770:	1d01      	adds	r1, r0, #4
87803772:	f6c8 0300 	movt	r3, #34816	; 0x8800
87803776:	6ad8      	ldr	r0, [r3, #44]	; 0x2c
87803778:	f7fe fc5a 	bl	87802030 <vListInsert>
8780377c:	4620      	mov	r0, r4
8780377e:	bd10      	pop	{r4, pc}
87803780:	f240 230c 	movw	r3, #524	; 0x20c
87803784:	1d01      	adds	r1, r0, #4
87803786:	f6c8 0300 	movt	r3, #34816	; 0x8800
8780378a:	6b18      	ldr	r0, [r3, #48]	; 0x30
8780378c:	f7fe fc50 	bl	87802030 <vListInsert>
87803790:	2000      	movs	r0, #0
87803792:	bd10      	pop	{r4, pc}

87803794 <xTimerCreateTimerTask>:
87803794:	b500      	push	{lr}
87803796:	b083      	sub	sp, #12
87803798:	f7ff ffac 	bl	878036f4 <prvCheckForValidListAndQueue>
8780379c:	f240 230c 	movw	r3, #524	; 0x20c
878037a0:	f6c8 0300 	movt	r3, #34816	; 0x8800
878037a4:	681a      	ldr	r2, [r3, #0]
878037a6:	b19a      	cbz	r2, 878037d0 <xTimerCreateTimerTask+0x3c>
878037a8:	3334      	adds	r3, #52	; 0x34
878037aa:	2204      	movs	r2, #4
878037ac:	f646 11ac 	movw	r1, #27052	; 0x69ac
878037b0:	f643 00d9 	movw	r0, #14553	; 0x38d9
878037b4:	9301      	str	r3, [sp, #4]
878037b6:	f2c8 7180 	movt	r1, #34688	; 0x8780
878037ba:	9200      	str	r2, [sp, #0]
878037bc:	f2c8 7080 	movt	r0, #34688	; 0x8780
878037c0:	2300      	movs	r3, #0
878037c2:	22b4      	movs	r2, #180	; 0xb4
878037c4:	f7fe fe28 	bl	87802418 <xTaskCreate>
878037c8:	b110      	cbz	r0, 878037d0 <xTimerCreateTimerTask+0x3c>
878037ca:	b003      	add	sp, #12
878037cc:	f85d fb04 	ldr.w	pc, [sp], #4
878037d0:	f000 fbd0 	bl	87803f74 <ulPortSetInterruptMask>
878037d4:	e7fe      	b.n	878037d4 <xTimerCreateTimerTask+0x40>
878037d6:	bf00      	nop

878037d8 <xTimerCreate>:
878037d8:	e92d 42f0 	stmdb	sp!, {r4, r5, r6, r7, r9, lr}
878037dc:	4681      	mov	r9, r0
878037de:	202c      	movs	r0, #44	; 0x2c
878037e0:	460d      	mov	r5, r1
878037e2:	4616      	mov	r6, r2
878037e4:	461f      	mov	r7, r3
878037e6:	f000 fc67 	bl	878040b8 <pvPortMalloc>
878037ea:	4604      	mov	r4, r0
878037ec:	b160      	cbz	r0, 87803808 <xTimerCreate+0x30>
878037ee:	b175      	cbz	r5, 8780380e <xTimerCreate+0x36>
878037f0:	f7ff ff80 	bl	878036f4 <prvCheckForValidListAndQueue>
878037f4:	9b06      	ldr	r3, [sp, #24]
878037f6:	1d20      	adds	r0, r4, #4
878037f8:	f8c4 9000 	str.w	r9, [r4]
878037fc:	61a5      	str	r5, [r4, #24]
878037fe:	61e6      	str	r6, [r4, #28]
87803800:	6227      	str	r7, [r4, #32]
87803802:	6263      	str	r3, [r4, #36]	; 0x24
87803804:	f7fe fc00 	bl	87802008 <vListInitialiseItem>
87803808:	4620      	mov	r0, r4
8780380a:	e8bd 82f0 	ldmia.w	sp!, {r4, r5, r6, r7, r9, pc}
8780380e:	f000 fbb1 	bl	87803f74 <ulPortSetInterruptMask>
87803812:	e7fe      	b.n	87803812 <xTimerCreate+0x3a>

87803814 <xTimerGenericCommand>:
87803814:	b530      	push	{r4, r5, lr}
87803816:	b085      	sub	sp, #20
87803818:	b308      	cbz	r0, 8780385e <xTimerGenericCommand+0x4a>
8780381a:	f240 240c 	movw	r4, #524	; 0x20c
8780381e:	4605      	mov	r5, r0
87803820:	f6c8 0400 	movt	r4, #34816	; 0x8800
87803824:	6820      	ldr	r0, [r4, #0]
87803826:	b188      	cbz	r0, 8780384c <xTimerGenericCommand+0x38>
87803828:	2905      	cmp	r1, #5
8780382a:	e88d 0026 	stmia.w	sp, {r1, r2, r5}
8780382e:	dc0f      	bgt.n	87803850 <xTimerGenericCommand+0x3c>
87803830:	f7ff fce8 	bl	87803204 <xTaskGetSchedulerState>
87803834:	2802      	cmp	r0, #2
87803836:	4669      	mov	r1, sp
87803838:	bf11      	iteee	ne
8780383a:	2300      	movne	r3, #0
8780383c:	6820      	ldreq	r0, [r4, #0]
8780383e:	2300      	moveq	r3, #0
87803840:	9a08      	ldreq	r2, [sp, #32]
87803842:	bf1c      	itt	ne
87803844:	6820      	ldrne	r0, [r4, #0]
87803846:	461a      	movne	r2, r3
87803848:	f7fe f858 	bl	878018fc <xQueueGenericSend>
8780384c:	b005      	add	sp, #20
8780384e:	bd30      	pop	{r4, r5, pc}
87803850:	461a      	mov	r2, r3
87803852:	4669      	mov	r1, sp
87803854:	2300      	movs	r3, #0
87803856:	f7fe f91d 	bl	87801a94 <xQueueGenericSendFromISR>
8780385a:	b005      	add	sp, #20
8780385c:	bd30      	pop	{r4, r5, pc}
8780385e:	f000 fb89 	bl	87803f74 <ulPortSetInterruptMask>
87803862:	e7fe      	b.n	87803862 <xTimerGenericCommand+0x4e>

87803864 <prvSwitchTimerLists>:
87803864:	e92d 41f0 	stmdb	sp!, {r4, r5, r6, r7, r8, lr}
87803868:	f240 260c 	movw	r6, #524	; 0x20c
8780386c:	b082      	sub	sp, #8
8780386e:	f04f 0800 	mov.w	r8, #0
87803872:	f6c8 0600 	movt	r6, #34816	; 0x8800
87803876:	e00c      	b.n	87803892 <prvSwitchTimerLists+0x2e>
87803878:	68db      	ldr	r3, [r3, #12]
8780387a:	68dc      	ldr	r4, [r3, #12]
8780387c:	681f      	ldr	r7, [r3, #0]
8780387e:	1d25      	adds	r5, r4, #4
87803880:	4628      	mov	r0, r5
87803882:	f7fe fbef 	bl	87802064 <uxListRemove>
87803886:	6a63      	ldr	r3, [r4, #36]	; 0x24
87803888:	4620      	mov	r0, r4
8780388a:	4798      	blx	r3
8780388c:	69e3      	ldr	r3, [r4, #28]
8780388e:	2b01      	cmp	r3, #1
87803890:	d009      	beq.n	878038a6 <prvSwitchTimerLists+0x42>
87803892:	6af3      	ldr	r3, [r6, #44]	; 0x2c
87803894:	681a      	ldr	r2, [r3, #0]
87803896:	2a00      	cmp	r2, #0
87803898:	d1ee      	bne.n	87803878 <prvSwitchTimerLists+0x14>
8780389a:	6b32      	ldr	r2, [r6, #48]	; 0x30
8780389c:	6333      	str	r3, [r6, #48]	; 0x30
8780389e:	62f2      	str	r2, [r6, #44]	; 0x2c
878038a0:	b002      	add	sp, #8
878038a2:	e8bd 81f0 	ldmia.w	sp!, {r4, r5, r6, r7, r8, pc}
878038a6:	4629      	mov	r1, r5
878038a8:	69a5      	ldr	r5, [r4, #24]
878038aa:	2300      	movs	r3, #0
878038ac:	463a      	mov	r2, r7
878038ae:	4620      	mov	r0, r4
878038b0:	197d      	adds	r5, r7, r5
878038b2:	42af      	cmp	r7, r5
878038b4:	d205      	bcs.n	878038c2 <prvSwitchTimerLists+0x5e>
878038b6:	6065      	str	r5, [r4, #4]
878038b8:	6124      	str	r4, [r4, #16]
878038ba:	6af0      	ldr	r0, [r6, #44]	; 0x2c
878038bc:	f7fe fbb8 	bl	87802030 <vListInsert>
878038c0:	e7e7      	b.n	87803892 <prvSwitchTimerLists+0x2e>
878038c2:	f8cd 8000 	str.w	r8, [sp]
878038c6:	4619      	mov	r1, r3
878038c8:	f7ff ffa4 	bl	87803814 <xTimerGenericCommand>
878038cc:	2800      	cmp	r0, #0
878038ce:	d1e0      	bne.n	87803892 <prvSwitchTimerLists+0x2e>
878038d0:	f000 fb50 	bl	87803f74 <ulPortSetInterruptMask>
878038d4:	e7fe      	b.n	878038d4 <prvSwitchTimerLists+0x70>
878038d6:	bf00      	nop

878038d8 <prvTimerTask>:
878038d8:	e92d 41f0 	stmdb	sp!, {r4, r5, r6, r7, r8, lr}
878038dc:	f240 250c 	movw	r5, #524	; 0x20c
878038e0:	b086      	sub	sp, #24
878038e2:	f6c8 0500 	movt	r5, #34816	; 0x8800
878038e6:	2600      	movs	r6, #0
878038e8:	6aeb      	ldr	r3, [r5, #44]	; 0x2c
878038ea:	681c      	ldr	r4, [r3, #0]
878038ec:	2c00      	cmp	r4, #0
878038ee:	d07f      	beq.n	878039f0 <prvTimerTask+0x118>
878038f0:	68db      	ldr	r3, [r3, #12]
878038f2:	681c      	ldr	r4, [r3, #0]
878038f4:	f7ff f842 	bl	8780297c <vTaskSuspendAll>
878038f8:	f7ff f84a 	bl	87802990 <xTaskGetTickCount>
878038fc:	6bab      	ldr	r3, [r5, #56]	; 0x38
878038fe:	4607      	mov	r7, r0
87803900:	4298      	cmp	r0, r3
87803902:	f0c0 8084 	bcc.w	87803a0e <prvTimerTask+0x136>
87803906:	4284      	cmp	r4, r0
87803908:	63a8      	str	r0, [r5, #56]	; 0x38
8780390a:	bf88      	it	hi
8780390c:	2200      	movhi	r2, #0
8780390e:	f240 8087 	bls.w	87803a20 <prvTimerTask+0x148>
87803912:	1be1      	subs	r1, r4, r7
87803914:	6828      	ldr	r0, [r5, #0]
87803916:	f7fe fb47 	bl	87801fa8 <vQueueWaitForMessageRestricted>
8780391a:	f7ff f8db 	bl	87802ad4 <xTaskResumeAll>
8780391e:	b900      	cbnz	r0, 87803922 <prvTimerTask+0x4a>
87803920:	df00      	svc	0
87803922:	2300      	movs	r3, #0
87803924:	a902      	add	r1, sp, #8
87803926:	461a      	mov	r2, r3
87803928:	6828      	ldr	r0, [r5, #0]
8780392a:	f7fe f953 	bl	87801bd4 <xQueueGenericReceive>
8780392e:	2800      	cmp	r0, #0
87803930:	d0da      	beq.n	878038e8 <prvTimerTask+0x10>
87803932:	9b02      	ldr	r3, [sp, #8]
87803934:	2b00      	cmp	r3, #0
87803936:	db53      	blt.n	878039e0 <prvTimerTask+0x108>
87803938:	9c04      	ldr	r4, [sp, #16]
8780393a:	6963      	ldr	r3, [r4, #20]
8780393c:	b113      	cbz	r3, 87803944 <prvTimerTask+0x6c>
8780393e:	1d20      	adds	r0, r4, #4
87803940:	f7fe fb90 	bl	87802064 <uxListRemove>
87803944:	f7ff f824 	bl	87802990 <xTaskGetTickCount>
87803948:	6bab      	ldr	r3, [r5, #56]	; 0x38
8780394a:	4607      	mov	r7, r0
8780394c:	4298      	cmp	r0, r3
8780394e:	d364      	bcc.n	87803a1a <prvTimerTask+0x142>
87803950:	9b02      	ldr	r3, [sp, #8]
87803952:	63af      	str	r7, [r5, #56]	; 0x38
87803954:	2b09      	cmp	r3, #9
87803956:	d8e4      	bhi.n	87803922 <prvTimerTask+0x4a>
87803958:	a201      	add	r2, pc, #4	; (adr r2, 87803960 <prvTimerTask+0x88>)
8780395a:	f852 f023 	ldr.w	pc, [r2, r3, lsl #2]
8780395e:	bf00      	nop
87803960:	8780399f 			; <UNDEFINED> instruction: 0x8780399f
87803964:	8780399f 			; <UNDEFINED> instruction: 0x8780399f
87803968:	8780399f 			; <UNDEFINED> instruction: 0x8780399f
8780396c:	87803923 	strhi	r3, [r0, r3, lsr #18]
87803970:	87803989 	strhi	r3, [r0, r9, lsl #19]
87803974:	878039d9 			; <UNDEFINED> instruction: 0x878039d9
87803978:	8780399f 			; <UNDEFINED> instruction: 0x8780399f
8780397c:	8780399f 			; <UNDEFINED> instruction: 0x8780399f
87803980:	87803923 	strhi	r3, [r0, r3, lsr #18]
87803984:	87803989 	strhi	r3, [r0, r9, lsl #19]
87803988:	9903      	ldr	r1, [sp, #12]
8780398a:	61a1      	str	r1, [r4, #24]
8780398c:	2900      	cmp	r1, #0
8780398e:	d070      	beq.n	87803a72 <prvTimerTask+0x19a>
87803990:	4439      	add	r1, r7
87803992:	4620      	mov	r0, r4
87803994:	463b      	mov	r3, r7
87803996:	463a      	mov	r2, r7
87803998:	f7ff fed4 	bl	87803744 <prvInsertTimerInActiveList>
8780399c:	e7c1      	b.n	87803922 <prvTimerTask+0x4a>
8780399e:	9b03      	ldr	r3, [sp, #12]
878039a0:	463a      	mov	r2, r7
878039a2:	69a1      	ldr	r1, [r4, #24]
878039a4:	4620      	mov	r0, r4
878039a6:	4419      	add	r1, r3
878039a8:	f7ff fecc 	bl	87803744 <prvInsertTimerInActiveList>
878039ac:	2800      	cmp	r0, #0
878039ae:	d0b8      	beq.n	87803922 <prvTimerTask+0x4a>
878039b0:	6a63      	ldr	r3, [r4, #36]	; 0x24
878039b2:	4620      	mov	r0, r4
878039b4:	4798      	blx	r3
878039b6:	69e3      	ldr	r3, [r4, #28]
878039b8:	2b01      	cmp	r3, #1
878039ba:	d1b2      	bne.n	87803922 <prvTimerTask+0x4a>
878039bc:	69a2      	ldr	r2, [r4, #24]
878039be:	2300      	movs	r3, #0
878039c0:	9f03      	ldr	r7, [sp, #12]
878039c2:	4620      	mov	r0, r4
878039c4:	9600      	str	r6, [sp, #0]
878039c6:	4619      	mov	r1, r3
878039c8:	443a      	add	r2, r7
878039ca:	f7ff ff23 	bl	87803814 <xTimerGenericCommand>
878039ce:	2800      	cmp	r0, #0
878039d0:	d1a7      	bne.n	87803922 <prvTimerTask+0x4a>
878039d2:	f000 facf 	bl	87803f74 <ulPortSetInterruptMask>
878039d6:	e7fe      	b.n	878039d6 <prvTimerTask+0xfe>
878039d8:	4620      	mov	r0, r4
878039da:	f000 fbf9 	bl	878041d0 <vPortFree>
878039de:	e7a0      	b.n	87803922 <prvTimerTask+0x4a>
878039e0:	9b03      	ldr	r3, [sp, #12]
878039e2:	9905      	ldr	r1, [sp, #20]
878039e4:	9804      	ldr	r0, [sp, #16]
878039e6:	4798      	blx	r3
878039e8:	9b02      	ldr	r3, [sp, #8]
878039ea:	2b00      	cmp	r3, #0
878039ec:	db99      	blt.n	87803922 <prvTimerTask+0x4a>
878039ee:	e7a3      	b.n	87803938 <prvTimerTask+0x60>
878039f0:	f7fe ffc4 	bl	8780297c <vTaskSuspendAll>
878039f4:	f7fe ffcc 	bl	87802990 <xTaskGetTickCount>
878039f8:	6bab      	ldr	r3, [r5, #56]	; 0x38
878039fa:	4607      	mov	r7, r0
878039fc:	4283      	cmp	r3, r0
878039fe:	d806      	bhi.n	87803a0e <prvTimerTask+0x136>
87803a00:	6b2b      	ldr	r3, [r5, #48]	; 0x30
87803a02:	63af      	str	r7, [r5, #56]	; 0x38
87803a04:	681a      	ldr	r2, [r3, #0]
87803a06:	fab2 f282 	clz	r2, r2
87803a0a:	0952      	lsrs	r2, r2, #5
87803a0c:	e781      	b.n	87803912 <prvTimerTask+0x3a>
87803a0e:	f7ff ff29 	bl	87803864 <prvSwitchTimerLists>
87803a12:	63af      	str	r7, [r5, #56]	; 0x38
87803a14:	f7ff f85e 	bl	87802ad4 <xTaskResumeAll>
87803a18:	e783      	b.n	87803922 <prvTimerTask+0x4a>
87803a1a:	f7ff ff23 	bl	87803864 <prvSwitchTimerLists>
87803a1e:	e797      	b.n	87803950 <prvTimerTask+0x78>
87803a20:	f7ff f858 	bl	87802ad4 <xTaskResumeAll>
87803a24:	6aeb      	ldr	r3, [r5, #44]	; 0x2c
87803a26:	68db      	ldr	r3, [r3, #12]
87803a28:	f8d3 800c 	ldr.w	r8, [r3, #12]
87803a2c:	f108 0004 	add.w	r0, r8, #4
87803a30:	f7fe fb18 	bl	87802064 <uxListRemove>
87803a34:	f8d8 301c 	ldr.w	r3, [r8, #28]
87803a38:	2b01      	cmp	r3, #1
87803a3a:	d004      	beq.n	87803a46 <prvTimerTask+0x16e>
87803a3c:	f8d8 3024 	ldr.w	r3, [r8, #36]	; 0x24
87803a40:	4640      	mov	r0, r8
87803a42:	4798      	blx	r3
87803a44:	e76d      	b.n	87803922 <prvTimerTask+0x4a>
87803a46:	f8d8 1018 	ldr.w	r1, [r8, #24]
87803a4a:	463a      	mov	r2, r7
87803a4c:	4623      	mov	r3, r4
87803a4e:	4640      	mov	r0, r8
87803a50:	4421      	add	r1, r4
87803a52:	f7ff fe77 	bl	87803744 <prvInsertTimerInActiveList>
87803a56:	2800      	cmp	r0, #0
87803a58:	d0f0      	beq.n	87803a3c <prvTimerTask+0x164>
87803a5a:	2300      	movs	r3, #0
87803a5c:	9600      	str	r6, [sp, #0]
87803a5e:	4622      	mov	r2, r4
87803a60:	4619      	mov	r1, r3
87803a62:	4640      	mov	r0, r8
87803a64:	f7ff fed6 	bl	87803814 <xTimerGenericCommand>
87803a68:	2800      	cmp	r0, #0
87803a6a:	d1e7      	bne.n	87803a3c <prvTimerTask+0x164>
87803a6c:	f000 fa82 	bl	87803f74 <ulPortSetInterruptMask>
87803a70:	e7fe      	b.n	87803a70 <prvTimerTask+0x198>
87803a72:	f000 fa7f 	bl	87803f74 <ulPortSetInterruptMask>
87803a76:	e7fe      	b.n	87803a76 <prvTimerTask+0x19e>

87803a78 <xTimerGetTimerDaemonTaskHandle>:
87803a78:	b508      	push	{r3, lr}
87803a7a:	f240 230c 	movw	r3, #524	; 0x20c
87803a7e:	f6c8 0300 	movt	r3, #34816	; 0x8800
87803a82:	6b58      	ldr	r0, [r3, #52]	; 0x34
87803a84:	b100      	cbz	r0, 87803a88 <xTimerGetTimerDaemonTaskHandle+0x10>
87803a86:	bd08      	pop	{r3, pc}
87803a88:	f000 fa74 	bl	87803f74 <ulPortSetInterruptMask>
87803a8c:	e7fe      	b.n	87803a8c <xTimerGetTimerDaemonTaskHandle+0x14>
87803a8e:	bf00      	nop

87803a90 <xTimerGetPeriod>:
87803a90:	b108      	cbz	r0, 87803a96 <xTimerGetPeriod+0x6>
87803a92:	6980      	ldr	r0, [r0, #24]
87803a94:	4770      	bx	lr
87803a96:	b508      	push	{r3, lr}
87803a98:	f000 fa6c 	bl	87803f74 <ulPortSetInterruptMask>
87803a9c:	e7fe      	b.n	87803a9c <xTimerGetPeriod+0xc>
87803a9e:	bf00      	nop

87803aa0 <xTimerGetExpiryTime>:
87803aa0:	b108      	cbz	r0, 87803aa6 <xTimerGetExpiryTime+0x6>
87803aa2:	6840      	ldr	r0, [r0, #4]
87803aa4:	4770      	bx	lr
87803aa6:	b508      	push	{r3, lr}
87803aa8:	f000 fa64 	bl	87803f74 <ulPortSetInterruptMask>
87803aac:	e7fe      	b.n	87803aac <xTimerGetExpiryTime+0xc>
87803aae:	bf00      	nop

87803ab0 <pcTimerGetName>:
87803ab0:	b108      	cbz	r0, 87803ab6 <pcTimerGetName+0x6>
87803ab2:	6800      	ldr	r0, [r0, #0]
87803ab4:	4770      	bx	lr
87803ab6:	b508      	push	{r3, lr}
87803ab8:	f000 fa5c 	bl	87803f74 <ulPortSetInterruptMask>
87803abc:	e7fe      	b.n	87803abc <pcTimerGetName+0xc>
87803abe:	bf00      	nop

87803ac0 <xTimerIsTimerActive>:
87803ac0:	b510      	push	{r4, lr}
87803ac2:	b150      	cbz	r0, 87803ada <xTimerIsTimerActive+0x1a>
87803ac4:	4604      	mov	r4, r0
87803ac6:	f000 f9d3 	bl	87803e70 <vPortEnterCritical>
87803aca:	6964      	ldr	r4, [r4, #20]
87803acc:	3400      	adds	r4, #0
87803ace:	bf18      	it	ne
87803ad0:	2401      	movne	r4, #1
87803ad2:	f000 fa0f 	bl	87803ef4 <vPortExitCritical>
87803ad6:	4620      	mov	r0, r4
87803ad8:	bd10      	pop	{r4, pc}
87803ada:	f000 fa4b 	bl	87803f74 <ulPortSetInterruptMask>
87803ade:	e7fe      	b.n	87803ade <xTimerIsTimerActive+0x1e>

87803ae0 <pvTimerGetTimerID>:
87803ae0:	b510      	push	{r4, lr}
87803ae2:	b138      	cbz	r0, 87803af4 <pvTimerGetTimerID+0x14>
87803ae4:	4604      	mov	r4, r0
87803ae6:	f000 f9c3 	bl	87803e70 <vPortEnterCritical>
87803aea:	6a24      	ldr	r4, [r4, #32]
87803aec:	f000 fa02 	bl	87803ef4 <vPortExitCritical>
87803af0:	4620      	mov	r0, r4
87803af2:	bd10      	pop	{r4, pc}
87803af4:	f000 fa3e 	bl	87803f74 <ulPortSetInterruptMask>
87803af8:	e7fe      	b.n	87803af8 <pvTimerGetTimerID+0x18>
87803afa:	bf00      	nop

87803afc <vTimerSetTimerID>:
87803afc:	b538      	push	{r3, r4, r5, lr}
87803afe:	b140      	cbz	r0, 87803b12 <vTimerSetTimerID+0x16>
87803b00:	460d      	mov	r5, r1
87803b02:	4604      	mov	r4, r0
87803b04:	f000 f9b4 	bl	87803e70 <vPortEnterCritical>
87803b08:	6225      	str	r5, [r4, #32]
87803b0a:	e8bd 4038 	ldmia.w	sp!, {r3, r4, r5, lr}
87803b0e:	f000 b9f1 	b.w	87803ef4 <vPortExitCritical>
87803b12:	f000 fa2f 	bl	87803f74 <ulPortSetInterruptMask>
87803b16:	e7fe      	b.n	87803b16 <vTimerSetTimerID+0x1a>

87803b18 <xTimerPendFunctionCallFromISR>:
87803b18:	b570      	push	{r4, r5, r6, lr}
87803b1a:	f240 240c 	movw	r4, #524	; 0x20c
87803b1e:	b084      	sub	sp, #16
87803b20:	461e      	mov	r6, r3
87803b22:	f6c8 0400 	movt	r4, #34816	; 0x8800
87803b26:	f06f 0501 	mvn.w	r5, #1
87803b2a:	9001      	str	r0, [sp, #4]
87803b2c:	2300      	movs	r3, #0
87803b2e:	9102      	str	r1, [sp, #8]
87803b30:	4669      	mov	r1, sp
87803b32:	9203      	str	r2, [sp, #12]
87803b34:	4632      	mov	r2, r6
87803b36:	6820      	ldr	r0, [r4, #0]
87803b38:	9500      	str	r5, [sp, #0]
87803b3a:	f7fd ffab 	bl	87801a94 <xQueueGenericSendFromISR>
87803b3e:	b004      	add	sp, #16
87803b40:	bd70      	pop	{r4, r5, r6, pc}
87803b42:	bf00      	nop

87803b44 <xTimerPendFunctionCall>:
87803b44:	b5f0      	push	{r4, r5, r6, r7, lr}
87803b46:	f240 240c 	movw	r4, #524	; 0x20c
87803b4a:	f6c8 0400 	movt	r4, #34816	; 0x8800
87803b4e:	4607      	mov	r7, r0
87803b50:	b085      	sub	sp, #20
87803b52:	6820      	ldr	r0, [r4, #0]
87803b54:	b170      	cbz	r0, 87803b74 <xTimerPendFunctionCall+0x30>
87803b56:	460e      	mov	r6, r1
87803b58:	4615      	mov	r5, r2
87803b5a:	f04f 34ff 	mov.w	r4, #4294967295	; 0xffffffff
87803b5e:	461a      	mov	r2, r3
87803b60:	4669      	mov	r1, sp
87803b62:	2300      	movs	r3, #0
87803b64:	9701      	str	r7, [sp, #4]
87803b66:	9602      	str	r6, [sp, #8]
87803b68:	9503      	str	r5, [sp, #12]
87803b6a:	9400      	str	r4, [sp, #0]
87803b6c:	f7fd fec6 	bl	878018fc <xQueueGenericSend>
87803b70:	b005      	add	sp, #20
87803b72:	bdf0      	pop	{r4, r5, r6, r7, pc}
87803b74:	f000 f9fe 	bl	87803f74 <ulPortSetInterruptMask>
87803b78:	e7fe      	b.n	87803b78 <xTimerPendFunctionCall+0x34>
87803b7a:	bf00      	nop

87803b7c <prvTaskExitError>:
87803b7c:	f240 2348 	movw	r3, #584	; 0x248
87803b80:	f6c8 0300 	movt	r3, #34816	; 0x8800
87803b84:	681b      	ldr	r3, [r3, #0]
87803b86:	3301      	adds	r3, #1
87803b88:	d017      	beq.n	87803bba <prvTaskExitError+0x3e>
87803b8a:	b672      	cpsid	i
87803b8c:	f3bf 8f4f 	dsb	sy
87803b90:	f3bf 8f6f 	isb	sy
87803b94:	f242 0304 	movw	r3, #8196	; 0x2004
87803b98:	f2c0 03a0 	movt	r3, #160	; 0xa0
87803b9c:	681a      	ldr	r2, [r3, #0]
87803b9e:	2aa0      	cmp	r2, #160	; 0xa0
87803ba0:	d005      	beq.n	87803bae <prvTaskExitError+0x32>
87803ba2:	22a0      	movs	r2, #160	; 0xa0
87803ba4:	601a      	str	r2, [r3, #0]
87803ba6:	f3bf 8f4f 	dsb	sy
87803baa:	f3bf 8f6f 	isb	sy
87803bae:	b662      	cpsie	i
87803bb0:	f3bf 8f4f 	dsb	sy
87803bb4:	f3bf 8f6f 	isb	sy
87803bb8:	e7fe      	b.n	87803bb8 <prvTaskExitError+0x3c>
87803bba:	b672      	cpsid	i
87803bbc:	f3bf 8f4f 	dsb	sy
87803bc0:	f3bf 8f6f 	isb	sy
87803bc4:	f242 0304 	movw	r3, #8196	; 0x2004
87803bc8:	f2c0 03a0 	movt	r3, #160	; 0xa0
87803bcc:	681a      	ldr	r2, [r3, #0]
87803bce:	2aa0      	cmp	r2, #160	; 0xa0
87803bd0:	d005      	beq.n	87803bde <prvTaskExitError+0x62>
87803bd2:	22a0      	movs	r2, #160	; 0xa0
87803bd4:	601a      	str	r2, [r3, #0]
87803bd6:	f3bf 8f4f 	dsb	sy
87803bda:	f3bf 8f6f 	isb	sy
87803bde:	b662      	cpsie	i
87803be0:	f3bf 8f4f 	dsb	sy
87803be4:	f3bf 8f6f 	isb	sy
87803be8:	e7fe      	b.n	87803be8 <prvTaskExitError+0x6c>
87803bea:	bf00      	nop

87803bec <FreeRTOS_Tick_Handler>:
87803bec:	b508      	push	{r3, lr}
87803bee:	b672      	cpsid	i
87803bf0:	f3bf 8f4f 	dsb	sy
87803bf4:	f3bf 8f6f 	isb	sy
87803bf8:	f242 0304 	movw	r3, #8196	; 0x2004
87803bfc:	22a0      	movs	r2, #160	; 0xa0
87803bfe:	f2c0 03a0 	movt	r3, #160	; 0xa0
87803c02:	601a      	str	r2, [r3, #0]
87803c04:	f3bf 8f4f 	dsb	sy
87803c08:	f3bf 8f6f 	isb	sy
87803c0c:	b662      	cpsie	i
87803c0e:	f3bf 8f4f 	dsb	sy
87803c12:	f3bf 8f6f 	isb	sy
87803c16:	f7fe fee1 	bl	878029dc <xTaskIncrementTick>
87803c1a:	b128      	cbz	r0, 87803c28 <FreeRTOS_Tick_Handler+0x3c>
87803c1c:	f240 2348 	movw	r3, #584	; 0x248
87803c20:	2201      	movs	r2, #1
87803c22:	f6c8 0300 	movt	r3, #34816	; 0x8800
87803c26:	605a      	str	r2, [r3, #4]
87803c28:	b672      	cpsid	i
87803c2a:	f3bf 8f4f 	dsb	sy
87803c2e:	f3bf 8f6f 	isb	sy
87803c32:	f242 0304 	movw	r3, #8196	; 0x2004
87803c36:	22ff      	movs	r2, #255	; 0xff
87803c38:	f2c0 03a0 	movt	r3, #160	; 0xa0
87803c3c:	601a      	str	r2, [r3, #0]
87803c3e:	f3bf 8f4f 	dsb	sy
87803c42:	f3bf 8f6f 	isb	sy
87803c46:	b662      	cpsie	i
87803c48:	f3bf 8f4f 	dsb	sy
87803c4c:	f3bf 8f6f 	isb	sy
87803c50:	e8bd 4008 	ldmia.w	sp!, {r3, lr}
87803c54:	f002 ba68 	b.w	87806128 <SystemClearSystickFlag>

87803c58 <pxPortInitialiseStack>:
87803c58:	4603      	mov	r3, r0
87803c5a:	f011 0f01 	tst.w	r1, #1
87803c5e:	f643 307d 	movw	r0, #15229	; 0x3b7d
87803c62:	b5f0      	push	{r4, r5, r6, r7, lr}
87803c64:	f2c8 7080 	movt	r0, #34688	; 0x8780
87803c68:	bf0c      	ite	eq
87803c6a:	f04f 0e1f 	moveq.w	lr, #31
87803c6e:	f04f 0e3f 	movne.w	lr, #63	; 0x3f
87803c72:	f04f 3712 	mov.w	r7, #303174162	; 0x12121212
87803c76:	f843 1c10 	str.w	r1, [r3, #-16]
87803c7a:	f04f 3611 	mov.w	r6, #286331153	; 0x11111111
87803c7e:	f843 2c48 	str.w	r2, [r3, #-72]
87803c82:	f04f 3510 	mov.w	r5, #269488144	; 0x10101010
87803c86:	f04f 3409 	mov.w	r4, #151587081	; 0x9090909
87803c8a:	f04f 3108 	mov.w	r1, #134744072	; 0x8080808
87803c8e:	f04f 3206 	mov.w	r2, #101058054	; 0x6060606
87803c92:	f843 ec0c 	str.w	lr, [r3, #-12]
87803c96:	f843 0c14 	str.w	r0, [r3, #-20]
87803c9a:	f04f 3e07 	mov.w	lr, #117901063	; 0x7070707
87803c9e:	f843 7c18 	str.w	r7, [r3, #-24]
87803ca2:	4618      	mov	r0, r3
87803ca4:	f843 6c1c 	str.w	r6, [r3, #-28]
87803ca8:	f04f 3705 	mov.w	r7, #84215045	; 0x5050505
87803cac:	f843 5c20 	str.w	r5, [r3, #-32]
87803cb0:	f04f 3604 	mov.w	r6, #67372036	; 0x4040404
87803cb4:	f843 4c24 	str.w	r4, [r3, #-36]
87803cb8:	f04f 3503 	mov.w	r5, #50529027	; 0x3030303
87803cbc:	f843 1c28 	str.w	r1, [r3, #-40]
87803cc0:	f04f 3402 	mov.w	r4, #33686018	; 0x2020202
87803cc4:	f843 2c30 	str.w	r2, [r3, #-48]
87803cc8:	f04f 3101 	mov.w	r1, #16843009	; 0x1010101
87803ccc:	2200      	movs	r2, #0
87803cce:	f843 ec2c 	str.w	lr, [r3, #-44]
87803cd2:	f843 7c34 	str.w	r7, [r3, #-52]
87803cd6:	f843 6c38 	str.w	r6, [r3, #-56]
87803cda:	f843 5c3c 	str.w	r5, [r3, #-60]
87803cde:	f843 4c40 	str.w	r4, [r3, #-64]
87803ce2:	f843 1c44 	str.w	r1, [r3, #-68]
87803ce6:	601a      	str	r2, [r3, #0]
87803ce8:	f843 2c04 	str.w	r2, [r3, #-4]
87803cec:	f843 2c08 	str.w	r2, [r3, #-8]
87803cf0:	f843 2c4c 	str.w	r2, [r3, #-76]
87803cf4:	f840 2d50 	str.w	r2, [r0, #-80]!
87803cf8:	bdf0      	pop	{r4, r5, r6, r7, pc}
87803cfa:	bf00      	nop

87803cfc <xPortStartScheduler>:
87803cfc:	f44f 53a0 	mov.w	r3, #5120	; 0x1400
87803d00:	b500      	push	{lr}
87803d02:	f2c0 03a0 	movt	r3, #160	; 0xa0
87803d06:	b083      	sub	sp, #12
87803d08:	21ff      	movs	r1, #255	; 0xff
87803d0a:	781a      	ldrb	r2, [r3, #0]
87803d0c:	b2d2      	uxtb	r2, r2
87803d0e:	9201      	str	r2, [sp, #4]
87803d10:	7019      	strb	r1, [r3, #0]
87803d12:	781b      	ldrb	r3, [r3, #0]
87803d14:	b2db      	uxtb	r3, r3
87803d16:	f88d 3003 	strb.w	r3, [sp, #3]
87803d1a:	f89d 3003 	ldrb.w	r3, [sp, #3]
87803d1e:	07da      	lsls	r2, r3, #31
87803d20:	d408      	bmi.n	87803d34 <xPortStartScheduler+0x38>
87803d22:	f89d 3003 	ldrb.w	r3, [sp, #3]
87803d26:	085b      	lsrs	r3, r3, #1
87803d28:	f88d 3003 	strb.w	r3, [sp, #3]
87803d2c:	f89d 3003 	ldrb.w	r3, [sp, #3]
87803d30:	07db      	lsls	r3, r3, #31
87803d32:	d5f6      	bpl.n	87803d22 <xPortStartScheduler+0x26>
87803d34:	f89d 3003 	ldrb.w	r3, [sp, #3]
87803d38:	2b1f      	cmp	r3, #31
87803d3a:	d017      	beq.n	87803d6c <xPortStartScheduler+0x70>
87803d3c:	b672      	cpsid	i
87803d3e:	f3bf 8f4f 	dsb	sy
87803d42:	f3bf 8f6f 	isb	sy
87803d46:	f242 0304 	movw	r3, #8196	; 0x2004
87803d4a:	f2c0 03a0 	movt	r3, #160	; 0xa0
87803d4e:	681a      	ldr	r2, [r3, #0]
87803d50:	2aa0      	cmp	r2, #160	; 0xa0
87803d52:	d005      	beq.n	87803d60 <xPortStartScheduler+0x64>
87803d54:	22a0      	movs	r2, #160	; 0xa0
87803d56:	601a      	str	r2, [r3, #0]
87803d58:	f3bf 8f4f 	dsb	sy
87803d5c:	f3bf 8f6f 	isb	sy
87803d60:	b662      	cpsie	i
87803d62:	f3bf 8f4f 	dsb	sy
87803d66:	f3bf 8f6f 	isb	sy
87803d6a:	e7fe      	b.n	87803d6a <xPortStartScheduler+0x6e>
87803d6c:	9b01      	ldr	r3, [sp, #4]
87803d6e:	f44f 52a0 	mov.w	r2, #5120	; 0x1400
87803d72:	f2c0 02a0 	movt	r2, #160	; 0xa0
87803d76:	b2db      	uxtb	r3, r3
87803d78:	7013      	strb	r3, [r2, #0]
87803d7a:	f3ef 8300 	mrs	r3, CPSR
87803d7e:	f003 031f 	and.w	r3, r3, #31
87803d82:	2b10      	cmp	r3, #16
87803d84:	d039      	beq.n	87803dfa <xPortStartScheduler+0xfe>
87803d86:	f242 0308 	movw	r3, #8200	; 0x2008
87803d8a:	f2c0 03a0 	movt	r3, #160	; 0xa0
87803d8e:	681a      	ldr	r2, [r3, #0]
87803d90:	f002 0203 	and.w	r2, r2, #3
87803d94:	2a03      	cmp	r2, #3
87803d96:	d117      	bne.n	87803dc8 <xPortStartScheduler+0xcc>
87803d98:	b672      	cpsid	i
87803d9a:	f3bf 8f4f 	dsb	sy
87803d9e:	f3bf 8f6f 	isb	sy
87803da2:	f242 0304 	movw	r3, #8196	; 0x2004
87803da6:	f2c0 03a0 	movt	r3, #160	; 0xa0
87803daa:	681a      	ldr	r2, [r3, #0]
87803dac:	2aa0      	cmp	r2, #160	; 0xa0
87803dae:	d005      	beq.n	87803dbc <xPortStartScheduler+0xc0>
87803db0:	22a0      	movs	r2, #160	; 0xa0
87803db2:	601a      	str	r2, [r3, #0]
87803db4:	f3bf 8f4f 	dsb	sy
87803db8:	f3bf 8f6f 	isb	sy
87803dbc:	b662      	cpsie	i
87803dbe:	f3bf 8f4f 	dsb	sy
87803dc2:	f3bf 8f6f 	isb	sy
87803dc6:	e7fe      	b.n	87803dc6 <xPortStartScheduler+0xca>
87803dc8:	681b      	ldr	r3, [r3, #0]
87803dca:	f003 0303 	and.w	r3, r3, #3
87803dce:	2b03      	cmp	r3, #3
87803dd0:	d00f      	beq.n	87803df2 <xPortStartScheduler+0xf6>
87803dd2:	b672      	cpsid	i
87803dd4:	f3bf 8f4f 	dsb	sy
87803dd8:	f3bf 8f6f 	isb	sy
87803ddc:	f643 31ed 	movw	r1, #15341	; 0x3bed
87803de0:	221e      	movs	r2, #30
87803de2:	f2c8 7180 	movt	r1, #34688	; 0x8780
87803de6:	f44f 707a 	mov.w	r0, #1000	; 0x3e8
87803dea:	f002 f8a7 	bl	87805f3c <SystemSetupSystick>
87803dee:	f7fd e95c 	blx	878010a8 <vPortRestoreTaskContext>
87803df2:	2000      	movs	r0, #0
87803df4:	b003      	add	sp, #12
87803df6:	f85d fb04 	ldr.w	pc, [sp], #4
87803dfa:	b672      	cpsid	i
87803dfc:	f3bf 8f4f 	dsb	sy
87803e00:	f3bf 8f6f 	isb	sy
87803e04:	f242 0304 	movw	r3, #8196	; 0x2004
87803e08:	f2c0 03a0 	movt	r3, #160	; 0xa0
87803e0c:	681a      	ldr	r2, [r3, #0]
87803e0e:	2aa0      	cmp	r2, #160	; 0xa0
87803e10:	d005      	beq.n	87803e1e <xPortStartScheduler+0x122>
87803e12:	22a0      	movs	r2, #160	; 0xa0
87803e14:	601a      	str	r2, [r3, #0]
87803e16:	f3bf 8f4f 	dsb	sy
87803e1a:	f3bf 8f6f 	isb	sy
87803e1e:	b662      	cpsie	i
87803e20:	f3bf 8f4f 	dsb	sy
87803e24:	f3bf 8f6f 	isb	sy
87803e28:	e7fe      	b.n	87803e28 <xPortStartScheduler+0x12c>
87803e2a:	bf00      	nop

87803e2c <vPortEndScheduler>:
87803e2c:	f240 0300 	movw	r3, #0
87803e30:	f6c8 0300 	movt	r3, #34816	; 0x8800
87803e34:	681b      	ldr	r3, [r3, #0]
87803e36:	f5b3 7f7a 	cmp.w	r3, #1000	; 0x3e8
87803e3a:	d017      	beq.n	87803e6c <vPortEndScheduler+0x40>
87803e3c:	b672      	cpsid	i
87803e3e:	f3bf 8f4f 	dsb	sy
87803e42:	f3bf 8f6f 	isb	sy
87803e46:	f242 0304 	movw	r3, #8196	; 0x2004
87803e4a:	f2c0 03a0 	movt	r3, #160	; 0xa0
87803e4e:	681a      	ldr	r2, [r3, #0]
87803e50:	2aa0      	cmp	r2, #160	; 0xa0
87803e52:	d005      	beq.n	87803e60 <vPortEndScheduler+0x34>
87803e54:	22a0      	movs	r2, #160	; 0xa0
87803e56:	601a      	str	r2, [r3, #0]
87803e58:	f3bf 8f4f 	dsb	sy
87803e5c:	f3bf 8f6f 	isb	sy
87803e60:	b662      	cpsie	i
87803e62:	f3bf 8f4f 	dsb	sy
87803e66:	f3bf 8f6f 	isb	sy
87803e6a:	e7fe      	b.n	87803e6a <vPortEndScheduler+0x3e>
87803e6c:	4770      	bx	lr
87803e6e:	bf00      	nop

87803e70 <vPortEnterCritical>:
87803e70:	b672      	cpsid	i
87803e72:	f3bf 8f4f 	dsb	sy
87803e76:	f3bf 8f6f 	isb	sy
87803e7a:	f242 0304 	movw	r3, #8196	; 0x2004
87803e7e:	f2c0 03a0 	movt	r3, #160	; 0xa0
87803e82:	681a      	ldr	r2, [r3, #0]
87803e84:	2aa0      	cmp	r2, #160	; 0xa0
87803e86:	d005      	beq.n	87803e94 <vPortEnterCritical+0x24>
87803e88:	22a0      	movs	r2, #160	; 0xa0
87803e8a:	601a      	str	r2, [r3, #0]
87803e8c:	f3bf 8f4f 	dsb	sy
87803e90:	f3bf 8f6f 	isb	sy
87803e94:	b662      	cpsie	i
87803e96:	f3bf 8f4f 	dsb	sy
87803e9a:	f3bf 8f6f 	isb	sy
87803e9e:	f240 0300 	movw	r3, #0
87803ea2:	f6c8 0300 	movt	r3, #34816	; 0x8800
87803ea6:	681a      	ldr	r2, [r3, #0]
87803ea8:	3201      	adds	r2, #1
87803eaa:	601a      	str	r2, [r3, #0]
87803eac:	681b      	ldr	r3, [r3, #0]
87803eae:	2b01      	cmp	r3, #1
87803eb0:	d000      	beq.n	87803eb4 <vPortEnterCritical+0x44>
87803eb2:	4770      	bx	lr
87803eb4:	f240 2348 	movw	r3, #584	; 0x248
87803eb8:	f6c8 0300 	movt	r3, #34816	; 0x8800
87803ebc:	681b      	ldr	r3, [r3, #0]
87803ebe:	2b00      	cmp	r3, #0
87803ec0:	d0f7      	beq.n	87803eb2 <vPortEnterCritical+0x42>
87803ec2:	b672      	cpsid	i
87803ec4:	f3bf 8f4f 	dsb	sy
87803ec8:	f3bf 8f6f 	isb	sy
87803ecc:	f242 0304 	movw	r3, #8196	; 0x2004
87803ed0:	f2c0 03a0 	movt	r3, #160	; 0xa0
87803ed4:	681a      	ldr	r2, [r3, #0]
87803ed6:	2aa0      	cmp	r2, #160	; 0xa0
87803ed8:	d005      	beq.n	87803ee6 <vPortEnterCritical+0x76>
87803eda:	22a0      	movs	r2, #160	; 0xa0
87803edc:	601a      	str	r2, [r3, #0]
87803ede:	f3bf 8f4f 	dsb	sy
87803ee2:	f3bf 8f6f 	isb	sy
87803ee6:	b662      	cpsie	i
87803ee8:	f3bf 8f4f 	dsb	sy
87803eec:	f3bf 8f6f 	isb	sy
87803ef0:	e7fe      	b.n	87803ef0 <vPortEnterCritical+0x80>
87803ef2:	bf00      	nop

87803ef4 <vPortExitCritical>:
87803ef4:	f240 0300 	movw	r3, #0
87803ef8:	f6c8 0300 	movt	r3, #34816	; 0x8800
87803efc:	681a      	ldr	r2, [r3, #0]
87803efe:	b1c2      	cbz	r2, 87803f32 <vPortExitCritical+0x3e>
87803f00:	681a      	ldr	r2, [r3, #0]
87803f02:	3a01      	subs	r2, #1
87803f04:	601a      	str	r2, [r3, #0]
87803f06:	681b      	ldr	r3, [r3, #0]
87803f08:	b99b      	cbnz	r3, 87803f32 <vPortExitCritical+0x3e>
87803f0a:	b672      	cpsid	i
87803f0c:	f3bf 8f4f 	dsb	sy
87803f10:	f3bf 8f6f 	isb	sy
87803f14:	f242 0304 	movw	r3, #8196	; 0x2004
87803f18:	22ff      	movs	r2, #255	; 0xff
87803f1a:	f2c0 03a0 	movt	r3, #160	; 0xa0
87803f1e:	601a      	str	r2, [r3, #0]
87803f20:	f3bf 8f4f 	dsb	sy
87803f24:	f3bf 8f6f 	isb	sy
87803f28:	b662      	cpsie	i
87803f2a:	f3bf 8f4f 	dsb	sy
87803f2e:	f3bf 8f6f 	isb	sy
87803f32:	4770      	bx	lr

87803f34 <vPortTaskUsesFPU>:
87803f34:	f240 2348 	movw	r3, #584	; 0x248
87803f38:	2101      	movs	r1, #1
87803f3a:	f6c8 0300 	movt	r3, #34816	; 0x8800
87803f3e:	2200      	movs	r2, #0
87803f40:	6099      	str	r1, [r3, #8]
87803f42:	eee1 2a10 	vmsr	fpscr, r2
87803f46:	4770      	bx	lr

87803f48 <vPortClearInterruptMask>:
87803f48:	b998      	cbnz	r0, 87803f72 <vPortClearInterruptMask+0x2a>
87803f4a:	b672      	cpsid	i
87803f4c:	f3bf 8f4f 	dsb	sy
87803f50:	f3bf 8f6f 	isb	sy
87803f54:	f242 0304 	movw	r3, #8196	; 0x2004
87803f58:	22ff      	movs	r2, #255	; 0xff
87803f5a:	f2c0 03a0 	movt	r3, #160	; 0xa0
87803f5e:	601a      	str	r2, [r3, #0]
87803f60:	f3bf 8f4f 	dsb	sy
87803f64:	f3bf 8f6f 	isb	sy
87803f68:	b662      	cpsie	i
87803f6a:	f3bf 8f4f 	dsb	sy
87803f6e:	f3bf 8f6f 	isb	sy
87803f72:	4770      	bx	lr

87803f74 <ulPortSetInterruptMask>:
87803f74:	b672      	cpsid	i
87803f76:	f3bf 8f4f 	dsb	sy
87803f7a:	f3bf 8f6f 	isb	sy
87803f7e:	f242 0304 	movw	r3, #8196	; 0x2004
87803f82:	f2c0 03a0 	movt	r3, #160	; 0xa0
87803f86:	681a      	ldr	r2, [r3, #0]
87803f88:	2aa0      	cmp	r2, #160	; 0xa0
87803f8a:	bf08      	it	eq
87803f8c:	2001      	moveq	r0, #1
87803f8e:	d006      	beq.n	87803f9e <ulPortSetInterruptMask+0x2a>
87803f90:	22a0      	movs	r2, #160	; 0xa0
87803f92:	601a      	str	r2, [r3, #0]
87803f94:	f3bf 8f4f 	dsb	sy
87803f98:	f3bf 8f6f 	isb	sy
87803f9c:	2000      	movs	r0, #0
87803f9e:	b662      	cpsie	i
87803fa0:	f3bf 8f4f 	dsb	sy
87803fa4:	f3bf 8f6f 	isb	sy
87803fa8:	4770      	bx	lr
87803faa:	bf00      	nop

87803fac <vPortValidateInterruptPriority>:
87803fac:	f242 0314 	movw	r3, #8212	; 0x2014
87803fb0:	f2c0 03a0 	movt	r3, #160	; 0xa0
87803fb4:	681b      	ldr	r3, [r3, #0]
87803fb6:	2b9f      	cmp	r3, #159	; 0x9f
87803fb8:	d817      	bhi.n	87803fea <vPortValidateInterruptPriority+0x3e>
87803fba:	b672      	cpsid	i
87803fbc:	f3bf 8f4f 	dsb	sy
87803fc0:	f3bf 8f6f 	isb	sy
87803fc4:	f242 0304 	movw	r3, #8196	; 0x2004
87803fc8:	f2c0 03a0 	movt	r3, #160	; 0xa0
87803fcc:	681a      	ldr	r2, [r3, #0]
87803fce:	2aa0      	cmp	r2, #160	; 0xa0
87803fd0:	d005      	beq.n	87803fde <vPortValidateInterruptPriority+0x32>
87803fd2:	22a0      	movs	r2, #160	; 0xa0
87803fd4:	601a      	str	r2, [r3, #0]
87803fd6:	f3bf 8f4f 	dsb	sy
87803fda:	f3bf 8f6f 	isb	sy
87803fde:	b662      	cpsie	i
87803fe0:	f3bf 8f4f 	dsb	sy
87803fe4:	f3bf 8f6f 	isb	sy
87803fe8:	e7fe      	b.n	87803fe8 <vPortValidateInterruptPriority+0x3c>
87803fea:	f242 0308 	movw	r3, #8200	; 0x2008
87803fee:	f2c0 03a0 	movt	r3, #160	; 0xa0
87803ff2:	681b      	ldr	r3, [r3, #0]
87803ff4:	f003 0303 	and.w	r3, r3, #3
87803ff8:	2b03      	cmp	r3, #3
87803ffa:	d117      	bne.n	8780402c <vPortValidateInterruptPriority+0x80>
87803ffc:	b672      	cpsid	i
87803ffe:	f3bf 8f4f 	dsb	sy
87804002:	f3bf 8f6f 	isb	sy
87804006:	f242 0304 	movw	r3, #8196	; 0x2004
8780400a:	f2c0 03a0 	movt	r3, #160	; 0xa0
8780400e:	681a      	ldr	r2, [r3, #0]
87804010:	2aa0      	cmp	r2, #160	; 0xa0
87804012:	d005      	beq.n	87804020 <vPortValidateInterruptPriority+0x74>
87804014:	22a0      	movs	r2, #160	; 0xa0
