
/home/wyz/Atom/IMX6ULL/Board_Driver/test/led_test/build/led_test.elf:     file format elf32-littlearm


Disassembly of section .text:

87800000 <_start>:
87800000:	e10f0000 	mrs	r0, CPSR
87800004:	e3c0001f 	bic	r0, r0, #31
87800008:	e3800013 	orr	r0, r0, #19
8780000c:	e129f000 	msr	CPSR_fc, r0
87800010:	e51fd000 	ldr	sp, [pc, #-0]	; 87800018 <_start+0x18>
87800014:	ea0001eb 	b	878007c8 <__main_from_arm>
87800018:	80200000 	eorhi	r0, r0, r0
8780001c:	00001e41 	andeq	r1, r0, r1, asr #28
87800020:	61656100 	cmnvs	r5, r0, lsl #2
87800024:	01006962 	tsteq	r0, r2, ror #18
87800028:	00000014 	andeq	r0, r0, r4, lsl r0
8780002c:	412d3705 	teqmi	sp, r5, lsl #14
87800030:	070a0600 	streq	r0, [sl, -r0, lsl #12]
87800034:	09010841 	stmdbeq	r1, {r0, r6, fp}
87800038:	37040a02 	strcc	r0, [r4, -r2, lsl #20]
8780003c:	02000000 	andeq	r0, r0, #0
87800040:	00001e00 	andeq	r1, r0, r0, lsl #28
87800044:	fb010200 	blx	8784084e <__bss_end+0x4007e>
87800048:	01000d0e 	tsteq	r0, lr, lsl #26
8780004c:	00010101 	andeq	r0, r1, r1, lsl #2
87800050:	00010000 	andeq	r0, r1, r0
87800054:	73000100 	movwvc	r0, #256	; 0x100
87800058:	74726174 	ldrbtvc	r6, [r2], #-372	; 0x174
8780005c:	0000532e 	andeq	r5, r0, lr, lsr #6
87800060:	00000000 	andeq	r0, r0, r0
87800064:	00000205 	andeq	r0, r0, r5, lsl #4
87800068:	2f158780 	svccs	0x00158780
8780006c:	2f302f2f 	svccs	0x00302f2f
87800070:	0002022d 	andeq	r0, r2, sp, lsr #4
87800074:	005e0101 	subseq	r0, lr, r1, lsl #2
87800078:	00020000 	andeq	r0, r2, r0
8780007c:	878000d8 			; <UNDEFINED> instruction: 0x878000d8
87800080:	003b0104 	eorseq	r0, fp, r4, lsl #2
87800084:	00008780 	andeq	r8, r0, r0, lsl #15
87800088:	001c8780 	andseq	r8, ip, r0, lsl #15
8780008c:	74738780 	ldrbtvc	r8, [r3], #-1920	; 0x780
87800090:	2e747261 	cdpcs	2, 7, cr7, cr4, cr1, {3}
87800094:	682f0053 	stmdavs	pc!, {r0, r1, r4, r6}	; <UNPREDICTABLE>
87800098:	2f656d6f 	svccs	0x00656d6f
8780009c:	2f7a7977 	svccs	0x007a7977
878000a0:	6d6f7441 	cfstrdvs	mvd7, [pc, #-260]!	; 877fffa4 <_start-0x5c>
878000a4:	584d492f 	stmdapl	sp, {r0, r1, r2, r3, r5, r8, fp, lr}^
878000a8:	4c4c5536 	cfstr64mi	mvdx5, [ip], {54}	; 0x36
878000ac:	616f422f 	cmnvs	pc, pc, lsr #4
878000b0:	445f6472 	ldrbmi	r6, [pc], #-1138	; 878000b8 <_start+0xb8>
878000b4:	65766972 	ldrbvs	r6, [r6, #-2418]!	; 0x972
878000b8:	65742f72 	ldrbvs	r2, [r4, #-3954]!	; 0xf72
878000bc:	6c2f7473 	cfstrsvs	mvf7, [pc], #-460	; 877ffef8 <_start-0x108>
878000c0:	745f6465 	ldrbvc	r6, [pc], #-1125	; 878000c8 <_start+0xc8>
878000c4:	00747365 	rsbseq	r7, r4, r5, ror #6
878000c8:	20554e47 	subscs	r4, r5, r7, asr #28
878000cc:	32205341 	eorcc	r5, r0, #67108865	; 0x4000001
878000d0:	2e34322e 	cdpcs	2, 3, cr3, cr4, cr14, {1}
878000d4:	80010030 	andhi	r0, r1, r0, lsr r0
878000d8:	10001101 	andne	r1, r0, r1, lsl #2
878000dc:	12011106 	andne	r1, r1, #-2147483647	; 0x80000001
878000e0:	1b080301 	blne	87a00cec <__bss_end+0x20051c>
878000e4:	13082508 	movwne	r2, #34056	; 0x8508
878000e8:	00000005 	andeq	r0, r0, r5
878000ec:	00000000 	andeq	r0, r0, r0
878000f0:	0000001c 	andeq	r0, r0, ip, lsl r0
878000f4:	00760002 	rsbseq	r0, r6, r2
878000f8:	00048780 	andeq	r8, r4, r0, lsl #15
878000fc:	00000000 	andeq	r0, r0, r0
87800100:	87800000 	strhi	r0, [r0, r0]
87800104:	0000001c 	andeq	r0, r0, ip, lsl r0
	...

87800110 <bsp_clk_msleep>:
87800110:	b480      	push	{r7}
87800112:	b085      	sub	sp, #20
87800114:	af00      	add	r7, sp, #0
87800116:	6078      	str	r0, [r7, #4]
87800118:	2300      	movs	r3, #0
8780011a:	60fb      	str	r3, [r7, #12]
8780011c:	e00a      	b.n	87800134 <bsp_clk_msleep+0x24>
8780011e:	2300      	movs	r3, #0
87800120:	60fb      	str	r3, [r7, #12]
87800122:	e002      	b.n	8780012a <bsp_clk_msleep+0x1a>
87800124:	68fb      	ldr	r3, [r7, #12]
87800126:	3301      	adds	r3, #1
87800128:	60fb      	str	r3, [r7, #12]
8780012a:	68fb      	ldr	r3, [r7, #12]
8780012c:	f240 72fe 	movw	r2, #2046	; 0x7fe
87800130:	4293      	cmp	r3, r2
87800132:	ddf7      	ble.n	87800124 <bsp_clk_msleep+0x14>
87800134:	687b      	ldr	r3, [r7, #4]
87800136:	1e5a      	subs	r2, r3, #1
87800138:	607a      	str	r2, [r7, #4]
8780013a:	2b00      	cmp	r3, #0
8780013c:	d1ef      	bne.n	8780011e <bsp_clk_msleep+0xe>
8780013e:	3714      	adds	r7, #20
87800140:	46bd      	mov	sp, r7
87800142:	f85d 7b04 	ldr.w	r7, [sp], #4
87800146:	4770      	bx	lr

87800148 <main>:
87800148:	b580      	push	{r7, lr}
8780014a:	b082      	sub	sp, #8
8780014c:	af00      	add	r7, sp, #0
8780014e:	6078      	str	r0, [r7, #4]
87800150:	6039      	str	r1, [r7, #0]
87800152:	f000 fa0f 	bl	87800574 <imx6ull_sclinit>
87800156:	f000 f9e5 	bl	87800524 <all_clk_enable>
8780015a:	f000 fa69 	bl	87800630 <bsp_led_init>
8780015e:	f000 fa83 	bl	87800668 <bsp_led_on>
87800162:	f44f 70fa 	mov.w	r0, #500	; 0x1f4
87800166:	f7ff ffd3 	bl	87800110 <bsp_clk_msleep>
8780016a:	f000 fa85 	bl	87800678 <bsp_led_off>
8780016e:	f44f 70fa 	mov.w	r0, #500	; 0x1f4
87800172:	f7ff ffcd 	bl	87800110 <bsp_clk_msleep>
87800176:	e7f2      	b.n	8780015e <main+0x16>
87800178:	000000cb 	andeq	r0, r0, fp, asr #1
8780017c:	02470004 	subeq	r0, r7, #4
87800180:	01048780 	smlabbeq	r4, r0, r7, r8
87800184:	87800375 			; <UNDEFINED> instruction: 0x87800375
87800188:	80043a01 	andhi	r3, r4, r1, lsl #20
8780018c:	80040887 	andhi	r0, r4, r7, lsl #17
87800190:	80011087 	andhi	r1, r1, r7, lsl #1
87800194:	00006887 	andeq	r6, r0, r7, lsl #17
87800198:	8002fd00 	andhi	pc, r2, r0, lsl #26
8780019c:	08010287 	stmdaeq	r1, {r0, r1, r2, r7, r9}
878001a0:	878003fa 			; <UNDEFINED> instruction: 0x878003fa
878001a4:	46070202 	strmi	r0, [r7], -r2, lsl #4
878001a8:	02878004 	addeq	r8, r7, #4
878001ac:	03ed0704 	mvneq	r0, #4, 14	; 0x100000
878001b0:	08028780 	stmdaeq	r2, {r7, r8, r9, sl, pc}
878001b4:	8003e307 	andhi	lr, r3, r7, lsl #6
878001b8:	08010287 	stmdaeq	r1, {r0, r1, r2, r7, r9}
878001bc:	87800403 	strhi	r0, [r0, r3, lsl #8]
878001c0:	5e050202 	cdppl	2, 0, cr0, cr5, cr2, {0}
878001c4:	03878004 	orreq	r8, r7, #4
878001c8:	6e690504 	cdpvs	5, 6, cr0, cr9, cr4, {0}
878001cc:	04020074 	streq	r0, [r2], #-116	; 0x74
878001d0:	80046807 	andhi	r6, r4, r7, lsl #16
878001d4:	03660487 	cmneq	r6, #-2030043136	; 0x87000000
878001d8:	0d018780 	stceq	7, cr8, [r1, #-512]	; 0xfffffe00
878001dc:	87800110 	usada8hi	r0, r0, r1, r0
878001e0:	00000038 	andeq	r0, r0, r8, lsr r0
878001e4:	008c9c01 	addeq	r9, ip, r1, lsl #24
878001e8:	6d050000 	stcvs	0, cr0, [r5, #-0]
878001ec:	0d010073 	stceq	0, cr0, [r1, #-460]	; 0xfffffe34
878001f0:	0000004f 	andeq	r0, r0, pc, asr #32
878001f4:	066c9102 	strbteq	r9, [ip], -r2, lsl #2
878001f8:	0f010069 	svceq	0x00010069
878001fc:	0000004f 	andeq	r0, r0, pc, asr #32
87800200:	00749102 	rsbseq	r9, r4, r2, lsl #2
87800204:	80036107 	andhi	r6, r3, r7, lsl #2
87800208:	4f160187 	svcmi	0x00160187
8780020c:	48000000 	stmdami	r0, {}	; <UNPREDICTABLE>
87800210:	30878001 	addcc	r8, r7, r1
87800214:	01000000 	mrseq	r0, (UNDEF: 0)
87800218:	0000c29c 	muleq	r0, ip, r2
8780021c:	04410800 	strbeq	r0, [r1], #-2048	; 0x800
87800220:	16018780 	strne	r8, [r1], -r0, lsl #15
87800224:	0000004f 	andeq	r0, r0, pc, asr #32
87800228:	08749102 	ldmdaeq	r4!, {r1, r8, ip, pc}^
8780022c:	87800459 			; <UNDEFINED> instruction: 0x87800459
87800230:	00c21601 	sbceq	r1, r2, r1, lsl #12
87800234:	91020000 	mrsls	r0, (UNDEF: 2)
87800238:	04090070 	streq	r0, [r9], #-112	; 0x70
8780023c:	000000c8 	andeq	r0, r0, r8, asr #1
87800240:	00410409 	subeq	r0, r1, r9, lsl #8
87800244:	01000000 	mrseq	r0, (UNDEF: 0)
87800248:	0e250111 	mcreq	1, 1, r0, cr5, cr1, {0}
8780024c:	0e030b13 	vmoveq.32	d3[0], r0
87800250:	01110e1b 	tsteq	r1, fp, lsl lr
87800254:	17100612 			; <UNDEFINED> instruction: 0x17100612
87800258:	24020000 	strcs	r0, [r2], #-0
8780025c:	3e0b0b00 	vmlacc.f64	d0, d11, d0
87800260:	000e030b 	andeq	r0, lr, fp, lsl #6
87800264:	00240300 	eoreq	r0, r4, r0, lsl #6
87800268:	0b3e0b0b 	bleq	88782e9c <__bss_end+0xf826cc>
8780026c:	00000803 	andeq	r0, r0, r3, lsl #16
87800270:	3f012e04 	svccc	0x00012e04
87800274:	3a0e0319 	bcc	87b80ee0 <__bss_end+0x380710>
87800278:	270b3b0b 	strcs	r3, [fp, -fp, lsl #22]
8780027c:	12011119 	andne	r1, r1, #1073741830	; 0x40000006
87800280:	97184006 	ldrls	r4, [r8, -r6]
87800284:	13011942 	movwne	r1, #6466	; 0x1942
87800288:	05050000 	streq	r0, [r5, #-0]
8780028c:	3a080300 	bcc	87a00e94 <__bss_end+0x2006c4>
87800290:	490b3b0b 	stmdbmi	fp, {r0, r1, r3, r8, r9, fp, ip, sp}
87800294:	00180213 	andseq	r0, r8, r3, lsl r2
87800298:	00340600 	eorseq	r0, r4, r0, lsl #12
8780029c:	0b3a0803 	bleq	886822b0 <__bss_end+0xe81ae0>
878002a0:	13490b3b 	movtne	r0, #39739	; 0x9b3b
878002a4:	00001802 	andeq	r1, r0, r2, lsl #16
878002a8:	3f012e07 	svccc	0x00012e07
878002ac:	3a0e0319 	bcc	87b80f18 <__bss_end+0x380748>
878002b0:	270b3b0b 	strcs	r3, [fp, -fp, lsl #22]
878002b4:	11134919 	tstne	r3, r9, lsl r9
878002b8:	40061201 	andmi	r1, r6, r1, lsl #4
878002bc:	19429618 	stmdbne	r2, {r3, r4, r9, sl, ip, pc}^
878002c0:	00001301 	andeq	r1, r0, r1, lsl #6
878002c4:	03000508 	movweq	r0, #1288	; 0x508
878002c8:	3b0b3a0e 	blcc	87aceb08 <__bss_end+0x2ce338>
878002cc:	0213490b 	andseq	r4, r3, #180224	; 0x2c000
878002d0:	09000018 	stmdbeq	r0, {r3, r4}
878002d4:	0b0b000f 	bleq	87ac0318 <__bss_end+0x2bfb48>
878002d8:	00001349 	andeq	r1, r0, r9, asr #6
878002dc:	00001c00 	andeq	r1, r0, r0, lsl #24
878002e0:	78000200 	stmdavc	r0, {r9}
878002e4:	04878001 	streq	r8, [r7], #1
878002e8:	00000000 	andeq	r0, r0, r0
878002ec:	80011000 	andhi	r1, r1, r0
878002f0:	00006887 	andeq	r6, r0, r7, lsl #17
	...
878002fc:	00006000 	andeq	r6, r0, r0
87800300:	1d000200 	sfmne	f0, 4, [r0, #-0]
87800304:	02000000 	andeq	r0, r0, #0
87800308:	0d0efb01 	vstreq	d15, [lr, #-4]
8780030c:	01010100 	mrseq	r0, (UNDEF: 17)
87800310:	00000001 	andeq	r0, r0, r1
87800314:	01000001 	tsteq	r0, r1
87800318:	73657400 	cmnvc	r5, #0, 8
8780031c:	00632e74 	rsbeq	r2, r3, r4, ror lr
87800320:	00000000 	andeq	r0, r0, r0
87800324:	10020500 	andne	r0, r2, r0, lsl #10
87800328:	03878001 	orreq	r8, r7, #1
8780032c:	2f4b010d 	svccs	0x004b010d
87800330:	04020022 	streq	r0, [r2], #-34	; 0x22
87800334:	003c0603 	eorseq	r0, ip, r3, lsl #12
87800338:	3c010402 	cfstrscc	mvf0, [r1], {2}
8780033c:	5b5c5606 	blpl	88f15b5c <__bss_end+0x171538c>
87800340:	002f2f59 	eoreq	r2, pc, r9, asr pc	; <UNPREDICTABLE>
87800344:	32010402 	andcc	r0, r1, #33554432	; 0x2000000
87800348:	01040200 	mrseq	r0, R12_usr
8780034c:	0402002f 	streq	r0, [r2], #-47	; 0x2f
87800350:	02004c01 	andeq	r4, r0, #256	; 0x100
87800354:	002f0104 	eoreq	r0, pc, r4, lsl #2
87800358:	4b010402 	blmi	87841368 <__bss_end+0x40b98>
8780035c:	01000102 	tsteq	r0, r2, lsl #2
87800360:	69616d01 	stmdbvs	r1!, {r0, r8, sl, fp, sp, lr}^
87800364:	7362006e 	cmnvc	r2, #110	; 0x6e
87800368:	6c635f70 	stclvs	15, cr5, [r3], #-448	; 0xfffffe40
8780036c:	736d5f6b 	cmnvc	sp, #428	; 0x1ac
87800370:	7065656c 	rsbvc	r6, r5, ip, ror #10
87800374:	554e4700 	strbpl	r4, [lr, #-1792]	; 0x700
87800378:	34204320 	strtcc	r4, [r0], #-800	; 0x320
8780037c:	342e392e 	strtcc	r3, [lr], #-2350	; 0x92e
87800380:	616d2d20 	cmnvs	sp, r0, lsr #26
87800384:	3d686372 	stclcc	3, cr6, [r8, #-456]!	; 0xfffffe38
87800388:	766d7261 	strbtvc	r7, [sp], -r1, ror #4
8780038c:	20612d37 	rsbcs	r2, r1, r7, lsr sp
87800390:	75746d2d 	ldrbvc	r6, [r4, #-3373]!	; 0xd2d
87800394:	633d656e 	teqvs	sp, #461373440	; 0x1b800000
87800398:	6574726f 	ldrbvs	r7, [r4, #-623]!	; 0x26f
8780039c:	39612d78 	stmdbcc	r1!, {r3, r4, r5, r6, r8, sl, fp, sp}^
878003a0:	666d2d20 	strbtvs	r2, [sp], -r0, lsr #26
878003a4:	74616f6c 	strbtvc	r6, [r1], #-3948	; 0xf6c
878003a8:	6962612d 	stmdbvs	r2!, {r0, r2, r3, r5, r8, sp, lr}^
878003ac:	7261683d 	rsbvc	r6, r1, #3997696	; 0x3d0000
878003b0:	6d2d2064 	stcvs	0, cr2, [sp, #-400]!	; 0xfffffe70
878003b4:	3d757066 	ldclcc	0, cr7, [r5, #-408]!	; 0xfffffe68
878003b8:	76706676 			; <UNDEFINED> instruction: 0x76706676
878003bc:	31642d33 	cmncc	r4, r3, lsr sp
878003c0:	6d2d2036 	stcvs	0, cr2, [sp, #-216]!	; 0xffffff28
878003c4:	6d756874 	ldclvs	8, cr6, [r5, #-464]!	; 0xfffffe30
878003c8:	6d2d2062 	stcvs	0, cr2, [sp, #-392]!	; 0xfffffe78
878003cc:	2d736c74 	ldclcs	12, cr6, [r3, #-464]!	; 0xfffffe30
878003d0:	6c616964 	stclvs	9, cr6, [r1], #-400	; 0xfffffe70
878003d4:	3d746365 	ldclcc	3, cr6, [r4, #-404]!	; 0xfffffe6c
878003d8:	20756e67 	rsbscs	r6, r5, r7, ror #28
878003dc:	2d20672d 	stccs	7, cr6, [r0, #-180]!	; 0xffffff4c
878003e0:	6c00304f 	stcvs	0, cr3, [r0], {79}	; 0x4f
878003e4:	20676e6f 	rsbcs	r6, r7, pc, ror #28
878003e8:	676e6f6c 	strbvs	r6, [lr, -ip, ror #30]!
878003ec:	736e7520 	cmnvc	lr, #32, 10	; 0x8000000
878003f0:	656e6769 	strbvs	r6, [lr, #-1897]!	; 0x769
878003f4:	6e692064 	cdpvs	0, 6, cr2, cr9, cr4, {3}
878003f8:	6e750074 	mrcvs	0, 3, r0, cr5, cr4, {3}
878003fc:	6e676973 	mcrvs	9, 3, r6, cr7, cr3, {3}
87800400:	63206465 	teqvs	r0, #1694498816	; 0x65000000
87800404:	00726168 	rsbseq	r6, r2, r8, ror #2
87800408:	6d6f682f 	stclvs	8, cr6, [pc, #-188]!	; 87800354 <main+0x20c>
8780040c:	79772f65 	ldmdbvc	r7!, {r0, r2, r5, r6, r8, r9, sl, fp, sp}^
87800410:	74412f7a 	strbvc	r2, [r1], #-3962	; 0xf7a
87800414:	492f6d6f 	stmdbmi	pc!, {r0, r1, r2, r3, r5, r6, r8, sl, fp, sp, lr}	; <UNPREDICTABLE>
87800418:	5536584d 	ldrpl	r5, [r6, #-2125]!	; 0x84d
8780041c:	422f4c4c 	eormi	r4, pc, #76, 24	; 0x4c00
87800420:	6472616f 	ldrbtvs	r6, [r2], #-367	; 0x16f
87800424:	6972445f 	ldmdbvs	r2!, {r0, r1, r2, r3, r4, r6, sl, lr}^
87800428:	2f726576 	svccs	0x00726576
8780042c:	74736574 	ldrbtvc	r6, [r3], #-1396	; 0x574
87800430:	64656c2f 	strbtvs	r6, [r5], #-3119	; 0xc2f
87800434:	7365745f 	cmnvc	r5, #1593835520	; 0x5f000000
87800438:	65740074 	ldrbvs	r0, [r4, #-116]!	; 0x74
8780043c:	632e7473 	teqvs	lr, #1929379840	; 0x73000000
87800440:	67726100 	ldrbvs	r6, [r2, -r0, lsl #2]!
87800444:	68730063 	ldmdavs	r3!, {r0, r1, r5, r6}^
87800448:	2074726f 	rsbscs	r7, r4, pc, ror #4
8780044c:	69736e75 	ldmdbvs	r3!, {r0, r2, r4, r5, r6, r9, sl, fp, sp, lr}^
87800450:	64656e67 	strbtvs	r6, [r5], #-3687	; 0xe67
87800454:	746e6920 	strbtvc	r6, [lr], #-2336	; 0x920
87800458:	67726100 	ldrbvs	r6, [r2, -r0, lsl #2]!
8780045c:	68730076 	ldmdavs	r3!, {r1, r2, r4, r5, r6}^
87800460:	2074726f 	rsbscs	r7, r4, pc, ror #4
87800464:	00746e69 	rsbseq	r6, r4, r9, ror #28
87800468:	657a6973 	ldrbvs	r6, [sl, #-2419]!	; 0x973
8780046c:	65707974 	ldrbvs	r7, [r0, #-2420]!	; 0x974
87800470:	43434700 	movtmi	r4, #14080	; 0x3700
87800474:	4c28203a 	stcmi	0, cr2, [r8], #-232	; 0xffffff18
87800478:	72616e69 	rsbvc	r6, r1, #1680	; 0x690
8780047c:	4347206f 	movtmi	r2, #28783	; 0x706f
87800480:	2e342043 	cdpcs	0, 3, cr2, cr4, cr3, {2}
87800484:	30322d39 	eorscc	r2, r2, r9, lsr sp
87800488:	302e3731 	eorcc	r3, lr, r1, lsr r7
8780048c:	34202931 	strtcc	r2, [r0], #-2353	; 0x931
87800490:	342e392e 	strtcc	r3, [lr], #-2350	; 0x92e
87800494:	00344100 	eorseq	r4, r4, r0, lsl #2
87800498:	65610000 	strbvs	r0, [r1, #-0]!
8780049c:	00696261 	rsbeq	r6, r9, r1, ror #4
878004a0:	00002a01 	andeq	r2, r0, r1, lsl #20
878004a4:	2d370500 	cfldr32cs	mvfx0, [r7, #-0]
878004a8:	0a060041 	beq	879805b4 <__bss_end+0x17fde4>
878004ac:	01084107 	tsteq	r8, r7, lsl #2
878004b0:	040a0209 	streq	r0, [sl], #-521	; 0x209
878004b4:	01140412 	tsteq	r4, r2, lsl r4
878004b8:	03170115 	tsteq	r7, #1073741829	; 0x40000005
878004bc:	01190118 	tsteq	r9, r8, lsl r1
878004c0:	031b021a 	tsteq	fp, #-1610612735	; 0xa0000001
878004c4:	061e011c 			; <UNDEFINED> instruction: 0x061e011c
878004c8:	00000122 	andeq	r0, r0, r2, lsr #2
878004cc:	0000000c 	andeq	r0, r0, ip
878004d0:	ffffffff 			; <UNDEFINED> instruction: 0xffffffff
878004d4:	7c020001 	stcvc	0, cr0, [r2], {1}
878004d8:	000d0c0e 	andeq	r0, sp, lr, lsl #24
878004dc:	00000024 	andeq	r0, r0, r4, lsr #32
878004e0:	878004cc 	strhi	r0, [r0, ip, asr #9]
878004e4:	87800110 	usada8hi	r0, r0, r1, r0
878004e8:	00000038 	andeq	r0, r0, r8, lsr r0
878004ec:	87040e41 	strhi	r0, [r4, -r1, asr #28]
878004f0:	180e4101 	stmdane	lr, {r0, r8, lr}
878004f4:	55070d41 	strpl	r0, [r7, #-3393]	; 0xd41
878004f8:	0d41040e 	cfstrdeq	mvd0, [r1, #-56]	; 0xffffffc8
878004fc:	0ec7420d 	cdpeq	2, 12, cr4, cr7, cr13, {0}
87800500:	00000000 	andeq	r0, r0, r0
87800504:	0000001c 	andeq	r0, r0, ip, lsl r0
87800508:	878004cc 	strhi	r0, [r0, ip, asr #9]
8780050c:	87800148 	strhi	r0, [r0, r8, asr #2]
87800510:	00000030 	andeq	r0, r0, r0, lsr r0
87800514:	87080e41 	strhi	r0, [r8, -r1, asr #28]
87800518:	41018e02 	tstmi	r1, r2, lsl #28
8780051c:	0d41100e 	stcleq	0, cr1, [r1, #-56]	; 0xffffffc8
87800520:	00000007 	andeq	r0, r0, r7

87800524 <all_clk_enable>:
87800524:	f244 0168 	movw	r1, #16488	; 0x4068
87800528:	f244 026c 	movw	r2, #16492	; 0x406c
8780052c:	f04f 33ff 	mov.w	r3, #4294967295	; 0xffffffff
87800530:	f2c0 210c 	movt	r1, #524	; 0x20c
87800534:	f2c0 220c 	movt	r2, #524	; 0x20c
87800538:	b430      	push	{r4, r5}
8780053a:	f244 0078 	movw	r0, #16504	; 0x4078
8780053e:	600b      	str	r3, [r1, #0]
87800540:	f244 0570 	movw	r5, #16496	; 0x4070
87800544:	f244 0474 	movw	r4, #16500	; 0x4074
87800548:	6013      	str	r3, [r2, #0]
8780054a:	f244 017c 	movw	r1, #16508	; 0x407c
8780054e:	f44f 4281 	mov.w	r2, #16512	; 0x4080
87800552:	f2c0 250c 	movt	r5, #524	; 0x20c
87800556:	f2c0 240c 	movt	r4, #524	; 0x20c
8780055a:	f2c0 200c 	movt	r0, #524	; 0x20c
8780055e:	f2c0 210c 	movt	r1, #524	; 0x20c
87800562:	f2c0 220c 	movt	r2, #524	; 0x20c
87800566:	602b      	str	r3, [r5, #0]
87800568:	6023      	str	r3, [r4, #0]
8780056a:	6003      	str	r3, [r0, #0]
8780056c:	600b      	str	r3, [r1, #0]
8780056e:	6013      	str	r3, [r2, #0]
87800570:	bc30      	pop	{r4, r5}
87800572:	4770      	bx	lr

87800574 <imx6ull_sclinit>:
87800574:	f244 020c 	movw	r2, #16396	; 0x400c
87800578:	b430      	push	{r4, r5}
8780057a:	f2c0 220c 	movt	r2, #524	; 0x20c
8780057e:	f244 000c 	movw	r0, #16396	; 0x400c
87800582:	f242 0442 	movw	r4, #8258	; 0x2042
87800586:	f2c0 200c 	movt	r0, #524	; 0x20c
8780058a:	6813      	ldr	r3, [r2, #0]
8780058c:	2501      	movs	r5, #1
8780058e:	b2db      	uxtb	r3, r3
87800590:	0759      	lsls	r1, r3, #29
87800592:	f44f 4100 	mov.w	r1, #32768	; 0x8000
87800596:	bf58      	it	pl
87800598:	f043 0304 	orrpl.w	r3, r3, #4
8780059c:	f2c0 210c 	movt	r1, #524	; 0x20c
878005a0:	bf58      	it	pl
878005a2:	6013      	strpl	r3, [r2, #0]
878005a4:	f244 0210 	movw	r2, #16400	; 0x4010
878005a8:	f003 03fb 	and.w	r3, r3, #251	; 0xfb
878005ac:	f2c0 220c 	movt	r2, #524	; 0x20c
878005b0:	600c      	str	r4, [r1, #0]
878005b2:	f241 041b 	movw	r4, #4123	; 0x101b
878005b6:	6003      	str	r3, [r0, #0]
878005b8:	f2c2 0418 	movt	r4, #8216	; 0x2018
878005bc:	6015      	str	r5, [r2, #0]
878005be:	f241 000c 	movw	r0, #4108	; 0x100c
878005c2:	f8d1 5100 	ldr.w	r5, [r1, #256]	; 0x100
878005c6:	f2c1 3011 	movt	r0, #4881	; 0x1311
878005ca:	f44f 4280 	mov.w	r2, #16384	; 0x4000
878005ce:	f2c0 220c 	movt	r2, #524	; 0x20c
878005d2:	f005 35c0 	and.w	r5, r5, #3233857728	; 0xc0c0c0c0
878005d6:	4613      	mov	r3, r2
878005d8:	432c      	orrs	r4, r5
878005da:	f8c1 4100 	str.w	r4, [r1, #256]	; 0x100
878005de:	f8d1 40f0 	ldr.w	r4, [r1, #240]	; 0xf0
878005e2:	f004 34c0 	and.w	r4, r4, #3233857728	; 0xc0c0c0c0
878005e6:	4320      	orrs	r0, r4
878005e8:	f8c1 00f0 	str.w	r0, [r1, #240]	; 0xf0
878005ec:	6991      	ldr	r1, [r2, #24]
878005ee:	f421 2140 	bic.w	r1, r1, #786432	; 0xc0000
878005f2:	6191      	str	r1, [r2, #24]
878005f4:	6991      	ldr	r1, [r2, #24]
878005f6:	f441 2180 	orr.w	r1, r1, #262144	; 0x40000
878005fa:	6191      	str	r1, [r2, #24]
878005fc:	6951      	ldr	r1, [r2, #20]
878005fe:	f021 7100 	bic.w	r1, r1, #33554432	; 0x2000000
87800602:	6151      	str	r1, [r2, #20]
87800604:	6c9a      	ldr	r2, [r3, #72]	; 0x48
87800606:	0692      	lsls	r2, r2, #26
87800608:	d4fc      	bmi.n	87800604 <imx6ull_sclinit+0x90>
8780060a:	695a      	ldr	r2, [r3, #20]
8780060c:	f422 7240 	bic.w	r2, r2, #768	; 0x300
87800610:	615a      	str	r2, [r3, #20]
87800612:	695a      	ldr	r2, [r3, #20]
87800614:	f442 7280 	orr.w	r2, r2, #256	; 0x100
87800618:	615a      	str	r2, [r3, #20]
8780061a:	69da      	ldr	r2, [r3, #28]
8780061c:	f022 0240 	bic.w	r2, r2, #64	; 0x40
87800620:	61da      	str	r2, [r3, #28]
87800622:	69da      	ldr	r2, [r3, #28]
87800624:	f022 0207 	bic.w	r2, r2, #7
87800628:	61da      	str	r2, [r3, #28]
8780062a:	bc30      	pop	{r4, r5}
8780062c:	4770      	bx	lr
8780062e:	bf00      	nop

87800630 <bsp_led_init>:
87800630:	2268      	movs	r2, #104	; 0x68
87800632:	f44f 733d 	mov.w	r3, #756	; 0x2f4
87800636:	b510      	push	{r4, lr}
87800638:	f2c0 220e 	movt	r2, #526	; 0x20e
8780063c:	b084      	sub	sp, #16
8780063e:	2405      	movs	r4, #5
87800640:	f2c0 230e 	movt	r3, #526	; 0x20e
87800644:	f241 01b0 	movw	r1, #4272	; 0x10b0
87800648:	f44f 4040 	mov.w	r0, #49152	; 0xc000
8780064c:	6014      	str	r4, [r2, #0]
8780064e:	f2c0 2009 	movt	r0, #521	; 0x209
87800652:	6019      	str	r1, [r3, #0]
87800654:	aa01      	add	r2, sp, #4
87800656:	2301      	movs	r3, #1
87800658:	2103      	movs	r1, #3
8780065a:	9301      	str	r3, [sp, #4]
8780065c:	f88d 3008 	strb.w	r3, [sp, #8]
87800660:	f000 f826 	bl	878006b0 <gpio_init>
87800664:	b004      	add	sp, #16
87800666:	bd10      	pop	{r4, pc}

87800668 <bsp_led_on>:
87800668:	f44f 4040 	mov.w	r0, #49152	; 0xc000
8780066c:	2200      	movs	r2, #0
8780066e:	f2c0 2009 	movt	r0, #521	; 0x209
87800672:	2103      	movs	r1, #3
87800674:	f000 b840 	b.w	878006f8 <gpio_pinwrite>

87800678 <bsp_led_off>:
87800678:	f44f 4040 	mov.w	r0, #49152	; 0xc000
8780067c:	2201      	movs	r2, #1
8780067e:	f2c0 2009 	movt	r0, #521	; 0x209
87800682:	2103      	movs	r1, #3
87800684:	f000 b838 	b.w	878006f8 <gpio_pinwrite>

87800688 <bsp_led_switch>:
87800688:	2801      	cmp	r0, #1
8780068a:	d009      	beq.n	878006a0 <bsp_led_switch+0x18>
8780068c:	b100      	cbz	r0, 87800690 <bsp_led_switch+0x8>
8780068e:	4770      	bx	lr
87800690:	f44f 4040 	mov.w	r0, #49152	; 0xc000
87800694:	2201      	movs	r2, #1
87800696:	f2c0 2009 	movt	r0, #521	; 0x209
8780069a:	2103      	movs	r1, #3
8780069c:	f000 b82c 	b.w	878006f8 <gpio_pinwrite>
878006a0:	f44f 4040 	mov.w	r0, #49152	; 0xc000
878006a4:	2200      	movs	r2, #0
878006a6:	f2c0 2009 	movt	r0, #521	; 0x209
878006aa:	2103      	movs	r1, #3
878006ac:	f000 b824 	b.w	878006f8 <gpio_pinwrite>

878006b0 <gpio_init>:
878006b0:	b410      	push	{r4}
878006b2:	2301      	movs	r3, #1
878006b4:	6814      	ldr	r4, [r2, #0]
878006b6:	fa03 f101 	lsl.w	r1, r3, r1
878006ba:	6843      	ldr	r3, [r0, #4]
878006bc:	b14c      	cbz	r4, 878006d2 <gpio_init+0x22>
878006be:	430b      	orrs	r3, r1
878006c0:	6043      	str	r3, [r0, #4]
878006c2:	7913      	ldrb	r3, [r2, #4]
878006c4:	b15b      	cbz	r3, 878006de <gpio_init+0x2e>
878006c6:	6803      	ldr	r3, [r0, #0]
878006c8:	f85d 4b04 	ldr.w	r4, [sp], #4
878006cc:	4319      	orrs	r1, r3
878006ce:	6001      	str	r1, [r0, #0]
878006d0:	4770      	bx	lr
878006d2:	ea23 0101 	bic.w	r1, r3, r1
878006d6:	f85d 4b04 	ldr.w	r4, [sp], #4
878006da:	6041      	str	r1, [r0, #4]
878006dc:	4770      	bx	lr
878006de:	6803      	ldr	r3, [r0, #0]
878006e0:	f85d 4b04 	ldr.w	r4, [sp], #4
878006e4:	ea23 0101 	bic.w	r1, r3, r1
878006e8:	6001      	str	r1, [r0, #0]
878006ea:	4770      	bx	lr

878006ec <gpio_pinread>:
878006ec:	6800      	ldr	r0, [r0, #0]
878006ee:	40c8      	lsrs	r0, r1
878006f0:	f000 0001 	and.w	r0, r0, #1
878006f4:	4770      	bx	lr
878006f6:	bf00      	nop

878006f8 <gpio_pinwrite>:
878006f8:	2301      	movs	r3, #1
878006fa:	fa03 f101 	lsl.w	r1, r3, r1
878006fe:	6803      	ldr	r3, [r0, #0]
87800700:	b112      	cbz	r2, 87800708 <gpio_pinwrite+0x10>
87800702:	4319      	orrs	r1, r3
87800704:	6001      	str	r1, [r0, #0]
87800706:	4770      	bx	lr
87800708:	ea23 0101 	bic.w	r1, r3, r1
8780070c:	6001      	str	r1, [r0, #0]
8780070e:	4770      	bx	lr

87800710 <gpio_int_init>:
87800710:	b470      	push	{r4, r5, r6}
87800712:	2301      	movs	r3, #1
87800714:	69c4      	ldr	r4, [r0, #28]
87800716:	408b      	lsls	r3, r1
87800718:	290f      	cmp	r1, #15
8780071a:	f102 32ff 	add.w	r2, r2, #4294967295	; 0xffffffff
8780071e:	bf98      	it	ls
87800720:	f100 050c 	addls.w	r5, r0, #12
87800724:	ea24 0403 	bic.w	r4, r4, r3
87800728:	bf88      	it	hi
8780072a:	3910      	subhi	r1, #16
8780072c:	61c4      	str	r4, [r0, #28]
8780072e:	bf8a      	itet	hi
87800730:	f100 0510 	addhi.w	r5, r0, #16
87800734:	68c6      	ldrls	r6, [r0, #12]
87800736:	6906      	ldrhi	r6, [r0, #16]
87800738:	2a04      	cmp	r2, #4
8780073a:	d80e      	bhi.n	8780075a <gpio_int_init+0x4a>
8780073c:	e8df f002 	tbb	[pc, r2]
87800740:	201c0313 	andscs	r0, ip, r3, lsl r3
87800744:	0049000f 	subeq	r0, r9, pc
87800748:	2203      	movs	r2, #3
8780074a:	2301      	movs	r3, #1
8780074c:	408a      	lsls	r2, r1
8780074e:	fa03 f101 	lsl.w	r1, r3, r1
87800752:	ea61 0102 	orn	r1, r1, r2
87800756:	400e      	ands	r6, r1
87800758:	602e      	str	r6, [r5, #0]
8780075a:	bc70      	pop	{r4, r5, r6}
8780075c:	4770      	bx	lr
8780075e:	4323      	orrs	r3, r4
87800760:	bc70      	pop	{r4, r5, r6}
87800762:	61c3      	str	r3, [r0, #28]
87800764:	4770      	bx	lr
87800766:	0049      	lsls	r1, r1, #1
87800768:	2303      	movs	r3, #3
8780076a:	fa03 f101 	lsl.w	r1, r3, r1
8780076e:	ea26 0601 	bic.w	r6, r6, r1
87800772:	602e      	str	r6, [r5, #0]
87800774:	bc70      	pop	{r4, r5, r6}
87800776:	4770      	bx	lr
87800778:	0049      	lsls	r1, r1, #1
8780077a:	2203      	movs	r2, #3
8780077c:	2302      	movs	r3, #2
8780077e:	e7e5      	b.n	8780074c <gpio_int_init+0x3c>
87800780:	0049      	lsls	r1, r1, #1
87800782:	2303      	movs	r3, #3
87800784:	fa03 f101 	lsl.w	r1, r3, r1
87800788:	430e      	orrs	r6, r1
8780078a:	602e      	str	r6, [r5, #0]
8780078c:	bc70      	pop	{r4, r5, r6}
8780078e:	4770      	bx	lr

87800790 <gpio_int_enable>:
87800790:	6942      	ldr	r2, [r0, #20]
87800792:	2301      	movs	r3, #1
87800794:	fa03 f101 	lsl.w	r1, r3, r1
87800798:	4211      	tst	r1, r2
8780079a:	bf04      	itt	eq
8780079c:	4311      	orreq	r1, r2
8780079e:	6141      	streq	r1, [r0, #20]
878007a0:	4770      	bx	lr
878007a2:	bf00      	nop

878007a4 <gpio_int_disable>:
878007a4:	6943      	ldr	r3, [r0, #20]
878007a6:	2201      	movs	r2, #1
878007a8:	fa02 f101 	lsl.w	r1, r2, r1
878007ac:	ea23 0301 	bic.w	r3, r3, r1
878007b0:	6143      	str	r3, [r0, #20]
878007b2:	4770      	bx	lr

878007b4 <gpio_int_clear>:
878007b4:	6982      	ldr	r2, [r0, #24]
878007b6:	2301      	movs	r3, #1
878007b8:	fa03 f101 	lsl.w	r1, r3, r1
878007bc:	4211      	tst	r1, r2
878007be:	bf04      	itt	eq
878007c0:	4311      	orreq	r1, r2
878007c2:	6181      	streq	r1, [r0, #24]
878007c4:	4770      	bx	lr
878007c6:	bf00      	nop

878007c8 <__main_from_arm>:
878007c8:	e51ff004 	ldr	pc, [pc, #-4]	; 878007cc <__main_from_arm+0x4>
878007cc:	87800149 	strhi	r0, [r0, r9, asr #2]

